:020000040000FA
:10000000F8260020F90200000103000003030000AD
:1000100005030000070300000903000000000000C2
:100020000000000000000000000000000B030000C2
:100030000D030000000000000F030000110300008A
:100040001303000013030000E50600001303000083
:100050001303000013030000130300001303000048
:100060001303000013030000130300001303000038
:1000700013030000A103000013030000130300009A
:100080001303000013030000130300001303000018
:100090001303000013030000130300001303000008
:1000A00013030000130300001303000013030000F8
:1000B0001303000013030000000000000000000014
:1000C00013030000130300001303000013030000D8
:1000D00013030000130300001303000000000000DE
:1000E0000000000000000000000000000000000010
:1000F0000000000000000000000000000000000000
:1001000000000000000000000000000000000000EF
:1001100000000000000000000000000000000000DF
:1001200000000000000000000000000000000000CF
:1001300000000000000000000000000000000000BF
:1001400000000000000000000000000000000000AF
:10015000000000000000000000000000000000009F
:10016000000000000000000000000000000000008F
:10017000000000000000000000000000000000007F
:10018000000000000000000000000000000000006F
:10019000000000000000000000000000000000005F
:1001A000000000000000000000000000000000004F
:1001B000000000000000000000000000000000003F
:1001C000000000000000000000000000000000002F
:1001D000000000000000000000000000000000001F
:1001E000000000000000000000000000000000000F
:1001F00000000000000000000000000000000000FF
:10020000DFF80CD000F0BAF800480047ED0B000012
:10021000F826002030B4044654E8000F0D4644E8A8
:100220000053002BF8D1156030BC704730B4044641
:1002300054E8000F40EA010544E80053002BF7D1D1
:10024000156030BC704730B4044654E8000F00EA33
:10025000010544E80053002BF7D1156030BC70470E
:1002600030B4044654E8000F80EA010544E8005326
:10027000002BF7D1156030BC704730B4044654E809
:10028000000F00EB010544E80053002BF7D1156087
:1002900030BC704730B4044654E8000FA0EB0105B1
:1002A00044E80053002BF7D1156030BC704770B4A0
:1002B00004464FF0000054E8006F0D68AE4207BFDF
:1002C00044E80023012044E800630E60002B1CBFBB
:1002D0000020F0E770BC704730B4044654E8000FCB
:1002E00088422CBF451A054644E80053002BF5D13F
:1002F000156030BC7047000006488047064800473C
:10030000FEE7FEE7FEE7FEE7FEE7FEE7FEE7FEE7C5
:10031000FEE7FEE7C9030000010200000048704745
:10032000CC27000040EA01039B0703D009E008C97D
:10033000121F08C0042AFAD203E011F8013B00F8AA
:10034000013B521EF9D27047D2B201E000F8012BF6
:10035000491EFBD270470022F6E710B513460A4645
:1003600004461946FFF7F0FF204610BD421C10F866
:10037000011B0029FBD1801A70470000064C074D75
:1003800006E0E06840F0010394E807009847103465
:10039000AC42F6D3FFF738FF6C2800008C28000031
:1003A000064882B00021016000680090044800689F
:1003B0000449C0B2496802B00847000000D10040BB
:1003C00008D5004018000020F0B5B5480023021DF4
:1003D0000178101D01254FF0805406290BD11678A5
:1003E000360708D10678C6F30316032E06D0042E6E
:1003F00004D0052E02D0062907D00EE0B4F82463FD
:10040000A84FC6F304263E6002E01678360704D1F2
:100410000678C6F30316032E02D0062904D00FE097
:10042000A24FA14E7E670EE01678360708D10678F7
:10043000C6F30316032E06D0042E04D0052E02D0D8
:10044000062907D00EE0D4F84462994FC6F342362D
:100450003E6002E01678360704D10678C6F303162C
:10046000032E02D0062906D011E0924E376827F0FD
:10047000807737600EE01678360708D10678C6F325
:100480000316032E06D0042E04D0052E02D0062912
:100490000AD011E04FF08046C6F80C31C6F8103192
:1004A000834E361F336002E01678360704D1067893
:1004B000C6F30316032E02D0062905D00CE07C4FAC
:1004C000032664373E600AE01678360704D10678C2
:1004D000C6F30316032E02D006290DD014E0764F82
:1004E00005263E60744E78363560734E08363360AC
:1004F0003F263F1D3E6002E01678360704D106789D
:10050000C6F30316052E02D0062957D062E06B4EC3
:1005100036686B4F3E60694E361D36683F1D3E6043
:10052000664E083636683F1D3E60644E0C363668AF
:100530003F1D3E60614E103636683F1D3E605F4E87
:10054000143636683F1D3E605C4E183636685C4F88
:1005500020373E60594E1C3636683F1D3E60574E70
:10056000203636683F1D3E60544E243636683F1DA7
:100570003E60524E283636683F1D3E604F4E2C3648
:1005800036683F1D3E604D4E303636684C4F403722
:100590003E604A4E343636683F1D3E60474E383620
:1005A00036683F1D3E60454E3C3636683F1D3E6016
:1005B000424E403636683F1D3E6002E016783607F0
:1005C00008D10678C6F30316032E06D0042E04D0F5
:1005D000052E02D0062907D019E0D4F85812394A5E
:1005E00001F04F01116002E0117809070FD1007886
:1005F000C0F30310032803D0042801D0052806D136
:1006000031480168C90702D06FF001010160D4F8D8
:100610003001062808D1D4F83401062804D12B482B
:10062000016841F48061016022487438016841F436
:1006300070010160BFF34F8FBFF36F8F4FF0102138
:10064000D1F80002002803DBD1F80402002822DAE6
:100650001F4A15601F480468002CFCD01524C1F8FF
:1006600000420568002DFCD0C1F804420168002951
:10067000FCD0136001680029FCD0BFF34F8F0D48F8
:10068000F0380168144A01F4E06111430160BFF3DE
:100690004F8F00BFFDE7124910480860F0BD000011
:1006A000E00F00F0403501400DF0ADBA00C007404A
:1006B0003C050040FCED00E0105600400404001032
:1006C00020C50040E40E0040000400403C170040FC
:1006D00004E5014000E401400400FA050090D00365
:1006E000940000200148006800470000100000202E
:1006F00002E008C8121F08C1002AFAD170477047EB
:10070000002001E001C1121F002AFBD17047000048
:1007100072B601F03BF800BF00F03AFE0028FBD1B2
:1007200011481249401AC408012000EB044010A1EE
:1007300000F09AFF11480068C00700D000BE0220F8
:1007400000EB04400EA100F08FFFBFF34F8F0B486A
:10075000E43801680E4A01F4E06111430160BFF31F
:100760004F8F00BFFDE70000C42800009C28000058
:10077000466174616C206572726F7200F0ED00E08A
:1007800053797374656D20726573657400000000A1
:100790000400FA050EB500210091CDE901106A466A
:1007A00044F20100FFF7B4FF0EBD00F003B800F003
:1007B00009B8000072B602480168491C0160704720
:1007C0002000002003490868401E086000D162B67E
:1007D00070470000200000202DE9F041064608681F
:1007E0000C46411C4FF0A0474FF0010506D005FA1A
:1007F00000F1C7F80815206800F0D8FC6068411CBB
:1008000002D0002100F0C0FC3168A069C1F82405C5
:10081000607D227D31681043C1F86C05D4E9001277
:100820003068C0F81425C0F80C15207D012815D1BA
:10083000A068411C02D0002100F0A6FCE068411C29
:1008400005D08540C7F80855E06800F0AFFCD4E952
:1008500002123068C0F80825C0F81015BDE8F08114
:100860002DE9F041064608680C46411C4FF0A047B0
:100870004FF0010506D005FA00F1C7F80815206809
:1008800000F09EFC6068411C02D0002100F085FC55
:100890003168A069C1F82405607D217D3268084374
:1008A000C2F86C05D4E900123068C0F80C15C0F825
:1008B0001425207D012815D1A068411C02D00021FB
:1008C00000F06BFCE068411C05D08540C7F8085576
:1008D000E06800F075FCD4E902123068C0F8082521
:1008E000C0F81015BDE8F0812DE9F0470546861CDB
:1008F00090460F464FF001090020FFF756FF1B4CB2
:1009000020683860D4E90001401AA16804F21C474D
:10091000081A0EE00121384600F028FA00F018F914
:100920000146384600F022FAD4E90001401AA168D5
:10093000081A401C8642EDD8B8F1000F03D00520FC
:1009400065F3891002E0062065F39F50A2682168D4
:10095000114004EB8101C860206830442060002011
:10096000FFF725FF4846BDE8F0870000D0020020D1
:1009700070B50D4604460A2902D10D21FFF7F8FF94
:10098000A0682268411CA1601554D4E9010181428C
:1009900004D32046BDE8704000F0C7BA70BD000027
:1009A000034803C8814201D10120704700207047ED
:1009B000D002002002681368526831B19A4202D313
:1009C0008068801A07E0981A70479A4201D3D01ABB
:1009D00070478068C01A401C7047000010B50021A5
:1009E000024800F0CEF980F3100010BDEC060020A4
:1009F0002DE9FC5F0E008346DDE90C47C6F10000DF
:100A000098469246814600D40846012503E000BF7F
:100A100090FBFAF06D1C5045FADAA84500D945461E
:100A200024B1002E01DB780700D5641EB80702D57B
:100A3000B8F1000F0AD0F80708D13CB1A54205D2A1
:100A400020215846641EFFF793FFF6E7002E02DAD6
:100A50004E462D2102E0780703D52B215846FFF79B
:100A600087FF07F0030002280BD1B8F1000F08D16F
:100A70003CB1A54205D230215846641EFFF778FFED
:100A8000F6E7CDE90047434652463146584601F065
:100A9000CFFDBDE8FC9F000070B50D460446006820
:100AA0004FF4887101F00CF84FF49071206801F058
:100AB00007F84FF49271206801F002F84FF4A27128
:100AC000206800F0FDFF4FF4AC71206800F0F8FFE3
:100AD00020681149C0F804132068690740F3073003
:100AE000090E002806DA00F00F0000F1E02080F87F
:100AF000141D03E000F1E02080F8001420680121BB
:100B000040F3073000F01F0291404009800000F1DF
:100B1000E020C0F8001170BD100342000246002022
:100B20001268530713D502F00300012802D00228EF
:100B30000CD105E0C2F383100B68801C184404E05C
:100B40000223086803EB92521044086001207047AA
:100B50002DE9FF410026234800F005F92148001F38
:100B6000074600F000F9204C60680090A56800E09E
:100B700000986946284004EB80000C30FFF7CEFF58
:100B80000028F5D101AA009901EA050304EB8303CB
:100B9000491CDB6842F82030401C00910228F2D347
:100BA000019800F0030001280BD0022810D1019811
:100BB000032101EB90500099BDF80A6001EB900011
:100BC00005E00198BDF80A60C0F383100844009066
:100BD000384600F0C5F808B10098606004B03046AF
:100BE000BDE8F081E8060020D0020020002186B098
:100BF000084600F095FD08B1FFF7CCFD00F0BAFB08
:100C0000002000F025F908B1FFF7C4FD1B481C497E
:100C1000401AC108032000EB0140044619A100F06E
:100C200023FD6E46102504A800F008F99DF8100079
:100C3000102800D805462946304600F027F908B1AB
:100C4000FFF7A8FD204615A100F00EFD20462A461C
:100C5000694600F0B5FC20460FA100F005FD00BF7D
:100C600000F096FB0028FBD1104D64264FF47A4724
:100C7000691C38468847761EFAD1D2E7C42800009E
:100C80009C280000524E47206578616D706C65208D
:100C9000737461727465642E0000000052616E64AA
:100CA0006F6D20566563746F723A0000F026000085
:100CB0002DE9F047C5881E1DB6FBF5F78946B6FB42
:100CC000F5F1044605FB176C407916686843DDF8BA
:100CD00020A0F718001F874200D9C61A166001E04D
:100CE0002468491E0029FBD1A5EB0C078846B742B2
:100CF00016D818E004EB0C00001D09EB0803BAF14C
:100D0000000F3A4602D00146184600E01946FFF7A8
:100D100009FB2468F61B4FF0000CB844B54201D91A
:100D2000374600E02F46002EE4D1BDE8F0870000F2
:100D300030B5024651B100F011FD0021074C08E02A
:100D400034F821301568AB4202D11160002030BD6B
:100D5000491C8142F4D3052030BD00000000000092
:100D6000002100F009B8012100F010B808B56A466A
:100D7000FFF783FA009808BD08B56A46FFF763FAE3
:100D800008BD08B56A46FFF745FA08BD08B56A46CA
:100D9000FFF74CFA009808BD08B56A46FFF77AFAE3
:100DA000009808BD70B5044600252846FFF7FDFCF5
:100DB00021686268086890420ED9401E0860017878
:100DC000238AE26801FB0325227A2168101AC0B247
:100DD0000A79824200D208710020FFF7E8FC284619
:100DE00070BD70B505460C460020FFF7DEFCE868D4
:100DF000298A201AB0FBF1F12A681068431C13609D
:100E00000170BDE870400020FFF7D1BC10B530B1D3
:100E1000017A42680368891AC9B21A6006E00E2096
:100E200010BD03681A68541C1C601170491EC9B2B9
:100E3000F7D2006800210171084610BD10B50446C4
:100E4000024800F00BFE207010BD0000E0280000FA
:100E500070B50B4C217809B1852070BD00B90948E7
:100E600009490088A4F80100601C00F069FE050033
:100E7000F3D100F091FE01202070284670BD0000E3
:100E800000000020F6260000211B00000A4610B5D5
:100E90000146044800F0C5FD044600F07DFE2046F2
:100EA00010BD0000E0280000F0B5054604781548A4
:100EB00089B0164640F82420124A0869121DA2F192
:100EC000080742F82400487F385520226846FFF77B
:100ED00029FA04942878385C48B10EB10A4A00E037
:100EE00000226946281D00F0A7FF09B0F0BD0EB131
:100EF000064A00E00022694605F10C0000F06EFE93
:100F0000F3E7000008000020ED2400003523000076
:100F10000FB408B50399002904D004AA00926A46C8
:100F200000F00FF801B05DF814FB10B582680446BC
:100F3000002A05D0D4E90403216898470020A06066
:100F400010BD2DE9FC4791460C00804676D014F880
:100F5000011B39B125290ED04046FFF709FD207845
:100F60000028F4D198F80C00002867D04046BDE86E
:100F7000FC47FFF7DABF0020012221782B291BD084
:100F80002D2902D0302908D102E040F0010001E013
:100F900040F00200641C002AEFD100252A290ED05F
:100FA0002178A1F130020A2A11D205EB850201EB6A
:100FB0004205641C303DF1E740F00400EAE7D9F84F
:100FC00000100B1DC9F800300968641C0D4421781D
:100FD00000232E290BD114F8011FA1F130020A2A97
:100FE00005D203EB830201EB4203303BF3E76C29AC
:100FF0000DD068290BD0692921D00BDC252918D008
:10100000582931D063290ED0642915D117E014F87E
:10101000011FECE7702969D0732932D075291BD0E4
:10102000782909D120E0D9F80000011DC9F8001085
:1010300001784046FFF79CFC641C90E76CE0D9F80F
:1010400000100A1DC9F800200968CDE900500A22E5
:101050004046FFF7CDFCEFE7D9F800100A1DC9F8AC
:10106000002009680A2206E0D9F800100A1DC9F814
:10107000002009681022CDE90050404601F0D8FA5E
:10108000DAE7D9F8001000270A1DC9F800200E6819
:10109000C00705D112E04046761C7F1CFFF768FCB4
:1010A00031780029F7D104E0202140466D1EFFF77A
:1010B0005FFCBD42C0D9002DF6D1BDE74EB1304630
:1010C000FFF754F9074604E0202140466D1EFFF764
:1010D0004FFCBD4206D9002DF6D103E04046761CF8
:1010E000FFF746FC31780029F8D1A5E7D9F80000D0
:1010F000011DC9F80010056830214046FFF738FC93
:1011000078214046FFF734FC08200021CDE900019A
:10111000034610222946B0E7BDE8FC8770B541EAD6
:101120004201DDE904564FF0A04441EA830141EA5F
:10113000052104EB800041EA0641C0F8001770BDAC
:1011400070B541EA4201DDE904564FF0A04441EA9E
:10115000830141EA052104EB800041EA0641C0F821
:10116000001770BD1CB5002100910B4601220191B2
:10117000FFF7D4FF1CBD1CB5002100910B460122D6
:101180000191FFF7DDFF1CBD1CB500220B4600924C
:1011900011460192FFF7C2FF1CBD1CB500220B4691
:1011A000009211460192FFF7CBFF1CBD1CB5002138
:1011B00000910B46012201911146FFF7AFFF1CBDC4
:1011C0001CB5002100910B46012201911146FFF749
:1011D000B7FF1CBD30B5154A01460020D2F81044B7
:1011E00023460AE0DB681D79854205D1401C0A28A8
:1011F000F6DB4FF0FF3030BD1B68002BF2D1431CF3
:10120000F9D0CB681871D2F8103443B1DB68CC68E0
:101210001B682360D2F81024D268116030BDC2F878
:101220001014C96800220A6030BD0000D0020020FE
:10123000F0B595B01C4615460F4608461A9E00F0BC
:101240005FFB182109A8FFF786F80E96CDE909542F
:101250000023082203A9384600F067FB0598069092
:10126000BDF81000ADF81C00BDF81200ADF81E006E
:1012700000208DF821000398082600F003000128C3
:1012800002D0022818D032E003983346850AC0F312
:10129000C2008DF8200003980FA9C0F38314A200A8
:1012A000384600F042FB09A8009006AB22460FA981
:1012B000284600F081FA1AE00398840DC0F3C200BA
:1012C0008DF82000082C01D2254600E00825334681
:1012D0002A460FA9384600F028FB2E44641B09ABB0
:1012E00006AA29460FA800F0C3F9002CEAD1384617
:1012F00000F00CFB15B0F0BD7047012001F038B8CC
:10130000084810B50178084A515C19B1001D00F079
:101310002DFE02E00C3000F02DFDBDE81040002055
:1013200001F026B8280000200400002008B5034A78
:1013300000924023024AFFF77BFF08BD1522000000
:10134000380100200A4A012902EBC00007D0022917
:1013500007D0032907D0042907D0002070470220B6
:10136000704704207047007970474079704700004B
:101370009C28000010B5FFF7C0FF04210348FFF7C9
:1013800029FF02490120C968487110BD8C2800005E
:101390002DE9F0478CB0FFF703FB18B100200CB02B
:1013A000BDE8F0877D4C0020C4F81804BFF34F8FD0
:1013B00060680290A5684FF00008284004EB8000A8
:1013C0000CE000BFD4F8180470B92168029881427B
:1013D00001D86160E2E7284004EB80000C3002A9EC
:1013E000FFF79CFB0028EDD1002003AA029901EA37
:1013F000050304EB8303491CDB6842F82030401CE2
:1014000002910228F2D3039800F00300022802D0D0
:1014100001284DD0A7E003985022810D8946B2EBF8
:10142000905F00D850210E4666F39F50039008311C
:101430005B4800F01CFA070078D000F061FA4346E0
:10144000082203A9384600F078FA029908F1080A40
:101450002940681A8000001D864222D94F4D0C3564
:1014600030B1C2B204EB8101301A90460C3104E075
:101470002946F2B2002590462846C6B25346384661
:1014800000F05BFA0AEB080325B1324629463846DC
:1014900000F053FA029909F1030001EB9000029069
:1014A0003BE004EB81015346324638460C31EFE70E
:1014B0000398C0F38310062800D30620039960F335
:1014C0008911C1F38310801C03918100344800F01E
:1014D000CEF9070047D000F013FA4346082203A9CB
:1014E000384600F02AFA08F1080800260FE00298B2
:1014F000434600EA0501401C04EB810102900422EE
:1015000038460C3100F019FA08F10408761C0398EB
:10151000C0F38310B042EAD847B1D4F81054D4F8DD
:10152000180478B1384600F0F1F931E01BE0E868C2
:101530004079012804D12A68284639461268904724
:10154000E8680568002DF2D1384600F0DFF9002088
:10155000FFF72BF9D4F8180408B90298606000204E
:10156000FFF725F914E0D4F8104405E0216820467F
:1015700089688847E0680468002CF7D109480A495F
:10158000401AC008022101EB004008A100F06CF8ED
:10159000FFF706FA80F0010001E70000D00200200A
:1015A000CC280000C42800009C2800004261636B26
:1015B000656E647320666C75736865640000000076
:1015C0002DE9F84F8146DFF89C80D01C15468A46ED
:1015D000800800226946D8F80860FFF785F9B8B39B
:1015E000009CA01C0090D8F808103040091A8F0009
:1015F0003F1DBD4208EB800002D82A46514608E054
:101600003A4651460C30FEF78DFE1648EA1B0AEBAF
:1016100007010C30FEF786FE4FEA1947FFF7DEF9A7
:1016200047EA0042601C304008EB8000344008EB81
:101630008401C260C8684FF6C07269F3C500904368
:1016400065F39F5020F00300801C20F00400C86068
:1016500098F8200402E000BFFFF79AFE0028FBD1B3
:10166000BDE8F88FD002002000231A4600F0F2BD3A
:101670002DE9F0470E4680461C469246082940D880
:1016800094F80C90002020731946104600F0FCFCE2
:101690000025B54206D218F805201BA12046FFF709
:1016A00037FC03E01AA12046FFF732FC6D1C082D21
:1016B000EFD318A12046FFF72BFC0025B54212D22C
:1016C00018F805707E2F08D8FEF728FE0068C05D68
:1016D00010F03E0F01D03A4600E02E220EA1204627
:1016E000FFF716FC03E00DA12046FFF711FC6D1C6F
:1016F000082DE3D301222146504600F0A7FC84F8D0
:101700000C90BDE8F0870000202530327800000002
:10171000202020007C000000256300002000000045
:101720000B4810B5FF218160002101604160C0F8C5
:101730001814C0F8141480F82014064800F0E4F8D7
:10174000002803D1044800F097F9002010BD0000E4
:10175000D0020020CC2800003C27000002480349AA
:10176000401AC00870470000CC2800009C280000E8
:1017700013B56846FFF7DCFA08B100201CBD02482B
:10178000009950F831001CBD9C28000070B5094834
:101790000125D0F8104480F8205407E0E068457136
:1017A0002168204649688847E0680468002CF5D124
:1017B00070BD0000D00200202DE9FF4781460C9D3E
:1017C00000200C462F7B287398461646294618465B
:1017D00000F05AFC072E42D2DFE806F004090F168B
:1017E0001F2A360049462846FFF792FB37E0494654
:1017F00028462268FFF78CFB31E0D4E900234946F4
:101800002846FFF785FB2AE0A0680090D4E9002372
:1018100049462846FFF77CFB21E0D4E90201CDE9E7
:101820000001D4E9002349462846FFF771FB16E082
:1018300004F1080007C88DE80700D4E900234946F1
:101840002846FFF765FB0AE004F108000FC88DE8A1
:101850000F00D4E9002349462846FFF759FB002230
:101860002946404600F0F2FB2F73BDE8FF872DE9C3
:10187000F041058A80462D1F4819C01CB0FBF5F0C9
:10188000C6B24046FFF78EFA041E19D00020207120
:1018900001206071E58000272546761EC4F800808F
:1018A0000BE04046FFF77EFA60B16179491C617137
:1018B000286005467F1CC0F80080B742F1D320465F
:1018C000BDE8F081204600F002F80020F8E72DE99D
:1018D000F041457901466B1E002201E00968521C67
:1018E0009A42FBD30F680146002605E038460C6893
:1018F000FFF777FA2146761CAE42F7D3BDE8F081B8
:101900000121001DFFF732BAFFF780BA10B5044677
:101910000121001DFFF740FA10F0FF0F04D120460F
:10192000BDE81040FFF7D3BF10BD1CB501920122E6
:10193000009201AAFFF7BCF91CBD1CB50192002260
:10194000009201AAFFF7B4F91CBD01680A68496852
:101950008068884201D9491C00E00021914201D1F0
:1019600001207047002070478068884201D9481CD8
:101970007047002070472DE9F04104464FF0000801
:101980000E464046FEF711FF2046FFF7DEFF070038
:1019900009D0207C38B14FF004080020FEF707FF83
:1019A0004046BDE8F0812068456841682046FFF761
:1019B000DBFF2168486037B1206801682046FFF7E7
:1019C000D3FF21680860E268012A14D0022A16D0E9
:1019D000042A19D0082A1CD06068314605FB020091
:1019E000FEF7A0FC204600F0D9FB21688A688242FD
:1019F000D3D28860D1E7616830784855F2E76168F2
:101A0000308821F81500EDE76168306841F825005D
:101A1000E8E7D6E90001626802EBC502C2E900010D
:101A2000E0E72DE9F04107464FF0000415000E46AF
:101A3000204611D0FEF7B9FE384600F0AFFBA842B1
:101A400005D32A463146384600F076FB00E00524EF
:101A50000020FEF7ACFE2046BDE8F08110B504463C
:101A60000020FEF7A2FE204600F098FB044600206E
:101A7000FEF79DFE204610BD8268002191608268BD
:101A80001161826851618268D160826851608068AA
:101A9000016070474058002800D00120704708B509
:101AA000002242504058009008BDD0F8040308407E
:101AB00000D0012070474058002800D00120704716
:101AC00008B5002242504058009008BD0121B1EBFA
:101AD000507F01D1012070470020704770B50D463E
:101AE00000F01EFB04000FD00020FEF75EFE207900
:101AF00020B10020FEF75BFE112070BD01202560A3
:101B000020710020FEF753FE002070BD10B500F0DC
:101B100007FB002802D000210160017110BD000008
:101B200001B569460548FFF726FF0448FFF70DFF9A
:101B3000002801D000F040F808BD0000E0280000B7
:101B4000114A13780BB18520704751600178C9079D
:101B500004D00E490B6843F001030B600C49D1F827
:101B6000003223F00103C1F80032407809494001F6
:101B700081F8000401204FF0E0234103C3F8001175
:101B800010700020704700001800002004D50040AD
:101B900000D000400DE000E0064908B500220448EE
:101BA0000A60096800910121C0F80413016008BDB2
:101BB00000D0004000D1004003490120C1F80803D3
:101BC000091D08607047000000D00040014902482C
:101BD00000F0F6BBE8000020002000402DE9F041B5
:101BE0000546007916460F4600EB40012C4A01EBF2
:101BF000C00102EB810494F82A1011B10820BDE85D
:101C0000F081284951F820102868FFF767FF08B1D4
:101C10001120F4E739462846FEF7DEFD6660386994
:101C2000206030004FF001062DD03F7F4FF48E71C1
:101C30002868FFF734FF4FF4A2712868FFF72FFFE1
:101C400028681949C0F8041328684FEA471140F37F
:101C50000730002806DA00F00F0000F1E02080F8DD
:101C6000141D03E000F1E02080F80014286840F320
:101C7000073000F01F0106FA01F14009800000F171
:101C8000E020C0F8001128680421C0F800150020E9
:101C9000A061E06184F8290044F8140FA675AEE74E
:101CA000E8000020F8260000800002002DE9F05F27
:101CB000054600790B4600EB400101EBC0002449CA
:101CC00001EB8004284600F045F810B11120BDE872
:101CD000F09F62614FF00009C4F82090A36084F87F
:101CE00028904FF48E784E4641462868FFF7D7FE7D
:101CF00028684FF0010AC0F808A02146286800F0C3
:101D0000EFFA606808BBD5F800B067690FE000BF64
:101D100094F8280008B10F2615E041465846FFF711
:101D2000B9FE0028F4D02146584600F0D9FA206ABE
:101D3000B842F2D3574641462868FFF7ABFE002869
:101D4000F9D02868C760C4F814903046BFE7000097
:101D5000E8000020007900EB400101EBC0000449DD
:101D600001EB80004069002800D00120704700008E
:101D7000E80000202DE9F047044600794FF0000903
:101D800000EB400101EBC000254901EB8007206812
:101D9000C0F80095786880B120682249C0F808131F
:101DA0002068012140F3073000F01F0291404009F4
:101DB000800000F1E020C0F880112068D0F80C25E8
:101DC000D0F81485D0F80865D0F810554FF0FF31E1
:101DD000C0F81415C0F80C152068C0F80815C0F834
:101DE0001015501C02D01046FFF7BCF9B8F1FF3FA8
:101DF00002D04046FFF7B6F9681C02D02846FFF72C
:101E0000B1F9701C02D03046FFF7ACF92068FFF73B
:101E10007DFE87F82A90C7F80490BDE8F08700009F
:101E2000E8000020840202000149024800F076BB6D
:101E300014010020002000402DE9F041054616461F
:101E400000790F46154A00EBC00102EB810494F8BB
:101E5000201011B10820BDE8F081114951F820107F
:101E60002868FFF73BFE08B11120F4E73946284601
:101E7000FEF7F6FC6660386920601EB1397F28469F
:101E8000FEF70AFE28680821C0F800150020A061AE
:101E9000E0616061012184F82010DCE7140100207A
:101EA000FC2600002DE9F04704460E46007927493C
:101EB00000EBC00001EB800517463046FFF706FE39
:101EC00030B1204600F044F820B11120BDE8F08781
:101ED0001020FBE76F61AE604FF490774FF0000881
:101EE00039462068FFF7ECFD4FF4AC7631462068A8
:101EF000FFF7E6FD2068AA686969C0F84425C0F8C4
:101F0000481520684FF00109C0F808906868D0B9FA
:101F1000BA4651462068FFF7CEFD07463146206895
:101F2000FFF7C9FD0743F4D010B14FF00F0808E0E8
:101F30002068C0F80C9031462068FFF7BCFD0028EF
:101F4000F9D0002068614046C0E70000140100207D
:101F50000079054900EBC00001EB800040690028D2
:101F600000D0012070470000140100202DE9F04747
:101F700004460079334900EBC00001EB80070125DE
:101F8000786880B120683049C0F80813206840F3B1
:101F9000073000F01F0105FA01F14009800000F14F
:101FA000E020C0F880112068D0F8001221F0200154
:101FB000C0F80012206845604FF4AC7631462068C6
:101FC000FFF77EFD2068C56031462068FFF773FD8E
:101FD0000028F9D020684FF00009C0F8009520686B
:101FE000D0F80C25D0F81485D0F80865D0F8105535
:101FF0004FF0FF31C0F80C15C0F814152068C0F878
:102000000815C0F81015501C02D01046FFF7B3F8A1
:10201000B8F1FF3F02D04046FFF7ADF8681C02D090
:102020002846FFF7A8F8701C02D03046FFF7A3F847
:102030002068FFF76BFD87F82090C7F80490BDE893
:10204000F0870000140100201003420010B50C4678
:10205000017A052908D0407A38B1084808A10268F9
:102060002046FEF755FF00E01AB106A12046FEF714
:102070004FFF2046BDE81040FEF757BF700000201C
:10208000257300000D0A000038B5C3880D460446CC
:1020900033B114A0009015A216A12846FEF738FF10
:1020A000217A05291CD0607A48B1A088FFF74AF947
:1020B000164951F8202016A12846FEF729FFA088CE
:1020C0000021FFF755FB03461049207A143951F8D7
:1020D000202001B02846BDE830400EA1FEF718BF11
:1020E00038BD00001B5B306D000000001B5B313B06
:1020F00033316D0025734C6F67732064726F70709D
:102100006564202825642925730D0A0070000020CD
:10211000257300003C25733E2025733A2000000003
:102120000349884201D103487047002070470000EE
:1021300000200040100000202DE9F0470446006810
:1021400016468946076800212046FEF733FC0546FF
:10215000D4F80C806068AE4207FB08010DD808FB7C
:1021600006F24846FEF7DEF8A168B819884200D9A1
:10217000002021680860BDE8F08708FB05F84246AA
:102180004846FEF7CFF8E268751B6A4309EB080082
:102190006168FEF7C7F820680560ECE701680A6827
:1021A0004968914201D3881A70478068801A0844B0
:1021B000401C704770B5054688690C4600284FF4EE
:1021C000847128460AD0FFF76AFCD5F81805626AC0
:1021D000E1688854606A401C606270BDFFF75FFC74
:1021E000D5F8180570BD1FB501238DF80030CDE975
:1021F0000121D0E90012684690471FBD1FB5012399
:102200008DF80030CDE90121D0E9001268469047F1
:102210001FBD000070B50D4C0020D2B22070201DF3
:102220000B4D0378EB5C1BB1001DFFF73BFE02E09A
:102230000C30FFF73BFD08B1FEF7ACFA60780028E0
:1022400002D021780029FAD070BD000024000020BF
:10225000040000202DE9F84F204D9246894606469D
:102260009846012269461846AF68FEF73DFB58B311
:10227000009800210446801C09E000BF00EA070323
:102280005AF8212005EB8303401C491CDA604145C4
:10229000F4D34FEA164AFEF7A1FB4AEA0041601C5C
:1022A000384005EB80003C4005EB8402C160D068FB
:1022B00066F3C50068F3891069F39F2020F00300DE
:1022C000401C20F00400D06095F8200402E000BF1C
:1022D000FFF75EF80028FBD1BDE8F88FD0020020A0
:1022E00070B50C4605464FF48E71FFF7D8FB216A96
:1022F000A068415C206A401C2062C5F81C1570BDB6
:102300001FB500228DF80020029181680191426181
:10231000D0E90012684690471FBD1FB500228DF816
:1023200000200291816801914261D0E90012684663
:1023300090471FBD1FB50A4601788DF8001041680F
:102340000191017A8DF80810C0680390044850F894
:102350002210001F50F82220684690471FBD000041
:102360000C00002001490120087070472400002063
:1023700010B588B0044620220E496846FDF7D2FF0A
:1023800006200090C01F0190029003904FF0EB7068
:1023900006900CB1084A00E0002269460748FEF7A3
:1023A00083FD08B1FEF7F6F90448001F447008B039
:1023B00010BD00001C27000065230000280000203D
:1023C0002DE9FF470C4605464FF40071FFF76DFB02
:1023D00001274FF40178002618B34FF4927949464B
:1023E0002846FFF757FBE0B149462846FFF757FB61
:1023F000C5F8088394F8290000B96F6002208DF8B1
:102400000000D5F88004C5F880040390A06902900C
:10241000E0680190A661E661D4E900126846904741
:1024200028E004212846FFF740FB18B34FF48471DD
:102430002846FFF72FFBE8B121462846FFF7BAFEF2
:10244000616AA069884215D1E06938B1E268616AC1
:10245000A0612069E6616662E06008E094F8290006
:1024600000B96F60C5F80883A661E268616A20461A
:10247000FFF7B9FE4FF48E7841462846FFF70AFB76
:1024800080B16069216A814202D294F8280028B3A1
:1024900041462846FFF703FB606918B16169204691
:1024A000FFF72EFF4FF4A27841462846FFF7F2FAD5
:1024B000002818D041462846FFF7F1FA94F8290081
:1024C00000B12F60A06900280DD0A661E268616AA2
:1024D00004B02046BDE8F047FFF785BE21462846F8
:1024E000FFF7FEFEDEE7BDE8FF8700001FB50A46E6
:1024F00001788DF8001041680191017A8DF808107B
:10250000C0680390044850F82210001F50F82220A1
:10251000684690471FBD00000C0000202DE9FF41D8
:102520000C464FF4927705463946FFF7C4FA002669
:10253000B8B139462846FFF7C3FA02208DF80000EB
:10254000D5F88004C5F880040390D5F83C050290C6
:10255000E0680190A661E661D4E900126846904700
:1025600023E04FF4887739462846FFF7A4FAE0B114
:1025700039462846FFF7A4FAD5F83C15A0698842E9
:1025800013D1E06960B1E268D5F8000220F02000C4
:10259000C5F80002E069A0612069E661E06001E041
:1025A000A661E2682046FFF729FE4FF4A27739467C
:1025B0002846FFF780FA68B139462846FFF780FAC7
:1025C000A06938B1A661E661D5F83C152046E268FD
:1025D000FFF714FE4FF4907631462846FFF76BFA6A
:1025E00060B131462846FFF76BFA0120E860606968
:1025F00020B1D5F84C152046FFF78FFE4FF4AC768E
:1026000031462846FFF757FA00280ED031462846B3
:10261000FFF756FA6069002807D0D5F84C1504B0CA
:102620002046BDE8F041FFF778BEBDE8FF8100001D
:102630002DE9F05F8346DDE90A4A994690460D464A
:102640000846012703E000BFB0FBF8F07F1C4045BF
:10265000FAD2B94500D94F465FEACA7012D18CB19F
:102660005FEA8A7002D5B9F1000F01D0202607E099
:10267000302605E031465846641EFEF779F90CB164
:10268000A742F7D35FF00106B9F1010F02D9A9F112
:10269000010903E0B5FBF6F0404502D306FB08F65E
:1026A000F2E7DFF83C9000BFB5FBF6F000FB1655F3
:1026B00019F800105846FEF75BF9B6FBF8F6002E45
:1026C000F2D15FEACA7009D0002C07D0A74205D228
:1026D00020215846641EFEF74BF9F5E7BDE8F09F50
:1026E00000270000000000000000000000000000C3
:1026F0000338FDD870470106CD1B0000291E0000DD
:102700003031323334353637383941424344454627
:102710002D13000001130000F9120000FFFFFFFF5E
:10272000FFFFFFFFFFFFFFFFFFFFFFFF00000000B5
:10273000000000000000D601060100003802002061
:102740007F000000B8020020004040404040404070
:102750004040414141414140404040404040404074
:102760004040404040404040400502020202020218
:102770000202020202020202022020202020202067
:10278000202020020202020202029090909090907B
:102790001010101010101010101010101010101039
:1027A00010101010020202020202888888888888AD
:1027B0000808080808080808080808080808080899
:1027C0000808080802020202400000004927000031
:1027D0007761726E696E67006465627567000000FC
:1027E0001B5B313B33306D001B5B306D0000000024
:1027F0001B5B313B33316D001B5B313B33326D0072
:102800001B5B313B33336D001B5B313B33346D005D
:102810001B5B313B33356D001B5B313B33366D0049
:102820001B5B313B33376D00696E666F0000000043
:102830006572726F72000000726E67005052530032
:10284000524E470055415254000000005541525429
:1028500045000000756172745F6C6F675F62616351
:102860006B656E640000000061707000F428000069
:102870000000002098000000F00600008C290000F5
:1028800098000020602600000007000010270000CC
:1028900000000000542800003C0000203828000000
:1028A000000000003C28000000000000402800005C
:1028B0000000000044280000000000004C28000038
:1028C0000000000068280000000003034C00002006
:1028D000440000204C000020780100201800000077
:1028E000DC000020980000204000000001000000F3
:1028F00000000000000000000000000000000000D8
:1029000000000000000000000000000000000000C7
:1029100000000000000000000000000000000000B7
:1029200000200040000000000020004000000000E7
:1029300000000000FF000000000000000000000098
:102940000000000000000000000000000000000087
:102950000000000030280000D027000028280000D8
:10296000D8270000E8270000E0270000F02700003B
:10297000F8270000002800000828000010280000A8
:0C29800018280000202800000090D00360
:0400000500000201F4
:00000001FF
