:020000040000FA
:1000000000040020810A000015070000610A0000BA
:100010001F07000029070000330700000000000050
:10002000000000000000000000000000A50A000021
:100030003D070000000000004707000051070000D6
:100040005B070000650700006F07000079070000EC
:10005000830700008D07000097070000A10700003C
:10006000AB070000B5070000BF070000C90700008C
:10007000D3070000DD070000E7070000F1070000DC
:10008000FB070000050800000F0800001908000029
:10009000230800002D080000370800004108000078
:1000A0004B080000550800005F08000069080000C8
:1000B000730800007D080000870800009108000018
:1000C0009B080000A5080000AF080000B908000068
:1000D000C3080000CD080000D7080000E1080000B8
:1000E000EB080000F5080000FF0800000909000007
:1000F000130900001D090000270900003109000054
:100100003B0900001FB500F003F88DE80F001FBD8C
:1001100000F0ACBC40F6FC7108684FF01022401CA7
:1001200008D00868401C09D00868401C04D0086842
:1001300000F037BA9069F5E79069F9E7704770B554
:100140000B46010B184400F6FF70040B4FF0805073
:100150000022090303692403406943431D1B104621
:1001600000F048FA29462046BDE8704000F042BA47
:10017000F0B54FF6FF734FF4B4751A466E1E11E0DA
:10018000A94201D3344600E00C46091B30F8027B3B
:10019000641E3B441A44F9D19CB204EB134394B25D
:1001A00004EB12420029EBD198B200EB134002EBB2
:1001B000124140EA0140F0BDF34992B00446D1E952
:1001C0000001CDE91001FF224021684600F0F4FB58
:1001D00094E80F008DE80F00684610A902E004C8FB
:1001E00041F8042D8842FAD110216846FFF7C0FF7C
:1001F0001090AA208DF8440000F099F9FFF78AFFCB
:1002000040F6FC7420684FF01025401C0FD0206889
:1002100010226946803000F078F92068401C08D030
:100220002068082210A900F070F900F061F9A869AF
:10023000EEE7A869F5E74FF080500369406940F6A2
:10024000FC71434308684FF01022401C06D0086838
:1002500000F58050834203D2092070479069F7E788
:100260000868401C04D00868401C03D00020704778
:100270009069F9E70420704770B504460068C34DE3
:10028000072876D2DFE800F033041929631E250021
:10029000D4E9026564682946304600F062F92A46CE
:1002A0002146304600F031F9AA002146304600F0E0
:1002B00057FB002800D0032070BD00F009FC4FF46C
:1002C000805007E0201D00F040F90028F4D100F034
:1002D000FFFB60682860002070BD241D94E80700C3
:1002E000920000F03DFB0028F6D00E2070BDFFF715
:1002F000A2FF0028FAD1D4E901034FF0805100EBAE
:10030000830208694D69684382420ED840F6F8704E
:1003100005684FF010226D1C09D0056805EB8305B8
:100320000B6949694B439D4203D9092070BD55694A
:10033000F4E70168491C03D00068401C02D003E0C8
:100340005069FAE70F2070BD2046FFF735FFFFF731
:1003500072FF0028F7D1201D00F0F7F80028F2D135
:1003600060680028F0D100F0E2F8FFF7D3FE00F05B
:10037000BFF8072070BD10B50C46182802D0012028
:10038000086010BD2068FFF777FF206010BD41684E
:10039000054609B1012700E0002740F6F8742068FF
:1003A0004FF01026401C2BD02068AA68920000F065
:1003B000D7FA38B3A86881002068401C27D020688D
:1003C000FFF7BDFED7B12068401C22D026684FF051
:1003D0008050AC686D68016942695143A9420DD9EA
:1003E000016940694143A14208D92146304600F0E5
:1003F000B8F822462946304600F087F800F078F831
:100400007069D2E700F093F8FFF784FEF6E77069B1
:10041000D6E77669DBE740F6FC7420684FF01026DB
:10042000401C23D02068401C0CD02068401C1FD0EA
:100430002568206805F18005401C1BD027683879A5
:10044000AA2819D040F6F8700168491C42D001680A
:10045000491C45D00168491C3ED001680968491C07
:100460003ED00168491C39D000683EE0B069DAE747
:10047000B569DEE7B769E2E710212846FFF778FEA5
:100480003968814222D12068401C05D0D4F8001080
:1004900001F18002C03107E0B169F9E730B108CA63
:1004A00051F8040D984201D1012000E000208A4259
:1004B000F4D158B1286810B1042803D0FEE72846CB
:1004C000FFF765FF3149686808600EE0FFF722FE1C
:1004D00000F00EF87169BBE77169BFE7706904E06D
:1004E0004FF480500168491C01D000F0CBFAFEE7C0
:1004F000BFF34F8F26480168264A01F4E06111439B
:100500000160BFF34F8F00BFFDE72DE9F0411746B3
:100510000D460646002406E03046296800F054F8EF
:10052000641C2D1D361DBC42F6D3BDE8F08140F69B
:10053000FC700168491C04D0D0F800004FF48051D1
:10054000FDE54FF010208069F8E74FF080510A690F
:10055000496900684A43824201D810207047002050
:10056000704770B50C4605464FF4806608E0284693
:1005700000F017F8B44205D3A4F5806405F5805562
:10058000002CF4D170BD0000F40A0000000000202F
:100590000CED00E00400FA05144801680029FCD0C5
:1005A0007047134A0221116010490B68002BFCD0E0
:1005B0000F4B1B1D186008680028FCD0002010603D
:1005C00008680028FCD07047094B10B501221A605A
:1005D000064A1468002CFCD0016010680028FCD08A
:1005E0000020186010680028FCD010BD00E4014015
:1005F00004E5014070B50C46054600F073F810B9EB
:1006000000F07EF828B121462846BDE8704000F091
:1006100007B821462846BDE8704000F037B8000012
:100620007FB5002200920192029203920A0B000B06
:100630006946012302440AE0440900F01F0651F80C
:10064000245003FA06F6354341F82450401C8242F8
:10065000F2D80D490868009A10430860081D016827
:10066000019A1143016000F03DF800280AD00649C4
:1006700010310868029A10430860091D0868039A3F
:10068000104308607FBD00000006004030B50F4CED
:10069000002200BF04EB0213D3F800582DB9D3F8A1
:1006A000045815B9D3F808581DB1521C082AF1D3C3
:1006B00030BD082AFCD204EB0212C2F80008C3F8CD
:1006C00004180220C3F8080830BD000000E0014013
:1006D0004FF08050D0F83001082801D0002070473A
:1006E000012070474FF08050D0F83011062905D016
:1006F000D0F83001401C01D0002070470120704725
:100700004FF08050D0F830010A2801D00020704707
:100710000120704708208F490968095808471020B0
:100720008C4909680958084714208A4909680958FA
:100730000847182087490968095808473020854923
:100740000968095808473820824909680958084744
:100750003C20804909680958084740207D490968BC
:100760000958084744207B49096809580847482028
:1007700078490968095808474C207649096809589A
:10078000084750207349096809580847542071499F
:1007900009680958084758206E49096809580847E8
:1007A0005C206C4909680958084760206949096854
:1007B00009580847642067490968095808476820AC
:1007C00064490968095808476C2062490968095852
:1007D000084770205F4909680958084774205D4937
:1007E00009680958084778205A490968095808478C
:1007F0007C205849096809580847802055490968EC
:10080000095808478420534909680958084788202F
:1008100050490968095808478C204E490968095809
:10082000084790204B4909680958084794204949CE
:10083000096809580847982046490968095808472F
:100840009C204449096809580847A0204149096883
:1008500009580847A4203F49096809580847A820B3
:100860003C49096809580847AC203A4909680958C1
:100870000847B0203749096809580847B420354966
:10088000096809580847B8203249096809580847D3
:10089000BC203049096809580847C0202D4909681B
:1008A00009580847C4202B49096809580847C82037
:1008B0002849096809580847CC2026490968095879
:1008C0000847D0202349096809580847D4202149FE
:1008D000096809580847D8201E4909680958084777
:1008E000DC201C49096809580847E02019490968B3
:1008F00009580847E4201749096809580847E820BB
:100900001449096809580847EC2012490968095830
:100910000847F0200F49096809580847F4200D4995
:10092000096809580847F8200A490968095808471A
:10093000FC2008490968095808475FF48070054998
:10094000096809580847000003480449024A034B54
:100950007047000000000020000B0000000B0000AA
:1009600040EA010310B59B070FD1042A0DD310C82C
:1009700008C9121F9C42F8D020BA19BA884201D97E
:10098000012010BD4FF0FF3010BD1AB1D30703D0C6
:10099000521C07E0002010BD10F8013B11F8014B7C
:1009A0001B1B07D110F8013B11F8014B1B1B01D198
:1009B000921EF1D1184610BD02F0FF0343EA032254
:1009C00042EA024200F005B87047704770474FF0A6
:1009D00000020429C0F0128010F0030C00F01B800C
:1009E000CCF1040CBCF1020F18BF00F8012BA8BF1A
:1009F00020F8022BA1EB0C0100F00DB85FEAC17CDE
:100A000024BF00F8012B00F8012B48BF00F8012B90
:100A100070474FF0000200B51346944696462039C1
:100A200022BFA0E80C50A0E80C50B1F12001BFF4A7
:100A3000F7AF090728BFA0E80C5048BF0CC05DF80D
:100A400004EB890028BF40F8042B08BF704748BF5B
:100A500020F8022B11F0804F18BF00F8012B7047CF
:100A6000014B1B68DB6818470000002009480A4951
:100A70007047FFF7FBFFFFF745FB00BD20BFFDE719
:100A8000064B1847064A1060016881F308884068E1
:100A900000470000000B0000000B000017040000DE
:100AA000000000201EF0040F0CBFEFF30881EFF3ED
:100AB0000981886902380078182803D100E0000015
:100AC000074A1047074A12682C3212681047000084
:100AD00000B5054B1B68054A9B58984700BD0000B0
:100AE0007703000000000020F00A0000040000006E
:100AF000001000000000000000FFFFFF0090D00386
:1010000000420020F5140000FD140000151300003C
:101010000115000003150000051500000000000088
:1010200000000000000000000000000007150000A4
:1010300009150000000000000B1500000D15000050
:10104000411C00000F150000851F00000F15000057
:101050000F1500000F150000651800000F150000A7
:101060000F1500000F1500000F1500000F150000F0
:101070000F1500000F1500000F1500000F150000E0
:101080000F150000511C00000F1500000F15000087
:101090000F1500000F1500000F1500000F150000C0
:1010A0000F1500000F1500000F1500000F150000B0
:1010B0000F1500000F1500000000000000000000E8
:1010C0000F1500000F1500000F1500000F15000090
:1010D0000F1500000F1500000F150000DD1F0000A8
:1010E0000F1500000F1500000F1500000000000094
:1010F000000000000F150000000000000F150000A8
:1011000000000000000000000000000000000000DF
:1011100000000000000000000000000000000000CF
:1011200000000000000000000000000000000000BF
:1011300000000000000000000000000000000000AF
:10114000000000000000000000000000000000009F
:10115000000000000000000000000000000000008F
:10116000000000000000000000000000000000007F
:10117000000000000000000000000000000000006F
:10118000000000000000000000000000000000005F
:10119000000000000000000000000000000000004F
:1011A000000000000000000000000000000000003F
:1011B000000000000000000000000000000000002F
:1011C000000000000000000000000000000000001F
:1011D000000000000000000000000000000000000F
:1011E00000000000000000000000000000000000FF
:1011F00000000000000000000000000000000000EF
:10120000DFF80CD000F0E2FA00480047B58C00008F
:101210000042002030B4044654E8000F0D4644E874
:101220000053002BF8D1156030BC704730B4044631
:1012300054E8000F40EA010544E80053002BF7D1C1
:10124000156030BC704730B4044654E8000F00EA23
:10125000010544E80053002BF7D1156030BC7047FE
:1012600030B4044654E8000F80EA010544E8005316
:10127000002BF7D1156030BC704730B4044654E8F9
:10128000000F00EB010544E80053002BF7D1156077
:1012900030BC704730B4044654E8000FA0EB0105A1
:1012A00044E80053002BF7D1156030BC704770B490
:1012B00004464FF0000054E8006F0D68AE4207BFCF
:1012C00044E80023012044E800630E60002B1CBFAB
:1012D0000020F0E770BC704730B4044654E8000FBB
:1012E00088422CBF451A054644E80053002BF5D12F
:1012F000156030BC7047000000B583B002900091CB
:10130000019244F2010071466A4601F067F803B0A9
:1013100000BD0000094B1EF0040F1CBFEFF3098055
:101320001847EFF308800649064A884201D89042E0
:1013300002D88D464FF0000018470000191A00002F
:10134000004200200022002030B450E8012F93B268
:10135000C48923448489A34228BF1B1B0489A34258
:1013600002BFBFF32F8F002007E0C3EA020340E86B
:101370000134002CE9D14FF001000A6030BC704705
:1013800050E8012FC2EA024240E801210029F7D1CA
:10139000704730B450E8022F1FFAA2F3C488A3426A
:1013A00002BFBFF32F8F00200DE0C489234484893E
:1013B000A34228BF1B1BC2EA034340E80234002CAF
:1013C000E8D14FF001000A6030BC704750E8022FAE
:1013D000C2EA224240E802210029F7D170470346C1
:1013E00053E8022FD988B2EB324F4FF0000017BFFD
:1013F00092B241EA014142EA014104E05A68B2EB8B
:10140000324F08BF012043E80212002AE8D170479A
:1014100030B4044654E8000F0D4644E80053002B56
:10142000F8D1156030BC704730B4044654E8000F62
:1014300040EA010544E80053002BF7D1156030BCA9
:10144000704730B4044654E8000F00EA010544E850
:101450000053002BF7D1156030BC704730B4044600
:1014600054E8000F80EA010544E80053002BF7D14F
:10147000156030BC704730B4044654E8000F00EBF0
:10148000010544E80053002BF7D1156030BC7047CC
:1014900030B4044654E8000FA0EB010544E80053C3
:1014A000002BF7D1156030BC704770B404464FF084
:1014B000000054E8006F0D68AE4207BF44E8002307
:1014C000012044E800630E60002B1CBF0020F0E701
:1014D00070BC704730B4044654E8000F88422CBFFB
:1014E000451A054644E80053002BF5D1156030BC81
:1014F000704700000648804706480047FEE7FEE7C1
:10150000FEE7FEE7FEE7FEE7FEE7FEE7FEE7FEE7B3
:10151000A91D000001120000004870476C1B01006B
:10152000A0F14101192900D8203070472DE9FE4370
:10153000994615468846074601AC022942D3002D3C
:1015400040D000200290A8F101004FF0FF3600903B
:1015500022E000FB057201FB057011464A469047E8
:10156000002805DC54F82600304444F8260013E037
:1015700060682A4600FB057154F8040C00FB0570F6
:1015800007E00B7890F800C001F801CB00F8013BB0
:10159000521E002AF5D1764254F8040C6168884244
:1015A000D7DC4B462A463846FFF7C0FF54F8040CF8
:1015B0004B46A8EB0001401C00FB05702A46491E63
:1015C000FFF7B4FFBDE8FE8310B5431A934209D27A
:1015D0008318881803E010F8011D03F8011D521E3E
:1015E000F9D210BD40EA01039B0703D009E008C906
:1015F000121F08C0042AFAD203E011F8013B00F8D8
:10160000013B521EF9D210BDD2B201E000F8012B0D
:10161000491EFBD270470022F6E710B513460A4672
:1016200004461946FFF7F0FF204610BD30B50546C9
:101630002A460B4612F8010B13F8014B08B1A042E1
:10164000F8D01CB1002802D06D1CF1E7284630BD4F
:10165000CAB2401E10F8011F8A4202D00029F9D1F7
:1016600000207047421C10F8011B0029FBD1801A92
:10167000704710B5002200E0521C835C8C5CA342D2
:1016800001D1002BF8D1D8B2E1B2401A10BD034607
:1016900011F8012B00F8012B002AF9D118467047E8
:1016A00030B505460020034600E05B1C934205D29E
:1016B000EC5CC85C201A01D1002CF6D130BD2DE9BC
:1016C000F04791460F4680460446002614F8015B19
:1016D0002DB1FFF721FF0068405DC007F6D12B2D2B
:1016E00002D02D2D18D0641E4A463946204600F0FF
:1016F0001EF827B13968A14201D1C7F800807105F1
:101700004FF002040BD54042002803DD00F0D0FD6D
:101710000460A007BDE8F08746F48066E4E700288F
:10172000F8DA00F0C5FD04606FF00040F2E72DE943
:10173000F05F82460078002715468B460AF10104C7
:10174000B946302801D09DB113E014F8010B0127F0
:10175000782803D0582801D045B10AE00DB1102DEA
:1017600007D10027102514F8010B02E0082500E03E
:101770000A250026B0460EE005FB080005FB06F131
:10178000012701EB10461FFA80F8B6F5803F00D321
:10179000B94614F8010B294600F02AF80028EBDAC4
:1017A000BBF1000F05D00FB1641E00E05446CBF82A
:1017B0000040B9F1000F06D000F07AFD022101606F
:1017C000C81EBDE8F09F48EA0640FAE7064C074D00
:1017D00006E0E06840F0010394E807009847103401
:1017E000AC42F6D3FFF710FDC03B0100E03B010027
:1017F0003A2800D2303820F02002412A01D3A2F149
:101800003700884201D34FF0FF30704770B58C1815
:1018100010F8015B15F0070301D110F8013B2A1104
:1018200006D110F8012B03E010F8016B01F8016BF1
:101830005B1EF9D12B0705D40023521E0DD401F8ED
:10184000013BFAE710F8013BCB1A921C03E013F8B6
:10185000015B01F8015B521EF9D5A142D8D30020EB
:1018600070BD00002DE9F04F00268DB0DFF8A0819B
:10187000B14604964FF480750124374605962846F4
:1018800009F036FD38B1D8F80403204203D02846C9
:1018900009F024FD26432D1D64007F1CADB2082FE6
:1018A000EDD34FF4BE74204609F022FD48B1204626
:1018B00009F014FD46F0004604AA0221002009F0B8
:1018C000D7FC544C16F0FF0F15D0012700253742E6
:1018D0000DD008EB8501D1F81005D1F81015C0F333
:1018E000052054F82520C1F3014102B190477F0043
:1018F0006D1C082DEBD3002E7EDA0020CDF8289049
:10190000411E0DF1100B07AACDF82C9042F82010C3
:10191000401C91460228F9D300252E46A11911F842
:10192000607F91F9000027F0C008401C40D007A953
:10193000404607F0B1FE40B34FEA971A404602F026
:10194000ABFD54F820701FB1BAF1030F03D006E0CD
:10195000BAF1030F2CD10AA9404607F0A5FE02A850
:10196000CDF8088009F0E0FB029900EB8100D0F887
:10197000000704A9C0F301400290404607F08CFE26
:101980000028029802D0022802D011E003280FD1CB
:10199000BAF1030F08D10298022833D00221404641
:1019A00009F0AAFB6D1CEDB217B151464046B8478D
:1019B000761C042EB2D3002D21D001AA02210020D2
:1019C00009F056FC00205A460DF1040152F820603F
:1019D00051F82030B34217D000200AAE4FEA090375
:1019E00051F8207042F8207056F8207043F82070AB
:1019F000401C0228F4D300E001E0002D8CD10DB092
:101A0000BDE8F08F0321CAE7401C0228DED3F6E7C9
:101A100000600040681100201CB582460AF0F2F90F
:101A200009F06AFF0028FBD139485FEA0A05076818
:101A300039483A49374EA0EB01004FEAD0004FF049
:101A4000010808EB004470881ED0002821D02046F1
:101A500033A1AA690AF08AF87088002819D0D5E95C
:101A60000201CDE90001D5E90023204632A10AF0A8
:101A700095F8708868B1E8690090D5E9042320469C
:101A80003BA10AF082F804E018B1204642A10AF016
:101A900069F81F48001D0068800705D5708818B1D7
:101AA00020464A490AF05EF8DFF82491002500BF7D
:101AB00008FA05F0384208D059F825202AB1708874
:101AC00018B1204643A10AF051F86D1C1A2DEFD32E
:101AD000380608D5708830B10D480C3002682046B1
:101AE0003FA10AF043F8380408D5708830B108489F
:101AF00010300268204642A10AF038F80448C83085
:101B00000068C00700D000BE504600F087F8000013
:101B100028ED00E010040020883D0100C03C0100D9
:101B200048415244204641554C542061742030783D
:101B30002530385800000000202052303A20203054
:101B40007825303858202052313A202030782530FE
:101B50003858202052323A2020307825303858200A
:101B60002052333A202030782530385800000000C9
:101B700020205231323A2030782530385820204CFD
:101B8000523A202030782530385820205053523A8D
:101B90002030782530385800537461636B207669A3
:101BA0006F6C6174696F6E3A20737461636B20703F
:101BB0006F696E746572206F7574736964652073E4
:101BC0007461636B20617265612E0000F82601006C
:101BD000F001002043617573653A2025732E0000E3
:101BE0004D656D4D616E616765204661756C742051
:101BF000416464726573733A203078253038580038
:101C0000427573204661756C74204164647265731B
:101C1000733A20307825303858000000BFF34F8FDA
:101C200005480168054A01F4E06111430160BFF312
:101C30004F8F00BFFDE700000CED00E00400FA0547
:101C400010B50BF0FBFABDE810400BF029BA00000C
:101C500002490248091F096800680847A4010020DA
:101C6000044900EB400001EBC000416D806D081A93
:101C700070470000781F002000F064BA70B5064677
:101C800014460D46002001F0A9FD224629463046A3
:101C900000F006F80446002001F0CEFD204670BD9D
:101CA0002DE9F0471B4D0746164628780C4608B923
:101CB00000F048FA07EB470005EBC007A046D7E95C
:101CC0001595002448374D4511D9B868441BB442D6
:101CD00000D334467868224641194046FFF774FC29
:101CE000B868361B2544A044A84200D10025A9EBC2
:101CF0000500B04200D206463EB17868324641192E
:101D00004046FFF761FC3444354404B13D61204650
:101D1000BDE8F087781F002070B50B4B06461446CF
:101D200018780D4608B900F00DFA002001F056FDB4
:101D300022462946304600F009F80446002001F00A
:101D40007BFD204670BD0000781F002070B50E4658
:101D5000144900EB400001EBC0051446E86A183551
:101D600020B101280FD0022805D113E0284600F049
:101D70001DFAA04201D2002411E022463146284635
:101D800000F061FA0BE0284600F010FAA042F4D20D
:101D90000446F2E73146284600F028FA0446204679
:101DA00070BD0000781F002030B54FF08050002239
:101DB0008300D0F83011C3F80C21C3F81021624B16
:101DC0001A60624B1B68624C2360604B1B1D1B68D2
:101DD000241D23605D4B08331B68241D23605B4B6F
:101DE0000C331B68241D2360584B10331B68241DC3
:101DF0002360564B14331B68241D2360534B183348
:101E00001B68534C20342360504B1C331B68241D2B
:101E100023604E4B20331B68241D23604B4B24331F
:101E20001B68241D2360494B28331B68241D236035
:101E3000464B2C331B68241D2360444B30331B68F6
:101E4000434C40342360414B34331B68241D2360D2
:101E50003E4B38331B68241D23603C4B3C331B68CE
:101E6000241D2360394B40331B68241D236001234C
:101E7000082902D1D0F8344114B1082904D006E071
:101E8000354C3449216005E0D0F8344114B10829BB
:101E900004D006E0314CFB21216005E0D0F834414C
:101EA00014B1082908D00EE090F858422C48016877
:101EB00064F30301016002E0D0F834411CB9294900
:101EC0004FF40070086028480168C90702D06FF01D
:101ED000010101602548016841F470010160BFF310
:101EE0004F8FBFF36F8F4FF01021D1F80002002801
:101EF00003DBD1F80402002822DA1D4C23601D48C0
:101F00000368002BFCD01223C1F800320568002DB5
:101F1000FCD0C1F8043201680029FCD022600168BD
:101F20000029FCD0BFF34F8F10487C380168124A5B
:101F300001F4E06111430160BFF34F8F00BFFDE783
:101F40000F490E48086030BD3805004004040010F9
:101F500020C50040488103008C56004018F5004021
:101F6000E40E0040409602400004004088ED00E08E
:101F700004E5014000E401400400FA050090D003AC
:101F80003403002010B5054C206818B904A12B209B
:101F900001F008FD2068BDE8104000470C0100205A
:101FA0002E2E5C2E2E5C2E2E5C2E2E5C2E2E5C2E6B
:101FB0002E5C6D6F64756C65735C6E7266785C64C4
:101FC0007269766572735C7372635C7072735C6E57
:101FD0007266785F7072732E630000002DE9F05F07
:101FE0005448D0F8045300242E464FF0010913E062
:101FF00096FAA6F0B0FA80F7B80000F58070804637
:102000000AF04AFF28B140460AF04EFF09FA07F0ED
:10201000044309FA07F08643002EE9D10CF025F9B4
:10202000002869D0444AD078F0BBA00264D5434967
:1020300040F2A978C1F80080081D036813F0FF0C76
:1020400002D0036803EA0C0C40F2AA7AC1F800A09F
:10205000036813F0FF0301D00668334040F2AB7B06
:10206000C1F800B0066816F0FF0601D007683E40D0
:1020700040F2AC770F60076817EA0C0709D0D2F876
:1020800010C04CEA070CC2F810C0C1F8008007600D
:10209000076840F2AD770F6007681F4009D01369E9
:1020A00043EA0743136100E026E0C1F800A007609F
:1020B000036840F2AE730B60036833400BD0DE0759
:1020C00001D044F40004DE0601D544F00104C1F857
:1020D00000B003600068106930F0011102D005F013
:1020E00080710C4310F0011F06D0690504D520F063
:1020F000011044F480641061C4F3C05624F4000459
:102100004F46DFF83C8009E094FAA4F0B0FA80F57D
:1021100058F82500804707FA05F08443002CF3D1D6
:102120000EF0A6FB002E03D0BDE8F05F05F0A0B9CD
:10213000BDE8F09F007002401401002000780240CA
:10214000C411010010B5124C02202061606111A081
:10215000A06104F17800E0614FF40070206200207B
:10216000A06260620BA1A164E06204F51E71E164EB
:102170001021A065C4E91410E06509A1E01DFFF776
:1021800086FA08A12046FFF782FA2020A07110BD30
:10219000781F00205465726D696E616C000000004C
:1021A0005254540053454747455200000269C168E4
:1021B0008A4203D88068401A104400E0501A401E3A
:1021C00070470000C11700EBD161074B4A1153F86B
:1021D000222021F01F01411A01208840024201D033
:1021E000012070470020704700E100E02DE9F04732
:1021F000C4681746894606464FF000083069A04279
:1022000001D9051B02E0B168201A0D1AB0686D1ED5
:10221000001BA84200D80546BD4200D33D46706869
:102220002A4620444946FFF7CFF9B0687F1B2C446B
:10223000A844A944A04200D10024F460002FDDD1BD
:102240004046BDE8F0872DE9F04104468846D4E9D0
:102250000207C51BE168606816460844B54206D906
:102260004146FFF7B1F9B819E060BDE8F0812A46B0
:102270004146FFF7A9F9761B08EB05013246606875
:10228000FFF7A2F9E660F0E70FB4084B10B504A918
:1022900002AA039800F01FF8044602A9002000F0EB
:1022A00085F8204610BC5DF814FB0000AD2300004B
:1022B000004870473803002002E008C8121F08C118
:1022C000002AFAD170477047002001E001C1121FB7
:1022D000002AFBD170472DE9F84F9946924688466F
:1022E0000546002706E025280AD051464A46904771
:1022F0006D1C7F1C28780028F5D13846BDE8F88F82
:10230000002315F8011F18462E2915D115F8011FB5
:1023100004232A290DD06FF02F022978A1F130046F
:10232000092C09D800EB800002EB400008446D1C2A
:10233000F3E758F8040B6D1C2A78002ADDD0632AD5
:1023400007D0732A0FD0104651464A4690477F1C4B
:102350002AE018F8042B8DF8002000218DF80110D8
:102360006E46012103E058F8046B4FF0FF315A0725
:102370004FF0000401D409E0641C84420BDA8C4263
:10238000FADB325D002AF7D105E0641C8C42FCDBED
:10239000305D0028F9D1274404E016F8010B5146BE
:1023A0004A469047641EF8D26D1CA3E70A68531C86
:1023B0000B6010707047800701D00020704701202B
:1023C0007047C3688B4206D811440069491E814298
:1023D00001D8012070470020704700002DE9FE431E
:1023E00014460F46804672B609F00CFD09F084FAD7
:1023F0000028FBD12448254A6FF48041A0EB02005D
:10240000204E4FEAD0004FF0010218EB010102EB21
:1024100000451ED07088012912D020B128463A46C6
:102420001BA109F0A3FB20480068C00700D000BE34
:10243000224603B039464046BDE8F04300F062B89A
:102440000028F0D02388284618A1626809F095FB7F
:10245000E9E770880028E6D0A0680AF04BFB034645
:10246000D4E90001CDE900100297284616A1A26820
:1024700009F09EFB70880028D5D028461CA109F0E1
:1024800071FBD0E734040020D03D0100C03C0100C6
:10249000554E4B4E4F574E204641554C542061747B
:1024A0002030782530385800F0ED00E04153534596
:1024B0005254494F4E204641494C454420617420B6
:1024C00025733A25750000004552524F522025755C
:1024D000205B25735D2061742025733A25750D0AF4
:1024E00050432061743A203078253038780000005D
:1024F000456E64206F66206572726F72207265701F
:102500006F72740008B501238DF800309DF800301B
:10251000144B186059609A606FF48041401807D0DE
:1025200001280FD1DA60D86800889861D86807E080
:102530001A6118698068586118690068986118699B
:102540004068D861186858689868D86818695869E8
:102550009869D86972B600BF9DF800000028FBD1C9
:1025600062B608BD5C140020014804F000BC000005
:102570003001002070B514460E46050004D10B4909
:1025800040F2C91001F00EFA3CB12868012EC46077
:102590000AD000218160002070BD04494FF4E5702D
:1025A00001F000FA072070BD0121F3E7F4230100D8
:1025B00038B50E4808235822416800910C4900683C
:1025C00006F061FE00280FD10A4A69460A4804F065
:1025D000D3FB040008D10121074804F0A8FC0649F8
:1025E000012008390870204638BD00006012010043
:1025F0007C140020D1F300003001002070B5164695
:102600000D46040004D10E4940F2D91001F0CAF978
:10261000B5F5350F01D3072070BD207E08B100202D
:1026200070BD0848266104F0A2FB28446060A068E1
:1026300000B1A5602146BDE8704000200DF09EBDB0
:10264000F42301003001002010B5040004D1064934
:102650004FF4FA7001F0A6F9002021462076BDE87B
:10266000104001200DF08ABDF423010070B505462D
:102670000648446807E02946204602F087F82046CD
:1026800000F02AFA0446002CF5D170BD500100205C
:1026900070B50A4845680EE02E7A002405E0214610
:1026A000284600F065FE641CE4B2B442F7D3284625
:1026B00000F012FA0546002DEED170BD5001002049
:1026C0002DE9F0410E4840F24477456814E02E7A37
:1026D00000240BE000222146284600F0ADFE18B190
:1026E00008A1384601F05EF9641CE4B2B442F1D3AB
:1026F000284600F0F1F90546002DE8D1BDE8F0814B
:10270000500100202E2E5C2E2E5C2E2E5C2E2E5C78
:102710002E2E5C2E2E5C636F6D706F6E656E747303
:102720005C6C69627261726965735C757362645C2A
:102730006170705F757362642E63000070B5064649
:102740000948062544680AE03146204602F01EF892
:102750000546062805D1204600F0BEF90446002CA7
:10276000F2D1284670BD0000500100202DE9FC4147
:1027700015460F00064604D11E4940F2F93001F01B
:1027800011F9304601F0C4F90446007DC00715D0A8
:10279000002001F023F8E06E98B1A84200D8054669
:1027A0002A463846A16EFEF70FFFE06E401BE0663A
:1027B000A06E65672844A066002405E00820BDE8F7
:1027C000FC81A06928B11124002001F035F82046D1
:1027D000F5E7C4E90675304604F06FFA06498969E1
:1027E000CDE90014694600F0C5FB0400ECD1922449
:1027F000EAE7000080240100C812010010B501F0D2
:1028000087F9406F10BD0000FEB515460E46044620
:1028100001F07EF9007D10F0010F0CD0204604F08D
:1028200043FAA90609D000210096CDE90151694675
:1028300000F0ECFBFEBD0820FEBD0149896AF3E70C
:10284000C8120100F8B5040004D138A140F2445088
:1028500001F0A8F8606820B934A140F2455001F0B9
:10286000A1F86068006820B930A140F2465001F03C
:1028700099F82068006820B12CA140F2475001F07F
:1028800091F80BF091FE10B90BF098FE20B927A13A
:1028900040F24B5001F086F800250FE0002705E0DC
:1028A000007800F07BFB08B11120F8BD3946781C98
:1028B000C7B2304600F0C0F80028F1D12946681CA4
:1028C000C5B2204600F0E0F80600E7D100250DE093
:1028D000002703E00078214600F066FB3946781CAB
:1028E000C7B2304600F0A8F80028F3D12946681C8A
:1028F000C5B2204600F0C8F80600E9D1194D40F2F3
:10290000715607E0A04203D108A1304601F04AF811
:102910002868056828680028F4D113482C606946A7
:1029200080690090204601F031FFF8BD2E2E5C2E0C
:102930002E5C2E2E5C2E2E5C2E2E5C2E2E5C636F5B
:102940006D706F6E656E74735C6C696272617269D2
:1029500065735C757362645C6170705F75736264EB
:102960002E63000054010020741201002DE9F04F85
:1029700087B04FF000081D46934689460446DDF8AF
:1029800040A04646CDF80C8000E0761C606801232C
:1029900000224768214603A8B8470028F5D14046E1
:1029A0008DF800800027B84601903BE06068012365
:1029B0006A46D0F804C0214601A8E04760680123B8
:1029C00005AAD0F804C0214601A8E0479DF81410DC
:1029D00049451AD1D84514D19DF80000CAF8000025
:1029E00005F8010B6A1C85F8009060689DF80030BE
:1029F0002146456801A89B1EA847002007B0BDE8F6
:102A0000F08F08F1010000F0FF0860689DF80030C9
:102A10000022D0F804C0214601A89B1EE0479DF883
:102A200000000744B742C1D30520E7E701484068EA
:102A3000704700005001002070B50D46040004D11D
:102A4000064940F21D1000F0ADFF6078A84201D8A1
:102A5000002070BDA0782044284470BD3C240100B3
:102A600070B50D46040004D1064940F21D1000F077
:102A700099FF6078A84201D8002070BDA07820445A
:102A8000284470BD3C24010070B50D46040003D1FC
:102A90000649EA2000F086FF207AA84201D80020EB
:102AA00070BD05EB45000934204470BD3C24010095
:102AB00070B50D46040003D10649EA2000F072FF0C
:102AC000207AA84201D8002070BD05EB45000934EA
:102AD000204470BD3C24010010B5040004D1044919
:102AE00040F21D2000F05EFF2068006810BD00006D
:102AF000D832000010B5040004D104A140F21D201A
:102B000000F050FF2068006810BD00002E2E5C2EE3
:102B10002E5C2E2E5C2E2E5C2E2E5C2E2E5C636F79
:102B20006D706F6E656E74735C6C696272617269F0
:102B300065735C757362645C6170705F7573626409
:102B40002E68000002484078002800D0012070471D
:102B50005001002010B5002000F0F8F9BDE8104049
:102B6000802000F0F3B910B5002000F0F1F9BDE8C5
:102B70001040802000F0ECB92DE9F0414C4E0D469C
:102B800002460978062430780B2934D009DC4FF04E
:102B9000010707296DD2DFE801F06C0D0F116C29D8
:102BA00051000C292FD00D2936D00E293DD0852972
:102BB0005FD115E0032016E000245AE03C48001DD8
:102BC00006F0A3FB28B13B480760BFF36F8FBFF34C
:102BD0004F8F30780028EFD137A140F211400FE03D
:102BE000032846D104200DF04DFD42E0104600F0D0
:102BF0009DF804463DE00028DED02FA140F225409C
:102C000000F0D0FED8E7012804D02BA140F22B40E1
:102C100000F0C8FE002005E03648006810F0010F03
:102C20000AD002200DF02EFDC6E7022804D222A110
:102C300040F23F4000F0B6FE0120F3E7E8780328B9
:102C400017D0A87830B1802804D01BA140F24D40A5
:102C500000F0A8FE1649E87808310A6832B100236E
:102C60000B6049689047040006D000E00E240BF08A
:102C7000FFFC2046BDE8F0810DF0FCFC28B1A878EF
:102C80000028F6D10BF0B7FCF3E74FF08050D0F8F6
:102C90003011082904D1D0F8340108B1012000E036
:102CA000002090F0010FE4D10BF0A2FCE1E700005E
:102CB000740100205C7002402E2E5C2E2E5C2E2EA5
:102CC0005C2E2E5C2E2E5C2E2E5C636F6D706F6EF4
:102CD000656E74735C6C69627261726965735C7550
:102CE0007362645C6170705F757362645F636F725E
:102CF000652E630038040040024A0146D2E9000212
:102D0000104700001C15002070B50C4605460BF05E
:102D100069FCA84201D0102070BD0348D4E900121C
:102D2000C0E90212002070BD740100207FB5054685
:102D300005208DF8000006240DF101000BF070FC59
:102D40000DF098FC2949002008609DF8010010F062
:102D50001F0006D001280FD0022826D0032833D127
:102D600006E0694628460CF049FD044606282AD1AB
:102D70006846FFF7E3FC25E09DF8050003A900F095
:102D800037FB050008D06A469DF80C1000F0ECFAFD
:102D90000446062802D016E0102415E06A469DF885
:102DA0000C1028460CF07CFE0CE09DF80500010795
:102DB00005D0694600F080F80446062803D168462D
:102DC0000CF0BEFD044624B10BF052FC04B02046CA
:102DD00070BD0DF04FFC30B10BF004FC0028F5D1B4
:102DE0000BF009FCF2E70BF003FCEFE77C0100209D
:102DF000FEB5C08814460E46A04201D2054600E04A
:102E00001546844207D280200BF080F8B4FBF0F125
:102E100000FB114068B100200096CDE90150002070
:102E200000F0DCFC6946802000F0F0F8040002D0DD
:102E300006E00120F0E705498020FFF765FF044622
:102E4000002000F0F9FC2046FEBD00000413010044
:102E500008B1402101600148704700007015002052
:102E600010B50BF0B3FB20B104A140F2AB3000F081
:102E700099FDBDE810400AF04FBE00002E2E5C2EDA
:102E80002E5C2E2E5C2E2E5C2E2E5C2E2E5C636F06
:102E90006D706F6E656E74735C6C6962726172697D
:102EA00065735C757362645C6170705F7573626496
:102EB0002E6300000AF06EBE10B50C46010600F04D
:102EC0000F02092A08D200F009F8006820B1214653
:102ED000BDE8104001F05ABC102010BD10B501062D
:102EE00000F00F0408D5092C04D309A14FF4B970E0
:102EF00000F058FD144808E0092C04D304A14FF455
:102F0000BC7000F04FFD1048483000EBC40010BD0D
:102F10002E2E5C2E2E5C2E2E5C2E2E5C2E2E5C2EEB
:102F20002E5C636F6D706F6E656E74735C6C69623E
:102F30007261726965735C757362645C6170705F05
:102F4000757362642E630000D41400200AF0DABEA8
:102F500010B5044600F00F00082805D220460AF0FC
:102F600001FF20460BF052F82046BDE810400AF061
:102F70001DBF000070B50C4605460AF067FF18B18A
:102F800005480078022801D0082070BD2146284657
:102F9000BDE870400AF062BF5001002010B5FFF795
:102FA0009DFF006810BD000070B50D460646FFF796
:102FB00095FF0446056015B16868006808E00EB129
:102FC000802E04D103A14FF4CE7000F0EBFC002062
:102FD000606070BD2E2E5C2E2E5C2E2E5C2E2E5C24
:102FE0002E2E5C2E2E5C636F6D706F6E656E74732B
:102FF0005C6C69627261726965735C757362645C52
:103000006170705F757362642E63000070B50C466A
:1030100005460AF01BFF18B105480078022801D0C8
:10302000082070BD21462846BDE870400BF082B8EC
:1030300050010020017805290BD107490968064A8B
:10304000C9B2121F126812F0FF0F02D1052900D178
:10305000024803490968084784740240921201003B
:103060006415002070B58B4C0546606820B98AA1B4
:1030700040F2FF3000F096FC03F092FC062804D2E8
:1030800085A140F2064000F08DFC2878092877D011
:1030900008DC092818D2DFE800F07494C39DB0CC96
:1030A000D117F40082282DD008DC0A28EFD00F2891
:1030B000EDD0802841D0812806D10CE0832847D06C
:1030C00084284ED0852872D0BDE8704072A14FF49C
:1030D000A06000F067BC7E48FFF70EFE7C48FFF75B
:1030E000C5FA0D200DF0BAFDFFF7D2FAFFF732FD59
:1030F000A06810B97748007A00B101200BF0BCFA43
:10310000012089E0FFF7C4FA0BF006FB00200CF069
:1031100079FE6F48401CFFF7A9FA6D48401CFFF785
:10312000EBFD0E200DF09AFD207800F03DFB00280D
:1031300046D0BDE8704007F053BA2078052803D088
:10314000062803D007283BD1022065E0082063E071
:103150002078032834D10BF027FB002830D004203E
:103160005AE02078032805D10BF01EFB10B1042093
:103170000CF048FE0BF0F8FB002821D006204BE0B5
:1031800080E02078032801D0082803D15048801C13
:10319000FFF768FF00200DF061FDA46840F23926BA
:1031A0000CE02946204601F0F1FA2CB900E040E09D
:1031B00049A1304600F0F6FB20684468002CF0D1AD
:1031C00070BDFFF765FAFFF7CEFC02200CF01AFE87
:1031D000012006E02078082809D005200CF012FE16
:1031E00003200DF03BFD2846FFF786FD4CE0022052
:1031F0000CF008FE0BF070F9F2E703200DF02EFD45
:103200003348C01CFFF778FD3148C01CFFF72EFA89
:103210002078062898D10720BDE870400CF0F2BD58
:1032200003200CF0EFFD02200DF018FD2846FFF7FB
:103230001DFA2846BDE87040FFF75EBDA878FFF78D
:103240004DFE0446006820B913A140F2DC4000F0B6
:10325000A9FB606820B910A140F2DD4000F0A2FB9C
:10326000D4E90002294690470028A9D0A878010790
:10327000A6D000F00F010829A2D2BDE870400AF0E4
:1032800093BE08200DF0EAFC2846BDE87040FFF729
:10329000EDB90000500100202E2E5C2E2E5C2E2E4B
:1032A0005C2E2E5C2E2E5C2E2E5C636F6D706F6E0E
:1032B000656E74735C6C69627261726965735C756A
:1032C0007362645C6170705F757362642E6300008A
:1032D00085120100641500202E2E5C2E2E5C2E2EF1
:1032E0005C2E2E5C2E2E5C2E2E5C636F6D706F6ECE
:1032F000656E74735C6C69627261726965735C752A
:103300007362645C6170705F757362642E68000044
:10331000FFF790BE10B520B104A140F2552000F097
:1033200041FBBDE810400F48FFF784BE2E2E5C2EF7
:103330002E5C2E2E5C2E2E5C2E2E5C2E2E5C636F51
:103340006D706F6E656E74735C6C696272617269C8
:1033500065735C757362645C6170705F75736264E1
:103360002E63000074120100114601F00FBA000034
:1033700070B5044640680D46C2680AB120469047C1
:10338000207AA84204D20CA140F2F22000F00AFBFD
:1033900029462046FFF778FB05464678002408E0DA
:1033A00021462846FFF748FB00780AF0ABFC641C76
:1033B000E4B2B442F4D370BD2E2E5C2E2E5C2E2EC1
:1033C0005C2E2E5C2E2E5C2E2E5C636F6D706F6EED
:1033D000656E74735C6C69627261726965735C7549
:1033E0007362645C6170705F757362642E63000069
:1033F0002DE9F04180460F480E46456816E02F7AC9
:1034000000240DE021462846FFF73EFB01784145A8
:1034100004D106B134702846BDE8F081641CE4B2E2
:10342000BC42EFD32846FFF757FB0546002DE6D1F7
:103430000020F1E75001002070B5044640681546B1
:103440000E4683681BB120469847062809D1207A8A
:10345000B04204D20E4940F2D32000F0A3FA0DB1DD
:10346000072070BD31462046FFF70EFB0546467823
:10347000002408E021462846FFF7DEFA0078FFF72F
:1034800067FD641CE4B2B442F4D3002070BD0000B8
:10349000B8330000034600205A681269002A01D0A0
:1034A00018461047704700002DE9F843044607F01E
:1034B00045F920B92FA140F20B3000F073FA3B48D8
:1034C0000BF010F8002850D1394908704860886026
:1034D00048213848FEF79FF8364848214830FEF723
:1034E0009AF83448344D80304CB194E80E001030D6
:1034F00080E80E002F489030016821B105E005F109
:1035000034010EC9F3E72D490160002007F06CF982
:1035100030B1852804D017A240F23931FDF7ECFE16
:10352000274E00240DE0002703E000783146FFF726
:103530003BFD3946781CC7B24046FFF77DFA0028AC
:10354000F3D12146641CE4B23046FFF79DFA5FEAEE
:103550000008E8D1686800906946304601F016F925
:10356000040004D00BF0D4F92046BDE8F883002015
:10357000FBE700002E2E5C2E2E5C2E2E5C2E2E5C89
:103580002E2E5C2E2E5C636F6D706F6E656E747385
:103590005C6C69627261726965735C757362645CAC
:1035A0006170705F757362642E63000011330000F8
:1035B00050010020D4140020741201006530000076
:1035C0004413010040B1012808D0022809D007A106
:1035D0004FF40F7000F0E6B9124804E01148001DE6
:1035E00001E010480830FFF725BD00002E2E5C2EAC
:1035F0002E5C2E2E5C2E2E5C2E2E5C2E2E5C636F8F
:103600006D706F6E656E74735C6C69627261726905
:1036100065735C757362645C6170705F757362641E
:103620002E6300009612010010B50AF0C7FF10B11A
:103630000AF0BAFF08B1082010BD054807F0E8F805
:1036400020B104A24FF46771FDF756FE002010BDB3
:10365000A41201002E2E5C2E2E5C2E2E5C2E2E5CD3
:103660002E2E5C2E2E5C636F6D706F6E656E7473A4
:103670005C6C69627261726965735C757362645CCB
:103680006170705F757362642E6300002DE9F04114
:103690000D46164901EB800757F82500017849B11E
:1036A0000020FFF7D5FB57F8255006460024287860
:1036B00048B911E0801CBDE8F0811F2C03D30C49F0
:1036C000C02000F06FF9641CE4B215F8010B26F875
:1036D000140028780028F0D1022000EB4400C0B28A
:1036E00040F4407030803046E5E70000840100205F
:1036F000D024010010B50AF057FF20B909A140F20B
:10370000B23000F04FF915480168C1F3400121B112
:10371000BDE810401248FFF78DBC016811F0010FA1
:10372000F2D110BD2E2E5C2E2E5C2E2E5C2E2E5C29
:103730002E2E5C2E2E5C636F6D706F6E656E7473D3
:103740005C6C69627261726965735C757362645CFA
:103750006170705F757362642E630000380400400E
:1037600079120100034808B5806800906846FFF7A9
:1037700061FC08BD741201004FF0000150B1062831
:103780000BD2074A105C002808D0064A52F82020C5
:103790001AB100E00020FFF779BF00207047000059
:1037A000AC13010084010020092808D2DFE800F0F2
:1037B00007070507070505050500012070470020DC
:1037C0007047092808D2DFE800F007070507070758
:1037D00007070500012070470020704710B50BF067
:1037E0004DFB012803D004A11D2000F0DBF8BDE84B
:1037F000104000F04FB800002E2E5C2E2E5C2E2EB6
:103800005C2E2E5C2E2E5C2E2E5C636F6D706F6EA8
:10381000656E74735C6C69627261726965735C7504
:1038200074696C5C6170705F7574696C5F706C61F9
:1038300074666F726D2E630010B50BF01FFB0128CC
:1038400003D004A12B2000F0ADF8BDE8104000F03B
:1038500029B800002E2E5C2E2E5C2E2E5C2E2E5CA7
:103860002E2E5C2E2E5C636F6D706F6E656E7473A2
:103870005C6C69627261726965735C7574696C5CB9
:103880006170705F7574696C5F706C6174666F7283
:103890006D2E630072B602480168491C01607047D2
:1038A0009C01002003490868401E086000D162B6F0
:1038B000704700009C01002070B5054608680C4662
:1038C000411C04D007F0C0FC206807F001FC6068D0
:1038D000411C02D0002107F0E9FB2968A069C1F86A
:1038E0002405607D227D29681043C1F86C05D4E968
:1038F00000122868C0F81425C0F80C15207D012896
:1039000014D1A068411C02D0002107F0CFFBE06871
:10391000411C04D007F098FCE06807F0D9FBD4E91B
:1039200002122868C0F80825C0F8101570BD70B5DF
:10393000054608680C46411C04D007F08FFC20683F
:1039400007F0D0FB6068411C02D0002107F0B7FBF4
:103950002968A069C1F82405607D217D2A68084393
:10396000C2F86C05D4E900122868C0F80C15C0F83C
:103970001425207D012814D1A068411C02D000210B
:1039800007F09DFBE068411C04D007F067FCE0688D
:1039900007F0A8FBD4E902122868C0F80825C0F88F
:1039A000101570BD1CB56A46ADF8000001910021EC
:1039B00044F20200FEF712FD1CBD0000F0B500222B
:1039C0000D4BCA60C1E901230C4B0D4D1446EE1A94
:1039D0000A600CE003EB0215EF683F79FF2F05D07A
:1039E000A04202D1A8680860F0BD641C521CB2EB72
:1039F000161FEFD3F0BD000078190100703C0100E4
:103A0000C03C0100102802D31038C0B2704740F00B
:103A1000800070472DE9F0470546C61C90460F46CA
:103A20004FF001090020FFF7D9FE1B4C20683860D9
:103A3000D4E90001401AA16804F21C47081A0EE0FC
:103A40000121384605F06AFC05F03EF8014638468B
:103A500005F064FCD4E90001401AA168081A401C72
:103A60008642EDD8B8F1000F03D0052065F3891028
:103A700002E0062065F39F50A2682168114004EB24
:103A80008101C8602068304420600020FFF7D4FE28
:103A90004846BDE8F0870000541B002070B50D4675
:103AA00004460A2902D10D21FFF7F8FFA068226819
:103AB000411CA1601554D4E90101814204D3204680
:103AC000BDE8704006F058BF70BD0000034803C851
:103AD000814201D10120704700207047541B002013
:103AE0004360CA699A420DD38A69026088691844A2
:103AF0008861086F18440867C869C01AC86100D097
:103B00000120704701F12802026000208B67704796
:103B100010B5040003D106493920FFF743FF2068A0
:103B200018B903493A20FFF73DFF20680C3010BD5B
:103B30008024010070B50C46060004D1224940F2F1
:103B4000B720FFF72FFF24B91F494FF42E70FFF75E
:103B500029FF207800250F2833D2DFE800F0330852
:103B60003333320C113232083233333333003046C0
:103B700000F0D5FB26E0214630460BF02BFF0FE08E
:103B8000304602F0FAFD0146A0780025814219D0A6
:103B90000106E1784FF0030004D531B901210CE0B2
:103BA00005460FE021B101290CD00329F8D109E025
:103BB000304600F0C5FB0546002130460DF040F8C8
:103BC00000E00625284670BD802401002DE9FF5F36
:103BD00005460198DFF8F0931F46017A89F8001036
:103BE0001646019800F044FB804625B9F74940F29B
:103BF000E920FFF7D7FE29684FF0000A40F21F3294
:103C00005446A1F21F304FF0020B914256D04CDCCB
:103C100040F20132A1F20130914272D029DC40F22F
:103C2000F120A1F2F12281426CD015DC40F2EE22AB
:103C3000A1F2EE2391426ED009DC4FF43B73E1B365
:103C4000994270D0A1F50071ED395ED17AE0012B77
:103C500074D0022B59D19BE0092A70D004DC012AD0
:103C60006ED0022A51D1B7E00A2A6AD00F2A4CD16D
:103C7000DDE00E2871D00EDC07286ED006DC0128AE
:103C80006CD005286BD006283FD116E10C2867D0F0
:103C90000D283AD138E11538092836D2DFE800F08E
:103CA000F535353535F4F3F2F10013286FD010DC1B
:103CB000A0F10300102828D201E02EE079E1DFE82E
:103CC00000F0F0EFEEEDEC2424EBEAE9E82424E741
:103CD000E6E537280CD00CDC292878D004DC142841
:103CE00076D0282811D125E22D2872D032280CD187
:103CF00050E244286ED006DC3E286CD03F2804D128
:103D00006FE29FE04CE04928F4D00020C5F800A005
:103D100004B0BDE8F09F24E005E008212971002FE0
:103D200001D82B6081E20EB1297931700B21012479
:103D30002971012F06D840F2ED2075E21CE059E010
:103D40003AE062E00EB12979315598F81410641CFC
:103D50002971BC4205D32A6067E2BAE07FE0A1E0A6
:103D6000C7E00EB129793155641C85F804B0BC4216
:103D700002D340F2EF2057E20EB129793155641C8D
:103D800085F804B0BC4203D34FF43C704CE2A6E18A
:103D90000EB129793155641C85F804B0BC42CCD2EF
:103DA0000EB12879305598F81900641C2871BC426E
:103DB00002D340F2F22037E20EB128793055641C6C
:103DC00085F804A0BC4207D340F2F3202CE2BCE10A
:103DD00091E1CDE119E2F9E10EB12879305589F888
:103DE00001A0641C37E209202871BC4202D340F2D2
:103DF000FA2019E20EB1287930550420641C28718C
:103E0000BC4202D340F2FB200EE20EB128793055BD
:103E100099F80110641C0198FEF74AFEC9F80400E5
:103E200000782871BC4202D34FF44070FCE10EB11F
:103E300028793055641C85F804A0BC4202D340F2B6
:103E40000130F1E10EB128793055D9F80400641C35
:103E5000BC424078287102D340F20230E4E10EB156
:103E600028793055D9F8040098F81410641C0078AB
:103E7000814233D185F804B0BC4213D340F20630FE
:103E8000D2E18BE07FE073E067E054E01BE10FE1FB
:103E900003E1F7E0EBE0DFE0D3E0C7E0B9E0ADE05D
:103EA000A1E095E00EB128793055641C85F804B086
:103EB000BC4202D340F20730B6E10EB1287930554A
:103EC00098F81900641C2871BC4202D34FF4427068
:103ED000AAE10EB128793055641C25E098F8161037
:103EE00081421CD10A202871BC4202D340F20D301D
:103EF0009AE10EB128793055641C85F804A0BC42C3
:103F000002D340F20E308FE10EB128793055641C97
:103F100085F804A0BC42DCD340F20F3084E12B4989
:103F200040F21330FFF73EFD85F804A0BC4202D3F7
:103F300040F2163078E10EB128793055D9F80400F6
:103F400098F81410641C007881426ED10520287105
:103F5000BC4202D340F21B3066E10EB128793055E5
:103F60002420641C2871BC4202D34FF447705BE1EB
:103F70000EB128793055641C85F804A0BC4202D3E8
:103F800040F21D3050E10EB1287930551020641CEC
:103F90002871BC4202D340F21E3045E10EB12879AF
:103FA00030550120641C2871BC4202D340F21F30FE
:103FB0003AE10EB1287930550520641C2871BC42C5
:103FC00006D340F222302FE1680100208024010056
:103FD0000EB1287930552420641C2871BC4202D3CC
:103FE00040F2233020E10EB1287930550120641CC5
:103FF0002871BC4202D34FF4497015E10EB1287903
:1040000030550320641C2871BC4202D340F2253095
:104010000AE10EB12879305598F81600641C287111
:10402000BC4203D340F22630FEE069E00EB12879AD
:1040300030550420641C2871BC4202D340F2293060
:10404000F2E00EB1287930552420641C2871BC425E
:1040500002D340F22A30E7E00EB128793055641CD3
:1040600085F804B0BC4202D340F22B30DCE00EB144
:1040700028793055641C85F804B0BC4202D34FF453
:104080004B70D1E00EB1287930550520641C2871A1
:10409000BC4202D340F22F30C6E00EB12879305531
:1040A0002420641C2871BC4202D34FF44C70BBE046
:1040B0000EB1287930550620641C2871BC4202D309
:1040C00040F23130B0E00EB12879305598F8140044
:1040D000641C2871BC4202D340F23230A4E00EB11D
:1040E0002879305598F81600641C2871BC4202D318
:1040F00040F2333098E00EB128793055641C08E066
:1041000098F81610814204D058494FF44F70FFF7C9
:1041100049FCD9F804104846497889F802105146FC
:1041200089F803A08EE007202871BC4202D340F238
:10413000473079E00EB1287930550520641C28718C
:10414000BC4202D34FF452706EE00EB12879305564
:1041500099F80310641CD9F80400FEF781FCC9F833
:10416000080000782871BC4202D34FF453705BE022
:104170000EB128793055D9F8040098F81410641C51
:10418000007881420BD103202871BC4202D340F257
:10419000513049E00EB128793055641C0FE098F891
:1041A0001610814206D185F804B0BC42F2D340F229
:1041B000563039E02D4940F25A30FFF7F3FB4020EA
:1041C0002871BC4202D340F25D302DE00EB1287957
:1041D0003055641C85F804A0BC4202D340F25E3026
:1041E00022E00EB128793055D9F8040098F814105F
:1041F000641C007881420DD1D8F82000BC420078C0
:10420000287102D340F263300EE00EB128793055A8
:10421000641C11E098F81610814208D185F804A0BA
:10422000BC42F2D34FF45A702860012070E50F4968
:104230004FF45B70FFF7B6FB99F803104846491C32
:1042400089F803108278C9B29142FFF46CAF4178CB
:10425000491C89F8011099F8011099F80000814271
:10426000FFF4C1AD40F27330DEE7000080240100AE
:1042700010B5040003D103492C20FFF793FB20461F
:1042800010BD00008024010070B50546144808F0F8
:104290006FF830B9134800684068D0E90021002069
:1042A0009047402210491148FEF760FA38B1922831
:1042B00015D0BDE870400E4A4B21FDF71DB82846C9
:1042C000FEF79CFA044602460749054808F006F83E
:1042D0008442DBD006494220FFF764FBD6E770BD7D
:1042E000643E010060020020CC1700204816010047
:1042F000142F010010B508B1032010BD0846FFF7C8
:1043000007FC0178202901D0062010BDD0F802104A
:10431000C160C1880182017A8174002010BD10B58E
:10432000FFF7A6FFFFF7F4FB0021818281610162A4
:10433000C16601674167816700F12801816610BD90
:104340002DE9FC478146FFF793FFFFF7E1FB0446A9
:10435000484602F0B2FC07462F4800268068CDE9A7
:104360000004E069B0B1D4F878804546404500D2F9
:1043700005462A4604F12801A069FDF725F9206FBA
:104380002844C4E91C60A8EB0500E06660192830E9
:10439000A06627E0206F60672667E666216A3046E0
:1043A00021B1626AA161C4E907202CE0A06130E07C
:1043B00004F11802616A82E84300E26E1AB38A428D
:1043C00015D3A36E0A461946FDF7FEF8E16EE069C3
:1043D000091AE166A16E0144A166606700214846A2
:1043E0000CF02EFC206A0028E2D1A66111E0A16E3B
:1043F000FDF7EAF8E06E2067E169091AE161A16959
:104400000818A06105D069463846FEF7B3FDBDE83F
:10441000FC870020FBE70000C81201004360CA6966
:104420009A4204D38A6902600B67CB6103E001F111
:10443000280202608B6700207047000070B50446B8
:1044400081B1012905D002291CD1BDE87040FFF7D8
:104450001BBF0D4800684068D0E90021BDE87040EE
:1044600001201047FEF7CAF90546024607490848E9
:1044700007F034FF854203D006496C20FFF792FA1B
:104480002046E2E770BD000060020020CC1700204B
:10449000643E0100142F01000249084490F93000E5
:1044A000704700006811002070B581680446CA8C0E
:1044B000002A4DD0088D00284AD0121A084495B21F
:1044C00000F12C016A1C2B30FDF77EF8A068018DED
:1044D000491E0185A068C18C491EC1848DB3082284
:1044E0001C49206906F008FA204604F0A4FE8188E1
:1044F000C088814211D1A06817A2018D43180821FC
:1045000020462C3305F0DCFC204600F0BDF929469E
:104510002046BDE8704002F0CDBA204600F0C0FA57
:10452000204600F0B1F9A0680BA2018D43180821C4
:1045300020462C3305F0C4FC2046BDE8704000F056
:1045400079BA2069BDE87040044A03A106F0D4B9E5
:1045500070BD0000884700002573000001160100AF
:1045600070B504468068C28C018D521A15042D0C5A
:1045700048D0084400F12D012A462C30FDF724F8DC
:10458000A068C18C491EC184204604F054FE818875
:10459000C08881420CD1A0681BA2018D431808215C
:1045A00020462C3305F08CFC40F26946C4B913E078
:1045B000204600F075FA204600F066F9A06812A2C5
:1045C000018D4318082120462C3305F079FC204644
:1045D000BDE8704000F02EBA0CA13046FFF7E2F9BA
:1045E000206918B909A13046FFF7DCF9154A06A180
:1045F000206906F081F96D1EA9B22046BDE8704021
:1046000002F058BA70BD0000257300002E2E5C2EFB
:104610002E5C2E2E5C2E2E5C2E2E5C2E2E5C636F5E
:104620006D706F6E656E74735C6C696272617269D5
:1046300065735C636C695C6E72665F636C692E6344
:1046400000000000051601002DE9F04104468068D5
:104650000F46D0F85413028D11F00106C18CA1EB66
:1046600002039DB24FF4BF730BD0994201D9002DC4
:104670007ED0A068018D0844002180F82C7066B1BE
:1046800013E099427CD8002DF3D0831803F12C015C
:104690002A46481CFCF798FFEBE7A068C28C521C26
:1046A00092B2C284A0682C3281544DB3204604F0EB
:1046B000C2FD8188C08881420ED1A06831A2018DDF
:1046C0004318082120462C3305F0FAFBA81B81B2C1
:1046D000204602F0EFF921E0204600F0E1F9A06861
:1046E00028A2018D4318082120462C3305F0E8FB51
:1046F000204600F09FF90121204602F0BDFA0DE0AE
:104700003EB1A068C28C521C92B2C284A0682C3206
:1047100081543A461CA1206906F0EEF8A168088D84
:10472000401C0885204602F0B2F90028204603D03C
:10473000BDE8F04102F0CAB903F028FB00281FD001
:10474000204604F078FD0546C088A988401A401E1E
:1047500081B2204602F03CF9204602F0B7F9E88821
:10476000A988401A81B2204602F092FA288800E017
:1047700006E0401E81B22046BDE8F04102F07CBA5E
:10478000BDE8F081257300002563000070B50D467B
:10479000040003D10BA1E920FFF704F9606818B900
:1047A00008A1EA20FFF7FEF86068006818B905A1C3
:1047B000EB20FFF7F7F86068294602682046BDE85D
:1047C000704010472E2E5C2E2E5C2E2E5C2E2E5C02
:1047D0002E2E5C2E2E5C636F6D706F6E656E747323
:1047E0005C6C69627261726965735C757362645C4A
:1047F0006170705F757362642E63000009B10620FA
:10480000704700207047000041680A6041684B60B3
:1048100001490860002070476002002070B51C004C
:1048200015460E4603D10649A020FFF7BBF82A46DD
:104830003146044807F064FE2060002070BD00008F
:10484000142F0100643E01000020704770B51C0069
:1048500015460E4603D10A49AD20FFF7A3F82A46B4
:1048600031460848FDF7D0FF38B1082805D0112897
:1048700002D100202060002070BD2560FBE7000011
:10488000142F01004816010070B504004FF4D775CD
:1048900003D108A12846FFF785F8206918B905A1BA
:1048A0002846FFF77FF82069BDE870400F4A10A145
:1048B00006F022B82E2E5C2E2E5C2E2E5C2E2E5C48
:1048C0002E2E5C2E2E5C636F6D706F6E656E747332
:1048D0005C6C69627261726965735C636C695C6E61
:1048E00072665F636C692E6300000000F9150100B9
:1048F000257300008268002182F82C1082681185DF
:104900008068C184704700002DE9F0478168054642
:10491000C88C00287CD0088D002879D00446002659
:1049200003E0761C641EB6B2A4B284B104F12B027B
:104930008A5C202AF5D0641E240406F10106240CAA
:10494000B6B204D004F12B028A5C202AF3D180464F
:104950002146284600F072FA07464146284600F0F4
:104960006DFAA7EB0008A8682146B0F82890284601
:1049700000F052F807464946284600F04DF83F1A25
:10498000A8680319C18C8A1B06F12C01194404F193
:104990002C031844FCF718FEA868C18C891BC1843D
:1049A000A8680021002F0485A868C28C104480F8F4
:1049B0002C10284603DDB9B202F05EF905E004DAF6
:1049C000C7F1000189B202F075F82846B8F1000F6E
:1049D00004DD1FFA88F101F0FBFF05E004DAC8F1FD
:1049E000000189B202F054F9284600F059F8A8688D
:1049F00008A2018D4318082128462C3305F060FADF
:104A00002846FFF741FF2846BDE8F04700F012B8FE
:104A1000BDE8F0872573000070B584680D46006816
:104A200000F0CAFDE18B2844B0FBF1F201FB12005B
:104A3000401C70BD70B504004FF4DD7503D108A1B2
:104A40002846FEF7AFFF206918B905A12846FEF7F2
:104A5000A9FF2069BDE870400F4A10A105F04CBFC6
:104A60002E2E5C2E2E5C2E2E5C2E2E5C2E2E5C2E80
:104A70002E5C636F6D706F6E656E74735C6C6962D3
:104A80007261726965735C636C695C6E72665F63A8
:104A90006C692E6300000000F3150100257300000F
:104AA00070B504004FF4DA7503D108A12846FEF76B
:104AB00079FF206918B905A12846FEF773FF206920
:104AC000BDE870400F4A10A105F016BF2E2E5C2ED7
:104AD0002E5C2E2E5C2E2E5C2E2E5C2E2E5C636F9A
:104AE0006D706F6E656E74735C6C69627261726911
:104AF00065735C636C695C6E72665F636C692E6380
:104B000000000000F015010025730000074A084B63
:104B1000ADF59E4D0020134469469A1A01E00854F1
:104B2000401C8242FBD80DF59E4D704700220020AC
:104B3000002000002DE9F04F4FF000099BB0054622
:104B40004E464C4601F0CCFD284603F05FFBA868BA
:104B5000CA464FF4C07100F5D670FCF75CFDA8683A
:104B600000F12C01C28C00F5D670FCF72DFDA86871
:104B700000F5D6700BF060F8A86800F5D67000F06C
:104B80001BFDA968401C4885284601F02DFF2846DA
:104B900001F07DFF10B9284601F098FFAA680C23A8
:104BA00004A911A82C3204F079F90346119840B1F8
:104BB0005BB16CA20221284605F082F91BB0BDE86A
:104BC000F08F284601F082FFF8E76B496B48002719
:104BD000A1EB00080DF1100B13E008D368A00090C2
:104BE0006CA202212846049B05F06AF9E6E700EB77
:104BF000C704606801685BF82900FCF73AFD20B142
:104C00007F1C5E48B7EBD80FE7D9207820B163A1AD
:104C100040F67D10FEF7C6FE00201690A968486099
:104C20008860C86008616168C86828B18AC9AA68D4
:104C3000C2E90370C2E90113606809F101044FF091
:104C4000000880680390119884425FD25F465BF849
:104C5000240060A1FCF70DFDD0B157F824005EA13F
:104C6000FCF707FDA0B157F824000CF04BF8B8B1E1
:104C70000020149014A8009057F8243022462846AB
:104C8000039901F0BBFD022840D014998A443BE00F
:104C9000A868D0F8541341F00201C0F8541335E06D
:104CA00017A84246009008F1010816AB2146039868
:104CB00001F078FAB8F1000F28D0169830B30168E7
:104CC00057F82400FCF7D5FC0028BCD11698C16821
:104CD000B1B1BAF1000F0BD0284601F085FE28468D
:104CE00001F0D5FE10B9284601F0F0FE3CA22CE000
:104CF00090E88810AA682646C2E903C1C2E90137D4
:104D000080684FF000080390641C9CE7BAF1000F24
:104D100010D0A86800F5D671428D2C30FCF754FCF9
:104D2000A8680C23418DC184AA6804A911A82C325B
:104D300004F0B4F8A868036933B111980BEB86024C
:104D4000811B2846984704E031A20221284605F03D
:104D5000B7F8A868D0F8541321F00201C0F8541332
:104D60002CE700006E6F74207465726D696E61745B
:104D700065643A2025630A00703C0100E03B0100B5
:104D80003A20636F6D6D616E64206E6F7420666F84
:104D9000756E6400257325730A0000002E2E5C2EAC
:104DA0002E5C2E2E5C2E2E5C2E2E5C2E2E5C636FC7
:104DB0006D706F6E656E74735C6C6962726172693E
:104DC00065735C636C695C6E72665F636C692E63AD
:104DD000000000002D6800002D2D68656C7000003B
:104DE0004572726F723A207265717565737465648D
:104DF000206D756C7469706C652066756E6374697E
:104E00006F6E20657865637574696F6E730A000054
:104E1000506C6561736520737065636966792061A4
:104E200020737562636F6D6D616E642E0A00000001
:104E30008068D0F85403C0F3C000704770B5846830
:104E40000D46006800F0B8FBE18B2844B0FBF1F0A0
:104E500070BD00002DE9F0410446C0688EB00D46DB
:104E6000406800263246006801A907F0C9F918B168
:104E700000200EB0BDE8F0816DB1019807F093F805
:104E8000A168D1F84403401CC1F8440300F00700B6
:104E900001287AD10126204604F0CDF90546808804
:104EA000012804D9401E81B2204601F0F1FE288875
:104EB000012804D9401E81B2204601F0FBFD2046A6
:104EC000FFF7E2FC2EB132A20221204604F0F8FFE7
:104ED0005BE04FF0010800230C2202A9019807F0C3
:104EE00071F804980590BDF80C00ADF81800BDF8F5
:104EF0000E00ADF81A008DF81D8002980C2700F006
:104F00000300012802D0022818D032E002983B4664
:104F1000860AC0F3C2008DF81C00029808A9C0F3ED
:104F20008315AA00019807F04DF82069009005ABA1
:104F30002A4608A9304606F07BFF1AE00298850D44
:104F4000C0F3C2008DF81C00082D01D22E4600E0EF
:104F500008263B46324608A9019807F033F8374443
:104F6000AD1B05AA314608A8236906F02FFE002DC7
:104F7000EAD1019807F017F8E068002201A940681B
:104F8000006807F03DF90028A5D0012071E7000076
:104F90004C6F7374206C6F6773202D20696E637281
:104FA00065617365206C6F67206261636B656E6419
:104FB0002071756575652073697A652E0A00000099
:104FC0002DE9F0411E4617460D46040000D01DB9DC
:104FD00009A1FD20FEF7E6FC606818B906A1FE20D5
:104FE000FEF7E0FC606833463A4601680C692946E2
:104FF000A446BDE8F04160472E2E5C2E2E5C2E2E7E
:105000005C2E2E5C2E2E5C2E2E5C636F6D706F6E90
:10501000656E74735C6C69627261726965735C63FE
:105020006C695C6E72665F636C692E6300000000E1
:1050300070B5044640680E460025007A38B1A06875
:105040000068FDF701FB08B108281AD10025BEB998
:105050006068007A50B90B4A0021A068FDF78AFA0F
:10506000616805004FF00100087209D1A06822466E
:1050700040F266610068FDF7C1FA0546FCF7FCFDE9
:10508000284670BDB9FF000010B541680A6041684C
:105090004B60406800210172FCF7EEFD02490120DF
:1050A0000870002010BD00006402002070B51C00D4
:1050B00015460E4603D106A16620FEF773FC2A466C
:1050C00031460020FCF7DAFD2060002070BD0000B2
:1050D0002E2E5C2E2E5C2E2E5C2E2E5C2E2E5C2E0A
:1050E0002E5C636F6D706F6E656E74735C6C69625D
:1050F0007261726965735C636C695C7274745C6E16
:1051000072665F636C695F7274742E6300000000E6
:1051100080680068FDF798BA2DE9F05F5FEA030840
:1051200015460E4603D11DA17420FEF73BFC2B480B
:105130000068C0070FD0DFF8A8B000244FF0050AC0
:10514000B14600BF09EB04012A460020FCF7E4FD4C
:10515000060003D011E0C8F8005018E09BF80000EA
:1051600088B10A271F494FF47A4088477F1EF9D13A
:10517000AAF101005FEA000A0CD001218BF80010AF
:105180003444AD1BDED1002CE5D0C8F8004000202F
:10519000BDE8F09F00218BF80010F4E72E2E5C2E66
:1051A0002E5C2E2E5C2E2E5C2E2E5C2E2E5C636FC3
:1051B0006D706F6E656E74735C6C6962726172693A
:1051C00065735C636C695C7274745C6E72665F6359
:1051D0006C695F7274742E6300000000F0ED00E0F3
:1051E00064020020A11601002DE9FC4700250446B9
:1051F00040F2C67740F2C7780126019501AB012243
:1052000069462046FFF7DCFE0198002837D09DF85C
:1052100000007F28F2D806F0E1FFA068417821B1B4
:10522000012978D0022977D1FBE09DF8001089464A
:105230000D2909D00A2907D0D0F85423002161F3A1
:105240008D12C0F8542322E0D0F85423C2F3871201
:105250002AB1D0F85423C2F387128A4217D1D0F86A
:10526000542361F38D12C0F85423A068C18C41B15E
:105270002046FFF75FFC0221204600F089F9BDE8D7
:10528000FC87C0F85053204601F020FCF3E7484665
:10529000B9F1090F78D00ADCB9F1090F15D2DFE8AE
:1052A00009F005FE142B14FD14148E00A6E7172830
:1052B00076D005DC0C2830D0B9F1150F05D165E0AA
:1052C0001B2815D0B9F17F0F77D0FCF725F90168BD
:1052D00011F8090010F03E0F90D02046FFF7A8FD0E
:1052E00000287ED09DF800102046FFF7ADF985E735
:1052F000A1680120487081E7204601F075FB204637
:1053000001F0C5FB10B9204601F0E0FB0221204668
:1053100000F03EF972E77BE07EE01CB98CA13846D4
:10532000FEF740FB206918B989A13846FEF73AFB21
:10533000954A96A1206905F0DFFA1CB984A1404680
:10534000FEF730FB206918B981A14046FEF72AFB21
:105350008D4A8EA11132206905F0CEFA8BA203216D
:105360002046236804F0ACFD2046FFF761FD0028CD
:105370009CD0A36885A2082120462C3304F0A0FD10
:10538000204601F043FC39E70EE009E0204601F039
:1053900054FB2046FFF7AEFA2046FFF775FA2DE7DB
:1053A0002046FFF7B1FA29E72046FFF741FD002824
:1053B0009DD0204600F006F920E709E011E02046E4
:1053C000FFF736FD002892D02046FFF76DF815E76D
:1053D0002046FFF72DFD002889D02046FFF7C0F8B2
:1053E0000CE7A1689DF80020C88CB0F5BF7F91D86C
:1053F000088D0B18401C088583F82C20A068018DAF
:10540000084480F82C50A068C18C491CC184F5E682
:105410009DF800105B2901D0002100E002214170BD
:10542000ECE6002141702046FFF702FD00283FF422
:1054300026AF9DF80000422844D01BDC332872D0F0
:1054400012DC312878D032289DD1A1680320487021
:10545000A068D0F85413D0F8542326EA010161F370
:105460000002C0F85423C9E634285ED041288AD10E
:10547000012128E046285BD01FDC432827D04428A0
:105480008DD1204603F0D7FE81460188007B401C69
:10549000814206D1B9F80400012801E048E04EE05D
:1054A00081D001294FF00101204634D001F002FBE8
:1054B000A168088D401E0885A0E648283FD04C28EA
:1054C00085D1C5E70021204602F084FD96E62046FE
:1054D00003F0B1FE814601884088814205D1B9F8C8
:1054E0000420B9F80600824291D0B9F80A0081423E
:1054F0004FF00101204607D101F06AFAB9F80A100D
:10550000204601F0D7FA01E001F0B6FBA068018D5A
:10551000491C018572E601F0BBFBB9F80A10204670
:1055200001F0AAFBC4E70EE006E0A1680320487082
:10553000204601F059FA61E6A16803204870204630
:1055400001F07BFA5AE6A1680320487040E70000AA
:105550002E2E5C2E2E5C2E2E5C2E2E5C2E2E5C2E85
:105560002E5C636F6D706F6E656E74735C6C6962D8
:105570007261726965735C636C695C6E72665F63AD
:105580006C692E63000000000916010025730000FD
:1055900010B504468068022901700AD12046FFF741
:1055A000A9F920462368BDE8104002A2032104F0B7
:1055B00087BC10BD25730000002801D0FCF752B84D
:1055C000704700002DE9F04F05460020A7B00746C0
:1055D0000990064620900690A868C18CA1F27F1120
:1055E000494289B25FEA010973D0028D00F12C01B2
:1055F00000F5D670FBF7E8FFA8680024018D084489
:1056000080F8AC41FBF788FF21900168A8680C2363
:10561000028D024492F82B20895CC0F85043AA689E
:1056200001F0010A0BA918A802F5D67203F036FCA6
:105630000B98FFF7C1FF1FFA80F8A34619941A943C
:10564000189818B15044401EB0426DD8BAF1000FFE
:1056500001D0002005E00BA850F82600FFF7ACFFB2
:1056600080B2804600241BA822460090641C19AB1F
:105670003146584600F096FD199800287DD0016803
:105680000BA8424650F8260002F092FF0028EAD00C
:105690001A987F1CF0B119980068FFF78DFF0699E2
:1056A00080B2884200D90690B9F1000F2ED022A80E
:1056B00000901AAB31465846099A00F073FD1998CC
:1056C00001681A9801EB08020168002001EB080349
:1056D00016E043E0601E209019980068FFF76CFF09
:1056E00080B20690A0EB080048450FDA80B20CE0CB
:1056F00013F800C0614506D1401C0004000C10D016
:10570000115C0029F4D1814500D98146601E0990C1
:1057100019981A90A7D26AA20421284604F0D0FB57
:105720002BE04FF6FF70EEE700241BA82246009006
:10573000641C19AB3146584600F034FD4CB1199841
:1057400000280BD00BA850F826000BF0DBFAA0B90C
:1057500007E05BA20421284604F0B2FB27B0BDE8B5
:10576000F08F199801680BA850F82600FBF781FF0D
:105770000028DAD11998D0F808B0BBF1000F09D091
:10578000199838B11899761CB6B201EB0A00864216
:10579000FFF456AF002FE1D0012F3AD00021284668
:1057A000069A09F0B1F9209C0DF16C0A2246641C9E
:1057B00019AB31465846CDF800A000F0F3FC19981B
:1057C000424601680BA850F8260002F0F1FE30B105
:1057D00019987F1E069A0168284609F095F9002F4E
:1057E000E4D142A2032128462B6804F069FBAB6890
:1057F0003FA2082128462C3304F062FB284601F022
:1058000005FA1A984A4601682846414401F05CF8B6
:10581000A4E79BF8000038B11BA800901AAB3146F2
:105820005846099A00F0BEFC1A980068FFF7C4FEBB
:10583000404506D01A984A4601682846414401F07E
:1058400043F82198A9680268088D0B1893F82C304A
:10585000D25CD20715D0C98C8842D9D2284603F031
:10586000EAFC8488A868018D491C0185284603F05C
:10587000E2FC8088A0421FD10121284601F0FCF9FA
:105880006CE7D1F85403C00711D0D1F8540320F0CD
:105890000100C1F8540320212846FEF7D5FEA86870
:1058A000D0F8541341F00101C0F8541356E72021F9
:1058B0002846FEF7C9FE51E7284601F007F94DE7F3
:1058C0005461622066756E6374696F6E3A20636F0F
:1058D0006D6D616E647320636F756E746572206F99
:1058E000766572666C6F7765642E0A000A25730010
:1058F0002573000070B505460C0004D107A140F6E1
:105900000920FEF74FF8002D06D0A068D0F85413F8
:1059100041F02001C0F8541370BD00002E2E5C2E03
:105920002E5C2E2E5C2E2E5C2E2E5C2E2E5C636F3B
:105930006D706F6E656E74735C6C696272617269B2
:1059400065735C636C695C6E72665F636C692E6321
:105950000000000000238B540A460068194604F03A
:10596000AFBA00002DE9F8431F46144688460500EB
:1059700002D0B8F1000F03D11EA1CE20FEF712F81D
:105980006868006818B91BA1CF20FEF70BF8002645
:1059900028E000BF686808EB06016B460268D2F891
:1059A0000CC02246E04718B112A1D920FDF7FAFF3A
:1059B0000098844203D20FA1DA20FDF7F3FF00988C
:1059C0000644241A70B9A868017803290AD000BFD8
:1059D000D0F854138906FBD5D0F8541321F02001D8
:1059E000C0F85413002CD5D1002F01D00098386096
:1059F000BDE8F8832E2E5C2E2E5C2E2E5C2E2E5CA7
:105A00002E2E5C2E2E5C636F6D706F6E656E7473E0
:105A10005C6C69627261726965735C636C695C6E0F
:105A200072665F636C692E630000000070B5084CFD
:105A3000050009D010342168002907D008682060CB
:105A4000496828468847F6E70834F4E770BD000047
:105A500054110020054A012120B1012805D191707F
:105A6000FFF7E4BF51700020FAE77047541100209F
:105A70003EB5044604F0F2FB38B103B02046BDE861
:105A800030400022114604F079BA06490648CDE9B3
:105A900000010346029105A20821204604F010FAF5
:105AA0003EBD0000C02F0100001000004170706C6E
:105AB00069636174696F6E20616464726573733ABF
:105AC00025642028307825303858292C2073697AAD
:105AD000653A2025642028307825303858290D0A69
:105AE00000000000F8B514460E46050004D121A1BF
:105AF00040F20F10FDF756FFA86818B1686808B1AA
:105B0000286820B91BA14FF48870FDF74BFF012EC8
:105B100003D0284604F09CFB30B12846BDE8F8408D
:105B200001221B4904F02ABA022E08D0236801B0D2
:105B30002846BDE8F04017A2022104F0C1B91CA11B
:105B40006068FBF796FD68B11AA16068FBF791FDEC
:105B500040B16068009019A202212846236804F031
:105B6000AFF9F8BD2846BDE8F8401BA2002104F0BB
:105B7000A7B900002E2E5C2E2E5C2E2E5C64656D67
:105B80006F5F636C695F636D64732E630000000078
:105B90000011010025733A20626164207061726116
:105BA0006D6574657220636F756E740A0000000085
:105BB0002D7400002D2D74657374000025733A2038
:105BC000756E6B6E6F776E20706172616D65746556
:105BD000723A2025730A000044756D6D7920746552
:105BE0007374206F7074696F6E2E0A00012904D0DF
:105BF000136804A2022104F063B909490020486037
:105C00007047000025733A20626164207061726100
:105C10006D6574657220636F756E740A0000000014
:105C200008000020012904D0136804A2022104F016
:105C300047B90949012008707047000025733A20D0
:105C400062616420706172616D6574657220636F5A
:105C5000756E740A0000000008000020012904D0BD
:105C6000136804A2022104F02BB90949002008702E
:105C70007047000025733A20626164207061726190
:105C80006D6574657220636F756E740A00000000A4
:105C90000800002070B514460D460646012902D0C2
:105CA00004F0D6FA30B13046BDE87040002211460B
:105CB00004F064B92368022D01D904A200E00AA20D
:105CC0003046BDE87040022104F0FAB825733A204E
:105CD00062616420706172616D6574657220636FCA
:105CE000756E740A0000000025733A20706C6561BF
:105CF0007365207370656369667920737562636F7D
:105D00006D6D616E640A00002DE9F04714460D4682
:105D1000814604F09DFA30B14846BDE8F0470022C4
:105D2000114604F02BB9022D07D048462368BDE880
:105D3000F04728A2022104F0C3B8DFF8B48098F835
:105D40000100142801D32BA206E06068FBF78AFC4F
:105D500086B2212E02D32DA2022132E000256768EF
:105D60000AE000BFFBF7D8FB0068795D405C10F0EB
:105D7000380F2BD06D1CEDB2B542F3D3284E002561
:105D800005EB451030446168FBF773FC00281FD019
:105D90006D1CEDB2142DF3D398F80110454601EBBC
:105DA0004110491C88F8011030441EA16268FCF7BC
:105DB0006BFA1D4B212269781948FBF7B7FB1BA230
:105DC00000214846BDE8F04704F07AB81EA2C3E7B8
:105DD0002DA2C1E725733A2062616420706172616F
:105DE0006D6574657220636F756E740A0000000043
:105DF00008000020636F6D6D616E64206C696D69D1
:105E00007420726561636865640A0000746F6F20B6
:105E10006C6F6E6720636F6D6D616E640A000000C9
:105E2000C4040020257300005DFD0000636F6D6DEC
:105E3000616E642061646465642073756363657377
:105E40007366756C6C790A0062616420636F6D6DB6
:105E5000616E64206E616D65202D20706C656173CC
:105E60006520757365206F6E6C7920616C70686158
:105E70006E756D65726963616C20636861726163E0
:105E8000746572730A0000006475706C69636174F4
:105E9000656420636F6D6D616E640A002DE9F843DF
:105EA00014460D46804604F0D3F930B14046BDE8B3
:105EB000F8430022114604F061B8022D03D014A269
:105EC000022123681DE00025184F194E09E000BF8C
:105ED00005EB451038446168FBF7CBFB70B16D1CD6
:105EE000EDB270788542F3D36068009011A2022170
:105EF0004046236803F0E4FFBDE8F883636814A21A
:105F0000002101B04046BDE8F04303F0D9BF0000D6
:105F100025733A2062616420706172616D657465F9
:105F20007220636F756E740A00000000C4040020C4
:105F30000800002025733A20756B6E6F776E207015
:105F40006172616D657465723A2025730A00000004
:105F500064796E616D696320636F6D6D616E643A23
:105F60002025730A000000002DE9F04117460C4679
:105F70008046012902D004F06BF930B14046BDE8FB
:105F8000F0410022114603F0F9BF022C02D01BA2FF
:105F90003B6811E00024204E204D08E004EB441043
:105FA00030447968FBF765FB60B1641CE4B2687843
:105FB0008442F3D37B681AA24046BDE8F041022137
:105FC00003F07EBF132C14D06878001B00EB401246
:105FD00004EB4410304400F12101FBF7F5FA687836
:105FE00016A2401E68704046BDE8F041002103F053
:105FF00067BF002086F87302F1E7000025733A209E
:1060000062616420706172616D6574657220636F96
:10601000756E740A00000000C4040020080000200F
:10602000646964206E6F742066696E6420636F6DAE
:106030006D616E643A2025730A000000636F6D6D18
:10604000616E642072656D6F76656420737563633D
:1060500065737366756C6C790A000000F8B51446B8
:106060000D46074604F0F4F830B13846BDE8F84074
:106070000022114603F082BF012D08D0236801B031
:106080003846BDE8F04013A2022103F019BF184DB5
:10609000687838B117A20021384603F011FF0024B8
:1060A0001A4E13E03846BDE8F84019A2042103F067
:1060B00007BF00BF04EB44103044009023461DA2EC
:1060C0000021384603F0FCFE641CE4B26878844288
:1060D000F0D3F8BD25733A2062616420706172616B
:1060E0006D6574657220636F756E740A0000000040
:1060F0000800002044796E616D696320636F6D6DE7
:10610000616E64206C6973743A0A0000C404002054
:10611000506C656173652061646420736F6D6520E8
:10612000636F6D6D616E64732066697273742E0A9D
:10613000000000005B2533645D2025730A00000029
:1061400010B5044604F08AF830B120460022BDE8BC
:106150001040114603F012BF1F21BDE8104002A2FB
:106160000320FBF7C9B800002E2E5C2E2E5C2E2ECD
:106170005C2E2E5C2E2E5C2E2E5C636F6D706F6E0F
:10618000656E74735C6C69627261726965735C637D
:106190006C695C636C695F7574696C735F636D6473
:1061A000732E63002DE9F05F1C000A9F1546884698
:1061B000064604D121A14FF48970FDF7F3FB27B9FE
:1061C0001EA140F21310FDF7EDFB4FF00009B8F1EE
:1061D000000F0BD01EB3307838B3726839462846AA
:1061E00090473868D8B12760BDE8F09F2149224820
:1061F000A1EB0008B5EBD80F14D2DFF880A0002681
:10620000834609E00BEBC607786801685AF8250059
:10621000FBF72FFA20B1761CB6EBD80FF2D301E0D2
:10622000786808E0C4F80090DEE7706800EB0510BD
:1062300001680029F6D02060D6E700002E2E5C2EE3
:106240002E5C2E2E5C2E2E5C2E2E5C2E2E5C636F12
:106250006D706F6E656E74735C6C69627261726989
:1062600065735C636C695C6E72665F636C692E63F8
:1062700000000000703C0100E03B01003C030020F6
:1062800070B515460E46044603F0E8FF30B12046CF
:10629000BDE870400022114603F070BE2149224B38
:1062A0000122C91AC9081E4802EB0144761E0CD00F
:1062B000012E10D04088022E1CD000282FD020465E
:1062C0001AA1BDE8704005F04DBC4088002826D0DA
:1062D000204622A1F5E74088002820D00A2200218C
:1062E0006868FBF7ECF902462046BDE8704020A143
:1062F00005F03CBC002812D00A220021A868FBF758
:10630000DEF906460A2200216868FBF7D8F9024642
:1063100020463346BDE870401BA105F02EBC70BD81
:1063200034040020D03D0100C03C0100746573744A
:10633000206572726F72206D657373616765207777
:10634000697468206D6F7265207468616E203320F7
:10635000617267756D656E747300000074657374A7
:10636000206572726F72206D6573736167650000DE
:1063700074657374206572726F72206D65737361DA
:1063800067653A2025640000746573742065727235
:106390006F72206D6573736167653A2025642025EF
:1063A0006400000070B515460E46044603F056FF23
:1063B00030B12046BDE870400022114603F0DEBD3A
:1063C0002149224B0222C91AC9081E4802EB014486
:1063D000761E0CD0012E10D04088022E1CD0022830
:1063E0002FD320461AA1BDE8704005F0BBBB408802
:1063F000022826D3204622A1F5E74088022820D390
:106400000A2200216868FBF75AF902462046BDE8D7
:10641000704021A105F0AABB022812D30A22002154
:10642000A868FBF74CF906460A2200216868FBF7CA
:1064300046F9024620463346BDE870401DA105F0EE
:106440009CBB70BD34040020D03D0100C03C010065
:1064500074657374207761726E696E67206D657301
:10646000736167652077697468206D6F7265207449
:1064700068616E203320617267756D656E7473009C
:1064800074657374207761726E696E67206D6573D1
:106490007361676500000000746573742077617232
:1064A0006E696E67206D6573736167653A20256458
:1064B0000000000074657374207761726E696E6706
:1064C000206D6573736167653A202564202564003B
:1064D00010B5044603F0BCFE30B120460022BDE8F2
:1064E0001040114603F04ABD054A0721204603F03B
:1064F000E7FC2046BDE8104002A2002103F0E0BC0A
:106500000C1F0100202020202020202020202020DF
:10651000202020204E6F726469632053656D69638B
:106520006F6E647563746F722020202020202020FD
:106530002020202020200A0A00000000F8B515467F
:106540000E46040003D117A12820FDF72BFAA068FE
:1065500018B1606808B1206818B912A12920FDF7A8
:1065600021FA012E03D0204603F072FE30B12046FE
:10657000BDE8F8400022114603F000BD022E08D00D
:106580002B6801B02046BDE8F0400DA2022103F0C7
:1065900097BC6868009011A2022120462B6803F086
:1065A0008FFCF8BD2E2E5C2E2E5C2E2E5C64656D4D
:1065B0006F5F636C695F636D64732E63000000003E
:1065C00025733A2062616420706172616D65746543
:1065D0007220636F756E740A0000000025733A2004
:1065E000756E6B6E6F776E20706172616D6574652C
:1065F000723A2025730A00002DE9F04116460D4637
:106600000746012408E000BF56F8243007A20821FD
:10661000384603F055FC641CAC42F5D33846BDE85F
:10662000F04103A2082103F04BBC000025732000B9
:106630000A000000F8B516460D460746012409E099
:1066400056F824000090234604A20021384603F0A7
:1066500037FC641CAC42F3D3F8BD0000617267766E
:106660005B25645D203D2025730A000001A2022104
:1066700003F026BC4E696365206A6F6B65203B2979
:106680000A00000010B5044603F0E8FD30B12046D2
:106690000022BDE81040114603F070BCBFF34F8FDD
:1066A00005480168054A01F4E06111430160BFF348
:1066B0004F8F00BFFDE700000CED00E00400FA057D
:1066C00010B5044603F0C4FD30B120460022BDE8F9
:1066D0001040114603F052BCBDE81040FEF716BA58
:1066E0002DE9F04185680646002495F82C00002825
:1066F00011D0A046FAF710FF0746006804F12C01FC
:1067000004F10104695CA4B2415CC90705D0002C06
:10671000F4D185F82C80BDE8F081641E2404240C9B
:106720000FD0E88C021B04F12C00291805F12C0075
:10673000521CFAF749FFB168C88C001BC884B168C5
:106740000885B2683D68D38CD0182B3004460021F0
:1067500002E0491C89B2401E0778EF5DFF07F8D1BF
:106760008442D8D05B1A2C3302F80380B268D08CF4
:10677000401AD084B1680885CDE710B50021FCF738
:1067800097F90021FCF76CF9007810BD2DE9F04174
:106790000746154688460846FEF70EFF84B2B868DD
:1067A000661C418D3144B1F5C07F07D9124A0421DE
:1067B000384603F085FB0020BDE8F081294600F54E
:1067C000D670FAF733FF051EF6D0FEF7F5FE82B25B
:1067D00028192946401C521CFAF7F6FE224641466B
:1067E0002846FAF7F1FE20202855B868418D31443B
:1067F00041850120E0E70000C02E01002DE9FF4F98
:10680000002787B09A46DDF850B006463C46B846A9
:1068100002250DF108090197DDE908013A467F1CC0
:1068200001ABCDF80090FFF7BDFC019888B101687D
:106830000022504601F034F948B9019852460168E7
:106840003046FFF7A3FF5FEA000802D0641C002F68
:10685000E2D15CB3CBF80040B0685546514600F534
:10686000D670FAF7E3FE04462846FEF7A5FE85B289
:10687000C4B1B06800F5D670A04206D214F8010C7D
:10688000202802D16D1CADB2641E2046FEF794FE96
:10689000421BB068521C418D491B4185611920463D
:1068A000FAF792FEB8F1000F01D0002500E00125B3
:1068B0000BB02846BDE8F08F40684968884201D88F
:1068C00001207047002070472DE9F04115460F0068
:1068D000044604D123A140F22D60FDF763F8A068BF
:1068E000C18C028D8B1A29449EB2B1F5C07F37D27C
:1068F000002D35D0104400F12C0105F12C0210447C
:10690000721CFAF761FEA0682A46018D08443946D8
:106910002C30FAF759FEA0682C30FEF74DFEA16826
:106920001EA2C884A068018D4318082120462C337C
:1069300003F0C6FAA068018D29440185204600F0C5
:10694000A6F818B9204601F021FA10B1204600F04F
:10695000BDF8002E04D02046BDE8F04100F056B945
:10696000BDE8F0812E2E5C2E2E5C2E2E5C2E2E5C31
:106970002E2E5C2E2E5C636F6D706F6E656E747361
:106980005C6C69627261726965735C636C695C6E90
:1069900072665F636C692E6300000000257300005F
:1069A000EFF30580C005C00D10D0103840B20028AC
:1069B00006DA00F00F0000F1E02090F8140D03E07B
:1069C00000F1E02090F80004400970470F20704764
:1069D000002904D00A46006901A103F08DBF704769
:1069E0001B5B25644200000070B5054602F023FCE5
:1069F000044600886188884203D1A088E1888842E3
:106A00001AD0E188A088814204D9081A81B22846A8
:106A1000FFF7DEFF20886188884205D9401A81B2DD
:106A2000284600F047F804E0081A81B2284600F032
:106A300023F9A868C18C018570BD70B5054602F0C8
:106A4000FAFB04460188007B401C814202D1A088E9
:106A500001281BD0A088012804D9401E81B22846F5
:106A600000F016F92088217B884206D9401A401E82
:106A700081B2284600F01EF805E0081A401C81B2D9
:106A8000284600F0F9F8A9680020088570BD10B507
:106A900004460068FEF790FD0146A068028DC08B99
:106AA0001144B1FBF0F200FB121008B1002010BD40
:106AB000012010BD002904D00A46006901A103F09D
:106AC0001BBF70471B5B256444000000006901A1E7
:106AD00003F012BF0A0000002DE9FC47002604461F
:106AE0008DF8046080684FF4C07A3546B146B046F0
:106AF000514600F5D670FAF78EFD4349206903F040
:106B0000FBFE206903F038FF00276B46012201A934
:106B10002046FEF755FA0098D8B19DF804001B28CE
:106B200006D0A16891F8AC111B29EED152281FD0D4
:106B3000A26808F5D671505408F101001FFA80F8D8
:106B4000B8F1090F0AD9A168042081F8AC91BDE819
:106B5000FC872D494FF6C0101C318847009800284B
:106B6000D3D17F1CBFB2B7F57A7FCED30D20EEE72D
:106B7000A16808F5D6704A4601F80090A16891F81E
:106B8000AD015B2803D081F8AC210B20DFE70220A8
:106B900057466FF02F0309E005EB850503EB45052C
:106BA000401C654480B2ADB2B8420AD200F5D67C32
:106BB00011F80CC0BCF13B0FEED1401C80B2B842C2
:106BC00009D30C20C3E700BF06EB860603EB46069D
:106BD0006644B6B2F1E700F5D67C11F80CC0BCF102
:106BE000000FF1D1FA20FA2E01D9888200E08E82BE
:106BF000FA2D02D9A168088301E0A0680583A06886
:106C000080F8AC210020A2E71516010070B50546FA
:106C100002F011FB04468088E188884201D10126F8
:106C200000E000262846FFF732FF18B9284601F099
:106C3000ADF810B12846FFF749FF1EB160882188E2
:106C4000401A12E0E088A188401A81B2284600F07C
:106C50001FF820886188884206D9401A81B22846E8
:106C6000BDE8704000F008B8081A81B22846BDE8B7
:106C70007040FFF71FBF0000002904D00A460069DA
:106C800001A103F039BE70471B5B2564430000007F
:106C9000002904D00A46006901A103F02DBE704707
:106CA0001B5B25644100000010B50121FBF700FFCC
:106CB0000021FBF7D5FE007810BD10B50121FBF7D0
:106CC000F7FE0121FBF7CCFE007810BD7FB50C4626
:106CD00010B1012004B070BD2079002638B141F612
:106CE0001D5501281BD0022826D00F20F2E70220D4
:106CF000207102960396E0680190694601A808F0A9
:106D0000CBFA50B102988188E18000882081BDF8DB
:106D10000010029808F03EFBDCE70A20DAE70A4B95
:106D20006A460021A01D08F073FA38B106491839E7
:106D30008E61CE610A28CDD12846CBE702488188F2
:106D4000019808F027FBF5E7D801002010B50021D5
:106D5000024802F0FEFA80F3100010BD701F002000
:106D60004FF4A07202EB810189B200F0CBBC006845
:106D7000D0F80405704700002DE9F04715460E468F
:106D8000040003D138492F20FCF70CFE1EB9364908
:106D90003020FCF707FE1DB933493120FCF702FE15
:106DA00060793249DFF8C490DFF8CCA041F8205078
:106DB000617909F1040909EBC1002D4902792D48D7
:106DC000081AC7084AB1BAF802000824022848D3B2
:106DD000022000EB074029A141E03588D4F800806B
:106DE000B5F5805F04D32EA14FF4A770FCF7DAFD50
:106DF000C8F80855B67894F90450082E03D334A186
:106E00004520FCF7CFFD002D4FEA461006DA05F0CD
:106E10000F0101F1E02181F8140D03E005F1E025F7
:106E200085F8000494F90400012100F01F0201FA22
:106E300002F24009800000F1E020C0F800216279F0
:106E400009EBC2021171617949F83140BAF80200C8
:106E50000024032805D3032000EB074028A104F0F9
:106E600081FE2046BDE8F087DC250100A00100205E
:106E7000583D0100C03C0100F8030020525443205B
:106E8000696E7374616E636520616C7265616479AB
:106E900020696E697469616C697A65642E0000000E
:106EA0002E2E5C2E2E5C2E2E5C2E2E5C2E2E5C2E1C
:106EB0002E5C6D6F64756C65735C6E7266785C6871
:106EC000616C2F6E72665F7274632E680000000042
:106ED0002E2E5C2E2E5C2E2E5C2E2E5C2E2E5C2EEC
:106EE0002E5C696E746567726174696F6E5C6E7238
:106EF00066785C6E7266785F676C75652E680000F8
:106F00005254433A20696E697469616C697A6564A8
:106F10002E00000090F90400012100F01F029140B2
:106F20004009800000F1E020C0F8001270470A46D6
:106F3000022100F0D3BB4FF4827100F0E3BB0000EC
:106F400010B5040003D104496120FCF72BFD206833
:106F50000121016010BD0000DC25010010B5040016
:106F600003D104496720FCF71DFD20680121416021
:106F700010BD0000DC2501002DE9F84399461746B5
:106F80000E46050003D130498620FCF70BFD296829
:106F90004FF480344FF4A070B44000EB860080B210
:106FA00027F07F47C1F808432968C1F8484329689A
:106FB00000220A5008580090286800EB8601D1F89A
:106FC0004005C1F840752968D1F80415214A401AD6
:106FD00020F07F411E48DFF87480801AC008042228
:106FE00002EB004601290BD1B8F80200042803D3B4
:106FF000304619A104F0B6FD24494FF404608847D7
:107000002868C0F844432968D1F80435F81A20F0FC
:107010007F40020201D540F07F4029F07F4252427A
:1070200082420DDA02280BDCB8F80200042804D3EF
:1070300030463A4616A104F0A0FD0D20BDE8F883C5
:10704000C1F804430020F9E7DC250100F803002023
:10705000583D0100C03C01005254433A2044656C45
:10706000617920696E74726F6475636564206475FC
:107070006520746F207269736B206F662070726573
:107080002D666972696E672E0000000031140100E0
:107090005254433A2057696E646F77656420636F7A
:1070A0006D70617265207365742074696D656F75AC
:1070B0007420286162735F76616C75653A25642C73
:1070C00020636F756E7465723A2564292E00000086
:1070D00070B50C00054604D10AA140F29F10FCF7E0
:1070E00061FC0F48417800208D4209D20D4AE060D2
:1070F00005EB4511A06011440BA0C4E9001070BD60
:10710000206070BD2E2E5C2E2E5C2E2E5C64656D74
:107110006F5F636C695F636D64732E6300000000D2
:1071200008000020C404002053686F772064796E43
:10713000616D696320636F6D6D616E64206E616D5A
:10714000652E00001FB514461A4AD0610020019038
:1071500002900390886801908888ADF8080008685C
:1071600000F00302012A07D0022A15D0124940F28A
:107170007720FCF717FC1FBDC0F3C2008DF80C0090
:107180000C4801AB2030009008682146C0F3831200
:10719000800A04F04DFE1FBDC0F3C2008DF80C0044
:1071A0000868044B810D203301AA204604F00EFD2F
:1071B0001FBD00006C0200209434010010B504468D
:1071C000010600F00F00092804D306494FF4267089
:1071D000FCF7E8FB6FEA0460C10F204661F31F1063
:1071E00010BD00003808010070B50546000605F026
:1071F0000F0402D5092C09D301E0092C08D307A1FB
:1072000040F28520FCF7CEFB280601D5114801E0AD
:107210001048903800EB041070BD00002E2E5C2E3C
:107220002E5C2E2E5C2E2E5C2E2E5C2E2E5C6D6F18
:1072300064756C65735C6E7266785C6472697665A1
:1072400072735C7372635C6E7266785F757362648E
:107250002E630000B412002010B50446010600F0B1
:107260000F00092804D303494FF41A70FCF79AFB66
:10727000204610BD380801002DE9FC4180461F461C
:1072800015460E4600240D4802F045F838B111208D
:10729000BDE8FC8106EB043004F058FF641CAC42EE
:1072A000F8D1064802F02EF8CDE900573346002207
:1072B0000221404600F0F6F90020E9E768020020CC
:1072C00010B509F093FA8020FFF78EFF817B01242F
:1072D000032902D00068002809D18020FFF76EFF43
:1072E0008440E143BDE81040014805F007BE10BDF1
:1072F00020010020812005F083BC822005F080BCA5
:10730000832005F07DBC842005F07ABC852005F043
:1073100077BC862005F074BC872005F071BC8820FE
:1073200005F0BCBC38B509F061FA0020FFF75CFF3E
:10733000817B0124032905D0006868B1BDE838408D
:1073400007F059B90020FFF739FF8440E143BDE859
:1073500038400A4805F0D2BD0020FFF72FFF8440D7
:10736000E143064805F0CAFD05480449C0680C39E8
:10737000009049686846884738BD00002001002019
:1073800090110100012005F0F7BC022005F0F4BCCB
:10739000032005F0F1BC042005F0EEBC052005F04B
:1073A000EBBC062005F0E8BC072005F0E5BC0000BA
:1073B00038B5082409F01AFA2046FFF715FF817B3B
:1073C000032915D00068002812D12046FFF7F6FEE9
:1073D00001218140C943074805F090FD0648054951
:1073E000406900900C398DF802404968684688472A
:1073F00038BD0000200100209011010070B5134835
:1074000004680460BFF36F8FBFF34F8F06F02DFF4A
:1074100038B10F49086920F0011200F0011014433F
:10742000086101266CB194FAA4F0B0FA80F5284600
:10743000FCF7E8FA06FA05F18C43294609F08EFBC1
:10744000F0E7BDE8704009F013BA00006C74024028
:107450001401002010B5054CA078FFF7AFFE0146DF
:10746000A078BDE8104009F079BB000014010020AD
:10747000F8B51A4800681A4DC6B2A878FFF79EFE04
:10748000012404FA00F12889EA68C04380B210435D
:10749000014202D0A87809F0BBFA06F08000A8707B
:1074A0000020FFF78BFE04FA00F68020FFF786FE2F
:1074B00004FA00F006430A48F1430C3005F01EFDC3
:1074C0008020FFF77BFE8440A86804430548AC6039
:1074D000006A0090696868468847F8BD8074024079
:1074E000140100209011010038B5002000900E48D2
:1074F0000068ADF802008820FFF760FE012505FA5C
:1075000000F4082005F00CFC401C04D00820FFF714
:1075100055FE85402C4305498868204388604968AA
:107520006846884738BD00002075024014010020DD
:1075300070470000F8B51C480568284605F0C0FCF7
:10754000BFF36F8FBFF34F8F184E194CE80506D568
:1075500001206070706A0090616868468847A805DD
:107560004FF0000705D56770B06A00906168684603
:107570008847680516D56078002813D005F0AAFC66
:1075800020B10CA140F2C540FCF70CFA6770174916
:1075900001200860582005F0A5FCF06A00906168A1
:1075A00068468847F8BD0000007402409011010051
:1075B000140100202E2E5C2E2E5C2E2E5C2E2E5CB6
:1075C0002E2E5C2E2E5C6D6F64756C65735C6E7216
:1075D00066785C647269766572735C7372635C6E04
:1075E0007266785F757362642E63000008750240EE
:1075F000054908B50020487088700448406800902C
:1076000049686846884708BD1401002090110100B0
:1076100010B503780022072B06D2DFE803F005043B
:107620000610202930000A7010BD01230B70038959
:107630008B818388CB81C06888600A7410BD022268
:107640000A7002898A818288CA81C2688A60807DC4
:10765000062802D00020087410BD0120FBE7032299
:107660000A70C2888A810289CA81C068886010BD98
:1076700004230B70C0888881CA818A6010BD0520F0
:10768000087010BD70B5064D0646002455F824104C
:1076900009B130468847641C042CF7D370BD000044
:1076A000E01500202DE9F04387B00446DDE90E899E
:1076B00080681D4616460F4600280BD018216846E4
:1076C000F9F7A9FF02A88DF8007080E86003A168AF
:1076D0006846884707B0BDE8F083000070B51646DD
:1076E0000C46050003D10649B920FCF75BF9286870
:1076F000C0F84443002E02D02868C0F8044370BD8F
:10770000DC25010038B50C46050003D10749CA2025
:10771000FCF748F92868015929B1002101510059A5
:107720000090012038BD002038BD0000DC2501009C
:10773000F0B587B014216846F9F76DFF2F4C20781B
:1077400018B16846FFF79EFF55E0201D01F0E3FDEC
:1077500098BB40F6F8700168481C02D14FF0102029
:1077600041694FF08050026940694B1C01D100FB18
:1077700002F1234800220161A1F54051C160214975
:1077800003F0F8FA002822D120481C238C221E493D
:10779000006801F078FD07F075FA050016D0022D9B
:1077A00014D000270126062D13D005A807F080FB72
:1077B00090B106700C2D19D200E01CE0DFE805F056
:1077C000160E160E16151615161012100B2007B0F1
:1077D000F0BD26706760B4E70820F8E7077105E0A0
:1077E000032100E00221017100E0067105A807F005
:1077F0006DFB07F04BFC0020E9E70000E0010020F2
:107800008403002020170100F01500203814010027
:1078100038B5040014D0694607F03EFDA0B1BDF8AC
:10782000000000EB8001094800EB8100C16849B10C
:10783000A17A39B1C168491EC1600020A07238BD6B
:10784000052038BD062038BD0A2038BD7C16002032
:107850001FB501A9684607F0DBFC04B010BD0000AD
:10786000F8B50D46040018D0BDB1694607F014FD07
:10787000A8B1BDF800000B4900EB800001EB8000CF
:1078800001210C30666801F049FD2E6060680C3003
:1078900068600120A0720020F8BD0520F8BD0A2014
:1078A000F8BD00007C16002018B10323002209F067
:1078B0005FBA052070470223002209F059BA10B5BB
:1078C0008168D1F85413C1F3400119B10022114667
:1078D00002F054FBBDE8104003F0FEBD10B51548A2
:1078E00003F010FE20B1144A4FF48071F9F704FD43
:1078F0000221124803F004FD012414EBE07004D1CE
:107900000D4A40F20311F9F7F7FC0C480321C06857
:1079100044710A48103003F0F3FC14EBE07004D11A
:10792000054A4FF48571F9F7E7FC04481030C06848
:10793000447110BD20170100188E0000703C01003A
:107940003EB505468068D0F85403C0F3400020B12E
:1079500000221146284602F011FB0020029001246B
:1079600000906A4601A902A803F0F2FD38B1002C8C
:1079700004D006A20221284602F0A2FA3EBDDDE9AB
:1079800000212846FFF7DEFB0024EAE7466C61731E
:1079900068206C6F6720656D7074790D0A000000B7
:1079A0007CB505468068D0F85403C0F3400020B190
:1079B00000221146284602F0E1FA14A208212846C6
:1079C00002F07EFA164C4FF48056230B1B0315A2CF
:1079D00008212846009602F073FA200B1D4C404205
:1079E0001DA2216901EB0031CDE90016642041435D
:1079F0000B0B0821284602F063FAA36902B028465F
:107A0000BDE8704020A2082102F05ABA466C6173AA
:107A100068206C6F67207374617475733A0D0A0087
:107A2000BF4F010009092D204C6F636174696F6EAF
:107A30002028616464726573733A20307825303889
:107A4000582C206C656E6774683A202564290D0AED
:107A5000000000006C02002009092D20437572729D
:107A6000656E742075736167653A25642525202845
:107A70002564206F66202564206279746573207503
:107A8000736564290D0A000009092D2044726F7086
:107A9000706564206C6F67733A2025640D0A0000DE
:107AA0004023AFF300802DE9F04716460C46050051
:107AB0005BD0ACB3B3F1010902D20320BDE8F0877B
:107AC000884615F8010B314600F0A3F8C7B23F2FE6
:107AD00011D003DC3FB12A2F7DD122E05B2F69D08A
:107AE0005C2F78D182E0F00602D520782F283ED096
:107AF0002078A8B9E2E7207890B12F2802D02E286C
:107B000003D06DE0B00730D46AE0700768D5444513
:107B10002BD0B00764D514F8010C2F2825D05FE0D6
:107B200023E0287801E015F8010F314600F071F8E4
:107B3000C0B22A28F7D021782E2909D1710707D59C
:107B4000444512D0B10703D514F8011C2F290CD0DD
:107B500010B12F280DD023E0B00708D5F00606D4C9
:107B60002F212046F9F774FD08B10120A6E7002077
:107B7000A4E7B00714D52F212046F9F769FD0400CA
:107B80009FD1F2E74B46424621462846FFF78BFF3E
:107B9000012893D12F2F01D1B007E6D4641C01E056
:107BA00026F004082078314600F033F810F0FF0783
:107BB000E8D1DAE720780028D7D02F2801D1B10703
:107BC000D3D4314600F025F801463246284607F066
:107BD000BEFA002800E014E0C7D0411C02D00546E0
:107BE000641C6EE720785B28BFD1F9E7F00708D165
:107BF00015F8010B314600F00CF810F0FF0700D12A
:107C00006D1E14F8010B314600F003F8B842E8D0BD
:107C1000ABE710B5044608070AD5F9F77DFC006804
:107C2000005DC00604D52046BDE81040F9F778BCD9
:107C3000204610BD2DE9F05F17460E00814670D03A
:107C400013B1B9B2FFF718F80024F9F765FC8246C2
:107C5000006800E0641C315D415CC907FAD1002571
:107C60003046FDF7A9FCD9F80810001BCA8BD11BC0
:107C7000814228D306EB040805E000BF18F8051080
:107C80000A290CD06D1C8542F8D33119D9F810009F
:107C900002F032FE4846BDE8F05FFEF717BFD9F8A4
:107CA000100002F069FE414600232A464846FDF7CF
:107CB00059FE2C444846641CFEF708FFB9B24846FA
:107CC000FEF7DAFFE1E78B46DAF8001006EB04086E
:107CD00018F805000B5CDB0702D0AB460A2804D07D
:107CE000E819904201D26D1CF2E7D9F8100002F0B9
:107CF00043FE414600235A464846FDF733FE5C44A6
:107D0000DAF8000000E0641C315D415CC907FAD17B
:107D10004846FEF7DBFEB9B24846FEF7ADFF9EE7E8
:107D2000FFE7BDE8F09F406807F0EAB810B50446E9
:107D300014480021027862B1012A09D12278022A6E
:107D400006D1114AA3686FF30B02934200D1017070
:107D500010BD2278012AFBD162684AB18169491CB1
:107D6000816160690028F3D0BDE8104004F01BB9C0
:107D7000D0E904231A44C0E904210021406800F03E
:107D80003BFEEEE76C020020BF4F010010B5044639
:107D90000068FDF711FC0146A068C28CC08B11443D
:107DA000B1FBF0F200FB121008B1002010BD012061
:107DB00010BD000070B508B1012070BD1B4C00253E
:107DC000207B08B1257301E000F0A4F82078082892
:107DD0002AD2DFE800F02904080C10291422BDE89B
:107DE000704000F025B8BDE8704000F081B8BDE8F3
:107DF000704000F063B8BDE8704000F03FB8062066
:107E000020706088094900EB8000283901EB800070
:107E10004068BDE8704006F015BF0720207065601F
:107E2000BDE8704006F01CBF0F2070BDA4160020F6
:107E30001149F0B48A1C00200346A1F128050C1852
:107E4000A67A4EB1A37200EB800405EB8404E668C9
:107E500016B9247C012C0AD0401C80B20228EED333
:107E60000B704B804B60F0BC41F61D50704710808A
:107E7000F0BC00F03DB80000A41600200C4841887A
:107E800001EB8102A0F1280101EB8201CA6852B125
:107E90000521017007480221818001680023012229
:107EA000054802F0BFBE042202704968F6E70000F0
:107EB000A4160020E80100208403002038B50A49F8
:107EC000084803240B684268898803EB81015388C2
:107ED0000470DB1C00201B0400909B0B034802F085
:107EE000A1FF38BDA4160020E80100208403002073
:107EF000074910B54888091D07F01EFA18B1BDE8FA
:107F00001040FFF7DBBFBDE81040FFF7B7BF000030
:107F1000A4160020F0B51F481F4901250678022449
:107F20008B88A0F12802082E19D2DFE806F0041889
:107F3000181B222F2F170189491C01810021418024
:107F400080F80C1001EB810312F8233043B10023B9
:107F50004418491C89B2A3720229F3D30570F0BDFD
:107F60000123F5E742685288D21C1A448A800470C3
:107F7000F0BD46880D6806EB860602EB8602566861
:107F80000E60556013818C80062100E0072101708E
:107F9000F0BD0000A4160020E8010020428800EB9C
:107FA00082020C328A4201D9022070478188A1F5F1
:107FB0007F42FF3A03D0008808B1002070470120BB
:107FC0007047884204D20068401C01D001207047ED
:107FD00000207047FEB500260446009601960296E2
:107FE0008068E9B3D0E9D3128A4273D0D0F848034D
:107FF00000286FD02046FEF720FDA068D0F850532F
:10800000002D6AD000230A226946284603F0DAFFD1
:10801000A168BDF808500098C1F85003A06800237B
:108020000A22D0F85003694603F0CCFFA168BDF8DE
:1080300008200A23D1F850032C31521C03F0C2FF50
:10804000A168BDF808000885A168BDF80800C884CB
:10805000BDF80800A84202D22046FCF715FC00E05B
:108060000BE0A3682CA2082120462C3301F028FF46
:108070002046FEF70CFD70BB45E0D0F85003002809
:1080800049D02046FEF7D9FCA06800230A22D0F888
:108090005003694603F096FFA0680199C0F8501399
:1080A000A0680029C58CB9D100F5D670FDF784FA17
:1080B0000028A06805D000F5D6712C30F9F7E7FA52
:1080C00001E080F82C60A0682C30FDF775FAADF85F
:1080D0000800B5E71FE01BE0FFE72C30FDF76CFA66
:1080E0000504A0682D0CD0F84813C0F85013A06800
:1080F00006D000F12C0100F5D670F9F7C8FA8DE72B
:1081000080F8AC618AE72046FFF740FE002802D0E5
:108110002046FEF7DBFCFEBD25730000FEB50D001A
:10812000044604D11E4940F28450FBF73BFCA16891
:108130000026D1F8480338B300230A22694603F029
:1081400041FF0195A06800230A22D0F84803694640
:1081500003F066FF0196A068D0F848130091C08C28
:10816000ADF80800A068C0F8485300230A22694609
:10817000284603F055FFA1680A232846CA8C2C31F3
:10818000521C03F04DFFFEBDC1F84853A068C0F873
:108190004C5300960196A068C08CADF80800E4E747
:1081A000D8FE0000FEB504468068D0F84C63002E6F
:1081B00028D000230A226946304603F003FFA16855
:1081C00001980025C1F84C03009501952B460A2221
:1081D00069463046029503F023FF304603F0C4FEA3
:1081E000A168D1F84C0370B100230A22694603F05C
:1081F000E9FE0095A06800230A22D0F84C036946E6
:1082000003F00EFFFEBDC1F84853FEBDFEB50446A7
:1082100080682C30FDF7D0F90504A0684FF0000607
:108220002D0CC0F8506333D0A068D0F84803E0B1FB
:1082300000230A22694603F0C5FEBDF80820AA42C1
:1082400013D1A0680A2300F5D671D0F84803521C58
:1082500003F0B8FEA06800F5D6712C30F9F709FAE2
:108260000028A06880F8AC6112D000260B352946A2
:10827000606903F049FE0100204604D003B0BDE868
:10828000F040FFF74BBFFFF78DFF761C082EEED3B3
:10829000FEBD000001494160002070471417010035
:1082A0002DE9F0412D4F002518B17D600120BDE87A
:1082B000F0810879012258B1294E01280CD0274CB1
:1082C0004FF002080834022821D0032842D128E0C8
:1082D0000A7106F0C5FC3BE05FF0000000EB800196
:1082E00016F82110022908D0401C80B20228F5D3CC
:1082F0003A707D6041F61D50D9E700EB800006F82A
:10830000205006EB8000406806F09CFC20E00D71D8
:10831000A4F80480002301221248216802F082FCA4
:1083200016E00D71206806F08DFC0D492368283198
:10833000498801EB810206EB8201D1F804C0C4F840
:1083400000C04B60A3880B81A4F8048006F822507B
:108350000028ACD07D600E20A9E70000E0010020DD
:108360007C160020840300202DE9FC5F0E0083466C
:10837000DDE90C47C6F1000098469246814600D4DC
:108380000846012503E000BF90FBFAF06D1C504544
:10839000FADAA84500D9454624B1002E01DB78075A
:1083A00000D5641EB80702D5B8F1000F0AD0F8074F
:1083B00008D13CB1A54205D220215846641EFBF7E6
:1083C0006DFBF6E7002E02DA4E462D2102E078071B
:1083D00003D52B215846FBF761FB07F00300022869
:1083E0000BD1B8F1000F08D13CB1A54205D2302124
:1083F0005846641EFBF752FBF6E7CDE900474346BB
:1084000052463146584608F0DBF8BDE8FC9F0000B4
:1084100070B50E46054600684FF48E7104F079FB86
:108420004FF4A271286804F074FB28681449C0F85E
:1084300004132868082E40F3073403D311A1452004
:10844000FBF7B0FA7007000E002C06DA04F00F01FB
:1084500001F1E02181F8140D03E004F1E02484F837
:1084600000042868012140F3073000F01F0291400A
:108470004009800000F1E020C0F8001170BD00004C
:10848000800002002E2E5C2E2E5C2E2E5C2E2E5C8A
:108490002E2E5C2E2E5C696E746567726174696F36
:1084A0006E5C6E7266785C6E7266785F676C75651E
:1084B0002E68000070B50E46044600684FF48871BF
:1084C00004F038FB4FF49071206804F033FB4FF454
:1084D0009271206804F02EFB4FF4A271206804F022
:1084E00029FB20681449C0F804132068082E40F3C3
:1084F000073503D311A14520FBF754FA7007000E8E
:10850000002D06DA05F00F0101F1E02181F8140DCC
:1085100003E005F1E02585F800042068012140F31F
:10852000073000F01F0291404009800000F1E02078
:10853000C0F8001170BD0000100302002E2E5C2E4A
:108540002E5C2E2E5C2E2E5C2E2E5C2E2E5C696EEA
:10855000746567726174696F6E5C6E7266785C6E6A
:108560007266785F676C75652E68000002460020B1
:108570001268530713D502F00300012802D0022825
:108580000CD105E0C2F383100B68C01C184404E052
:108590000323086803EB92521044086001207047DF
:1085A00002480068002800D00120704768020020BF
:1085B00010B5F9F775F808B1002010BD012010BD05
:1085C000800701D0002070470120704702681346E1
:1085D00002E08A4204D01268002AFAD10B600160DE
:1085E00070470000014B01F069B800001D880000D1
:1085F000014B01F063B80000E9890000014B01F074
:108600005DB80000F1890000014B01F057B800008F
:10861000758B00007CB514460546012902D001F097
:1086200023FE38B102B02846BDE870400022114652
:1086300001F0A4BC616805A0CDE9000109A20221F6
:108640002846236801F03CFC7CBD000020756E6B61
:108650006E6F776E20706172616D657465723A201D
:108660000000000025733A257325730D0A000000F1
:108670002DE9FC41074601F0F7FD38B102B038465C
:10868000BDE8F0410022114601F078BC1248134EBB
:10869000801B050900241AE006EB0410C26811795A
:1086A000FF2903D0527942B10DA207E083680EA2E0
:1086B0000821384601F004FC08E013A2CDE90021AE
:1086C000836814A20821384601F0FAFB641CAC420E
:1086D000E2D3BDE8FC810000C03C0100703C010019
:1086E000656E61626C65640025730D0A092D205367
:1086F00074617475733A206465616374697661743A
:1087000065640D0A0D0A000064697361626C65643A
:108710000000000025730D0A092D20537461747543
:10872000733A2025730D0A092D2049443A20256407
:108730000D0A0D0A0000000010B5044601F094FD7A
:1087400030B120460022BDE81040114601F016BCB1
:1087500002F0F6FF30B105A202212046BDE810402C
:1087600001F0AEBB0AA20821F7E700004661696C80
:10877000656420746F206C6F616420746865206389
:108780006F6E66696775726174696F6E2E0D0A008F
:10879000436F6E66696775726174696F6E206C6F86
:1087A000616465642E0D0A0010B5044601F05CFD9D
:1087B00030B120460022BDE81040114601F0DEBB7A
:1087C00003F016F830B105A202212046BDE81040A2
:1087D00001F076BB0BA20821F7E700004661696C47
:1087E000656420746F2073746F72652074686520EF
:1087F000636F6E66696775726174696F6E2E0D0ABC
:1088000000000000436F6E66696775726174696F7E
:108810006E2073746F7265642E0D0A002DE9FF4F90
:10882000C86881B01D46007917004FF0000600901F
:1088300057D0072245A12868F8F732FF78B10822FF
:1088400044A12868F8F72CFF00282FD02B6843A2FA
:10885000019805B00221BDE8F04F01F031BB012FB6
:1088600002D0022F08D008E0019805B041A2BDE86F
:10887000F04F022101F024BB0126DFF81081002413
:108880000A2258F824106868F8F70AFF10B1641C2F
:10889000052CF5D3052C06D004F0FF090224002E88
:1088A00051D0002419E03AA26B68D1E7012F4FF0B4
:1088B0000009F6D0012446E04A462146009800F01F
:1088C00046FC48B90021204603F08EFA034638A240
:1088D0000221019801F0F4FA641C03F02FFAA0427F
:1088E000EAD805B0BDE8F08F4FF0000A55F824B083
:1088F00003F024FA8046002609E00021304603F008
:1089000073FA20225946F8F7CBFE58B1761C46453B
:10891000F3D3464508D04A465146009800F017FC6C
:1089200030B10FE0B246F4E755F8243029A205E053
:108930000021504603F058FA03461DA20221019877
:1089400001F0BEFA641CBC42CED3CAE7656E616218
:108950006C65000064697361626C6500556E6B6ED6
:108960006F776E206F7074696F6E3A2025730D0AF1
:108970000000000042616420706172616D65746581
:108980007220636F756E742E0D0A0000C402002001
:10899000556E6B6E6F776E2073657665726974794C
:1089A000206C6576656C3A2025730D0A0000000086
:1089B0004C6576656C20756E617661696C61626C80
:1089C0006520666F72206D6F64756C653A20257343
:1089D0000D0A0000556E6B6E6F776E206D6F6475BB
:1089E0006C653A25730D0A00C9680120487170470B
:1089F000C9680020487170477CB50D460646214C79
:108A000026E040201F4A606114321F49019800F09F
:108A1000D7FBE8B101980090D4E904131A4A1B4827
:108A200002F000FA08B155B10BE0002D1BD0D4E9DB
:108A3000040108442061019803F0B5FA08E0042815
:108A400012D0102817D0124940F21710FAF7AAFFD7
:108A5000002201A9304603F0D3FB0028D1D00948F9
:108A60000C3000F04FFC7CBD019803F09CFAA0692B
:108A7000401CA061F3E7019803F095FA01202070F3
:108A8000E6E700006C0200206C180020980300202C
:108A90009434010030B41346C4680A46214630BC01
:108AA000FFF7BCBEC0680121C06841717047C06853
:108AB0000021C0684171704730B41346C4680A464B
:108AC000214630BC00F056B82DE9FF41002626486B
:108AD00000F01EFC2448001F074600F019FC234C40
:108AE00060680090A56800E000986946284004EBA3
:108AF00080000C30FFF73AFD0028F5D101AA00995B
:108B000001EA050304EB8303491CDB6842F82030CB
:108B1000401C00910328F2D3019800F003000128C3
:108B20001AD002280ED012494FF4AC70FAF73AFF6F
:108B3000384600F0EAFB08B10098606004B03046A7
:108B4000BDE8F0810198032101EB90500099BDF838
:108B50000A6001EB900005E00198BDF80A60C0F3DF
:108B6000831008440090E3E76C1F0020541B002092
:108B7000243501002DE9FE4F8846824603F0DEF8D9
:108B80000746D8F80C00407920B922A202215046AD
:108B900001F096F924A327A20821504601F090F98C
:108BA0002CA20821504601F08BF900242DE000BFD3
:108BB000D8F80C0001231A4605792146284603F00F
:108BC000C7F88146002301222146284603F0C0F859
:108BD0000546042801D2064600E00426012120466D
:108BE00003F002F90346AE4201D22AA200E028A215
:108BF000294850F8261050F829008DE8070027A2D0
:108C00000821504601F05CF9641CBC42D0D3BDE899
:108C1000FE8F00004C6F6773206172652068616C85
:108C2000746564210D0A00006D6F64756C655F6E7C
:108C3000616D6500252D343073207C206375727260
:108C4000656E74207C206275696C742D696E200DD0
:108C50000A0000002D2D2D2D2D2D2D2D2D2D2D2DEE
:108C60002D2D2D2D2D2D2D2D2D2D2D2D2D2D2D2D34
:108C70002D2D2D2D2D2D2D2D2D2D2D2D2D2D2D2D24
:108C80002D2D2D2D2D2D2D2D2D2D2D2D2D2D0D0A57
:108C9000000000002A000000C4020020252D34300E
:108CA00073207C20252D3773207C20257325730DA0
:108CB0000A00000008B54FF4804421464F4802F0F6
:108CC000DDFF20B14EA240F22911F8F715FB01F0AB
:108CD0001BFD20B14AA240F22D11F8F70DFB002038
:108CE00001F032FDF9F764FC20B145A240F23111E8
:108CF000F8F702FB464A01214648F9F73BFC20B150
:108D00003FA24FF49A71F8F7F7FA42480022214641
:108D10000068F9F773FC20B139A240F23711F8F777
:108D2000EBFA3C48032401231A4600211830009432
:108D300001F0A0FA18B138A2B821F8F7DDFA3548E9
:108D400001231A4600213030009401F093FA18B143
:108D500031A2C521F8F7D0FA07F020FFFEF7E8FCB2
:108D600020B127A24FF49F71F8F7C6FA02F0E8FC91
:108D70002848183001F0D4FB18B127A2A621F8F733
:108D8000BBFA2448303001F0CBFB18B122A2AF214E
:108D9000F8F7B2FAFEF7A2FD03F070F920B11EA2B7
:108DA0004FF48971F8F7A8FA03F01AFE20B11AA25D
:108DB00040F21311F8F7A0FA1B4D6888032811D36D
:108DC0001A481B49401AC108052000EB014004461F
:108DD00018A102F0C7FE6888032803D3204620A10B
:108DE00002F0C0FE02F088FD0A48183001F032FBA4
:108DF0000848303001F02EFBF4E700006925000040
:108E00002E2E5C2E2E5C2E2E5C6D61696E2E630004
:108E100065FF0000101101002E2E5C2E2E5C2E2E00
:108E20005C6D61696E2E630034040020D03D01004A
:108E3000C03C0100436F6D6D616E64204C696E65CE
:108E400020496E74657266616365206578616D7036
:108E50006C6520737461727465642E0A00000000F2
:108E6000506C6561736520707265737320746865FA
:108E700020546162206B657920746F2073656520D2
:108E8000616C6C20617661696C61626C6520636FF6
:108E90006D6D616E64732E0A000000002DE9FF4FB6
:108EA0004FF0000881B014468B468146C246C0F898
:108EB00000802578002D71D0F8F72EFB0090006817
:108EC000405DC00702D004F801AB84E0D9F800008F
:108ED0008300401CC9F800004BF8034015E02678D9
:108EE000002E78D0B8F1000F05D1222E10D0272EF9
:108EF0000ED05C2E1ED0B04514D12046FCF75CFB92
:108F00000246611C2046F8F75FFB4FF00008E6E7D9
:108F10002046FCF751FB0246611C2046F8F754FB43
:108F2000B046DCE7B8F1000F50D05C2E6AD1607813
:108F3000404508D12046FCF73FFB0246611C204615
:108F4000F8F742FB5EE030281CD100270225605D67
:108F5000A0F13001072906D86D1C41EAC701EDB226
:108F6000CFB2052DF3D3022D0CD92046FCF724FBFC
:108F7000421B61192046491E921CF8F725FB04F894
:108F8000017BACE778281ED100270225605DA0F1A7
:108F90003001092903D841EA07100DE021E0A0F1D2
:108FA0006101052901D8573804E0A0F141010529E4
:108FB00007D8373840EA07106D1CEDB2C7B2042D50
:108FC000E4D3022DD1D8B8F1000F1BD1009800686E
:108FD000805DC00716D0D9F8001004988142FFF4D4
:108FE00068AFD9F800000C2804D907A140F204505A
:108FF000FAF7D8FCD9F8002040464BF822A005B07B
:10900000BDE8F08F641C6AE72E2E5C2E2E5C2E2E9F
:109010005C2E2E5C2E2E5C2E2E5C636F6D706F6E40
:10902000656E74735C6C69627261726965735C63AE
:109030006C695C6E72665F636C692E630000000091
:109040002DE9F05F1E46DDF828B091468A460400FF
:1090500003D124A19020FAF7A5FCB4F8068060792A
:1090600008FB00F8A8F10408464503D31DA19E2083
:10907000FAF798FCE788301DB0FBF7F1B0FBF7F288
:1090800007FB1200D9F80050AA19424501D9A8EBF4
:109090000605C9F8005001E02468491E0029FBD1EB
:1090A0003E1A8846AE4215D817E000BF2044001D86
:1090B0000AEB0803BBF1000F324602D00146184606
:1090C00000E01946F8F780FA00202468AD1BB04490
:1090D000AF4201D92E4600E03E46002DE6D1BDE864
:1090E000F09F00002E2E5C2E2E5C2E2E5C2E2E5C11
:1090F0002E2E5C2E2E5C636F6D706F6E656E7473BA
:109100005C6C69627261726965735C6D656D6F62DA
:109110006A5C6E72665F6D656D6F626A2E630000D9
:1091200033B581B00546002409E00022694628468F
:1091300003F066F818B9009802F035FF641C02A924
:10914000284603F021FA0028EFD120463EBD70B535
:10915000144600230D4606461A4602F0F9FD8442E5
:1091600001D9002070BD22462946304602F014FE87
:10917000012070BD30B5024651B102F0DFFD002183
:10918000074C08E034F821301568AB4202D1116079
:10919000002030BD491C8142F4D3052030BD0000C1
:1091A000AC03002010B50C460021E160616003496A
:1091B000A160012102F018FE206010BD70190100AD
:1091C0002DE9FE43002416460D460C2780460094E8
:1091D000019423463A466946029402F0F3FE009851
:1091E00045F8040B019845F8040B029845F8040B68
:1091F000009800F00300012803D0022806D0346054
:1092000017E00098C0F38310840004E00098800DFC
:1092100006F0CBF904463B4622462946404602F07A
:10922000D1FE30680C34A04203D301203460BDE885
:10923000FE830020FBE770B58468006804F1140524
:10924000FCF7BAF9C1B22973208D6A890844B0FBD2
:10925000F2F302FB13035B1C2B80208D0844B0FB50
:10926000F2F35B1CAB80E08C0844B0FBF2F35B1CB8
:10927000EB80E08C0844B0FBF2F102FB1101491CC9
:109280006980284670BD10B531B1B2FBF3F403FB21
:1092900014241CB1092010BD0E2010BD0160002156
:1092A000416081608281C381084610BD70B50C4663
:1092B0000546F8F749F8002802D0218828680844B4
:1092C00070BD10B50A8849888A4203D1F8F77EF844
:1092D000012010BD002010BD70B50C460546F8F702
:1092E00058F8002802D061882868084470BD10B57D
:1092F0000A8849888A4203D1F8F742F8012010BD54
:10930000002010BD002100F00FB8002100F017B8B8
:10931000012100F023B8012100F016B808B56A4613
:10932000F8F7A9F8009808BD08B56A46F8F789F873
:10933000009808BD08B56A46F8F79DF808BD08B55D
:109340006A46F8F77EF808BD08B56A46F8F76CF883
:1093500008BD08B56A46F8F75BF808BD08B56A4667
:10936000F8F762F8009808BD08B56A46F8F790F873
:10937000009808BD70B5040003D113A1FE20FAF7D0
:1093800011FB00252846FAF729FA2068626801686F
:10939000914214D9491E01600D781CB919A1C2204F
:1093A000FAF700FB208BE16805FB00152068217AA5
:1093B0000278891A0279C9B28A4200D2017100206A
:1093C000FAF73AFA284670BD2E2E5C2E2E5C2E2E11
:1093D0005C2E2E5C2E2E5C2E2E5C636F6D706F6E7D
:1093E000656E74735C6C69627261726965735C62EC
:1093F000616C6C6F635C6E72665F62616C6C6F63F4
:109400002E6300002E2E5C2E2E5C2E2E5C2E2E5CEB
:109410002E2E5C2E2E5C636F6D706F6E656E747396
:109420005C6C69627261726965735C62616C6C6FBD
:10943000635C6E72665F62616C6C6F632E630000CA
:1094400070B50C46050004D110A140F22110FAF7C6
:10945000A9FA24B90DA14FF49170FAF7A3FA0020EC
:10946000FAF7BCF91DB91849CF20FAF79BFAE8685A
:109470002A68211A288BB1FBF0F11068431C136095
:109480000170BDE870400020FAF7D6B92E2E5C2E90
:109490002E5C2E2E5C2E2E5C2E2E5C2E2E5C636F90
:1094A0006D706F6E656E74735C6C69627261726907
:1094B00065735C62616C6C6F635C6E72665F626147
:1094C0006C6C6F632E6300000494000010B5040000
:1094D00002D0206830B901E00E2010BD17A1D920BC
:1094E000FAF760FA606818B914A1DA20FAF75AFAA4
:1094F000A06818B911A1DB20FAF754FAE06818B98E
:109500000EA1DC20FAF74EFA208B18B90BA1DD2052
:10951000FAF748FA207A61682268401AC0B21160EE
:1095200004E0226811684B1C13600870401EC0B232
:10953000F7D221680020087110BD00002E2E5C2E8D
:109540002E5C2E2E5C2E2E5C2E2E5C2E2E5C636FDF
:109550006D706F6E656E74735C6C69627261726956
:1095600065735C62616C6C6F635C6E72665F626196
:109570006C6C6F632E6300002DE9F04F81468068AC
:1095800089B0D0F85403C0F3400038B109B0484660
:10959000BDE8F04F0022114600F0F0BC012907D9C8
:1095A00009B04846BDE8F04F24A2022100F088BC73
:1095B00027492848081A1C21B0FBF1F8002538E09B
:1095C0002448C5EBC50110EB81044FF0000AB4F844
:1095D00018B0D4E90101A1EB000604D11EA140F2AC
:1095E0001F10FAF7DFF92068077924B91AA140F2B1
:1095F0002F10FAF7D7F92068217A0078081AC0B23C
:10960000642117FB01F1B1FBF6F2642110FB01F1BB
:10961000B1FBF6F16369CDE90210CDE90462CDE951
:109620000676CDE900BA1B4A0821484600F048FCFE
:109630006D1C4545C4D309B0BDE8F08F426164207C
:10964000617267756D656E7420636F756E7400006E
:109650002C3E0100D83D01002E2E5C2E2E5C2E2EBD
:109660005C2E2E5C2E2E5C2E2E5C636F6D706F6EEA
:10967000656E74735C6C69627261726965735C6259
:10968000616C6C6F635C6E72665F62616C6C6F6361
:109690002E6800008C2B0100C20800F00703012097
:1096A000895C98400840704710B5C20800F0070375
:1096B000885C01249C402043885410BD2DE9FF5F45
:1096C0008B46164814499A46091A0F09914652F8D2
:1096D000046C0025804607E008EB05143046A168BD
:1096E000F7F7C7FF18B16D1CBD42F5D30BE02100A1
:1096F00009D0009804B04B465A46D446BDE8F04F16
:109700005DF804EB6047009804B03346BDE8F05FB5
:1097100003A2022100F0D4BBC03C0100703C010058
:10972000496E76616C6964206261636B656E643A50
:109730002025730D0A00000070B515468268D2F826
:109740005443C4F3400424B11A46294600F016FCE1
:1097500005E031B1536804A2022100F0B1FB012001
:1097600070BD002070BD000025733A2077726F6EC7
:109770006720706172616D6574657220636F756ECC
:10978000740A000070B50D46040004D122A140F611
:109790003A50FAF707F9A06818B1606808B1206874
:1097A00020B91DA140F63B50FAF7FCF8022D0CD170
:1097B000A068D0F85403C0F3400030B12046BDE8A3
:1097C00070400022114600F0D9BB40F643551CB949
:1097D00011A12846FAF7E6F8206918B90EA1284623
:1097E000FAF7E0F81A4A1BA1206901F085F840F663
:1097F00044551CB908A12846FAF7D4F8206918B9CD
:1098000005A12846FAF7CEF82069BDE87040104A55
:1098100010A10E3201F070B82E2E5C2E2E5C2E2E72
:109820005C2E2E5C2E2E5C2E2E5C636F6D706F6E28
:10983000656E74735C6C69627261726965735C6396
:109840006C695C6E72665F636C692E630000000079
:10985000111601002573000070B50D46040004D1F7
:1098600013A140F64950FAF79DF8A06818B1606856
:1098700008B1206820B90EA140F64A50FAF792F8D4
:10988000012D07D0022D0CD1A068D0F85403C0F3ED
:10989000400030B12046BDE870400022114600F083
:1098A0006DBB2046BDE870400FA2022100F008BB4E
:1098B0002E2E5C2E2E5C2E2E5C2E2E5C2E2E5C2EE2
:1098C0002E5C636F6D706F6E656E74735C6C696235
:1098D0007261726965735C636C695C6E72665F630A
:1098E0006C692E6300000000506C65617365207325
:1098F000706563696679206120737562636F6D6D51
:10990000616E642E0A0000001CB5012905D00229F1
:109910000BD014D94FF0010112E002B04FF0000259
:10992000BDE81040114600F029BB536808A1CDE9FD
:10993000001313680CA2022100F0C2FA1CBD002122
:1099400002B00023BDE810401A46FFF7F5BE000044
:1099500020756E6B6E6F776E20706172616D6574CD
:1099600065723A200000000025733A257325730ABA
:109970000000000010B50446012901D0012100E0DB
:10998000002100231A46FFF7D7FE002809D1A1685D
:10999000C1F84403E06840680068BDE8104002F088
:1099A00073BD10BD3EB50546012901D0012100E07F
:1099B000002100231A46FFF7BFFE002818D1E868EF
:1099C00040680468204602F035FDC0B2642110FBF7
:1099D00001F2A168B2FBF1F2D2B20092CDE901012D
:1099E000A86804A20021D0F84433284600F068FAA1
:1099F0003EBD00004C6F7374206C6F67733A202576
:109A0000750A4D6178206C6F6720717565756520EA
:109A10007574696C697A6174696F6E3A2025752571
:109A200025205B25752F25755D0A00007CB5154640
:109A30000E46040004D118A140F66A50F9F7B2FFAF
:109A4000A06818B1606808B1206820B912A140F67A
:109A50006B50F9F7A7FF012E03D0022E09D0012188
:109A600008E002B02046BDE870400022114600F038
:109A700085BA002100231A462046FFF75DFE002824
:109A800009D1696812A0CDE9000117A20221204680
:109A90002B6800F015FA7CBD2E2E5C2E2E5C2E2E2F
:109AA0005C2E2E5C2E2E5C2E2E5C636F6D706F6EA6
:109AB000656E74735C6C69627261726965735C6314
:109AC0006C695C6E72665F636C692E6300000000F7
:109AD00020756E6B6E6F776E20706172616D65744C
:109AE00065723A200000000025733A257325730A39
:109AF0000000000010B50446012901D0012100E05A
:109B0000002100231A46FFF717FE002806D1A0689F
:109B1000D0F8541321F00401C0F8541310BD10B54F
:109B20000446012901D0012100E0002100231A464A
:109B3000FFF702FE002806D1A068D0F8541341F0C8
:109B40000401C0F8541310BD7CB514460D460646FA
:109B5000022901D9012100E0002100231A46FFF764
:109B6000EBFD002811D1022D05D03046FBF760F93E
:109B700060B10BA30BE061680AA0CDE900010FA260
:109B800002213046236800F09BF97CBD0EA302B091
:109B90003046BDE870400DA2002100F091B90000F0
:109BA0006F6E000020756E6B6E6F776E2070617245
:109BB000616D657465723A200000000025733A25D6
:109BC0007325730A000000006F6666004563686FC6
:109BD000207374617475733A2025730A00000000C5
:109BE00010B50446012901D0012100E00021002325
:109BF0001A46FFF7A1FD002806D1A068D0F854133B
:109C000021F00801C0F8541310BD10B50446012915
:109C100001D0012100E0002100231A46FFF78CFD4E
:109C2000002806D1A068D0F8541341F00801C0F80C
:109C3000541310BD7FB50D46040004D123A140F696
:109C4000A250F9F7AFFEA06818B1606808B12068AB
:109C500020B91EA140F6A350F9F7A4FE012D01D0B2
:109C6000012100E0002100231A462046FFF764FD91
:109C7000002829D1A0680026D0F84C5305B301E094
:109C8000082E1DD200230A2201A9284602F09AF9C3
:109C9000BDF80C20A1680A23284601F5D671521C94
:109CA00002F090F9A068334600F5D6700090029D4E
:109CB000761C14A20021204600F002F9002DDFD10D
:109CC000A168002081F8AC017FBD00002E2E5C2E23
:109CD0002E5C2E2E5C2E2E5C2E2E5C2E2E5C636F48
:109CE0006D706F6E656E74735C6C696272617269BF
:109CF00065735C636C695C6E72665F636C692E632E
:109D0000000000005B2533645D2025730A0000001D
:109D10007CB515460E46040004D120A140F6036030
:109D2000F9F740FEA06818B1606808B1206820B952
:109D30001AA140F60460F9F735FE012E03D0022E79
:109D400018D9012117E0A168204601F11C021E313B
:109D500006F084F800281FD0A16850201DA2C883F7
:109D6000A1681820888302B02046BDE87040042115
:109D700000F0A6B8002100231A462046FFF7DCFCBD
:109D8000002809D1696822A0CDE9000126A202219C
:109D900020462B6800F094F87CBD00002E2E5C2E2F
:109DA0002E5C2E2E5C2E2E5C2E2E5C2E2E5C636F77
:109DB0006D706F6E656E74735C6C696272617269EE
:109DC00065735C636C695C6E72665F636C692E635D
:109DD000000000004E6F20726573706F6E73652017
:109DE00066726F6D20746865207465726D696E614E
:109DF0006C2C20617373756D656420383078323453
:109E00002073637265656E2073697A650A000000CD
:109E100020756E6B6E6F776E20706172616D657408
:109E200065723A200000000025733A257325730AF5
:109E30000000000070B50446012901D0012100E0B6
:109E4000002100231A46FFF777FC002817D140F6BF
:109E5000FC551CB90AA12846F9F7A4FD206918B9D8
:109E600007A12846F9F79EFD134A14A1206900F0C6
:109E700043FDA1685020C883A1681820888370BD65
:109E80002E2E5C2E2E5C2E2E5C2E2E5C2E2E5C2E0C
:109E90002E5C636F6D706F6E656E74735C6C69625F
:109EA0007261726965735C636C695C6E72665F6334
:109EB0006C692E6300000000361601002573000057
:109EC0000FB4F8B5044608980E4620B91DA140F617
:109ED0003930F9F767FD24B91AA140F63A30F9F79D
:109EE00061FDA06818B1606808B1206820B915A1AB
:109EF00040F63B30F9F756FD09A80090A068D0F86D
:109F00005413490718D590F82210B14214D0458C4B
:109F10003146204606F0CAFE6A462069089900F0DC
:109F200057FDE9B2204606F0C1FE290A204606F098
:109F30009DFEF8BC5DF814FB6A462069089900F0A4
:109F400047FDF6E72E2E5C2E2E5C2E2E5C2E2E5C10
:109F50002E2E5C2E2E5C636F6D706F6E656E74734B
:109F60005C6C69627261726965735C636C695C6E7A
:109F700072665F636C692E63000000002DE9F04F8C
:109F800089B090460D46040004D18EA140F6BA3047
:109F9000F9F708FDA06818B1606808B1206820B919
:109FA00088A140F6BB30F9F7FDFC9448FBF704FBB1
:109FB000064692484638FBF7FFFA301A1FFA80F936
:109FC0008E488FA22F380090A06808214368204651
:109FD000FFF776FFA0684068FBF7EEFA0646874871
:109FE0002F38FBF7E9FA304482B2A0680023816879
:109FF0002046FDF71FFE84A200212046FFF760FFE8
:10A00000B8F1000F21D005B300261CE006EB460A8C
:10A0100005EB8A0BDBF80400FBF7CEFA074655F890
:10A020002A00FBF7C9FA391849450BD9DBF80400B7
:10A03000FBF7C2FA074655F82A00FBF7BDFA384489
:10A040001FFA80F9761C4645E0D36C484638FBF78A
:10A05000B3FA4844801C1FFA80F9684800904B46C8
:10A060006CA208212046FFF72BFF09F1030087B2FD
:10A07000079000233A4669A12046FDF7DBFD002D3D
:10A0800051D000264DE000BF06EB460A05EB8A0BD7
:10A0900055F82A00DBF8043063B348B3574964A28B
:10A0A0004639CDE9001008212046FFF709FF09F1E4
:10A0B00002000090DBF80400FBF77EFA074655F833
:10A0C0002A00FBF779FA07444C484638FBF774FA44
:10A0D00039180098401A801E81B22046FCF7CCFD4A
:10A0E0003A225649206900F007FC0098401C0AE01B
:10A0F000009301E040B100904B4646A20821204663
:10A10000FFF7DEFE079887B2DBF8081029B10023BD
:10A110003A462046FDF78EFD02E02046FCF7D6FCCD
:10A12000761C4645B0D3A068C068002847D0814659
:10A1300000200646054603AF02902A466D1C02AB7E
:10A14000012148460097FCF72DF8029850B10068AD
:10A15000FBF732FAB042F0D902980068FBF72CFA0C
:10A1600086B2EAE7012D2AD035A200212046FFF76A
:10A17000A7FE0025B8462A466D1C02AB01214846C1
:10A18000CDF80080FCF70EF80298002817D0B11C1B
:10A190008FB2006800903B461EA208212046FFF7C0
:10A1A0008FFE0298FF1CBAB2416821B100232046FD
:10A1B000FDF740FDDFE72046FCF788FCDBE709B050
:10A1C000BDE8F08F2E2E5C2E2E5C2E2E5C2E2E5C8B
:10A1D0002E2E5C2E2E5C636F6D706F6E656E7473C9
:10A1E0005C6C69627261726965735C636C695C6EF8
:10A1F00072665F636C692E63000000003C1601000C
:10A2000025732573000000004F7074696F6E733AF8
:10A210000A0000002020252D2A733A0053686F772A
:10A2200020636F6D6D616E642068656C702E000038
:10A230002020257325732573000000008847000047
:10A24000537562636F6D6D616E64733A0A0000004E
:10A250008068D0F85403C0F3400070478068D0F89D
:10A260005403C0F3400070478068D0F85403C0F333
:10A27000400070472DE9F0411E46DDF81880154674
:10A280000F46040004D10EA140F67C20F9F78AFBAA
:10A290002A463946204600F02FF805000DD166B158
:10A2A0004146E06801F02CF8002802DA0420BDE8FD
:10A2B000F081E0680121C06841712846F7E700009D
:10A2C0002E2E5C2E2E5C2E2E5C2E2E5C2E2E5C2EC8
:10A2D0002E5C636F6D706F6E656E74735C6C69621B
:10A2E0007261726965735C636C695C6E72665F63F0
:10A2F0006C692E63000000002DE9F04715460E46FC
:10A30000040004D13EA140F61F20F9F74BFBA068E2
:10A3100018B1606808B1206820B939A14FF42260F3
:10A32000F9F740FBE0682346434A40688460606870
:10A3300001680F683146B84700285ED1606920B9CE
:10A340002FA140F62F20F9F72DFB606901F029FEBF
:10A35000002852D1A168C1F84803A168C1F84C0394
:10A360004FF45671A068F7F756F9A068D0F8541367
:10A3700041F02001C0F85413A068D0F8541365F3DD
:10A380008201C0F85413A068D0F8541341F00801BA
:10A39000C0F85413A1680120284F0870A16850200C
:10A3A00040F64B29C883A1681820002488832448DC
:10A3B000244940F64C2A0D1A804612E018EBC406D8
:10A3C00003D10FA14846F9F7EDFA7068006818B993
:10A3D0000BA15046F9F7E6FA7068006847F82400C8
:10A3E000641CB4EBD50FE9D3072D05D9E908164B4A
:10A3F00004223846F7F79AF80020BDE8F0870000FD
:10A400002E2E5C2E2E5C2E2E5C2E2E5C2E2E5C2E86
:10A410002E5C636F6D706F6E656E74735C6C6962D9
:10A420007261726965735C636C695C6E72665F63AE
:10A430006C692E6300000000F55800003C0300200A
:10A44000E03B0100703C0100A1FD00000023FBF790
:10A4500089BA000010B5040004D122A140F60330EF
:10A46000F9F7A0FAA06818B1606808B1206820B9AF
:10A470001CA140F60430F9F795FAA068102100F508
:10A480005570FEF76BFFA0680078F8B101281DD069
:10A4900002281BD12046FAF7A7FE00212046FAF732
:10A4A000D9FC98B11DA2032120462368FFF708FDBF
:10A4B0002046FAF7BDFC48B1A36818A2082120463F
:10A4C0002C33FFF7FDFC2046FCF7A0FB206900F0D1
:10A4D00053FAA068BDE810406FF0100100F5557008
:10A4E000FEF722BF2E2E5C2E2E5C2E2E5C2E2E5CB6
:10A4F0002E2E5C2E2E5C636F6D706F6E656E7473A6
:10A500005C6C69627261726965735C636C695C6ED4
:10A5100072665F636C692E630000000025730000A3
:10A5200070B5040004D117A140F6D220F9F73AFA29
:10A53000A06818B1606808B1206820B911A140F680
:10A54000D320F9F72FFAA0680078012801D008205D
:10A5500070BD606801688A680021904705000FD1CE
:10A560000821204606F0A2FB0121204606F07EFBD2
:10A5700012A1206900F0C0F902212046FBF708F87B
:10A58000284670BD2E2E5C2E2E5C2E2E5C2E2E5C50
:10A590002E2E5C2E2E5C636F6D706F6E656E747305
:10A5A0005C6C69627261726965735C636C695C6E34
:10A5B00072665F636C692E63000000000A0A000087
:10A5C00000F180400068002800D00120704708B5E5
:10A5D00000F18040002101600068009008BD00008B
:10A5E00010B5104C207820B90FA140F22110F9F7D6
:10A5F000D9F9606820B90CA14FF49170F9F7D2F93C
:10A600000020F9F7EBF86068401E6060606818B9D8
:10A6100002F0DCFC00206070BDE810400020F9F77B
:10A620000BB90000541100202E2E5C2E2E5C2E2E15
:10A630005C2E2E5C2E2E5C2E2E5C696E746567720D
:10A640006174696F6E5C6E7266785C6C656761637D
:10A65000795C6E72665F6472765F636C6F636B2E9B
:10A660006300000070B5184C0546207820B917A18A
:10A670004FF48070F9F796F9607838B115B16968D0
:10A68000002088470020F9F7A9F80CE00020F9F72E
:10A69000A5F825B10C4829460830FDF797FF6068FA
:10A6A00008B902F063FC6068401C60600020F9F7A4
:10A6B000C3F86068002806D1BDE8704003A14FF4DC
:10A6C0008E70F9F76FB970BD541100202E2E5C2EDC
:10A6D0002E5C2E2E5C2E2E5C2E2E5C2E2E5C696E39
:10A6E000746567726174696F6E5C6E7266785C6CBB
:10A6F00065676163795C6E72665F6472765F636CD6
:10A700006F636B2E6300000070B50A4C207808B1AF
:10A7100085250CE00020A06060602061E0600648B4
:10A7200002F08CFC054602F0EFFB01202070284669
:10A7300070BD000054110020555A000001480078F7
:10A74000704700005411002070B5174C0546207862
:10A7500018B916A1C320F9F725F9A07838B115B1B9
:10A760006968012088470020F9F738F80CE00020DC
:10A77000F9F734F825B10C4829461030FDF726FFCB
:10A78000E06808B902F0B8FCE068401CE060002016
:10A79000F9F752F8E068002805D1BDE8704003A140
:10A7A000DF20F9F7FFB870BD541100202E2E5C2E6B
:10A7B0002E5C2E2E5C2E2E5C2E2E5C2E2E5C696E58
:10A7C000746567726174696F6E5C6E7266785C6CDA
:10A7D00065676163795C6E72665F6472765F636CF5
:10A7E0006F636B2E6300000010B5074C217809B130
:10A7F000852010BD00B9054802F0E2FC0028F8D120
:10A800000121217010BD0000D80000207C11010042
:10A8100010B5044600F007F8204602F0A7FD02F04C
:10A820009EFD002010BD10B502F092FDBDE8104065
:10A8300002F0A6BD2DE9F041054604781C4888B019
:10A840000F4640F824200869194916460831012CA2
:10A8500041F8240005D1787F18B916A15020F9F7E6
:10A86000A1F8DFF84C80797FA8F10408202208F8CD
:10A87000041039466846F6F7A7FE0494297818F8BC
:10A88000010050B10EB11A4A00E000226946281DAD
:10A8900002F0AEFF08B0BDE8F0810EB1154A00E04D
:10A8A0000022694605F10C0002F052FEF2E70000BA
:10A8B000E00000202E2E5C2E2E5C2E2E5C2E2E5CB8
:10A8C0002E2E5C2E2E5C696E746567726174696FE2
:10A8D0006E5C6E7266785C6C65676163795C6E72E3
:10A8E000665F6472765F756172742E6300000000AB
:10A8F0008D040100D10201000FB438B5040003D16A
:10A9000010A11C20F9F74EF8606918B90DA11D209F
:10A91000F9F748F8206818B90AA11E20F9F742F89B
:10A92000606818B907A11F20F9F73CF805990029BC
:10A9300005D006A800906A46204600F049F838BCC9
:10A940005DF814FB2E2E5C2E2E5C2E2E5C2E2E5CC3
:10A950002E2E5C2E2E5C65787465726E616C5C6662
:10A960007072696E74665C6E72665F667072696E34
:10A9700074662E630000000010B5040003D107A127
:10A980000B20F9F70FF8A268002A05D0D4E90403D8
:10A99000216898470020A06010BD00002E2E5C2E7C
:10A9A0002E5C2E2E5C2E2E5C2E2E5C2E2E5C657860
:10A9B0007465726E616C5C667072696E74665C6EF2
:10A9C00072665F667072696E74662E6300000000C6
:10A9D0002DE9FC4791460C465FEA000804D183A1AB
:10A9E0004FF4A270F8F7DEFFD8F8140020B97FA169
:10A9F0004FF4A370F8F7D6FFD8F8000020B97BA178
:10AA000040F24710F8F7CEFFD8F8040020B977A13C
:10AA10004FF4A470F8F7C6FF002C76D014F8011B91
:10AA200039B125290ED04046F9F738F820780028AA
:10AA3000F4D198F80C00002867D04046BDE8FC47E8
:10AA4000FFF79ABF0020012221782B291BD02D2946
:10AA500002D0302908D102E040F0010001E040F0CE
:10AA60000200641C002AEFD100252A290ED021788B
:10AA7000A1F130020A2A11D205EB850201EB420551
:10AA8000641C303DF1E740F00400EAE7D9F800101B
:10AA90000B1DC9F800300968641C0D44217800239F
:10AAA0002E290BD114F8011FA1F130020A2A05D278
:10AAB00003EB830201EB4203303BF3E76C290DD03B
:10AAC00068290BD0692921D00BDC252918D05829F9
:10AAD00031D063290ED0642915D117E014F8011F75
:10AAE000ECE7702969D0732932D075291BD07829F9
:10AAF00009D120E0D9F80000011DC9F80010017843
:10AB00004046F8F7CBFF641C90E76CE0D9F80010E2
:10AB10000A1DC9F800200968CDE900500A22404604
:10AB2000FDF722FCEFE7D9F800100A1DC9F8002054
:10AB300009680A2206E0D9F800100A1DC9F80020A9
:10AB400009681022CDE90050404605F039FDDAE7EA
:10AB5000D9F8001000270A1DC9F800200E68C007A8
:10AB600005D112E04046761C7F1CF8F797FF31783C
:10AB70000029F7D104E0202140466D1EF8F78EFF32
:10AB8000BD42C0D9002DF6D1BDE74EB13046F6F733
:10AB900069FD074604E0202140466D1EF8F77EFF60
:10ABA000BD4206D9002DF6D103E04046761CF8F7E9
:10ABB00075FF31780029F8D1A5E7D9F80000011D0B
:10ABC000C9F80010056830214046F8F767FF782182
:10ABD0004046F8F763FF08200021CDE90001034655
:10ABE00010222946B0E7BDE8FC8700002E2E5C2E1F
:10ABF0002E5C2E2E5C2E2E5C2E2E5C2E2E5C65780E
:10AC00007465726E616C5C667072696E74665C6E9F
:10AC100072665F667072696E74665F666F726D6190
:10AC2000742E63002DE9F84F8946050032483349F8
:10AC3000304FA0EB01004FEAD0004FF0010101EBD3
:10AC4000004478889A46164626D0296800292FD0D5
:10AC5000002E38D06A6849464FF010081268531E1B
:10AC600013EA090F10D172432846F7F7AAFB002810
:10AC700034D0286853463246046901B04946284614
:10AC8000A446BDE8F04F6047002831D020461C4B59
:10AC90001CA2CDF8008028E038B10E20009020469C
:10ACA000174B22A223A100F070FF0E20BDE8F88F01
:10ACB00038B1082000902046114B29A21DA100F0B8
:10ACC00064FF0820F2E738B10920009020460C4BC1
:10ACD00026A218A100F059FF0920E7E7788838B1CB
:10ACE000074B234A2046CDF8008012A100F04DFF0B
:10ACF0001020DBE71C040020A03D0100C03C010047
:10AD000001170100616464725F69735F7061676558
:10AD10005F616C69676E656428705F66732C207074
:10AD20006167655F6164647229000000705F66732B
:10AD300000000000257320636865636B206661690D
:10AD40006C656420696E20257328292077697468F2
:10AD50002076616C756520307825782E0000000023
:10AD6000705F66732D3E705F617069006C656E0088
:10AD70005C2F0100F8B503001448154E124CA0EBEF
:10AD800006004FEAD0004FF0010664884FF00E0530
:10AD900006EB004009D069B119600C6801B0A44607
:10ADA000BDE8F04011461846604754B1094B0AA26D
:10ADB000009503E02CB1074B09A200950AA100F011
:10ADC000E4FE0E20F8BD00001C040020A03D0100A0
:10ADD000C03C0100B6160100705F66730000000001
:10ADE000705F617069000000257320636865636BA4
:10ADF000206661696C656420696E202573282920AE
:10AE0000776974682076616C756520307825782EB6
:10AE10000000000018B102680AB152691047002012
:10AE2000704700002DE9F84F914605004348444A19
:10AE3000414EA0EB02004FEAD0004FF0010202EBBE
:10AE400000448B467088DDF828A098464FF00E012C
:10AE50001CD0B9F1000F1FD02968002926D0092184
:10AE6000B8F1000F2DD06A685368B8FBF3F703FB05
:10AE70001782002A2CD030B1324B204632A20091EA
:10AE80003CA100F082FE0920BDE8F88F60B12046A9
:10AE90002C4B43A2009104E030B12A4B204642A241
:10AEA000009134A100F071FE0E20EDE738B10820CA
:10AEB00000902046234B3EA22EA100F066FE082003
:10AEC000E2E70028DFD020461E4B3CA20091D7E7E6
:10AED0005846F7F770FA102798B14846F7F76BFA1B
:10AEE000B8B1424659462846F7F76BFAD8B1CDF8C3
:10AEF00000A0286843464A46C46859462846A047E9
:10AF0000C2E77088002815D020460E4B2CA200976F
:10AF100005E0708870B10B4B20462FA2009715A159
:10AF200000F033FE06E0708820B12046054B33A2C6
:10AF30000097F4E71020A7E71C040020A03D0100C3
:10AF4000C03C0100EE16010021286C656E20252012
:10AF5000705F66732D3E705F666C6173685F696ECB
:10AF6000666F2D3E70726F6772616D5F756E69748A
:10AF700029000000257320636865636B20666169A2
:10AF80006C656420696E20257328292077697468B0
:10AF90002076616C756520307825782E00000000E1
:10AFA000705F667300000000705F737263000000E2
:10AFB000705F66732D3E705F617069006C656E0036
:10AFC000616464725F69735F616C69676E65643345
:10AFD0003228646573742900616464725F69735F09
:10AFE000616C69676E65643332282875696E7433E5
:10AFF000325F7429705F7372632900006164647248
:10B000005F69735F77697468696E5F626F756E649C
:10B010007328705F66732C20646573742C206C65D4
:10B020006E2900002DE9FF411C46DDE90A7815462E
:10B030000E46684600F0A8F846EA450141EA840158
:10B0400041EA072242EA0841009A00EB8200C0F878
:10B050000017BDE8FF812DE9FF411C46DDE90A78B4
:10B0600015460E46684600F0BFF846EA450141EA3B
:10B07000840141EA072242EA0841009A00EB82007B
:10B08000C0F80017BDE8FF811CB5002100910B46F8
:10B0900001220191FFF7C6FF1CBD1CB500210091E4
:10B0A0000B4601220191FFF7D6FF1CBD1CB5002203
:10B0B0000B46009211460192FFF7B4FF1CBD1CB570
:10B0C00000220B46009211460192FFF7C4FF1CBDFF
:10B0D0001CB5002100910B46012201911146FFF79A
:10B0E000A1FF1CBD1CB5002100910B46012201915E
:10B0F0001146FFF7B0FF1CBD13B50C46684600F0C3
:10B1000013F8009900EB8101D1F8002722F44032B6
:10B11000C1F80027009900EB8100D0F8001741EA40
:10B120000441C0F800171CBD10B504460068302863
:10B1300004D308A14FF4E070F8F734FC206820280D
:10B1400002D24FF0A04010BD00F01F0020600D485B
:10B1500010BD00002E2E5C2E2E5C2E2E5C2E2E5C42
:10B160002E2E5C2E2E5C6D6F64756C65735C6E723A
:10B1700066785C68616C2F6E72665F6770696F2EAF
:10B18000680000000003005010B504460068302835
:10B1900004D308A14FF4E070F8F704FC20682028DD
:10B1A00002D24FF0A04010BD00F01F0020600D48FB
:10B1B00010BD00002E2E5C2E2E5C2E2E5C2E2E5CE2
:10B1C0002E2E5C2E2E5C6D6F64756C65735C6E72DA
:10B1D00066785C68616C2F6E72665F6770696F2E4F
:10B1E000680000000003005010B5044600683028D5
:10B1F00004D308A14FF4E070F8F7D4FB20682028AE
:10B2000002D24FF0A04010BD00F01F0020600D489A
:10B2100010BD00002E2E5C2E2E5C2E2E5C2E2E5C81
:10B220002E2E5C2E2E5C6D6F64756C65735C6E7279
:10B2300066785C68616C2F6E72665F6770696F2EEE
:10B24000680000000003005001B56846FFF79CFF4E
:10B25000009A01219140C0F8081508BD01B5684663
:10B26000FFF7C2FF009A01219140C0F8081508BD00
:10B270007CB5154604460C4A6618022ED2E9000237
:10B28000CDE9000204D909A14FF43C70F8F78AFB1C
:10B29000694605E051F82400D0F81005641C01C58A
:10B2A000A642F7D87CBD0000801101002E2E5C2E36
:10B2B0002E5C2E2E5C2E2E5C2E2E5C2E2E5C6D6F48
:10B2C00064756C65735C6E7266785C68616C2F6E19
:10B2D00072665F6770696F2E68000000034908B5E9
:10B2E0000844002101600068009008BD0060004033
:10B2F00002494058012800D00020704700600040FB
:10B300002DE9F041054620480E460024D0F81034BF
:10B3100019460AE0CA681179A14205D1641C0A2CB9
:10B32000F6DB4FF0FF342BE011680029F2D1611CED
:10B3300026D0E9680C71D0F8101459B1C968EA68D0
:10B3400009681160D0F81004C06805600027DFF8B4
:10B350003C8011E0C0F81054E96800200860F5E76F
:10B3600008EBC700C279B24200D33246E8683946DA
:10B37000007900F011FD7F1C00F0E0FCB842EFD82E
:10B380002046BDE8F0810000541B0020C03C0100B5
:10B3900038B5416800228C680868694600F030FFC3
:10B3A000002803D100212046F9F754FD38BD10B51F
:10B3B00040688468606801688A680121904718B114
:10B3C0000420A168087010BD0320FAE72DE9F341BD
:10B3D0004468A668B068007804281ED0032807D007
:10B3E000002501A9206801F0CFF885F0010709E0E8
:10B3F0000125F6E739463046F9F72CFD01A920680A
:10B4000001F0C2F80028F5D1019800F0C6FD002D2A
:10B4100003D000213046F9F71DFDBDE8FC81000096
:10B420000148806803F05ABD6C02002038B5002244
:10B4300016491748FFF79EFC164C012108B12170F0
:10B4400038BD0220207014480025C0F88011012169
:10B450006068FDF7D1FA1149486A0A8DCB6A61F339
:10B460009F200F49086090B2C1E901030A46009588
:10B470000C2307482169FFF7D5FC20690C302061B7
:10B48000A068BDE838400121FDF7B6BA20170100D9
:10B49000980300206C02002004E000E0A4180100E2
:10B4A0006C18002070B50B4C0D46207801280FD089
:10B4B000084600F072FD2946A068FDF731FE2078AD
:10B4C000022805D1A068BDE870400121FDF794BABB
:10B4D00070BD00006C02002070B5074D01200023F4
:10B4E000287006480122010B09030C460448FFF7A7
:10B4F00099FB2C6170BD00006C020020BF4F010061
:10B50000980300203EB50F490B0B0F491B0303F6B0
:10B51000FF72C1E90332014600220B48FFF72AFC03
:10B5200004000DD10025009502AA01A9684600F08B
:10B530000FF80028F8D005480099016105702046F1
:10B540003EBD0000BF4F0100980300206C020020A8
:10B5500070B50D4601681646044611B91248010B34
:10B56000090312482160FFF755FC68B12068286084
:10B570000C3030602868006800F00301012905D014
:10B58000022907D0052070BD062070BDC0F38310CE
:10B59000800002E0800D04F008F821680C300844B7
:10B5A0002060002070BD0000BF4F01009803002004
:10B5B0000148406803F092BC6C0200207047000014
:10B5C00070B50E4C0D462078002815D1084600F0C5
:10B5D000E4FC29466068FDF7A3FDA1690844A06169
:10B5E00004F10C00FDF797FE002805D16068BDE866
:10B5F00070400021FDF700BA70BD00006C02002011
:10B60000F0B595B01C4615460F4608461A9E00F048
:10B61000C4FC182109A8F5F7FEFF0E96CDE90954E0
:10B6200000230C2203A9384600F0CCFC05980690B4
:10B63000BDF81000ADF81C00BDF81200ADF81E00FA
:10B6400001208DF8210003980C2600F0030001284A
:10B6500002D0022818D032E003983346850AC0F39E
:10B66000C2008DF8200003980FA9C0F38314A20034
:10B67000384600F0A7FC09A8009006AB22460FA9A7
:10B68000284600F0D5FB1AE00398840DC0F3C200F1
:10B690008DF82000082C01D2254600E0082533460D
:10B6A0002A460FA9384600F08DFC2E44641B09ABD6
:10B6B00006AA29460FA800F089FA002CEAD13846DC
:10B6C00000F071FC15B0F0BD70470000084810B5DF
:10B6D0000178084A515C19B1001D02F06FF902E0CF
:10B6E0000C3002F023F8BDE81040002004F00EBE3C
:10B6F000A8020020DC00002008B5034A0092402385
:10B70000024AFFF77DFF08BDB9F50000EC180020E4
:10B710000A4A012902EBC00007D0022907D00329F9
:10B7200007D0042907D0002070470220704704206A
:10B73000704700797047407970470000C03C0100B5
:10B7400010B588B00024039404940594069406ABC5
:10B7500003AA43F2274141F26E000794FCF778F800
:10B7600020B10A2815D0032008B010BD019401A90A
:10B7700003A80294FCF774F80028F5D10D480E498F
:10B7800002468A1A0299F5F71FFF03A8FCF740F852
:10B79000EAE70A484088022809D309480949401ABB
:10B7A000C008022101EB004007A100F0DBF90520F1
:10B7B000DAE7000038040020C4040020340400202C
:10B7C000D03D0100C03C01004C6F6767657220638B
:10B7D0006F6E66696775726174696F6E2066696CF9
:10B7E00065206E6F7420666F756E642E0000000019
:10B7F00070B58AB000202049029000900190079017
:10B800000890D1E90701CDE904011C481C4907ABA8
:10B81000401A800806906A4643F2274141F26E00C2
:10B82000FCF716F81849194A164E891AC908032256
:10B8300002EB014428B10A280FD003250AB028469C
:10B8400070BD04A96846FCF72FF8054670880328E8
:10B85000F4D320462A460EA10AE004A96846FCF764
:10B860002AF8054670880328E8D320462A4615A101
:10B8700000F07CF9E2E7000070190100C404002028
:10B880003804002034040020D03D0100C03C0100F9
:10B890004C6F6767657220636F6E6669677572616A
:10B8A00074696F6E2066696C65207570646174657B
:10B8B00064207769746820726573756C743A2564C6
:10B8C000000000004C6F6767657220636F6E6669E9
:10B8D0006775726174696F6E2066696C6520777236
:10B8E000697474656E207769746820726573756C0D
:10B8F000743A2564000000002DE9FF5FF8F7E6F8D0
:10B9000018B1002004B0BDE8F09F8B4C0020C4F8B3
:10B910001804BFF34F8F60680090A5684FF00009CE
:10B92000284004EB80000BE0D4F8180470B92168BB
:10B930000098814201D86160E3E7284004EB800071
:10B940000C306946FCF712FE0028EDD1002001AB57
:10B95000A046009901EA050208EB8202491CD26860
:10B9600043F82020401C00910328F2D3019800F0F6
:10B970000300022802D0012850D0BEE00198A02286
:10B98000810D8A46B2EB905F00D8A0210C4664F38B
:10B990009F50C0F3C20701900C31684800F0B4FA20
:10B9A0000600EAD000F0F9FA4B460C2201A9304615
:10B9B00000F036FB009909F10C0B2940681A800051
:10B9C000001D844223D95C4D0C3530B1C2B208EB66
:10B9D0008101201A91460C3104E02946E2B200258B
:10B9E00091462846C4B25B46304600F019FB0BEB8B
:10B9F00009032DB1224629464FEA060000F010FB4C
:10BA000000990AF1030001EB900000903DE008EB83
:10BA100081015B46224630460C31EFE70198C0F3C6
:10BA20008310062800D30620019960F38911C1F321
:10BA30008310C1F3C207C01C019181003F4800F090
:10BA400063FA060059D000F0A8FA4B460C2201A96F
:10BA5000304600F0E5FA09F10C0900240FE00098E7
:10BA60004B4600EA0501401C08EB810100900422CE
:10BA700030460C3100F0D4FA09F10409641C019835
:10BA8000C0F38310A042EAD8B6B3D8F81044D8F86F
:10BA900018044546F8B1304600F085FA46E0E06803
:10BAA0004179012915D10179BDF80800244A52F8DD
:10BAB000200001EB4102072191400840D040052FB2
:10BAC00000D10327B84204D32268204631461268C9
:10BAD0009047E0680468002CE1D1304600F063FA3A
:10BAE0000020F7F77BFED5F8180408B900986860C5
:10BAF0000020F7F7A1FE19E0FFE7D8F8104405E0B1
:10BB00002168204689688847E0680468002CF7D1DE
:10BB10000C484088022809D30B480C49401AC00839
:10BB2000022101EB00400AA100F01CF8F7F7CEFF5C
:10BB300080F00100E6E60000541B0020103E0100EA
:10BB40003804002034040020D03D0100C03C010036
:10BB50004261636B656E647320666C7573686564BF
:10BB60000000000000231A4604F098B808B501232D
:10BB700000926A4604F092F808BD1CB5CDE9002396
:10BB800002236A4604F08AF81CBD3EB5069C8DE887
:10BB90001C0003236A4604F081F83EBD7FB5DDE951
:10BBA00008458DE83C0004236A4604F077F87FBD21
:10BBB00070B586B00DF1280C9CE870008DE87C0013
:10BBC00005236A4604F06AF806B070BD2DE9F04717
:10BBD0000E4680461C469246082940D894F80C90A0
:10BBE000002020731946104603F0F8F80025B542EE
:10BBF00006D218F805201BA12046FEF77DFE03E0C3
:10BC00001AA12046FEF778FE6D1C082DEFD318A16F
:10BC10002046FEF771FE0025B54212D218F80570D5
:10BC20007E2F08D8F5F778FC0068C05D10F03E0F55
:10BC300001D03A4600E02E220EA12046FEF75CFE1F
:10BC400003E00DA12046FEF757FE6D1C082DE3D33F
:10BC500001222146504603F0A3F884F80C90BDE879
:10BC6000F0870000202530327800000020202000DE
:10BC70007C00000025630000200000002DE9F04753
:10BC8000050024D0264C4FF00008FF20C4F80080A7
:10BC9000C4E90180C4F81884C4F8148484F82084AA
:10BCA000084600F021F91F48C4F80C5400F079F957
:10BCB00000280DD11C4800F08BFD1C49DFF8709066
:10BCC000DFF870A0A1EB0900C608002417E00720E8
:10BCD000BDE8F08700273D460CE0AC4209D059F89A
:10BCE000340059F835101422F5F7DAFC002800DD8D
:10BCF0007F1C6D1CB542F0D32AF82470641CB4423A
:10BD0000E8D30020414652460B4D05E002EB80048B
:10BD1000618045F82010401CB042F7D30020D7E7DF
:10BD2000541B0020103E010080190100D83D010085
:10BD3000C03C0100AC030020380400200248034945
:10BD4000401AC00870470000D83D0100C03C010007
:10BD50007FB505461146002401A873B1FDF70AFA24
:10BD600098B90B480199072250F8210005EB4501CD
:10BD70008A401040C840C4B207E0FDF7FBF920B983
:10BD80000448019900EBC100847904B0204670BDDD
:10BD900038040020C03C010070B5114B00EB40009E
:10BDA00003EB81040F4B02F0070203EB8101072331
:10BDB00003FA00F60D688240B5432A4300200A606A
:10BDC0004FEA000103FA01F51540CD40ADB28542BE
:10BDD00000D92846C91C0A29F4D3608070BD000030
:10BDE000AC0300203804002013B56846FDF7C2F903
:10BDF00008B100201CBD0248009950F831001CBD5C
:10BE0000C03C010070B509480125D0F8104480F805
:10BE1000205407E0E068457121682046496888475A
:10BE2000E0680468002CF5D170BD0000541B0020B0
:10BE30002DE9FF4781460C9D00200C462F7B28737F
:10BE4000984616462946184602F0C8FF072E42D2E9
:10BE5000DFE806F004090F161F2A36004946284677
:10BE6000FEF74AFD37E0494628462268FEF744FDC2
:10BE700031E0D4E9002349462846FEF73DFD2AE09B
:10BE8000A0680090D4E9002349462846FEF734FD17
:10BE900021E0D4E90201CDE90001D4E900234946BB
:10BEA0002846FEF729FD16E004F1080007C88DE8D2
:10BEB0000700D4E9002349462846FEF71DFD0AE0A5
:10BEC00004F108000FC88DE80F00D4E900234946AB
:10BED0002846FEF711FD00222946404602F060FF89
:10BEE0002F73BDE8FF870000054A0121054B516013
:10BEF00001E0400849009842FBD8C2E900017047C0
:10BF0000F402002040420F002DE9F041058B8046ED
:10BF10002D1F4819C01CB0FBF5F0C6B24046FDF716
:10BF200029FA041E19D00020207101206071E580DB
:10BF300000272546761EC4F800800BE04046FDF73A
:10BF400019FA60B16179491C6171286005467F1C4E
:10BF5000C0F80080B742F1D32046BDE8F08120460A
:10BF600000F002F80020F8E72DE9F041457901469C
:10BF70006B1E002201E00968521C9A42FBD30F6835
:10BF80000146002605E038460C68FDF759FA2146BF
:10BF9000761CAE42F7D3BDE8F0810121001DFDF70C
:10BFA000BDB9FDF793BA10B504460121001DFDF798
:10BFB000DBF910F0FF0F04D12046BDE81040FFF779
:10BFC000D3BF10BD1CB514460122CDE9002401AA3F
:10BFD000FDF736F80198A04203D002A1DA20F7F766
:10BFE000E1FC1CBD2E2E5C2E2E5C2E2E5C2E2E5CBB
:10BFF0002E2E5C2E2E5C636F6D706F6E656E74738B
:10C000005C6C69627261726965735C6D656D6F62AB
:10C010006A5C6E72665F6D656D6F626A2E630000AA
:10C020001CB514460022CDE9002401AAFDF708F84A
:10C030000198A04203D002A1D020F7F7B3FC1CBDA9
:10C040002E2E5C2E2E5C2E2E5C2E2E5C2E2E5C2E2A
:10C050002E5C636F6D706F6E656E74735C6C69627D
:10C060007261726965735C6D656D6F626A5C6E7238
:10C07000665F6D656D6F626A2E63000070B5104873
:10C080000168C90704D10068C0F30721FF2901D95D
:10C09000062070BD0A4B00221B1D1A60084D1C1D96
:10C0A00010351046261D03E020602A603260401CD7
:10C0B0008842F9D305201860BFF34F8F002070BD70
:10C0C00090ED00E02DE9F04781461F489846144660
:10C0D00000680E46C0F30727501E024207D1202CED
:10C0E00005D3064203D11FFA88F0002802D00720AA
:10C0F000BDE8F0870020F7F771FB134812490025CF
:10C100001030083104E00D600268D20709D06D1CC0
:10C11000BD42F8D30020F7F78FFBBD420ED30420B9
:10C12000E6E709490C310E60B4FA84F1C1F11E0250
:10C1300048EA420141F001010160EBE7BFF34F8F94
:10C1400089F800500020D3E790ED00E00949022271
:10C150000A60BFF36F8FBFF34F8F0A1D1060064850
:10C160000268002AFCD000200860BFF36F8FBFF385
:10C170004F8F704704E5014000E4014070B50E4C5C
:10C1800001232360BFF36F8FBFF34F8F00230B4D4D
:10C1900008E000BF51F8236040F823602E68002EAD
:10C1A000FCD05B1C9342F5D300202060BFF36F8F5F
:10C1B000BFF34F8F70BD000004E5014000E4014073
:10C1C00008B500F1804001460068002220B101203E
:10C1D0000A600968009108BD104608BD704700005C
:10C1E00010B5040004D105494FF4F670F7F7DAFBF7
:10C1F000204600F0BBFAA168081A10BD4CC400002C
:10C200002DE9F04190460D4604004FF0000703D1A0
:10C2100023A1B320F7F7C6FB1DB921A1B420F7F77E
:10C22000C1FB0020F7F7DAFA204600F0A1F830B1A0
:10C2300005270020F7F700FB3846BDE8F0812068AD
:10C240000668B8F1000F05D10168204600F046F9F4
:10C2500021680860E268012A0CD0022A0ED0042A64
:10C2600011D06068082A13D006FB02012846F5F7B2
:10C27000ABF9DEE76068805D2870DAE7606830F867
:10C2800016002880D5E7606850F826002860D0E7BF
:10C2900000EBC601D1E90001C5E90001C9E70000D2
:10C2A0002E2E5C2E2E5C2E2E5C2E2E5C2E2E5C2EC8
:10C2B0002E5C636F6D706F6E656E74735C6C69621B
:10C2C0007261726965735C71756575655C6E7266C5
:10C2D0005F71756575652E630000000070B51446CA
:10C2E0000E46050004D113A14FF4A170F7F75AFBD5
:10C2F00026B910A140F24310F7F754FB4FF00000AD
:10C30000002C12D0F7F76AFA287C78B12846FFF79C
:10C3100067FF844200D3044622463146284602F095
:10C32000CFFE0020F7F788FA204670BDA868A0422B
:10C33000F2D8F0E72E2E5C2E2E5C2E2E5C2E2E5C7C
:10C340002E2E5C2E2E5C636F6D706F6E656E747337
:10C350005C6C69627261726965735C717565756543
:10C360005C6E72665F71756575652E630000000016
:10C3700010B5040004D107A14FF4F270F7F712FBD7
:10C38000216808684968884201D1012010BD002059
:10C3900010BD00002E2E5C2E2E5C2E2E5C2E2E5CF0
:10C3A0002E2E5C2E2E5C636F6D706F6E656E7473D7
:10C3B0005C6C69627261726965735C7175657565E3
:10C3C0005C6E72665F71756575652E6300000000B6
:10C3D00070B5040003D108A16420F7F7E3FA2068E0
:10C3E00005684168204600F079F8A84201D1012093
:10C3F00070BD002070BD00002E2E5C2E2E5C2E2EF7
:10C400005C2E2E5C2E2E5C2E2E5C636F6D706F6E1C
:10C41000656E74735C6C69627261726965735C717C
:10C42000756575655C6E72665F71756575652E63A1
:10C430000000000010B5040004D104A14FF4F9700D
:10C44000F7F7B0FA2068806810BD00002E2E5C2E31
:10C450002E5C2E2E5C2E2E5C2E2E5C2E2E5C636FA0
:10C460006D706F6E656E74735C6C69627261726917
:10C4700065735C71756575655C6E72665F71756517
:10C4800075652E630000000010B5040004D104A1FE
:10C490004FF4FC70F7F786FA21680020886010BD21
:10C4A0002E2E5C2E2E5C2E2E5C2E2E5C2E2E5C2EC6
:10C4B0002E5C636F6D706F6E656E74735C6C696219
:10C4C0007261726965735C71756575655C6E7266C3
:10C4D0005F71756575652E630000000070B50C46D0
:10C4E000050003D105495120F7F75CFAA868A0427E
:10C4F00001D9601C70BD002070BD00004CC400005C
:10C5000070B514460D46060004D110A140F2AF10DC
:10C51000F7F748FA25B90DA14FF4D870F7F742FAAA
:10C520004FF00000002C10D0F7F758F9304602F019
:10C53000BBFD844200D3044622462946304602F021
:10C5400071FD0020F7F778F9204670BD2E2E5C2E85
:10C550002E5C2E2E5C2E2E5C2E2E5C2E2E5C636F9F
:10C560006D706F6E656E74735C6C69627261726916
:10C5700065735C71756575655C6E72665F71756516
:10C5800075652E63000000002DE9F0410E460400A1
:10C590004FF0000803D12CA16F20F7F703FA1EB962
:10C5A00029A17020F7F7FEF90020F7F717F92046C8
:10C5B000FFF70EFF070009D0207C38B14FF00408C8
:10C5C0000020F7F739F94046BDE8F081206845685A
:10C5D00041682046FFF782FF2168486037B1206834
:10C5E00001682046FFF77AFF21680860E268012AA7
:10C5F00014D0022A16D0042A19D0082A1CD0606848
:10C60000314605FB0200F4F7DFFF204602F04CFD47
:10C6100021688A688242D3D28860D1E76168307825
:10C620004855F2E76168308821F81500EDE7616848
:10C63000306841F82500E8E7D6E90001626802EBBE
:10C64000C502C2E90001E0E72E2E5C2E2E5C2E2EE4
:10C650005C2E2E5C2E2E5C2E2E5C636F6D706F6ECA
:10C66000656E74735C6C69627261726965735C712A
:10C67000756575655C6E72665F71756575652E634F
:10C68000000000002DE9F04F8046806889B0D0F8A6
:10C690005403C0F3400038B109B04046BDE8F04F44
:10C6A00000221146FDF76ABC012907D909B04046AE
:10C6B000BDE8F04F1FA20221FDF702BC2249DFF8BE
:10C6C0008CB0A1EB0B001C21B0FBF1F7002529E099
:10C6D000C5EBC5010BEB81042046D4E9026AFFF7E4
:10C6E000A9FE8146204600F041F8642209FB02F1D0
:10C6F0004243B1FBF6F1B2FBF6F26369247CB4B1BC
:10C700000FF24C0CCDF81CC0CDF800A0CDE9059679
:10C71000CDE90120CDE90361104A08214046FDF72B
:10C72000CFFB6D1CBD42D3D309B0BDE8F08F0FF233
:10C73000300CE7E742616420617267756D656E7465
:10C7400020636F756E740000B83E01002C3E01003E
:10C750004E6F206F766572666C6F7700D82F010080
:10C760004F766572666C6F770000000010B50400AC
:10C7700004D108A140F2D710F7F714F90020F7F719
:10C780002DF8204602F090FC04460020F7F754F8FC
:10C79000204610BD2E2E5C2E2E5C2E2E5C2E2E5C86
:10C7A0002E2E5C2E2E5C636F6D706F6E656E7473D3
:10C7B0005C6C69627261726965735C7175657565DF
:10C7C0005C6E72665F71756575652E6300000000B2
:10C7D000826800219160826811618268516182687B
:10C7E000D1608268516080680160704770B50D4605
:10C7F000060003D10BA11420F7F7D4F81DB909A145
:10C800001520F7F7CFF8746804E0B268294690471E
:10C8100018B1246820680028F7D1206828602560B6
:10C8200070BD00002E2E5C2E2E5C2E2E5C2E2E5CFB
:10C830002E2E5C2E2E5C636F6D706F6E656E747342
:10C840005C6C69627261726965735C736F72746C3F
:10C850006973745C6E72665F736F72746C69737403
:10C860002E63000010B5040003D103A13D20F7F7AB
:10C8700099F8206810BD00002E2E5C2E2E5C2E2E06
:10C880005C2E2E5C2E2E5C2E2E5C636F6D706F6E98
:10C89000656E74735C6C69627261726965735C73F6
:10C8A0006F72746C6973745C6E72665F736F7274AE
:10C8B0006C6973742E63000010B5040003D103A1EA
:10C8C0003720F7F76FF86068006810BD2E2E5C2ED9
:10C8D0002E5C2E2E5C2E2E5C2E2E5C2E2E5C636F1C
:10C8E0006D706F6E656E74735C6C69627261726993
:10C8F00065735C736F72746C6973745C6E72665F7F
:10C90000736F72746C6973742E63000010B5040049
:10C9100003D105A12B20F7F745F8616808680028C6
:10C9200001D002680A6010BD2E2E5C2E2E5C2E2EC9
:10C930005C2E2E5C2E2E5C2E2E5C636F6D706F6EE7
:10C94000656E74735C6C69627261726965735C7345
:10C950006F72746C6973745C6E72665F736F7274FD
:10C960006C6973742E63000070B50C46050003D12A
:10C970000BA14320F7F716F81CB909A14420F7F7DB
:10C9800011F80021686806E0A24203D12168016025
:10C99000012103E010460268002AF5D1084670BD67
:10C9A0002E2E5C2E2E5C2E2E5C2E2E5C2E2E5C2EC1
:10C9B0002E5C636F6D706F6E656E74735C6C696214
:10C9C0007261726965735C736F72746C6973745CA5
:10C9D0006E72665F736F72746C6973742E6300009D
:10C9E0002DE9FF47214F224A27F07F04A7F17F0955
:10C9F00004F1800009EB0208404503D31D491D20C6
:10CA0000F6F7D0FF1C4B2146802203A8FFF75AFB04
:10CA100005001A491A48A1EB00004FEAD006194850
:10CA200040880FD050B1284600F064F8034601203A
:10CA300000EB06402A4614A1FFF79FF804B02846F1
:10CA4000BDE8F0870328F9D347F07F02A8EB09007F
:10CA50000092A0F18001CDE901010320234600EB03
:10CA6000064080221449FFF7A3F8E7E77F22002061
:10CA700000200000AC23010000002917103D010038
:10CA8000C03C0100D403002043616E6E6F742063CC
:10CA9000726561746520737461636B206775617280
:10CAA00064207061676521204572726F723A20259B
:10CAB00075205B25735D00004C2301000C4A10B506
:10CAC00002F58C730EE0991AC91001EBD17149106F
:10CAD00002EBC1010C68844201D90B4602E005D289
:10CAE00001F108029A42EED3002010BD486810BD43
:10CAF0008C17010000B5FFF7E1FF002800D10148C5
:10CB000000BD0000781701004058002800D0012027
:10CB1000704708B5002242504058009008BDD0F838
:10CB20000403084000D0012070474058002800D07E
:10CB30000120704708B5002242504058009008BDBF
:10CB400030B5050600F00F030E4C03EB830004EB39
:10CB500080000AD5082B03D30B480160001D09E0B3
:10CB6000C0F80016C0F8042630BD082B04D30748CF
:10CB70000160001D026030BDC0F80017C0F8042736
:10CB800030BD000000700240A0760240A077024055
:10CB900010B5044600F00F00092804D30BA140F2A1
:10CBA000AB40F6F7FFFE21064FF0010004F00F0244
:10CBB00000FA02F001D5114901E01049091D096888
:10CBC000014201D0012010BD002010BD2E2E5C2E90
:10CBD0002E5C2E2E5C2E2E5C2E2E5C2E2E5C6D6F0F
:10CBE00064756C65735C6E7266785C68616C2F6EE0
:10CBF00072665F757362642E6800000010750240F3
:10CC000070B50446000604D415A140F29930F6F739
:10CC1000C9FE04F00F00082804D311A140F29A3095
:10CC2000F6F7C0FE200704D10DA140F29B30F6F7C5
:10CC3000B9FE03F0DBFD2046FAF7D6FA817B012529
:10CC4000032902D00068002809D12046FAF7B6FA75
:10CC50008540E943BDE870400F4800F04FB970BD12
:10CC60002E2E5C2E2E5C2E2E5C2E2E5C2E2E5C2EFE
:10CC70002E5C6D6F64756C65735C6E7266785C6457
:10CC80007269766572735C7372635C6E7266785FEC
:10CC9000757362642E6300002001002038B50446DD
:10CCA000000604D41B4940F2B730F6F77BFE04F0CF
:10CCB0000F00082804D217494FF46E70F6F772FE81
:10CCC00003F094FD2046FAF78FFA817B01250329B2
:10CCD00015D00068002811D12046FAF76FFA854078
:10CCE000E9430D4800F00AF90C480B4980680090B0
:10CCF0000C398DF8024049686846884738BD20469F
:10CD0000FAF75CFA8540E943BDE83840024800F094
:10CD1000F5B8000038080100200100209011010042
:10CD200070B50546000605F00F0402D5092C09D39D
:10CD300001E0092C0BD30E4940F26540F6F732FEB4
:10CD4000280604D50A4940F26640F6F72BFE082C67
:10CD500004D2074940F26740F6F724FE0548006810
:10CD600018B1C10300D5002070BD4FF0FF3070BD79
:10CD7000DCE80000C074024038B50446000604D563
:10CD80001FA140F2F730F6F70DFE04F00F0008285F
:10CD900004D31BA14FF47E70F6F704FE200704D1E4
:10CDA00017A140F2F930F6F7FDFD03F01FFD204614
:10CDB000FAF71AFA817B0125032902D0006848B1ED
:10CDC0001AE02046FAF7FAF98540E9431A4800F0DC
:10CDD00095F811E02046FAF7F1F98540E943164845
:10CDE00000F08CF815481449006900900C398DF852
:10CDF0000240496868468847BDE8384003F038BDBE
:10CE00002E2E5C2E2E5C2E2E5C2E2E5C2E2E5C2E5C
:10CE10002E5C6D6F64756C65735C6E7266785C64B5
:10CE20007269766572735C7372635C6E7266785F4A
:10CE3000757362642E6300002001002090110100D0
:10CE400070B50546000605F00F0402D5092C09D37C
:10CE500001E0092C0BD30D4940F25340F6F7A2FD37
:10CE6000280604D5094940F25440F6F79BFD082CEA
:10CE700005D307480068C10300D5002070BD0549EF
:10CE800001EB8400D0F8A00470BD0000DCE80000D5
:10CE9000C07402400070024002494058002800D08F
:10CEA00001207047007002400449084400210160DD
:10CEB000BFF36F8FBFF34F8F7047000000700240C9
:10CEC00003490860BFF36F8FBFF34F8F70470000B7
:10CED0000074024002480068002800D0012070471A
:10CEE0002C7502400449084401210160BFF36F8F93
:10CEF000BFF34F8F704700000070024008B56A46CC
:10CF0000F4F7A1F908BD0000084810B5007918B978
:10CF100007A19320F6F746FD00F032F912490120EF
:10CF200008600249091F087010BD0000F4000020CD
:10CF30002E2E5C2E2E5C2E2E5C2E2E5C2E2E5C2E2B
:10CF40002E5C6D6F64756C65735C6E7266785C6484
:10CF50007269766572735C7372635C6E7266785F19
:10CF6000636C6F636B2E630018050040084810B5B2
:10CF7000007918B907A1D520F6F714FD4FF4807099
:10CF8000FDF725FB01208107C1F80403086010BDEF
:10CF9000F40000202E2E5C2E2E5C2E2E5C2E2E5C9D
:10CFA0002E2E5C2E2E5C6D6F64756C65735C6E72DC
:10CFB00066785C647269766572735C7372635C6ECA
:10CFC0007266785F636C6F636B2E630010B50A4CFA
:10CFD000207918B909A1DD20F6F7E4FC15490120F4
:10CFE000086015494FF001100A6802F001128242F0
:10CFF000FAD00020607110BDF40000202E2E5C2EAF
:10D000002E5C2E2E5C2E2E5C2E2E5C2E2E5C6D6FDA
:10D0100064756C65735C6E7266785C647269766563
:10D0200072735C7372635C6E7266785F636C6F635D
:10D030006B2E6300040000400C04004010B5040097
:10D0400003D108A17A20F6F7ADFC144900200A7933
:10D050000AB1852010BD01220C600A7100224A71BC
:10D0600010BD00002E2E5C2E2E5C2E2E5C2E2E5C13
:10D070002E2E5C2E2E5C6D6F64756C65735C6E720B
:10D0800066785C647269766572735C7372635C6EF9
:10D090007266785F636C6F636B2E6300F400002030
:10D0A00070B54FF480763046FDF78AFA114CB5051D
:10D0B00060B13046FDF78BFA0120C5F808036079AE
:10D0C00020B9012060712168002088474FF48276E2
:10D0D0003046FDF775FA00280AD03046FDF777FA9A
:10D0E0000220C5F808032168BDE870400120084708
:10D0F00070BD0000F4000020094810B5007918B98F
:10D1000008A1C020F6F74EFC4FF48270FDF75FFADD
:10D1100002204107C1F8040310490120086010BD36
:10D12000F40000202E2E5C2E2E5C2E2E5C2E2E5C0B
:10D130002E2E5C2E2E5C6D6F64756C65735C6E724A
:10D1400066785C647269766572735C7372635C6E38
:10D150007266785F636C6F636B2E6300080000403B
:10D160000121B1EB507F01D10120704700207047B1
:10D170000121B1EB507F01D10120704700207047A1
:10D1800006480068012110F0010F06D14FF0E020A1
:10D19000C02280F80024C0F80011704700E100E0D0
:10D1A00006480068012110F0010F06D14FF0E02081
:10D1B000C02280F80024C0F80011704700E100E0B0
:10D1C00070B5040003D10DA14A20F6F7EBFB194D11
:10D1D000287808B1852070BD20781749C0F3400039
:10D1E000086015492078083900F001000860FFF751
:10D1F000D7FF01202870002070BD00002E2E5C2E6D
:10D200002E5C2E2E5C2E2E5C2E2E5C2E2E5C6D6FD8
:10D2100064756C65735C6E7266785C647269766561
:10D2200072735C7372635C6E7266785F706F776541
:10D23000722E6300FC0000208005004070B54FF0A6
:10D240008040D0F80453334C68070CD54FF48470F9
:10D25000FEF7B6FF38B1606818B92FA1EE20F6F7D7
:10D26000A1FB60688047A8060DD54FF48A70FEF7D1
:10D27000A7FF40B1A06818B927A1F720F6F792FBE5
:10D28000A1680020884768060DD54FF48C70FEF722
:10D2900097FF40B1A06818B91FA1FE20F6F782FBE6
:10D2A000A1680120884728060ED54FF48E70FEF73E
:10D2B00087FF48B1E06820B917A140F20710F6F7E0
:10D2C00071FBE16800208847E8050ED54FF49070A7
:10D2D000FEF776FF48B1E06820B90FA14FF48770E0
:10D2E000F6F760FBE16801208847A80511D54FF4E7
:10D2F0009270FEF765FF00280BD0E06820B906A108
:10D3000040F21510F6F74EFBE168BDE870400220D0
:10D31000084770BDFC0000202E2E5C2E2E5C2E2EA9
:10D320005C2E2E5C2E2E5C2E2E5C6D6F64756C65F3
:10D33000735C6E7266785C647269766572735C7336
:10D3400072635C6E7266785F706F7765722E6300D1
:10D350004FF080414FF46070C1F8080370474FF000
:10D3600080414FF46070C1F8040370470349002204
:10D37000CA600068002800D0C8607047FC00002028
:10D3800001490020C8607047FC00002070B50D46C0
:10D39000040003D10DA15120F6F704FB204601F053
:10D3A0007BFD04000FD00020F6F718FA207920B199
:10D3B0000020F6F741FA112070BD01202560207190
:10D3C0000020F6F739FA002070BD00002E2E5C2EEA
:10D3D0002E5C2E2E5C2E2E5C2E2E5C2E2E5C6D6F07
:10D3E00064756C65735C6E7266785C647269766590
:10D3F00072735C7372635C7072735C6E7266785F7A
:10D400007072732E6300000010B5040003D106A1F2
:10D410007520F6F7C7FA204601F03EFD002802D03D
:10D4200000210160017110BD2E2E5C2E2E5C2E2E6F
:10D430005C2E2E5C2E2E5C2E2E5C6D6F64756C65E2
:10D44000735C6E7266785C647269766572735C7325
:10D4500072635C7072735C6E7266785F7072732E4A
:10D460006300000010B50446B0F5000F03D307A118
:10D470006A20F6F797FA4FF0E020816982698A1AEC
:10D4800022F07F42A242F9D310BD00002E2E5C2E66
:10D490002E5C2E2E5C2E2E5C2E2E5C2E2E5C6D6F46
:10D4A00064756C65735C6E7266785C6472697665CF
:10D4B00072735C7372635C6E7266785F7379737497
:10D4C00069636B2E6300000070B50B4D04460B4E74
:10D4D00028680B49B0FBF6F0B1FBF0F0A04203D294
:10D4E00008A17520F6F75EFA2868B0FBF6F06043F5
:10D4F000BDE87040FFF7B6BF3403002040420F0084
:10D50000FFFF7F002E2E5C2E2E5C2E2E5C2E2E5CBE
:10D510002E2E5C2E2E5C6D6F64756C65735C6E7266
:10D5200066785C647269766572735C7372635C6E54
:10D530007266785F7379737469636B2E63000000A1
:10D540000149024802F00EBFD41100200020004023
:10D550002DE9F04117460D00064603D11AA184209B
:10D56000F6F720FA3079264A00EB400101EBC001C2
:10D5700002EB810494F82A1011B10820BDE8F08173
:10D58000204951F820103068FFF700FF08B1112042
:10D59000F4E729463046F6F78FF96760286920607E
:10D5A0001FB1297F3046FAF733FF30680421C0F8F5
:10D5B00000150020A061E06184F8290044F8140FF0
:10D5C0000121A175DAE700002E2E5C2E2E5C2E2E96
:10D5D0005C2E2E5C2E2E5C2E2E5C6D6F64756C6541
:10D5E000735C6E7266785C647269766572735C7384
:10D5F00072635C6E7266785F756172742E63000090
:10D60000D4110020881101002DE9F047054600796A
:10D610000F4600EB400101EBC0002D49164601EB1F
:10D62000800494F82A00012803D02AA1EF20F6F7FD
:10D63000B9F91FB927A1F020F6F7B4F91EB925A151
:10D64000F120F6F7AFF9284600F060F810B111208C
:10D65000BDE8F0874FF00008C4F82080A76066613D
:10D6600084F828804FF48E76474631462868FFF7C5
:10D6700050FA28684FF00109C0F808902146286840
:10D6800002F008FE606808BBD5F800A00FE000BFFC
:10D6900094F8280008B10F2716E031465046FFF7EE
:10D6A00033FA0028F4D02146504602F0F3FD216AF7
:10D6B00060698142F1D331462868FFF725FA0028D6
:10D6C000F9D02868C0F80C90C4F814803846BFE739
:10D6D000D41100202E2E5C2E2E5C2E2E5C2E2E5C65
:10D6E0002E2E5C2E2E5C6D6F64756C65735C6E7295
:10D6F00066785C647269766572735C7372635C6E83
:10D700007266785F756172742E630000007900EBB9
:10D71000400101EBC000044901EB80004069002892
:10D7200000D0012070470000D41100202DE9F047FF
:10D73000044600794FF0000900EB400101EBC00006
:10D74000254901EB80072068C0F80095786880B112
:10D7500020682249C0F808132068012140F30730EF
:10D7600000F01F0291404009800000F1E020C0F865
:10D7700080112068D0F80C25D0F81485D0F8086501
:10D78000D0F810554FF0FF31C0F81415C0F80C1543
:10D790002068C0F80815C0F81015501C02D01046BB
:10D7A000FDF772FCB8F1FF3F02D04046FDF76CFC7C
:10D7B000681C02D02846FDF767FC701C02D030467A
:10D7C000FDF762FC2068FFF71FFE87F82A90C7F874
:10D7D0000490BDE8F0870000D4110020840202000C
:10D7E0000149024802F06ABE0012002000200040F9
:10D7F0002DE9F04117460D00064603D118A1A720D8
:10D80000F6F7D0F83079244A00EBC00102EB81042E
:10D8100094F8201011B10820BDE8F0811F4951F89B
:10D8200020103068FFF7B2FD08B11120F4E7294657
:10D830003046F6F77CF86760286920601FB1297FC1
:10D840003046FAF737FE30680821C0F8001500208E
:10D85000A061E0616061012184F82010DCE7000034
:10D860002E2E5C2E2E5C2E2E5C2E2E5C2E2E5C2EF2
:10D870002E5C6D6F64756C65735C6E7266785C644B
:10D880007269766572735C7372635C6E7266785FE0
:10D8900075617274652E6300001200208C11010006
:10D8A0002DE9F04704460F4600792E4900EBC000F1
:10D8B00001EB8005164695F82000012803D02AA127
:10D8C000FE20F6F76FF81FB927A1FF20F6F76AF8D8
:10D8D00026B925A14FF48070F6F764F8207910B9C5
:10D8E000B6F5803F04D320A140F20110F6F75AF8B4
:10D8F0003846FFF735FC30B1204600F051F820B132
:10D900001120BDE8F0871020FBE76E61AF604FF497
:10D910009076002731462068FFF70CF94FF4AC7879
:10D9200041462068FFF706F92068AA686969C0F8CF
:10D930004425C0F84815206801218160686878B9DD
:10D94000B14649462068FFF7F0F806464146206890
:10D95000FFF7EBF80643F4D000B10F270020686111
:10D960003846CEE7001200202E2E5C2E2E5C2E2E86
:10D970005C2E2E5C2E2E5C2E2E5C6D6F64756C659D
:10D98000735C6E7266785C647269766572735C73E0
:10D9900072635C6E7266785F75617274652E630087
:10D9A0000079054900EBC00001EB800040690028C8
:10D9B00000D0012070470000001200202DE9F04740
:10D9C00004460079274900EBC00001EB800720687E
:10D9D0004FF00009C0F80095786880B120682249AE
:10D9E000C0F808132068012140F3073000F01F023F
:10D9F00091404009800000F1E020C0F880112068CB
:10DA0000D0F80C25D0F81485D0F80865D0F810555A
:10DA10004FF0FF31C0F80C15C0F814152068C0F89D
:10DA20000815C0F81015501C02D01046FDF735FB44
:10DA3000B8F1FF3F02D04046FDF72FFB681C02D033
:10DA40002846FDF72AFB701C02D03046FDF725FB67
:10DA50002068FFF7D9FC87F82090C7F80490BDE84C
:10DA6000F087000000120020100302000349024862
:10DA7000C1F80403704700000414800100700240E4
:10DA80002DE9F0411D46174606460C46AA4204D22F
:10DA900013A140F2B510F5F785FF206838B1FFF704
:10DAA00067FB20B90EA14FF4DB70F5F77BFF6068D0
:10DAB000A84204D2002171602168316007E07560DE
:10DAC0002168401B31606060216829442160AF42B9
:10DAD00003D110B10120BDE8F0810020FBE7000078
:10DAE0002E2E5C2E2E5C2E2E5C2E2E5C2E2E5C2E70
:10DAF0002E5C6D6F64756C65735C6E7266785C64C9
:10DB00007269766572735C7372635C6E7266785F5D
:10DB1000757362642E63000010B50D4C207820B937
:10DB20000CA140F2FB60F5F73DFF00F0F5FD174951
:10DB3000D1F80403C1F80803154900200860BFF3B9
:10DB40006F8FBFF34F8F02F051FE0120207010BD88
:10DB5000140100202E2E5C2E2E5C2E2E5C2E2E5CB0
:10DB60002E2E5C2E2E5C6D6F64756C65735C6E7210
:10DB700066785C647269766572735C7372635C6EFE
:10DB80007266785F757362642E63000000700240F5
:10DB9000007502402DE9F047DFF8149199F8000074
:10DBA000012804D043A140F28F60F5F7FBFE4FF44B
:10DBB00000684046FFF784F900F05DFB4B4E4C4C8B
:10DBC00049F2753550B10020F5F708FE21680320B1
:10DBD000002958D030600020F5F72EFE0020F5F720
:10DBE000FDFD2168424FC0201437002950D0386015
:10DBF0000020F5F721FE3F4901200860BFF36F8F39
:10DC0000BFF34F8F3C4801680905FCD54046FFF73C
:10DC100057F90020F5F7E2FD20684FF00008B0B397
:10DC2000C7F800800020F5F707FE344940F2E370A2
:10DC300008604020091D0860BFF36F8FBFF34F8F4E
:10DC40002C4980201C3108602A49002030310860AE
:10DC50004F4640F2FF10C7E9020802F0C7FD87F8FF
:10DC600002800220387000F006FB00281ED0002041
:10DC7000F5F7B4FD2068A0B1C6F80080BDE8F04714
:10DC80000020F5F7D9BD256030602560A3E703E0EB
:10DC9000256038602560ABE72560C7F80080256007
:10DCA000C0E72560C6F800802560E7E7BDE8F0879B
:10DCB000140100202E2E5C2E2E5C2E2E5C2E2E5C4F
:10DCC0002E2E5C2E2E5C6D6F64756C65735C6E72AF
:10DCD00066785C647269766572735C7372635C6E9D
:10DCE0007266785F757362642E63000014ED0640FF
:10DCF00000EC0640007502400074024000780240CB
:10DD000002F086BE70B5054602F082FE2846F9F79D
:10DD1000A3FA044600F00F00092804D30E4940F28C
:10DD2000CB40F5F73FFE04F00F0122064FF0010053
:10DD300001D50A4A01E0094A121D1368884083434D
:10DD40001360BFF36F8FBFF34F8F284600F0BAF90F
:10DD50000349C1F8080370BDDCE8000010750240FB
:10DD60000070024070B5010600F00F050446092D51
:10DD700004D30C4940F29740F5F714FE082D04D364
:10DD800008494FF49360F5F70DFE07480460BFF3B0
:10DD90004F8F44F480710160BFF36F8FBFF34F8FDB
:10DDA00070BD0000DCE800000C75024070B505464F
:10DDB00000F088F92149C1F804032846FEF7E8FE7F
:10DDC00000283AD12846F9F747FA044600F00F0038
:10DDD000092804D31A4940F2BA40F5F7E3FD04F0EC
:10DDE0000F0021064FF0010401D5164901E0154945
:10DDF000091D0A6804FA00F002430A60BFF36F8F3E
:10DE0000BFF34F8F280718D0280616D405F00F004F
:10DE1000082812D20020F5F7E1FC284600F0F2FCB9
:10DE20002846F9F7CBF984400748C168A143C1608F
:10DE3000BDE870400020F5F7FFBC70BD00700240E7
:10DE4000DCE80000107502401401002010B5F9F75D
:10DE500003FABDE81040FEF79BBE00002DE9F0413B
:10DE60000E460746F9F7AAF9054626B918A140F665
:10DE70005E00F5F797FD0020F5F7B0FC224C38075F
:10DE800004D1A078874201D010241BE02089E168EA
:10DE9000C04380B20843012101FA05F5284201D0B0
:10DEA00011240FE03846F9F79FF9002181603268AC
:10DEB0000260726842608173E0680543E5600C4669
:10DEC00002F098FE0020F5F7B7FC2046BDE8F0818F
:10DED0002E2E5C2E2E5C2E2E5C2E2E5C2E2E5C2E7C
:10DEE0002E5C6D6F64756C65735C6E7266785C64D5
:10DEF0007269766572735C7372635C6E7266785F6A
:10DF0000757362642E6300001401002010B5F9F7E8
:10DF10006BF9808910BD000070B50C00054602D079
:10DF2000601E044204D011A140F2A170F5F73AFD41
:10DF300005F00F0008280CD31A480068C1B28029E8
:10DF400004D04FF48060A0420AD204E04FF4007085
:10DF5000F9E7402C04D905A140F2A370F5F722FDA2
:10DF60002846F9F741F9848170BD00002E2E5C2E01
:10DF70002E5C2E2E5C2E2E5C2E2E5C2E2E5C6D6F5B
:10DF800064756C65735C6E7266785C6472697665E4
:10DF900072735C7372635C6E7266785F75736264D1
:10DFA0002E6300001C75024010B5F9F755F90446C0
:10DFB00000F00F00082804D3064940F2E440F5F7CA
:10DFC000F1FC054944F480700860BFF36F8FBFF324
:10DFD0004F8F10BDDCE800001875024010B5F9F74E
:10DFE0003BF900F00F01082901D3002010BD020603
:10DFF000054800EB810002D5D0F8200401E0D0F8FC
:10E0000044040128F1D110BD0070024010B504464F
:10E01000000606D42046FFF7E1FF10B1204600F0CD
:10E02000F1FB2046F9F718F9044600F00F00082824
:10E0300004D3064940F2EC40F5F7B4FC0448046010
:10E04000BFF36F8FBFF34F8F10BD0000DCE80000FF
:10E050001875024070B50446000604F00F0502D59D
:10E06000092D09D301E0092D08D307A140F255106D
:10E07000F5F798FC200601D5114801E01048123050
:10E0800030F8150070BD00002E2E5C2E2E5C2E2E5A
:10E090005C2E2E5C2E2E5C2E2E5C6D6F64756C6576
:10E0A000735C6E7266785C647269766572735C73B9
:10E0B00072635C6E7266785F757362642E630000D3
:10E0C0002812010070B50546000605F00F0402D5C0
:10E0D000092C09D301E0092C08D307A14FF4BF7024
:10E0E000F5F760FC280601D5114801E01048093019
:10E0F000015D0120884070BD2E2E5C2E2E5C2E2EE0
:10E100005C2E2E5C2E2E5C2E2E5C6D6F64756C6505
:10E11000735C6E7266785C647269766572735C7348
:10E1200072635C6E7266785F757362642E63000062
:10E130004C1201002DE9F0410D460646F9F73EF874
:10E14000044625B930A140F2EE70F5F72BFC002013
:10E15000F5F744FB3A48310704D181788E4201D06B
:10E16000102438E001898046C943C06889B201277C
:10E170000143A740394201D011242CE03046F9F781
:10E1800033F8044606F00F00310600EB40002AD5B4
:10E190002C4901EB80062868FEF7EAFF0028287A60
:10E1A0004FEAC07004D008B1274803E0274801E0D7
:10E1B000B8B12748206095E8070086E807000020EE
:10E1C000C4E90160A073D8F80C1004460F43C8F8E6
:10E1D0000C7002F00FFD0020F5F72EFB2046BDE885
:10E1E000F0811C48E6E717496C3101EB800628688E
:10E1F00038B1FEF7BDFF20B903A140F64800F5F79E
:10E20000D1FB1548D6E700002E2E5C2E2E5C2E2E5C
:10E210005C2E2E5C2E2E5C2E2E5C6D6F64756C65F4
:10E22000735C6E7266785C647269766572735C7337
:10E2300072635C6E7266785F757362642E63000051
:10E2400014010020441300204DE40000D1E300003D
:10E2500031E3000099E2000081DA000010B5F8F720
:10E26000FBFFBDE81040FEF7EBBD10B500F003F872
:10E2700080F0010010BD4FF08050D0F83011082917
:10E2800004D1D0F8340108B1012070470020704754
:10E29000004870471C1400202DE9F04180461646C6
:10E2A0000C460868FEF764FF20B112A140F21B2063
:10E2B000F5F778FB65681D4FB54200D93546402D0E
:10E2C00004D90CA140F22520F5F76CFB2A4638460C
:10E2D0002168F3F779F9C8E900756068401B606050
:10E2E0002068284420606068002800D00120BDE834
:10E2F000F08100002E2E5C2E2E5C2E2E5C2E2E5CCD
:10E300002E2E5C2E2E5C6D6F64756C65735C6E7268
:10E3100066785C647269766572735C7372635C6E56
:10E320007266785F757362642E6300001C140020AF
:10E330002DE9F041064690460D460868FEF718FFA5
:10E3400020B114A140F23E20F5F72CFB6C681F4F62
:10E350004046444500D90446402C04D90DA14FF451
:10E360001270F5F71FFB34B1224638462968F3F7DF
:10E370002BF9376001E00020306074606868001B92
:10E38000686028682044286014B10120BDE8F0814D
:10E390000020FBE72E2E5C2E2E5C2E2E5C2E2E5C9B
:10E3A0002E2E5C2E2E5C6D6F64756C65735C6E72C8
:10E3B00066785C647269766572735C7372635C6EB6
:10E3C0007266785F757362642E6300001C1400200F
:10E3D0002DE9F041074616460C460868FEF7C8FED0
:10E3E00020B90CA14FF4EE70F5F7DCFA6568B54280
:10E3F00000D935462068C7E900056068401B6060A9
:10E400002068284420606068002800D00120BDE812
:10E41000F08100002E2E5C2E2E5C2E2E5C2E2E5CAB
:10E420002E2E5C2E2E5C6D6F64756C65735C6E7247
:10E4300066785C647269766572735C7372635C6E35
:10E440007266785F757362642E6300002DE9F04197
:10E45000074616460C460868FEF78AFE20B910A14A
:10E4600040F2FD10F5F79EFA6568B54200D93546D1
:10E47000002D0FD0D4F80000C7E900056068A0EBBC
:10E480000500606020682844206006D04FF001003D
:10E49000BDE8F0814FF00000EEE74FF00000F7E735
:10E4A0002E2E5C2E2E5C2E2E5C2E2E5C2E2E5C2EA6
:10E4B0002E5C6D6F64756C65735C6E7266785C64FF
:10E4C0007269766572735C7372635C6E7266785F94
:10E4D000757362642E630000014900204870704724
:10E4E000140100202DE9F041040004D11FA140F2E5
:10E4F0006160F5F757FA2B49087810B10820BDE89C
:10E50000F0814C6001200024087046024FEA0405A7
:10E5100044F0800707F00F00082801D3314600E0DF
:10E5200040213846FFF7F8FC3846F8F75DFE857362
:10E53000641C0560E4B28560092CE9D35FF0000437
:10E5400004F00F00082801D3314600E040212046A6
:10E55000FFF7E2FC2046F8F747FE8573641C056070
:10E56000E4B28560092CEBD30020C8E72E2E5C2E88
:10E570002E5C2E2E5C2E2E5C2E2E5C2E2E5C6D6F55
:10E5800064756C65735C6E7266785C6472697665DE
:10E5900072735C7372635C6E7266785F75736264CB
:10E5A0002E6300001401002003480078022801D3E4
:10E5B00001207047002070471401002002480078B5
:10E5C000002800D0012070471401002010B5FFF78B
:10E5D000EBFF28B12720F3F7F5FD08B1012010BDAE
:10E5E000002010BD01488078704700001401002011
:10E5F0005020FEF777BC10B5FFF737FE58B1EFF3A8
:10E60000108472B64C20FEF76DFC4C20FEF76AFCBD
:10E6100084F3108810BDBDE810404C20FEF762BCAA
:10E620000021016041601149096801700F49091D0D
:10E63000096841700D49083109680C4A0C321268AA
:10E6400041EA02214180094910310968074A143220
:10E65000126841EA02218180044918310968034A9D
:10E660001C32126841EA0221C18070478074024066
:10E670005420FEF737BC000070B5134C05462078D7
:10E68000022804D011A140F20970F5F78BF900209F
:10E6900060701C4C15B9FFF7E8FD00B11A4C1B481F
:10E6A000C0F804431A49C02081F80004184A012028
:10E6B0008021233AC2F8001116490860BFF36F8F1A
:10E6C000BFF34F8F70BD0000140100202E2E5C2E72
:10E6D0002E5C2E2E5C2E2E5C2E2E5C2E2E5C6D6FF4
:10E6E00064756C65735C6E7266785C64726976657D
:10E6F00072735C7372635C6E7266785F757362646A
:10E700002E6300000714C0010714E00100700240EE
:10E7100027E000E00475024070B511480078022837
:10E7200004D010A14FF4E560F5F73CF91B4D8024AF
:10E73000C5F880422720F3F745FD00280ED002F0EF
:10E74000E7F9174900200860BFF36F8FBFF34F8FC1
:10E75000C5F880411349401EC1F8080370BD000090
:10E76000140100202E2E5C2E2E5C2E2E5C2E2E5C94
:10E770002E2E5C2E2E5C6D6F64756C65735C6E72F4
:10E7800066785C647269766572735C7372635C6EE2
:10E790007266785F757362642E63000004E000E0C7
:10E7A000047502400070024010B500242046F5F7C1
:10E7B00015F80C48407878B102F0AAF90A480168C7
:10E7C000890509D4094901220A600068800502D53B
:10E7D0000020086000E001240020F5F72DF8204615
:10E7E00010BD000014010020007402402C7502408E
:10E7F00003490248C1F8080370470000041480016F
:10E80000007002402DE9F0410446000604D523A122
:10E8100040F6ED00F5F7C6F8FFF72DFD90F0010F7B
:10E820004FF000082B4D4FF0010704F00F06404653
:10E8300013D0F4F7D3FF2046F8F7C0FC8740A86850
:10E840002549B843A86040F2C57000EB4600086057
:10E85000081DC0F8008000681AE0F4F7BFFF2046EA
:10E86000F8F7ACFC8740A868B843A860082E0FD220
:10E87000200604D519A140F27740F5F793F8234A12
:10E8800002EB8601C1F8A084BFF36F8FBFF34F8FF7
:10E89000BDE8F0410020F4F7CFBF00002E2E5C2E23
:10E8A0002E5C2E2E5C2E2E5C2E2E5C2E2E5C6D6F22
:10E8B00064756C65735C6E7266785C6472697665AB
:10E8C00072735C7372635C6E7266785F7573626498
:10E8D0002E63000014010020007802402E2E5C2ED2
:10E8E0002E5C2E2E5C2E2E5C2E2E5C2E2E5C6D6FE2
:10E8F00064756C65735C6E7266785C68616C2F6EB3
:10E9000072665F757362642E6800000000700240DA
:10E9100010B5064C2078012804D005A140F286608D
:10E92000F5F740F800206060207010BD1401002051
:10E930002E2E5C2E2E5C2E2E5C2E2E5C2E2E5C2E11
:10E940002E5C6D6F64756C65735C6E7266785C646A
:10E950007269766572735C7372635C6E7266785FFF
:10E96000757362642E63000010B500242046F4F72E
:10E9700035FF0E48407868B1FEF7ACFA50B10C494B
:10E98000002008600B4901240B680A4AC020143299
:10E990002BB110600020F4F74FFF204610BD49F264
:10E9A00075330B6010600B60F4E700001401002069
:10E9B0002C75024000EC064010B51B4C616819B381
:10E9C000F8F7D5F961684968401A20F07F40B0F542
:10E9D000960F03D31549E920F4F7E4FF6068406916
:10E9E000408804280AD3606811494069401A8008A9
:10E9F000042101EB00400FA1FDF7B4F8606801F0BD
:10EA000087FA0020606010BD0D4840880228FAD3C4
:10EA10000C480D49BDE81040401AC008022101EB26
:10EA200000400AA1FDF79EB828010020F423010050
:10EA3000AC030020436F6D70617265204556540031
:10EA4000F8030020583D0100C03C0100436F6D7089
:10EA5000617265206576656E7420627574206E6FD4
:10EA6000206163746976652074696D657220286120
:10EA70006C72656164792073746F707065643F298E
:10EA80000000000070B518484088042809D31748D2
:10EA90001749401AC008042101EB004015A1FDF7F9
:10EAA00061F81848416829B141684968406821F017
:10EAB0007F41416001F0B4F8040013D04FF080753D
:10EAC0006068A84203D2204601F022FA03E06068A1
:10EAD00020F07F4060602046FDF7C4FE002801D092
:10EAE0000446EDE770BD0000F8030020583D01002A
:10EAF000C03C01004F766572666C6F7720455654B6
:10EB000000000000280100202DE9F84317460C0002
:10EB100005462BD0DFF870804646D8F80000F6F79F
:10EB20004BFD384487B23068F6F746FDA968C98BBB
:10EB3000081AB0FBF7F086B22046F6F73DFDA9684B
:10EB4000381A87B2888CB0FBF6F206FB1202401C22
:10EB5000888482B123460DA207212846FBF7B0F92D
:10EB600039462846BDE8F843F8F786B8A96800207A
:10EB70008884BDE8F883009405A207212846D8F8C8
:10EB80000030FBF79DF9EBE75802002025730000E9
:10EB90000A2573257300000048B1064A01689142B6
:10EBA00005D140680449401802D0012800D0032054
:10EBB00070470000DEC0ADDE02FEE10E8A7D022A53
:10EBC00004D90289CB881A44D21C02814289C9889F
:10EBD000511AC91E418170472DE9F0410D460221AD
:10EBE000904600F58056298000F10804144F1BE080
:10EBF00031462046F9F7D2F940B1B8F1000F02D002
:10EC0000012288F80020022816D004E0A068796963
:10EC1000884200D97861288861880844C01C28800F
:10EC2000608804EB80040C3431462046F9F7C9F9BA
:10EC30000028DDD1BDE8F0814FF480602880F9E73D
:10EC4000C001002008B50021009101460823024AB6
:10EC50000248FCF7E7F808BD4814010084030020CF
:10EC600008B50020009004480823044A01680448BD
:10EC7000FCF7D8F808BD0000E801002040140100AE
:10EC8000840300202DE9F05F0025DFF80891DFF80C
:10EC900008B12C464FF00308AA462F46D9F80C00BD
:10ECA00000EB07363046FFF777FF78B3012847D0EF
:10ECB000032862D100204FF4806200BF56F8201074
:10ECC000491C0ED004EB84010BEB8102A8F101007A
:10ECD000566003221FFA80F80BF82120641CA4B2AE
:10ECE0004BE0401C9042E9D32C48016879B104EB19
:10ECF000840102200BF821000BEB81014E6008819A
:10ED0000254828304480641CA4B205E007E00221B5
:10ED1000066081804FF0010A45F001052DE004EB0B
:10ED2000840100220BF821200BEB810101F110027C
:10ED30004E6030460831FFF74FFF45F00205CDE742
:10ED4000BAF1000F0CD0022004EB8401134A0BF837
:10ED500021000BEB810112684A60641C0881A4B297
:10ED60000E480022011D06603046FFF735FF0B48B4
:10ED7000808802280CD0082005437F1CBFB2032FD7
:10ED80008CD3B8F1020F00D20025E8B2BDE8F09FA5
:10ED90000420F1E7840300207C160020E801002015
:10EDA00010B50C46017A052908D0407A38B10848D8
:10EDB00008A102682046FBF79FFD00E01AB106A1FA
:10EDC0002046FBF799FD2046BDE81040FBF7D4BD77
:10EDD00010030020257300000D0A000038B5C38819
:10EDE0000D46044633B116A0009017A218A128467C
:10EDF000FBF782FD217A052920D0607A48B1A088EE
:10EE0000FCF786FC184951F8202018A12846FBF78A
:10EE100073FD2846216801F0F7F9A0880021FCF76E
:10EE2000E3FF03461049207A143951F8202001B03D
:10EE30002846BDE830400EA1FBF75EBD38BD00009E
:10EE40001B5B306D000000001B5B313B33316D00FC
:10EE500025734C6F67732064726F7070656420282F
:10EE600025642925730D0A00100300202573000076
:10EE70003C25733E2025733A20000000EFF3058007
:10EE8000C005C00D01D001207047EFF3148040F39E
:10EE90000000401C704700000349884201D103482C
:10EEA0007047002070470000002000400C01002047
:10EEB0000146054810B50068FAF7F8F904461C2128
:10EEC000F2F7A9FB204610BD3814010001460248A4
:10EED0000068FAF70CBA00003814010008B50022E7
:10EEE0006946FDF78DF9002806D104488169491C5F
:10EEF00081610098FDF757F808BD00006C02002002
:10EF0000F0B52C4C2C4E85B005460027606858B9EA
:10EF1000284930680831FAF7DFF9606020B927A185
:10EF200040F25C50F4F73EFD61680878072817D27C
:10EF3000DFE800F0160408080E0E12002846F9F764
:10EF4000AFF902E0284601F087FF05002FD008E066
:10EF50002846F7F7BBFEF8E72846F8F72BFFF4E75B
:10EF60000F2514216846F2F756FBA5F5E8501D3829
:10EF700000D10025019569466068F8F749FB6846AD
:10EF8000F8F780FB0B496760002508313068FAF715
:10EF900098F9E06820B916A14FF41570F4F702FD56
:10EFA000044801210C30FAF7DFF90028AED105B092
:10EFB000F0BD0000C0010020381401002E2E5C2E90
:10EFC0002E5C2E2E5C2E2E5C2E2E5C2E2E5C636F05
:10EFD0006D706F6E656E74735C6C6962726172697C
:10EFE00065735C6664735C6664732E630000000086
:10EFF0002E2E5C2E2E5C2E2E5C2E2E5C2E2E5C2E4B
:10F000002E5C636F6D706F6E656E74735C6C69629D
:10F010007261726965735C6664735C6664732E63A7
:10F02000000000002DE9F0410446006817468846BC
:10F0300005684068854201D8461B02E0A068461B6F
:10F04000761CE2686068B74205FB02010CD87A437F
:10F050004046F2F7B9FAA168E819884200D90020C1
:10F0600021680860BDE8F08102FB06F52A464046AB
:10F07000F2F7AAFAE268BE1B724308EB050061686A
:10F08000F2F7A2FA20680660ECE7000010B5012153
:10F090000448FAF74FF9002803D1BDE81040FFF704
:10F0A0002FBF10BDCC01002001680A684968914259
:10F0B00001D3881A70478068801A0844401C704742
:10F0C0002DE9F047164689460446FDF789F8804643
:10F0D0002068A168426840688F1A6168E2687F1CF6
:10F0E00000FB0210BE420FD872434946F2F76CFA99
:10F0F00020684168A2683144914202D84168314495
:10F1000000E00021416018E002FB07F52A4649466D
:10F11000F2F75AFAE268F71B7A4309EB05016068D7
:10F12000F2F752FA20684760B04506D2206841687D
:10F130002046FDF7D3F9216808602046FFF7B4FFA9
:10F1400021688A68824200D28860BDE8F0872DE994
:10F15000F0479246894604004BD02078212805D0FC
:10F160005E2803D000270126002035E00127641C1B
:10F17000F9E700262F2D02D05C2D04D00CE04FF0D3
:10F18000FF30BDE8F0875FEACA7006D114F8010BC2
:10F190005146F8F73EFDC5B25DB320782D282AD13F
:10F1A00060785146F8F735FD10F0FF0023D05D2858
:10F1B00021D0A41C5C280AD15FEACA7107D114F8D7
:10F1C000010B5146F8F725FD10F0FF00D9D04D4551
:10F1D00003DC814501DC0120804614F8010B514617
:10F1E000F8F717FDC5B25D2DC3D1002EC1D1B845CA
:10F1F00004D10020C5E74D45EFD1ECE72046C0E73C
:10F2000010B510461A46F2F7DFF9002010BD0000D5
:10F210002DE9F04707461E481C46154600780E4665
:10F2200070B185B17CB1DFF86C804FF00009A08827
:10F2300002282BD200EB800118F8210010BB19E046
:10F240000220BDE8F0870520FBE720681FB1818818
:10F250003A8891420ED11EB101883288914209D17B
:10F2600080682860206868600A4828300089288102
:10F270000020E6E7A088214600F05EF80028E4D1EF
:10F28000C4F80090A088401CA080D0E70A20D8E7EE
:10F29000E00100207C160020F8B505464068244FA8
:10F2A0000C46002648B32349CA68824225D809691A
:10F2B000814222D3F9F784F9F8B128893989884243
:10F2C0001BD1D5E900018A68904216D10020A7F130
:10F2D000280200BF00EB800302EB83035B688B42D4
:10F2E00005D203F580538B4201D9208011E0401CE8
:10F2F00080B20228EED30020F8BD268000960AE0F6
:10F30000009829688068884205D10098686038892B
:10F3100028810120F8BD2088694600F00DF80028FA
:10F32000EED12088401C80B220800228E6D3E2E79C
:10F33000A41600208403002070B50E4600EB800167
:10F34000134800EB81004468306804F5805518B11B
:10F35000418800EB810411E0083410E02946204682
:10F36000F8F71CFE20B1012805D0022807D10DE0D6
:10F370000120346070BD608804EB80040C342946A1
:10F380002046F8F71EFE0028E8D170BD002070BDB1
:10F390007C16002038B50C4600210091014604235C
:10F3A000074A0848FBF73EFD08B10E2038BD064A63
:10F3B00004EB840102EB810101200874002038BDB8
:10F3C0003C140100840300207C160020084670478E
:10F3D00010B50446F7F7AFFD08B1FFF753FB002166
:10F3E0002046F7F7BDFC10B12046FFF7E5FA2046AE
:10F3F00000F022FE2046BDE8104000F001B80000F9
:10F400002DE9F047374CDFF8E080824600264FF0C8
:10F41000040900BF00F004FC00285AD04768606867
:10F4200040686168D1B16168002950D0B8424ED9B6
:10F430006068007E90B1606840694088042809D304
:10F4400060684169A1EB0800810809EB014027A130
:10F45000FCF788FB61682A48FDF7C8F900F0E6FB75
:10F46000054640694188042908D3A0EB08008108BB
:10F4700009EB01403A4623A1FCF778FB6A6819487A
:10F480004FF4960300210830F7F776FD90B10D2870
:10F4900013D023499C20F4F785FA68694188042930
:10F4A000B8D3A0EB0800810809EB01401DA1FCF7CF
:10F4B00059FBAFE7606820B106E0284600F028FD60
:10F4C000EBE75046F7F73CFD6560002EA2D1BDE8A2
:10F4D000F08760680028FAD15046BDE8F047F7F79A
:10F4E0003DBD000028010020AC03002054696D657B
:10F4F0007220707265656D707465642E0000000086
:10F500006812010041637469766174696E672074E2
:10F51000696D6572202843433A2564292E00000056
:10F52000F423010054696D65722065787069726515
:10F5300064206265666F7265207363686564756CCC
:10F54000656420746F205254432E000070B5054648
:10F5500088690C4600284FF4847128460AD0FDF7CC
:10F56000D8FAD5F81805626AE1688854606A401CC8
:10F57000606270BDFDF7CDFAD5F8180570BD1FB5F6
:10F5800001238DF80030CDE90121D0E90012684651
:10F5900090471FBD1FB501238DF80030CDE9012133
:10F5A000D0E90012684690471FBD342800D93420A6
:10F5B000C01C20F00300704770B50E4C0020D2B282
:10F5C0002070201D0C4D0378EB5C1BB1001DFEF775
:10F5D00067F902E00C30FEF717F818B1074A2D2141
:10F5E000F1F78AFE6078002802D021780029FAD04D
:10F5F00070BD0000A4020020DC000020DC3401000B
:10F60000002070472DE9FE4308790C46012804D0FC
:10F61000022809D0032878D178E0B4F80700002840
:10F6200071D0122243497DE0B4F8070000286AD067
:10F63000092800D90920814609264FF00008F3F770
:10F64000F5F925E0686820B93BA14FF42870F4F77C
:10F65000A9F96868406820B937A140F2A120F4F701
:10F66000A1F90027009700E07F1C686801230022B1
:10F67000D0F804C029466846E0470028F4D1297A2A
:10F680003E4401EB080000F0FF082846F3F732FA89
:10F690000500D7D102A8F3F7DBFB0299054689459F
:10F6A00004D925A140F2B620F4F77CF921494A4655
:10F6B00012312846F1F788FF85F804806E80F3F751
:10F6C00041FA18B1E87940F02000E871F3F7AEF99B
:10F6D0000146284880E82202B4F80710C1600020E3
:10F6E000F4F77CF8134980200839F3F743FC040051
:10F6F00005D1104980201039F3F706FB044600209D
:10F70000F4F79AF82046BDE8FE8311E0B4F807004C
:10F710000028F8D0E078B4F80510F4F72DF80100CF
:10F7200006D00A7803B0601CBDE8F043F3F760BB75
:10F730000620E8E7141301002E2E5C2E2E5C2E2EE0
:10F740005C2E2E5C2E2E5C2E2E5C636F6D706F6EA9
:10F75000656E74735C6C69627261726965735C7505
:10F760007362645C6170705F757362645F636F7213
:10F77000652E6300B015002038B50D466846F3F7D6
:10F7800067FB04460098022804D20CA140F26E20C8
:10F79000F4F708F9002020802078174940F0010094
:10F7A000207049784908C90702D040F00200207053
:10F7B00002222146681CF3F71BFB38BD2E2E5C2E5F
:10F7C0002E5C2E2E5C2E2E5C2E2E5C2E2E5C636FFD
:10F7D0006D706F6E656E74735C6C69627261726974
:10F7E00065735C757362645C6170705F757362648D
:10F7F0005F636F72652E630074010020F8B50C46DC
:10F80000070004D13EA140F23730F4F7CBF824B919
:10F810003BA14FF44E70F4F7C5F8607810F0600F1C
:10F820002AD10006454DA0784FF0000626D520B11C
:10F83000062808D008281FD10BE021463846BDE82D
:10F84000F840FFF799BF21463846BDE8F840FFF77A
:10F85000D9BE6846F3F7FCFA01462878052802D09D
:10F86000042803D008E00120087000E00E70012297
:10F87000601CF3F7BDFAF8BD0620F8BD0A28FBD2DC
:10F88000DFE800F00517050C050605050526F3E77A
:10F890001BA140F25B30F4F785F8EDE7B4F8030004
:10F8A0000128E9D1F3F74EF980B1687840F0020001
:10F8B00009E0B4F803000128DED1F3F743F928B1D9
:10F8C000687820F0020068700020F8BD0F20F8BDB5
:10F8D0002878052803D0042801D00820F8BDE07856
:10F8E00018B1012805D00720F8BDF2F7D1FE042099
:10F8F00002E0F2F7E5FE052000F0C4FE3046F8BD58
:10F900002E2E5C2E2E5C2E2E5C2E2E5C2E2E5C2E31
:10F910002E5C636F6D706F6E656E74735C6C696284
:10F920007261726965735C757362645C6170705F4B
:10F93000757362645F636F72652E630074010020EB
:10F94000F8B50546407810F0600F31D120486C7949
:10F95000A978007821B1012923D0032928D111E009
:10F96000052801D0200729D16846F3F771FA064629
:10F970002046FEF733FB308002223146681CF3F745
:10F9800037FAF8BD04F00F01082911D2B5F80310B9
:10F9900071B9052801D0200710D12046FEF704FBDD
:10F9A00014E004F00F01082902D2B5F8031009B1E0
:10F9B0000620F8BD052803D0200701D00820F8BD97
:10F9C0002046FEF7CFF92046FEF720FB0020F8BDC9
:10F9D00074010020FEB50C46050004D12F494FF4F8
:10F9E000D170F3F7DFFF24B92C4940F2A310F3F7ED
:10F9F000D9FF60784FF00606010642D5C0F34111E9
:10FA000011B1012924D125E000F01F0001281FD1E8
:10FA1000A07806281CD10020019002A8F3F718FA5C
:10FA2000064601A80090E278217933462846F2F78D
:10FA30009DFF05280CD00198402803D31749A32027
:10FA4000F3F7B0FF3146601C019AF3F7D1F9FEBD20
:10FA50000620FEBD2846F4F70BFCF4F759F8A17810
:10FA6000212903D1B4F80710072901D03046FEBD83
:10FA7000072200F10C0103B0601CBDE8F040F3F771
:10FA8000B7B9C0F341100028F0D00128E0D103B08D
:10FA900021462846BDE8F04000F046B88024010029
:10FAA000F8B50B4651780646144611F0600F25D183
:10FAB0001C480906A17800781ED511B10A291DD16C
:10FAC00009E005281ED16846F3F7C2F90146002077
:10FAD000088002220CE0052814D16846F3F7B8F933
:10FAE000054619463046F3F7D5FC28700122294611
:10FAF000601CF3F77DF9F8BD0B2901D00620F8BD95
:10FB0000052801D00820F8BDB4F80300FF2801D96A
:10FB10000720F8BDD27819463046BDE8F840F3F723
:10FB20008BBC000074010020F0B585B00D4607467F
:10FB3000F4F79EFBF3F7ECFF0446A8780026202894
:10FB400002D022282FD12BE0B5F8070007282AD1B0
:10FB50003846F4F78DFB0446F3F7DAFFA978017015
:10FB6000E9794170811C01960296009140780190DC
:10FB70000020F3F733FE69460020F3F747FA05004B
:10FB800008D11D4803A90068CDE903040020F3F75C
:10FB9000BBF805460020F3F74FFE284605B0F0BD40
:10FBA000B5F8070008B10620F8E7207DB5F8031086
:10FBB00000F0010001F00105A182A8421AD00DB1A8
:10FBC000022100E00321384601F03AF895B93846A1
:10FBD000F7F76AF8FEF794F83846F7F76EF8FEF78D
:10FBE0008FF8A6612662E6662667666704F128003C
:10FBF000A667A0660020D1E7C81201000022CA60F3
:10FC00004A60054A8A60052803D2044A52F8200057
:10FC100000E000200860704770190100D802002041
:10FC20000148FCF749BE0000681201000148FCF7DA
:10FC30006DBE0000681201002DE9F0410746002565
:10FC4000F5F7BAFC86B2002F25D0002420E000BFD3
:10FC5000F1F762FC0168385D085CC00716D0601CD3
:10FC600006E03A5C8A5CD20706D06D1CADB2401C3F
:10FC700080B2B042F5D309E045B13918751B381987
:10FC80006A1C401CF1F7A0FCAEB20025641CA4B2B3
:10FC9000701E8442DCDBBDE8F08100002DE9F84FE6
:10FCA000DFF8B0809246894606461F460122694623
:10FCB0001846D8F80850F3F7ADFEE8B300980021D5
:10FCC0000446C01C0AE000BF00EA05025AF821C041
:10FCD00008EB8202401C491CC2F80CC0B942F3D3A5
:10FCE000BA46370CF7F732F88346FCF727F8B842E4
:10FCF00004D8194940F27D10F3F754FE601C2840E7
:10FD000008EB800047EA0B41C160D8F80C04474675
:10FD10008047A11C294007EB81012C40C86007EBFC
:10FD20008401C86866F3C5006AF3891069F39F20EF
:10FD300020F00300401C00E002E020F00400C86056
:10FD400098F8200402E000BFFBF7D6FD0028FBD1A5
:10FD5000BDE8F88F541B00202435010070B50C4617
:10FD6000050003D107A15720F3F71CFE1CB905A11C
:10FD70005820F3F717FE21462846BDE87040F1F7FA
:10FD800078BC00002E2E5C2E2E5C2E2E5C64656DE1
:10FD90006F5F636C695F636D64732E6300000000C6
:10FDA00070B50C46050004D108A140F6FD10F3F72C
:10FDB000F9FD24B905A140F6FE10F3F7F3FD216823
:10FDC0002868BDE87040F1F754BC00002E2E5C2E70
:10FDD0002E5C2E2E5C2E2E5C2E2E5C2E2E5C636FE7
:10FDE0006D706F6E656E74735C6C6962726172695E
:10FDF00065735C636C695C6E72665F636C692E63CD
:10FE00000000000070B50546F3F7CEFC124C064624
:10FE10002078F3F7C9FC86420AD02846F3F7C4FCE1
:10FE200020B104F11000FAF71DFC01E0FAF7D8FB4D
:10FE30002846F3F7C6FC06462078F3F7C2FC864254
:10FE400008D02846F3F7BDFC10B1FDF70FFE01E026
:10FE5000FEF7CEFC257070BD500100202DE9F04169
:10FE600014460D00064604D11BA140F22330F3F7DF
:10FE700099FD24B918A14FF44970F3F793FD30466A
:10FE8000F6F72AFE78B9B068FA21878AB0F81880A8
:10FE90003046F6F7F1FEFA213046F6F799FD304686
:10FEA000F6F71AFE10B10620BDE8F081B068808A2E
:10FEB0002880B068008B20802888C01B81B2304623
:10FEC000F6F7F8FD2188A1EB080081B23046F6F77D
:10FED000DFFE0020E8E700002E2E5C2E2E5C2E2E8A
:10FEE0005C2E2E5C2E2E5C2E2E5C636F6D706F6E02
:10FEF000656E74735C6C69627261726965735C6370
:10FF00006C695C6E72665F636C692E630000000052
:10FF100070B50446C06818B90F496120F3F742FD77
:10FF20000E4800250078A8B1A4B1207E90B1A06849
:10FF300008B900202076D4E903108847A06848B1AA
:10FF4000217E39B161680844606021460448FCF7AD
:10FF50004DFC0125284670BDF42301002801002036
:10FF6000681201000B480078002811D00A48026886
:10FF7000521C026009484088032809D308480949EF
:10FF8000401AC008052101EB004007A1FBF7EEBDB8
:10FF900070470000080000200C00002034040020FE
:10FFA000D03D0100C03C0100636F756E7465722026
:10FFB0003D2025640A00000010B504460020F1F73A
:10FFC0004FFE20B16068D0E90021002090476068B2
:10FFD000D0E9002101209047A068224640F26661E6
:10FFE0000068F2F70BFB002805D0BDE8104002A125
:10FFF0001B20F3F7D7BC10BD2E2E5C2E2E5C2E2EB0
:020000040001F9
:100000005C2E2E5C2E2E5C2E2E5C636F6D706F6EE0
:10001000656E74735C6C69627261726965735C634E
:100020006C695C7274745C6E72665F636C695F723B
:1000300074742E63000000002DE9F84F3A4D83469A
:1000400069462868F9F748F90446DFF8E0804FF080
:10005000040900274FF0010A354E61E0207820B1F5
:1000600001282AD0022852D13CE06068017E002994
:100070004DD180F818A05846F6F779FE0146606821
:100080004268511AB1F5350F03D3416821F07F4121
:100090004160254861680830FCF7A8FB6168486941
:1000A0004288042A33D34A68A0EB0800810809EB90
:1000B000014020A1FBF75AFD29E061687068814288
:1000C00000D1776018480830FCF74EFC6068406942
:1000D000418804291BD3A0EB0800810809EB0140EB
:1000E0001AA112E0FFF7A2FD08B10776FAE71B4854
:1000F00086F800A04088032809D319481949401AF6
:10010000C008032101EB004017A1FBF72BFD694656
:100110002868F9F7D6F869462868F9F7DDF8044643
:10012000002C9BD1BDE8F88F60120100AC030020C9
:1001300028010020537461727420726571756573B3
:1001400074202843433A2564292E000053746F70AD
:1001500020726571756573742E000000F80300202D
:10016000583D0100C03C010053746F7020616C6CFD
:1001700020726571756573742E000000F8B5124C1D
:100180000D46064669462068F9F790F8D0B106702A
:10019000456069462068F9F7AAF818B10B48F6F7E8
:1001A000B9FE0DE00A484088022809D309480A49E7
:1001B000401AC008022101EB004008A1FBF7D2FC65
:1001C0000020F8BD0420F8BD6012010030010020BD
:1001D000F8030020583D0100C03C010053636865EE
:1001E00064756C696E6720696E746572727570747F
:1001F000656420616E6F74686572207363686564FE
:10020000756C696E672E0000FEB51A4A6FF0E00546
:100210005368B1FBF3F411684FF46162B4FBF1F37E
:10022000B3FBF2F2554303EB05153C23B5FBF3F3A7
:10023000A3EB031605EB8606B4FBF1F501FB1544B1
:100240004FF47A756543B5FBF1F504EB440C05FBFF
:1002500001F7CCEBC414C7EBC4044FF47A777C43AA
:10026000B4FBF1F10096CDE9015103A1FAF744FB8B
:10027000FEBD0000F40200205B253032643A2530D8
:1002800032643A253032642E253033642C253033E5
:10029000645D200070B50C4605464FF48E71FCF786
:1002A00038FC216AA068415C206A401C2062C5F8C5
:1002B0001C1570BD1FB500228DF8002002918168C9
:1002C00001914261D0E90012684690471FBD0000CD
:1002D0001FB50A4601788DF8001041680191017A36
:1002E0008DF80810C0680390044850F822100838B0
:1002F00050F82220684690471FBD0000E80000200B
:100300000149012008707047A402002010B588B090
:10031000044620220F496846F1F756F91F20009045
:100320004FF0FF300190029003904FF0EB70069079
:100330000CB1094A00E0002269460848FAF77AFA47
:1003400018B1074A1D21F0F7D7FF0448001F447079
:1003500008B010BD5019010001030100A8020020DF
:10036000DC3401002DE9FF470C4605464FF40071CF
:10037000FCF7D5FB01274FF40178002618B34FF4A2
:10038000927949462846FCF7BFFBE0B1494628462A
:10039000FCF7BFFBC5F8088394F8290000B96F602B
:1003A00002208DF80000D5F88004C5F88004039081
:1003B000A0690290E0680190A661E661D4E90012AC
:1003C0006846904728E004212846FCF7A8FB18B3AC
:1003D0004FF484712846FCF797FBE8B12146284684
:1003E000FFF7B4F8616AA069884215D1E06938B1B5
:1003F000E268616AA0612069E6616662E06008E027
:1004000094F8290000B96F60C5F80883A661E26816
:10041000616A2046FFF7B3F84FF48E7841462846CC
:10042000FCF772FB78B1206A6169884202D294F8C5
:10043000280020B341462846FCF76BFB616911B1E7
:100440002046FFF737FF4FF4A27841462846FCF7D5
:100450005BFB002818D041462846FCF75AFB94F86D
:10046000290000B12F60A06900280DD0A661E268C4
:10047000616A04B02046BDE8F047FFF780B8214626
:100480002846FFF707FFDEE7BDE8FF871FB50A46EE
:1004900001788DF8001041680191017A8DF80810FB
:1004A000C0680390044850F82210083850F8222001
:1004B000684690471FBD0000E80000202DE9FF417D
:1004C0000C464FF4927706463946FCF72EFB002582
:1004D000B8B139463046FCF72DFB02208DF80000FC
:1004E000D6F88004C6F880040390D6F83C05029044
:1004F000E0680190A561E561D4E900126846904783
:1005000023E04FF4887739463046FCF70EFBE0B124
:1005100039463046FCF70EFBD6F83C15A0698842F8
:1005200013D1E06960B1E268D6F8000220F0200043
:10053000C6F80002E069A0612069E561E06001E0C1
:10054000A561E2682046FFF725F84FF4A277394607
:100550003046FCF7EAFA68B139463046FCF7EAFA69
:10056000A06938B1A561E561D6F83C152046E2687E
:10057000FFF710F84FF4907739463046FCF7D5FA7C
:10058000002812D039463046FCF7D4FA60690028BA
:100590000BD0D6F84C058DF800500290A068019061
:1005A0006561D4E9001268469047BDE8FF8100000C
:1005B00010B50248F8F7A6FE002010BD6802002022
:1005C0002DE9F05F8346DDE90A4A994690460D46DB
:1005D0000846012703E000BFB0FBF8F07F1C404550
:1005E000FAD2B94500D94F465FEACA7012D18CB130
:1005F0005FEA8A7002D5B9F1000F01D0202607E02A
:10060000302605E031465846641EF3F747FA0CB130
:10061000A742F7D35FF00106B9F1010F02D9A9F1A2
:10062000010903E0B5FBF6F0404502D306FB08F6EE
:10063000F2E7DFF83C9000BFB5FBF6F000FB165583
:1006400019F800105846F3F729FAB6FBF8F6002E11
:10065000F2D15FEACA7009D0002C07D0A74205D2B8
:1006600020215846641EF3F719FAF5E7BDE8F09F1C
:10067000A616010002480068002800D0012070473B
:100680007C01002007490A78824209D008700528B9
:1006900003D0487820F0020048700348F2F7E2BC2B
:1006A0007047000074010020001301002DE9FE4F87
:1006B0008046486891464FF0010A0C4628B92068E8
:1006C000F2F718FA08B9A06890B1B9F1400F04D94F
:1006D00037A14FF4B870F3F765F900260096FDF7DF
:1006E000D7FDE768834648464F4559D9074657E046
:1006F0004FF0000AC8F800A0C8F804A054E0A068B1
:10070000B84201D93D4600E00546616839B10BEBBE
:1007100006002A46F0F758FF002060600CE058B150
:1007200021680BEB06022B464868D0F804C004F1A0
:100730001000E04701200090A068A7EB0507411BCF
:10074000A160E0682E44A0EB0500E06005D10098B0
:1007500018B12068F2F7CEF92060E06810B1A06807
:10076000F0B902E04FF0000A1AE0206800284FF0CC
:10077000000001D0019009E060609EB14E4511D2A9
:100780004FF0000A0EE0A068401CA0602168012321
:1007900000224868456801A8A8470028F3D12061D5
:1007A000002FACD1C8E900B65046BDE8FE8F00006E
:1007B0002E2E5C2E2E5C2E2E5C2E2E5C2E2E5C2E73
:1007C0002E5C636F6D706F6E656E74735C6C6962C6
:1007D0007261726965735C757362645C6170705F8D
:1007E000757362645F636F72652E63000249002057
:1007F00008600249C87070471C7C02401401002048
:1008000070B50446010600F00F0502D5092D09D385
:1008100001E0092D08D308A140F27520F3F7C2F8D2
:10082000200601D5042000E0282000EB8500BDE86B
:100830007040FCF757BB00002E2E5C2E2E5C2E2E37
:100840005C2E2E5C2E2E5C2E2E5C6D6F64756C659E
:10085000735C6E7266785C647269766572735C73E1
:1008600072635C6E7266785F757362642E630000FB
:100870002DE9F04F544D89B0E87800284BD18046DF
:100880004FF0010943E000BF10F0012F01D000F04C
:10089000012090FAA0F0B0FA80F63046F3F7B2F8F3
:1008A0008346F6F7A1FC0446006820B947A14FF43F
:1008B000A760F3F777F85FEA0B6007D5D4E900315A
:1008C000A28902A89847002836D037E05846FDF79D
:1008D000C5FCD4E9007182460346A28902A8B84744
:1008E00007460298D0B1039951451DD20220A0734A
:1008F00009FA06F0C14334480C30FCF7FFFA4148CE
:10090000006B00908DF802B0696868468847D5E9A9
:1009100002100840B8D109B0BDE8F08F039850B17B
:100920002AA140F2545004E0514504D027A140F2DE
:100930006350F3F737F80FB9C4F8008032498220CA
:10094000086085F80390A96809FA06F08143A96058
:10095000A06803990844A060DDE902125846FCF73C
:10096000EFF8FDF782FC18B3284D4FF4827420464F
:10097000FCF79AFA5846FFF743FF0220FCF7A4FD64
:100980002046FCF789FA0028F1D01E2000E0022062
:10099000FCF79AFD28688006F9D50120FCF794FD44
:1009A0005846FDF757FBFCF777FA0028DFD0B2E78F
:1009B0005846FFF725FF5846FDF74CFBFCF76CFA4D
:1009C0000028F8D0A7E70000140100202E2E5C2E8E
:1009D0002E5C2E2E5C2E2E5C2E2E5C2E2E5C6D6FD1
:1009E00064756C65735C6E7266785C64726976655A
:1009F00072735C7372635C6E7266785F7573626447
:100A00002E630000901101001C7C024074740240AF
:100A10002DE9F84307460020F2F7E0FE3846F6F7E6
:100A2000E3FB0646374D38064FF000084FF0030948
:100A30004FF001041FD43846F6F7C0FBE96804FA0A
:100A400000F0884303D03846FDF7DCFE10E038465E
:100A5000C6F80080F6F7B2FBE96804FA00F08143BB
:100A60003846E960F6F7AAFB8440A868A043A8606E
:100A700086F80E9040E007F00F01082916D2224BAD
:100A800040F2B472181D802F07D002EB41011960AB
:100A90000168C9B241F0020104E01A600168C9B2FC
:100AA00041F0040102680A43026000683846F6F724
:100AB00085FBD5E9022104FA00F061EA020108424F
:100AC0001AD03846F6F77AFBE96804FA00F0814359
:100AD0003846E960F6F772FB8440A8680443AC60CE
:100AE0000A48C6F8008086F80E90006800908DF8DD
:100AF0000270696868468847BDE8F8430020F2F74D
:100B00009BBE0000140100200078024090110100FB
:100B10002DE9F041104EB068040CF0682404044341
:100B2000012712E094FAA4F0B0FA80F52846F2F713
:100B300069FF00F00F00082804D22846F2F762FF90
:100B4000FFF766FF07FA05F08443002CEAD140F274
:100B5000FF10B060BDE8F08114010020012238B51B
:100B60008A400C490C468B6813438B606168E468CB
:100B7000094B050602EA040203D5002A09D19A6945
:100B800002E0002A05D1DA6900928DF80200684679
:100B9000884738BD14010020901101002DE9F04173
:100BA0001148F2F781FC18B1104AD221F0F7A4FBEA
:100BB0000F48F1F747FE18B10C4AD721F0F79CFB1C
:100BC000F2F732FD18B1094ADC21F0F795FB064E29
:100BD0004FF47A74383EA701751C3846A847641E46
:100BE000FAD1BDE8F081000058110100188E000014
:100BF0004816010002498020C1F800027047000039
:100C000004E000E010B5082809D009280FD00A2810
:100C100011D00E2813D1BDE81040F2F721B9FDF72D
:100C2000C3FC00280BD1BDE81040F2F743B9BDE882
:100C30001040F2F797BDBDE81040F2F75BBD10BD64
:100C400070B50C460546F3F713FBC269002A04D0C1
:100C500021462846BDE87040104770BD02494968EA
:100C6000002900D008477047641500201CB50029F2
:100C700015D0826892F823208A4210D008A3D3E9C5
:100C80000023CDE9002301F12F028DF803208268B3
:100C900082F8231000696A4603A1F9F72DFE1CBDF6
:100CA0001B5B34006D000000257300001CB58268DA
:100CB000A9B192F822208A4210D00EA2D2E90032C5
:100CC000CDE9003201F12F028DF80520826882F80B
:100CD000221000696A4609A1F9F70EFE1CBD82F8D0
:100CE0002210006902B0064ABDE8104003A1F9F7DE
:100CF00003BE00001B5B313B33006D002573000019
:100D0000FD15010010B50446F4F756FC002105E07E
:100D1000625C3F2A06D02A2A04D0491C8142F7D3BC
:100D2000002010BD012010BD002070472DE9FC41BE
:100D300080461C4617460E460C48089DF8F7EBFA0D
:100D400010B11120BDE8FC81A20839463046FBF7FE
:100D500015FA0648F8F7D6FA33463A4601214046D6
:100D6000CDE90045F6F79EFC0020EBE76802002085
:100D70002DE9FC47064636489846144600780D464D
:100D80004FF0000978B37DB32888A0F57F41FF3983
:100D900031D0688848B36868F7F712FC68B374B359
:100DA0002088ADF80000678801A8FEF781F80400EC
:100DB0002FD084F800804FF0000A84F816A0BDF808
:100DC0000000A08268682061214801210C38F8F7F2
:100DD000A5FAE060288820816888A080E780B8F1C3
:100DE000030F1DD020E001E003E004E00220BDE895
:100DF000FC870520FBE70420F9E70320F7E7FFE77E
:100E00002889694687B2384600F0ACF80028EED150
:100E1000CAE7BDF80010384600F098F80820E6E769
:100E20000420A0753068A061A4F80A9001A8FEF71C
:100E30004DF846B1C6F804A0E1680648316086F86E
:100E40000AA000893081FEF721F90020CFE70000D9
:100E5000E0010020A41600202DE9F8430D46898A00
:100E6000374A01EB810102EB810630B12946304659
:100E7000FDF7A4FE0120BDE8F883318970680024E5
:100E800000EB81072E48A97DA8384FF00E080729EE
:100E90004ED2DFE801F00D2D162404404A004460D4
:100EA000A969016026482749A838FEF7F5F930B14D
:100EB0000220A875042339462A1D009423E00A2045
:100EC000D9E728692A4608B1032000E0012090757F
:100ED000042305F10C0207F10801009413E001203E
:100EE000A8750094E88807F10C0183002A690AE0DC
:100EF00028782A4603280CD006209075042305F193
:100F00000802391D00941048F9F78CFFA8B1444637
:100F10000FE00520F1E70621A9750A494068098814
:100F2000FEF738FA040004D107E041F61D5400E052
:100F30000F2429463046FDF741FE20469BE700007E
:100F40007C160020C00100208403002001EB8102F8
:100F5000034901EB82014A89101AC01E488170477B
:100F60007C16002070B5C01C82B240F2FE30824276
:100F700001D3092070BD114B00204FF4806500BFE4
:100F800000EB800413F8246096B903EB84063489DF
:100F9000768914443444A4B2AC4209D2088000EBF0
:100FA000800003EB8000418911444181002070BD25
:100FB000401C80B20228E3D3072070BD7C160020BD
:100FC000941B0100701B010000000000D1640000B0
:100FD00000000000D80F0100E01B0100C01B010051
:100FE00000000000F9650000E41B01009C1B0100EB
:100FF0000000000035660000000000000000000056
:101000000000000000000000EC1B0100EC1B0100D0
:10101000D00F01003D650000F41B0100F41B01002E
:10102000000000006D6600000000000030100100AC
:101030004C1C0100141C010000000000ED5B0000CE
:10104000541C01002C1C010000000000255C000065
:10105000441C0100FC1B0100000000005D5C00005E
:101060000000000000000000000000000000000080
:10107000801C01005C1C010028100100E55A0000E2
:10108000641D0100881C010000000000C166000012
:1010900001000000D170000000000000A01001005D
:1010A000C41E01009C1D010000000000095D00003D
:1010B000C81E0100741D0100901001009D5E00001B
:1010C000D01E0100881D010090100100695F000022
:1010D000D81E0100A01E0100000000005D6000009D
:1010E0000000000000000000000000000000000000
:1010F000041F0100E01E010098100100955C000033
:101100002C230100282301000C2301000000000013
:10111000200000200000000000000000000000008F
:101120000338FDD87047000034230100641101002A
:1011300058070020903C01003C000020D83D0100F1
:1011400040230100701101005C0C0020A03C010054
:1011500084000020F43D010065300000050C010012
:10116000000000006C160100B000002068000020A4
:1011700080160100500C00206C11010000000000DE
:10118000000000500003005041D50000E1D70000EE
:101190000600000301000000060000000600000039
:1011A0000600000006000000060000000600000126
:1011B0000500000002000000030000000400000021
:1011C00006000002F175000031750000C1720000D8
:1011D000F5720000FB72000001730000077300004D
:1011E0000D730000137300001973000055740000A4
:1011F0001F73000025730000857300008B730000CF
:1012000091730000977300009D730000A3730000AA
:10121000A9730000B1730000E97400003575000087
:1012200071740000FD73000008010C01100114012D
:1012300018011C01200124012C0130013401380166
:101240003C014001440148014C01500102030405E6
:10125000060708090B0C0D0E0F10111213140000D5
:101260003801002001000600000000004C010020B1
:10127000B9680000800000000B81000082000000BF
:1012800083000000840D0E03030000000B0000002B
:101290000C008500000008000000090000000A00A2
:1012A00000000000C53500006530000000000000AF
:1012B00000000000353B0000CD3B000000000000B6
:1012C0000000000000000000F542000000000000E7
:1012D000E13A000000000000E13A000000000000D8
:1012E0001D4400000000000000000000000000009D
:1012F00001000000000000000A00000000000000E3
:101300000F00000001F6000000000000AD06010023
:10131000B0150020120100020000004015190F5204
:1013200000010102030109020000000104C03200B3
:10133000792B000000000000000000000000000009
:1013400000000000C8150020301301000100020356
:10135000008000000000040309044E6F726469639A
:101360002053656D69636F6E647563746F72006E90
:101370005246353220555342204344432044656D44
:101380006F0030303030303030303030303000446A
:10139000656661756C7420636F6E666967757261EE
:1013A00074696F6E0055736572203100000102038D
:1013B000040500004C1C0100142501000000000081
:1013C00085660000A8290100242501000000000016
:1013D000416100004C25010034250100000000009F
:1013E000715A000000000000EC130100A829010060
:1013F00084250100000000008162000058250100E2
:101400006025010000000000A5630000000000004E
:10141000000000000000000000000000A8250100FE
:10142000B0250100E41301000000000000000000EE
:101430000338FDD870470000AC0100200000FFFF1A
:10144000DEC0ADDEFF011EF1DEC0ADDEFE011EF12D
:1014500000000000581401005C2B0100382B010033
:10146000000000007995000000000000000000006E
:101470000000000000000000642B01006C2B010044
:101480005014010079950000CDB30000AFB3000007
:1014900091B30000000000009C1401004C2C0100DE
:1014A000342C010000000000F59A0000502C0100CF
:1014B0001C2C0100000000001F9B00000000000029
:1014C000000000000000000000000000000000001C
:1014D000D41401004C2C0100542C01000000000029
:1014E000E19B0000502C0100B02C01000000000026
:1014F0000B9C000000000000000000000000000045
:1015000000000000000000000C1501004C1C010050
:10151000F02C01000000000075990000D81E0100A9
:10152000C42C010000000000A5990000000000008C
:1015300000000000000000000000000000000000AB
:1015400044150100602D0100402D0100941401009C
:101550002D9A0000582D01001C2D0100CC14010013
:10156000499B0000682D0100302D01000415010089
:1015700009990000000000000000000000000000C9
:1015800000000000000000008C150100B42D0100D7
:10159000702D010000000000359E000000000000DA
:1015A000000000000000000000000000CC2D010041
:1015B000BC2D01000000000085970000F82D0100FF
:1015C000D42D01003C15010059980000102E010097
:1015D000FC2D010000000000359C0000B82E010029
:1015E000182E010084150100119D0000000000006C
:1015F0001B37001B38002C20001B5B4A001B5B6D57
:1016000000082008001B5B4B001B5B4800202D20BE
:10161000001B5B48001B5B366E001B5B324A001BE5
:101620005B324A00000000000000000000000000E3
:101630000338FDD870471B5B3F336C002D682C20AE
:101640002D2D68656C700000B4160020B4120100E6
:101650000200010601020482810100000000010174
:10166000810100003D4400005C02002009480000A8
:1016700049480000FD4700004D4800001D4800009B
:101680008950000011510000315000001951000034
:10169000AD5000000000000000000000000000004D
:1016A0000338FDD870473031323334353637383966
:1016B0004142434445466E72665F6673746F726161
:1016C00067655F696E6974006E72665F6673746FDA
:1016D000726167655F756E696E6974006E72665FD0
:1016E0006673746F726167655F72656164006E72C4
:1016F000665F6673746F726167655F777269746540
:10170000006E72665F6673746F726167655F6572A3
:10171000617365000010000004000000010000007B
:1017200095820000B105010001F200002D0D0100BD
:1017300079720000CDF30000290D0100A1850000A1
:1017400000000000481701005C2B0100AC2F0100D5
:101750000000000085C6000000000000000000003E
:101760000000000000000000D02F01006C2B0100E1
:101770004017010085C60000556E6B6E6F776E20B6
:101780006572726F7220636F646500000000000074
:10179000B8330100010000007832010002000000AF
:1017A0006C30010003000000EC3201000400000076
:1017B0004033010005000000203201000600000057
:1017C000BC310100070000002833010008000000C0
:1017D0003432010009000000983201000A000000C4
:1017E000A03301000B000000543001000C00000089
:1017F0004C3201000D000000F03301000E0000002B
:10180000183301000F0000005433010010000000E5
:101810008833010011000000043401008000000042
:10182000D43101008100000010310100820000006D
:10183000D030010083000000B030010084000000BF
:10184000EC30010085000000F83101008600000046
:1018500000330100900000009C3101009100000065
:101860009030010092000000603201000082000010
:101870006833010001820000B432010002820000DE
:10188000D0320100008400002C31010001840000EE
:10189000C43301000284000074310100038400009D
:1018A000503101002D2D2D2D2D2D2D2D2D2D2D4384
:1018B000524153484C4F472D2D2D2D2D2D2D2D2D83
:1018C0002D2D2D0D0A000000290000000000000051
:1018D00000000000C1B50000BDB50000B1B50000BA
:1018E000A5B400002DB4000021B4000000000000E9
:1018F000F4180100CC2D010030340100000000007C
:10190000BF780000143401001C3401000000000006
:10191000417900005C2B01003C3401000000000014
:10192000A17900000000000000000000000000009D
:1019300000000000503401005C340100EC1801008C
:1019400000000000F9B60000CDB60000C9B60000E6
:10195000FFFFFFFFFFFFFFFFFFFFFFFFFFFFFFFF97
:1019600000000000000000000000D6010601000099
:1019700001000000A591000000000000A019010076
:10198000BC1A00207F0000003C1B00206E10273492
:10199000380400200000000001000000FDFB0000F2
:1019A000783601000436010070190100E585000059
:1019B000703601008035010098190100E5850000AE
:1019C000A03601008036010000000000F185000013
:1019D000B43601009036010000000000FD850000D3
:1019E0005C2B0100A4360100000000000986000005
:1019F00000000000000000000000000000000000E7
:101A000001000000BD39000000000000101A0100B4
:101A100024370100BC3601000000000039870000B7
:101A20002C370100F036010000000000A9870000FB
:101A300000000000000000000000000000000000A6
:101A400000000000481A0100683701003437010027
:101A5000001A010000000000703701007837010013
:101A6000081A010000000000783601000436010069
:101A700070190100958A0000703601008035010060
:101A800098190100958A0000A036010080360100F7
:101A900000000000A58A0000B43601009036010065
:101AA00000000000AF8A00009437010050370100A9
:101AB00000000000718600005C2B0100A4360100CC
:101AC00000000000B98A00000000000000000000D3
:101AD0000000000000000000A4370100A83701004A
:101AE000401A010015860000004040404040404040
:101AF00040404141414141404040404040404040E1
:101B00004040404040404040400502020202020284
:101B100002020202020202020220202020202020D3
:101B200020202002020202020202909090909090E7
:101B300010101010101010101010101010101010A5
:101B40001010101002020202020288888888888819
:101B50000808080808080808080808080808080805
:101B6000080808080202020240000000E91A010009
:101B70005072696E74204E6F726469632053656D94
:101B800069636F6E647563746F72206C6F676F2E1C
:101B9000000000006E6F7264696300005072696E2D
:101BA00074206561636820706172616D657465722F
:101BB00020696E206E6577206C696E652E000000CE
:101BC0005072696E7420616C6C20656E746572650C
:101BD0006420706172616D65746572732E0000001F
:101BE000616C6C00706172616D0000007072696EF2
:101BF00074000000707974686F6E000053746F7029
:101C0000207365636F6E647320636F756E746572A5
:101C10002E0000005265736574207365636F6E64F7
:101C20007320636F756E7465722E00005374617259
:101C300074207365636F6E647320636F756E746573
:101C4000722E000073746F7000000000726573657F
:101C50007400000073746172740000004469737052
:101C60006C6179207365636F6E6473206F6E20748E
:101C700065726D696E616C2073637265656E0000DC
:101C8000636F756E74657200436F6D6D616E642075
:101C90007465737473206E72665F737461636B5FD7
:101CA0006775617264206D6F64756C652E20557068
:101CB0006F6E20636F6D6D616E642063616C6C206C
:101CC000737461636B2077696C6C206265206F763A
:101CD0006572666C6F77656420616E64206D696300
:101CE000726F636F6E74726F6C6C65722073686173
:101CF0006C6C206C6F672070726F706572207265FB
:101D000073657420726561736F6E2E200A0D546FB7
:101D1000206F62736572766520737461636B5F67B1
:101D20007561726420657865637574696F6E2C20C7
:101D3000737461636B207368616C6C2062652073DF
:101D4000657420746F2076616C7565206C6F7765A3
:101D500072207468616E20323030303020627974C5
:101D600065732E00737461636B5F6F766572666C6A
:101D70006F77000045786563757465206120636F37
:101D80006D6D616E642E000052656D6F7665206129
:101D900020636F6D6D616E642E00000041646420ED
:101DA00061206E65772064796E616D696320636F71
:101DB0006D6D616E642E0A4578616D706C6520757D
:101DC000736167653A205B2064796E616D69632099
:101DD0006164642074657374205D2077696C6C2085
:101DE00061646420612064796E616D696320636F52
:101DF0006D6D616E64202774657374272E0A496EB9
:101E00002074686973206578616D706C652C20633F
:101E10006F6D6D616E64206E616D65206C656E67BF
:101E20007468206973206C696D6974656420746FCF
:101E30002033322063686172732E20596F752063DE
:101E4000616E2061646420757020746F20323020D0
:101E5000636F6D6D616E64732E20436F6D6D616E87
:101E6000647320617265206175746F6D617469635C
:101E7000616C6C7920736F7274656420746F206577
:101E80006E7375726520636F727265637420434C64
:101E90004920636F6D706C6574696F6E2E00000071
:101EA00053686F7720616C6C2061646465642064A2
:101EB000796E616D696320636F6D6D616E64732E01
:101EC00000000000616464006578656375746500F6
:101ED00072656D6F7665000073686F7700000000B3
:101EE00044656D6F6E7374726174652064796E61A0
:101EF0006D696320636F6D6D616E642075736167DA
:101F0000652E000064796E616D6963000A202020EF
:101F10002020202020202020202E636F3A2E2020F9
:101F200020202020202020202020202020202020B1
:101F30002027786F2C202020202020202020200AFD
:101F40002020202020202020202E2C636F6C6C6C01
:101F50006C632C2E202020202020202020202020D8
:101F60002027636B4F4F6F3A3A2C2E2E20202020D3
:101F700020200A2020202020202E3A6F6F6F6F6FC4
:101F80006C6C6C6C6C6C6C6C3A272E2020202020C2
:101F90002E3B644F4F4F4F4F4F6F3A3A3A3B3B3BCC
:101FA000272E2020200A202020276F6B7864646F62
:101FB0006F6F6F6C6C6C6C6C6C6C6C6C6C6C6C3B89
:101FC00027636B4F4F4F4F4F4F4F4F4F6F3A3A3A38
:101FD0003B3B3B2C2C2C27200A2020204F4F4F6BC3
:101FE00078646F6F6F6F6C6C6C6C6C6C6C6C6C6C21
:101FF0006C6C6C6C6C6C64784F4F4F4F4F4F4F6FE5
:102000003A3A3A3B3B3B2C2C2C272E0A2020204FDF
:102010004F4F4F4F4F6B646F6F6C6C6C6C6C6C6C94
:102020006C6C6C6C6C6C6C6C6C6C6C6C6C64784F09
:102030004F4F6F3A3A3A3B3B3B2C2C2C272E0A2031
:1020400020204F4F4F4F4F4F4F4F4F6B786F6C6C5F
:102050006C6C6C6C6C6C6C6C6C6C6C6C6C6C6C6CC0
:102060006363636C646C3A3A3A3B3B3B2C2C2C2701
:102070002E0A2020204F4F4F4F4F4F4F4F4F4F4F63
:102080004F4F78646F6C6C6C6C6C6C6C6C6C6C6CC3
:102090006C6C6C63636363633A3A3A3A3B3B3B2C48
:1020A0002C2C272E0A2020204F4F4F4F4F4F4F4FA1
:1020B0004F4F4F4F4F4F4F4F6B78646C6C6C6C6C45
:1020C0006C6C6C6C6C6C63636363633A3A3A3A3B76
:1020D0003B3B2C2C2C272E0A2020206B4F4F4F4FA0
:1020E0004F4F4F4F4F4F4F4F4F4F4F4F4F4F4F6BE4
:1020F000646F6C6C6C6C6C6C6C63636363633A3AB6
