Component: ARM Compiler 5.06 update 6 (build 750) Tool: armlink [4d35ed]

==============================================================================

Section Cross References

    arm_startup_nrf52.o(RESET) refers to arm_startup_nrf52.o(STACK) for __initial_sp
    arm_startup_nrf52.o(RESET) refers to arm_startup_nrf52.o(.text) for Reset_Handler
    arm_startup_nrf52.o(RESET) refers to nrfx_prs.o(i.UARTE0_UART0_IRQHandler) for UARTE0_UART0_IRQHandler
    arm_startup_nrf52.o(RESET) refers to nrfx_twim.o(i.SPIM0_SPIS0_TWIM0_TWIS0_SPI0_TWI0_IRQHandler) for SPIM0_SPIS0_TWIM0_TWIS0_SPI0_TWI0_IRQHandler
    arm_startup_nrf52.o(.text) refers to system_nrf52.o(i.SystemInit) for SystemInit
    arm_startup_nrf52.o(.text) refers to entry.o(.ARM.Collect$$$$00000000) for __main
    system_nrf52.o(i.SystemCoreClockUpdate) refers to system_nrf52.o(.data) for .data
    system_nrf52.o(i.SystemInit) refers to system_nrf52.o(.data) for .data
    main.o(i.LM75B_set_mode) refers to main.o(i.nrf_drv_twi_tx) for nrf_drv_twi_tx
    main.o(i.LM75B_set_mode) refers to app_error.o(i.app_error_handler_bare) for app_error_handler_bare
    main.o(i.LM75B_set_mode) refers to main.o(.constdata) for .constdata
    main.o(i.LM75B_set_mode) refers to main.o(.data) for .data
    main.o(i.main) refers to nrf_log_frontend.o(i.nrf_log_init) for nrf_log_init
    main.o(i.main) refers to app_error.o(i.app_error_handler_bare) for app_error_handler_bare
    main.o(i.main) refers to nrf_log_default_backends.o(i.nrf_log_default_backends_init) for nrf_log_default_backends_init
    main.o(i.main) refers to nrf_log_frontend.o(i.nrf_log_frontend_std_0) for nrf_log_frontend_std_0
    main.o(i.main) refers to nrf_log_frontend.o(i.nrf_log_frontend_dequeue) for nrf_log_frontend_dequeue
    main.o(i.main) refers to main.o(i.twi_init) for twi_init
==============================================================================

Removing Unused input sections from the image.

    Removing arm_startup_nrf52.o(HEAP), (8192 bytes).
    Removing system_nrf52.o(.rev16_text), (4 bytes).
    Removing system_nrf52.o(.revsh_text), (4 bytes).
    Removing system_nrf52.o(.rrx_text), (6 bytes).
    Removing system_nrf52.o(i.SystemCoreClockUpdate), (16 bytes).
    Removing main.o(.rev16_text), (4 bytes).
    Removing main.o(.revsh_text), (4 bytes).
    Removing main.o(.rrx_text), (6 bytes).
    Removing boards.o(.rev16_text), (4 bytes).
    Removing boards.o(.revsh_text), (4 bytes).
    Removing boards.o(.rrx_text), (6 bytes).
    Removing boards.o(i.bsp_board_button_idx_to_pin), (12 bytes).
    Removing boards.o(i.bsp_board_button_state_get), (32 bytes).
    Removing boards.o(i.bsp_board_init), (84 bytes).
    Removing boards.o(i.bsp_board_led_idx_to_pin), (12 bytes).
    Removing boards.o(i.bsp_board_led_invert), (36 bytes).
    Removing boards.o(i.bsp_board_led_off), (16 bytes).
    Removing boards.o(i.bsp_board_led_on), (16 bytes).
==============================================================================

Image Symbol Table

    Local Symbols

    Symbol Name                              Value     Ov Type        Size  Object(Section)

    RESET                                    0x00000000   Section      512  arm_startup_nrf52.o(RESET)
    ../clib/microlib/ctype/ctype.c           0x00000000   Number         0  isgraph_o.o ABSOLUTE
    ../clib/microlib/ctype/ctype.c           0x00000000   Number         0  isalpha_o.o ABSOLUTE
    ../clib/microlib/ctype/ctype.c           0x00000000   Number         0  isalnum_o.o ABSOLUTE
    ../clib/microlib/ctype/ctype.c           0x00000000   Number         0  iscntrl_o.o ABSOLUTE
    ../clib/microlib/ctype/ctype.c           0x00000000   Number         0  isdigit_o.o ABSOLUTE
    ../clib/microlib/ctype/ctype.c           0x00000000   Number         0  isspace_o.o ABSOLUTE
    ../clib/microlib/ctype/ctype.c           0x00000000   Number         0  ctype_o.o ABSOLUTE
    ../clib/microlib/ctype/ctype.c           0x00000000   Number         0  islower_o.o ABSOLUTE
    ../clib/microlib/ctype/ctype.c           0x00000000   Number         0  isprint_o.o ABSOLUTE
    ../clib/microlib/ctype/ctype.c           0x00000000   Number         0  ispunct_o.o ABSOLUTE
    ../clib/microlib/ctype/ctype.c           0x00000000   Number         0  isupper_o.o ABSOLUTE
    ../clib/microlib/ctype/ctype.c           0x00000000   Number         0  isxdigit_o.o ABSOLUTE
    ../clib/microlib/ctype/ctype.c           0x00000000   Number         0  isblank_o.o ABSOLUTE
    ../clib/microlib/init/entry.s            0x00000000   Number         0  entry5.o ABSOLUTE
    ../clib/microlib/init/entry.s            0x00000000   Number         0  entry11b.o ABSOLUTE
    ../clib/microlib/init/entry.s            0x00000000   Number         0  entry11a.o ABSOLUTE
    ../clib/microlib/init/entry.s            0x00000000   Number         0  entry9a.o ABSOLUTE
    ../clib/microlib/init/entry.s            0x00000000   Number         0  entry.o ABSOLUTE
    ../clib/microlib/init/entry.s            0x00000000   Number         0  entry10b.o ABSOLUTE
    ../clib/microlib/init/entry.s            0x00000000   Number         0  entry10a.o ABSOLUTE
    ../clib/microlib/init/entry.s            0x00000000   Number         0  entry2.o ABSOLUTE
    ../clib/microlib/init/entry.s            0x00000000   Number         0  entry9b.o ABSOLUTE
    ../clib/microlib/init/entry.s            0x00000000   Number         0  entry7b.o ABSOLUTE
    ../clib/microlib/init/entry.s            0x00000000   Number         0  entry8b.o ABSOLUTE
    ../clib/microlib/init/entry.s            0x00000000   Number         0  entry8a.o ABSOLUTE
    ../clib/microlib/init/entry.s            0x00000000   Number         0  entry7a.o ABSOLUTE
    ../clib/microlib/stdio/fflush.c          0x00000000   Number         0  fflush.o ABSOLUTE
    ../clib/microlib/stdio/fputc.c           0x00000000   Number         0  fputc.o ABSOLUTE
    ../clib/microlib/stdio/semi.s            0x00000000   Number         0  semi.o ABSOLUTE
    ../clib/microlib/stdio/streams.c         0x00000000   Number         0  stdout.o ABSOLUTE
    ../clib/microlib/string/memcpy.c         0x00000000   Number         0  memcpya.o ABSOLUTE
    ../clib/microlib/string/memcpy.c         0x00000000   Number         0  memcpyb.o ABSOLUTE
    ../clib/microlib/string/memset.c         0x00000000   Number         0  memseta.o ABSOLUTE
    ../clib/microlib/string/strcmp.c         0x00000000   Number         0  strcmp.o ABSOLUTE
    ../clib/microlib/string/strcpy.c         0x00000000   Number         0  strcpy.o ABSOLUTE
    ../clib/microlib/string/strlen.c         0x00000000   Number         0  strlen.o ABSOLUTE
    ../clib/microlib/stubs.s                 0x00000000   Number         0  iusesemip.o ABSOLUTE
    ../clib/microlib/stubs.s                 0x00000000   Number         0  useno.o ABSOLUTE
    ..\..\..\..\..\..\components\boards\boards.c 0x00000000   Number         0  boards.o ABSOLUTE
    ..\..\..\..\..\..\components\libraries\atomic\nrf_atomic.c 0x00000000   Number         0  nrf_atomic.o ABSOLUTE
    ..\..\..\..\..\..\components\libraries\balloc\nrf_balloc.c 0x00000000   Number         0  nrf_balloc.o ABSOLUTE
    ..\..\..\..\..\..\components\libraries\log\src\nrf_log_backend_rtt.c 0x00000000   Number         0  nrf_log_backend_rtt.o ABSOLUTE
    ..\..\..\..\..\..\components\libraries\log\src\nrf_log_backend_serial.c 0x00000000   Number         0  nrf_log_backend_serial.o ABSOLUTE
    ..\..\..\..\..\..\components\libraries\log\src\nrf_log_backend_uart.c 0x00000000   Number         0  nrf_log_backend_uart.o ABSOLUTE
    ..\..\..\..\..\..\components\libraries\log\src\nrf_log_default_backends.c 0x00000000   Number         0  nrf_log_default_backends.o ABSOLUTE
    ..\..\..\..\..\..\components\libraries\log\src\nrf_log_frontend.c 0x00000000   Number         0  nrf_log_frontend.o ABSOLUTE
    ..\..\..\..\..\..\components\libraries\log\src\nrf_log_str_formatter.c 0x00000000   Number         0  nrf_log_str_formatter.o ABSOLUTE
    ..\..\..\..\..\..\components\libraries\memobj\nrf_memobj.c 0x00000000   Number         0  nrf_memobj.o ABSOLUTE
    ..\..\..\..\..\..\components\libraries\ringbuf\nrf_ringbuf.c 0x00000000   Number         0  nrf_ringbuf.o ABSOLUTE
    ..\..\..\..\..\..\components\libraries\strerror\nrf_strerror.c 0x00000000   Number         0  nrf_strerror.o ABSOLUTE
    ..\..\..\..\..\..\components\libraries\util\app_error.c 0x00000000   Number         0  app_error.o ABSOLUTE
    ..\..\..\..\..\..\components\libraries\util\app_error_handler_keil.c 0x00000000   Number         0  app_error_handler_keil.o ABSOLUTE
    ..\..\..\..\..\..\components\libraries\util\app_error_weak.c 0x00000000   Number         0  app_error_weak.o ABSOLUTE
    ..\..\..\..\..\..\components\libraries\util\app_util_platform.c 0x00000000   Number         0  app_util_platform.o ABSOLUTE
    ..\..\..\..\..\..\components\libraries\util\nrf_assert.c 0x00000000   Number         0  nrf_assert.o ABSOLUTE
    ..\..\..\..\..\..\external\fprintf\nrf_fprintf.c 0x00000000   Number         0  nrf_fprintf.o ABSOLUTE
    ..\..\..\..\..\..\external\fprintf\nrf_fprintf_format.c 0x00000000   Number         0  nrf_fprintf_format.o ABSOLUTE
    ..\..\..\..\..\..\external\segger_rtt\SEGGER_RTT.c 0x00000000   Number         0  segger_rtt.o ABSOLUTE
    ..\..\..\..\..\..\external\segger_rtt\SEGGER_RTT_Syscalls_KEIL.c 0x00000000   Number         0  segger_rtt_syscalls_keil.o ABSOLUTE
    ..\..\..\..\..\..\external\segger_rtt\SEGGER_RTT_printf.c 0x00000000   Number         0  segger_rtt_printf.o ABSOLUTE
    ..\..\..\..\..\..\integration\nrfx\legacy\nrf_drv_twi.c 0x00000000   Number         0  nrf_drv_twi.o ABSOLUTE
    ..\..\..\..\..\..\integration\nrfx\legacy\nrf_drv_uart.c 0x00000000   Number         0  nrf_drv_uart.o ABSOLUTE
    ..\..\..\..\..\..\modules\nrfx\drivers\src\nrfx_twi.c 0x00000000   Number         0  nrfx_twi.o ABSOLUTE
    ..\..\..\..\..\..\modules\nrfx\drivers\src\nrfx_twim.c 0x00000000   Number         0  nrfx_twim.o ABSOLUTE
    ..\..\..\..\..\..\modules\nrfx\drivers\src\nrfx_uart.c 0x00000000   Number         0  nrfx_uart.o ABSOLUTE
    ..\..\..\..\..\..\modules\nrfx\drivers\src\nrfx_uarte.c 0x00000000   Number         0  nrfx_uarte.o ABSOLUTE
    ..\..\..\..\..\..\modules\nrfx\drivers\src\prs\nrfx_prs.c 0x00000000   Number         0  nrfx_prs.o ABSOLUTE
    ..\..\..\..\..\..\modules\nrfx\mdk\arm_startup_nrf52.s 0x00000000   Number         0  arm_startup_nrf52.o ABSOLUTE
    ..\..\..\..\..\..\modules\nrfx\mdk\system_nrf52.c 0x00000000   Number         0  system_nrf52.o ABSOLUTE
    ..\..\..\..\..\..\modules\nrfx\soc\nrfx_atomic.c 0x00000000   Number         0  nrfx_atomic.o ABSOLUTE
    ..\..\..\main.c                          0x00000000   Number         0  main.o ABSOLUTE
    ..\\..\\..\\..\\..\\..\\components\\boards\\boards.c 0x00000000   Number         0  boards.o ABSOLUTE
    ..\\..\\..\\..\\..\\..\\components\\libraries\\atomic\\nrf_atomic.c 0x00000000   Number         0  nrf_atomic.o ABSOLUTE
    ..\\..\\..\\..\\..\\..\\components\\libraries\\balloc\\nrf_balloc.c 0x00000000   Number         0  nrf_balloc.o ABSOLUTE
    ..\\..\\..\\..\\..\\..\\components\\libraries\\log\\src\\nrf_log_backend_rtt.c 0x00000000   Number         0  nrf_log_backend_rtt.o ABSOLUTE
    ..\\..\\..\\..\\..\\..\\components\\libraries\\log\\src\\nrf_log_backend_serial.c 0x00000000   Number         0  nrf_log_backend_serial.o ABSOLUTE
    ..\\..\\..\\..\\..\\..\\components\\libraries\\log\\src\\nrf_log_backend_uart.c 0x00000000   Number         0  nrf_log_backend_uart.o ABSOLUTE
    ..\\..\\..\\..\\..\\..\\components\\libraries\\log\\src\\nrf_log_default_backends.c 0x00000000   Number         0  nrf_log_default_backends.o ABSOLUTE
    ..\\..\\..\\..\\..\\..\\components\\libraries\\log\\src\\nrf_log_frontend.c 0x00000000   Number         0  nrf_log_frontend.o ABSOLUTE
    ..\\..\\..\\..\\..\\..\\components\\libraries\\log\\src\\nrf_log_str_formatter.c 0x00000000   Number         0  nrf_log_str_formatter.o ABSOLUTE
    ..\\..\\..\\..\\..\\..\\components\\libraries\\memobj\\nrf_memobj.c 0x00000000   Number         0  nrf_memobj.o ABSOLUTE
    ..\\..\\..\\..\\..\\..\\components\\libraries\\ringbuf\\nrf_ringbuf.c 0x00000000   Number         0  nrf_ringbuf.o ABSOLUTE
    ..\\..\\..\\..\\..\\..\\components\\libraries\\strerror\\nrf_strerror.c 0x00000000   Number         0  nrf_strerror.o ABSOLUTE
    ..\\..\\..\\..\\..\\..\\components\\libraries\\util\\app_error.c 0x00000000   Number         0  app_error.o ABSOLUTE
    ..\\..\\..\\..\\..\\..\\components\\libraries\\util\\app_error_handler_keil.c 0x00000000   Number         0  app_error_handler_keil.o ABSOLUTE
    ..\\..\\..\\..\\..\\..\\components\\libraries\\util\\app_error_weak.c 0x00000000   Number         0  app_error_weak.o ABSOLUTE
    ..\\..\\..\\..\\..\\..\\components\\libraries\\util\\app_util_platform.c 0x00000000   Number         0  app_util_platform.o ABSOLUTE
    ..\\..\\..\\..\\..\\..\\components\\libraries\\util\\nrf_assert.c 0x00000000   Number         0  nrf_assert.o ABSOLUTE
    ..\\..\\..\\..\\..\\..\\external\\fprintf\\nrf_fprintf.c 0x00000000   Number         0  nrf_fprintf.o ABSOLUTE
    ..\\..\\..\\..\\..\\..\\external\\fprintf\\nrf_fprintf_format.c 0x00000000   Number         0  nrf_fprintf_format.o ABSOLUTE
    ..\\..\\..\\..\\..\\..\\external\\segger_rtt\\SEGGER_RTT.c 0x00000000   Number         0  segger_rtt.o ABSOLUTE
    ..\\..\\..\\..\\..\\..\\external\\segger_rtt\\SEGGER_RTT_Syscalls_KEIL.c 0x00000000   Number         0  segger_rtt_syscalls_keil.o ABSOLUTE
    ..\\..\\..\\..\\..\\..\\external\\segger_rtt\\SEGGER_RTT_printf.c 0x00000000   Number         0  segger_rtt_printf.o ABSOLUTE
    ..\\..\\..\\..\\..\\..\\integration\\nrfx\\legacy\\nrf_drv_twi.c 0x00000000   Number         0  nrf_drv_twi.o ABSOLUTE
    ..\\..\\..\\..\\..\\..\\integration\\nrfx\\legacy\\nrf_drv_uart.c 0x00000000   Number         0  nrf_drv_uart.o ABSOLUTE
    ..\\..\\..\\..\\..\\..\\modules\\nrfx\\drivers\\src\\nrfx_twi.c 0x00000000   Number         0  nrfx_twi.o ABSOLUTE
    ..\\..\\..\\..\\..\\..\\modules\\nrfx\\drivers\\src\\nrfx_twim.c 0x00000000   Number         0  nrfx_twim.o ABSOLUTE
    ..\\..\\..\\..\\..\\..\\modules\\nrfx\\drivers\\src\\nrfx_uart.c 0x00000000   Number         0  nrfx_uart.o ABSOLUTE
    ..\\..\\..\\..\\..\\..\\modules\\nrfx\\drivers\\src\\nrfx_uarte.c 0x00000000   Number         0  nrfx_uarte.o ABSOLUTE
    ..\\..\\..\\..\\..\\..\\modules\\nrfx\\drivers\\src\\prs\\nrfx_prs.c 0x00000000   Number         0  nrfx_prs.o ABSOLUTE
    ..\\..\\..\\..\\..\\..\\modules\\nrfx\\mdk\\system_nrf52.c 0x00000000   Number         0  system_nrf52.o ABSOLUTE
    ..\\..\\..\\..\\..\\..\\modules\\nrfx\\soc\\nrfx_atomic.c 0x00000000   Number         0  nrfx_atomic.o ABSOLUTE
    ..\\..\\..\\main.c                       0x00000000   Number         0  main.o ABSOLUTE
    dc.s                                     0x00000000   Number         0  dc.o ABSOLUTE
    handlers.s                               0x00000000   Number         0  handlers.o ABSOLUTE
    init.s                                   0x00000000   Number         0  init.o ABSOLUTE
    .ARM.Collect$$$$00000000                 0x00000200   Section        0  entry.o(.ARM.Collect$$$$00000000)
    .ARM.Collect$$$$00000001                 0x00000200   Section        4  entry2.o(.ARM.Collect$$$$00000001)
    .ARM.Collect$$$$00000004                 0x00000204   Section        4  entry5.o(.ARM.Collect$$$$00000004)
    .ARM.Collect$$$$00000008                 0x00000208   Section        0  entry7b.o(.ARM.Collect$$$$00000008)
    .ARM.Collect$$$$0000000A                 0x00000208   Section        0  entry8b.o(.ARM.Collect$$$$0000000A)
    .ARM.Collect$$$$0000000B                 0x00000208   Section        8  entry9a.o(.ARM.Collect$$$$0000000B)
    .ARM.Collect$$$$0000000D                 0x00000210   Section        0  entry10a.o(.ARM.Collect$$$$0000000D)
    .ARM.Collect$$$$0000000F                 0x00000210   Section        0  entry11a.o(.ARM.Collect$$$$0000000F)
    .ARM.Collect$$$$00002712                 0x00000210   Section        4  entry2.o(.ARM.Collect$$$$00002712)
    __lit__00000000                          0x00000210   Data           4  entry2.o(.ARM.Collect$$$$00002712)
    .emb_text                                0x00000214   Section      226  nrf_atomic.o(.emb_text)
    $v0                                      0x00000214   Number         0  nrf_atomic.o(.emb_text)
    .text                                    0x000002f8   Section       36  arm_startup_nrf52.o(.text)
    $v0                                      0x000002f8   Number         0  arm_startup_nrf52.o(.text)
    .text                                    0x0000031c   Section        0  ctype_o.o(.text)
    .text                                    0x00000324   Section        0  memcpya.o(.text)
    .text                                    0x00000348   Section        0  memseta.o(.text)
    .text                                    0x0000036c   Section        0  strlen.o(.text)
    .text                                    0x0000037c   Section       36  init.o(.text)
    i.LM75B_set_mode                         0x000003a0   Section        0  main.o(i.LM75B_set_mode)
    i.SPIM0_SPIS0_TWIM0_TWIS0_SPI0_TWI0_IRQHandler 0x000003f4   Section        0  nrfx_twim.o(i.SPIM0_SPIS0_TWIM0_TWIS0_SPI0_TWI0_IRQHandler)
    i.SystemInit                             0x00000404   Section        0  system_nrf52.o(i.SystemInit)
    i.UARTE0_UART0_IRQHandler                0x00000720   Section        0  nrfx_prs.o(i.UARTE0_UART0_IRQHandler)
    i.__scatterload_copy                     0x0000072c   Section       14  handlers.o(i.__scatterload_copy)
    i.__scatterload_null                     0x0000073a   Section        2  handlers.o(i.__scatterload_null)
    i.__scatterload_zeroinit                 0x0000073c   Section       14  handlers.o(i.__scatterload_zeroinit)
    i.app_error_fault_handler                0x0000074c   Section        0  app_error_weak.o(i.app_error_fault_handler)
    i.app_error_handler_bare                 0x000007d0   Section        0  app_error.o(i.app_error_handler_bare)
    i.app_util_critical_region_enter         0x000007e6   Section        0  app_util_platform.o(i.app_util_critical_region_enter)
    i.app_util_critical_region_exit          0x000007ea   Section        0  app_util_platform.o(i.app_util_critical_region_exit)
    i.app_util_disable_irq                   0x000007f0   Section        0  app_util_platform.o(i.app_util_disable_irq)
    i.app_util_enable_irq                    0x00000800   Section        0  app_util_platform.o(i.app_util_enable_irq)
    i.apply_config                           0x00000814   Section        0  nrfx_uart.o(i.apply_config)
    apply_config                             0x00000815   Thumb Code   136  nrfx_uart.o(i.apply_config)
    i.apply_config                           0x0000089c   Section        0  nrfx_uarte.o(i.apply_config)
    apply_config                             0x0000089d   Thumb Code   136  nrfx_uarte.o(i.apply_config)
    i.buf_prealloc                           0x00000924   Section        0  nrf_log_frontend.o(i.buf_prealloc)
    buf_prealloc                             0x00000925   Thumb Code   130  nrf_log_frontend.o(i.buf_prealloc)
    i.buffer_add                             0x000009ac   Section        0  nrf_fprintf_format.o(i.buffer_add)
    buffer_add                               0x000009ad   Thumb Code    46  nrf_fprintf_format.o(i.buffer_add)
    i.buffer_is_empty                        0x000009dc   Section        0  nrf_log_frontend.o(i.buffer_is_empty)
    i.dropped_sat16_get                      0x000009f0   Section        0  nrf_log_frontend.o(i.dropped_sat16_get)
    dropped_sat16_get                        0x000009f1   Thumb Code    16  nrf_log_frontend.o(i.dropped_sat16_get)
    i.int_print                              0x00000a04   Section        0  nrf_fprintf_format.o(i.int_print)
    int_print                                0x00000a05   Thumb Code   166  nrf_fprintf_format.o(i.int_print)
    i.interrupts_enable                      0x00000aac   Section        0  nrfx_uarte.o(i.interrupts_enable)
    interrupts_enable                        0x00000aad   Thumb Code   128  nrfx_uarte.o(i.interrupts_enable)
    i.invalid_packets_omit                   0x00000b30   Section        0  nrf_log_frontend.o(i.invalid_packets_omit)
    invalid_packets_omit                     0x00000b31   Thumb Code    52  nrf_log_frontend.o(i.invalid_packets_omit)
    i.log_skip                               0x00000b64   Section        0  nrf_log_frontend.o(i.log_skip)
    log_skip                                 0x00000b65   Thumb Code   148  nrf_log_frontend.o(i.log_skip)
    i.main                                   0x00000c00   Section        0  main.o(i.main)
    i.memobj_op                              0x00000cac   Section        0  nrf_memobj.o(i.memobj_op)
    memobj_op                                0x00000cad   Thumb Code   126  nrf_memobj.o(i.memobj_op)
    i.module_idx_get                         0x00000d2c   Section        0  nrf_log_frontend.o(i.module_idx_get)
    module_idx_get                           0x00000d2d   Thumb Code    42  nrf_log_frontend.o(i.module_idx_get)
    i.nrf_atomic_flag_clear_fetch            0x00000d5c   Section        0  nrf_atomic.o(i.nrf_atomic_flag_clear_fetch)
    i.nrf_atomic_flag_set                    0x00000d62   Section        0  nrf_atomic.o(i.nrf_atomic_flag_set)
    i.nrf_atomic_u32_add                     0x00000d68   Section        0  nrf_atomic.o(i.nrf_atomic_u32_add)
    i.nrf_atomic_u32_fetch_and               0x00000d74   Section        0  nrf_atomic.o(i.nrf_atomic_u32_fetch_and)
    i.nrf_atomic_u32_fetch_store             0x00000d7e   Section        0  nrf_atomic.o(i.nrf_atomic_u32_fetch_store)
    i.nrf_atomic_u32_or                      0x00000d88   Section        0  nrf_atomic.o(i.nrf_atomic_u32_or)
    i.nrf_atomic_u32_sub                     0x00000d94   Section        0  nrf_atomic.o(i.nrf_atomic_u32_sub)
    i.nrf_balloc_alloc                       0x00000da0   Section        0  nrf_balloc.o(i.nrf_balloc_alloc)
    i.nrf_balloc_free                        0x00000dde   Section        0  nrf_balloc.o(i.nrf_balloc_free)
    i.nrf_balloc_init                        0x00000e08   Section        0  nrf_balloc.o(i.nrf_balloc_init)
    i.nrf_drv_twi_init                       0x00000e38   Section        0  nrf_drv_twi.o(i.nrf_drv_twi_init)
    i.nrf_drv_twi_tx                         0x00000e78   Section        0  main.o(i.nrf_drv_twi_tx)
    nrf_drv_twi_tx                           0x00000e79   Thumb Code    14  main.o(i.nrf_drv_twi_tx)
    i.nrf_drv_uart_init                      0x00000e88   Section        0  nrf_drv_uart.o(i.nrf_drv_uart_init)
    i.nrf_fprintf                            0x00000ef0   Section        0  nrf_fprintf.o(i.nrf_fprintf)
    i.nrf_fprintf_buffer_flush               0x00000f0a   Section        0  nrf_fprintf.o(i.nrf_fprintf_buffer_flush)
    i.nrf_fprintf_fmt                        0x00000f22   Section        0  nrf_fprintf_format.o(i.nrf_fprintf_fmt)
    i.nrf_gpio_cfg                           0x000010fc   Section        0  nrfx_twim.o(i.nrf_gpio_cfg)
    nrf_gpio_cfg                             0x000010fd   Thumb Code    36  nrfx_twim.o(i.nrf_gpio_cfg)
    i.nrf_gpio_cfg                           0x00001120   Section        0  nrfx_uart.o(i.nrf_gpio_cfg)
    nrf_gpio_cfg                             0x00001121   Thumb Code    36  nrfx_uart.o(i.nrf_gpio_cfg)
    i.nrf_gpio_cfg                           0x00001144   Section        0  nrfx_uarte.o(i.nrf_gpio_cfg)
    nrf_gpio_cfg                             0x00001145   Thumb Code    36  nrfx_uarte.o(i.nrf_gpio_cfg)
    i.nrf_gpio_cfg_default                   0x00001168   Section        0  nrfx_uart.o(i.nrf_gpio_cfg_default)
    nrf_gpio_cfg_default                     0x00001169   Thumb Code    18  nrfx_uart.o(i.nrf_gpio_cfg_default)
    i.nrf_gpio_cfg_default                   0x0000117a   Section        0  nrfx_uarte.o(i.nrf_gpio_cfg_default)
    nrf_gpio_cfg_default                     0x0000117b   Thumb Code    18  nrfx_uarte.o(i.nrf_gpio_cfg_default)
    i.nrf_gpio_cfg_input                     0x0000118c   Section        0  nrfx_uart.o(i.nrf_gpio_cfg_input)
    nrf_gpio_cfg_input                       0x0000118d   Thumb Code    18  nrfx_uart.o(i.nrf_gpio_cfg_input)
    i.nrf_gpio_cfg_input                     0x0000119e   Section        0  nrfx_uarte.o(i.nrf_gpio_cfg_input)
    nrf_gpio_cfg_input                       0x0000119f   Thumb Code    18  nrfx_uarte.o(i.nrf_gpio_cfg_input)
    i.nrf_gpio_cfg_output                    0x000011b0   Section        0  nrfx_uart.o(i.nrf_gpio_cfg_output)
    nrf_gpio_cfg_output                      0x000011b1   Thumb Code    20  nrfx_uart.o(i.nrf_gpio_cfg_output)
    i.nrf_gpio_cfg_output                    0x000011c4   Section        0  nrfx_uarte.o(i.nrf_gpio_cfg_output)
    nrf_gpio_cfg_output                      0x000011c5   Thumb Code    20  nrfx_uarte.o(i.nrf_gpio_cfg_output)
    i.nrf_gpio_pin_set                       0x000011d8   Section        0  nrf_drv_twi.o(i.nrf_gpio_pin_set)
    nrf_gpio_pin_set                         0x000011d9   Thumb Code    14  nrf_drv_twi.o(i.nrf_gpio_pin_set)
    i.nrf_log_backend_add                    0x000011e8   Section        0  nrf_log_frontend.o(i.nrf_log_backend_add)
    i.nrf_log_backend_serial_put             0x00001244   Section        0  nrf_log_backend_serial.o(i.nrf_log_backend_serial_put)
    i.nrf_log_backend_uart_flush             0x0000130c   Section        0  nrf_log_backend_uart.o(i.nrf_log_backend_uart_flush)
    nrf_log_backend_uart_flush               0x0000130d   Thumb Code     2  nrf_log_backend_uart.o(i.nrf_log_backend_uart_flush)
    i.nrf_log_backend_uart_init              0x0000130e   Section        0  nrf_log_backend_uart.o(i.nrf_log_backend_uart_init)
    i.nrf_log_backend_uart_panic_set         0x00001314   Section        0  nrf_log_backend_uart.o(i.nrf_log_backend_uart_panic_set)
    nrf_log_backend_uart_panic_set           0x00001315   Thumb Code    36  nrf_log_backend_uart.o(i.nrf_log_backend_uart_panic_set)
    i.nrf_log_backend_uart_put               0x00001340   Section        0  nrf_log_backend_uart.o(i.nrf_log_backend_uart_put)
    nrf_log_backend_uart_put                 0x00001341   Thumb Code    16  nrf_log_backend_uart.o(i.nrf_log_backend_uart_put)
    i.nrf_log_color_id_get                   0x00001358   Section        0  nrf_log_frontend.o(i.nrf_log_color_id_get)
    i.nrf_log_default_backends_init          0x00001388   Section        0  nrf_log_default_backends.o(i.nrf_log_default_backends_init)
    i.nrf_log_frontend_dequeue               0x000013a4   Section        0  nrf_log_frontend.o(i.nrf_log_frontend_dequeue)
    i.nrf_log_frontend_std_0                 0x000015d4   Section        0  nrf_log_frontend.o(i.nrf_log_frontend_std_0)
    i.nrf_log_frontend_std_1                 0x000015dc   Section        0  nrf_log_frontend.o(i.nrf_log_frontend_std_1)
    i.nrf_log_hexdump_entry_process          0x000015ec   Section        0  nrf_log_str_formatter.o(i.nrf_log_hexdump_entry_process)
    i.nrf_log_init                           0x0000169c   Section        0  nrf_log_frontend.o(i.nrf_log_init)
    i.nrf_log_module_cnt_get                 0x000016d8   Section        0  nrf_log_frontend.o(i.nrf_log_module_cnt_get)
    i.nrf_log_module_name_get                0x000016ec   Section        0  nrf_log_frontend.o(i.nrf_log_module_name_get)
    i.nrf_log_panic                          0x00001708   Section        0  nrf_log_frontend.o(i.nrf_log_panic)
    i.nrf_log_std_entry_process              0x00001734   Section        0  nrf_log_str_formatter.o(i.nrf_log_std_entry_process)
    i.nrf_memobj_alloc                       0x000017ea   Section        0  nrf_memobj.o(i.nrf_memobj_alloc)
    i.nrf_memobj_free                        0x0000184a   Section        0  nrf_memobj.o(i.nrf_memobj_free)
    i.nrf_memobj_get                         0x0000187c   Section        0  nrf_memobj.o(i.nrf_memobj_get)
    i.nrf_memobj_pool_init                   0x00001884   Section        0  nrf_memobj.o(i.nrf_memobj_pool_init)
    i.nrf_memobj_put                         0x00001888   Section        0  nrf_memobj.o(i.nrf_memobj_put)
    i.nrf_memobj_read                        0x000018a6   Section        0  nrf_memobj.o(i.nrf_memobj_read)
    i.nrf_memobj_write                       0x000018b6   Section        0  nrf_memobj.o(i.nrf_memobj_write)
    i.nrf_ringbuf_init                       0x000018c6   Section        0  nrf_ringbuf.o(i.nrf_ringbuf_init)
    i.nrf_twim_event_check                   0x000018e2   Section        0  nrfx_twim.o(i.nrf_twim_event_check)
    nrf_twim_event_check                     0x000018e3   Thumb Code    10  nrfx_twim.o(i.nrf_twim_event_check)
    i.nrf_twim_event_clear                   0x000018ec   Section        0  nrfx_twim.o(i.nrf_twim_event_clear)
    nrf_twim_event_clear                     0x000018ed   Thumb Code    12  nrfx_twim.o(i.nrf_twim_event_clear)
    i.nrf_uart_event_check                   0x000018f8   Section        0  nrfx_uart.o(i.nrf_uart_event_check)
    nrf_uart_event_check                     0x000018f9   Thumb Code    10  nrfx_uart.o(i.nrf_uart_event_check)
    i.nrf_uart_event_clear                   0x00001902   Section        0  nrfx_uart.o(i.nrf_uart_event_clear)
    nrf_uart_event_clear                     0x00001903   Thumb Code    12  nrfx_uart.o(i.nrf_uart_event_clear)
    i.nrf_uart_int_enable_check              0x0000190e   Section        0  nrfx_uart.o(i.nrf_uart_int_enable_check)
    nrf_uart_int_enable_check                0x0000190f   Thumb Code    12  nrfx_uart.o(i.nrf_uart_int_enable_check)
    i.nrf_uarte_event_check                  0x0000191a   Section        0  nrfx_uarte.o(i.nrf_uarte_event_check)
    nrf_uarte_event_check                    0x0000191b   Thumb Code    10  nrfx_uarte.o(i.nrf_uarte_event_check)
    i.nrf_uarte_event_clear                  0x00001924   Section        0  nrfx_uarte.o(i.nrf_uarte_event_clear)
    nrf_uarte_event_clear                    0x00001925   Thumb Code    12  nrfx_uarte.o(i.nrf_uarte_event_clear)
    i.nrfx_coredep_delay_us                  0x00001930   Section        0  nrf_drv_twi.o(i.nrfx_coredep_delay_us)
    nrfx_coredep_delay_us                    0x00001931   Thumb Code    12  nrf_drv_twi.o(i.nrfx_coredep_delay_us)
    i.nrfx_is_in_ram                         0x00001940   Section        0  nrfx_twim.o(i.nrfx_is_in_ram)
    nrfx_is_in_ram                           0x00001941   Thumb Code    16  nrfx_twim.o(i.nrfx_is_in_ram)
    i.nrfx_is_in_ram                         0x00001950   Section        0  nrfx_uarte.o(i.nrfx_is_in_ram)
    nrfx_is_in_ram                           0x00001951   Thumb Code    16  nrfx_uarte.o(i.nrfx_is_in_ram)
    i.nrfx_prs_acquire                       0x00001960   Section        0  nrfx_prs.o(i.nrfx_prs_acquire)
    i.nrfx_prs_release                       0x00001990   Section        0  nrfx_prs.o(i.nrfx_prs_release)
    i.nrfx_twim_enable                       0x000019a4   Section        0  nrfx_twim.o(i.nrfx_twim_enable)
    i.nrfx_twim_init                         0x000019c8   Section        0  nrfx_twim.o(i.nrfx_twim_init)
    i.nrfx_twim_rx                           0x00001aa8   Section        0  nrfx_twim.o(i.nrfx_twim_rx)
    i.nrfx_twim_tx                           0x00001ad8   Section        0  nrfx_twim.o(i.nrfx_twim_tx)
    i.nrfx_twim_xfer                         0x00001b10   Section        0  nrfx_twim.o(i.nrfx_twim_xfer)
    i.nrfx_uart_0_irq_handler                0x00001b38   Section        0  nrfx_uart.o(i.nrfx_uart_0_irq_handler)
    i.nrfx_uart_init                         0x00001b48   Section        0  nrfx_uart.o(i.nrfx_uart_init)
    i.nrfx_uart_tx                           0x00001c18   Section        0  nrfx_uart.o(i.nrfx_uart_tx)
    i.nrfx_uart_tx_in_progress               0x00001cc0   Section        0  nrfx_uart.o(i.nrfx_uart_tx_in_progress)
    i.nrfx_uart_uninit                       0x00001ce0   Section        0  nrfx_uart.o(i.nrfx_uart_uninit)
    i.nrfx_uarte_0_irq_handler               0x00001d94   Section        0  nrfx_uarte.o(i.nrfx_uarte_0_irq_handler)
    i.nrfx_uarte_init                        0x00001da4   Section        0  nrfx_uarte.o(i.nrfx_uarte_init)
    i.nrfx_uarte_tx                          0x00001e10   Section        0  nrfx_uarte.o(i.nrfx_uarte_tx)
    i.nrfx_uarte_tx_in_progress              0x00001ebc   Section        0  nrfx_uarte.o(i.nrfx_uarte_tx_in_progress)
    i.nrfx_uarte_uninit                      0x00001ed8   Section        0  nrfx_uarte.o(i.nrfx_uarte_uninit)
    i.postfix_process                        0x00001fb8   Section        0  nrf_log_str_formatter.o(i.postfix_process)
    postfix_process                          0x00001fb9   Thumb Code    48  nrf_log_str_formatter.o(i.postfix_process)
    i.prefix_process                         0x00001ff4   Section        0  nrf_log_str_formatter.o(i.prefix_process)
    prefix_process                           0x00001ff5   Thumb Code    90  nrf_log_str_formatter.o(i.prefix_process)
    i.prs_box_get                            0x0000208c   Section        0  nrfx_prs.o(i.prs_box_get)
    prs_box_get                              0x0000208d   Thumb Code    14  nrfx_prs.o(i.prs_box_get)
    i.rx_byte                                0x000020a4   Section        0  nrfx_uart.o(i.rx_byte)
    rx_byte                                  0x000020a5   Thumb Code    50  nrfx_uart.o(i.rx_byte)
    i.rx_done_event                          0x000020d6   Section        0  nrfx_uart.o(i.rx_done_event)
    rx_done_event                            0x000020d7   Thumb Code    22  nrfx_uart.o(i.rx_done_event)
    i.rx_done_event                          0x000020ec   Section        0  nrfx_uarte.o(i.rx_done_event)
    rx_done_event                            0x000020ed   Thumb Code    22  nrfx_uarte.o(i.rx_done_event)
    i.serial_tx                              0x00002104   Section        0  nrf_log_backend_uart.o(i.serial_tx)
    serial_tx                                0x00002105   Thumb Code    54  nrf_log_backend_uart.o(i.serial_tx)
    i.std_n                                  0x00002144   Section        0  nrf_log_frontend.o(i.std_n)
    std_n                                    0x00002145   Thumb Code   136  nrf_log_frontend.o(i.std_n)
    i.twi_clear_bus                          0x000021d0   Section        0  nrf_drv_twi.o(i.twi_clear_bus)
    twi_clear_bus                            0x000021d1   Thumb Code   170  nrf_drv_twi.o(i.twi_clear_bus)
    i.twi_handler                            0x0000227c   Section        0  main.o(i.twi_handler)
    i.twi_init                               0x000022d8   Section        0  main.o(i.twi_init)
    i.twim_evt_handler                       0x00002308   Section        0  nrf_drv_twi.o(i.twim_evt_handler)
    twim_evt_handler                         0x00002309   Thumb Code    60  nrf_drv_twi.o(i.twim_evt_handler)
    i.twim_irq_handler                       0x00002348   Section        0  nrfx_twim.o(i.twim_irq_handler)
    twim_irq_handler                         0x00002349   Thumb Code   330  nrfx_twim.o(i.twim_irq_handler)
    i.twim_xfer                              0x00002498   Section        0  nrfx_twim.o(i.twim_xfer)
    twim_xfer                                0x00002499   Thumb Code   578  nrfx_twim.o(i.twim_xfer)
    i.tx_byte                                0x000026e4   Section        0  nrfx_uart.o(i.tx_byte)
    tx_byte                                  0x000026e5   Thumb Code    32  nrfx_uart.o(i.tx_byte)
    i.tx_done_event                          0x00002704   Section        0  nrfx_uart.o(i.tx_done_event)
    tx_done_event                            0x00002705   Thumb Code    26  nrfx_uart.o(i.tx_done_event)
    i.tx_done_event                          0x0000271e   Section        0  nrfx_uarte.o(i.tx_done_event)
    tx_done_event                            0x0000271f   Thumb Code    26  nrfx_uarte.o(i.tx_done_event)
    i.uart_evt_handler                       0x00002738   Section        0  nrf_drv_uart.o(i.uart_evt_handler)
    uart_evt_handler                         0x00002739   Thumb Code    42  nrf_drv_uart.o(i.uart_evt_handler)
    i.uart_evt_handler                       0x00002768   Section        0  nrf_log_backend_uart.o(i.uart_evt_handler)
    uart_evt_handler                         0x00002769   Thumb Code     8  nrf_log_backend_uart.o(i.uart_evt_handler)
    i.uart_init                              0x00002774   Section        0  nrf_log_backend_uart.o(i.uart_init)
    uart_init                                0x00002775   Thumb Code    66  nrf_log_backend_uart.o(i.uart_init)
    i.uart_irq_handler                       0x000027c4   Section        0  nrfx_uart.o(i.uart_irq_handler)
    uart_irq_handler                         0x000027c5   Thumb Code   298  nrfx_uart.o(i.uart_irq_handler)
    i.uarte_evt_handler                      0x000028f0   Section        0  nrf_drv_uart.o(i.uarte_evt_handler)
    uarte_evt_handler                        0x000028f1   Thumb Code    42  nrf_drv_uart.o(i.uarte_evt_handler)
    i.uarte_irq_handler                      0x00002920   Section        0  nrfx_uarte.o(i.uarte_irq_handler)
    uarte_irq_handler                        0x00002921   Thumb Code   274  nrfx_uarte.o(i.uarte_irq_handler)
    i.unsigned_print                         0x00002a34   Section        0  nrf_fprintf_format.o(i.unsigned_print)
    unsigned_print                           0x00002a35   Thumb Code   176  nrf_fprintf_format.o(i.unsigned_print)
    i.xfer_completeness_check                0x00002ae8   Section        0  nrfx_twim.o(i.xfer_completeness_check)
    xfer_completeness_check                  0x00002ae9   Thumb Code   104  nrfx_twim.o(i.xfer_completeness_check)
    .constdata                               0x00002b60   Section       40  main.o(.constdata)
    delay_machine_code                       0x00002b60   Data           6  main.o(.constdata)
    m_twi                                    0x00002b68   Data          16  main.o(.constdata)
    .constdata                               0x00002b90   Section        6  nrf_drv_twi.o(.constdata)
    delay_machine_code                       0x00002b90   Data           6  nrf_drv_twi.o(.constdata)
    .constdata                               0x00002b98   Section       24  nrfx_twim.o(.constdata)
    irq_handlers                             0x00002b98   Data           4  nrfx_twim.o(.constdata)
    .constdata                               0x00002bb0   Section        4  nrfx_uart.o(.constdata)
    irq_handlers                             0x00002bb0   Data           4  nrfx_uart.o(.constdata)
    .constdata                               0x00002bb4   Section        4  nrfx_uarte.o(.constdata)
    irq_handlers                             0x00002bb4   Data           4  nrfx_uarte.o(.constdata)
    .constdata                               0x00002bb8   Section       16  nrf_fprintf_format.o(.constdata)
    _aV2C                                    0x00002bb8   Data          16  nrf_fprintf_format.o(.constdata)
    .constdata                               0x00002bc8   Section       12  nrf_log_backend_uart.o(.constdata)
    .constdata                               0x00002bd4   Section       32  nrf_log_backend_uart.o(.constdata)
    .constdata                               0x00002bf4   Section       12  nrf_log_frontend.o(.constdata)
    m_log_push_ringbuf                       0x00002bf4   Data          12  nrf_log_frontend.o(.constdata)
    .constdata                               0x00002c00   Section      129  ctype_o.o(.constdata)
    .constdata                               0x00002c84   Section        4  ctype_o.o(.constdata)
    table                                    0x00002c84   Data           4  ctype_o.o(.constdata)
    .conststring                             0x00002c88   Section      102  nrf_log_str_formatter.o(.conststring)
    .conststrlit                             0x00002cf0   Section        4  nrfx_prs.o(.conststrlit)
    .conststrlit                             0x00002cf4   Section        5  nrfx_twim.o(.conststrlit)
    .conststrlit                             0x00002cfc   Section        5  nrfx_uart.o(.conststrlit)
    .conststrlit                             0x00002d04   Section        6  nrfx_uarte.o(.conststrlit)
    .conststrlit                             0x00002d0c   Section       17  nrf_log_default_backends.o(.conststrlit)
    .conststrlit                             0x00002d20   Section        4  nrf_log_frontend.o(.conststrlit)
    log_backends                             0x00002d44   Section       16  nrf_log_default_backends.o(log_backends)
    __tagsym$$used                           0x00002d44   Number         0  nrf_log_default_backends.o(log_backends)
    uart_log_backend                         0x00002d44   Data          16  nrf_log_default_backends.o(log_backends)
    log_const_data                           0x00002d54   Section        8  nrfx_prs.o(log_const_data)
    __tagsym$$used                           0x00002d54   Number         0  nrfx_prs.o(log_const_data)
    log_const_data                           0x00002d5c   Section        8  nrfx_twim.o(log_const_data)
    __tagsym$$used                           0x00002d5c   Number         0  nrfx_twim.o(log_const_data)
    log_const_data                           0x00002d64   Section        8  nrfx_uart.o(log_const_data)
    __tagsym$$used                           0x00002d64   Number         0  nrfx_uart.o(log_const_data)
    log_const_data                           0x00002d6c   Section        8  nrfx_uarte.o(log_const_data)
    __tagsym$$used                           0x00002d6c   Number         0  nrfx_uarte.o(log_const_data)
    log_const_data                           0x00002d74   Section        8  nrf_log_frontend.o(log_const_data)
    __tagsym$$used                           0x00002d74   Number         0  nrf_log_frontend.o(log_const_data)
    nrf_balloc                               0x00002d7c   Section       20  nrf_log_frontend.o(nrf_balloc)
    __tagsym$$used                           0x00002d7c   Number         0  nrf_log_frontend.o(nrf_balloc)
    .data                                    0x20000000   Section        4  system_nrf52.o(.data)
    __tagsym$$used                           0x20000000   Number         0  system_nrf52.o(.data)
    .data                                    0x20000004   Section        2  main.o(.data)
    m_xfer_done                              0x20000004   Data           1  main.o(.data)
    m_sample                                 0x20000005   Data           1  main.o(.data)
    .data                                    0x20000008   Section       16  nrf_drv_twi.o(.data)
    m_handlers                               0x20000008   Data           8  nrf_drv_twi.o(.data)
    m_contexts                               0x20000010   Data           8  nrf_drv_twi.o(.data)
    .data                                    0x20000018   Section       12  nrf_drv_uart.o(.data)
    m_handlers                               0x2000001c   Data           4  nrf_drv_uart.o(.data)
    m_contexts                               0x20000020   Data           4  nrf_drv_uart.o(.data)
    .data                                    0x20000024   Section        8  nrfx_prs.o(.data)
    m_prs_box_4                              0x20000024   Data           8  nrfx_prs.o(.data)
    .data                                    0x2000002c   Section        4  app_util_platform.o(.data)
    m_in_critical_region                     0x2000002c   Data           4  app_util_platform.o(.data)
    .data                                    0x20000030   Section       24  nrf_log_backend_uart.o(.data)
    m_xfer_done                              0x20000030   Data           1  nrf_log_backend_uart.o(.data)
    m_async_mode                             0x20000031   Data           1  nrf_log_backend_uart.o(.data)
    .data                                    0x20000048   Section        8  nrf_log_default_backends.o(.data)
    log_backend_cb_uart_log_backend          0x20000048   Data           8  nrf_log_default_backends.o(.data)
    .data                                    0x20000050   Section        8  nrf_log_frontend.o(.data)
    log_mempool_nrf_balloc_pool_stack        0x20000050   Data           8  nrf_log_frontend.o(.data)
    .data                                    0x20000058   Section        8  nrf_log_frontend.o(.data)
    log_mempool_nrf_balloc_cb                0x20000058   Data           8  nrf_log_frontend.o(.data)
    .data                                    0x20000060   Section       64  nrf_log_str_formatter.o(.data)
    m_freq                                   0x20000060   Data           4  nrf_log_str_formatter.o(.data)
    m_timestamp_div                          0x20000064   Data           4  nrf_log_str_formatter.o(.data)
    severity_names                           0x20000068   Data          20  nrf_log_str_formatter.o(.data)
    m_colors                                 0x2000007c   Data          36  nrf_log_str_formatter.o(.data)
    .bss                                     0x200000a0   Section       52  nrfx_twim.o(.bss)
    m_cb                                     0x200000a0   Data          52  nrfx_twim.o(.bss)
    .bss                                     0x200000d4   Section       44  nrfx_uart.o(.bss)
    m_cb                                     0x200000d4   Data          44  nrfx_uart.o(.bss)
    .bss                                     0x20000100   Section       36  nrfx_uarte.o(.bss)
    m_cb                                     0x20000100   Data          36  nrfx_uarte.o(.bss)
    .bss                                     0x20000124   Section       64  nrf_log_backend_uart.o(.bss)
    m_string_buff                            0x20000124   Data          64  nrf_log_backend_uart.o(.bss)
    .bss                                     0x20000164   Section      192  nrf_log_frontend.o(.bss)
    log_mempool_nrf_balloc_pool_mem          0x20000164   Data         192  nrf_log_frontend.o(.bss)
    .bss                                     0x20000224   Section      128  nrf_log_frontend.o(.bss)
    m_log_push_ringbuf_buf                   0x20000224   Data         128  nrf_log_frontend.o(.bss)
    .bss                                     0x200002a4   Section       24  nrf_log_frontend.o(.bss)
    m_log_push_ringbuf_cb                    0x200002a4   Data          24  nrf_log_frontend.o(.bss)
    .bss                                     0x200002bc   Section     1060  nrf_log_frontend.o(.bss)
    m_log_data                               0x200002bc   Data        1060  nrf_log_frontend.o(.bss)
    STACK                                    0x200006e0   Section     8192  arm_startup_nrf52.o(STACK)

    Global Symbols

    Symbol Name                              Value     Ov Type        Size  Object(Section)

    BuildAttributes$$THM_ISAv4$E$P$D$K$B$S$7EM$VFPi3$EXTD16$VFPS$VFMA$PE$A:L22UL41UL21$X:L11$S22US41US21$IEEE1$IW$USESV6$~STKCKD$USESV7$~SHL$OSPACE$EBA8$MICROLIB$REQ8$EABIv2 0x00000000   Number         0  anon$$obj.o ABSOLUTE
    __ARM_use_no_argv                        0x00000000   Number         0  main.o ABSOLUTE
    __Vectors                                0x00000000   Data           4  arm_startup_nrf52.o(RESET)
    __use_no_errno                           0x00000000   Number         0  useno.o ABSOLUTE
    __use_no_exception_handling              0x00000000   Number         0  useno.o ABSOLUTE
    __use_no_fp                              0x00000000   Number         0  useno.o ABSOLUTE
    __use_no_heap                            0x00000000   Number         0  useno.o ABSOLUTE
    __use_no_heap_region                     0x00000000   Number         0  useno.o ABSOLUTE
    __use_no_semihosting                     0x00000000   Number         0  useno.o ABSOLUTE
    __use_no_semihosting_swi                 0x00000000   Number         0  useno.o ABSOLUTE
    __use_no_signal_handling                 0x00000000   Number         0  useno.o ABSOLUTE
    __cpp_initialize__aeabi_                  - Undefined Weak Reference
    __cxa_finalize                            - Undefined Weak Reference
    __decompress                              - Undefined Weak Reference
    _clock_init                               - Undefined Weak Reference
    _microlib_exit                            - Undefined Weak Reference
    log_dynamic_data$$Base                    - Undefined Reference
    __Vectors_End                            0x00000200   Data           0  arm_startup_nrf52.o(RESET)
    __Vectors_Size                           0x00000200   Number         0  arm_startup_nrf52.o ABSOLUTE
    __main                                   0x00000201   Thumb Code     0  entry.o(.ARM.Collect$$$$00000000)
    _main_stk                                0x00000201   Thumb Code     0  entry2.o(.ARM.Collect$$$$00000001)
    _main_scatterload                        0x00000205   Thumb Code     0  entry5.o(.ARM.Collect$$$$00000004)
    __main_after_scatterload                 0x00000209   Thumb Code     0  entry5.o(.ARM.Collect$$$$00000004)
    _main_clock                              0x00000209   Thumb Code     0  entry7b.o(.ARM.Collect$$$$00000008)
    _main_cpp_init                           0x00000209   Thumb Code     0  entry8b.o(.ARM.Collect$$$$0000000A)
    _main_init                               0x00000209   Thumb Code     0  entry9a.o(.ARM.Collect$$$$0000000B)
    __rt_final_cpp                           0x00000211   Thumb Code     0  entry10a.o(.ARM.Collect$$$$0000000D)
    __rt_final_exit                          0x00000211   Thumb Code     0  entry11a.o(.ARM.Collect$$$$0000000F)
    __asm___12_nrf_atomic_c_85ca2469__nrf_atomic_internal_mov 0x00000215   Thumb Code    24  nrf_atomic.o(.emb_text)
    __asm___12_nrf_atomic_c_85ca2469__nrf_atomic_internal_orr 0x0000022d   Thumb Code    26  nrf_atomic.o(.emb_text)
    __asm___12_nrf_atomic_c_85ca2469__nrf_atomic_internal_and 0x00000247   Thumb Code    26  nrf_atomic.o(.emb_text)
    __asm___12_nrf_atomic_c_85ca2469__nrf_atomic_internal_eor 0x00000261   Thumb Code    26  nrf_atomic.o(.emb_text)
    __asm___12_nrf_atomic_c_85ca2469__nrf_atomic_internal_add 0x0000027b   Thumb Code    26  nrf_atomic.o(.emb_text)
    __asm___12_nrf_atomic_c_85ca2469__nrf_atomic_internal_sub 0x00000295   Thumb Code    26  nrf_atomic.o(.emb_text)
    __asm___12_nrf_atomic_c_85ca2469__nrf_atomic_internal_cmp_exch 0x000002af   Thumb Code    42  nrf_atomic.o(.emb_text)
    __asm___12_nrf_atomic_c_85ca2469__nrf_atomic_internal_sub_hs 0x000002d9   Thumb Code    30  nrf_atomic.o(.emb_text)
    Reset_Handler                            0x000002f9   Thumb Code     8  arm_startup_nrf52.o(.text)
    NMI_Handler                              0x00000301   Thumb Code     2  arm_startup_nrf52.o(.text)
    HardFault_Handler                        0x00000303   Thumb Code     2  arm_startup_nrf52.o(.text)
    MemoryManagement_Handler                 0x00000305   Thumb Code     2  arm_startup_nrf52.o(.text)
    BusFault_Handler                         0x00000307   Thumb Code     2  arm_startup_nrf52.o(.text)
    UsageFault_Handler                       0x00000309   Thumb Code     2  arm_startup_nrf52.o(.text)
    SVC_Handler                              0x0000030b   Thumb Code     2  arm_startup_nrf52.o(.text)
    DebugMon_Handler                         0x0000030d   Thumb Code     2  arm_startup_nrf52.o(.text)
    PendSV_Handler                           0x0000030f   Thumb Code     2  arm_startup_nrf52.o(.text)
    SysTick_Handler                          0x00000311   Thumb Code     2  arm_startup_nrf52.o(.text)
    CCM_AAR_IRQHandler                       0x00000313   Thumb Code     0  arm_startup_nrf52.o(.text)
    COMP_LPCOMP_IRQHandler                   0x00000313   Thumb Code     0  arm_startup_nrf52.o(.text)
    ECB_IRQHandler                           0x00000313   Thumb Code     0  arm_startup_nrf52.o(.text)
    FPU_IRQHandler                           0x00000313   Thumb Code     0  arm_startup_nrf52.o(.text)
    GPIOTE_IRQHandler                        0x00000313   Thumb Code     0  arm_startup_nrf52.o(.text)
    I2S_IRQHandler                           0x00000313   Thumb Code     0  arm_startup_nrf52.o(.text)
    MWU_IRQHandler                           0x00000313   Thumb Code     0  arm_startup_nrf52.o(.text)
    NFCT_IRQHandler                          0x00000313   Thumb Code     0  arm_startup_nrf52.o(.text)
    PDM_IRQHandler                           0x00000313   Thumb Code     0  arm_startup_nrf52.o(.text)
    POWER_CLOCK_IRQHandler                   0x00000313   Thumb Code     0  arm_startup_nrf52.o(.text)
    PWM0_IRQHandler                          0x00000313   Thumb Code     0  arm_startup_nrf52.o(.text)
    PWM1_IRQHandler                          0x00000313   Thumb Code     0  arm_startup_nrf52.o(.text)
    PWM2_IRQHandler                          0x00000313   Thumb Code     0  arm_startup_nrf52.o(.text)
    QDEC_IRQHandler                          0x00000313   Thumb Code     0  arm_startup_nrf52.o(.text)
    RADIO_IRQHandler                         0x00000313   Thumb Code     0  arm_startup_nrf52.o(.text)
    RNG_IRQHandler                           0x00000313   Thumb Code     0  arm_startup_nrf52.o(.text)
    RTC0_IRQHandler                          0x00000313   Thumb Code     0  arm_startup_nrf52.o(.text)
    RTC1_IRQHandler                          0x00000313   Thumb Code     0  arm_startup_nrf52.o(.text)
    RTC2_IRQHandler                          0x00000313   Thumb Code     0  arm_startup_nrf52.o(.text)
    SAADC_IRQHandler                         0x00000313   Thumb Code     0  arm_startup_nrf52.o(.text)
    SPIM1_SPIS1_TWIM1_TWIS1_SPI1_TWI1_IRQHandler 0x00000313   Thumb Code     0  arm_startup_nrf52.o(.text)
    SPIM2_SPIS2_SPI2_IRQHandler              0x00000313   Thumb Code     0  arm_startup_nrf52.o(.text)
    SWI0_EGU0_IRQHandler                     0x00000313   Thumb Code     0  arm_startup_nrf52.o(.text)
    SWI1_EGU1_IRQHandler                     0x00000313   Thumb Code     0  arm_startup_nrf52.o(.text)
    SWI2_EGU2_IRQHandler                     0x00000313   Thumb Code     0  arm_startup_nrf52.o(.text)
    SWI3_EGU3_IRQHandler                     0x00000313   Thumb Code     0  arm_startup_nrf52.o(.text)
    SWI4_EGU4_IRQHandler                     0x00000313   Thumb Code     0  arm_startup_nrf52.o(.text)
    SWI5_EGU5_IRQHandler                     0x00000313   Thumb Code     0  arm_startup_nrf52.o(.text)
    TEMP_IRQHandler                          0x00000313   Thumb Code     0  arm_startup_nrf52.o(.text)
    TIMER0_IRQHandler                        0x00000313   Thumb Code     0  arm_startup_nrf52.o(.text)
    TIMER1_IRQHandler                        0x00000313   Thumb Code     0  arm_startup_nrf52.o(.text)
    TIMER2_IRQHandler                        0x00000313   Thumb Code     0  arm_startup_nrf52.o(.text)
    TIMER3_IRQHandler                        0x00000313   Thumb Code     0  arm_startup_nrf52.o(.text)
    TIMER4_IRQHandler                        0x00000313   Thumb Code     0  arm_startup_nrf52.o(.text)
    WDT_IRQHandler                           0x00000313   Thumb Code     0  arm_startup_nrf52.o(.text)
    __rt_ctype_table                         0x0000031d   Thumb Code     4  ctype_o.o(.text)
    __aeabi_memcpy                           0x00000325   Thumb Code    36  memcpya.o(.text)
    __aeabi_memcpy4                          0x00000325   Thumb Code     0  memcpya.o(.text)
    __aeabi_memcpy8                          0x00000325   Thumb Code     0  memcpya.o(.text)
    __aeabi_memset                           0x00000349   Thumb Code    14  memseta.o(.text)
    __aeabi_memset4                          0x00000349   Thumb Code     0  memseta.o(.text)
    __aeabi_memset8                          0x00000349   Thumb Code     0  memseta.o(.text)
    __aeabi_memclr                           0x00000357   Thumb Code     4  memseta.o(.text)
    __aeabi_memclr4                          0x00000357   Thumb Code     0  memseta.o(.text)
    __aeabi_memclr8                          0x00000357   Thumb Code     0  memseta.o(.text)
    _memset$wrapper                          0x0000035b   Thumb Code    18  memseta.o(.text)
    strlen                                   0x0000036d   Thumb Code    14  strlen.o(.text)
    __scatterload                            0x0000037d   Thumb Code    28  init.o(.text)
    __scatterload_rt2                        0x0000037d   Thumb Code     0  init.o(.text)
    LM75B_set_mode                           0x000003a1   Thumb Code    72  main.o(i.LM75B_set_mode)
    SPIM0_SPIS0_TWIM0_TWIS0_SPI0_TWI0_IRQHandler 0x000003f5   Thumb Code     8  nrfx_twim.o(i.SPIM0_SPIS0_TWIM0_TWIS0_SPI0_TWI0_IRQHandler)
    SystemInit                               0x00000405   Thumb Code   726  system_nrf52.o(i.SystemInit)
    UARTE0_UART0_IRQHandler                  0x00000721   Thumb Code     6  nrfx_prs.o(i.UARTE0_UART0_IRQHandler)
    __scatterload_copy                       0x0000072d   Thumb Code    14  handlers.o(i.__scatterload_copy)
    __scatterload_null                       0x0000073b   Thumb Code     2  handlers.o(i.__scatterload_null)
    __scatterload_zeroinit                   0x0000073d   Thumb Code    14  handlers.o(i.__scatterload_zeroinit)
    app_error_fault_handler                  0x0000074d   Thumb Code    86  app_error_weak.o(i.app_error_fault_handler)
    app_error_handler_bare                   0x000007d1   Thumb Code    22  app_error.o(i.app_error_handler_bare)
    app_util_critical_region_enter           0x000007e7   Thumb Code     4  app_util_platform.o(i.app_util_critical_region_enter)
    app_util_critical_region_exit            0x000007eb   Thumb Code     4  app_util_platform.o(i.app_util_critical_region_exit)
    app_util_disable_irq                     0x000007f1   Thumb Code    12  app_util_platform.o(i.app_util_disable_irq)
    app_util_enable_irq                      0x00000801   Thumb Code    14  app_util_platform.o(i.app_util_enable_irq)
    buffer_is_empty                          0x000009dd   Thumb Code    16  nrf_log_frontend.o(i.buffer_is_empty)
    main                                     0x00000c01   Thumb Code   124  main.o(i.main)
    nrf_atomic_flag_clear_fetch              0x00000d5d   Thumb Code     6  nrf_atomic.o(i.nrf_atomic_flag_clear_fetch)
    nrf_atomic_flag_set                      0x00000d63   Thumb Code     6  nrf_atomic.o(i.nrf_atomic_flag_set)
    nrf_atomic_u32_add                       0x00000d69   Thumb Code    12  nrf_atomic.o(i.nrf_atomic_u32_add)
    nrf_atomic_u32_fetch_and                 0x00000d75   Thumb Code    10  nrf_atomic.o(i.nrf_atomic_u32_fetch_and)
    nrf_atomic_u32_fetch_store               0x00000d7f   Thumb Code    10  nrf_atomic.o(i.nrf_atomic_u32_fetch_store)
    nrf_atomic_u32_or                        0x00000d89   Thumb Code    12  nrf_atomic.o(i.nrf_atomic_u32_or)
    nrf_atomic_u32_sub                       0x00000d95   Thumb Code    12  nrf_atomic.o(i.nrf_atomic_u32_sub)
    nrf_balloc_alloc                         0x00000da1   Thumb Code    62  nrf_balloc.o(i.nrf_balloc_alloc)
    nrf_balloc_free                          0x00000ddf   Thumb Code    42  nrf_balloc.o(i.nrf_balloc_free)
    nrf_balloc_init                          0x00000e09   Thumb Code    48  nrf_balloc.o(i.nrf_balloc_init)
    nrf_drv_twi_init                         0x00000e39   Thumb Code    56  nrf_drv_twi.o(i.nrf_drv_twi_init)
    nrf_drv_uart_init                        0x00000e89   Thumb Code    90  nrf_drv_uart.o(i.nrf_drv_uart_init)
    nrf_fprintf                              0x00000ef1   Thumb Code    26  nrf_fprintf.o(i.nrf_fprintf)
    nrf_fprintf_buffer_flush                 0x00000f0b   Thumb Code    24  nrf_fprintf.o(i.nrf_fprintf_buffer_flush)
    nrf_fprintf_fmt                          0x00000f23   Thumb Code   474  nrf_fprintf_format.o(i.nrf_fprintf_fmt)
    nrf_log_backend_add                      0x000011e9   Thumb Code    86  nrf_log_frontend.o(i.nrf_log_backend_add)
    nrf_log_backend_serial_put               0x00001245   Thumb Code   200  nrf_log_backend_serial.o(i.nrf_log_backend_serial_put)
    nrf_log_backend_uart_init                0x0000130f   Thumb Code     6  nrf_log_backend_uart.o(i.nrf_log_backend_uart_init)
    nrf_log_color_id_get                     0x00001359   Thumb Code    42  nrf_log_frontend.o(i.nrf_log_color_id_get)
    nrf_log_default_backends_init            0x00001389   Thumb Code    24  nrf_log_default_backends.o(i.nrf_log_default_backends_init)
    nrf_log_frontend_dequeue                 0x000013a5   Thumb Code   522  nrf_log_frontend.o(i.nrf_log_frontend_dequeue)
    nrf_log_frontend_std_0                   0x000015d5   Thumb Code     8  nrf_log_frontend.o(i.nrf_log_frontend_std_0)
    nrf_log_frontend_std_1                   0x000015dd   Thumb Code    14  nrf_log_frontend.o(i.nrf_log_frontend_std_1)
    nrf_log_hexdump_entry_process            0x000015ed   Thumb Code   150  nrf_log_str_formatter.o(i.nrf_log_hexdump_entry_process)
    nrf_log_init                             0x0000169d   Thumb Code    46  nrf_log_frontend.o(i.nrf_log_init)
    nrf_log_module_cnt_get                   0x000016d9   Thumb Code    10  nrf_log_frontend.o(i.nrf_log_module_cnt_get)
    nrf_log_module_name_get                  0x000016ed   Thumb Code    24  nrf_log_frontend.o(i.nrf_log_module_name_get)
    nrf_log_panic                            0x00001709   Thumb Code    38  nrf_log_frontend.o(i.nrf_log_panic)
    nrf_log_std_entry_process                0x00001735   Thumb Code   182  nrf_log_str_formatter.o(i.nrf_log_std_entry_process)
    nrf_memobj_alloc                         0x000017eb   Thumb Code    96  nrf_memobj.o(i.nrf_memobj_alloc)
    nrf_memobj_free                          0x0000184b   Thumb Code    50  nrf_memobj.o(i.nrf_memobj_free)
    nrf_memobj_get                           0x0000187d   Thumb Code     8  nrf_memobj.o(i.nrf_memobj_get)
    nrf_memobj_pool_init                     0x00001885   Thumb Code     4  nrf_memobj.o(i.nrf_memobj_pool_init)
    nrf_memobj_put                           0x00001889   Thumb Code    30  nrf_memobj.o(i.nrf_memobj_put)
    nrf_memobj_read                          0x000018a7   Thumb Code    16  nrf_memobj.o(i.nrf_memobj_read)
    nrf_memobj_write                         0x000018b7   Thumb Code    16  nrf_memobj.o(i.nrf_memobj_write)
    nrf_ringbuf_init                         0x000018c7   Thumb Code    28  nrf_ringbuf.o(i.nrf_ringbuf_init)
    nrfx_prs_acquire                         0x00001961   Thumb Code    48  nrfx_prs.o(i.nrfx_prs_acquire)
    nrfx_prs_release                         0x00001991   Thumb Code    18  nrfx_prs.o(i.nrfx_prs_release)
    nrfx_twim_enable                         0x000019a5   Thumb Code    32  nrfx_twim.o(i.nrfx_twim_enable)
    nrfx_twim_init                           0x000019c9   Thumb Code   214  nrfx_twim.o(i.nrfx_twim_init)
    nrfx_twim_rx                             0x00001aa9   Thumb Code    44  nrfx_twim.o(i.nrfx_twim_rx)
    nrfx_twim_tx                             0x00001ad9   Thumb Code    54  nrfx_twim.o(i.nrfx_twim_tx)
    nrfx_twim_xfer                           0x00001b11   Thumb Code    34  nrfx_twim.o(i.nrfx_twim_xfer)
    nrfx_uart_0_irq_handler                  0x00001b39   Thumb Code     8  nrfx_uart.o(i.nrfx_uart_0_irq_handler)
    nrfx_uart_init                           0x00001b49   Thumb Code   196  nrfx_uart.o(i.nrfx_uart_init)
    nrfx_uart_tx                             0x00001c19   Thumb Code   162  nrfx_uart.o(i.nrfx_uart_tx)
    nrfx_uart_tx_in_progress                 0x00001cc1   Thumb Code    26  nrfx_uart.o(i.nrfx_uart_tx_in_progress)
    nrfx_uart_uninit                         0x00001ce1   Thumb Code   170  nrfx_uart.o(i.nrfx_uart_uninit)
    nrfx_uarte_0_irq_handler                 0x00001d95   Thumb Code     8  nrfx_uarte.o(i.nrfx_uarte_0_irq_handler)
    nrfx_uarte_init                          0x00001da5   Thumb Code   100  nrfx_uarte.o(i.nrfx_uarte_init)
    nrfx_uarte_tx                            0x00001e11   Thumb Code   166  nrfx_uarte.o(i.nrfx_uarte_tx)
    nrfx_uarte_tx_in_progress                0x00001ebd   Thumb Code    22  nrfx_uarte.o(i.nrfx_uarte_tx_in_progress)
    nrfx_uarte_uninit                        0x00001ed9   Thumb Code   214  nrfx_uarte.o(i.nrfx_uarte_uninit)
    twi_handler                              0x0000227d   Thumb Code    44  main.o(i.twi_handler)
    twi_init                                 0x000022d9   Thumb Code    40  main.o(i.twi_init)
    nrf_log_backend_uart_api                 0x00002bc8   Data          12  nrf_log_backend_uart.o(.constdata)
    __ctype_table                            0x00002c00   Data         129  ctype_o.o(.constdata)
    Region$$Table$$Base                      0x00002d24   Number         0  anon$$obj.o(Region$$Table)
    Region$$Table$$Limit                     0x00002d44   Number         0  anon$$obj.o(Region$$Table)
    log_const_data$$Base                     0x00002d54   Number         0  nrfx_prs.o(log_const_data)
    m_nrf_log_PRS_logs_data_const            0x00002d54   Data           8  nrfx_prs.o(log_const_data)
    m_nrf_log_TWIM_logs_data_const           0x00002d5c   Data           8  nrfx_twim.o(log_const_data)
    m_nrf_log_UART_logs_data_const           0x00002d64   Data           8  nrfx_uart.o(log_const_data)
    m_nrf_log_UARTE_logs_data_const          0x00002d6c   Data           8  nrfx_uarte.o(log_const_data)
    m_nrf_log_app_logs_data_const            0x00002d74   Data           8  nrf_log_frontend.o(log_const_data)
    log_const_data$$Limit                    0x00002d7c   Number         0  nrf_log_frontend.o(log_const_data)
    log_mempool                              0x00002d7c   Data          20  nrf_log_frontend.o(nrf_balloc)
    SystemCoreClock                          0x20000000   Data           4  system_nrf52.o(.data)
    nrf_drv_uart_use_easy_dma                0x20000018   Data           1  nrf_drv_uart.o(.data)
    m_uart                                   0x20000034   Data          20  nrf_log_backend_uart.o(.data)
    __initial_sp                             0x200026e0   Data           0  arm_startup_nrf52.o(STACK)



==============================================================================

Memory Map of the image

  Image Entry point : 0x00000201

  Load Region LR_IROM1 (Base: 0x00000000, Size: 0x00002e30, Max: 0x00080000, ABSOLUTE)

    Execution Region ER_IROM1 (Exec base: 0x00000000, Load base: 0x00000000, Size: 0x00002d90, Max: 0x00080000, ABSOLUTE)

    Exec Addr    Load Addr    Size         Type   Attr      Idx    E Section Name        Object

    0x00000000   0x00000000   0x00000200   Data   RO            3    RESET               arm_startup_nrf52.o
    0x00000200   0x00000200   0x00000000   Code   RO         2664  * .ARM.Collect$$$$00000000  mc_w.l(entry.o)
    0x00000200   0x00000200   0x00000004   Code   RO         2712    .ARM.Collect$$$$00000001  mc_w.l(entry2.o)
    0x00000204   0x00000204   0x00000004   Code   RO         2715    .ARM.Collect$$$$00000004  mc_w.l(entry5.o)
    0x00000208   0x00000208   0x00000000   Code   RO         2717    .ARM.Collect$$$$00000008  mc_w.l(entry7b.o)
    0x00000208   0x00000208   0x00000000   Code   RO         2719    .ARM.Collect$$$$0000000A  mc_w.l(entry8b.o)
    0x00000208   0x00000208   0x00000008   Code   RO         2720    .ARM.Collect$$$$0000000B  mc_w.l(entry9a.o)
    0x00000210   0x00000210   0x00000000   Code   RO         2722    .ARM.Collect$$$$0000000D  mc_w.l(entry10a.o)
    0x00000210   0x00000210   0x00000000   Code   RO         2724    .ARM.Collect$$$$0000000F  mc_w.l(entry11a.o)
    0x00000210   0x00000210   0x00000004   Code   RO         2713    .ARM.Collect$$$$00002712  mc_w.l(entry2.o)
    0x00000214   0x00000214   0x000000e2   Code   RO         1444    .emb_text           nrf_atomic.o
    0x000002f6   0x000002f6   0x00000002   PAD
    0x000002f8   0x000002f8   0x00000024   Code   RO            4    .text               arm_startup_nrf52.o
    0x0000031c   0x0000031c   0x00000008   Code   RO         2672    .text               mc_w.l(ctype_o.o)
    0x00000324   0x00000324   0x00000024   Code   RO         2700    .text               mc_w.l(memcpya.o)
    0x00000348   0x00000348   0x00000024   Code   RO         2702    .text               mc_w.l(memseta.o)
    0x0000036c   0x0000036c   0x0000000e   Code   RO         2704    .text               mc_w.l(strlen.o)
    0x0000037a   0x0000037a   0x00000002   PAD
    0x0000037c   0x0000037c   0x00000024   Code   RO         2728    .text               mc_w.l(init.o)
    0x000003a0   0x000003a0   0x00000054   Code   RO           93    i.LM75B_set_mode    main.o
    0x000003f4   0x000003f4   0x00000010   Code   RO          762    i.SPIM0_SPIS0_TWIM0_TWIS0_SPI0_TWI0_IRQHandler  nrfx_twim.o
    0x00000404   0x00000404   0x0000031c   Code   RO           14    i.SystemInit        system_nrf52.o
    0x00000720   0x00000720   0x0000000c   Code   RO          681    i.UARTE0_UART0_IRQHandler  nrfx_prs.o
    0x0000072c   0x0000072c   0x0000000e   Code   RO         2732    i.__scatterload_copy  mc_w.l(handlers.o)
    0x0000073a   0x0000073a   0x00000002   Code   RO         2733    i.__scatterload_null  mc_w.l(handlers.o)
    0x0000073c   0x0000073c   0x0000000e   Code   RO         2734    i.__scatterload_zeroinit  mc_w.l(handlers.o)
    0x0000074a   0x0000074a   0x00000002   PAD
    0x0000074c   0x0000074c   0x00000084   Code   RO         1331    i.app_error_fault_handler  app_error_weak.o
    0x000007d0   0x000007d0   0x00000016   Code   RO         1262    i.app_error_handler_bare  app_error.o
    0x000007e6   0x000007e6   0x00000004   Code   RO         1355    i.app_util_critical_region_enter  app_util_platform.o
    0x000007ea   0x000007ea   0x00000004   Code   RO         1356    i.app_util_critical_region_exit  app_util_platform.o
    0x000007ee   0x000007ee   0x00000002   PAD
    0x000007f0   0x000007f0   0x00000010   Code   RO         1357    i.app_util_disable_irq  app_util_platform.o
    0x00000800   0x00000800   0x00000014   Code   RO         1358    i.app_util_enable_irq  app_util_platform.o
    0x00000814   0x00000814   0x00000088   Code   RO          920    i.apply_config      nrfx_uart.o
    0x0000089c   0x0000089c   0x00000088   Code   RO         1105    i.apply_config      nrfx_uarte.o
    0x00000924   0x00000924   0x00000088   Code   RO         2068    i.buf_prealloc      nrf_log_frontend.o
    0x000009ac   0x000009ac   0x0000002e   Code   RO         1659    i.buffer_add        nrf_fprintf_format.o
    0x000009da   0x000009da   0x00000002   PAD
    0x000009dc   0x000009dc   0x00000014   Code   RO         2069    i.buffer_is_empty   nrf_log_frontend.o
    0x000009f0   0x000009f0   0x00000014   Code   RO         2070    i.dropped_sat16_get  nrf_log_frontend.o
    0x00000a04   0x00000a04   0x000000a6   Code   RO         1660    i.int_print         nrf_fprintf_format.o
    0x00000aaa   0x00000aaa   0x00000002   PAD
    0x00000aac   0x00000aac   0x00000084   Code   RO         1106    i.interrupts_enable  nrfx_uarte.o
    0x00000b30   0x00000b30   0x00000034   Code   RO         2071    i.invalid_packets_omit  nrf_log_frontend.o
    0x00000b64   0x00000b64   0x0000009c   Code   RO         2072    i.log_skip          nrf_log_frontend.o
    0x00000c00   0x00000c00   0x000000ac   Code   RO           94    i.main              main.o
    0x00000cac   0x00000cac   0x0000007e   Code   RO         1699    i.memobj_op         nrf_memobj.o
    0x00000d2a   0x00000d2a   0x00000002   PAD
    0x00000d2c   0x00000d2c   0x00000030   Code   RO         2073    i.module_idx_get    nrf_log_frontend.o
    0x00000d5c   0x00000d5c   0x00000006   Code   RO         1446    i.nrf_atomic_flag_clear_fetch  nrf_atomic.o
    0x00000d62   0x00000d62   0x00000006   Code   RO         1447    i.nrf_atomic_flag_set  nrf_atomic.o
    0x00000d68   0x00000d68   0x0000000c   Code   RO         1449    i.nrf_atomic_u32_add  nrf_atomic.o
    0x00000d74   0x00000d74   0x0000000a   Code   RO         1453    i.nrf_atomic_u32_fetch_and  nrf_atomic.o
    0x00000d7e   0x00000d7e   0x0000000a   Code   RO         1455    i.nrf_atomic_u32_fetch_store  nrf_atomic.o
    0x00000d88   0x00000d88   0x0000000c   Code   RO         1459    i.nrf_atomic_u32_or  nrf_atomic.o
    0x00000d94   0x00000d94   0x0000000c   Code   RO         1461    i.nrf_atomic_u32_sub  nrf_atomic.o
    0x00000da0   0x00000da0   0x0000003e   Code   RO         1583    i.nrf_balloc_alloc  nrf_balloc.o
    0x00000dde   0x00000dde   0x0000002a   Code   RO         1584    i.nrf_balloc_free   nrf_balloc.o
    0x00000e08   0x00000e08   0x00000030   Code   RO         1585    i.nrf_balloc_init   nrf_balloc.o
    0x00000e38   0x00000e38   0x00000040   Code   RO          422    i.nrf_drv_twi_init  nrf_drv_twi.o
    0x00000e78   0x00000e78   0x0000000e   Code   RO           95    i.nrf_drv_twi_tx    main.o
    0x00000e86   0x00000e86   0x00000002   PAD
    0x00000e88   0x00000e88   0x00000068   Code   RO          490    i.nrf_drv_uart_init  nrf_drv_uart.o
    0x00000ef0   0x00000ef0   0x0000001a   Code   RO         1620    i.nrf_fprintf       nrf_fprintf.o
    0x00000f0a   0x00000f0a   0x00000018   Code   RO         1621    i.nrf_fprintf_buffer_flush  nrf_fprintf.o
    0x00000f22   0x00000f22   0x000001da   Code   RO         1661    i.nrf_fprintf_fmt   nrf_fprintf_format.o
    0x000010fc   0x000010fc   0x00000024   Code   RO          763    i.nrf_gpio_cfg      nrfx_twim.o
    0x00001120   0x00001120   0x00000024   Code   RO          921    i.nrf_gpio_cfg      nrfx_uart.o
    0x00001144   0x00001144   0x00000024   Code   RO         1107    i.nrf_gpio_cfg      nrfx_uarte.o
    0x00001168   0x00001168   0x00000012   Code   RO          922    i.nrf_gpio_cfg_default  nrfx_uart.o
    0x0000117a   0x0000117a   0x00000012   Code   RO         1108    i.nrf_gpio_cfg_default  nrfx_uarte.o
    0x0000118c   0x0000118c   0x00000012   Code   RO          923    i.nrf_gpio_cfg_input  nrfx_uart.o
    0x0000119e   0x0000119e   0x00000012   Code   RO         1109    i.nrf_gpio_cfg_input  nrfx_uarte.o
    0x000011b0   0x000011b0   0x00000014   Code   RO          924    i.nrf_gpio_cfg_output  nrfx_uart.o
    0x000011c4   0x000011c4   0x00000014   Code   RO         1110    i.nrf_gpio_cfg_output  nrfx_uarte.o
    0x000011d8   0x000011d8   0x0000000e   Code   RO          423    i.nrf_gpio_pin_set  nrf_drv_twi.o
    0x000011e6   0x000011e6   0x00000002   PAD
    0x000011e8   0x000011e8   0x0000005c   Code   RO         2074    i.nrf_log_backend_add  nrf_log_frontend.o
    0x00001244   0x00001244   0x000000c8   Code   RO         1891    i.nrf_log_backend_serial_put  nrf_log_backend_serial.o
    0x0000130c   0x0000130c   0x00000002   Code   RO         1934    i.nrf_log_backend_uart_flush  nrf_log_backend_uart.o
    0x0000130e   0x0000130e   0x00000006   Code   RO         1935    i.nrf_log_backend_uart_init  nrf_log_backend_uart.o
    0x00001314   0x00001314   0x0000002c   Code   RO         1936    i.nrf_log_backend_uart_panic_set  nrf_log_backend_uart.o
    0x00001340   0x00001340   0x00000018   Code   RO         1937    i.nrf_log_backend_uart_put  nrf_log_backend_uart.o
    0x00001358   0x00001358   0x00000030   Code   RO         2076    i.nrf_log_color_id_get  nrf_log_frontend.o
    0x00001388   0x00001388   0x0000001c   Code   RO         2032    i.nrf_log_default_backends_init  nrf_log_default_backends.o
    0x000013a4   0x000013a4   0x00000230   Code   RO         2077    i.nrf_log_frontend_dequeue  nrf_log_frontend.o
    0x000015d4   0x000015d4   0x00000008   Code   RO         2079    i.nrf_log_frontend_std_0  nrf_log_frontend.o
    0x000015dc   0x000015dc   0x0000000e   Code   RO         2080    i.nrf_log_frontend_std_1  nrf_log_frontend.o
    0x000015ea   0x000015ea   0x00000002   PAD
    0x000015ec   0x000015ec   0x000000b0   Code   RO         2254    i.nrf_log_hexdump_entry_process  nrf_log_str_formatter.o
    0x0000169c   0x0000169c   0x0000003c   Code   RO         2086    i.nrf_log_init      nrf_log_frontend.o
    0x000016d8   0x000016d8   0x00000014   Code   RO         2087    i.nrf_log_module_cnt_get  nrf_log_frontend.o
    0x000016ec   0x000016ec   0x0000001c   Code   RO         2090    i.nrf_log_module_name_get  nrf_log_frontend.o
    0x00001708   0x00001708   0x0000002c   Code   RO         2091    i.nrf_log_panic     nrf_log_frontend.o
    0x00001734   0x00001734   0x000000b6   Code   RO         2255    i.nrf_log_std_entry_process  nrf_log_str_formatter.o
    0x000017ea   0x000017ea   0x00000060   Code   RO         1700    i.nrf_memobj_alloc  nrf_memobj.o
    0x0000184a   0x0000184a   0x00000032   Code   RO         1701    i.nrf_memobj_free   nrf_memobj.o
    0x0000187c   0x0000187c   0x00000008   Code   RO         1702    i.nrf_memobj_get    nrf_memobj.o
    0x00001884   0x00001884   0x00000004   Code   RO         1703    i.nrf_memobj_pool_init  nrf_memobj.o
    0x00001888   0x00001888   0x0000001e   Code   RO         1704    i.nrf_memobj_put    nrf_memobj.o
    0x000018a6   0x000018a6   0x00000010   Code   RO         1705    i.nrf_memobj_read   nrf_memobj.o
    0x000018b6   0x000018b6   0x00000010   Code   RO         1706    i.nrf_memobj_write  nrf_memobj.o
    0x000018c6   0x000018c6   0x0000001c   Code   RO         1782    i.nrf_ringbuf_init  nrf_ringbuf.o
    0x000018e2   0x000018e2   0x0000000a   Code   RO          765    i.nrf_twim_event_check  nrfx_twim.o
    0x000018ec   0x000018ec   0x0000000c   Code   RO          766    i.nrf_twim_event_clear  nrfx_twim.o
    0x000018f8   0x000018f8   0x0000000a   Code   RO          925    i.nrf_uart_event_check  nrfx_uart.o
    0x00001902   0x00001902   0x0000000c   Code   RO          926    i.nrf_uart_event_clear  nrfx_uart.o
    0x0000190e   0x0000190e   0x0000000c   Code   RO          927    i.nrf_uart_int_enable_check  nrfx_uart.o
    0x0000191a   0x0000191a   0x0000000a   Code   RO         1111    i.nrf_uarte_event_check  nrfx_uarte.o
    0x00001924   0x00001924   0x0000000c   Code   RO         1112    i.nrf_uarte_event_clear  nrfx_uarte.o
    0x00001930   0x00001930   0x00000010   Code   RO          424    i.nrfx_coredep_delay_us  nrf_drv_twi.o
    0x00001940   0x00001940   0x00000010   Code   RO          767    i.nrfx_is_in_ram    nrfx_twim.o
    0x00001950   0x00001950   0x00000010   Code   RO         1113    i.nrfx_is_in_ram    nrfx_uarte.o
    0x00001960   0x00001960   0x00000030   Code   RO          682    i.nrfx_prs_acquire  nrfx_prs.o
    0x00001990   0x00001990   0x00000012   Code   RO          683    i.nrfx_prs_release  nrfx_prs.o
    0x000019a2   0x000019a2   0x00000002   PAD
    0x000019a4   0x000019a4   0x00000024   Code   RO          769    i.nrfx_twim_enable  nrfx_twim.o
    0x000019c8   0x000019c8   0x000000e0   Code   RO          770    i.nrfx_twim_init    nrfx_twim.o
    0x00001aa8   0x00001aa8   0x00000030   Code   RO          772    i.nrfx_twim_rx      nrfx_twim.o
    0x00001ad8   0x00001ad8   0x00000036   Code   RO          775    i.nrfx_twim_tx      nrfx_twim.o
    0x00001b0e   0x00001b0e   0x00000002   PAD
    0x00001b10   0x00001b10   0x00000028   Code   RO          777    i.nrfx_twim_xfer    nrfx_twim.o
    0x00001b38   0x00001b38   0x00000010   Code   RO          928    i.nrfx_uart_0_irq_handler  nrfx_uart.o
    0x00001b48   0x00001b48   0x000000d0   Code   RO          930    i.nrfx_uart_init    nrfx_uart.o
    0x00001c18   0x00001c18   0x000000a8   Code   RO          936    i.nrfx_uart_tx      nrfx_uart.o
    0x00001cc0   0x00001cc0   0x00000020   Code   RO          938    i.nrfx_uart_tx_in_progress  nrfx_uart.o
    0x00001ce0   0x00001ce0   0x000000b4   Code   RO          939    i.nrfx_uart_uninit  nrfx_uart.o
    0x00001d94   0x00001d94   0x00000010   Code   RO         1114    i.nrfx_uarte_0_irq_handler  nrfx_uarte.o
    0x00001da4   0x00001da4   0x0000006c   Code   RO         1116    i.nrfx_uarte_init   nrfx_uarte.o
    0x00001e10   0x00001e10   0x000000ac   Code   RO         1120    i.nrfx_uarte_tx     nrfx_uarte.o
    0x00001ebc   0x00001ebc   0x0000001c   Code   RO         1122    i.nrfx_uarte_tx_in_progress  nrfx_uarte.o
    0x00001ed8   0x00001ed8   0x000000e0   Code   RO         1123    i.nrfx_uarte_uninit  nrfx_uarte.o
    0x00001fb8   0x00001fb8   0x0000003c   Code   RO         2257    i.postfix_process   nrf_log_str_formatter.o
    0x00001ff4   0x00001ff4   0x00000098   Code   RO         2258    i.prefix_process    nrf_log_str_formatter.o
    0x0000208c   0x0000208c   0x00000018   Code   RO          684    i.prs_box_get       nrfx_prs.o
    0x000020a4   0x000020a4   0x00000032   Code   RO          940    i.rx_byte           nrfx_uart.o
    0x000020d6   0x000020d6   0x00000016   Code   RO          941    i.rx_done_event     nrfx_uart.o
    0x000020ec   0x000020ec   0x00000016   Code   RO         1124    i.rx_done_event     nrfx_uarte.o
    0x00002102   0x00002102   0x00000002   PAD
    0x00002104   0x00002104   0x00000040   Code   RO         1938    i.serial_tx         nrf_log_backend_uart.o
    0x00002144   0x00002144   0x0000008c   Code   RO         2093    i.std_n             nrf_log_frontend.o
    0x000021d0   0x000021d0   0x000000aa   Code   RO          425    i.twi_clear_bus     nrf_drv_twi.o
    0x0000227a   0x0000227a   0x00000002   PAD
    0x0000227c   0x0000227c   0x0000005c   Code   RO           96    i.twi_handler       main.o
    0x000022d8   0x000022d8   0x00000030   Code   RO           97    i.twi_init          main.o
    0x00002308   0x00002308   0x00000040   Code   RO          426    i.twim_evt_handler  nrf_drv_twi.o
    0x00002348   0x00002348   0x00000150   Code   RO          778    i.twim_irq_handler  nrfx_twim.o
    0x00002498   0x00002498   0x0000024c   Code   RO          779    i.twim_xfer         nrfx_twim.o
    0x000026e4   0x000026e4   0x00000020   Code   RO          943    i.tx_byte           nrfx_uart.o
    0x00002704   0x00002704   0x0000001a   Code   RO          944    i.tx_done_event     nrfx_uart.o
    0x0000271e   0x0000271e   0x0000001a   Code   RO         1125    i.tx_done_event     nrfx_uarte.o
    0x00002738   0x00002738   0x00000030   Code   RO          491    i.uart_evt_handler  nrf_drv_uart.o
    0x00002768   0x00002768   0x0000000c   Code   RO         1939    i.uart_evt_handler  nrf_log_backend_uart.o
    0x00002774   0x00002774   0x00000050   Code   RO         1940    i.uart_init         nrf_log_backend_uart.o
    0x000027c4   0x000027c4   0x0000012a   Code   RO          945    i.uart_irq_handler  nrfx_uart.o
    0x000028ee   0x000028ee   0x00000002   PAD
    0x000028f0   0x000028f0   0x00000030   Code   RO          492    i.uarte_evt_handler  nrf_drv_uart.o
    0x00002920   0x00002920   0x00000112   Code   RO         1126    i.uarte_irq_handler  nrfx_uarte.o
    0x00002a32   0x00002a32   0x00000002   PAD
    0x00002a34   0x00002a34   0x000000b4   Code   RO         1662    i.unsigned_print    nrf_fprintf_format.o
    0x00002ae8   0x00002ae8   0x0000006c   Code   RO          780    i.xfer_completeness_check  nrfx_twim.o
    0x00002b54   0x00002b54   0x0000000c   PAD
    0x00002b60   0x00002b60   0x00000028   Data   RO           98    .constdata          main.o
    0x00002b88   0x00002b88   0x00000008   PAD
    0x00002b90   0x00002b90   0x00000006   Data   RO          427    .constdata          nrf_drv_twi.o
    0x00002b96   0x00002b96   0x00000002   PAD
    0x00002b98   0x00002b98   0x00000018   Data   RO          783    .constdata          nrfx_twim.o
    0x00002bb0   0x00002bb0   0x00000004   Data   RO          948    .constdata          nrfx_uart.o
    0x00002bb4   0x00002bb4   0x00000004   Data   RO         1129    .constdata          nrfx_uarte.o
    0x00002bb8   0x00002bb8   0x00000010   Data   RO         1663    .constdata          nrf_fprintf_format.o
    0x00002bc8   0x00002bc8   0x0000000c   Data   RO         1942    .constdata          nrf_log_backend_uart.o
    0x00002bd4   0x00002bd4   0x00000020   Data   RO         1943    .constdata          nrf_log_backend_uart.o
    0x00002bf4   0x00002bf4   0x0000000c   Data   RO         2098    .constdata          nrf_log_frontend.o
    0x00002c00   0x00002c00   0x00000081   Data   RO         2673    .constdata          mc_w.l(ctype_o.o)
    0x00002c81   0x00002c81   0x00000003   PAD
    0x00002c84   0x00002c84   0x00000004   Data   RO         2674    .constdata          mc_w.l(ctype_o.o)
    0x00002c88   0x00002c88   0x00000066   Data   RO         2259    .conststring        nrf_log_str_formatter.o
    0x00002cee   0x00002cee   0x00000002   PAD
    0x00002cf0   0x00002cf0   0x00000004   Data   RO          686    .conststrlit        nrfx_prs.o
    0x00002cf4   0x00002cf4   0x00000005   Data   RO          786    .conststrlit        nrfx_twim.o
    0x00002cf9   0x00002cf9   0x00000003   PAD
    0x00002cfc   0x00002cfc   0x00000005   Data   RO          951    .conststrlit        nrfx_uart.o
    0x00002d01   0x00002d01   0x00000003   PAD
    0x00002d04   0x00002d04   0x00000006   Data   RO         1132    .conststrlit        nrfx_uarte.o
    0x00002d0a   0x00002d0a   0x00000002   PAD
    0x00002d0c   0x00002d0c   0x00000011   Data   RO         2033    .conststrlit        nrf_log_default_backends.o
    0x00002d1d   0x00002d1d   0x00000003   PAD
    0x00002d20   0x00002d20   0x00000004   Data   RO         2099    .conststrlit        nrf_log_frontend.o
    0x00002d24   0x00002d24   0x00000020   Data   RO         2730    Region$$Table       anon$$obj.o
    0x00002d44   0x00002d44   0x00000010   Data   RO         2035    log_backends        nrf_log_default_backends.o
    0x00002d54   0x00002d54   0x00000008   Data   RO          688    log_const_data      nrfx_prs.o
    0x00002d5c   0x00002d5c   0x00000008   Data   RO          787    log_const_data      nrfx_twim.o
    0x00002d64   0x00002d64   0x00000008   Data   RO          952    log_const_data      nrfx_uart.o
    0x00002d6c   0x00002d6c   0x00000008   Data   RO         1133    log_const_data      nrfx_uarte.o
    0x00002d74   0x00002d74   0x00000008   Data   RO         2102    log_const_data      nrf_log_frontend.o
    0x00002d7c   0x00002d7c   0x00000014   Data   RO         2103    nrf_balloc          nrf_log_frontend.o


    Execution Region RW_IRAM1 (Exec base: 0x20000000, Load base: 0x00002d90, Size: 0x000026e0, Max: 0x00010000, ABSOLUTE)

    Exec Addr    Load Addr    Size         Type   Attr      Idx    E Section Name        Object

    0x20000000   0x00002d90   0x00000004   Data   RW           15    .data               system_nrf52.o
    0x20000004   0x00002d94   0x00000002   Data   RW           99    .data               main.o
    0x20000006   0x00002d96   0x00000002   PAD
    0x20000008   0x00002d98   0x00000010   Data   RW          428    .data               nrf_drv_twi.o
    0x20000018   0x00002da8   0x0000000c   Data   RW          493    .data               nrf_drv_uart.o
    0x20000024   0x00002db4   0x00000008   Data   RW          687    .data               nrfx_prs.o
    0x2000002c   0x00002dbc   0x00000004   Data   RW         1361    .data               app_util_platform.o
    0x20000030   0x00002dc0   0x00000018   Data   RW         1944    .data               nrf_log_backend_uart.o
    0x20000048   0x00002dd8   0x00000008   Data   RW         2034    .data               nrf_log_default_backends.o
    0x20000050   0x00002de0   0x00000008   Data   RW         2100    .data               nrf_log_frontend.o
    0x20000058   0x00002de8   0x00000008   Data   RW         2101    .data               nrf_log_frontend.o
    0x20000060   0x00002df0   0x00000040   Data   RW         2260    .data               nrf_log_str_formatter.o
    0x200000a0        -       0x00000034   Zero   RW          781    .bss                nrfx_twim.o
    0x200000d4        -       0x0000002c   Zero   RW          946    .bss                nrfx_uart.o
    0x20000100        -       0x00000024   Zero   RW         1127    .bss                nrfx_uarte.o
    0x20000124        -       0x00000040   Zero   RW         1941    .bss                nrf_log_backend_uart.o
    0x20000164        -       0x000000c0   Zero   RW         2094    .bss                nrf_log_frontend.o
    0x20000224        -       0x00000080   Zero   RW         2095    .bss                nrf_log_frontend.o
    0x200002a4        -       0x00000018   Zero   RW         2096    .bss                nrf_log_frontend.o
    0x200002bc        -       0x00000424   Zero   RW         2097    .bss                nrf_log_frontend.o
    0x200006e0        -       0x00002000   Zero   RW            1    STACK               arm_startup_nrf52.o


==============================================================================

Image component sizes


      Code (inc. data)   RO Data    RW Data    ZI Data      Debug   Object Name

        22          0          0          0          0       2413   app_error.o
         0          0          0          0          0        412   app_error_handler_keil.o
       132         46          0          0          0        762   app_error_weak.o
        44         10          0          4          0       3196   app_util_platform.o
        36          8        512          0       8192        948   arm_startup_nrf52.o
         0          0          0          0          0        540   boards.o
       410        116         40          2          0      39410   main.o
       294          0          0          0          0       7619   nrf_atomic.o
       152          0          0          0          0       3468   nrf_balloc.o
       328         16          6         16          0      22891   nrf_drv_twi.o
       200         26          0         12          0      17572   nrf_drv_uart.o
        50          0          0          0          0       3473   nrf_fprintf.o
       866          4         16          0          0       6442   nrf_fprintf_format.o
       200          0          0          0          0      11457   nrf_log_backend_serial.o
       232         44         44         24         64      49962   nrf_log_backend_uart.o
        28          4         33          8          0       3281   nrf_log_default_backends.o
      1446        116         44         16       1404      28349   nrf_log_frontend.o
       570        108        102         64          0       5520   nrf_log_str_formatter.o
       346          0          0          0          0       9367   nrf_memobj.o
        28          0          0          0          0       2303   nrf_ringbuf.o
       102         16         12          8          0       5544   nrfx_prs.o
      1524         52         37          0         52      59092   nrfx_twim.o
      1294         42         17          0         44      28297   nrfx_uart.o
      1268         42         18          0         36      23191   nrfx_uarte.o
       796         70          0          4          0      63422   system_nrf52.o

    ----------------------------------------------------------------------
     10408        732        936        160       9792     398931   Object Totals
         0          0         32          0          0          0   (incl. Generated)
        40         12         23          2          0          0   (incl. Padding)

    ----------------------------------------------------------------------

      Code (inc. data)   RO Data    RW Data    ZI Data      Debug   Library Member Name

         8          4        133          0          0         68   ctype_o.o
         0          0          0          0          0          0   entry.o
         0          0          0          0          0          0   entry10a.o
         0          0          0          0          0          0   entry11a.o
         8          4          0          0          0          0   entry2.o
         4          0          0          0          0          0   entry5.o
         0          0          0          0          0          0   entry7b.o
         0          0          0          0          0          0   entry8b.o
         8          4          0          0          0          0   entry9a.o
        30          0          0          0          0          0   handlers.o
        36          8          0          0          0         68   init.o
        36          0          0          0          0         68   memcpya.o
        36          0          0          0          0        108   memseta.o
        14          0          0          0          0         68   strlen.o

    ----------------------------------------------------------------------
       184         20        136          0          0        380   Library Totals
         4          0          3          0          0          0   (incl. Padding)

    ----------------------------------------------------------------------

      Code (inc. data)   RO Data    RW Data    ZI Data      Debug   Library Name

       180         20        133          0          0        380   mc_w.l

    ----------------------------------------------------------------------
       184         20        136          0          0        380   Library Totals

    ----------------------------------------------------------------------

==============================================================================


      Code (inc. data)   RO Data    RW Data    ZI Data      Debug   

     10592        752       1072        160       9792     387263   Grand Totals
     10592        752       1072        160       9792     387263   ELF Image Totals
     10592        752       1072        160          0          0   ROM Totals

==============================================================================

    Total RO  Size (Code + RO Data)                11664 (  11.39kB)
    Total RW  Size (RW Data + ZI Data)              9952 (   9.72kB)
    Total ROM Size (Code + RO Data + RW Data)      11824 (  11.55kB)

==============================================================================

