Component: ARM Compiler 5.06 update 6 (build 750) Tool: armlink [4d35ed]

==============================================================================

Section Cross References

    system_stm32f10x.o(.text) refers to system_stm32f10x.o(.data) for SystemCoreClock
    main.o(.text) refers to delay.o(.text) for delay_init
    main.o(.text) refers to led.o(.text) for LED_Init()
    main.o(.text) refers to key.o(.text) for KeyInit()
    main.o(.text) refers to hw_config.o(.text) for USB_Port_Set
    main.o(.text) refers to usb_init.o(.text) for USB_Init
    main.o(.ARM.exidx) refers to main.o(.text) for .text
    led.o(.text) refers to stm32f10x_rcc.o(.text) for RCC_APB2PeriphClockCmd
    led.o(.text) refers to stm32f10x_gpio.o(.text) for GPIO_Init
    led.o(.ARM.exidx) refers to led.o(.text) for .text
    spi.o(.text) refers to stm32f10x_spi.o(.text) for SPI_I2S_GetFlagStatus
    spi.o(.text) refers to stm32f10x_rcc.o(.text) for RCC_APB2PeriphClockCmd
    spi.o(.text) refers to stm32f10x_gpio.o(.text) for GPIO_Init
    spi.o(.text) refers to spi.o(.bss) for SPI_InitStructure
    flash.o(.text) refers to spi.o(.text) for SPI1_ReadWriteByte
    flash.o(.text) refers to stm32f10x_rcc.o(.text) for RCC_APB2PeriphClockCmd
    flash.o(.text) refers to stm32f10x_gpio.o(.text) for GPIO_Init
    flash.o(.text) refers to delay.o(.text) for delay_us
==============================================================================

Removing Unused input sections from the image.

    Removing main.o(.ARM.exidx), (8 bytes).
    Removing led.o(.ARM.exidx), (8 bytes).
    Removing spi.o(.text), (456 bytes).
    Removing spi.o(.bss), (18 bytes).
    Removing flash.o(.text), (840 bytes).
    Removing flash.o(.bss), (4096 bytes).
    Removing flash.o(.data), (2 bytes).
    Removing sys.o(.emb_text), (6 bytes).
    Removing sys.o(.text), (12 bytes).
    Removing core_cm3.o(.emb_text), (32 bytes).
    Removing startup_stm32f10x_hd.o(HEAP), (3072 bytes).
    Removing stm32f10x_spi.o(.text), (780 bytes).
    Removing key.o(.ARM.exidx), (8 bytes).
    Removing dadd.o(.text), (334 bytes).
    Removing dmul.o(.text), (228 bytes).
    Removing ddiv.o(.text), (222 bytes).
    Removing dfixul.o(.text), (48 bytes).
    Removing cdrcmple.o(.text), (48 bytes).
==============================================================================

Image Symbol Table

    Local Symbols

    Symbol Name                              Value     Ov Type        Size  Object(Section)

    ../clib/../cmprslib/zerorunl2.c          0x00000000   Number         0  __dczerorl2.o ABSOLUTE
    ../clib/microlib/division.c              0x00000000   Number         0  uidiv.o ABSOLUTE
    ../clib/microlib/division.c              0x00000000   Number         0  uldiv.o ABSOLUTE
    ../clib/microlib/init/entry.s            0x00000000   Number         0  entry8a.o ABSOLUTE
    ../clib/microlib/init/entry.s            0x00000000   Number         0  entry9b.o ABSOLUTE
    ../clib/microlib/init/entry.s            0x00000000   Number         0  entry9a.o ABSOLUTE
    ../clib/microlib/init/entry.s            0x00000000   Number         0  entry.o ABSOLUTE
    ../clib/microlib/init/entry.s            0x00000000   Number         0  entry5.o ABSOLUTE
    ../clib/microlib/init/entry.s            0x00000000   Number         0  entry10b.o ABSOLUTE
    ../clib/microlib/init/entry.s            0x00000000   Number         0  entry8b.o ABSOLUTE
    ../clib/microlib/init/entry.s            0x00000000   Number         0  entry11a.o ABSOLUTE
    ../clib/microlib/init/entry.s            0x00000000   Number         0  entry11b.o ABSOLUTE
    ../clib/microlib/init/entry.s            0x00000000   Number         0  entry7a.o ABSOLUTE
    ../clib/microlib/init/entry.s            0x00000000   Number         0  entry2.o ABSOLUTE
    ../clib/microlib/init/entry.s            0x00000000   Number         0  entry7b.o ABSOLUTE
    ../clib/microlib/init/entry.s            0x00000000   Number         0  entry10a.o ABSOLUTE
    ../clib/microlib/longlong.c              0x00000000   Number         0  llshl.o ABSOLUTE
    ../clib/microlib/longlong.c              0x00000000   Number         0  llsshr.o ABSOLUTE
    ../clib/microlib/longlong.c              0x00000000   Number         0  llushr.o ABSOLUTE
    ../clib/microlib/printf/printf.c         0x00000000   Number         0  printfa.o ABSOLUTE
    ../clib/microlib/printf/printf.c         0x00000000   Number         0  printf5.o ABSOLUTE
    ../clib/microlib/printf/printf.c         0x00000000   Number         0  printf4.o ABSOLUTE
    ../clib/microlib/printf/printf.c         0x00000000   Number         0  printf3.o ABSOLUTE
    ../clib/microlib/printf/printf.c         0x00000000   Number         0  printf2.o ABSOLUTE
    ../clib/microlib/printf/printf.c         0x00000000   Number         0  printf1.o ABSOLUTE
    ../clib/microlib/printf/printf.c         0x00000000   Number         0  printf0.o ABSOLUTE
    ../clib/microlib/printf/printf.c         0x00000000   Number         0  printfb.o ABSOLUTE
    ../clib/microlib/printf/printf.c         0x00000000   Number         0  printf8.o ABSOLUTE
    ../clib/microlib/printf/printf.c         0x00000000   Number         0  printf6.o ABSOLUTE
    ../clib/microlib/printf/printf.c         0x00000000   Number         0  printf7.o ABSOLUTE
    ../clib/microlib/stubs.s                 0x00000000   Number         0  useno.o ABSOLUTE
    ../clib/microlib/stubs.s                 0x00000000   Number         0  iusefp.o ABSOLUTE
    ../fplib/microlib/fpadd.c                0x00000000   Number         0  dadd.o ABSOLUTE
    ../fplib/microlib/fpdiv.c                0x00000000   Number         0  ddiv.o ABSOLUTE
    ../fplib/microlib/fpepilogue.c           0x00000000   Number         0  depilogue.o ABSOLUTE
    ../fplib/microlib/fpfix.c                0x00000000   Number         0  dfixul.o ABSOLUTE
    ../fplib/microlib/fpmul.c                0x00000000   Number         0  dmul.o ABSOLUTE
    ..\CORE\core_cm3.c                       0x00000000   Number         0  core_cm3.o ABSOLUTE
    ..\CORE\startup_stm32f10x_hd.s           0x00000000   Number         0  startup_stm32f10x_hd.o ABSOLUTE
    ..\HARDWARE\FLASH\flash.c                0x00000000   Number         0  flash.o ABSOLUTE
    ..\HARDWARE\LED\led.cpp                  0x00000000   Number         0  led.o ABSOLUTE
    ..\HARDWARE\SPI\spi.c                    0x00000000   Number         0  spi.o ABSOLUTE
    ..\KEY\Key.cpp                           0x00000000   Number         0  key.o ABSOLUTE
    ..\STM32F10x_FWLib\src\misc.c            0x00000000   Number         0  misc.o ABSOLUTE
    ..\STM32F10x_FWLib\src\stm32f10x_exti.c  0x00000000   Number         0  stm32f10x_exti.o ABSOLUTE
    ..\STM32F10x_FWLib\src\stm32f10x_gpio.c  0x00000000   Number         0  stm32f10x_gpio.o ABSOLUTE
    ..\STM32F10x_FWLib\src\stm32f10x_rcc.c   0x00000000   Number         0  stm32f10x_rcc.o ABSOLUTE
    ..\STM32F10x_FWLib\src\stm32f10x_spi.c   0x00000000   Number         0  stm32f10x_spi.o ABSOLUTE
    ..\STM32F10x_FWLib\src\stm32f10x_usart.c 0x00000000   Number         0  stm32f10x_usart.o ABSOLUTE
    ..\SYSTEM\delay\delay.c                  0x00000000   Number         0  delay.o ABSOLUTE
    ..\SYSTEM\sys\sys.c                      0x00000000   Number         0  sys.o ABSOLUTE
    ..\SYSTEM\usart\usart.c                  0x00000000   Number         0  usart.o ABSOLUTE
    ..\USB\CONFIG\hw_config.c                0x00000000   Number         0  hw_config.o ABSOLUTE
    ..\USB\CONFIG\usb_desc.c                 0x00000000   Number         0  usb_desc.o ABSOLUTE
    ..\USB\CONFIG\usb_endp.c                 0x00000000   Number         0  usb_endp.o ABSOLUTE
    ..\USB\CONFIG\usb_istr.c                 0x00000000   Number         0  usb_istr.o ABSOLUTE
    ..\USB\CONFIG\usb_prop.c                 0x00000000   Number         0  usb_prop.o ABSOLUTE
    ..\USB\CONFIG\usb_pwr.c                  0x00000000   Number         0  usb_pwr.o ABSOLUTE
    ..\USB\STM32_USB-FS-Device_Driver\src\usb_core.c 0x00000000   Number         0  usb_core.o ABSOLUTE
    ..\USB\STM32_USB-FS-Device_Driver\src\usb_init.c 0x00000000   Number         0  usb_init.o ABSOLUTE
    ..\USB\STM32_USB-FS-Device_Driver\src\usb_int.c 0x00000000   Number         0  usb_int.o ABSOLUTE
    ..\USB\STM32_USB-FS-Device_Driver\src\usb_mem.c 0x00000000   Number         0  usb_mem.o ABSOLUTE
    ..\USB\STM32_USB-FS-Device_Driver\src\usb_regs.c 0x00000000   Number         0  usb_regs.o ABSOLUTE
    ..\USB\STM32_USB-FS-Device_Driver\src\usb_sil.c 0x00000000   Number         0  usb_sil.o ABSOLUTE
    ..\\CORE\\core_cm3.c                     0x00000000   Number         0  core_cm3.o ABSOLUTE
    ..\\SYSTEM\\sys\\sys.c                   0x00000000   Number         0  sys.o ABSOLUTE
    cdrcmple.s                               0x00000000   Number         0  cdrcmple.o ABSOLUTE
    dc.s                                     0x00000000   Number         0  dc.o ABSOLUTE
    handlers.s                               0x00000000   Number         0  handlers.o ABSOLUTE
    init.s                                   0x00000000   Number         0  init.o ABSOLUTE
    main.cpp                                 0x00000000   Number         0  main.o ABSOLUTE
    stm32f10x_it.c                           0x00000000   Number         0  stm32f10x_it.o ABSOLUTE
    system_stm32f10x.c                       0x00000000   Number         0  system_stm32f10x.o ABSOLUTE
    RESET                                    0x08000000   Section      304  startup_stm32f10x_hd.o(RESET)
    .ARM.Collect$$$$00000000                 0x08000130   Section        0  entry.o(.ARM.Collect$$$$00000000)
    .ARM.Collect$$$$00000001                 0x08000130   Section        4  entry2.o(.ARM.Collect$$$$00000001)
    .ARM.Collect$$$$00000004                 0x08000134   Section        4  entry5.o(.ARM.Collect$$$$00000004)
    .ARM.Collect$$$$00000008                 0x08000138   Section        0  entry7b.o(.ARM.Collect$$$$00000008)
    .ARM.Collect$$$$0000000A                 0x08000138   Section        0  entry8b.o(.ARM.Collect$$$$0000000A)
    .ARM.Collect$$$$0000000B                 0x08000138   Section        8  entry9a.o(.ARM.Collect$$$$0000000B)
    .ARM.Collect$$$$0000000D                 0x08000140   Section        0  entry10a.o(.ARM.Collect$$$$0000000D)
    .ARM.Collect$$$$0000000F                 0x08000140   Section        0  entry11a.o(.ARM.Collect$$$$0000000F)
    .ARM.Collect$$$$00002712                 0x08000140   Section        4  entry2.o(.ARM.Collect$$$$00002712)
    __lit__00000000                          0x08000140   Data           4  entry2.o(.ARM.Collect$$$$00002712)
    .text                                    0x08000144   Section        0  stm32f10x_it.o(.text)
    .text                                    0x08000160   Section        0  system_stm32f10x.o(.text)
    SetSysClockTo72                          0x08000161   Thumb Code   214  system_stm32f10x.o(.text)
    SetSysClock                              0x08000237   Thumb Code     8  system_stm32f10x.o(.text)
    .text                                    0x08000340   Section        0  main.o(.text)
    .text                                    0x080003e4   Section        0  led.o(.text)
    .text                                    0x0800041c   Section        0  delay.o(.text)
    .text                                    0x080004f0   Section        0  usart.o(.text)
    .text                                    0x08000630   Section       36  startup_stm32f10x_hd.o(.text)
    .text                                    0x08000654   Section        0  stm32f10x_gpio.o(.text)
    .text                                    0x080009b0   Section        0  stm32f10x_rcc.o(.text)
    .text                                    0x08000d54   Section        0  stm32f10x_usart.o(.text)
    .text                                    0x0800115c   Section        0  misc.o(.text)
    .text                                    0x08001238   Section        0  stm32f10x_exti.o(.text)
    .text                                    0x08001354   Section        0  usb_core.o(.text)
    DataStageOut                             0x08001793   Thumb Code   166  usb_core.o(.text)
    DataStageIn                              0x08001839   Thumb Code   166  usb_core.o(.text)
    NoData_Setup0                            0x080018df   Thumb Code   290  usb_core.o(.text)
    Data_Setup0                              0x08001a01   Thumb Code   678  usb_core.o(.text)
    .text                                    0x08001ea4   Section        0  usb_init.o(.text)
    .text                                    0x08001ee0   Section        0  usb_int.o(.text)
    .text                                    0x0800221c   Section        0  usb_mem.o(.text)
    .text                                    0x08002278   Section        0  usb_regs.o(.text)
    .text                                    0x08002a80   Section        0  usb_sil.o(.text)
    .text                                    0x08002b00   Section        0  hw_config.o(.text)
    IntToUnicode                             0x08002c4d   Thumb Code    62  hw_config.o(.text)
    .text                                    0x08002d34   Section        0  usb_endp.o(.text)
    .text                                    0x08002d40   Section        0  usb_istr.o(.text)
    .text                                    0x08002f0c   Section        0  usb_prop.o(.text)
    .text                                    0x0800311c   Section        0  usb_pwr.o(.text)
    .text                                    0x080032f4   Section        0  key.o(.text)
    .text                                    0x08003378   Section       36  init.o(.text)
    .text                                    0x0800339c   Section        0  __dczerorl2.o(.text)
    i.__0printf$bare                         0x080033f4   Section        0  printfb.o(i.__0printf$bare)
    i.__scatterload_copy                     0x08003404   Section       14  handlers.o(i.__scatterload_copy)
    i.__scatterload_null                     0x08003412   Section        2  handlers.o(i.__scatterload_null)
    i.__scatterload_zeroinit                 0x08003414   Section       14  handlers.o(i.__scatterload_zeroinit)
    i._printf_core                           0x08003422   Section        0  printfb.o(i._printf_core)
    _printf_core                             0x08003423   Thumb Code    34  printfb.o(i._printf_core)
    .constdata                               0x08003444   Section      182  usb_desc.o(.constdata)
    .data                                    0x20000000   Section       20  system_stm32f10x.o(.data)
    .data                                    0x20000014   Section        4  delay.o(.data)
    fac_us                                   0x20000014   Data           1  delay.o(.data)
    fac_ms                                   0x20000016   Data           2  delay.o(.data)
    .data                                    0x20000018   Section        6  usart.o(.data)
    .data                                    0x2000001e   Section       20  stm32f10x_rcc.o(.data)
    APBAHBPrescTable                         0x2000001e   Data          16  stm32f10x_rcc.o(.data)
    ADCPrescTable                            0x2000002e   Data           4  stm32f10x_rcc.o(.data)
    .data                                    0x20000032   Section        3  usb_core.o(.data)
    .data                                    0x20000038   Section       20  usb_init.o(.data)
    .data                                    0x2000004c   Section        4  usb_int.o(.data)
    .data                                    0x20000050   Section        1  hw_config.o(.data)
    .data                                    0x20000051   Section       26  usb_desc.o(.data)
    .data                                    0x2000006c   Section       68  usb_istr.o(.data)
    .data                                    0x200000b0   Section      156  usb_prop.o(.data)
    .data                                    0x2000014c   Section       12  usb_pwr.o(.data)
    .bss                                     0x20000158   Section      200  usart.o(.bss)
    .bss                                     0x20000220   Section       28  usb_init.o(.bss)
    .bss                                     0x2000023c   Section       32  usb_pwr.o(.bss)
    STACK                                    0x20000260   Section     1024  startup_stm32f10x_hd.o(STACK)

    Global Symbols

    Symbol Name                              Value     Ov Type        Size  Object(Section)

    BuildAttributes$$THM_ISAv4$P$D$K$B$S$PE$A:L22UL41UL21$X:L11$S22US41US21$IEEE1$IW$USESV6$~STKCKD$USESV7$~SHL$OSPACE$ROPI$EBA8$MICROLIB$REQ8$PRES8$EABIv2 0x00000000   Number         0  anon$$obj.o ABSOLUTE
    __ARM_use_no_argv                        0x00000000   Number         0  main.o ABSOLUTE
    __use_no_errno                           0x00000000   Number         0  useno.o ABSOLUTE
    __use_no_exception_handling              0x00000000   Number         0  useno.o ABSOLUTE
    __use_no_fp                              0x00000000   Number         0  useno.o ABSOLUTE
    __use_no_heap                            0x00000000   Number         0  useno.o ABSOLUTE
    __use_no_heap_region                     0x00000000   Number         0  useno.o ABSOLUTE
    __use_no_semihosting                     0x00000000   Number         0  useno.o ABSOLUTE
    __use_no_semihosting_swi                 0x00000000   Number         0  useno.o ABSOLUTE
    __use_no_signal_handling                 0x00000000   Number         0  useno.o ABSOLUTE
    __cpp_initialize__aeabi_                  - Undefined Weak Reference
    __cxa_finalize                            - Undefined Weak Reference
    _clock_init                               - Undefined Weak Reference
    _microlib_exit                            - Undefined Weak Reference
    __Vectors_Size                           0x00000130   Number         0  startup_stm32f10x_hd.o ABSOLUTE
    __Vectors                                0x08000000   Data           4  startup_stm32f10x_hd.o(RESET)
    __Vectors_End                            0x08000130   Data           0  startup_stm32f10x_hd.o(RESET)
    __main                                   0x08000131   Thumb Code     0  entry.o(.ARM.Collect$$$$00000000)
    _main_stk                                0x08000131   Thumb Code     0  entry2.o(.ARM.Collect$$$$00000001)
    _main_scatterload                        0x08000135   Thumb Code     0  entry5.o(.ARM.Collect$$$$00000004)
    __main_after_scatterload                 0x08000139   Thumb Code     0  entry5.o(.ARM.Collect$$$$00000004)
    _main_clock                              0x08000139   Thumb Code     0  entry7b.o(.ARM.Collect$$$$00000008)
    _main_cpp_init                           0x08000139   Thumb Code     0  entry8b.o(.ARM.Collect$$$$0000000A)
    _main_init                               0x08000139   Thumb Code     0  entry9a.o(.ARM.Collect$$$$0000000B)
    __rt_final_cpp                           0x08000141   Thumb Code     0  entry10a.o(.ARM.Collect$$$$0000000D)
    __rt_final_exit                          0x08000141   Thumb Code     0  entry11a.o(.ARM.Collect$$$$0000000F)
    NMI_Handler                              0x08000145   Thumb Code     2  stm32f10x_it.o(.text)
    HardFault_Handler                        0x08000147   Thumb Code     4  stm32f10x_it.o(.text)
    MemManage_Handler                        0x0800014b   Thumb Code     4  stm32f10x_it.o(.text)
    BusFault_Handler                         0x0800014f   Thumb Code     4  stm32f10x_it.o(.text)
    UsageFault_Handler                       0x08000153   Thumb Code     4  stm32f10x_it.o(.text)
    SVC_Handler                              0x08000157   Thumb Code     2  stm32f10x_it.o(.text)
    DebugMon_Handler                         0x08000159   Thumb Code     2  stm32f10x_it.o(.text)
    PendSV_Handler                           0x0800015b   Thumb Code     2  stm32f10x_it.o(.text)
    SysTick_Handler                          0x0800015d   Thumb Code     2  stm32f10x_it.o(.text)
    SystemInit                               0x0800023f   Thumb Code    78  system_stm32f10x.o(.text)
    SystemCoreClockUpdate                    0x0800028d   Thumb Code   142  system_stm32f10x.o(.text)
    main                                     0x08000341   Thumb Code   164  main.o(.text)
    LED_Init()                               0x080003e5   Thumb Code    50  led.o(.text)
    delay_init                               0x0800041d   Thumb Code    50  delay.o(.text)
    delay_us                                 0x0800044f   Thumb Code    72  delay.o(.text)
    delay_ms                                 0x08000497   Thumb Code    72  delay.o(.text)
    _sys_exit                                0x080004f1   Thumb Code     6  usart.o(.text)
    fputc                                    0x080004f7   Thumb Code    24  usart.o(.text)
    uart_init                                0x0800050f   Thumb Code   152  usart.o(.text)
    USART1_IRQHandler                        0x080005a7   Thumb Code   122  usart.o(.text)
    Reset_Handler                            0x08000631   Thumb Code     8  startup_stm32f10x_hd.o(.text)
    ADC1_2_IRQHandler                        0x0800064b   Thumb Code     0  startup_stm32f10x_hd.o(.text)
    ADC3_IRQHandler                          0x0800064b   Thumb Code     0  startup_stm32f10x_hd.o(.text)
    CAN1_RX1_IRQHandler                      0x0800064b   Thumb Code     0  startup_stm32f10x_hd.o(.text)
    CAN1_SCE_IRQHandler                      0x0800064b   Thumb Code     0  startup_stm32f10x_hd.o(.text)
    DMA1_Channel1_IRQHandler                 0x0800064b   Thumb Code     0  startup_stm32f10x_hd.o(.text)
    DMA1_Channel2_IRQHandler                 0x0800064b   Thumb Code     0  startup_stm32f10x_hd.o(.text)
    DMA1_Channel3_IRQHandler                 0x0800064b   Thumb Code     0  startup_stm32f10x_hd.o(.text)
    DMA1_Channel4_IRQHandler                 0x0800064b   Thumb Code     0  startup_stm32f10x_hd.o(.text)
    DMA1_Channel5_IRQHandler                 0x0800064b   Thumb Code     0  startup_stm32f10x_hd.o(.text)
    DMA1_Channel6_IRQHandler                 0x0800064b   Thumb Code     0  startup_stm32f10x_hd.o(.text)
    DMA1_Channel7_IRQHandler                 0x0800064b   Thumb Code     0  startup_stm32f10x_hd.o(.text)
    DMA2_Channel1_IRQHandler                 0x0800064b   Thumb Code     0  startup_stm32f10x_hd.o(.text)
    DMA2_Channel2_IRQHandler                 0x0800064b   Thumb Code     0  startup_stm32f10x_hd.o(.text)
    DMA2_Channel3_IRQHandler                 0x0800064b   Thumb Code     0  startup_stm32f10x_hd.o(.text)
    DMA2_Channel4_5_IRQHandler               0x0800064b   Thumb Code     0  startup_stm32f10x_hd.o(.text)
    EXTI0_IRQHandler                         0x0800064b   Thumb Code     0  startup_stm32f10x_hd.o(.text)
    EXTI15_10_IRQHandler                     0x0800064b   Thumb Code     0  startup_stm32f10x_hd.o(.text)
    EXTI1_IRQHandler                         0x0800064b   Thumb Code     0  startup_stm32f10x_hd.o(.text)
    EXTI2_IRQHandler                         0x0800064b   Thumb Code     0  startup_stm32f10x_hd.o(.text)
    EXTI3_IRQHandler                         0x0800064b   Thumb Code     0  startup_stm32f10x_hd.o(.text)
    EXTI4_IRQHandler                         0x0800064b   Thumb Code     0  startup_stm32f10x_hd.o(.text)
    EXTI9_5_IRQHandler                       0x0800064b   Thumb Code     0  startup_stm32f10x_hd.o(.text)
    FLASH_IRQHandler                         0x0800064b   Thumb Code     0  startup_stm32f10x_hd.o(.text)
    FSMC_IRQHandler                          0x0800064b   Thumb Code     0  startup_stm32f10x_hd.o(.text)
    I2C1_ER_IRQHandler                       0x0800064b   Thumb Code     0  startup_stm32f10x_hd.o(.text)
    I2C1_EV_IRQHandler                       0x0800064b   Thumb Code     0  startup_stm32f10x_hd.o(.text)
    I2C2_ER_IRQHandler                       0x0800064b   Thumb Code     0  startup_stm32f10x_hd.o(.text)
    I2C2_EV_IRQHandler                       0x0800064b   Thumb Code     0  startup_stm32f10x_hd.o(.text)
    PVD_IRQHandler                           0x0800064b   Thumb Code     0  startup_stm32f10x_hd.o(.text)
    RCC_IRQHandler                           0x0800064b   Thumb Code     0  startup_stm32f10x_hd.o(.text)
    RTCAlarm_IRQHandler                      0x0800064b   Thumb Code     0  startup_stm32f10x_hd.o(.text)
    RTC_IRQHandler                           0x0800064b   Thumb Code     0  startup_stm32f10x_hd.o(.text)
    SDIO_IRQHandler                          0x0800064b   Thumb Code     0  startup_stm32f10x_hd.o(.text)
    SPI1_IRQHandler                          0x0800064b   Thumb Code     0  startup_stm32f10x_hd.o(.text)
    SPI2_IRQHandler                          0x0800064b   Thumb Code     0  startup_stm32f10x_hd.o(.text)
    SPI3_IRQHandler                          0x0800064b   Thumb Code     0  startup_stm32f10x_hd.o(.text)
    TAMPER_IRQHandler                        0x0800064b   Thumb Code     0  startup_stm32f10x_hd.o(.text)
    TIM1_BRK_IRQHandler                      0x0800064b   Thumb Code     0  startup_stm32f10x_hd.o(.text)
    TIM1_CC_IRQHandler                       0x0800064b   Thumb Code     0  startup_stm32f10x_hd.o(.text)
    TIM1_TRG_COM_IRQHandler                  0x0800064b   Thumb Code     0  startup_stm32f10x_hd.o(.text)
    TIM1_UP_IRQHandler                       0x0800064b   Thumb Code     0  startup_stm32f10x_hd.o(.text)
    TIM2_IRQHandler                          0x0800064b   Thumb Code     0  startup_stm32f10x_hd.o(.text)
    TIM3_IRQHandler                          0x0800064b   Thumb Code     0  startup_stm32f10x_hd.o(.text)
    TIM4_IRQHandler                          0x0800064b   Thumb Code     0  startup_stm32f10x_hd.o(.text)
    TIM5_IRQHandler                          0x0800064b   Thumb Code     0  startup_stm32f10x_hd.o(.text)
    TIM6_IRQHandler                          0x0800064b   Thumb Code     0  startup_stm32f10x_hd.o(.text)
    TIM7_IRQHandler                          0x0800064b   Thumb Code     0  startup_stm32f10x_hd.o(.text)
    TIM8_BRK_IRQHandler                      0x0800064b   Thumb Code     0  startup_stm32f10x_hd.o(.text)
    TIM8_CC_IRQHandler                       0x0800064b   Thumb Code     0  startup_stm32f10x_hd.o(.text)
    TIM8_TRG_COM_IRQHandler                  0x0800064b   Thumb Code     0  startup_stm32f10x_hd.o(.text)
    TIM8_UP_IRQHandler                       0x0800064b   Thumb Code     0  startup_stm32f10x_hd.o(.text)
    UART4_IRQHandler                         0x0800064b   Thumb Code     0  startup_stm32f10x_hd.o(.text)
    UART5_IRQHandler                         0x0800064b   Thumb Code     0  startup_stm32f10x_hd.o(.text)
    USART2_IRQHandler                        0x0800064b   Thumb Code     0  startup_stm32f10x_hd.o(.text)
    USART3_IRQHandler                        0x0800064b   Thumb Code     0  startup_stm32f10x_hd.o(.text)
    USB_HP_CAN1_TX_IRQHandler                0x0800064b   Thumb Code     0  startup_stm32f10x_hd.o(.text)
    WWDG_IRQHandler                          0x0800064b   Thumb Code     0  startup_stm32f10x_hd.o(.text)
    GPIO_DeInit                              0x08000655   Thumb Code   172  stm32f10x_gpio.o(.text)
    GPIO_AFIODeInit                          0x08000701   Thumb Code    20  stm32f10x_gpio.o(.text)
    GPIO_Init                                0x08000715   Thumb Code   278  stm32f10x_gpio.o(.text)
    GPIO_StructInit                          0x0800082b   Thumb Code    16  stm32f10x_gpio.o(.text)
    GPIO_ReadInputDataBit                    0x0800083b   Thumb Code    18  stm32f10x_gpio.o(.text)
    GPIO_ReadInputData                       0x0800084d   Thumb Code     8  stm32f10x_gpio.o(.text)
    GPIO_ReadOutputDataBit                   0x08000855   Thumb Code    18  stm32f10x_gpio.o(.text)
    GPIO_ReadOutputData                      0x08000867   Thumb Code     8  stm32f10x_gpio.o(.text)
    GPIO_SetBits                             0x0800086f   Thumb Code     4  stm32f10x_gpio.o(.text)
    GPIO_ResetBits                           0x08000873   Thumb Code     4  stm32f10x_gpio.o(.text)
    GPIO_WriteBit                            0x08000877   Thumb Code    10  stm32f10x_gpio.o(.text)
    GPIO_Write                               0x08000881   Thumb Code     4  stm32f10x_gpio.o(.text)
    GPIO_PinLockConfig                       0x08000885   Thumb Code    18  stm32f10x_gpio.o(.text)
    GPIO_EventOutputConfig                   0x08000897   Thumb Code    26  stm32f10x_gpio.o(.text)
    GPIO_EventOutputCmd                      0x080008b1   Thumb Code     6  stm32f10x_gpio.o(.text)
    GPIO_PinRemapConfig                      0x080008b7   Thumb Code   138  stm32f10x_gpio.o(.text)
    GPIO_EXTILineConfig                      0x08000941   Thumb Code    66  stm32f10x_gpio.o(.text)
    GPIO_ETH_MediaInterfaceConfig            0x08000983   Thumb Code     8  stm32f10x_gpio.o(.text)
    RCC_DeInit                               0x080009b1   Thumb Code    64  stm32f10x_rcc.o(.text)
    RCC_HSEConfig                            0x080009f1   Thumb Code    70  stm32f10x_rcc.o(.text)
    RCC_GetFlagStatus                        0x08000a37   Thumb Code    56  stm32f10x_rcc.o(.text)
    RCC_WaitForHSEStartUp                    0x08000a6f   Thumb Code    56  stm32f10x_rcc.o(.text)
    RCC_AdjustHSICalibrationValue            0x08000aa7   Thumb Code    20  stm32f10x_rcc.o(.text)
    RCC_HSICmd                               0x08000abb   Thumb Code     6  stm32f10x_rcc.o(.text)
    RCC_PLLConfig                            0x08000ac1   Thumb Code    24  stm32f10x_rcc.o(.text)
    RCC_PLLCmd                               0x08000ad9   Thumb Code     6  stm32f10x_rcc.o(.text)
    RCC_SYSCLKConfig                         0x08000adf   Thumb Code    18  stm32f10x_rcc.o(.text)
    RCC_GetSYSCLKSource                      0x08000af1   Thumb Code    10  stm32f10x_rcc.o(.text)
    RCC_HCLKConfig                           0x08000afb   Thumb Code    18  stm32f10x_rcc.o(.text)
    RCC_PCLK1Config                          0x08000b0d   Thumb Code    18  stm32f10x_rcc.o(.text)
    RCC_PCLK2Config                          0x08000b1f   Thumb Code    20  stm32f10x_rcc.o(.text)
    RCC_ITConfig                             0x08000b33   Thumb Code    26  stm32f10x_rcc.o(.text)
    RCC_USBCLKConfig                         0x08000b4d   Thumb Code     8  stm32f10x_rcc.o(.text)
    RCC_ADCCLKConfig                         0x08000b55   Thumb Code    18  stm32f10x_rcc.o(.text)
    RCC_LSEConfig                            0x08000b67   Thumb Code    50  stm32f10x_rcc.o(.text)
    RCC_LSICmd                               0x08000b99   Thumb Code     6  stm32f10x_rcc.o(.text)
    RCC_RTCCLKConfig                         0x08000b9f   Thumb Code    12  stm32f10x_rcc.o(.text)
    RCC_RTCCLKCmd                            0x08000bab   Thumb Code     8  stm32f10x_rcc.o(.text)
    RCC_GetClocksFreq                        0x08000bb3   Thumb Code   192  stm32f10x_rcc.o(.text)
    RCC_AHBPeriphClockCmd                    0x08000c73   Thumb Code    26  stm32f10x_rcc.o(.text)
    RCC_APB2PeriphClockCmd                   0x08000c8d   Thumb Code    26  stm32f10x_rcc.o(.text)
    RCC_APB1PeriphClockCmd                   0x08000ca7   Thumb Code    26  stm32f10x_rcc.o(.text)
    RCC_APB2PeriphResetCmd                   0x08000cc1   Thumb Code    26  stm32f10x_rcc.o(.text)
    RCC_APB1PeriphResetCmd                   0x08000cdb   Thumb Code    26  stm32f10x_rcc.o(.text)
    RCC_BackupResetCmd                       0x08000cf5   Thumb Code     8  stm32f10x_rcc.o(.text)
    RCC_ClockSecuritySystemCmd               0x08000cfd   Thumb Code     6  stm32f10x_rcc.o(.text)
    RCC_MCOConfig                            0x08000d03   Thumb Code     6  stm32f10x_rcc.o(.text)
    RCC_ClearFlag                            0x08000d09   Thumb Code    14  stm32f10x_rcc.o(.text)
    RCC_GetITStatus                          0x08000d17   Thumb Code    20  stm32f10x_rcc.o(.text)
    RCC_ClearITPendingBit                    0x08000d2b   Thumb Code     6  stm32f10x_rcc.o(.text)
    USART_DeInit                             0x08000d55   Thumb Code   134  stm32f10x_usart.o(.text)
    USART_Init                               0x08000ddb   Thumb Code   210  stm32f10x_usart.o(.text)
    USART_StructInit                         0x08000ead   Thumb Code    24  stm32f10x_usart.o(.text)
    USART_ClockInit                          0x08000ec5   Thumb Code    34  stm32f10x_usart.o(.text)
    USART_ClockStructInit                    0x08000ee7   Thumb Code    12  stm32f10x_usart.o(.text)
    USART_Cmd                                0x08000ef3   Thumb Code    24  stm32f10x_usart.o(.text)
    USART_ITConfig                           0x08000f0b   Thumb Code    74  stm32f10x_usart.o(.text)
    USART_DMACmd                             0x08000f55   Thumb Code    18  stm32f10x_usart.o(.text)
    USART_SetAddress                         0x08000f67   Thumb Code    18  stm32f10x_usart.o(.text)
    USART_WakeUpConfig                       0x08000f79   Thumb Code    18  stm32f10x_usart.o(.text)
    USART_ReceiverWakeUpCmd                  0x08000f8b   Thumb Code    24  stm32f10x_usart.o(.text)
    USART_LINBreakDetectLengthConfig         0x08000fa3   Thumb Code    18  stm32f10x_usart.o(.text)
    USART_LINCmd                             0x08000fb5   Thumb Code    24  stm32f10x_usart.o(.text)
    USART_SendData                           0x08000fcd   Thumb Code     8  stm32f10x_usart.o(.text)
    USART_ReceiveData                        0x08000fd5   Thumb Code    10  stm32f10x_usart.o(.text)
    USART_SendBreak                          0x08000fdf   Thumb Code    10  stm32f10x_usart.o(.text)
    USART_SetGuardTime                       0x08000fe9   Thumb Code    16  stm32f10x_usart.o(.text)
    USART_SetPrescaler                       0x08000ff9   Thumb Code    16  stm32f10x_usart.o(.text)
    USART_SmartCardCmd                       0x08001009   Thumb Code    24  stm32f10x_usart.o(.text)
    USART_SmartCardNACKCmd                   0x08001021   Thumb Code    24  stm32f10x_usart.o(.text)
    USART_HalfDuplexCmd                      0x08001039   Thumb Code    24  stm32f10x_usart.o(.text)
    USART_OverSampling8Cmd                   0x08001051   Thumb Code    22  stm32f10x_usart.o(.text)
    USART_OneBitMethodCmd                    0x08001067   Thumb Code    24  stm32f10x_usart.o(.text)
    USART_IrDAConfig                         0x0800107f   Thumb Code    18  stm32f10x_usart.o(.text)
    USART_IrDACmd                            0x08001091   Thumb Code    24  stm32f10x_usart.o(.text)
    USART_GetFlagStatus                      0x080010a9   Thumb Code    26  stm32f10x_usart.o(.text)
    USART_ClearFlag                          0x080010c3   Thumb Code    18  stm32f10x_usart.o(.text)
    USART_GetITStatus                        0x080010d5   Thumb Code    84  stm32f10x_usart.o(.text)
    USART_ClearITPendingBit                  0x08001129   Thumb Code    52  stm32f10x_usart.o(.text)
    NVIC_PriorityGroupConfig                 0x0800115d   Thumb Code    10  misc.o(.text)
    NVIC_Init                                0x08001167   Thumb Code   100  misc.o(.text)
    NVIC_SetVectorTable                      0x080011cb   Thumb Code    14  misc.o(.text)
    NVIC_SystemLPConfig                      0x080011d9   Thumb Code    34  misc.o(.text)
    SysTick_CLKSourceConfig                  0x080011fb   Thumb Code    40  misc.o(.text)
    EXTI_DeInit                              0x08001239   Thumb Code    28  stm32f10x_exti.o(.text)
    EXTI_Init                                0x08001255   Thumb Code   142  stm32f10x_exti.o(.text)
    EXTI_StructInit                          0x080012e3   Thumb Code    16  stm32f10x_exti.o(.text)
    EXTI_GenerateSWInterrupt                 0x080012f3   Thumb Code    16  stm32f10x_exti.o(.text)
    EXTI_GetFlagStatus                       0x08001303   Thumb Code    22  stm32f10x_exti.o(.text)
    EXTI_ClearFlag                           0x08001319   Thumb Code     8  stm32f10x_exti.o(.text)
    EXTI_GetITStatus                         0x08001321   Thumb Code    34  stm32f10x_exti.o(.text)
    EXTI_ClearITPendingBit                   0x08001343   Thumb Code     8  stm32f10x_exti.o(.text)
    Standard_GetConfiguration                0x08001355   Thumb Code    34  usb_core.o(.text)
    Standard_SetConfiguration                0x08001377   Thumb Code    60  usb_core.o(.text)
    Standard_GetInterface                    0x080013b3   Thumb Code    34  usb_core.o(.text)
    Standard_SetInterface                    0x080013d5   Thumb Code    96  usb_core.o(.text)
    Standard_GetStatus                       0x08001435   Thumb Code   238  usb_core.o(.text)
    Standard_ClearFeature                    0x08001523   Thumb Code   342  usb_core.o(.text)
    Standard_SetEndPointFeature              0x08001679   Thumb Code   220  usb_core.o(.text)
    Standard_SetDeviceFeature                0x08001755   Thumb Code    30  usb_core.o(.text)
    Standard_GetDescriptorData               0x08001773   Thumb Code    32  usb_core.o(.text)
    Post0_Process                            0x08001ca7   Thumb Code    54  usb_core.o(.text)
    Setup0_Process                           0x08001cdd   Thumb Code   170  usb_core.o(.text)
    SetDeviceAddress                         0x08001d87   Thumb Code    70  usb_core.o(.text)
    In0_Process                              0x08001dcd   Thumb Code    98  usb_core.o(.text)
    Out0_Process                             0x08001e2f   Thumb Code    70  usb_core.o(.text)
    NOP_Process                              0x08001e75   Thumb Code     2  usb_core.o(.text)
    USB_Init                                 0x08001ea5   Thumb Code    36  usb_init.o(.text)
    CTR_LP                                   0x08001ee1   Thumb Code   616  usb_int.o(.text)
    CTR_HP                                   0x08002149   Thumb Code   178  usb_int.o(.text)
    UserToPMABufferCopy                      0x0800221d   Thumb Code    52  usb_mem.o(.text)
    PMAToUserBufferCopy                      0x08002251   Thumb Code    34  usb_mem.o(.text)
    SetCNTR                                  0x08002279   Thumb Code     6  usb_regs.o(.text)
    GetCNTR                                  0x0800227f   Thumb Code     8  usb_regs.o(.text)
    SetISTR                                  0x08002287   Thumb Code     8  usb_regs.o(.text)
    GetISTR                                  0x0800228f   Thumb Code    10  usb_regs.o(.text)
    GetFNR                                   0x08002299   Thumb Code    10  usb_regs.o(.text)
    SetDADDR                                 0x080022a3   Thumb Code     8  usb_regs.o(.text)
    GetDADDR                                 0x080022ab   Thumb Code    10  usb_regs.o(.text)
    SetBTABLE                                0x080022b5   Thumb Code    14  usb_regs.o(.text)
    GetBTABLE                                0x080022c3   Thumb Code    10  usb_regs.o(.text)
    SetENDPOINT                              0x080022cd   Thumb Code    12  usb_regs.o(.text)
    GetENDPOINT                              0x080022d9   Thumb Code    16  usb_regs.o(.text)
    SetEPType                                0x080022e9   Thumb Code    32  usb_regs.o(.text)
    GetEPType                                0x08002309   Thumb Code    18  usb_regs.o(.text)
    SetEPTxStatus                            0x0800231b   Thumb Code    60  usb_regs.o(.text)
    SetEPRxStatus                            0x08002357   Thumb Code    60  usb_regs.o(.text)
    SetDouBleBuffEPStall                     0x08002393   Thumb Code    54  usb_regs.o(.text)
    GetEPTxStatus                            0x080023c9   Thumb Code    18  usb_regs.o(.text)
    GetEPRxStatus                            0x080023db   Thumb Code    18  usb_regs.o(.text)
    SetEPTxValid                             0x080023ed   Thumb Code    48  usb_regs.o(.text)
    SetEPRxValid                             0x0800241d   Thumb Code    48  usb_regs.o(.text)
    SetEP_KIND                               0x0800244d   Thumb Code    38  usb_regs.o(.text)
    ClearEP_KIND                             0x08002473   Thumb Code    34  usb_regs.o(.text)
    Clear_Status_Out                         0x08002495   Thumb Code    34  usb_regs.o(.text)
    Set_Status_Out                           0x080024b7   Thumb Code    38  usb_regs.o(.text)
    SetEPDoubleBuff                          0x080024dd   Thumb Code    38  usb_regs.o(.text)
    ClearEPDoubleBuff                        0x08002503   Thumb Code    34  usb_regs.o(.text)
    GetTxStallStatus                         0x08002525   Thumb Code    28  usb_regs.o(.text)
    GetRxStallStatus                         0x08002541   Thumb Code    30  usb_regs.o(.text)
    ClearEP_CTR_RX                           0x0800255f   Thumb Code    32  usb_regs.o(.text)
    ClearEP_CTR_TX                           0x0800257f   Thumb Code    28  usb_regs.o(.text)
    ToggleDTOG_RX                            0x0800259b   Thumb Code    34  usb_regs.o(.text)
    ToggleDTOG_TX                            0x080025bd   Thumb Code    34  usb_regs.o(.text)
    ClearDTOG_RX                             0x080025df   Thumb Code    48  usb_regs.o(.text)
    ClearDTOG_TX                             0x0800260f   Thumb Code    48  usb_regs.o(.text)
    SetEPAddress                             0x0800263f   Thumb Code    46  usb_regs.o(.text)
    GetEPAddress                             0x0800266d   Thumb Code    18  usb_regs.o(.text)
    SetEPTxAddr                              0x0800267f   Thumb Code    24  usb_regs.o(.text)
    SetEPRxAddr                              0x08002697   Thumb Code    26  usb_regs.o(.text)
    GetEPTxAddr                              0x080026b1   Thumb Code    22  usb_regs.o(.text)
    GetEPRxAddr                              0x080026c7   Thumb Code    24  usb_regs.o(.text)
    SetEPTxCount                             0x080026df   Thumb Code    20  usb_regs.o(.text)
    SetEPCountRxReg                          0x080026f3   Thumb Code    48  usb_regs.o(.text)
    SetEPRxCount                             0x08002723   Thumb Code    68  usb_regs.o(.text)
    GetEPTxCount                             0x08002767   Thumb Code    26  usb_regs.o(.text)
    GetEPRxCount                             0x08002781   Thumb Code    26  usb_regs.o(.text)
    SetEPDblBuffAddr                         0x0800279b   Thumb Code    44  usb_regs.o(.text)
    SetEPDblBuf0Addr                         0x080027c7   Thumb Code    24  usb_regs.o(.text)
    SetEPDblBuf1Addr                         0x080027df   Thumb Code    26  usb_regs.o(.text)
    GetEPDblBuf0Addr                         0x080027f9   Thumb Code    22  usb_regs.o(.text)
    GetEPDblBuf1Addr                         0x0800280f   Thumb Code    24  usb_regs.o(.text)
    SetEPDblBuffCount                        0x08002827   Thumb Code   186  usb_regs.o(.text)
    SetEPDblBuf0Count                        0x080028e1   Thumb Code    96  usb_regs.o(.text)
    SetEPDblBuf1Count                        0x08002941   Thumb Code    96  usb_regs.o(.text)
    GetEPDblBuf0Count                        0x080029a1   Thumb Code    26  usb_regs.o(.text)
    GetEPDblBuf1Count                        0x080029bb   Thumb Code    26  usb_regs.o(.text)
    GetEPDblBufDir                           0x080029d5   Thumb Code    62  usb_regs.o(.text)
    FreeUserBuffer                           0x08002a13   Thumb Code    90  usb_regs.o(.text)
    ToWord                                   0x08002a6d   Thumb Code     8  usb_regs.o(.text)
    ByteSwap                                 0x08002a75   Thumb Code    12  usb_regs.o(.text)
    USB_SIL_Init                             0x08002a81   Thumb Code    28  usb_sil.o(.text)
    USB_SIL_Write                            0x08002a9d   Thumb Code    46  usb_sil.o(.text)
    USB_SIL_Read                             0x08002acb   Thumb Code    46  usb_sil.o(.text)
    USBWakeUp_IRQHandler                     0x08002b01   Thumb Code    12  hw_config.o(.text)
    USB_LP_CAN1_RX0_IRQHandler               0x08002b0d   Thumb Code     8  hw_config.o(.text)
    Set_USBClock                             0x08002b15   Thumb Code    12  hw_config.o(.text)
    Enter_LowPowerMode                       0x08002b21   Thumb Code    16  hw_config.o(.text)
    Leave_LowPowerMode                       0x08002b31   Thumb Code    30  hw_config.o(.text)
    USB_Interrupts_Config                    0x08002b4f   Thumb Code    72  hw_config.o(.text)
    USB_Cable_Config                         0x08002b97   Thumb Code    22  hw_config.o(.text)
    Joystick_Send                            0x08002bad   Thumb Code    86  hw_config.o(.text)
    USB_Port_Set                             0x08002c03   Thumb Code    74  hw_config.o(.text)
    Get_SerialNum                            0x08002c8b   Thumb Code    42  hw_config.o(.text)
    EP1_IN_Callback                          0x08002d35   Thumb Code     8  usb_endp.o(.text)
    USB_Istr                                 0x08002d41   Thumb Code   422  usb_istr.o(.text)
    Joystick_init                            0x08002f0d   Thumb Code    26  usb_prop.o(.text)
    Joystick_Reset                           0x08002f27   Thumb Code   140  usb_prop.o(.text)
    Joystick_SetConfiguration                0x08002fb3   Thumb Code    14  usb_prop.o(.text)
    Joystick_SetDeviceAddress                0x08002fc1   Thumb Code     8  usb_prop.o(.text)
    Joystick_Status_In                       0x08002fc9   Thumb Code     2  usb_prop.o(.text)
    Joystick_Status_Out                      0x08002fcb   Thumb Code     2  usb_prop.o(.text)
    Joystick_GetProtocolValue                0x08002fcd   Thumb Code    20  usb_prop.o(.text)
    Joystick_GetHIDDescriptor                0x08002fe1   Thumb Code    14  usb_prop.o(.text)
    Joystick_GetReportDescriptor             0x08002fef   Thumb Code    14  usb_prop.o(.text)
    Joystick_Data_Setup                      0x08002ffd   Thumb Code   114  usb_prop.o(.text)
    Joystick_SetProtocol                     0x0800306f   Thumb Code    14  usb_prop.o(.text)
    Joystick_NoData_Setup                    0x0800307d   Thumb Code    32  usb_prop.o(.text)
    Joystick_GetDeviceDescriptor             0x0800309d   Thumb Code    14  usb_prop.o(.text)
    Joystick_GetConfigDescriptor             0x080030ab   Thumb Code    14  usb_prop.o(.text)
    Joystick_GetStringDescriptor             0x080030b9   Thumb Code    32  usb_prop.o(.text)
    Joystick_Get_Interface_Setting           0x080030d9   Thumb Code    22  usb_prop.o(.text)
    PowerOn                                  0x0800311d   Thumb Code    54  usb_pwr.o(.text)
    PowerOff                                 0x08003153   Thumb Code    28  usb_pwr.o(.text)
    Suspend                                  0x0800316f   Thumb Code   142  usb_pwr.o(.text)
    Resume_Init                              0x080031fd   Thumb Code    30  usb_pwr.o(.text)
    Resume                                   0x0800321b   Thumb Code   194  usb_pwr.o(.text)
    KeyInit()                                0x080032f5   Thumb Code    32  key.o(.text)
    KeyScan()                                0x08003315   Thumb Code    90  key.o(.text)
    __scatterload                            0x08003379   Thumb Code    28  init.o(.text)
    __scatterload_rt2                        0x08003379   Thumb Code     0  init.o(.text)
    __decompress                             0x0800339d   Thumb Code     0  __dczerorl2.o(.text)
    __decompress1                            0x0800339d   Thumb Code    86  __dczerorl2.o(.text)
    __0printf$bare                           0x080033f5   Thumb Code     8  printfb.o(i.__0printf$bare)
    __1printf$bare                           0x080033f5   Thumb Code     0  printfb.o(i.__0printf$bare)
    __2printf                                0x080033f5   Thumb Code     0  printfb.o(i.__0printf$bare)
    __scatterload_copy                       0x08003405   Thumb Code    14  handlers.o(i.__scatterload_copy)
    __scatterload_null                       0x08003413   Thumb Code     2  handlers.o(i.__scatterload_null)
    __scatterload_zeroinit                   0x08003415   Thumb Code    14  handlers.o(i.__scatterload_zeroinit)
    Joystick_DeviceDescriptor                0x08003444   Data          18  usb_desc.o(.constdata)
    Joystick_ConfigDescriptor                0x08003456   Data          41  usb_desc.o(.constdata)
    Joystick_ReportDescriptor                0x0800347f   Data          61  usb_desc.o(.constdata)
    Joystick_StringLangID                    0x080034bc   Data           4  usb_desc.o(.constdata)
    Joystick_StringVendor                    0x080034c0   Data          38  usb_desc.o(.constdata)
    Joystick_StringProduct                   0x080034e6   Data          20  usb_desc.o(.constdata)
    Region$$Table$$Base                      0x080034fc   Number         0  anon$$obj.o(Region$$Table)
    Region$$Table$$Limit                     0x0800351c   Number         0  anon$$obj.o(Region$$Table)
    SystemCoreClock                          0x20000000   Data           4  system_stm32f10x.o(.data)
    AHBPrescTable                            0x20000004   Data          16  system_stm32f10x.o(.data)
    __stdout                                 0x20000018   Data           4  usart.o(.data)
    USART_RX_STA                             0x2000001c   Data           2  usart.o(.data)
    StatusInfo                               0x20000032   Data           2  usb_core.o(.data)
    Data_Mul_MaxPacketSize                   0x20000034   Data           1  usb_core.o(.data)
    EPindex                                  0x20000038   Data           1  usb_init.o(.data)
    pInformation                             0x2000003c   Data           4  usb_init.o(.data)
    pProperty                                0x20000040   Data           4  usb_init.o(.data)
    SaveState                                0x20000044   Data           2  usb_init.o(.data)
    wInterrupt_Mask                          0x20000046   Data           2  usb_init.o(.data)
    pUser_Standard_Requests                  0x20000048   Data           4  usb_init.o(.data)
    SaveRState                               0x2000004c   Data           2  usb_int.o(.data)
    SaveTState                               0x2000004e   Data           2  usb_int.o(.data)
    PrevXferComplete                         0x20000050   Data           1  hw_config.o(.data)
    Joystick_StringSerial                    0x20000051   Data          26  usb_desc.o(.data)
    wIstr                                    0x2000006c   Data           2  usb_istr.o(.data)
    bIntPackSOF                              0x2000006e   Data           1  usb_istr.o(.data)
    esof_counter                             0x20000070   Data           4  usb_istr.o(.data)
    wCNTR                                    0x20000074   Data           4  usb_istr.o(.data)
    pEpInt_IN                                0x20000078   Data          28  usb_istr.o(.data)
    pEpInt_OUT                               0x20000094   Data          28  usb_istr.o(.data)
    ProtocolValue                            0x200000b0   Data           4  usb_prop.o(.data)
    Device_Table                             0x200000b4   Data           2  usb_prop.o(.data)
    Device_Property                          0x200000b8   Data          48  usb_prop.o(.data)
    User_Standard_Requests                   0x200000e8   Data          36  usb_prop.o(.data)
    Device_Descriptor                        0x2000010c   Data           8  usb_prop.o(.data)
    Config_Descriptor                        0x20000114   Data           8  usb_prop.o(.data)
    Joystick_Report_Descriptor               0x2000011c   Data           8  usb_prop.o(.data)
    Mouse_Hid_Descriptor                     0x20000124   Data           8  usb_prop.o(.data)
    String_Descriptor                        0x2000012c   Data          32  usb_prop.o(.data)
    bDeviceState                             0x2000014c   Data           4  usb_pwr.o(.data)
    fSuspendEnabled                          0x20000150   Data           1  usb_pwr.o(.data)
    ResumeS                                  0x20000151   Data           2  usb_pwr.o(.data)
    remotewakeupon                           0x20000154   Data           4  usb_pwr.o(.data)
    USART_RX_BUF                             0x20000158   Data         200  usart.o(.bss)
    Device_Info                              0x20000220   Data          28  usb_init.o(.bss)
    EP                                       0x2000023c   Data          32  usb_pwr.o(.bss)
    __initial_sp                             0x20000660   Data           0  startup_stm32f10x_hd.o(STACK)



==============================================================================

Memory Map of the image

  Image Entry point : 0x08000131

  Load Region LR_IROM1 (Base: 0x08000000, Size: 0x00003674, Max: 0x00010000, ABSOLUTE, COMPRESSED[0x000035ac])

    Execution Region ER_IROM1 (Exec base: 0x08000000, Load base: 0x08000000, Size: 0x0000351c, Max: 0x00010000, ABSOLUTE)

    Exec Addr    Load Addr    Size         Type   Attr      Idx    E Section Name        Object

    0x08000000   0x08000000   0x00000130   Data   RO          317    RESET               startup_stm32f10x_hd.o
    0x08000130   0x08000130   0x00000000   Code   RO          669  * .ARM.Collect$$$$00000000  mc_w.l(entry.o)
    0x08000130   0x08000130   0x00000004   Code   RO          932    .ARM.Collect$$$$00000001  mc_w.l(entry2.o)
    0x08000134   0x08000134   0x00000004   Code   RO          935    .ARM.Collect$$$$00000004  mc_w.l(entry5.o)
    0x08000138   0x08000138   0x00000000   Code   RO          937    .ARM.Collect$$$$00000008  mc_w.l(entry7b.o)
    0x08000138   0x08000138   0x00000000   Code   RO          939    .ARM.Collect$$$$0000000A  mc_w.l(entry8b.o)
    0x08000138   0x08000138   0x00000008   Code   RO          940    .ARM.Collect$$$$0000000B  mc_w.l(entry9a.o)
    0x08000140   0x08000140   0x00000000   Code   RO          942    .ARM.Collect$$$$0000000D  mc_w.l(entry10a.o)
    0x08000140   0x08000140   0x00000000   Code   RO          944    .ARM.Collect$$$$0000000F  mc_w.l(entry11a.o)
    0x08000140   0x08000140   0x00000004   Code   RO          933    .ARM.Collect$$$$00002712  mc_w.l(entry2.o)
    0x08000144   0x08000144   0x0000001a   Code   RO            1    .text               stm32f10x_it.o
    0x0800015e   0x0800015e   0x00000002   PAD
    0x08000160   0x08000160   0x000001e0   Code   RO           53    .text               system_stm32f10x.o
    0x08000340   0x08000340   0x000000a4   Code   RO           71    .text               main.o
    0x080003e4   0x080003e4   0x00000038   Code   RO          175    .text               led.o
    0x0800041c   0x0800041c   0x000000d4   Code   RO          251    .text               delay.o
    0x080004f0   0x080004f0   0x00000140   Code   RO          282    .text               usart.o
    0x08000630   0x08000630   0x00000024   Code   RO          318    .text               startup_stm32f10x_hd.o
    0x08000654   0x08000654   0x0000035c   Code   RO          322    .text               stm32f10x_gpio.o
    0x080009b0   0x080009b0   0x000003a4   Code   RO          334    .text               stm32f10x_rcc.o
    0x08000d54   0x08000d54   0x00000408   Code   RO          348    .text               stm32f10x_usart.o
    0x0800115c   0x0800115c   0x000000dc   Code   RO          360    .text               misc.o
    0x08001238   0x08001238   0x0000011c   Code   RO          372    .text               stm32f10x_exti.o
    0x08001354   0x08001354   0x00000b50   Code   RO          396    .text               usb_core.o
    0x08001ea4   0x08001ea4   0x0000003c   Code   RO          450    .text               usb_init.o
    0x08001ee0   0x08001ee0   0x0000033c   Code   RO          473    .text               usb_int.o
    0x0800221c   0x0800221c   0x0000005c   Code   RO          497    .text               usb_mem.o
    0x08002278   0x08002278   0x00000808   Code   RO          509    .text               usb_regs.o
    0x08002a80   0x08002a80   0x00000080   Code   RO          521    .text               usb_sil.o
    0x08002b00   0x08002b00   0x00000234   Code   RO          533    .text               hw_config.o
    0x08002d34   0x08002d34   0x0000000c   Code   RO          580    .text               usb_endp.o
    0x08002d40   0x08002d40   0x000001cc   Code   RO          593    .text               usb_istr.o
    0x08002f0c   0x08002f0c   0x00000210   Code   RO          614    .text               usb_prop.o
    0x0800311c   0x0800311c   0x000001d8   Code   RO          637    .text               usb_pwr.o
    0x080032f4   0x080032f4   0x00000084   Code   RO          656    .text               key.o
    0x08003378   0x08003378   0x00000024   Code   RO          961    .text               mc_w.l(init.o)
    0x0800339c   0x0800339c   0x00000056   Code   RO          979    .text               mc_w.l(__dczerorl2.o)
    0x080033f2   0x080033f2   0x00000002   PAD
    0x080033f4   0x080033f4   0x00000010   Code   RO          673    i.__0printf$bare    mc_w.l(printfb.o)
    0x08003404   0x08003404   0x0000000e   Code   RO          973    i.__scatterload_copy  mc_w.l(handlers.o)
    0x08003412   0x08003412   0x00000002   Code   RO          974    i.__scatterload_null  mc_w.l(handlers.o)
    0x08003414   0x08003414   0x0000000e   Code   RO          975    i.__scatterload_zeroinit  mc_w.l(handlers.o)
    0x08003422   0x08003422   0x00000022   Code   RO          680    i._printf_core      mc_w.l(printfb.o)
    0x08003444   0x08003444   0x000000b6   Data   RO          567    .constdata          usb_desc.o
    0x080034fa   0x080034fa   0x00000002   PAD
    0x080034fc   0x080034fc   0x00000020   Data   RO          971    Region$$Table       anon$$obj.o


    Execution Region RW_IRAM1 (Exec base: 0x20000000, Load base: 0x0800351c, Size: 0x00000660, Max: 0x00005000, ABSOLUTE, COMPRESSED[0x00000090])

    Exec Addr    Load Addr    Size         Type   Attr      Idx    E Section Name        Object

    0x20000000   COMPRESSED   0x00000014   Data   RW           54    .data               system_stm32f10x.o
    0x20000014   COMPRESSED   0x00000004   Data   RW          252    .data               delay.o
    0x20000018   COMPRESSED   0x00000006   Data   RW          284    .data               usart.o
    0x2000001e   COMPRESSED   0x00000014   Data   RW          335    .data               stm32f10x_rcc.o
    0x20000032   COMPRESSED   0x00000003   Data   RW          397    .data               usb_core.o
    0x20000035   COMPRESSED   0x00000003   PAD
    0x20000038   COMPRESSED   0x00000014   Data   RW          452    .data               usb_init.o
    0x2000004c   COMPRESSED   0x00000004   Data   RW          474    .data               usb_int.o
    0x20000050   COMPRESSED   0x00000001   Data   RW          534    .data               hw_config.o
    0x20000051   COMPRESSED   0x0000001a   Data   RW          568    .data               usb_desc.o
    0x2000006b   COMPRESSED   0x00000001   PAD
    0x2000006c   COMPRESSED   0x00000044   Data   RW          594    .data               usb_istr.o
    0x200000b0   COMPRESSED   0x0000009c   Data   RW          615    .data               usb_prop.o
    0x2000014c   COMPRESSED   0x0000000c   Data   RW          639    .data               usb_pwr.o
    0x20000158        -       0x000000c8   Zero   RW          283    .bss                usart.o
    0x20000220        -       0x0000001c   Zero   RW          451    .bss                usb_init.o
    0x2000023c        -       0x00000020   Zero   RW          638    .bss                usb_pwr.o
    0x2000025c   COMPRESSED   0x00000004   PAD
    0x20000260        -       0x00000400   Zero   RW          315    STACK               startup_stm32f10x_hd.o


==============================================================================

Image component sizes


      Code (inc. data)   RO Data    RW Data    ZI Data      Debug   Object Name

       212         18          0          4          0        991   delay.o
       564        128          0          1          0       3356   hw_config.o
       132         10          0          0          0        654   key.o
        56          6          0          0          0        459   led.o
       164          0          0          0          0     214867   main.o
       220         22          0          0          0       1745   misc.o
         0          0          0          0          0     205472   spi.o
        36          8        304          0       1024        760   startup_stm32f10x_hd.o
       284         10          0          0          0       2203   stm32f10x_exti.o
       860         38          0          0          0       5681   stm32f10x_gpio.o
        26          0          0          0          0      28738   stm32f10x_it.o
       932         36          0         20          0       8836   stm32f10x_rcc.o
      1032         22          0          0          0       8404   stm32f10x_usart.o
         0          0          0          0          0         32   sys.o
       480         38          0         20          0       1659   system_stm32f10x.o
       320         16          0          6        200       3094   usart.o
      2896        114          0          3          0      19991   usb_core.o
         0          0        182         26          0       1017   usb_desc.o
        12          4          0          0          0        406   usb_endp.o
        60         24          0         20         28       4074   usb_init.o
       828         34          0          4          0       1891   usb_int.o
       460         38          0         68          0       1531   usb_istr.o
        92          6          0          0          0       1402   usb_mem.o
       528         46          0        156          0       7542   usb_prop.o
       472         32          0         12         32       2671   usb_pwr.o
      2056         20          0          0          0      11981   usb_regs.o
       128          8          0          0          0       1466   usb_sil.o

    ----------------------------------------------------------------------
     12852        678        520        344       1288     540923   Object Totals
         0          0         32          0          0          0   (incl. Generated)
         2          0          2          4          4          0   (incl. Padding)

    ----------------------------------------------------------------------

      Code (inc. data)   RO Data    RW Data    ZI Data      Debug   Library Member Name

        86          0          0          0          0          0   __dczerorl2.o
         0          0          0          0          0          0   entry.o
         0          0          0          0          0          0   entry10a.o
         0          0          0          0          0          0   entry11a.o
         8          4          0          0          0          0   entry2.o
         4          0          0          0          0          0   entry5.o
         0          0          0          0          0          0   entry7b.o
         0          0          0          0          0          0   entry8b.o
         8          4          0          0          0          0   entry9a.o
        30          0          0          0          0          0   handlers.o
        36          8          0          0          0         68   init.o
        50          8          0          0          0        152   printfb.o

    ----------------------------------------------------------------------
       224         24          0          0          0        220   Library Totals
         2          0          0          0          0          0   (incl. Padding)

    ----------------------------------------------------------------------

      Code (inc. data)   RO Data    RW Data    ZI Data      Debug   Library Name

       222         24          0          0          0        220   mc_w.l

    ----------------------------------------------------------------------
       224         24          0          0          0        220   Library Totals

    ----------------------------------------------------------------------

==============================================================================


      Code (inc. data)   RO Data    RW Data    ZI Data      Debug   

     13076        702        520        344       1288     539347   Grand Totals
     13076        702        520        144       1288     539347   ELF Image Totals (compressed)
     13076        702        520        144          0          0   ROM Totals

==============================================================================

    Total RO  Size (Code + RO Data)                13596 (  13.28kB)
    Total RW  Size (RW Data + ZI Data)              1632 (   1.59kB)
    Total ROM Size (Code + RO Data + RW Data)      13740 (  13.42kB)

==============================================================================

