:020000040000FA
:10000000F0210020DD020000E5020000E702000010
:10001000E9020000EB020000ED0200000000000019
:10002000000000000000000000000000EF020000DF
:10003000F102000000000000F3020000F5020000E1
:100040004D050000F7020000F7020000F702000073
:10005000F7020000F7020000E9030000F7020000C9
:10006000F7020000F7020000F7020000F7020000AC
:10007000F7020000F7020000F7020000F70200009C
:10008000D1080000A5050000F7020000F7020000FB
:10009000F7020000F7020000F7020000F70200007C
:1000A000F7020000F7020000F7020000F70200006C
:1000B000F7020000F702000000000000000000004E
:1000C000F7020000F7020000F7020000F70200004C
:1000D000F7020000F7020000F70200000000000035
:1000E0000000000000000000000000000000000010
:1000F0000000000000000000000000000000000000
:1001000000000000000000000000000000000000EF
:1001100000000000000000000000000000000000DF
:1001200000000000000000000000000000000000CF
:1001300000000000000000000000000000000000BF
:1001400000000000000000000000000000000000AF
:10015000000000000000000000000000000000009F
:10016000000000000000000000000000000000008F
:10017000000000000000000000000000000000007F
:10018000000000000000000000000000000000006F
:10019000000000000000000000000000000000005F
:1001A000000000000000000000000000000000004F
:1001B000000000000000000000000000000000003F
:1001C000000000000000000000000000000000002F
:1001D000000000000000000000000000000000001F
:1001E000000000000000000000000000000000000F
:1001F00000000000000000000000000000000000FF
:10020000DFF80CD000F0DEF80048004729140000A9
:10021000F021002030B450E8012F93B2C489234468
:100220008489A34228BF1B1B0489A34202BFBFF3DA
:100230002F8F002007E0C3EA020340E80134002CBE
:10024000E9D14FF001000A6030BC704750E8012F3F
:10025000C2EA024240E801210029F7D1704730B4D8
:1002600050E8022F1FFAA2F3C488A34202BFBFF3D3
:100270002F8F00200DE0C48923448489A34228BF26
:100280001B1BC2EA034340E80234002CE8D14FF0C4
:1002900001000A6030BC704750E8022FC2EA2242D7
:1002A00040E802210029F7D17047034653E8022FA6
:1002B000D988B2EB324F4FF0000017BF92B241EA3B
:1002C000014142EA014104E05A68B2EB324F08BFF3
:1002D000012043E80212002AE8D17047064880470F
:1002E00006480047FEE7FEE7FEE7FEE7FEE7FEE71B
:1002F000FEE7FEE7FEE7FEE7B505000001020000AD
:100300002DE9F05F0546002092469B46884606464A
:10031000814640241BE0284641464746224600F0DD
:1003200041F853465A46C01A914110D31146184617
:10033000224600F016F82D1A67EB01084F462246B8
:100340000120002100F00DF817EB00094E41201E9E
:10035000A4F10104DFDC484631462A464346BDE8A5
:10036000F09F202A04DB203A00FA02F100207047B7
:100370009140C2F1200320FA03F3194390407047E3
:10038000D2B201E000F8012B491EFBD270470022D7
:10039000F6E710B513460A4604461946FFF7F0FF84
:1003A000204610BD202A04DB203A21FA02F0002169
:1003B000704721FA02F3D040C2F120029140084375
:1003C00019467047064C074D06E0E06840F001030F
:1003D00094E8070098471034AC42F6D3FFF714FFB7
:1003E000181E0000381E00002DE9F04700268AB0D4
:1003F000DFF85091B0464FF48075012437460696D9
:10040000284601F05BF938B1D9F80403204203D043
:10041000284601F049F926432D1D64007F1CADB22A
:10042000082FEDD34FF4BE74204601F047F948B1D0
:10043000204601F039F946F0004606AA01210020C5
:1004400001F01EF9404D16F0FF0F15D001270024D2
:1004500037420DD009EB8401D1F81005D1F8101501
:10046000C0F3042055F82420C1F3014102B19047A4
:100470007F00641C082CEBD3002E5FDA4FF0FF30B6
:10048000CDF8108054E0281910F8507F90F9000042
:1004900027F0C008401C3BD007A9404601F051F8A6
:1004A00010B34FEA9719404600F078FD55F82070D8
:1004B0001FB1B9F1030F03D006E0B9F1030F27D143
:1004C00004A9404601F045F84FF0A04101EB880037
:1004D000D0F8000706A9C0F3014A404601F031F800
:1004E00018B1BAF1020F03D012E0BAF1030F0FD125
:1004F000B9F1030F08D1BAF1020F1DD00221404615
:1005000001F0A2F8761CF6B217B149464046B8474A
:10051000641C042CB7D3002E10D06A4601210020A1
:1005200001F0AEF806990098884207D0069004982A
:10053000002634460790A6E70321E0E70AB0BDE8AD
:10054000F087000000600040FC00002070B54FF410
:100550008076304601F007F8114CB50560B13046A1
:1005600001F008F80120C5F80803607920B90120DE
:1005700060712168002088474FF48276304600F091
:10058000F2FF00280AD0304600F0F4FF0220C5F840
:1005900008032168BDE870400120084770BD0000D5
:1005A0001400002002490248091F09680068084732
:1005B0006C000020F0B5B5480023021D0178101D25
:1005C00001254FF0805406290BD11678360708D143
:1005D0000678C6F30316032E06D0042E04D0052E8B
:1005E00002D0062907D00EE0B4F82463A84FC6F362
:1005F00004263E6002E01678360704D10678C6F37A
:100600000316032E02D0062904D00FE0A24FA14EFC
:100610007E670EE01678360708D10678C6F3031613
:10062000032E06D0042E04D0052E02D0062907D0B2
:100630000EE0D4F84462994FC6F342363E6002E0C1
:100640001678360704D10678C6F30316032E02D0B7
:10065000062906D011E0924E376827F08077376080
:100660000EE01678360708D10678C6F30316032E77
:1006700006D0042E04D0052E02D006290AD011E09F
:100680004FF08046C6F80C31C6F81031834E361F45
:10069000336002E01678360704D10678C6F30316F5
:1006A000032E02D0062905D00CE07C4F03266437C8
:1006B0003E600AE01678360704D10678C6F30316C2
:1006C000032E02D006290DD014E0764F05263E6099
:1006D000744E78363560734E083633603F263F1DC2
:1006E0003E6002E01678360704D10678C6F303169A
:1006F000052E02D0062957D062E06B4E36686B4F4C
:100700003E60694E361D36683F1D3E60664E0836B7
:1007100036683F1D3E60644E0C3636683F1D3E60B5
:10072000614E103636683F1D3E605F4E14363668A7
:100730003F1D3E605C4E183636685C4F20373E6089
:10074000594E1C3636683F1D3E60574E203636687F
:100750003F1D3E60544E243636683F1D3E60524E6B
:10076000283636683F1D3E604F4E2C3636683F1D9A
:100770003E604D4E303636684C4F40373E604A4EF4
:10078000343636683F1D3E60474E383636683F1D6A
:100790003E60454E3C3636683F1D3E60424E403618
:1007A00036683F1D3E6002E01678360708D10678AD
:1007B000C6F30316032E06D0042E04D0052E02D055
:1007C000062907D019E0D4F85812394A01F04F0130
:1007D000116002E0117809070FD10078C0F303100F
:1007E000032803D0042801D0052806D13148016828
:1007F000C90702D06FF001010160D4F8300106286A
:1008000008D1D4F83401062804D12B48016841F4FA
:100810008061016022487438016841F47001016010
:10082000BFF34F8FBFF36F8F4FF01021D1F800024D
:10083000002803DBD1F80402002822DA1F4A1560E1
:100840001F480468002CFCD01524C1F8004205683C
:10085000002DFCD0C1F8044201680029FCD01360CF
:1008600001680029FCD0BFF34F8F0D48F0380168B4
:10087000144A01F4E06111430160BFF34F8F00BFE0
:10088000FDE7124910480860F0BD0000E00F00F0DD
:10089000403501400DF0ADBA00C007403C050040B6
:1008A000FCED00E0105600400404001020C500409C
:1008B000E40E0040000400403C17004004E5014005
:1008C00000E401400400FA050090D0037400002009
:1008D00038B5064C20680025002805D0044840683B
:1008E000804725602068009038BD0000000101406D
:1008F0001C00002002E008C8121F08C1002AFAD11B
:1009000070477047002001E001C1121F002AFBD18F
:100910007047022000F0FEB870B50024064D06E0D6
:100920006868012110F8340000F054FF641C287836
:100930008442F5D3002070BD28000020F8B516468B
:100940000C4605460A2A01D20720F8BD01F03CF802
:1009500018B901F003F80028F7D1134F10211348FC
:100960007D603C70BE60FFF712FD0020C7E9040007
:100970000F4E0DE005EBC4003168009181788DF8D1
:10098000011000780B4A694600F076FF0028DCD1A0
:10099000641EE4B2EED2BDE8F84005480021064AE4
:1009A000001D00F01FB80000280000207801002082
:1009B000E81D0000911300000910000000F0DCF8B1
:1009C000FEE70EB500210091CDE901106A4644F220
:1009D0000100FFF7F3FF0EBD014800F072BB0000FD
:1009E000480000203AB100680129426100D000218E
:1009F00001610020704707207047000038B511489A
:100A000008235822416800910F49006800F05AFD00
:100A1000002815D10D4A69460D4800F057FB040027
:100A20000ED101210A4800F09AFB0123094A194618
:100A3000074800F01EFB06490120083908702046CF
:100A400038BD0000F01D000098010020D51A0000FC
:100A500048000020FFFF7F0070B50446007F0D4670
:100A600008B1002070BDA26100F078FC401941F18E
:100A70000001C4E90201206900B125612146BDE8F9
:100A80007040002001F046B901460020087701209F
:100A900001F040B900F002B800F008B872B60248A0
:100AA0000168491C01607047640000200349086820
:100AB000401E086000D162B670470000640000204C
:100AC0002DE9FC410646C0074FF000050ED0104F3F
:100AD00000240122385D009500231146019500F0A5
:100AE0008FFD641C042CF4D300F046F8B0070DD53C
:100AF000074E0024361D0022305D03230095114669
:100B0000019500F07DFD641C042CF4D3BDE8FC814C
:100B1000B01D000007490B5C4FF0A041D1F804253F
:100B20000120984020EA0203C1F808351040C1F8BE
:100B30000C057047B01D00000249085C012100F05F
:100B400094BD0000B01D00000249085C002100F0C7
:100B50008CBD0000B01D00000649095C4FF0A040AC
:100B6000D0F80405C84010F0010000D0012080F04A
:100B700001007047B01D000010B500242046FFF7AB
:100B8000DBFF641C042CF9D310BD10B500242046F3
:100B9000FFF7DAFF641C042CF9D310BD10B5024630
:100BA000064B4FF0FF3000215C5C944201D10846B7
:100BB00010BD491C0429F7D310BD0000B41D00006E
:100BC0002DE9F0470D468146FFF7E8FF044604286B
:100BD00036D2DFF874801B481C4EA8F10C0725B3F1
:100BE000012D0ED0022D2BD104EB4400304445786A
:100BF000002D25D0B968002922D02846BDE8F0474D
:100C0000084704EB4401755C0E44717849B10E4A03
:100C10004FF48041093A8068FFF71EFF08B987F852
:100C20000390B17808F80410E2E78068FFF72CFF22
:100C300004EB4401314418F804008D78A842D7D061
:100C4000BDE8F087B81D000010000020B8000020AB
:100C5000FFF762BE0E2803D10248007800F0DCBE28
:100C6000704700000000002070B50023042810D257
:100C70000D4D00EB4004012A02D101290CD00022C5
:100C8000094E00EB4000304461B1012906D0022931
:100C900006D00723184670BD0E30C2B22A55F9E7B8
:100CA0004270F7E78270F5E7B800002070B506469D
:100CB0001E480024C0E90161B00720D500250122AB
:100CC00011462846FFF7D0FF6D1C0446042D02D2C2
:100CD000002CF4D013E094B940F2333204211448CC
:100CE000FFF72CFE04000AD1FFF716FE040006D120
:100CF0000F48104A0021001FFFF774FE0446F0075A
:100D000012D00120FFF7DCFE74B909480A4A00211D
:100D10000C38FFF767FE040006D10548074A012199
:100D20000838FFF75FFE0446204670BD040000202F
:100D3000C41D0000310F000015140000130900004D
:100D40002DE9F05F6E4C054600266078B34618B179
:100D500084F801B000F046FB6A4F4FF47A694FF413
:100D6000C87A4FF00108182D69D2DFE805F00C139E
:100D700013384754696E727B727BC5848484848483
:100D8000B3B6B9BCC5C500F02DFB3868FFF77CFED3
:100D900006465CE00020FFF7DFFE00284FF0000071
:100DA00008D0FFF7C9FE022D02D14FF4E16008E040
:100DB000484606E0FFF7C8FE022D01D1C82000E03A
:100DC0005046410CC0034FF47A72801841F1000183
:100DD000257052000023FFF793FA01462AE0002015
:100DE000FFF7BAFE00284FF0000004D0FFF7A4FE82
:100DF0004FF44870E5E7FFF7A7FEDFE70020FFF7B5
:100E0000ABFE00284FF0000002D0FFF795FECFE7C1
:100E1000FFF79AFED4E70020FFF79EFE00284FF070
:100E2000000002D0FFF788FE01E0FFF78DFE25707D
:100E300040F6CD4100223868FFF70EFE064646E038
:100E40000020FFF767FE257008E0002051E02570C4
:100E50003DE084F801800120FFF75CFE002240F2B3
:100E60006661E8E784F801800120FFF753FE002265
:100E70004FF40051DFE77868FFF706FE0646D5F12C
:100E8000110000D02EB10220FFF756FE84F802B008
:100E90001DE0012816D980B2C8214843C117C903F3
:100EA00041EA5041C0034FF47A72801841F10001C9
:100EB00052000023FFF724FA014600227868FFF76A
:100EC000CBFD06460220FFF73FFE84F80280304645
:100ED000BDE8F09F00F086FAB9E700F083FAB4E7C6
:100EE00000F080FA04E000F07DFA0020FFF72CFE0D
:100EF0000120FFF729FEAAE7FFF747FEA7E700005A
:100F000004000020B81D0000034630B5074800214A
:100F10000478426806E000BF02EBC10005789D42FC
:100F200003D0491CA142F7DB002030BD280000207F
:100F300000780221FFF744BE05494FF0FF32082830
:100F400041F8202002D3084480F848207047000070
:100F5000FC000020F0B54FF0FF3512B10023082649
:100F600001E008230C260C4C05E000BF54F8237068
:100F70007F1C04D05B1CB342F8D32846F0BD261872
:100F80005DB286F8305044F82310002AF5D1E118FC
:100F900081F84800F1E70000FC0000200249084405
:100FA00090F9300070470000FC00002070B5084C3C
:100FB000050009D010342168002907D00868206096
:100FC000496828468847F6E70834F4E770BD000012
:100FD000E8000020054A012120B1012805D19170C7
:100FE000FFF7E4BF51700020FAE77047E8000020E7
:100FF00010B5D0E90234D1E90220D11AA04101D3C1
:10100000012010BD002010BD70B500240F4D10E070
:10101000686800EBC406307800F096FC717801290E
:1010200001D0012100E000214140307800F020F99A
:10103000641C28788442EBDBD5E90401084303D023
:10104000BDE8704000F082BE70BD000028000020A6
:101050004FF480328A400168C1F848230068C0F824
:10106000082370474FF4A07202EB810189B200F0AF
:101070006BB92DE9F04105460E464FF4A07000EB28
:10108000860081B228684FF48034B440984622F03C
:101090007F47C0F808432868C0F84843286800F034
:1010A00015FB286800EB8600C0F840752868C0F87A
:1010B0004443B8F1000F02D02868C0F80443BDE8EB
:1010C000F0810068D0F804057047000010B543793E
:1010D0001B4C44F823204279231D03EBC2021279F2
:1010E0000AB1082010BD02680C88C2F8084590F9C2
:1010F00004208978002A4FEA411106DA02F00F0233
:1011000002F1E02282F8141D03E002F1E02282F8ED
:10111000001490F90410012201F01F0402FA04F4F3
:101120004909890001F1E021C1F80041417903EB4F
:10113000C1010A71417943F83100002010BD00005F
:101140006800002090F90400012100F01F02914086
:101150004009800000F1E020C0F8001270470A4604
:10116000022100F07BB84FF4827100F0EDB8006806
:1011700001210160704700680121416070472DE93D
:10118000F05F07460C464FF4A07000EB84001FFA96
:1011900080FA38684FF48036A6409B4622F07F459F
:1011A000C0F848633868C0F808633868D0F8048528
:1011B00000EB8402D2F84095C2F840855146386869
:1011C00000F084FAA9EB080020F07F40012806D146
:1011D000102000F0F7FA5146386800F077FA3868C6
:1011E000D0F80485C0F84463A5EB080121F07F41E5
:1011F0003868012900EB840010D0C0F840553868E9
:10120000D0F804156FF07F4C6A1A521E22F07F420C
:10121000ACEB0B03934217D362B118E06D1CC0F81E
:101220004055102000F0CEFA3868D0F8040540454B
:101230000AD10CE000EB84006D1CC0F84055386802
:10124000D0F80405884202D00D20BDE8F09F0122AD
:101250003146384600F002F80020F6E70368C3F88C
:101260004413002A02D00068C0F80413704700003D
:101270002DE9F0470E463249804601EB5001C00788
:10128000097801D00F0901E001F00F074246012063
:101290000021FFF766F8DFF8AC9004460D46052FF5
:1012A0004BD2DFE807F0031419262A00002E44D0A1
:1012B0000121404600F0AEFC0020FFF7EBFB484662
:1012C000D0E904120C431543C9E9044530E00EB1DE
:1012D000022114E0002112E04EB10321404600F04B
:1012E00099FC4046BDE8F047012100F03BBD0121DB
:1012F00005E0002E21D1042101E02EB1032140465A
:10130000BDE8F04700F086BC0021404600F082FCBA
:101310000021404600F026FD0020FFF7BBFB4A46B7
:10132000E043D2E90434184024EA0501C9E9040184
:10133000BDE8F0470020FFF7AFBBBDE8F087000035
:10134000780100202800002010B5006842581AB12A
:1013500000F0BCF9012010BD002010BD10B50B48F5
:10136000FFF7AFFE094A083AD2E90434C018D2E9BF
:10137000063244F10001C31A71EB020204D24FF0AD
:101380008072801841F1000110BD0000480000206B
:1013900010B5C0B2FFF7B8FD0446007800F0D4FAEB
:1013A00001466078012801D0012000E0002090EA89
:1013B000010F08D00449D1E90401084303D1BDE875
:1013C000104000F0C3BC10BD280000200268134686
:1013D00002E08A4204D01268002AFAD10B60016050
:1013E000704700000A4810B5807860B1002401E021
:1013F000022C06D02046FFF79FFB641C042CF7D379
:1014000010BD0324F6E7BDE81040FFF7B5BB0000B0
:101410000400002003480179C90702D00078FFF7D3
:101420008FBC7047040000200EB500F0ABF808B187
:10143000FFF7C7FA002000F0BFF8FFF7DFFA08B1A6
:10144000FFF7BFFA1B490220FFF730FC08B1FFF796
:10145000B8FA0120FFF734FB174A07CA8DE80700E6
:101460006846164900F0F2FA08B1FFF7AAFA1448E4
:1014700000F0B4FA08B1FFF7A4FA00F0D9FA0E4D63
:101480000024143D4FF47A47C826691C3846884723
:10149000761EFAD12046FFF757FB641C042CF3D3C9
:1014A000FFF7D6FB08B1FFF78CFA40BF20BF20BF83
:1014B000FBE70000550C0000A41D0000851D000086
:1014C0000000002010B531B1B2FBF3F403FB14248B
:1014D0001CB1092010BD0E2010BD0160002141602B
:1014E00081608281C381084610BD70B50C460546F7
:1014F000FEF790FE002802D021882868084470BDBD
:1015000010B50A8849888A4203D1FEF7C5FE01203A
:1015100010BD002010BD70B50C460546FEF79FFEBD
:10152000002802D061882868084470BD10B50A8878
:1015300049888A4203D1FEF789FE012010BD0020B0
:1015400010BDC20800F007030120895C98400840E4
:10155000704710B5C20800F00703885C01249C4066
:101560002043885410BD00F180400068002800D05E
:101570000120704708B500F180400021016000683B
:10158000009008BD70B50A4C207808B185250CE0A4
:101590000020A06060602061E060064800F0DCF898
:1015A000054600F0C3F801202070284670BD0000F9
:1015B000E8000020D50F000070B5104D0446A87853
:1015C00038B114B16168012088470020FFF762FA42
:1015D0000CE00020FFF75EFA24B1084821461030E5
:1015E000FFF7F4FEE86808B900F0C6F8E868401CA8
:1015F000E860BDE870400020FFF74EBAE800002028
:1016000070B541EA4201DDE904564FF0A04441EAD9
:10161000830141EA052104EB800041EA0641C0F85C
:10162000001770BD70B541EA4201DDE904564FF084
:10163000A04441EA830141EA052104EB800041EA2C
:101640000641C0F8001770BD4FF0A04202EB8000C9
:10165000D0F8002722F44032C0F80027D0F8002745
:1016600042EA0141C0F80017704701224FF0A04341
:10167000824011B1C3F808257047C3F80C257047A4
:1016800018B5084B6C4601441B68009306E000BF88
:1016900054F82030D3F81035401C08C28142F7D8E6
:1016A00018BD0000E41D0000034908B508440021EE
:1016B00001600068009008BD006000400249405889
:1016C000012800D0002070470060004008B50022CB
:1016D00042504058009008BD70B50D46064644681B
:1016E00004E0B2682946904718B1246820680028B1
:1016F000F7D120682860256070BD40680068704799
:1017000041680868002801D002680A6070470246F4
:101710000020526806E08B4203D108681060012067
:1017200070471A461368002BF5D1704708480068C7
:10173000012110F0010F06D14FF0E020C02280F807
:101740000024C0F800110349012008607047000020
:1017500000E100E0180500400649024600200B7930
:101760000BB1852070470A6001220A7100224A717C
:10177000704700001400002070B54FF48270FFF72E
:10178000F9FE02204107C1F804030B4B196841F030
:10179000807018600948026842F0010404604468DF
:1017A0004FF40A554668361BAE42FBD302601960FF
:1017B00003490120086070BDFCED00E0001000E06E
:1017C00008000040002802D0014980010847704706
:1017D000111E00002DE9F0418846054600F062F92F
:1017E000234E002828461AD0FFF7D8FB304490F843
:1017F00048008009032802D001280ED007E04FF0EE
:10180000A040D0F81005E84010F0010F05D00321EA
:101810002846BDE8F041FFF717BF0221F8E700F0C6
:101820004DF9002822D02846FFF7B8FB04464FF4B4
:10183000807000EB84000F4F81B207EB8400D0F87A
:10184000102542F00102C0F810250846FFF72CFFD2
:10185000B8F1000F0AD02846FFF7A0FB56F8200089
:10186000002803D00120A040C7F80403BDE8F081A0
:10187000FC000020006000402DE9FC41DFF8BC8046
:10188000044608EB0400002790F930001346C01707
:101890000E46401C01D008274CE0B0781946C0F332
:1018A00040022046FFF756FB0546401C41D0B07869
:1018B000410719D4C0070AD04FF0A04000EB8401C3
:1018C000D1F8000720F00200C1F8000707E000216E
:1018D0007378204600910A460191FFF7A3FE17494D
:1018E00020465431FFF735FEB078800718D51448EC
:1018F000317800EB8500D0F81025124B1A40C0F863
:1019000010254FF4F8524FF4403302EA042203EA60
:1019100001410A43D0F810150A43C0F8102509E028
:1019200008EB0500327810F8481F41EA8211017077
:1019300000E004273846BDE8FC810000FC000020E0
:1019400000600040FFE0FCFF4FF0A041D1F810150F
:10195000C14011F0010000D00120704770B5174D53
:1019600095F8580008B1082070BD0020411E2A18C3
:10197000401CC0B282F830102028F8D30024204642
:10198000FFF7DAFA641CE4B20C2CF8D300240C49FB
:10199000C0206C6581F8000401264020891FC1F831
:1019A00000014FF4BE70FFF77FFE0649F007C1F853
:1019B000040385F85860204670BD0000FC0000203C
:1019C00006E000E000600040034890F8580000285E
:1019D00000D0012070470000FC00002010B5044634
:1019E0000020FFF757F80A4A517808290AD22170D7
:1019F000481C50700748026801238B401A4302605C
:101A0000002400E004240020FFF746F8204610BD23
:101A10001C00002008050140044A034902EB800035
:101A2000C0F80016704700003546526E00000140B5
:101A300004490120C1F8040308600349022008702A
:101A400070470000000001401C00002070B50446F3
:101A500011484160017809B1082070BD0121017071
:101A60000E492078086060680025410CC0034FF4DF
:101A70007A722B46FEF744FC084908390860207A40
:101A80000749400181F800044FF0E0214FF4803015
:101A9000C1F80001284670BD1C0000200C05014063
:101AA00010E000E00449084490F93000082801DB08
:101AB0000120704700207047FC00002004490844C2
:101AC00090F93000082801D20120704700207047AB
:101AD000FC00002070B50546FFF745FB134C40B1F4
:101AE000D4E904024FF08071411842F10000C4E9CA
:101AF000041000212846FFF7B5FA30B1606820B124
:101B0000606800F09FF80020606001212846FFF720
:101B1000A9FA18B1FFF722FCC4E90601284600F033
:101B2000BDF82846BDE8704000F034B84000002001
:101B300070B5054600200C460870FFF70FFCD5E98C
:101B40000223101A63EB010300263146361A99412D
:101B500012DAB0F5350F03D3FEF73EFF0B494218FA
:101B60004FF4960300210A48FFF709FB10B10D2836
:101B700006D009E0012070BD00210548FFF768FA92
:101B8000284600F05FF82070002070BDFFFFB40011
:101B900048000020F8B51A4C074600261948FFF700
:101BA000ACFDD0B1616871B1D0E902106268D2E9D0
:101BB0000232C91A904120D26068007F18B1616872
:101BC0001048FFF789FD00F01FF805466946FFF74A
:101BD000AFFF98B1606840B10AE0606800280CD19E
:101BE0003846BDE8F840FFF7C6BA3846FFF7BFFAF7
:101BF00065609DF800000028D0D1F8BD6660CDE793
:101C000040000020F81D00000148FFF779BD0000EA
:101C1000F81D0000C207002A03D000BF4FF00F02DA
:101C200001E04FF0F00201D04FEA0111044B03EB49
:101C30005003187800EA020040EA0100187070476B
:101C40007801002070B50446124800250078F8B1EC
:101C5000F4B1207FE0B1FFF781FBD4E90223801AC1
:101C6000994110D32069002600B92677D4E90510E0
:101C70008847206960B1217F51B1D4E90221101851
:101C80007141C4E9020121460348FFF725FD012502
:101C9000284670BD40000020F81D0000F8B51B4C20
:101CA00069462068FFF737FC00260127184D29E018
:101CB000017821B101290CD002291BD114E041681F
:101CC0000A7FBAB90F77416810480830FFF704FD62
:101CD00010E041686868814201D16E600AE00B48FB
:101CE0000830FFF714FD05E0FFF78EFF08B1067717
:101CF000FAE72F7069462068FFF702FC6946206802
:101D0000FFF709FC0028D3D1F8BD0000F01D00004A
:101D100040000020F8B50B4C0D4606466946206889
:101D2000FFF7E3FB58B10670456069462068FFF78E
:101D3000FDFB10B10448FFF705FA0020F8BD0420B0
:101D4000F8BD0000F01D0000480000200348806836
:101D50004108034800224068FEF77EBE28000020AC
:101D6000E81D000070B50C460546FFF7CDF80028C9
:101D700007D04268002A04D021462846BDE87040BA
:101D8000104770BDFEF7F8BE000000000000000024
:101D90000338FDD87047000001000000D0070000A4
:101DA0000600000001000000D0070000060000004F
:101DB000111213140D0E0F1078000020980000204F
:101DC000C80000200D000300C10B00000E0003003E
:101DD000C10B00000F000300C10B00001000030046
:101DE000C10B00000000005003000000580100205B
:101DF00088010020010006000000000060000020B3
:101E0000F10F0000000000000000000000000000D2
:101E10000338FDD870470000381E00000000002085
:101E200078000000F4080000B01E000078000020D8
:101E300078210000040900000000000000000000FC
:101E40000000000000000000000000000000000092
:101E50000000000000000000000000000000000082
:101E60000000000000000000000000000000000072
:101E70000000000000000000000000000000000062
:101E800000100140110004000000000000000000EC
:101E90000000000000000000000000000000000042
:101EA0000000000000000000000000000090D003CF
:0400000500000201F4
:00000001FF
