:020000040000FA
:10000000B0260020F90200000103000003030000F5
:1000100005030000070300000903000000000000C2
:100020000000000000000000000000000B030000C2
:100030000D030000000000000F030000110300008A
:100040001303000013030000A905000013030000C0
:100050001303000013030000130300001303000048
:100060001303000013030000130300001303000038
:100070001303000013030000130300001303000028
:10008000130300001303000013030000A10300008A
:100090001303000013030000130300001303000008
:1000A00013030000130300001303000013030000F8
:1000B0001303000013030000000000000000000014
:1000C00013030000130300001303000013030000D8
:1000D00013030000130300001303000013030000C8
:1000E00013030000130300001303000000000000CE
:1000F00000000000130300000000000013030000D4
:1001000000000000000000000000000000000000EF
:1001100000000000000000000000000000000000DF
:1001200000000000000000000000000000000000CF
:1001300000000000000000000000000000000000BF
:1001400000000000000000000000000000000000AF
:10015000000000000000000000000000000000009F
:10016000000000000000000000000000000000008F
:10017000000000000000000000000000000000007F
:10018000000000000000000000000000000000006F
:10019000000000000000000000000000000000005F
:1001A000000000000000000000000000000000004F
:1001B000000000000000000000000000000000003F
:1001C000000000000000000000000000000000002F
:1001D000000000000000000000000000000000001F
:1001E000000000000000000000000000000000000F
:1001F00000000000000000000000000000000000FF
:10020000DFF80CD000F0BAF800480047710B00008E
:10021000B026002030B4044654E8000F0D4644E8F0
:100220000053002BF8D1156030BC704730B4044641
:1002300054E8000F40EA010544E80053002BF7D1D1
:10024000156030BC704730B4044654E8000F00EA33
:10025000010544E80053002BF7D1156030BC70470E
:1002600030B4044654E8000F80EA010544E8005326
:10027000002BF7D1156030BC704730B4044654E809
:10028000000F00EB010544E80053002BF7D1156087
:1002900030BC704730B4044654E8000FA0EB0105B1
:1002A00044E80053002BF7D1156030BC704770B4A0
:1002B00004464FF0000054E8006F0D68AE4207BFDF
:1002C00044E80023012044E800630E60002B1CBFBB
:1002D0000020F0E770BC704730B4044654E8000FCB
:1002E00088422CBF451A054644E80053002BF5D13F
:1002F000156030BC7047000006488047064800473C
:10030000FEE7FEE7FEE7FEE7FEE7FEE7FEE7FEE7C5
:10031000FEE7FEE7CD030000010200000048704741
:10032000D026000040EA01039B0703D009E008C97A
:10033000121F08C0042AFAD203E011F8013B00F8AA
:10034000013B521EF9D27047D2B201E000F8012BF6
:10035000491EFBD270470022F6E710B513460A4645
:1003600004461946FFF7F0FF204610BD421C10F866
:10037000011B0029FBD1801A70470000064C074D75
:1003800006E0E06840F0010394E807009847103465
:10039000AC42F6D3FFF738FF70270000902700002B
:1003A00010B50121080200F0C9FB02214FF4827050
:1003B00000F0C4FB04214FF4847000F0BFFBBDE8E3
:1003C000104008214FF4867000F0B8BB30B54FF0F4
:1003D000805000228300D0F83011C3F80C21C3F8FC
:1003E0001021624B1A60624B1B68624C2360604BA9
:1003F0001B1D1B68241D23605D4B08331B68241DD7
:1004000023605B4B0C331B68241D2360584B103357
:100410001B68241D2360564B14331B68241D236066
:10042000534B18331B68534C20342360504B1C3300
:100430001B68241D23604E4B20331B68241D236042
:100440004B4B24331B68241D2360494B28331B6806
:10045000241D2360464B2C331B68241D2360444B12
:1004600030331B68434C40342360414B34331B68AA
:10047000241D23603E4B38331B68241D23603C4BF6
:100480003C331B68241D2360394B40331B68241DFB
:1004900023600123082902D1D0F8344114B108297E
:1004A00004D006E0354C3449216005E0D0F83441F1
:1004B00014B1082904D006E0314CFB21216005E08D
:1004C000D0F8344114B1082908D00EE090F8584211
:1004D0002C48016864F30301016002E0D0F8344164
:1004E0001CB929494FF40070086028480168C90701
:1004F00002D06FF0010101602548016841F47001EC
:100500000160BFF34F8FBFF36F8F4FF01021D1F811
:100510000002002803DBD1F80402002822DA1D4C77
:1005200023601D480368002BFCD01223C1F8003261
:100530000568002DFCD0C1F8043201680029FCD008
:10054000226001680029FCD0BFF34F8F10487C382F
:100550000168124A01F4E06111430160BFF34F8F5B
:1005600000BFFDE70F490E48086030BD3805004068
:100570000404001020C50040488103008C56004050
:1005800018F50040E40E0040409602400004004090
:1005900088ED00E004E5014000E401400400FA05B4
:1005A0000090D003A0000020014800680047000030
:1005B0002400002002E008C8121F08C1002AFAD156
:1005C00070477047002001E001C1121F002AFBD1D3
:1005D0007047000072B601F0CFF800BF00F01AFFBC
:1005E0000028FBD111481249401AC408012000EB31
:1005F000044010A101F026F811480068C00700D09F
:1006000000BE022000EB04400EA101F01BF8BFF376
:100610004F8F0B48E43801680E4A01F4E061114342
:100620000160BFF34F8F00BFFDE70000C02700004F
:10063000A0270000466174616C206572726F7200C1
:10064000F0ED00E053797374656D20726573657425
:10065000000000000400FA050EB500210091CDE96C
:1006600001106A4644F20100FFF7B4FF0EBD00F02E
:1006700003B800F009B8000072B602480168491CCE
:10068000016070472C00002003490868401E086084
:1006900000D162B6704700002C00002070B50546FE
:1006A00008680C46411C04D000F0AEFD206800F044
:1006B0006CFD6068411C02D0002100F054FD2968E7
:1006C000A069C1F82405607D227D29681043C1F826
:1006D0006C05D4E900122868C0F81425C0F80C1580
:1006E000207D012814D1A068411C02D0002100F017
:1006F0003AFDE068411C04D000F086FDE06800F09F
:1007000044FDD4E902122868C0F80825C0F8101585
:1007100070BD70B5054608680C46411C04D000F059
:100720007DFD206800F03BFD6068411C02D0002187
:1007300000F022FD2968A069C1F82405607D217DB3
:100740002A680843C2F86C05D4E900122868C0F88A
:100750000C15C0F81425207D012814D1A068411C77
:1007600002D0002100F008FDE068411C04D000F038
:1007700055FDE06800F013FDD4E902122868C0F8C6
:100780000825C0F8101570BD2DE9FC410646C007CC
:100790004FF000050ED0104F00240122385D009567
:1007A00000231146019500F081FC641C042CF4D355
:1007B00000F03AF8B0070DD5074E0024361D002290
:1007C000305D032300951146019500F06FFC641C19
:1007D000042CF4D3BDE8FC81F4250000094908B5D8
:1007E000085C0090684600F0E5FCD0F80425009B0A
:1007F0000121994021EA0203C0F808351140C0F8F0
:100800000C1508BDF42500000249085C012100F028
:100810000FBD0000F42500000249085C002100F033
:1008200007BD0000F425000010B500242046FFF7A6
:10083000EBFF641C042CF9D310BD00002DE9F04738
:100840000546861C90460F464FF001090020FFF731
:100850000EFF1B4C20683860D4E90001401AA168E3
:1008600004F21C47081A0EE00121384600F052FA43
:1008700000F004F90146384600F04CFAD4E90001D2
:10088000401AA168081A401C8642EDD8B8F1000F42
:1008900003D0052065F3891002E0062065F39F5020
:1008A000A2682168114004EB8101C86020683044CF
:1008B00020600020FFF7DDFE4846BDE8F08700001D
:1008C0008C02002070B50D4604460A2902D10D2184
:1008D000FFF7F8FFA0682268411CA1601554D4E915
:1008E0000101814204D32046BDE8704000F0CBBA3C
:1008F00070BD0000034803C8814201D10120704748
:10090000002070478C02002010B50021024800F042
:100910000CFA80F3100010BDA80600202DE9FC5F42
:100920000E008346DDE90C47C6F10000984692466A
:10093000814600D40846012503E000BF90FBFAF091
:100940006D1C5045FADAA84500D9454624B1002E61
:1009500001DB780700D5641EB80702D5B8F1000F97
:100960000AD0F80708D13CB1A54205D2202158464B
:10097000641EFFF7A7FFF6E7002E02DA4E462D2190
:1009800002E0780703D52B215846FFF79BFF07F0BD
:10099000030002280BD1B8F1000F08D13CB1A542E9
:1009A00005D230215846641EFFF78CFFF6E7CDE9EB
:1009B0000047434652463146584601F0B3FDBDE874
:1009C000FC9F000070B50D46044600684FF4887126
:1009D00000F0D5FF4FF49071206800F0D0FF4FF485
:1009E0009271206800F0CBFF4FF4A271206800F0F4
:1009F000C6FF4FF4AC71206800F0C1FF20681149B8
:100A0000C0F804132068690740F30730090E002876
:100A100006DA00F00F0000F1E02080F8141D03E07A
:100A200000F1E02080F800142068012140F3073035
:100A300000F01F0291404009800000F1E020C0F862
:100A4000001170BD100342000246002012685307D7
:100A500013D502F00300012802D002280CD105E0D2
:100A6000C2F383100B68801C184404E0022308685A
:100A700003EB925210440860012070472DE9FF41BA
:100A80000026234800F043F92148001F074600F0E4
:100A90003EF9204C60680090A56800E00098694627
:100AA000284004EB80000C30FFF7CEFF0028F5D182
:100AB00001AA009901EA050304EB8303491CDB68E2
:100AC00042F82030401C00910228F2D3019800F037
:100AD000030001280BD0022810D10198032101EB5B
:100AE00090500099BDF80A6001EB900005E0019874
:100AF000BDF80A60C0F3831008440090384600F047
:100B000003F908B10098606004B03046BDE8F08198
:100B1000A40600208C02002010B5B0F5827F09D118
:100B20000020FFF75BFE04480168491C0160416832
:100B3000491C416010BD00000000002078B40A4B41
:100B4000C21815680024002D0BD0D3F804330B42D3
:100B500007D01460116800910449496801B070BC65
:100B6000084778BC70470000003001401C0000209E
:100B70000EB50120FFF708FE002401220220009498
:100B800023461146019400F077FA00220B2003233C
:100B900000941146019400F06FFA0021084600F01D
:100BA000B5FD08B1FFF758FD00F026FC1B4A07CA47
:100BB0008DE8070002208DF808001949684600F00A
:100BC00005FF08B1FFF748FD00F0E8FE154816499B
:100BD000401AC008032101EB004014A100F032FDCF
:100BE0001C4D04242E1F4FF4C87700BF01F02AFAD1
:100BF0000120FFF711FE2C60642000F0F3F801F0F3
:100C000021FA0120FFF700FE3460384600F0EAF8D0
:100C100000F000FC0028FBD1E8E70000E825000018
:100C2000190B0000C0270000A02700004C50434FC4
:100C30004D50206472697665722075736167652016
:100C40006578616D706C6520737461727465642E73
:100C5000000000000C0500502DE9F047C5881E1D5E
:100C6000B6FBF5F78946B6FBF5F1044605FB176CB4
:100C7000407916686843DDF820A0F718001F874206
:100C800000D9C61A166001E02468491E0029FBD16C
:100C9000A5EB0C078846B74216D818E004EB0C0009
:100CA000001D09EB0803BAF1000F3A4602D00146D5
:100CB000184600E01946FFF735FB2468F61B4FF095
:100CC000000CB844B54201D9374600E02F46002E4B
:100CD000E4D1BDE8F087000030B5024651B100F024
:100CE00033FD0021074C08E034F821301568AB4291
:100CF00002D11160002030BD491C8142F4D305208F
:100D000030BD000000000000002100F009B8012102
:100D100000F010B808B56A46FFF7AFFA009808BDB2
:100D200008B56A46FFF78FFA08BD08B56A46FFF7AF
:100D300071FA08BD08B56A46FFF778FA009808BD51
:100D400008B56A46FFF7A6FA009808BD70B50446D4
:100D500000252846FFF78BFC2168626808689042EE
:100D60000ED9401E08600178238AE26801FB032542
:100D7000227A2168101AC0B20A79824200D2087120
:100D80000020FFF776FC284670BD70B505460C467E
:100D90000020FFF76CFCE868298A201AB0FBF1F10B
:100DA0002A681068431C13600170BDE87040002081
:100DB000FFF75FBC10B530B1017A42680368891A49
:100DC000C9B21A6006E00E2010BD03681A68541CF0
:100DD0001C601170491EC9B2F7D200680021017170
:100DE000084610BD2DE9F041040007D0044E4FF431
:100DF0007A47751C3846A847641EFAD1BDE8F081D1
:100E0000E0250000F0B505460478154889B016467F
:100E100040F82420124A08690832A2F10C0742F86F
:100E20002400487F385520226846FFF77BFA049457
:100E30002878385C48B10EB10A4A00E000226946C1
:100E4000281D00F08BFF09B0F0BD0EB1064A00E08E
:100E50000022694605F10C0000F052FEF3E70000A5
:100E60000C000020E1230000292200000FB408B587
:100E70000399002904D004AA00926A4600F00FF8F2
:100E800001B05DF814FB10B582680446002A05D055
:100E9000D4E90403216898470020A06010BD2DE923
:100EA000FC4791460C00804676D014F8011B39B1FE
:100EB00025290ED04046FFF705FD20780028F4D103
:100EC00098F80C00002867D04046BDE8FC47FFF7C3
:100ED000DABF0020012221782B291BD02D2902D036
:100EE000302908D102E040F0010001E040F00200AA
:100EF000641C002AEFD100252A290ED02178A1F107
:100F000030020A2A11D205EB850201EB4205641C6E
:100F1000303DF1E740F00400EAE7D9F800100B1D7E
:100F2000C9F800300968641C0D44217800232E297B
:100F30000BD114F8011FA1F130020A2A05D203EBEC
:100F4000830201EB4203303BF3E76C290DD06829A3
:100F50000BD0692921D00BDC252918D0582931D094
:100F600063290ED0642915D117E014F8011FECE7AE
:100F7000702969D0732932D075291BD0782909D1FD
:100F800020E0D9F80000011DC9F8001001784046A2
:100F9000FFF798FC641C90E76CE0D9F800100A1D7C
:100FA000C9F800200968CDE900500A224046FFF741
:100FB000B5FCEFE7D9F800100A1DC9F80020096850
:100FC0000A2206E0D9F800100A1DC9F800200968B5
:100FD0001022CDE90050404601F0A4FADAE7D9F832
:100FE000001000270A1DC9F800200E68C00705D1AF
:100FF00012E04046761C7F1CFFF764FC3178002924
:10100000F7D104E0202140466D1EFFF75BFCBD4296
:10101000C0D9002DF6D1BDE74EB13046FFF7A6F995
:10102000074604E0202140466D1EFFF74BFCBD4201
:1010300006D9002DF6D103E04046761CFFF742FCAE
:1010400031780029F8D1A5E7D9F80000011DC9F8C9
:101050000010056830214046FFF734FC78214046F7
:10106000FFF730FC08200021CDE9000103461022E3
:101070002946B0E7BDE8FC8770B52028DDE90465A6
:1010800002D24FF0A04402E0074C00F01F0041EAFA
:10109000420141EA830141EA062104EB800041EA72
:1010A0000541C0F8001770BD000300502DE9FF4155
:1010B0001C46DDE90A7815460E46684600F07AF8C7
:1010C00046EA450141EA840141EA072242EA084131
:1010D000009A00EB8200C0F80017BDE8FF812DE9FF
:1010E000FF411C46DDE90A7815460E46684600F0C9
:1010F0006FF846EA450141EA840141EA072242EAE3
:101100000841009A00EB8200C0F80017BDE8FF819B
:101110002DE9FF411C46DDE90A7815460E46684672
:1011200000F064F846EA450141EA840141EA0722F9
:1011300042EA0841009A00EB8200C0F80017BDE8BF
:10114000FF811CB5002100910B4601220191FFF7A0
:10115000C6FF1CBD1CB5002100910B460122019168
:10116000FFF7D6FF1CBD1CB500220B4600921146AE
:101170000192FFF7B4FF1CBD1CB500220B46009284
:1011800011460192FFF7C4FF1CBD1CB50021009160
:101190000B46012201911146FFF7A1FF1CBD1CB5B2
:1011A000002100910B46012201911146FFF7B0FF8B
:1011B0001CBD00000168202902D24FF0A0407047FA
:1011C00001F01F010160014870470000000300505A
:1011D0000168202902D24FF0A040704701F01F01A2
:1011E0000160014870470000000300500168202999
:1011F00002D24FF0A040704701F01F01016001488A
:10120000704700000003005001B56846FFF7E0FF9B
:10121000009A01219140C0F8081508BD01B5684643
:10122000FFF7E4FF009A01219140C0F8081508BDBE
:1012300038B501240090684631B1FFF7BBFF009933
:101240008C40C0F8084538BDFFF7B4FF00998C40CA
:10125000C0F80C4538BD000030B5154A01460020E5
:10126000D2F8104423460AE0DB681D79854205D197
:10127000401C0A28F6DB4FF0FF3030BD1B68002B06
:10128000F2D1431CF9D0CB681871D2F8103443B1B5
:10129000DB68CC681B682360D2F81024D268116028
:1012A00030BDC2F81014C96800220A6030BD0000C9
:1012B0008C020020F0B595B01C4615460F46084636
:1012C0001A9E00F013FB182109A8FFF744F80E96A8
:1012D000CDE909540023082203A9384600F01BFB7E
:1012E00005980690BDF81000ADF81C00BDF812007E
:1012F000ADF81E0000208DF821000398082600F0AC
:101300000300012802D0022818D032E003983346A7
:10131000850AC0F3C2008DF8200003980FA9C0F31E
:101320008314A200384600F0F6FA09A8009006AB34
:1013300022460FA9284600F035FA1AE00398840DDA
:10134000C0F3C2008DF82000082C01D2254600E031
:10135000082533462A460FA9384600F0DCFA2E4409
:10136000641B09AB06AA29460FA800F077F9002CE8
:10137000EAD1384600F0C0FA15B0F0BD7047012040
:1013800000F070BF084810B50178084A515C19B1E7
:10139000001D00F07DFD02E00C3000F07DFCBDE89A
:1013A0001040002000F05EBF340000200800002044
:1013B00008B5034A00924023024AFFF77BFF08BDAD
:1013C00009210000F40000200A4A012902EBC000B4
:1013D00007D0022907D0032907D0042907D000200D
:1013E00070470220704704207047007970474079A9
:1013F00070470000A027000010B5FFF7C0FF0421D0
:101400000348FFF729FF02490120C968487110BD50
:10141000902700002DE9F0478CB0FFF76BFA18B168
:1014200000200CB0BDE8F0877D4C0020C4F8180403
:10143000BFF34F8F60680290A5684FF00008284006
:1014400004EB80000CE000BFD4F8180470B92168E8
:101450000298814201D86160E2E7284004EB8000F5
:101460000C3002A9FFF7F0FA0028EDD1002003AA02
:10147000029901EA050304EB8303491CDB6842F887
:101480002030401C02910228F2D3039800F00300A0
:10149000022802D001284DD0A7E003985022810DE8
:1014A0008946B2EB905F00D850210E4666F39F50FC
:1014B000039008315B4800F0D0F9070078D000F0C5
:1014C00015FA4346082203A9384600F02CFA02997F
:1014D00008F1080A2940681A8000001D864222D9B6
:1014E0004F4D0C3530B1C2B204EB8101301A904639
:1014F0000C3104E02946F2B2002590462846C6B2D7
:101500005346384600F00FFA0AEB080325B132467D
:101510002946384600F007FA029909F1030001EB69
:10152000900002903BE004EB81015346324638467E
:101530000C31EFE70398C0F38310062800D3062090
:10154000039960F38911C1F38310801C039181001A
:10155000344800F082F9070047D000F0C7F943464D
:10156000082203A9384600F0DEF908F10808002631
:101570000FE00298434600EA0501401C04EB81019C
:101580000290042238460C3100F0CDF908F104082D
:10159000761C0398C0F38310B042EAD847B1D4F860
:1015A0001054D4F8180478B1384600F0A5F931E0A9
:1015B0001BE0E8684079012804D12A6828463946AA
:1015C00012689047E8680568002DF2D1384600F0AF
:1015D00093F90020FFF74BF8D4F8180408B90298E3
:1015E00060600020FFF745F814E0D4F8104405E0EF
:1015F0002168204689688847E0680468002CF7D194
:1016000009480A49401AC008022101EB004008A11C
:1016100000F018F8FFF76EF980F0010001E7000014
:101620008C020020C8270000C0270000A02700006F
:101630004261636B656E647320666C757368656484
:101640000000000000231A4600F07EBD08B501230B
:1016500000926A4600F078FD08BD00002DE9F047D1
:101660000E4680461C469246082940D894F80C90B5
:10167000002020731946104600F098FC0025B54262
:1016800006D218F805201BA12046FFF7EFFB03E068
:101690001AA12046FFF7EAFB6D1C082DEFD318A115
:1016A0002046FFF7E3FB0025B54212D218F805707B
:1016B0007E2F08D8FEF732FE0068C05D10F03E0FA6
:1016C00001D03A4600E02E220EA12046FFF7CEFBC5
:1016D00003E00DA12046FFF7C9FB6D1C082DE3D3E5
:1016E00001222146504600F043FC84F80C90BDE8EE
:1016F000F0870000202530327800000020202000F4
:101700007C00000025630000200000000B4810B59D
:10171000FF218160002101604160C0F81814C0F809
:10172000141480F82014064800F0E4F8002803D1CF
:10173000044800F000F9002010BD00008C020020D9
:10174000C82700004026000002480349401AC0088C
:1017500070470000C8270000A027000013B56846A6
:10176000FFF7BAFA08B100201CBD0248009950F8F2
:1017700031001CBDA027000070B509480125D0F834
:10178000104480F8205407E0E06845712168204645
:1017900049688847E0680468002CF5D170BD0000F6
:1017A0008C0200202DE9FF4781460C9D00200C464D
:1017B0002F7B2873984616462946184600F0F6FBFC
:1017C000072E42D2DFE806F004090F161F2A360062
:1017D00049462846FFF74AFB37E049462846226833
:1017E000FFF744FB31E0D4E9002349462846FFF7E0
:1017F0003DFB2AE0A0680090D4E900234946284632
:10180000FFF734FB21E0D4E90201CDE90001D4E97E
:10181000002349462846FFF729FB16E004F108009B
:1018200007C88DE80700D4E9002349462846FFF79A
:101830001DFB0AE004F108000FC88DE80F00D4E991
:10184000002349462846FFF711FB0022294640465F
:1018500000F08EFB2F73BDE8FF872DE9F041058A6C
:1018600080462D1F4819C01CB0FBF5F0C6B240469B
:10187000FFF76CFA041E19D000202071012060715E
:10188000E58000272546761EC4F800800BE0404620
:10189000FFF75CFA60B16179491C61712860054607
:1018A0007F1CC0F80080B742F1D32046BDE8F0812C
:1018B000204600F002F80020F8E72DE9F0414579D4
:1018C00001466B1E002201E00968521C9A42FBD3BC
:1018D0000F680146002605E038460C68FFF755FA08
:1018E0002146761CAE42F7D3BDE8F0810121001DF0
:1018F000FFF710BAFFF75EBA10B504460121001DCC
:10190000FFF71EFA10F0FF0F04D12046BDE810408B
:10191000FFF7D3BF10BD1CB501920122009201AAAE
:10192000FFF79AF91CBD1CB501920022009201AA92
:10193000FFF792F91CBD82680021916082681161F5
:10194000826851618268D1608268516080680160FC
:1019500070474058002800D00120704708B5002289
:1019600042504058009008BDD0F80403084000D011
:10197000012070474058002800D00120704708B56A
:10198000002242504058009008BD0121B1EB507F29
:1019900001D1012070470020704700000848012253
:1019A000026008480021C0F80011C0F80411C0F816
:1019B0000811C0F80C11026003490220087070473A
:1019C00000350140003001401C0000202DE9F041AD
:1019D000314E0546307810B10820BDE8F081304C1A
:1019E00071602E49204600F061F808B11120F4E73B
:1019F000012262602B49002008602A4F2B780837AB
:101A000003F00F033B602B68DF437F0704D1254FB2
:101A1000C3F300430C373B60224F2B79203703F090
:101A200003033B601F4F6B79383703F001033B60C2
:101A3000C4F800020F23C4F808332F7A0B6808603B
:101A4000DFF860C00CF1040CDCF800E02EF0070EAB
:101A50004EEA070ECCF800E00B602979D1B10129DC
:101A600002D0022903D100E00421C4F80413D4F801
:101A7000001241F00101C4F80012697A0A4B4901D1
:101A800083F800144FF0E0234FF40021C3F8001155
:101A90003270A2E70821E8E71C000020A103000043
:101AA000003001400035014013E000E070B50D4604
:101AB00000F0EEFA04000FD00020FEF7D8FD2079E8
:101AC00020B10020FEF7D5FD112070BD012025605A
:101AD00020710020FEF7CDFD002070BD10B500F094
:101AE000D7FA002802D000210160017110BD00006A
:101AF0000149024800F0DEBBA400002000200040A5
:101B00002DE9F0410546007916460F4600EB4001ED
:101B10002C4A01EBC00102EB810494F82A1011B1A8
:101B20000820BDE8F081284951F820102868FFF707
:101B3000BDFF08B11120F4E739462846FEF7AEFD97
:101B400066603869206030004FF001062DD03F7F7D
:101B50004FF48E712868FFF701FF4FF4A2712868D7
:101B6000FFF7FCFE28681949C0F8041328684FEAFB
:101B7000471140F30730002806DA00F00F0000F1AB
:101B8000E02080F8141D03E000F1E02080F800144C
:101B9000286840F3073000F01F0106FA01F1400900
:101BA000800000F1E020C0F8001128680421C0F88E
:101BB00000150020A061E06184F8290044F8140FAA
:101BC000A675AEE7A4000020FC25000080000200FE
:101BD0002DE9F05F054600790B4600EB400101EB73
:101BE000C000244901EB8004284600F045F810B1FC
:101BF0001120BDE8F09F62614FF00009C4F8209009
:101C0000A36084F828904FF48E784E4641462868A9
:101C1000FFF7A4FE28684FF0010AC0F808A021468B
:101C2000286800F0D7FA606808BBD5F800B067698B
:101C30000FE000BF94F8280008B10F2615E04146D8
:101C40005846FFF786FE0028F4D02146584600F09B
:101C5000C1FA206AB842F2D3574641462868FFF7D6
:101C600078FE0028F9D02868C760C4F81490304680
:101C7000BFE70000A4000020007900EB400101EB69
:101C8000C000044901EB80004069002800D0012019
:101C900070470000A40000202DE9F04704460079B9
:101CA0004FF0000900EB400101EBC000254901EBBA
:101CB00080072068C0F80095786880B120682249C4
:101CC000C0F808132068012140F3073000F01F021C
:101CD00091404009800000F1E020C0F880112068A8
:101CE000D0F80C25D0F81485D0F80865D0F8105538
:101CF0004FF0FF31C0F81415C0F80C152068C0F87B
:101D00000815C0F81015501C02D01046FFF719FA3C
:101D1000B8F1FF3F02D04046FFF713FA681C02D02B
:101D20002846FFF70EFA701C02D03046FFF709FA7A
:101D30002068FFF7D3FE87F82A90C7F80490BDE823
:101D4000F0870000A400002084020200014902483C
:101D500000F05EBBD0000020002000402DE9F041E3
:101D60000546164600790F46154A00EBC00102EB06
:101D7000810494F8201011B10820BDE8F0811149C8
:101D800051F820102868FFF791FE08B11120F4E700
:101D900039462846FEF7BDFC6660386920601EB1F2
:101DA000397F2846FEF70EFE28680821C0F8001586
:101DB0000020A061E0616061012184F82010DCE76F
:101DC000D0000020002600002DE9F04704460E4612
:101DD0000079274900EBC00001EB8005174630462B
:101DE000FFF7D3FD30B1204600F044F820B11120B8
:101DF000BDE8F0871020FBE76F61AE604FF490778D
:101E00004FF0000839462068FFF7B9FD4FF4AC7673
:101E100031462068FFF7B3FD2068AA686969C0F8F9
:101E20004425C0F8481520684FF00109C0F8089013
:101E30006868D0B9BA4651462068FFF79BFD07464F
:101E400031462068FFF796FD0743F4D010B14FF0FC
:101E50000F0808E02068C0F80C9031462068FFF7B2
:101E600089FD0028F9D0002068614046C0E70000E5
:101E7000D00000200079054900EBC00001EB800094
:101E80004069002800D0012070470000D0000020E9
:101E90002DE9F04704460079334900EBC00001EB1F
:101EA00080070125786880B120683049C0F80813A0
:101EB000206840F3073000F01F0105FA01F14009E6
:101EC000800000F1E020C0F880112068D0F80012F6
:101ED00021F02001C0F80012206845604FF4AC7674
:101EE00031462068FFF74BFD2068C5603146206809
:101EF000FFF740FD0028F9D020684FF00009C0F836
:101F000000952068D0F80C25D0F81485D0F8086525
:101F1000D0F810554FF0FF31C0F80C15C0F814156B
:101F20002068C0F80815C0F81015501C02D01046E3
:101F3000FFF710F9B8F1FF3F02D04046FFF70AF96A
:101F4000681C02D02846FFF705F9701C02D0304605
:101F5000FFF700F92068FFF7C1FD87F82090C7F868
:101F60000490BDE8F0870000D0000020100342007C
:101F700010B50C46017A052908D0407A38B10848D6
:101F800008A102682046FEF771FF00E01AB106A121
:101F90002046FEF76BFF2046BDE81040FEF773BFFA
:101FA0007C000020257300000D0A000038B5C388AE
:101FB0000D46044633B114A0009015A216A1284680
:101FC000FEF754FF217A05291CD0607A48B1A08819
:101FD000FFF7FAF9164951F8202016A12846FEF716
:101FE00045FFA0880021FFF7B9FB03461049207A7E
:101FF000143951F8202001B02846BDE830400EA128
:10200000FEF734BF38BD00001B5B306D00000000E0
:102010001B5B313B33316D0025734C6F677320645C
:10202000726F70706564202825642925730D0A007D
:102030007C000020257300003C25733E2025733A68
:102040002000000070B50B480B49094C401AC0082D
:10205000032101EB004507E02068401E2060626814
:10206000284606A1FFF7F2FA20680028F4D170BDD7
:1020700000000020C0270000A027000023256420C6
:1020800066616C6C2064657465637465640000004F
:102090000349884201D1034870470020704700007F
:1020A000002000402400002070B5054688690C46D9
:1020B00000284FF4847128460AD0FFF74FFCD5F86A
:1020C0001805626AE1688854606A401C606270BDED
:1020D000FFF744FCD5F8180570BD1FB501238DF836
:1020E0000030CDE90121D0E90012684690471FBDBC
:1020F0001FB501238DF80030CDE90121D0E9001290
:10210000684690471FBD000070B50D4C0020D2B24C
:102110002070201D0B4D0378EB5C1BB1001DFFF7F9
:1021200053FE02E00C30FFF753FD08B1FEF794FABE
:102130006078002802D021780029FAD070BD000014
:1021400030000020080000202DE9F84F204D924675
:10215000894606469846012269461846AF68FEF74A
:102160006DFB58B3009800210446801C09E000BFB5
:1021700000EA07035AF8212005EB8303401C491CA1
:10218000DA604145F4D34FEA164AFEF7BDFB4AEA4E
:102190000041601C384005EB80003C4005EB8402A8
:1021A000C160D06866F3C50068F3891069F39F20A9
:1021B00020F00300401C20F00400D06095F82004BB
:1021C00002E000BFFFF726F90028FBD1BDE8F88F39
:1021D0008C02002070B50C4605464FF48E71FFF757
:1021E000BDFB216AA068415C206A401C2062C5F8E2
:1021F0001C1570BD1FB500228DF80020029181686A
:1022000001914261D0E90012684690471FBD1FB599
:1022100000228DF800200291816801914261D0E98D
:102220000012684690471FBD1FB50A4601788DF819
:10223000001041680191017A8DF80810C068039080
:10224000044850F82210083850F822206846904779
:102250001FBD0000140000200149012008707047D4
:102260003000002010B588B0044620220E49684690
:10227000FEF758F806200090C01F019002900390CE
:102280004FF0EB7006900CB1084A00E0002269465E
:102290000748FEF7B7FD08B1FEF7DEF90448001F56
:1022A000447008B010BD0000202600005922000034
:1022B000340000202DE9FF470C4605464FF400711D
:1022C000FFF752FB01274FF40178002618B34FF4B3
:1022D000927949462846FFF73CFBE0B1494628463B
:1022E000FFF73CFBC5F8088394F8290000B96F603C
:1022F00002208DF80000D5F88004C5F88004039012
:10230000A0690290E0680190A661E661D4E900123C
:102310006846904728E004212846FFF725FB18B3BC
:102320004FF484712846FFF714FBE8B12146284694
:10233000FFF7BAFE616AA069884215D1E06938B139
:10234000E268616AA0612069E6616662E06008E0B7
:1023500094F8290000B96F60C5F80883A661E268A7
:10236000616A2046FFF7B9FE4FF48E784146284651
:10237000FFF7EFFA80B16069216A814202D294F8D6
:10238000280028B341462846FFF7E8FA606918B1EB
:1023900061692046FFF72EFF4FF4A2784146284698
:1023A000FFF7D7FA002818D041462846FFF7D6FA9B
:1023B00094F8290000B12F60A06900280DD0A66113
:1023C000E268616A04B02046BDE8F047FFF785BEC9
:1023D00021462846FFF7FEFEDEE7BDE8FF87000046
:1023E0001FB50A4601788DF8001041680191017A05
:1023F0008DF80810C0680390044850F8221008387F
:1024000050F82220684690471FBD000014000020AD
:102410002DE9FF410C464FF4927705463946FFF708
:10242000A9FA0026B8B139462846FFF7A8FA0220D3
:102430008DF80000D5F88004C5F880040390D5F825
:102440003C050290E0680190A661E661D4E90012C3
:102450006846904723E04FF4887739462846FFF7CF
:1024600089FAE0B139462846FFF789FAD5F83C15D4
:10247000A069884213D1E06960B1E268D5F8000232
:1024800020F02000C5F80002E069A0612069E66143
:10249000E06001E0A661E2682046FFF729FE4FF404
:1024A000A27739462846FFF765FA68B139462846CB
:1024B000FFF765FAA06938B1A661E661D5F83C1569
:1024C0002046E268FFF714FE4FF490763146284626
:1024D000FFF750FA60B131462846FFF750FA012065
:1024E000E860606920B1D5F84C152046FFF78FFEF3
:1024F0004FF4AC7631462846FFF73CFA00280ED060
:1025000031462846FFF73BFA6069002807D0D5F826
:102510004C1504B02046BDE8F041FFF778BEBDE899
:10252000FF8100002DE9F05F8346DDE90A4A994604
:1025300090460D460846012703E000BFB0FBF8F0C7
:102540007F1C4045FAD2B94500D94F465FEACA70B0
:1025500012D18CB15FEA8A7002D5B9F1000F01D0B7
:10256000202607E0302605E031465846641EFEF777
:10257000A9F90CB1A742F7D35FF00106B9F1010F39
:1025800002D9A9F1010903E0B5FBF6F0404502D3F9
:1025900006FB08F6F2E7DFF83C9000BFB5FBF6F06B
:1025A00000FB165519F800105846FEF78BF9B6FBDC
:1025B000F8F6002EF2D15FEACA7009D0002C07D0DD
:1025C000A74205D220215846641EFEF77BF9F5E7A5
:1025D000BDE8F09F0426000000000000000000009D
:1025E0000338FDD87047000003000000020000001F
:1025F000020600000D0E0F100B0C1819F11A000046
:102600004D1D0000303132333435363738394142D0
:1026100043444546B1130000851300007D130000BC
:10262000FFFFFFFFFFFFFFFFFFFFFFFFFFFFFFFFBA
:1026300000000000000000000000D60106010000BC
:10264000F40100207F0000007402002000404040A0
:102650004040404040404141414141404040404075
:102660004040404040404040404040404005020221
:1026700002020202020202020202020202202020E0
:10268000202020202020200202020202020290903C
:10269000909090901010101010101010101010103A
:1026A000101010101010101002020202020288888E
:1026B000888888880808080808080808080808089A
:1026C0000808080808080808020202024000000082
:1026D0004D2600007761726E696E670064656275F1
:1026E000670000001B5B313B33306D001B5B306DBE
:1026F000000000001B5B313B33316D001B5B313B45
:1027000033326D001B5B313B33336D001B5B313B60
:1027100033346D001B5B313B33356D001B5B313B4C
:1027200033366D001B5B313B33376D00696E666F6E
:10273000000000006572726F720000004C50434F41
:102740004D500000505253005541525400000000BB
:102750005541525445000000756172745F6C6F679B
:102760005F6261636B656E64000000006170700001
:10277000DC27000000000020A4000000B4050000D9
:1027800080280000A40000200C260000C4050000E2
:102790001426000000000000582700004800002018
:1027A0003C2700000000000044270000000000005B
:1027B0004827000000000000502700000000000033
:1027C0006C27000000000303580000205000002088
:1027D0005800002034010020180000000000000014
:1027E00000000000000000000000000000000000E9
:1027F00000000000000000000000000000000000D9
:1028000000000000000000000000000000000000C8
:1028100000000000002000400000000000200040F8
:102820000000000000000000FF00000000000000A9
:102830000000000000000000000000000000000098
:10284000000000000000000034270000D426000033
:102850002C270000DC260000EC260000E426000007
:10286000F4260000FC260000042700000C270000CE
:10287000142700001C270000242700000090D0032C
:0400000500000201F4
:00000001FF
