:020000040000FA
:10000000A0230020150200001D0200001F020000B6
:100010002102000023020000250200000000000071
:1000200000000000000000000000000027020000A7
:1000300029020000000000002B0200002D02000039
:100040002F0200001D030000190700002F0200000E
:100050002F0200002F0200002F0200002F020000DC
:100060002F0200002F0200002F0200002F020000CC
:100070002F0200002F0200002F0200002F020000BC
:100080002F0200002F0200002F0200002F020000AC
:10009000790300002F0200002F0200002F02000051
:1000A0002F0200002F020000ED0600002F020000CA
:1000B0002F0200002F0200000000000000000000DE
:1000C0002F0200002F0200002F0200002F0200006C
:1000D0002F0200002F0200002F020000000000008D
:1000E0000000000000000000000000000000000010
:1000F0000000000000000000000000000000000000
:1001000000000000000000000000000000000000EF
:1001100000000000000000000000000000000000DF
:1001200000000000000000000000000000000000CF
:1001300000000000000000000000000000000000BF
:1001400000000000000000000000000000000000AF
:10015000000000000000000000000000000000009F
:10016000000000000000000000000000000000008F
:10017000000000000000000000000000000000007F
:10018000000000000000000000000000000000006F
:10019000000000000000000000000000000000005F
:1001A000000000000000000000000000000000004F
:1001B000000000000000000000000000000000003F
:1001C000000000000000000000000000000000002F
:1001D000000000000000000000000000000000001F
:1001E000000000000000000000000000000000000F
:1001F00000000000000000000000000000000000FF
:10020000DFF80CD000F03CF800480047D5090000AA
:10021000A02300200648804706480047FEE7FEE787
:10022000FEE7FEE7FEE7FEE7FEE7FEE7FEE7FEE7A6
:10023000D10300000102000040EA01039B0703D044
:1002400009E008C9121F08C0042AFAD203E011F815
:10025000013B00F8013B521EF9D27047D2B201E0D7
:1002600000F8012B491EFBD270470022F6E710B5BB
:1002700013460A4604461946FFF7F0FF204610BD14
:10028000064C074D06E0E06840F0010394E80700E3
:1002900098471034AC42F6D3FFF7B6FF5013000076
:1002A0007013000000F01F020121914040098000FE
:1002B00000F1E020C0F88012704700F01F02012119
:1002C00091404009800000F1E020C0F880117047A3
:1002D00000F01F02012191404009800000F1E02060
:1002E000C0F80011704700F01F0201219140400941
:1002F000800000F1E020C0F8001270474907090EA5
:10030000002806DA00F00F0000F1E02080F8141D4C
:10031000704700F1E02080F80014704770B5144C6D
:10032000D4F80001002628B1D4F80403C00701D096
:10033000C4F80061D4F80C010E4D40B1D4F80403A8
:10034000000704D5C4F80C61286900B18047D4F8CF
:10035000100100280BD0D4F80403C00607D5C4F858
:100360001061E868002802D0BDE87040004770BD09
:1003700000100040080000207CB5144C606A019019
:100380002078002821D00120FFF797FF656800261C
:1003900066600120FFF79CFFE169002915D0E8079E
:1003A00003D08DF8006068468847A80705D501206E
:1003B0008DF80000E16968468847680705D5022086
:1003C0008DF80000E169684688477CBD0800002080
:1003D000F0B5B5480023021D0178101D01254FF02E
:1003E000805406290BD11678360708D10678C6F353
:1003F0000316032E06D0042E04D0052E02D00629A3
:1004000007D00EE0B4F82463A84FC6F304263E607C
:1004100002E01678360704D10678C6F30316032ED9
:1004200002D0062904D00FE0A24FA14E7E670EE055
:100430001678360708D10678C6F30316032E06D0C1
:10044000042E04D0052E02D0062907D00EE0D4F8E1
:100450004462994FC6F342363E6002E01678360792
:1004600004D10678C6F30316032E02D0062906D05F
:1004700011E0924E376827F0807737600EE01678EB
:10048000360708D10678C6F30316032E06D0042ECD
:1004900004D0052E02D006290AD011E04FF0804684
:1004A000C6F80C31C6F81031834E361F336002E0B7
:1004B0001678360704D10678C6F30316032E02D049
:1004C000062905D00CE07C4F032664373E600AE025
:1004D0001678360704D10678C6F30316032E02D029
:1004E00006290DD014E0764F05263E60744E78360E
:1004F0003560734E083633603F263F1D3E6002E094
:100500001678360704D10678C6F30316052E02D0F6
:10051000062957D062E06B4E36686B4F3E60694EDD
:10052000361D36683F1D3E60664E083636683F1DF4
:100530003E60644E0C3636683F1D3E60614E10369C
:1005400036683F1D3E605F4E143636683F1D3E6084
:100550005C4E183636685C4F20373E60594E1C366C
:1005600036683F1D3E60574E203636683F1D3E6060
:10057000544E243636683F1D3E60524E283636684B
:100580003F1D3E604F4E2C3636683F1D3E604D4E3F
:10059000303636684C4F40373E604A4E3436366807
:1005A0003F1D3E60474E383636683F1D3E60454E23
:1005B0003C3636683F1D3E60424E403636683F1D31
:1005C0003E6002E01678360708D10678C6F30316B7
:1005D000032E06D0042E04D0052E02D0062907D003
:1005E00019E0D4F85812394A01F04F01116002E0C5
:1005F000117809070FD10078C0F30310032803D046
:10060000042801D0052806D131480168C90702D065
:100610006FF001010160D4F83001062808D1D4F848
:100620003401062804D12B48016841F4806101603F
:1006300022487438016841F470010160BFF34F8FA4
:10064000BFF36F8F4FF01021D1F80002002803DBB9
:10065000D1F80402002822DA1F4A15601F480468F6
:10066000002CFCD01524C1F800420568002DFCD0F8
:10067000C1F8044201680029FCD013600168002918
:10068000FCD0BFF34F8F0D48F0380168144A01F4D5
:10069000E06111430160BFF34F8F00BFFDE71249D6
:1006A00010480860F0BD0000E00F00F04035014048
:1006B0000DF0ADBA00C007403C050040FCED00E085
:1006C000105600400404001020C50040E40E004015
:1006D000000400403C17004004E5014000E40140F4
:1006E0000400FA050090D003500000200748D0F81D
:1006F0004011002909D00021C0F840110448407879
:10070000032802D1034901200861704700A001407D
:100710000800002000100040014800680047000069
:100720000000002002E008C8121F08C1002AFAD108
:1007300070477047002001E001C1121F002AFBD161
:100740007047006890FAA0F000BA00BA7047000045
:1007500072B609480068C00700D000BEBFF34F8FD3
:100760000548E4380168054A01F4E061114301607D
:10077000BFF34F8F00BFFDE7F0ED00E00400FA0586
:100780000EB500210091CDE901106A4644F2010046
:10079000FFF7DEFF0EBD0000F0B54FF08050D0F83F
:1007A0000411C1F307222949422A0AD1284A1368B1
:1007B00023F0010313600A6822F0010242F0807204
:1007C0000A60D0F80401C0F3072045283AD1214837
:1007D000407C052838D04FF07F431F4800681E4AF0
:1007E0001840121D12681A4090422BD11A4A083242
:1007F00010681368C0B2C3F3072C13681268C3F300
:100800000747160E144A0C321368DDB21368C3F39F
:10081000072413681268C3F30743120E60450BD018
:10082000B84209D0B04207D0A84205D0A04203D0B8
:10083000984201D0904205D1086820F0010040F0B4
:10084000807008600020F0BD044BC6E774170040BC
:10085000501600403C0000201C1500400000FFFF27
:100860002DE9FC410646C0074FF000050ED0104FA1
:1008700000240122385D009500231146019500F007
:1008800031FB641C042CF4D300F01CF8B0070DD528
:10089000074E0024361D0022305D032300951146CB
:1008A000019500F01FFB641C042CF4D3BDE8FC810F
:1008B000481300000249085C012100F030BB000031
:1008C0004813000010B500242046FFF7F3FF641C16
:1008D000042CF9D310BD006890FAA0F000BA70475C
:1008E00070B50F4DA8680F4CC4F800020E48696936
:1008F000C07C88470E490D4808600021C4F81011DB
:1009000001202061D4F81021002AFBD0C4F8101176
:10091000A96841F00401C4F80012606070BD0000D5
:1009200008000020001000407C0000205E03002032
:10093000041500404FF080400021C0F80011012153
:10094000C0F80010D0F800110029FBD0704700005B
:1009500000B51AA08BB00068089019A019A1006812
:100960000990D1E90001CDE906011822174968462E
:10097000FFF762FC08208DF8130001208DF80000BD
:100980008DF808008DF801001148019000208DF8C5
:100990001400684600F098F800280DD108A800F06F
:1009A0008DF9002808D109A800F0C0F9002803D16A
:1009B000082106A800F008FA0BB000BDE7E7E7E75A
:1009C000C2C2C2C2E7C2C3C4C5C6C7C83013000092
:1009D0003D0A00000120FFF743FFFFF7ABFFFFF7E1
:1009E000B7FF08B1FFF7CCFE00F03CFA08B1FFF703
:1009F000C7FE20BFFDE7000070B50C494FF47050F2
:100A000008600B4C00256570257000F071FB2021FB
:100A10000848FFF72AFCE56214202563FFF74DFC28
:100A200005490320C1F80002002070BD08F501400F
:100A300008000020800300200010004010B500785E
:100A400000283DD001283BD0022839D11D4800F0B4
:100A5000F1F8002834D11B4CA079410703D000F0F5
:100A60000700042801D9012100E00021112000F035
:100A70004BFAA07900F00700012801D9052801D917
:100A8000012100E00021122000F03EFAA07900F0E0
:100A90000700022801D9062801D9012100E0002120
:100AA000132000F031FAA07900F00700032801D8E4
:100AB000012100E00021BDE81040142000F024BA1C
:100AC00010BD00005400002070B505007ED04B4CD6
:100AD000207818B1FFF790FF002878D16868E061AE
:100AE000182229464648FFF7A7FB0025656020210C
:100AF0004448FFF7BAFBE562256300F0A1FB00283C
:100B000073D041494FF0E7300860091D4FF0433082
:100B10000860091D3D480860091D3D48086000F057
:100B2000E7FA37490020183101F5947200EB800391
:100B300003EB40130B4442F82030401C0828F5DB3F
:100B4000344A002002F5947100EB800303EB40135C
:100B5000134441F82030401C0828F5DB2E490420BE
:100B600008602D48083805602C4840F20221C0F882
:100B700000122C4A2A491160111D08602848001DE6
:100B8000091D086025481030091D0860091D264808
:100B900008602348F038091D08602348001D091D1E
:100BA0000860091D21480860154E707C00F007019F
:100BB0000120FFF7A3FBB07C00F007011420FFF732
:100BC0009DFB1420FFF784FB657002E00BE00BE057
:100BD0000BE0012020700007D0F80401C0F30720CB
:100BE000452804D008E00E2070BD072070BD1048D5
:100BF000016841F480610160002070BD08000020A0
:100C00007C000020800300201C150040E743C32324
:100C1000A363E313E801002010A5004000A00040FA
:100C20000011004060F5014040A10040001000406C
:100C30003C17004070B505461E48007880B385B368
:100C40001D4CA06A70B30120FFF737FB606A54F8AF
:100C500020100A782A7054F820104978697054F8E6
:100C600020108978A97054F820100979297154F856
:100C70002010C978E97054F82010681D491DFFF74D
:100C8000DBFA606A401C6062082801D300206062C1
:100C9000A06A401EA0620120FFF71AFB002070BD71
:100CA00001E002E003E00820F9E70E20F7E7052065
:100CB000F5E70000080000201003002070B5184E72
:100CC0000446707808B1112070BD44B14FF08050D7
:100CD000D0F80401C0F30720422802D012E00E2011
:100CE00070BD0F483430407C052814D04FF07F454C
:100CF0002046FFF726FD284204D10A48006810F07C
:100D0000FF0F0AD020687063012000F04BFABDE8A5
:100D10007040FFF741BD044DEAE7072070BD0000B9
:100D200008000020241500400000FFFF70B5234D8F
:100D30000446687808B1112070BD44B14FF080506E
:100D4000D0F80401C0F30720422802D029E00E2089
:100D500070BD1A483430407C05282BD04FF07F46B8
:100D60002046FFF7EEFC30421BD11549086810F40D
:100D70007F4F21D0086810F47F0F1DD00868000E47
:100D80001AD0091D0868000E16D0086810F47F0FED
:100D900012D0086810F47F4F0ED0086810F0FF0FD3
:100DA0000AD02068A863022000F0FCF9BDE870407A
:100DB000FFF7F2BC034ED3E7072070BD0800002008
:100DC000241500400000FFFF70B50C462249497809
:100DD00009B1112070BD60B1082C3AD84FF0805194
:100DE000D1F804111C4DC1F307213435422902D03A
:100DF0001CE00E2070BD697C05290FD04FF07F41AB
:100E00002CB1164A12680A4201D102780AB3134A79
:100E1000121D12680A4209D1012105E01049EFE7CD
:100E2000425CB2B1491CC9B2A142F9D301460A4899
:100E300022463C30FFF700FAC4F10801FF202C7471
:100E4000C840A874042000F0ADF9BDE87040FFF779
:100E5000A3BC072070BD0000080000201C15004046
:100E60000000FFFF70B51A48417809B1112070BD2C
:100E7000184C4FF0FF31C4F808130025C4F8105186
:100E80001549C160816841F00401C4F800121021C5
:100E9000C4F80413042141700D48104A3430817C99
:100EA00011600E49C07C28390860091F0C48086091
:100EB00001209434FFF7F6F90120FFF709FA2567BE
:100EC0006567E567012044F8900C002070BD0000C4
:100ED0000800002000100040350F000030150040D1
:100EE0005E03002070B541EA4201DDE904564FF08F
:100EF000A04441EA830141EA052104EB800041EA74
:100F00000641C0F8001770BD01224FF0A043824097
:100F100011B1C3F808257047C3F80C2570470122AA
:100F20004FF0A043824011B1C3F808257047C3F8C1
:100F30000C2570472DE9F05F554800220127006815
:100F400018B15448806A082803D3BDE8F05FFFF762
:100F5000C7BCDFF83C9109F10809D9F800004D49F8
:100F6000703101EB800609F104010C68494B3588AA
:100F70004E33AC42587805D1B478B4EB500F01D160
:100F8000012200274008B07008689A463080424825
:100F9000424C017D19B19AF80110C90710D0A1681F
:100FA0003F4B41F00801C3F800123C49394D00782D
:100FB00049694FF0000B2C35B8B3012847D102E046
:100FC000FFF78EFC4EE03748836AB3F1000E2DD058
:100FD000436A50F823C09CF80180D9F800C0E0456E
:100FE00024D196F803C0BCF1010F0DD162B95B1C8E
:100FF0004362082B01D3C0F824B0AEF10102826233
:10100000626842F0010262600122F270426A50F8A6
:101010002200A06100788847A1690878287011F83B
:10102000052BA81CFFF708F906E009E086F803B0D5
:101030000020884785F800B09AF80100687006E043
:10104000002088479AF80000287085F801B0052034
:101050006070D9F80000144908601348283805600A
:101060001248E060002F10D0B178D9F80000C0B26B
:1010700000F04CF8002808D0606840F00400606080
:10108000BDE8F05F1420FFF72EB9BDE8F09F000027
:1010900000140040100300207C0000200800002005
:1010A00000100040BC0100202C150040B1100000D1
:1010B00010B5094CA068094940F00400C1F80002CD
:1010C00007486169C07C88470749064808600748A7
:1010D000E0600420607010BD080000200010004097
:1010E0007C0000205E03002004150040350F000046
:1010F0000549002008624862886201F5AA71086209
:101100004862886270470000BC0100202DE9F04170
:10111000224C07468846A06A08283DD2A4F52571CE
:1011200020460A780026006A01F2E225012A03D04F
:101130004A7842B1C97C02E0297820292CD854F899
:101140002020117002E054F820100E7054F8200096
:10115000A91C10F8052BFFF76FF8206A54F820102F
:101160004F700F49096854F82020917054F82020DE
:1011700082F80480697854F8202041F30001491C6A
:10118000401CD1702062082800D32662A06A401C4F
:10119000A0620120BDE8F0810020FBE710030020E1
:1011A0004815004010B50446C00704D00F48FFF7AB
:1011B000C8FA0F490860A00706D50C48001DFFF7C4
:1011C000C0FA0B49091D086060070DD507480830B3
:1011D000FFF781FB06490831086004480C30FFF72F
:1011E0007AFB03490C31086010BD00003C00002070
:1011F0001C1500400F4A10B50F48117A01604923B1
:101200000E48052914D2DFE801F0050307050300A5
:10121000302102E0836201E0FA2181629389816AD0
:101220003E318B4202D2806A3E309081012010BD57
:10123000002010BD7C000020101500400800002098
:1012400070B500F03FF8FFF7D5FF1849184A0B7842
:101250007BB1012B0BD00023034016484D7A041FAD
:10126000B5B1012D0ED0022D07D0002417E0124B8E
:1012700000E0124B53610123EEE74FF6FF76066064
:101280000F4803E0FF26066040F20710206002E0EE
:101290000026066026600748083805600124C87CDF
:1012A00051691C408847204670BD00007C0000202A
:1012B000080000203C15004005130000D912000072
:1012C0002110010002480349807A0860704700003D
:1012D0007C0000200C150040084A074911600849AD
:1012E000497C491E090441EA0021014341F0807014
:1012F000111D086070470000000101001415004036
:101300003C00002007490648086007480749407C20
:10131000401E41EA00400349091D08607047000073
:1013200006000300141500403C00002020000001CE
:10133000010000000000000001020000FA000300AC
:101340000001022000000000111213140D0E0F10F6
:10135000701300000000002054000000240700006B
:10136000C4130000540000204C2300003407000088
:10137000000000000000000000000000000000006D
:101380001301000000000000000000000000000049
:10139000000000000000000000000000000000004D
:1013A000000000000000000000000000E7E7E7E7A1
:1013B000C2C2C2C2E7C2C3C4C5C6C7C80805FF02CD
:0413C0000090D003C6
:0400000500000201F4
:00000001FF
