:020000040000FA
:10000000984A0020150300001D0300001F03000094
:10001000210300002303000025030000000000006E
:1000200000000000000000000000000027030000A6
:1000300029030000000000002B0300002D03000036
:100040002F0300002F030000592D00002F03000094
:100050002F0300002F0300002F0300002F030000D8
:100060002F0300002F0300002F0300002F030000C8
:100070002F030000F52A00002F0300002F030000CB
:100080002F0300002F0300002F0300002F030000A8
:100090002F0300002F0300002F0300002F03000098
:1000A0002F0300002F0300002F0300002F03000088
:1000B0002F0300002F0300000000000000000000DC
:1000C0002F0300002F0300002F0300002F03000068
:1000D0002F0300002F0300002F0300002F03000058
:1000E0002F0300002F0300000504000000000000A3
:1000F000000000002F030000000000002F0300009C
:1001000000000000000000000000000000000000EF
:1001100000000000000000000000000000000000DF
:1001200000000000000000000000000000000000CF
:1001300000000000000000000000000000000000BF
:1001400000000000000000000000000000000000AF
:10015000000000000000000000000000000000009F
:10016000000000000000000000000000000000008F
:10017000000000000000000000000000000000007F
:10018000000000000000000000000000000000006F
:10019000000000000000000000000000000000005F
:1001A000000000000000000000000000000000004F
:1001B000000000000000000000000000000000003F
:1001C000000000000000000000000000000000002F
:1001D000000000000000000000000000000000001F
:1001E000000000000000000000000000000000000F
:1001F00000000000000000000000000000000000FF
:10020000DFF80CD000F0ECF8004800479D38000003
:10021000984A002000B583B002900091019244F208
:10022000010071466A4602F061FE03B000BD0000A5
:1002300030B4044654E8000F0D4644E80053002B48
:10024000F8D1156030BC704730B4044654E8000F54
:1002500040EA010544E80053002BF7D1156030BC9B
:10026000704730B4044654E8000F00EA010544E842
:100270000053002BF7D1156030BC704730B40446F2
:1002800054E8000F80EA010544E80053002BF7D141
:10029000156030BC704730B4044654E8000F00EBE2
:1002A000010544E80053002BF7D1156030BC7047BE
:1002B00030B4044654E8000FA0EB010544E80053B5
:1002C000002BF7D1156030BC704770B404464FF076
:1002D000000054E8006F0D68AE4207BF44E80023F9
:1002E000012044E800630E60002B1CBF0020F0E7F3
:1002F00070BC704730B4044654E8000F88422CBFED
:10030000451A054644E80053002BF5D1156030BC72
:10031000704700000648804706480047FEE7FEE7B2
:10032000FEE7FEE7FEE7FEE7FEE7FEE7FEE7FEE7A5
:100330007D2B00000102000000487047945F000020
:1003400010B5441A0346944209D28418114403E0BC
:1003500011F8013D04F8013D521EF9D210BD40EAEA
:100360000104A40703D009E010C9121F10C3042A16
:10037000FAD203E011F8014B03F8014B521EF9D2F7
:1003800010BDD2B201E000F8012B491EFBD270472C
:100390000022F6E710B513460A4604461946FFF751
:1003A000F0FF204610BD421C10F8011B0029FBD1B4
:1003B000801A704730B504460020034600E05B1CFD
:1003C000934203D2E05CCD5C401BF8D030BD0346C5
:1003D00011F8012B00F8012B002AF9D118467047BB
:1003E000064C074D06E0E06840F0010394E8070082
:1003F00098471034AC42F6D3FFF706FF846A00003A
:10040000A46A00000B490C4B0C4A4FF0FF30086007
:100410001B68BFF35B8F52E8001F42E800300028E2
:10042000F9D1BFF35B8F9942F3D1BFF35F8F044AD9
:100430001360704704BA025000BA0250902A00209C
:1004400008BA0250F0B5BDB004460F466846F02128
:100450001D46164602F04EF9042C3DD8DFE804F0A4
:100460003732213C03000322009280224049179238
:10047000404A414B3993CDE93A1268469847B0F566
:10048000720F1DD036D93D4B984225D0013398428A
:100490002DD13B4C6846F02102F02CF920463DB0AE
:1004A000F0BD384B3849399301220092402217920F
:1004B000364A6846CDE93A129847B0F5720FE1D155
:1004C000334CE7E72F4B304939930222EDE72D4BB0
:1004D0002D4939930022E8E72E4CDBE7274B984261
:1004E000FAD001339842D4D0B0F5720FE8D04FF46F
:1004F0007504CFE70028FAD16EB147B3019B13BB57
:1005000032463946684602F0AFFAB0F5720FD7D0DE
:10051000B9D80028EBD14DB3189AB2B911460123CE
:10052000019368463A9B98470028D7D13B9B684681
:1005300098470028D2D1009B1890032BCCD8DFE835
:1005400003F01311080F144CA4E719A9E7E7134CA3
:10055000A0E71C22284602A902F0C8F8002499E767
:100560004022F7E72022F5E71422F3E70C4C91E74D
:10057000F52100000D110000391300000100F20008
:100580000202F000E51200002120000089100000A6
:100590000002F0000102F0000C02F0000302F00083
:1005A0000502F00000283AD000293CD070B5026E58
:1005B000B2B9164601230D4643603146D0F8E83003
:1005C0000446984778B9D4F8EC302046984750B99B
:1005D00023682066032B24D8DFE803F01D19111BC4
:1005E00000F16406E6E7124B98421AD001339842B4
:1005F0001BD0B0F5720F10D04FF4750070BD1C22E7
:10060000284604F1080102F071F8002070BD202294
:10061000F6E74022F4E71422F2E7064870BD0548E9
:100620007047054870BD05487047054870BD00BF5C
:100630000100F2000002F0000102F0000502F000EB
:100640000202F00070B138B50D46F021044602F008
:1006500051F8042D04D8DFE805F0203239030700F3
:10066000204838BD204870472049214A214BC4F812
:10067000E43080200325E0652560C4E93A12204675
:100680009847B0F5720F18D027D91B4B9842E7D086
:100690000133984223D1194838BD194B19491A4AD8
:1006A000C4F8E43000254020E0652560C4E93A1232
:1006B00020469847B0F5720FE6D10B4838BD104B75
:1006C0001049114AC4F8E4300225ECE70C4B0D49FF
:1006D0000D4AC4F8E4300125E5E70028C1D04FF405
:1006E000750038BD0102F0000002F000F5210000A5
:1006F0000D110000391300000100F2000202F000A9
:10070000E5120000212000008910000088B3F8B530
:10071000154652B30F4600293BD04368044633BB0D
:10072000D0E91723D01AB0FBF2F602FB1606AE4250
:1007300028BF2E467EBB9A4208D1D4F8E83004F197
:10074000640120469847B0B9E26D2066B5FBF2F629
:1007500002FB06F646B1D4F8E83032463946204668
:10076000984740B93744AD1B15BB0020F8BD184869
:10077000F8BD18487047184B984227D0013398426B
:1007800022D0144BB0F5720F0CBF18464FF4750011
:10079000F8BD1248F8BD04F164001844324601F077
:1007A000A5FFD4E9172333443744AD1B2366C2E7C2
:1007B000206E19302A46394604EB800001F096FF7E
:1007C000236E1D442566D0E70548F8BD0548F8BDF1
:1007D0000C02F0000002F0000100F2000302F00041
:1007E0000202F0000102F000C8B1254B02689A42F3
:1007F00013D169B3F0B5D0F8843091B000F1880618
:10080000022B04460D46304669468CBF80274027A0
:10081000FFF7C8FE28B111B0F0BD1A4870471A485A
:100820007047D4F884103046FFF70CFF0028F2D14F
:100830003A46211D3046FFF769FF0028EBD1D4F876
:100840008430042B1AD8DFE803F0110517151300C4
:100850000E4870471C2269463046FFF757FF0028B4
:10086000D9D129463046FFF79DFED4E71422F2E79E
:100870004022F0E73022EEE72022ECE70448CAE706
:10088000896745230203F0000003F0000503F00030
:100890000103F000002857D0002A57D0002B3ED08B
:1008A0002DE9F041B0B004294AD8DFE801F03A3A26
:1008B0003A03030080260D464FF4BC711F46904654
:1008C000044601F017FF802110A801F013FFB74282
:1008D0003A46414627D810A801F008FFB708201D66
:1008E00010A9002251F8043B013283F05C33BA4274
:1008F00040F8043BF6D3002110AA1368013183F0BD
:1009000036338F4242F8043BF7D804F18807384663
:100910002946FFF797FED8B130B0BDE8F0811948FD
:1009200070474026C7E76B462846FFF78BFD002837
:10093000F2D1042D04D8DFE805F01F1723211D0094
:10094000114830B0BDE8F08110487047104870473A
:10095000324610A93846FFF7D9FE0028DCD10D4BEE
:10096000C4F884502360D7E71C22694610A801F020
:10097000BDFEB3E74022F8E71422F6E73022F4E7A1
:100980002022F2E70703F0000103F0000003F0006B
:100990000603F0008967452380B170B40B4C0568ED
:1009A000A54204D161B12AB9104670BC704708480D
:1009B00070BC7047883070BCFFF7A8BE0548704710
:1009C000002A054870BC08BF00207047896745238E
:1009D0000203F0000003F0000303F0002DE9F047EC
:1009E0008EB0002800F0C680002900F0B6800446D2
:1009F0000D46E42101F07EFE07A9204601F03CFCF3
:100A000020B1614E30460EB0BDE8F0875F4F4FF029
:100A1000FF31386801F08EFE002840F0A7802A469A
:100A200007A9204601F0FEF80646386801F0A4FE4A
:100A3000002840F09780002EE3D1E421204601F009
:100A400059FE4FF0FF31386801F074FE002840F085
:100A5000968007A9204601F00FFC002874D1D4F835
:100A6000D030042B01D0082B6ED1D4F8C4200C2A2E
:100A70006AD803F1040A0EAB4FEA4A1243F8242D58
:100A800006A804AACDE90020029507A90022204665
:100A900000F04CFF00284ED1069B0498D4F8C420E7
:100AA00023F00303083304F18408184492004146FC
:100AB00001F01CFED4F8C420069B049903EB8206C7
:100AC0004FEA8A0ACDF800A03246434620460696F1
:100AD00001F094FE814670BB5146204601F00AFEAB
:100AE0004B4622464146204601F080FF064610BB99
:100AF000D4F8D430C4F8C40023F4803343F00103A5
:100B00000122C4F8D430224BC4F8CC204046C4F8AB
:100B1000DC30402101F0EEFD28464FF4BF5101F0DA
:100B2000E9FD386801F028FE00283FF46BAF194852
:100B300001F088FD66E72046E42101F0DBFD284650
:100B40004FF4BF5101F0D6FD386801F015FE10B129
:100B5000104801F077FD104E54E7104E30460EB0AD
:100B6000BDE8F0870B4801F06DFD64E70C4801F02B
:100B700069FD54E70B4E30460EB0BDE8F0870848DB
:100B800001F060FD65E700BF110CF0009C4A0020F9
:100B9000CDAB230100660000120CF000200CF00029
:100BA000E8650000250CF000F0B583B0002800F0E7
:100BB00037811D46036A072B0E4604460AD01746A6
:100BC000002D40F08780032B00F094800024204605
:100BD00003B0F0BD436B002B00F08780012B02D1E6
:100BE000B5F5803F7DD215B9236B002B79D14FF03D
:100BF000FF319C4801F09EFD002840F0CE819A4BC9
:100C000001221A60236A072B00F2178102FA03F30C
:100C100013F08F0F00F01181636A934200F21F817D
:100C2000636B934200F2E381A36B934200F2FD8178
:100C30008E4B8F491A600B68002BFCD18D4A1368CC
:100C4000002BFCD18C4A1368002BFCD18B4A136813
:100C5000002BFCD18A4B1F68002FFCD14FF0FF30D6
:100C600001F074FC236A23F00403032B14BF40201B
:100C7000802001F077FC834B1F60236A23F004027D
:100C8000032A18BF676A804A4FEA830318BF07F038
:100C9000010703F01C031F431760236A072B02D1CF
:100CA0007A4B01221A60A36A012B00F0A881C0F0E0
:100CB000A081022B00F09D81236A013B062B00F2EC
:100CC0003F81DFE813F03401560134013D013D015D
:100CD0003D013401436B002B40F0A780B5F5805FE8
:100CE00013D36B4C204603B0F0BDB5F5805FFFF425
:100CF0007AAFF6E7036B002B7FF468AFC0E90F55BE
:100D0000C0E9115500F13C0610254FF0FF31554860
:100D100001F010FD002840F09E80534B01221A6024
:100D2000236A072B6AD802FA03F313F08F0F65D0FA
:100D3000636A934262D8636B93425FD8A36B93421A
:100D40005CD84A4B4A491A600B68002BFCD1494ACF
:100D50001368002BFCD1484A1368002BFCD1474A8A
:100D60001368002BFCD1464A1368002BFCD14FF0CE
:100D7000FF30019301F0EAFB226A22F00402032A09
:100D800014BF4020802001F0EDFB3E4A019B136020
:100D9000226A22F00401032918BF636A3A494FEA24
:100DA000820218BF03F0010302F01C0213430B6020
:100DB000236A072B02D1354B01221A60A36A012B4B
:100DC00000F00B81C0F00381022B00F00081236A48
:100DD0005A1E062A76D8DFE802F06BA56B7575758A
:100DE0006B002C4A2C4B126822601A6862605A68A9
:100DF000A26008331B68E36001232363274B1C6850
:100E0000002CFCD1184B17481C6001F0B5FC0028E1
:100E10003FF4DCAE224801F015FC204603B0F0BDE3
:100E20004FF47104204603B0F0BD012B7FF46DAF89
:100E3000B5F5803FBFF455AF67E71A4C174A136802
:100E4000002BFCD1084A0748136001F095FC0028EC
:100E50003FF4BDAEDEE7144801F0F4FB5DE7134C50
:100E6000ECE700BFA84A002010B8025000B90250B9
:100E700070B4025020BD025020BC025038BD025058
:100E800038BC0250BCB40250C0B402507CB4025012
:100E90000500F10060B4025064B4025010B9025071
:100EA000206900000100F100086900000200F10063
:100EB0005F4B22681A6062685A60A2689A60E268B2
:100EC000DA60236A23F00403032B6AD0A36B012B9F
:100ED00000F0A580574A584B176020201D60636BB7
:100EE000012B6FD0554A564B16601D6001F042FB36
:100EF000544A1368002BFCD1236A013B062B3FF6B2
:100F00007BAF01A252F823F0290F0000E30D00008F
:100F1000290F0000F90D0000F90D0000F90D000087
:100F2000290F0000484BC4E7414A484B5BE7404B60
:100F300022681A6062685A60A2689A60E268DA60A1
:100F40004349444A01230B601560002D2ED1226BCA
:100F50000AB9414A13603B4A1368002BFCD1236A4B
:100F6000013B062B07D8DFE803F015081506060637
:100F70001500354BDCE7002460E7334A374B126835
:100F800022601A6862605A68A26008331B68E360D6
:100F9000002453E7264A2D4BF1E7314801F052FB7C
:100FA0002DE6636B012B0CD010209BE7636B012BAC
:100FB0002FD0224A224B166010201D6001F0DAFA71
:100FC000C9E74020274A284B16601D608EE7274955
:100FD000274A0B6001231360F9E6264B22691A6049
:100FE00062695A60A2699A60E269DA60EFE6224CAF
:100FF00024E71E491E4A0B60012313605CE61D4B6B
:1010000022691A6062695A60A2699A60E269DA60CC
:1010100052E6144A144B166040201D60CEE7174A72
:10102000174B176080201D6059E7164C06E700BF7C
:1010300040B4025030BD025034BD025030BC0250AA
:1010400034BC025010B9025060B4025044B4025093
:101050007CB40250BCB4025024B5025064B40250B7
:101060000869000028BC02502CBC025038BA02505B
:1010700078B4025000B402500300F10028BD0250C1
:101080002CBD02500400F10000283BD0F0B482B027
:10109000436A0193836893FA83FC019BD0E90712AA
:1010A000D0E90376D0E905541BBA4362436C01933F
:1010B00009BA836AC16112BA02623FBAD0E90F125B
:1010C00036BA2DBA24BAC0E902C7C0E90465C76AB6
:1010D0008461066B456B846B93FA83FC019B3FBA7A
:1010E00036BA2DBA24BA09BA12BA1BBAC0E90AC76D
:1010F000C0E90C65C0E90E41C0E91023002002B030
:10110000F0BC70474FF47200704700BF002800F039
:101110008A804C4B826D9A4201D04B4870472DE932
:10112000F041016E804600F14805E0B02846C90054
:10113000042200F08BF8D8F8543020A84FF48072C5
:1011400000211CBA01F0D4FAD8F85C20E308B3FB04
:10115000F2F402FB1434141B102C98BFA41820AB1B
:10116000A4F1100018442946102280258DF88050E3
:1011700001F0BCFA2A46684608F1640101F0B6FAAB
:10118000D8E917230DEB05010DEB0300D21A01F08E
:10119000ADFAD8E91753ED1AADB26946404600F0F2
:1011A000E5F8A54242D3D8E90641D8E90823D8E9B1
:1011B0000207D8E9046500BA3FBA24BA09BA12BADC
:1011C000C8E9027036BAD8F83400C8F81C402DBA05
:1011D000D8F83040C8F818101BBAC8F82420D8E94D
:1011E0000F12D8F83870C8F81460C8F81050D8F842
:1011F0002860D8F82C50C8F82030D8F8443024BAE9
:1012000000BA36BA2DBA3FBA09BA12BA1BBAC8E93F
:101210000C040020C8E90A56C8E90E17C8E91032C4
:1012200060B0BDE8F0814FF47200704720AB5919EF
:101230006846D8F85C2001F059FA6946404600F04B
:1012400095F8B0E7785634120200F200F0B40AB311
:10125000031F1C4603EB820654F8045F2DBAA64216
:101260002560F9D102F18044013CA60050F82440E9
:10127000871909194FF0000528BF01253960ADB95C
:10128000311D194453F8042F12BA8B421A60F9D158
:10129000F0BC704750F8043C5918144628BF01248C
:1012A00040F8041C6FF00306002CF1D0911E50F89A
:1012B00021305C1C9C4240F821400FD881B102F1E2
:1012C0008043023B00EB830300E039B153F8044D47
:1012D000651CA54201F1FF311D60F6D9002AD7D067
:1012E000031FCDE7E8B110B50468012C12D0022C21
:1012F00002D044B10C4810BD083020220B4901F047
:10130000F5F9002010BD08301422094901F0EEF96A
:10131000204610BD08302022064901F0E7F90020E0
:1013200010BD4FF4720070470100F20044660000E7
:10133000306600006466000078B10368032B01D0BA
:101340000748704710B5402204460649083001F0AE
:10135000CDF9054BA365002010BD4FF47200704716
:101360000100F200A8650000785634122DE9F04F14
:1013700000F10803ADF55D7D1D460C4640220021BD
:101380002CA82393FFF706F829462CA8402201F049
:10139000ADF9DDE93256CDE91E56DDE93467CDE918
:1013A0001867DDE93678DDE91E56DDE92C23CDE945
:1013B0001A78CDE90056DDE93889DDE918679346EA
:1013C000DDE92E12CDE91C893D46DDE93A9ADDE9D9
:1013D0001A78CDE91412DDE93001CDE9209ACDE982
:1013E0000478DDE91C89CDE916019C46201DDDE964
:1013F0001412DDE91634CDE90C89DDE9209ACDE936
:101400000634CDE90812DFF8D881CDF83C803CA93C
:101410005CABCDE924BCCDE902BC3446CDE90A9AE7
:10142000129386468C4611E0DDE90423CDE90C23B6
:10143000DDE90823CDE90445CDE90623DDE90234E1
:10144000CDE902ABCDE908340D4604464FEA844AA3
:101450004FEA854BA803A603DDE90C234BEA943B36
:101460004AEA953746EA954640EA9440E1054FEA54
:10147000C55887EA060A8BEA000048EA5428049F08
:10148000059E41EA552141408AEA0800CDE928102D
:1014900057405E4027402E4057405E40DDE928AB74
:1014A000CDE928765EE90110DDE90289DDE92867EA
:1014B00000BACCF8000048463B4609BA070140464E
:1014C000CCF80410810741EA990147EA18774F40A8
:1014D000414632460E01494646EA19708E0746EAF1
:1014E000980180EA0106114611EB0A0143EB0B0259
:1014F0000F9B8A46F3E902010F93039B4FEA48686A
:1015000048EAD31887EA0807DDE902894B4628979D
:101510005F0647EAD817DDE906899346089A029BD9
:101520007E4048EA0207099A299610EB0A0849EA20
:10153000020641EB0B09DDE90601089A1F40039BF7
:10154000CDE9108900EA0208099A47EA08071E4017
:101550000B46269703EA02073E43FCE802AB2796B8
:10156000DDE9108918EB0A0849EB0B09DDE90AAB44
:10157000DDE92667DDE9281218EB0A0849EB0B09BB
:1015800089190E46DDE900017A41174618EB000281
:1015900049EB010310461946DDE90623CDE9002396
:1015A000DDE90C23CDE90A23129B18EB060A49EB6F
:1015B000070B63450EF1080ECDE926677FF434AFC3
:1015C000064B0F93BAABCDE90A450DF1E80C229317
:1015D000CDE9000104460D4618E000BF0067000099
:1015E00080660000DDE90A45CDE90445DDE90245F4
:1015F000CDE90845DDE90045CDE90001CDE90A4521
:10160000CDE902AB044692469B460D46DCE91EE05E
:101610004FEACE08460348EA507846EADE464FEAEB
:101620004E3186EA08064FEAC00848EA5E7841EA89
:10163000D041820642EA9E1281EA0801564081EAC0
:101640009011CDE92A61AA04A90341EA944142EA32
:1016500094324A400099DDE92A898E04019946EACC
:101660009136009944464D46DCE914894FEA813EA3
:10167000019914EB08004EEA914186EA010E45EB10
:101680000901DDE900894446DCE90473E60546EA20
:1016900059264C467240E60546EA58262892DA0753
:1016A0008EEA060642EA570E1A06299642EA1722E1
:1016B000FE078EEA020246EA530E3E0646EA13266B
:1016C0008EEA0606DDE90A4586EAD3165B0643EA9A
:1016D000D717059B109283EA0508019B049A2B9665
:1016E00008EA0308059B964688EA0308009A109BBF
:1016F0008EEA0409CCE922015F4009EA0209FCE90B
:10170000022389EA0E0914182A974FEA0B1E4FEAA2
:101710008A7643EB010546EA9B06DDE92A234EEA79
:101720001A7E8EEA060E4FEA4A614FEA0A1646EA28
:101730001B77CDE9104541EADB11DDE908454FEAA9
:101740008B76CDE912238EEA010E029A46EA9A06BA
:101750004FEA4B617E4041EADA114E4044EA02070B
:10176000DDE91223DDE910018018594102460B46DC
:10177000DDE92801CDE92898CCE92023DDE92823FB
:10178000A0461418A94643EB01050F9BF3E902019B
:1017900022180F9345EB0103DDE902454146214044
:1017A000CDE928E607EA0A07039E0F434946294088
:1017B00049EA0606DCE9204506EA0B060E43A418B2
:1017C000CDE926765D4122462B46DDE90C45DDE973
:1017D0002667DDE92801A4185D41224634182B460E
:1017E00047EB0105DDE90601161843EB010730461A
:1017F0003946DDE90467CDE90C67229E12196B4179
:101800006645CDE92645CDE906897FF4EBAEDDE9F5
:101810002456AD185E41DDE9143413EB0A0344EBA2
:101820000B04CDE906569A46DDE90267A346DDE9D9
:1018300016349B197C41DDE91E6716EB080647EB61
:101840000907CDE90267DDE918783F1848EB010880
:10185000CDE90878DDE91A12DDE9008911EB08010C
:1018600042EB0902CDE93612DDE90A89DDE91C12F5
:1018700011EB080142EB0902DDE90656DDE920899A
:10188000CDE93812DDE90412CDE92C56CDE930342A
:10189000DDE90267DDE9083418EB010849EB0209CC
:1018A0003CA84FF420720021CDE93434CDE92EABB1
:1018B000CDE93267CDE93A8900F01AFF2CA92398C7
:1018C000402200F013FF0DF55D7DBDE8F08F00BFF5
:1018D0000B6802E0082B0B6006D8426813424FEAFF
:1018E0004303F7D00020704700487047310CF100E7
:1018F0000138072815D8DFE800F0100C140814147C
:1019000014048B698B60002070474B698B6000204A
:1019100070470B698B6000207047CB688B6000209C
:1019200070470148704700BF310CF1002DE9F04FBE
:1019300093B080460C46164606A830220021DDE909
:101940001C59FEF727FD1E9B03F5C16200232A6088
:10195000C9F80030D8F8D43013F4407F13D02B6886
:101960001B68C9F80030002B00F0AE80D8F8D40016
:1019700010F4007040F08880039000F0DBF90398C9
:1019800013B0BDE8F08F002E00F088809349944A90
:101990000868A1681268914240F09A80002840F0DF
:1019A000978098F8DB3004938E4E8F4DDFF848B265
:1019B0004FF0040A0023059301270CE09A0700F179
:1019C0008980DB0600F19A80A36803EB43031B04C4
:1019D0009B0933602F6005A800F0C8F9059BD90763
:1019E000ECD54FF0FF33CBF80030804B1B680693EB
:1019F0007F4B1A6807925A68089208337D4A1B6821
:101A00000993A36811680A9103EB430351680B9192
:101A1000203A1B049B0912683360012700232F60C2
:101A200005930AE0990755D4DA0667D4A36803EB57
:101A300043031B049B0933602F6005A800F096F94F
:101A4000059BD807EED56C4A684B4FF0FF3111600B
:101A50001A680C925A680D929A680E92DA680F9280
:101A60001A6910925A691192103B1B681E9B06A9B5
:101A700003F5C260302200F039FE3023C9F800308F
:101A8000D8F8D430002019E02B685C485A685C4BC9
:101A9000002A08BF184613B0BDE8F08F23F00F03EB
:101AA000C8F8D4300122009604AB2146404600F02D
:101AB000BBF800283FF478AFD8F8D4309B057FF509
:101AC0005BAF13B0BDE8F08F4D4813B0BDE8F08FA9
:101AD0004C48F3E74FF0FF33CBF80030049B082B62
:101AE00072D05B000493E4B183B9D8F8D430616854
:101AF0004548464A002918BF1046DFE710224FF03C
:101B0000FF33CBF80020CBF80030E7E704A92046EC
:101B1000FFF7DEFE48B13C4AD8F8D4309042CDD130
:101B2000E5E7D8F8D4303A48C8E721460498FFF7EB
:101B3000DFFE0028EFD1049B082B49D0042B4AD0AC
:101B4000A3F1020EBEFA8EFE4FEA5E1E3148324FFE
:101B5000234A0123036019463B6084461F46CCF8A4
:101B60000070A36813601368A0688342F7D1002354
:101B70001A4A2A4F2A482B604FF0FF3CCBF800C08E
:101B80006FF0130CC7F800C0C0F800E01360A36842
:101B900003EB43031B049B0933602960049AD8F8C4
:101BA000D810130243EA026321F07F421A43130A5A
:101BB00003F47F03134323F07F43BAF1010AC8F80B
:101BC000D8307FF4F7AE51E7D8F8D4300F4875E736
:101BD0004FF0030EBAE74FF0020EB7E738B10250EC
:101BE00030B10250D8B102502CB1025014B10250A1
:101BF00018B1025024B1025008B10250340CF00068
:101C0000330CF000300CF100310CF100320CF1001B
:101C1000350CF100C4B1025040B1025000B1025085
:101C20000CB1025000207047002867D0002965D011
:101C3000002B63D02DE9F04722B1012400221C6063
:101C4000C0F8D8201A68002A55D00D460646194615
:101C500028461C46FFF73CFE00284DD12946206847
:101C6000FFF746FE002847D12368082B48D0042BF5
:101C700049D0A3F10208B8FA88F84FEA5818234F60
:101C80002349244B01223A6094460A609646C7F8DD
:101C900000E0A96819601968AA689142F7D11E4A44
:101CA000DFF888901D49DFF888E01D4F00234FF0D2
:101CB000FF3A1360C9F800A06FF01309CEF8009046
:101CC000C7F800800B60AB6803EB43031B049B0960
:101CD000C1F8A030C2F800C0D6F8D830226823F08E
:101CE0007F4343EA0263C6F8D830226843EA0223FE
:101CF000C6F8D83000E00B48BDE8F0870A487047C6
:101D00004FF00308BBE74FF00208B8E7C4B1025038
:101D100040B1025030B102502CB1025038B10250E3
:101D20000CB10250310CF100350CF10008B1025039
:101D300000B10250084B094A002119601368002BBA
:101D4000FCD107480749084A03604FF480604FF010
:101D5000FF330860136070472CB1025010B9025075
:101D6000C4B1025008BA025008B1025038B5044656
:101D70004FF4806000F0FEFB054D06480649074A17
:101D800000232B6003600B682360136038BD00BF25
:101D9000C8B102502CB1025004B1025008B1025037
:101DA000002800F0A080F0B5446B83B0002C72D006
:101DB000012C02D1B3F5803F70D204460E467A481A
:101DC0004FF0FF311D46174600F0B4FC002840F0EC
:101DD0008680764B01221A60236A072B6ED802FA9E
:101DE00003F313F08F0F69D0636A934266D8636B75
:101DF000934263D8A36B934260D86D4B6D491A60D0
:101E00000B68002BFCD16C4A1368002BFCD16B4A89
:101E10001368002BFCD16A4A1368002BFCD1694A75
:101E20001368002BFCD14FF0FF30019300F08EFBC4
:101E3000226A22F00402032A14BF4020802000F00E
:101E400091FB614A019B1360226A22F0040103297D
:101E500018BF636A5D494FEA820218BF03F00103AD
:101E600002F01C0213430B60236A072B02D1584B6C
:101E700001221A60A36A012B00F086807ED3022B18
:101E80007CD0236A5A1E062A3AD8DFE802F02F6770
:101E90002F3939392F00B3F5805F8ED34D4803B009
:101EA000F0BD4D4A4D4B126822601A6862605A6854
:101EB000A26008331B68E36001232363484B1C685E
:101EC000002CFCD1394B38481C6000F055FC002830
:101ED000E5D0444800F0B6FB204603B0F0BD4248D0
:101EE00000F0B0FB75E74FF4710070473F4B22687C
:101EF0001A6062685A60A2689A60E268DA60236ACF
:101F000023F00403032B2ED0A36B012B46D0384AB9
:101F1000384B176020201D60636B012B29D0364A97
:101F2000364B16601D6000F025FB2D4A1368002B10
:101F3000FCD1236A013B062BBED801A252F823F044
:101F4000611F0000A31E0000611F0000B91E0000F9
:101F5000B91E0000B91E0000611F00001E4BC6E73D
:101F6000224A274B9FE7636B012B01D01020D6E755
:101F70004020244A244B16601D60D4E72349244A9C
:101F80000B60012313607CE7224B22691A606269AF
:101F90005A60A2699A60E269DA6072E71E4A1F4BD2
:101FA000176080201D60B7E7A84A002010B80250D3
:101FB00000B9025070B4025020BD025020BC025043
:101FC00038BD025038BC0250BCB40250C0B40250FC
:101FD0007CB402500500F10060B4025064B40250B9
:101FE00010B90250206900000869000040B4025096
:101FF00030BD025034BD025030BC025034BC0250DF
:1020000044B4025028BC02502CBC025038BA0250D2
:1020100078B4025000B4025028BD02502CBD0250CA
:10202000002800F0B980F8B50368002B00F0AE80FE
:10203000C0F29D80022B00F39A80022704460E46D0
:1020400057484FF0FF31154600F074FB002840F070
:102050009F80544A1368002BFCD1534A1368002B0D
:10206000FCD152480368002BFCD14FF0FF3000F048
:102070006DFA802000F076FA4D484E4A4E49012311
:102080000360072010600B60A2F59A72A36C1360C6
:102090004A4BE16C51601F602368002B0BD019DBA9
:1020A000022B17DC464B626A1A60226A43F8042C42
:1020B000E26943F8082C434BA2691A60626943F84D
:1020C000042C226943F8082CE26843F80C2CA2681F
:1020D00043F8102C344A1368002BFCD1002D48D152
:1020E000394B04221A60304A1368002BFCD12F4A66
:1020F0001368002BFCD12368002B0BD019DB022BBB
:1021000017DC2F4A314B126862621A682262043B64
:102110001B68E3612B4A2E4B1268A2611A68626148
:1021200053F8042C226153F8082CE2600C3B1B6826
:10213000A360284A284B1268A2641A681E4D2748DB
:102140002149E264002201242C6003F5A07302609F
:102150000A601C68002CFCD1154B11481C6000F073
:102160000BFB18B11E4800F06DFA2046F8BD1D4863
:10217000F8BD6368012B04BF184A13601A4A1B4B51
:10218000166040201D6000F0F5F9ACE7012755E727
:10219000174800F057FA5CE74FF47200704700BF31
:1021A000A84A00201CB9025010B9025020BC0250AD
:1021B00018B8025000B90250C4B70250C0B702505C
:1021C0005CB6025050B60250C8B7025058B6025022
:1021D0004CB60250CCB70250D0B7025084B6025071
:1021E000506900000100F20028BC02502CBC0250D3
:1021F00038690000002837D0F0B51D4B846D9C4233
:10220000A1B002D01B4821B0F0BD0C46C16DB2FB9D
:10221000F1F6C900054606FB01F104224830FFF73C
:1022200015F814F0030712D076B1EA6D00272146A5
:10223000684600F05BFA69462846FFF797F80137D1
:10224000EA6DBE421444F2D1002021B0F0BD002E50
:10225000FAD021462846FFF789F80137EB6DBE42D8
:102260001C44F6D10020F0E74FF47200704700BF25
:10227000785634120200F20030B5042385B00122F2
:10228000C0F8D03000230A6068460C46CDE9003320
:10229000CDE9023300F0A6FA0546C8B9DDE9003001
:1022A000DDE90212E360003318BF0123C4E9040131
:1022B000A26108B143F0020309B143F004030AB17B
:1022C00043F00803002228466360A26005B030BDD9
:1022D000014800F0B7F9E1E76869000020B331B3C5
:1022E000C2B138B512F00F041CD1056A25F00405FF
:1022F000032D01D0FBB11C4613462246FFF750FDCB
:10230000124B98421FD007D8B0F5710F18D010D8D3
:1023100098B938BD0E4870470E4B984209D9013321
:1023200098420AD10A4838BD4FF4700070470A48F5
:1023300070470A4838BD0A4838BD4FF4750038BDAB
:102340004FF4700038BD074838BD00BF0200F100EF
:102350000A00F0000400F1000800F0000200F000A4
:102360000900F0000600F00000284AD0AAB1994206
:1023700011D870B5059B002B38D0036A23F00404F4
:10238000032C049C0DD0002C32D0059C24688C4278
:102390000CD2274870BD274870470029E9D026484D
:1023A00070473CB3059C24680F2CF2D90C0703D06E
:1023B000012B21D9032B1FD00E4633461146049A18
:1023C0000446FEF7F1FB054638B9236A23F00403FF
:1023D000032B20D0059B1E6070BDA0F57100052861
:1023E00023D8DFE800F013111611110C134870BD4B
:1023F0000029E1D0124870BDC36A002BDCD111481E
:1024000070BD4FF4700070470F4870BD4FF47000FE
:1024100070BD0E4870BD04982146102200F066F988
:10242000059A10231360284670BD4FF4750070BDE7
:102430000D00F0000C00F0000800F0001100F000AA
:102440000900F0000A00F0000200F0000600F000B1
:1024500060B1032A01D9052A06D1012902D843B166
:102460001648704716487047164870474FF470007A
:102470007047022A70B5044615460E4612D0052A4A
:1024800010D04C2100F036F9052D88BF4FF0FF32F7
:102490000DD900200123C4E90826C4E90B00C4E9D2
:1024A0000D3370BD3EB94C21204600F023F9064B98
:1024B00053F82520EDE7054870BD00BF0E00F00081
:1024C0000600F0000200F000186600001200F000A4
:1024D00070B108B5036A013B022B05D831B1102257
:1024E00000F004F9002008BD034808BD034808BDFA
:1024F0004FF47000704700BF0200F0000100F000D0
:10250000D0B1AAB191B9082B12D15368102B11D1B7
:1025100013686BB110B51346012282620C4610306D
:10252000D3E9001200F0E2F8204610BD04487047DD
:1025300004487047044870474FF47000704700BF6C
:102540000500F0000400F0000300F000014B1860EB
:10255000704700BF08BA0250014B00201860704756
:10256000902A0020014B1860704700BF04BA025047
:102570000020704710B5044682B0C0B11249134A1A
:10258000C3430B6013680193019B18420AD1104AA0
:1025900020BFBFF35B8F1368BFF35B8F0193019B79
:1025A0002342F5D00B4B1C60019802B010BD0A48C5
:1025B00000F048F8044A054B4FF0FF3111601B68EA
:1025C0000193019BE3E700BF04BA025000BA025036
:1025D000902A002008BA02509869000008B5FFF759
:1025E000C7FFBDE8084000F0D9B800BF10B500F043
:1025F0003FF898B9FFF7B0FF98B90E4B1B681B0E58
:10260000F02B10D10C4A0D4B12689A420DD00624C3
:10261000FFF7AEFF00F0C2F8204610BD04242046AC
:1026200010BD0324F6E70524F2E7054B04461860C5
:10263000F5E700BF28B9025024BA02500000E0209C
:102640000CBA0250BFF34F8F0549064BCA6802F41B
:10265000E0621343CB60BFF34F8F00BFFDE700BFC5
:1026600000ED00E00400FA0500207047704700BF4D
:1026700008B500214FF40040FFF7F6FF08B1012034
:1026800008BD124800F03AF878B9114800F036F861
:1026900098B9104B0E4A10481A6000F02FF880B914
:1026A0000E4B0D4A1A60002008BD0D48FFF7CAFF07
:1026B000074800F023F80028EBD00A48FFF7C2FFD4
:1026C000E7E70948FFF7BEFFEAE700BFA84A002096
:1026D000A04A00209C4A0020A44A0020984A0020DA
:1026E000C8690000E4690000006A0000FDF728BE28
:1026F000FDF750BE0A460021FDF74CBE10B504465A
:1027000010B10020206010BD0248FFF79BFF0020A1
:10271000206010BD206A000010B5044610B10020F2
:10272000206010BD0248FFF78DFF0020206010BD23
:10273000206A000010B50446B8B1BFF35B8F236870
:10274000BFF35B8F012BF8D00122BFF35B8F54E8FE
:10275000003F44E800210029F9D1BFF35B8F012B32
:10276000F3D1BFF35F8F002010BD0248FFF76AFF6F
:10277000E3E700BF446A000010B5044620B1BFF390
:102780005F8F0020206010BD0348FFF75BFFBFF3A1
:102790005F8F0020206010BD646A000070B50E4E8F
:1027A0000E4D0F4CFFF762FF3046FFF7B5FF304686
:1027B0000421FFF79FFF2846FFF7AEFF28460421BC
:1027C000FFF798FF2046FFF7A7FF20460421BDE84A
:1027D0007040FFF78FBF00BFA84A0020A04A00202A
:1027E000A44A002003464FF4FA714FF47A72002095
:1027F0009960C3E90022D860704700BF2DE9F04F0F
:10280000764C8046894694469E460FCCB7B007AFBB
:102810003D460FC594E80F0004F1100685E80F004F
:102820000FCE0FAD0FC596E80F00303485E80F00CE
:102830000FCC17AD0FC50FCC0FC594E80F00D8F81B
:10284000D040042C85E80F0001D0082C08D1251DAC
:10285000409BAD009D4207D0614837B0BDE8F08F86
:10286000604837B0BDE8F08F09EB0C019CFA8CF39F
:102870000CF118080CF10900C9F800302EBA8023B9
:1028800028F00F08A8EB0002C9F8046048440B7256
:102890000021CDF80CE0FFF72BFF409B1B09A5F1B1
:1028A000100508BF23AC6DD0042CDDF80CA04FF050
:1028B000000623ACAB461FD153E02046CDE9057B93
:1028C000FFF71EFE294630BB2046FFF701FE36AD5E
:1028D0004FF0100C43464A464146E0B945F8C8CD92
:1028E0002046CDE900A5FFF73FFD0AF1100A90B997
:1028F000409BB6EB131F44D2002319460222204608
:10290000FFF7A6FD014617A800EB0615082305AA48
:1029100001360029D1D0344837B0BDE8F08F2046C9
:10292000CDE9057BFFF7ECFD29460028F3D12046D1
:10293000FFF7CEFD36AD4FF0100C43464A464146F8
:102940000028E8D145F8C8CD2046CDE900A5FFF71D
:102950000BFD0AF1100A0028DDD1409BB6EB131FD6
:102960000FD20023194602222046FFF771FD0146CF
:102970000FA800EB0615082305AA01360029CED0C2
:10298000C9E75D460023039E194601222046CDE992
:102990000565FFF75DFD0028BDD10146082305AAA6
:1029A0002046FFF7ADFD0028B5D171192046FFF78D
:1029B0008FFD0028AFD10146409A3046FFF798FEC0
:1029C000409B009640A90191324620461946FFF7E8
:1029D000CBFC00283FF441AF9DE700BF3865000005
:1029E000230CF000210CF000360CF000F0B51F466F
:1029F00099B000230E461546D0F8D040194605A8D8
:102A00000322FFF725FD48BBA4000146082303AAC3
:102A100005A8CDE90354FFF773FDF8B9291905A8F6
:102A2000FFF756FDD0B937B92B461022314605A81D
:102A3000FFF754FC90B918A904F1100341F8583D70
:102A4000324601910095194605A8FFF78DFC054B0C
:102A5000002814BF1846002019B0F0BD014819B075
:102A6000F0BD00BF360CF000F8B51646D0E91723CC
:102A70000546D01AB0FBF2F402FB1404B44228BF9E
:102A800034460F46DCB9934208D1D5F8E83005F159
:102A900064012846984788B9EA6D2866B6FBF2F4C7
:102AA00002FB04F444B1D5F8E83022463946284602
:102AB000984718B92744361B76B93046F8BD05F15A
:102AC000640018442246FFF711FED5E9172323447A
:102AD0002744361B2B66D6E7286E193005EB80009D
:102AE00032463946FFF702FE2B6E1E442E6600204A
:102AF000F8BD00BF064882B0002101600068009068
:102B0000044800680449C0B2496802B008470000A0
:102B100000D1004008D500405800002000F04AB91C
:102B200070B50E46144900EB400001EBC005144699
:102B3000E86A183520B101280FD0022805D113E02A
:102B4000284600F06BF9A04201D2002411E0224691
:102B50003146284600F09AF90BE0284600F05EF96D
:102B6000A042F4D20446F2E73146284600F061F96B
:102B70000446204670BD00000822002030B54FF00A
:102B8000805000228300D0F83011C3F80C21C3F824
:102B90001021624B1A60624B1B68624C2360604BD1
:102BA0001B1D1B68241D23605D4B08331B68241DFF
:102BB00023605B4B0C331B68241D2360584B103380
:102BC0001B68241D2360564B14331B68241D23608F
:102BD000534B18331B68534C20342360504B1C3329
:102BE0001B68241D23604E4B20331B68241D23606B
:102BF0004B4B24331B68241D2360494B28331B682F
:102C0000241D2360464B2C331B68241D2360444B3A
:102C100030331B68434C40342360414B34331B68D2
:102C2000241D23603E4B38331B68241D23603C4B1E
:102C30003C331B68241D2360394B40331B68241D23
:102C400023600123082902D1D0F8344114B10829A6
:102C500004D006E0354C3449216005E0D0F8344119
:102C600014B1082904D006E0314CFB21216005E0B5
:102C7000D0F8344114B1082908D00EE090F8584239
:102C80002C48016864F30301016002E0D0F834418C
:102C90001CB929494FF40070086028480168C90729
:102CA00002D06FF0010101602548016841F4700114
:102CB0000160BFF34F8FBFF36F8F4FF01021D1F83A
:102CC0000002002803DBD1F80402002822DA1D4CA0
:102CD00023601D480368002BFCD01223C1F800328A
:102CE0000568002DFCD0C1F8043201680029FCD031
:102CF000226001680029FCD0BFF34F8F10487C3858
:102D00000168124A01F4E06111430160BFF34F8F83
:102D100000BFFDE70F490E48086030BD3805004090
:102D20000404001020C50040488103008C56004078
:102D300018F50040E40E00404096024000040040B8
:102D400088ED00E004E5014000E401400400FA05DC
:102D50000090D003E000002010B5054C206818B9A1
:102D600004A12B2000F022FA2068BDE810400047A3
:102D7000500000202E2E5C2E2E5C2E2E5C2E2E5C03
:102D80002E2E5C2E2E5C2E2E5C6D6F64756C657322
:102D90005C6E7266785C647269766572735C73727D
:102DA000635C7072735C6E7266785F7072732E63B0
:102DB0000000000010B5124C02202061606111A0DB
:102DC000A06104F17800E0614FF40060206200200F
:102DD000A06260620BA1A164E06204F67801E16484
:102DE0001021A065C4E91410E06509A1E01DFDF7FC
:102DF000EEFA08A12046FDF7EAFA2020A07110BDE6
:102E0000082200205465726D696E616C000000003C
:102E10005254540053454747455200000269C16867
:102E20008A4203D88068401A104400E0501A401EBD
:102E300070472DE9F047C4681746894606464FF0AB
:102E400000083069A04201D9051B02E0B168201AD0
:102E50000D1AB0686D1E001BA84200D80546BD4281
:102E600000D33D4670682A4620444946FDF768FA7B
:102E7000B0687F1B2C44A844A944A04200D1002480
:102E8000F460002FDDD14046BDE8F0872DE9F04128
:102E900004468846D4E90207C51BE1686068164607
:102EA0000844B54206D94146FDF74AFAB819E06030
:102EB000BDE8F0812A464146FDF742FA761B08EB51
:102EC000050132466068FDF73BFAE660F0E702E094
:102ED00008C8121F08C1002AFAD1704770470020A5
:102EE00001E001C1121F002AFBD17047FEB5144654
:102EF0000E46074672B601F043FE00BF01F024FC07
:102F00000028FBD11D4A1E496FF480403B18A2EBFC
:102F100001014FF001004FEAD10100EB01451AD049
:102F2000012B11D02846324616A101F07DFD1B4829
:102F30000068C00700D000BE224603B031463846C4
:102F4000BDE8F04000F058B82388284614A1626814
:102F500001F071FDEBE7A06801F076FF0346D4E9CC
:102F60000001CDE900100296284614A1A26801F0E4
:102F70006AFD28461BA101F053FDD8E7FC6A00005A
:102F8000CC6A0000554E4B4E4F574E204641554C93
:102F9000542061742030782530385800F0ED00E07E
:102FA000415353455254494F4E204641494C4544A4
:102FB0002061742025733A25750000004552524F58
:102FC00052202575205B25735D2061742025733A9E
:102FD00025750D0A50432061743A20307825303829
:102FE00078000000456E64206F66206572726F7213
:102FF000207265706F72740008B501238DF800307F
:103000009DF80030144B186059609A606FF480414D
:10301000401807D001280FD1DA60D868008898617D
:10302000D86807E01A6118698068586118690068F3
:10303000986118694068D861186858689868D868B5
:10304000186958699869D86972B600BF9DF8000080
:103050000028FBD162B608BDEC1B002010B502F0C1
:10306000C9FA012803D004491D2000F09FF8BDE8EB
:10307000104000F013B80000985F000010B502F097
:10308000B9FA012803D004492B2000F08FF8BDE8DD
:10309000104000F00BB80000985F000072B60248C4
:1030A0000168491C016070476000002003490868FE
:1030B000401E086000D162B670470000600000202A
:1030C00070B5054608680C46411C04D001F020FA92
:1030D000206801F0A5F96068411C02D0002101F0D0
:1030E0008DF92968A069C1F82405607D227D2968D1
:1030F0001043C1F86C05D4E900122868C0F8142503
:10310000C0F80C15207D012814D1A068411C02D004
:10311000002101F073F9E068411C04D001F0F8F9D6
:10312000E06801F07DF9D4E902122868C0F80825AA
:10313000C0F8101570BD70B5054608680C46411CF6
:1031400004D001F0EFF9206801F074F96068411CC7
:1031500002D0002101F05BF92968A069C1F82405BB
:10316000607D217D2A680843C2F86C05D4E900120D
:103170002868C0F80C15C0F81425207D012814D14A
:10318000A068411C02D0002101F041F9E068411C17
:1031900004D001F0C7F9E06801F04CF9D4E902125B
:1031A0002868C0F80825C0F8101570BD1CB56A461F
:1031B000ADF800000191002144F20200FFF796FEF5
:1031C0001CBD00002DE9F0470546861C90460F46C1
:1031D0004FF001090020FFF741FF1B4C20683860C9
:1031E000D4E90001401AA16804F21C47081A0EE055
:1031F0000121384600F090FC00F0FAFA014638460A
:1032000000F08AFCD4E90001401AA168081A401CA9
:103210008642EDD8B8F1000F03D0052065F3891080
:1032200002E0062065F39F50A2682168114004EB7C
:103230008101C8602068304420600020FFF71EFF35
:103240004846BDE8F0870000E41D002070B50D463B
:1032500004460A2902D10D21FFF7F8FFA068226871
:10326000411CA1601554D4E90101814204D32046D8
:10327000BDE8704000F026BF70BD0000034803C8E1
:10328000814201D10120704700207047E41D0020D9
:1032900006490868401E086006D1054908600549CE
:1032A0004FF48060C1F880017047000038000020B2
:1032B00000A5025004E000E006490868401C0860D0
:1032C000012805D10449086004498002C1F80001C1
:1032D000704700003800002000A5025004E000E024
:1032E00070B50446002015460E46106000F0C8F880
:1032F000B0B1FFF7E1FF314604F10800FDF774FAC1
:103300000646FFF7C5FF00F0D7F8304602F08CF90B
:103310000146002E03D16068C0682860084670BD71
:1033200048F2045070BD00002DE9F04104464068A9
:1033300015460E46007D78B101280FD0184819496E
:10334000401AC008012101EB004017A101F068FB01
:1033500048F20350BDE8F081022700E00427084648
:1033600001F098FDA8B100F08BF8A8B1FFF7A4FF19
:10337000ABB23246394604F10800FDF78BFA044639
:10338000FFF786FF00F098F82046BDE8F04102F014
:103390004BB948F21250DDE748F20450DAE700007A
:1033A000FC6A0000CC6A00004861736820616C67A9
:1033B0006F726974686D206E6F7420737570706FB2
:1033C0007274656420627920434333313020626136
:1033D000636B656E642077726170706572000000C7
:1033E0002DE9F0470D4606461446284601F052FDE9
:1033F00070B100F045F878B1FFF75EFF4FF4803808
:103400004FF6FF7906F1080A444508D34E4607E017
:1034100048F21250BDE8F08748F20450FAE7264619
:10342000324629465046FDF7B7FA0700A4EB0604DA
:10343000354401D1002CE7D1FFF72AFF00F03CF81A
:103440003846BDE8F04702F0EFB8000070B50A4812
:1034500000240460BFF35F8F084D01202860FFF750
:10346000C5F82C6001004FF0030004D1BDE87040A6
:10347000084600F02BBD70BD3400002000A50250AE
:1034800010B50548012100F052FBBFF35F8F08B172
:10349000002010BD012010BD3400002010B50548EB
:1034A000012100F044FBBFF35F8F08B1002010BD85
:1034B000012010BD3400002010B5064C2068012802
:1034C00003D005A16D20FFF771FEBFF35F8F0020D1
:1034D000206010BD340000202E2E5C2E2E5C2E2E7F
:1034E0005C2E2E5C2E2E5C2E2E5C2E2E5C636F6D61
:1034F000706F6E656E74735C6C696272617269651F
:10350000735C6D757465785C6E72665F6D74782E31
:103510006800000010B5064C2068012803D005A102
:103520006D20FFF743FEBFF35F8F0020206010BDCA
:10353000340000202E2E5C2E2E5C2E2E5C2E2E5C57
:103540002E2E5C2E2E5C2E2E5C636F6D706F6E6562
:103550006E74735C6C69627261726965735C6D75BF
:103560007465785C6E72665F6D74782E680000001A
:1035700010B50021084600F0A9FC002806D1044C33
:1035800001202060FFF72AF80020206010BD000015
:1035900000A5025010B50021024800F0C8FA80F3DF
:1035A000100010BD002200202DE9FC5F0E008346B4
:1035B000DDE90C47C6F1000098469246814600D4EA
:1035C0000846012503E000BF90FBFAF06D1C504552
:1035D000FADAA84500D9454624B1002E01DB780768
:1035E00000D5641EB80702D5B8F1000F0AD0F8075D
:1035F00008D13CB1A54205D220215846641EFFF7F0
:1036000025FEF6E7002E02DA4E462D2102E078076D
:1036100003D52B215846FFF719FE07F003000228B7
:103620000BD1B8F1000F08D13CB1A54205D2302131
:103630005846641EFFF70AFEF6E7CDE90047434609
:1036400052463146584602F01FFBBDE8FC9F000081
:1036500070B50E46054600684FF48E7101F003FC0C
:103660004FF4A271286801F0FEFB28681449C0F8E5
:1036700004132868082E40F3073403D311A1452012
:10368000FFF794FD7007000E002C06DA04F00F011E
:1036900001F1E02181F8140D03E004F1E02484F845
:1036A00000042868012140F3073000F01F02914018
:1036B0004009800000F1E020C0F8001170BD00005A
:1036C000800002002E2E5C2E2E5C2E2E5C2E2E5C98
:1036D0002E2E5C2E2E5C2E2E5C696E7465677261D8
:1036E00074696F6E5C6E7266785C6E7266785F6726
:1036F0006C75652E6800000070B50E4604460068C3
:103700004FF4887101F0C0FB4FF49071206801F014
:10371000BBFB4FF49271206801F0B6FB4FF4A2712D
:10372000206801F0B1FB4FF4AC71206801F0ACFBF4
:1037300020681449C0F804132068082E40F30735A8
:1037400003D311A14520FFF731FD7007000E002DB6
:1037500006DA05F00F0101F1E02181F8140D03E014
:1037600005F1E02585F800042068012140F30730C9
:1037700000F01F0291404009800000F1E020C0F8F5
:10378000001170BD100342002E2E5C2E2E5C2E2EDA
:103790005C2E2E5C2E2E5C2E2E5C2E2E5C696E74A2
:1037A0006567726174696F6E5C6E7266785C6E726A
:1037B00066785F676C75652E680000000246002021
:1037C0001268530713D502F00300012802D0022823
:1037D0000CD105E0C2F383100B68801C184404E090
:1037E0000223086803EB92521044086001207047DE
:1037F0002DE9FF410026264800F08BF92448001FE0
:10380000074600F086F9234C60680090A56800E048
:1038100000986946284004EB80000C30FFF7CEFF8B
:103820000028F5D101AA009901EA050304EB8303FE
:10383000491CDB6842F82030401C00910228F2D37A
:10384000019800F0030001281AD002280ED0124976
:103850004FF4AC70FFF7AAFC384600F057F908B1F6
:103860000098606004B03046BDE8F0810198032103
:1038700001EB90500099BDF80A6001EB900005E063
:103880000198BDF80A60C0F3831008440090E3E794
:10389000FC210020E41D00203864000008B5202031
:1038A00000210090084601F035F918B12CA226211C
:1038B000FCF7B0FC00F020FF00F0B0FA18B128A22D
:1038C0003321FCF7A7FC2A482A49401AC5080320DF
:1038D00000EB0540044628A101F0A2F803232C4A7E
:1038E0002C492D4800F05AFA18B11DA23C21FCF7D2
:1038F00091FC27490722C91C274800F077FA18B124
:1039000017A24021FCF786FC23496A462039224849
:1039100000F028FA18B112A24421FCF77BFC2046E3
:103920001EA1009A01F080F800981B4982B220463F
:10393000203901F021F8164917480A312038009A39
:10394000FCF738FD30B1012000EB05401BA101F070
:1039500067F8FEE720461FA101F062F8FEE70000CD
:103960002E2E5C2E2E5C2E2E5C6D61696E2E6300F9
:10397000FC6A0000CC6A0000484D41432065786134
:103980006D706C6520737461727465642E00000044
:10399000000000205C5D00000401002043616C63B6
:1039A000756C6174656420484D414320286C656ED8
:1039B0006774682025753A2900000000484D41438E
:1039C000206578616D706C65206661696C65642145
:1039D00021210000484D4143206578616D706C6580
:1039E00020657865637574656420737563636573BA
:1039F0007366756C6C792E002DE9F05F1E46DDF85C
:103A000028B091468A46040003D124A19020FFF7F4
:103A1000CDFBB4F80680607908FB00F8A8F1040833
:103A2000464503D31DA19E20FFF7C0FBE788301D4C
:103A3000B0FBF7F1B0FBF7F207FB1200D9F800502A
:103A4000AA19424501D9A8EB0605C9F8005001E0C2
:103A50002468491E0029FBD13E1A8846AE4215D87B
:103A600017E000BF2044001D0AEB0803BBF1000F64
:103A7000324602D00146184600E01946FCF760FCC9
:103A800000202468AD1BB044AF4201D92E4600E0AF
:103A90003E46002DE6D1BDE8F09F00002E2E5C2EA4
:103AA0002E5C2E2E5C2E2E5C2E2E5C2E2E5C2E2E50
:103AB0005C636F6D706F6E656E74735C6C6962725F
:103AC00061726965735C6D656D6F626A5C6E72666A
:103AD0005F6D656D6F626A2E6300000030B502464F
:103AE00051B101F035F80021074C08E034F82130DD
:103AF0001568AB4202D11160002030BD491C8142E3
:103B0000F4D3052030BD000000000000002100F0CB
:103B100009B8012100F010B808B56A46FCF7BBFBF4
:103B2000009808BD08B56A46FCF79BFB08BD08B5C0
:103B30006A46FCF77DFB08BD08B56A46FCF784FBC6
:103B4000009808BD08B56A46FCF7B2FB009808BDAE
:103B500070B5040003D113A1FE20FFF727FB002559
:103B60002846FFF77BFA206862680168914214D901
:103B7000491E01600D781CB91AA1C220FFF716FB7F
:103B8000208AE16805FB00152068217A0278891AED
:103B90000279C9B28A4200D201710020FFF76EFAA1
:103BA000284670BD2E2E5C2E2E5C2E2E5C2E2E5C9A
:103BB0002E2E5C2E2E5C2E2E5C636F6D706F6E65EC
:103BC0006E74735C6C69627261726965735C626168
:103BD0006C6C6F635C6E72665F62616C6C6F632E9F
:103BE000630000002E2E5C2E2E5C2E2E5C2E2E5C92
:103BF0002E2E5C2E2E5C2E2E5C636F6D706F6E65AC
:103C00006E74735C6C69627261726965735C626127
:103C10006C6C6F635C6E72665F62616C6C6F632E5E
:103C20006300000070B50C46050004D110A140F2FD
:103C30002110FFF7BBFA24B90DA14FF49170FFF7E3
:103C4000B5FA0020FFF70AFA1DB91949CF20FFF78E
:103C5000ADFAE8682A68211A288AB1FBF0F11068E9
:103C6000431C13600170BDE870400020FFF706BAE6
:103C70002E2E5C2E2E5C2E2E5C2E2E5C2E2E5C2E7E
:103C80002E5C2E2E5C636F6D706F6E656E74735C50
:103C90006C69627261726965735C62616C6C6F639E
:103CA0005C6E72665F62616C6C6F632E6300000015
:103CB000E43B000010B5040002D0206830B901E0F8
:103CC0000E2010BD17A1D920FFF770FA606818B94F
:103CD00014A1DA20FFF76AFAA06818B911A1DB2055
:103CE000FFF764FAE06818B90EA1DC20FFF75EFA6E
:103CF000208A18B90BA1DD20FFF758FA207A6168F5
:103D00002268401AC0B2116004E0226811684B1C9E
:103D100013600870401EC0B2F7D2216800200871FD
:103D200010BD00002E2E5C2E2E5C2E2E5C2E2E5CE6
:103D30002E2E5C2E2E5C2E2E5C636F6D706F6E656A
:103D40006E74735C6C69627261726965735C6261E6
:103D50006C6C6F635C6E72665F62616C6C6F632E1D
:103D60006300000070B515460E46044601F0E6FFFC
:103D7000002807D13EB160682968C268914205D227
:103D800048F2145070BD48F2135070BD83682A4643
:103D900031462046BDE87040184700002DE9F0414B
:103DA0001E4617460D46044600F058F898B1ACB1CF
:103DB00048F21050002D0CD0002F0AD08EB1656053
:103DC0002B682046324639469847002801D10649DB
:103DD0002160BDE8F0814FF40540FAE748F2015058
:103DE000F7E748F21150F4E711BADEBA70B515469C
:103DF0000E46044601F0A2FF00280BD146B155B192
:103E000060682A46314643682046BDE8704018473E
:103E100048F2105070BD48F2115070BD2DE9F041CC
:103E20000B480C4D0C4F401BC60801203870002475
:103E300006E000BF55F834008047002805D1641C17
:103E4000B442F7D3022038700020BDE8F0810000B2
:103E5000AC6A0000A46A00002A0000200348007831
:103E6000022801D000207047012070472A0000205E
:103E700005480178022904D00078012801D00020EB
:103E800070470120704700002A00002070B50D46E1
:103E9000044600680C49884201D1002070BDFFF73C
:103EA000FDFA70B1FFF708FA2946201DFCF796FDD0
:103EB00001F0F6FB0446FFF7EBF9FFF72BFB20467A
:103EC00070BD48F2045070BD6169614D2DE9F0414B
:103ED0006C460D46074600F091FF70B11B481C4927
:103EE000401AC008012101EB00401AA100F098FD22
:103EF000A54648F21950BDE8F081FFF7B9FF48B177
:103F00001B4A1C4E106848B15068B04206D10020D0
:103F1000A546F0E74FF40540A546ECE748F21750F8
:103F2000002FA546E7D1002DA546E4D1124815463D
:103F300000F1E8011060FFF7A9FF0028A546DAD1DB
:103F40006E602A680D491160A546D4E7FC6A00003E
:103F5000CC6A0000537461636B206F766572666C87
:103F60006F772064657465637465642E00000000DB
:103F70002C0000206572E54B840200206169614DD0
:103F80002DE9F041054604781C4888B00F4640F8FA
:103F900024200869194916460831012C41F82400EB
:103FA00005D1787F18B916A15020FFF7FFF8DFF888
:103FB0004C80797FA8F10408202208F804103946C3
:103FC0006846FCF7BDF90494297818F8010050B14F
:103FD0000EB11A4A00E000226946281D01F036F9A8
:103FE00008B0BDE8F0810EB1154A00E00022694634
:103FF00005F10C0000F0D6FFF2E7000040000020C1
:104000002E2E5C2E2E5C2E2E5C2E2E5C2E2E5C2EEA
:104010002E5C2E2E5C696E746567726174696F6EBA
:104020005C6E7266785C6C65676163795C6E726603
:104030005F6472765F756172742E6300455B000089
:10404000855900000FB438B5040003D110A11C201D
:10405000FFF7ACF8606918B90DA11D20FFF7A6F8AD
:10406000206818B90AA11E20FFF7A0F8606818B9E7
:1040700007A11F20FFF79AF80599002905D006A887
:1040800000906A46204600F049F838BC5DF814FB01
:104090002E2E5C2E2E5C2E2E5C2E2E5C2E2E5C2E5A
:1040A0002E5C2E2E5C65787465726E616C5C667039
:1040B00072696E74665C6E72665F667072696E7449
:1040C000662E630010B5040003D107A10B20FFF793
:1040D0006DF8A268002A05D0D4E904032168984746
:1040E0000020A06010BD00002E2E5C2E2E5C2E2E17
:1040F0005C2E2E5C2E2E5C2E2E5C2E2E5C65787433
:1041000065726E616C5C667072696E74665C6E720C
:10411000665F667072696E74662E63002DE9FC47F7
:1041200091460C465FEA000804D183A140F2522078
:10413000FFF73CF8D8F8140020B97FA14FF41570B0
:10414000FFF734F8D8F8000020B97BA140F25520E1
:10415000FFF72CF8D8F8040020B977A140F25620D8
:10416000FFF724F8002C76D014F8011B39B125296B
:104170000ED04046FFF76AF820780028F4D198F86E
:104180000C00002867D04046BDE8FC47FFF79ABF07
:104190000020012221782B291BD02D2902D0302983
:1041A00008D102E040F0010001E040F00200641C90
:1041B000002AEFD100252A290ED02178A1F1300262
:1041C0000A2A11D205EB850201EB4205641C303D41
:1041D000F1E740F00400EAE7D9F800100B1DC9F838
:1041E00000300968641C0D44217800232E290BD16E
:1041F00014F8011FA1F130020A2A05D203EB830251
:1042000001EB4203303BF3E76C290DD068290BD05A
:10421000692921D00BDC252918D0582931D06329F0
:104220000ED0642915D117E014F8011FECE77029AE
:1042300069D0732932D075291BD0782909D120E0A3
:10424000D9F80000011DC9F8001001784046FEF7BA
:10425000FDFF641C90E76CE0D9F800100A1DC9F856
:1042600000200968CDE900500A224046FFF79CF97A
:10427000EFE7D9F800100A1DC9F8002009680A22E2
:1042800006E0D9F800100A1DC9F8002009681022BC
:10429000CDE90050404601F0F7FCDAE7D9F800100C
:1042A00000270A1DC9F800200E68C00705D112E0DA
:1042B0004046761C7F1CFEF7C9FF31780029F7D1F4
:1042C00004E0202140466D1EFEF7C0FFBD42C0D96C
:1042D000002DF6D1BDE74EB13046FCF764F8074635
:1042E00004E0202140466D1EFEF7B0FFBD4206D916
:1042F000002DF6D103E04046761CFEF7A7FF31788B
:104300000029F8D1A5E7D9F80000011DC9F800106F
:10431000056830214046FEF799FF78214046FEF7B8
:1043200095FF08200021CDE900010346102229460F
:10433000B0E7BDE8FC8700002E2E5C2E2E5C2E2EF2
:104340005C2E2E5C2E2E5C2E2E5C2E2E5C657874E0
:1043500065726E616C5C667072696E74665C6E72BA
:10436000665F667072696E74665F666F726D6174A7
:104370002E6300002DE9FF411C46DDE90A78154651
:104380000E46684600F060F846EA450141EA8401BD
:1043900041EA072242EA0841009A00EB8200C0F895
:1043A0000017BDE8FF812DE9FF411C46DDE90A78D1
:1043B00015460E46684600F079F846EA450141EA9E
:1043C000840141EA072242EA0841009A00EB820098
:1043D000C0F80017BDE8FF811CB5002100910B4615
:1043E00001220191FFF7C6FF1CBD1CB50021009101
:1043F0000B4601220191FFF7D6FF1CBD1CB5002220
:104400000B46009211460192FFF7B4FF1CBD1CB58C
:1044100000220B46009211460192FFF7C4FF1CBD1B
:104420001CB5002100910B46012201911146FFF7B6
:10443000A1FF1CBD1CB5002100910B46012201917A
:104440001146FFF7B0FF1CBD10B5044600683028C8
:1044500004D308A140F2A710FEF7A8FE2068202888
:1044600002D24FF0A04010BD00F01F0020600E48A7
:1044700010BD00002E2E5C2E2E5C2E2E5C2E2E5C8F
:104480002E2E5C2E2E5C2E2E5C6D6F64756C65730B
:104490005C6E7266785C68616C2F6E72665F6770C6
:1044A000696F2E68000000000003005010B504463C
:1044B0000068302804D308A140F2A710FEF776FE6A
:1044C0002068202802D24FF0A04010BD00F01F004D
:1044D00020600E4810BD00002E2E5C2E2E5C2E2E6D
:1044E0005C2E2E5C2E2E5C2E2E5C2E2E5C6D6F6450
:1044F000756C65735C6E7266785C68616C2F6E7249
:10450000665F6770696F2E6800000000000300504E
:1045100001B56846FFF798FF009A01219140C0F865
:10452000081508BD01B56846FFF7C0FF009A0121D4
:104530009140C0F8081508BD30B5154A0146002065
:10454000D2F8104423460AE0DB681D79854205D184
:10455000401C0A28F6DB4FF0FF3030BD1B68002BF3
:10456000F2D1431CF9D0CB681871D2F8103443B1A2
:10457000DB68CC681B682360D2F81024D268116015
:1045800030BDC2F81014C96800220A6030BD0000B6
:10459000E41D00207047FEF7C1BA704708B5034A12
:1045A00000924023024A00F005F808BDF1570000D0
:1045B0000C1C0020F0B595B01C4615460F46084669
:1045C0001A9E00F097FB182109A8FBF7E1FE0E9652
:1045D000CDE909540023082203A9384600F0A0FBC6
:1045E00005980690BDF81000ADF81C00BDF812004B
:1045F000ADF81E0000208DF821000398082600F079
:104600000300012802D0022818D032E00398334674
:10461000850AC0F3C2008DF8200003980FA9C0F3EB
:104620008314A200384600F07BFB09A8009006AB7B
:1046300022460FA9284600F0B9FA1AE00398840D23
:10464000C0F3C2008DF82000082C01D2254600E0FE
:10465000082533462A460FA9384600F061FB2E4450
:10466000641B09AB06AA29460FA800F0FBF9002C31
:10467000EAD1384600F044FB15B0F0BD7047002089
:1046800001F09EB9084810B50178084A515C19B18B
:10469000001D00F0D5FE02E00C3000F075FDBDE815
:1046A0001040002001F08CB96C0000203C0000207C
:1046B00008B5034A00924023024AFFF77BFF08BD7A
:1046C000415800004C1C00200A4A012902EBC0009E
:1046D00007D0022907D0032907D0042907D00020DA
:1046E0007047022070470420704700797047407976
:1046F00070470000CC6A000010B5FFF74CFF0421A2
:104700000F48FFF719FF002803DA0E491B20FEF7B8
:104710004DFD0B480124C0684471FFF7B0FF084805
:1047200004211030FFF708FF002803DA0549222092
:10473000FEF73CFD02481030C068447110BD000017
:10474000AC6A0000E86300002DE9F0478CB0FEF78A
:1047500095FD18B100200CB0BDE8F0877D4C00201D
:10476000C4F81804BFF34F8F60680290A5684FF03B
:104770000008284004EB80000CE000BFD4F81804C7
:1047800070B921680298814201D86160E2E728404F
:1047900004EB80000C3002A9FFF710F80028EDD1DF
:1047A000002003AA029901EA050304EB8303491CD4
:1047B000DB6842F82030401C02910228F2D30398B3
:1047C00000F00300022802D001284DD0A7E0039892
:1047D0005022810D8946B2EB905F00D850210E46E1
:1047E00066F39F50039008315B4800F03AFA0700E7
:1047F00078D000F07FFA4346082203A9384600F03B
:10480000BFFA029908F1080A2940681A8000001DC1
:10481000864222D94F4D0C3530B1C2B204EB810132
:10482000301A90460C3104E02946F2B20025904639
:104830002846C6B25346384600F0A2FA0AEB0803EF
:1048400025B132462946384600F09AFA029909F114
:10485000030001EB900002903BE004EB8101534622
:10486000324638460C31EFE70398C0F38310062830
:1048700000D30620039960F38911C1F38310801CD3
:1048800003918100344800F0ECF9070047D000F0B4
:1048900031FA4346082203A9384600F071FA08F1BC
:1048A000080800260FE00298434600EA0501401C74
:1048B00004EB81010290042238460C3100F060FACA
:1048C00008F10408761C0398C0F38310B042EAD8BC
:1048D00047B1D4F81054D4F8180478B1384600F031
:1048E0000FFA31E01BE0E8684079012804D12A681A
:1048F0002846394612689047E8680568002DF2D1CD
:10490000384600F0FDF90020FEF7A8FBD4F81804A3
:1049100008B9029860600020FEF7B0FB14E0D4F8FC
:10492000104405E02168204689688847E0680468EB
:10493000002CF7D109480A49401AC008022101EBAE
:10494000004008A100F06CF8FEF798FC80F0010030
:1049500001E70000E41D0020046B0000FC6A000079
:10496000CC6A00004261636B656E647320666C758F
:1049700073686564000000002DE9F84F8146DFF898
:104980009C80D01C15468A46800800226946D8F8CB
:104990000860FEF717FCB8B3009CA01C0090D8F884
:1049A00008103040091A8F003F1DBD4208EB8000FF
:1049B00002D82A46514608E03A4651460C30FBF7E9
:1049C000BFFC1648EA1B0AEB07010C30FBF7B8FCEA
:1049D0004FEA1947FEF7DEFD47EA0042601C30400F
:1049E00008EB8000344008EB8401C260C8684FF6D1
:1049F000C07269F3C500904365F39F5020F0030037
:104A0000801C20F00400C86098F8200402E000BF79
:104A1000FFF79AFE0028FBD1BDE8F88FE41D0020C7
:104A200000231A4600F030BF08B5012300926A4601
:104A300000F02AFF08BD1CB5CDE9002302236A4619
:104A400000F022FF1CBD70B586B00DF1280C9CE86B
:104A500070008DE87C0005236A4600F015FF06B063
:104A600070BD00002DE9F0470E4680461C46924678
:104A7000082940D894F80C9000202073194610465D
:104A800000F06CFD0025B54206D218F805201BA1E8
:104A90002046FFF7D7FA03E01AA12046FFF7D2FA23
:104AA0006D1C082DEFD318A12046FFF7CBFA002587
:104AB000B54212D218F805707E2F08D8FBF73CFCDF
:104AC0000068C05D10F03E0F01D03A4600E02E2293
:104AD0000EA12046FFF7B6FA03E00DA12046FFF72E
:104AE000B1FA6D1C082DE3D301222146504600F097
:104AF00017FD84F80C90BDE8F087000020253032C7
:104B000078000000202020007C00000025630000C9
:104B1000200000000B4810B5FF21816000210160DA
:104B20004160C0F81814C0F81414012180F8201452
:104B3000054800F0E3F8002803D1044800F050F9DC
:104B4000002010BDE41D0020046B0000045F000085
:104B500002480349401AC00870470000046B000077
:104B6000CC6A000013B56846FEF7B8FF08B1002014
:104B70001CBD0248009950F831001CBDCC6A0000F1
:104B800070B509480125D0F8104480F8205407E09A
:104B9000E06845712168204649688847E0680468F4
:104BA000002CF5D170BD0000E41D00202DE9FF4769
:104BB00081460C9D00200C462F7B28739846164694
:104BC0002946184600F0CAFC072E42D2DFE806F05C
:104BD00004090F161F2A360049462846FFF732FA05
:104BE00037E0494628462268FFF72CFA31E0D4E93D
:104BF000002349462846FFF725FA2AE0A0680090DE
:104C0000D4E9002349462846FFF71CFA21E0D4E9FD
:104C10000201CDE90001D4E9002349462846FFF707
:104C200011FA16E004F1080007C88DE80700D4E97E
:104C3000002349462846FFF705FA0AE004F1080078
:104C40000FC88DE80F00D4E9002349462846FFF736
:104C5000F9F900222946404600F062FC2F73BDE8B6
:104C6000FF872DE9F041058A80462D1F4819C01C99
:104C7000B0FBF5F0C6B24046FEF76AFF041E19D03D
:104C80000020207101206071E58000272546761EF6
:104C9000C4F800800BE04046FEF75AFF60B161792E
:104CA000491C6171286005467F1CC0F80080B7422E
:104CB000F1D32046BDE8F081204600F002F8002044
:104CC000F8E72DE9F041457901466B1E002201E02D
:104CD0000968521C9A42FBD30F680146002605E082
:104CE00038460C68FEF79EFF2146761CAE42F7D38D
:104CF000BDE8F0810121001DFEF70EBFFEF7DABF0F
:104D000010B504460121001DFEF71CFF10F0FF0F37
:104D100004D12046BDE81040FFF7D3BF10BD00000E
:104D20001CB514460122CDE9002401AAFEF764FE59
:104D30000198A04203D002A1DA20FEF737FA1CBD89
:104D40002E2E5C2E2E5C2E2E5C2E2E5C2E2E5C2E9D
:104D50002E5C2E2E5C636F6D706F6E656E74735C6F
:104D60006C69627261726965735C6D656D6F626AB0
:104D70005C6E72665F6D656D6F626A2E6300000027
:104D80001CB514460022CDE9002401AAFEF734FE2A
:104D90000198A04203D002A1D020FEF707FA1CBD63
:104DA0002E2E5C2E2E5C2E2E5C2E2E5C2E2E5C2E3D
:104DB0002E5C2E2E5C636F6D706F6E656E74735C0F
:104DC0006C69627261726965735C6D656D6F626A50
:104DD0005C6E72665F6D656D6F626A2E63000000C7
:104DE00082680021916082681161826851618268E5
:104DF000D1608268516080680160704703496846ED
:104E0000884201D20120704700207047982A002074
:104E10000C4A10B502F58C730EE0991AC91001EB1B
:104E2000D171491002EBC1010C68844201D90B46D3
:104E300002E005D201F108029A42EED3002010BD33
:104E4000486810BDA05D000000B5FFF7E1FF002835
:104E500000D1014800BD00008C5D000040580028D2
:104E600000D00120704708B5002242504058009001
:104E700008BDD0F80403084000D001207047405816
:104E8000002800D00120704708B500224250405849
:104E9000009008BD0121B1EB507F01D10120704786
:104EA000002070470121B1EB507F01D101207047F4
:104EB0000020704770B50D46040003D10DA15120AC
:104EC000FEF774F9204600F0A3FB04000FD0002089
:104ED000FEF7C4F8207920B10020FEF7CFF81120AA
:104EE00070BD0120256020710020FEF7C7F800206A
:104EF00070BD00002E2E5C2E2E5C2E2E5C2E2E5CA5
:104F00002E2E5C2E2E5C2E2E5C6D6F64756C657380
:104F10005C6E7266785C647269766572735C7372DB
:104F2000635C7072735C6E7266785F7072732E630E
:104F30000000000010B5040003D106A17520FEF7A3
:104F400035F9204600F064FB002802D00021016002
:104F5000017110BD2E2E5C2E2E5C2E2E5C2E2E5C32
:104F60002E2E5C2E2E5C2E2E5C6D6F64756C657320
:104F70005C6E7266785C647269766572735C73727B
:104F8000635C7072735C6E7266785F7072732E63AE
:104F9000000000000149024800F03EBD9C1B0020BB
:104FA000002000402DE9F04117460D00064603D1D0
:104FB0001AA18420FEF7FAF83079274A00EB400165
:104FC00001EBC00102EB810494F82A1011B1082012
:104FD000BDE8F081214951F820103068FFF76AFFE1
:104FE00008B11120F4E729463046FEF769F86760FA
:104FF000286920601FB1297F3046FEF729FB306801
:105000000421C0F800150020A061E06184F82900A7
:1050100044F8140F0121A175DAE700002E2E5C2E52
:105020002E5C2E2E5C2E2E5C2E2E5C2E2E5C2E2EBA
:105030005C6D6F64756C65735C6E7266785C6472CF
:1050400069766572735C7372635C6E7266785F75A5
:105050006172742E630000009C1B0020745D0000D0
:105060002DE9F05F054600790F4600EB400101EBAA
:10507000C0002D49164601EB800494F82A0001284F
:1050800003D02AA1F220FEF791F81FB927A1F3203F
:10509000FEF78CF81EB925A1F420FEF787F8284604
:1050A00000F062F810B11120BDE8F09F66614FF08A
:1050B0000009C4F82090A76084F828904FF48E78F7
:1050C0004E4641462868FFF7CEFE28684FF0010A99
:1050D000C0F808A02146286800F02AFC606800BBE0
:1050E000D5F800B067690EE094F8280008B10F26E3
:1050F00015E041465846FFF7B1FE0028F4D021469E
:10510000584600F015FC206AB842F2D35746414693
:105110002868FFF7A3FE0028F9D02868C760C4F804
:1051200014903046C0E700009C1B00202E2E5C2E01
:105130002E5C2E2E5C2E2E5C2E2E5C2E2E5C2E2EA9
:105140005C6D6F64756C65735C6E7266785C6472BE
:1051500069766572735C7372635C6E7266785F7594
:105160006172742E63000000007900EB400101EBD6
:10517000C000044901EB80004069002800D00120F4
:10518000704700009C1B00202DE9F0470446007981
:105190004FF0000900EB400101EBC000254901EB95
:1051A00080072068C0F80095786880B1206822499F
:1051B000C0F808132068012140F3073000F01F02F7
:1051C00091404009800000F1E020C0F88011206883
:1051D000D0F80C25D0F81485D0F80865D0F8105513
:1051E0004FF0FF31C0F81415C0F80C152068C0F856
:1051F0000815C0F81015501C02D01046FFF7ECF847
:10520000B8F1FF3F02D04046FFF7E6F8681C02D035
:105210002846FFF7E1F8701C02D03046FFF7DCF8B3
:105220002068FFF787FE87F82A90C7F80490BDE84A
:10523000F08700009C1B0020840202000149024804
:1052400000F098BCC81B0020002000402DE9F04170
:1052500017460D00064603D118A1A920FDF7A6FFA9
:105260003079254A00EBC00102EB810494F820104C
:1052700011B10820BDE8F081204951F820103068B4
:10528000FFF718FE08B11120F4E729463046FDF774
:1052900052FF6760286920601FB1297F3046FEF702
:1052A0002BFA30680821C0F800150020A061E061E9
:1052B0006061012184F82010DCE700002E2E5C2EB6
:1052C0002E5C2E2E5C2E2E5C2E2E5C2E2E5C2E2E18
:1052D0005C6D6F64756C65735C6E7266785C64722D
:1052E00069766572735C7372635C6E7266785F7503
:1052F000617274652E630000C81B0020785D000099
:105300002DE9F04704460F460079364900EBC0000E
:1053100001EB8005164695F82000012804D032A143
:1053200040F20710FDF742FF27B92FA14FF4847018
:10533000FDF73CFF26B92CA140F20910FDF736FF1E
:10534000207910B9B6F5803F04D327A14FF48570BA
:10535000FDF72CFF3846FFF7A5FD30B1204600F0E1
:1053600061F820B11120BDE8F0871020FBE76E61E5
:10537000AF604FF490774FF0000839462068FFF790
:1053800083FD4FF4AC7631462068FFF77DFD206841
:10539000AA686969C0F84425C0F8481520684FF02C
:1053A0000109C0F808906868D0B9BA46514620682B
:1053B000FFF765FD074631462068FFF760FD0743AC
:1053C000F4D010B14FF00F0808E02068C0F80C903E
:1053D00031462068FFF753FD0028F9D000206861AE
:1053E0004046C0E7C81B00202E2E5C2E2E5C2E2EC1
:1053F0005C2E2E5C2E2E5C2E2E5C2E2E5C6D6F6431
:10540000756C65735C6E7266785C647269766572E1
:10541000735C7372635C6E7266785F7561727465DB
:105420002E6300000079054900EBC00001EB80000D
:105430004069002800D0012070470000C81B0020F0
:105440002DE9F04704460079334900EBC00001EB39
:1054500080070125786880B120683049C0F80813BA
:10546000206840F3073000F01F0105FA01F1400900
:10547000800000F1E020C0F880112068D0F8001210
:1054800021F02001C0F80012206845604FF4AC768E
:1054900031462068FFF7F8FC2068C5603146206877
:1054A000FFF7EDFC0028F9D020684FF00009C0F8A4
:1054B00000952068D0F80C25D0F81485D0F8086540
:1054C000D0F810554FF0FF31C0F80C15C0F8141586
:1054D0002068C0F80815C0F81015501C02D01046FE
:1054E000FEF783FFB8F1FF3F02D04046FEF77DFF95
:1054F000681C02D02846FEF778FF701C02D03046A8
:10550000FEF773FF2068FFF715FD87F82090C7F8B6
:105510000490BDE8F0870000C81B00201003420083
:1055200010B50C46017A052908D0407A38B10848F0
:1055300008A102682046FEF785FD00E01AB106A129
:105540002046FEF77FFD2046BDE81040FEF7BABDBD
:10555000BC000020257300000D0A000038B5C38888
:105560000D46044633B114A0009015A216A128469A
:10557000FEF768FD217A05291CD0607A48B1A08821
:10558000FFF7A2F8164951F8202016A12846FEF789
:1055900059FDA0880021FFF7E5FA03461049207A5B
:1055A000143951F8202001B02846BDE830400EA142
:1055B000FEF748BD38BD00001B5B306D00000000E9
:1055C0001B5B313B33316D0025734C6F6773206477
:1055D000726F70706564202825642925730D0A0098
:1055E000BC000020257300003C25733E2025733A43
:1055F00020000000EFF30580C005C00D01D00120A0
:105600007047EFF3148040F30000401C7047000027
:105610000349884201D103487047002070470000C9
:1056200000200040500000201A4A811A904221D0E8
:1056300012DC194AA0EB020190421BD007DC0028C3
:1056400014D0164940180FD002281FD10FE00129AD
:1056500019D002291AD110E0072917D2DFE801F08A
:10566000161316161616100048F20150704748F22D
:105670000250704748F21050704748F2135070477C
:1056800048F21750704748F21150704748F21650D0
:10569000704700000603F0000303F00000FD0FFF59
:1056A000374A811A90424CD025DC364AA0EB0201E1
:1056B00090425BD016DC344AA0EB020190424CD001
:1056C00009DC00283CD03149401840D001283BD0AB
:1056D000032851D13EE001293FD0022940D00329BF
:1056E0004AD146E0092947D2DFE801F0464646465E
:1056F000462E462E2B0015293ED012DC112929D02A
:1057000008DC01291DD0032936D00F2922D0102909
:1057100032D125E0122920D013290FD014292BD102
:1057200021E016390F2927D2DFE801F01D262626B1
:105730002626262626111A17260E0E0048F2175086
:10574000704748F27050704748F20350704748F273
:105750001350704748F21050704748F2115070478C
:1057600048F21450704748F20150704748F2025016
:10577000704748F27150704748F216507047000069
:10578000110CF000080CF000040CF00000F40FFF06
:1057900070B5054688690C4600284FF48471284688
:1057A0000AD0FFF760FBD5F81805626AE1688854F3
:1057B000606A401C606270BDFFF755FBD5F81805A4
:1057C00070BD1FB501238DF80030CDE90121D0E96E
:1057D0000012684690471FBD1FB501238DF80030A9
:1057E000CDE90121D0E90012684690471FBD0000B5
:1057F0002DE9F0411400884618D000250E4F0326ED
:1058000008EB050122460020FDF78AF90544241A19
:1058100040B93878002809D008494FF47A408847C1
:10582000761E05D001203870002CE9D1BDE8F0814A
:1058300000203870FAE7000064000020D15E00000C
:1058400070B50E4C0020D2B22070201D0C4D037894
:10585000EB5C1BB1001DFFF753FD02E00C30FFF7BE
:10586000FFFB18B1074A2D21FAF7D4FC6078002815
:1058700002D021780029FAD070BD00006800002015
:105880003C0000209C6300002DE9F84FDFF8988071
:105890009246894605461F46012269461846D8F8B1
:1058A0000860FDF78FFCB0B3009800210446801C0F
:1058B0000AE000BF00EA06025AF821C008EB8202A3
:1058C000401C491CC2F80CC0B942F3D3BA462F0C95
:1058D000FDF760FE8346FFF73BF9B84204D8134951
:1058E00040F27D10FDF762FC601C304008EB800048
:1058F000344047EA0B4208EB8401C260C86865F394
:10590000C5006AF3891069F39F2020F00300401C52
:1059100020F00400C86098F8200401E0FEF714FFAE
:105920000028FBD1BDE8F88FE41D0020386400009A
:1059300070B50C4605464FF48E71FFF794FA216A54
:10594000A068415C206A401C2062C5F81C1570BD2F
:105950001FB500228DF800200291816801914261FB
:10596000D0E90012684690471FBD1FB500228DF890
:1059700000200291816801914261D0E900126846DD
:1059800090471FBD1FB50A4601788DF80010416889
:105990000191017A8DF80810C0680390044850F80E
:1059A0002210083850F82220684690471FBD00009A
:1059B000480000200149012008707047680000205D
:1059C00010B588B0044620220F496846FAF7B8FCA3
:1059D00006200090C01F0190029003904FF0EB70E2
:1059E00006900CB1094A00E0002269460848FEF71B
:1059F000C7FA18B1074A1D21FAF70CFC0448001F2A
:105A0000447008B010BD0000E45E0000B55900000D
:105A10006C0000209C6300002DE9FF470C46054602
:105A20004FF40071FFF725FA01274FF401780026A3
:105A300018B34FF4927949462846FFF70FFAE0B1C0
:105A400049462846FFF70FFAC5F8088394F829005D
:105A500000B96F6002208DF80000D5F88004C5F809
:105A600080040390A0690290E0680190A661E6615D
:105A7000D4E900126846904728E004212846FFF741
:105A8000F8F918B34FF484712846FFF7E7F9E8B145
:105A900021462846FFF77CFE616AA069884215D13D
:105AA000E06938B1E268616AA0612069E661666216
:105AB000E06008E094F8290000B96F60C5F8088339
:105AC000A661E268616A2046FFF77BFE4FF48E789C
:105AD00041462846FFF7C2F980B16069216A8142D8
:105AE00002D294F8280028B341462846FFF7BBF9B4
:105AF000606918B161692046FFF72AFF4FF4A27868
:105B000041462846FFF7AAF9002818D04146284602
:105B1000FFF7A9F994F8290000B12F60A0690028C7
:105B20000DD0A661E268616A04B02046BDE8F04786
:105B3000FFF747BE21462846FFF7FAFEDEE7BDE83D
:105B4000FF8700001FB50A4601788DF800104168F4
:105B50000191017A8DF80810C0680390044850F84C
:105B60002210083850F82220684690471FBD0000D8
:105B7000480000202DE9FF410C464FF4927705467E
:105B80003946FFF77CF90026B8B139462846FFF7B9
:105B90007BF902208DF80000D5F88004C5F8800458
:105BA0000390D5F83C050290E0680190A661E6619B
:105BB000D4E900126846904723E04FF488773946CD
:105BC0002846FFF75CF9E0B139462846FFF75CF953
:105BD000D5F83C15A069884213D1E06960B1E2684C
:105BE000D5F8000220F02000C5F80002E069A061AD
:105BF0002069E661E06001E0A661E2682046FFF707
:105C0000EBFD4FF4A27739462846FFF738F968B123
:105C100039462846FFF738F9A06938B1A661E66130
:105C2000D5F83C152046E268FFF7D6FD4FF4907694
:105C300031462846FFF723F960B131462846FFF781
:105C400023F90120E860606920B1D5F84C152046A1
:105C5000FFF78BFE4FF4AC7631462846FFF70FF97D
:105C600000280ED031462846FFF70EF9606900285B
:105C700007D0D5F84C1504B02046BDE8F041FFF739
:105C800074BEBDE8FF8100002DE9F05F8346DDE9C9
:105C90000A4A994690460D460846012703E000BF90
:105CA000B0FBF8F07F1C4045FAD2B94500D94F4609
:105CB0005FEACA7012D18CB15FEA8A7002D5B9F17D
:105CC000000F01D0202607E0302605E03146584677
:105CD000641EFDF7BBFA0CB1A742F7D35FF00106D3
:105CE000B9F1010F02D9A9F1010903E0B5FBF6F002
:105CF000404502D306FB08F6F2E7DFF83C9000BF10
:105D0000B5FBF6F000FB165519F800105846FDF7E4
:105D10009DFAB6FBF8F6002EF2D15FEACA7009D000
:105D2000002C07D0A74205D220215846641EFDF75B
:105D30008DFAF5E7BDE8F09F7C5D000030B10068AA
:105D40000549884205D048F20250704748F2015098
:105D5000704700207047000011BADEBA29330000F6
:105D6000E1330000E132000020000000800100006B
:105D700000000000954F00003D52000030313233EA
:105D8000343536373839414243444546556E6B6E9B
:105D90006F776E206572726F7220636F64650000AA
:105DA00000000000406300000100000000620000ED
:105DB00002000000F45F00000300000074620000B5
:105DC00004000000C862000005000000A861000097
:105DD000060000004461000007000000B0620000FF
:105DE00008000000BC610000090000002062000003
:105DF0000A000000286300000B000000DC5F0000C8
:105E00000C000000D46100000D0000007863000069
:105E10000E000000A06200000F000000DC62000025
:105E20001000000010630000110000008C630000EF
:105E3000800000005C6100008100000098600000AC
:105E400082000000586000008300000038600000FD
:105E50008400000074600000850000008061000084
:105E600086000000886200009000000024610000AD
:105E7000910000001860000092000000E86100003E
:105E800000820000F0620000018200003C6200001D
:105E9000028200005862000000840000B46000002C
:105EA000018400004C63000002840000FC600000DC
:105EB00003840000D86000009D4500009B45000061
:105EC00095450000000000000000000000000000F8
:105ED0000338FDD870470000B14600008546000039
:105EE0007D460000FFFFFFFFFFFFFFFFFFFFFFFFFB
:105EF000FFFFFFFF00000000000000000000D601CF
:105F0000060100004C1D00207F000000CC1D002079
:105F100000404040404040404040414141414140BC
:105F20004040404040404040404040404040404071
:105F30004005020202020202020202020202020200
:105F40000220202020202020202020020202020205
:105F5000020290909090909010101010101010105D
:105F60001010101010101010101010100202020269
:105F700002028888888888880808080808080808AD
:105F800008080808080808080808080802020202A9
:105F900040000000115F00002E2E5C2E2E5C2E2E85
:105FA0005C2E2E5C2E2E5C2E2E5C2E2E5C636F6D76
:105FB000706F6E656E74735C6C6962726172696534
:105FC000735C7574696C5C6170705F7574696C5F2B
:105FD000706C6174666F726D2E6300004E52465F86
:105FE0004552524F525F494E56414C49445F4441DD
:105FF000544100004E52465F4552524F525F534F3C
:1060000046544445564943455F4E4F545F454E41C3
:10601000424C4544000000004E52465F4552524FEC
:10602000525F464541545552455F4E4F545F454E71
:1060300041424C45440000004E52465F4552524F8B
:10604000525F4D555445585F554E4C4F434B5F463C
:1060500041494C45440000004E52465F4552524F64
:10606000525F4D555445585F4C4F434B5F46414935
:106070004C4544004E52465F4552524F525F4D557B
:106080005445585F434F4E445F494E49545F464123
:10609000494C4544000000004E52465F4552524F65
:1060A000525F4D555445585F494E49545F464149EA
:1060B0004C4544004E52465F4552524F525F424C4F
:1060C000455F495053505F52585F504B545F545294
:1060D000554E4341544544004E52465F4552524F3F
:1060E000525F424C455F495053505F504545525FA7
:1060F00052454A4543544544000000004E52465F15
:106100004552524F525F424C455F495053505F4C8D
:10611000494E4B5F444953434F4E4E4543544544CB
:10612000000000004E52465F4552524F525F4150B0
:10613000495F4E4F545F494D504C454D454E544577
:10614000440000004E52465F4552524F525F4E4F40
:10615000545F535550504F52544544004E52465F81
:106160004552524F525F4D4F44554C455F4E4F5430
:106170005F494E495449414C495A4544000000008A
:106180004E52465F4552524F525F4D4F44554C451B
:106190005F414C52454144595F494E495449414C35
:1061A000495A4544000000004E52465F4552524F46
:1061B000525F4E4F545F464F554E44004E52465F1D
:1061C0004552524F525F494E56414C49445F5354D9
:1061D000415445004E52465F4552524F525F444132
:1061E00054415F53495A45004E52465F4552524F03
:1061F000525F494F5F50454E44494E4700000000F2
:106200004E52465F4552524F525F5356435F48418C
:106210004E444C45525F4D495353494E4700000090
:106220004E52465F4552524F525F494E56414C497D
:10623000445F4C454E475448000000004E52465FB4
:106240004552524F525F4452565F5457495F455230
:10625000525F414E41434B004E52465F4552524FB2
:10626000525F4452565F5457495F4552525F444E05
:1062700041434B004E52465F4552524F525F494E8A
:106280005445524E414C00004E52465F4552524FCB
:10629000525F53544F524147455F46554C4C0000A6
:1062A0004E52465F4552524F525F4E554C4C000085
:1062B0004E52465F4552524F525F494E56414C49ED
:1062C000445F504152414D004E52465F4552524F3D
:1062D000525F4E4F5F4D454D000000004E52465FED
:1062E0004552524F525F464F5242494444454E0038
:1062F0004E52465F4552524F525F4452565F54577A
:10630000495F4552525F4F56455252554E0000006C
:106310004E52465F4552524F525F494E56414C498C
:10632000445F4144445200004E52465F4552524F32
:10633000525F494E56414C49445F464C41475300D9
:106340004E52465F53554343455353004E52465FAA
:106350004552524F525F424C455F495053505F4344
:1063600048414E4E454C5F414C52454144595F4572
:1063700058495354530000004E52465F4552524F05
:10638000525F54494D454F55540000004E52465FF0
:106390004552524F525F4255535900002E2E5C2EEB
:1063A0002E5C2E2E5C2E2E5C2E2E5C2E2E5C2E2E27
:1063B0005C636F6D706F6E656E74735C6C69627236
:1063C00061726965735C6C6F675C7372635C6E723B
:1063D000665F6C6F675F6261636B656E645F75615A
:1063E00072742E63000000002E2E5C2E2E5C2E2E6A
:1063F0005C2E2E5C2E2E5C2E2E5C2E2E5C636F6D22
:10640000706F6E656E74735C6C69627261726965DF
:10641000735C6C6F675C7372635C6E72665F6C6FEB
:10642000675F64656661756C745F6261636B656EFE
:1064300064732E63000000002E2E5C2E2E5C2E2E28
:106440005C2E2E5C2E2E5C2E2E5C2E2E5C636F6DD1
:10645000706F6E656E74735C6C696272617269658F
:10646000735C6C6F675C7372635C6E72665F6C6F9B
:10647000675F66726F6E74656E642E630000000065
:106480007761726E696E670064656275670000000F
:106490001B5B313B33306D001B5B306D0000000037
:1064A0001B5B313B33316D001B5B313B33326D0085
:1064B0001B5B313B33336D001B5B313B33346D0071
:1064C0001B5B313B33356D001B5B313B33366D005D
:1064D0001B5B313B33376D00696E666F0000000057
:1064E0006572726F72000000726E67005052530046
:1064F000524E47005541525400000000554152543D
:10650000450000006D656D5F6D6E677200000000F4
:106510007274745F6C6F675F6261636B656E640059
:10652000756172745F6C6F675F6261636B656E64E7
:1065300000000000617070000001020304050607FE
:1065400008090A0B0C0D0E0F101112131415161753
:1065500018191A1B1C1D1E1FC6A13B37878F5B8293
:106560006F4F8162A1C8D8799503E3A2245A2BE426
:106570003C9874EDFE1BED9EF29000B62A499FD028
:10658000A9F39A6ADD2E77809DBA41A777F3B46AA2
:1065900037B7AAAE49D6DF8D2F7A3C600708D124E1
:1065A000ACD3C5DE3B65844708C9BCF367E6096A1E
:1065B0003BA7CA8485AE67BB2BF894FE72F36E3C92
:1065C000F1361D5F3AF54FA5D182E6AD7F520E51EF
:1065D0001F6C3E2B8C68059B6BBD41FBABD9831FA9
:1065E00079217E1319CDE05B4661696C20746F20C0
:1065F00061637175697265206D757465780A000054
:106600004661696C20746F2072656C6561736520EA
:106610006D757465780A000000000000010000003C
:106620000300000002000000FFFFFFFF0700000062
:106630000123456789ABCDEFFEDCBA987654321062
:10664000F0E1D2C3D89E05C107D57C3617DD703086
:1066500039590EF7310BC0FF11155868A78FF9642F
:10666000A44FFABE67E6096A85AE67BB72F36E3C5B
:106670003AF54FA57F520E518C68059BABD9831F0D
:1066800019CDE05B0000000022AE28D7982F8A4287
:10669000CD65EF23914437712F3B4DECCFFBC0B557
:1066A000BCDB8981A5DBB5E938B548F35BC2563957
:1066B00019D005B6F111F1599B4F19AFA4823F9241
:1066C00018816DDAD55E1CAB420203A398AA07D8E5
:1066D000BE6F7045015B83128CB2E44EBE853124DF
:1066E000E2B4FFD5C37D0C556F897BF2745DBE7239
:1066F000B196163BFEB1DE803512C725A706DC9B9E
:10670000942669CF74F19BC1D24AF19EC1699BE482
:10671000E3254F388647BEEFB5D58C8BC69DC10F9C
:10672000659CAC77CCA10C2475022B596F2CE92DFC
:1067300083E4A66EAA84744AD4FB41BDDCA9B05C94
:10674000B5531183DA88F976ABDF66EE52513E9885
:106750001032B42D6DC631A83F21FB98C82703B075
:10676000E40EEFBEC77F59BFC28FA83DF30BE0C652
:1067700025A70A934791A7D56F8203E05163CA0604
:10678000706E0E0A67292914FC2FD246850AB72796
:1067900026C9265C38211B2EED2AC45AFC6D2C4DCF
:1067A000DFB3959D130D3853DE63AF8B54730A65C9
:1067B000A8B2773CBB0A6A76E6AEED472EC9C28125
:1067C0003B358214852C72926403F14CA1E8BFA280
:1067D000013042BC4B661AA89197F8D0708B4BC21F
:1067E00030BE5406A3516CC71852EFD619E892D1A7
:1067F00010A96555240699D62A20715785350EF4BF
:10680000B8D1BB3270A06A10C8D0D2B816C1A419D2
:1068100053AB4151086C371E99EB8EDF4C774827FC
:10682000A8489BE1B5BCB034635AC9C5B30C1C3948
:10683000CB8A41E34AAAD84E73E363774FCA9C5B85
:10684000A3B8B2D6F36F2E68FCB2EF5DEE828F7400
:10685000602F17436F63A57872ABF0A11478C884DA
:10686000EC39641A0802C78C281E6323FAFFBE9015
:10687000E9BD82DEEB6C50A41579C6B2F7A3F9BE70
:106880002B5372E3F27871C69C6126EACE3E27CA8A
:1068900007C2C021C7B886D11EEBE0CDD67DDAEAAB
:1068A00078D16EEE7F4F7DF5BA6F1772AA67F0064A
:1068B000A698C8A2C57D630AAE0DF9BE04983F1123
:1068C0001B471C13350B711B847D0423F577DB28D4
:1068D0009324C7407BABCA32BCBEC9150ABE9E3CDE
:1068E0004C0D109CC4671D43B6423ECBBED4C54C74
:1068F0002A7E65FC9C297F59ECFAD63AAB6FCB5FB8
:106900001758474A8C19446C4661696C20746F2093
:1069100061637175697265206D757465780A000030
:106920004661696C20746F2072656C6561736520C7
:106930006D757465780A00004661696C20746F207B
:1069400061637175697265206D757465780A000000
:106950004661696C20746F2072656C656173652097
:106960006D757465780A00004661696C20746F204B
:106970006765742054524E47206368617261637486
:106980006572697A6174696F6E20706172616D659C
:1069900074657273200A0000536153695F48616C2B
:1069A00057616974496E74657272757074206361A1
:1069B0006E74207761697420666F72206E6F7468E0
:1069C000696E670A000000004661696C20746F20E0
:1069D0006372656174652053594D206D75746578D7
:1069E0000A0000004661696C20746F206372656163
:1069F0007465204153594D206D757465780A000007
:106A00004661696C20746F2063726561746520470C
:106A1000656E566563206D757465780A0000000028
:106A200043616E277420696E697469616C697A6567
:106A3000206D757465782C20776173204E554C4C11
:106A40000D0A000043616E2774206C6F636B206D2C
:106A5000757465782C20776173204E554C4C0D0A67
:106A60000000000043616E277420756E6C6F636BCD
:106A7000206D757465782C20776173204E554C4CD1
:106A80000D0A00002C6B000000000020E400000054
:106A9000CE2E0000106C0000E4000020C849000069
:106AA000DE2E00004D34000071350000B85E00009D
:106AB000000000001065000080000020D85E00008B
:106AC000000000002065000088000020E86400004D
:106AD00000000000EC64000000000000F064000012
:106AE00000000000F464000000000000FC640000EE
:106AF0000000000004650000000000003465000094
:106B0000000004049800002090000020980000205D
:106B10008C1C002018000000901B00204C1B002043
:106B20004000000001000000000000006B65796D6E
:106B30006573736167656E9EF29B75FFFC5B7ABA45
:106B4000E527D58FDADB2FE42E72190119769173C0
:106B500043065F58ED4A00000000000000000000FE
:106B60000000000000000000000000000000000025
:106B70000000000000000000000000000000000015
:106B80000000000000000000000000000000000005
:106B90000000000000000000000000000020004095
:106BA0000000000000200040000000000000000085
:106BB000FF00000000000000FF00000000000000D7
:106BC00000000000000000000000000000000000C5
:106BD0000000000000000000E0640000806400008D
:106BE000D86400008864000098640000906400008D
:106BF000A0640000A8640000B0640000B864000055
:106C0000C0640000C8640000D06400000090D0039D
:0400000500000201F4
:00000001FF
