:020000040000FA
:1000000018270020F902000001030000030300008C
:1000100005030000070300000903000000000000C2
:100020000000000000000000000000000B030000C2
:100030000D030000000000000F030000110300008A
:1000400013030000130300009D050000A10300003E
:10005000B1030000130300001303000013030000AA
:100060001303000013030000130300001303000038
:100070001303000013030000130300001303000028
:100080001303000013030000130300001303000018
:100090001303000013030000130300001303000008
:1000A00013030000130300001303000013030000F8
:1000B0001303000013030000000000000000000014
:1000C00013030000130300001303000013030000D8
:1000D00013030000130300001303000013030000C8
:1000E00013030000130300001303000000000000CE
:1000F00000000000130300000000000013030000D4
:1001000000000000000000000000000000000000EF
:1001100000000000000000000000000000000000DF
:1001200000000000000000000000000000000000CF
:1001300000000000000000000000000000000000BF
:1001400000000000000000000000000000000000AF
:10015000000000000000000000000000000000009F
:10016000000000000000000000000000000000008F
:10017000000000000000000000000000000000007F
:10018000000000000000000000000000000000006F
:10019000000000000000000000000000000000005F
:1001A000000000000000000000000000000000004F
:1001B000000000000000000000000000000000003F
:1001C000000000000000000000000000000000002F
:1001D000000000000000000000000000000000001F
:1001E000000000000000000000000000000000000F
:1001F00000000000000000000000000000000000FF
:10020000DFF80CD000F0BAF800480047590A0000A7
:100210001827002030B4044654E8000F0D4644E887
:100220000053002BF8D1156030BC704730B4044641
:1002300054E8000F40EA010544E80053002BF7D1D1
:10024000156030BC704730B4044654E8000F00EA33
:10025000010544E80053002BF7D1156030BC70470E
:1002600030B4044654E8000F80EA010544E8005326
:10027000002BF7D1156030BC704730B4044654E809
:10028000000F00EB010544E80053002BF7D1156087
:1002900030BC704730B4044654E8000FA0EB0105B1
:1002A00044E80053002BF7D1156030BC704770B4A0
:1002B00004464FF0000054E8006F0D68AE4207BFDF
:1002C00044E80023012044E800630E60002B1CBFBB
:1002D0000020F0E770BC704730B4044654E8000FCB
:1002E00088422CBF451A054644E80053002BF5D13F
:1002F000156030BC7047000006488047064800473C
:10030000FEE7FEE7FEE7FEE7FEE7FEE7FEE7FEE7C5
:10031000FEE7FEE7C103000001020000004870474D
:10032000082B000040EA01039B0703D009E008C93D
:10033000121F08C0042AFAD203E011F8013B00F8AA
:10034000013B521EF9D27047D2B201E000F8012BF6
:10035000491EFBD270470022F6E710B513460A4645
:1003600004461946FFF7F0FF204610BD421C10F866
:10037000011B0029FBD1801A70470000064C074D75
:1003800006E0E06840F0010394E807009847103465
:10039000AC42F6D3FFF738FFA82B0000C82B0000B3
:1003A0000149024801F01EBFA400002000300040B7
:1003B00002494FF0402001F015BF0000D800002096
:1003C00030B54FF0805000228300D0F83011C3F8D0
:1003D0000C21C3F81021624B1A60624B1B68624CFF
:1003E0002360604B1B1D1B68241D23605D4B08337D
:1003F0001B68241D23605B4B0C331B68241D23608A
:10040000584B10331B68241D2360564B14331B6854
:10041000241D2360534B18331B68534C2034236036
:10042000504B1C331B68241D23604E4B20331B682C
:10043000241D23604B4B24331B68241D2360494B30
:1004400028331B68241D2360464B2C331B68241D56
:100450002360444B30331B68434C40342360414B92
:1004600034331B68241D23603E4B38331B68241D26
:1004700023603C4B3C331B68241D2360394B4033C5
:100480001B68241D23600123082902D1D0F83441C0
:1004900014B1082904D006E0354C3449216005E048
:1004A000D0F8344114B1082904D006E0314CFB21C6
:1004B000216005E0D0F8344114B1082908D00EE0DD
:1004C00090F858422C48016864F30301016002E08F
:1004D000D0F834411CB929494FF40070086028480D
:1004E0000168C90702D06FF0010101602548016869
:1004F00041F470010160BFF34F8FBFF36F8F4FF076
:100500001021D1F80002002803DBD1F804020028F2
:1005100022DA1D4C23601D480368002BFCD01223F7
:10052000C1F800320568002DFCD0C1F80432016822
:100530000029FCD0226001680029FCD0BFF34F8F56
:1005400010487C380168124A01F4E06111430160EF
:10055000BFF34F8F00BFFDE70F490E48086030BD65
:10056000380500400404001020C500404881030005
:100570008C56004018F50040E40E004040960240C2
:100580000004004088ED00E004E5014000E4014083
:100590000400FA050090D003A00000200148006884
:1005A000004700002400002002E008C8121F08C114
:1005B000002AFAD170477047002001E001C1121FE4
:1005C000002AFBD17047000072B601F03BF800BF73
:1005D00000F086FE0028FBD111481249401AC408D9
:1005E000012000EB044010A100F092FF11480068C8
:1005F000C00700D000BE022000EB04400EA100F0B6
:1006000087FFBFF34F8F0B48E43801680E4A01F4AF
:10061000E06111430160BFF34F8F00BFFDE70000B1
:10062000F82B0000D82B0000466174616C206572C5
:10063000726F7200F0ED00E053797374656D207293
:1006400065736574000000000400FA050EB5002112
:100650000091CDE901106A4644F20100FFF7B4FFB2
:100660000EBD00F003B800F009B8000072B60248F1
:100670000168491C016070472C000020034908688C
:10068000401E086000D162B6704700002C000020B8
:1006900070B5054608680C46411C04D000F02EFDDC
:1006A000206800F0D9FC6068411C02D0002100F0F5
:1006B000C1FC2968A069C1F82405607D227D2968F4
:1006C0001043C1F86C05D4E900122868C0F814255D
:1006D000C0F80C15207D012814D1A068411C02D05F
:1006E000002100F0A7FCE068411C04D000F006FDEA
:1006F000E06800F0B1FCD4E902122868C0F80825CF
:10070000C0F8101570BD70B5054608680C46411C50
:1007100004D000F0FDFC206800F0A8FC6068411CDB
:1007200002D0002100F08FFC2968A069C1F82405DF
:10073000607D217D2A680843C2F86C05D4E9001267
:100740002868C0F80C15C0F81425207D012814D1A4
:10075000A068411C02D0002100F075FCE068411C3B
:1007600004D000F0D5FCE06800F080FCD4E902126F
:100770002868C0F80825C0F8101570BD2DE9F047AD
:100780000546861C90460F464FF001090020FFF7F2
:1007900068FF1B4C20683860D4E90001401AA1684A
:1007A00004F21C47081A0EE00121384600F022FA34
:1007B00000F004F90146384600F01CFAD4E90001C3
:1007C000401AA168081A401C8642EDD8B8F1000F03
:1007D00003D0052065F3891002E0062065F39F50E1
:1007E000A2682168114004EB8101C8602068304490
:1007F00020600020FFF737FF4846BDE8F087000083
:10080000F402002070B50D4604460A2902D10D21DC
:10081000FFF7F8FFA0682268411CA1601554D4E9D5
:100820000101814204D32046BDE8704000F0ABBA1C
:1008300070BD0000034803C8814201D10120704708
:1008400000207047F402002010B50021024800F09B
:10085000DCF980F3100010BD100700202DE9FC5FCB
:100860000E008346DDE90C47C6F10000984692462B
:10087000814600D40846012503E000BF90FBFAF052
:100880006D1C5045FADAA84500D9454624B1002E22
:1008900001DB780700D5641EB80702D5B8F1000F58
:1008A0000AD0F80708D13CB1A54205D2202158460C
:1008B000641EFFF7A7FFF6E7002E02DA4E462D2151
:1008C00002E0780703D52B215846FFF79BFF07F07E
:1008D000030002280BD1B8F1000F08D13CB1A542AA
:1008E00005D230215846641EFFF78CFFF6E7CDE9AC
:1008F0000047434652463146584601F0E9FFBDE8FD
:10090000FC9F000070B50D46044600684FF48871E6
:1009100000F0A6FF4FF49071206800F0A1FF4FF4A3
:100920009271206800F09CFF4FF4A271206800F0E3
:1009300097FF4FF4AC71206800F092FF20681149D6
:10094000C0F804132068690740F30730090E002837
:1009500006DA00F00F0000F1E02080F8141D03E03B
:1009600000F1E02080F800142068012140F30730F6
:1009700000F01F0291404009800000F1E020C0F823
:10098000001170BD10034200024600201268530798
:1009900013D502F00300012802D002280CD105E093
:1009A000C2F383100B68801C184404E0022308681B
:1009B00003EB925210440860012070472DE9FF417B
:1009C0000026234800F013F92148001F074600F0D5
:1009D0000EF9204C60680090A56800E00098694618
:1009E000284004EB80000C30FFF7CEFF0028F5D143
:1009F00001AA009901EA050304EB8303491CDB68A3
:100A000042F82030401C00910228F2D3019800F0F7
:100A1000030001280BD0022810D10198032101EB1B
:100A200090500099BDF80A6001EB900005E0019834
:100A3000BDF80A60C0F3831008440090384600F007
:100A4000D3F808B10098606004B03046BDE8F0818A
:100A50000C070020F4020020002608B5314630467D
:100A600000F0BAFD08B1FFF7F1FD00F02BFC1948CA
:100A70001949401AC108032000EB0140054617A19F
:100A800000F046FD00F02CFC0028FBD101F074FBC7
:100A90000124184821466A46012300F0A3FF28B923
:100AA00001262846224614A100F036FD00F018FC6D
:100AB0000028FBD1641CE4B27F2CEAD946B9284651
:100AC00017A100F025FD00BF00F00AFC0028FBD1B3
:100AD000FEE70000F82B0000D82B000054574920F7
:100AE0007363616E6E657220737461727465642ED7
:100AF00000000000F429000054574920646576691D
:100B00006365206465746563746564206174206145
:100B100064647265737320307825782E00000000BD
:100B20004E6F206465766963652077617320666F18
:100B3000756E642E000000002DE9F047C5881E1D6B
:100B4000B6FBF5F78946B6FBF5F1044605FB176CD5
:100B5000407916686843DDF820A0F718001F874227
:100B600000D9C61A166001E02468491E0029FBD18D
:100B7000A5EB0C078846B74216D818E004EB0C002A
:100B8000001D09EB0803BAF1000F3A4602D00146F6
:100B9000184600E01946FFF7C5FB2468F61B4FF026
:100BA000000CB844B54201D9374600E02F46002E6C
:100BB000E4D1BDE8F087000030B5024651B100F045
:100BC00029FD0021074C08E034F821301568AB42BC
:100BD00002D11160002030BD491C8142F4D30520B0
:100BE00030BD000000000000002100F009B8012124
:100BF00000F010B808B56A46FFF73FFB009808BD43
:100C000008B56A46FFF71FFB08BD08B56A46FFF73F
:100C100001FB08BD08B56A46FFF708FB009808BD50
:100C200008B56A46FFF736FB009808BD70B5044664
:100C300000252846FFF715FD216862680868904284
:100C40000ED9401E08600178238AE26801FB032563
:100C5000227A2168101AC0B20A79824200D2087141
:100C60000020FFF700FD284670BD70B505460C4614
:100C70000020FFF7F6FCE868298A201AB0FBF1F1A2
:100C80002A681068431C13600170BDE870400020A2
:100C9000FFF7E9BC10B530B1017A42680368891AE0
:100CA000C9B21A6006E00E2010BD03681A68541C11
:100CB0001C601170491EC9B2F7D200680021017191
:100CC000084610BD2DE9F041064604780B4815464C
:100CD0000F4640F82420083040F82430487B10B1FB
:100CE000084601F0F7F90DB1054A00E0002223465D
:100CF0003946301DBDE8F04100F004BE0000002080
:100D0000A5210000F0B505460478154889B01646BF
:100D100040F82420124A08690832A2F10C0742F870
:100D20002400487F385520226846FFF7FBFA0494D8
:100D30002878385C48B10EB10A4A00E000226946C2
:100D4000281D00F0B1FF09B0F0BD0EB1064A00E069
:100D50000022694605F10C0000F078FEF3E7000080
:100D6000140000208D270000D52500000FB408B521
:100D70000399002904D004AA00926A4600F00FF8F3
:100D800001B05DF814FB10B582680446002A05D056
:100D9000D4E90403216898470020A06010BD2DE924
:100DA000FC4791460C00804676D014F8011B39B1FF
:100DB00025290ED04046FFF725FD20780028F4D1E4
:100DC00098F80C00002867D04046BDE8FC47FFF7C4
:100DD000DABF0020012221782B291BD02D2902D037
:100DE000302908D102E040F0010001E040F00200AB
:100DF000641C002AEFD100252A290ED02178A1F108
:100E000030020A2A11D205EB850201EB4205641C6F
:100E1000303DF1E740F00400EAE7D9F800100B1D7F
:100E2000C9F800300968641C0D44217800232E297C
:100E30000BD114F8011FA1F130020A2A05D203EBED
:100E4000830201EB4203303BF3E76C290DD06829A4
:100E50000BD0692921D00BDC252918D0582931D095
:100E600063290ED0642915D117E014F8011FECE7AF
:100E7000702969D0732932D075291BD0782909D1FE
:100E800020E0D9F80000011DC9F8001001784046A3
:100E9000FFF7B8FC641C90E76CE0D9F800100A1D5D
:100EA000C9F800200968CDE900500A224046FFF742
:100EB000D5FCEFE7D9F800100A1DC9F80020096831
:100EC0000A2206E0D9F800100A1DC9F800200968B6
:100ED0001022CDE90050404601F0FAFCDAE7D9F8DB
:100EE000001000270A1DC9F800200E68C00705D1B0
:100EF00012E04046761C7F1CFFF784FC3178002905
:100F0000F7D104E0202140466D1EFFF77BFCBD4277
:100F1000C0D9002DF6D1BDE74EB13046FFF726FA15
:100F2000074604E0202140466D1EFFF76BFCBD42E2
:100F300006D9002DF6D103E04046761CFFF762FC8F
:100F400031780029F8D1A5E7D9F80000011DC9F8CA
:100F50000010056830214046FFF754FC78214046D8
:100F6000FFF750FC08200021CDE9000103461022C4
:100F70002946B0E7BDE8FC8770B52028DDE90465A7
:100F800002D24FF0A04402E0074C00F01F0041EAFB
:100F9000420141EA830141EA062104EB800041EA73
:100FA0000541C0F8001770BD000300502DE9FF4156
:100FB0001C46DDE90A7815460E46684600F078F8CA
:100FC00046EA450141EA840141EA072242EA084132
:100FD000009A00EB8200C0F80017BDE8FF812DE900
:100FE000FF411C46DDE90A7815460E46684600F0CA
:100FF0006DF846EA450141EA840141EA072242EAE6
:101000000841009A00EB8200C0F80017BDE8FF819C
:101010001CB5002100910B4601220191FFF7C6FF8C
:101020001CBD1CB5002100910B4601220191FFF768
:10103000D6FF1CBD1CB500220B4600921146019242
:10104000FFF7B4FF1CBD1CB500220B4600921146F1
:101050000192FFF7C4FF1CBD1CB5002100910B4697
:10106000012201911146FFF7A1FF1CBD1CB5002113
:1010700000910B46012201911146FFF7B0FF1CBD04
:1010800001B5684600F006F8009A01219140C0F8C9
:101090000C1508BD0168202902D24FF0A04070470E
:1010A00001F01F010160014870470000000300507B
:1010B0000168202902D24FF0A040704701F01F01C3
:1010C00001600148704700000003005001682029BA
:1010D00002D24FF0A040704701F01F0101600148AB
:1010E000704700000003005001B56846FFF7D2FFCB
:1010F000009A01219140C0F8081508BD01B5684665
:10110000FFF7D6FF009A01219140C0F8081508BDED
:1011100001B56846FFF7DAFF009A01219140C0F857
:10112000081508BD30B5154A01460020D2F8104414
:1011300023460AE0DB681D79854205D1401C0A2858
:10114000F6DB4FF0FF3030BD1B68002BF2D1431CA3
:10115000F9D0CB681871D2F8103443B1DB68CC6891
:101160001B682360D2F81024D268116030BDC2F829
:101170001014C96800220A6030BD0000F40200208B
:10118000F0B595B01C4615460F4608461A9E00F06D
:1011900013FB182109A8FFF7DEF80E96CDE90954D4
:1011A0000023082203A9384600F01BFB059806908F
:1011B000BDF81000ADF81C00BDF81200ADF81E001F
:1011C00000208DF821000398082600F00300012874
:1011D00002D0022818D032E003983346850AC0F3C3
:1011E000C2008DF8200003980FA9C0F38314A20059
:1011F000384600F0F6FA09A8009006AB22460FA97F
:10120000284600F035FA1AE00398840DC0F3C200B6
:101210008DF82000082C01D2254600E00825334631
:101220002A460FA9384600F0DCFA2E44641B09ABAD
:1012300006AA29460FA800F077F9002CEAD1384613
:1012400000F0C0FA15B0F0BD7047012001F0E0B920
:10125000084810B50178084A515C19B1001D00F02A
:10126000BDFD02E00C3000F0BDFCBDE810400020E8
:1012700001F0CEB9340000201000002008B5034A68
:1012800000924023024AFFF77BFF08BD09200000BF
:101290005C0100200A4A012902EBC00007D00229A4
:1012A00007D0032907D0042907D000207047022067
:1012B00070470420704700797047407970470000FC
:1012C000D82B000010B5FFF7C0FF04210348FFF73B
:1012D00029FF02490120C968487110BDC82B0000D0
:1012E0002DE9F0478CB0FFF7A5FA18B100200CB03B
:1012F000BDE8F0877D4C0020C4F81804BFF34F8F81
:1013000060680290A5684FF00008284004EB800058
:101310000CE000BFD4F8180470B92168029881422B
:1013200001D86160E2E7284004EB80000C3002A99C
:10133000FFF72AFB0028EDD1002003AA029901EA59
:10134000050304EB8303491CDB6842F82030401C92
:1013500002910228F2D3039800F00300022802D081
:1013600001284DD0A7E003985022810D8946B2EBA9
:10137000905F00D850210E4666F39F5003900831CD
:101380005B4800F0D0F9070078D000F015FA43462A
:10139000082203A9384600F02CFA029908F1080A3D
:1013A0002940681A8000001D864222D94F4D0C3515
:1013B00030B1C2B204EB8101301A90460C3104E026
:1013C0002946F2B2002590462846C6B25346384612
:1013D00000F00FFA0AEB080325B1324629463846D9
:1013E00000F007FA029909F1030001EB9000029066
:1013F0003BE004EB81015346324638460C31EFE7BF
:101400000398C0F38310062800D30620039960F3E5
:101410008911C1F38310801C03918100344800F0CE
:1014200082F9070047D000F0C7F94346082203A914
:10143000384600F0DEF908F1080800260FE00298AF
:10144000434600EA0501401C04EB8101029004229E
:1014500038460C3100F0CDF908F10408761C0398E9
:10146000C0F38310B042EAD847B1D4F81054D4F88E
:10147000180478B1384600F0A5F931E01BE0E868BF
:101480004079012804D12A682846394612689047D5
:10149000E8680568002DF2D1384600F093F9002085
:1014A000FFF7DFF8D4F8180408B90298606000204C
:1014B000FFF7D9F814E0D4F8104405E0216820467D
:1014C00089688847E0680468002CF7D109480A4910
:1014D000401AC008022101EB004008A100F018F8F2
:1014E000FFF7A8F980F0010001E70000F4020020F6
:1014F000002C0000F82B0000D82B00004261636B29
:10150000656E647320666C75736865640000000026
:1015100000231A4600F098BD08B5012300926A46E0
:1015200000F092FD08BD00002DE9F0470E46804610
:101530001C469246082940D894F80C90002020734D
:101540001946104600F0D8FC0025B54206D218F81E
:1015500005201BA12046FFF709FC03E01AA1204645
:10156000FFF704FC6D1C082DEFD318A12046FFF7F0
:10157000FDFB0025B54212D218F805707E2F08D861
:10158000FEF7CCFE0068C05D10F03E0F01D03A4679
:1015900000E02E220EA12046FFF7E8FB03E00DA19C
:1015A0002046FFF7E3FB6D1C082DE3D30122214603
:1015B000504600F083FC84F80C90BDE8F0870000F2
:1015C0002025303278000000202020007C00000020
:1015D00025630000200000000B4810B5FF2181604A
:1015E000002101604160C0F81814C0F8141480F89C
:1015F0002014064800F0E4F8002803D1044800F065
:1016000000F9002010BD0000F4020020002C0000B2
:10161000782A000002480349401AC00870470000B9
:10162000002C0000D82B000013B56846FFF7C4FA61
:1016300008B100201CBD0248009950F831001CBDC3
:10164000D82B000070B509480125D0F8104480F867
:10165000205407E0E06845712168204649688847C2
:10166000E0680468002CF5D170BD0000F402002091
:101670002DE9FF4781460C9D00200C462F7B2873E7
:10168000984616462946184600F036FC072E42D2E8
:10169000DFE806F004090F161F2A360049462846DF
:1016A000FFF764FB37E0494628462268FFF75EFBF8
:1016B00031E0D4E9002349462846FFF757FB2AE0EA
:1016C000A0680090D4E9002349462846FFF74EFB66
:1016D00021E0D4E90201CDE90001D4E90023494623
:1016E0002846FFF743FB16E004F1080007C88DE821
:1016F0000700D4E9002349462846FFF737FB0AE0F4
:1017000004F108000FC88DE80F00D4E90023494612
:101710002846FFF72BFB00222946404600F0CEFB6F
:101720002F73BDE8FF872DE9F041058A80462D1F04
:101730004819C01CB0FBF5F0C6B24046FFF776FA78
:10174000041E19D00020207101206071E58000275F
:101750002546761EC4F800800BE04046FFF766FA87
:1017600060B16179491C6171286005467F1CC0F831
:101770000080B742F1D32046BDE8F081204600F05A
:1017800002F80020F8E72DE9F041457901466B1E8B
:10179000002201E00968521C9A42FBD30F680146FF
:1017A000002605E038460C68FFF75FFA2146761CF4
:1017B000AE42F7D3BDE8F0810121001DFFF71ABA50
:1017C000FFF768BA10B504460121001DFFF728FA9B
:1017D00010F0FF0F04D12046BDE81040FFF7D3BF43
:1017E00010BD1CB501920122009201AAFFF7A4F9D5
:1017F0001CBD1CB501920022009201AAFFF79CF9C2
:101800001CBD82680021916082681161826851610B
:101810008268D1608268516080680160704740587A
:10182000002800D00120704708B5002242504058DF
:10183000009008BD4058002800D00120704708B52E
:10184000002242504058009008BDD0F804030840E0
:1018500000D0012070474058002800D00120704778
:1018600008B5002242504058009008BD002802D020
:101870000149800108477047112A00000121B1EB9E
:10188000507F01D101207047002070470121B1EB4A
:10189000507F01D1012070470020704770B50D4680
:1018A00000F076FB04000FD00020FEF7DAFE20796E
:1018B00020B10020FEF7D7FE112070BD0120256069
:1018C00020710020FEF7CFFE002070BD10B500F0A3
:1018D0005FFB002802D000210160017110BD0000F3
:1018E0000179006801EB810202EBC101044A02EBBD
:1018F00081010622C0F80025022081F82D007047E2
:10190000A40000202DE9FC410646007917460D464B
:1019100000EB8001314A01EBC00102EB81049846E3
:1019200094F82D1011B10820BDE8FC812C4951F824
:1019300020103068FFF7B2FF08B11120F4E7C4E9C6
:1019400000780027A76084F8307084F82F70687BD7
:1019500084F832004FF00608CDE9008703233A46A9
:1019600039462868FFF708FBCDE9008700220323EA
:1019700011466868FFF700FBD5E900123068C0F82F
:101980000815C0F80C25A968C0F8241520680122A4
:10199000F8B1306840F30731287B00294FEA401046
:1019A00006DA01F00F0101F1E02181F8140D03E0E6
:1019B00001F1E02181F80004306840F3073000F0C5
:1019C0001F0102FA01F14009800000F1E020C0F897
:1019D000001184F82D200020A6E70000A4000020BC
:1019E000182A0000F0B585B015460E4607461C467D
:1019F000142207496846FEF795FC8DF80160002225
:101A0000694638460395019400F004F805B0F0BD2E
:101A1000202A000030B40379006803EB830404EB50
:101A2000C303054C04EB830413460A4601462046D3
:101A300030BC00F07FBC0000A40000200149024837
:101A400000F00EBE0C010020002000402DE9F04106
:101A50000546007916460F4600EB40012C4A01EB83
:101A6000C00102EB810494F82A1011B10820BDE8EE
:101A7000F081284951F820102868FFF70FFF08B1BE
:101A80001120F4E739462846FEF702FE6660386901
:101A9000206030004FF001062DD03F7F4FF48E7153
:101AA0002868FFF7CCFE4FF4A2712868FFF7C7FE45
:101AB00028681949C0F8041328684FEA471140F311
:101AC0000730002806DA00F00F0000F1E02080F86F
:101AD000141D03E000F1E02080F80014286840F3B2
:101AE000073000F01F0106FA01F14009800000F103
:101AF000E020C0F8001128680421C0F8001500207B
:101B0000A061E06184F8290044F8140FA675AEE7DF
:101B10000C010020342A0000800002002DE9F05F53
:101B2000054600790B4600EB400101EBC00024495B
:101B300001EB8004284600F045F810B11120BDE803
:101B4000F09F62614FF00009C4F82090A36084F810
:101B500028904FF48E784E4641462868FFF76FFE76
:101B600028684FF0010AC0F808A02146286800F054
:101B700007FD606808BBD5F800B067690FE000BFDB
:101B800094F8280008B10F2615E041465846FFF7A3
:101B900051FE0028F4D02146584600F0F1FC206A9E
:101BA000B842F2D3574641462868FFF743FE002863
:101BB000F9D02868C760C4F814903046BFE7000029
:101BC0000C010020007900EB400101EBC00004494A
:101BD00001EB80004069002800D001207047000020
:101BE0000C0100202DE9F047044600794FF0000970
:101BF00000EB400101EBC000254901EB80072068A4
:101C0000C0F80095786880B120682249C0F80813B0
:101C10002068012140F3073000F01F029140400985
:101C2000800000F1E020C0F880112068D0F80C2579
:101C3000D0F81485D0F80865D0F810554FF0FF3172
:101C4000C0F81415C0F80C152068C0F80815C0F8C5
:101C50001015501C02D01046FFF7DAF9B8F1FF3F1B
:101C600002D04046FFF7D4F9681C02D02846FFF79F
:101C7000CFF9701C02D03046FFF7CAF92068FFF791
:101C800025FE87F82A90C7F80490BDE8F087000089
:101C90000C010020840202000149024800F08EBDC0
:101CA00038010020002000402DE9F041054616468D
:101CB00000790F46154A00EBC00102EB810494F84D
:101CC000201011B10820BDE8F081114951F8201011
:101CD0002868FFF7E3FD08B11120F4E739462846EC
:101CE000FEF711FD6660386920601EB1397F284615
:101CF000FEF708FE28680821C0F800150020A06142
:101D0000E0616061012184F82010DCE738010020E7
:101D1000382A00002DE9F04704460E46007927498D
:101D200000EBC00001EB800517463046FFF7AEFD23
:101D300030B1204600F044F820B11120BDE8F08712
:101D40001020FBE76F61AE604FF490774FF0000812
:101D500039462068FFF784FD4FF4AC7631462068A1
:101D6000FFF77EFD2068AA686969C0F84425C0F8BD
:101D7000481520684FF00109C0F808906868D0B98C
:101D8000BA4651462068FFF766FD0746314620688F
:101D9000FFF761FD0743F4D010B14FF00F0808E0E2
:101DA0002068C0F80C9031462068FFF754FD0028E9
:101DB000F9D0002068614046C0E7000038010020EB
:101DC0000079054900EBC00001EB80004069002864
:101DD00000D0012070470000380100202DE9F047B5
:101DE00004460079334900EBC00001EB8007012570
:101DF000786880B120683049C0F80813206840F343
:101E0000073000F01F0105FA01F14009800000F1E0
:101E1000E020C0F880112068D0F8001221F02001E5
:101E2000C0F80012206845604FF4AC763146206857
:101E3000FFF716FD2068C56031462068FFF70BFDEF
:101E40000028F9D020684FF00009C0F800952068FC
:101E5000D0F80C25D0F81485D0F80865D0F81055C6
:101E60004FF0FF31C0F80C15C0F814152068C0F809
:101E70000815C0F81015501C02D01046FFF7D1F815
:101E8000B8F1FF3F02D04046FFF7CBF8681C02D004
:101E90002846FFF7C6F8701C02D03046FFF7C1F89D
:101EA0002068FFF713FD87F82090C7F80490BDE87D
:101EB000F0870000380100201003420010B50C46E6
:101EC000017A052908D0407A38B1084808A102688B
:101ED0002046FEF74BFF00E01AB106A12046FEF7B0
:101EE00045FF2046BDE81040FEF74DBF7C000020B6
:101EF000257300000D0A000038B5C3880D4604465E
:101F000033B114A0009015A216A12846FEF72EFFAB
:101F1000217A05291CD0607A48B1A088FFF7BAF968
:101F2000164951F8202016A12846FEF71FFFA08869
:101F30000021FFF779FB03461049207A143951F844
:101F4000202001B02846BDE830400EA1FEF70EBFAC
:101F500038BD00001B5B306D000000001B5B313B97
:101F600033316D0025734C6F67732064726F70702E
:101F70006564202825642925730D0A007C00002053
:101F8000257300003C25733E2025733A2000000095
:101F90000349884201D10348704700207047000080
:101FA000002000402400002070B5054688690C46DA
:101FB00000284FF4847128460AD0FFF740FCD5F87A
:101FC0001805626AE1688854606A401C606270BDEE
:101FD000FFF735FCD5F8180570BD1FB501238DF846
:101FE0000030CDE90121D0E90012684690471FBDBD
:101FF0001FB501238DF80030CDE90121D0E9001291
:10200000684690471FBD000070B50D4C0020D2B24D
:102010002070201D0B4D0378EB5C1BB1001DFFF7FA
:1020200079FE02E00C30FFF779FD08B1FEF70EFBF8
:102030006078002802D021780029FAD070BD000015
:1020400030000020100000202DE9F84F204D92466E
:10205000894606469846012269461846AF68FEF74B
:102060008DFB58B3009800210446801C09E000BF96
:1020700000EA07035AF8212005EB8303401C491CA2
:10208000DA604145F4D34FEA164AFEF7DDFB4AEA2F
:102090000041601C384005EB80003C4005EB8402A9
:1020A000C160D06866F3C50068F3891069F39F20AA
:1020B00020F00300401C20F00400D06095F82004BC
:1020C00002E000BFFFF70CF90028FBD1BDE8F88F54
:1020D000F402002038B5044640F20C602168890003
:1020E00001F1A041C1F800076168890001F1A04138
:1020F000C1F800072068FEF7F7FF6068FEF7F4FFFD
:10210000216840F20D60890001F1A041C1F800078B
:102110006168890001F1A041C1F800070420FFF7C0
:10212000A5FB0025606800906846FEF7B3FFD0F875
:1021300010050099C84010F0010F02D0002D1AD0F0
:102140000EE02068FEF79CFF0420FFF78FFB20685D
:10215000FEF7CAFF0420FFF789FB6D1C092DE1DBA8
:102160006068FEF78DFF0420FFF780FB6068BDE824
:102170003840FEF7B9BF38BD1FB5094B0FCB8DE80E
:102180000F00074800231A4669461038FEF79AFDEB
:1021900008B1FEF75BFA02480C38FFF7A1FB1FBD40
:1021A000002A00001FB50A4601788DF80010017959
:1021B0008DF8041041798DF80510017A8DF806101C
:1021C000017B8DF807100169029140690390044872
:1021D00050F82210083850F82220684690471FBD5A
:1021E000080000202DE9F04F0D464FF4927887B09B
:1021F00004464146FFF713FB4FF0020901264FF456
:10220000827740B141462046FFF70EFB3946204613
:10221000FFF705FBE0B14FF482712046FFF7FFFAAC
:10222000DFF80C810100EB4605F10C0A4FF00007C6
:1022300036D04FF482712046FFF7F6FA1422514649
:102240000BF10400FEF76EF895F82E0078B116E059
:10225000A868C4F80803C5F80890A868C4F804037F
:102260002662666185F82E6007B0BDE8F08F2946CA
:10227000204600F087FB80F0010085F82E004FF427
:10228000B0712046FFF7D0FA4FF4AE712046FFF749
:10229000CBFA95F8300008B395F82E00F0B923E09A
:1022A0004FF4A4712046FFF7BFFA287B68B14FF4C2
:1022B0000070C4F80002801CA860C4F80883A868F5
:1022C000C4F80403A6602662CEE7142251460BF13F
:1022D0000400FEF727F895F8300028B90020C4F86C
:1022E0000002AF60C4F80883D4F8C404C4F8C4047E
:1022F000810702D58DF800600FE0410701D4C007C7
:1023000002D08DF8009008E095F82E0018B1042056
:102310008DF8000001E08DF8007095F8300008B9E4
:1023200085F82F70D5E90021684690479CE70000AA
:1023300002029C012DE9F05F4FF00009064680F88B
:102340002E901F4615460C464FF0080B4FF4827A2C
:10235000D068FFF793FA002879D08748C4F80803BB
:1023600096F82F0028B1B068C4F804031120BDE826
:10237000F09F780703D4F80601D4012000E0002084
:1023800086F82F001422294606F10C00FDF7CAFF3B
:10239000C7F3001086F830006878C4F888054FF459
:1023A00082712046FFF740FA4FF492712046FFF702
:1023B0003BFAF8074FF0010800D04046C4F850053A
:1023C000B80701D5404600E00020C4F84005287851
:1023D000E0B301287BD002284FD0032814D04FF05F
:1023E0000709380704D42878032801D044F80B8063
:1023F000306800286CD0780702D54FF40070B060C8
:10240000B068C4F80403B4E02869FFF737FAF0B104
:102410004FF48070C4F800026968E868C4F84405A5
:10242000C4F848154FF4A8712046FFF7FDF94FF4A2
:10243000B0712046FFF7F8F94FF4A4712046FFF77A
:10244000F3F9C4F82080C4F8088001E02AE027E00E
:102450004FF4A8712046FFF7E2F90028F5D04FF4B9
:10246000A8712046FFF7E0F92969A868C4F8441567
:10247000C4F848054148B060B3E76968E868C4F843
:102480004405C4F848152869FFF7F8F940B12969EF
:10249000A868C4F83415C4F838054FF484501AE01D
:1024A000102064E7E9686868C4F84415C4F8480572
:1024B000B8060ED54FF48070C4F800022F48B06003
:1024C0004FF4A47A51462046FFF7AEF908E00AE03F
:1024D00019E04FF40070C4F8000240F20220B0602E
:1024E000C4F820807DE7E9686868C4F83415C4F84A
:1024F00038054FF48050C4F8000240F20220B0606A
:102500004FF0000BECE745464FF482774FF492789A
:102510000BE041462046FFF782F930B141462046A4
:10252000FFF782F925626561BA4651462046FFF7FA
:1025300076F90028EDD0D4F8C404C4F8C40400210E
:1025400086F82F1070B10321C20701D04FF4024169
:10255000820701D548F20121400701D548F2022146
:10256000894606E03146204600F00CFA08B94FF0E3
:1025700003094846FBE6000002029C010002040039
:1025800070B50C4605464FF48E71FFF758F9216A75
:10259000A068415C206A401C2062C5F81C1570BD13
:1025A0001FB500228DF800200291816801914261DF
:1025B000D0E90012684690471FBD1FB500228DF874
:1025C00000200291816801914261D0E900126846C1
:1025D00090471FBD1FB50A4601788DF8001041686D
:1025E0000191017A8DF80810C0680390044850F8F2
:1025F0002210083850F82220684690471FBD00007E
:102600001C000020014901200870704730000020A4
:1026100010B588B0044620220E496846FDF782FEB8
:1026200006200090C01F0190029003904FF0EB70C5
:1026300006900CB1084A00E0002269460748FEF700
:1026400061FB08B1FEF702F80448001F447008B0AF
:1026500010BD0000582A00000526000034000020AC
:102660002DE9FF470C4605464FF40071FFF7EDF8E2
:1026700001274FF40178002618B34FF492794946A8
:102680002846FFF7D7F8E0B149462846FFF7D7F8C4
:10269000C5F8088394F8290000B96F6002208DF80E
:1026A0000000D5F88004C5F880040390A06902906A
:1026B000E0680190A661E661D4E90012684690479F
:1026C00028E004212846FFF7C0F818B34FF48471BE
:1026D0002846FFF7AFF8E8B121462846FFF764FC2B
:1026E000616AA069884215D1E06938B1E268616A1F
:1026F000A0612069E6616662E06008E094F8290064
:1027000000B96F60C5F80883A661E268616A204677
:10271000FFF763FC4FF48E7841462846FFF78AF8AE
:1027200080B16069216A814202D294F8280028B3FE
:1027300041462846FFF783F8606918B16169204671
:10274000FFF72EFF4FF4A27841462846FFF772F8B4
:10275000002818D041462846FFF771F894F8290060
:1027600000B12F60A06900280DD0A661E268616AFF
:1027700004B02046BDE8F047FFF72FBC21462846AD
:10278000FFF7FEFEDEE7BDE8FF8700001FB50A4643
:1027900001788DF8001041680191017A8DF80810D8
:1027A000C0680390044850F82210083850F82220DE
:1027B000684690471FBD00001C0000202DE9FF4126
:1027C0000C464FF4927705463946FFF744F8002649
:1027D000B8B139462846FFF743F802208DF80000CB
:1027E000D5F88004C5F880040390D5F83C05029024
:1027F000E0680190A661E661D4E90012684690475E
:1028000023E04FF4887739462846FFF724F8E0B1F3
:1028100039462846FFF724F8D5F83C15A0698842C8
:1028200013D1E06960B1E268D5F8000220F0200021
:10283000C5F80002E069A0612069E661E06001E09E
:10284000A661E2682046FFF7D3FB4FF4A277394632
:102850002846FFF700F868B139462846FFF700F828
:10286000A06938B1A661E661D5F83C152046E2685A
:10287000FFF7BEFB4FF4907631462846FEF7EBFF9C
:1028800060B131462846FEF7EBFF0120E860606941
:1028900020B1D5F84C152046FFF78FFE4FF4AC76EB
:1028A00031462846FEF7D7FF00280ED0314628468D
:1028B000FEF7D6FF6069002807D0D5F84C1504B0A4
:1028C0002046BDE8F041FFF778BEBDE8FF8100007B
:1028D0002DE9F05F8346DDE90A4A994690460D46A8
:1028E0000846012703E000BFB0FBF8F07F1C40451D
:1028F000FAD2B94500D94F465FEACA7012D18CB1FD
:102900005FEA8A7002D5B9F1000F01D0202607E0F6
:10291000302605E031465846641EFDF773FF0CB1C2
:10292000A742F7D35FF00106B9F1010F02D9A9F16F
:10293000010903E0B5FBF6F0404502D306FB08F6BB
:10294000F2E7DFF83C9000BFB5FBF6F000FB165550
:1029500019F800105846FDF755FFB6FBF8F6002EA3
:10296000F2D15FEACA7009D0002C07D0A74205D285
:1029700020215846641EFDF745FFF5E7BDE8F09FAE
:102980003C2A000010B50B7B0122FBB1012B20D0AB
:10299000022B12D0032B27D18B68144CA34204D1F5
:1029A000D0F84C350C69A34218D18B68A3F500749C
:1029B000023C19D1D0F84C3506E0D0F84C350C6902
:1029C000A3420BD1D0F83C35496905E0D0F84C352D
:1029D00001E0D0F83C3509698B4205D00022C0F8EF
:1029E00000250621C0F80015104610BD00020400A5
:1029F0000000000000300040000000000100000066
:102A00001B0000001A0000000000980102000000F6
:102A10000338FDD870470000A1030000B103000097
:102A200001000000000000000000000000000000A5
:102A3000000000003D1A0000991C000030313233C4
:102A40003435363738394142434445467D1200001B
:102A50005112000049120000FFFFFFFFFFFFFFFFC0
:102A6000FFFFFFFFFFFFFFFF00000000000000006E
:102A70000000D601060100005C0200207F0000007B
:102A8000DC02002000404040404040404040414186
:102A90004141414040404040404040404040404033
:102AA00040404040400502020202020202020202CD
:102AB00002020202022020202020202020202002CA
:102AC000020202020202909090909090101010105A
:102AD00010101010101010101010101010101010F6
:102AE000020202020202888888888888080808088A
:102AF0000808080808080808080808080808080856
:102B00000202020240000000852A00007761726E16
:102B1000696E670064656275670000001B5B313B8E
:102B200033306D001B5B306D000000001B5B313BE0
:102B300033316D001B5B313B33326D001B5B313B2E
:102B400033336D001B5B313B33346D001B5B313B1A
:102B500033356D001B5B313B33366D001B5B313B06
:102B600033376D00696E666F000000006572726F2A
:102B700072000000505253005457494D00000000AD
:102B80005541525400000000554152544500000088
:102B9000756172745F6C6F675F6261636B656E64B1
:102BA0000000000061707000142C00000000002084
:102BB000A4000000A8050000B82C0000A40000201C
:102BC00074260000B80500004C2A00000000000038
:102BD000902B000048000020742B00000000000033
:102BE000782B000000000000802B00000000000097
:102BF000882B000000000000A42B0000000003034D
:102C00005800002050000020580000209C010020A7
:102C1000180000000000000000000000000000009C
:102C200000000000000000000000000000000000A4
:102C30000000000000000000000000000000000094
:102C40000000000000000000000000000020004024
:102C50000000000000200040000000000000000014
:102C6000FF00000000000000000000000000000065
:102C70000000000000000000000000000000000054
:102C80006C2B00000C2B0000642B0000142B0000A8
:102C9000242B00001C2B00002C2B0000342B0000E8
:102CA0003C2B0000442B00004C2B0000542B000058
:082CB0005C2B00000090D00332
:0400000500000201F4
:00000001FF
