Component: ARM Compiler 5.06 update 6 (build 750) Tool: armlink [4d35ed]

==============================================================================

Section Cross References

    main.o(i.main) refers to keyboard.o(i._Z13keyboard_initv) for keyboard_init()
    main.o(i.main) refers to keyboard.o(i._ZN5TLeds6SetAllEb) for TLeds::SetAll(bool)
    main.o(i.main) refers to keyboard.o(i._ZN5TKeys4SendEv) for TKeys::Send()
    main.o(.ARM.exidx) refers to main.o(i.main) for i.main
    keyboard.o(i._Z13keyboard_initv) refers to misc.o(i.NVIC_PriorityGroupConfig) for NVIC_PriorityGroupConfig
    keyboard.o(i._Z13keyboard_initv) refers to delay.o(i.delay_init) for delay_init
    keyboard.o(i._Z13keyboard_initv) refers to aip1638.o(i.aip1638_init) for aip1638_init
    keyboard.o(i._Z13keyboard_initv) refers to led.o(i.led_init) for led_init
    keyboard.o(i._Z13keyboard_initv) refers to key.o(i.key_init) for key_init
    keyboard.o(i._Z13keyboard_initv) refers to usb.o(i.usb_init) for usb_init
    keyboard.o(i._Z13keyboard_initv) refers to delay.o(i.delay_ms) for delay_ms
    keyboard.o(i._Z13keyboard_initv) refers to usb.o(i.usb_isConfigured) for usb_isConfigured
    keyboard.o(i._ZN5TKeys4SendEv) refers to key.o(i.key_scan) for key_scan
    keyboard.o(i._ZN5TKeys4SendEv) refers to aip1638.o(i.aip1638_readKey) for aip1638_readKey
    keyboard.o(i._ZN5TKeys4SendEv) refers to usb.o(i.usb_send) for usb_send
    keyboard.o(i._ZN5TKeys4SendEv) refers to keyboard.o(.constdata) for key2usb
    keyboard.o(i._ZN5TLeds6RandomEv) refers to keyboard.o(i._ZN5TLeds6UpdateEv) for TLeds::Update()
    keyboard.o(i._ZN5TLeds6RandomEv) refers to keyboard.o(.data) for p
==============================================================================

Removing Unused input sections from the image.

    Removing main.o(.ARM.exidx), (8 bytes).
    Removing keyboard.o(i._ZN5TLeds6RandomEv), (60 bytes).
    Removing keyboard.o(i._ZN5TLeds8FeedBackEv), (2 bytes).
    Removing keyboard.o(.ARM.exidx), (8 bytes).
    Removing keyboard.o(.ARM.exidx), (8 bytes).
    Removing keyboard.o(.ARM.exidx), (8 bytes).
    Removing keyboard.o(.ARM.exidx), (8 bytes).
    Removing keyboard.o(.ARM.exidx), (8 bytes).
    Removing keyboard.o(.ARM.exidx), (8 bytes).
    Removing keyboard.o(.data), (4 bytes).
    Removing usb_int.o(i.CTR_HP), (200 bytes).
    Removing usb_regs.o(i.ClearEPDoubleBuff), (40 bytes).
    Removing usb_regs.o(i.ClearEP_CTR_RX), (36 bytes).
    Removing usb_regs.o(i.ClearEP_CTR_TX), (32 bytes).
    Removing usb_regs.o(i.ClearEP_KIND), (40 bytes).
    Removing usb_regs.o(i.FreeUserBuffer), (84 bytes).
    Removing usb_regs.o(i.GetBTABLE), (12 bytes).
    Removing usb_regs.o(i.GetCNTR), (12 bytes).
==============================================================================

Image Symbol Table

    Local Symbols

    Symbol Name                              Value     Ov Type        Size  Object(Section)

    ../clib/angel/boardlib.s                 0x00000000   Number         0  boardinit1.o ABSOLUTE
    ../clib/angel/boardlib.s                 0x00000000   Number         0  boardshut.o ABSOLUTE
    ../clib/angel/boardlib.s                 0x00000000   Number         0  boardinit3.o ABSOLUTE
    ../clib/angel/boardlib.s                 0x00000000   Number         0  boardinit2.o ABSOLUTE
    ../clib/angel/dczerorl2.s                0x00000000   Number         0  __dczerorl2.o ABSOLUTE
    ../clib/angel/handlers.s                 0x00000000   Number         0  __scatter_zi.o ABSOLUTE
    ../clib/angel/kernel.s                   0x00000000   Number         0  __rtentry4.o ABSOLUTE
    ../clib/angel/kernel.s                   0x00000000   Number         0  rtexit2.o ABSOLUTE
    ../clib/angel/kernel.s                   0x00000000   Number         0  __rtentry2.o ABSOLUTE
    ../clib/angel/kernel.s                   0x00000000   Number         0  __rtentry.o ABSOLUTE
    ../clib/angel/kernel.s                   0x00000000   Number         0  rtexit.o ABSOLUTE
    ../clib/angel/rt.s                       0x00000000   Number         0  rt_raise.o ABSOLUTE
    ../clib/angel/scatter.s                  0x00000000   Number         0  __scatter.o ABSOLUTE
    ../clib/angel/startup.s                  0x00000000   Number         0  __main.o ABSOLUTE
    ../clib/angel/sys.s                      0x00000000   Number         0  indicate_semi.o ABSOLUTE
    ../clib/angel/sys.s                      0x00000000   Number         0  sys_stackheap_outer.o ABSOLUTE
    ../clib/angel/sys.s                      0x00000000   Number         0  libspace.o ABSOLUTE
    ../clib/angel/sys.s                      0x00000000   Number         0  use_no_semi.o ABSOLUTE
    ../clib/angel/sysapp.c                   0x00000000   Number         0  sys_command.o ABSOLUTE
    ../clib/angel/sysapp.c                   0x00000000   Number         0  sys_exit.o ABSOLUTE
    ../clib/armsys.c                         0x00000000   Number         0  _get_argv_nomalloc.o ABSOLUTE
    ../clib/armsys.c                         0x00000000   Number         0  argv_veneer.o ABSOLUTE
    ../clib/armsys.c                         0x00000000   Number         0  argv_veneer.o ABSOLUTE
    ../clib/armsys.c                         0x00000000   Number         0  no_argv.o ABSOLUTE
    ../clib/heapalloc.c                      0x00000000   Number         0  hrguard.o ABSOLUTE
    ../clib/heapaux.c                        0x00000000   Number         0  heapauxi.o ABSOLUTE
    ../clib/libinit.s                        0x00000000   Number         0  libshutdown.o ABSOLUTE
    ../clib/libinit.s                        0x00000000   Number         0  libinit2.o ABSOLUTE
    ../clib/libinit.s                        0x00000000   Number         0  libinit.o ABSOLUTE
    ../clib/libinit.s                        0x00000000   Number         0  libshutdown2.o ABSOLUTE
    ../clib/memcpset.s                       0x00000000   Number         0  strcmpv7m.o ABSOLUTE
    ../clib/signal.c                         0x00000000   Number         0  __raise.o ABSOLUTE
    ../clib/signal.c                         0x00000000   Number         0  defsig_rtmem_inner.o ABSOLUTE
    ../clib/signal.c                         0x00000000   Number         0  defsig_exit.o ABSOLUTE
    ../clib/signal.c                         0x00000000   Number         0  defsig_abrt_inner.o ABSOLUTE
    ../clib/signal.c                         0x00000000   Number         0  defsig_general.o ABSOLUTE
    ../clib/signal.c                         0x00000000   Number         0  defsig_fpe_inner.o ABSOLUTE
    ../clib/signal.c                         0x00000000   Number         0  defsig_rtmem_formal.o ABSOLUTE
    ../clib/signal.c                         0x00000000   Number         0  defsig_rtred_inner.o ABSOLUTE
    ../clib/signal.c                         0x00000000   Number         0  defsig_pvfn_inner.o ABSOLUTE
    ../clib/signal.c                         0x00000000   Number         0  defsig_cppl_inner.o ABSOLUTE
    ../clib/signal.c                         0x00000000   Number         0  defsig_segv_inner.o ABSOLUTE
    ../clib/signal.c                         0x00000000   Number         0  defsig_other.o ABSOLUTE
    ../clib/signal.c                         0x00000000   Number         0  defsig_stak_inner.o ABSOLUTE
    ../clib/signal.c                         0x00000000   Number         0  defsig_rtmem_outer.o ABSOLUTE
    ../clib/signal.s                         0x00000000   Number         0  defsig.o ABSOLUTE
    ../clib/stdlib.c                         0x00000000   Number         0  exit.o ABSOLUTE
    ../fplib/fpinit.s                        0x00000000   Number         0  fpinit.o ABSOLUTE
    Application\keyboard.cpp                 0x00000000   Number         0  keyboard.o ABSOLUTE
    Application\main.cpp                     0x00000000   Number         0  main.o ABSOLUTE
    Core\\core_cm3.c                         0x00000000   Number         0  core_cm3.o ABSOLUTE
    Core\core_cm3.c                          0x00000000   Number         0  core_cm3.o ABSOLUTE
    Driver\AIP1638\aip1638.c                 0x00000000   Number         0  aip1638.o ABSOLUTE
    Driver\LED\led.c                         0x00000000   Number         0  led.o ABSOLUTE
    Driver\USB\hw_config.c                   0x00000000   Number         0  hw_config.o ABSOLUTE
    Driver\USB\usb.c                         0x00000000   Number         0  usb.o ABSOLUTE
    Driver\USB\usb_desc.c                    0x00000000   Number         0  usb_desc.o ABSOLUTE
    Driver\USB\usb_endp.c                    0x00000000   Number         0  usb_endp.o ABSOLUTE
    Driver\USB\usb_istr.c                    0x00000000   Number         0  usb_istr.o ABSOLUTE
    Driver\USB\usb_prop.c                    0x00000000   Number         0  usb_prop.o ABSOLUTE
    Driver\USB\usb_pwr.c                     0x00000000   Number         0  usb_pwr.o ABSOLUTE
    Driver\delay\delay.c                     0x00000000   Number         0  delay.o ABSOLUTE
    Driver\key\key.c                         0x00000000   Number         0  key.o ABSOLUTE
    F:\Keil_v5\ARM\PACK\Keil\ARM_Compiler\1.6.1\Source\retarget_io.c 0x00000000   Number         0  retarget_io.o ABSOLUTE
    F:\Keil_v5\ARM\PACK\Keil\STM32F1xx_DFP\2.3.0\RTE_Driver\GPIO_STM32F10x.c 0x00000000   Number         0  gpio_stm32f10x.o ABSOLUTE
    RTE\Device\STM32F103C8\startup_stm32f10x_md.s 0x00000000   Number         0  startup_stm32f10x_md.o ABSOLUTE
    RTE\Device\STM32F103C8\system_stm32f10x.c 0x00000000   Number         0  system_stm32f10x_1.o ABSOLUTE
    System\STM32F10x_FWLib\src\misc.c        0x00000000   Number         0  misc.o ABSOLUTE
    System\STM32F10x_FWLib\src\stm32f10x_exti.c 0x00000000   Number         0  stm32f10x_exti.o ABSOLUTE
    System\STM32F10x_FWLib\src\stm32f10x_gpio.c 0x00000000   Number         0  stm32f10x_gpio.o ABSOLUTE
    System\STM32F10x_FWLib\src\stm32f10x_pwr.c 0x00000000   Number         0  stm32f10x_pwr.o ABSOLUTE
    System\STM32F10x_FWLib\src\stm32f10x_rcc.c 0x00000000   Number         0  stm32f10x_rcc.o ABSOLUTE
    System\STM32F10x_FWLib\src\stm32f10x_spi.c 0x00000000   Number         0  stm32f10x_spi.o ABSOLUTE
    System\STM32F10x_FWLib\src\stm32f10x_tim.c 0x00000000   Number         0  stm32f10x_tim.o ABSOLUTE
    System\STM32F10x_FWLib\src\stm32f10x_usart.c 0x00000000   Number         0  stm32f10x_usart.o ABSOLUTE
    System\STM32_USB-FS-Device_Driver\src\usb_core.c 0x00000000   Number         0  usb_core.o ABSOLUTE
    System\STM32_USB-FS-Device_Driver\src\usb_init.c 0x00000000   Number         0  usb_init.o ABSOLUTE
    System\STM32_USB-FS-Device_Driver\src\usb_int.c 0x00000000   Number         0  usb_int.o ABSOLUTE
    System\STM32_USB-FS-Device_Driver\src\usb_mem.c 0x00000000   Number         0  usb_mem.o ABSOLUTE
    System\STM32_USB-FS-Device_Driver\src\usb_regs.c 0x00000000   Number         0  usb_regs.o ABSOLUTE
    System\STM32_USB-FS-Device_Driver\src\usb_sil.c 0x00000000   Number         0  usb_sil.o ABSOLUTE
    System\stm32f10x_it.c                    0x00000000   Number         0  stm32f10x_it.o ABSOLUTE
    dc.s                                     0x00000000   Number         0  dc.o ABSOLUTE
    RESET                                    0x08000000   Section      236  startup_stm32f10x_md.o(RESET)
    !!!main                                  0x080000ec   Section        8  __main.o(!!!main)
    !!!scatter                               0x080000f4   Section       52  __scatter.o(!!!scatter)
    !!dczerorl2                              0x08000128   Section       90  __dczerorl2.o(!!dczerorl2)
    !!handler_zi                             0x08000184   Section       28  __scatter_zi.o(!!handler_zi)
    .ARM.Collect$$libinit$$00000000          0x080001a0   Section        2  libinit.o(.ARM.Collect$$libinit$$00000000)
    .ARM.Collect$$libinit$$00000002          0x080001a2   Section        0  libinit2.o(.ARM.Collect$$libinit$$00000002)
    .ARM.Collect$$libinit$$00000004          0x080001a2   Section        0  libinit2.o(.ARM.Collect$$libinit$$00000004)
    .ARM.Collect$$libinit$$0000000A          0x080001a2   Section        0  libinit2.o(.ARM.Collect$$libinit$$0000000A)
    .ARM.Collect$$libinit$$0000000C          0x080001a2   Section        0  libinit2.o(.ARM.Collect$$libinit$$0000000C)
    .ARM.Collect$$libinit$$0000000E          0x080001a2   Section        0  libinit2.o(.ARM.Collect$$libinit$$0000000E)
    .ARM.Collect$$libinit$$00000011          0x080001a2   Section        0  libinit2.o(.ARM.Collect$$libinit$$00000011)
    .ARM.Collect$$libinit$$00000013          0x080001a2   Section        0  libinit2.o(.ARM.Collect$$libinit$$00000013)
    .ARM.Collect$$libinit$$00000015          0x080001a2   Section        0  libinit2.o(.ARM.Collect$$libinit$$00000015)
    .ARM.Collect$$libinit$$00000017          0x080001a2   Section        0  libinit2.o(.ARM.Collect$$libinit$$00000017)
    .ARM.Collect$$libinit$$00000019          0x080001a2   Section        0  libinit2.o(.ARM.Collect$$libinit$$00000019)
    .ARM.Collect$$libinit$$0000001B          0x080001a2   Section        0  libinit2.o(.ARM.Collect$$libinit$$0000001B)
    .ARM.Collect$$libinit$$0000001D          0x080001a2   Section        0  libinit2.o(.ARM.Collect$$libinit$$0000001D)
    .ARM.Collect$$libinit$$0000001F          0x080001a2   Section        0  libinit2.o(.ARM.Collect$$libinit$$0000001F)
    .ARM.Collect$$libinit$$00000021          0x080001a2   Section        0  libinit2.o(.ARM.Collect$$libinit$$00000021)
    .ARM.Collect$$libinit$$00000023          0x080001a2   Section        0  libinit2.o(.ARM.Collect$$libinit$$00000023)
    .ARM.Collect$$libinit$$00000025          0x080001a2   Section        0  libinit2.o(.ARM.Collect$$libinit$$00000025)
    .ARM.Collect$$libinit$$0000002C          0x080001a2   Section        0  libinit2.o(.ARM.Collect$$libinit$$0000002C)
    .ARM.Collect$$libinit$$0000002E          0x080001a2   Section        0  libinit2.o(.ARM.Collect$$libinit$$0000002E)
    .ARM.Collect$$libinit$$00000030          0x080001a2   Section        0  libinit2.o(.ARM.Collect$$libinit$$00000030)
    .ARM.Collect$$libinit$$00000032          0x080001a2   Section        0  libinit2.o(.ARM.Collect$$libinit$$00000032)
    .ARM.Collect$$libinit$$00000033          0x080001a2   Section        2  libinit2.o(.ARM.Collect$$libinit$$00000033)
    .ARM.Collect$$libshutdown$$00000000      0x080001a4   Section        2  libshutdown.o(.ARM.Collect$$libshutdown$$00000000)
    .ARM.Collect$$libshutdown$$00000002      0x080001a6   Section        0  libshutdown2.o(.ARM.Collect$$libshutdown$$00000002)
    .ARM.Collect$$libshutdown$$00000004      0x080001a6   Section        0  libshutdown2.o(.ARM.Collect$$libshutdown$$00000004)
    .ARM.Collect$$libshutdown$$00000007      0x080001a6   Section        0  libshutdown2.o(.ARM.Collect$$libshutdown$$00000007)
    .ARM.Collect$$libshutdown$$0000000A      0x080001a6   Section        0  libshutdown2.o(.ARM.Collect$$libshutdown$$0000000A)
    .ARM.Collect$$libshutdown$$0000000C      0x080001a6   Section        0  libshutdown2.o(.ARM.Collect$$libshutdown$$0000000C)
    .ARM.Collect$$libshutdown$$0000000F      0x080001a6   Section        0  libshutdown2.o(.ARM.Collect$$libshutdown$$0000000F)
    .ARM.Collect$$libshutdown$$00000010      0x080001a6   Section        2  libshutdown2.o(.ARM.Collect$$libshutdown$$00000010)
    .ARM.Collect$$rtentry$$00000000          0x080001a8   Section        0  __rtentry.o(.ARM.Collect$$rtentry$$00000000)
    .ARM.Collect$$rtentry$$00000002          0x080001a8   Section        0  __rtentry2.o(.ARM.Collect$$rtentry$$00000002)
    .ARM.Collect$$rtentry$$00000004          0x080001a8   Section        6  __rtentry4.o(.ARM.Collect$$rtentry$$00000004)
    .ARM.Collect$$rtentry$$00000009          0x080001ae   Section        0  __rtentry2.o(.ARM.Collect$$rtentry$$00000009)
    .ARM.Collect$$rtentry$$0000000A          0x080001ae   Section        4  __rtentry2.o(.ARM.Collect$$rtentry$$0000000A)
    .ARM.Collect$$rtentry$$0000000C          0x080001b2   Section        0  __rtentry2.o(.ARM.Collect$$rtentry$$0000000C)
    .ARM.Collect$$rtentry$$0000000D          0x080001b2   Section        8  __rtentry2.o(.ARM.Collect$$rtentry$$0000000D)
    .ARM.Collect$$rtexit$$00000000           0x080001ba   Section        2  rtexit.o(.ARM.Collect$$rtexit$$00000000)
    .ARM.Collect$$rtexit$$00000002           0x080001bc   Section        0  rtexit2.o(.ARM.Collect$$rtexit$$00000002)
    .ARM.Collect$$rtexit$$00000003           0x080001bc   Section        4  rtexit2.o(.ARM.Collect$$rtexit$$00000003)
    .ARM.Collect$$rtexit$$00000004           0x080001c0   Section        6  rtexit2.o(.ARM.Collect$$rtexit$$00000004)
    .text                                    0x080001c8   Section       64  startup_stm32f10x_md.o(.text)
    .text                                    0x08000208   Section        0  heapauxi.o(.text)
    .text                                    0x0800020e   Section       74  sys_stackheap_outer.o(.text)
    .text                                    0x08000258   Section        0  exit.o(.text)
    .text                                    0x0800026c   Section        8  libspace.o(.text)
    .text                                    0x08000274   Section        0  sys_exit.o(.text)
    .text                                    0x08000280   Section        2  use_no_semi.o(.text)
    .text                                    0x08000282   Section        0  indicate_semi.o(.text)
    i.BusFault_Handler                       0x08000282   Section        0  stm32f10x_it.o(i.BusFault_Handler)
    i.ByteSwap                               0x08000286   Section        0  usb_regs.o(i.ByteSwap)
    i.CTR_LP                                 0x08000294   Section        0  usb_int.o(i.CTR_LP)
    i.ClearDTOG_RX                           0x0800051c   Section        0  usb_regs.o(i.ClearDTOG_RX)
    i.ClearDTOG_TX                           0x08000550   Section        0  usb_regs.o(i.ClearDTOG_TX)
    i.Clear_Status_Out                       0x08000584   Section        0  usb_regs.o(i.Clear_Status_Out)
    i.DataStageIn                            0x080005ac   Section        0  usb_core.o(i.DataStageIn)
    DataStageIn                              0x080005ad   Thumb Code   166  usb_core.o(i.DataStageIn)
    i.DataStageOut                           0x0800066c   Section        0  usb_core.o(i.DataStageOut)
    DataStageOut                             0x0800066d   Thumb Code   166  usb_core.o(i.DataStageOut)
    i.Data_Setup0                            0x08000728   Section        0  usb_core.o(i.Data_Setup0)
    Data_Setup0                              0x08000729   Thumb Code   628  usb_core.o(i.Data_Setup0)
    i.DebugMon_Handler                       0x080009c0   Section        0  stm32f10x_it.o(i.DebugMon_Handler)
    i.EP1_IN_Callback                        0x080009c2   Section        0  usb_endp.o(i.EP1_IN_Callback)
    i.EP1_OUT_Callback                       0x080009c4   Section        0  usb_endp.o(i.EP1_OUT_Callback)
    i.EXTI_ClearITPendingBit                 0x080009ec   Section        0  stm32f10x_exti.o(i.EXTI_ClearITPendingBit)
    i.EXTI_Init                              0x080009f8   Section        0  stm32f10x_exti.o(i.EXTI_Init)
    i.GPIO_Init                              0x08000a8c   Section        0  stm32f10x_gpio.o(i.GPIO_Init)
    i.GPIO_PinRemapConfig                    0x08000ba4   Section        0  stm32f10x_gpio.o(i.GPIO_PinRemapConfig)
    i.GPIO_ResetBits                         0x08000c34   Section        0  stm32f10x_gpio.o(i.GPIO_ResetBits)
    i.GPIO_SetBits                           0x08000c38   Section        0  stm32f10x_gpio.o(i.GPIO_SetBits)
    i.GetEPRxAddr                            0x08000c3c   Section        0  usb_regs.o(i.GetEPRxAddr)
    i.GetEPRxCount                           0x08000c5c   Section        0  usb_regs.o(i.GetEPRxCount)
    i.GetEPTxAddr                            0x08000c80   Section        0  usb_regs.o(i.GetEPTxAddr)
    i.Get_SerialNum                          0x08000ca0   Section        0  hw_config.o(i.Get_SerialNum)
    i.HardFault_Handler                      0x08000cd4   Section        0  stm32f10x_it.o(i.HardFault_Handler)
    i.In0_Process                            0x08000cd8   Section        0  usb_core.o(i.In0_Process)
    i.IntToUnicode                           0x08000d48   Section        0  hw_config.o(i.IntToUnicode)
    IntToUnicode                             0x08000d49   Thumb Code    62  hw_config.o(i.IntToUnicode)
    i.Joystick_Data_Setup                    0x08000d88   Section        0  usb_prop.o(i.Joystick_Data_Setup)
    i.Joystick_GetConfigDescriptor           0x08000e04   Section        0  usb_prop.o(i.Joystick_GetConfigDescriptor)
    i.Joystick_GetDeviceDescriptor           0x08000e18   Section        0  usb_prop.o(i.Joystick_GetDeviceDescriptor)
    i.Joystick_GetHIDDescriptor              0x08000e2c   Section        0  usb_prop.o(i.Joystick_GetHIDDescriptor)
    i.Joystick_GetProtocolValue              0x08000e40   Section        0  usb_prop.o(i.Joystick_GetProtocolValue)
    i.Joystick_GetReportDescriptor           0x08000e5c   Section        0  usb_prop.o(i.Joystick_GetReportDescriptor)
    i.Joystick_GetStringDescriptor           0x08000e70   Section        0  usb_prop.o(i.Joystick_GetStringDescriptor)
    i.Joystick_Get_Interface_Setting         0x08000e98   Section        0  usb_prop.o(i.Joystick_Get_Interface_Setting)
    i.Joystick_NoData_Setup                  0x08000eb0   Section        0  usb_prop.o(i.Joystick_NoData_Setup)
    i.Joystick_Reset                         0x08000ed4   Section        0  usb_prop.o(i.Joystick_Reset)
    i.Joystick_SetConfiguration              0x08000f94   Section        0  usb_prop.o(i.Joystick_SetConfiguration)
    i.Joystick_SetDeviceAddress              0x08000fac   Section        0  usb_prop.o(i.Joystick_SetDeviceAddress)
    i.Joystick_SetProtocol                   0x08000fb8   Section        0  usb_prop.o(i.Joystick_SetProtocol)
    i.Joystick_Status_In                     0x08000fd0   Section        0  usb_prop.o(i.Joystick_Status_In)
    i.Joystick_Status_Out                    0x08000fd2   Section        0  usb_prop.o(i.Joystick_Status_Out)
    i.Joystick_init                          0x08000fd4   Section        0  usb_prop.o(i.Joystick_init)
    i.Leave_LowPowerMode                     0x08000ffc   Section        0  hw_config.o(i.Leave_LowPowerMode)
    i.MemManage_Handler                      0x08001020   Section        0  stm32f10x_it.o(i.MemManage_Handler)
    i.NMI_Handler                            0x08001024   Section        0  stm32f10x_it.o(i.NMI_Handler)
    i.NOP_Process                            0x08001026   Section        0  usb_core.o(i.NOP_Process)
    i.NVIC_Init                              0x08001028   Section        0  misc.o(i.NVIC_Init)
    i.NVIC_PriorityGroupConfig               0x08001098   Section        0  misc.o(i.NVIC_PriorityGroupConfig)
    i.NoData_Setup0                          0x080010ac   Section        0  usb_core.o(i.NoData_Setup0)
    NoData_Setup0                            0x080010ad   Thumb Code   290  usb_core.o(i.NoData_Setup0)
    i.Out0_Process                           0x080011e4   Section        0  usb_core.o(i.Out0_Process)
    i.PMAToUserBufferCopy                    0x08001234   Section        0  usb_mem.o(i.PMAToUserBufferCopy)
    i.PendSV_Handler                         0x0800125c   Section        0  stm32f10x_it.o(i.PendSV_Handler)
    i.Post0_Process                          0x08001260   Section        0  usb_core.o(i.Post0_Process)
    i.PowerOn                                0x080012a8   Section        0  usb_pwr.o(i.PowerOn)
    i.RCC_APB1PeriphClockCmd                 0x080012e0   Section        0  stm32f10x_rcc.o(i.RCC_APB1PeriphClockCmd)
    i.RCC_APB2PeriphClockCmd                 0x08001300   Section        0  stm32f10x_rcc.o(i.RCC_APB2PeriphClockCmd)
    i.RCC_USBCLKConfig                       0x08001320   Section        0  stm32f10x_rcc.o(i.RCC_USBCLKConfig)
    i.Resume                                 0x0800132c   Section        0  usb_pwr.o(i.Resume)
    i.Resume_Init                            0x080013fc   Section        0  usb_pwr.o(i.Resume_Init)
    i.SVC_Handler                            0x08001420   Section        0  stm32f10x_it.o(i.SVC_Handler)
    i.SetBTABLE                              0x08001424   Section        0  usb_regs.o(i.SetBTABLE)
    i.SetDeviceAddress                       0x08001434   Section        0  usb_core.o(i.SetDeviceAddress)
    i.SetEPRxAddr                            0x08001484   Section        0  usb_regs.o(i.SetEPRxAddr)
    i.SetEPRxCount                           0x080014a8   Section        0  usb_regs.o(i.SetEPRxCount)
    i.SetEPRxStatus                          0x080014f4   Section        0  usb_regs.o(i.SetEPRxStatus)
    i.SetEPRxValid                           0x08001534   Section        0  usb_regs.o(i.SetEPRxValid)
    i.SetEPTxAddr                            0x08001568   Section        0  usb_regs.o(i.SetEPTxAddr)
    i.SetEPTxCount                           0x08001588   Section        0  usb_regs.o(i.SetEPTxCount)
    i.SetEPTxStatus                          0x080015a4   Section        0  usb_regs.o(i.SetEPTxStatus)
    i.SetEPTxValid                           0x080015e4   Section        0  usb_regs.o(i.SetEPTxValid)
    i.SetEPType                              0x08001618   Section        0  usb_regs.o(i.SetEPType)
    i.SetSysClock                            0x0800163c   Section        0  system_stm32f10x_1.o(i.SetSysClock)
    SetSysClock                              0x0800163d   Thumb Code     8  system_stm32f10x_1.o(i.SetSysClock)
    i.SetSysClockTo72                        0x08001644   Section        0  system_stm32f10x_1.o(i.SetSysClockTo72)
    SetSysClockTo72                          0x08001645   Thumb Code   214  system_stm32f10x_1.o(i.SetSysClockTo72)
    i.Set_System                             0x08001724   Section        0  hw_config.o(i.Set_System)
    i.Set_USBClock                           0x0800174c   Section        0  hw_config.o(i.Set_USBClock)
    i.Setup0_Process                         0x08001760   Section        0  usb_core.o(i.Setup0_Process)
    i.Standard_ClearFeature                  0x08001818   Section        0  usb_core.o(i.Standard_ClearFeature)
    i.Standard_GetConfiguration              0x08001984   Section        0  usb_core.o(i.Standard_GetConfiguration)
    i.Standard_GetDescriptorData             0x080019b0   Section        0  usb_core.o(i.Standard_GetDescriptorData)
    i.Standard_GetInterface                  0x080019d4   Section        0  usb_core.o(i.Standard_GetInterface)
    i.Standard_GetStatus                     0x08001a00   Section        0  usb_core.o(i.Standard_GetStatus)
    i.Standard_SetConfiguration              0x08001b00   Section        0  usb_core.o(i.Standard_SetConfiguration)
    i.Standard_SetDeviceFeature              0x08001b48   Section        0  usb_core.o(i.Standard_SetDeviceFeature)
    i.Standard_SetEndPointFeature            0x08001b70   Section        0  usb_core.o(i.Standard_SetEndPointFeature)
    i.Standard_SetInterface                  0x08001c40   Section        0  usb_core.o(i.Standard_SetInterface)
    i.Suspend                                0x08001cac   Section        0  usb_pwr.o(i.Suspend)
    i.SysTick_CLKSourceConfig                0x08001db0   Section        0  misc.o(i.SysTick_CLKSourceConfig)
    i.SysTick_Handler                        0x08001dd8   Section        0  stm32f10x_it.o(i.SysTick_Handler)
    i.SystemInit                             0x08001ddc   Section        0  system_stm32f10x_1.o(i.SystemInit)
    i.TIM3_IRQHandler                        0x08001e3c   Section        0  led.o(i.TIM3_IRQHandler)
    i.TIM_ClearITPendingBit                  0x08001eac   Section        0  stm32f10x_tim.o(i.TIM_ClearITPendingBit)
    i.TIM_Cmd                                0x08001eb2   Section        0  stm32f10x_tim.o(i.TIM_Cmd)
    i.TIM_GetITStatus                        0x08001eca   Section        0  stm32f10x_tim.o(i.TIM_GetITStatus)
    i.TIM_ITConfig                           0x08001eec   Section        0  stm32f10x_tim.o(i.TIM_ITConfig)
    i.TIM_OC3Init                            0x08001f00   Section        0  stm32f10x_tim.o(i.TIM_OC3Init)
    i.TIM_OC3PreloadConfig                   0x08001fa0   Section        0  stm32f10x_tim.o(i.TIM_OC3PreloadConfig)
    i.TIM_OC4Init                            0x08001fb4   Section        0  stm32f10x_tim.o(i.TIM_OC4Init)
    i.TIM_OC4PreloadConfig                   0x08002030   Section        0  stm32f10x_tim.o(i.TIM_OC4PreloadConfig)
    i.TIM_SetCompare3                        0x0800204a   Section        0  stm32f10x_tim.o(i.TIM_SetCompare3)
    i.TIM_SetCompare4                        0x0800204e   Section        0  stm32f10x_tim.o(i.TIM_SetCompare4)
    i.TIM_TimeBaseInit                       0x08002054   Section        0  stm32f10x_tim.o(i.TIM_TimeBaseInit)
    i.USBWakeUp_IRQHandler                   0x080020f8   Section        0  stm32f10x_it.o(i.USBWakeUp_IRQHandler)
    i.USB_Init                               0x08002104   Section        0  usb_init.o(i.USB_Init)
    i.USB_Interrupts_Config                  0x08002140   Section        0  hw_config.o(i.USB_Interrupts_Config)
    i.USB_Istr                               0x08002174   Section        0  usb_istr.o(i.USB_Istr)
    i.USB_LP_CAN1_RX0_IRQHandler             0x08002340   Section        0  stm32f10x_it.o(i.USB_LP_CAN1_RX0_IRQHandler)
    i.USB_Port_Set                           0x08002348   Section        0  hw_config.o(i.USB_Port_Set)
    i.USB_SIL_Init                           0x080023a0   Section        0  usb_sil.o(i.USB_SIL_Init)
    i.USB_SIL_Write                          0x080023c4   Section        0  usb_sil.o(i.USB_SIL_Write)
    i.UsageFault_Handler                     0x080023f2   Section        0  stm32f10x_it.o(i.UsageFault_Handler)
    i.UserToPMABufferCopy                    0x080023f8   Section        0  usb_mem.o(i.UserToPMABufferCopy)
    i._Z13keyboard_initv                     0x08002430   Section        0  keyboard.o(i._Z13keyboard_initv)
    i._ZN5TKeys4SendEv                       0x08002474   Section        0  keyboard.o(i._ZN5TKeys4SendEv)
    i._ZN5TLeds6SetAllEb                     0x08002578   Section        0  keyboard.o(i._ZN5TLeds6SetAllEb)
    i._ZN5TLeds6UpdateEv                     0x080025bc   Section        0  keyboard.o(i._ZN5TLeds6UpdateEv)
    i.aip1638_init                           0x080025cc   Section        0  aip1638.o(i.aip1638_init)
    i.aip1638_readKey                        0x08002638   Section        0  aip1638.o(i.aip1638_readKey)
    i.aip1638_setLED                         0x080026c0   Section        0  aip1638.o(i.aip1638_setLED)
    i.aip1638_write                          0x08002728   Section        0  aip1638.o(i.aip1638_write)
    i.aip1638_writeCmd                       0x08002764   Section        0  aip1638.o(i.aip1638_writeCmd)
    i.aip1638_writeData                      0x0800278c   Section        0  aip1638.o(i.aip1638_writeData)
    i.delay_init                             0x080027c0   Section        0  delay.o(i.delay_init)
    i.delay_ms                               0x080027cc   Section        0  delay.o(i.delay_ms)
    i.delay_us                               0x080027e4   Section        0  delay.o(i.delay_us)
    i.key_init                               0x08002830   Section        0  key.o(i.key_init)
    i.key_scan                               0x0800286c   Section        0  key.o(i.key_scan)
    i.led_init                               0x08002948   Section        0  led.o(i.led_init)
    i.main                                   0x080029c4   Section        0  main.o(i.main)
    i.tim_init                               0x080029dc   Section        0  led.o(i.tim_init)
    i.usb_init                               0x08002a90   Section        0  usb.o(i.usb_init)
    i.usb_isConfigured                       0x08002abc   Section        0  usb.o(i.usb_isConfigured)
    i.usb_send                               0x08002ad0   Section        0  usb.o(i.usb_send)
    .constdata                               0x08002b16   Section       84  keyboard.o(.constdata)
    key2usb                                  0x08002b16   Data          84  keyboard.o(.constdata)
    .constdata                               0x08002b6a   Section      194  usb_desc.o(.constdata)
    .data                                    0x20000000   Section        3  usb_core.o(.data)
    .data                                    0x20000004   Section       20  usb_init.o(.data)
    .data                                    0x20000018   Section        4  usb_int.o(.data)
    .data                                    0x2000001c   Section       12  hw_config.o(.data)
    .data                                    0x20000028   Section       26  usb_desc.o(.data)
    .data                                    0x20000044   Section       68  usb_istr.o(.data)
    .data                                    0x20000088   Section      156  usb_prop.o(.data)
    .data                                    0x20000124   Section       14  usb_pwr.o(.data)
    .data                                    0x20000134   Section        8  led.o(.data)
    cnt                                      0x20000134   Data           4  led.o(.data)
    flag                                     0x20000138   Data           4  led.o(.data)
    .bss                                     0x2000013c   Section       80  keyboard.o(.bss)
    .bss                                     0x2000018c   Section       28  usb_init.o(.bss)
    .bss                                     0x200001a8   Section       32  usb_pwr.o(.bss)
    .bss                                     0x200001c8   Section       96  libspace.o(.bss)
    HEAP                                     0x20000228   Section      512  startup_stm32f10x_md.o(HEAP)
    Heap_Mem                                 0x20000228   Data         512  startup_stm32f10x_md.o(HEAP)
    STACK                                    0x20000428   Section     1024  startup_stm32f10x_md.o(STACK)
    Stack_Mem                                0x20000428   Data        1024  startup_stm32f10x_md.o(STACK)
    __initial_sp                             0x20000828   Data           0  startup_stm32f10x_md.o(STACK)

    Global Symbols

    Symbol Name                              Value     Ov Type        Size  Object(Section)

    BuildAttributes$$THM_ISAv4$P$D$K$B$S$PE$A:L22UL41UL21$X:L11$S22US41US21$IEEE1$IW$USESV6$~STKCKD$USESV7$~SHL$OSPACE$ROPI$EBA8$UX$STANDARDLIB$REQ8$PRES8$EABIv2 0x00000000   Number         0  anon$$obj.o ABSOLUTE
    __ARM_use_no_argv                        0x00000000   Number         0  main.o ABSOLUTE
    __ARM_exceptions_init                     - Undefined Weak Reference
    __alloca_initialize                       - Undefined Weak Reference
    __arm_preinit_                            - Undefined Weak Reference
    __cpp_initialize__aeabi_                  - Undefined Weak Reference
    __cxa_finalize                            - Undefined Weak Reference
    __rt_locale                               - Undefined Weak Reference
    __sigvec_lookup                           - Undefined Weak Reference
    _atexit_init                              - Undefined Weak Reference
    _call_atexit_fns                          - Undefined Weak Reference
    _clock_init                               - Undefined Weak Reference
    _fp_trap_init                             - Undefined Weak Reference
    _fp_trap_shutdown                         - Undefined Weak Reference
    _get_lc_collate                           - Undefined Weak Reference
    _get_lc_ctype                             - Undefined Weak Reference
    _get_lc_monetary                          - Undefined Weak Reference
    _get_lc_numeric                           - Undefined Weak Reference
    _get_lc_time                              - Undefined Weak Reference
    _getenv_init                              - Undefined Weak Reference
    _handle_redirection                       - Undefined Weak Reference
    _init_alloc                               - Undefined Weak Reference
    _init_user_alloc                          - Undefined Weak Reference
    _initio                                   - Undefined Weak Reference
    _rand_init                                - Undefined Weak Reference
    _signal_finish                            - Undefined Weak Reference
    _signal_init                              - Undefined Weak Reference
    _terminate_alloc                          - Undefined Weak Reference
    _terminate_user_alloc                     - Undefined Weak Reference
    _terminateio                              - Undefined Weak Reference
    __Vectors_Size                           0x000000ec   Number         0  startup_stm32f10x_md.o ABSOLUTE
    __Vectors                                0x08000000   Data           4  startup_stm32f10x_md.o(RESET)
    __Vectors_End                            0x080000ec   Data           0  startup_stm32f10x_md.o(RESET)
    __main                                   0x080000ed   Thumb Code     8  __main.o(!!!main)
    __scatterload                            0x080000f5   Thumb Code     0  __scatter.o(!!!scatter)
    __scatterload_rt2                        0x080000f5   Thumb Code    44  __scatter.o(!!!scatter)
    __scatterload_rt2_thumb_only             0x080000f5   Thumb Code     0  __scatter.o(!!!scatter)
    __scatterload_null                       0x08000103   Thumb Code     0  __scatter.o(!!!scatter)
    __decompress                             0x08000129   Thumb Code    90  __dczerorl2.o(!!dczerorl2)
    __decompress1                            0x08000129   Thumb Code     0  __dczerorl2.o(!!dczerorl2)
    __scatterload_zeroinit                   0x08000185   Thumb Code    28  __scatter_zi.o(!!handler_zi)
    __rt_lib_init                            0x080001a1   Thumb Code     0  libinit.o(.ARM.Collect$$libinit$$00000000)
    __rt_lib_init_alloca_1                   0x080001a3   Thumb Code     0  libinit2.o(.ARM.Collect$$libinit$$0000002E)
    __rt_lib_init_argv_1                     0x080001a3   Thumb Code     0  libinit2.o(.ARM.Collect$$libinit$$0000002C)
    __rt_lib_init_atexit_1                   0x080001a3   Thumb Code     0  libinit2.o(.ARM.Collect$$libinit$$0000001B)
    __rt_lib_init_clock_1                    0x080001a3   Thumb Code     0  libinit2.o(.ARM.Collect$$libinit$$00000021)
    __rt_lib_init_cpp_1                      0x080001a3   Thumb Code     0  libinit2.o(.ARM.Collect$$libinit$$00000032)
    __rt_lib_init_exceptions_1               0x080001a3   Thumb Code     0  libinit2.o(.ARM.Collect$$libinit$$00000030)
    __rt_lib_init_fp_1                       0x080001a3   Thumb Code     0  libinit2.o(.ARM.Collect$$libinit$$00000002)
    __rt_lib_init_fp_trap_1                  0x080001a3   Thumb Code     0  libinit2.o(.ARM.Collect$$libinit$$0000001F)
    __rt_lib_init_getenv_1                   0x080001a3   Thumb Code     0  libinit2.o(.ARM.Collect$$libinit$$00000023)
    __rt_lib_init_heap_1                     0x080001a3   Thumb Code     0  libinit2.o(.ARM.Collect$$libinit$$0000000A)
    __rt_lib_init_lc_collate_1               0x080001a3   Thumb Code     0  libinit2.o(.ARM.Collect$$libinit$$00000011)
    __rt_lib_init_lc_ctype_1                 0x080001a3   Thumb Code     0  libinit2.o(.ARM.Collect$$libinit$$00000013)
    __rt_lib_init_lc_monetary_1              0x080001a3   Thumb Code     0  libinit2.o(.ARM.Collect$$libinit$$00000015)
    __rt_lib_init_lc_numeric_1               0x080001a3   Thumb Code     0  libinit2.o(.ARM.Collect$$libinit$$00000017)
    __rt_lib_init_lc_time_1                  0x080001a3   Thumb Code     0  libinit2.o(.ARM.Collect$$libinit$$00000019)
    __rt_lib_init_preinit_1                  0x080001a3   Thumb Code     0  libinit2.o(.ARM.Collect$$libinit$$00000004)
    __rt_lib_init_rand_1                     0x080001a3   Thumb Code     0  libinit2.o(.ARM.Collect$$libinit$$0000000E)
    __rt_lib_init_return                     0x080001a3   Thumb Code     0  libinit2.o(.ARM.Collect$$libinit$$00000033)
    __rt_lib_init_signal_1                   0x080001a3   Thumb Code     0  libinit2.o(.ARM.Collect$$libinit$$0000001D)
    __rt_lib_init_stdio_1                    0x080001a3   Thumb Code     0  libinit2.o(.ARM.Collect$$libinit$$00000025)
    __rt_lib_init_user_alloc_1               0x080001a3   Thumb Code     0  libinit2.o(.ARM.Collect$$libinit$$0000000C)
    __rt_lib_shutdown                        0x080001a5   Thumb Code     0  libshutdown.o(.ARM.Collect$$libshutdown$$00000000)
    __rt_lib_shutdown_cpp_1                  0x080001a7   Thumb Code     0  libshutdown2.o(.ARM.Collect$$libshutdown$$00000002)
    __rt_lib_shutdown_fp_trap_1              0x080001a7   Thumb Code     0  libshutdown2.o(.ARM.Collect$$libshutdown$$00000007)
    __rt_lib_shutdown_heap_1                 0x080001a7   Thumb Code     0  libshutdown2.o(.ARM.Collect$$libshutdown$$0000000F)
    __rt_lib_shutdown_return                 0x080001a7   Thumb Code     0  libshutdown2.o(.ARM.Collect$$libshutdown$$00000010)
    __rt_lib_shutdown_signal_1               0x080001a7   Thumb Code     0  libshutdown2.o(.ARM.Collect$$libshutdown$$0000000A)
    __rt_lib_shutdown_stdio_1                0x080001a7   Thumb Code     0  libshutdown2.o(.ARM.Collect$$libshutdown$$00000004)
    __rt_lib_shutdown_user_alloc_1           0x080001a7   Thumb Code     0  libshutdown2.o(.ARM.Collect$$libshutdown$$0000000C)
    __rt_entry                               0x080001a9   Thumb Code     0  __rtentry.o(.ARM.Collect$$rtentry$$00000000)
    __rt_entry_presh_1                       0x080001a9   Thumb Code     0  __rtentry2.o(.ARM.Collect$$rtentry$$00000002)
    __rt_entry_sh                            0x080001a9   Thumb Code     0  __rtentry4.o(.ARM.Collect$$rtentry$$00000004)
    __rt_entry_li                            0x080001af   Thumb Code     0  __rtentry2.o(.ARM.Collect$$rtentry$$0000000A)
    __rt_entry_postsh_1                      0x080001af   Thumb Code     0  __rtentry2.o(.ARM.Collect$$rtentry$$00000009)
    __rt_entry_main                          0x080001b3   Thumb Code     0  __rtentry2.o(.ARM.Collect$$rtentry$$0000000D)
    __rt_entry_postli_1                      0x080001b3   Thumb Code     0  __rtentry2.o(.ARM.Collect$$rtentry$$0000000C)
    __rt_exit                                0x080001bb   Thumb Code     0  rtexit.o(.ARM.Collect$$rtexit$$00000000)
    __rt_exit_ls                             0x080001bd   Thumb Code     0  rtexit2.o(.ARM.Collect$$rtexit$$00000003)
    __rt_exit_prels_1                        0x080001bd   Thumb Code     0  rtexit2.o(.ARM.Collect$$rtexit$$00000002)
    __rt_exit_exit                           0x080001c1   Thumb Code     0  rtexit2.o(.ARM.Collect$$rtexit$$00000004)
    Reset_Handler                            0x080001c9   Thumb Code     8  startup_stm32f10x_md.o(.text)
    ADC1_2_IRQHandler                        0x080001e3   Thumb Code     0  startup_stm32f10x_md.o(.text)
    CAN1_RX1_IRQHandler                      0x080001e3   Thumb Code     0  startup_stm32f10x_md.o(.text)
    CAN1_SCE_IRQHandler                      0x080001e3   Thumb Code     0  startup_stm32f10x_md.o(.text)
    DMA1_Channel1_IRQHandler                 0x080001e3   Thumb Code     0  startup_stm32f10x_md.o(.text)
    DMA1_Channel2_IRQHandler                 0x080001e3   Thumb Code     0  startup_stm32f10x_md.o(.text)
    DMA1_Channel3_IRQHandler                 0x080001e3   Thumb Code     0  startup_stm32f10x_md.o(.text)
    DMA1_Channel4_IRQHandler                 0x080001e3   Thumb Code     0  startup_stm32f10x_md.o(.text)
    DMA1_Channel5_IRQHandler                 0x080001e3   Thumb Code     0  startup_stm32f10x_md.o(.text)
    DMA1_Channel6_IRQHandler                 0x080001e3   Thumb Code     0  startup_stm32f10x_md.o(.text)
    DMA1_Channel7_IRQHandler                 0x080001e3   Thumb Code     0  startup_stm32f10x_md.o(.text)
    EXTI0_IRQHandler                         0x080001e3   Thumb Code     0  startup_stm32f10x_md.o(.text)
    EXTI15_10_IRQHandler                     0x080001e3   Thumb Code     0  startup_stm32f10x_md.o(.text)
    EXTI1_IRQHandler                         0x080001e3   Thumb Code     0  startup_stm32f10x_md.o(.text)
    EXTI2_IRQHandler                         0x080001e3   Thumb Code     0  startup_stm32f10x_md.o(.text)
    EXTI3_IRQHandler                         0x080001e3   Thumb Code     0  startup_stm32f10x_md.o(.text)
    EXTI4_IRQHandler                         0x080001e3   Thumb Code     0  startup_stm32f10x_md.o(.text)
    EXTI9_5_IRQHandler                       0x080001e3   Thumb Code     0  startup_stm32f10x_md.o(.text)
    FLASH_IRQHandler                         0x080001e3   Thumb Code     0  startup_stm32f10x_md.o(.text)
    I2C1_ER_IRQHandler                       0x080001e3   Thumb Code     0  startup_stm32f10x_md.o(.text)
    I2C1_EV_IRQHandler                       0x080001e3   Thumb Code     0  startup_stm32f10x_md.o(.text)
    I2C2_ER_IRQHandler                       0x080001e3   Thumb Code     0  startup_stm32f10x_md.o(.text)
    I2C2_EV_IRQHandler                       0x080001e3   Thumb Code     0  startup_stm32f10x_md.o(.text)
    PVD_IRQHandler                           0x080001e3   Thumb Code     0  startup_stm32f10x_md.o(.text)
    RCC_IRQHandler                           0x080001e3   Thumb Code     0  startup_stm32f10x_md.o(.text)
    RTCAlarm_IRQHandler                      0x080001e3   Thumb Code     0  startup_stm32f10x_md.o(.text)
    RTC_IRQHandler                           0x080001e3   Thumb Code     0  startup_stm32f10x_md.o(.text)
    SPI1_IRQHandler                          0x080001e3   Thumb Code     0  startup_stm32f10x_md.o(.text)
    SPI2_IRQHandler                          0x080001e3   Thumb Code     0  startup_stm32f10x_md.o(.text)
    TAMPER_IRQHandler                        0x080001e3   Thumb Code     0  startup_stm32f10x_md.o(.text)
    TIM1_BRK_IRQHandler                      0x080001e3   Thumb Code     0  startup_stm32f10x_md.o(.text)
    TIM1_CC_IRQHandler                       0x080001e3   Thumb Code     0  startup_stm32f10x_md.o(.text)
    TIM1_TRG_COM_IRQHandler                  0x080001e3   Thumb Code     0  startup_stm32f10x_md.o(.text)
    TIM1_UP_IRQHandler                       0x080001e3   Thumb Code     0  startup_stm32f10x_md.o(.text)
    TIM2_IRQHandler                          0x080001e3   Thumb Code     0  startup_stm32f10x_md.o(.text)
    TIM4_IRQHandler                          0x080001e3   Thumb Code     0  startup_stm32f10x_md.o(.text)
    USART1_IRQHandler                        0x080001e3   Thumb Code     0  startup_stm32f10x_md.o(.text)
    USART2_IRQHandler                        0x080001e3   Thumb Code     0  startup_stm32f10x_md.o(.text)
    USART3_IRQHandler                        0x080001e3   Thumb Code     0  startup_stm32f10x_md.o(.text)
    USB_HP_CAN1_TX_IRQHandler                0x080001e3   Thumb Code     0  startup_stm32f10x_md.o(.text)
    WWDG_IRQHandler                          0x080001e3   Thumb Code     0  startup_stm32f10x_md.o(.text)
    __user_initial_stackheap                 0x080001e5   Thumb Code     0  startup_stm32f10x_md.o(.text)
    __use_two_region_memory                  0x08000209   Thumb Code     2  heapauxi.o(.text)
    __rt_heap_escrow$2region                 0x0800020b   Thumb Code     2  heapauxi.o(.text)
    __rt_heap_expand$2region                 0x0800020d   Thumb Code     2  heapauxi.o(.text)
    __user_setup_stackheap                   0x0800020f   Thumb Code    74  sys_stackheap_outer.o(.text)
    exit                                     0x08000259   Thumb Code    18  exit.o(.text)
    __user_libspace                          0x0800026d   Thumb Code     8  libspace.o(.text)
    __user_perproc_libspace                  0x0800026d   Thumb Code     0  libspace.o(.text)
    __user_perthread_libspace                0x0800026d   Thumb Code     0  libspace.o(.text)
    _sys_exit                                0x08000275   Thumb Code     8  sys_exit.o(.text)
    __I$use$semihosting                      0x08000281   Thumb Code     0  use_no_semi.o(.text)
    __use_no_semihosting_swi                 0x08000281   Thumb Code     2  use_no_semi.o(.text)
    BusFault_Handler                         0x08000283   Thumb Code     4  stm32f10x_it.o(i.BusFault_Handler)
    __semihosting_library_function           0x08000283   Thumb Code     0  indicate_semi.o(.text)
    ByteSwap                                 0x08000287   Thumb Code    12  usb_regs.o(i.ByteSwap)
    CTR_LP                                   0x08000295   Thumb Code   616  usb_int.o(i.CTR_LP)
    ClearDTOG_RX                             0x0800051d   Thumb Code    48  usb_regs.o(i.ClearDTOG_RX)
    ClearDTOG_TX                             0x08000551   Thumb Code    48  usb_regs.o(i.ClearDTOG_TX)
    Clear_Status_Out                         0x08000585   Thumb Code    34  usb_regs.o(i.Clear_Status_Out)
    DebugMon_Handler                         0x080009c1   Thumb Code     2  stm32f10x_it.o(i.DebugMon_Handler)
    EP1_IN_Callback                          0x080009c3   Thumb Code     2  usb_endp.o(i.EP1_IN_Callback)
    EP1_OUT_Callback                         0x080009c5   Thumb Code    38  usb_endp.o(i.EP1_OUT_Callback)
    EXTI_ClearITPendingBit                   0x080009ed   Thumb Code     6  stm32f10x_exti.o(i.EXTI_ClearITPendingBit)
    EXTI_Init                                0x080009f9   Thumb Code   142  stm32f10x_exti.o(i.EXTI_Init)
    GPIO_Init                                0x08000a8d   Thumb Code   278  stm32f10x_gpio.o(i.GPIO_Init)
    GPIO_PinRemapConfig                      0x08000ba5   Thumb Code   138  stm32f10x_gpio.o(i.GPIO_PinRemapConfig)
    GPIO_ResetBits                           0x08000c35   Thumb Code     4  stm32f10x_gpio.o(i.GPIO_ResetBits)
    GPIO_SetBits                             0x08000c39   Thumb Code     4  stm32f10x_gpio.o(i.GPIO_SetBits)
    GetEPRxAddr                              0x08000c3d   Thumb Code    24  usb_regs.o(i.GetEPRxAddr)
    GetEPRxCount                             0x08000c5d   Thumb Code    26  usb_regs.o(i.GetEPRxCount)
    GetEPTxAddr                              0x08000c81   Thumb Code    22  usb_regs.o(i.GetEPTxAddr)
    Get_SerialNum                            0x08000ca1   Thumb Code    42  hw_config.o(i.Get_SerialNum)
    HardFault_Handler                        0x08000cd5   Thumb Code     4  stm32f10x_it.o(i.HardFault_Handler)
    In0_Process                              0x08000cd9   Thumb Code    98  usb_core.o(i.In0_Process)
    Joystick_Data_Setup                      0x08000d89   Thumb Code   108  usb_prop.o(i.Joystick_Data_Setup)
    Joystick_GetConfigDescriptor             0x08000e05   Thumb Code    14  usb_prop.o(i.Joystick_GetConfigDescriptor)
    Joystick_GetDeviceDescriptor             0x08000e19   Thumb Code    14  usb_prop.o(i.Joystick_GetDeviceDescriptor)
    Joystick_GetHIDDescriptor                0x08000e2d   Thumb Code    14  usb_prop.o(i.Joystick_GetHIDDescriptor)
    Joystick_GetProtocolValue                0x08000e41   Thumb Code    20  usb_prop.o(i.Joystick_GetProtocolValue)
    Joystick_GetReportDescriptor             0x08000e5d   Thumb Code    14  usb_prop.o(i.Joystick_GetReportDescriptor)
    Joystick_GetStringDescriptor             0x08000e71   Thumb Code    32  usb_prop.o(i.Joystick_GetStringDescriptor)
    Joystick_Get_Interface_Setting           0x08000e99   Thumb Code    22  usb_prop.o(i.Joystick_Get_Interface_Setting)
    Joystick_NoData_Setup                    0x08000eb1   Thumb Code    32  usb_prop.o(i.Joystick_NoData_Setup)
    Joystick_Reset                           0x08000ed5   Thumb Code   174  usb_prop.o(i.Joystick_Reset)
    Joystick_SetConfiguration                0x08000f95   Thumb Code    14  usb_prop.o(i.Joystick_SetConfiguration)
    Joystick_SetDeviceAddress                0x08000fad   Thumb Code     8  usb_prop.o(i.Joystick_SetDeviceAddress)
    Joystick_SetProtocol                     0x08000fb9   Thumb Code    14  usb_prop.o(i.Joystick_SetProtocol)
    Joystick_Status_In                       0x08000fd1   Thumb Code     2  usb_prop.o(i.Joystick_Status_In)
    Joystick_Status_Out                      0x08000fd3   Thumb Code     2  usb_prop.o(i.Joystick_Status_Out)
    Joystick_init                            0x08000fd5   Thumb Code    30  usb_prop.o(i.Joystick_init)
    Leave_LowPowerMode                       0x08000ffd   Thumb Code    28  hw_config.o(i.Leave_LowPowerMode)
    MemManage_Handler                        0x08001021   Thumb Code     4  stm32f10x_it.o(i.MemManage_Handler)
    NMI_Handler                              0x08001025   Thumb Code     2  stm32f10x_it.o(i.NMI_Handler)
    NOP_Process                              0x08001027   Thumb Code     2  usb_core.o(i.NOP_Process)
    NVIC_Init                                0x08001029   Thumb Code   100  misc.o(i.NVIC_Init)
    NVIC_PriorityGroupConfig                 0x08001099   Thumb Code    10  misc.o(i.NVIC_PriorityGroupConfig)
    Out0_Process                             0x080011e5   Thumb Code    70  usb_core.o(i.Out0_Process)
    PMAToUserBufferCopy                      0x08001235   Thumb Code    34  usb_mem.o(i.PMAToUserBufferCopy)
    PendSV_Handler                           0x0800125d   Thumb Code     2  stm32f10x_it.o(i.PendSV_Handler)
    Post0_Process                            0x08001261   Thumb Code    54  usb_core.o(i.Post0_Process)
    PowerOn                                  0x080012a9   Thumb Code    46  usb_pwr.o(i.PowerOn)
    RCC_APB1PeriphClockCmd                   0x080012e1   Thumb Code    26  stm32f10x_rcc.o(i.RCC_APB1PeriphClockCmd)
    RCC_APB2PeriphClockCmd                   0x08001301   Thumb Code    26  stm32f10x_rcc.o(i.RCC_APB2PeriphClockCmd)
    RCC_USBCLKConfig                         0x08001321   Thumb Code     6  stm32f10x_rcc.o(i.RCC_USBCLKConfig)
    Resume                                   0x0800132d   Thumb Code   194  usb_pwr.o(i.Resume)
    Resume_Init                              0x080013fd   Thumb Code    30  usb_pwr.o(i.Resume_Init)
    SVC_Handler                              0x08001421   Thumb Code     2  stm32f10x_it.o(i.SVC_Handler)
    SetBTABLE                                0x08001425   Thumb Code    12  usb_regs.o(i.SetBTABLE)
    SetDeviceAddress                         0x08001435   Thumb Code    68  usb_core.o(i.SetDeviceAddress)
    SetEPRxAddr                              0x08001485   Thumb Code    26  usb_regs.o(i.SetEPRxAddr)
    SetEPRxCount                             0x080014a9   Thumb Code    68  usb_regs.o(i.SetEPRxCount)
    SetEPRxStatus                            0x080014f5   Thumb Code    60  usb_regs.o(i.SetEPRxStatus)
    SetEPRxValid                             0x08001535   Thumb Code    48  usb_regs.o(i.SetEPRxValid)
    SetEPTxAddr                              0x08001569   Thumb Code    24  usb_regs.o(i.SetEPTxAddr)
    SetEPTxCount                             0x08001589   Thumb Code    20  usb_regs.o(i.SetEPTxCount)
    SetEPTxStatus                            0x080015a5   Thumb Code    60  usb_regs.o(i.SetEPTxStatus)
    SetEPTxValid                             0x080015e5   Thumb Code    48  usb_regs.o(i.SetEPTxValid)
    SetEPType                                0x08001619   Thumb Code    32  usb_regs.o(i.SetEPType)
    Set_System                               0x08001725   Thumb Code    34  hw_config.o(i.Set_System)
    Set_USBClock                             0x0800174d   Thumb Code    18  hw_config.o(i.Set_USBClock)
    Setup0_Process                           0x08001761   Thumb Code   170  usb_core.o(i.Setup0_Process)
    Standard_ClearFeature                    0x08001819   Thumb Code   342  usb_core.o(i.Standard_ClearFeature)
    Standard_GetConfiguration                0x08001985   Thumb Code    34  usb_core.o(i.Standard_GetConfiguration)
    Standard_GetDescriptorData               0x080019b1   Thumb Code    32  usb_core.o(i.Standard_GetDescriptorData)
    Standard_GetInterface                    0x080019d5   Thumb Code    34  usb_core.o(i.Standard_GetInterface)
    Standard_GetStatus                       0x08001a01   Thumb Code   238  usb_core.o(i.Standard_GetStatus)
    Standard_SetConfiguration                0x08001b01   Thumb Code    60  usb_core.o(i.Standard_SetConfiguration)
    Standard_SetDeviceFeature                0x08001b49   Thumb Code    30  usb_core.o(i.Standard_SetDeviceFeature)
    Standard_SetEndPointFeature              0x08001b71   Thumb Code   192  usb_core.o(i.Standard_SetEndPointFeature)
    Standard_SetInterface                    0x08001c41   Thumb Code    96  usb_core.o(i.Standard_SetInterface)
    Suspend                                  0x08001cad   Thumb Code   240  usb_pwr.o(i.Suspend)
    SysTick_CLKSourceConfig                  0x08001db1   Thumb Code    40  misc.o(i.SysTick_CLKSourceConfig)
    SysTick_Handler                          0x08001dd9   Thumb Code     2  stm32f10x_it.o(i.SysTick_Handler)
    SystemInit                               0x08001ddd   Thumb Code    78  system_stm32f10x_1.o(i.SystemInit)
    TIM3_IRQHandler                          0x08001e3d   Thumb Code    96  led.o(i.TIM3_IRQHandler)
    TIM_ClearITPendingBit                    0x08001ead   Thumb Code     6  stm32f10x_tim.o(i.TIM_ClearITPendingBit)
    TIM_Cmd                                  0x08001eb3   Thumb Code    24  stm32f10x_tim.o(i.TIM_Cmd)
    TIM_GetITStatus                          0x08001ecb   Thumb Code    34  stm32f10x_tim.o(i.TIM_GetITStatus)
    TIM_ITConfig                             0x08001eed   Thumb Code    18  stm32f10x_tim.o(i.TIM_ITConfig)
    TIM_OC3Init                              0x08001f01   Thumb Code   150  stm32f10x_tim.o(i.TIM_OC3Init)
    TIM_OC3PreloadConfig                     0x08001fa1   Thumb Code    18  stm32f10x_tim.o(i.TIM_OC3PreloadConfig)
    TIM_OC4Init                              0x08001fb5   Thumb Code   114  stm32f10x_tim.o(i.TIM_OC4Init)
    TIM_OC4PreloadConfig                     0x08002031   Thumb Code    26  stm32f10x_tim.o(i.TIM_OC4PreloadConfig)
    TIM_SetCompare3                          0x0800204b   Thumb Code     4  stm32f10x_tim.o(i.TIM_SetCompare3)
    TIM_SetCompare4                          0x0800204f   Thumb Code     6  stm32f10x_tim.o(i.TIM_SetCompare4)
    TIM_TimeBaseInit                         0x08002055   Thumb Code   122  stm32f10x_tim.o(i.TIM_TimeBaseInit)
    USBWakeUp_IRQHandler                     0x080020f9   Thumb Code    12  stm32f10x_it.o(i.USBWakeUp_IRQHandler)
    USB_Init                                 0x08002105   Thumb Code    36  usb_init.o(i.USB_Init)
    USB_Interrupts_Config                    0x08002141   Thumb Code    52  hw_config.o(i.USB_Interrupts_Config)
    USB_Istr                                 0x08002175   Thumb Code   422  usb_istr.o(i.USB_Istr)
    USB_LP_CAN1_RX0_IRQHandler               0x08002341   Thumb Code     8  stm32f10x_it.o(i.USB_LP_CAN1_RX0_IRQHandler)
    USB_Port_Set                             0x08002349   Thumb Code    74  hw_config.o(i.USB_Port_Set)
    USB_SIL_Init                             0x080023a1   Thumb Code    28  usb_sil.o(i.USB_SIL_Init)
    USB_SIL_Write                            0x080023c5   Thumb Code    46  usb_sil.o(i.USB_SIL_Write)
    UsageFault_Handler                       0x080023f3   Thumb Code     4  stm32f10x_it.o(i.UsageFault_Handler)
    UserToPMABufferCopy                      0x080023f9   Thumb Code    52  usb_mem.o(i.UserToPMABufferCopy)
    keyboard_init()                          0x08002431   Thumb Code    64  keyboard.o(i._Z13keyboard_initv)
    TKeys::Send()                            0x08002475   Thumb Code   246  keyboard.o(i._ZN5TKeys4SendEv)
    TLeds::SetAll(bool)                      0x08002579   Thumb Code    50  keyboard.o(i._ZN5TLeds6SetAllEb)
    TLeds::Update()                          0x080025bd   Thumb Code    12  keyboard.o(i._ZN5TLeds6UpdateEv)
    aip1638_init                             0x080025cd   Thumb Code    98  aip1638.o(i.aip1638_init)
    aip1638_readKey                          0x08002639   Thumb Code   128  aip1638.o(i.aip1638_readKey)
    aip1638_setLED                           0x080026c1   Thumb Code   104  aip1638.o(i.aip1638_setLED)
    aip1638_write                            0x08002729   Thumb Code    52  aip1638.o(i.aip1638_write)
    aip1638_writeCmd                         0x08002765   Thumb Code    30  aip1638.o(i.aip1638_writeCmd)
    aip1638_writeData                        0x0800278d   Thumb Code    42  aip1638.o(i.aip1638_writeData)
    delay_init                               0x080027c1   Thumb Code    12  delay.o(i.delay_init)
    delay_ms                                 0x080027cd   Thumb Code    24  delay.o(i.delay_ms)
    delay_us                                 0x080027e5   Thumb Code    74  delay.o(i.delay_us)
    key_init                                 0x08002831   Thumb Code    52  key.o(i.key_init)
    key_scan                                 0x0800286d   Thumb Code   206  key.o(i.key_scan)
    led_init                                 0x08002949   Thumb Code   110  led.o(i.led_init)
    main                                     0x080029c5   Thumb Code    24  main.o(i.main)
    tim_init                                 0x080029dd   Thumb Code   170  led.o(i.tim_init)
    usb_init                                 0x08002a91   Thumb Code    44  usb.o(i.usb_init)
    usb_isConfigured                         0x08002abd   Thumb Code    16  usb.o(i.usb_isConfigured)
    usb_send                                 0x08002ad1   Thumb Code    70  usb.o(i.usb_send)
    Joystick_DeviceDescriptor                0x08002b6a   Data          18  usb_desc.o(.constdata)
    Joystick_ConfigDescriptor                0x08002b7c   Data          41  usb_desc.o(.constdata)
    Joystick_ReportDescriptor                0x08002ba5   Data          63  usb_desc.o(.constdata)
    Joystick_StringLangID                    0x08002be4   Data           4  usb_desc.o(.constdata)
    Joystick_StringVendor                    0x08002be8   Data          38  usb_desc.o(.constdata)
    Joystick_StringProduct                   0x08002c0e   Data          30  usb_desc.o(.constdata)
    Region$$Table$$Base                      0x08002c2c   Number         0  anon$$obj.o(Region$$Table)
    Region$$Table$$Limit                     0x08002c4c   Number         0  anon$$obj.o(Region$$Table)
    StatusInfo                               0x20000000   Data           2  usb_core.o(.data)
    Data_Mul_MaxPacketSize                   0x20000002   Data           1  usb_core.o(.data)
    EPindex                                  0x20000004   Data           1  usb_init.o(.data)
    pInformation                             0x20000008   Data           4  usb_init.o(.data)
    pProperty                                0x2000000c   Data           4  usb_init.o(.data)
    SaveState                                0x20000010   Data           2  usb_init.o(.data)
    wInterrupt_Mask                          0x20000012   Data           2  usb_init.o(.data)
    pUser_Standard_Requests                  0x20000014   Data           4  usb_init.o(.data)
    SaveRState                               0x20000018   Data           2  usb_int.o(.data)
    SaveTState                               0x2000001a   Data           2  usb_int.o(.data)
    HSEStartUpStatus                         0x2000001c   Data           1  hw_config.o(.data)
    EXTI_InitStructure                       0x20000020   Data           8  hw_config.o(.data)
    Joystick_StringSerial                    0x20000028   Data          26  usb_desc.o(.data)
    wIstr                                    0x20000044   Data           2  usb_istr.o(.data)
    bIntPackSOF                              0x20000046   Data           1  usb_istr.o(.data)
    esof_counter                             0x20000048   Data           4  usb_istr.o(.data)
    wCNTR                                    0x2000004c   Data           4  usb_istr.o(.data)
    pEpInt_IN                                0x20000050   Data          28  usb_istr.o(.data)
    pEpInt_OUT                               0x2000006c   Data          28  usb_istr.o(.data)
    ProtocolValue                            0x20000088   Data           4  usb_prop.o(.data)
    Device_Table                             0x2000008c   Data           2  usb_prop.o(.data)
    Device_Property                          0x20000090   Data          48  usb_prop.o(.data)
    User_Standard_Requests                   0x200000c0   Data          36  usb_prop.o(.data)
    Device_Descriptor                        0x200000e4   Data           8  usb_prop.o(.data)
    Config_Descriptor                        0x200000ec   Data           8  usb_prop.o(.data)
    Joystick_Report_Descriptor               0x200000f4   Data           8  usb_prop.o(.data)
    Mouse_Hid_Descriptor                     0x200000fc   Data           8  usb_prop.o(.data)
    String_Descriptor                        0x20000104   Data          32  usb_prop.o(.data)
    bDeviceState                             0x20000124   Data           4  usb_pwr.o(.data)
    fSuspendEnabled                          0x20000128   Data           1  usb_pwr.o(.data)
    remotewakeupon                           0x2000012c   Data           4  usb_pwr.o(.data)
    ResumeS                                  0x20000130   Data           2  usb_pwr.o(.data)
    LEDdat                                   0x2000013c   Data          80  keyboard.o(.bss)
    Device_Info                              0x2000018c   Data          28  usb_init.o(.bss)
    EP                                       0x200001a8   Data          32  usb_pwr.o(.bss)
    __libspace_start                         0x200001c8   Data          96  libspace.o(.bss)
    __temporary_stack_top$libspace           0x20000228   Data           0  libspace.o(.bss)



==============================================================================

Memory Map of the image

  Image Entry point : 0x080001c9

  Load Region LR_1 (Base: 0x08000000, Size: 0x00002d88, Max: 0xffffffff, ABSOLUTE, COMPRESSED[0x00002ccc])

    Execution Region ER_RO (Exec base: 0x08000000, Load base: 0x08000000, Size: 0x00002c4c, Max: 0xffffffff, ABSOLUTE)

    Exec Addr    Load Addr    Size         Type   Attr      Idx    E Section Name        Object

    0x08000000   0x08000000   0x000000ec   Data   RO         3008    RESET               startup_stm32f10x_md.o
    0x080000ec   0x080000ec   0x00000008   Code   RO         3053  * !!!main             c_w.l(__main.o)
    0x080000f4   0x080000f4   0x00000034   Code   RO         3210    !!!scatter          c_w.l(__scatter.o)
    0x08000128   0x08000128   0x0000005a   Code   RO         3208    !!dczerorl2         c_w.l(__dczerorl2.o)
    0x08000182   0x08000182   0x00000002   PAD
    0x08000184   0x08000184   0x0000001c   Code   RO         3212    !!handler_zi        c_w.l(__scatter_zi.o)
    0x080001a0   0x080001a0   0x00000002   Code   RO         3080    .ARM.Collect$$libinit$$00000000  c_w.l(libinit.o)
    0x080001a2   0x080001a2   0x00000000   Code   RO         3087    .ARM.Collect$$libinit$$00000002  c_w.l(libinit2.o)
    0x080001a2   0x080001a2   0x00000000   Code   RO         3089    .ARM.Collect$$libinit$$00000004  c_w.l(libinit2.o)
    0x080001a2   0x080001a2   0x00000000   Code   RO         3092    .ARM.Collect$$libinit$$0000000A  c_w.l(libinit2.o)
    0x080001a2   0x080001a2   0x00000000   Code   RO         3094    .ARM.Collect$$libinit$$0000000C  c_w.l(libinit2.o)
    0x080001a2   0x080001a2   0x00000000   Code   RO         3096    .ARM.Collect$$libinit$$0000000E  c_w.l(libinit2.o)
    0x080001a2   0x080001a2   0x00000000   Code   RO         3099    .ARM.Collect$$libinit$$00000011  c_w.l(libinit2.o)
    0x080001a2   0x080001a2   0x00000000   Code   RO         3101    .ARM.Collect$$libinit$$00000013  c_w.l(libinit2.o)
    0x080001a2   0x080001a2   0x00000000   Code   RO         3103    .ARM.Collect$$libinit$$00000015  c_w.l(libinit2.o)
    0x080001a2   0x080001a2   0x00000000   Code   RO         3105    .ARM.Collect$$libinit$$00000017  c_w.l(libinit2.o)
    0x080001a2   0x080001a2   0x00000000   Code   RO         3107    .ARM.Collect$$libinit$$00000019  c_w.l(libinit2.o)
    0x080001a2   0x080001a2   0x00000000   Code   RO         3109    .ARM.Collect$$libinit$$0000001B  c_w.l(libinit2.o)
    0x080001a2   0x080001a2   0x00000000   Code   RO         3111    .ARM.Collect$$libinit$$0000001D  c_w.l(libinit2.o)
    0x080001a2   0x080001a2   0x00000000   Code   RO         3113    .ARM.Collect$$libinit$$0000001F  c_w.l(libinit2.o)
    0x080001a2   0x080001a2   0x00000000   Code   RO         3115    .ARM.Collect$$libinit$$00000021  c_w.l(libinit2.o)
    0x080001a2   0x080001a2   0x00000000   Code   RO         3117    .ARM.Collect$$libinit$$00000023  c_w.l(libinit2.o)
    0x080001a2   0x080001a2   0x00000000   Code   RO         3119    .ARM.Collect$$libinit$$00000025  c_w.l(libinit2.o)
    0x080001a2   0x080001a2   0x00000000   Code   RO         3123    .ARM.Collect$$libinit$$0000002C  c_w.l(libinit2.o)
    0x080001a2   0x080001a2   0x00000000   Code   RO         3125    .ARM.Collect$$libinit$$0000002E  c_w.l(libinit2.o)
    0x080001a2   0x080001a2   0x00000000   Code   RO         3127    .ARM.Collect$$libinit$$00000030  c_w.l(libinit2.o)
    0x080001a2   0x080001a2   0x00000000   Code   RO         3129    .ARM.Collect$$libinit$$00000032  c_w.l(libinit2.o)
    0x080001a2   0x080001a2   0x00000002   Code   RO         3130    .ARM.Collect$$libinit$$00000033  c_w.l(libinit2.o)
    0x080001a4   0x080001a4   0x00000002   Code   RO         3150    .ARM.Collect$$libshutdown$$00000000  c_w.l(libshutdown.o)
    0x080001a6   0x080001a6   0x00000000   Code   RO         3163    .ARM.Collect$$libshutdown$$00000002  c_w.l(libshutdown2.o)
    0x080001a6   0x080001a6   0x00000000   Code   RO         3165    .ARM.Collect$$libshutdown$$00000004  c_w.l(libshutdown2.o)
    0x080001a6   0x080001a6   0x00000000   Code   RO         3168    .ARM.Collect$$libshutdown$$00000007  c_w.l(libshutdown2.o)
    0x080001a6   0x080001a6   0x00000000   Code   RO         3171    .ARM.Collect$$libshutdown$$0000000A  c_w.l(libshutdown2.o)
    0x080001a6   0x080001a6   0x00000000   Code   RO         3173    .ARM.Collect$$libshutdown$$0000000C  c_w.l(libshutdown2.o)
    0x080001a6   0x080001a6   0x00000000   Code   RO         3176    .ARM.Collect$$libshutdown$$0000000F  c_w.l(libshutdown2.o)
    0x080001a6   0x080001a6   0x00000002   Code   RO         3177    .ARM.Collect$$libshutdown$$00000010  c_w.l(libshutdown2.o)
    0x080001a8   0x080001a8   0x00000000   Code   RO         3055    .ARM.Collect$$rtentry$$00000000  c_w.l(__rtentry.o)
    0x080001a8   0x080001a8   0x00000000   Code   RO         3057    .ARM.Collect$$rtentry$$00000002  c_w.l(__rtentry2.o)
    0x080001a8   0x080001a8   0x00000006   Code   RO         3069    .ARM.Collect$$rtentry$$00000004  c_w.l(__rtentry4.o)
    0x080001ae   0x080001ae   0x00000000   Code   RO         3059    .ARM.Collect$$rtentry$$00000009  c_w.l(__rtentry2.o)
    0x080001ae   0x080001ae   0x00000004   Code   RO         3060    .ARM.Collect$$rtentry$$0000000A  c_w.l(__rtentry2.o)
    0x080001b2   0x080001b2   0x00000000   Code   RO         3062    .ARM.Collect$$rtentry$$0000000C  c_w.l(__rtentry2.o)
    0x080001b2   0x080001b2   0x00000008   Code   RO         3063    .ARM.Collect$$rtentry$$0000000D  c_w.l(__rtentry2.o)
    0x080001ba   0x080001ba   0x00000002   Code   RO         3084    .ARM.Collect$$rtexit$$00000000  c_w.l(rtexit.o)
    0x080001bc   0x080001bc   0x00000000   Code   RO         3132    .ARM.Collect$$rtexit$$00000002  c_w.l(rtexit2.o)
    0x080001bc   0x080001bc   0x00000004   Code   RO         3133    .ARM.Collect$$rtexit$$00000003  c_w.l(rtexit2.o)
    0x080001c0   0x080001c0   0x00000006   Code   RO         3134    .ARM.Collect$$rtexit$$00000004  c_w.l(rtexit2.o)
    0x080001c6   0x080001c6   0x00000002   PAD
    0x080001c8   0x080001c8   0x00000040   Code   RO         3009  * .text               startup_stm32f10x_md.o
    0x08000208   0x08000208   0x00000006   Code   RO         3051    .text               c_w.l(heapauxi.o)
    0x0800020e   0x0800020e   0x0000004a   Code   RO         3071    .text               c_w.l(sys_stackheap_outer.o)
    0x08000258   0x08000258   0x00000012   Code   RO         3073    .text               c_w.l(exit.o)
    0x0800026a   0x0800026a   0x00000002   PAD
    0x0800026c   0x0800026c   0x00000008   Code   RO         3081    .text               c_w.l(libspace.o)
    0x08000274   0x08000274   0x0000000c   Code   RO         3142    .text               c_w.l(sys_exit.o)
    0x08000280   0x08000280   0x00000002   Code   RO         3153    .text               c_w.l(use_no_semi.o)
    0x08000282   0x08000282   0x00000000   Code   RO         3155    .text               c_w.l(indicate_semi.o)
    0x08000282   0x08000282   0x00000004   Code   RO         1214    i.BusFault_Handler  stm32f10x_it.o
    0x08000286   0x08000286   0x0000000c   Code   RO          485    i.ByteSwap          usb_regs.o
    0x08000292   0x08000292   0x00000002   PAD
    0x08000294   0x08000294   0x00000288   Code   RO          438    i.CTR_LP            usb_int.o
    0x0800051c   0x0800051c   0x00000034   Code   RO          486    i.ClearDTOG_RX      usb_regs.o
    0x08000550   0x08000550   0x00000034   Code   RO          487    i.ClearDTOG_TX      usb_regs.o
    0x08000584   0x08000584   0x00000028   Code   RO          492    i.Clear_Status_Out  usb_regs.o
    0x080005ac   0x080005ac   0x000000c0   Code   RO          166    i.DataStageIn       usb_core.o
    0x0800066c   0x0800066c   0x000000bc   Code   RO          167    i.DataStageOut      usb_core.o
    0x08000728   0x08000728   0x00000298   Code   RO          168    i.Data_Setup0       usb_core.o
    0x080009c0   0x080009c0   0x00000002   Code   RO         1215    i.DebugMon_Handler  stm32f10x_it.o
    0x080009c2   0x080009c2   0x00000002   Code   RO          988    i.EP1_IN_Callback   usb_endp.o
    0x080009c4   0x080009c4   0x00000026   Code   RO          989    i.EP1_OUT_Callback  usb_endp.o
    0x080009ea   0x080009ea   0x00000002   PAD
    0x080009ec   0x080009ec   0x0000000c   Code   RO         1414    i.EXTI_ClearITPendingBit  stm32f10x_exti.o
    0x080009f8   0x080009f8   0x00000094   Code   RO         1419    i.EXTI_Init         stm32f10x_exti.o
    0x08000a8c   0x08000a8c   0x00000116   Code   RO         1479    i.GPIO_Init         stm32f10x_gpio.o
    0x08000ba2   0x08000ba2   0x00000002   PAD
    0x08000ba4   0x08000ba4   0x00000090   Code   RO         1481    i.GPIO_PinRemapConfig  stm32f10x_gpio.o
    0x08000c34   0x08000c34   0x00000004   Code   RO         1486    i.GPIO_ResetBits    stm32f10x_gpio.o
    0x08000c38   0x08000c38   0x00000004   Code   RO         1487    i.GPIO_SetBits      stm32f10x_gpio.o
    0x08000c3c   0x08000c3c   0x00000020   Code   RO          504    i.GetEPRxAddr       usb_regs.o
    0x08000c5c   0x08000c5c   0x00000024   Code   RO          505    i.GetEPRxCount      usb_regs.o
    0x08000c80   0x08000c80   0x00000020   Code   RO          507    i.GetEPTxAddr       usb_regs.o
    0x08000ca0   0x08000ca0   0x00000034   Code   RO          870    i.Get_SerialNum     hw_config.o
    0x08000cd4   0x08000cd4   0x00000004   Code   RO         1216    i.HardFault_Handler  stm32f10x_it.o
    0x08000cd8   0x08000cd8   0x00000070   Code   RO          169    i.In0_Process       usb_core.o
    0x08000d48   0x08000d48   0x0000003e   Code   RO          871    i.IntToUnicode      hw_config.o
    0x08000d86   0x08000d86   0x00000002   PAD
    0x08000d88   0x08000d88   0x0000007c   Code   RO         1034    i.Joystick_Data_Setup  usb_prop.o
    0x08000e04   0x08000e04   0x00000014   Code   RO         1035    i.Joystick_GetConfigDescriptor  usb_prop.o
    0x08000e18   0x08000e18   0x00000014   Code   RO         1036    i.Joystick_GetDeviceDescriptor  usb_prop.o
    0x08000e2c   0x08000e2c   0x00000014   Code   RO         1037    i.Joystick_GetHIDDescriptor  usb_prop.o
    0x08000e40   0x08000e40   0x0000001c   Code   RO         1038    i.Joystick_GetProtocolValue  usb_prop.o
    0x08000e5c   0x08000e5c   0x00000014   Code   RO         1039    i.Joystick_GetReportDescriptor  usb_prop.o
    0x08000e70   0x08000e70   0x00000028   Code   RO         1040    i.Joystick_GetStringDescriptor  usb_prop.o
    0x08000e98   0x08000e98   0x00000016   Code   RO         1041    i.Joystick_Get_Interface_Setting  usb_prop.o
    0x08000eae   0x08000eae   0x00000002   PAD
    0x08000eb0   0x08000eb0   0x00000024   Code   RO         1042    i.Joystick_NoData_Setup  usb_prop.o
    0x08000ed4   0x08000ed4   0x000000c0   Code   RO         1043    i.Joystick_Reset    usb_prop.o
    0x08000f94   0x08000f94   0x00000018   Code   RO         1044    i.Joystick_SetConfiguration  usb_prop.o
    0x08000fac   0x08000fac   0x0000000c   Code   RO         1045    i.Joystick_SetDeviceAddress  usb_prop.o
    0x08000fb8   0x08000fb8   0x00000018   Code   RO         1046    i.Joystick_SetProtocol  usb_prop.o
    0x08000fd0   0x08000fd0   0x00000002   Code   RO         1047    i.Joystick_Status_In  usb_prop.o
    0x08000fd2   0x08000fd2   0x00000002   Code   RO         1048    i.Joystick_Status_Out  usb_prop.o
    0x08000fd4   0x08000fd4   0x00000028   Code   RO         1049    i.Joystick_init     usb_prop.o
    0x08000ffc   0x08000ffc   0x00000024   Code   RO          873    i.Leave_LowPowerMode  hw_config.o
    0x08001020   0x08001020   0x00000004   Code   RO         1217    i.MemManage_Handler  stm32f10x_it.o
    0x08001024   0x08001024   0x00000002   Code   RO         1218    i.NMI_Handler       stm32f10x_it.o
    0x08001026   0x08001026   0x00000002   Code   RO          170    i.NOP_Process       usb_core.o
    0x08001028   0x08001028   0x00000070   Code   RO         1365    i.NVIC_Init         misc.o
    0x08001098   0x08001098   0x00000014   Code   RO         1366    i.NVIC_PriorityGroupConfig  misc.o
    0x080010ac   0x080010ac   0x00000138   Code   RO          171    i.NoData_Setup0     usb_core.o
    0x080011e4   0x080011e4   0x00000050   Code   RO          172    i.Out0_Process      usb_core.o
    0x08001234   0x08001234   0x00000028   Code   RO          467    i.PMAToUserBufferCopy  usb_mem.o
    0x0800125c   0x0800125c   0x00000002   Code   RO         1219    i.PendSV_Handler    stm32f10x_it.o
    0x0800125e   0x0800125e   0x00000002   PAD
    0x08001260   0x08001260   0x00000048   Code   RO          173    i.Post0_Process     usb_core.o
    0x080012a8   0x080012a8   0x00000038   Code   RO         1148    i.PowerOn           usb_pwr.o
    0x080012e0   0x080012e0   0x00000020   Code   RO         1652    i.RCC_APB1PeriphClockCmd  stm32f10x_rcc.o
    0x08001300   0x08001300   0x00000020   Code   RO         1654    i.RCC_APB2PeriphClockCmd  stm32f10x_rcc.o
    0x08001320   0x08001320   0x0000000c   Code   RO         1680    i.RCC_USBCLKConfig  stm32f10x_rcc.o
    0x0800132c   0x0800132c   0x000000d0   Code   RO         1149    i.Resume            usb_pwr.o
    0x080013fc   0x080013fc   0x00000024   Code   RO         1150    i.Resume_Init       usb_pwr.o
    0x08001420   0x08001420   0x00000002   Code   RO         1220    i.SVC_Handler       stm32f10x_it.o
    0x08001422   0x08001422   0x00000002   PAD
    0x08001424   0x08001424   0x00000010   Code   RO          515    i.SetBTABLE         usb_regs.o
    0x08001434   0x08001434   0x00000050   Code   RO          174    i.SetDeviceAddress  usb_core.o
    0x08001484   0x08001484   0x00000024   Code   RO          529    i.SetEPRxAddr       usb_regs.o
    0x080014a8   0x080014a8   0x0000004c   Code   RO          530    i.SetEPRxCount      usb_regs.o
    0x080014f4   0x080014f4   0x00000040   Code   RO          531    i.SetEPRxStatus     usb_regs.o
    0x08001534   0x08001534   0x00000034   Code   RO          532    i.SetEPRxValid      usb_regs.o
    0x08001568   0x08001568   0x00000020   Code   RO          533    i.SetEPTxAddr       usb_regs.o
    0x08001588   0x08001588   0x0000001c   Code   RO          534    i.SetEPTxCount      usb_regs.o
    0x080015a4   0x080015a4   0x00000040   Code   RO          535    i.SetEPTxStatus     usb_regs.o
    0x080015e4   0x080015e4   0x00000034   Code   RO          536    i.SetEPTxValid      usb_regs.o
    0x08001618   0x08001618   0x00000024   Code   RO          537    i.SetEPType         usb_regs.o
    0x0800163c   0x0800163c   0x00000008   Code   RO         3013    i.SetSysClock       system_stm32f10x_1.o
    0x08001644   0x08001644   0x000000e0   Code   RO         3014    i.SetSysClockTo72   system_stm32f10x_1.o
    0x08001724   0x08001724   0x00000028   Code   RO          874    i.Set_System        hw_config.o
    0x0800174c   0x0800174c   0x00000012   Code   RO          875    i.Set_USBClock      hw_config.o
    0x0800175e   0x0800175e   0x00000002   PAD
    0x08001760   0x08001760   0x000000b8   Code   RO          175    i.Setup0_Process    usb_core.o
    0x08001818   0x08001818   0x0000016c   Code   RO          176    i.Standard_ClearFeature  usb_core.o
    0x08001984   0x08001984   0x0000002c   Code   RO          177    i.Standard_GetConfiguration  usb_core.o
    0x080019b0   0x080019b0   0x00000024   Code   RO          178    i.Standard_GetDescriptorData  usb_core.o
    0x080019d4   0x080019d4   0x0000002c   Code   RO          179    i.Standard_GetInterface  usb_core.o
    0x08001a00   0x08001a00   0x00000100   Code   RO          180    i.Standard_GetStatus  usb_core.o
    0x08001b00   0x08001b00   0x00000048   Code   RO          181    i.Standard_SetConfiguration  usb_core.o
    0x08001b48   0x08001b48   0x00000028   Code   RO          182    i.Standard_SetDeviceFeature  usb_core.o
    0x08001b70   0x08001b70   0x000000d0   Code   RO          183    i.Standard_SetEndPointFeature  usb_core.o
    0x08001c40   0x08001c40   0x0000006c   Code   RO          184    i.Standard_SetInterface  usb_core.o
    0x08001cac   0x08001cac   0x00000104   Code   RO         1151    i.Suspend           usb_pwr.o
    0x08001db0   0x08001db0   0x00000028   Code   RO         1369    i.SysTick_CLKSourceConfig  misc.o
    0x08001dd8   0x08001dd8   0x00000002   Code   RO         1221    i.SysTick_Handler   stm32f10x_it.o
    0x08001dda   0x08001dda   0x00000002   PAD
    0x08001ddc   0x08001ddc   0x00000060   Code   RO         3016    i.SystemInit        system_stm32f10x_1.o
    0x08001e3c   0x08001e3c   0x00000070   Code   RO         2745    i.TIM3_IRQHandler   led.o
    0x08001eac   0x08001eac   0x00000006   Code   RO         2011    i.TIM_ClearITPendingBit  stm32f10x_tim.o
    0x08001eb2   0x08001eb2   0x00000018   Code   RO         2016    i.TIM_Cmd           stm32f10x_tim.o
    0x08001eca   0x08001eca   0x00000022   Code   RO         2037    i.TIM_GetITStatus   stm32f10x_tim.o
    0x08001eec   0x08001eec   0x00000012   Code   RO         2041    i.TIM_ITConfig      stm32f10x_tim.o
    0x08001efe   0x08001efe   0x00000002   PAD
    0x08001f00   0x08001f00   0x000000a0   Code   RO         2055    i.TIM_OC3Init       stm32f10x_tim.o
    0x08001fa0   0x08001fa0   0x00000012   Code   RO         2058    i.TIM_OC3PreloadConfig  stm32f10x_tim.o
    0x08001fb2   0x08001fb2   0x00000002   PAD
    0x08001fb4   0x08001fb4   0x0000007c   Code   RO         2060    i.TIM_OC4Init       stm32f10x_tim.o
    0x08002030   0x08002030   0x0000001a   Code   RO         2062    i.TIM_OC4PreloadConfig  stm32f10x_tim.o
    0x0800204a   0x0800204a   0x00000004   Code   RO         2079    i.TIM_SetCompare3   stm32f10x_tim.o
    0x0800204e   0x0800204e   0x00000006   Code   RO         2080    i.TIM_SetCompare4   stm32f10x_tim.o
    0x08002054   0x08002054   0x000000a4   Code   RO         2087    i.TIM_TimeBaseInit  stm32f10x_tim.o
    0x080020f8   0x080020f8   0x0000000c   Code   RO         1222    i.USBWakeUp_IRQHandler  stm32f10x_it.o
    0x08002104   0x08002104   0x0000003c   Code   RO          411    i.USB_Init          usb_init.o
    0x08002140   0x08002140   0x00000034   Code   RO          876    i.USB_Interrupts_Config  hw_config.o
    0x08002174   0x08002174   0x000001cc   Code   RO         1009    i.USB_Istr          usb_istr.o
    0x08002340   0x08002340   0x00000008   Code   RO         1223    i.USB_LP_CAN1_RX0_IRQHandler  stm32f10x_it.o
    0x08002348   0x08002348   0x00000058   Code   RO          877    i.USB_Port_Set      hw_config.o
    0x080023a0   0x080023a0   0x00000024   Code   RO          845    i.USB_SIL_Init      usb_sil.o
    0x080023c4   0x080023c4   0x0000002e   Code   RO          847    i.USB_SIL_Write     usb_sil.o
    0x080023f2   0x080023f2   0x00000004   Code   RO         1224    i.UsageFault_Handler  stm32f10x_it.o
    0x080023f6   0x080023f6   0x00000002   PAD
    0x080023f8   0x080023f8   0x00000038   Code   RO          468    i.UserToPMABufferCopy  usb_mem.o
    0x08002430   0x08002430   0x00000044   Code   RO          108    i._Z13keyboard_initv  keyboard.o
    0x08002474   0x08002474   0x00000104   Code   RO          109    i._ZN5TKeys4SendEv  keyboard.o
    0x08002578   0x08002578   0x00000044   Code   RO          111    i._ZN5TLeds6SetAllEb  keyboard.o
    0x080025bc   0x080025bc   0x00000010   Code   RO          112    i._ZN5TLeds6UpdateEv  keyboard.o
    0x080025cc   0x080025cc   0x0000006c   Code   RO         2775    i.aip1638_init      aip1638.o
    0x08002638   0x08002638   0x00000088   Code   RO         2776    i.aip1638_readKey   aip1638.o
    0x080026c0   0x080026c0   0x00000068   Code   RO         2777    i.aip1638_setLED    aip1638.o
    0x08002728   0x08002728   0x0000003c   Code   RO         2778    i.aip1638_write     aip1638.o
    0x08002764   0x08002764   0x00000028   Code   RO         2779    i.aip1638_writeCmd  aip1638.o
    0x0800278c   0x0800278c   0x00000034   Code   RO         2780    i.aip1638_writeData  aip1638.o
    0x080027c0   0x080027c0   0x0000000c   Code   RO         2855    i.delay_init        delay.o
    0x080027cc   0x080027cc   0x00000018   Code   RO         2856    i.delay_ms          delay.o
    0x080027e4   0x080027e4   0x0000004a   Code   RO         2857    i.delay_us          delay.o
    0x0800282e   0x0800282e   0x00000002   PAD
    0x08002830   0x08002830   0x0000003c   Code   RO         2830    i.key_init          key.o
    0x0800286c   0x0800286c   0x000000dc   Code   RO         2831    i.key_scan          key.o
    0x08002948   0x08002948   0x0000007c   Code   RO         2746    i.led_init          led.o
    0x080029c4   0x080029c4   0x00000018   Code   RO            1    i.main              main.o
    0x080029dc   0x080029dc   0x000000b4   Code   RO         2747    i.tim_init          led.o
    0x08002a90   0x08002a90   0x0000002c   Code   RO         1190    i.usb_init          usb.o
    0x08002abc   0x08002abc   0x00000014   Code   RO         1191    i.usb_isConfigured  usb.o
    0x08002ad0   0x08002ad0   0x00000046   Code   RO         1192    i.usb_send          usb.o
    0x08002b16   0x08002b16   0x00000054   Data   RO          121    .constdata          keyboard.o
    0x08002b6a   0x08002b6a   0x000000c2   Data   RO          975    .constdata          usb_desc.o
    0x08002c2c   0x08002c2c   0x00000020   Data   RO         3206    Region$$Table       anon$$obj.o


    Execution Region ER_RW (Exec base: 0x20000000, Load base: 0x08002c4c, Size: 0x0000013c, Max: 0xffffffff, ABSOLUTE, COMPRESSED[0x00000080])

    Exec Addr    Load Addr    Size         Type   Attr      Idx    E Section Name        Object

    0x20000000   COMPRESSED   0x00000003   Data   RW          185    .data               usb_core.o
    0x20000003   COMPRESSED   0x00000001   PAD
    0x20000004   COMPRESSED   0x00000014   Data   RW          413    .data               usb_init.o
    0x20000018   COMPRESSED   0x00000004   Data   RW          439    .data               usb_int.o
    0x2000001c   COMPRESSED   0x0000000c   Data   RW          878    .data               hw_config.o
    0x20000028   COMPRESSED   0x0000001a   Data   RW          976    .data               usb_desc.o
    0x20000042   COMPRESSED   0x00000002   PAD
    0x20000044   COMPRESSED   0x00000044   Data   RW         1010    .data               usb_istr.o
    0x20000088   COMPRESSED   0x0000009c   Data   RW         1050    .data               usb_prop.o
    0x20000124   COMPRESSED   0x0000000e   Data   RW         1153    .data               usb_pwr.o
    0x20000132   COMPRESSED   0x00000002   PAD
    0x20000134   COMPRESSED   0x00000008   Data   RW         2748    .data               led.o


    Execution Region ER_ZI (Exec base: 0x2000013c, Load base: 0x08002ccc, Size: 0x000006ec, Max: 0xffffffff, ABSOLUTE)

    Exec Addr    Load Addr    Size         Type   Attr      Idx    E Section Name        Object

    0x2000013c        -       0x00000050   Zero   RW          120    .bss                keyboard.o
    0x2000018c        -       0x0000001c   Zero   RW          412    .bss                usb_init.o
    0x200001a8        -       0x00000020   Zero   RW         1152    .bss                usb_pwr.o
    0x200001c8        -       0x00000060   Zero   RW         3082    .bss                c_w.l(libspace.o)
    0x20000228        -       0x00000200   Zero   RW         3007    HEAP                startup_stm32f10x_md.o
    0x20000428        -       0x00000400   Zero   RW         3006    STACK               startup_stm32f10x_md.o


==============================================================================

Image component sizes


      Code (inc. data)   RO Data    RW Data    ZI Data      Debug   Object Name

       500         46          0          0          0       3601   aip1638.o
         0          0          0          0          0         32   core_cm3.o
       110          0          0          0          0       1291   delay.o
       348         38          0         12          0       6802   hw_config.o
       280         22          0          0          0       1454   key.o
       412         40         84          0         80       2985   keyboard.o
       416         40          0          8          0       1548   led.o
        24          0          0          0          0     206907   main.o
       172         22          0          0          0       3617   misc.o
        64         26        236          0       1536        788   startup_stm32f10x_md.o
       160         12          0          0          0       3601   stm32f10x_exti.o
       430          6          0          0          0      12086   stm32f10x_gpio.o
        46          0          0          0          0       4318   stm32f10x_it.o
        76         18          0          0          0       1553   stm32f10x_rcc.o
       584         62          0          0          0      27184   stm32f10x_tim.o
       328         28          0          0          0       1825   system_stm32f10x_1.o
       134          4          0          0          0       1693   usb.o
      3058        288          0          3          0     255899   usb_core.o
         0          0        194         26          0        973   usb_desc.o
        40          0          0          0          0        921   usb_endp.o
        60         24          0         20         28       4066   usb_init.o
       648         32          0          4          0       1680   usb_int.o
       460         38          0         68          0       1491   usb_istr.o
        96         10          0          0          0       1724   usb_mem.o
       626        112          0        156          0      11652   usb_prop.o
       560         58          0         14         32       3424   usb_pwr.o
       712        100          0          0          0       9447   usb_regs.o
        82          8          0          0          0       1451   usb_sil.o

    ----------------------------------------------------------------------
     10452       1034        546        316       1676     574013   Object Totals
         0          0         32          0          0          0   (incl. Generated)
        26          0          0          5          0          0   (incl. Padding)

    ----------------------------------------------------------------------

      Code (inc. data)   RO Data    RW Data    ZI Data      Debug   Library Member Name

        90          0          0          0          0          0   __dczerorl2.o
         8          0          0          0          0         68   __main.o
         0          0          0          0          0          0   __rtentry.o
        12          0          0          0          0          0   __rtentry2.o
         6          0          0          0          0          0   __rtentry4.o
        52          8          0          0          0          0   __scatter.o
        28          0          0          0          0          0   __scatter_zi.o
        18          0          0          0          0         80   exit.o
         6          0          0          0          0        152   heapauxi.o
         0          0          0          0          0          0   indicate_semi.o
         2          0          0          0          0          0   libinit.o
         2          0          0          0          0          0   libinit2.o
         2          0          0          0          0          0   libshutdown.o
         2          0          0          0          0          0   libshutdown2.o
         8          4          0          0         96         68   libspace.o
         2          0          0          0          0          0   rtexit.o
        10          0          0          0          0          0   rtexit2.o
        12          4          0          0          0         68   sys_exit.o
        74          0          0          0          0         80   sys_stackheap_outer.o
         2          0          0          0          0         68   use_no_semi.o

    ----------------------------------------------------------------------
       342         16          0          0         96        584   Library Totals
         6          0          0          0          0          0   (incl. Padding)

    ----------------------------------------------------------------------

      Code (inc. data)   RO Data    RW Data    ZI Data      Debug   Library Name

       336         16          0          0         96        584   c_w.l

    ----------------------------------------------------------------------
       342         16          0          0         96        584   Library Totals

    ----------------------------------------------------------------------

==============================================================================


      Code (inc. data)   RO Data    RW Data    ZI Data      Debug   

     10794       1050        546        316       1772     567885   Grand Totals
     10794       1050        546        128       1772     567885   ELF Image Totals (compressed)
     10794       1050        546        128          0          0   ROM Totals

==============================================================================

    Total RO  Size (Code + RO Data)                11340 (  11.07kB)
    Total RW  Size (RW Data + ZI Data)              2088 (   2.04kB)
    Total ROM Size (Code + RO Data + RW Data)      11468 (  11.20kB)

==============================================================================

