:020000040000FA
:10000000102900202D030000350300001502000018
:10001000390300003B0300003D0300000000000026
:100020000000000000000000000000003F0300008E
:1000300041030000000000004303000045030000EE
:10004000ED07000047030000B10B0000470300006C
:100050004703000025060000470300004703000097
:100060004703000047030000470300004703000068
:100070004703000047030000470300004703000058
:100080004703000047030000470300004703000048
:100090004703000047030000470300004703000038
:1000A000470300004703000047030000610B000006
:1000B00047030000470300000000000000000000AC
:1000C0004703000047030000470300004703000008
:1000D0004703000047030000470300000000000042
:1000E0000000000000000000000000000000000010
:1000F0000000000000000000000000000000000000
:1001000000000000000000000000000000000000EF
:1001100000000000000000000000000000000000DF
:1001200000000000000000000000000000000000CF
:1001300000000000000000000000000000000000BF
:1001400000000000000000000000000000000000AF
:10015000000000000000000000000000000000009F
:10016000000000000000000000000000000000008F
:10017000000000000000000000000000000000007F
:10018000000000000000000000000000000000006F
:10019000000000000000000000000000000000005F
:1001A000000000000000000000000000000000004F
:1001B000000000000000000000000000000000003F
:1001C000000000000000000000000000000000002F
:1001D000000000000000000000000000000000001F
:1001E000000000000000000000000000000000000F
:1001F00000000000000000000000000000000000FF
:10020000DFF80CD000F0E4F800480047311200009D
:1002100010290020094B1EF0040F1CBFEFF30980CA
:100220001847EFF308800649064A884201D89042F1
:1002300002D88D464FF0000018470000310400003E
:10024000102900201009002030B4044654E8000FA3
:100250000D4644E80053002BF8D1156030BC7047C0
:1002600030B4044654E8000F40EA010544E8005366
:10027000002BF7D1156030BC704730B4044654E809
:10028000000F00EA010544E80053002BF7D1156088
:1002900030BC704730B4044654E8000F80EA0105D2
:1002A00044E80053002BF7D1156030BC704730B4E0
:1002B000044654E8000F00EB010544E80053002B0E
:1002C000F7D1156030BC704730B4044654E8000FD5
:1002D000A0EB010544E80053002BF7D1156030BCBA
:1002E000704770B404464FF0000054E8006F0D688A
:1002F000AE4207BF44E80023012044E800630E60DB
:10030000002B1CBF0020F0E770BC704730B40446DF
:1003100054E8000F88422CBF451A054644E80053B4
:10032000002BF5D1156030BC7047000006488047AF
:1003300006480047FEE7FEE7FEE7FEE7FEE7FEE7CA
:10034000FEE7FEE7FEE7FEE74508000001020000C9
:10035000202A04DB203A21FA02F00021704721FA1A
:1003600002F3D040C2F12002914008431946704781
:1003700000487047D03A000040EA01039B0703D0D1
:1003800009E008C9121F08C0042AFAD203E011F8D4
:10039000013B00F8013B521EF9D27047D2B201E096
:1003A00000F8012B491EFBD270470022F6E710B57A
:1003B00013460A4604461946FFF7F0FF204610BDD3
:1003C000421C10F8011B0029FBD1801A7047000065
:1003D000064C074D06E0E06840F0010394E8070092
:1003E00098471034AC42F6D3FFF70EFFA44000004C
:1003F000C440000030B58C1810F8012B12F00F0328
:1004000001D110F8013B120906D110F8012B03E0CD
:1004100010F8015B01F8015B5B1EF9D101E001F806
:10042000013B521EFBD1A142E6D3002030BD0000AB
:100430001CB5814601F0DAFF01F014FE0028FBD163
:100440002D485FEA090507682C482D494FF0010641
:10045000A0EB01004FEAD00006EB004417D0204685
:1004600028A1AA6901F01AFFD5E90201CDE900012E
:10047000D5E90023204629A101F020FFE86900907A
:10048000D5E90423204633A101F00FFF03E0204605
:100490003AA101F0FFFE1848001D0068800703D54F
:1004A0002046434901F0F6FEDFF80881002500BF31
:1004B00006FA05F0384206D058F825201AB1204631
:1004C0003DA101F0EBFE6D1C1A2DF1D3380606D5C7
:1004D00009480C30026820463AA101F0DFFE3804DA
:1004E00006D505481030026820463EA101F0D6FE30
:1004F000484600F085F8000028ED00E00C410000BF
:10050000D440000048415244204641554C5420619B
:1005100074203078253038580000000020205230F8
:100520003A2020307825303858202052313A202087
:10053000307825303858202052323A202030782523
:10054000303858202052333A20203078253038581F
:100550000000000020205231323A20307825303817
:100560005820204C523A202030782530385820200E
:100570005053523A20307825303858005374616314
:100580006B2076696F6C6174696F6E3A2073746169
:10059000636B20706F696E746572206F7574736918
:1005A000646520737461636B20617265612E000065
:1005B000AC3B00002C00002043617573653A202598
:1005C000732E00004D656D4D616E6167652046615B
:1005D000756C7420416464726573733A20307825B9
:1005E00030385800427573204661756C7420416440
:1005F00064726573733A20307825303858000000F3
:10060000BFF34F8F05480168054A01F4E0611143CB
:100610000160BFF34F8F00BFFDE700000CED00E06D
:100620000400FA052DE9FF5F4FF48274204601F0C3
:10063000BDFF48B1022001F0C9FF28B1204601F0FA
:10064000BDFF022002F004F94FF48C7001F0AEFF00
:10065000DFF88491614F624E624C4FF000084FF416
:10066000947A4FF4867B78B3402001F0AFFF58B303
:100670004FF48C7001F0A2FFB069CDE90008D9F801
:10068000000003905448143000685546C0F30B0036
:100690001038C0F3CC000290504601F087FF60B1E3
:1006A000381501F093FF40B1386800F00D0001905B
:1006B000284601F083FF0D203860616809B1684663
:1006C0008847584601F07AFF4FF4887001F06EFFBA
:1006D000A0B1102001F07AFF80B14FF4887001F0D2
:1006E0006DFF06F128000FC88DE80F003E49182065
:1006F000C1F80803616809B1684688474FF4A670DD
:1007000001F054FF354D083D28B34FF4002001F0AF
:100710005DFF00B34FF4A67001F050FF4FF48C70F2
:1007200001F04CFF504601F049FF584601F046FFEA
:100730004FF4887001F042FF002002F0F9F80D201C
:100740003860286006F138000FC88DE80F00616836
:1007500009B1684688474FF48E7A504601F026FF6B
:10076000C0B1802001F032FFA0B12F68504601F0E7
:1007700025FF483696E80F008DE80F00F80707D0F0
:10078000012028608DF80480616809B168468847B7
:100790000D2028605D46584601F008FF002819D05A
:1007A000082001F013FF002814D0284601F006FFAE
:1007B000616800290ED008200090D9F8000002904E
:1007C00005480C30006840F2FF1202EAD0000190A8
:1007D00068468847BDE8FF9F105500400C54004014
:1007E000883900005C0200200050004070B54FF4D2
:1007F0008076304601F041F9114CB50560B13046C4
:1008000001F042F90120C5F80803607920B9012000
:1008100060712168002088474FF48276304601F0ED
:100820002CF900280AD0304601F02EF90220C5F834
:1008300008032168BDE870400120084770BD000032
:100840000C000020F0B5B5480023021D0178101DF2
:1008500001254FF0805406290BD11678360708D1B0
:100860000678C6F30316032E06D0042E04D0052EF8
:1008700002D0062907D00EE0B4F82463A84FC6F3CF
:1008800004263E6002E01678360704D10678C6F3E7
:100890000316032E02D0062904D00FE0A24FA14E6A
:1008A0007E670EE01678360708D10678C6F3031681
:1008B000032E06D0042E04D0052E02D0062907D020
:1008C0000EE0D4F84462994FC6F342363E6002E02F
:1008D0001678360704D10678C6F30316032E02D025
:1008E000062906D011E0924E376827F080773760EE
:1008F0000EE01678360708D10678C6F30316032EE5
:1009000006D0042E04D0052E02D006290AD011E00C
:100910004FF08046C6F80C31C6F81031834E361FB2
:10092000336002E01678360704D10678C6F3031662
:10093000032E02D0062905D00CE07C4F0326643735
:100940003E600AE01678360704D10678C6F303162F
:10095000032E02D006290DD014E0764F05263E6006
:10096000744E78363560734E083633603F263F1D2F
:100970003E6002E01678360704D10678C6F3031607
:10098000052E02D0062957D062E06B4E36686B4FB9
:100990003E60694E361D36683F1D3E60664E083625
:1009A00036683F1D3E60644E0C3636683F1D3E6023
:1009B000614E103636683F1D3E605F4E1436366815
:1009C0003F1D3E605C4E183636685C4F20373E60F7
:1009D000594E1C3636683F1D3E60574E20363668ED
:1009E0003F1D3E60544E243636683F1D3E60524ED9
:1009F000283636683F1D3E604F4E2C3636683F1D08
:100A00003E604D4E303636684C4F40373E604A4E61
:100A1000343636683F1D3E60474E383636683F1DD7
:100A20003E60454E3C3636683F1D3E60424E403685
:100A300036683F1D3E6002E01678360708D106781A
:100A4000C6F30316032E06D0042E04D0052E02D0C2
:100A5000062907D019E0D4F85812394A01F04F019D
:100A6000116002E0117809070FD10078C0F303107C
:100A7000032803D0042801D0052806D13148016895
:100A8000C90702D06FF001010160D4F830010628D7
:100A900008D1D4F83401062804D12B48016841F468
:100AA0008061016022487438016841F4700101607E
:100AB000BFF34F8FBFF36F8F4FF01021D1F80002BB
:100AC000002803DBD1F80402002822DA1F4A15604F
:100AD0001F480468002CFCD01524C1F800420568AA
:100AE000002DFCD0C1F8044201680029FCD013603D
:100AF00001680029FCD0BFF34F8F0D48F038016822
:100B0000144A01F4E06111430160BFF34F8F00BF4D
:100B1000FDE7124910480860F0BD0000E00F00F04A
:100B2000403501400DF0ADBA00C007403C05004023
:100B3000FCED00E0105600400404001020C5004009
:100B4000E40E0040000400403C17004004E5014072
:100B500000E401400400FA050090D0030C010020DD
:100B60002DE9F047104E062700244FF4A0784FF4EB
:100B7000803900BF08EB840509FA04F0715961B1AE
:100B8000D6F80413014208D02946304601F076FD1C
:100B90000648D0E9002128469047641CE4B2BC42D4
:100BA000E8D3BDE8F087000000B001406C020020EF
:100BB00001480068004700002000002000F01F02EC
:100BC000012191404009800000F1E020C0F880122E
:100BD000704702E008C8121F08C1002AFAD1704706
:100BE0007047002001E001C1121F002AFBD17047AD
:100BF00070B5254CA0421ED1F1B1012936D0022991
:100C000028D0032917D1072000F0CEFB002812D1ED
:100C100094F8680094F8691088420CD194F86A003E
:100C2000002808D10023D4E901501A460321A8471F
:100C3000012084F86A0070BD052000F0B5FB002893
:100C4000F9D1A06864680023A446BDE870401A4644
:100C50000121604710461900EDD00028EBD0027842
:100C6000302AE8D1BDE8704000F0BEBB082000F09B
:100C70009BFB28B9A068002364681A460221A0479C
:100C8000BDE8704000F064BC8408002072B601F03A
:100C9000ADFB00BF01F0E6F90028FBD11148124975
:100CA000401AC408012000EB044010A101F0F2FA40
:100CB00011480068C00700D000BE022000EB0440CD
:100CC0000EA101F0E7FABFF34F8F0B48E43801683B
:100CD0000E4A01F4E06111430160BFF34F8F00BF82
:100CE000FDE7000014410000D4400000466174613B
:100CF0006C206572726F7200F0ED00E053797374CE
:100D0000656D207265736574000000000400FA05CB
:100D10000EB500210091CDE901106A4644F20100B0
:100D2000FFF7B4FF0EBD00F003B800F009B80000F3
:100D300072B602480168491C016070472800002013
:100D400003490868401E086000D162B67047000081
:100D5000280000202DE9F041064608680C46411C99
:100D60004FF0A0474FF0010506D005FA00F1C7F893
:100D70000815206801F078F86068411C02D0002155
:100D800001F060F83168A069C1F82405607D227D1A
:100D900031681043C1F86C05D4E900123068C0F81E
:100DA0001425C0F80C15207D012815D1A068411C20
:100DB00002D0002101F046F8E068411C05D08540D2
:100DC000C7F80855E06801F04FF8D4E9021230681E
:100DD000C0F80825C0F81015BDE8F0812DE9F041F4
:100DE000064608680C46411C4FF0A0474FF001052D
:100DF00006D005FA00F1C7F80815206801F03EF8A2
:100E00006068411C02D0002101F025F83168A0691A
:100E1000C1F82405607D217D32680843C2F86C0565
:100E2000D4E900123068C0F80C15C0F81425207DF4
:100E3000012815D1A068411C02D0002101F00BF857
:100E4000E068411C05D08540C7F80855E06801F00E
:100E500015F8D4E902123068C0F80825C0F810155A
:100E6000BDE8F0812DE9FC410646C0074FF00005C2
:100E70000ED0104F00240122385D0095002311464A
:100E8000019500F097FF641C042CF4D300F024F8C3
:100E9000B0070DD5074E0024361D0022305D032318
:100EA00000951146019500F085FF641C042CF4D3D5
:100EB000BDE8FC81803900000249085C012100F096
:100EC000E7BF0000803900000249085C002100F003
:100ED000DFBF00008039000010B500242046FFF776
:100EE000EBFF641C042CF9D310BD00002DE9F04782
:100EF0000546861C90460F464FF001090020FFF77B
:100F000012FF1B4C20683860D4E90001401AA16828
:100F100004F21C47081A0EE00121384600F045FD96
:100F200000F038F90146384600F03FFDD4E90001F1
:100F3000401AA168081A401C8642EDD8B8F1000F8B
:100F400003D0052065F3891002E0062065F39F5069
:100F5000A2682168114004EB8101C8602068304418
:100F600020600020FFF7E1FE4846BDE8F087000062
:100F70006004002070B50D4604460A2902D10D21F7
:100F8000FFF7F8FFA0682268411CA1601554D4E95E
:100F90000101814204D32046BDE8704000F011BE3B
:100FA00070BD0000034803C8814201D10120704791
:100FB000002070476004002070B5084C050009D07F
:100FC00010342168002907D0086820604968284645
:100FD0008847F6E70834F4E770BD000048020020B7
:100FE000002801D101F0CABD70470000054A012167
:100FF00020B1012805D19170FFF7DEBF51700020AC
:10100000FAE770474802002010B50021024800F0BE
:10101000D7FC80F3100010BD7C0800202DE9FC5F98
:101020000E008346DDE90C47C6F100009846924663
:10103000814600D40846012503E000BF90FBFAF08A
:101040006D1C5045FADAA84500D9454624B1002E5A
:1010500001DB780700D5641EB80702D5B8F1000F90
:101060000AD0F80708D13CB1A54205D22021584644
:10107000641EFFF77FFFF6E7002E02DA4E462D21B1
:1010800002E0780703D52B215846FFF773FF07F0DE
:10109000030002280BD1B8F1000F08D13CB1A542E2
:1010A00005D230215846641EFFF764FFF6E7CDE90C
:1010B0000047434652463146584602F057FBBDE8CA
:1010C000FC9F000070B50D46044600684FF488711F
:1010D00001F0F0FA4FF49071206801F0EBFA4FF450
:1010E0009271206801F0E6FA4FF4A271206801F0D5
:1010F000E1FA4FF4AC71206801F0DCFA2068114984
:10110000C0F804132068690740F30730090E00286F
:1011100006DA00F00F0000F1E02080F8141D03E073
:1011200000F1E02080F800142068012140F307302E
:1011300000F01F0291404009800000F1E020C0F85B
:10114000001170BD100342000246002012685307D0
:1011500013D502F00300012802D002280CD105E0CB
:10116000C2F383100B68801C184404E00223086853
:1011700003EB925210440860012070470268134646
:1011800002E08A4204D01268002AFAD10B600160A2
:10119000704700002DE9FF410026234800F002FCC3
:1011A0002148001F074600F0FDFB204C60680090BE
:1011B000A56800E000986946284004EB80000C30E8
:1011C000FFF7C2FF0028F5D101AA009901EA050343
:1011D00004EB8303491CDB6842F82030401C00917B
:1011E0000228F2D3019800F0030001280BD0022856
:1011F00010D10198032101EB90500099BDF80A60CD
:1012000001EB900005E00198BDF80A60C0F383107F
:1012100008440090384600F0C2FB08B100986060B6
:1012200004B03046BDE8F08178080020600400205A
:1012300008B54FF4807000210090084601F0A0F836
:1012400008B1FFF765FD00F0FFFE0120FFF70AFE81
:1012500000210F4800F04AFB08B1FFF759FD69462D
:101260000C4802F0DDFA08B1FFF752FD0948009979
:1012700000F01CFB08B1FFF74BFD00F085FA08B148
:10128000FFF746FD00F0EEFE0028FBD120BFF9E796
:10129000F5150000480100202DE9F047C5881E1D06
:1012A000B6FBF5F78946B6FBF5F1044605FB176C6E
:1012B000407916686843DDF820A0F718001F8742C0
:1012C00000D9C61A166001E02468491E0029FBD126
:1012D000A5EB0C078846B74216D818E004EB0C00C3
:1012E000001D09EB0803BAF1000F3A4602D001468F
:1012F000184600E01946FFF73FF82468F61B4FF048
:10130000000CB844B54201D9374600E02F46002E04
:10131000E4D1BDE8F087000030B5024651B101F0DC
:101320004DF80021074C08E034F821301568AB4235
:1013300002D11160002030BD491C8142F4D3052048
:1013400030BD00000000000010B51C46934200D9DB
:1013500014462246FFF710F8204610BD10B51C4673
:10136000934200D914460A462146FFF717F8204653
:1013700010BD00000B4900F1100213464A610A69D2
:1013800013448B6128B14FF47C73CB614FF48063BD
:1013900001E00023CB61C01C104480080B6281F87F
:1013A000690070478408002070B50D4D0D4A00217A
:1013B0002C7800BF01EB4103D65CA6420AD113444E
:1013C0005B78834206D101EB41001044807828709D
:1013D000002070BD491C0E29ECD3082070BD000010
:1013E000840800201001002070B50446022920D195
:1013F0000620FFF7D9FF00281BD10E4964784B69FE
:10140000A2002046934208D88D69103D954204D32E
:10141000C968C3EB8400084403E000F017F80548EE
:101420003830102100F014FA2046BDE8704000F07A
:10143000B3B870BD84080020034902684A6242685C
:101440008A62008988857047840800202DE9F04170
:10145000334E8400102529463046FEF7A6FFA6F13C
:1014600038077869A0420BD9021B39192B46304640
:101470002431FFF769FFD0F11005044406444CD035
:10148000B869A0420CD978693969201A0A1AF96832
:101490002B4601443046FFF757FF2D1A04440644FB
:1014A000002D3AD0B869A0420ED1396A61B1F9690C
:1014B000884209D02B460122FE213046FFF74EFF1D
:1014C0002D1A0444064428D0F869A04209D9021B09
:1014D0002B4600213046FFF741FF2D1A04440644F5
:1014E0001BD0386AA04210D9021B2B46FF21304680
:1014F000FFF734FFF969611AC1F10E01A94201D861
:101500003F2272542D1A064407D02B463046BDE8C0
:10151000F0411A460021FFF721BFBDE8F08100002D
:10152000BC08002070B50C460546914201D90C203C
:1015300070BD0120FFF738FF08B1082070BD05B964
:1015400000240248C0E90354002070BD8408002034
:1015500070B5002103230A460C460E4801260CE014
:1015600006FA03F50D43E9B25B1E05D5831883F82F
:10157000481007230021521C641C90F86950A542B2
:10158000EEDC024482F84810002100F8681F8170E8
:1015900070BD000084080020F0B5C208514200EB85
:1015A000C1010024124BC1F107010125042813D306
:1015B00005FA01F603EB020CF7B29CF848603E42D4
:1015C00004D0BE438CF848602E4600E0002693F815
:1015D00068703E4483F86860491E01D50721521C9B
:1015E000401C10F0FF0002D0641C042CDEDBF0BDB8
:1015F00084080020012904D0022905D10020FFF72A
:101600005BBC0020FFF760BC70472DE9F8439046B3
:10161000894607004FF0000606D0B8F1000F03D04E
:101620003D680DB1002422E00E20BDE8F88324B10E
:10163000611C884207D1402106E0012801D08021A9
:1016400002E0C02100E00021D8F800006B46801BBA
:1016500000904A46286800F01FF80028E5D100985D
:10166000B9F1000F064400D08144641C2D1DB868F8
:10167000A042DCD80020C8F80060D6E7D0E90132EB
:101680009A4201D304207047036843F8221081680E
:10169000491C8160002070472DE9F84314469846A4
:1016A0000A4605004FF000074AD06878297A4618A4
:1016B000B61D00B1761C8CB332F0C00002D00720FA
:1016C000BDE8F883D8F80000B04201D20420F7E763
:1016D00022702B78601C1A4322702A7A00F8012BA2
:1016E00021460746041D687828B104F8010B0878E4
:1016F00040F0080008702A7A2046E968FEF73CFEB0
:10170000287A6A7804442AB120466968FEF734FED4
:1017100068780444D8F80000801B00902B697BB1E6
:101720006A462146686998470028C9D114B10098D3
:1017300000BA3860009831180020C8F80010BFE7E0
:101740000E20BDE70068022803D0042804D100F071
:10175000A3B9024800F0B6B97047000004010020A8
:10176000084810B5064941600021016000F0CEF93B
:10177000852803D0002800D0032010BD002010BD14
:10178000E10F00000401002010B50420FFF70CFE5B
:1017900008B1082010BD00F087F8002010BD00003F
:1017A00010B518B10A2902D00C2010BD0248FFF76D
:1017B00043FE002010BD0000313A0000FEB5224873
:1017C00047780A2F23D0214A0324072F167855780B
:1017D0009378D1788DF800608DF8015086EA050085
:1017E0008DF802301AD04B4058408DF803108DF818
:1017F0000400FF2204210DF10500FEF7CFFD00BF1C
:101800008DF809400A216846FFF7CAFFFEBD03B004
:101810000A21BDE8F0400D48FFF7C2BF83F08803FE
:1018200058408DF803008DF8041013798DF80530B9
:1018300050798DF8060092795940504041408DF81A
:1018400007208DF80810DBE73C010020000900208C
:101850001CB5CDE900100321684601F095F91CBDC7
:101860001CB50E4BD3E90223CDE900230C4AC2E993
:101870000101507838B9072050700A21094801F059
:10188000DFF8002808D1FFF799FFFFF769FF00286C
:1018900002D1684601F068F81CBD00003C3A000027
:1018A0003C0100200009002000F05ABF10B54FF4A1
:1018B0007772FFF737FE040013D10B48032201694A
:1018C00000F8342FFE2902D84170022005E0FF22E3
:1018D00042700A0A8270C1700420FFF74BFDFFF7C7
:1018E00037FE204610BD00008408002070B50E466B
:1018F000050005D00020FFF757FD18B1082070BD86
:10190000072070BD0B4C0C48C4E901561434FFF796
:1019100093FDFF20A076E076E1202077102060770D
:101920007C20A0770F20E077BDE870400149034894
:10193000FFF796BF84080020313A0000F10B000049
:101940002DE9F0410446007A164698B1420611D4BA
:1019500002060FD462686AB122695AB1E3684BB1DA
:1019600046B185186D1CB9B13268AA4204D2042070
:10197000BDE8F0810720FBE722784F1C00EBC21086
:101980000870227A38466168FEF7F6FC207AD4E9BE
:1019900003123844FEF7F0FC00203560E8E7002130
:1019A00000F009B8012100F010B808B56A46FEF74A
:1019B0007EFC009808BD08B56A46FEF75EFC08BDCF
:1019C00008B56A46FEF740FC08BD08B56A46FEF752
:1019D00047FC009808BD08B56A46FEF775FC0098FC
:1019E00008BD70B5044600252846FFF79CF921681C
:1019F0006268086890420ED9401E08600178238A08
:101A0000E26801FB0325227A2168101AC0B20A7924
:101A1000824200D208710020FFF787F9284670BD86
:101A200070B505460C460020FFF77DF9E868298A65
:101A3000201AB0FBF1F12A681068431C1360017092
:101A4000BDE870400020FFF770B910B530B1017AE1
:101A500042680368891AC9B21A6006E00E2010BDF8
:101A600003681A68541C1C601170491EC9B2F7D271
:101A7000006800210171084610BD00F18040006837
:101A8000002800D00120704708B500F180400021F7
:101A900001600068009008BD10B50020FFF743F911
:101AA000074C6068401E6060606818B900F02AFE4C
:101AB00000206070BDE810400020FFF736B900003C
:101AC0004802002070B5104D0446687838B114B152
:101AD0006168002088470020FFF725F90CE000200E
:101AE000FFF721F924B1084821460830FFF746FBEB
:101AF000686808B900F0FAFD6868401C6860BDE8D5
:101B000070400020FFF711B94802002070B50A4C60
:101B1000207808B185250CE00020A060606020617D
:101B2000E060064800F004FE054600F0C9FD012013
:101B30002070284670BD000048020020ED0F000014
:101B4000F0B505460478154889B0164640F82420BB
:101B5000124A0869121DA2F1080742F82400487FC2
:101B6000385520226846FEF707FC04942878385C34
:101B700048B10EB10A4A00E000226946281D01F072
:101B800037FA09B0F0BD0EB1064A00E000226946FE
:101B900005F10C0001F0FEF8F3E70000040000205E
:101BA00029360000713400000FB408B503990029EC
:101BB00004D004AA00926A4600F00FF801B05DF864
:101BC00014FB10B582680446002A05D0D4E904034A
:101BD000216898470020A06010BD2DE9FC47914680
:101BE0000C00804676D014F8011B39B125290ED09F
:101BF0004046FFF7BFF920780028F4D198F80C0090
:101C0000002867D04046BDE8FC47FFF7DABF002058
:101C1000012221782B291BD02D2902D0302908D16F
:101C200002E040F0010001E040F00200641C002AE4
:101C3000EFD100252A290ED02178A1F130020A2AFD
:101C400011D205EB850201EB4205641C303DF1E742
:101C500040F00400EAE7D9F800100B1DC9F8003085
:101C60000968641C0D44217800232E290BD114F837
:101C7000011FA1F130020A2A05D203EB830201EB16
:101C80004203303BF3E76C290DD068290BD069295A
:101C900021D00BDC252918D0582931D063290ED04A
:101CA000642915D117E014F8011FECE7702969D0F9
:101CB000732932D075291BD0782909D120E0D9F8B1
:101CC0000000011DC9F8001001784046FFF752F9E5
:101CD000641C90E76CE0D9F800100A1DC9F80020D8
:101CE0000968CDE900500A224046FFF797F9EFE76F
:101CF000D9F800100A1DC9F8002009680A2206E078
:101D0000D9F800100A1DC9F8002009681022CDE991
:101D10000050404601F02AFDDAE7D9F8001000270C
:101D20000A1DC9F800200E68C00705D112E0404620
:101D3000761C7F1CFFF71EF931780029F7D104E0EB
:101D4000202140466D1EFFF715F9BD42C0D9002D78
:101D5000F6D1BDE74EB13046FEF732FB074604E050
:101D6000202140466D1EFFF705F9BD4206D9002D22
:101D7000F6D103E04046761CFFF7FCF831780029E5
:101D8000F8D1A5E7D9F80000011DC9F800100568D1
:101D900030214046FFF7EEF878214046FFF7EAF899
:101DA00008200021CDE90001034610222946B0E7B2
:101DB000BDE8FC8770B541EA4201DDE904564FF009
:101DC000A04441EA830141EA052104EB800041EA95
:101DD0000641C0F8001770BD70B541EA4201DDE967
:101DE00004564FF0A04441EA830141EA052104EB87
:101DF000800041EA0641C0F8001770BD70B541EAA5
:101E00004201DDE904564FF0A04441EA830141EA72
:101E1000052104EB800041EA0641C0F8001770BDBF
:101E20001CB5002100910B4601220191FFF7D4FF60
:101E30001CBD1CB5002100910B4601220191FFF74A
:101E4000DDFF1CBD1CB500220B460092114601921D
:101E5000FFF7C2FF1CBD1CB500220B4600921146C5
:101E60000192FFF7CBFF1CBD1CB5002100910B4672
:101E7000012201911146FFF7AFFF1CBD1CB50021E7
:101E800000910B46012201911146FFF7B7FF1CBDDF
:101E900001224FF0A043824011B1C3F808257047DA
:101EA000C3F80C257047000030B5154A01460020E4
:101EB000D2F8104423460AE0DB681D79854205D13B
:101EC000401C0A28F6DB4FF0FF3030BD1B68002BAA
:101ED000F2D1431CF9D0CB681871D2F8103443B159
:101EE000DB68CC681B682360D2F81024D2681160CC
:101EF00030BDC2F81014C96800220A6030BD00006D
:101F000060040020F0B595B01C4615460F46084603
:101F10001A9E00F025FB182109A8FEF746FA0E9636
:101F2000CDE909540023082203A9384600F02DFB0F
:101F300005980690BDF81000ADF81C00BDF8120021
:101F4000ADF81E0000208DF821000398082600F04F
:101F50000300012802D0022818D032E0039833464B
:101F6000850AC0F3C2008DF8200003980FA9C0F3C2
:101F70008314A200384600F008FB09A8009006ABC5
:101F800022460FA9284600F047FA1AE00398840D6C
:101F9000C0F3C2008DF82000082C01D2254600E0D5
:101FA000082533462A460FA9384600F0EEFA2E449B
:101FB000641B09AB06AA29460FA800F089F9002C7A
:101FC000EAD1384600F0D2FA15B0F0BD70470120D2
:101FD00001F06CBA084810B50178084A515C19B193
:101FE000001D01F09FF802E00C3000F09FFFBDE8FB
:101FF0001040002001F05ABA980000200000002094
:1020000008B5034A00924023024AFFF77BFF08BD50
:1020100051330000C80200200A4A012902EBC00027
:1020200007D0022907D0032907D0042907D00020B0
:10203000704702207047042070470079704740794C
:1020400070470000D440000010B5FFF7C0FF042126
:102050000348FFF729FF02490120C968487110BDF4
:10206000C44000002DE9F0478CB0FEF79BFF18B18B
:1020700000200CB0BDE8F0877D4C0020C4F81804A7
:10208000BFF34F8F60680290A5684FF000082840AA
:1020900004EB80000CE000BFD4F8180470B921688C
:1020A0000298814201D86160E2E7284004EB800099
:1020B0000C3002A9FFF748F80028EDD1002003AA50
:1020C000029901EA050304EB8303491CDB6842F82B
:1020D0002030401C02910228F2D3039800F0030044
:1020E000022802D001284DD0A7E003985022810D8C
:1020F0008946B2EB905F00D850210E4666F39F50A0
:10210000039008315B4800F0E2F9070078D000F056
:1021100027FA4346082203A9384600F03EFA0299FE
:1021200008F1080A2940681A8000001D864222D959
:102130004F4D0C3530B1C2B204EB8101301A9046DC
:102140000C3104E02946F2B2002590462846C6B27A
:102150005346384600F021FA0AEB080325B132460F
:102160002946384600F019FA029909F1030001EBFB
:10217000900002903BE004EB810153463246384622
:102180000C31EFE70398C0F38310062800D3062034
:10219000039960F38911C1F38310801C03918100BE
:1021A000344800F094F9070047D000F0D9F94346CD
:1021B000082203A9384600F0F0F908F108080026C3
:1021C0000FE00298434600EA0501401C04EB810140
:1021D0000290042238460C3100F0DFF908F10408BF
:1021E000761C0398C0F38310B042EAD847B1D4F804
:1021F0001054D4F8180478B1384600F0B7F931E03B
:102200001BE0E8684079012804D12A68284639464D
:1022100012689047E8680568002DF2D1384600F052
:10222000A5F90020FEF77FFDD4F8180408B902983C
:1022300060600020FEF779FD14E0D4F8104405E05A
:102240002168204689688847E0680468002CF7D137
:1022500009480A49401AC008022101EB004008A1C0
:1022600000F018F8FEF79EFE80F0010001E7000084
:10227000600400201C41000014410000D440000014
:102280004261636B656E647320666C757368656428
:102290000000000000231A4601F07AB808B50123B7
:1022A00000926A4601F074F808BD3EB5069C8DE8C0
:1022B0001C0003236A4601F06BF83EBD7FB5DDE9E3
:1022C00008458DE83C0004236A4601F061F87FBDB3
:1022D0002DE9F0470E4680461C469246082940D814
:1022E00094F80C90002020731946104600F0A8FFC7
:1022F0000025B54206D218F805201BA12046FFF79D
:1023000053FC03E01AA12046FFF74EFC6D1C082D7C
:10231000EFD318A12046FFF747FC0025B54212D2A3
:1023200018F805707E2F08D8FEF722F80068C05D07
:1023300010F03E0F01D03A4600E02E220EA12046BA
:10234000FFF732FC03E00DA12046FFF72DFC6D1CCA
:10235000082DE3D301222146504600F053FF84F8B4
:102360000C90BDE8F0870000202530327800000096
:10237000202020007C0000002563000020000000D9
:102380000B4810B5FF218160002101604160C0F859
:102390001814C0F8141480F82014064800F0E4F86B
:1023A000002803D1044800F05BF9002010BD0000B4
:1023B000600400201C410000243A00000248034948
:1023C000401AC008704700001C410000D4400000C3
:1023D00013B56846FEF7A0FF08B100201CBD0248F7
:1023E000009950F831001CBDD440000070B5094878
:1023F0000125D0F8104480F8205407E0E0684571CA
:102400002168204649688847E0680468002CF5D1B7
:1024100070BD0000600400202DE9FF4781460C9D3F
:1024200000200C462F7B28739846164629461846EE
:1024300000F006FF072E42D2DFE806F004090F166F
:102440001F2A360049462846FFF7AEFB37E04946CB
:1024500028462268FFF7A8FB31E0D4E9002349466B
:102460002846FFF7A1FB2AE0A0680090D4E90023EA
:1024700049462846FFF798FB21E0D4E90201CDE95F
:102480000001D4E9002349462846FFF78DFB16E0FA
:1024900004F1080007C88DE80700D4E90023494685
:1024A0002846FFF781FB0AE004F108000FC88DE819
:1024B0000F00D4E9002349462846FFF775FB0022A8
:1024C0002946404600F09EFE2F73BDE8FF872DE9A8
:1024D000F041058A80462D1F4819C01CB0FBF5F05D
:1024E000C6B24046FFF77DFA041E19D000202071C5
:1024F00001206071E58000272546761EC4F8008023
:102500000BE04046FFF76DFA60B16179491C6171DB
:10251000286005467F1CC0F80080B742F1D32046F2
:10252000BDE8F081204600F002F80020F8E72DE930
:10253000F041457901466B1E002201E00968521CFA
:102540009A42FBD30F680146002605E038460C6826
:10255000FFF766FA2146761CAE42F7D3BDE8F0815C
:102560000121001DFFF721BAFFF76FBA10B504462D
:102570000121001DFFF72FFA10F0FF0F04D12046B4
:10258000BDE81040FFF7D3BF10BD1CB5019201227A
:10259000009201AAFEF780FE1CBD1CB5019200222C
:1025A000009201AAFEF778FE1CBD000002494058C7
:1025B000002800D00120704700500040024A00214E
:1025C0008150BFF34F8F7047005000400449D1F84D
:1025D0000413014201D00120704700207047000021
:1025E00000500040C02903D0E9B1802902D00DE09D
:1025F00040210BE010F8012B10F8013B120442EAD5
:10260000032210F8013B1A430F4B1A6010F8012BFC
:1026100010F8013B120442EA032210F8013B1A436E
:10262000094B1B1F1A600268C07812BA22F0FF0221
:10263000024305480838026003480830026822F067
:10264000C0020A43026070479855004003490A6877
:1026500022F0600242EA401008607047A455004032
:10266000826800219160826811618268516182688C
:10267000D1608268516080680160704708B50022AF
:1026800042504058009008BD4058002800D001201A
:10269000704708B5002242504058009008BDD0F85D
:1026A0000403084000D0012070474058002800D0A3
:1026B0000120704708B5002242504058009008BDE4
:1026C00008480068012110F0010F06D14FF0E0200A
:1026D000C02280F80024C0F80011034901200860DE
:1026E0007047000000E100E01805004010B54FF40D
:1026F0008070FFF7C9F901208107C1F80403086061
:1027000010BD000007490120086007494FF0011083
:102710000A6802F001128242FAD00449002048718E
:1027200070470000040000400C0400400C00002032
:102730000649024600200B790BB1852070470A60DC
:1027400001220A7100224A71704700000C0000202B
:102750000121B1EB507F01D101207047002070476B
:1027600005490D200860054A01210832034811601F
:102770000349C0F80413704704540040005000405F
:102780008200080070B50546FEF7DCFF2868294C7A
:1027900040281DD00DDC042837D0102848D1264809
:1027A00000F0D2F96568002D42D000231A460321BB
:1027B00031E0802834D0B0F5002F39D11E4800F028
:1027C000C3F96568002D33D000231A46194622E06C
:1027D000686808B1292009E018480178302909D033
:1027E00000785028F6D1012020702820BDE87040E4
:1027F00000F008B96668002E1AD0AB68A068B4462D
:10280000BDE870400D4A022160476568002D0FD079
:1028100000231A460121A068AC46BDE8704060471D
:102820002879002804D12078002801D000202070C9
:1028300070BD00003C0100203C3A0000F008002080
:1028400002480068800700D0012070473C540040D7
:1028500071B585B09DF81400032807D1FFF7F0FF8C
:1028600008B1022000E001208DF814009DF814004A
:1028700000250126144C012814D0022810D1607ABA
:1028800000280DD1114800F0CCF9104800F0F8F9FB
:102890000E48856066720220009011E06846884705
:1028A00006B070BD0A490A4808310E604FF48F61C6
:1028B000C0F80813657204200090012000F038F879
:1028C00061680029EAD1EBE75C02002014000020D7
:1028D000005000407FB5FFF7B3FF0F49002508B156
:1028E0008D607FBD8868401C88600728F9D90B4B34
:1028F0000FCB8DE80F00084800F0B4F9084C657262
:10290000012000F015F800F0CBF861680029E8D04C
:10291000684688477FBD0000140000209039000001
:102920005C020020B0F5A07F01D1FFF7D3BF704754
:10293000044908B1881402E00348808980B2086025
:1029400070470000085500405C0200200549032044
:10295000086004489430016821F01F0141F004012F
:10296000016070470C550040FEB5214C217A09B139
:102970000820FEBDD0E9001021606060FFF7E6FF8F
:102980000520FEF71BF91B49C02081F80004012532
:102990002020491FC1F800011749184AD1E9000158
:1029A000CDE9010101A9164800F08EF90028E0D117
:1029B00013480068D0F810050021C2B24FF4C86077
:1029C000FDF7C6FC0246012300210D48009500F0EA
:1029D00065F90721684600F033F80646C0216846CD
:1029E000FFF700FE25722803E0603046FEBD0000C0
:1029F0005C02002005E000E0883900002529000085
:102A00001400002010B501210B4C292801D02044CE
:102A100008E00A480068C00702D00748283001E0F3
:102A20000548243001600120FFF782FF4FF48F60DA
:102A3000C4F8080310BD00000050004020540040BE
:102A400030B5042905D0072903D00A2901D009206F
:102A500030BD124A1468121D1268104B08331B68EF
:102A60000470250A240C45708470D4B2C470042903
:102A700012D0150A0571150C120E457182710A29C2
:102A800002D0882C06D007E0C371190A0172190C14
:102A9000417201E09921C170002030BD5004001046
:102AA000F0B5264BA1B01868244982B28831684637
:102AB0000C6822499831096811F0C00118D01F4DE7
:102AC0008C352D6880290BD11C4E90363668370C1A
:102AD0008DF80070370A8DF801708DF80260C01C07
:102AE0002E0C00F8016B2E0A00F8016B00F8015B58
:102AF000250E0570250C4570250A8570C4700F4899
:102B00009C3000680E4DC0F34116D5F804430D48C3
:102B1000002707600768012707601A60684605F507
:102B20004175FFF75FFD3046FFF790FDFFF70EFFA1
:102B30002C604FF48F60686021B0F0BD08550040F4
:102B400000500040FC5F0040094A41680088116065
:102B5000111DC0F30800086006480749008800F40A
:102B60008C60C1F80403044901201C3108607047DF
:102B7000105500405C02002000500040014A012135
:102B8000815070470050004010B50268FAB1114CF6
:102B900043682360231DC2F308021A6000884FF6C1
:102BA000FF7202EAC0000B4AC0F30B000C32106047
:102BB000201F016008480949007800F01800C1F89A
:102BC0000403064901200C310860002010BD0920D3
:102BD00010BD0000105500405C0200200050004075
:102BE00070B50D4600F078FB04000FD00020FEF712
:102BF0009AF8207920B10020FEF797F8112070BDD7
:102C00000120256020710020FEF78FF8002070BDA4
:102C100010B500F061FB002802D0002101600171B5
:102C200010BD00680121C16070472DE9F0410646E2
:102C30000D464FF4803400681746AC404BB14FF45A
:102C4000A07101EB8501FFF719FD3068C0F804435E
:102C500001E0C0F80843306800EB8500C0F840751B
:102C6000BDE8F0810268012111610079034A00EB9F
:102C7000400002EB80000172704700006C020020EF
:102C8000016801220A600079034A00EB400002EB70
:102C900080000221017270476C020020F0B40468C9
:102CA000049E40F20115D4F800728D40AF43C4F881
:102CB00000720468D4F800521D43C4F80052334631
:102CC000F0BCFFF7B2BF00002DE9F04104460E460C
:102CD00000792B4900EB400001EB8007387A10B1F6
:102CE0000820BDE8F0813A60706800254FF4A078B4
:102CF000786006E008EB85012068FFF7BFFC6D1CDB
:102D0000EDB26079A842F5D82068F17840F3073039
:102D100000284FEA411106DA00F00F0000F1E02030
:102D200080F8141D03E000F1E02080F80014206812
:102D3000012140F3073000F01F0201FA02F24009BE
:102D4000800000F1E020C0F8002120687278D0F8FF
:102D5000043562F30103C0F804352068B278D0F876
:102D6000083562F30103C0F8083520683278D0F8DE
:102D7000103562F30303C0F8103539720020B0E754
:102D80006C0200200149024800F0B8BB7802002024
:102D9000002000402DE9F0410546007916460F4617
:102DA00000EB40012C4A01EBC00102EB810494F8D6
:102DB0002A1011B10820BDE8F081284951F82010EF
:102DC0002868FFF70DFF08B11120F4E739462846BF
:102DD000FDF7C0FF66603869206030004FF00106E3
:102DE0002DD03F7F4FF48E712868FFF752FC4FF4CF
:102DF000A2712868FFF74DFC28681949C0F8041330
:102E000028684FEA471140F30730002806DA00F03F
:102E10000F0000F1E02080F8141D03E000F1E02035
:102E200080F80014286840F3073000F01F0106FA0C
:102E300001F14009800000F1E020C0F8001128688D
:102E40000421C0F800150020A061E06184F8290089
:102E500044F8140FA675AEE778020020E0390000B0
:102E6000800002002DE9F05F054600790B4600EB7B
:102E7000400101EBC000244901EB8004284600F02A
:102E800045F810B11120BDE8F09F62614FF00009D4
:102E9000C4F82090A36084F828904FF48E784E46B2
:102EA00041462868FFF7F5FB28684FF0010AC0F893
:102EB00008A02146286800F0B1FA606808BBD5F880
:102EC00000B067690FE000BF94F8280008B10F2632
:102ED00015E041465846FFF7D7FB0028F4D02146BD
:102EE000584600F09BFA206AB842F2D35746414652
:102EF0002868FFF7C9FB0028F9D02868C760C4F824
:102F000014903046BFE7000078020020007900EB03
:102F1000400101EBC000044901EB8000406900283A
:102F200000D0012070470000780200202DE9F04712
:102F3000044600794FF0000900EB400101EBC000AE
:102F4000254901EB80072068C0F80095786880B1BA
:102F500020682249C0F808132068012140F3073097
:102F600000F01F0291404009800000F1E020C0F80D
:102F700080112068D0F80C25D0F81485D0F80865A9
:102F8000D0F810554FF0FF31C0F81415C0F80C15EB
:102F90002068C0F80815C0F81015501C02D0104663
:102FA000FEF73EFFB8F1FF3F02D04046FEF738FF84
:102FB000681C02D02846FEF733FF701C02D0304652
:102FC000FEF72EFF2068FFF723FE87F82A90C7F848
:102FD0000490BDE8F087000078020020840202001F
:102FE0000149024800F038BBA40200200020004044
:102FF0002DE9F0410546164600790F46154A00EBCB
:10300000C00102EB810494F8201011B10820BDE842
:10301000F081114951F820102868FFF7E1FD08B14F
:103020001120F4E739462846FDF7D8FE6660386976
:1030300020601EB1397F2846FEF744F82868082131
:10304000C0F800150020A061E0616061012184F8F2
:103050002010DCE7A4020020E43900002DE9F0474D
:1030600004460E460079274900EBC00001EB8005BD
:1030700017463046FFF76CFB30B1204600F044F8AD
:1030800020B11120BDE8F0871020FBE76F61AE6032
:103090004FF490774FF0000839462068FFF70AFB9D
:1030A0004FF4AC7631462068FFF704FB2068AA682D
:1030B0006969C0F84425C0F8481520684FF0010937
:1030C000C0F808906868D0B9BA4651462068FFF742
:1030D000ECFA074631462068FFF7E7FA0743F4D0D9
:1030E00010B14FF00F0808E02068C0F80C9031468E
:1030F0002068FFF7DAFA0028F9D00020686140461E
:10310000C0E70000A40200200079054900EBC000E0
:1031100001EB80004069002800D0012070470000CA
:10312000A40200202DE9F04704460079334900EB62
:10313000C00001EB80070125786880B12068304924
:10314000C0F80813206840F3073000F01F0105FAAB
:1031500001F14009800000F1E020C0F880112068F2
:10316000D0F8001221F02001C0F80012206845605C
:103170004FF4AC7631462068FFF79CFA2068C560B2
:1031800031462068FFF791FA0028F9D020684FF007
:103190000009C0F800952068D0F80C25D0F81485F7
:1031A000D0F80865D0F810554FF0FF31C0F80C1575
:1031B000C0F814152068C0F80815C0F81015501C88
:1031C00002D01046FEF735FEB8F1FF3F02D0404670
:1031D000FEF72FFE681C02D02846FEF72AFE701C60
:1031E00002D03046FEF725FE2068FFF711FD87F874
:1031F0002090C7F80490BDE8F0870000A4020020EA
:103200001003420010B50C46017A052908D0407A17
:1032100038B1084808A102682046FEF7C5FC00E066
:103220001AB106A12046FEF7BFFC2046BDE81040BB
:10323000FEF7C7BCE0000020257300000D0A000067
:1032400038B5C3880D46044633B114A0009015A2CA
:1032500016A12846FEF7A8FC217A05291CD0607A21
:1032600048B1A088FEF7D8FE164951F8202016A1D3
:103270002846FEF799FCA0880021FFF7A9F803462D
:103280001049207A143951F8202001B02846BDE8B1
:1032900030400EA1FEF788BC38BD00001B5B306DCE
:1032A000000000001B5B313B33316D0025734C6F18
:1032B00067732064726F7070656420282564292507
:1032C000730D0A00E0000020257300003C25733ECA
:1032D0002025733A200000000349884201D10348A9
:1032E00070470020704700000020004020000020B0
:1032F00070B5054688690C4600284FF4847128464D
:103300000AD0FFF7C6F9D5F81805626AE168885453
:10331000606A401C606270BDFFF7BBF9D5F8180504
:1033200070BD1FB501238DF80030CDE90121D0E932
:103330000012684690471FBD1FB501238DF800306D
:10334000CDE90121D0E90012684690471FBD000079
:1033500070B50D4C0020D2B22070201D0B4D0378AB
:10336000EB5C1BB1001DFFF779FE02E00C30FFF7AC
:1033700079FD08B1FDF7CCFC6078002802D02178F7
:103380000029FAD070BD0000940000200000002049
:103390002DE9F84F204D924689460646984601226F
:1033A00069461846AF68FDF7A1FD58B300980021A3
:1033B0000446801C09E000BF00EA07035AF82120F8
:1033C00005EB8303401C491CDA604145F4D34FEA06
:1033D000164AFDF719FE4AEA0041601C384005EB29
:1033E00080003C4005EB8402C160D06866F3C500F4
:1033F00068F3891069F39F2020F00300401C20F03F
:103400000400D06095F8200402E000BFFEF72AFE19
:103410000028FBD1BDE8F88F6004002070B50C4691
:1034200005464FF48E71FFF734F9216AA068415CBC
:10343000206A401C2062C5F81C1570BD1FB5002213
:103440008DF800200291816801914261D0E900125B
:10345000684690471FBD1FB500228DF800200291DD
:10346000816801914261D0E90012684690471FBD12
:103470001FB50A4601788DF8001041680191017A64
:103480008DF80810C0680390044850F82210001FFF
:1034900050F82220684690471FBD00000800002019
:1034A00001490120087070479400002010B588B0D1
:1034B000044620220E496846FCF75EFF0620009075
:1034C000C01F0190029003904FF0EB7006900CB17A
:1034D000084A00E0002269460748FEF731FB08B1C0
:1034E000FDF716FC0448001F447008B010BD000032
:1034F000043A0000A1340000980000202DE9FF47A5
:103500000C4605464FF40071FFF7C9F801274FF448
:103510000178002618B34FF4927949462846FFF700
:10352000B3F8E0B149462846FFF7B3F8C5F8088379
:1035300094F8290000B96F6002208DF80000D5F8DA
:103540008004C5F880040390A0690290E0680190AF
:10355000A661E661D4E900126846904728E004219C
:103560002846FFF79CF818B34FF484712846FFF7FC
:103570008BF8E8B121462846FFF7BAFE616AA069D8
:10358000884215D1E06938B1E268616AA0612069BA
:10359000E6616662E06008E094F8290000B96F60B7
:1035A000C5F80883A661E268616A2046FFF7B9FEA4
:1035B0004FF48E7841462846FFF766F880B160697F
:1035C000216A814202D294F8280028B34146284655
:1035D000FFF75FF8606918B161692046FFF72EFFB9
:1035E0004FF4A27841462846FFF74EF8002818D03D
:1035F00041462846FFF74DF894F8290000B12F60A6
:10360000A06900280DD0A661E268616A04B0204676
:10361000BDE8F047FFF785BE21462846FFF7FEFECE
:10362000DEE7BDE8FF8700001FB50A4601788DF888
:10363000001041680191017A8DF80810C06803906C
:10364000044850F82210001F50F822206846904786
:103650001FBD0000080000202DE9FF410C464FF47B
:10366000927705463946FFF720F80026B8B139466B
:103670002846FFF71FF802208DF80000D5F88004D7
:10368000C5F880040390D5F83C050290E0680190ED
:10369000A661E661D4E900126846904723E04FF442
:1036A000887739462846FFF700F8E0B139462846C2
:1036B000FFF700F8D5F83C15A069884213D1E069FE
:1036C00060B1E268D5F8000220F02000C5F80002E1
:1036D000E069A0612069E661E06001E0A661E2685E
:1036E0002046FFF729FE4FF4A27739462846FEF719
:1036F000DCFF68B139462846FEF7DCFFA06938B127
:10370000A661E661D5F83C152046E268FFF714FE95
:103710004FF4907631462846FEF7C7FF60B1314638
:103720002846FEF7C7FF0120E860606920B1D5F8A0
:103730004C152046FFF78FFE4FF4AC7631462846F5
:10374000FEF7B3FF00280ED031462846FEF7B2FF41
:103750006069002807D0D5F84C1504B02046BDE8B4
:10376000F041FFF778BEBDE8FF8100002DE9F05F72
:103770008346DDE90A4A994690460D4608460127E8
:1037800003E000BFB0FBF8F07F1C4045FAD2B9451A
:1037900000D94F465FEACA7012D18CB15FEA8A70D5
:1037A00002D5B9F1000F01D0202607E0302605E050
:1037B00031465846641EFDF7DDFB0CB1A742F7D336
:1037C0005FF00106B9F1010F02D9A9F1010903E087
:1037D000B5FBF6F0404502D306FB08F6F2E7DFF84A
:1037E0003C9000BFB5FBF6F000FB165519F8001031
:1037F0005846FDF7BFFBB6FBF8F6002EF2D15FEAA4
:10380000CA7009D0002C07D0A74205D22021584603
:10381000641EFDF7AFFBF5E7BDE8F09FE839000057
:1038200030B5A7B00C4605461422244915A8FCF76C
:10383000A3FD22491822143103A8FCF79DFD15A809
:103840001E49089014222C311AA8FCF795FD1B493B
:103850001822403109A8FCF78FFD1AA817490E90CD
:10386000142258311FA8FCF787FD144918226C3127
:103870000FA8FCF781FD11491FA880311490D1E9F0
:103880000201CDE9010124A8009003A96846FDF7D3
:10389000F5FE002810D109A96846FDF7EFFE0028C3
:1038A0000AD10FA96846FDF7E9FE002804D1224697
:1038B00029466846FDF7A9FE27B030BDF038000064
:1038C00048656C6C6F20576F726C6421656E48613F
:1038D0006C6C6F2056657264656E214E4F5769742B
:1038E000616A20C59A77696563696521504C00005B
:1038F00000000000CC38000002000000C0380000CA
:103900000C000000010000000000000001000000A9
:10391000303A0000411900000000000000000000E3
:10392000DB38000002000000CE3800000D0000006F
:10393000010000000000000001000000303A00001B
:10394000411900000000000000000000EC380000F9
:1039500002000000DD3800000F0000000100000040
:103960000000000001000000303A00004119000092
:103970000000000000000000030000000000000044
:10398000111213140D0E0F100400000600000000A9
:103990000400000000000000000000000000000023
:1039A00040000000000000000000000000000000D7
:1039B00010000000000000000000000000000000F7
:1039C00000000800000000000000000000000000EF
:1039D0008000000000000000000000000000000067
:1039E000852D0000E12F0000303132333435363779
:1039F000383941424344454601200000D51F0000AC
:103A0000CD1F0000FFFFFFFFFFFFFFFFFFFFFFFFD6
:103A1000FFFFFFFF00000000000000000000D601D3
:103A200006010000C80300207F00000048040020B9
:103A300054000102030405060708090010000000F5
:103A4000F00800205004000085270000004040409E
:103A50004040404040404141414141404040404061
:103A6000404040404040404040404040400502020D
:103A700002020202020202020202020202202020CC
:103A80002020202020202002020202020202909028
:103A90009090909010101010101010101010101026
:103AA000101010101010101002020202020288887A
:103AB0008888888808080808080808080808080886
:103AC000080808080808080802020202400000006E
:103AD0004D3A000044617461206275732065727212
:103AE0006F72202872657475726E206164647265ED
:103AF000737320696E2074686520737461636B2032
:103B00006672616D65206973206E6F742072656CDA
:103B10006174656420746F2074686520696E7374C5
:103B200072756374696F6E20746861742063617567
:103B300073656420746865206572726F7229000075
:103B40004461746120627573206572726F722028FF
:103B500050432076616C756520737461636B656496
:103B600020666F722074686520657863657074697B
:103B70006F6E2072657475726E20706F696E7473EB
:103B800020746F2074686520696E73747275637435
:103B9000696F6E2074686174206361757365642059
:103BA000746865206661756C7429000043617573E3
:103BB000653A204275734661756C74206F6E2061A2
:103BC00020766563746F72207461626C6520726523
:103BD000616420647572696E6720657863657074CE
:103BE000696F6E2070726F63657373696E672E0004
:103BF0005468652070726F636573736F72206861BB
:103C00007320657865637574656420616E20534424
:103C10004956206F72205544495620696E7374725C
:103C2000756374696F6E20776974682061206469B8
:103C30007669736F72206F662030000054686520CB
:103C400070726F636573736F722068617320617443
:103C500074656D7074656420746F20657865637534
:103C6000746520616E20696E737472756374696F18
:103C70006E2074686174206D616B657320696C6C73
:103C80006567616C20757365206F662074686520B8
:103C900045505352000000005468652070726F63F5
:103CA0006573736F722068617320617474656D70E1
:103CB00074656420616E20696C6C6567616C206C52
:103CC0006F6164206F66204558435F5245545552DA
:103CD0004E20746F207468652050432C206173203F
:103CE0006120726573756C74206F6620616E206947
:103CF0006E76616C696420636F6E746578742C20D5
:103D00006F7220616E20696E76616C69642045581F
:103D1000435F52455455524E2076616C75650000E4
:103D20005468652070726F636573736F722061747D
:103D300074656D707465642061206C6F6164206FC0
:103D4000722073746F72652061742061206C6F63E0
:103D50006174696F6E207468617420646F6573208C
:103D60006E6F74207065726D697420746865206F61
:103D70007065726174696F6E0000000041204D65CE
:103D80006D4D616E616765206661756C74206F634F
:103D900063757272656420647572696E6720666C03
:103DA0006F6174696E672D706F696E74206C617AD3
:103DB00079207374617465207072657365727661C1
:103DC00074696F6E000000004120627573206661A7
:103DD000756C74206F6363757272656420647572AC
:103DE000696E6720666C6F6174696E672D706F69AC
:103DF0006E74206C617A79207374617465207072BE
:103E000065736572766174696F6E00005468652031
:103E100070726F636573736F722068617320617471
:103E200074656D7074656420746F20657865637562
:103E3000746520616E20756E646566696E656420C8
:103E4000696E737472756374696F6E00496E737412
:103E500072756374696F6E20627573206572726F1C
:103E6000720000005468652070726F636573736F31
:103E7000722068617320617474656D70746564206C
:103E8000746F20616363657373206120636F707268
:103E90006F636573736F7200556E737461636B202B
:103EA000666F7220616E20657863657074696F6EED
:103EB0002072657475726E2068617320636175731A
:103EC0006564206F6E65206F72206D6F7265206172
:103ED00063636573732076696F6C6174696F6E7369
:103EE00000000000537461636B696E6720666F7237
:103EF00020616E20657863657074696F6E20656EF1
:103F00007472792068617320636175736564206FD2
:103F10006E65206F72206D6F7265206163636573DB
:103F2000732076696F6C6174696F6E7300000000B6
:103F30005468652070726F636573736F7220686177
:103F400073206D61646520616E20756E616C6967B8
:103F50006E6564206D656D6F727920616363657352
:103F600073000000556E737461636B20666F72207E
:103F7000616E20657863657074696F6E2072657418
:103F800075726E2068617320636175736564206F5C
:103F90006E65206F72206D6F726520427573466189
:103FA000756C747300000000537461636B696E6715
:103FB00020666F7220616E20657863657074696F2A
:103FC0006E20656E74727920686173206361757309
:103FD0006564206F6E65206F72206D6F7265204280
:103FE00075734661756C7473000000007761726EC2
:103FF000696E670064656275670000001B5B313B9A
:1040000033306D001B5B306D000000001B5B313BEB
:1040100033316D001B5B313B33326D001B5B313B39
:1040200033336D001B5B313B33346D001B5B313B25
:1040300033356D001B5B313B33366D001B5B313B11
:1040400033376D00696E666F00000000636C6F634C
:104050006B000000434C4F434B0000004E4643545E
:10406000000000005052530054494D4552000000DA
:104070005541525400000000554152544500000083
:10408000686172646661756C7400000075617274B9
:104090005F6C6F675F6261636B656E640000000058
:1040A00061707000304100000000002048010000F5
:1040B000F4030000D041000048010020C8270000A0
:1040C000E20B0000F8390000000000008C40000006
:1040D000AC0000204C4000000000000054400000F4
:1040E000000000005C400000000000006440000090
:1040F0000000000068400000000000007040000068
:104100000000000078400000000000008040000037
:1041100000000303A040000000000303BC000020D7
:10412000B4000020BC00002008030020180000009C
:1041300001160613B001400006330C3E73203D33D8
:10414000983E33E43EB37C3D334C3E33403B33D466
:104150003A33643F33A83FB3C83D330C3E333C3C55
:1041600033983C0313643E33303FC3F03B6420007C
:1041700040942000400220FF335C3E33EC3F334448
:104180004033F43F33044033FC3F330C403314409E
:10419000331C40332440332C40333440C33C403044
:1041A0001C90D00304060504080304090205070453
:1041B0000508030509020305040309022A01010198
:1041C00002020403020AF7020102020902000000CF
:0400000500000201F4
:00000001FF
