:020000040000FA
:1000000008080020150200001D0200001F02000069
:100010002102000023020000250200000000000071
:1000200000000000000000000000000027020000A7
:1000300029020000000000002B0200002D02000039
:100040002F0200002F0200002F0200002F020000EC
:100050002F020000000000002F0200002F0200000D
:100060002F0200002F0200002F0200002F020000CC
:100070002F0200002F0200002F0200002F020000BC
:100080002F0200002F0200002F0200002F020000AC
:100090002F0200002F0200002F0200002F0200009C
:1000A0002F0200002F0200000000000000000000EE
:1000B0002F0200002F0200000000000000000000DE
:1000C0000000000000000000000000000000000030
:1000D0000000000000000000000000000000000020
:1000E0000000000000000000000000000000000010
:1000F0000000000000000000000000000000000000
:1001000000000000000000000000000000000000EF
:1001100000000000000000000000000000000000DF
:1001200000000000000000000000000000000000CF
:1001300000000000000000000000000000000000BF
:1001400000000000000000000000000000000000AF
:10015000000000000000000000000000000000009F
:10016000000000000000000000000000000000008F
:10017000000000000000000000000000000000007F
:10018000000000000000000000000000000000006F
:10019000000000000000000000000000000000005F
:1001A000000000000000000000000000000000004F
:1001B000000000000000000000000000000000003F
:1001C000000000000000000000000000000000002F
:1001D000000000000000000000000000000000001F
:1001E000000000000000000000000000000000000F
:1001F00000000000000000000000000000000000FF
:10020000DFF80CD000F018F800480047C5040000E3
:10021000080800200648804706480047FEE7FEE73A
:10022000FEE7FEE7FEE7FEE7FEE7FEE7FEE7FEE7A6
:100230005D02000001020000064C074D06E0E06888
:1002400040F0010394E8070098471034AC42F6D31D
:10025000FFF7DAFF400500006005000070B54FF0C1
:100260008051D1F84422D1F830015B4BC2F34232C5
:100270001A6000238A00C2F80C31C2F81031564AC5
:10028000121F1360554A1268554C2260534A121DC2
:100290001268241D2260514A08321268241D22600F
:1002A0004E4A0C321268241D22604C4A10321268E9
:1002B000241D2260494A14321268241D2260474AD4
:1002C00018321268464C20342260444A1C321268AC
:1002D000241D2260414A20321268241D22603F4AB8
:1002E00024321268241D22603C4A28321268241DE0
:1002F00022603A4A2C321268241D2260374A30327A
:100300001268374C40342260344A34321268241D5B
:100310002260324A38321268241D22602F4A3C3251
:100320001268241D22602D4A40321268241D22606A
:1003300001242C4A082802D1D1F8345115B10828DB
:1003400004D00CE0284EFB25356002E0D1F8345192
:100350002DB991F85862156866F303051560D1F858
:10036000585205F04F05156020480168C90702D0B2
:100370006FF0010101604FF01021D1F80002002858
:1003800003DBD1F80402002821DA194A1460194865
:100390000468002CFCD01224C1F800420568002D2E
:1003A000FCD0C1F8044201680029FCD01360016848
:1003B0000029FCD0BFF34F8F0F4801680F4A01F4AA
:1003C000E06111430160BFF34F8F00BFFDE70D49AE
:1003D0000B48086070BD00003C050040040400109C
:1003E00020C50040E40E004018F500400004004025
:1003F00004E5014000E401400CED00E00400FA05D2
:100400000090D0030000002002E008C8121F08C1BD
:10041000002AFAD170477047002001E001C1121F85
:10042000002AFBD1704700002DE9FC410646C007B9
:100430004FF000050ED0104F00240122385D0095CA
:1004400000231146019500F055F8641C042CF4D3E8
:1004500000F02EF8B0070DD5074E0024361D0022FF
:10046000305D032300951146019500F043F8641CAC
:10047000042CF4D3BDE8FC813605000007490B5C71
:100480004FF0A041D1F804250120984020EA020352
:10049000C1F808351040C1F80C057047360500005A
:1004A0000249085C012100F037B800003605000061
:1004B00010B500242046FFF7F3FF641C042CF9D389
:1004C00010BD00000120FFF7AFFF094C4FF4FA7890
:1004D0004FF47A4700263046FFF7D0FF4546611CAF
:1004E000384688476D1EFAD1761C042EF3DBF1E7FF
:1004F0003005000070B541EA4201DDE904564FF0D5
:10050000A04441EA830141EA052104EB800041EA6D
:100510000641C0F8001770BD01224FF0A043824091
:1005200011B1C3F808257047C3F80C2570470000C7
:100530000338FDD870470D0E0F100B0C1819000072
:100540006005000000000020040000000804000016
:1005500064050000040000200408000018040000E6
:040560000090D00334
:0400000500000201F4
:00000001FF
