:020000040000FA
:10000000D8280020F90200000103000003030000CB
:1000100005030000070300000903000000000000C2
:100020000000000000000000000000000B030000C2
:100030000D030000000000000F030000110300008A
:1000400013030000130300004D0900001303000018
:100050001303000013030000410400001303000019
:100060001303000013030000130300001303000038
:100070001303000013030000130300001303000028
:10008000130300000906000013030000130300001F
:100090002D060000130300001303000013030000EB
:1000A00013030000130300001303000013030000F8
:1000B0001303000013030000000000000000000014
:1000C00013030000130300001303000013030000D8
:1000D00013030000130300001303000000000000DE
:1000E0000000000000000000000000000000000010
:1000F0000000000000000000000000000000000000
:1001000000000000000000000000000000000000EF
:1001100000000000000000000000000000000000DF
:1001200000000000000000000000000000000000CF
:1001300000000000000000000000000000000000BF
:1001400000000000000000000000000000000000AF
:10015000000000000000000000000000000000009F
:10016000000000000000000000000000000000008F
:10017000000000000000000000000000000000007F
:10018000000000000000000000000000000000006F
:10019000000000000000000000000000000000005F
:1001A000000000000000000000000000000000004F
:1001B000000000000000000000000000000000003F
:1001C000000000000000000000000000000000002F
:1001D000000000000000000000000000000000001F
:1001E000000000000000000000000000000000000F
:1001F00000000000000000000000000000000000FF
:10020000DFF80CD000F00AF9004800474D18000054
:10021000D828002030B4044654E8000F0D4644E8C6
:100220000053002BF8D1156030BC704730B4044641
:1002300054E8000F40EA010544E80053002BF7D1D1
:10024000156030BC704730B4044654E8000F00EA33
:10025000010544E80053002BF7D1156030BC70470E
:1002600030B4044654E8000F80EA010544E8005326
:10027000002BF7D1156030BC704730B4044654E809
:10028000000F00EB010544E80053002BF7D1156087
:1002900030BC704730B4044654E8000FA0EB0105B1
:1002A00044E80053002BF7D1156030BC704770B4A0
:1002B00004464FF0000054E8006F0D68AE4207BFDF
:1002C00044E80023012044E800630E60002B1CBFBB
:1002D0000020F0E770BC704730B4044654E8000FCB
:1002E00088422CBF451A054644E80053002BF5D13F
:1002F000156030BC7047000006488047064800473C
:10030000FEE7FEE7FEE7FEE7FEE7FEE7FEE7FEE7C5
:10031000FEE7FEE731060000010200002DE9F05F74
:100320000546002092469B46884606468146402464
:100330001BE0284641464746224600F05EF85346F9
:100340005A46C01A914110D311461846224600F071
:1003500016F82D1A67EB01084F46224601200021AE
:1003600000F00DF817EB00094E41201EA4F1010426
:10037000DFDC484631462A464346BDE8F09F202A46
:1003800004DB203A00FA02F1002070479140C2F1EC
:10039000200320FA03F31943904070470048704748
:1003A000B437000040EA01039B0703D009E008C905
:1003B000121F08C0042AFAD203E011F8013B00F82A
:1003C000013B521EF9D27047D2B201E000F8012B76
:1003D000491EFBD270470022F6E710B513460A46C5
:1003E00004461946FFF7F0FF204610BD421C10F8E6
:1003F000011B0029FBD1801A7047202A04DB203A18
:1004000021FA02F00021704721FA02F3D040C2F134
:10041000200291400843194670470000064C074DE2
:1004200006E0E06840F0010394E8070098471034C4
:10043000AC42F6D3FFF7E8FE5438000074380000F1
:100440002DE9F04700268AB0DFF85091B0464FF40E
:100450008075012437460696284601F055FD38B1CF
:10046000D9F80403204203D0284601F043FD264377
:100470002D1D64007F1CADB2082FEDD34FF4BE7468
:10048000204601F041FD48B1204601F033FD46F021
:10049000004606AA0121002001F018FD404D16F08B
:1004A000FF0F15D00127002437420DD009EB84013E
:1004B000D1F81005D1F81015C0F3042055F8242008
:1004C000C1F3014102B190477F00641C082CEBD3BB
:1004D000002E5FDA4FF0FF30CDF8108054E028197D
:1004E00010F8507F90F9000027F0C008401C3BD066
:1004F00007A9404601F002FB10B34FEA97194046A6
:1005000000F0DAFE55F820701FB1B9F1030F03D0E7
:1005100006E0B9F1030F27D104A9404601F0F6FA2D
:100520004FF0A04101EB8800D0F8000706A9C0F306
:10053000014A404601F0E2FA18B1BAF1020F03D0C5
:1005400012E0BAF1030F0FD1B9F1030F08D1BAF1DC
:10055000020F1DD00221404601F09CFC761CF6B231
:1005600017B149464046B847641C042CB7D3002E47
:1005700010D06A460121002001F0A8FC06990098DD
:10058000884207D006900498002634460790A6E7D4
:100590000321E0E70AB0BDE8F087000000600040FA
:1005A0004001002000F01F0201219140400980001D
:1005B00000F1E020C0F88012704700F01F02012116
:1005C00091404009800000F1E020C0F80011704720
:1005D00000F01F02012191404009800000F1E0205D
:1005E000C0F8001270474907090E002806DA00F02B
:1005F0000F0000F1E02080F8141D704700F1E020AA
:1006000080F800147047000007480021C0F840112E
:10061000C0F84411C0F84811C0F84C11C0F80011DE
:10062000C0F8041102F0FCBD0010014002F04ABD08
:10063000F0B5B5480023021D0178101D01254FF0CB
:10064000805406290BD11678360708D10678C6F3F0
:100650000316032E06D0042E04D0052E02D0062940
:1006600007D00EE0B4F82463A84FC6F304263E601A
:1006700002E01678360704D10678C6F30316032E77
:1006800002D0062904D00FE0A24FA14E7E670EE0F3
:100690001678360708D10678C6F30316032E06D05F
:1006A000042E04D0052E02D0062907D00EE0D4F87F
:1006B0004462994FC6F342363E6002E01678360730
:1006C00004D10678C6F30316032E02D0062906D0FD
:1006D00011E0924E376827F0807737600EE0167889
:1006E000360708D10678C6F30316032E06D0042E6B
:1006F00004D0052E02D006290AD011E04FF0804622
:10070000C6F80C31C6F81031834E361F336002E054
:100710001678360704D10678C6F30316032E02D0E6
:10072000062905D00CE07C4F032664373E600AE0C2
:100730001678360704D10678C6F30316032E02D0C6
:1007400006290DD014E0764F05263E60744E7836AB
:100750003560734E083633603F263F1D3E6002E031
:100760001678360704D10678C6F30316052E02D094
:10077000062957D062E06B4E36686B4F3E60694E7B
:10078000361D36683F1D3E60664E083636683F1D92
:100790003E60644E0C3636683F1D3E60614E10363A
:1007A00036683F1D3E605F4E143636683F1D3E6022
:1007B0005C4E183636685C4F20373E60594E1C360A
:1007C00036683F1D3E60574E203636683F1D3E60FE
:1007D000544E243636683F1D3E60524E28363668E9
:1007E0003F1D3E604F4E2C3636683F1D3E604D4EDD
:1007F000303636684C4F40373E604A4E34363668A5
:100800003F1D3E60474E383636683F1D3E60454EC0
:100810003C3636683F1D3E60424E403636683F1DCE
:100820003E6002E01678360708D10678C6F3031654
:10083000032E06D0042E04D0052E02D0062907D0A0
:1008400019E0D4F85812394A01F04F01116002E062
:10085000117809070FD10078C0F30310032803D0E3
:10086000042801D0052806D131480168C90702D003
:100870006FF001010160D4F83001062808D1D4F8E6
:100880003401062804D12B48016841F480610160DD
:1008900022487438016841F470010160BFF34F8F42
:1008A000BFF36F8F4FF01021D1F80002002803DB57
:1008B000D1F80402002822DA1F4A15601F48046894
:1008C000002CFCD01524C1F800420568002DFCD096
:1008D000C1F8044201680029FCD0136001680029B6
:1008E000FCD0BFF34F8F0D48F0380168144A01F473
:1008F000E06111430160BFF34F8F00BFFDE7124974
:1009000010480860F0BD0000E00F00F040350140E5
:100910000DF0ADBA00C007403C050040FCED00E022
:10092000105600400404001020C50040E40E0040B2
:10093000000400403C17004004E5014000E4014091
:100940000400FA050090D003D000002001480068A0
:10095000004700002000002002E008C8121F08C164
:10096000002AFAD170477047002001E001C1121F30
:10097000002AFBD17047022000F0F2B970B50024C4
:10098000064D06E06868012110F8340001F066FEAB
:10099000641C28788442F5D3002070BD2800002014
:1009A000F8B515460C460646052A01D20720F8BDC3
:1009B00001F04EFF18B901F015FF0028F7D11249D8
:1009C00000224E600C708D60C1E90422C1E906224C
:1009D0000E4D0DE006EBC4002968009181788DF87A
:1009E000011000780A4A694601F08AFE0028DED12B
:1009F000641EE4B2EED2BDE8F84004480021054A86
:100A0000001D00F057B8000028000020CC36000080
:100A100099140000A913000072B601F00DFD00BF8B
:100A200001F058FB0028FBD111481249401AC408B4
:100A3000012000EB044010A101F064FC11480068A3
:100A4000C00700D000BE022000EB04400EA101F060
:100A500059FCBFF34F8F0B48E43801680E4A01F48C
:100A6000E06111430160BFF34F8F00BFFDE700005D
:100A7000A438000084380000466174616C206572FF
:100A8000726F7200F0ED00E053797374656D20723F
:100A900065736574000000000400FA050EB50021BE
:100AA0000091CDE901106A4644F20100FFF7B4FF5E
:100AB0000EBD0000084B9B7823B12AB120B100681D
:100AC000037C1BB108207047072070470023037484
:100AD00041744261184670470C02002070B502F064
:100AE0002BFA104800240B21047044700E4D8170C5
:100AF00014206C602C706C70FFF754FD06211420DC
:100B0000FFF771FD1420FFF758FD08480460062127
:100B10001120FFF768FD0548001F0068A86000204D
:100B200070BD00000C0200204800002008150140A4
:100B30002DE9F843DFF8709099F802305BB350B3B9
:100B4000052902D20720BDE8F88343691BB3437C23
:100B5000012B22D000270446002588461646284649
:100B600000F036F8684602F079FDC0B1012101704D
:100B70000E4944600968C0E90218C0E904769DF88E
:100B8000000089F80100002000F024F81420FFF78D
:100B90001FFD2846D7E70820D5E70F46DBE70425E9
:100BA000002000F017F8F4E70C02002004150140C3
:100BB0000649897839B130B1416921B10021017408
:100BC000022102F00DBB0820704700000C0200203B
:100BD00000F002B800F008B872B602480168491C7B
:100BE000016070475C00002003490868401E0860EF
:100BF00000D162B6704700005C0000202DE9F04192
:100C0000064608680C46411C4FF0A0474FF001050E
:100C100006D005FA00F1C7F80815206801F026F99A
:100C20006068411C02D0002101F00EF93168A06912
:100C3000C1F82405607D227D31681043C1F86C0540
:100C4000D4E900123068C0F81425C0F80C15207DD6
:100C5000012815D1A068411C02D0002101F0F4F850
:100C6000E068411C05D08540C7F80855E06801F0F0
:100C7000FDF8D4E902123068C0F80825C0F8101554
:100C8000BDE8F0812DE9F041064608680C46411C9C
:100C90004FF0A0474FF0010506D005FA00F1C7F864
:100CA0000815206801F0ECF86068411C02D00021B2
:100CB00001F0D3F83168A069C1F82405607D217D79
:100CC00032680843C2F86C05D4E900123068C0F8F5
:100CD0000C15C0F81425207D012815D1A068411CF1
:100CE00002D0002101F0B9F8E068411C05D0854030
:100CF000C7F80855E06801F0C3F8D4E9021230687B
:100D0000C0F80825C0F81015BDE8F0812DE9FC41B8
:100D10000646C0074FF000050ED0104F00240122F8
:100D2000385D009500231146019501F033F8641CED
:100D3000042CF4D300F046F8B0070DD5074E00247C
:100D4000361D0022305D032300951146019501F008
:100D500021F8641C042CF4D3BDE8FC818C3600001F
:100D600007490B5C4FF0A041D1F8042501209840C1
:100D700020EA0203C1F808351040C1F80C0570479D
:100D80008C3600000249085C012101F094B8000093
:100D90008C3600000249085C002101F08CB800008C
:100DA0008C3600000649095C4FF0A040D0F80405DD
:100DB000C84010F0010000D0012080F00100704711
:100DC0008C36000010B500242046FFF7DBFF641CC2
:100DD000042CF9D310BD10B500242046FFF7DAFF2C
:100DE000641C042CF9D310BD10B50246064B4FF01D
:100DF000FF3000215C5C944201D1084610BD491CC3
:100E00000429F7D310BD0000903600002DE9F0470B
:100E10000D468146FFF7E8FF0446042836D2DFF886
:100E200074801B481C4EA8F10C0725B3012D0ED071
:100E3000022D2BD104EB440030444578002D25D001
:100E4000B968002922D02846BDE8F047084704EBDE
:100E50004401755C0E44717849B10E4A4FF400416B
:100E6000093A8068FFF764FE08B987F80390B17803
:100E700008F80410E2E78068FFF79AFE04EB4401EB
:100E8000314418F804008D78A842D7D0BDE8F08727
:100E900094360000100000201401002070B50023DB
:100EA000042810D20D4D00EB4004012A02D1012983
:100EB0000CD00022094E00EB4000304461B1012902
:100EC00006D0022906D00723184670BD0E30C2B2E4
:100ED0002A55F9E74270F7E78270F5E71401002020
:100EE000044A014600201279D20702D0084600F0D9
:100EF0004DB870470400002070B506461E48002417
:100F0000C0E90161B00720D500250122114628461D
:100F1000FFF7C4FF6D1C0446042D02D2002CF4D050
:100F200013E094B940F2666204211448FFF738FDDB
:100F300004000AD1FFF722FD040006D10F48104A31
:100F40000021001FFFF7B6FD0446F00712D0012074
:100F5000FFF7DCFE74B909480A4A00210C38FFF794
:100F6000A9FD040006D10548074A01210838FFF70A
:100F7000A1FD0446204670BD04000020A0360000FC
:100F800021120000A5160000770900002DE9F05F8E
:100F90006E4C054600266078B34618B184F801B05F
:100FA00000F068FB6A4F4FF47A694FF4C87A4FF04B
:100FB0000108182D69D2DFE805F00C1313384754E7
:100FC000696E727B727BC58484848484B3B6B9BC39
:100FD000C5C500F04FFB3868FFF7EAFD06465CE048
:100FE0000020FFF7DFFE00284FF0000008D0FFF7D9
:100FF000C9FE022D02D14FF4E16008E0484606E048
:10100000FFF7C8FE022D01D1C82000E05046410C78
:10101000C0034FF4FA72801841F1000125705200AC
:101020000023FFF77BF901462AE00020FFF7BAFE14
:1010300000284FF0000004D0FFF7A4FE4FF44870E2
:10104000E5E7FFF7A7FEDFE70020FFF7ABFE00288C
:101050004FF0000002D0FFF795FECFE7FFF79AFEB2
:10106000D4E70020FFF79EFE00284FF0000002D0DA
:10107000FFF788FE01E0FFF78DFE257041F69A111B
:1010800000223868FFF754FD064646E00020FFF7CF
:1010900067FE257008E0002051E025703DE084F8EF
:1010A00001800120FFF75CFE002240F6CD41E8E719
:1010B00084F801800120FFF753FE00224FF48041A5
:1010C000DFE77868FFF774FD0646D5F1110000D020
:1010D0002EB10220FFF756FE84F802B01DE0012871
:1010E00016D980B2C8214843C117C90341EA50410B
:1010F000C0034FF4FA72801841F10001520000233E
:10110000FFF70CF9014600227868FFF711FD06464B
:101110000220FFF73FFE84F802803046BDE8F09FD2
:1011200000F0A8FAB9E700F0A5FAB4E700F0A2FAD7
:1011300004E000F09FFA0020FFF72CFE0120FFF7EB
:1011400029FEAAE7FFF747FEA7E7000004000020FA
:10115000943600002DE9F0470546861C90460F4660
:101160004FF001090020FFF733FD1B4C2068386069
:10117000D4E90001401AA16804F21C47081A0EE0E5
:101180000121384600F052FC00F012FB01463846BF
:1011900000F04CFCD4E90001401AA168081A401C78
:1011A0008642EDD8B8F1000F03D0052065F3891011
:1011B00002E0062065F39F50A2682168114004EB0D
:1011C0008101C8602068304420600020FFF702FDE4
:1011D0004846BDE8F0870000B004002070B50D4619
:1011E00004460A2902D10D21FFF7F8FFA068226802
:1011F000411CA1601554D4E90101814204D3204669
:10120000BDE8704000F0CDBC70BD0000034803C8CD
:10121000814201D10120704700207047B0040020B6
:1012200000780221FFF7F2BD70B50446000E01F010
:1012300037FF0506200C01F033FF45EA0045200A80
:1012400001F02EFF45EA0025204601F029FF284342
:1012500070BD000005494FF0FF32082841F82020FA
:1012600002D3084480F84820704700004001002065
:10127000F0B54FF0FF3512B10023082601E0082336
:101280000C260C4C05E000BF54F823707F1C04D0E2
:101290005B1CB342F8D32846F0BD26185DB286F831
:1012A000305044F82310002AF5D1E11881F84800A5
:1012B000F1E70000400100200249084490F93000A5
:1012C00070470000400100204FF080400022C0F82D
:1012D00000210121C0F80010D0F80031002BFBD014
:1012E000054B1960C0F80421C0F80810D0F80411AB
:1012F0000029FBD070470000180500402DE9F05F81
:1013000026484168F1B3DFF898B00E688146DBF8F3
:10131000004087688078E11B21F07F45ED1CB0B963
:10132000DFF880804FF48030C8F84403C8F8040325
:101330001120FFF737F91120FFF73FF94FF0010AAD
:10134000C8F800A02F2001F081F989F802A0B54269
:1013500000D23546124BE8193C3320F07F4018602C
:10136000DBF800105A46091B21F07F41001B20F0DA
:101370007F40C91C81420FD9106818602F2001F0EE
:1013800065F900E004E0BDE8F05F1120FFF720B947
:10139000BDE8F05F01F0D0BDBDE8F09F480000203F
:1013A00004150140001001402DE9F0470025DFF849
:1013B00090803DE06068002100EBC5060120327896
:1013C0009146FEF7DCFFD4E9062300EA020701EAB2
:1013D000030C57EA0C0729D082438B434846C4E9E3
:1013E000062301F0F5F9327882469146012000216A
:1013F000FEF7C5FFD4E9042300EA020401EA03076B
:101400004A4650460021FEF7BAFF44404F403C4355
:101410000CD17078012801D0012000E00020726812
:1014200080EA0A0012B1C1B2484690476D1CEDB285
:1014300098F8000044468542BCD3BDE8F087000020
:101440002800002010B50021024800F0FAFA80F3CD
:10145000100010BDCC0800200E4910B50A784C7859
:101460000023A24212D0521CD2B20A70022A00D12A
:101470000B70084A0B780C3252F8232002608868FF
:10148000104420F07F408860012010BD03600020E0
:1014900010BD0000480000202DE9F04180460246C2
:1014A00001200021FEF76BFF1A4F05460E467868B3
:1014B000FFF77EFB00280CD1174CD4E9062110461B
:1014C0002A4001EA06031A4305D0A843B143C4E900
:1014D0000601BDE8F081404601F07AF930B1D4E967
:1014E000040128433143C4E9040105E0D4E90410B0
:1014F000A943B043C4E90410D4E9060128433143A9
:10150000C4E90601A1687868BDE8F0410022FFF750
:101510000FBB0000CC360000280000202DE9FC5F46
:101520000E008346DDE90C47C6F10000984692465E
:10153000814600D40846012503E000BF90FBFAF085
:101540006D1C5045FADAA84500D9454624B1002E55
:1015500001DB780700D5641EB80702D5B8F1000F8B
:101560000AD0F80708D13CB1A54205D2202158463F
:10157000641EFFF733FEF6E7002E02DA4E462D21F9
:1015800002E0780703D52B215846FFF727FE07F026
:10159000030002280BD1B8F1000F08D13CB1A542DD
:1015A00005D230215846641EFFF718FEF6E7CDE954
:1015B0000047434652463146584601F0F5FFBDE824
:1015C000FC9F000070B50D46044600684FF488711A
:1015D00001F035F84FF49071206801F030F84FF4C5
:1015E0009271206801F02BF84FF4A271206801F08D
:1015F00026F820681149C0F804132068690740F3F1
:101600000730090E002806DA00F00F0000F1E02094
:1016100080F8141D03E000F1E02080F80014206839
:10162000012140F3073000F01F0291404009800083
:1016300000F1E020C0F8001170BD000010030200AE
:10164000024600201268530713D502F00300012858
:1016500002D002280CD105E0C2F383100B68801C75
:10166000184404E00223086803EB92521044086017
:10167000012070470A4810B5807860B1002401E06D
:10168000022C06D02046FFF77DFB641C042CF7D308
:1016900010BD0324F6E7BDE81040FFF793BB000040
:1016A0000400002003480179C90702D00078FFF741
:1016B0006DBC7047040000202DE9F047394E00272B
:1016C00080463D46DFF8E090D6F804A057E003D00E
:1016D0000446D0F81C8035E099F8002002EB420166
:1016E000521CD2B289F8002009EBC10199F80230EE
:1016F000091D9A4201D189F8005048680A780446C9
:10170000012A12D0022A02D0032A3BD108E001F0BC
:1017100037FD00B10127257434E00574C06900E08D
:1017200070680028F9D170602CE0207C50BB88687C
:101730006060C868A0600869E0604869A061F078EE
:1017400000B165606268B168184B501A20F07F40A4
:10175000984202D2A168084406E0881AA16820F0E5
:101760007F40814202D9081A206000E02560656050
:101770000120A56020742046E56101F0E3FCB8F18A
:101780000000A4D199F8001099F801008142A3D17A
:1017900017B97168514502D00120BDE8F0870020DB
:1017A000FBE70000480000200C020020FFFF7F0044
:1017B0002DE9FF410026234800F035F92148001F9C
:1017C000074600F030F9204C60680090A56800E002
:1017D00000986946284004EB80000C30FFF730FF8A
:1017E0000028F5D101AA009901EA050304EB83035F
:1017F000491CDB6842F82030401C00910228F2D3DB
:10180000019800F0030001280BD0022810D10198A4
:10181000032101EB90500099BDF80A6001EB9000A4
:1018200005E00198BDF80A60C0F3831008440090F9
:10183000384600F0F5F808B10098606004B0304612
:10184000BDE8F081C8080020B0040020FFF73CFD8F
:10185000FFF744F908B1FFF721F94FF400410020E8
:1018600000F0B4FD08B1FFF719F900F025FC0021E4
:101870000120FFF741FB08B1FFF710F901F0C2FAB0
:101880001C491B4808601220FFF72AFB05461A482E
:101890001A49401AC108032000EB014418A1204650
:1018A00000F030FD20461EA100F02CFD280001D0E4
:1018B000FFF7F4F800F00EFC0028FBD101F012FB5A
:1018C00005460A20FFF70CFB064620461AA100F049
:1018D00019FD300001D0FFF7E1F820462A461BA190
:1018E00000F014FD00F0F6FB0028FBD1E6E7000055
:1018F0000000002004150040A438000084380000D7
:10190000526164696F2072656365697665722065EE
:1019100078616D706C6520737461727465642E00FB
:101920005761697420666F722066697273742070E3
:1019300061636B65740000005061636B65742077B0
:10194000617320726563656976656400546865201B
:10195000636F6E74656E7473206F662074686520A3
:101960007061636B616765206973202575000000F5
:101970002DE9F047C5881E1DB6FBF5F78946B6FB75
:10198000F5F1044605FB176C407916686843DDF8ED
:1019900020A0F718001F874200D9C61A166001E080
:1019A0002468491E0029FBD1A5EB0C078846B742E5
:1019B00016D818E004EB0C00001D09EB0803BAF17F
:1019C000000F3A4602D00146184600E01946FEF7DD
:1019D000E9FC2468F61B4FF0000CB844B54201D96D
:1019E000374600E02F46002EE4D1BDE8F087000026
:1019F00030B5024651B100F007FD0021074C08E068
:101A000034F821301568AB4202D11160002030BD9E
:101A1000491C8142F4D3052030BD000000000000C5
:101A2000002100F009B8012100F010B808B56A469D
:101A3000FEF723FC009808BD08B56A46FEF703FCD4
:101A400008BD08B56A46FEF7E5FB08BD08B56A465D
:101A5000FEF7ECFB009808BD08B56A46FEF71AFCD5
:101A6000009808BD70B5044600252846FFF7B0F879
:101A700021686268086890420ED9401E08600178AB
:101A8000238AE26801FB0325227A2168101AC0B27A
:101A90000A79824200D208710020FFF79BF828469D
:101AA00070BD70B505460C460020FFF791F8E86858
:101AB000298A201AB0FBF1F12A681068431C1360D0
:101AC0000170BDE870400020FFF784B810B530B158
:101AD000017A42680368891AC9B21A6006E00E20CA
:101AE00010BD03681A68541C1C601170491EC9B2ED
:101AF000F7D2006800210171084610BDC20800F04D
:101B000007030120895C98400840704710B5C2085F
:101B100000F00703885C01249C402043885410BDDA
:101B2000F0B505460478154889B0164640F82420DB
:101B3000124A0869121DA2F1080742F82400487FE2
:101B4000385520226846FEF72DFC04942878385C2E
:101B500048B10EB10A4A00E000226946281D00F093
:101B6000DFFF09B0F0BD0EB1064A00E00022694671
:101B700005F10C0000F0A8FEF3E7000018000020BB
:101B800085340000D13200000FB408B50399002954
:101B900004D004AA00926A4600F00FF801B05DF884
:101BA00014FB10B582680446002A05D0D4E904036A
:101BB000216898470020A06010BD2DE9FC479146A0
:101BC0000C00804676D014F8011B39B125290ED0BF
:101BD0004046FFF703FB20780028F4D198F80C006A
:101BE000002867D04046BDE8FC47FFF7DABF002079
:101BF000012221782B291BD02D2902D0302908D190
:101C000002E040F0010001E040F00200641C002A04
:101C1000EFD100252A290ED02178A1F130020A2A1D
:101C200011D205EB850201EB4205641C303DF1E762
:101C300040F00400EAE7D9F800100B1DC9F80030A5
:101C40000968641C0D44217800232E290BD114F857
:101C5000011FA1F130020A2A05D203EB830201EB36
:101C60004203303BF3E76C290DD068290BD069297A
:101C700021D00BDC252918D0582931D063290ED06A
:101C8000642915D117E014F8011FECE7702969D019
:101C9000732932D075291BD0782909D120E0D9F8D1
:101CA0000000011DC9F8001001784046FFF796FAC0
:101CB000641C90E76CE0D9F800100A1DC9F80020F8
:101CC0000968CDE900500A224046FFF727FCEFE7FC
:101CD000D9F800100A1DC9F8002009680A2206E098
:101CE000D9F800100A1DC9F8002009681022CDE9B2
:101CF0000050404601F058FCDAE7D9F80010002700
:101D00000A1DC9F800200E68C00705D112E0404640
:101D1000761C7F1CFFF762FA31780029F7D104E0C6
:101D2000202140466D1EFFF759FABD42C0D9002D53
:101D3000F6D1BDE74EB13046FEF758FB074604E04A
:101D4000202140466D1EFFF749FABD4206D9002DFD
:101D5000F6D103E04046761CFFF740FA31780029BF
:101D6000F8D1A5E7D9F80000011DC9F800100568F1
:101D700030214046FFF732FA78214046FFF72EFA2D
:101D800008200021CDE90001034610222946B0E7D2
:101D9000BDE8FC8770B541EA4201DDE904564FF029
:101DA000A04441EA830141EA052104EB800041EAB5
:101DB0000641C0F8001770BD70B541EA4201DDE987
:101DC00004564FF0A04441EA830141EA052104EBA7
:101DD000800041EA0641C0F8001770BD70B541EAC5
:101DE0004201DDE904564FF0A04441EA830141EA93
:101DF000052104EB800041EA0641C0F8001770BDE0
:101E000070B541EA4201DDE904564FF0A04441EAD1
:101E1000830141EA052104EB800041EA0641C0F854
:101E2000001770BD1CB5002100910B4601220191E5
:101E3000FFF7D4FF1CBD1CB5002100910B46012209
:101E40000191FFF7DDFF1CBD1CB500220B4600927F
:101E500011460192FFF7C2FF1CBD1CB500220B46C4
:101E6000009211460192FFF7CBFF1CBD1CB500216B
:101E700000910B46012201911146FFF7AFFF1CBDF7
:101E80001CB5002100910B46012201911146FFF77C
:101E9000B7FF1CBD4FF0A04202EB8000D0F8002736
:101EA00022F44032C0F80027D0F8002742EA01416E
:101EB000C0F80017704701224FF0A043824011B1D3
:101EC000C3F808257047C3F80C25704718B5084BB0
:101ED0006C4601441B68009306E000BF54F82030B4
:101EE000D3F81035401C08C28142F7D818BD000055
:101EF000C0360000034908B50844002101600068AD
:101F0000009008BD0060004002494058012800D000
:101F1000002070470060004030B5154A014600209F
:101F2000D2F8104423460AE0DB681D79854205D1CA
:101F3000401C0A28F6DB4FF0FF3030BD1B68002B39
:101F4000F2D1431CF9D0CB681871D2F8103443B1E8
:101F5000DB68CC681B682360D2F81024D26811605B
:101F600030BDC2F81014C96800220A6030BD0000FC
:101F7000B0040020F0B595B01C4615460F46084643
:101F80001A9E00F013FB182109A8FEF724FA0E96FA
:101F9000CDE909540023082203A9384600F01BFBB1
:101FA00005980690BDF81000ADF81C00BDF81200B1
:101FB000ADF81E0000208DF821000398082600F0DF
:101FC0000300012802D0022818D032E003983346DB
:101FD000850AC0F3C2008DF8200003980FA9C0F352
:101FE0008314A200384600F0F6FA09A8009006AB68
:101FF00022460FA9284600F035FA1AE00398840D0E
:10200000C0F3C2008DF82000082C01D2254600E064
:10201000082533462A460FA9384600F0DCFA2E443C
:10202000641B09AB06AA29460FA800F077F9002C1B
:10203000EAD1384600F0C0FA15B0F0BD7047012073
:1020400001F064B9084810B50178084A515C19B12B
:10205000001D00F0F1FD02E00C3000F0FFFCBDE8D7
:102060001040002001F052B964000020140000204C
:1020700008B5034A00924023024AFFF77BFF08BDE0
:10208000D52F0000180300200A4A012902EBC000E6
:1020900007D0022907D0032907D0042907D0002040
:1020A00070470220704704207047007970474079DC
:1020B000704700008438000010B5FFF7C0FF04210E
:1020C0000348FFF729FF02490120C968487110BD84
:1020D000743800002DE9F0478CB0FFF797F818B17D
:1020E00000200CB0BDE8F0877D4C0020C4F8180437
:1020F000BFF34F8F60680290A5684FF0000828403A
:1021000004EB80000CE000BFD4F8180470B921681B
:102110000298814201D86160E2E7284004EB800028
:102120000C3002A9FFF78CFA0028EDD1002003AA99
:10213000029901EA050304EB8303491CDB6842F8BA
:102140002030401C02910228F2D3039800F00300D3
:10215000022802D001284DD0A7E003985022810D1B
:102160008946B2EB905F00D850210E4666F39F502F
:10217000039008315B4800F0D0F9070078D000F0F8
:1021800015FA4346082203A9384600F02CFA0299B2
:1021900008F1080A2940681A8000001D864222D9E9
:1021A0004F4D0C3530B1C2B204EB8101301A90466C
:1021B0000C3104E02946F2B2002590462846C6B20A
:1021C0005346384600F00FFA0AEB080325B13246B1
:1021D0002946384600F007FA029909F1030001EB9D
:1021E000900002903BE004EB8101534632463846B2
:1021F0000C31EFE70398C0F38310062800D30620C4
:10220000039960F38911C1F38310801C039181004D
:10221000344800F082F9070047D000F0C7F9434680
:10222000082203A9384600F0DEF908F10808002664
:102230000FE00298434600EA0501401C04EB8101CF
:102240000290042238460C3100F0CDF908F1040860
:10225000761C0398C0F38310B042EAD847B1D4F893
:102260001054D4F8180478B1384600F0A5F931E0DC
:102270001BE0E8684079012804D12A6828463946DD
:1022800012689047E8680568002DF2D1384600F0E2
:1022900093F90020FEF79CFCD4F8180408B90298C2
:1022A00060600020FEF796FC14E0D4F8104405E0CE
:1022B0002168204689688847E0680468002CF7D1C7
:1022C00009480A49401AC008022101EB004008A150
:1022D00000F018F8FEF79AFF80F0010001E7000017
:1022E000B0040020AC380000A4380000843800009E
:1022F0004261636B656E647320666C7573686564B8
:102300000000000000231A4600F084BE08B5012337
:1023100000926A4600F07EFE08BD00002DE9F047FD
:102320000E4680461C469246082940D894F80C90E8
:10233000002020731946104600F00CFD0025B54220
:1023400006D218F805201BA12046FFF71DFC03E06C
:102350001AA12046FFF718FC6D1C082DEFD318A119
:102360002046FFF711FC0025B54212D218F805707F
:102370007E2F08D8FEF712F80068C05D10F03E0FFF
:1023800001D03A4600E02E220EA12046FFF7FCFBCA
:1023900003E00DA12046FFF7F7FB6D1C082DE3D3EA
:1023A00001222146504600F0B7FC84F80C90BDE8AD
:1023B000F087000020253032780000002020200027
:1023C0007C00000025630000200000000B4810B5D1
:1023D000FF218160002101604160C0F81814C0F83D
:1023E000141480F82014064800F0E4F8002803D103
:1023F000044800F000F9002010BD0000B0040020E7
:10240000AC3800002437000002480349401AC008D5
:1024100070470000AC3800008438000013B56846EF
:10242000FFF7E6FA08B100201CBD0248009950F8F9
:1024300031001CBD8438000070B509480125D0F872
:10244000104480F8205407E0E06845712168204678
:1024500049688847E0680468002CF5D170BD000029
:10246000B00400202DE9FF4781460C9D00200C465A
:102470002F7B2873984616462946184600F06AFCBA
:10248000072E42D2DFE806F004090F161F2A360095
:1024900049462846FFF778FB37E049462846226838
:1024A000FFF772FB31E0D4E9002349462846FFF7E5
:1024B0006BFB2AE0A0680090D4E900234946284637
:1024C000FFF762FB21E0D4E90201CDE90001D4E984
:1024D000002349462846FFF757FB16E004F10800A1
:1024E00007C88DE80700D4E9002349462846FFF7CE
:1024F0004BFB0AE004F108000FC88DE80F00D4E997
:10250000002349462846FFF73FFB00222946404664
:1025100000F002FC2F73BDE8FF872DE9F041058A2A
:1025200080462D1F4819C01CB0FBF5F0C6B24046CE
:10253000FFF798FA041E19D0002020710120607165
:10254000E58000272546761EC4F800800BE0404653
:10255000FFF788FA60B16179491C6171286005460E
:102560007F1CC0F80080B742F1D32046BDE8F0815F
:10257000204600F002F80020F8E72DE9F041457907
:1025800001466B1E002201E00968521C9A42FBD3EF
:102590000F680146002605E038460C68FFF781FA0F
:1025A0002146761CAE42F7D3BDE8F0810121001D23
:1025B000FFF73CBAFFF78ABA10B504460121001DA7
:1025C000FFF74AFA10F0FF0F04D12046BDE8104093
:1025D000FFF7D3BF10BD1CB501920122009201AAE2
:1025E000FFF7C6F91CBD1CB501920022009201AA9A
:1025F000FFF7BEF91CBD82680021916082681161FD
:10260000826851618268D16082685160806801602F
:1026100070474058002800D00120704708B50022BC
:1026200042504058009008BDD0F80403084000D044
:10263000012070474058002800D00120704708B59D
:10264000002242504058009008BD0000002802D0EF
:102650000149800108477047E13600002DE9F0414B
:102660008846054600F040FB234E002828461AD035
:10267000FEF722FE304490F848008009032802D07B
:1026800001280ED007E04FF0A040D0F81005E84038
:1026900010F0010F05D003212846BDE8F041FFF7F7
:1026A000F9BB0221F8E700F02BFB002822D02846D6
:1026B000FEF702FE04464FF4807000EB84000F4FDB
:1026C00081B207EB8400D0F8102542F00102C0F877
:1026D00010250846FFF70EFCB8F1000F0AD0284677
:1026E000FEF7EAFD56F82000002803D00120A040A4
:1026F000C7F80403BDE8F0814001002000600040FD
:102700002DE9FC41DFF8BC80044608EB04000027FB
:1027100090F930001346C0170E46401C01D0082720
:102720004CE0B0781946C0F340022046FEF7A0FD09
:102730000546401C41D0B078410719D4C0070AD0E3
:102740004FF0A04000EB8401D1F8000720F0020018
:10275000C1F8000707E000217378204600910A467F
:102760000191FFF729FB174920465431FFF7CEF9B5
:10277000B078800718D51448317800EB8500D0F880
:102780001025124B1A40C0F810254FF4F8524FF4A0
:10279000403302EA042203EA01410A43D0F810154B
:1027A0000A43C0F8102509E008EB0500327810F85C
:1027B000481F41EA8211017000E004273846BDE855
:1027C000FC8100004001002000600040FFE0FCFFB1
:1027D0004FF0A041D1F81015C14011F0010000D018
:1027E0000120704770B5174D95F8580008B10820C2
:1027F00070BD0020411E2A18401CC0B282F8301063
:102800002028F8D300242046FEF724FD641CE4B2FF
:102810000C2CF8D300240C49C0206C6581F800040E
:1028200001264020891FC1F800014FF4BE70FFF758
:1028300061FB0649F007C1F8040385F8586020469B
:1028400070BD00004001002006E000E00060004094
:10285000034890F85800002800D00120704700007D
:10286000400100200121B1EB507F01D101207047D0
:102870000020704770B50D4600F0B8FA04000FD084
:102880000020FEF7A5F9207920B10020FEF7A2F97B
:10289000112070BD0120256020710020FEF79AF9FB
:1028A000002070BD10B500F0A1FA002802D0002170
:1028B0000160017110BD00000149024800F04EBDE9
:1028C0009C010020002000402DE9F04105460079E0
:1028D00016460F4600EB40012C4A01EBC00102EB0B
:1028E000810494F82A1011B10820BDE8F08128492C
:1028F00051F820102868FFF7BDFF08B11120F4E758
:1029000039462846FEF77AF966603869206030005B
:102910004FF001062DD03F7F4FF48E712868FFF7EE
:102920007DFE4FF4A2712868FFF778FE28681949E8
:10293000C0F8041328684FEA471140F30730002815
:1029400006DA00F00F0000F1E02080F8141D03E02B
:1029500000F1E02080F80014286840F3073000F010
:102960001F0106FA01F14009800000F1E020C0F8E3
:10297000001128680421C0F800150020A061E06162
:1029800084F8290044F8140FA675AEE79C010020D6
:10299000C4360000800002002DE9F04705460079AA
:1029A0000B4600EB400101EBC000234901EB800422
:1029B000284600F043F810B11120BDE8F0874FF031
:1029C0000008C4F82080A360626184F828804FF476
:1029D0008E76474631462868FFF720FE28684FF07C
:1029E0000109C0F808902146286800F053FC60688F
:1029F00000BBD5F800A00EE094F8280008B10F271E
:102A000016E031465046FFF704FE0028F4D0214678
:102A1000504600F03FFC216A60698142F1D33146A3
:102A20002868FFF7F6FD0028F9D02868C0F80C9058
:102A3000C4F814803846C0E79C010020007900EB00
:102A4000400101EBC000044901EB8000406900280F
:102A500000D00120704700009C0100202DE9F047C4
:102A6000044600794FF0000900EB400101EBC00083
:102A7000254901EB80072068C0F80095786880B18F
:102A800020682249C0F808132068012140F307306C
:102A900000F01F0291404009800000F1E020C0F8E2
:102AA00080112068D0F80C25D0F81485D0F808657E
:102AB000D0F810554FF0FF31C0F81415C0F80C15C0
:102AC0002068C0F80815C0F81015501C02D0104638
:102AD000FFF7A8F9B8F1FF3F02D04046FFF7A2F98F
:102AE000681C02D02846FFF79DF9701C02D03046C2
:102AF000FFF798F92068FFF7D5FE87F82A90C7F806
:102B00000490BDE8F08700009C01002084020200D0
:102B10000149024800F0CEBCC8010020002000405E
:102B20002DE9F0410546164600790F46154A00EB9F
:102B3000C00102EB810494F8201011B10820BDE817
:102B4000F081114951F820102868FFF793FE08B171
:102B50001120F4E739462846FEF794F86660386994
:102B600020601EB1397F2846FEF72CFD2868082119
:102B7000C0F800150020A061E0616061012184F8C7
:102B80002010DCE7C8010020C83600002DE9F0471E
:102B900004460E460079204900EBC00001EB800599
:102BA00017463046FFF75EFE30B1204600F036F89B
:102BB00020B11120BDE8F0871020FBE76F61AE6007
:102BC0004FF49076002731462068FFF738FD4FF428
:102BD000AC7841462068FFF732FD2068AA68696931
:102BE000C0F84425C0F84815206801218160686854
:102BF00078B9B14649462068FFF71CFD06464146B4
:102C00002068FFF717FD0643F4D000B10F2700201E
:102C100068613846CEE70000C80100200079054908
:102C200000EBC00001EB80004069002800D00120CB
:102C300070470000C80100202DE9F04704460079E4
:102C4000274900EBC00001EB800720684FF0000926
:102C5000C0F80095786880B120682249C0F8081350
:102C60002068012140F3073000F01F029140400925
:102C7000800000F1E020C0F880112068D0F80C2519
:102C8000D0F81485D0F80865D0F810554FF0FF3112
:102C9000C0F80C15C0F814152068C0F80815C0F865
:102CA0001015501C02D01046FFF7C5F8B8F1FF3FD1
:102CB00002D04046FFF7BFF8681C02D02846FFF755
:102CC000BAF8701C02D03046FFF7B5F82068FFF75D
:102CD000E9FD87F82090C7F80490BDE8F087000070
:102CE000C8010020100302000449084490F9300094
:102CF000082801DB012070470020704740010020B8
:102D00000449084490F93000082801D20120704796
:102D1000002070474001002010B50C46017A0529BB
:102D200008D0407A38B1084808A102682046FEF76A
:102D30002BFF00E01AB106A12046FEF725FF204632
:102D4000BDE81040FEF72DBFAC0000202573000049
:102D50000D0A000038B5C3880D46044633B114A0EF
:102D6000009015A216A12846FEF70EFF217A05292C
:102D70001CD0607A48B1A088FFF786F9164951F84F
:102D8000202016A12846FEF7FFFEA0880021FFF7AD
:102D900045FB03461049207A143951F8202001B030
:102DA0002846BDE830400EA1FEF7EEBE38BD00005B
:102DB0001B5B306D000000001B5B313B33316D004D
:102DC00025734C6F67732064726F70706564202880
:102DD00025642925730D0A00AC000020257300002E
:102DE0003C25733E2025733A2000000003498842A9
:102DF00001D10348704700207047000000200040C8
:102E00002000002070B532480024046030490720BB
:102E1000091F08602E48001D0460C32000F040F91F
:102E20000506C22000F03CF945EA0045C12000F04B
:102E300037F945EA0025C02000F032F9054324485F
:102E400018300560C72000F02BF90506C62000F0F9
:102E500027F945EA0045C42000F022F905431C4843
:102E60001C3005601B48FEF7DFF919491031086076
:102E70001948FEF7D9F91649143108601448203072
:102E800004601349012024310860114808300460AF
:102E90000F4912480C3108600D48022128300160AA
:102EA0000168021D01F0030309493031022B0AD0E9
:102EB000006800F00300012804D1FF20086040F200
:102EC0000710106070BD4FF6FF7008600448F8E707
:102ED0000C15004067452301EFCDAB8901010401CA
:102EE00021100100114910B500200246C1F800016F
:102EF00001234B60D1F80041002CFBD0C1F80C211C
:102F0000C1F80830D1F80C41002CFBD0084C2468E3
:102F1000012C01D107480068C1F81021C1F8103018
:102F2000D1F81021002AFBD010BD00000010004095
:102F3000001400400000002070B5012670044FF01E
:102F4000E0210025C1F88001084C4010C4F8480376
:102F5000C4F8080366602F20FFF778FBA660044CD6
:102F60002F20A560FFF772FBA57070BD0010014017
:102F70004800002070B5054688690C4600284FF4CB
:102F8000847128460AD0FFF749FBD5F81805626A14
:102F9000E1688854606A401C606270BDFFF73EFBC8
:102FA000D5F8180570BD1FB501238DF80030CDE9A7
:102FB0000121D0E90012684690471FBD1FB50123CB
:102FC0008DF80030CDE90121D0E900126846904724
:102FD0001FBD000070B50D4C0020D2B22070201D26
:102FE0000B4D0378EB5C1BB1001DFFF7CFFD02E03A
:102FF0000C30FFF7D1FC08B1FDF750FD60780028D8
:1030000002D021780029FAD070BD000060000020B5
:10301000140000202DE9F84F204D924689460646BF
:103020009846012269461846AF68FEF793F858B3F0
:10303000009800210446801C09E000BF00EA070355
:103040005AF8212005EB8303401C491CDA604145F6
:10305000F4D34FEA164AFEF7F5F94AEA0041601C3C
:10306000384005EB80003C4005EB8402C160D0682D
:1030700066F3C50068F3891069F39F2020F0030010
:10308000401C20F00400D06095F8200402E000BF4E
:10309000FFF720F80028FBD1BDE8F88FB00400202E
:1030A000014610B50020CBB24FEA000123FA01F22D
:1030B00002F00102C1F10704A2401043491C082993
:1030C000F4D310BD2DE9F84F1D4C00256846D4E916
:1030D00001A6FEF7C1F9002738B30023009A616802
:1030E0001CE0D1F800C00846944503D9ACEB0202BD
:1030F0000A6015E0A2EB0C0263440760D0F80CC034
:10310000C1698146BCF1000F08D006EB030828F026
:103110007F48C0E9018CC9F81C5005460029E0D160
:1031200028466160FEF7C8FA03E02846FEF7C4FAB5
:1031300010B15046FEF7E2F8E770BDE8F88F0000E6
:10314000480000200D4B10B5596831B102680C6879
:10315000A24204D8A21A0A60C161586010BD0B4691
:1031600003E00B46C969121B21B10C689442F8D3E5
:10317000A41A0C600260C161D86110BD4800002033
:103180002DE9F041144E77683D462C4603E0844219
:1031900004D02546E469002CF9D11BE0D4B1A54246
:1031A0000BD1F869706040B90C490120886000219A
:1031B000B160F0702F20FFF749FA2168E069E861FB
:1031C00010B10268114401607068874202D001208A
:1031D000BDE8F0810020FBE748000020001001401E
:1031E000F8B5064600240D462046FDF7F1FC68467A
:1031F00000F034FA68B10570084946609DF8000097
:1032000048700020FDF7E6FC1420FDF7E1F92046A8
:10321000F8BD04240020FDF7DDFCF8E70C020020D7
:103220002DE9F041194D6C68002C2CD0184800276E
:103230000068A968B846401A20F07F462068B0426E
:103240000CD82146361A0744E469087C20B181F87D
:103250001080886949698847002CEFD129786878FF
:10326000814206D1401CC0B26870022801D185F8A5
:103270000180064869780C3040F82170BDE8F041C3
:103280001420FDF7A5B9BDE8F0810000480000203A
:103290000415014070B50C4605464FF48E71FFF7DA
:1032A000BDF9216AA068415C206A401C2062C5F813
:1032B0001C1570BD1FB500228DF800200291816899
:1032C00001914261D0E90012684690471FBD00009D
:1032D0001FB50A4601788DF8001041680191017A06
:1032E0008DF80810C0680390044850F82210001FA1
:1032F00050F82220684690471FBD00001C000020A7
:1033000001490120087070476000002010B588B0A6
:10331000044620220E496846FDF744F80620009036
:10332000C01F0190029003904FF0EB7006900CB11B
:10333000084A00E0002269460748FEF7F1FB08B1A1
:10334000FDF7ACFB0448001F447008B010BD00003E
:103350000437000001330000640000202DE9FF471E
:103360000C4605464FF40071FFF75EF901274FF454
:103370000178002618B34FF4927949462846FFF7A2
:1033800048F9E0B149462846FFF748F9C5F80883EF
:1033900094F8290000B96F6002208DF80000D5F87C
:1033A0008004C5F880040390A0690290E068019051
:1033B000A661E661D4E900126846904728E004213E
:1033C0002846FFF731F918B34FF484712846FFF708
:1033D00020F9E8B121462846FFF7CCFD616AA069D3
:1033E000884215D1E06938B1E268616AA06120695C
:1033F000E6616662E06008E094F8290000B96F6059
:10340000C5F80883A661E268616A2046FFF7CBFD34
:103410004FF48E7841462846FFF7FBF878B1206AD2
:103420006169884202D294F8280020B341462846B8
:10343000FFF7F4F8616911B12046FFF73BFF4FF445
:10344000A27841462846FFF7E4F8002818D0414604
:103450002846FFF7E3F894F8290000B12F60A0692F
:1034600000280DD0A661E268616A04B02046BDE87C
:10347000F047FFF798BD21462846FFF70BFFDEE730
:10348000BDE8FF871FB50A4601788DF80010416836
:103490000191017A8DF80810C0680390044850F833
:1034A0002210001F50F82220684690471FBD0000E0
:1034B0001C0000202DE9FF410C464FF49277064690
:1034C0003946FFF7B7F80025B8B139463046FFF75F
:1034D000B6F802208DF80000D6F88004C6F8800403
:1034E0000390D6F83C050290E0680190A561E56183
:1034F000D4E900126846904723E04FF488773946B4
:103500003046FFF797F8E0B139463046FFF797F8B5
:10351000D6F83C15A069884213D1E06960B1E26831
:10352000D6F8000220F02000C6F80002E069A06191
:103530002069E561E06001E0A561E2682046FFF7EF
:103540003DFD4FF4A27739463046FFF773F868B176
:1035500039463046FFF773F8A06938B1A561E561D7
:10356000D6F83C152046E268FFF728FD4FF4907727
:1035700039463046FFF75EF8002812D0394630460B
:10358000FFF75DF8606900280BD0D6F84C058DF880
:1035900000500290A06801906561D4E9001268466D
:1035A0009047BDE8FF8100002DE9F05F8346DDE92B
:1035B0000A4A994690460D460846012703E000BF97
:1035C000B0FBF8F07F1C4045FAD2B94500D94F4610
:1035D0005FEACA7012D18CB15FEA8A7002D5B9F184
:1035E000000F01D0202607E0302605E0314658467E
:1035F000641EFDF7F3FD0CB1A742F7D35FF001069F
:10360000B9F1010F02D9A9F1010903E0B5FBF6F008
:10361000404502D306FB08F6F2E7DFF83C9000BF16
:10362000B5FBF6F000FB165519F800105846FDF7EB
:10363000D5FDB6FBF8F6002EF2D15FEACA7009D0CC
:10364000002C07D0A74205D220215846641EFDF762
:10365000C5FDF5E7BDE8F09FE63600000A494A7867
:103660008B78521CD2B2934200D100220B78934245
:1036700001D1002070470270487800EB400001EB58
:10368000C000001D704700000C020020111213142E
:103690000D0E0F10D4000020F400002020010020A7
:1036A0000D0003000D0E00000E0003000D0E0000C3
:1036B0000F0003000D0E0000100003000D0E0000AF
:1036C00000000050B9280000112B0000030000008A
:1036D000EC010020000000000000000000000000DD
:1036E0000338FDD870473031323334353637383906
:1036F000414243444546000071200000452000003F
:103700003D200000FFFFFFFFFFFFFFFFFFFFFFFF68
:10371000FFFFFFFF00000000000000000000D601D6
:1037200006010000180400207F000000980400201B
:1037300000404040404040404040414141414140C4
:103740004040404040404040404040404040404079
:103750004005020202020202020202020202020208
:10376000022020202020202020202002020202020D
:103770000202909090909090101010101010101065
:103780001010101010101010101010100202020271
:1037900002028888888888880808080808080808B5
:1037A00008080808080808080808080802020202B1
:1037B00040000000313700007761726E696E67006B
:1037C00064656275670000001B5B313B33306D0040
:1037D0001B5B306D000000001B5B313B33316D0023
:1037E0001B5B313B33326D001B5B313B33336D0070
:1037F0001B5B313B33346D001B5B313B33356D005C
:103800001B5B313B33366D001B5B313B33376D0047
:10381000696E666F000000006572726F72000000D2
:103820004750494F5445000050525300554152549F
:10383000000000005541525445000000756172744B
:103840005F6C6F675F6261636B656E6400000000B0
:1038500061707000C038000000000020D40000003B
:103860005809000094390000D4000020042800000A
:1038700068090000F8360000000000003C38000035
:1038800078000020203800000000000028380000E8
:10389000000000002C380000000000003438000058
:1038A00000000000503800000000030388000020E2
:1038B000800000208800002058030020180000002D
:1038C00000000000000000000000000000000000F8
:1038D00000000000000000000000000000000000E8
:1038E00000000000000000000000000000000000D8
:1038F00000000000000000000000000000000000C8
:1039000000000000000000000000000000000000B7
:1039100000000000000000000000000000000000A7
:103920000000000000000000002000400000000037
:10393000002000400000000000000000FF00000028
:103940000000000000000000000000000000000077
:103950000000000000000000000000001838000017
:10396000B837000010380000C0370000D037000022
:10397000C8370000D8370000E0370000E837000003
:10398000F0370000F8370000003800000838000069
:043990000090D003D0
:0400000500000201F4
:00000001FF
