:020000040000FA
:10000000C02F0020F5030000FD03000015020000D2
:1000100001040000030400000504000000000000CB
:1000200000000000000000000000000007040000C5
:1000300009040000000000000B0400000D04000093
:10004000F90800000F040000350B00000F04000049
:100050000F040000050700000F0400000F0400005B
:100060000F0400000F0400000F0400000F04000044
:100070000F0400000F0400000F0400000F04000034
:100080000F0400000F0400000F0400000F04000024
:100090000F0400000F0400000F0400000F04000014
:1000A0000F0400000F0400000F040000E50A000028
:1000B0000F0400000F04000000000000000000001A
:1000C0000F0400000F0400000F0400000F040000E4
:1000D0000F0400000F0400000F0400000F040000D4
:1000E0000F040000000000000000000000000000FD
:1000F000000000000F040000000000000F040000DA
:1001000000000000000000000000000000000000EF
:1001100000000000000000000000000000000000DF
:1001200000000000000000000000000000000000CF
:1001300000000000000000000000000000000000BF
:1001400000000000000000000000000000000000AF
:10015000000000000000000000000000000000009F
:10016000000000000000000000000000000000008F
:10017000000000000000000000000000000000007F
:10018000000000000000000000000000000000006F
:10019000000000000000000000000000000000005F
:1001A000000000000000000000000000000000004F
:1001B000000000000000000000000000000000003F
:1001C000000000000000000000000000000000002F
:1001D000000000000000000000000000000000001F
:1001E000000000000000000000000000000000000F
:1001F00000000000000000000000000000000000FF
:10020000DFF80CD000F054F90048004785200000CA
:10021000C02F0020094B1EF0040F1CBFEFF3098014
:100220001847EFF308800649064A884201D89042F1
:1002300002D88D464FF0000018470000110500005D
:10024000C02F0020C00F002030B450E8012F93B21F
:10025000C48923448489A34228BF1B1B0489A34269
:1002600002BFBFF32F8F002007E0C3EA020340E87C
:100270000134002CE9D14FF001000A6030BC704716
:1002800050E8012FC2EA024240E801210029F7D1DB
:10029000704730B450E8022F1FFAA2F3C488A3427B
:1002A00002BFBFF32F8F00200DE0C489234484894F
:1002B000A34228BF1B1BC2EA034340E80234002CC0
:1002C000E8D14FF001000A6030BC704750E8022FBF
:1002D000C2EA224240E802210029F7D170470346D2
:1002E00053E8022FD988B2EB324F4FF0000017BF0E
:1002F00092B241EA014142EA014104E05A68B2EB9C
:10030000324F08BF012043E80212002AE8D17047AB
:1003100030B4044654E8000F0D4644E80053002B67
:10032000F8D1156030BC704730B4044654E8000F73
:1003300040EA010544E80053002BF7D1156030BCBA
:10034000704730B4044654E8000F00EA010544E861
:100350000053002BF7D1156030BC704730B4044611
:1003600054E8000F80EA010544E80053002BF7D160
:10037000156030BC704730B4044654E8000F00EB01
:10038000010544E80053002BF7D1156030BC7047DD
:1003900030B4044654E8000FA0EB010544E80053D4
:1003A000002BF7D1156030BC704770B404464FF095
:1003B000000054E8006F0D68AE4207BF44E8002318
:1003C000012044E800630E60002B1CBF0020F0E712
:1003D00070BC704730B4044654E8000F88422CBF0C
:1003E000451A054644E80053002BF5D1156030BC92
:1003F000704700000648804706480047FEE7FEE7D2
:10040000FEE7FEE7FEE7FEE7FEE7FEE7FEE7FEE7C4
:100410004909000001020000202A04DB203A21FAE9
:1004200002F00021704721FA02F3D040C2F120020D
:100430009140084319467047004870470C5B000024
:1004400040EA01039B0703D009E008C9121F08C056
:10045000042AFAD203E011F8013B00F8013B521ED6
:10046000F9D27047D2B201E000F8012B491EFBD24D
:1004700070470022F6E710B513460A4604461946AF
:10048000FFF7F0FF204610BD421C10F8011B0029A9
:10049000FBD1801A704730B504460020034600E0C7
:1004A0005B1C934203D2E05CCD5C401BF8D030BDB6
:1004B000064C074D06E0E06840F0010394E80700B1
:1004C00098471034AC42F6D3FFF79EFE4C61000013
:1004D0006C61000030B58C1810F8012B12F00F037E
:1004E00001D110F8013B120906D110F8012B03E0ED
:1004F00010F8015B01F8015B5B1EF9D101E001F826
:10050000013B521EFBD1A142E6D3002030BD0000CA
:100510001CB5814603F026FB03F060F90028FBD1EF
:100520002D485FEA090507682C482D494FF0010660
:10053000A0EB01004FEAD00006EB004417D02046A4
:1005400028A1AA6903F066FAD5E90201CDE9000104
:10055000D5E90023204629A103F06CFAE869009050
:10056000D5E90423204633A103F05BFA03E02046DB
:100570003AA103F04BFA1848001D0068800703D524
:100580002046434903F042FADFF80881002500BF06
:1005900006FA05F0384206D058F825201AB1204650
:1005A0003DA103F037FA6D1C1A2DF1D3380606D59C
:1005B00009480C30026820463AA103F02BFA3804AF
:1005C00006D505481030026820463EA103F022FA05
:1005D000484600F085F8000028ED00E0BC6100000E
:1005E0007C61000048415244204641554C542061F2
:1005F0007420307825303858000000002020523018
:100600003A2020307825303858202052313A2020A6
:10061000307825303858202052323A202030782542
:10062000303858202052333A20203078253038583E
:100630000000000020205231323A20307825303836
:100640005820204C523A202030782530385820202D
:100650005053523A20307825303858005374616333
:100660006B2076696F6C6174696F6E3A2073746188
:10067000636B20706F696E746572206F7574736937
:10068000646520737461636B20617265612E000084
:10069000E85B00008800002043617573653A2025FF
:1006A000732E00004D656D4D616E6167652046617A
:1006B000756C7420416464726573733A20307825D8
:1006C00030385800427573204661756C742041645F
:1006D00064726573733A2030782530385800000012
:1006E000BFF34F8F05480168054A01F4E0611143EB
:1006F0000160BFF34F8F00BFFDE700000CED00E08D
:100700000400FA052DE9FF5F4FF4827500242846A6
:1007100003F008FB38B1022003F014FB18B128469F
:1007200003F008FB02244FF48475284603F0FAFA1C
:1007300058B1042003F006FB38B1284603F0FAFA5A
:100740000CB1032402E0012400E014B1204603F0C0
:10075000E9FC4FF48C7003F0E5FADFF88891624F02
:10076000624E634C4FF000084FF4947A4FF4867B4E
:1007700078B3402003F0E6FA58B34FF48C7003F0DE
:10078000D9FAB068CDE90008D9F8000003905548BF
:10079000143000685546C0F30B001038C0F3CC008D
:1007A0000290504603F0BEFA60B1381503F0CAFA61
:1007B00040B1386800F00D000190284603F0BAFA05
:1007C0000D203860616809B168468847584603F0D3
:1007D000B1FA4FF4887003F0A5FAA0B1102003F02D
:1007E000B1FA80B14FF4887003F0A4FA06F1180052
:1007F0000FC88DE80F003F491820C1F80803616851
:1008000009B1684688474FF4A67003F08BFA364D5D
:10081000083D30B34FF4002003F094FA08B34FF4CE
:10082000A67003F087FA4FF48C7003F083FA5046F9
:1008300003F080FA584603F07DFA4FF4887003F015
:1008400079FA002003F0C6FC0D20386001202860F2
:1008500006F128000FC88DE80F00616809B16846ED
:1008600088474FF48E7A504603F05CFAC0B180207E
:1008700003F068FAA0B12F68504603F05BFA3836EF
:1008800096E80F008DE80F00F80707D001202860D8
:100890008DF80480616809B16846884701202860A6
:1008A0005D46584603F03EFA002819D0082003F0B0
:1008B00049FA002814D0284603F03CFA6168002960
:1008C0000ED008200090D9F80000029005480C30A6
:1008D000006840F2FF1202EAD000019068468847A3
:1008E000BDE8FF9F105500400C540040A458000084
:1008F000F80500200050004070B54FF48076304677
:1009000002F047FA0F4DB40540B1304602F048FA04
:100910000120C4F808032968002088474FF4827634
:10092000304602F036FA00280AD0304602F038FA93
:100930000220C4F808032968BDE870400120084778
:1009400070BD00002400002030B54FF0805200211F
:10095000D2F8300101240D2802D1D2F8343113B17C
:100960000D2809D00BE04FF08040C0F80C11C0F802
:1009700010115248016005E0D2F8343113B10D284E
:1009800057D060E04E4800684E4A10604C48001D49
:100990000068121D10604A4808300068121D10607F
:1009A00047480C300068121D106045481030006840
:1009B000121D1060424814300068121D106040483B
:1009C000183000683F4A203210603D481C300068F3
:1009D000121D10603A4820300068121D106038481F
:1009E00024300068121D1060354828300068121D40
:1009F000106033482C300068121D106030483030D1
:100A00000068304A403210602D4834300068121DB2
:100A100010602B4838300068121D106028483C30A8
:100A20000068121D1060264840300068121D1060DA
:100A300002E0D2F8340130B923480268D20702D06C
:100A40006FF0010202602148026842F47002026005
:100A5000BFF34F8FBFF36F8F4FF01022D2F8000219
:100A6000002803DBD2F80402002822DA184B1C60AD
:100A700018480468002CFCD01224C2F80042056813
:100A8000002DFCD0C2F804420268002AFCD0196094
:100A900001680029FCD0BFF34F8F0C487C380168F7
:100AA0000D4A01F4E06111430160BFF34F8F00BFB5
:100AB000FDE70B490948086030BD000038050040DB
:100AC0000404001020C500400004004088ED00E050
:100AD00004E5014000E401400400FA050090D00361
:100AE0006C0100202DE9F047104E062700244FF43A
:100AF000A0784FF4803900BF08EB840509FA04F0B0
:100B0000715961B1D6F80413014208D02946304624
:100B100003F0E0F90648D0E9002128469047641C1C
:100B2000E4B2BC42E8D3BDE8F087000000B0014069
:100B30000806002001480068004700003C00002033
:100B400000F01F02012191404009800000F1E020E7
:100B5000C0F88012704702E008C8121F08C1002ABE
:100B6000FAD170477047002001E001C1121F002A2E
:100B7000FBD17047800701D00020704701207047EB
:100B8000C3688B4206D811440069491E814201D8CE
:100B90000120704700207047F8B5264CA04239D19B
:100BA00000250446052935D2DFE801F003350E158E
:100BB0001A00D4F82C61002E2CD0002300951A4680
:100BC0000121D4F8300133E0C4E902232046BDE816
:100BD000F84001F023B82046BDE8F84000F061BFBE
:100BE000107800F0F700F22804D0002084F82401E7
:100BF00018B901E00120F9E70023A361107800F0A3
:100C0000E601022903D1C00601D5012000E0002041
:100C100084F82301F8BD204600F01AFFD4F82C61B7
:100C2000002EF7D0002300951A460221D4F8300197
:100C3000B047F8BD6C0D002072B602F093FF00BF04
:100C400002F0CCFD0028FBD111481249401AC4081B
:100C5000012000EB044010A102F0D8FE114800680A
:100C6000C00700D000BE022000EB04400EA102F03D
:100C7000CDFEBFF34F8F0B48E43801680E4A01F4F4
:100C8000E06111430160BFF34F8F00BFFDE700003B
:100C9000CC6100007C610000466174616C2065726B
:100CA000726F7200F0ED00E053797374656D20721D
:100CB00065736574000000000400FA050EB500219C
:100CC0000091CDE901106A4644F20100FFF7B4FF3C
:100CD0000EBD00002DE9F047244C81469246608805
:100CE0000E4681423FD84FF6FF77002000F076F89D
:100CF00022786078A188884201DA401C00E0002058
:100D0000C0B2904203D1002000F06AF829E0657873
:100D10004FF000086078884201DA401C00E00020B3
:100D20006070002000F05CF8BD421AD0A068B9F1F4
:100D3000000F40F835A00DD066B16188E0683246FA
:100D400005FB01004946FFF77BFBA06800EBC500EF
:100D5000868003E000EBC500A0F804800020BDE819
:100D6000F0870420FBE70920F9E700004400002099
:100D700010B50E4C03E0401C00E0002020702078ED
:100D80006178814210D022786188E068A36802FB14
:100D9000010003EBC20153F8322089889047207884
:100DA000A1888842E9DAE6E710BD0000440000208F
:100DB00030B5CB0008339DB293074FF0000401D04B
:100DC000072030BD044B9A602A44DA605C701C70C6
:100DD00058809980002030BD4400002000F002B807
:100DE00000F008B872B602480168491C01607047FB
:100DF0005400002003490868401E086000D162B614
:100E0000704700005400002070B5054608680C4685
:100E1000411C04D002F0DCFB206802F09AFB606801
:100E2000411C02D0002102F082FB2968A069C1F8B0
:100E30002405607D227D29681043C1F86C05D4E942
:100E400000122868C0F81425C0F80C15207D012870
:100E500014D1A068411C02D0002102F068FBE068B8
:100E6000411C04D002F0B4FBE06802F072FBD4E94C
:100E700002122868C0F80825C0F8101570BD70B5BA
:100E8000054608680C46411C04D002F0ABFB206804
:100E900002F069FB6068411C02D0002102F050FBA7
:100EA0002968A069C1F82405607D217D2A6808436E
:100EB000C2F86C05D4E900122868C0F80C15C0F817
:100EC0001425207D012814D1A068411C02D00021E6
:100ED00002F036FBE068411C04D002F083FBE068BE
:100EE00002F041FBD4E902122868C0F80825C0F8D6
:100EF000101570BD084908B5085C0090684602F0FE
:100F00003DFBD0F810050099C84010F0010000D05A
:100F1000012080F0010008BD9E5800002DE9FC4131
:100F20000646C0074FF000050ED0104F00240122E6
:100F3000385D009500231146019502F09BFA641C70
:100F4000042CF4D300F024F8B0070DD5074E00248C
:100F5000361D0022305D032300951146019502F0F5
:100F600089FA641C042CF4D3BDE8FC819A58000073
:100F70000249085C012102F03FBB00009A580000C2
:100F80000249085C002102F037BB00009A580000BB
:100F900010B500242046FFF7EBFF641C042CF9D3A6
:100FA00010BD00002DE9F0470546861C90460F460F
:100FB0004FF001090020FFF711FF1B4C206838603B
:100FC000D4E90001401AA16804F21C47081A0EE097
:100FD0000121384601F065FE01F006F80146384669
:100FE00001F05FFED4E90001401AA168081A401C14
:100FF0008642EDD8B8F1000F03D0052065F38910C3
:1010000002E0062065F39F50A2682168114004EBBE
:101010008101C8602068304420600020FFF7E0FEB6
:101020004846BDE8F0870000EC08002070B50D468A
:1010300004460A2902D10D21FFF7F8FFA0682268B3
:10104000411CA1601554D4E90101814204D320461A
:10105000BDE8704001F041BF70BD0000034803C807
:10106000814201D10120704700207047EC08002028
:1010700070B5084C050009D010342168002907D04C
:1010800008682060496828468847F6E70834F4E78E
:1010900070BD0000E4050020002801D103F0A0B9D4
:1010A00070470000054A012120B1012805D1917047
:1010B000FFF7DEBF51700020FAE77047E40500201B
:1010C0002DE9FF410C4620B14FF4064004B0BDE8C5
:1010D000F0812079002748F2096538B141F61D56A4
:1010E00001281BD0022826D0681DEFE702202071BE
:1010F00002970397E0680190694601A803F008FF92
:1011000050B102988188E18000882081BDF80010EC
:10111000029803F07BFFD9E72846D7E70A4B6A46D7
:101120000021A01D03F0ACFE38B1074918398F61CA
:10113000CF61A842CAD13046C8E7034881880198E8
:1011400003F064FFF5E700007000002010B50021F7
:10115000024801F0C1FD80F3100010BD080D002011
:101160002DE9FC4180461F4615460E4600240D48D9
:1011700001F094FD38B11120BDE8FC8106EB04308C
:1011800002F060FE641CAC42F8D1064801F07DFD1F
:10119000CDE90057334600220221404600F04EF8C8
:1011A0000020E9E7F000002010B503780022072BAB
:1011B00006D2DFE803F005040610202930000A708B
:1011C00010BD01230B7003898B818388CB81C0689C
:1011D00088600A7410BD02220A7002898A8182889E
:1011E000CA81C2688A60807D062802D00020087407
:1011F00010BD0120FBE703220A70C2888A810289A0
:10120000CA81C068886010BD04230B70C0888881C3
:10121000CA818A6010BD0520087010BD70B5064DEA
:101220000646002455F8241009B130468847641C4E
:10123000042CF7D370BD0000800600202DE9F04398
:1012400087B00446DDE90E8980681D4616460F46C4
:1012500000280BD018216846FFF70BF902A88DF87B
:10126000007080E86003A1686846884707B0BDE861
:10127000F083000070B50278224CEAB12249234B7A
:10128000C91AC908032303EB0145012A22D0022A07
:1012900019D0052A16D1406808B1FFF70FFD28467E
:1012A0001BA102F0B3FB61780020E9B16070D4E9C2
:1012B000011000F0BBFF1FE0406808B1FFF7FEFC23
:1012C0000120207070BD406808B1FFF7F7FC284688
:1012D00019A105E0406808B1FFF7F0FC28461BA102
:1012E000BDE8704002F092BBA1780029EAD0A0705E
:1012F000D4E9011001F07EF80028E3D0BDE8704089
:10130000FFF7DCBC040000207C6100007C61000071
:101310004761726261676520436F6C6C6563746FCF
:10132000722061637469766974792066696E697385
:101330006865642E000000004644532075706461A7
:10134000746520737563636573732E004644532080
:10135000777269746520737563636573732E00001B
:101360000D4808B5007888B1684603F00BFD80B1E0
:1013700006210170684603F013FD0848017809B1A1
:101380000121017303F066FD002008BD48F20160F1
:1013900008BD48F2076008BD78000020440700201F
:1013A000F0B587B014216846FFF763F82C4C20781D
:1013B00018B16846FFF732FF50E0201D01F06EFCC7
:1013C000C0BB4FF0102041690004026940694B1C0A
:1013D00001D100FB02F1234800220161A1F5405137
:1013E000C160214901F00EFF002821D120481C23B3
:1013F0008C221E49006801F009FC03F0B5FB051EB4
:1014000014D0022812D000270126062D13D005A8DB
:1014100003F0B8FC90B106700C2D1AD2DFE805F08D
:1014200019111911191819181913151348F20A600E
:1014300007B0F0BD12E026706760BAE748F20760B7
:10144000F6E7077105E0032100E00221017100E0E9
:10145000067105A803F0A4FC03F0FCFC0020E7E7FC
:10146000780000209001002088590000900600209C
:10147000F458000038B5040014D0694603F048FD64
:10148000B0B1BDF8000000EB80010B4800EB81001B
:10149000C16851B1A17A41B1C168491EC160002043
:1014A000A07238BD48F2046038BD48F2056038BD0E
:1014B00048F2096038BD00001C0700201FB501A9D3
:1014C000684603F0DDFC04B010BD0000F8B50D4621
:1014D000040018D0BDB1694603F01AFDB0B1BDF8E3
:1014E00000000C4900EB800001EB800001210C3072
:1014F000666801F0D6FB2E6060680C3068600120E1
:10150000A0720020F8BD48F20460F8BD48F20960FE
:10151000F8BD00001C07002018B10323002204F0CE
:1015200083B848F2046070470223002204F07CB8BC
:10153000094910B50A69042A0AD0084A096942F81B
:10154000210005480121103001F0ABFB002010BD47
:1015500048F20B6010BD00005800002080060020FB
:10156000406803F025BC000070B510B14FF4064090
:1015700070BD1C4C0025207B08B1257301E000F0F4
:10158000A5F8207808282AD2DFE800F02904080C02
:1015900010291422BDE8704000F026B8BDE8704064
:1015A00000F082B8BDE8704000F064B8BDE870405B
:1015B00000F040B80620207060880A4900EB8000E7
:1015C000283901EB80004068BDE8704003F0ACBAF8
:1015D000072020706560BDE8704003F0B3BA48F2A0
:1015E0000E6070BD440700201149F0B48A1C002031
:1015F0000346A1F128050C18A67A4EB1A37200EBA0
:10160000800405EB8404E66816B9247C012C0AD01A
:10161000401C80B20228EED30B704B804B60F0BCB4
:1016200041F61D5070471080F0BC00F03DB800003E
:10163000440700200C48418801EB8102A0F12801F9
:1016400001EB8201CA6852B10521017007480221ED
:101650008180016800230122054801F037BD042282
:1016600002704968F6E7000044070020800000206F
:101670009001002038B50A49084803240B684268E5
:10168000898803EB810153880470DB1C00201B0454
:1016900000909B0B034801F0FFFD38BD440700207C
:1016A0008000002090010020074910B54888091DDE
:1016B00003F07EFC18B1BDE81040FFF7DBBFBDE8CA
:1016C0001040FFF7B7BF000044070020F0B51F48E7
:1016D0001F490125067802248B88A0F12802082ED4
:1016E00019D2DFE806F00418181B222F2F170189E2
:1016F000491C01810021418080F80C1001EB81031D
:1017000012F8233043B100234418491C89B2A37254
:101710000229F3D30570F0BD0123F5E74268528832
:10172000D21C1A448A800470F0BD46880D6806EB0E
:10173000860602EB860256680E60556013818C8027
:10174000062100E007210170F0BD000044070020E1
:1017500080000020428800EB82020C328A4201D9CC
:10176000022070478188A1F57F42FF3A06D00188A8
:1017700021B18068401C01D00020704701207047D3
:10178000884204D20068401C01D00120704700202C
:101790007047000001494160002070477C590000FB
:1017A0002DE9F0412D4F002520B17D604FF406401A
:1017B000BDE8F0810879012258B1294E01280CD0EA
:1017C000264C4FF002080834022820D0032841D1CB
:1017D00027E00A7103F0B6F93AE0002000EB80013F
:1017E00016F82110022908D0401C80B20228F5D337
:1017F0003A707D6041F61D50DAE700EB800006F894
:10180000205006EB8000406803F08EF920E00D7157
:10181000A4F80480002301221248216801F056FC3C
:1018200016E00D71206803F07FF90D492368283117
:10183000498801EB810206EB8201D1F804C0C4F8AB
:1018400000C04B60A3880B81A4F8048006F82250E6
:101850000028ADD07D6048F20D60A9E77800002037
:101860001C070020900100202DE9FC5F0E0083463C
:10187000DDE90C47C6F1000098469246814600D447
:101880000846012503E000BF90FBFAF06D1C5045AF
:10189000FADAA84500D9454624B1002E01DB7807C5
:1018A00000D5641EB80702D5B8F1000F0AD0F807BA
:1018B00008D13CB1A54205D220215846641EFFF74D
:1018C000B5FBF6E7002E02DA4E462D2102E078073E
:1018D00003D52B215846FFF7A9FB07F00300022888
:1018E0000BD1B8F1000F08D13CB1A54205D230218F
:1018F0005846641EFFF79AFBF6E7CDE900474346DA
:1019000052463146584603F011FEBDE8FC9F0000E8
:1019100070B50D46044600684FF4887102F0F6FA7F
:101920004FF49071206802F0F1FA4FF49271206840
:1019300002F0ECFA4FF4A271206802F0E7FA4FF4DB
:10194000AC71206802F0E2FA20681149C0F8041373
:101950002068690740F30730090E002806DA00F016
:101960000F0000F1E02080F8141D03E000F1E020FA
:1019700080F800142068012140F3073000F01F02B6
:1019800091404009800000F1E020C0F8001170BDD6
:1019900010034200024600201268530713D502F0DC
:1019A0000300012802D002280CD105E0C2F3831005
:1019B0000B68801C184404E00223086803EB925271
:1019C000104408600120704702480068002800D0D9
:1019D00001207047F0000020800701D000207047F0
:1019E0000120704738B5194C049DA0422DD104F157
:1019F000280080E82C0020460022D0E9015001296F
:101A00000DD0022917D0052905D006291DD1BDE822
:101A1000384000F083BEBDE8384000F0C1BE0B493D
:101A2000002DCA630A644A648A640ED000230092BF
:101A30001A46012108E04FF0FF316162002D04D009
:101A4000002300921A460221A84738BD100D00203D
:101A500001210177002180F8241180F8251180F8F8
:101A6000231180F8281180F8291101714171C0F803
:101A70004011C0F83411C0F83811704782681178ED
:101A80000B07017906D5527802F00F028A4202D183
:101A9000012102E009B10020704780F829110120DE
:101AA0007047F8B504468069002813D194F82601E0
:101AB00000280FD000250095D4E94C03D4F82C6100
:101AC000D4F84021052104F59274B047E56104F88B
:101AD000025CA570F8BD10B5044690F8240118B159
:101AE000002084F8240110BD2046FFF7C7FF00281E
:101AF000F9D0204600F0DEF92046BDE81040FFF79F
:101B0000A7BFF8B50446012590F82401002610B1BE
:101B100084F82461F8BD2046FFF7B0FF0028F9D013
:101B2000A06801780A0700D5022594F8232112B194
:101B300084F82361F8BD490704D5415D627991427B
:101B400000D16D1C217F81F0010121770278D3073C
:101B5000B3EBC17FEED1D1064FF001070CD5009752
:101B6000E1684B1B4219D4E94B500621A847204697
:101B7000BDE8F84000F00CB9204600F0ABF984F85D
:101B800022710096E068431BA0684219D4F8300126
:101B9000D4F82C410621A047F8BD70B504460125B4
:101BA000FFF76CFF002838D0A0680078010700D547
:101BB0000225E168A94230D1C6064FF0010204F2C5
:101BC0001F1304F11D051AD400F00101207F81428A
:101BD0001FD080F0010020772046BDE8704000F063
:101BE000ECB884F824210022184604E06169002939
:101BF00013D000222846BDE8704000F057BF217F77
:101C000000F00100884204D02046BDE8704000F09A
:101C1000BFB8A1690029E9D0E3E770BD70B5C1681C
:101C200000292FD0816800292CD0097801F0F0021A
:101C3000902A27D0D02A25D08A0748D590F8282185
:101C40008AB34A0635D501F0F701C2291BD0F22923
:101C500018D1044690F824010125002812D020460E
:101C6000FFF70CFF00280DD0A0680178090700D508
:101C700002256119405D91F81F110025884206D0A8
:101C800084F8245170BDBDE87040FFF724BF94F87C
:101C9000250148B1002204F11D00616900F006FF32
:101CA00084F82551ECE712E02046BDE8704000F0D2
:101CB00011B901F0E601022905D0A229E2D1BDE85F
:101CC0007040FFF76ABFBDE87040FFF71ABF1D29DB
:101CD000D8D05029D6D0E029D4D190F828110029A5
:101CE000D0D10121017780F8281181680D4A497807
:101CF000090952F82110891E01618168497811F0A3
:101D00000F01017100D0012180F8291101790F29FB
:101D100003D0BDE8704000F01BB8BDE87040FFF78D
:101D200097BE0000385A0000024610B50920074B44
:101D3000002100BF53F82140944201D1084610BD54
:101D4000491CC9B20929F5D310BD0000385A00005A
:101D500010B504460068FFF7E7FF092816D040F0E9
:101D60007000A0778021E177E179A279022041EA31
:101D7000021184F8201084F821000521617704F114
:101D80001D00BDE81040002200F090BE032010BDF1
:101D9000027F002102F0010242F0A202427790F895
:101DA00029312BB142F00801417702790121827774
:101DB00000221D30491C00F079BE2DE9F041044697
:101DC000007F002700F00101891C617794F8292128
:101DD000D4F838013E4632B128B941F008016177A4
:101DE00021790127A177D4F834117F1C0D1A2169BC
:101DF000C91B8D4204D9627F0D4642F01002627702
:101E00003DB1D4F840112A460144E0191D30FEF7D7
:101E100017FB627F7919D00629D4D4F83C0108B3A6
:101E200023698B4232D9D4F84421C0F10200105CFE
:101E3000621801F101015077D4F83C01401EC4F84A
:101E40003C0114D022698A420DD9D4F84421C0F152
:101E50000200105C62185077D4F83C01401E491C07
:101E6000C4F83C0103E0607F40F0100060776161DE
:101E7000D4F8380101222844C4F83801D4F83431A8
:101E8000984208D3D4F83C0118B104E042F01000A5
:101E9000ECE784F8262194F8240120B184F8252168
:101EA0003046BDE8F081002204F11D0000F0FEFD87
:101EB0000646F5E70021C222427790F8292122B197
:101EC000CA21417702790121827700221D30491C05
:101ED00000F0ECBD82790021C2F1070301229A4093
:101EE000F22380F81F3190F82931D2B233B1FA21B0
:101EF00080F81F110379012180F82031491C3B2A09
:101F000000D93B22431800F21F1083F81F21012241
:101F1000491C00F0CBBD00002DE9F843164C042607
:101F200080468DF8006094F8270115460F4608BBDF
:101F300005B34FF4A4712046FEF79BFAB001206070
:101F40000220E071A6712C60C4E94B780122694639
:101F5000104600F051FD002808D12146074800F046
:101F6000B1FD28B15FF0000184F82711BDE8F883C6
:101F70000121F9E70720F9E76C0D0020990B00001B
:101F800030B4124CA04204D119B14FF6F074A24201
:101F900002D9072030BC7047D0F8404154B990F8BE
:101FA00022413CB100243BB10225C0F83C51C0F8AD
:101FB000443103E00820EDE7C0F83C41C0F840118F
:101FC000C0E94D2430BCFFF7F8BE00006C0D0020C6
:101FD0000268134602E08A4204D01268002AFAD14D
:101FE0000B600160704700002DE9FF410026234887
:101FF00000F051FE2148001F074600F04CFE204C27
:1020000060680090A56800E000986946284004EBED
:1020100080000C30FFF7BEFC0028F5D101AA009922
:1020200001EA050304EB8303491CDB6842F8203016
:10203000401C00910228F2D3019800F0030001280F
:102040000BD0022810D10198032101EB9050009988
:10205000BDF80A6001EB900005E00198BDF80A6048
:10206000C0F3831008440090384600F011FE08B118
:102070000098606004B03046BDE8F081040D002097
:10208000EC08002008B50021084601F035FD08B134
:10209000FEF714FE01F094FB0320FEF73FFF294AF0
:1020A00004210020FEF784FE08B1FEF707FE00F0D1
:1020B0008DF908B1FEF702FE22484FF480642146F4
:1020C000283000F007F908B1FEF7F8FD0020FEF710
:1020D00011FF80B11B4869462830009400F0EEF8EB
:1020E00008B1FEF7EBFD17482146283000F082F9D1
:1020F00008B1FEF7E3FD0021134800F029FD08B107
:10210000FEF7DCFD0F482146283000F003FD08B142
:10211000FEF7D4FD0D480E49401AC008032101EB1B
:1021200000400CA101F072FC00F05AFC08B1FEF76F
:10213000C5FDFEF71DFE00BF01F050FB0028FBD1DE
:1021400020BFF6E7A4010020E1270000CC610000D9
:102150007C6100005772697461626C65204E444571
:1021600046206D657373616765206578616D706C7D
:102170006520737461727465642E00002DE9F04768
:10218000C5881E1DB6FBF5F78946B6FBF5F104467A
:1021900005FB176C407916686843DDF820A0F71836
:1021A000001F874200D9C61A166001E02468491E44
:1021B0000029FBD1A5EB0C078846B74216D818E0DA
:1021C00004EB0C00001D09EB0803BAF1000F3A46BE
:1021D00002D00146184600E01946FEF731F924689E
:1021E000F61B4FF0000CB844B54201D9374600E069
:1021F0002F46002EE4D1BDE8F087000030B502463E
:1022000051B101F097FC0021074C08E034F821306F
:102210001568AB4202D11160002030BD491C8142DB
:10222000F4D3052030BD00000000000070B50C465E
:10223000054600F0BDF80E49A1F10C00FFF774F956
:10224000A0F50641063912D10A4801214170C0E9C2
:10225000014509480949401AC008032101EB004023
:1022600007A101F0D3FBBDE87040FFF779B870BD5E
:10227000D8050020040000207C6100007C61000083
:1022800046445320686173206E6F20667265652036
:102290007370616365206C6566742C20476172629F
:1022A00061676520436F6C6C6563746F7220747234
:1022B00069676765726564210000000008B5034620
:1022C00000910E220249012000F05EFC08BD0000D2
:1022D0008C58000013B586B004460020039042F2EB
:1022E0002221049003AB1B4A4810FFF7E7F81A4974
:1022F0001A4A891AC908032202EB0143A0B1A0F5CA
:10230000064109390ED1024615A1184601F082FB9B
:1023100007A92046FFF7D2FF002803D120460799DE
:10232000FFF784FF08B010BD18461BA101F06EFB3B
:1023300069460848FFF7CAF80028F3D100980199C8
:10234000408882002046FEF77BF80248FFF792F8AB
:10235000E8E70000CC0500207C6100007C61000003
:102360004E4445462066696C65207265636F7264F1
:10237000206E6F7420666F756E642C2064656661D4
:10238000756C74204E4445462066696C6520637206
:1023900065617465642E0000466F756E64204E445E
:1023A00045462066696C65207265636F72642E0015
:1023B000054A41F21113C91C13805B005380506021
:1023C0008808906070470000D805002010B50748C5
:1023D000FFF7AEF8002807D1FEF7E2FF002803D18F
:1023E00003490A78002AFCD010BD000075120000D5
:1023F0000400002070B50C460546FFF7D9FF0E49D2
:10240000A1F10C00FFF788F8A0F50641063912D1BA
:102410000A4801218170C0E9014509480949401A6B
:10242000C008032101EB004007A101F0EFFABDE86D
:102430007040FEF795BF70BDD80500200400002055
:102440007C6100007C610000464453206861732079
:102450006E6F207370616365206C6566742C204715
:1024600061726261676520436F6C6C6563746F7243
:102470002074726967676572656421000848018C81
:10248000C268090AD172C26890F82010117390F8DE
:10249000391009B1002100E0FF21C0688173704745
:1024A000100D002010B50F2209490A48FDF7C8FF9A
:1024B0000849A1F14C00C16041610F21C1610021B7
:1024C00001614A1E8161C0E9081280F8391010BD0F
:1024D000275A00005C0D002070B50D4D0D4A0021FB
:1024E0002C7800BF01EB4103D65CA6420AD113440D
:1024F0005B78834206D101EB41001044807828705C
:10250000002070BD491C0529ECD3082070BD0000D7
:10251000100D002070010020F8B51B4C04F13C05A3
:102520002069A9680844D4E90A12FDF789FFA86860
:10253000E16A0844A860216B012923D069682A68F0
:10254000124E401A002590420DD1361F01290AD89B
:102550002069002241780078009501EB0023D4E93E
:1025600001700421B847084833460849C56305642B
:1025700045648564606B01B00022BDE8F040491FEE
:10258000FFF7FEBCF8BD0000100D00200A5A000045
:102590002DE9F0411848174B0022C46A591F052C39
:1025A00022D3856A476AEC78AE782D7904EB06244D
:1025B00000EB870604EB050CD6F81CE0F44513D8B5
:1025C0004B1C71692A462144012F0DD185696E7813
:1025D0002D7806EB0525AC4203D2AC4501D301248E
:1025E00000E0002480F83840406BBDE8F041FFF780
:1025F000C7BC00000A5A0000100D002070B51D4C29
:102600001B4D0026E06A0D2808D10D2205F11201AC
:10261000A06AFDF740FF08B9AD1E6662606A401C03
:102620001DD0E06A07281AD111490722091DA06AA6
:10263000FDF731FF10B90E4D6662AD1E606A401C99
:102640000DD0E06A07280AD1094907220B31A06A98
:10265000FDF721FF18B90120054D6062AD1E2B4624
:10266000606BBDE8704002490022C91EFFF788BCBC
:10267000085A0000100D0020F8B5274D254FEA6AD2
:10268000052A2CD3686A012829D195F8390010B39E
:10269000A96AC8788B780E7900EB03242B6AA019FD
:1026A00098421CD82846531F0069B34214D12044D5
:1026B000491D521FFDF7C4FE3F1F012C0FD828698A
:1026C0004178007801EB0023002002460090D5E914
:1026D00001400421A04702E02B6B012B09D0686B5D
:1026E00001B03B46BDE8F0400A490022491FFFF710
:1026F00047BC2044491D521FFDF7A2FE0648012198
:102700003C3001734460E96A641F214406608160C3
:10271000F8BD00000A5A0000100D002038B51E490F
:102720000878022814D10846D0E90A230C690CB9AC
:10273000886938B118483C30007B50B1BDE838405A
:10274000FFF7EABE086B0090D1E901400621A047DF
:1027500038BD022B08D3107830B95078A4280FD098
:10276000B02811D0D62813D00B48406B03B10B4BC7
:1027700001B00A49BDE830400022C91EFFF700BC85
:10278000BDE83840FFF73ABFBDE83840FFF700BF6B
:10279000BDE83840FFF770BF100D0020085A000058
:1027A000F8B50E4C94F8380048B100250095D4E9EE
:1027B00001602B462A460321B04784F8385020692F
:1027C00000280AD1A069002807D1206B0090D4E925
:1027D0000A23A06864680521A047F8BD100D0020F9
:1027E00010B51C46012917D0022917D0032919D08A
:1027F00004291CD1002C1AD00120FEF7C1FB0C4883
:1028000000210C4A04700846FEF764FA00280ED036
:10281000BDE81040FEF752BA002004E0BDE81040C9
:10282000FEF7B6BB0320BDE81040FEF7A9BB10BD04
:1028300000000020AD5000002DE9F84F17465FEA78
:1028400000080D460DD067B1D8F800005FEA000916
:1028500007D08A464DB13868022804D20420BDE86A
:10286000F88F0E20FBE70AF10205022400261EE085
:1028700026B1711C884207D1402106E0012801D011
:10288000802102E0C02100E0002138686B46001B77
:1028900000902A46D9F8000000F02AF80028DED17E
:1028A0000098044405B1054409F10409761CD8F8E0
:1028B0000800B042DCD855B1A01EB0F5803F01D36E
:1028C0000620CCE7020A8AF800208AF801000020DE
:1028D0003C60C4E7D0E901329A4201D3042070473A
:1028E000036843F822108168491C8160002070470A
:1028F0002DE9F843144698460A4605004FF00007B4
:102900004AD06878297A4618B61D00B1761C8CB377
:1029100032F0C00002D00720BDE8F883D8F80000EC
:10292000B04201D20420F7E722702B78601C1A43D2
:1029300022702A7A00F8012B21460746041D687888
:1029400028B104F8010B087840F0080008702A7AD2
:102950002046E968FDF774FD287A6A7804442AB1B4
:1029600020466968FDF76CFD68780444D8F80000DB
:10297000801B00902B697BB16A46214668699847A5
:102980000028C9D114B1009800BA386000983118F5
:102990000020C8F80010BFE70E20BDE7006802283D
:1029A00003D0042804D100F003BA024800F016BA9C
:1029B0007047000064010020084810B506494160D6
:1029C0000021016000F02EFA852803D0002800D0F5
:1029D000032010BD002010BD9910000064010020EC
:1029E00010B50220FFF778FD08B1082010BD00F0F7
:1029F0008FF8002010BD00003EB52A4C012804D0FD
:102A0000022813D0032823D020E00D784FF4805003
:102A1000A840012A2CD1002101908DF800106846B1
:102A200001F08CFC002812D165700FE0012A1FD143
:102A300001208DF8000008788DF80400684601F048
:102A40007DFC002803D19DF80400E07000203EBD0D
:102A5000012A06D0042A15D0072A13D00A2A11D039
:102A600006E00878042805D0072803D00A2801D0FA
:102A700009203EBD20710A210B4801F02FFC0028DF
:102A8000F7D103E022710848FDF7DAFC02208DF847
:102A900000000548019020798DF80800684601F093
:102AA0004DFC3EBD80010020B40F00201CB5CDE9D7
:102AB00000100AB1022100E00321684601F0A0FCE9
:102AC0001CBD00001CB5104BD3E90223CDE9002347
:102AD0000E4AC2E902010D490122C91C0220FFF77A
:102AE0008BFF00280ED109490122491C1046FFF72F
:102AF00083FF002806D1FFF75FFF002802D1684658
:102B000001F076FB1CBD0000785A00008001002017
:102B100001F080BA70B505464FF6F0700C46814260
:102B200007D804B12DB10120FFF7D6FC18B1082059
:102B300070BD0C2070BD05480121056185610462EE
:102B400080F83910FFF79AFC002070BD100D0020AE
:102B500070B50D46040005D00020FFF7BDFC18B18C
:102B6000082070BD072070BDFFF79CFC0448054994
:102B700000F13402C0E90145BDE87040FFF7CCB96F
:102B8000100D0020E519000070B51D46134B0C46D2
:102B90008EB0D3E90113129ECDE907130DA906915A
:102BA0000E498DF824008DF82C200A9418220C313F
:102BB0006846FDF745FC09A80590694606A8FFF799
:102BC00089FE002805D134B13246294606A8FFF710
:102BD00033FE0EB070BD0E20FBE70000E059000090
:102BE00070B51546044661B1207A2A68904201D337
:102BF000042070BD20780870481C227A6168FDF7B7
:102C00001FFC207A401C2860002070BD10B531B137
:102C1000B2FBF3F403FB14241CB1092010BD0E20F9
:102C200010BD01600021416081608281C38108463E
:102C300010BD70B50C460546FDF706FB002802D016
:102C400021882868084470BD10B50A8849888A42DE
:102C500003D1FDF73BFB012010BD002010BD70B576
:102C60000C460546FDF715FB002802D06188286850
:102C7000084470BD10B50A8849888A4203D1FDF71F
:102C8000FFFA012010BD002010BD002100F00FB898
:102C9000002100F017B8012100F023B8012100F055
:102CA00016B808B56A46FDF766FB009808BD08B57A
:102CB0006A46FDF746FB009808BD08B56A46FDF771
:102CC0005AFB08BD08B56A46FDF73BFB08BD08B5D1
:102CD0006A46FDF729FB08BD08B56A46FDF718FBF3
:102CE00008BD08B56A46FDF71FFB009808BD08B58A
:102CF0006A46FDF74DFB009808BD70B504460025F7
:102D00002846FEF76BF821686268086890420ED981
:102D1000401E08600178238AE26801FB0325227ABD
:102D20002168101AC0B20A79824200D208710020CC
:102D3000FEF756F8284670BD70B505460C460020D3
:102D4000FEF74CF8E868298A201AB0FBF1F12A68EE
:102D50001068431C13600170BDE870400020FEF74E
:102D60003FB810B530B1017A42680368891AC9B218
:102D70001A6006E00E2010BD03681A68541C1C601F
:102D80001170491EC9B2F7D20068002101710846CE
:102D900010BD00F180400068002800D0012070477D
:102DA00008B500F18040002101600068009008BD76
:102DB00010B50020FEF712F8074C6068401E6060F6
:102DC000606818B901F0CAF800206070BDE81040D2
:102DD0000020FEF705B80000E405002070B5104D96
:102DE0000446687838B114B1616800208847002033
:102DF000FDF7F4FF0CE00020FDF7F0FF24B10848D8
:102E000021460830FFF7E4F8686808B901F09AF83D
:102E10006868401C6860BDE870400020FDF7E0BFB6
:102E2000E405002070B50A4C207808B185250CE037
:102E30000020A06060602061E060064801F09EF81C
:102E4000054601F069F801202070284670BD000099
:102E5000E4050020A5100000F0B5054604781548EB
:102E600089B0164640F82420124A08690832A2F1B7
:102E70000C0742F82400487F385520226846FDF7A9
:102E8000DFFA04942878385C48B10EB10A4A00E0B1
:102E900000226946281D01F0E7FC09B0F0BD0EB123
:102EA000064A00E00022694605F10C0001F0AEFB85
:102EB000F3E7000014000020D95300002152000065
:102EC0000FB408B50399002904D004AA00926A46F9
:102ED00000F00FF801B05DF814FB10B582680446ED
:102EE000002A05D0D4E90403216898470020A06097
:102EF00010BD2DE9FC4791460C00804676D014F8B1
:102F0000011B39B125290ED04046FEF78FF82078F5
:102F10000028F4D198F80C00002867D04046BDE89E
:102F2000FC47FFF7DABF0020012221782B291BD0B4
:102F30002D2902D0302908D102E040F0010001E043
:102F400040F00200641C002AEFD100252A290ED08F
:102F50002178A1F130020A2A11D205EB850201EB9A
:102F60004205641C303DF1E740F00400EAE7D9F87F
:102F700000100B1DC9F800300968641C0D4421784D
:102F800000232E290BD114F8011FA1F130020A2AC7
:102F900005D203EB830201EB4203303BF3E76C29DC
:102FA0000DD068290BD0692921D00BDC252918D038
:102FB000582931D063290ED0642915D117E014F8AF
:102FC000011FECE7702969D0732932D075291BD015
:102FD000782909D120E0D9F80000011DC9F80010B6
:102FE00001784046FEF722F8641C90E76CE0D9F8BF
:102FF00000100A1DC9F800200968CDE900500A2216
:103000004046FEF731FCEFE7D9F800100A1DC9F879
:10301000002009680A2206E0D9F800100A1DC9F844
:10302000002009681022CDE90050404602F07EFAE7
:10303000DAE7D9F8001000270A1DC9F800200E6849
:10304000C00705D112E04046761C7F1CFDF7EEFF5D
:1030500031780029F7D104E0202140466D1EFDF7AC
:10306000E5FFBD42C0D9002DF6D1BDE74EB13046D7
:10307000FDF70AFA074604E0202140466D1EFDF7E1
:10308000D5FFBD4206D9002DF6D103E04046761C9F
:10309000FDF7CCFF31780029F8D1A5E7D9F8000079
:1030A000011DC9F80010056830214046FDF7BEFF3C
:1030B00078214046FDF7BAFF08200021CDE9000144
:1030C000034610222946B0E7BDE8FC872DE9F84306
:1030D000884605002C482D499946A0EB01004FEA8F
:1030E000D0004FF00101164601EB004424D02868BF
:1030F00000282CD0002E34D0696840464FF01007CD
:103100000A68511E11EA080F11D101467243284680
:10311000FDF736FD00282ED028684B46324604695C
:1031200001B041462846A446BDE8F043604720462A
:10313000174B18A2009722E00E2000902046144B57
:103140001EA220A100F06DFC0E20BDE8F88308202F
:10315000009020460E4B26A21AA100F062FC082027
:10316000F3E7092000902046094B24A215A100F0A6
:1031700058FC0920E9E7064B214A2046009711A197
:1031800000F04FFC1020E0E7C46100007C6100000B
:1031900067590000616464725F69735F706167659D
:1031A0005F616C69676E656428705F66732C207060
:1031B0006167655F6164647229000000705F667317
:1031C00000000000257320636865636B20666169F9
:1031D0006C656420696E20257328292077697468DE
:1031E0002076616C756520307825782E000000000F
:1031F000705F66732D3E705F617069006C656E0074
:103200002860000038B503001148124D4FF00E043D
:10321000A0EB05004FEAD0004FF0010505EB0040A0
:1032200009D061B119600C6801B0A446BDE8304016
:10323000114618466047084B08A2009402E0064B6E
:1032400008A2009409A100F0ECFB0E2038BD00009C
:10325000C46100007C6100001C590000705F66734F
:1032600000000000705F617069000000257320633A
:103270006865636B206661696C656420696E2025F2
:1032800073282920776974682076616C7565203011
:103290007825782E000000002DE9F84F90468A46E8
:1032A0003A493B4A0500A1EB02014FEAD1014FF038
:1032B0000102DDF828901E464FF00E0002EB01449B
:1032C0001AD0B8F1000F1CD02868002822D009209D
:1032D000002E29D069684968B6FBF1F201FB126142
:1032E000002926D000902B4B20462BA235A100F0C0
:1032F00098FB0920BDE8F88F00902046254B3CA2A2
:1033000003E00090234B20463BA22EA100F089FB56
:103310000E20EFE70820009020461E4B38A229A17E
:1033200000F07FFB0820E5E700902046194B37A20C
:10333000DCE75046FDF71EFC102798B14046FDF72C
:1033400019FCA0B1324651462846FDF719FC98B148
:10335000CDF80090286833464246C4685146284656
:10336000A047C7E720460B4B29A2009708E020465C
:10337000084B2DA2009703E0064B204633A200978E
:1033800010A100F04EFB1020B4E70000C461000063
:103390007C6100005459000021286C656E202520B6
:1033A000705F66732D3E705F666C6173685F696EF7
:1033B000666F2D3E70726F6772616D5F756E6974B6
:1033C00029000000257320636865636B20666169CE
:1033D0006C656420696E20257328292077697468DC
:1033E0002076616C756520307825782E000000000D
:1033F000705F667300000000705F7372630000000E
:10340000705F66732D3E705F617069006C656E0061
:10341000616464725F69735F616C69676E65643370
:103420003228646573742900616464725F69735F34
:10343000616C69676E65643332282875696E743310
:10344000325F7429705F7372632900006164647273
:103450005F69735F77697468696E5F626F756E64C8
:103460007328705F66732C20646573742C206C6500
:103470006E2900002DE9FF411C46DDE90A7815465A
:103480000E46684600F07AF846EA450141EA8401B2
:1034900041EA072242EA0841009A00EB8200C0F8A4
:1034A0000017BDE8FF812DE9FF411C46DDE90A78E0
:1034B00015460E46684600F06FF846EA450141EAB7
:1034C000840141EA072242EA0841009A00EB8200A7
:1034D000C0F80017BDE8FF812DE9FF411C46DDE97A
:1034E0000A7815460E46684600F064F846EA45013B
:1034F00041EA840141EA072242EA0841009A00EBCE
:103500008200C0F80017BDE8FF811CB500210091C2
:103510000B4601220191FFF7C6FF1CBD1CB500211F
:1035200000910B4601220191FFF7D6FF1CBD1CB58F
:1035300000220B46009211460192FFF7B4FF1CBD1A
:103540001CB500220B46009211460192FFF7C4FF02
:103550001CBD1CB5002100910B46012201911146B2
:10356000FFF7A1FF1CBD1CB5002100910B460122F5
:1035700001911146FFF7B0FF1CBD00000168202932
:1035800002D24FF0A040704701F01F0101600148D6
:1035900070470000000300500168202902D24FF05C
:1035A000A040704701F01F01016001487047000012
:1035B000000300500168202902D24FF0A04070475C
:1035C00001F01F0101600148704700000003005036
:1035D00001B56846FFF7E0FF009A01219140C0F86D
:1035E000081508BD01B56846FFF7E4FF009A012100
:1035F0009140C0F8081508BD38B501240090684610
:1036000031B1FFF7BBFF00998C40C0F8084538BDC9
:10361000FFF7B4FF00998C40C0F80C4538BD00009E
:1036200030B5154A01460020D2F8104423460AE07E
:10363000DB681D79854205D1401C0A28F6DB4FF076
:10364000FF3030BD1B68002BF2D1431CF9D0CB6892
:103650001871D2F8103443B1DB68CC681B68236062
:10366000D2F81024D268116030BDC2F81014C968B5
:1036700000220A6030BD0000EC080020F0B595B0D3
:103680001C4615460F4608461A9E00F025FB1821D9
:1036900009A8FCF7EEFE0E96CDE909540023082296
:1036A00003A9384600F02DFB05980690BDF81000E0
:1036B000ADF81C00BDF81200ADF81E0000208DF81A
:1036C00021000398082600F00300012802D00228F8
:1036D00018D032E003983346850AC0F3C2008DF853
:1036E000200003980FA9C0F38314A200384600F00D
:1036F00008FB09A8009006AB22460FA9284600F057
:1037000047FA1AE00398840DC0F3C2008DF8200038
:10371000082C01D2254600E0082533462A460FA989
:10372000384600F0EEFA2E44641B09AB06AA29467F
:103730000FA800F089F9002CEAD1384600F0D2FA3F
:1037400015B0F0BD7047002001F088BD084810B5E5
:103750000178084A515C19B1001D01F01FF902E01F
:103760000C3001F01FF8BDE81040002001F076BDDC
:10377000F80000201000002008B5034A0092402302
:10378000024AFFF77BFF08BD0151000054070020EB
:103790000A4A012902EBC00007D0022907D00329F9
:1037A00007D0042907D0002070470220704704206A
:1037B0007047007970474079704700007C610000D5
:1037C00010B5FFF7C0FF04210348FFF729FF0249A6
:1037D0000120C968487110BD6C6100002DE9F047F7
:1037E0008CB0FDF73BFC18B100200CB0BDE8F087B1
:1037F0007D4C0020C4F81804BFF34F8F606802901E
:10380000A5684FF00008284004EB80000CE000BFE2
:10381000D4F8180470B921680298814201D8616017
:10382000E2E7284004EB80000C3002A9FEF7B2F872
:103830000028EDD1002003AA029901EA050304EB58
:103840008303491CDB6842F82030401C02910228A7
:10385000F2D3039800F00300022802D001284DD0D3
:10386000A7E003985022810D8946B2EB905F00D803
:1038700050210E4666F39F50039008315B4800F0DC
:10388000E2F9070078D000F027FA4346082203A99E
:10389000384600F03EFA029908F1080A2940681AF1
:1038A0008000001D864222D94F4D0C3530B1C2B286
:1038B00004EB8101301A90460C3104E02946F2B243
:1038C000002590462846C6B25346384600F021FAF5
:1038D0000AEB080325B132462946384600F019FAAA
:1038E000029909F1030001EB900002903BE004EB28
:1038F00081015346324638460C31EFE70398C0F356
:103900008310062800D30620039960F38911C1F3C0
:103910008310801C03918100344800F094F9070063
:1039200047D000F0D9F94346082203A9384600F0F1
:10393000F0F908F1080800260FE00298434600EA73
:103940000501401C04EB81010290042238460C3131
:1039500000F0DFF908F10408761C0398C0F3831027
:10396000B042EAD847B1D4F81054D4F8180478B16A
:10397000384600F0B7F931E01BE0E86840790128EB
:1039800004D12A682846394612689047E8680568D5
:10399000002DF2D1384600F0A5F90020FDF71EFAFF
:1039A000D4F8180408B9029860600020FDF718FAEE
:1039B00014E0D4F8104405E021682046896888475F
:1039C000E0680468002CF7D109480A49401AC00889
:1039D000022101EB004008A100F018F8FDF73EFBC2
:1039E00080F0010001E70000EC080020D461000035
:1039F000CC6100007C6100004261636B656E6473A2
:103A000020666C75736865640000000000231A4628
:103A100001F096BB08B5012300926A4601F090FBC5
:103A200008BD3EB5069C8DE81C0003236A4601F0E4
:103A300087FB3EBD7FB5DDE908458DE83C000423EA
:103A40006A4601F07DFB7FBD2DE9F0470E468046BA
:103A50001C469246082940D894F80C900020207308
:103A60001946104601F036F90025B54206D218F87D
:103A700005201BA12046FFF723FA03E01AA12046E8
:103A8000FFF71EFA6D1C082DEFD318A12046FFF793
:103A900017FA0025B54212D218F805707E2F08D803
:103AA000FCF7CAFC0068C05D10F03E0F01D03A463A
:103AB00000E02E220EA12046FFF702FA03E00DA13E
:103AC0002046FFF7FDF96D1C082DE3D301222146A6
:103AD000504601F0E1F884F80C90BDE8F087000052
:103AE0002025303278000000202020007C000000DB
:103AF00025630000200000000B4810B5FF21816005
:103B0000002101604160C0F81814C0F814140121AC
:103B100080F82014054800F0E3F8002803D1044899
:103B200000F0CAF9002010BDEC080020D4610000AC
:103B3000D459000002480349401AC00870470000E9
:103B4000D46100007C61000013B56846FEF756FBA7
:103B500008B100201CBD0248009950F831001CBD7E
:103B60007C61000070B509480125D0F8104480F848
:103B7000205407E0E068457121682046496888477D
:103B8000E0680468002CF5D170BD0000EC0800204E
:103B90002DE9FF4781460C9D00200C462F7B2873A2
:103BA000984616462946184601F094F8072E42D248
:103BB000DFE806F004090F161F2A3600494628469A
:103BC000FFF77EF937E0494628462268FFF778F983
:103BD00031E0D4E9002349462846FFF771F92AE08D
:103BE000A0680090D4E9002349462846FFF768F909
:103BF00021E0D4E90201CDE90001D4E900234946DE
:103C00002846FFF75DF916E004F1080007C88DE8C3
:103C10000700D4E9002349462846FFF751F90AE096
:103C200004F108000FC88DE80F00D4E900234946CD
:103C30002846FFF745F900222946404601F02CF8B6
:103C40002F73BDE8FF872DE9F041058A80462D1FBF
:103C50004819C01CB0FBF5F0C6B24046FFF74DF85E
:103C6000041E19D00020207101206071E58000271A
:103C70002546761EC4F800800BE04046FFF73DF86D
:103C800060B16179491C6171286005467F1CC0F8EC
:103C90000080B742F1D32046BDE8F081204600F015
:103CA00002F80020F8E72DE9F041457901466B1E46
:103CB000002201E00968521C9A42FBD30F680146BA
:103CC000002605E038460C68FFF736F82146761CDA
:103CD000AE42F7D3BDE8F0810121001DFEF7E1BF40
:103CE000FFF73FB810B504460121001DFEF7FFFFA6
:103CF00010F0FF0F04D12046BDE81040FFF7D3BFFE
:103D000010BD1CB501920122009201AAFEF736FAFD
:103D10001CBD1CB501920022009201AAFEF72EFAEA
:103D20001CBD000002494058002800D00120704707
:103D300000500040024A00218150BFF34F8F70476E
:103D4000005000400449D1F80413014201D0012081
:103D5000704700207047000000500040C02903D089
:103D6000E9B1802902D00DE040210BE010F8012BD1
:103D700010F8013B120442EA032210F8013B1A43F7
:103D80000F4B1A6010F8012B10F8013B120442EAA5
:103D9000032210F8013B1A43094B1B1F1A600268EB
:103DA000C07812BA22F0FF020243054808380260C8
:103DB00003480830026822F0C0020A4302607047DC
:103DC0009855004070B5054600681B4C0028607986
:103DD0000AD020B1BDE87040184800F0E7BABDE84D
:103DE0007040292000F05CBA68B1144800F0DEFA97
:103DF000A668002E1ED06B68E068B446BDE870402F
:103E00000F4A022160470E4801780126E02907D1B8
:103E10004178C943090703D000F0ECF86671E7E781
:103E20000078502803D0292000F03AFAE0E7267005
:103E30002820F9E770BD000080010020785A0000BA
:103E4000B40E0020094902220A60BFF36F8FBFF34E
:103E50004F8F0A1D106006480268002AFCD000201F
:103E60000860BFF36F8FBFF34F8F704704E50140C9
:103E700000E4014070B50E4C01232360BFF36F8F47
:103E8000BFF34F8F00230B4D08E000BF51F82360B4
:103E900040F823602E68002EFCD05B1C9342F5D3C3
:103EA00000202060BFF36F8FBFF34F8F70BD000005
:103EB00004E5014000E401408268002191608268CD
:103EC0001161826851618268D16082685160806846
:103ED0000160704708B5002242504058009008BD6C
:103EE0004058002800D00120704708B500224250F9
:103EF0004058009008BDD0F80403084000D00120CD
:103F000070474058002800D00120704708B50022B3
:103F100042504058009008BD08480068012110F048
:103F2000010F06D14FF0E020C02280F80024C0F835
:103F300000110349012008607047000000E100E023
:103F40001805004010B54FF48070FEF729FF0120DE
:103F50008107C1F80403086010BD00000549012075
:103F6000086005494FF001100A6802F00112824210
:103F7000FAD07047040000400C0400400549024696
:103F800000200B790BB1852070470A6001220A716D
:103F900070470000240000200121B1EB507F01D1C7
:103FA0000120704700207047104810B503780021A9
:103FB000021D33B101701172BDE81040032000F002
:103FC000B1B8517A002910D0917A00290DD0084A51
:103FD0000121116001700548001D00F05EFA0348E0
:103FE000BDE81040001D00F087BA10BD2C00002075
:103FF000005000400248016841F001010160704733
:104000009C5500400248016821F0010101607047A1
:104010009C550040074901200860074A01460832C4
:10402000054811600549C0F804130421C0F80413C1
:104030007047000004540040005000408200080017
:1040400070B50546FEF7AAFC286800262F4C4028CC
:1040500021D00FDC042843D0082821D0102819D102
:10406000A07890B3FFF7CEFF282000F019F9A670D2
:1040700066712EE0802840D0B0F5002F0AD1244888
:1040800000F094F9A56825B100231A461946E068A6
:10409000A847667170BD281DBDE87040FFF792BE4D
:1040A00060790028F6D0AA68107800F0F700C228DE
:1040B00001D10120A070A668002EEBD06B68E068EB
:1040C000B446BDE8704004216047FFE7104800F0A7
:1040D0006DF9A568002DDDD000231A46032107E005
:1040E000FFF790FFA568002DD4D000231A460121C8
:1040F000E068AC46BDE87040604728790028C9D127
:1041000020780028C6D0267070BD000080010020F5
:10411000785A000002480068800700D001207047EC
:104120003C54004031B51F4984B0087A002828D19A
:104130009DF81000032807D1FFF7ECFF08B102201B
:1041400000E001208DF810009DF810000025164CAD
:10415000012818D0022814D1607A002811D14D729C
:104160008D7201250D720F4800F097F90D4800F08F
:10417000C3F96572022000906168002901D0684689
:10418000884705B030BD082000F02AF907494FF4F0
:104190008F60C1F80803657204200090012000F0D0
:1041A00019F8E9E730000020F80500200050004031
:1041B00010B5B0F5A07F09D10549012088720846E5
:1041C00000F08CF9BDE81040FFF7EEBE10BD000016
:1041D00030000020044908B1881403E00348C06897
:1041E000C0F313000860704708550040F805002030
:1041F000FEB5254C217A09B10820FEBDD0E900109A
:1042000021606060214903200860204894300168E3
:1042100021F01F0141F0040101600520FCF790FC32
:104220001B49C02081F8000401252020491FC1F846
:1042300000011849184AD1E90001CDE9010101A99D
:10424000164800F07DF90028D7D114480068D0F84E
:1042500010050021C2B24FF47A50FCF7DDF8024697
:10426000012300210D48009500F054F9072168460C
:1042700000F034F80646C0216846FFF76FFD25724E
:104280002803E0603046FEBDF80500200C550040D4
:1042900005E000E0A4580000B1410000300000201B
:1042A00010B501210B4C292801D0204409E00A480F
:1042B000006810F0010F02D00648283001E00548E0
:1042C000243001600120FFF785FF4FF48F60C4F8B0
:1042D000080310BD005000402054004030B50429B0
:1042E00005D0072903D00A2901D0092030BD124A80
:1042F0001468121D1268104B08331B680470250ADD
:10430000240C45708470D4B2C470042912D0150AEC
:104310000571150C120E457182710A2902D0882C84
:1043200006D007E0C371190A0172190C417201E04D
:104330009921C170002030BD5004001010B50178E3
:1043400021B101290DD0022923D117E04068144979
:10435000B0F5801F08D8884200D908461149C860C6
:1043600017E00079032801D9072010BD0E490A681B
:1043700022F0600242EA401008600AE0017A042953
:1043800009D0072901D00A2907D040214068FFF74A
:10439000E5FC002010BD0021F8E78021F6E70000D1
:1043A000FFFF0F00F8050020A4550040094A4168AE
:1043B00000881160111DC0F3080008600648074915
:1043C000008800F48C60C1F80403044901201C310A
:1043D0000860704710550040F8050020005000406C
:1043E00070B504004FF0010503D103484572FFF793
:1043F000DBFD0248255070BD300000200050004019
:1044000010B50268FAB1114C43682360231DC2F352
:1044100008021A6000884FF6FF7202EAC0000B4AD9
:10442000C0F30B000C321060201F016008480949DE
:10443000007800F01800C1F80403064901200C318F
:104440000860002010BD092010BD0000105500407C
:10445000F80500200050004070B50D4600F086FCC5
:1044600004000FD00020FCF7B9FC207920B1002017
:10447000FCF7B6FC112070BD0120256020710020E2
:10448000FCF7AEFC002070BD10B500F06FFC0028FA
:1044900002D000210160017110BD00680121C160DE
:1044A00070472DE9F04106460D464FF48034006810
:1044B0001746AC404BB14FF4A07101EB8501FFF7FB
:1044C00009FD3068C0F8044301E0C0F808433068D3
:1044D00000EB8500C0F84075BDE8F081026801215D
:1044E00011610079034A00EB400002EB8000017289
:1044F0007047000008060020016801220A60007968
:10450000034A00EB400002EB800002210172704779
:1045100008060020F0B40468049E40F20115D4F8A7
:1045200000728D40AF43C4F800720468D4F80052A2
:104530001D43C4F800523346F0BCFFF7B2BF000081
:104540002DE9F04104460E4600792B4900EB40006E
:1045500001EB8007387A10B10820BDE8F0813A609D
:10456000706800254FF4A078786006E008EB8501BC
:104570002068FFF7AFFC6D1CEDB26079A842F5D85A
:104580002068F17840F3073000284FEA411106DA3D
:1045900000F00F0000F1E02080F8141D03E000F1AE
:1045A000E02080F800142068012140F3073000F07B
:1045B0001F0201FA02F24009800000F1E020C0F879
:1045C000002120687278D0F8043562F30103C0F846
:1045D00004352068B278D0F8083562F30103C0F8DA
:1045E000083520683278D0F8103562F30303C0F83C
:1045F000103539720020B0E7080600200149024852
:1046000000F054BE14060020002000402DE9F041C7
:104610000546007916460F4600EB40012C4A01EB97
:10462000C00102EB810494F82A1011B10820BDE802
:10463000F081284951F820102868FFF70DFF08B1D4
:104640001120F4E739462846FCF7DEFB666038693E
:10465000206030004FF001062DD03F7F4FF48E7167
:104660002868FFF742FC4FF4A2712868FFF73DFC71
:1046700028681949C0F8041328684FEA471140F325
:104680000730002806DA00F00F0000F1E02080F883
:10469000141D03E000F1E02080F80014286840F3C6
:1046A000073000F01F0106FA01F14009800000F117
:1046B000E020C0F8001128680421C0F8001500208F
:1046C000A061E06184F8290044F8140FA675AEE7F4
:1046D00014060020EC580000800002002DE9F05F75
:1046E000054600790B4600EB400101EBC000244970
:1046F00001EB8004284600F045F810B11120BDE818
:10470000F09F62614FF00009C4F82090A36084F824
:1047100028904FF48E784E4641462868FFF7E5FB17
:1047200028684FF0010AC0F808A02146286800F068
:104730004DFD606808BBD5F800B067690FE000BFA9
:1047400094F8280008B10F2615E041465846FFF7B7
:10475000C7FB0028F4D02146584600F037FD206AF8
:10476000B842F2D3574641462868FFF7B9FB002804
:10477000F9D02868C760C4F814903046BFE700003D
:1047800014060020007900EB400101EBC000044951
:1047900001EB80004069002800D001207047000034
:1047A000140600202DE9F047044600794FF0000977
:1047B00000EB400101EBC000254901EB80072068B8
:1047C000C0F80095786880B120682249C0F80813C5
:1047D0002068012140F3073000F01F02914040099A
:1047E000800000F1E020C0F880112068D0F80C258E
:1047F000D0F81485D0F80865D0F810554FF0FF3187
:10480000C0F81415C0F80C152068C0F80815C0F8D9
:104810001015501C02D01046FEF777FEB8F1FF3F8E
:1048200002D04046FEF771FE681C02D02846FEF713
:104830006CFE701C02D03046FEF767FE2068FFF762
:1048400023FE87F82A90C7F80490BDE8F08700009F
:1048500014060020840202000149024800F0D4BD81
:1048600040060020002000402DE9F0410546164694
:1048700000790F46154A00EBC00102EB810494F861
:10488000201011B10820BDE8F081114951F8201025
:104890002868FFF7E1FD08B11120F4E73946284602
:1048A000FCF7EDFA6660386920601EB1397F284652
:1048B000FDF72EF828680821C0F800150020A06137
:1048C000E0616061012184F82010DCE740060020EF
:1048D000F05800002DE9F04704460E4600792749BC
:1048E00000EBC00001EB800517463046FFF754FB94
:1048F00030B1204600F044F820B11120BDE8F08727
:104900001020FBE76F61AE604FF490774FF0000826
:1049100039462068FFF7FAFA4FF4AC763146206842
:10492000FFF7F4FA2068AA686969C0F84425C0F85E
:10493000481520684FF00109C0F808906868D0B9A0
:10494000BA4651462068FFF7DCFA07463146206830
:10495000FFF7D7FA0743F4D010B14FF00F0808E083
:104960002068C0F80C9031462068FFF7CAFA00288A
:10497000F9D0002068614046C0E7000040060020F2
:104980000079054900EBC00001EB80004069002878
:1049900000D0012070470000400600202DE9F047BC
:1049A00004460079334900EBC00001EB8007012584
:1049B000786880B120683049C0F80813206840F357
:1049C000073000F01F0105FA01F14009800000F1F5
:1049D000E020C0F880112068D0F8001221F02001FA
:1049E000C0F80012206845604FF4AC76314620686C
:1049F000FFF78CFA2068C56031462068FFF781FA1E
:104A00000028F9D020684FF00009C0F80095206810
:104A1000D0F80C25D0F81485D0F80865D0F81055DA
:104A20004FF0FF31C0F80C15C0F814152068C0F81D
:104A30000815C0F81015501C02D01046FEF76EFD88
:104A4000B8F1FF3F02D04046FEF768FD681C02D077
:104A50002846FEF763FD701C02D03046FEF75EFD6F
:104A60002068FFF711FD87F82090C7F80490BDE893
:104A7000F0870000400600201003420048B1064ABB
:104A80000168914205D140680449401802D00128CC
:104A900000D0032070470000DEC0ADDE02FEE10E54
:104AA0008A7D022A04D90289CB881A44D21C028149
:104AB0004289C988511AC91E418170472DE9F041C8
:104AC0000D460221904600F58056298000F1080429
:104AD000144F1BE031462046FCF73CFE40B1B8F1D4
:104AE000000F02D0012288F80020022816D004E02E
:104AF000A0687969884200D978612888618808446B
:104B0000C01C2880608804EB80040C3431462046A9
:104B1000FCF736FE0028DDD1BDE8F0814FF480605F
:104B20002880F9E75800002008B5002100910146CF
:104B30000823024A0248FEF7AFFB08BD04590000F3
:104B40009001002008B50020009004480823044A82
:104B500001680448FEF7A0FB08BD000080000020AB
:104B6000FC580000900100202DE9F05F0026DFF8DE
:104B70001891DFF818B134464FF00308B2463746B3
:104B8000D9F80C0000EB07352846FFF777FF98B3FC
:104B900001284BD0032869D12868411C02D03C4928
:104BA000884205D10120820255F82010491C0ED000
:104BB00004EB84010BEB8102A8F101005560032294
:104BC0001FFA80F80BF82120641CA4B24EE0401CB0
:104BD0009042E9D32F48016879B104EB84000221A7
:104BE0000BF820100BEB800045600181274828302E
:104BF0004480641CA4B205E007E0022105608180C6
:104C00004FF0010A46F0010630E004EB8401002277
:104C10000BF821200BEB810101F110024D602846B9
:104C20000831FFF74BFF46F00206CDE7BAF1000F5F
:104C30000FD004EB84000221164A0BF820100BEB76
:104C40008000126842600181104828304480641C52
:104C5000A4B210480022011D05602846FFF72EFF70
:104C60000C48808802280CD0082006437F1CBFB265
:104C7000032F85D3B8F1020F00D20026F0B2BDE8B1
:104C8000F09F0420F1E70000900100201C070020A5
:104C9000DEC0ADDE8000002010B50C46017A05298B
:104CA00008D0407A38B1084808A102682046FEF7CB
:104CB00007F900E01AB106A12046FEF701F92046E7
:104CC000BDE81040FEF709B940010020257300003F
:104CD0000D0A000038B5C3880D46044633B114A050
:104CE000009015A216A12846FEF7EAF8217A0529B8
:104CF0001CD0607A48B1A088FEF74AFD164951F8E9
:104D0000202016A12846FEF7DBF8A0880021FEF738
:104D10001BFF03461049207A143951F8202001B0B6
:104D20002846BDE830400EA1FEF7CAB838BD0000E5
:104D30001B5B306D000000001B5B313B33316D00AD
:104D400025734C6F67732064726F707065642028E0
:104D500025642925730D0A004001002025730000F9
:104D60003C25733E2025733A200000000349884209
:104D700001D1034870470020704700000020004028
:104D80003C0000200146054810B50068FDF751FFC2
:104D900004461C21FBF76DFB204610BDF4580000B3
:104DA000014602480068FDF765BF0000F4580000A6
:104DB000F0B5264D264E85B004460027686828B910
:104DC000224930680831FDF74AFF686001460078E3
:104DD000072817D2DFE800F0160408080E0E1200AC
:104DE0002046FCF7DDFC02E0204600F097FC0400C2
:104DF00029D009E02046FCF763F9F8E72046FCF7E4
:104E0000B3FBF4E748F20E6414216846FBF731FB6C
:104E1000A4F5E8501D3800D1002401946946686863
:104E2000FCF7C2F96846FCF7F9F908496F600024FD
:104E300008313068FDF708FF044801210C30FDF708
:104E400056FF0028BAD105B0F0BD00005800002080
:104E5000F458000010B501210448FDF72EFF00288A
:104E600003D1BDE81040FFF7A3BF10BD64000020D0
:104E700010B510461A46FBF7E3FA002010BD0000FB
:104E80002DE9F047074620481C46154600780E4697
:104E900070B18DB184B1DFF874804FF00009A08843
:104EA00002282DD200EB800118F8210020BB1BE066
:104EB00048F20160BDE8F08748F20460FAE7206834
:104EC0001FB181883A8891420ED11EB10188328883
:104ED000914209D180682860206868600B482830BA
:104EE000008928810020E5E7A088214600F060F8CD
:104EF0000028E4D1C4F80090A088401CA080CEE730
:104F000048F20960D6E70000780000201C07002066
:104F1000F8B505464068244F0C46002648B323499F
:104F2000CA68824225D80969814222D3FCF754FD20
:104F3000F8B12889398988421BD1D5E900018A68EE
:104F4000904216D10020A7F1280200BF00EB800399
:104F500002EB83035B688B4205D203F580538B42DF
:104F600001D9208011E0401C80B20228EED300203D
:104F7000F8BD268000960AE000982968806888427B
:104F800005D100986860388928810120F8BD208803
:104F9000694600F00DF80028EED12088401C80B250
:104FA00020800228E6D3E2E7440700209001002099
:104FB00070B50E4600EB8001134800EB8100446899
:104FC000306804F5805518B1418800EB810411E088
:104FD000083410E029462046FCF7BCFB20B101282C
:104FE00005D0022807D10DE00120346070BD608833
:104FF00004EB80040C3429462046FCF7C1FB002852
:10500000E8D170BD002070BD1C07002038B50C46EB
:105010000021009101460423084A0948FEF73CF9A3
:1050200010B148F20D6038BD064A04EB840102EB72
:10503000810101200874002038BD0000F8580000EC
:10504000900100201C0700200846704770B50546F7
:1050500088690C4600284FF4847128460AD0FEF770
:1050600044FFD5F81805626AE1688854606A401CFC
:10507000606270BDFEF739FFD5F8180570BD1FB529
:1050800001238DF80030CDE90121D0E900126846F6
:1050900090471FBD1FB501238DF80030CDE90121D8
:1050A000D0E90012684690471FBD00000A4810B5BD
:1050B00001780A48891CFDF79DF908B1FBF7FEFD50
:1050C00007480849BDE81040401AC008032101EB19
:1050D000004005A1FEF79ABC00000020CC01002092
:1050E000CC6100007C6100004E444546206D657334
:1050F00073616765207570646174656421000000E8
:1051000070B50D4C0020D2B22070201D0B4D0378DD
:10511000EB5C1BB1001DFFF7DDFB02E00C30FFF77D
:10512000DDFA08B1FBF7CAFD6078002802D02178CB
:105130000029FAD070BD0000F4000020100000200B
:105140002DE9F84F204D92468946064698460122A1
:1051500069461846AF68FBF725FF58B30098002151
:105160000446801C09E000BF00EA07035AF821202A
:1051700005EB8303401C491CDA604145F4D34FEA38
:10518000164AFBF7E3FF4AEA0041601C384005EB92
:1051900080003C4005EB8402C160D06866F3C50026
:1051A00068F3891069F39F2020F00300401C20F071
:1051B0000400D06095F8200402E000BFFEF70EFB6B
:1051C0000028FBD1BDE8F88FEC08002070B50C4634
:1051D00005464FF48E71FEF788FE216AA068415C97
:1051E000206A401C2062C5F81C1570BD1FB5002246
:1051F0008DF800200291816801914261D0E900128E
:10520000684690471FBD1FB500228DF8002002910F
:10521000816801914261D0E90012684690471FBD44
:105220001FB50A4601788DF8001041680191017A96
:105230008DF80810C0680390044850F82210083810
:1052400050F82220684690471FBD00001C00002037
:105250000149012008707047F400002010B588B0A3
:10526000044620220E496846FBF7EAF80620009023
:10527000C01F0190029003904FF0EB7006900CB1AC
:10528000084A00E0002269460748FDF7E5FD08B13D
:10529000FBF714FD0448001F447008B010BD000067
:1052A000B459000051520000F80000202DE9FF47DA
:1052B0000C4605464FF40071FEF71DFE01274FF422
:1052C0000178002618B34FF4927949462846FEF734
:1052D00007FEE0B149462846FEF707FEC5F80883F9
:1052E00094F8290000B96F6002208DF80000D5F80D
:1052F0008004C5F880040390A0690290E0680190E2
:10530000A661E661D4E900126846904728E00421CE
:105310002846FEF7F0FD18B34FF484712846FEF7D7
:10532000DFFDE8B121462846FFF790FE616AA069DB
:10533000884215D1E06938B1E268616AA0612069EC
:10534000E6616662E06008E094F8290000B96F60E9
:10535000C5F80883A661E268616A2046FFF78FFE00
:105360004FF48E7841462846FEF7BAFD80B1606959
:10537000216A814202D294F8280028B34146284687
:10538000FEF7B3FD606918B161692046FFF72EFF93
:105390004FF4A27841462846FEF7A2FD002818D017
:1053A00041462846FEF7A1FD94F8290000B12F6080
:1053B000A06900280DD0A661E268616A04B02046A9
:1053C000BDE8F047FFF75BBE21462846FFF7FEFE2B
:1053D000DEE7BDE8FF8700001FB50A4601788DF8BB
:1053E000001041680191017A8DF80810C06803909F
:1053F000044850F82210083850F822206846904798
:105400001FBD00001C0000202DE9FF410C464FF499
:10541000927705463946FEF774FD0026B8B1394645
:105420002846FEF773FD02208DF80000D5F88004B1
:10543000C5F880040390D5F83C050290E06801901F
:10544000A661E661D4E900126846904723E04FF474
:10545000887739462846FEF754FDE0B1394628469C
:10546000FEF754FDD5F83C15A069884213D1E069D8
:1054700060B1E268D5F8000220F02000C5F8000213
:10548000E069A0612069E661E06001E0A661E26890
:105490002046FFF7FFFD4FF4A27739462846FEF776
:1054A00030FD68B139462846FEF730FDA06938B1B5
:1054B000A661E661D5F83C152046E268FFF7EAFDF3
:1054C0004FF4907631462846FEF71BFD60B1314619
:1054D0002846FEF71BFD0120E860606920B1D5F881
:1054E0004C152046FFF78FFE4FF4AC763146284628
:1054F000FEF707FD00280ED031462846FEF706FDD0
:105500006069002807D0D5F84C1504B02046BDE8E6
:10551000F041FFF778BEBDE8FF81000010B50248FA
:10552000FDF7B3FB002010BDF00000202DE9F05F77
:105530008346DDE90A4A994690460D46084601270A
:1055400003E000BFB0FBF8F07F1C4045FAD2B9453C
:1055500000D94F465FEACA7012D18CB15FEA8A70F7
:1055600002D5B9F1000F01D0202607E0302605E072
:1055700031465846641EFBF759FD0CB1A742F7D3DC
:105580005FF00106B9F1010F02D9A9F1010903E0A9
:10559000B5FBF6F0404502D306FB08F6F2E7DFF86C
:1055A0003C9000BFB5FBF6F000FB165519F8001053
:1055B0005846FBF73BFDB6FBF8F6002EF2D15FEA4A
:1055C000CA7009D0002C07D0A74205D22021584626
:1055D000641EFBF72BFDF5E7BDE8F09F0C590000BA
:1055E000002070472DE9FC4180461C4617460E46B8
:1055F0000C48089DFDF752FB10B11120BDE8FC815D
:10560000A20839463046FEF735FC0648FDF73DFB5B
:1056100033463A4601214046CDE90045FBF70EFEF0
:105620000020EBE7F00000202DE9FC470646394852
:105630009846144600780D464FF0000978B37DB3C4
:105640002888A0F57F41FF3933D0688848B368685F
:10565000FCF7C2F980B384B32088ADF800006788F6
:1056600001A8FFF78FFB040034D084F800804FF0CE
:10567000000A84F816A0BDF80000A08268682061C6
:10568000244801210C38FDF70CFBE06028882081BC
:105690006888A080E780B8F1030F23D026E001E0FE
:1056A00004E006E048F20160BDE8FC8748F20460CF
:1056B000FAE748F20360F7E700E002E048F2026030
:1056C000F2E72889694687B2384600F0AFF800282B
:1056D000EAD1C5E7BDF80010384600F09BF848F263
:1056E0000760E1E70420A0753068A061A4F80A9083
:1056F00001A8FFF755FB46B1C6F804A0E1680648CB
:10570000316086F80AA000893081FFF7A3FB0020F2
:10571000CAE7000078000020440700202DE9F84384
:105720000D46898A384A01EB810102EB810638B1C6
:1057300029463046FFF7B4F94FF40640BDE8F88338
:1057400031897068002400EB81072F48A97DA838B3
:1057500048F20D6807294FD2DFE801F00D2E17251A
:1057600004414B004460A969016027482749A838D3
:10577000FFF7CEFB30B10220A875042339462A1D5D
:10578000009424E048F20960D8E728692A4608B165
:10579000032000E001209075042305F10C0207F1BD
:1057A0000801009413E00120A8750094E88807F12F
:1057B0000C0183002A690AE028782A4603280CD0C5
:1057C00006209075042305F10802391D0094104845
:1057D000FDF762FDB0B1444610E00520F1E7062177
:1057E000A9750A4940680988FFF710FC040005D133
:1057F00008E041F61D5401E048F20E6429463046A7
:10580000FFF74EF9204699E71C07002058000020BA
:105810009001002001EB8102034901EB82014A89DA
:10582000101AC01E488170471C07002070B5C01CAC
:1058300082B240F2FE30824202D948F2086070BD66
:10584000114B00204FF4806500EB800413F82460B6
:1058500096B903EB84063489768914443444A4B29F
:10586000AC4209D8088000EB800003EB800041893E
:1058700011444181002070BD401C80B20228E3D356
:1058800048F2066070BD00001C0700206E6F726455
:10589000696373656D692E636F6D0D0E0F100B0CD0
:1058A000181900000400000600000000400000007D
:1058B00000000000000000000000000010000000D8
:1058C00000000000000000000000000000000800D0
:1058D0000000000000000000000000008000000048
:1058E000000000000000000000000000FD45000076
:1058F00059480000640600200000FFFFDEC0ADDE56
:10590000FF011EF1DEC0ADDEFE011EF1303132338B
:105910003435363738394142434445466E72665F06
:105920006673746F726167655F696E6974006E7229
:10593000665F6673746F726167655F756E696E69C5
:1059400074006E72665F6673746F726167655F7212
:10595000656164006E72665F6673746F726167651D
:105960005F7772697465006E72665F6673746F72DA
:105970006167655F6572617365000000001000007B
:105980000400000001000000951700001D550000F4
:10599000714E0000E5550000611100004950000003
:1059A000E1550000C9190000793700004D370000AB
:1059B00045370000FFFFFFFFFFFFFFFFFFFFFFFF77
:1059C000FFFFFFFF00000000000000000000D60104
:1059D00006010000540800207F000000D4080020C9
:1059E00000000000010000000000000001000000B5
:1059F0000000000001000000045A0000E12B00003C
:105A000000000000550090006A826B0000A4000CAA
:105A100002E10300A4000C02E10400A4040007D288
:105A200076000085010100000F2000F800F8040650
:105A3000E104000000000000100000001800000059
:105A4000200000002800000030000000400000009E
:105A50006000000080000000000100000000000065
:105A60000000000000000000000000000000000036
:105A7000000000000000000000010000B40E002043
:105A80005804000041400000004040404040404079
:105A90004040414141414140404040404040404001
:105AA00040404040404040404005020202020202A5
:105AB00002020202020202020220202020202020F4
:105AC0002020200202020202020290909090909008
:105AD00010101010101010101010101010101010C6
:105AE000101010100202020202028888888888883A
:105AF0000808080808080808080808080808080826
:105B0000080808080202020240000000895A00004A
:105B10004461746120627573206572726F7220280F
:105B200072657475726E2061646472657373206946
:105B30006E2074686520737461636B206672616D9A
:105B400065206973206E6F742072656C6174656482
:105B500020746F2074686520696E73747275637445
:105B6000696F6E2074686174206361757365642069
:105B7000746865206572726F7229000044617461F7
:105B800020627573206572726F72202850432076F0
:105B9000616C756520737461636B656420666F72F8
:105BA0002074686520657863657074696F6E207213
:105BB000657475726E20706F696E747320746F20D7
:105BC00074686520696E737472756374696F6E2092
:105BD00074686174206361757365642074686520FE
:105BE0006661756C7429000043617573653A2042E3
:105BF00075734661756C74206F6E206120766563E5
:105C0000746F72207461626C6520726561642064D7
:105C10007572696E6720657863657074696F6E2050
:105C200070726F63657373696E672E0054686520C8
:105C300070726F636573736F72206861732065782B
:105C400065637574656420616E2053444956206F06
:105C500072205544495620696E7374727563746975
:105C60006F6E207769746820612064697669736F4C
:105C700072206F66203000005468652070726F6378
:105C80006573736F722068617320617474656D70E1
:105C900074656420746F2065786563757465206130
:105CA0006E20696E737472756374696F6E207468A8
:105CB0006174206D616B657320696C6C6567616CE4
:105CC00020757365206F66207468652045505352B7
:105CD000000000005468652070726F636573736F15
:105CE000722068617320617474656D7074656420DE
:105CF000616E20696C6C6567616C206C6F616420FB
:105D00006F66204558435F52455455524E20746F7C
:105D1000207468652050432C2061732061207265D7
:105D200073756C74206F6620616E20696E76616C8D
:105D3000696420636F6E746578742C206F722061C3
:105D40006E20696E76616C6964204558435F5245E8
:105D50005455524E2076616C75650000546865207C
:105D600070726F636573736F7220617474656D70A8
:105D70007465642061206C6F6164206F722073749D
:105D80006F72652061742061206C6F636174696F4C
:105D90006E207468617420646F6573206E6F742068
:105DA0007065726D697420746865206F70657261CA
:105DB00074696F6E0000000041204D656D4D616E8D
:105DC000616765206661756C74206F6363757272BC
:105DD000656420647572696E6720666C6F617469B2
:105DE0006E672D706F696E74206C617A79207374A0
:105DF00061746520707265736572766174696F6E27
:105E0000000000004120627573206661756C74208B
:105E10006F6363757272656420647572696E672062
:105E2000666C6F6174696E672D706F696E74206C3B
:105E3000617A79207374617465207072657365721C
:105E4000766174696F6E00005468652070726F63CC
:105E50006573736F722068617320617474656D700F
:105E600074656420746F206578656375746520615E
:105E70006E20756E646566696E656420696E737404
:105E800072756374696F6E00496E737472756374B2
:105E9000696F6E20627573206572726F7200000008
:105EA0005468652070726F636573736F72206861E8
:105EB0007320617474656D7074656420746F206103
:105EC0006363657373206120636F70726F636573C2
:105ED000736F7200556E737461636B20666F72200E
:105EE000616E20657863657074696F6E2072657489
:105EF00075726E2068617320636175736564206FCD
:105F00006E65206F72206D6F7265206163636573CB
:105F1000732076696F6C6174696F6E7300000000A6
:105F2000537461636B696E6720666F7220616E20C7
:105F3000657863657074696F6E20656E7472792020
:105F400068617320636175736564206F6E65206F8F
:105F500072206D6F7265206163636573732076696B
:105F60006F6C6174696F6E73000000005468652087
:105F700070726F636573736F7220686173206D61F7
:105F8000646520616E20756E616C69676E65642062
:105F90006D656D6F727920616363657373000000D6
:105FA000556E737461636B20666F7220616E20653D
:105FB0007863657074696F6E2072657475726E2097
:105FC00068617320636175736564206F6E65206F0F
:105FD00072206D6F7265204275734661756C7473C3
:105FE00000000000537461636B696E6720666F7216
:105FF00020616E20657863657074696F6E20656ED0
:106000007472792068617320636175736564206FB1
:106010006E65206F72206D6F7265204275734661E8
:10602000756C747300000000616464725F69735F73
:1060300077697468696E5F626F756E647328705FEC
:1060400066732C20706167655F616464722C202820
:106050006C656E202A20705F66732D3E705F666CE3
:106060006173685F696E666F2D3E65726173655F0F
:10607000756E6974292900007761726E696E670018
:1060800064656275670000001B5B313B33306D0057
:106090001B5B306D000000001B5B313B33316D003A
:1060A0001B5B313B33326D001B5B313B33336D0087
:1060B0001B5B313B33346D001B5B313B33356D0073
:1060C0001B5B313B33366D001B5B313B33376D005F
:1060D000696E666F000000006E6465665F66696CDD
:1060E000655F6D00636C6F636B000000434C4F4352
:1060F0004B0000004E464354000000005052530035
:1061000054494D45520000005541525400000000D2
:106110005541525445000000686172646661756CB7
:10612000740000006E72665F6673746F72616765FB
:1061300000000000756172745F6C6F675F6261637D
:106140006B656E640000000061707000E861000023
:1061500000000020A4010000D404000074620000CC
:10616000A40100201C2E0000660B0000A8590000AE
:1061700000000000346100000C010020D860000025
:1061800000000303E460000000000000EC60000079
:1061900000000000F460000000000000FC6000004F
:1061A0000000000000610000000000000861000025
:1061B00000000000106100000000000018610000F5
:1061C0000000030324610000000003034861000095
:1061D000000003031C010020140100201C0100200A
:1061E000940700201800000001320653B00140005F
:1061F0000633485E735C5D33D45E33205FB3B85DB5
:1062000033885E337C5B33105B33A05F33E45FB372
:10621000045E33485E33785C33D45C0313A05E3392
:106220006C5F03102C5C642000409420004002202E
:10623000FF33985E33786033D06033806033906092
:1062400033886033986033A06033A86033B0603324
:10625000B86033C060C3C8603790D0030203014AFE
:106260000101010101020201040415040001B361EE
:046270001500000015
:0400000500000201F4
:00000001FF
