Component: ARM Compiler 5.06 update 6 (build 750) Tool: armlink [4d35ed]

==============================================================================

Section Cross References

    arm_startup_nrf52810.o(RESET) refers to arm_startup_nrf52810.o(STACK) for __initial_sp
    arm_startup_nrf52810.o(RESET) refers to arm_startup_nrf52810.o(.text) for Reset_Handler
    arm_startup_nrf52810.o(RESET) refers to nrfx_prs.o(i.UARTE0_UART0_IRQHandler) for UARTE0_UART0_IRQHandler
    arm_startup_nrf52810.o(RESET) refers to nrfx_saadc.o(i.SAADC_IRQHandler) for SAADC_IRQHandler
    arm_startup_nrf52810.o(RESET) refers to nrfx_timer.o(i.TIMER0_IRQHandler) for TIMER0_IRQHandler
    arm_startup_nrf52810.o(.text) refers to system_nrf52810.o(i.SystemInit) for SystemInit
    arm_startup_nrf52810.o(.text) refers to entry.o(.ARM.Collect$$$$00000000) for __main
    system_nrf52810.o(i.SystemCoreClockUpdate) refers to system_nrf52810.o(.data) for .data
    system_nrf52810.o(i.SystemInit) refers to system_nrf52810.o(i.errata_31) for errata_31
    system_nrf52810.o(i.SystemInit) refers to system_nrf52810.o(i.errata_36) for errata_36
    system_nrf52810.o(i.SystemInit) refers to system_nrf52810.o(i.errata_136) for errata_136
    system_nrf52810.o(i.SystemInit) refers to system_nrf52810.o(.data) for .data
    main.o(i.main) refers to nrf_log_frontend.o(i.nrf_log_init) for nrf_log_init
    main.o(i.main) refers to app_error.o(i.app_error_handler_bare) for app_error_handler_bare
    main.o(i.main) refers to nrf_log_default_backends.o(i.nrf_log_default_backends_init) for nrf_log_default_backends_init
    main.o(i.main) refers to nrf_pwr_mgmt.o(i.nrf_pwr_mgmt_init) for nrf_pwr_mgmt_init
    main.o(i.main) refers to main.o(i.saadc_init) for saadc_init
    main.o(i.main) refers to main.o(i.saadc_sampling_event_init) for saadc_sampling_event_init
==============================================================================

Removing Unused input sections from the image.

    Removing arm_startup_nrf52810.o(HEAP), (2048 bytes).
    Removing system_nrf52810.o(.rev16_text), (4 bytes).
    Removing system_nrf52810.o(.revsh_text), (4 bytes).
    Removing system_nrf52810.o(.rrx_text), (6 bytes).
    Removing system_nrf52810.o(i.SystemCoreClockUpdate), (16 bytes).
    Removing main.o(.rev16_text), (4 bytes).
    Removing main.o(.revsh_text), (4 bytes).
    Removing main.o(.rrx_text), (6 bytes).
    Removing main.o(.data), (1 bytes).
    Removing boards.o(.rev16_text), (4 bytes).
    Removing boards.o(.revsh_text), (4 bytes).
    Removing boards.o(.rrx_text), (6 bytes).
    Removing boards.o(i.bsp_board_button_idx_to_pin), (12 bytes).
    Removing boards.o(i.bsp_board_button_state_get), (32 bytes).
    Removing boards.o(i.bsp_board_init), (64 bytes).
    Removing boards.o(i.bsp_board_led_idx_to_pin), (12 bytes).
    Removing boards.o(i.bsp_board_led_invert), (36 bytes).
    Removing boards.o(i.bsp_board_led_off), (16 bytes).
==============================================================================

Image Symbol Table

    Local Symbols

    Symbol Name                              Value     Ov Type        Size  Object(Section)

    RESET                                    0x00000000   Section      512  arm_startup_nrf52810.o(RESET)
    ../clib/microlib/ctype/ctype.c           0x00000000   Number         0  ctype_o.o ABSOLUTE
    ../clib/microlib/ctype/ctype.c           0x00000000   Number         0  isxdigit_o.o ABSOLUTE
    ../clib/microlib/ctype/ctype.c           0x00000000   Number         0  isspace_o.o ABSOLUTE
    ../clib/microlib/ctype/ctype.c           0x00000000   Number         0  isblank_o.o ABSOLUTE
    ../clib/microlib/ctype/ctype.c           0x00000000   Number         0  isupper_o.o ABSOLUTE
    ../clib/microlib/ctype/ctype.c           0x00000000   Number         0  isprint_o.o ABSOLUTE
    ../clib/microlib/ctype/ctype.c           0x00000000   Number         0  iscntrl_o.o ABSOLUTE
    ../clib/microlib/ctype/ctype.c           0x00000000   Number         0  isalpha_o.o ABSOLUTE
    ../clib/microlib/ctype/ctype.c           0x00000000   Number         0  isdigit_o.o ABSOLUTE
    ../clib/microlib/ctype/ctype.c           0x00000000   Number         0  isalnum_o.o ABSOLUTE
    ../clib/microlib/ctype/ctype.c           0x00000000   Number         0  isgraph_o.o ABSOLUTE
    ../clib/microlib/ctype/ctype.c           0x00000000   Number         0  islower_o.o ABSOLUTE
    ../clib/microlib/ctype/ctype.c           0x00000000   Number         0  ispunct_o.o ABSOLUTE
    ../clib/microlib/init/entry.s            0x00000000   Number         0  entry8a.o ABSOLUTE
    ../clib/microlib/init/entry.s            0x00000000   Number         0  entry8b.o ABSOLUTE
    ../clib/microlib/init/entry.s            0x00000000   Number         0  entry5.o ABSOLUTE
    ../clib/microlib/init/entry.s            0x00000000   Number         0  entry9a.o ABSOLUTE
    ../clib/microlib/init/entry.s            0x00000000   Number         0  entry9b.o ABSOLUTE
    ../clib/microlib/init/entry.s            0x00000000   Number         0  entry10a.o ABSOLUTE
    ../clib/microlib/init/entry.s            0x00000000   Number         0  entry10b.o ABSOLUTE
    ../clib/microlib/init/entry.s            0x00000000   Number         0  entry11a.o ABSOLUTE
    ../clib/microlib/init/entry.s            0x00000000   Number         0  entry11b.o ABSOLUTE
    ../clib/microlib/init/entry.s            0x00000000   Number         0  entry7b.o ABSOLUTE
    ../clib/microlib/init/entry.s            0x00000000   Number         0  entry7a.o ABSOLUTE
    ../clib/microlib/init/entry.s            0x00000000   Number         0  entry2.o ABSOLUTE
    ../clib/microlib/init/entry.s            0x00000000   Number         0  entry.o ABSOLUTE
    ../clib/microlib/longlong.c              0x00000000   Number         0  llushr.o ABSOLUTE
    ../clib/microlib/stdio/fflush.c          0x00000000   Number         0  fflush.o ABSOLUTE
    ../clib/microlib/stdio/fputc.c           0x00000000   Number         0  fputc.o ABSOLUTE
    ../clib/microlib/stdio/semi.s            0x00000000   Number         0  semi.o ABSOLUTE
    ../clib/microlib/stdio/streams.c         0x00000000   Number         0  stdout.o ABSOLUTE
    ../clib/microlib/string/memcpy.c         0x00000000   Number         0  memcpya.o ABSOLUTE
    ../clib/microlib/string/memcpy.c         0x00000000   Number         0  memcpyb.o ABSOLUTE
    ../clib/microlib/string/memset.c         0x00000000   Number         0  memseta.o ABSOLUTE
    ../clib/microlib/string/strcmp.c         0x00000000   Number         0  strcmp.o ABSOLUTE
    ../clib/microlib/string/strcpy.c         0x00000000   Number         0  strcpy.o ABSOLUTE
    ../clib/microlib/string/strlen.c         0x00000000   Number         0  strlen.o ABSOLUTE
    ../clib/microlib/stubs.s                 0x00000000   Number         0  useno.o ABSOLUTE
    ../clib/microlib/stubs.s                 0x00000000   Number         0  iusesemip.o ABSOLUTE
    ..\..\..\..\..\..\components\boards\boards.c 0x00000000   Number         0  boards.o ABSOLUTE
    ..\..\..\..\..\..\components\libraries\atomic\nrf_atomic.c 0x00000000   Number         0  nrf_atomic.o ABSOLUTE
    ..\..\..\..\..\..\components\libraries\balloc\nrf_balloc.c 0x00000000   Number         0  nrf_balloc.o ABSOLUTE
    ..\..\..\..\..\..\components\libraries\experimental_section_vars\nrf_section_iter.c 0x00000000   Number         0  nrf_section_iter.o ABSOLUTE
    ..\..\..\..\..\..\components\libraries\log\src\nrf_log_backend_rtt.c 0x00000000   Number         0  nrf_log_backend_rtt.o ABSOLUTE
    ..\..\..\..\..\..\components\libraries\log\src\nrf_log_backend_serial.c 0x00000000   Number         0  nrf_log_backend_serial.o ABSOLUTE
    ..\..\..\..\..\..\components\libraries\log\src\nrf_log_backend_uart.c 0x00000000   Number         0  nrf_log_backend_uart.o ABSOLUTE
    ..\..\..\..\..\..\components\libraries\log\src\nrf_log_default_backends.c 0x00000000   Number         0  nrf_log_default_backends.o ABSOLUTE
    ..\..\..\..\..\..\components\libraries\log\src\nrf_log_frontend.c 0x00000000   Number         0  nrf_log_frontend.o ABSOLUTE
    ..\..\..\..\..\..\components\libraries\log\src\nrf_log_str_formatter.c 0x00000000   Number         0  nrf_log_str_formatter.o ABSOLUTE
    ..\..\..\..\..\..\components\libraries\memobj\nrf_memobj.c 0x00000000   Number         0  nrf_memobj.o ABSOLUTE
    ..\..\..\..\..\..\components\libraries\pwr_mgmt\nrf_pwr_mgmt.c 0x00000000   Number         0  nrf_pwr_mgmt.o ABSOLUTE
    ..\..\..\..\..\..\components\libraries\ringbuf\nrf_ringbuf.c 0x00000000   Number         0  nrf_ringbuf.o ABSOLUTE
    ..\..\..\..\..\..\components\libraries\strerror\nrf_strerror.c 0x00000000   Number         0  nrf_strerror.o ABSOLUTE
    ..\..\..\..\..\..\components\libraries\util\app_error.c 0x00000000   Number         0  app_error.o ABSOLUTE
    ..\..\..\..\..\..\components\libraries\util\app_error_handler_keil.c 0x00000000   Number         0  app_error_handler_keil.o ABSOLUTE
    ..\..\..\..\..\..\components\libraries\util\app_error_weak.c 0x00000000   Number         0  app_error_weak.o ABSOLUTE
    ..\..\..\..\..\..\components\libraries\util\app_util_platform.c 0x00000000   Number         0  app_util_platform.o ABSOLUTE
    ..\..\..\..\..\..\components\libraries\util\nrf_assert.c 0x00000000   Number         0  nrf_assert.o ABSOLUTE
    ..\..\..\..\..\..\external\fprintf\nrf_fprintf.c 0x00000000   Number         0  nrf_fprintf.o ABSOLUTE
    ..\..\..\..\..\..\external\fprintf\nrf_fprintf_format.c 0x00000000   Number         0  nrf_fprintf_format.o ABSOLUTE
    ..\..\..\..\..\..\external\segger_rtt\SEGGER_RTT.c 0x00000000   Number         0  segger_rtt.o ABSOLUTE
    ..\..\..\..\..\..\external\segger_rtt\SEGGER_RTT_Syscalls_KEIL.c 0x00000000   Number         0  segger_rtt_syscalls_keil.o ABSOLUTE
    ..\..\..\..\..\..\external\segger_rtt\SEGGER_RTT_printf.c 0x00000000   Number         0  segger_rtt_printf.o ABSOLUTE
    ..\..\..\..\..\..\integration\nrfx\legacy\nrf_drv_ppi.c 0x00000000   Number         0  nrf_drv_ppi.o ABSOLUTE
    ..\..\..\..\..\..\integration\nrfx\legacy\nrf_drv_uart.c 0x00000000   Number         0  nrf_drv_uart.o ABSOLUTE
    ..\..\..\..\..\..\modules\nrfx\drivers\src\nrfx_ppi.c 0x00000000   Number         0  nrfx_ppi.o ABSOLUTE
    ..\..\..\..\..\..\modules\nrfx\drivers\src\nrfx_saadc.c 0x00000000   Number         0  nrfx_saadc.o ABSOLUTE
    ..\..\..\..\..\..\modules\nrfx\drivers\src\nrfx_timer.c 0x00000000   Number         0  nrfx_timer.o ABSOLUTE
    ..\..\..\..\..\..\modules\nrfx\drivers\src\nrfx_uart.c 0x00000000   Number         0  nrfx_uart.o ABSOLUTE
    ..\..\..\..\..\..\modules\nrfx\drivers\src\nrfx_uarte.c 0x00000000   Number         0  nrfx_uarte.o ABSOLUTE
    ..\..\..\..\..\..\modules\nrfx\drivers\src\prs\nrfx_prs.c 0x00000000   Number         0  nrfx_prs.o ABSOLUTE
    ..\..\..\..\..\..\modules\nrfx\mdk\arm_startup_nrf52810.s 0x00000000   Number         0  arm_startup_nrf52810.o ABSOLUTE
    ..\..\..\..\..\..\modules\nrfx\mdk\system_nrf52810.c 0x00000000   Number         0  system_nrf52810.o ABSOLUTE
    ..\..\..\..\..\..\modules\nrfx\soc\nrfx_atomic.c 0x00000000   Number         0  nrfx_atomic.o ABSOLUTE
    ..\..\..\main.c                          0x00000000   Number         0  main.o ABSOLUTE
    ..\\..\\..\\..\\..\\..\\components\\boards\\boards.c 0x00000000   Number         0  boards.o ABSOLUTE
    ..\\..\\..\\..\\..\\..\\components\\libraries\\atomic\\nrf_atomic.c 0x00000000   Number         0  nrf_atomic.o ABSOLUTE
    ..\\..\\..\\..\\..\\..\\components\\libraries\\balloc\\nrf_balloc.c 0x00000000   Number         0  nrf_balloc.o ABSOLUTE
    ..\\..\\..\\..\\..\\..\\components\\libraries\\experimental_section_vars\\nrf_section_iter.c 0x00000000   Number         0  nrf_section_iter.o ABSOLUTE
    ..\\..\\..\\..\\..\\..\\components\\libraries\\log\\src\\nrf_log_backend_rtt.c 0x00000000   Number         0  nrf_log_backend_rtt.o ABSOLUTE
    ..\\..\\..\\..\\..\\..\\components\\libraries\\log\\src\\nrf_log_backend_serial.c 0x00000000   Number         0  nrf_log_backend_serial.o ABSOLUTE
    ..\\..\\..\\..\\..\\..\\components\\libraries\\log\\src\\nrf_log_backend_uart.c 0x00000000   Number         0  nrf_log_backend_uart.o ABSOLUTE
    ..\\..\\..\\..\\..\\..\\components\\libraries\\log\\src\\nrf_log_default_backends.c 0x00000000   Number         0  nrf_log_default_backends.o ABSOLUTE
    ..\\..\\..\\..\\..\\..\\components\\libraries\\log\\src\\nrf_log_frontend.c 0x00000000   Number         0  nrf_log_frontend.o ABSOLUTE
    ..\\..\\..\\..\\..\\..\\components\\libraries\\log\\src\\nrf_log_str_formatter.c 0x00000000   Number         0  nrf_log_str_formatter.o ABSOLUTE
    ..\\..\\..\\..\\..\\..\\components\\libraries\\memobj\\nrf_memobj.c 0x00000000   Number         0  nrf_memobj.o ABSOLUTE
    ..\\..\\..\\..\\..\\..\\components\\libraries\\pwr_mgmt\\nrf_pwr_mgmt.c 0x00000000   Number         0  nrf_pwr_mgmt.o ABSOLUTE
    ..\\..\\..\\..\\..\\..\\components\\libraries\\ringbuf\\nrf_ringbuf.c 0x00000000   Number         0  nrf_ringbuf.o ABSOLUTE
    ..\\..\\..\\..\\..\\..\\components\\libraries\\strerror\\nrf_strerror.c 0x00000000   Number         0  nrf_strerror.o ABSOLUTE
    ..\\..\\..\\..\\..\\..\\components\\libraries\\util\\app_error.c 0x00000000   Number         0  app_error.o ABSOLUTE
    ..\\..\\..\\..\\..\\..\\components\\libraries\\util\\app_error_handler_keil.c 0x00000000   Number         0  app_error_handler_keil.o ABSOLUTE
    ..\\..\\..\\..\\..\\..\\components\\libraries\\util\\app_error_weak.c 0x00000000   Number         0  app_error_weak.o ABSOLUTE
    ..\\..\\..\\..\\..\\..\\components\\libraries\\util\\app_util_platform.c 0x00000000   Number         0  app_util_platform.o ABSOLUTE
    ..\\..\\..\\..\\..\\..\\components\\libraries\\util\\nrf_assert.c 0x00000000   Number         0  nrf_assert.o ABSOLUTE
    ..\\..\\..\\..\\..\\..\\external\\fprintf\\nrf_fprintf.c 0x00000000   Number         0  nrf_fprintf.o ABSOLUTE
    ..\\..\\..\\..\\..\\..\\external\\fprintf\\nrf_fprintf_format.c 0x00000000   Number         0  nrf_fprintf_format.o ABSOLUTE
    ..\\..\\..\\..\\..\\..\\external\\segger_rtt\\SEGGER_RTT.c 0x00000000   Number         0  segger_rtt.o ABSOLUTE
    ..\\..\\..\\..\\..\\..\\external\\segger_rtt\\SEGGER_RTT_Syscalls_KEIL.c 0x00000000   Number         0  segger_rtt_syscalls_keil.o ABSOLUTE
    ..\\..\\..\\..\\..\\..\\external\\segger_rtt\\SEGGER_RTT_printf.c 0x00000000   Number         0  segger_rtt_printf.o ABSOLUTE
    ..\\..\\..\\..\\..\\..\\integration\\nrfx\\legacy\\nrf_drv_ppi.c 0x00000000   Number         0  nrf_drv_ppi.o ABSOLUTE
    ..\\..\\..\\..\\..\\..\\integration\\nrfx\\legacy\\nrf_drv_uart.c 0x00000000   Number         0  nrf_drv_uart.o ABSOLUTE
    ..\\..\\..\\..\\..\\..\\modules\\nrfx\\drivers\\src\\nrfx_ppi.c 0x00000000   Number         0  nrfx_ppi.o ABSOLUTE
    ..\\..\\..\\..\\..\\..\\modules\\nrfx\\drivers\\src\\nrfx_saadc.c 0x00000000   Number         0  nrfx_saadc.o ABSOLUTE
    ..\\..\\..\\..\\..\\..\\modules\\nrfx\\drivers\\src\\nrfx_timer.c 0x00000000   Number         0  nrfx_timer.o ABSOLUTE
    ..\\..\\..\\..\\..\\..\\modules\\nrfx\\drivers\\src\\nrfx_uart.c 0x00000000   Number         0  nrfx_uart.o ABSOLUTE
    ..\\..\\..\\..\\..\\..\\modules\\nrfx\\drivers\\src\\nrfx_uarte.c 0x00000000   Number         0  nrfx_uarte.o ABSOLUTE
    ..\\..\\..\\..\\..\\..\\modules\\nrfx\\drivers\\src\\prs\\nrfx_prs.c 0x00000000   Number         0  nrfx_prs.o ABSOLUTE
    ..\\..\\..\\..\\..\\..\\modules\\nrfx\\mdk\\system_nrf52810.c 0x00000000   Number         0  system_nrf52810.o ABSOLUTE
    ..\\..\\..\\..\\..\\..\\modules\\nrfx\\soc\\nrfx_atomic.c 0x00000000   Number         0  nrfx_atomic.o ABSOLUTE
    ..\\..\\..\\main.c                       0x00000000   Number         0  main.o ABSOLUTE
    dc.s                                     0x00000000   Number         0  dc.o ABSOLUTE
    handlers.s                               0x00000000   Number         0  handlers.o ABSOLUTE
    init.s                                   0x00000000   Number         0  init.o ABSOLUTE
    .ARM.Collect$$$$00000000                 0x00000200   Section        0  entry.o(.ARM.Collect$$$$00000000)
    .ARM.Collect$$$$00000001                 0x00000200   Section        4  entry2.o(.ARM.Collect$$$$00000001)
    .ARM.Collect$$$$00000004                 0x00000204   Section        4  entry5.o(.ARM.Collect$$$$00000004)
    .ARM.Collect$$$$00000008                 0x00000208   Section        0  entry7b.o(.ARM.Collect$$$$00000008)
    .ARM.Collect$$$$0000000A                 0x00000208   Section        0  entry8b.o(.ARM.Collect$$$$0000000A)
    .ARM.Collect$$$$0000000B                 0x00000208   Section        8  entry9a.o(.ARM.Collect$$$$0000000B)
    .ARM.Collect$$$$0000000D                 0x00000210   Section        0  entry10a.o(.ARM.Collect$$$$0000000D)
    .ARM.Collect$$$$0000000F                 0x00000210   Section        0  entry11a.o(.ARM.Collect$$$$0000000F)
    .ARM.Collect$$$$00002712                 0x00000210   Section        4  entry2.o(.ARM.Collect$$$$00002712)
    __lit__00000000                          0x00000210   Data           4  entry2.o(.ARM.Collect$$$$00002712)
    .emb_text                                0x00000214   Section      226  nrf_atomic.o(.emb_text)
    .text                                    0x000002f8   Section       84  arm_startup_nrf52810.o(.text)
    .text                                    0x0000034c   Section        0  llushr.o(.text)
    .text                                    0x0000036c   Section        0  ctype_o.o(.text)
    .text                                    0x00000374   Section        0  memcpya.o(.text)
    .text                                    0x00000398   Section        0  memseta.o(.text)
    .text                                    0x000003bc   Section        0  strlen.o(.text)
    .text                                    0x000003ca   Section        0  strcpy.o(.text)
    .text                                    0x000003dc   Section       36  init.o(.text)
    i.SAADC_IRQHandler                       0x00000400   Section        0  nrfx_saadc.o(i.SAADC_IRQHandler)
    i.SEGGER_RTT_Init                        0x00000548   Section        0  segger_rtt.o(i.SEGGER_RTT_Init)
    i.SEGGER_RTT_WriteNoLock                 0x0000054c   Section        0  segger_rtt.o(i.SEGGER_RTT_WriteNoLock)
    i.SystemInit                             0x000005a8   Section        0  system_nrf52810.o(i.SystemInit)
    i.TIMER0_IRQHandler                      0x00000834   Section        0  nrfx_timer.o(i.TIMER0_IRQHandler)
    i.UARTE0_UART0_IRQHandler                0x00000884   Section        0  nrfx_prs.o(i.UARTE0_UART0_IRQHandler)
    i._DoInit                                0x00000890   Section        0  segger_rtt.o(i._DoInit)
    _DoInit                                  0x00000891   Thumb Code    76  segger_rtt.o(i._DoInit)
    i._GetAvailWriteSpace                    0x000008f8   Section        0  segger_rtt.o(i._GetAvailWriteSpace)
    _GetAvailWriteSpace                      0x000008f9   Thumb Code    22  segger_rtt.o(i._GetAvailWriteSpace)
    i._WriteBlocking                         0x0000090e   Section        0  segger_rtt.o(i._WriteBlocking)
    _WriteBlocking                           0x0000090f   Thumb Code    90  segger_rtt.o(i._WriteBlocking)
    i._WriteNoCheck                          0x00000968   Section        0  segger_rtt.o(i._WriteNoCheck)
    _WriteNoCheck                            0x00000969   Thumb Code    66  segger_rtt.o(i._WriteNoCheck)
    i.__scatterload_copy                     0x000009aa   Section       14  handlers.o(i.__scatterload_copy)
    i.__scatterload_null                     0x000009b8   Section        2  handlers.o(i.__scatterload_null)
    i.__scatterload_zeroinit                 0x000009ba   Section       14  handlers.o(i.__scatterload_zeroinit)
    i.app_error_fault_handler                0x000009c8   Section        0  app_error_weak.o(i.app_error_fault_handler)
    i.app_error_handler_bare                 0x00000a4c   Section        0  app_error.o(i.app_error_handler_bare)
    i.app_util_critical_region_enter         0x00000a62   Section        0  app_util_platform.o(i.app_util_critical_region_enter)
    i.app_util_critical_region_exit          0x00000a66   Section        0  app_util_platform.o(i.app_util_critical_region_exit)
    i.app_util_disable_irq                   0x00000a6c   Section        0  app_util_platform.o(i.app_util_disable_irq)
    i.app_util_enable_irq                    0x00000a7c   Section        0  app_util_platform.o(i.app_util_enable_irq)
    i.buf_prealloc                           0x00000a90   Section        0  nrf_log_frontend.o(i.buf_prealloc)
    buf_prealloc                             0x00000a91   Thumb Code   130  nrf_log_frontend.o(i.buf_prealloc)
    i.buffer_add                             0x00000b18   Section        0  nrf_fprintf_format.o(i.buffer_add)
    buffer_add                               0x00000b19   Thumb Code    46  nrf_fprintf_format.o(i.buffer_add)
    i.buffer_is_empty                        0x00000b48   Section        0  nrf_log_frontend.o(i.buffer_is_empty)
    i.dropped_sat16_get                      0x00000b5c   Section        0  nrf_log_frontend.o(i.dropped_sat16_get)
    dropped_sat16_get                        0x00000b5d   Thumb Code    16  nrf_log_frontend.o(i.dropped_sat16_get)
    i.errata_136                             0x00000b70   Section        0  system_nrf52810.o(i.errata_136)
    errata_136                               0x00000b71   Thumb Code    70  system_nrf52810.o(i.errata_136)
    i.errata_31                              0x00000bbc   Section        0  system_nrf52810.o(i.errata_31)
    errata_31                                0x00000bbd   Thumb Code    70  system_nrf52810.o(i.errata_31)
    i.errata_36                              0x00000c08   Section        0  system_nrf52810.o(i.errata_36)
    errata_36                                0x00000c09   Thumb Code    70  system_nrf52810.o(i.errata_36)
    i.int_print                              0x00000c54   Section        0  nrf_fprintf_format.o(i.int_print)
    int_print                                0x00000c55   Thumb Code   166  nrf_fprintf_format.o(i.int_print)
    i.invalid_packets_omit                   0x00000cfa   Section        0  nrf_log_frontend.o(i.invalid_packets_omit)
    invalid_packets_omit                     0x00000cfb   Thumb Code    52  nrf_log_frontend.o(i.invalid_packets_omit)
    i.is_allocated_channel                   0x00000d30   Section        0  nrfx_ppi.o(i.is_allocated_channel)
    is_allocated_channel                     0x00000d31   Thumb Code    20  nrfx_ppi.o(i.is_allocated_channel)
    i.is_programmable_app_channel            0x00000d48   Section        0  nrfx_ppi.o(i.is_programmable_app_channel)
    is_programmable_app_channel              0x00000d49   Thumb Code    12  nrfx_ppi.o(i.is_programmable_app_channel)
    i.log_skip                               0x00000d54   Section        0  nrf_log_frontend.o(i.log_skip)
    log_skip                                 0x00000d55   Thumb Code   148  nrf_log_frontend.o(i.log_skip)
    i.main                                   0x00000df0   Section        0  main.o(i.main)
    i.memobj_op                              0x00000e68   Section        0  nrf_memobj.o(i.memobj_op)
    memobj_op                                0x00000e69   Thumb Code   126  nrf_memobj.o(i.memobj_op)
    i.module_idx_get                         0x00000ee8   Section        0  nrf_log_frontend.o(i.module_idx_get)
    module_idx_get                           0x00000ee9   Thumb Code    42  nrf_log_frontend.o(i.module_idx_get)
    i.nrf_atomic_flag_clear_fetch            0x00000f18   Section        0  nrf_atomic.o(i.nrf_atomic_flag_clear_fetch)
    i.nrf_atomic_flag_set                    0x00000f1e   Section        0  nrf_atomic.o(i.nrf_atomic_flag_set)
    i.nrf_atomic_u32_add                     0x00000f24   Section        0  nrf_atomic.o(i.nrf_atomic_u32_add)
    i.nrf_atomic_u32_fetch_and               0x00000f30   Section        0  nrf_atomic.o(i.nrf_atomic_u32_fetch_and)
    i.nrf_atomic_u32_fetch_store             0x00000f3a   Section        0  nrf_atomic.o(i.nrf_atomic_u32_fetch_store)
    i.nrf_atomic_u32_or                      0x00000f44   Section        0  nrf_atomic.o(i.nrf_atomic_u32_or)
    i.nrf_atomic_u32_sub                     0x00000f50   Section        0  nrf_atomic.o(i.nrf_atomic_u32_sub)
    i.nrf_balloc_alloc                       0x00000f5c   Section        0  nrf_balloc.o(i.nrf_balloc_alloc)
    i.nrf_balloc_free                        0x00000f9a   Section        0  nrf_balloc.o(i.nrf_balloc_free)
    i.nrf_balloc_init                        0x00000fc4   Section        0  nrf_balloc.o(i.nrf_balloc_init)
    i.nrf_drv_ppi_init                       0x00000ff4   Section        0  nrf_drv_ppi.o(i.nrf_drv_ppi_init)
    i.nrf_fprintf                            0x0000100c   Section        0  nrf_fprintf.o(i.nrf_fprintf)
    i.nrf_fprintf_buffer_flush               0x00001026   Section        0  nrf_fprintf.o(i.nrf_fprintf_buffer_flush)
    i.nrf_fprintf_fmt                        0x0000103e   Section        0  nrf_fprintf_format.o(i.nrf_fprintf_fmt)
    i.nrf_log_backend_add                    0x00001218   Section        0  nrf_log_frontend.o(i.nrf_log_backend_add)
    i.nrf_log_backend_rtt_flush              0x00001274   Section        0  nrf_log_backend_rtt.o(i.nrf_log_backend_rtt_flush)
    nrf_log_backend_rtt_flush                0x00001275   Thumb Code     2  nrf_log_backend_rtt.o(i.nrf_log_backend_rtt_flush)
    i.nrf_log_backend_rtt_init               0x00001276   Section        0  nrf_log_backend_rtt.o(i.nrf_log_backend_rtt_init)
    i.nrf_log_backend_rtt_panic_set          0x0000127a   Section        0  nrf_log_backend_rtt.o(i.nrf_log_backend_rtt_panic_set)
    nrf_log_backend_rtt_panic_set            0x0000127b   Thumb Code     2  nrf_log_backend_rtt.o(i.nrf_log_backend_rtt_panic_set)
    i.nrf_log_backend_rtt_put                0x0000127c   Section        0  nrf_log_backend_rtt.o(i.nrf_log_backend_rtt_put)
    nrf_log_backend_rtt_put                  0x0000127d   Thumb Code    16  nrf_log_backend_rtt.o(i.nrf_log_backend_rtt_put)
    i.nrf_log_backend_serial_put             0x00001294   Section        0  nrf_log_backend_serial.o(i.nrf_log_backend_serial_put)
    i.nrf_log_color_id_get                   0x0000135c   Section        0  nrf_log_frontend.o(i.nrf_log_color_id_get)
    i.nrf_log_default_backends_init          0x0000138c   Section        0  nrf_log_default_backends.o(i.nrf_log_default_backends_init)
    i.nrf_log_frontend_dequeue               0x000013a8   Section        0  nrf_log_frontend.o(i.nrf_log_frontend_dequeue)
    i.nrf_log_frontend_std_0                 0x000015d8   Section        0  nrf_log_frontend.o(i.nrf_log_frontend_std_0)
    i.nrf_log_frontend_std_1                 0x000015e0   Section        0  nrf_log_frontend.o(i.nrf_log_frontend_std_1)
    i.nrf_log_hexdump_entry_process          0x000015f0   Section        0  nrf_log_str_formatter.o(i.nrf_log_hexdump_entry_process)
    i.nrf_log_init                           0x000016a0   Section        0  nrf_log_frontend.o(i.nrf_log_init)
    i.nrf_log_module_cnt_get                 0x000016dc   Section        0  nrf_log_frontend.o(i.nrf_log_module_cnt_get)
    i.nrf_log_module_name_get                0x000016f0   Section        0  nrf_log_frontend.o(i.nrf_log_module_name_get)
    i.nrf_log_panic                          0x0000170c   Section        0  nrf_log_frontend.o(i.nrf_log_panic)
    i.nrf_log_std_entry_process              0x00001738   Section        0  nrf_log_str_formatter.o(i.nrf_log_std_entry_process)
    i.nrf_memobj_alloc                       0x000017ee   Section        0  nrf_memobj.o(i.nrf_memobj_alloc)
    i.nrf_memobj_free                        0x0000184e   Section        0  nrf_memobj.o(i.nrf_memobj_free)
    i.nrf_memobj_get                         0x00001880   Section        0  nrf_memobj.o(i.nrf_memobj_get)
    i.nrf_memobj_pool_init                   0x00001888   Section        0  nrf_memobj.o(i.nrf_memobj_pool_init)
    i.nrf_memobj_put                         0x0000188c   Section        0  nrf_memobj.o(i.nrf_memobj_put)
    i.nrf_memobj_read                        0x000018aa   Section        0  nrf_memobj.o(i.nrf_memobj_read)
    i.nrf_memobj_write                       0x000018ba   Section        0  nrf_memobj.o(i.nrf_memobj_write)
    i.nrf_pwr_mgmt_init                      0x000018cc   Section        0  nrf_pwr_mgmt.o(i.nrf_pwr_mgmt_init)
    i.nrf_pwr_mgmt_run                       0x000018f4   Section        0  nrf_pwr_mgmt.o(i.nrf_pwr_mgmt_run)
    i.nrf_ringbuf_init                       0x000018fc   Section        0  nrf_ringbuf.o(i.nrf_ringbuf_init)
    i.nrf_saadc_buffer_init                  0x00001918   Section        0  nrfx_saadc.o(i.nrf_saadc_buffer_init)
    nrf_saadc_buffer_init                    0x00001919   Thumb Code    10  nrfx_saadc.o(i.nrf_saadc_buffer_init)
    i.nrf_saadc_channel_input_set            0x00001928   Section        0  nrfx_saadc.o(i.nrf_saadc_channel_input_set)
    nrf_saadc_channel_input_set              0x00001929   Thumb Code    16  nrfx_saadc.o(i.nrf_saadc_channel_input_set)
    i.nrf_saadc_event_check                  0x0000193c   Section        0  nrfx_saadc.o(i.nrf_saadc_event_check)
    nrf_saadc_event_check                    0x0000193d   Thumb Code    12  nrfx_saadc.o(i.nrf_saadc_event_check)
    i.nrf_saadc_event_clear                  0x0000194c   Section        0  nrfx_saadc.o(i.nrf_saadc_event_clear)
    nrf_saadc_event_clear                    0x0000194d   Thumb Code    16  nrfx_saadc.o(i.nrf_saadc_event_clear)
    i.nrf_section_iter_init                  0x00001960   Section        0  nrf_section_iter.o(i.nrf_section_iter_init)
    i.nrf_section_iter_item_set              0x0000196a   Section        0  nrf_section_iter.o(i.nrf_section_iter_item_set)
    nrf_section_iter_item_set                0x0000196b   Thumb Code    36  nrf_section_iter.o(i.nrf_section_iter_item_set)
    i.nrf_timer_event_clear                  0x0000198e   Section        0  nrfx_timer.o(i.nrf_timer_event_clear)
    nrf_timer_event_clear                    0x0000198f   Thumb Code    12  nrfx_timer.o(i.nrf_timer_event_clear)
    i.nrfx_ppi_channel_alloc                 0x0000199c   Section        0  nrfx_ppi.o(i.nrfx_ppi_channel_alloc)
    i.nrfx_ppi_channel_assign                0x000019fc   Section        0  nrfx_ppi.o(i.nrfx_ppi_channel_assign)
    i.nrfx_ppi_channel_enable                0x00001a40   Section        0  nrfx_ppi.o(i.nrfx_ppi_channel_enable)
    i.nrfx_saadc_buffer_convert              0x00001a68   Section        0  nrfx_saadc.o(i.nrfx_saadc_buffer_convert)
    i.nrfx_saadc_channel_init                0x00001b0c   Section        0  nrfx_saadc.o(i.nrfx_saadc_channel_init)
    i.nrfx_saadc_init                        0x00001bb8   Section        0  nrfx_saadc.o(i.nrfx_saadc_init)
    i.nrfx_saadc_sample_task_get             0x00001c4c   Section        0  nrfx_saadc.o(i.nrfx_saadc_sample_task_get)
    i.nrfx_timer_compare                     0x00001c68   Section        0  nrfx_timer.o(i.nrfx_timer_compare)
    i.nrfx_timer_enable                      0x00001ca4   Section        0  nrfx_timer.o(i.nrfx_timer_enable)
    i.nrfx_timer_extended_compare            0x00001cc0   Section        0  nrfx_timer.o(i.nrfx_timer_extended_compare)
    i.nrfx_timer_init                        0x00001cec   Section        0  nrfx_timer.o(i.nrfx_timer_init)
    i.postfix_process                        0x00001da8   Section        0  nrf_log_str_formatter.o(i.postfix_process)
    postfix_process                          0x00001da9   Thumb Code    48  nrf_log_str_formatter.o(i.postfix_process)
    i.prefix_process                         0x00001de4   Section        0  nrf_log_str_formatter.o(i.prefix_process)
    prefix_process                           0x00001de5   Thumb Code    90  nrf_log_str_formatter.o(i.prefix_process)
    i.saadc_callback                         0x00001e7c   Section        0  main.o(i.saadc_callback)
    i.saadc_init                             0x00001ef8   Section        0  main.o(i.saadc_init)
    i.saadc_sampling_event_enable            0x00001f50   Section        0  main.o(i.saadc_sampling_event_enable)
    i.saadc_sampling_event_init              0x00001f6c   Section        0  main.o(i.saadc_sampling_event_init)
    i.serial_tx                              0x00002004   Section        0  nrf_log_backend_rtt.o(i.serial_tx)
    serial_tx                                0x00002005   Thumb Code    70  nrf_log_backend_rtt.o(i.serial_tx)
    i.std_n                                  0x00002054   Section        0  nrf_log_frontend.o(i.std_n)
    std_n                                    0x00002055   Thumb Code   136  nrf_log_frontend.o(i.std_n)
    i.timer_handler                          0x000020e0   Section        0  main.o(i.timer_handler)
    i.unsigned_print                         0x000020e4   Section        0  nrf_fprintf_format.o(i.unsigned_print)
    unsigned_print                           0x000020e5   Thumb Code   176  nrf_fprintf_format.o(i.unsigned_print)
    .constdata                               0x00002198   Section       29  main.o(.constdata)
    default_config                           0x00002198   Data           4  main.o(.constdata)
    m_timer                                  0x0000219c   Data           8  main.o(.constdata)
    .constdata                               0x000021b5   Section       16  nrf_fprintf_format.o(.constdata)
    _aV2C                                    0x000021b5   Data          16  nrf_fprintf_format.o(.constdata)
    .constdata                               0x000021c8   Section       24  nrf_pwr_mgmt.o(.constdata)
    pwr_mgmt_data_array                      0x000021c8   Data          24  nrf_pwr_mgmt.o(.constdata)
    .constdata                               0x000021e0   Section       12  nrf_pwr_mgmt.o(.constdata)
    pwr_mgmt_data                            0x000021e0   Data          12  nrf_pwr_mgmt.o(.constdata)
    .constdata                               0x000021ec   Section       12  nrf_log_backend_rtt.o(.constdata)
    .constdata                               0x00002200   Section        6  nrf_log_backend_rtt.o(.constdata)
    delay_machine_code                       0x00002200   Data           6  nrf_log_backend_rtt.o(.constdata)
    .constdata                               0x00002208   Section       12  nrf_log_frontend.o(.constdata)
    m_log_push_ringbuf                       0x00002208   Data          12  nrf_log_frontend.o(.constdata)
    .constdata                               0x00002214   Section      129  ctype_o.o(.constdata)
    .constdata                               0x00002298   Section        4  ctype_o.o(.constdata)
    table                                    0x00002298   Data           4  ctype_o.o(.constdata)
    .conststring                             0x0000229c   Section      102  nrf_log_str_formatter.o(.conststring)
    .conststrlit                             0x00002304   Section        4  nrfx_ppi.o(.conststrlit)
    .conststrlit                             0x00002308   Section        4  nrfx_prs.o(.conststrlit)
    .conststrlit                             0x0000230c   Section        6  nrfx_saadc.o(.conststrlit)
    .conststrlit                             0x00002314   Section        6  nrfx_timer.o(.conststrlit)
    .conststrlit                             0x0000231c   Section        5  nrfx_uart.o(.conststrlit)
    .conststrlit                             0x00002324   Section        6  nrfx_uarte.o(.conststrlit)
    .conststrlit                             0x0000232c   Section        9  nrf_pwr_mgmt.o(.conststrlit)
    .conststrlit                             0x00002338   Section       16  nrf_log_default_backends.o(.conststrlit)
    .conststrlit                             0x00002348   Section        4  nrf_log_frontend.o(.conststrlit)
    log_backends                             0x0000236c   Section       16  nrf_log_default_backends.o(log_backends)
    __tagsym$$used                           0x0000236c   Number         0  nrf_log_default_backends.o(log_backends)
    rtt_log_backend                          0x0000236c   Data          16  nrf_log_default_backends.o(log_backends)
    log_const_data                           0x0000237c   Section        8  nrfx_ppi.o(log_const_data)
    __tagsym$$used                           0x0000237c   Number         0  nrfx_ppi.o(log_const_data)
    log_const_data                           0x00002384   Section        8  nrfx_prs.o(log_const_data)
    __tagsym$$used                           0x00002384   Number         0  nrfx_prs.o(log_const_data)
    log_const_data                           0x0000238c   Section        8  nrfx_saadc.o(log_const_data)
    __tagsym$$used                           0x0000238c   Number         0  nrfx_saadc.o(log_const_data)
    log_const_data                           0x00002394   Section        8  nrfx_timer.o(log_const_data)
    __tagsym$$used                           0x00002394   Number         0  nrfx_timer.o(log_const_data)
    log_const_data                           0x0000239c   Section        8  nrfx_uart.o(log_const_data)
    __tagsym$$used                           0x0000239c   Number         0  nrfx_uart.o(log_const_data)
    log_const_data                           0x000023a4   Section        8  nrfx_uarte.o(log_const_data)
    __tagsym$$used                           0x000023a4   Number         0  nrfx_uarte.o(log_const_data)
    log_const_data                           0x000023ac   Section        8  nrf_pwr_mgmt.o(log_const_data)
    __tagsym$$used                           0x000023ac   Number         0  nrf_pwr_mgmt.o(log_const_data)
    log_const_data                           0x000023b4   Section        8  nrf_log_frontend.o(log_const_data)
    __tagsym$$used                           0x000023b4   Number         0  nrf_log_frontend.o(log_const_data)
    nrf_balloc                               0x000023bc   Section       20  nrf_log_frontend.o(nrf_balloc)
    __tagsym$$used                           0x000023bc   Number         0  nrf_log_frontend.o(nrf_balloc)
    .data                                    0x20000000   Section        4  system_nrf52810.o(.data)
    __tagsym$$used                           0x20000000   Number         0  system_nrf52810.o(.data)
    .data                                    0x20000004   Section        8  main.o(.data)
    m_ppi_channel                            0x20000004   Data           1  main.o(.data)
    m_adc_evt_counter                        0x20000008   Data           4  main.o(.data)
    .data                                    0x2000000c   Section        1  nrf_drv_ppi.o(.data)
    m_drv_state                              0x2000000c   Data           1  nrf_drv_ppi.o(.data)
    .data                                    0x20000010   Section        8  nrfx_ppi.o(.data)
    m_groups_allocated                       0x20000010   Data           1  nrfx_ppi.o(.data)
    m_channels_allocated                     0x20000014   Data           4  nrfx_ppi.o(.data)
    .data                                    0x20000018   Section        8  nrfx_prs.o(.data)
    m_prs_box_2                              0x20000018   Data           8  nrfx_prs.o(.data)
    .data                                    0x20000020   Section        4  app_util_platform.o(.data)
    m_in_critical_region                     0x20000020   Data           4  app_util_platform.o(.data)
    .data                                    0x20000024   Section        8  nrf_pwr_mgmt.o(.data)
    m_pwr_mgmt_evt                           0x20000024   Data           1  nrf_pwr_mgmt.o(.data)
    m_shutdown_started                       0x20000025   Data           1  nrf_pwr_mgmt.o(.data)
    m_sysoff_mtx                             0x20000028   Data           4  nrf_pwr_mgmt.o(.data)
    .data                                    0x2000002c   Section        1  nrf_log_backend_rtt.o(.data)
    m_host_present                           0x2000002c   Data           1  nrf_log_backend_rtt.o(.data)
    .data                                    0x20000030   Section        8  nrf_log_default_backends.o(.data)
    log_backend_cb_rtt_log_backend           0x20000030   Data           8  nrf_log_default_backends.o(.data)
    .data                                    0x20000038   Section        8  nrf_log_frontend.o(.data)
    log_mempool_nrf_balloc_pool_stack        0x20000038   Data           8  nrf_log_frontend.o(.data)
    .data                                    0x20000040   Section        8  nrf_log_frontend.o(.data)
    log_mempool_nrf_balloc_cb                0x20000040   Data           8  nrf_log_frontend.o(.data)
    .data                                    0x20000048   Section       64  nrf_log_str_formatter.o(.data)
    m_freq                                   0x20000048   Data           4  nrf_log_str_formatter.o(.data)
    m_timestamp_div                          0x2000004c   Data           4  nrf_log_str_formatter.o(.data)
    severity_names                           0x20000050   Data          20  nrf_log_str_formatter.o(.data)
    m_colors                                 0x20000064   Data          36  nrf_log_str_formatter.o(.data)
    .bss                                     0x20000088   Section       20  main.o(.bss)
    m_buffer_pool                            0x20000088   Data          20  main.o(.bss)
    .bss                                     0x2000009c   Section       48  nrfx_saadc.o(.bss)
    m_cb                                     0x2000009c   Data          48  nrfx_saadc.o(.bss)
    .bss                                     0x200000cc   Section       12  nrfx_timer.o(.bss)
    m_cb                                     0x200000cc   Data          12  nrfx_timer.o(.bss)
    .bss                                     0x200000d8   Section       12  nrf_pwr_mgmt.o(.bss)
    m_handlers_iter                          0x200000d8   Data          12  nrf_pwr_mgmt.o(.bss)
    .bss                                     0x200000e4   Section       64  nrf_log_backend_rtt.o(.bss)
    m_string_buff                            0x200000e4   Data          64  nrf_log_backend_rtt.o(.bss)
    .bss                                     0x20000124   Section      192  nrf_log_frontend.o(.bss)
    log_mempool_nrf_balloc_pool_mem          0x20000124   Data         192  nrf_log_frontend.o(.bss)
    .bss                                     0x200001e4   Section      128  nrf_log_frontend.o(.bss)
    m_log_push_ringbuf_buf                   0x200001e4   Data         128  nrf_log_frontend.o(.bss)
    .bss                                     0x20000264   Section       24  nrf_log_frontend.o(.bss)
    m_log_push_ringbuf_cb                    0x20000264   Data          24  nrf_log_frontend.o(.bss)
    .bss                                     0x2000027c   Section     1060  nrf_log_frontend.o(.bss)
    m_log_data                               0x2000027c   Data        1060  nrf_log_frontend.o(.bss)
    .bss                                     0x200006a0   Section      648  segger_rtt.o(.bss)
    _acUpBuffer                              0x20000718   Data         512  segger_rtt.o(.bss)
    _acDownBuffer                            0x20000918   Data          16  segger_rtt.o(.bss)
    STACK                                    0x20000928   Section     2048  arm_startup_nrf52810.o(STACK)

    Global Symbols

    Symbol Name                              Value     Ov Type        Size  Object(Section)

    BuildAttributes$$THM_ISAv4$E$P$D$K$B$S$7EM$PE$A:L22UL41UL21$X:L11$S22US41US21$IEEE1$IW$USESV6$~STKCKD$USESV7$~SHL$OSPACE$EBA8$MICROLIB$REQ8$EABIv2 0x00000000   Number         0  anon$$obj.o ABSOLUTE
    __ARM_use_no_argv                        0x00000000   Number         0  main.o ABSOLUTE
    __Vectors                                0x00000000   Data           4  arm_startup_nrf52810.o(RESET)
    __use_no_errno                           0x00000000   Number         0  useno.o ABSOLUTE
    __use_no_exception_handling              0x00000000   Number         0  useno.o ABSOLUTE
    __use_no_fp                              0x00000000   Number         0  useno.o ABSOLUTE
    __use_no_heap                            0x00000000   Number         0  useno.o ABSOLUTE
    __use_no_heap_region                     0x00000000   Number         0  useno.o ABSOLUTE
    __use_no_semihosting                     0x00000000   Number         0  useno.o ABSOLUTE
    __use_no_semihosting_swi                 0x00000000   Number         0  useno.o ABSOLUTE
    __use_no_signal_handling                 0x00000000   Number         0  useno.o ABSOLUTE
    __cpp_initialize__aeabi_                  - Undefined Weak Reference
    __cxa_finalize                            - Undefined Weak Reference
    __decompress                              - Undefined Weak Reference
    _clock_init                               - Undefined Weak Reference
    _microlib_exit                            - Undefined Weak Reference
    log_dynamic_data$$Base                    - Undefined Reference
    pwr_mgmt_data0$$Base                      - Undefined Reference
    pwr_mgmt_data0$$Limit                     - Undefined Reference
    pwr_mgmt_data1$$Base                      - Undefined Reference
    pwr_mgmt_data1$$Limit                     - Undefined Reference
    pwr_mgmt_data2$$Base                      - Undefined Reference
    pwr_mgmt_data2$$Limit                     - Undefined Reference
    __Vectors_End                            0x00000200   Data           0  arm_startup_nrf52810.o(RESET)
    __Vectors_Size                           0x00000200   Number         0  arm_startup_nrf52810.o ABSOLUTE
    __main                                   0x00000201   Thumb Code     0  entry.o(.ARM.Collect$$$$00000000)
    _main_stk                                0x00000201   Thumb Code     0  entry2.o(.ARM.Collect$$$$00000001)
    _main_scatterload                        0x00000205   Thumb Code     0  entry5.o(.ARM.Collect$$$$00000004)
    __main_after_scatterload                 0x00000209   Thumb Code     0  entry5.o(.ARM.Collect$$$$00000004)
    _main_clock                              0x00000209   Thumb Code     0  entry7b.o(.ARM.Collect$$$$00000008)
    _main_cpp_init                           0x00000209   Thumb Code     0  entry8b.o(.ARM.Collect$$$$0000000A)
    _main_init                               0x00000209   Thumb Code     0  entry9a.o(.ARM.Collect$$$$0000000B)
    __rt_final_cpp                           0x00000211   Thumb Code     0  entry10a.o(.ARM.Collect$$$$0000000D)
    __rt_final_exit                          0x00000211   Thumb Code     0  entry11a.o(.ARM.Collect$$$$0000000F)
    __asm___12_nrf_atomic_c_85ca2469__nrf_atomic_internal_mov 0x00000215   Thumb Code    24  nrf_atomic.o(.emb_text)
    __asm___12_nrf_atomic_c_85ca2469__nrf_atomic_internal_orr 0x0000022d   Thumb Code    26  nrf_atomic.o(.emb_text)
    __asm___12_nrf_atomic_c_85ca2469__nrf_atomic_internal_and 0x00000247   Thumb Code    26  nrf_atomic.o(.emb_text)
    __asm___12_nrf_atomic_c_85ca2469__nrf_atomic_internal_eor 0x00000261   Thumb Code    26  nrf_atomic.o(.emb_text)
    __asm___12_nrf_atomic_c_85ca2469__nrf_atomic_internal_add 0x0000027b   Thumb Code    26  nrf_atomic.o(.emb_text)
    __asm___12_nrf_atomic_c_85ca2469__nrf_atomic_internal_sub 0x00000295   Thumb Code    26  nrf_atomic.o(.emb_text)
    __asm___12_nrf_atomic_c_85ca2469__nrf_atomic_internal_cmp_exch 0x000002af   Thumb Code    42  nrf_atomic.o(.emb_text)
    __asm___12_nrf_atomic_c_85ca2469__nrf_atomic_internal_sub_hs 0x000002d9   Thumb Code    30  nrf_atomic.o(.emb_text)
    Reset_Handler                            0x000002f9   Thumb Code    42  arm_startup_nrf52810.o(.text)
    NMI_Handler                              0x00000323   Thumb Code     2  arm_startup_nrf52810.o(.text)
    HardFault_Handler                        0x00000325   Thumb Code     2  arm_startup_nrf52810.o(.text)
    MemoryManagement_Handler                 0x00000327   Thumb Code     2  arm_startup_nrf52810.o(.text)
    BusFault_Handler                         0x00000329   Thumb Code     2  arm_startup_nrf52810.o(.text)
    UsageFault_Handler                       0x0000032b   Thumb Code     2  arm_startup_nrf52810.o(.text)
    SVC_Handler                              0x0000032d   Thumb Code     2  arm_startup_nrf52810.o(.text)
    DebugMon_Handler                         0x0000032f   Thumb Code     2  arm_startup_nrf52810.o(.text)
    PendSV_Handler                           0x00000331   Thumb Code     2  arm_startup_nrf52810.o(.text)
    SysTick_Handler                          0x00000333   Thumb Code     2  arm_startup_nrf52810.o(.text)
    CCM_AAR_IRQHandler                       0x00000335   Thumb Code     0  arm_startup_nrf52810.o(.text)
    COMP_IRQHandler                          0x00000335   Thumb Code     0  arm_startup_nrf52810.o(.text)
    ECB_IRQHandler                           0x00000335   Thumb Code     0  arm_startup_nrf52810.o(.text)
    GPIOTE_IRQHandler                        0x00000335   Thumb Code     0  arm_startup_nrf52810.o(.text)
    PDM_IRQHandler                           0x00000335   Thumb Code     0  arm_startup_nrf52810.o(.text)
    POWER_CLOCK_IRQHandler                   0x00000335   Thumb Code     0  arm_startup_nrf52810.o(.text)
    PWM0_IRQHandler                          0x00000335   Thumb Code     0  arm_startup_nrf52810.o(.text)
    QDEC_IRQHandler                          0x00000335   Thumb Code     0  arm_startup_nrf52810.o(.text)
    RADIO_IRQHandler                         0x00000335   Thumb Code     0  arm_startup_nrf52810.o(.text)
    RNG_IRQHandler                           0x00000335   Thumb Code     0  arm_startup_nrf52810.o(.text)
    RTC0_IRQHandler                          0x00000335   Thumb Code     0  arm_startup_nrf52810.o(.text)
    RTC1_IRQHandler                          0x00000335   Thumb Code     0  arm_startup_nrf52810.o(.text)
    SPIM0_SPIS0_SPI0_IRQHandler              0x00000335   Thumb Code     0  arm_startup_nrf52810.o(.text)
    SWI0_EGU0_IRQHandler                     0x00000335   Thumb Code     0  arm_startup_nrf52810.o(.text)
    SWI1_EGU1_IRQHandler                     0x00000335   Thumb Code     0  arm_startup_nrf52810.o(.text)
    SWI2_IRQHandler                          0x00000335   Thumb Code     0  arm_startup_nrf52810.o(.text)
    SWI3_IRQHandler                          0x00000335   Thumb Code     0  arm_startup_nrf52810.o(.text)
    SWI4_IRQHandler                          0x00000335   Thumb Code     0  arm_startup_nrf52810.o(.text)
    SWI5_IRQHandler                          0x00000335   Thumb Code     0  arm_startup_nrf52810.o(.text)
    TEMP_IRQHandler                          0x00000335   Thumb Code     0  arm_startup_nrf52810.o(.text)
    TIMER1_IRQHandler                        0x00000335   Thumb Code     0  arm_startup_nrf52810.o(.text)
    TIMER2_IRQHandler                        0x00000335   Thumb Code     0  arm_startup_nrf52810.o(.text)
    TWIM0_TWIS0_TWI0_IRQHandler              0x00000335   Thumb Code     0  arm_startup_nrf52810.o(.text)
    WDT_IRQHandler                           0x00000335   Thumb Code     0  arm_startup_nrf52810.o(.text)
    __aeabi_llsr                             0x0000034d   Thumb Code    32  llushr.o(.text)
    _ll_ushift_r                             0x0000034d   Thumb Code     0  llushr.o(.text)
    __rt_ctype_table                         0x0000036d   Thumb Code     4  ctype_o.o(.text)
    __aeabi_memcpy                           0x00000375   Thumb Code    36  memcpya.o(.text)
    __aeabi_memcpy4                          0x00000375   Thumb Code     0  memcpya.o(.text)
    __aeabi_memcpy8                          0x00000375   Thumb Code     0  memcpya.o(.text)
    __aeabi_memset                           0x00000399   Thumb Code    14  memseta.o(.text)
    __aeabi_memset4                          0x00000399   Thumb Code     0  memseta.o(.text)
    __aeabi_memset8                          0x00000399   Thumb Code     0  memseta.o(.text)
    __aeabi_memclr                           0x000003a7   Thumb Code     4  memseta.o(.text)
    __aeabi_memclr4                          0x000003a7   Thumb Code     0  memseta.o(.text)
    __aeabi_memclr8                          0x000003a7   Thumb Code     0  memseta.o(.text)
    _memset$wrapper                          0x000003ab   Thumb Code    18  memseta.o(.text)
    strlen                                   0x000003bd   Thumb Code    14  strlen.o(.text)
    strcpy                                   0x000003cb   Thumb Code    18  strcpy.o(.text)
    __scatterload                            0x000003dd   Thumb Code    28  init.o(.text)
    __scatterload_rt2                        0x000003dd   Thumb Code     0  init.o(.text)
    SAADC_IRQHandler                         0x00000401   Thumb Code   320  nrfx_saadc.o(i.SAADC_IRQHandler)
    SEGGER_RTT_Init                          0x00000549   Thumb Code     4  segger_rtt.o(i.SEGGER_RTT_Init)
    SEGGER_RTT_WriteNoLock                   0x0000054d   Thumb Code    86  segger_rtt.o(i.SEGGER_RTT_WriteNoLock)
    SystemInit                               0x000005a9   Thumb Code   590  system_nrf52810.o(i.SystemInit)
    TIMER0_IRQHandler                        0x00000835   Thumb Code    70  nrfx_timer.o(i.TIMER0_IRQHandler)
    UARTE0_UART0_IRQHandler                  0x00000885   Thumb Code     6  nrfx_prs.o(i.UARTE0_UART0_IRQHandler)
    __scatterload_copy                       0x000009ab   Thumb Code    14  handlers.o(i.__scatterload_copy)
    __scatterload_null                       0x000009b9   Thumb Code     2  handlers.o(i.__scatterload_null)
    __scatterload_zeroinit                   0x000009bb   Thumb Code    14  handlers.o(i.__scatterload_zeroinit)
    app_error_fault_handler                  0x000009c9   Thumb Code    86  app_error_weak.o(i.app_error_fault_handler)
    app_error_handler_bare                   0x00000a4d   Thumb Code    22  app_error.o(i.app_error_handler_bare)
    app_util_critical_region_enter           0x00000a63   Thumb Code     4  app_util_platform.o(i.app_util_critical_region_enter)
    app_util_critical_region_exit            0x00000a67   Thumb Code     4  app_util_platform.o(i.app_util_critical_region_exit)
    app_util_disable_irq                     0x00000a6d   Thumb Code    12  app_util_platform.o(i.app_util_disable_irq)
    app_util_enable_irq                      0x00000a7d   Thumb Code    14  app_util_platform.o(i.app_util_enable_irq)
    buffer_is_empty                          0x00000b49   Thumb Code    16  nrf_log_frontend.o(i.buffer_is_empty)
    main                                     0x00000df1   Thumb Code    74  main.o(i.main)
    nrf_atomic_flag_clear_fetch              0x00000f19   Thumb Code     6  nrf_atomic.o(i.nrf_atomic_flag_clear_fetch)
    nrf_atomic_flag_set                      0x00000f1f   Thumb Code     6  nrf_atomic.o(i.nrf_atomic_flag_set)
    nrf_atomic_u32_add                       0x00000f25   Thumb Code    12  nrf_atomic.o(i.nrf_atomic_u32_add)
    nrf_atomic_u32_fetch_and                 0x00000f31   Thumb Code    10  nrf_atomic.o(i.nrf_atomic_u32_fetch_and)
    nrf_atomic_u32_fetch_store               0x00000f3b   Thumb Code    10  nrf_atomic.o(i.nrf_atomic_u32_fetch_store)
    nrf_atomic_u32_or                        0x00000f45   Thumb Code    12  nrf_atomic.o(i.nrf_atomic_u32_or)
    nrf_atomic_u32_sub                       0x00000f51   Thumb Code    12  nrf_atomic.o(i.nrf_atomic_u32_sub)
    nrf_balloc_alloc                         0x00000f5d   Thumb Code    62  nrf_balloc.o(i.nrf_balloc_alloc)
    nrf_balloc_free                          0x00000f9b   Thumb Code    42  nrf_balloc.o(i.nrf_balloc_free)
    nrf_balloc_init                          0x00000fc5   Thumb Code    48  nrf_balloc.o(i.nrf_balloc_init)
    nrf_drv_ppi_init                         0x00000ff5   Thumb Code    18  nrf_drv_ppi.o(i.nrf_drv_ppi_init)
    nrf_fprintf                              0x0000100d   Thumb Code    26  nrf_fprintf.o(i.nrf_fprintf)
    nrf_fprintf_buffer_flush                 0x00001027   Thumb Code    24  nrf_fprintf.o(i.nrf_fprintf_buffer_flush)
    nrf_fprintf_fmt                          0x0000103f   Thumb Code   474  nrf_fprintf_format.o(i.nrf_fprintf_fmt)
    nrf_log_backend_add                      0x00001219   Thumb Code    86  nrf_log_frontend.o(i.nrf_log_backend_add)
    nrf_log_backend_rtt_init                 0x00001277   Thumb Code     4  nrf_log_backend_rtt.o(i.nrf_log_backend_rtt_init)
    nrf_log_backend_serial_put               0x00001295   Thumb Code   200  nrf_log_backend_serial.o(i.nrf_log_backend_serial_put)
    nrf_log_color_id_get                     0x0000135d   Thumb Code    42  nrf_log_frontend.o(i.nrf_log_color_id_get)
    nrf_log_default_backends_init            0x0000138d   Thumb Code    24  nrf_log_default_backends.o(i.nrf_log_default_backends_init)
    nrf_log_frontend_dequeue                 0x000013a9   Thumb Code   522  nrf_log_frontend.o(i.nrf_log_frontend_dequeue)
    nrf_log_frontend_std_0                   0x000015d9   Thumb Code     8  nrf_log_frontend.o(i.nrf_log_frontend_std_0)
    nrf_log_frontend_std_1                   0x000015e1   Thumb Code    14  nrf_log_frontend.o(i.nrf_log_frontend_std_1)
    nrf_log_hexdump_entry_process            0x000015f1   Thumb Code   150  nrf_log_str_formatter.o(i.nrf_log_hexdump_entry_process)
    nrf_log_init                             0x000016a1   Thumb Code    46  nrf_log_frontend.o(i.nrf_log_init)
    nrf_log_module_cnt_get                   0x000016dd   Thumb Code    10  nrf_log_frontend.o(i.nrf_log_module_cnt_get)
    nrf_log_module_name_get                  0x000016f1   Thumb Code    24  nrf_log_frontend.o(i.nrf_log_module_name_get)
    nrf_log_panic                            0x0000170d   Thumb Code    38  nrf_log_frontend.o(i.nrf_log_panic)
    nrf_log_std_entry_process                0x00001739   Thumb Code   182  nrf_log_str_formatter.o(i.nrf_log_std_entry_process)
    nrf_memobj_alloc                         0x000017ef   Thumb Code    96  nrf_memobj.o(i.nrf_memobj_alloc)
    nrf_memobj_free                          0x0000184f   Thumb Code    50  nrf_memobj.o(i.nrf_memobj_free)
    nrf_memobj_get                           0x00001881   Thumb Code     8  nrf_memobj.o(i.nrf_memobj_get)
    nrf_memobj_pool_init                     0x00001889   Thumb Code     4  nrf_memobj.o(i.nrf_memobj_pool_init)
    nrf_memobj_put                           0x0000188d   Thumb Code    30  nrf_memobj.o(i.nrf_memobj_put)
    nrf_memobj_read                          0x000018ab   Thumb Code    16  nrf_memobj.o(i.nrf_memobj_read)
    nrf_memobj_write                         0x000018bb   Thumb Code    16  nrf_memobj.o(i.nrf_memobj_write)
    nrf_pwr_mgmt_init                        0x000018cd   Thumb Code    28  nrf_pwr_mgmt.o(i.nrf_pwr_mgmt_init)
    nrf_pwr_mgmt_run                         0x000018f5   Thumb Code     8  nrf_pwr_mgmt.o(i.nrf_pwr_mgmt_run)
    nrf_ringbuf_init                         0x000018fd   Thumb Code    28  nrf_ringbuf.o(i.nrf_ringbuf_init)
    nrf_section_iter_init                    0x00001961   Thumb Code    10  nrf_section_iter.o(i.nrf_section_iter_init)
    nrfx_ppi_channel_alloc                   0x0000199d   Thumb Code    88  nrfx_ppi.o(i.nrfx_ppi_channel_alloc)
    nrfx_ppi_channel_assign                  0x000019fd   Thumb Code    62  nrfx_ppi.o(i.nrfx_ppi_channel_assign)
    nrfx_ppi_channel_enable                  0x00001a41   Thumb Code    36  nrfx_ppi.o(i.nrfx_ppi_channel_enable)
    nrfx_saadc_buffer_convert                0x00001a69   Thumb Code   154  nrfx_saadc.o(i.nrfx_saadc_buffer_convert)
    nrfx_saadc_channel_init                  0x00001b0d   Thumb Code   160  nrfx_saadc.o(i.nrfx_saadc_channel_init)
    nrfx_saadc_init                          0x00001bb9   Thumb Code   130  nrfx_saadc.o(i.nrfx_saadc_init)
    nrfx_saadc_sample_task_get               0x00001c4d   Thumb Code    20  nrfx_saadc.o(i.nrfx_saadc_sample_task_get)
    nrfx_timer_compare                       0x00001c69   Thumb Code    58  nrfx_timer.o(i.nrfx_timer_compare)
    nrfx_timer_enable                        0x00001ca5   Thumb Code    24  nrfx_timer.o(i.nrfx_timer_enable)
    nrfx_timer_extended_compare              0x00001cc1   Thumb Code    42  nrfx_timer.o(i.nrfx_timer_extended_compare)
    nrfx_timer_init                          0x00001ced   Thumb Code   184  nrfx_timer.o(i.nrfx_timer_init)
    saadc_callback                           0x00001e7d   Thumb Code    84  main.o(i.saadc_callback)
    saadc_init                               0x00001ef9   Thumb Code    74  main.o(i.saadc_init)
    saadc_sampling_event_enable              0x00001f51   Thumb Code    24  main.o(i.saadc_sampling_event_enable)
    saadc_sampling_event_init                0x00001f6d   Thumb Code   134  main.o(i.saadc_sampling_event_init)
    timer_handler                            0x000020e1   Thumb Code     2  main.o(i.timer_handler)
    nrf_log_backend_rtt_api                  0x000021ec   Data          12  nrf_log_backend_rtt.o(.constdata)
    __ctype_table                            0x00002214   Data         129  ctype_o.o(.constdata)
    Region$$Table$$Base                      0x0000234c   Number         0  anon$$obj.o(Region$$Table)
    Region$$Table$$Limit                     0x0000236c   Number         0  anon$$obj.o(Region$$Table)
    log_const_data$$Base                     0x0000237c   Number         0  nrfx_ppi.o(log_const_data)
    m_nrf_log_PPI_logs_data_const            0x0000237c   Data           8  nrfx_ppi.o(log_const_data)
    m_nrf_log_PRS_logs_data_const            0x00002384   Data           8  nrfx_prs.o(log_const_data)
    m_nrf_log_SAADC_logs_data_const          0x0000238c   Data           8  nrfx_saadc.o(log_const_data)
    m_nrf_log_TIMER_logs_data_const          0x00002394   Data           8  nrfx_timer.o(log_const_data)
    m_nrf_log_UART_logs_data_const           0x0000239c   Data           8  nrfx_uart.o(log_const_data)
    m_nrf_log_UARTE_logs_data_const          0x000023a4   Data           8  nrfx_uarte.o(log_const_data)
    m_nrf_log_pwr_mgmt_logs_data_const       0x000023ac   Data           8  nrf_pwr_mgmt.o(log_const_data)
    m_nrf_log_app_logs_data_const            0x000023b4   Data           8  nrf_log_frontend.o(log_const_data)
    log_const_data$$Limit                    0x000023bc   Number         0  nrf_log_frontend.o(log_const_data)
    log_mempool                              0x000023bc   Data          20  nrf_log_frontend.o(nrf_balloc)
    SystemCoreClock                          0x20000000   Data           4  system_nrf52810.o(.data)
    _SEGGER_RTT                              0x200006a0   Data         120  segger_rtt.o(.bss)
    __initial_sp                             0x20001128   Data           0  arm_startup_nrf52810.o(STACK)



==============================================================================

Memory Map of the image

  Image Entry point : 0x00000201

  Load Region LR_IROM1 (Base: 0x00000000, Size: 0x00002458, Max: 0x00030000, ABSOLUTE)

    Execution Region ER_IROM1 (Exec base: 0x00000000, Load base: 0x00000000, Size: 0x000023d0, Max: 0x00030000, ABSOLUTE)

    Exec Addr    Load Addr    Size         Type   Attr      Idx    E Section Name        Object

    0x00000000   0x00000000   0x00000200   Data   RO            3    RESET               arm_startup_nrf52810.o
    0x00000200   0x00000200   0x00000000   Code   RO         3020  * .ARM.Collect$$$$00000000  mc_w.l(entry.o)
    0x00000200   0x00000200   0x00000004   Code   RO         3070    .ARM.Collect$$$$00000001  mc_w.l(entry2.o)
    0x00000204   0x00000204   0x00000004   Code   RO         3073    .ARM.Collect$$$$00000004  mc_w.l(entry5.o)
    0x00000208   0x00000208   0x00000000   Code   RO         3075    .ARM.Collect$$$$00000008  mc_w.l(entry7b.o)
    0x00000208   0x00000208   0x00000000   Code   RO         3077    .ARM.Collect$$$$0000000A  mc_w.l(entry8b.o)
    0x00000208   0x00000208   0x00000008   Code   RO         3078    .ARM.Collect$$$$0000000B  mc_w.l(entry9a.o)
    0x00000210   0x00000210   0x00000000   Code   RO         3080    .ARM.Collect$$$$0000000D  mc_w.l(entry10a.o)
    0x00000210   0x00000210   0x00000000   Code   RO         3082    .ARM.Collect$$$$0000000F  mc_w.l(entry11a.o)
    0x00000210   0x00000210   0x00000004   Code   RO         3071    .ARM.Collect$$$$00002712  mc_w.l(entry2.o)
    0x00000214   0x00000214   0x000000e2   Code   RO         1734    .emb_text           nrf_atomic.o
    0x000002f6   0x000002f6   0x00000002   PAD
    0x000002f8   0x000002f8   0x00000054   Code   RO            4    .text               arm_startup_nrf52810.o
    0x0000034c   0x0000034c   0x00000020   Code   RO         3028    .text               mc_w.l(llushr.o)
    0x0000036c   0x0000036c   0x00000008   Code   RO         3030    .text               mc_w.l(ctype_o.o)
    0x00000374   0x00000374   0x00000024   Code   RO         3058    .text               mc_w.l(memcpya.o)
    0x00000398   0x00000398   0x00000024   Code   RO         3060    .text               mc_w.l(memseta.o)
    0x000003bc   0x000003bc   0x0000000e   Code   RO         3062    .text               mc_w.l(strlen.o)
    0x000003ca   0x000003ca   0x00000012   Code   RO         3066    .text               mc_w.l(strcpy.o)
    0x000003dc   0x000003dc   0x00000024   Code   RO         3086    .text               mc_w.l(init.o)
    0x00000400   0x00000400   0x00000148   Code   RO          912    i.SAADC_IRQHandler  nrfx_saadc.o
    0x00000548   0x00000548   0x00000004   Code   RO         2676    i.SEGGER_RTT_Init   segger_rtt.o
    0x0000054c   0x0000054c   0x0000005c   Code   RO         2690    i.SEGGER_RTT_WriteNoLock  segger_rtt.o
    0x000005a8   0x000005a8   0x0000028c   Code   RO           14    i.SystemInit        system_nrf52810.o
    0x00000834   0x00000834   0x00000050   Code   RO         1071    i.TIMER0_IRQHandler  nrfx_timer.o
    0x00000884   0x00000884   0x0000000c   Code   RO          858    i.UARTE0_UART0_IRQHandler  nrfx_prs.o
    0x00000890   0x00000890   0x00000068   Code   RO         2694    i._DoInit           segger_rtt.o
    0x000008f8   0x000008f8   0x00000016   Code   RO         2695    i._GetAvailWriteSpace  segger_rtt.o
    0x0000090e   0x0000090e   0x0000005a   Code   RO         2697    i._WriteBlocking    segger_rtt.o
    0x00000968   0x00000968   0x00000042   Code   RO         2698    i._WriteNoCheck     segger_rtt.o
    0x000009aa   0x000009aa   0x0000000e   Code   RO         3090    i.__scatterload_copy  mc_w.l(handlers.o)
    0x000009b8   0x000009b8   0x00000002   Code   RO         3091    i.__scatterload_null  mc_w.l(handlers.o)
    0x000009ba   0x000009ba   0x0000000e   Code   RO         3092    i.__scatterload_zeroinit  mc_w.l(handlers.o)
    0x000009c8   0x000009c8   0x00000084   Code   RO         1617    i.app_error_fault_handler  app_error_weak.o
    0x00000a4c   0x00000a4c   0x00000016   Code   RO         1548    i.app_error_handler_bare  app_error.o
    0x00000a62   0x00000a62   0x00000004   Code   RO         1645    i.app_util_critical_region_enter  app_util_platform.o
    0x00000a66   0x00000a66   0x00000004   Code   RO         1646    i.app_util_critical_region_exit  app_util_platform.o
    0x00000a6a   0x00000a6a   0x00000002   PAD
    0x00000a6c   0x00000a6c   0x00000010   Code   RO         1647    i.app_util_disable_irq  app_util_platform.o
    0x00000a7c   0x00000a7c   0x00000014   Code   RO         1648    i.app_util_enable_irq  app_util_platform.o
    0x00000a90   0x00000a90   0x00000088   Code   RO         2431    i.buf_prealloc      nrf_log_frontend.o
    0x00000b18   0x00000b18   0x0000002e   Code   RO         1949    i.buffer_add        nrf_fprintf_format.o
    0x00000b46   0x00000b46   0x00000002   PAD
    0x00000b48   0x00000b48   0x00000014   Code   RO         2432    i.buffer_is_empty   nrf_log_frontend.o
    0x00000b5c   0x00000b5c   0x00000014   Code   RO         2433    i.dropped_sat16_get  nrf_log_frontend.o
    0x00000b70   0x00000b70   0x0000004c   Code   RO           15    i.errata_136        system_nrf52810.o
    0x00000bbc   0x00000bbc   0x0000004c   Code   RO           16    i.errata_31         system_nrf52810.o
    0x00000c08   0x00000c08   0x0000004c   Code   RO           17    i.errata_36         system_nrf52810.o
    0x00000c54   0x00000c54   0x000000a6   Code   RO         1950    i.int_print         nrf_fprintf_format.o
    0x00000cfa   0x00000cfa   0x00000034   Code   RO         2434    i.invalid_packets_omit  nrf_log_frontend.o
    0x00000d2e   0x00000d2e   0x00000002   PAD
    0x00000d30   0x00000d30   0x00000018   Code   RO          706    i.is_allocated_channel  nrfx_ppi.o
    0x00000d48   0x00000d48   0x0000000c   Code   RO          709    i.is_programmable_app_channel  nrfx_ppi.o
    0x00000d54   0x00000d54   0x0000009c   Code   RO         2435    i.log_skip          nrf_log_frontend.o
    0x00000df0   0x00000df0   0x00000078   Code   RO          111    i.main              main.o
    0x00000e68   0x00000e68   0x0000007e   Code   RO         1989    i.memobj_op         nrf_memobj.o
    0x00000ee6   0x00000ee6   0x00000002   PAD
    0x00000ee8   0x00000ee8   0x00000030   Code   RO         2436    i.module_idx_get    nrf_log_frontend.o
    0x00000f18   0x00000f18   0x00000006   Code   RO         1736    i.nrf_atomic_flag_clear_fetch  nrf_atomic.o
    0x00000f1e   0x00000f1e   0x00000006   Code   RO         1737    i.nrf_atomic_flag_set  nrf_atomic.o
    0x00000f24   0x00000f24   0x0000000c   Code   RO         1739    i.nrf_atomic_u32_add  nrf_atomic.o
    0x00000f30   0x00000f30   0x0000000a   Code   RO         1743    i.nrf_atomic_u32_fetch_and  nrf_atomic.o
    0x00000f3a   0x00000f3a   0x0000000a   Code   RO         1745    i.nrf_atomic_u32_fetch_store  nrf_atomic.o
    0x00000f44   0x00000f44   0x0000000c   Code   RO         1749    i.nrf_atomic_u32_or  nrf_atomic.o
    0x00000f50   0x00000f50   0x0000000c   Code   RO         1751    i.nrf_atomic_u32_sub  nrf_atomic.o
    0x00000f5c   0x00000f5c   0x0000003e   Code   RO         1873    i.nrf_balloc_alloc  nrf_balloc.o
    0x00000f9a   0x00000f9a   0x0000002a   Code   RO         1874    i.nrf_balloc_free   nrf_balloc.o
    0x00000fc4   0x00000fc4   0x00000030   Code   RO         1875    i.nrf_balloc_init   nrf_balloc.o
    0x00000ff4   0x00000ff4   0x00000018   Code   RO          477    i.nrf_drv_ppi_init  nrf_drv_ppi.o
    0x0000100c   0x0000100c   0x0000001a   Code   RO         1910    i.nrf_fprintf       nrf_fprintf.o
    0x00001026   0x00001026   0x00000018   Code   RO         1911    i.nrf_fprintf_buffer_flush  nrf_fprintf.o
    0x0000103e   0x0000103e   0x000001da   Code   RO         1951    i.nrf_fprintf_fmt   nrf_fprintf_format.o
    0x00001218   0x00001218   0x0000005c   Code   RO         2437    i.nrf_log_backend_add  nrf_log_frontend.o
    0x00001274   0x00001274   0x00000002   Code   RO         2274    i.nrf_log_backend_rtt_flush  nrf_log_backend_rtt.o
    0x00001276   0x00001276   0x00000004   Code   RO         2275    i.nrf_log_backend_rtt_init  nrf_log_backend_rtt.o
    0x0000127a   0x0000127a   0x00000002   Code   RO         2276    i.nrf_log_backend_rtt_panic_set  nrf_log_backend_rtt.o
    0x0000127c   0x0000127c   0x00000018   Code   RO         2277    i.nrf_log_backend_rtt_put  nrf_log_backend_rtt.o
    0x00001294   0x00001294   0x000000c8   Code   RO         2343    i.nrf_log_backend_serial_put  nrf_log_backend_serial.o
    0x0000135c   0x0000135c   0x00000030   Code   RO         2439    i.nrf_log_color_id_get  nrf_log_frontend.o
    0x0000138c   0x0000138c   0x0000001c   Code   RO         2395    i.nrf_log_default_backends_init  nrf_log_default_backends.o
    0x000013a8   0x000013a8   0x00000230   Code   RO         2440    i.nrf_log_frontend_dequeue  nrf_log_frontend.o
    0x000015d8   0x000015d8   0x00000008   Code   RO         2442    i.nrf_log_frontend_std_0  nrf_log_frontend.o
    0x000015e0   0x000015e0   0x0000000e   Code   RO         2443    i.nrf_log_frontend_std_1  nrf_log_frontend.o
    0x000015ee   0x000015ee   0x00000002   PAD
    0x000015f0   0x000015f0   0x000000b0   Code   RO         2617    i.nrf_log_hexdump_entry_process  nrf_log_str_formatter.o
    0x000016a0   0x000016a0   0x0000003c   Code   RO         2449    i.nrf_log_init      nrf_log_frontend.o
    0x000016dc   0x000016dc   0x00000014   Code   RO         2450    i.nrf_log_module_cnt_get  nrf_log_frontend.o
    0x000016f0   0x000016f0   0x0000001c   Code   RO         2453    i.nrf_log_module_name_get  nrf_log_frontend.o
    0x0000170c   0x0000170c   0x0000002c   Code   RO         2454    i.nrf_log_panic     nrf_log_frontend.o
    0x00001738   0x00001738   0x000000b6   Code   RO         2618    i.nrf_log_std_entry_process  nrf_log_str_formatter.o
    0x000017ee   0x000017ee   0x00000060   Code   RO         1990    i.nrf_memobj_alloc  nrf_memobj.o
    0x0000184e   0x0000184e   0x00000032   Code   RO         1991    i.nrf_memobj_free   nrf_memobj.o
    0x00001880   0x00001880   0x00000008   Code   RO         1992    i.nrf_memobj_get    nrf_memobj.o
    0x00001888   0x00001888   0x00000004   Code   RO         1993    i.nrf_memobj_pool_init  nrf_memobj.o
    0x0000188c   0x0000188c   0x0000001e   Code   RO         1994    i.nrf_memobj_put    nrf_memobj.o
    0x000018aa   0x000018aa   0x00000010   Code   RO         1995    i.nrf_memobj_read   nrf_memobj.o
    0x000018ba   0x000018ba   0x00000010   Code   RO         1996    i.nrf_memobj_write  nrf_memobj.o
    0x000018ca   0x000018ca   0x00000002   PAD
    0x000018cc   0x000018cc   0x00000028   Code   RO         2068    i.nrf_pwr_mgmt_init  nrf_pwr_mgmt.o
    0x000018f4   0x000018f4   0x00000008   Code   RO         2069    i.nrf_pwr_mgmt_run  nrf_pwr_mgmt.o
    0x000018fc   0x000018fc   0x0000001c   Code   RO         2148    i.nrf_ringbuf_init  nrf_ringbuf.o
    0x00001918   0x00001918   0x00000010   Code   RO          913    i.nrf_saadc_buffer_init  nrfx_saadc.o
    0x00001928   0x00001928   0x00000014   Code   RO          914    i.nrf_saadc_channel_input_set  nrfx_saadc.o
    0x0000193c   0x0000193c   0x00000010   Code   RO          915    i.nrf_saadc_event_check  nrfx_saadc.o
    0x0000194c   0x0000194c   0x00000014   Code   RO          916    i.nrf_saadc_event_clear  nrfx_saadc.o
    0x00001960   0x00001960   0x0000000a   Code   RO         2206    i.nrf_section_iter_init  nrf_section_iter.o
    0x0000196a   0x0000196a   0x00000024   Code   RO         2207    i.nrf_section_iter_item_set  nrf_section_iter.o
    0x0000198e   0x0000198e   0x0000000c   Code   RO         1072    i.nrf_timer_event_clear  nrfx_timer.o
    0x0000199a   0x0000199a   0x00000002   PAD
    0x0000199c   0x0000199c   0x00000060   Code   RO          710    i.nrfx_ppi_channel_alloc  nrfx_ppi.o
    0x000019fc   0x000019fc   0x00000044   Code   RO          711    i.nrfx_ppi_channel_assign  nrfx_ppi.o
    0x00001a40   0x00001a40   0x00000028   Code   RO          713    i.nrfx_ppi_channel_enable  nrfx_ppi.o
    0x00001a68   0x00001a68   0x000000a4   Code   RO          920    i.nrfx_saadc_buffer_convert  nrfx_saadc.o
    0x00001b0c   0x00001b0c   0x000000ac   Code   RO          922    i.nrfx_saadc_channel_init  nrfx_saadc.o
    0x00001bb8   0x00001bb8   0x00000094   Code   RO          924    i.nrfx_saadc_init   nrfx_saadc.o
    0x00001c4c   0x00001c4c   0x0000001c   Code   RO          929    i.nrfx_saadc_sample_task_get  nrfx_saadc.o
    0x00001c68   0x00001c68   0x0000003a   Code   RO         1075    i.nrfx_timer_compare  nrfx_timer.o
    0x00001ca2   0x00001ca2   0x00000002   PAD
    0x00001ca4   0x00001ca4   0x0000001c   Code   RO         1079    i.nrfx_timer_enable  nrfx_timer.o
    0x00001cc0   0x00001cc0   0x0000002a   Code   RO         1080    i.nrfx_timer_extended_compare  nrfx_timer.o
    0x00001cea   0x00001cea   0x00000002   PAD
    0x00001cec   0x00001cec   0x000000bc   Code   RO         1082    i.nrfx_timer_init   nrfx_timer.o
    0x00001da8   0x00001da8   0x0000003c   Code   RO         2620    i.postfix_process   nrf_log_str_formatter.o
    0x00001de4   0x00001de4   0x00000098   Code   RO         2621    i.prefix_process    nrf_log_str_formatter.o
    0x00001e7c   0x00001e7c   0x0000007c   Code   RO          112    i.saadc_callback    main.o
    0x00001ef8   0x00001ef8   0x00000058   Code   RO          113    i.saadc_init        main.o
    0x00001f50   0x00001f50   0x0000001c   Code   RO          114    i.saadc_sampling_event_enable  main.o
    0x00001f6c   0x00001f6c   0x00000098   Code   RO          115    i.saadc_sampling_event_init  main.o
    0x00002004   0x00002004   0x00000050   Code   RO         2278    i.serial_tx         nrf_log_backend_rtt.o
    0x00002054   0x00002054   0x0000008c   Code   RO         2456    i.std_n             nrf_log_frontend.o
    0x000020e0   0x000020e0   0x00000002   Code   RO          116    i.timer_handler     main.o
    0x000020e2   0x000020e2   0x00000002   PAD
    0x000020e4   0x000020e4   0x000000b4   Code   RO         1952    i.unsigned_print    nrf_fprintf_format.o
    0x00002198   0x00002198   0x0000001d   Data   RO          118    .constdata          main.o
    0x000021b5   0x000021b5   0x00000010   Data   RO         1953    .constdata          nrf_fprintf_format.o
    0x000021c5   0x000021c5   0x00000003   PAD
    0x000021c8   0x000021c8   0x00000018   Data   RO         2073    .constdata          nrf_pwr_mgmt.o
    0x000021e0   0x000021e0   0x0000000c   Data   RO         2074    .constdata          nrf_pwr_mgmt.o
    0x000021ec   0x000021ec   0x0000000c   Data   RO         2280    .constdata          nrf_log_backend_rtt.o
    0x000021f8   0x000021f8   0x00000008   PAD
    0x00002200   0x00002200   0x00000006   Data   RO         2281    .constdata          nrf_log_backend_rtt.o
    0x00002206   0x00002206   0x00000002   PAD
    0x00002208   0x00002208   0x0000000c   Data   RO         2461    .constdata          nrf_log_frontend.o
    0x00002214   0x00002214   0x00000081   Data   RO         3031    .constdata          mc_w.l(ctype_o.o)
    0x00002295   0x00002295   0x00000003   PAD
    0x00002298   0x00002298   0x00000004   Data   RO         3032    .constdata          mc_w.l(ctype_o.o)
    0x0000229c   0x0000229c   0x00000066   Data   RO         2622    .conststring        nrf_log_str_formatter.o
    0x00002302   0x00002302   0x00000002   PAD
    0x00002304   0x00002304   0x00000004   Data   RO          735    .conststrlit        nrfx_ppi.o
    0x00002308   0x00002308   0x00000004   Data   RO          863    .conststrlit        nrfx_prs.o
    0x0000230c   0x0000230c   0x00000006   Data   RO          940    .conststrlit        nrfx_saadc.o
    0x00002312   0x00002312   0x00000002   PAD
    0x00002314   0x00002314   0x00000006   Data   RO         1089    .conststrlit        nrfx_timer.o
    0x0000231a   0x0000231a   0x00000002   PAD
    0x0000231c   0x0000231c   0x00000005   Data   RO         1234    .conststrlit        nrfx_uart.o
    0x00002321   0x00002321   0x00000003   PAD
    0x00002324   0x00002324   0x00000006   Data   RO         1415    .conststrlit        nrfx_uarte.o
    0x0000232a   0x0000232a   0x00000002   PAD
    0x0000232c   0x0000232c   0x00000009   Data   RO         2075    .conststrlit        nrf_pwr_mgmt.o
    0x00002335   0x00002335   0x00000003   PAD
    0x00002338   0x00002338   0x00000010   Data   RO         2396    .conststrlit        nrf_log_default_backends.o
    0x00002348   0x00002348   0x00000004   Data   RO         2462    .conststrlit        nrf_log_frontend.o
    0x0000234c   0x0000234c   0x00000020   Data   RO         3088    Region$$Table       anon$$obj.o
    0x0000236c   0x0000236c   0x00000010   Data   RO         2398    log_backends        nrf_log_default_backends.o
    0x0000237c   0x0000237c   0x00000008   Data   RO          737    log_const_data      nrfx_ppi.o
    0x00002384   0x00002384   0x00000008   Data   RO          865    log_const_data      nrfx_prs.o
    0x0000238c   0x0000238c   0x00000008   Data   RO          941    log_const_data      nrfx_saadc.o
    0x00002394   0x00002394   0x00000008   Data   RO         1090    log_const_data      nrfx_timer.o
    0x0000239c   0x0000239c   0x00000008   Data   RO         1235    log_const_data      nrfx_uart.o
    0x000023a4   0x000023a4   0x00000008   Data   RO         1416    log_const_data      nrfx_uarte.o
    0x000023ac   0x000023ac   0x00000008   Data   RO         2077    log_const_data      nrf_pwr_mgmt.o
    0x000023b4   0x000023b4   0x00000008   Data   RO         2465    log_const_data      nrf_log_frontend.o
    0x000023bc   0x000023bc   0x00000014   Data   RO         2466    nrf_balloc          nrf_log_frontend.o


    Execution Region RW_IRAM1 (Exec base: 0x20000000, Load base: 0x000023d0, Size: 0x00001128, Max: 0x00006000, ABSOLUTE)

    Exec Addr    Load Addr    Size         Type   Attr      Idx    E Section Name        Object

    0x20000000   0x000023d0   0x00000004   Data   RW           18    .data               system_nrf52810.o
    0x20000004   0x000023d4   0x00000008   Data   RW          120    .data               main.o
    0x2000000c   0x000023dc   0x00000001   Data   RW          479    .data               nrf_drv_ppi.o
    0x2000000d   0x000023dd   0x00000003   PAD
    0x20000010   0x000023e0   0x00000008   Data   RW          736    .data               nrfx_ppi.o
    0x20000018   0x000023e8   0x00000008   Data   RW          864    .data               nrfx_prs.o
    0x20000020   0x000023f0   0x00000004   Data   RW         1651    .data               app_util_platform.o
    0x20000024   0x000023f4   0x00000008   Data   RW         2076    .data               nrf_pwr_mgmt.o
    0x2000002c   0x000023fc   0x00000001   Data   RW         2282    .data               nrf_log_backend_rtt.o
    0x2000002d   0x000023fd   0x00000003   PAD
    0x20000030   0x00002400   0x00000008   Data   RW         2397    .data               nrf_log_default_backends.o
    0x20000038   0x00002408   0x00000008   Data   RW         2463    .data               nrf_log_frontend.o
    0x20000040   0x00002410   0x00000008   Data   RW         2464    .data               nrf_log_frontend.o
    0x20000048   0x00002418   0x00000040   Data   RW         2623    .data               nrf_log_str_formatter.o
    0x20000088        -       0x00000014   Zero   RW          117    .bss                main.o
    0x2000009c        -       0x00000030   Zero   RW          931    .bss                nrfx_saadc.o
    0x200000cc        -       0x0000000c   Zero   RW         1087    .bss                nrfx_timer.o
    0x200000d8        -       0x0000000c   Zero   RW         2072    .bss                nrf_pwr_mgmt.o
    0x200000e4        -       0x00000040   Zero   RW         2279    .bss                nrf_log_backend_rtt.o
    0x20000124        -       0x000000c0   Zero   RW         2457    .bss                nrf_log_frontend.o
    0x200001e4        -       0x00000080   Zero   RW         2458    .bss                nrf_log_frontend.o
    0x20000264        -       0x00000018   Zero   RW         2459    .bss                nrf_log_frontend.o
    0x2000027c        -       0x00000424   Zero   RW         2460    .bss                nrf_log_frontend.o
    0x200006a0        -       0x00000288   Zero   RW         2699    .bss                segger_rtt.o
    0x20000928        -       0x00000800   Zero   RW            1    STACK               arm_startup_nrf52810.o


==============================================================================

Image component sizes


      Code (inc. data)   RO Data    RW Data    ZI Data      Debug   Object Name

        22          0          0          0          0       2341   app_error.o
         0          0          0          0          0        412   app_error_handler_keil.o
       132         46          0          0          0      24961   app_error_weak.o
        44         10          0          4          0       2936   app_util_platform.o
        84         22        512          0       2048        912   arm_startup_nrf52810.o
         0          0          0          0          0       5980   boards.o
       514        122         29          8         20      62640   main.o
       294          0          0          0          0       7131   nrf_atomic.o
       152          0          0          0          0       3276   nrf_balloc.o
        24          6          0          1          0        843   nrf_drv_ppi.o
        50          0          0          0          0       3333   nrf_fprintf.o
       866          4         16          0          0       6194   nrf_fprintf_format.o
       112         18         18          1         64       5577   nrf_log_backend_rtt.o
       200          0          0          0          0      10689   nrf_log_backend_serial.o
        28          4         32          8          0       3193   nrf_log_default_backends.o
      1446        116         44         16       1404      27353   nrf_log_frontend.o
       570        108        102         64          0       5264   nrf_log_str_formatter.o
       346          0          0          0          0       8883   nrf_memobj.o
        48         12         53          8         12       6139   nrf_pwr_mgmt.o
        28          0          0          0          0       2219   nrf_ringbuf.o
        46          0          0          0          0       1852   nrf_section_iter.o
       240         22         12          8          0      11313   nrfx_ppi.o
        12          6         12          8          0       1974   nrfx_prs.o
       912         74         14          0         48      45434   nrfx_saadc.o
       408         18         14          0         12      15716   nrfx_timer.o
         0          0         13          0          0       7228   nrfx_uart.o
         0          0         14          0          0      10470   nrfx_uarte.o
       378         34          0          0        648       8486   segger_rtt.o
       880         80          0          4          0      32015   system_nrf52810.o

    ----------------------------------------------------------------------
      7858        702        944        136       4256     324764   Object Totals
         0          0         32          0          0          0   (incl. Generated)
        22          0         27          6          0          0   (incl. Padding)

    ----------------------------------------------------------------------

      Code (inc. data)   RO Data    RW Data    ZI Data      Debug   Library Member Name

         8          4        133          0          0         68   ctype_o.o
         0          0          0          0          0          0   entry.o
         0          0          0          0          0          0   entry10a.o
         0          0          0          0          0          0   entry11a.o
         8          4          0          0          0          0   entry2.o
         4          0          0          0          0          0   entry5.o
         0          0          0          0          0          0   entry7b.o
         0          0          0          0          0          0   entry8b.o
         8          4          0          0          0          0   entry9a.o
        30          0          0          0          0          0   handlers.o
        36          8          0          0          0         68   init.o
        32          0          0          0          0         68   llushr.o
        36          0          0          0          0         68   memcpya.o
        36          0          0          0          0        108   memseta.o
        18          0          0          0          0         68   strcpy.o
        14          0          0          0          0         68   strlen.o

    ----------------------------------------------------------------------
       230         20        136          0          0        516   Library Totals
         0          0          3          0          0          0   (incl. Padding)

    ----------------------------------------------------------------------

      Code (inc. data)   RO Data    RW Data    ZI Data      Debug   Library Name

       230         20        133          0          0        516   mc_w.l

    ----------------------------------------------------------------------
       230         20        136          0          0        516   Library Totals

    ----------------------------------------------------------------------

==============================================================================


      Code (inc. data)   RO Data    RW Data    ZI Data      Debug   

      8088        722       1080        136       4256     320232   Grand Totals
      8088        722       1080        136       4256     320232   ELF Image Totals
      8088        722       1080        136          0          0   ROM Totals

==============================================================================

    Total RO  Size (Code + RO Data)                 9168 (   8.95kB)
    Total RW  Size (RW Data + ZI Data)              4392 (   4.29kB)
    Total ROM Size (Code + RO Data + RW Data)       9304 (   9.09kB)

==============================================================================

