Component: ARM Compiler 5.06 update 6 (build 750) Tool: armlink [4d35ed]

==============================================================================

Section Cross References

    main.o(.text) refers to delay.o(.text) for delay_init
    main.o(.text) refers to misc.o(.text) for NVIC_PriorityGroupConfig
    main.o(.text) refers to led.o(.text) for LED_Init
    main.o(.text) refers to usb_init.o(.text) for USB_Init
    main.o(.text) refers to usb_pwr.o(.data) for bDeviceState
    system_stm32f10x.o(.text) refers to system_stm32f10x.o(.data) for SystemCoreClock
    led.o(.text) refers to stm32f10x_rcc.o(.text) for RCC_APB2PeriphClockCmd
    led.o(.text) refers to stm32f10x_gpio.o(.text) for GPIO_Init
    key.o(.text) refers to stm32f10x_rcc.o(.text) for RCC_APB2PeriphClockCmd
    key.o(.text) refers to stm32f10x_gpio.o(.text) for GPIO_Init
    key.o(.text) refers to delay.o(.text) for delay_ms
    key.o(.text) refers to key.o(.data) for key_up
    beep.o(.text) refers to stm32f10x_rcc.o(.text) for RCC_APB2PeriphClockCmd
    beep.o(.text) refers to stm32f10x_gpio.o(.text) for GPIO_Init
    exti.o(.text) refers to stm32f10x_exti.o(.text) for EXTI_ClearITPendingBit
    exti.o(.text) refers to key.o(.text) for KEY_Init
    exti.o(.text) refers to stm32f10x_rcc.o(.text) for RCC_APB2PeriphClockCmd
    exti.o(.text) refers to stm32f10x_gpio.o(.text) for GPIO_EXTILineConfig
==============================================================================

Removing Unused input sections from the image.

    Removing beep.o(.text), (56 bytes).
    Removing sys.o(.emb_text), (6 bytes).
    Removing sys.o(.text), (12 bytes).
    Removing core_cm3.o(.emb_text), (32 bytes).

4 unused section(s) (total 106 bytes) removed from the image.

==============================================================================

Image Symbol Table

    Local Symbols

    Symbol Name                              Value     Ov Type        Size  Object(Section)

    ../clib/angel/boardlib.s                 0x00000000   Number         0  boardshut.o ABSOLUTE
    ../clib/angel/boardlib.s                 0x00000000   Number         0  boardinit3.o ABSOLUTE
    ../clib/angel/boardlib.s                 0x00000000   Number         0  boardinit2.o ABSOLUTE
    ../clib/angel/boardlib.s                 0x00000000   Number         0  boardinit1.o ABSOLUTE
    ../clib/angel/dczerorl2.s                0x00000000   Number         0  __dczerorl2.o ABSOLUTE
    ../clib/angel/handlers.s                 0x00000000   Number         0  __scatter_zi.o ABSOLUTE
    ../clib/angel/kernel.s                   0x00000000   Number         0  __rtentry4.o ABSOLUTE
    ../clib/angel/kernel.s                   0x00000000   Number         0  __rtentry2.o ABSOLUTE
    ../clib/angel/kernel.s                   0x00000000   Number         0  rtexit.o ABSOLUTE
    ../clib/angel/kernel.s                   0x00000000   Number         0  rtexit2.o ABSOLUTE
    ../clib/angel/kernel.s                   0x00000000   Number         0  __rtentry.o ABSOLUTE
    ../clib/angel/rt.s                       0x00000000   Number         0  rt_raise.o ABSOLUTE
    ../clib/angel/scatter.s                  0x00000000   Number         0  __scatter.o ABSOLUTE
    ../clib/angel/startup.s                  0x00000000   Number         0  __main.o ABSOLUTE
    ../clib/angel/sys.s                      0x00000000   Number         0  indicate_semi.o ABSOLUTE
    ../clib/angel/sys.s                      0x00000000   Number         0  use_no_semi_2.o ABSOLUTE
    ../clib/angel/sys.s                      0x00000000   Number         0  libspace.o ABSOLUTE
    ../clib/angel/sys.s                      0x00000000   Number         0  use_no_semi.o ABSOLUTE
    ../clib/angel/sys.s                      0x00000000   Number         0  sys_stackheap_outer.o ABSOLUTE
    ../clib/angel/sysapp.c                   0x00000000   Number         0  sys_command.o ABSOLUTE
    ../clib/angel/sysapp.c                   0x00000000   Number         0  sys_wrch.o ABSOLUTE
    ../clib/armsys.c                         0x00000000   Number         0  no_argv.o ABSOLUTE
    ../clib/armsys.c                         0x00000000   Number         0  _get_argv_nomalloc.o ABSOLUTE
    ../clib/armsys.c                         0x00000000   Number         0  argv_veneer.o ABSOLUTE
    ../clib/armsys.c                         0x00000000   Number         0  argv_veneer.o ABSOLUTE
    ../clib/heapalloc.c                      0x00000000   Number         0  hrguard.o ABSOLUTE
    ../clib/heapaux.c                        0x00000000   Number         0  heapauxi.o ABSOLUTE
    ../clib/libinit.s                        0x00000000   Number         0  libinit2.o ABSOLUTE
    ../clib/libinit.s                        0x00000000   Number         0  libshutdown.o ABSOLUTE
    ../clib/libinit.s                        0x00000000   Number         0  libshutdown2.o ABSOLUTE
    ../clib/libinit.s                        0x00000000   Number         0  libinit.o ABSOLUTE
    ../clib/signal.c                         0x00000000   Number         0  defsig_rtmem_outer.o ABSOLUTE
    ../clib/signal.c                         0x00000000   Number         0  defsig_pvfn_inner.o ABSOLUTE
    ../clib/signal.c                         0x00000000   Number         0  defsig_stak_inner.o ABSOLUTE
    ../clib/signal.c                         0x00000000   Number         0  defsig_rtred_inner.o ABSOLUTE
    ../clib/signal.c                         0x00000000   Number         0  defsig_cppl_inner.o ABSOLUTE
    ../clib/signal.c                         0x00000000   Number         0  defsig_rtmem_formal.o ABSOLUTE
    ../clib/signal.c                         0x00000000   Number         0  defsig_segv_inner.o ABSOLUTE
    ../clib/signal.c                         0x00000000   Number         0  defsig_other.o ABSOLUTE
    ../clib/signal.c                         0x00000000   Number         0  defsig_exit.o ABSOLUTE
    ../clib/signal.c                         0x00000000   Number         0  defsig_abrt_inner.o ABSOLUTE
    ../clib/signal.c                         0x00000000   Number         0  defsig_rtmem_inner.o ABSOLUTE
    ../clib/signal.c                         0x00000000   Number         0  __raise.o ABSOLUTE
    ../clib/signal.c                         0x00000000   Number         0  defsig_general.o ABSOLUTE
    ../clib/signal.c                         0x00000000   Number         0  defsig_fpe_inner.o ABSOLUTE
    ../clib/signal.s                         0x00000000   Number         0  defsig.o ABSOLUTE
    ../clib/stdlib.c                         0x00000000   Number         0  exit.o ABSOLUTE
    ../fplib/fpinit.s                        0x00000000   Number         0  fpinit.o ABSOLUTE
    ..\CORE\core_cm3.c                       0x00000000   Number         0  core_cm3.o ABSOLUTE
    ..\CORE\startup_stm32f10x_hd.s           0x00000000   Number         0  startup_stm32f10x_hd.o ABSOLUTE
    ..\HARDWARE\BEEP\beep.c                  0x00000000   Number         0  beep.o ABSOLUTE
    ..\HARDWARE\EXTI\exti.c                  0x00000000   Number         0  exti.o ABSOLUTE
    ..\HARDWARE\KEY\key.c                    0x00000000   Number         0  key.o ABSOLUTE
    ..\HARDWARE\LED\led.c                    0x00000000   Number         0  led.o ABSOLUTE
    ..\STM32F10x_FWLib\src\misc.c            0x00000000   Number         0  misc.o ABSOLUTE
    ..\STM32F10x_FWLib\src\stm32f10x_exti.c  0x00000000   Number         0  stm32f10x_exti.o ABSOLUTE
    ..\STM32F10x_FWLib\src\stm32f10x_gpio.c  0x00000000   Number         0  stm32f10x_gpio.o ABSOLUTE
    ..\STM32F10x_FWLib\src\stm32f10x_rcc.c   0x00000000   Number         0  stm32f10x_rcc.o ABSOLUTE
    ..\STM32F10x_FWLib\src\stm32f10x_usart.c 0x00000000   Number         0  stm32f10x_usart.o ABSOLUTE
    ..\SYSTEM\delay\delay.c                  0x00000000   Number         0  delay.o ABSOLUTE
    ..\SYSTEM\sys\sys.c                      0x00000000   Number         0  sys.o ABSOLUTE
    ..\SYSTEM\usart\usart.c                  0x00000000   Number         0  usart.o ABSOLUTE
    ..\\CORE\\core_cm3.c                     0x00000000   Number         0  core_cm3.o ABSOLUTE
    ..\\SYSTEM\\sys\\sys.c                   0x00000000   Number         0  sys.o ABSOLUTE
    ..\usb\hw_config.c                       0x00000000   Number         0  hw_config.o ABSOLUTE
    ..\usb\src\usb_core.c                    0x00000000   Number         0  usb_core.o ABSOLUTE
    ..\usb\src\usb_init.c                    0x00000000   Number         0  usb_init.o ABSOLUTE
    ..\usb\src\usb_int.c                     0x00000000   Number         0  usb_int.o ABSOLUTE
    ..\usb\src\usb_mem.c                     0x00000000   Number         0  usb_mem.o ABSOLUTE
    ..\usb\src\usb_regs.c                    0x00000000   Number         0  usb_regs.o ABSOLUTE
    ..\usb\src\usb_sil.c                     0x00000000   Number         0  usb_sil.o ABSOLUTE
    ..\usb\stm32_it.c                        0x00000000   Number         0  stm32_it.o ABSOLUTE
    ..\usb\usb_desc.c                        0x00000000   Number         0  usb_desc.o ABSOLUTE
    ..\usb\usb_endp.c                        0x00000000   Number         0  usb_endp.o ABSOLUTE
    ..\usb\usb_istr.c                        0x00000000   Number         0  usb_istr.o ABSOLUTE
    ..\usb\usb_prop.c                        0x00000000   Number         0  usb_prop.o ABSOLUTE
    ..\usb\usb_pwr.c                         0x00000000   Number         0  usb_pwr.o ABSOLUTE
    dc.s                                     0x00000000   Number         0  dc.o ABSOLUTE
    main.c                                   0x00000000   Number         0  main.o ABSOLUTE
    system_stm32f10x.c                       0x00000000   Number         0  system_stm32f10x.o ABSOLUTE
    RESET                                    0x08000000   Section      304  startup_stm32f10x_hd.o(RESET)
    !!!main                                  0x08000130   Section        8  __main.o(!!!main)
    !!!scatter                               0x08000138   Section       52  __scatter.o(!!!scatter)
    !!dczerorl2                              0x0800016c   Section       90  __dczerorl2.o(!!dczerorl2)
    !!handler_zi                             0x080001c8   Section       28  __scatter_zi.o(!!handler_zi)
    .ARM.Collect$$libinit$$00000000          0x080001e4   Section        2  libinit.o(.ARM.Collect$$libinit$$00000000)
    .ARM.Collect$$libinit$$00000002          0x080001e6   Section        0  libinit2.o(.ARM.Collect$$libinit$$00000002)
    .ARM.Collect$$libinit$$00000004          0x080001e6   Section        0  libinit2.o(.ARM.Collect$$libinit$$00000004)
    .ARM.Collect$$libinit$$0000000A          0x080001e6   Section        0  libinit2.o(.ARM.Collect$$libinit$$0000000A)
    .ARM.Collect$$libinit$$0000000C          0x080001e6   Section        0  libinit2.o(.ARM.Collect$$libinit$$0000000C)
    .ARM.Collect$$libinit$$0000000E          0x080001e6   Section        0  libinit2.o(.ARM.Collect$$libinit$$0000000E)
    .ARM.Collect$$libinit$$00000011          0x080001e6   Section        0  libinit2.o(.ARM.Collect$$libinit$$00000011)
    .ARM.Collect$$libinit$$00000013          0x080001e6   Section        0  libinit2.o(.ARM.Collect$$libinit$$00000013)
    .ARM.Collect$$libinit$$00000015          0x080001e6   Section        0  libinit2.o(.ARM.Collect$$libinit$$00000015)
    .ARM.Collect$$libinit$$00000017          0x080001e6   Section        0  libinit2.o(.ARM.Collect$$libinit$$00000017)
    .ARM.Collect$$libinit$$00000019          0x080001e6   Section        0  libinit2.o(.ARM.Collect$$libinit$$00000019)
    .ARM.Collect$$libinit$$0000001B          0x080001e6   Section        0  libinit2.o(.ARM.Collect$$libinit$$0000001B)
    .ARM.Collect$$libinit$$0000001D          0x080001e6   Section        0  libinit2.o(.ARM.Collect$$libinit$$0000001D)
    .ARM.Collect$$libinit$$0000001F          0x080001e6   Section        0  libinit2.o(.ARM.Collect$$libinit$$0000001F)
    .ARM.Collect$$libinit$$00000021          0x080001e6   Section        0  libinit2.o(.ARM.Collect$$libinit$$00000021)
    .ARM.Collect$$libinit$$00000023          0x080001e6   Section        0  libinit2.o(.ARM.Collect$$libinit$$00000023)
    .ARM.Collect$$libinit$$00000025          0x080001e6   Section        0  libinit2.o(.ARM.Collect$$libinit$$00000025)
    .ARM.Collect$$libinit$$0000002C          0x080001e6   Section        0  libinit2.o(.ARM.Collect$$libinit$$0000002C)
    .ARM.Collect$$libinit$$0000002E          0x080001e6   Section        0  libinit2.o(.ARM.Collect$$libinit$$0000002E)
    .ARM.Collect$$libinit$$00000030          0x080001e6   Section        0  libinit2.o(.ARM.Collect$$libinit$$00000030)
    .ARM.Collect$$libinit$$00000032          0x080001e6   Section        0  libinit2.o(.ARM.Collect$$libinit$$00000032)
    .ARM.Collect$$libinit$$00000033          0x080001e6   Section        2  libinit2.o(.ARM.Collect$$libinit$$00000033)
    .ARM.Collect$$libshutdown$$00000000      0x080001e8   Section        2  libshutdown.o(.ARM.Collect$$libshutdown$$00000000)
    .ARM.Collect$$libshutdown$$00000002      0x080001ea   Section        0  libshutdown2.o(.ARM.Collect$$libshutdown$$00000002)
    .ARM.Collect$$libshutdown$$00000004      0x080001ea   Section        0  libshutdown2.o(.ARM.Collect$$libshutdown$$00000004)
    .ARM.Collect$$libshutdown$$00000007      0x080001ea   Section        0  libshutdown2.o(.ARM.Collect$$libshutdown$$00000007)
    .ARM.Collect$$libshutdown$$0000000A      0x080001ea   Section        0  libshutdown2.o(.ARM.Collect$$libshutdown$$0000000A)
    .ARM.Collect$$libshutdown$$0000000C      0x080001ea   Section        0  libshutdown2.o(.ARM.Collect$$libshutdown$$0000000C)
    .ARM.Collect$$libshutdown$$0000000F      0x080001ea   Section        0  libshutdown2.o(.ARM.Collect$$libshutdown$$0000000F)
    .ARM.Collect$$libshutdown$$00000010      0x080001ea   Section        2  libshutdown2.o(.ARM.Collect$$libshutdown$$00000010)
    .ARM.Collect$$rtentry$$00000000          0x080001ec   Section        0  __rtentry.o(.ARM.Collect$$rtentry$$00000000)
    .ARM.Collect$$rtentry$$00000002          0x080001ec   Section        0  __rtentry2.o(.ARM.Collect$$rtentry$$00000002)
    .ARM.Collect$$rtentry$$00000004          0x080001ec   Section        6  __rtentry4.o(.ARM.Collect$$rtentry$$00000004)
    .ARM.Collect$$rtentry$$00000009          0x080001f2   Section        0  __rtentry2.o(.ARM.Collect$$rtentry$$00000009)
    .ARM.Collect$$rtentry$$0000000A          0x080001f2   Section        4  __rtentry2.o(.ARM.Collect$$rtentry$$0000000A)
    .ARM.Collect$$rtentry$$0000000C          0x080001f6   Section        0  __rtentry2.o(.ARM.Collect$$rtentry$$0000000C)
    .ARM.Collect$$rtentry$$0000000D          0x080001f6   Section        8  __rtentry2.o(.ARM.Collect$$rtentry$$0000000D)
    .ARM.Collect$$rtexit$$00000000           0x080001fe   Section        2  rtexit.o(.ARM.Collect$$rtexit$$00000000)
    .ARM.Collect$$rtexit$$00000002           0x08000200   Section        0  rtexit2.o(.ARM.Collect$$rtexit$$00000002)
    .ARM.Collect$$rtexit$$00000003           0x08000200   Section        4  rtexit2.o(.ARM.Collect$$rtexit$$00000003)
    .ARM.Collect$$rtexit$$00000004           0x08000204   Section        6  rtexit2.o(.ARM.Collect$$rtexit$$00000004)
    .text                                    0x0800020c   Section        0  main.o(.text)
    .text                                    0x08000248   Section        0  system_stm32f10x.o(.text)
    SetSysClockTo72                          0x08000249   Thumb Code   214  system_stm32f10x.o(.text)
    SetSysClock                              0x0800031f   Thumb Code     8  system_stm32f10x.o(.text)
    .text                                    0x08000428   Section        0  led.o(.text)
    .text                                    0x08000474   Section        0  key.o(.text)
    .text                                    0x0800054c   Section        0  exti.o(.text)
    .text                                    0x080006c8   Section        0  delay.o(.text)
    .text                                    0x0800079c   Section        0  usart.o(.text)
    .text                                    0x080008dc   Section       64  startup_stm32f10x_hd.o(.text)
    .text                                    0x0800091c   Section        0  misc.o(.text)
    .text                                    0x080009f8   Section        0  stm32f10x_gpio.o(.text)
    .text                                    0x08000d54   Section        0  stm32f10x_rcc.o(.text)
    .text                                    0x080010f8   Section        0  stm32f10x_usart.o(.text)
    .text                                    0x08001500   Section        0  stm32f10x_exti.o(.text)
    .text                                    0x0800161c   Section        0  hw_config.o(.text)
    IntToUnicode                             0x0800171f   Thumb Code    62  hw_config.o(.text)
    .text                                    0x080017a8   Section        0  stm32_it.o(.text)
    .text                                    0x080017d6   Section        0  usb_endp.o(.text)
    .text                                    0x080017d8   Section        0  usb_istr.o(.text)
    .text                                    0x080019a4   Section        0  usb_prop.o(.text)
    .text                                    0x08001bc0   Section        0  usb_pwr.o(.text)
    .text                                    0x08001df4   Section        0  usb_core.o(.text)
    DataStageOut                             0x08002233   Thumb Code   166  usb_core.o(.text)
    DataStageIn                              0x080022d9   Thumb Code   166  usb_core.o(.text)
    NoData_Setup0                            0x0800237f   Thumb Code   290  usb_core.o(.text)
    Data_Setup0                              0x080024a1   Thumb Code   678  usb_core.o(.text)
    .text                                    0x08002944   Section        0  usb_init.o(.text)
    .text                                    0x080029a8   Section        0  usb_int.o(.text)
    .text                                    0x08002ce4   Section        0  usb_mem.o(.text)
    .text                                    0x08002d40   Section        0  usb_regs.o(.text)
    .text                                    0x08003548   Section        0  usb_sil.o(.text)
    .text                                    0x080035c8   Section        2  use_no_semi_2.o(.text)
    .text                                    0x080035ca   Section        0  heapauxi.o(.text)
    .text                                    0x080035d0   Section        2  use_no_semi.o(.text)
    .text                                    0x080035d2   Section       74  sys_stackheap_outer.o(.text)
    .text                                    0x0800361c   Section        0  exit.o(.text)
    .text                                    0x08003630   Section        8  libspace.o(.text)
    .constdata                               0x08003638   Section      198  usb_desc.o(.constdata)
    .data                                    0x20000000   Section       20  system_stm32f10x.o(.data)
    .data                                    0x20000014   Section        1  key.o(.data)
    key_up                                   0x20000014   Data           1  key.o(.data)
    .data                                    0x20000016   Section        4  delay.o(.data)
    fac_us                                   0x20000016   Data           1  delay.o(.data)
    fac_ms                                   0x20000018   Data           2  delay.o(.data)
    .data                                    0x2000001c   Section        6  usart.o(.data)
    .data                                    0x20000022   Section       20  stm32f10x_rcc.o(.data)
    APBAHBPrescTable                         0x20000022   Data          16  stm32f10x_rcc.o(.data)
    ADCPrescTable                            0x20000032   Data           4  stm32f10x_rcc.o(.data)
    .data                                    0x20000038   Section       12  hw_config.o(.data)
    .data                                    0x20000044   Section       26  usb_desc.o(.data)
    .data                                    0x20000060   Section       68  usb_istr.o(.data)
    .data                                    0x200000a4   Section      156  usb_prop.o(.data)
    .data                                    0x20000140   Section       12  usb_pwr.o(.data)
    .data                                    0x2000014c   Section        3  usb_core.o(.data)
    .data                                    0x20000150   Section       20  usb_init.o(.data)
    .data                                    0x20000164   Section        4  usb_int.o(.data)
    .bss                                     0x20000168   Section      200  usart.o(.bss)
    .bss                                     0x20000230   Section       32  usb_pwr.o(.bss)
    .bss                                     0x20000250   Section       28  usb_init.o(.bss)
    .bss                                     0x2000026c   Section       96  libspace.o(.bss)
    HEAP                                     0x200002d0   Section      512  startup_stm32f10x_hd.o(HEAP)
    Heap_Mem                                 0x200002d0   Data         512  startup_stm32f10x_hd.o(HEAP)
    STACK                                    0x200004d0   Section     1024  startup_stm32f10x_hd.o(STACK)
    Stack_Mem                                0x200004d0   Data        1024  startup_stm32f10x_hd.o(STACK)
    __initial_sp                             0x200008d0   Data           0  startup_stm32f10x_hd.o(STACK)

    Global Symbols

    Symbol Name                              Value     Ov Type        Size  Object(Section)

    BuildAttributes$$THM_ISAv4$P$D$K$B$S$PE$A:L22UL41UL21$X:L11$S22US41US21$IEEE1$IW$USESV6$~STKCKD$USESV7$~SHL$OSPACE$ROPI$EBA8$UX$STANDARDLIB$REQ8$PRES8$EABIv2 0x00000000   Number         0  anon$$obj.o ABSOLUTE
    __ARM_use_no_argv                        0x00000000   Number         0  main.o ABSOLUTE
    __ARM_exceptions_init                     - Undefined Weak Reference
    __alloca_initialize                       - Undefined Weak Reference
    __arm_preinit_                            - Undefined Weak Reference
    __cpp_initialize__aeabi_                  - Undefined Weak Reference
    __cxa_finalize                            - Undefined Weak Reference
    __rt_locale                               - Undefined Weak Reference
    __sigvec_lookup                           - Undefined Weak Reference
    _atexit_init                              - Undefined Weak Reference
    _call_atexit_fns                          - Undefined Weak Reference
    _clock_init                               - Undefined Weak Reference
    _fp_trap_init                             - Undefined Weak Reference
    _fp_trap_shutdown                         - Undefined Weak Reference
    _get_lc_collate                           - Undefined Weak Reference
    _get_lc_ctype                             - Undefined Weak Reference
    _get_lc_monetary                          - Undefined Weak Reference
    _get_lc_numeric                           - Undefined Weak Reference
    _get_lc_time                              - Undefined Weak Reference
    _getenv_init                              - Undefined Weak Reference
    _handle_redirection                       - Undefined Weak Reference
    _init_alloc                               - Undefined Weak Reference
    _init_user_alloc                          - Undefined Weak Reference
    _initio                                   - Undefined Weak Reference
    _rand_init                                - Undefined Weak Reference
    _signal_finish                            - Undefined Weak Reference
    _signal_init                              - Undefined Weak Reference
    _terminate_alloc                          - Undefined Weak Reference
    _terminate_user_alloc                     - Undefined Weak Reference
    _terminateio                              - Undefined Weak Reference
    __Vectors_Size                           0x00000130   Number         0  startup_stm32f10x_hd.o ABSOLUTE
    __Vectors                                0x08000000   Data           4  startup_stm32f10x_hd.o(RESET)
    __Vectors_End                            0x08000130   Data           0  startup_stm32f10x_hd.o(RESET)
    __main                                   0x08000131   Thumb Code     8  __main.o(!!!main)
    __scatterload                            0x08000139   Thumb Code     0  __scatter.o(!!!scatter)
    __scatterload_rt2                        0x08000139   Thumb Code    44  __scatter.o(!!!scatter)
    __scatterload_rt2_thumb_only             0x08000139   Thumb Code     0  __scatter.o(!!!scatter)
    __scatterload_null                       0x08000147   Thumb Code     0  __scatter.o(!!!scatter)
    __decompress                             0x0800016d   Thumb Code    90  __dczerorl2.o(!!dczerorl2)
    __decompress1                            0x0800016d   Thumb Code     0  __dczerorl2.o(!!dczerorl2)
    __scatterload_zeroinit                   0x080001c9   Thumb Code    28  __scatter_zi.o(!!handler_zi)
    __rt_lib_init                            0x080001e5   Thumb Code     0  libinit.o(.ARM.Collect$$libinit$$00000000)
    __rt_lib_init_alloca_1                   0x080001e7   Thumb Code     0  libinit2.o(.ARM.Collect$$libinit$$0000002E)
    __rt_lib_init_argv_1                     0x080001e7   Thumb Code     0  libinit2.o(.ARM.Collect$$libinit$$0000002C)
    __rt_lib_init_atexit_1                   0x080001e7   Thumb Code     0  libinit2.o(.ARM.Collect$$libinit$$0000001B)
    __rt_lib_init_clock_1                    0x080001e7   Thumb Code     0  libinit2.o(.ARM.Collect$$libinit$$00000021)
    __rt_lib_init_cpp_1                      0x080001e7   Thumb Code     0  libinit2.o(.ARM.Collect$$libinit$$00000032)
    __rt_lib_init_exceptions_1               0x080001e7   Thumb Code     0  libinit2.o(.ARM.Collect$$libinit$$00000030)
    __rt_lib_init_fp_1                       0x080001e7   Thumb Code     0  libinit2.o(.ARM.Collect$$libinit$$00000002)
    __rt_lib_init_fp_trap_1                  0x080001e7   Thumb Code     0  libinit2.o(.ARM.Collect$$libinit$$0000001F)
    __rt_lib_init_getenv_1                   0x080001e7   Thumb Code     0  libinit2.o(.ARM.Collect$$libinit$$00000023)
    __rt_lib_init_heap_1                     0x080001e7   Thumb Code     0  libinit2.o(.ARM.Collect$$libinit$$0000000A)
    __rt_lib_init_lc_collate_1               0x080001e7   Thumb Code     0  libinit2.o(.ARM.Collect$$libinit$$00000011)
    __rt_lib_init_lc_ctype_1                 0x080001e7   Thumb Code     0  libinit2.o(.ARM.Collect$$libinit$$00000013)
    __rt_lib_init_lc_monetary_1              0x080001e7   Thumb Code     0  libinit2.o(.ARM.Collect$$libinit$$00000015)
    __rt_lib_init_lc_numeric_1               0x080001e7   Thumb Code     0  libinit2.o(.ARM.Collect$$libinit$$00000017)
    __rt_lib_init_lc_time_1                  0x080001e7   Thumb Code     0  libinit2.o(.ARM.Collect$$libinit$$00000019)
    __rt_lib_init_preinit_1                  0x080001e7   Thumb Code     0  libinit2.o(.ARM.Collect$$libinit$$00000004)
    __rt_lib_init_rand_1                     0x080001e7   Thumb Code     0  libinit2.o(.ARM.Collect$$libinit$$0000000E)
    __rt_lib_init_return                     0x080001e7   Thumb Code     0  libinit2.o(.ARM.Collect$$libinit$$00000033)
    __rt_lib_init_signal_1                   0x080001e7   Thumb Code     0  libinit2.o(.ARM.Collect$$libinit$$0000001D)
    __rt_lib_init_stdio_1                    0x080001e7   Thumb Code     0  libinit2.o(.ARM.Collect$$libinit$$00000025)
    __rt_lib_init_user_alloc_1               0x080001e7   Thumb Code     0  libinit2.o(.ARM.Collect$$libinit$$0000000C)
    __rt_lib_shutdown                        0x080001e9   Thumb Code     0  libshutdown.o(.ARM.Collect$$libshutdown$$00000000)
    __rt_lib_shutdown_cpp_1                  0x080001eb   Thumb Code     0  libshutdown2.o(.ARM.Collect$$libshutdown$$00000002)
    __rt_lib_shutdown_fp_trap_1              0x080001eb   Thumb Code     0  libshutdown2.o(.ARM.Collect$$libshutdown$$00000007)
    __rt_lib_shutdown_heap_1                 0x080001eb   Thumb Code     0  libshutdown2.o(.ARM.Collect$$libshutdown$$0000000F)
    __rt_lib_shutdown_return                 0x080001eb   Thumb Code     0  libshutdown2.o(.ARM.Collect$$libshutdown$$00000010)
    __rt_lib_shutdown_signal_1               0x080001eb   Thumb Code     0  libshutdown2.o(.ARM.Collect$$libshutdown$$0000000A)
    __rt_lib_shutdown_stdio_1                0x080001eb   Thumb Code     0  libshutdown2.o(.ARM.Collect$$libshutdown$$00000004)
    __rt_lib_shutdown_user_alloc_1           0x080001eb   Thumb Code     0  libshutdown2.o(.ARM.Collect$$libshutdown$$0000000C)
    __rt_entry                               0x080001ed   Thumb Code     0  __rtentry.o(.ARM.Collect$$rtentry$$00000000)
    __rt_entry_presh_1                       0x080001ed   Thumb Code     0  __rtentry2.o(.ARM.Collect$$rtentry$$00000002)
    __rt_entry_sh                            0x080001ed   Thumb Code     0  __rtentry4.o(.ARM.Collect$$rtentry$$00000004)
    __rt_entry_li                            0x080001f3   Thumb Code     0  __rtentry2.o(.ARM.Collect$$rtentry$$0000000A)
    __rt_entry_postsh_1                      0x080001f3   Thumb Code     0  __rtentry2.o(.ARM.Collect$$rtentry$$00000009)
    __rt_entry_main                          0x080001f7   Thumb Code     0  __rtentry2.o(.ARM.Collect$$rtentry$$0000000D)
    __rt_entry_postli_1                      0x080001f7   Thumb Code     0  __rtentry2.o(.ARM.Collect$$rtentry$$0000000C)
    __rt_exit                                0x080001ff   Thumb Code     0  rtexit.o(.ARM.Collect$$rtexit$$00000000)
    __rt_exit_ls                             0x08000201   Thumb Code     0  rtexit2.o(.ARM.Collect$$rtexit$$00000003)
    __rt_exit_prels_1                        0x08000201   Thumb Code     0  rtexit2.o(.ARM.Collect$$rtexit$$00000002)
    __rt_exit_exit                           0x08000205   Thumb Code     0  rtexit2.o(.ARM.Collect$$rtexit$$00000004)
    main                                     0x0800020d   Thumb Code    52  main.o(.text)
    SystemInit                               0x08000327   Thumb Code    78  system_stm32f10x.o(.text)
    SystemCoreClockUpdate                    0x08000375   Thumb Code   142  system_stm32f10x.o(.text)
    LED_Init                                 0x08000429   Thumb Code    68  led.o(.text)
    KEY_Init                                 0x08000475   Thumb Code    52  key.o(.text)
    KEY_Scan                                 0x080004a9   Thumb Code   150  key.o(.text)
    EXTIX_Init                               0x0800054d   Thumb Code   208  exti.o(.text)
    EXTI0_IRQHandler                         0x0800061d   Thumb Code    44  exti.o(.text)
    EXTI3_IRQHandler                         0x08000649   Thumb Code    42  exti.o(.text)
    EXTI4_IRQHandler                         0x08000673   Thumb Code    64  exti.o(.text)
    delay_init                               0x080006c9   Thumb Code    50  delay.o(.text)
    delay_us                                 0x080006fb   Thumb Code    72  delay.o(.text)
    delay_ms                                 0x08000743   Thumb Code    72  delay.o(.text)
    _sys_exit                                0x0800079d   Thumb Code     6  usart.o(.text)
    fputc                                    0x080007a3   Thumb Code    24  usart.o(.text)
    uart_init                                0x080007bb   Thumb Code   152  usart.o(.text)
    USART1_IRQHandler                        0x08000853   Thumb Code   122  usart.o(.text)
    Reset_Handler                            0x080008dd   Thumb Code     8  startup_stm32f10x_hd.o(.text)
    ADC1_2_IRQHandler                        0x080008f7   Thumb Code     0  startup_stm32f10x_hd.o(.text)
    ADC3_IRQHandler                          0x080008f7   Thumb Code     0  startup_stm32f10x_hd.o(.text)
    CAN1_RX1_IRQHandler                      0x080008f7   Thumb Code     0  startup_stm32f10x_hd.o(.text)
    CAN1_SCE_IRQHandler                      0x080008f7   Thumb Code     0  startup_stm32f10x_hd.o(.text)
    DMA1_Channel1_IRQHandler                 0x080008f7   Thumb Code     0  startup_stm32f10x_hd.o(.text)
    DMA1_Channel2_IRQHandler                 0x080008f7   Thumb Code     0  startup_stm32f10x_hd.o(.text)
    DMA1_Channel3_IRQHandler                 0x080008f7   Thumb Code     0  startup_stm32f10x_hd.o(.text)
    DMA1_Channel4_IRQHandler                 0x080008f7   Thumb Code     0  startup_stm32f10x_hd.o(.text)
    DMA1_Channel5_IRQHandler                 0x080008f7   Thumb Code     0  startup_stm32f10x_hd.o(.text)
    DMA1_Channel6_IRQHandler                 0x080008f7   Thumb Code     0  startup_stm32f10x_hd.o(.text)
    DMA1_Channel7_IRQHandler                 0x080008f7   Thumb Code     0  startup_stm32f10x_hd.o(.text)
    DMA2_Channel1_IRQHandler                 0x080008f7   Thumb Code     0  startup_stm32f10x_hd.o(.text)
    DMA2_Channel2_IRQHandler                 0x080008f7   Thumb Code     0  startup_stm32f10x_hd.o(.text)
    DMA2_Channel3_IRQHandler                 0x080008f7   Thumb Code     0  startup_stm32f10x_hd.o(.text)
    DMA2_Channel4_5_IRQHandler               0x080008f7   Thumb Code     0  startup_stm32f10x_hd.o(.text)
    EXTI15_10_IRQHandler                     0x080008f7   Thumb Code     0  startup_stm32f10x_hd.o(.text)
    EXTI1_IRQHandler                         0x080008f7   Thumb Code     0  startup_stm32f10x_hd.o(.text)
    EXTI2_IRQHandler                         0x080008f7   Thumb Code     0  startup_stm32f10x_hd.o(.text)
    EXTI9_5_IRQHandler                       0x080008f7   Thumb Code     0  startup_stm32f10x_hd.o(.text)
    FLASH_IRQHandler                         0x080008f7   Thumb Code     0  startup_stm32f10x_hd.o(.text)
    FSMC_IRQHandler                          0x080008f7   Thumb Code     0  startup_stm32f10x_hd.o(.text)
    I2C1_ER_IRQHandler                       0x080008f7   Thumb Code     0  startup_stm32f10x_hd.o(.text)
    I2C1_EV_IRQHandler                       0x080008f7   Thumb Code     0  startup_stm32f10x_hd.o(.text)
    I2C2_ER_IRQHandler                       0x080008f7   Thumb Code     0  startup_stm32f10x_hd.o(.text)
    I2C2_EV_IRQHandler                       0x080008f7   Thumb Code     0  startup_stm32f10x_hd.o(.text)
    PVD_IRQHandler                           0x080008f7   Thumb Code     0  startup_stm32f10x_hd.o(.text)
    RCC_IRQHandler                           0x080008f7   Thumb Code     0  startup_stm32f10x_hd.o(.text)
    RTCAlarm_IRQHandler                      0x080008f7   Thumb Code     0  startup_stm32f10x_hd.o(.text)
    RTC_IRQHandler                           0x080008f7   Thumb Code     0  startup_stm32f10x_hd.o(.text)
    SDIO_IRQHandler                          0x080008f7   Thumb Code     0  startup_stm32f10x_hd.o(.text)
    SPI1_IRQHandler                          0x080008f7   Thumb Code     0  startup_stm32f10x_hd.o(.text)
    SPI2_IRQHandler                          0x080008f7   Thumb Code     0  startup_stm32f10x_hd.o(.text)
    SPI3_IRQHandler                          0x080008f7   Thumb Code     0  startup_stm32f10x_hd.o(.text)
    TAMPER_IRQHandler                        0x080008f7   Thumb Code     0  startup_stm32f10x_hd.o(.text)
    TIM1_BRK_IRQHandler                      0x080008f7   Thumb Code     0  startup_stm32f10x_hd.o(.text)
    TIM1_CC_IRQHandler                       0x080008f7   Thumb Code     0  startup_stm32f10x_hd.o(.text)
    TIM1_TRG_COM_IRQHandler                  0x080008f7   Thumb Code     0  startup_stm32f10x_hd.o(.text)
    TIM1_UP_IRQHandler                       0x080008f7   Thumb Code     0  startup_stm32f10x_hd.o(.text)
    TIM2_IRQHandler                          0x080008f7   Thumb Code     0  startup_stm32f10x_hd.o(.text)
    TIM3_IRQHandler                          0x080008f7   Thumb Code     0  startup_stm32f10x_hd.o(.text)
    TIM4_IRQHandler                          0x080008f7   Thumb Code     0  startup_stm32f10x_hd.o(.text)
    TIM5_IRQHandler                          0x080008f7   Thumb Code     0  startup_stm32f10x_hd.o(.text)
    TIM6_IRQHandler                          0x080008f7   Thumb Code     0  startup_stm32f10x_hd.o(.text)
    TIM7_IRQHandler                          0x080008f7   Thumb Code     0  startup_stm32f10x_hd.o(.text)
    TIM8_BRK_IRQHandler                      0x080008f7   Thumb Code     0  startup_stm32f10x_hd.o(.text)
    TIM8_CC_IRQHandler                       0x080008f7   Thumb Code     0  startup_stm32f10x_hd.o(.text)
    TIM8_TRG_COM_IRQHandler                  0x080008f7   Thumb Code     0  startup_stm32f10x_hd.o(.text)
    TIM8_UP_IRQHandler                       0x080008f7   Thumb Code     0  startup_stm32f10x_hd.o(.text)
    UART4_IRQHandler                         0x080008f7   Thumb Code     0  startup_stm32f10x_hd.o(.text)
    UART5_IRQHandler                         0x080008f7   Thumb Code     0  startup_stm32f10x_hd.o(.text)
    USART2_IRQHandler                        0x080008f7   Thumb Code     0  startup_stm32f10x_hd.o(.text)
    USART3_IRQHandler                        0x080008f7   Thumb Code     0  startup_stm32f10x_hd.o(.text)
    USB_HP_CAN1_TX_IRQHandler                0x080008f7   Thumb Code     0  startup_stm32f10x_hd.o(.text)
    WWDG_IRQHandler                          0x080008f7   Thumb Code     0  startup_stm32f10x_hd.o(.text)
    __user_initial_stackheap                 0x080008f9   Thumb Code     0  startup_stm32f10x_hd.o(.text)
    NVIC_PriorityGroupConfig                 0x0800091d   Thumb Code    10  misc.o(.text)
    NVIC_Init                                0x08000927   Thumb Code   100  misc.o(.text)
    NVIC_SetVectorTable                      0x0800098b   Thumb Code    14  misc.o(.text)
    NVIC_SystemLPConfig                      0x08000999   Thumb Code    34  misc.o(.text)
    SysTick_CLKSourceConfig                  0x080009bb   Thumb Code    40  misc.o(.text)
    GPIO_DeInit                              0x080009f9   Thumb Code   172  stm32f10x_gpio.o(.text)
    GPIO_AFIODeInit                          0x08000aa5   Thumb Code    20  stm32f10x_gpio.o(.text)
    GPIO_Init                                0x08000ab9   Thumb Code   278  stm32f10x_gpio.o(.text)
    GPIO_StructInit                          0x08000bcf   Thumb Code    16  stm32f10x_gpio.o(.text)
    GPIO_ReadInputDataBit                    0x08000bdf   Thumb Code    18  stm32f10x_gpio.o(.text)
    GPIO_ReadInputData                       0x08000bf1   Thumb Code     8  stm32f10x_gpio.o(.text)
    GPIO_ReadOutputDataBit                   0x08000bf9   Thumb Code    18  stm32f10x_gpio.o(.text)
    GPIO_ReadOutputData                      0x08000c0b   Thumb Code     8  stm32f10x_gpio.o(.text)
    GPIO_SetBits                             0x08000c13   Thumb Code     4  stm32f10x_gpio.o(.text)
    GPIO_ResetBits                           0x08000c17   Thumb Code     4  stm32f10x_gpio.o(.text)
    GPIO_WriteBit                            0x08000c1b   Thumb Code    10  stm32f10x_gpio.o(.text)
    GPIO_Write                               0x08000c25   Thumb Code     4  stm32f10x_gpio.o(.text)
    GPIO_PinLockConfig                       0x08000c29   Thumb Code    18  stm32f10x_gpio.o(.text)
    GPIO_EventOutputConfig                   0x08000c3b   Thumb Code    26  stm32f10x_gpio.o(.text)
    GPIO_EventOutputCmd                      0x08000c55   Thumb Code     6  stm32f10x_gpio.o(.text)
    GPIO_PinRemapConfig                      0x08000c5b   Thumb Code   138  stm32f10x_gpio.o(.text)
    GPIO_EXTILineConfig                      0x08000ce5   Thumb Code    66  stm32f10x_gpio.o(.text)
    GPIO_ETH_MediaInterfaceConfig            0x08000d27   Thumb Code     8  stm32f10x_gpio.o(.text)
    RCC_DeInit                               0x08000d55   Thumb Code    64  stm32f10x_rcc.o(.text)
    RCC_HSEConfig                            0x08000d95   Thumb Code    70  stm32f10x_rcc.o(.text)
    RCC_GetFlagStatus                        0x08000ddb   Thumb Code    56  stm32f10x_rcc.o(.text)
    RCC_WaitForHSEStartUp                    0x08000e13   Thumb Code    56  stm32f10x_rcc.o(.text)
    RCC_AdjustHSICalibrationValue            0x08000e4b   Thumb Code    20  stm32f10x_rcc.o(.text)
    RCC_HSICmd                               0x08000e5f   Thumb Code     6  stm32f10x_rcc.o(.text)
    RCC_PLLConfig                            0x08000e65   Thumb Code    24  stm32f10x_rcc.o(.text)
    RCC_PLLCmd                               0x08000e7d   Thumb Code     6  stm32f10x_rcc.o(.text)
    RCC_SYSCLKConfig                         0x08000e83   Thumb Code    18  stm32f10x_rcc.o(.text)
    RCC_GetSYSCLKSource                      0x08000e95   Thumb Code    10  stm32f10x_rcc.o(.text)
    RCC_HCLKConfig                           0x08000e9f   Thumb Code    18  stm32f10x_rcc.o(.text)
    RCC_PCLK1Config                          0x08000eb1   Thumb Code    18  stm32f10x_rcc.o(.text)
    RCC_PCLK2Config                          0x08000ec3   Thumb Code    20  stm32f10x_rcc.o(.text)
    RCC_ITConfig                             0x08000ed7   Thumb Code    26  stm32f10x_rcc.o(.text)
    RCC_USBCLKConfig                         0x08000ef1   Thumb Code     8  stm32f10x_rcc.o(.text)
    RCC_ADCCLKConfig                         0x08000ef9   Thumb Code    18  stm32f10x_rcc.o(.text)
    RCC_LSEConfig                            0x08000f0b   Thumb Code    50  stm32f10x_rcc.o(.text)
    RCC_LSICmd                               0x08000f3d   Thumb Code     6  stm32f10x_rcc.o(.text)
    RCC_RTCCLKConfig                         0x08000f43   Thumb Code    12  stm32f10x_rcc.o(.text)
    RCC_RTCCLKCmd                            0x08000f4f   Thumb Code     8  stm32f10x_rcc.o(.text)
    RCC_GetClocksFreq                        0x08000f57   Thumb Code   192  stm32f10x_rcc.o(.text)
    RCC_AHBPeriphClockCmd                    0x08001017   Thumb Code    26  stm32f10x_rcc.o(.text)
    RCC_APB2PeriphClockCmd                   0x08001031   Thumb Code    26  stm32f10x_rcc.o(.text)
    RCC_APB1PeriphClockCmd                   0x0800104b   Thumb Code    26  stm32f10x_rcc.o(.text)
    RCC_APB2PeriphResetCmd                   0x08001065   Thumb Code    26  stm32f10x_rcc.o(.text)
    RCC_APB1PeriphResetCmd                   0x0800107f   Thumb Code    26  stm32f10x_rcc.o(.text)
    RCC_BackupResetCmd                       0x08001099   Thumb Code     8  stm32f10x_rcc.o(.text)
    RCC_ClockSecuritySystemCmd               0x080010a1   Thumb Code     6  stm32f10x_rcc.o(.text)
    RCC_MCOConfig                            0x080010a7   Thumb Code     6  stm32f10x_rcc.o(.text)
    RCC_ClearFlag                            0x080010ad   Thumb Code    14  stm32f10x_rcc.o(.text)
    RCC_GetITStatus                          0x080010bb   Thumb Code    20  stm32f10x_rcc.o(.text)
    RCC_ClearITPendingBit                    0x080010cf   Thumb Code     6  stm32f10x_rcc.o(.text)
    USART_DeInit                             0x080010f9   Thumb Code   134  stm32f10x_usart.o(.text)
    USART_Init                               0x0800117f   Thumb Code   210  stm32f10x_usart.o(.text)
    USART_StructInit                         0x08001251   Thumb Code    24  stm32f10x_usart.o(.text)
    USART_ClockInit                          0x08001269   Thumb Code    34  stm32f10x_usart.o(.text)
    USART_ClockStructInit                    0x0800128b   Thumb Code    12  stm32f10x_usart.o(.text)
    USART_Cmd                                0x08001297   Thumb Code    24  stm32f10x_usart.o(.text)
    USART_ITConfig                           0x080012af   Thumb Code    74  stm32f10x_usart.o(.text)
    USART_DMACmd                             0x080012f9   Thumb Code    18  stm32f10x_usart.o(.text)
    USART_SetAddress                         0x0800130b   Thumb Code    18  stm32f10x_usart.o(.text)
    USART_WakeUpConfig                       0x0800131d   Thumb Code    18  stm32f10x_usart.o(.text)
    USART_ReceiverWakeUpCmd                  0x0800132f   Thumb Code    24  stm32f10x_usart.o(.text)
    USART_LINBreakDetectLengthConfig         0x08001347   Thumb Code    18  stm32f10x_usart.o(.text)
    USART_LINCmd                             0x08001359   Thumb Code    24  stm32f10x_usart.o(.text)
    USART_SendData                           0x08001371   Thumb Code     8  stm32f10x_usart.o(.text)
    USART_ReceiveData                        0x08001379   Thumb Code    10  stm32f10x_usart.o(.text)
    USART_SendBreak                          0x08001383   Thumb Code    10  stm32f10x_usart.o(.text)
    USART_SetGuardTime                       0x0800138d   Thumb Code    16  stm32f10x_usart.o(.text)
    USART_SetPrescaler                       0x0800139d   Thumb Code    16  stm32f10x_usart.o(.text)
    USART_SmartCardCmd                       0x080013ad   Thumb Code    24  stm32f10x_usart.o(.text)
    USART_SmartCardNACKCmd                   0x080013c5   Thumb Code    24  stm32f10x_usart.o(.text)
    USART_HalfDuplexCmd                      0x080013dd   Thumb Code    24  stm32f10x_usart.o(.text)
    USART_OverSampling8Cmd                   0x080013f5   Thumb Code    22  stm32f10x_usart.o(.text)
    USART_OneBitMethodCmd                    0x0800140b   Thumb Code    24  stm32f10x_usart.o(.text)
    USART_IrDAConfig                         0x08001423   Thumb Code    18  stm32f10x_usart.o(.text)
    USART_IrDACmd                            0x08001435   Thumb Code    24  stm32f10x_usart.o(.text)
    USART_GetFlagStatus                      0x0800144d   Thumb Code    26  stm32f10x_usart.o(.text)
    USART_ClearFlag                          0x08001467   Thumb Code    18  stm32f10x_usart.o(.text)
    USART_GetITStatus                        0x08001479   Thumb Code    84  stm32f10x_usart.o(.text)
    USART_ClearITPendingBit                  0x080014cd   Thumb Code    52  stm32f10x_usart.o(.text)
    EXTI_DeInit                              0x08001501   Thumb Code    28  stm32f10x_exti.o(.text)
    EXTI_Init                                0x0800151d   Thumb Code   142  stm32f10x_exti.o(.text)
    EXTI_StructInit                          0x080015ab   Thumb Code    16  stm32f10x_exti.o(.text)
    EXTI_GenerateSWInterrupt                 0x080015bb   Thumb Code    16  stm32f10x_exti.o(.text)
    EXTI_GetFlagStatus                       0x080015cb   Thumb Code    22  stm32f10x_exti.o(.text)
    EXTI_ClearFlag                           0x080015e1   Thumb Code     8  stm32f10x_exti.o(.text)
    EXTI_GetITStatus                         0x080015e9   Thumb Code    34  stm32f10x_exti.o(.text)
    EXTI_ClearITPendingBit                   0x0800160b   Thumb Code     8  stm32f10x_exti.o(.text)
    USB_Port_Set                             0x0800161d   Thumb Code    74  hw_config.o(.text)
    Set_System                               0x08001667   Thumb Code    34  hw_config.o(.text)
    Set_USBClock                             0x08001689   Thumb Code    18  hw_config.o(.text)
    Enter_LowPowerMode                       0x0800169b   Thumb Code     8  hw_config.o(.text)
    Leave_LowPowerMode                       0x080016a3   Thumb Code    28  hw_config.o(.text)
    USB_Interrupts_Config                    0x080016bf   Thumb Code    52  hw_config.o(.text)
    Joystick_Send                            0x080016f3   Thumb Code    44  hw_config.o(.text)
    Get_SerialNum                            0x0800175d   Thumb Code    42  hw_config.o(.text)
    NMI_Handler                              0x080017a9   Thumb Code     2  stm32_it.o(.text)
    HardFault_Handler                        0x080017ab   Thumb Code     4  stm32_it.o(.text)
    MemManage_Handler                        0x080017af   Thumb Code     4  stm32_it.o(.text)
    BusFault_Handler                         0x080017b3   Thumb Code     4  stm32_it.o(.text)
    UsageFault_Handler                       0x080017b7   Thumb Code     4  stm32_it.o(.text)
    SVC_Handler                              0x080017bb   Thumb Code     2  stm32_it.o(.text)
    DebugMon_Handler                         0x080017bd   Thumb Code     2  stm32_it.o(.text)
    PendSV_Handler                           0x080017bf   Thumb Code     2  stm32_it.o(.text)
    SysTick_Handler                          0x080017c1   Thumb Code     2  stm32_it.o(.text)
    USB_LP_CAN1_RX0_IRQHandler               0x080017c3   Thumb Code     8  stm32_it.o(.text)
    USBWakeUp_IRQHandler                     0x080017cb   Thumb Code    12  stm32_it.o(.text)
    EP1_IN_Callback                          0x080017d7   Thumb Code     2  usb_endp.o(.text)
    USB_Istr                                 0x080017d9   Thumb Code   422  usb_istr.o(.text)
    Joystick_init                            0x080019a5   Thumb Code    30  usb_prop.o(.text)
    Joystick_Reset                           0x080019c3   Thumb Code   148  usb_prop.o(.text)
    Joystick_SetConfiguration                0x08001a57   Thumb Code    14  usb_prop.o(.text)
    Joystick_SetDeviceAddress                0x08001a65   Thumb Code     8  usb_prop.o(.text)
    Joystick_Status_In                       0x08001a6d   Thumb Code     2  usb_prop.o(.text)
    Joystick_Status_Out                      0x08001a6f   Thumb Code     2  usb_prop.o(.text)
    Joystick_GetProtocolValue                0x08001a71   Thumb Code    20  usb_prop.o(.text)
    Joystick_GetHIDDescriptor                0x08001a85   Thumb Code    14  usb_prop.o(.text)
    Joystick_GetReportDescriptor             0x08001a93   Thumb Code    14  usb_prop.o(.text)
    Joystick_Data_Setup                      0x08001aa1   Thumb Code   114  usb_prop.o(.text)
    Joystick_SetProtocol                     0x08001b13   Thumb Code    14  usb_prop.o(.text)
    Joystick_NoData_Setup                    0x08001b21   Thumb Code    32  usb_prop.o(.text)
    Joystick_GetDeviceDescriptor             0x08001b41   Thumb Code    14  usb_prop.o(.text)
    Joystick_GetConfigDescriptor             0x08001b4f   Thumb Code    14  usb_prop.o(.text)
    Joystick_GetStringDescriptor             0x08001b5d   Thumb Code    32  usb_prop.o(.text)
    Joystick_Get_Interface_Setting           0x08001b7d   Thumb Code    22  usb_prop.o(.text)
    PowerOn                                  0x08001bc1   Thumb Code    46  usb_pwr.o(.text)
    PowerOff                                 0x08001bef   Thumb Code    22  usb_pwr.o(.text)
    Suspend                                  0x08001c05   Thumb Code   240  usb_pwr.o(.text)
    Resume_Init                              0x08001cf5   Thumb Code    30  usb_pwr.o(.text)
    Resume                                   0x08001d13   Thumb Code   194  usb_pwr.o(.text)
    Standard_GetConfiguration                0x08001df5   Thumb Code    34  usb_core.o(.text)
    Standard_SetConfiguration                0x08001e17   Thumb Code    60  usb_core.o(.text)
    Standard_GetInterface                    0x08001e53   Thumb Code    34  usb_core.o(.text)
    Standard_SetInterface                    0x08001e75   Thumb Code    96  usb_core.o(.text)
    Standard_GetStatus                       0x08001ed5   Thumb Code   238  usb_core.o(.text)
    Standard_ClearFeature                    0x08001fc3   Thumb Code   342  usb_core.o(.text)
    Standard_SetEndPointFeature              0x08002119   Thumb Code   220  usb_core.o(.text)
    Standard_SetDeviceFeature                0x080021f5   Thumb Code    30  usb_core.o(.text)
    Standard_GetDescriptorData               0x08002213   Thumb Code    32  usb_core.o(.text)
    Post0_Process                            0x08002747   Thumb Code    54  usb_core.o(.text)
    Setup0_Process                           0x0800277d   Thumb Code   170  usb_core.o(.text)
    SetDeviceAddress                         0x08002827   Thumb Code    70  usb_core.o(.text)
    In0_Process                              0x0800286d   Thumb Code    98  usb_core.o(.text)
    Out0_Process                             0x080028cf   Thumb Code    70  usb_core.o(.text)
    NOP_Process                              0x08002915   Thumb Code     2  usb_core.o(.text)
    USB_Init                                 0x08002945   Thumb Code    76  usb_init.o(.text)
    CTR_LP                                   0x080029a9   Thumb Code   616  usb_int.o(.text)
    CTR_HP                                   0x08002c11   Thumb Code   178  usb_int.o(.text)
    UserToPMABufferCopy                      0x08002ce5   Thumb Code    52  usb_mem.o(.text)
    PMAToUserBufferCopy                      0x08002d19   Thumb Code    34  usb_mem.o(.text)
    SetCNTR                                  0x08002d41   Thumb Code     6  usb_regs.o(.text)
    GetCNTR                                  0x08002d47   Thumb Code     8  usb_regs.o(.text)
    SetISTR                                  0x08002d4f   Thumb Code     8  usb_regs.o(.text)
    GetISTR                                  0x08002d57   Thumb Code    10  usb_regs.o(.text)
    GetFNR                                   0x08002d61   Thumb Code    10  usb_regs.o(.text)
    SetDADDR                                 0x08002d6b   Thumb Code     8  usb_regs.o(.text)
    GetDADDR                                 0x08002d73   Thumb Code    10  usb_regs.o(.text)
    SetBTABLE                                0x08002d7d   Thumb Code    14  usb_regs.o(.text)
    GetBTABLE                                0x08002d8b   Thumb Code    10  usb_regs.o(.text)
    SetENDPOINT                              0x08002d95   Thumb Code    12  usb_regs.o(.text)
    GetENDPOINT                              0x08002da1   Thumb Code    16  usb_regs.o(.text)
    SetEPType                                0x08002db1   Thumb Code    32  usb_regs.o(.text)
    GetEPType                                0x08002dd1   Thumb Code    18  usb_regs.o(.text)
    SetEPTxStatus                            0x08002de3   Thumb Code    60  usb_regs.o(.text)
    SetEPRxStatus                            0x08002e1f   Thumb Code    60  usb_regs.o(.text)
    SetDouBleBuffEPStall                     0x08002e5b   Thumb Code    54  usb_regs.o(.text)
    GetEPTxStatus                            0x08002e91   Thumb Code    18  usb_regs.o(.text)
    GetEPRxStatus                            0x08002ea3   Thumb Code    18  usb_regs.o(.text)
    SetEPTxValid                             0x08002eb5   Thumb Code    48  usb_regs.o(.text)
    SetEPRxValid                             0x08002ee5   Thumb Code    48  usb_regs.o(.text)
    SetEP_KIND                               0x08002f15   Thumb Code    38  usb_regs.o(.text)
    ClearEP_KIND                             0x08002f3b   Thumb Code    34  usb_regs.o(.text)
    Clear_Status_Out                         0x08002f5d   Thumb Code    34  usb_regs.o(.text)
    Set_Status_Out                           0x08002f7f   Thumb Code    38  usb_regs.o(.text)
    SetEPDoubleBuff                          0x08002fa5   Thumb Code    38  usb_regs.o(.text)
    ClearEPDoubleBuff                        0x08002fcb   Thumb Code    34  usb_regs.o(.text)
    GetTxStallStatus                         0x08002fed   Thumb Code    28  usb_regs.o(.text)
    GetRxStallStatus                         0x08003009   Thumb Code    30  usb_regs.o(.text)
    ClearEP_CTR_RX                           0x08003027   Thumb Code    32  usb_regs.o(.text)
    ClearEP_CTR_TX                           0x08003047   Thumb Code    28  usb_regs.o(.text)
    ToggleDTOG_RX                            0x08003063   Thumb Code    34  usb_regs.o(.text)
    ToggleDTOG_TX                            0x08003085   Thumb Code    34  usb_regs.o(.text)
    ClearDTOG_RX                             0x080030a7   Thumb Code    48  usb_regs.o(.text)
    ClearDTOG_TX                             0x080030d7   Thumb Code    48  usb_regs.o(.text)
    SetEPAddress                             0x08003107   Thumb Code    46  usb_regs.o(.text)
    GetEPAddress                             0x08003135   Thumb Code    18  usb_regs.o(.text)
    SetEPTxAddr                              0x08003147   Thumb Code    24  usb_regs.o(.text)
    SetEPRxAddr                              0x0800315f   Thumb Code    26  usb_regs.o(.text)
    GetEPTxAddr                              0x08003179   Thumb Code    22  usb_regs.o(.text)
    GetEPRxAddr                              0x0800318f   Thumb Code    24  usb_regs.o(.text)
    SetEPTxCount                             0x080031a7   Thumb Code    20  usb_regs.o(.text)
    SetEPCountRxReg                          0x080031bb   Thumb Code    48  usb_regs.o(.text)
    SetEPRxCount                             0x080031eb   Thumb Code    68  usb_regs.o(.text)
    GetEPTxCount                             0x0800322f   Thumb Code    26  usb_regs.o(.text)
    GetEPRxCount                             0x08003249   Thumb Code    26  usb_regs.o(.text)
    SetEPDblBuffAddr                         0x08003263   Thumb Code    44  usb_regs.o(.text)
    SetEPDblBuf0Addr                         0x0800328f   Thumb Code    24  usb_regs.o(.text)
    SetEPDblBuf1Addr                         0x080032a7   Thumb Code    26  usb_regs.o(.text)
    GetEPDblBuf0Addr                         0x080032c1   Thumb Code    22  usb_regs.o(.text)
    GetEPDblBuf1Addr                         0x080032d7   Thumb Code    24  usb_regs.o(.text)
    SetEPDblBuffCount                        0x080032ef   Thumb Code   186  usb_regs.o(.text)
    SetEPDblBuf0Count                        0x080033a9   Thumb Code    96  usb_regs.o(.text)
    SetEPDblBuf1Count                        0x08003409   Thumb Code    96  usb_regs.o(.text)
    GetEPDblBuf0Count                        0x08003469   Thumb Code    26  usb_regs.o(.text)
    GetEPDblBuf1Count                        0x08003483   Thumb Code    26  usb_regs.o(.text)
    GetEPDblBufDir                           0x0800349d   Thumb Code    62  usb_regs.o(.text)
    FreeUserBuffer                           0x080034db   Thumb Code    90  usb_regs.o(.text)
    ToWord                                   0x08003535   Thumb Code     8  usb_regs.o(.text)
    ByteSwap                                 0x0800353d   Thumb Code    12  usb_regs.o(.text)
    USB_SIL_Init                             0x08003549   Thumb Code    28  usb_sil.o(.text)
    USB_SIL_Write                            0x08003565   Thumb Code    46  usb_sil.o(.text)
    USB_SIL_Read                             0x08003593   Thumb Code    46  usb_sil.o(.text)
    __use_no_semihosting                     0x080035c9   Thumb Code     2  use_no_semi_2.o(.text)
    __use_two_region_memory                  0x080035cb   Thumb Code     2  heapauxi.o(.text)
    __rt_heap_escrow$2region                 0x080035cd   Thumb Code     2  heapauxi.o(.text)
    __rt_heap_expand$2region                 0x080035cf   Thumb Code     2  heapauxi.o(.text)
    __I$use$semihosting                      0x080035d1   Thumb Code     0  use_no_semi.o(.text)
    __use_no_semihosting_swi                 0x080035d1   Thumb Code     2  use_no_semi.o(.text)
    __user_setup_stackheap                   0x080035d3   Thumb Code    74  sys_stackheap_outer.o(.text)
    exit                                     0x0800361d   Thumb Code    18  exit.o(.text)
    __user_libspace                          0x08003631   Thumb Code     8  libspace.o(.text)
    __user_perproc_libspace                  0x08003631   Thumb Code     0  libspace.o(.text)
    __user_perthread_libspace                0x08003631   Thumb Code     0  libspace.o(.text)
    Joystick_DeviceDescriptor                0x08003638   Data          18  usb_desc.o(.constdata)
    Joystick_ConfigDescriptor                0x0800364a   Data          34  usb_desc.o(.constdata)
    Joystick_ReportDescriptor                0x0800366c   Data          74  usb_desc.o(.constdata)
    Joystick_StringLangID                    0x080036b6   Data           4  usb_desc.o(.constdata)
    Joystick_StringVendor                    0x080036ba   Data          38  usb_desc.o(.constdata)
    Joystick_StringProduct                   0x080036e0   Data          30  usb_desc.o(.constdata)
    Region$$Table$$Base                      0x08003700   Number         0  anon$$obj.o(Region$$Table)
    Region$$Table$$Limit                     0x08003720   Number         0  anon$$obj.o(Region$$Table)
    SystemCoreClock                          0x20000000   Data           4  system_stm32f10x.o(.data)
    AHBPrescTable                            0x20000004   Data          16  system_stm32f10x.o(.data)
    __stdout                                 0x2000001c   Data           4  usart.o(.data)
    USART_RX_STA                             0x20000020   Data           2  usart.o(.data)
    HSEStartUpStatus                         0x20000038   Data           1  hw_config.o(.data)
    EXTI_InitStructure                       0x2000003c   Data           8  hw_config.o(.data)
    Joystick_StringSerial                    0x20000044   Data          26  usb_desc.o(.data)
    wIstr                                    0x20000060   Data           2  usb_istr.o(.data)
    bIntPackSOF                              0x20000062   Data           1  usb_istr.o(.data)
    esof_counter                             0x20000064   Data           4  usb_istr.o(.data)
    wCNTR                                    0x20000068   Data           4  usb_istr.o(.data)
    pEpInt_IN                                0x2000006c   Data          28  usb_istr.o(.data)
    pEpInt_OUT                               0x20000088   Data          28  usb_istr.o(.data)
    ProtocolValue                            0x200000a4   Data           4  usb_prop.o(.data)
    Device_Table                             0x200000a8   Data           2  usb_prop.o(.data)
    Device_Property                          0x200000ac   Data          48  usb_prop.o(.data)
    User_Standard_Requests                   0x200000dc   Data          36  usb_prop.o(.data)
    Device_Descriptor                        0x20000100   Data           8  usb_prop.o(.data)
    Config_Descriptor                        0x20000108   Data           8  usb_prop.o(.data)
    Joystick_Report_Descriptor               0x20000110   Data           8  usb_prop.o(.data)
    Mouse_Hid_Descriptor                     0x20000118   Data           8  usb_prop.o(.data)
    String_Descriptor                        0x20000120   Data          32  usb_prop.o(.data)
    bDeviceState                             0x20000140   Data           4  usb_pwr.o(.data)
    fSuspendEnabled                          0x20000144   Data           1  usb_pwr.o(.data)
    ResumeS                                  0x20000145   Data           2  usb_pwr.o(.data)
    remotewakeupon                           0x20000148   Data           4  usb_pwr.o(.data)
    StatusInfo                               0x2000014c   Data           2  usb_core.o(.data)
    Data_Mul_MaxPacketSize                   0x2000014e   Data           1  usb_core.o(.data)
    EPindex                                  0x20000150   Data           1  usb_init.o(.data)
    pInformation                             0x20000154   Data           4  usb_init.o(.data)
    pProperty                                0x20000158   Data           4  usb_init.o(.data)
    SaveState                                0x2000015c   Data           2  usb_init.o(.data)
    wInterrupt_Mask                          0x2000015e   Data           2  usb_init.o(.data)
    pUser_Standard_Requests                  0x20000160   Data           4  usb_init.o(.data)
    SaveRState                               0x20000164   Data           2  usb_int.o(.data)
    SaveTState                               0x20000166   Data           2  usb_int.o(.data)
    USART_RX_BUF                             0x20000168   Data         200  usart.o(.bss)
    EP                                       0x20000230   Data          32  usb_pwr.o(.bss)
    Device_Info                              0x20000250   Data          28  usb_init.o(.bss)
    __libspace_start                         0x2000026c   Data          96  libspace.o(.bss)
    __temporary_stack_top$libspace           0x200002cc   Data           0  libspace.o(.bss)



==============================================================================

Memory Map of the image

  Image Entry point : 0x08000131

  Load Region LR_IROM1 (Base: 0x08000000, Size: 0x00003888, Max: 0x00080000, ABSOLUTE, COMPRESSED[0x000037b0])

    Execution Region ER_IROM1 (Exec base: 0x08000000, Load base: 0x08000000, Size: 0x00003720, Max: 0x00080000, ABSOLUTE)

    Exec Addr    Load Addr    Size         Type   Attr      Idx    E Section Name        Object

    0x08000000   0x08000000   0x00000130   Data   RO          325    RESET               startup_stm32f10x_hd.o
    0x08000130   0x08000130   0x00000008   Code   RO          656  * !!!main             c_w.l(__main.o)
    0x08000138   0x08000138   0x00000034   Code   RO          813    !!!scatter          c_w.l(__scatter.o)
    0x0800016c   0x0800016c   0x0000005a   Code   RO          811    !!dczerorl2         c_w.l(__dczerorl2.o)
    0x080001c6   0x080001c6   0x00000002   PAD
    0x080001c8   0x080001c8   0x0000001c   Code   RO          815    !!handler_zi        c_w.l(__scatter_zi.o)
    0x080001e4   0x080001e4   0x00000002   Code   RO          685    .ARM.Collect$$libinit$$00000000  c_w.l(libinit.o)
    0x080001e6   0x080001e6   0x00000000   Code   RO          692    .ARM.Collect$$libinit$$00000002  c_w.l(libinit2.o)
    0x080001e6   0x080001e6   0x00000000   Code   RO          694    .ARM.Collect$$libinit$$00000004  c_w.l(libinit2.o)
    0x080001e6   0x080001e6   0x00000000   Code   RO          697    .ARM.Collect$$libinit$$0000000A  c_w.l(libinit2.o)
    0x080001e6   0x080001e6   0x00000000   Code   RO          699    .ARM.Collect$$libinit$$0000000C  c_w.l(libinit2.o)
    0x080001e6   0x080001e6   0x00000000   Code   RO          701    .ARM.Collect$$libinit$$0000000E  c_w.l(libinit2.o)
    0x080001e6   0x080001e6   0x00000000   Code   RO          704    .ARM.Collect$$libinit$$00000011  c_w.l(libinit2.o)
    0x080001e6   0x080001e6   0x00000000   Code   RO          706    .ARM.Collect$$libinit$$00000013  c_w.l(libinit2.o)
    0x080001e6   0x080001e6   0x00000000   Code   RO          708    .ARM.Collect$$libinit$$00000015  c_w.l(libinit2.o)
    0x080001e6   0x080001e6   0x00000000   Code   RO          710    .ARM.Collect$$libinit$$00000017  c_w.l(libinit2.o)
    0x080001e6   0x080001e6   0x00000000   Code   RO          712    .ARM.Collect$$libinit$$00000019  c_w.l(libinit2.o)
    0x080001e6   0x080001e6   0x00000000   Code   RO          714    .ARM.Collect$$libinit$$0000001B  c_w.l(libinit2.o)
    0x080001e6   0x080001e6   0x00000000   Code   RO          716    .ARM.Collect$$libinit$$0000001D  c_w.l(libinit2.o)
    0x080001e6   0x080001e6   0x00000000   Code   RO          718    .ARM.Collect$$libinit$$0000001F  c_w.l(libinit2.o)
    0x080001e6   0x080001e6   0x00000000   Code   RO          720    .ARM.Collect$$libinit$$00000021  c_w.l(libinit2.o)
    0x080001e6   0x080001e6   0x00000000   Code   RO          722    .ARM.Collect$$libinit$$00000023  c_w.l(libinit2.o)
    0x080001e6   0x080001e6   0x00000000   Code   RO          724    .ARM.Collect$$libinit$$00000025  c_w.l(libinit2.o)
    0x080001e6   0x080001e6   0x00000000   Code   RO          728    .ARM.Collect$$libinit$$0000002C  c_w.l(libinit2.o)
    0x080001e6   0x080001e6   0x00000000   Code   RO          730    .ARM.Collect$$libinit$$0000002E  c_w.l(libinit2.o)
    0x080001e6   0x080001e6   0x00000000   Code   RO          732    .ARM.Collect$$libinit$$00000030  c_w.l(libinit2.o)
    0x080001e6   0x080001e6   0x00000000   Code   RO          734    .ARM.Collect$$libinit$$00000032  c_w.l(libinit2.o)
    0x080001e6   0x080001e6   0x00000002   Code   RO          735    .ARM.Collect$$libinit$$00000033  c_w.l(libinit2.o)
    0x080001e8   0x080001e8   0x00000002   Code   RO          753    .ARM.Collect$$libshutdown$$00000000  c_w.l(libshutdown.o)
    0x080001ea   0x080001ea   0x00000000   Code   RO          763    .ARM.Collect$$libshutdown$$00000002  c_w.l(libshutdown2.o)
    0x080001ea   0x080001ea   0x00000000   Code   RO          765    .ARM.Collect$$libshutdown$$00000004  c_w.l(libshutdown2.o)
    0x080001ea   0x080001ea   0x00000000   Code   RO          768    .ARM.Collect$$libshutdown$$00000007  c_w.l(libshutdown2.o)
    0x080001ea   0x080001ea   0x00000000   Code   RO          771    .ARM.Collect$$libshutdown$$0000000A  c_w.l(libshutdown2.o)
    0x080001ea   0x080001ea   0x00000000   Code   RO          773    .ARM.Collect$$libshutdown$$0000000C  c_w.l(libshutdown2.o)
    0x080001ea   0x080001ea   0x00000000   Code   RO          776    .ARM.Collect$$libshutdown$$0000000F  c_w.l(libshutdown2.o)
    0x080001ea   0x080001ea   0x00000002   Code   RO          777    .ARM.Collect$$libshutdown$$00000010  c_w.l(libshutdown2.o)
    0x080001ec   0x080001ec   0x00000000   Code   RO          660    .ARM.Collect$$rtentry$$00000000  c_w.l(__rtentry.o)
    0x080001ec   0x080001ec   0x00000000   Code   RO          662    .ARM.Collect$$rtentry$$00000002  c_w.l(__rtentry2.o)
    0x080001ec   0x080001ec   0x00000006   Code   RO          674    .ARM.Collect$$rtentry$$00000004  c_w.l(__rtentry4.o)
    0x080001f2   0x080001f2   0x00000000   Code   RO          664    .ARM.Collect$$rtentry$$00000009  c_w.l(__rtentry2.o)
    0x080001f2   0x080001f2   0x00000004   Code   RO          665    .ARM.Collect$$rtentry$$0000000A  c_w.l(__rtentry2.o)
    0x080001f6   0x080001f6   0x00000000   Code   RO          667    .ARM.Collect$$rtentry$$0000000C  c_w.l(__rtentry2.o)
    0x080001f6   0x080001f6   0x00000008   Code   RO          668    .ARM.Collect$$rtentry$$0000000D  c_w.l(__rtentry2.o)
    0x080001fe   0x080001fe   0x00000002   Code   RO          689    .ARM.Collect$$rtexit$$00000000  c_w.l(rtexit.o)
    0x08000200   0x08000200   0x00000000   Code   RO          737    .ARM.Collect$$rtexit$$00000002  c_w.l(rtexit2.o)
    0x08000200   0x08000200   0x00000004   Code   RO          738    .ARM.Collect$$rtexit$$00000003  c_w.l(rtexit2.o)
    0x08000204   0x08000204   0x00000006   Code   RO          739    .ARM.Collect$$rtexit$$00000004  c_w.l(rtexit2.o)
    0x0800020a   0x0800020a   0x00000002   PAD
    0x0800020c   0x0800020c   0x0000003c   Code   RO            1    .text               main.o
    0x08000248   0x08000248   0x000001e0   Code   RO          156    .text               system_stm32f10x.o
    0x08000428   0x08000428   0x0000004c   Code   RO          196    .text               led.o
    0x08000474   0x08000474   0x000000d8   Code   RO          208    .text               key.o
    0x0800054c   0x0800054c   0x0000017c   Code   RO          236    .text               exti.o
    0x080006c8   0x080006c8   0x000000d4   Code   RO          259    .text               delay.o
    0x0800079c   0x0800079c   0x00000140   Code   RO          290    .text               usart.o
    0x080008dc   0x080008dc   0x00000040   Code   RO          326    .text               startup_stm32f10x_hd.o
    0x0800091c   0x0800091c   0x000000dc   Code   RO          330    .text               misc.o
    0x080009f8   0x080009f8   0x0000035c   Code   RO          342    .text               stm32f10x_gpio.o
    0x08000d54   0x08000d54   0x000003a4   Code   RO          354    .text               stm32f10x_rcc.o
    0x080010f8   0x080010f8   0x00000408   Code   RO          368    .text               stm32f10x_usart.o
    0x08001500   0x08001500   0x0000011c   Code   RO          380    .text               stm32f10x_exti.o
    0x0800161c   0x0800161c   0x0000018c   Code   RO          392    .text               hw_config.o
    0x080017a8   0x080017a8   0x0000002e   Code   RO          442    .text               stm32_it.o
    0x080017d6   0x080017d6   0x00000002   Code   RO          476    .text               usb_endp.o
    0x080017d8   0x080017d8   0x000001cc   Code   RO          489    .text               usb_istr.o
    0x080019a4   0x080019a4   0x0000021c   Code   RO          510    .text               usb_prop.o
    0x08001bc0   0x08001bc0   0x00000234   Code   RO          533    .text               usb_pwr.o
    0x08001df4   0x08001df4   0x00000b50   Code   RO          552    .text               usb_core.o
    0x08002944   0x08002944   0x00000064   Code   RO          567    .text               usb_init.o
    0x080029a8   0x080029a8   0x0000033c   Code   RO          590    .text               usb_int.o
    0x08002ce4   0x08002ce4   0x0000005c   Code   RO          614    .text               usb_mem.o
    0x08002d40   0x08002d40   0x00000808   Code   RO          626    .text               usb_regs.o
    0x08003548   0x08003548   0x00000080   Code   RO          638    .text               usb_sil.o
    0x080035c8   0x080035c8   0x00000002   Code   RO          652    .text               c_w.l(use_no_semi_2.o)
    0x080035ca   0x080035ca   0x00000006   Code   RO          654    .text               c_w.l(heapauxi.o)
    0x080035d0   0x080035d0   0x00000002   Code   RO          658    .text               c_w.l(use_no_semi.o)
    0x080035d2   0x080035d2   0x0000004a   Code   RO          676    .text               c_w.l(sys_stackheap_outer.o)
    0x0800361c   0x0800361c   0x00000012   Code   RO          678    .text               c_w.l(exit.o)
    0x0800362e   0x0800362e   0x00000002   PAD
    0x08003630   0x08003630   0x00000008   Code   RO          686    .text               c_w.l(libspace.o)
    0x08003638   0x08003638   0x000000c6   Data   RO          463    .constdata          usb_desc.o
    0x080036fe   0x080036fe   0x00000002   PAD
    0x08003700   0x08003700   0x00000020   Data   RO          809    Region$$Table       anon$$obj.o


    Execution Region RW_IRAM1 (Exec base: 0x20000000, Load base: 0x08003720, Size: 0x000008d0, Max: 0x00010000, ABSOLUTE, COMPRESSED[0x00000090])

    Exec Addr    Load Addr    Size         Type   Attr      Idx    E Section Name        Object

    0x20000000   COMPRESSED   0x00000014   Data   RW          157    .data               system_stm32f10x.o
    0x20000014   COMPRESSED   0x00000001   Data   RW          209    .data               key.o
    0x20000015   COMPRESSED   0x00000001   PAD
    0x20000016   COMPRESSED   0x00000004   Data   RW          260    .data               delay.o
    0x2000001a   COMPRESSED   0x00000002   PAD
    0x2000001c   COMPRESSED   0x00000006   Data   RW          292    .data               usart.o
    0x20000022   COMPRESSED   0x00000014   Data   RW          355    .data               stm32f10x_rcc.o
    0x20000036   COMPRESSED   0x00000002   PAD
    0x20000038   COMPRESSED   0x0000000c   Data   RW          393    .data               hw_config.o
    0x20000044   COMPRESSED   0x0000001a   Data   RW          464    .data               usb_desc.o
    0x2000005e   COMPRESSED   0x00000002   PAD
    0x20000060   COMPRESSED   0x00000044   Data   RW          490    .data               usb_istr.o
    0x200000a4   COMPRESSED   0x0000009c   Data   RW          511    .data               usb_prop.o
    0x20000140   COMPRESSED   0x0000000c   Data   RW          535    .data               usb_pwr.o
    0x2000014c   COMPRESSED   0x00000003   Data   RW          553    .data               usb_core.o
    0x2000014f   COMPRESSED   0x00000001   PAD
    0x20000150   COMPRESSED   0x00000014   Data   RW          569    .data               usb_init.o
    0x20000164   COMPRESSED   0x00000004   Data   RW          591    .data               usb_int.o
    0x20000168        -       0x000000c8   Zero   RW          291    .bss                usart.o
    0x20000230        -       0x00000020   Zero   RW          534    .bss                usb_pwr.o
    0x20000250        -       0x0000001c   Zero   RW          568    .bss                usb_init.o
    0x2000026c        -       0x00000060   Zero   RW          687    .bss                c_w.l(libspace.o)
    0x200002cc   COMPRESSED   0x00000004   PAD
    0x200002d0        -       0x00000200   Zero   RW          324    HEAP                startup_stm32f10x_hd.o
    0x200004d0        -       0x00000400   Zero   RW          323    STACK               startup_stm32f10x_hd.o


==============================================================================

Image component sizes


      Code (inc. data)   RO Data    RW Data    ZI Data      Debug   Object Name

       212         18          0          4          0       1023   delay.o
       380         22          0          0          0       1060   exti.o
       396         34          0         12          0       5481   hw_config.o
       216         14          0          1          0        808   key.o
        76          8          0          0          0        487   led.o
        60          8          0          0          0     246739   main.o
       220         22          0          0          0       1777   misc.o
        64         26        304          0       1536        784   startup_stm32f10x_hd.o
        46          0          0          0          0       1522   stm32_it.o
       284         10          0          0          0       2235   stm32f10x_exti.o
       860         38          0          0          0       5713   stm32f10x_gpio.o
       932         36          0         20          0       8884   stm32f10x_rcc.o
      1032         22          0          0          0       8436   stm32f10x_usart.o
         0          0          0          0          0         32   sys.o
       480         38          0         20          0       1707   system_stm32f10x.o
       320         16          0          6        200       3142   usart.o
      2896        114          0          3          0       7991   usb_core.o
         0          0        198         26          0        981   usb_desc.o
         2          0          0          0          0        406   usb_endp.o
       100         24          0         20         28       3994   usb_init.o
       828         34          0          4          0       1783   usb_int.o
       460         38          0         68          0       1515   usb_istr.o
        92          6          0          0          0       1302   usb_mem.o
       540         46          0        156          0       7486   usb_prop.o
       564         40          0         12         32       2855   usb_pwr.o
      2056         20          0          0          0      11877   usb_regs.o
       128          8          0          0          0       1366   usb_sil.o

    ----------------------------------------------------------------------
     13244        642        536        360       1796     331386   Object Totals
         0          0         32          0          0          0   (incl. Generated)
         0          0          2          8          0          0   (incl. Padding)

    ----------------------------------------------------------------------

      Code (inc. data)   RO Data    RW Data    ZI Data      Debug   Library Member Name

        90          0          0          0          0          0   __dczerorl2.o
         8          0          0          0          0         68   __main.o
         0          0          0          0          0          0   __rtentry.o
        12          0          0          0          0          0   __rtentry2.o
         6          0          0          0          0          0   __rtentry4.o
        52          8          0          0          0          0   __scatter.o
        28          0          0          0          0          0   __scatter_zi.o
        18          0          0          0          0         80   exit.o
         6          0          0          0          0        152   heapauxi.o
         2          0          0          0          0          0   libinit.o
         2          0          0          0          0          0   libinit2.o
         2          0          0          0          0          0   libshutdown.o
         2          0          0          0          0          0   libshutdown2.o
         8          4          0          0         96         68   libspace.o
         2          0          0          0          0          0   rtexit.o
        10          0          0          0          0          0   rtexit2.o
        74          0          0          0          0         80   sys_stackheap_outer.o
         2          0          0          0          0         68   use_no_semi.o
         2          0          0          0          0         68   use_no_semi_2.o

    ----------------------------------------------------------------------
       332         12          0          0        100        584   Library Totals
         6          0          0          0          4          0   (incl. Padding)

    ----------------------------------------------------------------------

      Code (inc. data)   RO Data    RW Data    ZI Data      Debug   Library Name

       326         12          0          0         96        584   c_w.l

    ----------------------------------------------------------------------
       332         12          0          0        100        584   Library Totals

    ----------------------------------------------------------------------

==============================================================================


      Code (inc. data)   RO Data    RW Data    ZI Data      Debug   

     13576        654        536        360       1896     329626   Grand Totals
     13576        654        536        144       1896     329626   ELF Image Totals (compressed)
     13576        654        536        144          0          0   ROM Totals

==============================================================================

    Total RO  Size (Code + RO Data)                14112 (  13.78kB)
    Total RW  Size (RW Data + ZI Data)              2256 (   2.20kB)
    Total ROM Size (Code + RO Data + RW Data)      14256 (  13.92kB)

==============================================================================

