:020000040000FA
:1000000088280020C1030000C9030000CB030000C2
:10001000CD030000CF030000D1030000000000006A
:10002000000000000000000000000000D3030000FA
:10003000D503000000000000D7030000D903000032
:10004000DB030000DB030000A9080000DB03000065
:10005000DB030000DB03000009050000DB030000F8
:10006000DB030000DB030000DB030000DB03000018
:10007000DB030000DB030000DB030000DB03000008
:10008000DB030000BD060000DB030000DB03000013
:10009000DB030000DB030000DB030000DB030000E8
:1000A000DB030000DB030000DB030000DB030000D8
:1000B000DB030000DB030000000000000000000084
:1000C000DB030000DB030000DB030000DB030000B8
:1000D000DB030000DB030000DB030000DB030000A8
:1000E000DB030000DB030000DB0300000000000076
:1000F00000000000DB03000000000000DB03000044
:1001000000000000000000000000000000000000EF
:1001100000000000000000000000000000000000DF
:1001200000000000000000000000000000000000CF
:1001300000000000000000000000000000000000BF
:1001400000000000000000000000000000000000AF
:10015000000000000000000000000000000000009F
:10016000000000000000000000000000000000008F
:10017000000000000000000000000000000000007F
:10018000000000000000000000000000000000006F
:10019000000000000000000000000000000000005F
:1001A000000000000000000000000000000000004F
:1001B000000000000000000000000000000000003F
:1001C000000000000000000000000000000000002F
:1001D000000000000000000000000000000000001F
:1001E000000000000000000000000000000000000F
:1001F00000000000000000000000000000000000FF
:10020000DFF80CD000F06EF900480047F518000048
:100210008828002030B450E8012F93B2C4892344C9
:100220008489A34228BF1B1B0489A34202BFBFF3DA
:100230002F8F002007E0C3EA020340E80134002CBE
:10024000E9D14FF001000A6030BC704750E8012F3F
:10025000C2EA024240E801210029F7D1704730B4D8
:1002600050E8022F1FFAA2F3C488A34202BFBFF3D3
:100270002F8F00200DE0C48923448489A34228BF26
:100280001B1BC2EA034340E80234002CE8D14FF0C4
:1002900001000A6030BC704750E8022FC2EA2242D7
:1002A00040E802210029F7D17047034653E8022FA6
:1002B000D988B2EB324F4FF0000017BF92B241EA3B
:1002C000014142EA014104E05A68B2EB324F08BFF3
:1002D000012043E80212002AE8D1704730B40446F6
:1002E00054E8000F0D4644E80053002BF8D1156088
:1002F00030BC704730B4044654E8000F40EA0105B2
:1003000044E80053002BF7D1156030BC704730B47F
:10031000044654E8000F00EA010544E80053002BAE
:10032000F7D1156030BC704730B4044654E8000F74
:1003300080EA010544E80053002BF7D1156030BC7A
:10034000704730B4044654E8000F00EB010544E860
:100350000053002BF7D1156030BC704730B4044611
:1003600054E8000FA0EB010544E80053002BF7D13F
:10037000156030BC704770B404464FF0000054E87C
:10038000006F0D68AE4207BF44E80023012044E837
:1003900000630E60002B1CBF0020F0E770BC7047AC
:1003A00030B4044654E8000F88422CBF451A054675
:1003B00044E80053002BF5D1156030BC70470000B5
:1003C0000648804706480047FEE7FEE7FEE7FEE7EF
:1003D000FEE7FEE7FEE7FEE7FEE7FEE7CD060000EC
:1003E000010200002DE9F05F0546002092469B4681
:1003F00088460646814640241BE02846414647463B
:10040000224600F05EF853465A46C01A914110D376
:1004100011461846224600F016F82D1A67EB01081F
:100420004F4622460120002100F00DF817EB00098D
:100430004E41201EA4F10104DFDC484631462A4625
:100440004346BDE8F09F202A04DB203A00FA02F17F
:10045000002070479140C2F1200320FA03F31943B2
:100460009040704700487047543B000040EA010349
:100470009B0703D009E008C9121F08C0042AFAD25A
:1004800003E011F8013B00F8013B521EF9D270471E
:10049000D2B201E000F8012B491EFBD270470022C6
:1004A000F6E710B513460A4604461946FFF7F0FF73
:1004B000204610BD421C10F8011B0029FBD1801AF8
:1004C0007047202A04DB203A21FA02F0002170470D
:1004D00021FA02F3D040C2F12002914008431946AC
:1004E00070470000064C074D06E0E06840F001034D
:1004F00094E8070098471034AC42F6D3FFF784FE27
:10050000183C0000383C00002DE9F04F00268DB06B
:10051000DFF8A081B14604964FF480750124374678
:100520000596284601F0F4FD38B1D8F804032042BE
:1005300003D0284601F0E2FD26432D1D64007F1CF8
:10054000ADB2082FEDD34FF4BE74204601F0E0FDAC
:1005500048B1204601F0D2FD46F0004604AA02212F
:10056000002001F0B5FD544C16F0FF0F15D0012707
:10057000002537420DD008EB8501D1F81005D1F8E0
:100580001015C0F3052054F82520C1F3014102B134
:1005900090477F006D1C082DEBD3002E7EDA0020E3
:1005A000CDF82890411E0DF1100B07AACDF82C9024
:1005B00042F82010401C91460228F9D300252E460F
:1005C000A11911F8607F91F9000027F0C008401CC4
:1005D00040D007A9404601F010FB40B34FEA971AFC
:1005E000404600F01FFE54F820701FB1BAF1030F0F
:1005F00003D006E0BAF1030F2CD10AA9404601F05E
:1006000004FB02A8CDF8088001F006FD029900EB7A
:100610008100D0F8000704A9C0F3014002904046D1
:1006200001F0EBFA0028029802D0022802D011E073
:1006300003280FD1BAF1030F08D10298022833D052
:100640000221404601F0C2FC6D1CEDB217B15146CB
:100650004046B847761C042EB2D3002D21D001AA03
:100660000221002001F034FD00205A460DF1040162
:1006700052F8206051F82030B34217D000200AAE63
:100680004FEA090351F8207042F8207056F82070A4
:1006900043F82070401C0228F4D300E001E0002D54
:1006A0008CD10DB0BDE8F08F0321CAE7401C0228B1
:1006B000DED3F6E7006000406001002002490248F6
:1006C000091F0968006808477400002030B54FF022
:1006D000805000228300D0F83011C3F80C21C3F8F9
:1006E0001021624B1A60624B1B68624C2360604BA6
:1006F0001B1D1B68241D23605D4B08331B68241DD4
:1007000023605B4B0C331B68241D2360584B103354
:100710001B68241D2360564B14331B68241D236063
:10072000534B18331B68534C20342360504B1C33FD
:100730001B68241D23604E4B20331B68241D23603F
:100740004B4B24331B68241D2360494B28331B6803
:10075000241D2360464B2C331B68241D2360444B0F
:1007600030331B68434C40342360414B34331B68A7
:10077000241D23603E4B38331B68241D23603C4BF3
:100780003C331B68241D2360394B40331B68241DF8
:1007900023600123082902D1D0F8344114B108297B
:1007A00004D006E0354C3449216005E0D0F83441EE
:1007B00014B1082904D006E0314CFB21216005E08A
:1007C000D0F8344114B1082908D00EE090F858420E
:1007D0002C48016864F30301016002E0D0F8344161
:1007E0001CB929494FF40070086028480168C907FE
:1007F00002D06FF0010101602548016841F47001E9
:100800000160BFF34F8FBFF36F8F4FF01021D1F80E
:100810000002002803DBD1F80402002822DA1D4C74
:1008200023601D480368002BFCD01223C1F800325E
:100830000568002DFCD0C1F8043201680029FCD005
:10084000226001680029FCD0BFF34F8F10487C382C
:100850000168124A01F4E06111430160BFF34F8F58
:1008600000BFFDE70F490E48086030BD3805004065
:100870000404001020C50040488103008C5600404D
:1008800018F50040E40E004040960240000400408D
:1008900088ED00E004E5014000E401400400FA05B1
:1008A0000090D003EC0000200148006800470000E1
:1008B0002800002002E008C8121F08C1002AFAD14F
:1008C00070477047002001E001C1121F002AFBD1D0
:1008D0007047022000F0C8B970B50024064D06E04C
:1008E0006868012110F8340001F0ECFF641C2878DE
:1008F0008442F5D3002070BD30000020F8B51646C4
:100900000C4605460A2A01D20720F8BD02F0D0F8AD
:1009100018B902F095F80028F7D1134F2021134899
:100920007D603C70BE60FFF7BAFD0020C7E904009F
:100930000F4E0DE005EBC4003168009181788DF811
:10094000011000780B4A694602F008F80028DCD153
:10095000641EE4B2EED2BDE8F84005480021064A24
:10096000001D00F05FB800003000002040020020B1
:100970005C3A0000791600008112000072B601F0A6
:100980005FFE00BF01F0AAFC0028FBD1114812490C
:10099000401AC408012000EB044010A101F0B6FD8C
:1009A00011480068C00700D000BE022000EB0440E0
:1009B0000EA101F0ABFDBFF34F8F0B48E438016887
:1009C0000E4A01F4E06111430160BFF34F8F00BF95
:1009D000FDE70000803C0000483C00004661746177
:1009E0006C206572726F7200F0ED00E053797374E1
:1009F000656D207265736574000000000400FA05DF
:100A00000EB500210091CDE901106A4644F20100C3
:100A1000FFF7B4FF0EBD0000014800F098BC0000D5
:100A2000500000203AB100680129426100D0002145
:100A300001610020704707207047000038B5114859
:100A400008235822416800910F49006801F028F8F6
:100A5000002815D10D4A69460D4800F07DFC0400C0
:100A60000ED101210A4800F0EEFC0123094A194683
:100A7000074800F044FC0649012008390870204668
:100A800038BD0000643A000070020020953100007B
:100A900050000020FFFF7F0070B50446007F0D4628
:100AA00008B1002070BDA26100F0CCFD401941F1F9
:100AB0000001C4E90201206900B125612146BDE8B9
:100AC0007040002002F06EBD014600200877012032
:100AD00002F068BD00F002B800F008B872B6024833
:100AE0000168491C016070476C00002003490868D8
:100AF000401E086000D162B6704700006C00002004
:100B000070B5054608680C46411C04D001F0B9FADE
:100B1000206801F047FA6068411C02D0002101F012
:100B20002FFA2968A069C1F82405607D227D296813
:100B30001043C1F86C05D4E900122868C0F81425E8
:100B4000C0F80C15207D012814D1A068411C02D0EA
:100B5000002101F015FAE068411C04D001F091FA7F
:100B6000E06801F01FFAD4E902122868C0F80825ED
:100B7000C0F8101570BD70B5054608680C46411CDC
:100B800004D001F088FA206801F016FA6068411C70
:100B900002D0002101F0FDF92968A069C1F82405FF
:100BA000607D217D2A680843C2F86C05D4E90012F3
:100BB0002868C0F80C15C0F81425207D012814D130
:100BC000A068411C02D0002101F0E3F9E068411C5B
:100BD00004D001F060FAE06801F0EEF9D4E9021205
:100BE0002868C0F80825C0F8101570BD084908B578
:100BF000085C0090684601F001FAD0F810050099F1
:100C0000C84010F0010000D0012080F0010008BDB4
:100C10001C3A00002DE9FC410646C0074FF00005D4
:100C20000ED0104F00240122385D0095002311469C
:100C3000019501F02FF9641C042CF4D300F04EF858
:100C4000B0070DD5074E0024361D0022305D03236A
:100C500000951146019501F01DF9641C042CF4D394
:100C6000BDE8FC81183A0000094908B5085C00900D
:100C7000684601F0C3F9D0F80425009B0121994092
:100C800021EA0203C0F808351140C0F80C1508BD70
:100C9000183A00000249085C012101F006BA000080
:100CA000183A00000249085C002101F0FEB900007A
:100CB000183A0000084908B5085C0090684601F041
:100CC0009DF9D0F804050099C84010F0010000D04B
:100CD000012080F0010008BD183A000010B5002482
:100CE0002046FFF7D7FF641C042CF9D310BD10B5C4
:100CF00000242046FFF7D6FF641C042CF9D310BD56
:100D000010B50246064B4FF0FF3000215C5C944268
:100D100001D1084610BD491C0429F7D310BD0000BD
:100D20001C3A00002DE9F0470D468146FFF7E8FF29
:100D30000446042836D2DFF874801B481C4EA8F104
:100D40000C0725B3012D0ED0022D2BD104EB44004E
:100D500030444578002D25D0B968002922D0284696
:100D6000BDE8F047084704EB4401755C0E44717818
:100D700049B10E4A4FF48041093A8068FFF78CFE72
:100D800008B987F80390B17808F80410E2E78068A2
:100D9000FFF79AFE04EB4401314418F804008D7803
:100DA000A842D7D0BDE8F087203A0000100000200C
:100DB0003001002070B50023042810D20D4D00EB47
:100DC0004004012A02D101290CD00022094E00EB77
:100DD0004000304461B1012906D0022906D0072322
:100DE000184670BD0E30C2B22A55F9E74270F7E7D7
:100DF0008270F5E73001002070B500250E38072815
:100E00000BD8002401262046FFF7F0FE08B106FAB1
:100E100004F00543641C042CF5DB0148056070BD3B
:100E200000000020044A014600201279D20702D0B7
:100E3000084600F04DB870470400002070B5064623
:100E40001E480024C0E90161B00720D50025012219
:100E500011462846FFF7AEFF6D1C0446042D02D252
:100E6000002CF4D013E094B940F23332042114483A
:100E7000FFF744FD04000AD1FFF72EFD040006D160
:100E80000F48104A0021001FFFF7CCFD0446F00771
:100E900012D00120FFF7BEFE74B909480A4A0021AA
:100EA0000C38FFF7BFFD040006D10548074A0121B1
:100EB0000838FFF7B7FD0446204670BD0400002047
:100EC0002C3A00008D11000045180000D3080000E6
:100ED0002DE9F05F6E4C054600266078B34618B1E8
:100EE00084F801B000F096FC6A4F4FF47A694FF431
:100EF000C87A4FF00108182D69D2DFE805F00C130D
:100F000013384754696E727B727BC58484848484F1
:100F1000B3B6B9BCC5C500F07DFC3868FFF7D4FD99
:100F200006465CE00020FFF7C5FE00284FF00000F9
:100F300008D0FFF7AFFE022D02D14FF4E16008E0C8
:100F4000484606E0FFF7AEFE022D01D1C82000E0C2
:100F50005046410CC0034FF47A72801841F10001F1
:100F6000257052000023FFF73DFA01462AE00020D9
:100F7000FFF7A0FE00284FF0000004D0FFF78AFE24
:100F80004FF44870E5E7FFF78DFEDFE70020FFF73D
:100F900091FE00284FF0000002D0FFF77BFECFE764
:100FA000FFF780FED4E70020FFF784FE00284FF013
:100FB000000002D0FFF76EFE01E0FFF773FE257020
:100FC00040F6CD4100223868FFF766FD064646E050
:100FD0000020FFF749FE257008E0002051E0257051
:100FE0003DE084F801800120FFF73EFE002240F240
:100FF0006661E8E784F801800120FFF735FE0022F2
:101000004FF40051DFE77868FFF75EFD0646D5F143
:10101000110000D02EB10220FFF73CFE84F802B090
:101020001DE0012816D980B2C8214843C117C90361
:1010300041EA5041C0034FF47A72801841F1000137
:1010400052000023FFF7CEF9014600227868FFF72F
:1010500023FD06460220FFF725FE84F80280304675
:10106000BDE8F09F00F0D6FBB9E700F0D3FBB4E792
:1010700000F0D0FB04E000F0CDFB0020FFF712FEF3
:101080000120FFF70FFEAAE7FFF731FEA7E70000F8
:1010900004000020203A00002DE9F0470546861C98
:1010A00090460F464FF001090020FFF713FD1B4C3F
:1010B00020683860D4E90001401AA16804F21C4796
:1010C000081A0EE00121384600F02FFD00F0C4FBA5
:1010D0000146384600F029FDD4E90001401AA16814
:1010E000081A401C8642EDD8B8F1000F03D0052045
:1010F00065F3891002E0062065F39F50A26821681D
:10110000114004EB8101C860206830442060002059
:10111000FFF7E2FC4846BDE8F087000060040020CD
:1011200070B50D4604460A2902D10D21FFF7F8FFDC
:10113000A0682268411CA1601554D4E901018142D4
:1011400004D32046BDE8704000F0ABBD70BD000088
:10115000034803C8814201D1012070470020704735
:1011600060040020034630B5074800210478426837
:1011700006E000BF02EBC10005789D4203D0491C88
:10118000A142F7DB002030BD3000002000780221B2
:10119000FFF7C8BD70B50446000E02F089F90506D8
:1011A000200C02F085F945EA0045200A02F080F99A
:1011B00045EA0025204602F07BF9284370BD000077
:1011C00005494FF0FF32082841F8202002D3084497
:1011D00080F858207047000060010020F0B54FF003
:1011E000FF3512B10023082601E008230C260C4C21
:1011F00005E000BF54F823707F1C04D05B1CB34291
:10120000F8D32846F0BD26185DB286F8305044F871
:101210002310002AF5D1E11881F85800F1E7000009
:10122000600100200249084490F930007047000036
:10123000600100204FF080400022C0F80021012111
:10124000C0F80010D0F80031002BFBD0054B19601E
:10125000C0F80421C0F80810D0F804110029FBD010
:10126000704700001805004010B5D0E90234D1E9FC
:101270000220D11AA04101D3012010BD002010BDD1
:1012800070B500240F4D10E0686800EBC40630789C
:1012900001F0CEFB7178012901D0012100E000218D
:1012A0004140307800F058F9641C28788442EBDB28
:1012B000D5E90401084303D0BDE8704002F08EB9BF
:1012C00070BD00003000002010B50021024800F081
:1012D00037FC80F3100010BD7C0800204FF48032F2
:1012E0008A400168C1F848230068C0F808237047A5
:1012F0004FF4A07202EB810189B200F099B92DE997
:10130000F04105460E464FF4A07000EB860081B216
:1013100028684FF48034B440984622F07F47C0F8E4
:1013200008432868C0F84843286801F076FA28681E
:1013300000EB8600C0F840752868C0F84443B8F157
:10134000000F02D02868C0F80443BDE8F0810068AF
:10135000D0F804057047000070B54379224C44F87A
:1013600023204279241D04EBC202204B1579204A28
:101370009A1AD3082DB10824022000EB03401DA1C6
:101380002EE002680D88C2F8085590F9042089788B
:10139000002A4FEA411106DA02F00F0202F1E022C0
:1013A00082F8141D03E002F1E02282F8001490F9A3
:1013B0000410012201F01F0502FA05F54909890010
:1013C00001F1E021C1F80051417904EBC1010A713A
:1013D000417944F831000320002400EB03400EA1C2
:1013E00001F094F8204670BD70000020703C0000B1
:1013F000483C000052544320696E7374616E63650B
:1014000020616C726561647920696E697469616CD0
:10141000697A65642E0000005254433A20696E696F
:101420007469616C697A65642E00000090F90400AB
:10143000012100F01F0291404009800000F1E020EE
:10144000C0F8001270470A46022100F07BB84FF442
:10145000827100F0EDB800680121016070470068FA
:101460000121416070472DE9F05F07460C464FF4BB
:10147000A07000EB84001FFA80FA38684FF48036C1
:10148000A6409B4622F07F45C0F848633868C0F804
:1014900008633868D0F8048500EB8402D2F84095E0
:1014A000C2F840855146386801F0B7F9A9EB080049
:1014B00020F07F40012806D1102001F0FBF95146B1
:1014C000386801F0AAF93868D0F80485C0F8446398
:1014D000A5EB080121F07F413868012900EB840069
:1014E00010D0C0F840553868D0F804156FF07F4C24
:1014F0006A1A521E22F07F42ACEB0B03934217D3C1
:1015000062B118E06D1CC0F84055102001F0D2F90E
:101510003868D0F8040540450AD10CE000EB84009F
:101520006D1CC0F840553868D0F80405884202D0D8
:101530000D20BDE8F09F01223146384600F002F848
:101540000020F6E70368C3F84413002A02D00068BD
:10155000C0F80413704700002DE9F0470E463249E9
:10156000804601EB5001C007097801D00F0901E066
:1015700001F00F07424601200021FEF764FFDFF86B
:10158000AC9004460D46052F4BD2DFE807F003145C
:1015900019262A00002E44D00121404601F02AFFDE
:1015A0000020FFF797FA4846D0E904120C43154390
:1015B000C9E9044530E00EB1022114E0002112E037
:1015C0004EB10321404601F015FF4046BDE8F0470B
:1015D000012102F011BA012105E0002E21D10421E0
:1015E00001E02EB103214046BDE8F04701F002BF03
:1015F0000021404601F0FEFE0021404602F0FCF9C9
:101600000020FFF767FA4A46E043D2E90434184065
:1016100024EA0501C9E90401BDE8F0470020FFF70D
:101620005BBABDE8F08700004002002030000020D7
:1016300010B5006842581AB101F0EFF8012010BD52
:10164000002010BD10B50B48FFF781FE094A083A8B
:10165000D2E90434C018D2E9063244F10001C31AB9
:1016600071EB020204D24FF08072801841F1000148
:1016700010BD00005000002010B5C0B2FFF772FD91
:101680000446007801F0D4F901466078012801D0C1
:10169000012000E0002090EA010F08D00449D1E9C0
:1016A0000401084303D1BDE8104001F097BF10BD0D
:1016B000300000202DE9FC5F0E008346DDE90C4779
:1016C000C6F1000098469246814600D4084601259E
:1016D00003E000BF90FBFAF06D1C5045FADAA84514
:1016E00000D9454624B1002E01DB780700D5641EE1
:1016F000B80702D5B8F1000F0AD0F80708D13CB1FD
:10170000A54205D220215846641EFFF709FDF6E7E1
:10171000002E02DA4E462D2102E0780703D52B2158
:101720005846FFF7FDFC07F0030002280BD1B8F183
:10173000000F08D13CB1A54205D230215846641EA5
:10174000FFF7EEFCF6E7CDE9004743465246314647
:10175000584602F0F7F8BDE8FC9F000070B50D4652
:10176000044600684FF4887101F09DF84FF49071C1
:10177000206801F098F84FF49271206801F093F816
:101780004FF4A271206801F08EF84FF4AC7120681C
:1017900001F089F820681149C0F80413206869072E
:1017A00040F30730090E002806DA00F00F0000F1C0
:1017B000E02080F8141D03E000F1E02080F8001420
:1017C0002068012140F3073000F01F0291404009DA
:1017D000800000F1E020C0F8001170BD100342004D
:1017E000024600201268530713D502F003000128B7
:1017F00002D002280CD105E0C2F383100B68801CD4
:10180000184404E00223086803EB92521044086075
:10181000012070470A4810B5807860B1002401E0CB
:10182000022C06D02046FFF735FA641C042CF7D3AF
:1018300010BD0324F6E7BDE81040FFF74FBA0000E3
:101840000400002003480179C90702D00078FFF79F
:101850003FBB7047040000202DE9FF4100262348CC
:1018600000F060F92148001F074600F05BF9204CAA
:1018700060680090A56800E000986946284004EB85
:1018800080000C30FFF7ACFF0028F5D101AA0099C9
:1018900001EA050304EB8303491CDB6842F82030AE
:1018A000401C00910228F2D3019800F003000128A7
:1018B0000BD0022810D10198032101EB9050009920
:1018C000BDF80A6001EB900005E00198BDF80A60E0
:1018D000C0F3831008440090384600F020F908B1A6
:1018E0000098606004B03046BDE8F08178080020C0
:1018F00060040020FFF79EFCFFF7A0F808B1FFF797
:101900007FF84FF48041002000F064FE08B1FFF73B
:1019100077F800F0D5FC1A490320FFF78FFA08B1D9
:10192000FFF76EF801F0C6FB1748164D0560122050
:10193000FFF778FA064615481549401AC1080320F2
:1019400000EB014413A1204600F0E0FD20461AA15F
:1019500000F0DCFD300001D0FFF752F800262868C7
:1019600038B101F0E1FC204618A12A6800F0D2FD50
:101970002E6000F0B3FC0028FBD120BFEFE7000091
:10198000F90D00000000002004150040803C00001C
:10199000483C0000526164696F207472616E736D1F
:1019A0006974746572206578616D706C65207374FC
:1019B00061727465642E0000507265737320416E0D
:1019C0007920427574746F6E0000000054686520C1
:1019D000636F6E74656E7473206F66207468652023
:1019E0007061636B61676520776173202575000006
:1019F0002DE9F047C5881E1DB6FBF5F78946B6FBF5
:101A0000F5F1044605FB176C407916686843DDF86C
:101A100020A0F718001F874200D9C61A166001E0FF
:101A20002468491E0029FBD1A5EB0C078846B74264
:101A300016D818E004EB0C00001D09EB0803BAF1FE
:101A4000000F3A4602D00146184600E01946FEF75C
:101A50000DFD2468F61B4FF0000CB844B54201D9C7
:101A6000374600E02F46002EE4D1BDE8F0870000A5
:101A700030B5024651B100F0CBFD0021074C08E023
:101A800034F821301568AB4202D11160002030BD1E
:101A9000491C8142F4D3052030BD00000000000045
:101AA00010B531B1B2FBF3F403FB14241CB10920CF
:101AB00010BD0E2010BD0160002141608160828157
:101AC000C381084610BD70B50C460546FEF7A2FB63
:101AD000002802D021882868084470BD10B50A8803
:101AE00049888A4203D1FEF7D7FB012010BD0020B0
:101AF00010BD70B50C460546FEF7B1FB002802D0BC
:101B000061882868084470BD10B50A8849888A42EF
:101B100003D1FEF79BFB012010BD002010BD00216A
:101B200000F009B8012100F010B808B56A46FEF7C8
:101B300008FC009808BD08B56A46FEF7E8FB08BD3A
:101B400008B56A46FEF7CAFB08BD08B56A46FEF747
:101B5000D1FB009808BD08B56A46FEF7FFFB009868
:101B600008BD70B5044600252846FEF7B3FF21687E
:101B70006268086890420ED9401E08600178238A86
:101B8000E26801FB0325227A2168101AC0B20A79A3
:101B9000824200D208710020FEF79EFF284670BDE9
:101BA00070B505460C460020FEF794FFE868298AC8
:101BB000201AB0FBF1F12A681068431C1360017011
:101BC000BDE870400020FEF787BF10B530B1017A44
:101BD00042680368891AC9B21A6006E00E2010BD77
:101BE00003681A68541C1C601170491EC9B2F7D2F0
:101BF000006800210171084610BDC20800F007030B
:101C00000120895C98400840704710B5C20800F078
:101C10000703885C01249C402043885410BD0000C9
:101C2000F0B505460478154889B0164640F82420DA
:101C3000124A08690832A2F10C0742F82400487FD2
:101C4000385520226846FEF711FC04942878385C49
:101C500048B10EB10A4A00E000226946281D01F091
:101C600091F809B0F0BD0EB1064A00E000226946C5
:101C700005F10C0000F058FFF3E700001800002009
:101C800001380000493600000FB408B50399002957
:101C900004D004AA00926A4600F00FF801B05DF883
:101CA00014FB10B582680446002A05D0D4E9040369
:101CB000216898470020A06010BD2DE9FC4791469F
:101CC0000C00804676D014F8011B39B125290ED0BE
:101CD0004046FFF725FA20780028F4D198F80C0048
:101CE000002867D04046BDE8FC47FFF7DABF002078
:101CF000012221782B291BD02D2902D0302908D18F
:101D000002E040F0010001E040F00200641C002A03
:101D1000EFD100252A290ED02178A1F130020A2A1C
:101D200011D205EB850201EB4205641C303DF1E761
:101D300040F00400EAE7D9F800100B1DC9F80030A4
:101D40000968641C0D44217800232E290BD114F856
:101D5000011FA1F130020A2A05D203EB830201EB35
:101D60004203303BF3E76C290DD068290BD0692979
:101D700021D00BDC252918D0582931D063290ED069
:101D8000642915D117E014F8011FECE7702969D018
:101D9000732932D075291BD0782909D120E0D9F8D0
:101DA0000000011DC9F8001001784046FFF7B8F99E
:101DB000641C90E76CE0D9F800100A1DC9F80020F7
:101DC0000968CDE900500A224046FFF773FCEFE7AF
:101DD000D9F800100A1DC9F8002009680A2206E097
:101DE000D9F800100A1DC9F8002009681022CDE9B1
:101DF0000050404601F0A6FDDAE7D9F800100027B0
:101E00000A1DC9F800200E68C00705D112E040463F
:101E1000761C7F1CFFF784F931780029F7D104E0A4
:101E2000202140466D1EFFF77BF9BD42C0D9002D31
:101E3000F6D1BDE74EB13046FEF73CFB074604E065
:101E4000202140466D1EFFF76BF9BD4206D9002DDB
:101E5000F6D103E04046761CFFF762F9317800299D
:101E6000F8D1A5E7D9F80000011DC9F800100568F0
:101E700030214046FFF754F978214046FFF750F9EA
:101E800008200021CDE90001034610222946B0E7D1
:101E9000BDE8FC872DE9FF411C46DDE90A781546BF
:101EA0000E46684600F0AAF846EA450141EA840178
:101EB00041EA072242EA0841009A00EB8200C0F89A
:101EC0000017BDE8FF812DE9FF411C46DDE90A78D6
:101ED00015460E46684600F09FF846EA450141EA7D
:101EE000840141EA072242EA0841009A00EB82009D
:101EF000C0F80017BDE8FF812DE9FF411C46DDE970
:101F00000A7815460E46684600F094F846EA450100
:101F100041EA840141EA072242EA0841009A00EBC3
:101F20008200C0F80017BDE8FF812DE9FF411C4683
:101F3000DDE90A7815460E46684600F089F846EA5B
:101F4000450141EA840141EA072242EA0841009A38
:101F500000EB8200C0F80017BDE8FF811CB500212E
:101F600000910B4601220191FFF7C6FF1CBD1CB575
:101F7000002100910B4601220191FFF7D6FF1CBD05
:101F80001CB500220B46009211460192FFF7B4FFE8
:101F90001CBD1CB500220B46009211460192FFF7B2
:101FA000C4FF1CBD1CB5002100910B46012201910C
:101FB0001146FFF7A1FF1CBD1CB5002100910B4687
:101FC000012201911146FFF7B0FF1CBD13B50C466D
:101FD000684600F021F8009900EB8101D1F8002754
:101FE00022F44032C1F80027009900EB8100D0F8BC
:101FF000001741EA0441C0F800171CBD0168202900
:1020000002D24FF0A040704701F01F01016001486B
:1020100070470000000300500168202902D24FF0F1
:10202000A040704701F01F010160014870470000A7
:10203000000300500168202902D24FF0A0407047F1
:1020400001F01F01016001487047000000030050CB
:102050000168202902D24FF0A040704701F01F0113
:1020600001600148704700000003005001B5684658
:10207000FFF7D2FFD0F810050099C84000F001002A
:1020800008BD01B56846FFF7D5FF009A01219140D0
:10209000C0F8081508BD01B56846FFF7D9FF009ADA
:1020A00001219140C0F8081508BD38B50124009001
:1020B000684631B1FFF7A2FF00998C40C0F808458F
:1020C00038BDFFF79BFF00998C40C0F80C4538BD28
:1020D0001CB5094C0144D4E90034CDE900346C4608
:1020E00006E000BF54F82030D3F81035401C08C279
:1020F0008142F7D81CBD00004C3A0000034908B5E6
:102100000844002101600068009008BD00600040A4
:1021100002494058012800D000207047006000406C
:1021200030B5154A01460020D2F8104423460AE093
:10213000DB681D79854205D1401C0A28F6DB4FF08B
:10214000FF3030BD1B68002BF2D1431CF9D0CB68A7
:102150001871D2F8103443B1DB68CC681B68236077
:10216000D2F81024D268116030BDC2F81014C968CA
:1021700000220A6030BD000060040020F0B595B078
:102180001C4615460F4608461A9E00F013FB182100
:1021900009A8FEF784F90E96CDE909540023082218
:1021A00003A9384600F01BFB05980690BDF8100007
:1021B000ADF81C00BDF81200ADF81E0000208DF82F
:1021C00021000398082600F00300012802D002280D
:1021D00018D032E003983346850AC0F3C2008DF868
:1021E000200003980FA9C0F38314A200384600F022
:1021F000F6FA09A8009006AB22460FA9284600F07F
:1022000035FA1AE00398840DC0F3C2008DF820005F
:10221000082C01D2254600E0082533462A460FA99E
:10222000384600F0DCFA2E44641B09AB06AA2946A6
:102230000FA800F077F9002CEAD1384600F0C0FA78
:1022400015B0F0BD7047012001F01CBA084810B568
:102250000178084A515C19B1001D00F02DFE02E022
:102260000C3000F02DFDBDE81040002001F00ABA4E
:10227000800000201400002008B5034A009240238B
:10228000024AFFF77BFF08BDA9330000C802002007
:102290000A4A012902EBC00007D0022907D003290E
:1022A00007D0042907D0002070470220704704207F
:1022B000704700797047407970470000483C000043
:1022C00010B5FFF7C0FF04210348FFF729FF0249BB
:1022D0000120C968487110BD383C00002DE9F04765
:1022E0008CB0FEF735FF18B100200CB0BDE8F087C8
:1022F0007D4C0020C4F81804BFF34F8F6068029033
:10230000A5684FF00008284004EB80000CE000BFF7
:10231000D4F8180470B921680298814201D861602C
:10232000E2E7284004EB80000C3002A9FFF758FADE
:102330000028EDD1002003AA029901EA050304EB6D
:102340008303491CDB6842F82030401C02910228BC
:10235000F2D3039800F00300022802D001284DD0E8
:10236000A7E003985022810D8946B2EB905F00D818
:1023700050210E4666F39F50039008315B4800F0F1
:10238000D0F9070078D000F015FA4346082203A9D7
:10239000384600F02CFA029908F1080A2940681A18
:1023A0008000001D864222D94F4D0C3530B1C2B29B
:1023B00004EB8101301A90460C3104E02946F2B258
:1023C000002590462846C6B25346384600F00FFA1C
:1023D0000AEB080325B132462946384600F007FAD1
:1023E000029909F1030001EB900002903BE004EB3D
:1023F00081015346324638460C31EFE70398C0F36B
:102400008310062800D30620039960F38911C1F3D5
:102410008310801C03918100344800F082F907008A
:1024200047D000F0C7F94346082203A9384600F018
:10243000DEF908F1080800260FE00298434600EA9A
:102440000501401C04EB81010290042238460C3146
:1024500000F0CDF908F10408761C0398C0F383104E
:10246000B042EAD847B1D4F81054D4F8180478B17F
:10247000384600F0A5F931E01BE0E8684079012812
:1024800004D12A682846394612689047E8680568EA
:10249000002DF2D1384600F093F90020FEF71AFB28
:1024A000D4F8180408B9029860600020FEF714FB05
:1024B00014E0D4F8104405E0216820468968884774
:1024C000E0680468002CF7D109480A49401AC0089E
:1024D000022101EB004008A100F018F8FEF738FED9
:1024E00080F0010001E7000060040020883C00004B
:1024F000803C0000483C00004261636B656E647381
:1025000020666C75736865640000000000231A463D
:1025100000F088BF08B5012300926A4600F082FFF0
:1025200008BD00002DE9F0470E4680461C46924645
:10253000082940D894F80C900020207319461046C2
:1025400000F060FD0025B54206D218F805201BA159
:102550002046FFF799FB03E01AA12046FFF794FB02
:102560006D1C082DEFD318A12046FFF78DFB002529
:10257000B54212D218F805707E2F08D8FDF772FF09
:102580000068C05D10F03E0F01D03A4600E02E22F8
:102590000EA12046FFF778FB03E00DA12046FFF7D0
:1025A00073FB6D1C082DE3D301222146504600F039
:1025B0000BFD84F80C90BDE8F08700002025303238
:1025C00078000000202020007C000000256300002F
:1025D000200000000B4810B5FF2181600021016040
:1025E0004160C0F81814C0F8141480F8201406488C
:1025F00000F0E4F8002803D1044800F000F90020BE
:1026000010BD000060040020883C0000C43A0000B7
:1026100002480349401AC00870470000883C000087
:10262000483C000013B56846FFF722FA08B10020C5
:102630001CBD0248009950F831001CBD483C000008
:1026400070B509480125D0F8104480F8205407E0FF
:10265000E06845712168204649688847E068046859
:10266000002CF5D170BD0000600400202DE9FF476B
:1026700081460C9D00200C462F7B287398461646F9
:102680002946184600F0BEFC072E42D2DFE806F0CD
:1026900004090F161F2A360049462846FFF7F4FAA8
:1026A00037E0494628462268FFF7EEFA31E0D4E9E0
:1026B000002349462846FFF7E7FA2AE0A068009081
:1026C000D4E9002349462846FFF7DEFA21E0D4E9A1
:1026D0000201CDE90001D4E9002349462846FFF76D
:1026E000D3FA16E004F1080007C88DE80700D4E922
:1026F000002349462846FFF7C7FA0AE004F108001C
:102700000FC88DE80F00D4E9002349462846FFF79B
:10271000BBFA00222946404600F056FC2F73BDE864
:10272000FF872DE9F041058A80462D1F4819C01CFE
:10273000B0FBF5F0C6B24046FFF713FA041E19D0FD
:102740000020207101206071E58000272546761E5B
:10275000C4F800800BE04046FFF703FA60B16179EE
:10276000491C6171286005467F1CC0F80080B74293
:10277000F1D32046BDE8F081204600F002F80020A9
:10278000F8E72DE9F041457901466B1E002201E092
:102790000968521C9A42FBD30F680146002605E0E7
:1027A00038460C68FFF7FCF92146761CAE42F7D399
:1027B000BDE8F0810121001DFFF7B7B9FFF705BAA9
:1027C00010B504460121001DFFF7C5F910F0FF0FF9
:1027D00004D12046BDE81040FFF7D3BF10BD1CB5A3
:1027E00001920122009201AAFFF702F91CBD1CB55B
:1027F00001920022009201AAFFF7FAF81CBD82683C
:102800000021916082681161826851618268D160A3
:102810008268516080680160704708B500224250AC
:102820004058009008BD70B50D460646446804E067
:10283000B2682946904718B1246820680028F7D16B
:1028400020682860256070BD406800687047416856
:102850000868002801D002680A607047024600201C
:10286000526806E08B4203D108681060012070476F
:102870001A461368002BF5D170474058002800D045
:102880000120704708B5002242504058009008BD12
:10289000D0F80403084000D00120704740580028B9
:1028A00000D00120704708B50022425040580090E7
:1028B00008BD0000002802D0014980010847704788
:1028C000813A00002DE9F0410E46804600F064FB9D
:1028D000204D0028404616D0FEF7A4FC284490F86E
:1028E00058008009032802D001280AD003E040469E
:1028F000FFF7BCFB28B103214046BDE8F041FFF7DC
:1029000065BB0221F8E700F053FB002820D04046C9
:10291000FEF788FC0446104F4FF4807007EB8401EB
:1029200000EB8400D1F8102580B242F00102C1F81A
:102930001025FFF7E3FB002E0AD04046FEF772FC9D
:1029400055F82000002803D00120A040C7F8040358
:10295000BDE8F08160010020006000402DE9FC41ED
:10296000DFF8C080044608EB0400002790F930002F
:102970001346C0170E46401C01D008274FE0B07820
:102980001946C0F340022046FEF728FC0546401CCD
:1029900044D0B07841071CD4C0070DD068460094DD
:1029A000FFF73AFB009900EB8100D0F8001721F007
:1029B0000201C0F8001707E000217378204600915B
:1029C0000A460191FFF77FFA164920466431FFF766
:1029D0001CF9B078800718D51348317800EB8500D2
:1029E000D0F81025114B1A40C0F810254FF47C5236
:1029F0004FF4403302EA042203EA01410A43D0F8CB
:102A000010150A43C0F8102509E008EB05003278DC
:102A100010F8581F41EA8211017000E0042738467F
:102A2000BDE8FC816001002000600040FFC0FCFFA9
:102A300010B5FFF71BFB002800D0012010BD0000DF
:102A400070B5184D95F86A0008B1082070BD0020D7
:102A5000411E2A18401CC0B282F830103028F8D32A
:102A600000242046FEF7ACFB641CE4B20C2CF8D327
:102A70000C490024C0204C66A1F868400A4981F83E
:102A8000000401264020891FC1F800014FF4BE70E8
:102A9000FFF734FB0549F007C1F8040385F86A60C5
:102AA000204670BD6001002006E000E000600040AC
:102AB000034890F86A00002800D001207047000009
:102AC000600100200121B1EB507F01D1012070474E
:102AD0000020704770B50D4600F0E0FA04000FD0FA
:102AE0000020FDF7F7FF207920B10020FDF7F4FF6B
:102AF000112070BD0120256020710020FDF7ECFF42
:102B0000002070BD10B500F0C9FA002802D00021E5
:102B10000160017110BD00000149024800F0DABDFA
:102B2000CC010020002000402DE9F041054600794D
:102B300016460F4600EB40012C4A01EBC00102EBA8
:102B4000810494F82A1011B10820BDE8F0812849C9
:102B500051F820102868FFF7BDFF08B11120F4E7F5
:102B600039462846FDF7CCFF6660386920603000A2
:102B70004FF001062DD03F7F4FF48E712868FFF78C
:102B800081FE4FF4A2712868FFF77CFE286819497E
:102B9000C0F8041328684FEA471140F307300028B3
:102BA00006DA00F00F0000F1E02080F8141D03E0C9
:102BB00000F1E02080F80014286840F3073000F0AE
:102BC0001F0106FA01F14009800000F1E020C0F881
:102BD000001128680421C0F800150020A061E06100
:102BE00084F8290044F8140FA675AEE7CC01002044
:102BF000543A0000800002002DE9F05F054600799C
:102C00000B4600EB400101EBC000244901EB8004BE
:102C1000284600F045F810B11120BDE8F09F626130
:102C20004FF00009C4F82090A36084F828904FF476
:102C30008E784E4641462868FFF724FE28684FF0FC
:102C4000010AC0F808A02146286800F0D3FC60689B
:102C500008BBD5F800B067690FE000BF94F8280002
:102C600008B10F2615E041465846FFF706FE00283A
:102C7000F4D02146584600F0BDFC206AB842F2D399
:102C8000574641462868FFF7F8FD0028F9D0286824
:102C9000C760C4F814903046BFE70000CC010020A4
:102CA000007900EB400101EBC000044901EB80001A
:102CB0004069002800D0012070470000CC010020AE
:102CC0002DE9F047044600794FF0000900EB400180
:102CD00001EBC000254901EB80072068C0F8009592
:102CE000786880B120682249C0F808132068012163
:102CF00040F3073000F01F0291404009800000F1CE
:102D0000E020C0F880112068D0F80C25D0F8148598
:102D1000D0F80865D0F810554FF0FF31C0F8141501
:102D2000C0F80C152068C0F80815C0F81015501C24
:102D300002D01046FFF712F9B8F1FF3F02D040462B
:102D4000FFF70CF9681C02D02846FFF707F9701C42
:102D500002D03046FFF702F92068FFF7D3FE87F86C
:102D60002A90C7F80490BDE8F0870000CC0100204D
:102D7000840202000149024800F05ABDF801002017
:102D8000002000402DE9F0410546164600790F4627
:102D9000154A00EBC00102EB810494F8201011B138
:102DA0000820BDE8F081114951F820102868FFF78C
:102DB00091FE08B11120F4E739462846FDF7DBFE05
:102DC0006660386920601EB1397F2846FEF7C6FC70
:102DD00028680821C0F800150020A061E06160614A
:102DE000012184F82010DCE7F8010020583A0000A7
:102DF0002DE9F04704460E460079274900EBC00054
:102E000001EB800517463046FFF75CFE30B12046E7
:102E100000F044F820B11120BDE8F0871020FBE756
:102E20006F61AE604FF490774FF00008394620682C
:102E3000FFF739FD4FF4AC7631462068FFF733FDDC
:102E40002068AA686969C0F84425C0F84815206858
:102E50004FF00109C0F808906868D0B9BA465146E9
:102E60002068FFF71BFD074631462068FFF716FD77
:102E70000743F4D010B14FF00F0808E02068C0F805
:102E80000C9031462068FFF709FD0028F9D000209A
:102E900068614046C0E70000F8010020007905495C
:102EA00000EBC00001EB80004069002800D0012049
:102EB00070470000F80100202DE9F0470446007932
:102EC000334900EBC00001EB80070125786880B131
:102ED00020683049C0F80813206840F3073000F03C
:102EE0001F0105FA01F14009800000F1E020C0F85F
:102EF00080112068D0F8001221F02001C0F80012E3
:102F0000206845604FF4AC7631462068FFF7CBFC73
:102F10002068C56031462068FFF7C0FC0028F9D062
:102F200020684FF00009C0F800952068D0F80C2503
:102F3000D0F81485D0F80865D0F810554FF0FF315F
:102F4000C0F80C15C0F814152068C0F80815C0F8B2
:102F50001015501C02D01046FFF709F8B8F1FF3FDA
:102F600002D04046FFF703F8681C02D02846FEF75F
:102F7000FEFF701C02D03046FEF7F9FF2068FFF715
:102F8000C1FD87F82090C7F80490BDE8F0870000E5
:102F9000F8010020100342000449084490F9300071
:102FA000082801DB012070470020704760010020E5
:102FB0000449084490F93000082801D201207047E4
:102FC000002070476001002010B50C46017A0529E9
:102FD00008D0407A38B1084808A102682046FEF7B8
:102FE00053FE00E01AB106A12046FEF74DFE204632
:102FF000BDE81040FEF755BEC80000202573000054
:103000000D0A000038B5C3880D46044633B114A03C
:10301000009015A216A12846FEF736FE217A052952
:103020001CD0607A48B1A088FFF732F9164951F8F0
:10303000202016A12846FEF727FEA0880021FFF7D2
:10304000F1FA03461049207A143951F8202001B0D2
:103050002846BDE830400EA1FEF716BE38BD000080
:103060001B5B306D000000001B5B313B33316D009A
:1030700025734C6F67732064726F707065642028CD
:1030800025642925730D0A00C8000020257300005F
:103090003C25733E2025733A2000000003498842F6
:1030A00001D1034870470020704700000020004015
:1030B0002800002070B53248002404603049072001
:1030C000091F08602E48001D0460C32000F0F0F9BD
:1030D0000506C22000F0ECF945EA0045C12000F0E9
:1030E000E7F945EA0025C02000F0E2F9054324484D
:1030F00018300560C72000F0DBF90506C62000F097
:10310000D7F945EA0045C42000F0D2F905431C4830
:103110001C3005601B48FEF73DF819491031086066
:103120001948FEF737F81649143108601448203062
:1031300004601349012024310860114808300460FC
:103140000F4912480C3108600D48022128300160F7
:103150000168021D01F0030309493031022B0AD036
:10316000006800F00300012804D1FF20086040F24D
:103170000710106070BD4FF6FF7008600448F8E754
:103180000C15004067452301EFCDAB890101040117
:103190002110010070B50546FEF759F9134C40B1F6
:1031A000D4E904024FF08071411842F10000C4E9F3
:1031B000041000212846FEF79BF830B1606820B16A
:1031C000606800F087F90020606001212846FEF762
:1031D0008FF818B1FEF736FAC4E90601284600F068
:1031E000A5F92846BDE8704000F034B8480000203A
:1031F00070B5054600200C460870FEF723FAD5E9A5
:103200000223101A63EB010300263146361A994156
:1032100012DAB0F5350F03D3FDF7FEFB0B49421868
:103220004FF4960300210A48FEF71DF910B10D284E
:1032300006D009E0012070BD00210548FEF74EF8D8
:10324000284600F047F92070002070BDFFFFB40051
:1032500050000020F8B51A4C074600261948FFF721
:10326000F3FAD0B1616871B1D0E902106268D2E9B5
:103270000232C91A904120D26068007F18B161689B
:103280001048FFF7D0FA00F0AFF805466946FFF79F
:10329000AFFF98B1606840B10AE0606800280CD1C7
:1032A0003846BDE8F840FEF7DAB83846FEF7D3F8FE
:1032B00065609DF800000028D0D1F8BD6660CDE7BC
:1032C000480000206C3A000070B5054688690C463D
:1032D00000284FF4847128460AD0FFF7D3FAD5F8B6
:1032E0001805626AE1688854606A401C606270BDBB
:1032F000FFF7C8FAD5F8180570BD1FB501238DF882
:103300000030CDE90121D0E90012684690471FBD89
:103310001FB501238DF80030CDE90121D0E900125D
:10332000684690471FBD00002DE9F041164C00256E
:10333000C4F8005101262660D4F800010028FBD013
:10334000C4F80C51C4F80860D4F80C010028FBD074
:103350000820FDF767FD07460C480D49401AC008D4
:10336000032101EB00400BA1FFF7D0F8380001D09A
:10337000FDF746FBC4F81051C4F81060D4F81001F2
:103380000028FBD0BDE8F08100100040803C000028
:10339000483C0000546865207061636B6574207759
:1033A00061732073656E740070B50D4C0020D2B24D
:1033B0002070201D0B4D0378EB5C1BB1001DFFF747
:1033C00017FD02E00C30FFF717FC08B1FDF718FB02
:1033D0006078002802D021780029FAD070BD000062
:1033E0007C000020140000200148FFF730BA0000E4
:1033F0006C3A0000C207002A03D000BF4FF00F0252
:1034000001E04FF0F00201D04FEA0111044B03EB51
:103410005003187800EA020040EA01001870704773
:10342000400200202DE9F84F204D9246894606467D
:103430009846012269461846AF68FDF72DFE58B33D
:10344000009800210446801C09E000BF00EA070341
:103450005AF8212005EB8303401C491CDA604145E2
:10346000F4D34FEA164AFDF72FFF4AEA0041601CE9
:10347000384005EB80003C4005EB8402C160D06819
:1034800066F3C50068F3891069F39F2020F00300FC
:10349000401C20F00400D06095F8200402E000BF3A
:1034A000FEF71CFF0028FBD1BDE8F88F6004002068
:1034B000014610B50020CBB24FEA000123FA01F219
:1034C00002F00102C1F10704A2401043491C08297F
:1034D000F4D310BD70B50446124800250078F8B149
:1034E000F4B1207FE0B1FEF7ADF8D4E90223801AF1
:1034F000994110D32069002600B92677D4E9051038
:103500008847206960B1217F51B1D4E902211018A8
:103510007141C4E9020121460348FFF784F90125FE
:10352000284670BD480000206C3A0000F8B51B4CDE
:1035300069462068FEF7DDFA00260127184D29E0CC
:10354000017821B101290CD002291BD114E0416876
:103550000A7FBAB90F77416810480830FFF763F95E
:1035600010E041686868814201D16E600AE00B4852
:103570000830FFF773F905E0FFF736FF08B106776B
:10358000FAE72F7069462068FEF7A8FA69462068B6
:10359000FEF7AFFA0028D3D1F8BD0000643A00006E
:1035A00048000020F8B50B4C0D46064669462068D9
:1035B000FEF789FA58B10670456069462068FEF743
:1035C000A3FA10B10448FDF731FF0020F8BD042034
:1035D000F8BD0000643A00005000002003488068F5
:1035E0004108034800224068FDF756BA3000002029
:1035F0005C3A000070B50C4605464FF48E71FFF73B
:1036000041F9216AA068415C206A401C2062C5F82B
:103610001C1570BD1FB500228DF800200291816835
:1036200001914261D0E90012684690471FBD1FB565
:1036300000228DF800200291816801914261D0E959
:103640000012684690471FBD1FB50A4601788DF8E5
:10365000001041680191017A8DF80810C06803904C
:10366000044850F82210083850F822206846904745
:103670001FBD000020000020014901200870704794
:103680007C00002010B588B0044620220E49684610
:10369000FCF7ECFE06200090C01F01900290039002
:1036A0004FF0EB7006900CB1084A00E0002269462A
:1036B0000748FEF7B5FA08B1FDF7A2F90448001F64
:1036C000447008B010BD0000A43A00007936000034
:1036D000800000202DE9FF470C4605464FF400719D
:1036E000FFF7D6F801274FF40178002618B34FF4FE
:1036F000927949462846FFF7C0F8E0B14946284686
:10370000FFF7C0F8C5F8088394F8290000B96F6086
:1037100002208DF80000D5F88004C5F880040390DD
:10372000A0690290E0680190A661E661D4E9001208
:103730006846904728E004212846FFF7A9F818B307
:103740004FF484712846FFF798F8E8B121462846DF
:10375000FFF7BAFD616AA069884215D1E06938B106
:10376000E268616AA0612069E6616662E06008E083
:1037700094F8290000B96F60C5F80883A661E26873
:10378000616A2046FFF7B9FD4FF48E78414628461E
:10379000FFF773F880B16069216A814202D294F820
:1037A000280028B341462846FFF76CF8606918B135
:1037B00061692046FFF72EFF4FF4A2784146284664
:1037C000FFF75BF8002818D041462846FFF75AF863
:1037D00094F8290000B12F60A06900280DD0A661DF
:1037E000E268616A04B02046BDE8F047FFF785BD96
:1037F00021462846FFF7FEFEDEE7BDE8FF87000012
:103800001FB50A4601788DF8001041680191017AD0
:103810008DF80810C0680390044850F8221008384A
:1038200050F82220684690471FBD0000200000206D
:103830002DE9FF410C464FF4927705463946FFF7D4
:103840002DF80026B8B139462846FFF72CF802209B
:103850008DF80000D5F88004C5F880040390D5F8F1
:103860003C050290E0680190A661E661D4E900128F
:103870006846904723E04FF4887739462846FFF79B
:103880000DF8E0B139462846FFF70DF8D5F83C159C
:10389000A069884213D1E06960B1E268D5F80002FE
:1038A00020F02000C5F80002E069A0612069E6610F
:1038B000E06001E0A661E2682046FFF729FD4FF4D1
:1038C000A27739462846FEF7E9FF68B1394628460F
:1038D000FEF7E9FFA06938B1A661E661D5F83C15AD
:1038E0002046E268FFF714FD4FF4907631462846F3
:1038F000FEF7D4FF60B131462846FEF7D4FF012021
:10390000E860606920B1D5F84C152046FFF78FFEBE
:103910004FF4AC7631462846FEF7C0FF00280ED0A3
:1039200031462846FEF7BFFF6069002807D0D5F86A
:103930004C1504B02046BDE8F041FFF778BEBDE865
:10394000FF8100002DE9F05F8346DDE90A4A9946D0
:1039500090460D460846012703E000BFB0FBF8F093
:103960007F1C4045FAD2B94500D94F465FEACA707C
:1039700012D18CB15FEA8A7002D5B9F1000F01D083
:10398000202607E0302605E031465846641EFDF744
:10399000C7FB0CB1A742F7D35FF00106B9F1010FE5
:1039A00002D9A9F1010903E0B5FBF6F0404502D3C5
:1039B00006FB08F6F2E7DFF83C9000BFB5FBF6F037
:1039C00000FB165519F800105846FDF7A9FBB6FB89
:1039D000F8F6002EF2D15FEACA7009D0002C07D0A9
:1039E000A74205D220215846641EFDF799FBF5E752
:1039F000BDE8F09F863A000070B50C460546FDF71D
:103A0000B1FB002807D04268002A04D0214628468E
:103A1000BDE87040104770BD0D0E0F100B0C18194B
:103A2000F000002010010020400100200B000300E6
:103A3000250D00000C000300250D000018000300F8
:103A4000250D000019000300250D000000000050A6
:103A500000030050192B0000752D0000030000002A
:103A6000200200206002002001000600000000008B
:103A70006800002069120000000000000000000043
:103A80000338FDD870473031323334353637383962
:103A90004142434445460000792200004D22000087
:103AA00045220000FFFFFFFFFFFFFFFFFFFFFFFFBB
:103AB000FFFFFFFF00000000000000000000D60133
:103AC00006010000C80300207F0000004804002019
:103AD0000040404040404040404041414141414021
:103AE00040404040404040404040404040404040D6
:103AF0004005020202020202020202020202020265
:103B00000220202020202020202020020202020269
:103B100002029090909090901010101010101010C1
:103B200010101010101010101010101002020202CD
:103B30000202888888888888080808080808080811
:103B4000080808080808080808080808020202020D
:103B500040000000D13A00007761726E696E670024
:103B600064656275670000001B5B313B33306D009C
:103B70001B5B306D000000001B5B313B33316D007F
:103B80001B5B313B33326D001B5B313B33336D00CC
:103B90001B5B313B33346D001B5B313B33356D00B8
:103BA0001B5B313B33366D001B5B313B33376D00A4
:103BB000696E666F000000006572726F720000002F
:103BC0004750494F544500005052530055415254FC
:103BD0000000000055415254450000006170705FC4
:103BE000627574746F6E00006170705F74696D65EA
:103BF00072000000736F72746C69737400000000CF
:103C0000756172745F6C6F675F6261636B656E6430
:103C100000000000617070009C3C0000000000206B
:103C2000F0000000B40800008C3D0000F00000200F
:103C300098270000C4080000983A00000000000027
:103C4000003C000094000020C03B00000000000089
:103C5000C83B000000000000CC3B0000000000005A
:103C6000D43B000000000000DC3B0000000000002E
:103C7000E83B000000000000F43B000000000000F2
:103C8000143C000000000303A40000209C0000205E
:103C9000A40000200803002018000000000000001D
:103CA0000000000000000000000000000000000014
:103CB0000000000000000000000000000000000004
:103CC00000000000000000000000000000000000F4
:103CD00000000000000000000000000000000000E4
:103CE0000000000000000000000000000010014083
:103CF00011000400000000000000000000000000AF
:103D000000000000000000000000000000000000B3
:103D100000000000000000000000000000000000A3
:103D200000200040000000000020004000000000D3
:103D300000000000FF000000000000000000000084
:103D40000000000000000000000000000000000073
:103D500000000000B83B0000583B0000B03B0000F2
:103D6000603B0000703B0000683B0000783B0000B7
:103D7000803B0000883B0000903B0000983B000027
:0C3D8000A03B0000A83B00000090D00316
:0400000500000201F4
:00000001FF
