:020000040000FA
:10000000C80B0020150200001D0200001F020000A6
:100010002102000023020000250200000000000071
:1000200000000000000000000000000027020000A7
:1000300029020000000000002B0200002D02000039
:100040002F0200001D030000B10600002F02000077
:100050002F020000000000002F0200002F0200000D
:100060002F0200002F0200002F0200002F020000CC
:100070002F0200002F0200002F0200002F020000BC
:100080002F0200002F0200002F0200002F020000AC
:10009000790300002F0200002F0200002F02000051
:1000A0002F0200002F0200000000000000000000EE
:1000B0002F0200002F0200000000000000000000DE
:1000C0000000000000000000000000000000000030
:1000D0000000000000000000000000000000000020
:1000E0000000000000000000000000000000000010
:1000F0000000000000000000000000000000000000
:1001000000000000000000000000000000000000EF
:1001100000000000000000000000000000000000DF
:1001200000000000000000000000000000000000CF
:1001300000000000000000000000000000000000BF
:1001400000000000000000000000000000000000AF
:10015000000000000000000000000000000000009F
:10016000000000000000000000000000000000008F
:10017000000000000000000000000000000000007F
:10018000000000000000000000000000000000006F
:10019000000000000000000000000000000000005F
:1001A000000000000000000000000000000000004F
:1001B000000000000000000000000000000000003F
:1001C000000000000000000000000000000000002F
:1001D000000000000000000000000000000000001F
:1001E000000000000000000000000000000000000F
:1001F00000000000000000000000000000000000FF
:10020000DFF80CD000F03CF8004800475D09000022
:10021000C80B00200648804706480047FEE7FEE777
:10022000FEE7FEE7FEE7FEE7FEE7FEE7FEE7FEE7A6
:10023000D10300000102000040EA01039B0703D044
:1002400009E008C9121F08C0042AFAD203E011F815
:10025000013B00F8013B521EF9D27047D2B201E0D7
:1002600000F8012B491EFBD270470022F6E710B5BB
:1002700013460A4604461946FFF7F0FF204610BD14
:10028000064C074D06E0E06840F0010394E80700E3
:1002900098471034AC42F6D3FFF7B6FFD8130000EE
:1002A000F813000000F01F02012191404009800076
:1002B00000F1E020C0F88012704700F01F02012119
:1002C00091404009800000F1E020C0F880117047A3
:1002D00000F01F02012191404009800000F1E02060
:1002E000C0F80011704700F01F0201219140400941
:1002F000800000F1E020C0F8001270474907090EA5
:10030000002806DA00F00F0000F1E02080F8141D4C
:10031000704700F1E02080F80014704770B5144C6D
:10032000D4F80001002628B1D4F80403C00701D096
:10033000C4F80061D4F80C010E4D40B1D4F80403A8
:10034000000704D5C4F80C61286900B18047D4F8CF
:10035000100100280BD0D4F80403C00607D5C4F858
:100360001061E868002802D0BDE87040004770BD09
:1003700000100040300000207CB5144C606A0190F1
:100380002078002821D00120FFF797FF656800261C
:1003900066600120FFF79CFFE169002915D0E8079E
:1003A00003D08DF8006068468847A80705D501206E
:1003B0008DF80000E16968468847680705D5022086
:1003C0008DF80000E169684688477CBD3000002058
:1003D0002DE9F047A44E4FF08054371D31783D1D74
:1003E0004FF0010906290BD13878000708D1287889
:1003F000C0F30310032806D0042804D0052802D037
:10040000062907D011E0B4F824039849C0F304206A
:10041000086002E03878000707D12878C0F303109D
:10042000032802D193499248486700F0F5F928B1B2
:10043000D4F844029049C0F3423008603078B046A6
:1004400006280CD13878000709D12878C0F30310AA
:10045000032804D18948016821F08071016000F00F
:1004600001FA002640B14FF08040C0F80C61C0F89E
:1004700010618148001F066098F80000062807D127
:100480003978090704D12978C1F30311032902D06F
:10049000062805D019E0784A03216432116007E08C
:1004A0003978090711D12978C1F3031103290CD137
:1004B000734B05221A60724A7832C2F80090704974
:1004C00008310E603F211A1D1160D4F830110A293D
:1004D00004D1D4F834215AB1012A09D0062807D111
:1004E0003A78120704D12A78C2F30312052A55D1AB
:1004F000644A1268644B1A60624A121D12681B1D1E
:100500001A60604A083212681B1D1A605D4A0C327C
:1005100012681B1D1A605B4A103212681B1D1A609C
:10052000584A143212681B1D1A60564A1832126853
:10053000554B20331A60534A1C3212681B1D1A6037
:10054000504A203212681B1D1A604E4A243212682B
:100550001B1D1A604B4A283212681B1D1A60494A3B
:100560002C3212681B1D1A60464A30321268464B04
:1005700040331A60434A343212681B1D1A60414AE4
:10058000383212681B1D1A603E4A3C3212681B1D2D
:100590001A603C4A403212681B1D1A600A2905D1B4
:1005A000D4F8341111B9394AFB211160062811D150
:1005B000387800070ED12878C0F30310032803D041
:1005C000042801D0052805D1D4F85802304900F09C
:1005D0004F00086000F0FAF830B12E480168C907F2
:1005E00002D06FF001010160D4F83001062808D173
:1005F000D4F83401062804D12748016841F4806109
:1006000001604FF01021D1F80002002803DBD1F87F
:100610000402002823DA214AC2F800902048036827
:10062000002BFCD01523C1F800320468002CFCD04C
:10063000C1F8043201680029FCD016600168002965
:10064000FCD0BFF34F8F0D48F0380168154A01F414
:10065000E06111430160BFF34F8F00BFFDE7134915
:1006600011480860BDE8F087E00F00F04035014018
:100670000DF0ADBA00C007403C050040FCED00E0C5
:10068000105600400404001020C5004018F500403A
:10069000E40E0040000400403C17004004E5014027
:1006A00000E401400400FA050090D0037800002027
:1006B00001480068004700002800002002E008C848
:1006C000121F08C1002AFAD170477047002001E0CC
:1006D00001C1121F002AFBD17047006890FAA0F0F8
:1006E00000BA00BA7047000072B609480068C00737
:1006F00000D000BEBFF34F8F0548E4380168054ABB
:1007000001F4E06111430160BFF34F8F00BFFDE7CB
:10071000F0ED00E00400FA050EB500210091CDE9EE
:1007200001106A4644F20100FFF7DEFF0EBD000033
:100730002DE9FC410646C0074FF000050ED0104FD2
:1007400000240122385D009500231146019500F038
:1007500067FB641C042CF4D300F01CF8B0070DD523
:10076000074E0024361D0022305D032300951146FC
:10077000019500F055FB641C042CF4D3BDE8FC810A
:10078000D01300000249085C012100F066BB0000A4
:10079000D013000010B500242046FFF7F3FF641CBF
:1007A000042CF9D310BD006890FAA0F000BA70478D
:1007B0004FF080400021C0F800110121C0F8001066
:1007C000D0F800110029FBD0704700004FF0805096
:1007D000D0F830110A2904D1D0F83401B8B1012879
:1007E00014D00C480078062811D10A48001D007862
:1007F00000070CD1074808300078C0F30310032825
:1008000005D0042803D0052801D00020704701201E
:1008100070470000E00F00F04FF08050D0F830112A
:100820000A2904D1D0F83401B8B1012814D00C48F9
:100830000078062811D10A48001D007800070CD165
:10084000074808300078C0F30310032805D00428B7
:1008500003D0052801D00020704701207047000018
:10086000E00F00F04FF08050D0F830110A2904D189
:10087000D0F83401B8B1012814D00C48007806280B
:1008800011D10A48001D007800070CD10748083034
:100890000078C0F30310032805D0042803D00528EE
:1008A00001D000207047012070470000E00F00F0E9
:1008B00000B51BA08BB0006808901AA01AA10068B0
:1008C0000990D1E90001CDE90601182218496846CE
:1008D000FFF7B2FC01208DF800008DF808001548E4
:1008E000019000208DF801004FF416718DF814006E
:1008F000ADF80C10684600F0D3F800280DD108A818
:1009000000F0BAF9002808D109A800F0C7F90028BA
:1009100003D1082106A800F0D3F90BB000BD0000F8
:10092000E7E7E7E7C2C2C2C2E7C2C3C4C5C6C7C8D9
:10093000B8130000450A000030B408200F214FF022
:10094000A043032203EB8004C4F80027401C884224
:10095000F8D930BC0120FFF7EBBE0000FFF7ECFF39
:10096000FFF726FFFFF7A4FF08B1FFF7D5FE214CE4
:10097000214D224E0027E7701E4800F0FBF9A0BB76
:10098000A079410703D000F00700042801D9012114
:1009900000E00021112000F055FAA07900F00700D6
:1009A000012801D9052801D9012100E000211220E8
:1009B00000F048FAA07900F00700022801D90628C3
:1009C00001D9012100E00021132000F03BFAA079B9
:1009D00000F00700032801D8012100E000211420C5
:1009E00000F030FAA079401CA071691C304688479D
:1009F000C1E7000000000020B013000000D4300068
:100A000070B50C494FF4705008600B4C00256570B0
:100A1000257000F025FB20210848FFF726FCE56241
:100A200014202563FFF749FC05490320C1F80002A3
:100A3000002070BD08F5014030000020A803002010
:100A40000010004010B50078002808D0012807D019
:100A5000022804D1054800F0CBF80028FAD010BDD8
:100A600000F006F8BDE8104000F070B97C000020EE
:100A7000094810B5007860B10120FFF71EFC074857
:100A800000218162016241620120FFF721FC002008
:100A900010BD082010BD000030000020E40100203F
:100AA00070B505007ED0454C207818B1FFF7A8FF3F
:100AB00000287DD16868E061182229464048FFF788
:100AC000BBFB0025656020213E48FFF7CEFBE562B9
:100AD000256300F0EDFB00286DD03B494FF0E73077
:100AE0000860091D4FF043300860091D3748086051
:100AF000091D3748086000F0B3FA314A0020183267
:100B000002F5947100EB800303EB4013134441F8AA
:100B10002030401C0828F5DB2E4A002002F5947195
:100B200000EB800303EB4013134441F82030401CDA
:100B30000828F5DB284904200860274808380560A4
:100B4000264840F20221C0F80012264A24491160CA
:100B5000111D08602248001D091D08601F48103043
:100B6000091D0860091D204808601D48F038091D4E
:100B700008601D48001D091D0860091D1B4808600C
:100B80000F4E707C00F003010120FFF7B7FBB07C33
:100B900000F003011420FFF7B1FB1420FFF798FBCE
:100BA000657002E005E003E005E001202070002010
:100BB00070BD0E2070BD072070BD00003000002009
:100BC000A4000020A80300201C150040E743C32315
:100BD000A363E3131002002010A5004000A0004012
:100BE0000011004060F5014040A1004000100040AD
:100BF00070B505461E48007880B385B31D4CA06AC9
:100C000070B30120FFF759FB606A54F820100A788E
:100C10002A7054F820104978697054F820108978A7
:100C2000A97054F820100979297154F82010C97856
:100C3000E97054F82010681D491DFFF7FDFA606A3D
:100C4000401C6062082801D300206062A06A401E38
:100C5000A0620120FFF73CFB002070BD01E002E034
:100C600003E00820F9E70E20F7E70520F5E700008C
:100C70003000002038030020074910B54A780AB137
:100C8000112010BD30B100684863012000F0CCFA9B
:100C9000002010BD0E2010BD30000020074910B507
:100CA0004A780AB1112010BD30B100688863022073
:100CB00000F0BAFA002010BD0E2010BD3000002058
:100CC00010B50C460F49497809B1112010BD18B173
:100CD000082C03D9072010BD0E2010BD014609487D
:100CE00022463C30FFF7A8FA0648C4F10802343027
:100CF000FF210474D1408174042000F095FA002093
:100D000010BD0000300000200E4810B50078A0B1E2
:100D10000D4CA06A98B10120FFF7CFFAA06A401EDF
:100D2000A062606A401C6062082801D300206062F3
:100D30000120FFF7CDFA002010BD082010BD4FF4B0
:100D4000807010BD30000020E4010020074810B57D
:100D5000407808B1112010BD0548806A18B100F034
:100D6000D9F9002010BD4FF4807010BD3000002074
:100D7000E40100202DE9F041264F0546387840B1C6
:100D800055B1287868B120280BD8234E317829B185
:100D900009E00820BDE8F0810E20FBE7F17C8842E5
:100DA00001D90920F6E71D4CA06A082801D30420C8
:100DB000F0E76878082801D30720EBE70120FFF768
:100DC0007CFA206A2522294654F82000FFF734FADD
:100DD00010486A782C30815C491C01F00301815471
:100DE000206A54F82020401C08281171206201D389
:100DF00000202062A06A401CA0620120FFF768FA70
:100E0000707828B9307C18B9787808B900F082F980
:100E10000020BFE730000020A4000020E4010020F3
:100E200070B541EA4201DDE904564FF0A04441EAC1
:100E3000830141EA052104EB800041EA0641C0F844
:100E4000001770BD01224FF0A043824011B1C3F8DA
:100E500008257047C3F80C25704701224FF0A043C6
:100E6000824011B1C3F808257047C3F80C257047BC
:100E700070B5164CA068164AC2F80002A06A15495F
:100E80000860154B091D98898238086013480121B4
:100E900040F80C1F0021C0F83411C0F83811104D73
:100EA0004FF4E050286050142D1D2860C2F80C113A
:100EB000187810B96169002088470B490948086013
:100EC0000A48E0600320607070BD00003000002020
:100ED0000010004040A50040A400002000A00040F9
:100EE00004F5014086030020041500402D0F00008A
:100EF00010B50C4C606840F001006060FFF704FF23
:100F00000948806A30B11420FFF7EDF9BDE81040C0
:100F100000F000B900206070BDE810401420FFF719
:100F2000E2B9000030000020E40100202DE9F04784
:100F3000414A4FF4E05010604049D1F80C31DFF8DD
:100F4000009100273F4CB9F80E004E14DFF8F880EE
:100F50000125E3B33D4B1B68CBB325611660D8F880
:100F6000041041F00101C8F80410D8F82010401A0C
:100F7000401CC8F82400FFF7C7FE99F8000088B1AC
:100F800009F2E220017869B14078410830480068F0
:100F9000C0B200F073F828B1D8F8040040F00400A3
:100FA000C8F804002B48806A50B199F81000012855
:100FB00006D01420FFF797F9BDE8F04700F0AAB873
:100FC00088F80170BDE8F0471420FFF78CB9D8F815
:100FD00020C0BCF1010CC8F820C00BD225611660FE
:100FE000401CC8F82400D8F8040040F00200C8F8FB
:100FF0000400E5E7D8F808000F4640F00802C1F801
:101000000022D8F81800D8F8141000788847104843
:101010001149283801601148C8F80C00022088F8EE
:10102000010025600448001F0660D4F84401002830
:1010300000D03D60BDE8F08708F501400010004099
:10104000A400002000A00040300000200014004058
:101050002C150040E401002064030020710E000004
:101060000549002008624862886201F5AA71086299
:101070004862886270470000E40100202DE9F041D9
:10108000224C07468846A06A08283DD2A4F525715F
:1010900020460A780026006A01F2E225012A03D0E0
:1010A0004A7842B1C97C02E0297820292CD854F82A
:1010B0002020117002E054F820100E7054F8200027
:1010C000A91C10F8052BFFF7B7F8206A54F8201078
:1010D0004F700F49096854F82020917054F820206F
:1010E00082F80480697854F8202041F30001491CFB
:1010F000401CD1702062082800D32662A06A401CE0
:10110000A0620120BDE8F0810020FBE73803002049
:10111000481500402DE9F05F3D4C4FF00108C4F840
:1011200024803C48DFF8F0A0A0F5A077416A3B4D51
:101130004FF0000B50F82110A161387807F5307698
:1011400010B1012843D10DE0087861698847A16991
:101150000879307086F801B011F8052BB01CFFF744
:101160006BF818E0C87820B3387D10B300208146B2
:101170000878307008794006000E7070CA78D2B1D5
:1011800000221043707011F8052BB01CFFF754F8C3
:10119000B9F1000F11D0A06840F00800C5F80002B6
:1011A0001120C5F80403F88920620220C4F80CA0BD
:1011B0000CE00120DBE70122E3E7A068C5F80002AC
:1011C0001020C5F804031648E06040466070A0692E
:1011D000144A417811604078444608FA00F0111D25
:1011E00008600B480F4934302439C07C0860081F60
:1011F00006600120FFF756F80120FFF769F8C5F8EF
:1012000004B1C5F808B1C5F810B12C60BDE8F09F75
:1012100030000020E4010020710E000000100040AA
:10122000F10E00002C15004010B50446C00704D094
:101230000F48FFF752FA0F490860A00706D50C487F
:10124000001DFFF74AFA0B49091D086060070DD51C
:1012500007480830FFF7A7FA064908310860044834
:101260000C30FFF7A0FA03490C31086010BD0000F4
:10127000640000201C1500400A48017A0A480160F9
:101280000A48492251B1012905D0032906D0042971
:1012900001D0002070473021816200E0826201208D
:1012A00070470000A400002010150040300000200E
:1012B00070B500F041F8FFF7DFFF194C19492278AB
:1012C0007AB1012A0BD000220240607AB8B1164BE5
:1012D0001D1F01280ED0022807D0002513E0134A55
:1012E00000E0134A4A610122EEE74FF6FF761E60E6
:1012F000104B03E0FF261E6040F207132B600A4BE1
:10130000083B1860012549691540E07C8847A089A1
:10131000872801D3012000E00020284070BD000094
:10132000A4000020300000203C150040791300008C
:101330004D1300002110010002480349807A086023
:1013400070470000A40000200C150040084A07491F
:1013500011600849497C491E090441EA0021014302
:1013600041F08070111D086070470000000101000D
:10137000141500406400002007490648086007482B
:101380000749407C401E41EA00400349091D0860AE
:1013900070470000060003001415004064000020A0
:1013A000200000010000000000000000000000001C
:1013B0000338FDD870470000010000000000000065
:1013C00001020000FA0003000001022000000000FA
:1013D000111213140D0E0F10F8130000000000205E
:1013E0007C000000BC060000741400007C0000209B
:1013F0004C0B0000CC0600000800000000010000BB
:1014000000110000000000000000000000000000CB
:1014100000000000000000000000000000000000CC
:1014200000000000000000000000000000000000BC
:101430001301000000000000000000000000000098
:10144000000000000000000000000000000000009C
:10145000000000000000000000000000E7E7E7E7F0
:10146000C2C2C2C2E7C2C3C4C5C6C7C80805FF021C
:041470000090D00315
:0400000500000201F4
:00000001FF
