:020000040001F9
:10C00000A0560020C1C30100C9C30100CBC3010079
:10C01000CDC30100CFC30100D1C301000000000067
:10C02000000000000000000000000000D3C3010079
:10C03000D5C3010000000000D7C30100D9C301002F
:10C0400025C70100DBC30100CDC90100DBC301002E
:10C05000DBC30100DBC3010071C50100DBC30100CC
:10C06000DBC30100DBC30100DBC30100DBC3010054
:10C07000DBC30100DBC30100DBC30100DBC3010044
:10C08000DBC301007DC70100DBC30100DBC301008E
:10C09000DBC30100DBC30100EDC70100DBC301000E
:10C0A000DBC30100DBC30100DBC30100DBC3010014
:10C0B000DBC30100DBC30100000000000000000042
:10C0C000DBC30100DBC30100DBC30100DBC30100F4
:10C0D000DBC30100DBC30100DBC30100DBC30100E4
:10C0E000DBC30100DBC30100DBC301000000000073
:10C0F00000000000DBC3010000000000DBC3010002
:10C10000000000000000000000000000000000002F
:10C11000000000000000000000000000000000001F
:10C12000000000000000000000000000000000000F
:10C1300000000000000000000000000000000000FF
:10C1400000000000000000000000000000000000EF
:10C1500000000000000000000000000000000000DF
:10C1600000000000000000000000000000000000CF
:10C1700000000000000000000000000000000000BF
:10C1800000000000000000000000000000000000AF
:10C19000000000000000000000000000000000009F
:10C1A000000000000000000000000000000000008F
:10C1B000000000000000000000000000000000007F
:10C1C000000000000000000000000000000000006F
:10C1D000000000000000000000000000000000005F
:10C1E000000000000000000000000000000000004F
:10C1F000000000000000000000000000000000003F
:10C20000DFF80CD000F076F900480047C1EE0100DD
:10C21000A056002030B450E8012F93B2C4892344C3
:10C220008489A34228BF1B1B0489A34202BFBFF31A
:10C230002F8F002007E0C3EA020340E80134002CFE
:10C24000E9D14FF001000A6030BC704750E8012F7F
:10C25000C2EA024240E801210029F7D1704730B418
:10C2600050E8022F1FFAA2F3C488A34202BFBFF313
:10C270002F8F00200DE0C48923448489A34228BF66
:10C280001B1BC2EA034340E80234002CE8D14FF004
:10C2900001000A6030BC704750E8022FC2EA224217
:10C2A00040E802210029F7D17047034653E8022FE6
:10C2B000D988B2EB324F4FF0000017BF92B241EA7B
:10C2C000014142EA014104E05A68B2EB324F08BF33
:10C2D000012043E80212002AE8D1704730B4044636
:10C2E00054E8000F0D4644E80053002BF8D11560C8
:10C2F00030BC704730B4044654E8000F40EA0105F2
:10C3000044E80053002BF7D1156030BC704730B4BF
:10C31000044654E8000F00EA010544E80053002BEE
:10C32000F7D1156030BC704730B4044654E8000FB4
:10C3300080EA010544E80053002BF7D1156030BCBA
:10C34000704730B4044654E8000F00EB010544E8A0
:10C350000053002BF7D1156030BC704730B4044651
:10C3600054E8000FA0EB010544E80053002BF7D17F
:10C37000156030BC704770B404464FF0000054E8BC
:10C38000006F0D68AE4207BF44E80023012044E877
:10C3900000630E60002B1CBF0020F0E770BC7047EC
:10C3A00030B4044654E8000F88422CBF451A0546B5
:10C3B00044E80053002BF5D1156030BC70470000F5
:10C3C0000648804706480047FEE7FEE7FEE7FEE72F
:10C3D000FEE7FEE7FEE7FEE7FEE7FEE7F1C7010046
:10C3E00001C201002DE9F05F0546002092469B4600
:10C3F00088460646814640241BE02846414647467B
:10C40000224600F067F853465A46C01A914110D3AD
:10C4100011461846224600F016F82D1A67EB01085F
:10C420004F4622460120002100F00DF817EB0009CD
:10C430004E41201EA4F10104DFDC484631462A4665
:10C440004346BDE8F09F202A04DB203A00FA02F1BF
:10C45000002070479140C2F1200320FA03F31943F2
:10C4600090407047004870470C25020040EA0103E5
:10C470009B0703D009E008C9121F08C0042AFAD29A
:10C4800003E011F8013B00F8013B521EF9D270475E
:10C49000D2B201E000F8012B491EFBD27047002206
:10C4A000F6E710B513460A4604461946FFF7F0FFB3
:10C4B000204610BD421C10F8011B0029FBD1801A38
:10C4C0007047034611F8012B00F8012B002AF9D11F
:10C4D00018467047202A04DB203A21FA02F0002196
:10C4E000704721FA02F3D040C2F120029140084384
:10C4F00019467047064C074D06E0E06840F001031E
:10C5000094E8070098471034AC42F6D3FFF77CFE5E
:10C51000802C0200A02C020070B58C1810F8015B72
:10C5200015F0070301D110F8013B2A1106D110F8CC
:10C53000012B03E010F8016B01F8016B5B1EF9D1D0
:10C540002B0705D40023521E0DD401F8013BFAE756
:10C5500010F8013BCB1A921C03E013F8015B01F8C1
:10C56000015B521EF9D5A142D8D3002070BD000056
:10C570002DE9F04F00268DB0DFF8A081B14604967A
:10C580004FF48075012437460596284603F08EFB4C
:10C5900038B1D8F80403204203D0284603F07CFBCE
:10C5A00026432D1D64007F1CADB2082FEDD34FF440
:10C5B000BE74204603F07AFB48B1204603F06CFBC2
:10C5C00046F0004604AA0221002003F04FFB544C21
:10C5D00016F0FF0F15D00127002537420DD008EBCC
:10C5E0008501D1F81005D1F81015C0F3052054F8D5
:10C5F0002520C1F3014102B190477F006D1C082D39
:10C60000EBD3002E7EDA0020CDF82890411E0DF1EC
:10C61000100B07AACDF82C9042F82010401C914630
:10C620000228F9D300252E46A11911F8607F91F94F
:10C63000000027F0C008401C40D007A9404602F087
:10C640001BFF40B34FEA971A404601F061FE54F8D1
:10C6500020701FB1BAF1030F03D006E0BAF1030F47
:10C660002CD10AA9404602F00FFF02A8CDF808809D
:10C6700003F0A0FA029900EB8100D0F8000704A9AA
:10C68000C0F301400290404602F0F6FE00280298F6
:10C6900002D0022802D011E003280FD1BAF1030F13
:10C6A00008D10298022833D00221404603F05CFAF8
:10C6B0006D1CEDB217B151464046B847761C042EAA
:10C6C000B2D3002D21D001AA0221002003F0CEFA1E
:10C6D00000205A460DF1040152F8206051F8203034
:10C6E000B34217D000200AAE4FEA090351F8207078
:10C6F00042F8207056F8207043F82070401C022841
:10C70000F4D300E001E0002D8CD10DB0BDE8F08F36
:10C710000321CAE7401C0228DED3F6E70060004090
:10C72000B82C002070B54FF48076304602F0F4FF4C
:10C73000114CB50560B1304602F0F5FF0120C5F897
:10C740000803607920B901206071216800208847C2
:10C750004FF48276304602F0DFFF00280AD03046E0
:10C7600002F0E1FF0220C5F808032168BDE870402F
:10C770000120084770BD00007426002002490248CD
:10C78000091F096800680847E426002000F024B962
:10C7900070B50E46144900EB400001EBC00514468D
:10C7A000E86A183520B101280FD0022805D113E01E
:10C7B000284600F045F9A04201D2002411E02246AB
:10C7C0003146284600F074F90BE0284600F038F9AD
:10C7D000A042F4D20446F2E73146284600F03BF985
:10C7E0000446204670BD00001434002003F0B6BF9C
:10C7F00030B54FF0805000228300D0F83011C3F8DC
:10C800000C21C3F81021624B1A60624B1B68624C0A
:10C810002360604B1B1D1B68241D23605D4B083388
:10C820001B68241D23605B4B0C331B68241D236095
:10C83000584B10331B68241D2360564B14331B6860
:10C84000241D2360534B18331B68534C2034236042
:10C85000504B1C331B68241D23604E4B20331B6838
:10C86000241D23604B4B24331B68241D2360494B3C
:10C8700028331B68241D2360464B2C331B68241D62
:10C880002360444B30331B68434C40342360414B9E
:10C8900034331B68241D23603E4B38331B68241D32
:10C8A00023603C4B3C331B68241D2360394B4033D1
:10C8B0001B68241D23600123082902D1D0F83441CC
:10C8C00014B1082904D006E0354C3449216005E054
:10C8D000D0F8344114B1082904D006E0314CFB21D2
:10C8E000216005E0D0F8344114B1082908D00EE0E9
:10C8F00090F858422C48016864F30301016002E09B
:10C90000D0F834411CB929494FF400700860284818
:10C910000168C90702D06FF0010101602548016874
:10C9200041F470010160BFF34F8FBFF36F8F4FF081
:10C930001021D1F80002002803DBD1F804020028FE
:10C9400022DA1D4C23601D480368002BFCD0122303
:10C95000C1F800320568002DFCD0C1F8043201682E
:10C960000029FCD0226001680029FCD0BFF34F8F62
:10C9700010487C380168124A01F4E06111430160FB
:10C98000BFF34F8F00BFFDE70F490E48086030BD71
:10C99000380500400404001020C500404881030011
:10C9A0008C56004018F50040E40E004040960240CE
:10C9B0000004004088ED00E004E5014000E401408F
:10C9C0000400FA050090D0035827002001480068B1
:10C9D000004700007C26002010B5124C0220206188
:10C9E000606111A0A06104F17800E0614FF4007073
:10C9F00020620020A06260620BA1A164E06204F5E5
:10CA00001E71E1641021A065C4E91410E06509A15C
:10CA1000E01DFFF756FD08A12046FFF752FD20203C
:10CA2000A07110BD143400205465726D696E616C84
:10CA3000000000005254540053454747455200003F
:10CA40000269C1688A4203D88068401A104400E035
:10CA5000501A401E70472DE9F047C46817468946B2
:10CA600006464FF000083069A04201D9051B02E0DC
:10CA7000B168201A0D1AB0686D1E001BA84200D8BC
:10CA80000546BD4200D33D4670682A4620444946CB
:10CA9000FFF7ECFCB0687F1B2C44A844A944A042DB
:10CAA00000D10024F460002FDDD14046BDE8F087BE
:10CAB0002DE9F04104468846D4E90207C51BE16828
:10CAC000606816460844B54206D94146FFF7CEFCD9
:10CAD000B819E060BDE8F0812A464146FFF7C6FC80
:10CAE000761B08EB050132466068FFF7BFFCE66085
:10CAF000F0E70000014A024900F026B805EB01000A
:10CB0000F426002002E008C8121F08C1002AFAD14A
:10CB100070477047002001E001C1121F002AFBD1BD
:10CB2000704700000121202803DA814005480140B8
:10CB300003E0402802DA2038814009B10120704723
:10CB400000207047FC06FFBD2DE9F04116460F4658
:10CB50000446002503E03946B047641C6D1C20786C
:10CB60000028F8D12846BDE8F08190F824001F2065
:10CB7000704710B501220221002001F0B5F908B17B
:10CB8000072810D107220221012001F0ADF908B1D8
:10CB9000072808D100210A22084601F0A5F908B1AA
:10CBA000072800D1002010BD022001F09FB800002E
:10CBB00070B50024064D06E06868012110F83400C5
:10CBC00003F0D2FE641C28788442F5D3002070BDA7
:10CBD00088260020F8B516460C4605460A2A01D2DA
:10CBE0000720F8BD03F0B6FF18B903F07BFF00285B
:10CBF000F7D1134F202113487D603C70BE60FFF7D2
:10CC00004EFC0020C7E904000F4E0DE005EBC40008
:10CC10003168009181788DF8011000780B4A6946DF
:10CC200003F0EEFE0028DCD1641EE4B2EED2BDE8D3
:10CC3000F84005480021064A001D00F087B80000B2
:10CC400088260020982D0020F8210200D5EB010055
:10CC5000E1E6010072B603F0B5FA00BF03F0F6F8A2
:10CC60000028FBD111481249401AC408012000EBEA
:10CC7000044010A103F004FA11480068C00700D076
:10CC800000BE022000EB04400EA103F0F9F9BFF34F
:10CC90004F8F0B48E43801680E4A01F4E0611143FC
:10CCA0000160BFF34F8F00BFFDE70000102D0200B1
:10CCB000B02C0200466174616C206572726F720064
:10CCC000F0ED00E053797374656D207265736574DF
:10CCD000000000000400FA050EB500210091CDE926
:10CCE00001106A4644F20100FFF7B4FF0EBD10B513
:10CCF0008268C368934203D001F0D8FE002010BDC3
:10CD0000052010BD29B112B1531E134203D00920D2
:10CD100070470E2070470160838000218160C160F0
:10CD20000846704710B58268C3689A1A83889A4289
:10CD300003D801F0C5FE002010BD042010BD000086
:10CD4000014801F034BD0000A82600203AB1006877
:10CD50000129426100D000210161002070470720B5
:10CD60007047000038B511480823582241680091E7
:10CD70000F49006802F0A7FA002815D10D4A69464C
:10CD80000D4801F019FD04000ED101210A4801F0FF
:10CD90008AFD0123094A1946074801F0E0FC0649CB
:10CDA000012008390870204638BD0000002202002A
:10CDB000C82D0020D1140200A8260020FFFF7F000C
:10CDC00070B50446007F0D4608B1002070BDA26119
:10CDD00001F0E6FE401941F10001C4E902012069B9
:10CDE00000B125612146BDE87040002004F044BE3A
:10CDF000014600200877012004F03EBE70B50A4EBF
:10CE000001460A48B578FFF772FF04464DB100208D
:10CE1000B070711C0122C81D02F0F6FC08B1FFF7CA
:10CE20005BFF204670BD0000C4260020202E00209D
:10CE3000F0B5244E89B01F460D00044672603FD005
:10CE4000A888296882B22048FFF75CFF002835D106
:10CE5000A889A96882B21C481030FFF753FF002848
:10CE60002CD1202219496846FFF700FB6069069023
:10CE7000207C00B101208DF814008DF81C70607CBE
:10CE800000B10E208DF81500E0680290A0680390B4
:10CE900020680190606800900A480D4A6946083091
:10CEA00002F07EFC002809D1B0702068401C05D03B
:10CEB00004490122491CC81D02F0A6FC09B0F0BDBE
:10CEC0000720FBE7C4260020202E002014220200A9
:10CED000951B020010B501461048FFF723FF040020
:10CEE00019D10F480F4A0178515C19B1001D04F0A7
:10CEF000C1F802E00C3003F097FF60B90849074819
:10CF00000839FFF7F4FE30B9054901220839044811
:10CF100002F08AFC0446204610BD0000302E00209E
:10CF2000CC2600206026002030B5EFF3108172B6C9
:10CF30000D4A9468012324B10370002900D162B620
:10CF400030BD93604FF0E023D3F88051074C25406B
:10CF50001560C3F88041D3F8844154605A17C3F870
:10CF6000842100220270E8E7402E0020FC06FFBD6D
:10CF70000B498A68002A11D000280FD1EFF31080E6
:10CF800072B60B684FF0E022C2F800314B68C2F86D
:10CF9000043100228A60002800D162B67047000088
:10CFA000402E002070B5054608680C46411C04D090
:10CFB00002F035FE206802F0C3FD6068411C02D01B
:10CFC000002102F0ABFD2968A069C1F82405607D4D
:10CFD000227D29681043C1F86C05D4E90012286845
:10CFE000C0F81425C0F80C15207D012814D1A068C4
:10CFF000411C02D0002102F091FDE068411C04D0E8
:10D0000002F00DFEE06802F09BFDD4E902122868F0
:10D01000C0F80825C0F8101570BD70B50546086841
:10D020000C46411C04D002F004FE206802F092FD80
:10D030006068411C02D0002102F079FD2968A069D6
:10D04000C1F82405607D217D2A680843C2F86C057B
:10D05000D4E900122868C0F80C15C0F81425207D0A
:10D06000012814D1A068411C02D0002102F05FFD0C
:10D07000E068411C04D002F0DCFDE06802F06AFDCB
:10D08000D4E902122868C0F80825C0F8101570BD50
:10D0900070B51500044609D00020286034B120681E
:10D0A00020B1A079800703D0072070BD0E2070BD8D
:10D0B000084600F009FBC0B2142804D0217981424F
:10D0C00003D8042070BD052070BDE288216800FBF4
:10D0D00002102860002070BD2DE9FC47002517884C
:10D0E0000646158090F82D001446894630B13A4620
:10D0F0002146484600F0FCFA051E09D1B0784FF0F1
:10D100000C0A18B32088C846001DB84202D9504600
:10D11000BDE8FC87684679DF0028F9D12088032123
:10D1200008F8001020881921401C80B2208008F8DF
:10D1300000102088401C80B2208000EB0801BDF860
:10D14000000004F0C8FE218808442080F078022204
:10D15000C8B1218896F9033001F1030C4846BC455B
:10D16000D5D8425421884FF0010C491C89B2218046
:10D1700000F801C02188491C89B2218009F80130DA
:10D180002088401C20807068B8B1218890F9003058
:10D1900001F1030C4846BC45B9D8425421880A2203
:10D1A000491C89B2218042542188491C89B22180BE
:10D1B00009F801302088401C2080308950B1CDE929
:10D1C00000474B460622022106F1080004F044FF06
:10D1D000051E9DD1308A50B1CDE900474B4607224C
:10D1E000032106F1100004F037FF051E90D1308BAB
:10D1F00050B1CDE900474B461522142106F1180025
:10D2000004F02AFF051E83D1306A30B13B46224626
:10D21000494601F09AF9051EDBD1706A30B13B46F0
:10D220002246494601F072FF051ED2D196F82C0025
:10D2300038B13B4622464946304604F0A9FA051E5D
:10D24000C7D1307838B13B4622464946304601F0D6
:10D25000E7FF051EBDD128465AE718B50446002051
:10D26000ADF8000013466A46204600F006F8002894
:10D2700002D0BDF80000204418BD70B5C8B1C2B1DD
:10D280000024158803E0065D641C3444A4B2A54262
:10D2900003D8061976789E4201D08C42F3D38C4293
:10D2A00007D2005DA31C401E9BB280B21C188C42AA
:10D2B00001D9002070BD138070BD80F83010704718
:10D2C0002DE9F0410D00044606D02CB195F87A0006
:10D2D0000026012803D006E00E20BDE8F08195F875
:10D2E0009800012829D0D5F8A000042825D0D5F829
:10D2F0009C00042821D04FF00108A6702C2205F1D3
:10D300007801201DFFF7B2F884F83060D5F8A4004A
:10D310006063D5F8A800A0634FF6FF70A4F8E8009A
:10D3200004F1D400C4F8E400C4F8EA60A4F8EE60A4
:10D3300084F8F060207810B104E00720CDE7FF20EA
:10D3400084F8540004F155072046C4F8D470FFF760
:10D350000CFCA4F8D80004F1D80239462846FFF79F
:10D36000BBFE0028B9D104F19300C4F8DC002046CC
:10D37000FFF7FBFBA4F8E00004F1E00205F13C003C
:10D38000D4F8DC10FFF7A8FE0028A6D184F851805D
:10D39000208BA4F8480084F83C80266484F8506010
:10D3A000606900216064454604F13C02781E72DF2A
:10D3B000002892D1257090E710B50288102A1BD062
:10D3C000112A20D0262A1DD1007A0C46012801D02E
:10D3D000022817D1A0780521401CB0FBF1F201FB17
:10D3E0001201204600F03AF800280BD0A16B00296A
:10D3F00008D0BDE810400847C27B012A02D18088CE
:10D40000A1F8E80010BD0C46002184F8F2108088D5
:10D41000B4F8E8108842F5D120790028F2D1012132
:10D42000DFE710B5044690F8540074DF012084F85B
:10D43000F200002084F8F40084F850000621204611
:10D4400001F04CFB002808D1A178204600F006F836
:10D4500010B1A16B01B18847002010BD2DE9F05F2C
:10D46000044600780F4698B1A7700025C4F8EA502A
:10D47000A4F8EE5084F8F050A079012608B1012FED
:10D4800009D0E07980B1012F05D0022F03D00BE045
:10D490000820BDE8F09F616B21B184F8F16008209D
:10D4A000884701E084F8F15004F1EB0100200A5CA8
:10D4B0000AB1304603E0401C0628F8D300204FF0A4
:10D4C00002084FF0030A4FF0040B012F06D0022F81
:10D4D0000CD0032F0FD0042F15D110E0A17929B162
:10D4E00094F8241011B908B130460DE0E17911B17A
:10D4F00008B1404608E0207A08B1504604E0607A5E
:10D5000008B1584600E02846A070616B41B103287D
:10D5100001D0042804D1607910B194F8F20098B1D8
:10D5200084F8F35004F13C0018210746FEF7B7FFDA
:10D5300084F83C6004F12C0003F032FF58B194F8F9
:10D540002C0084F8510008E084F8F45084F8F3606B
:10D5500007208847E6E784F8516094F8240058B122
:10D5600004F1280003F01CFF20B194F8280084F88F
:10D57000520001E084F8526084F85050A27804F11F
:10D58000EA0104F1D409052A4DD2DFE802F065036F
:10D590000F1B320084F83160C4F8E450C4E9101560
:10D5A00084F83C808020A4F848003EE084F8318074
:10D5B00087F800A0228ABA81C4F8E4507960E16853
:10D5C000B96032E06069B860208BB8813D4684F86C
:10D5D0003C60204604F012FD40B185F8148004211F
:10D5E000204601F07BFAF0B9052115E084F831A05E
:10D5F00017E0E069B860208CB8813D4684F83C6053
:10D60000204604F0FBFC50B185F81480042120462C
:10D6100001F064FA38B9062184F8311001E084F889
:10D6200031B0C4F8E490A07878B13A4604F15400DF
:10D63000D4F8E41072DF00287FF42BAF94F8301098
:10D6400094F8540073DF0028F6D1616B11B194F89F
:10D650003100884700201CE784F83150F5E70000CE
:10D6600070B5040012D001461C221448FEF7FEFEDD
:10D670001248134D0560206850B17ADF002806D1AA
:10D680002068016829604068686005E00E2070BD70
:10D690000B487BDF0028FAD108484FF6FF71143899
:10D6A000084A20F8041B0549343901600021FFF7BE
:10D6B0004DFB0028EBD0032070BD00000C2C002097
:10D6C00058260020951F020010B5044600F006F809
:10D6D00008B1204610BD142010BD0000142801D34D
:10D6E000002070470146014801F037BE2C2C002075
:10D6F0007CB5054608880C460930904201D90C20BB
:10D700007CBD68466DDF0028FAD121880820685466
:10D7100020881B21401C80B2208029542088401C76
:10D7200080B220802844DDF801100160BDF80510AA
:10D7300081802088801D80B220809DF800104908DB
:10D7400000D0012129542088401C208000207CBD6D
:10D75000F8B52B4D018804466E8821293BD015DC95
:10D760002848294A1029A0EB02004FEAD0004FF0C8
:10D77000030202EB004013D0112925D0132929D12F
:10D7800000231A46852130467FDF17E03B2932D03F
:10D7900052292AD056291DD18088132176DF0DE029
:10D7A0001AA102F06DFC072000F0C0FB08B1FFF7E2
:10D7B00093FAA1886980184801F036FF002809D043
:10D7C000BDE8F840FFF788BA14A102F059FC4FF603
:10D7D000FF706880F8BD00200090A08869468FDF48
:10D7E0000028F7D0FFF778FAF8BD00231A4619464B
:10D7F0003046B1DFE2E78088132176DFDEE7000004
:10D8000014260020102D0200B02C0200436F6E6E13
:10D810006563746564000000642A002044697363D2
:10D820006F6E6E65637465640000000010B51A4C7D
:10D830000188606810290ED011292BD1401E60602C
:10D8400028D1FFF796F9002824D02168002921D09B
:10D85000BDE810400847D0B900210122084600F079
:10D8600043FB08B107280FD107220221012000F055
:10D870003BFB08B1072807D104220221002000F059
:10D8800033FB20B1072802D0216801B188476068C6
:10D89000401C606010BD0000502600202DE9F047BC
:10D8A00001883B4E40F2F3194FF6FF7510291BD04B
:10D8B00011293ED0122954D0502946D1C188F2896D
:10D8C000841D914241D1618902293ED1868830462A
:10D8D00001F09EF9050038D004F10C0000F0BEF90B
:10D8E000A8B3294630464EE0C17B8788044601290B
:10D8F0002BD1A846284601F08BF9050017D02F80C0
:10D9000000202872234843464A460168C5F80A1099
:10D910004068C5F80E0004F1100105F10A0001F09D
:10D9200031FA6872F08900280FD129462AE00420D4
:10D9300013E0808801F06CF9040006D06068FFF7FE
:10D9400057FA08B103F0F4FE2580BDE8F087FFE741
:10D950006868FFF74DFA0028F7D0BDE8F04703F0FC
:10D96000E7BE87880646384601F052F90400ECD03D
:10D970002B464A4606F1080104F10A0001F002FABA
:10D98000607221463846BDE8F04700F025BE000031
:10D990000C2C0020582600202DE9F04F04468688E4
:10D9A0000188424897B0834610290CD0112950D0E5
:10D9B000103019296AD01A2974D1217A0C09042C43
:10D9C0004DD301224CE0394D083DA868C0430B906F
:10D9D00069680BA801F0E2FC0B990CA800F096FD19
:10D9E0002C220CA96846FEF741FD0027E946A8460F
:10D9F00010E000BF09EB47005FF00005B0F804A09D
:10DA000008EB85005146001D01F09CFC6D1C1E2D8D
:10DA1000F6D37F1C0098B842ECD8142E05D317B06B
:10DA20000420BDE8F04FFFF757B93146584601F0E2
:10DA30009FFC314608F1040001F09AFCE07B0128CC
:10DA400030D017B03146BDE8F04F1848001D01F046
:10DA50008FBC17B03146BDE8F04F01F073BC002217
:10DA6000314601F036F8032C01D3012200E00022F8
:10DA70000E4831460C3001F02CF8022C01D3012263
:10DA800000E0002209483146083006E0217A0029EA
:10DA900008D1617AC1F3C002314617B0BDE8F04F3A
:10DAA00001F017B817B0BDE8F08F0000302C00204F
:10DAB000F0B585B016460F4604001D4614D004AAE2
:10DAC00019466069FFF7E4FA00280BD1A5F57F40FD
:10DAD000FF380BD0049848B1007848B13088F4285A
:10DAE00008D9072005B0F0BD0E20FBE70520F9E7B7
:10DAF0000820F7E700200090019002900390A08892
:10DB0000ADF8000001208DF80200CDE902676946FA
:10DB10002846AEDFE6E7000070B5334D04008EB056
:10DB20002DCD08AE86E82D005BD0E9B30868A06172
:10DB3000214608A862DF002851D1207801258DF800
:10DB40003200ADF83050A21C0CA92846A8DF0028EE
:10DB500045D120216846FEF7A2FC0220ADF8000066
:10DB600020788DF802008DF80C509DF80D00F426F9
:10DB7000ADF8046040F00C008DF81150ADF806507F
:10DB80008DF80D008DF81250608804F10C02694682
:10DB900000F0C6FB002822D120216846FEF77FFC5A
:10DBA0000320ADF8000000E01BE020788DF80200B3
:10DBB0008DF80C509DF80D008DF81150ADF80460F3
:10DBC00040F010008DF81250ADF806508DF80D00A1
:10DBD0008DF813506088221D694600F0A1FB0EB03D
:10DBE00070BD0E20FBE70000D821020070B588B0A0
:10DBF0000446002924D0002C22D008462188102970
:10DC000020D0502924D057291AD10546A18840692F
:10DC100006AAFFF73DFA002812D1069E30780028A8
:10DC20000ED018216846FEF73AFC01208DF800005E
:10DC30000195A088ADF808000396A9696846884751
:10DC400008B070BD08B02146BDE8704003F08CBA42
:10DC500008B02146BDE8704003F060BB007800F0DA
:10DC6000010070470149085C7047000090210200E4
:10DC7000084908B5085C0090684601F08DFFD0F8AF
:10DC800010050099C84010F0010000D0012080F07C
:10DC9000010008BD902102002DE9FC410646C007A5
:10DCA0004FF000050ED0104F00240122385D009582
:10DCB00000231146019501F0CDFE641C042CF4D321
:10DCC00000F04EF8B0070DD5074E0024361D002297
:10DCD000305D032300951146019501F0BBFE641CE5
:10DCE000042CF4D3BDE8FC818C210200094908B55D
:10DCF000085C0090684601F04FFFD0F80425009BB7
:10DD00000121994021EA0203C0F808351140C0F80A
:10DD10000C1508BD8C2102000249085C012101F0AC
:10DD200092BF00008C2102000249085C002101F032
:10DD30008ABF00008C210200084908B5085C0090E9
:10DD4000684601F029FFD0F804050099C84010F09A
:10DD5000010000D0012080F0010008BD8C210200EC
:10DD600010B500242046FFF7D7FF641C042CF9D31C
:10DD700010BD10B500242046FFF7D6FF641C042C0C
:10DD8000F9D310BD10B50246064B4FF0FF3000210D
:10DD90005C5C944201D1084610BD491C0429F7D3AC
:10DDA00010BD00009021020070B50C4E0C004FF029
:10DDB000000530600BD0012000F06AF808B10220A5
:10DDC00004E0002000F064F800B10B2020707068BF
:10DDD00010B9FEF7CEFE0546284670BD502600203D
:10DDE00010B5002000F0DCF908B1062806D10120AA
:10DDF00000F0D6F908B1062800D1002010BD0000BF
:10DE00002DE9F0470D468146FFF7BCFF0446042884
:10DE100036D2DFF874801B481C4EA8F10C0725B3DE
:10DE2000012D0ED0022D2BD104EB44003044457857
:10DE3000002D25D0B968002922D02846BDE8F0473A
:10DE4000084704EB4401755C0E44717849B10E4AF1
:10DE50004FF48041093A8068FEF7B2FF08B987F8AD
:10DE60000390B17808F80410E2E78068FEF7C0FF7D
:10DE700004EB4401314418F804008D78A842D7D04F
:10DE8000BDE8F087942102004C260020A82B00203A
:10DE9000042801D2FFF7ECBE00207047014610486D
:10DEA00010B54088042907D007290ED00A2915D1BA
:10DEB000BDE8104003F0C8BC132176DF0CE0002859
:10DEC0000CD0BDE81040FEF707BFA0F57F41FF3939
:10DED00004D10448FFF7A5FA0828F0D110BD0000CE
:10DEE00014260020702A002070B50023042810D2C8
:10DEF0000D4D00EB4004012A02D101290CD0002273
:10DF0000094E00EB4000304461B1012906D00229DE
:10DF100006D00723184670BD0E30C2B22A55F9E765
:10DF20004270F7E78270F5E7A82B0020044A01460B
:10DF300000201279D20702D0084600F04DB8704791
:10DF40004026002070B506461E480024C0E9016145
:10DF5000B00720D50025012211462846FFF7C4FF4F
:10DF60006D1C0446042D02D2002CF4D013E094B9A9
:10DF700040F2333204211448FEF72CFE04000AD18B
:10DF8000FEF716FE040006D10F48104A0021001FBC
:10DF9000FEF7DCFE0446F00712D00120FFF77CFEFE
:10DFA00074B909480A4A00210C38FEF7CFFE040074
:10DFB00006D10548074A01210838FEF7C7FE044686
:10DFC000204670BD40260020A0210200A5E20100ED
:10DFD000F9ED0100A9CB01002DE9F05F6E4C05467B
:10DFE00000266078B34618B184F801B000F0ECFE6A
:10DFF0006A4F4FF47A694FF4C87A4FF00108182D30
:10E0000069D2DFE805F00C1313384754696E727B50
:10E01000727BC58484848484B3B6B9BCC5C500F062
:10E02000D3FE3868FEF7E4FE06465CE00020FFF70A
:10E0300083FE00284FF0000008D0FFF76DFE022D90
:10E0400002D14FF4E16008E0484606E0FFF76CFEBD
:10E05000022D01D1C82000E05046410CC0034FF40E
:10E060007A72801841F10001257052000023FEF7FA
:10E07000B9F901462AE00020FFF75EFE00284FF0C4
:10E08000000004D0FFF748FE4FF44870E5E7FFF7C3
:10E090004BFEDFE70020FFF74FFE00284FF00000A7
:10E0A00002D0FFF739FECFE7FFF73EFED4E70020AE
:10E0B000FFF742FE00284FF0000002D0FFF72CFED1
:10E0C00001E0FFF731FE257040F6CD4100223868AF
:10E0D000FEF776FE064646E00020FFF707FE2570B5
:10E0E00008E0002051E025703DE084F80180012027
:10E0F000FFF7FCFD002240F26661E8E784F801804A
:10E100000120FFF7F3FD00224FF40051DFE77868AC
:10E11000FEF76EFE0646D5F1110000D02EB10220AA
:10E12000FFF7FAFD84F802B01DE0012816D980B28D
:10E13000C8214843C117C90341EA5041C0034FF405
:10E140007A72801841F1000152000023FEF74AF96B
:10E15000014600227868FEF733FE06460220FFF7EC
:10E16000E3FD84F802803046BDE8F09F00F02CFE0D
:10E17000B9E700F029FEB4E700F026FE04E000F065
:10E1800023FE0020FFF7D0FD0120FFF7CDFDAAE719
:10E19000FFF7EFFDA7E700004026002094210200D2
:10E1A000012103F0C1BF00002DE9F8430546861C9C
:10E1B00000208DF8000090460F464FF00109684698
:10E1C000FEF7B2FE1B4C20683860D4E90001401A0B
:10E1D000A16804F21C47081A0EE00121384601F03C
:10E1E000D7F800F01FFE0146384601F0D1F8D4E917
:10E1F0000001401AA168081A401C8642EDD8B8F107
:10E20000000F03D0052065F3891002E0062065F3B6
:10E210009F50A2682168114004EB8101C86020680A
:10E22000304420609DF80000FEF7A2FE4846BDE89D
:10E23000F8830000F02F002070B50D4604460A292F
:10E2400002D10D21FFF7F8FFA0682268411CA160F0
:10E250001554D4E90101814204D32046BDE8704041
:10E2600001F0FFBA70BD0000034803C8814201D12C
:10E270000120704700207047F02F0020034630B582
:10E28000074800210478426806E000BF02EBC100A5
:10E2900005789D4203D0491CA142F7DB002030BD28
:10E2A0008826002000780221FFF7AABD05494FF01B
:10E2B000FF32082841F8202002D3084480F8582073
:10E2C00070470000B82C0020F0B54FF0FF3512B1B8
:10E2D0000023082601E008230C260C4C05E000BFB3
:10E2E00054F823707F1C04D05B1CB342F8D328463B
:10E2F000F0BD26185DB286F8305044F82310002A8D
:10E30000F5D1E11881F85800F1E70000B82C0020A1
:10E310000249084490F9300070470000B82C0020F2
:10E320002DE9F0438146887891B090460C4600B9BB
:10E3300001208DF83E002088ADF83C0000250095B6
:10E34000607C694603F068FA6E46A07C711C03F09D
:10E3500063FAE07B00289DF8020002D040F008003C
:10E3600001E020F008008DF80200217C11B140F09E
:10E37000100001E020F010008DF80200217B11B1A7
:10E3800040F0010001E020F001008DF80200217D45
:10E3900009B1022100E0012161F342008DF8020081
:10E3A0001C2102A8FEF77BF8607BC10601D4800621
:10E3B00017D50E950EAFE07C791C03F02DFA9DF871
:10E3C0003800079720F00F00401C20F0F0001030BC
:10E3D0008DF838009DF83A0020F00600801C8DF87A
:10E3E0003A00607B8DF80800A07B8DF809001421AD
:10E3F00009A8FEF754F80FA8CDE90906A088ADF8E2
:10E400003000A06820B1E088ADF82C00A0680D9025
:10E41000A06998B301950088ADF81000A06901AD1E
:10E4200001A94088ADF81200A069406806950390E4
:10E43000A069007B03F0F0F9A069691C407B03F040
:10E44000EBF9A069807A00289DF8060002D040F020
:10E45000080001E020F008008DF80600A169C97AE3
:10E4600011B140F0100001E020F010008DF806001E
:10E47000A169097A19B140F0010002E00DE020F035
:10E4800001008DF80600A169897B09B1022100E035
:10E49000012161F342008DF80600E06900B10590AA
:10E4A000434609AA02A94846AADF11B0BDE8F08395
:10E4B00070B5084C050009D010342168002907D038
:10E4C00008682060496828468847F6E70834F4E77A
:10E4D00070BD0000A42C0020054A012120B10128B4
:10E4E00005D19170FFF7E4BF51700020FAE7704743
:10E4F000A42C002010B5D0E90234D1E90220D11AB1
:10E50000A04101D3012010BD002010BD73B58CB017
:10E510000646002000900D9880B100246D462146EB
:10E520000DA800F01AFF30B1009805EB4000848080
:10E530000098401C0090641C142CF0D32C226946D7
:10E540003046FDF793FF0EB070BD2DE9F0411788FE
:10E550000646B81D14460D46984202D90C20BDE867
:10E56000F0813188072206290AD34FF4486C4FF610
:10E57000FF73614501D9994202D17088062801D202
:10E580001046ECE7604501D99842F9D1994203D091
:10E59000984201D08142F3D80520E8552088122105
:10E5A000401C80B2208029542088401C80B22080EA
:10E5B0004119308803F08FFC2188084480B2208004
:10E5C0004119708803F087FC2188084420800020CE
:10E5D000C5E7FEF781BB000038B54A7A0F4B62B140
:10E5E00000220A725969002906D001228DF8002004
:10E5F000ADF802006846884738BD0A7A62B19B6868
:10E600004C68024619462046FEF7DAFB0028F3D094
:10E61000BDE8384003F08CB85B68F1E70C2C0020B3
:10E6200070B588B00646002005900690ADF814102D
:10E63000ADF816100190029001AA05A9304690DFAE
:10E64000050021D002F02EF9034611481149324647
:10E65000401AC108012000EB014004460E4901F0B8
:10E660001AFDBDF8042012B9BDF8060028B1BDF8A6
:10E670000630204609A101F00EFDBDF808201AB1B0
:10E680002046164901F000FD08B0284670BD000084
:10E69000B02C0200B02C0200102502005468652046
:10E6A0007265717565737465642054582F525820D3
:10E6B0007061636B6574206C656E67746820697344
:10E6C00020746F6F206C6F6E672062792025752F24
:10E6D0002575206F63746574732E00005C2502003D
:10E6E00070B500240F4D10E0686800EBC406307868
:10E6F00002F0F0F97178012901D0012100E0002138
:10E700004140307800F058F9641C28788442EBDBF3
:10E71000D5E90401084303D0BDE8704003F0C8B94F
:10E7200070BD00008826002010B50021024800F0CE
:10E7300040FE80F3100010BD0C3400204FF48032F6
:10E740008A400168C1F848230068C0F80823704770
:10E750004FF4A07202EB810189B200F09DB92DE95E
:10E76000F04105460E464FF4A07000EB860081B2E2
:10E7700028684FF48034B440984622F07F47C0F8B0
:10E7800008432868C0F84843286801F041FE28681B
:10E7900000EB8600C0F840752868C0F84443B8F123
:10E7A000000F02D02868C0F80443BDE8F08100687B
:10E7B000D0F804057047000070B54379224C44F846
:10E7C00023204279241D04EBC202204B1579204AF4
:10E7D0009A1AD3082DB10824022000EB03401DA192
:10E7E0002EE002680D88C2F8085590F90420897857
:10E7F000002A4FEA411106DA02F00F0202F1E0228C
:10E8000082F8141D03E002F1E02282F8001490F96E
:10E810000410012201F01F0502FA05F549098900DB
:10E8200001F1E021C1F80051417904EBC1010A7105
:10E83000417944F831000320002400EB03400EA18D
:10E8400001F01EFC204670BDE0260020F82C0200DE
:10E85000B02C020052544320696E7374616E63657C
:10E8600020616C726561647920696E697469616C9C
:10E87000697A65642E0000005254433A20696E693B
:10E880007469616C697A65642E00000090F9040077
:10E89000012100F01F0291404009800000F1E020BA
:10E8A000C0F8001270470A46022100F07BB84FF40E
:10E8B000827100F0F1B800680121016070470068C2
:10E8C0000121416070472DE9F05F07460C464FF487
:10E8D000A07000EB84001FFA80FA38684FF480368D
:10E8E000A6409B4622F07F45C0F848633868C0F8D0
:10E8F00008633868D0F8048500EB8402D2F84095AC
:10E90000C2F840855146386801F082FDA9EB080045
:10E9100020F07F40012806D1102002F01DF851465A
:10E92000386801F075FD3868D0F80485C0F8446394
:10E93000A5EB080121F07F413868012900EB840034
:10E9400010D0C0F840553868D0F804156FF07F4CEF
:10E950006A1A521E22F07F42ACEB0B03934217D38C
:10E9600062B118E06D1CC0F84055102001F0F4FFB2
:10E970003868D0F8040540450AD10CE000EB84006B
:10E980006D1CC0F840553868D0F80405884202D0A4
:10E990000D20BDE8F09F01223146384600F002F814
:10E9A0000020F6E70368C3F84413002A02D0006889
:10E9B000C0F80413704700002DE9F84F0E463449A3
:10E9C000804601EB5001C007097801D00F0901E032
:10E9D00001F00F074FF00009424601204946FDF7BC
:10E9E00032FDDFF8B0A004460D46052F4ED2DFE819
:10E9F00007F003161B282C00002E47D001214046AB
:10EA000002F074FF8DF800906846FEF78DFA5046CC
:10EA1000D0E904120C431543CAE9044532E00EB1B3
:10EA2000022114E0002112E04EB10321404602F021
:10EA30005DFF4046BDE8F84F012103F0FDBA01211A
:10EA400005E0002E22D1042101E02EB10321404631
:10EA5000BDE8F84F02F04ABF0021404602F046FFF1
:10EA60000021404603F0E8FA8DF800906846FEF772
:10EA70005BFA5046E243D0E904341A4024EA050127
:10EA8000CAE904219DF80000FEF772FABDE8F88F8C
:10EA9000982D00208826002010B5006842581AB131
:10EAA00001F0B6FC012010BD002010BD82688388F3
:10EAB0001A4003689A5C0A708168491C816070473B
:10EAC000C26883881A4003689954C168491CC160B0
:10EAD00070470AB100F04CBC00F034BC70B50D4674
:10EAE0000446B0F8D810D0F8D4000122FEF7B5FBE8
:10EAF00000B1057004F13C0204F1D40104F15400AA
:10EB000072DF70BD10B50446C0B2FEF7E3F92046CF
:10EB100010BD00000C484A8843889A4213D10A88E5
:10EB2000A2F52063773B0ED18988C91E8AB2828004
:10EB3000064807491346401AC008032101EB00406C
:10EB400004A101F0A8BA704714260020102D02007D
:10EB5000B02C020044617461206C656E20697320E2
:10EB600073657420746F2030782558282564290037
:10EB700010B50949094800F09DFC08B1FEF7ACF852
:10EB8000F721064800F08AFC002803D0BDE81040B9
:10EB9000FEF7A2B810BD000015EB0100502A0020BE
:10EBA00010B50B48FFF703FE094A083AD2E90434CE
:10EBB000C018D2E9063244F10001C31A71EB020217
:10EBC00004D24FF08072801841F1000110BD0000A6
:10EBD000A826002010B5C0B2FFF750FB044600780D
:10EBE00001F078FF01466078012801D0012000E0A3
:10EBF000002090EA010F08D00449D1E9040108433C
:10EC000003D1BDE8104002F053BF10BD882600209C
:10EC10000146034802888A4200D000207047000065
:10EC2000F82B00202DE9FC5F0E008346DDE90C4740
:10EC3000C6F1000098469246814600D40846012558
:10EC400003E000BF90FBFAF06D1C5045FADAA845CE
:10EC500000D9454624B1002E01DB780700D5641E9B
:10EC6000B80702D5B8F1000F0AD0F80708D13CB1B7
:10EC7000A54205D220215846641EFFF7DDFAF6E7CB
:10EC8000002E02DA4E462D2102E0780703D52B2113
:10EC90005846FFF7D1FA07F0030002280BD1B8F16C
:10ECA000000F08D13CB1A54205D230215846641E60
:10ECB000FFF7C2FAF6E7CDE9004743465246314630
:10ECC000584603F00DF9BDE8FC9F000070B50D46F5
:10ECD000044600684FF4887101F004FE4FF490710F
:10ECE000206801F0FFFD4FF49271206801F0FAFDF9
:10ECF0004FF4A271206801F0F5FD4FF4AC7120686B
:10ED000001F0F0FD20681149C0F80413206869077C
:10ED100040F30730090E002806DA00F00F0000F17A
:10ED2000E02080F8141D03E000F1E02080F80014DA
:10ED30002068012140F3073000F01F029140400994
:10ED4000800000F1E020C0F8001170BD1003420007
:10ED5000024600201268530713D502F00300012871
:10ED600002D002280CD105E0C2F383100B68801C8E
:10ED7000184404E00223086803EB92521044086030
:10ED800001207047F0B58488A518944200D8224627
:10ED9000A41AC288D6189A4200D81346D21A4B88B1
:10EDA0000788BB420CD34088834209D88888A04298
:10EDB00006D3A84204D8C888904201D3B04201D9F2
:10EDC0000020F0BD0120F0BD0A4810B5807860B188
:10EDD000002401E0022C06D02046FEF79DFF641CB3
:10EDE000042CF7D310BD0324F6E7BDE81040FEF76E
:10EDF000B7BF00004026002003480179C90702D0B0
:10EE00000078FFF7E9B8704740260020F72101801D
:10EE100017214180002101714171FB2181711B216A
:10EE2000C17170472DE9FF410026234800F0ADFA7B
:10EE30002148001F074600F0A8FA204C60680090A7
:10EE4000A56800E000986946284004EB80000C307B
:10EE5000FFF77EFF0028F5D101AA009901EA05031A
:10EE600004EB8303491CDB6842F82030401C00910E
:10EE70000228F2D3019800F0030001280BD00228E9
:10EE800010D10198032101EB90500099BDF80A6060
:10EE900001EB900005E00198BDF80A60C0F3831013
:10EEA00008440090384600F06DFA08B100986060A0
:10EEB00004B03046BDE8F08108340020F02F002077
:10EEC000ACB0182270496846FDF7D0FA6F4806903A
:10EED0006F494FF48070CDE90701099007236D4A0F
:10EEE00006A96846FDF7A4FF08B1FDF7F5FE4FF44B
:10EEF0008041002001F030F908B1FDF7EDFE00F08F
:10EF000097FFFDF72FFF08B1FDF7E6FE62490320EA
:10EF1000FFF718F808B1FDF7DFFE69460020FEF79D
:10EF200043FF08B1FDF7D8FE01F02CFA08B1FDF758
:10EF3000D3FE01F0D9FB08B1FDF7CEFE00246946EF
:10EF40000120009401F074FA08B1FDF7C5FE68468F
:10EF500001F002FB08B1FDF7BFFE9DF808004FA1CC
:10EF600020F00F00401C20F0F00010308DF8080059
:10EF70000B2202A87CDF08B1FDF7AEFE0094102042
:10EF8000ADF800003C200194ADF80200ADF804405B
:10EF90004FF4C870ADF8060068467ADF08B1FDF797
:10EFA0009BFEFFF7E5FD4048019001A93F4800F0B6
:10EFB00046FB08B1FDF790FE3D48009069463D488C
:10EFC000FEF7AAFD08B1FDF787FEAC216846FDF704
:10EFD00066FA02208DF800008DF8024005208DF8B9
:10EFE00003000120ADF84C0032498DF87C00402030
:10EFF000891F2290149144F2506023902E4829904A
:10F000002A4869460C30FEF75BF908B1FDF764FE4B
:10F01000264801210C30FEF750F91C216846FDF707
:10F020003EFA4FF4A030CDE900404FF4F0200290BA
:10F0300022480590032522488DF80C500690ADF823
:10F040000E408DF810406846FEF70AFB08B1FDF748
:10F0500043FE1CA0FDF74EFD1F482049401AC00882
:10F0600005EB00401EA101F00BF8104803210C3005
:10F07000FEF7F4F908B1FDF72FFE00F0E7FE0028D7
:10F08000FBD101F093F9F8E7742102005028002029
:10F09000502900201D1B02009DDE01004E6F72648E
:10F0A00069635F5541525400F1030200642A002055
:10F0B0009110020020260020291102004D110200AB
:10F0C000D3E501000D0A55415254207374617274E6
:10F0D00065642E0D0A000000102D0200B02C020005
:10F0E0004465627567206C6F6767696E6720666F3D
:10F0F000722055415254206F76657220525454202C
:10F10000737461727465642E0000000070B514465B
:10F1100082880E4605462088111D0144921C9942A2
:10F1200001D8FE2A01D90C2070BD521C325420880F
:10F13000FF21401C80B2208031542088401C80B2C6
:10F1400020808119288802F0C6FE2188084480B2F8
:10F150002080AA8842B1A96841B13044FDF786F900
:10F160002088A98808442080002070BD072070BD39
:10F170002DE9F047C5881E1DB6FBF5F78946B6FB9D
:10F18000F5F1044605FB176C407916686843DDF815
:10F1900020A0F718001F874200D9C61A166001E0A8
:10F1A0002468491E0029FBD1A5EB0C078846B7420D
:10F1B00016D818E004EB0C00001D09EB0803BAF1A7
:10F1C000000F3A4602D00146184600E01946FDF706
:10F1D0004DF92468F61B4FF0000CB844B54201D934
:10F1E000374600E02F46002EE4D1BDE8F08700004E
:10F1F00030B5024651B100F0CDFF0021074C08E0C8
:10F2000034F821301568AB4202D11160002030BDC6
:10F21000491C8142F4D3052030BD000000000000ED
:10F22000F8B50F46017814460546012901D16878E2
:10F2300030B12088821C9A4232D8012902D006E0DF
:10F240000720F8BD69780144891C994228D8181A0A
:10F25000801E86B2ADF800602188B81C084469465B
:10F260007DDF0028EDD12978022904D06878BDF827
:10F270000020904205D3BDF80000B04201D809201B
:10F280000AE00820012905D16978B14202D8ADF819
:10F29000001001E0ADF80060BDF80010FE2901D9B2
:10F2A0000C20F8BD2288491CB9542188491C89B218
:10F2B000218078542088401C2080BDF8001008442C
:10F2C00020800020F8BD10B531B1B2FBF3F403FB90
:10F2D00014241CB1092010BD0E2010BD01600021B6
:10F2E000416081608281C381084610BD70B50C46C3
:10F2F0000546FCF78FFF002802D0218828680844C3
:10F3000070BD10B50A8849888A4203D1FCF7C4FF52
:10F31000012010BD002010BD70B50C460546FCF75D
:10F320009EFF002802D061882868084470BD10B58F
:10F330000A8849888A4203D1FCF788FF012010BD62
:10F34000002010BD01F01F0301229A40D243490959
:10F3500000EB8100114600F021B84A0950F8220064
:10F3600001F01F0201219140084000D001207047A8
:10F3700001F01F0301229A40490900EB8100114668
:10F3800000F01CB8002100F00FB8012100F016B801
:10F3900008B56A46FCF7D5FF009808BD08B56A466F
:10F3A000FCF7B5FF009808BD08B56A46FCF7AFFF4B
:10F3B00008BD08B56A46FCF791FF08BD08B56A4666
:10F3C000FCF798FF009808BD08B56A46FCF7C6FF31
:10F3D000009808BD38B5044600258DF800506846F1
:10F3E000FDF7A2FD21686268086890420ED9401EB0
:10F3F00008600178238AE26801FB0325227A2168EC
:10F40000101AC0B20A79824200D208719DF8000039
:10F41000FDF7AEFD284638BD38B5054600208DF80D
:10F4200000000C466846FDF77FFDE868298A201A2F
:10F43000B0FBF1F12A681068431C136001709DF85D
:10F440000000FDF795FD38BD10B530B1017A426876
:10F450000368891AC9B21A6006E00E2010BD03685D
:10F460001A68541C1C601170491EC9B2F7D200689A
:10F4700000210171084610BDC20800F007030120F9
:10F48000895C98400840704710B5C20800F0070337
:10F49000885C01249C402043885410BD28B1A1F110
:10F4A0001702E12A03D3072070470E20704701801E
:10F4B0000020704710B560B10161F72120F8021BF0
:10F4C00020F8021BFB2100F8021BFFF79FFC002025
:10F4D00010BD0E2010BD0000F0B5858891B00C461F
:10F4E000002D39D1018800263F4F24293BD006DC6E
:10F4F000102909D011290CD0232958D14FE03A29DD
:10F500000BD0552953D129E00146204601F062FE77
:10F510004DE0A01DFFF77AFC49E02246408934F80F
:10F52000061F814200D808466080172800D21720A5
:10F530006080106970B1607960B1D7E90001CDE9F0
:10F540000301ADF80E506088ADF81000136903A9EF
:10F55000104698476671267111B0F0BD01462046ED
:10F5600001F086FE23E0011D282206A8FCF77EFF9D
:10F57000BDF81800BDF81C2004EBC0014A732269D5
:10F58000AAB1D7E90423CDE90423ADF81200487BE2
:10F590008DF814002269204604A9904707E0017AFB
:10F5A000207B884200D201462846FFF739F8A07A2E
:10F5B0000028D1D0E1882846A5DF012580B1112897
:10F5C000CAD001F06FF902460848094911B0401A43
:10F5D000C00805EB0040BDE8F04006A100F054BDB6
:10F5E000A672E572B8E70000C0210200B02C02004C
:10F5F000B02C020073645F626C655F676174746352
:10F600005F65786368616E67655F6D74755F72656D
:10F61000717565737428292072657475726E6564DE
:10F620002025732E0000000020B10278DE2A03D0CE
:10F63000082070470E20704741800020704760B15D
:10F6400059B10278DE2A0AD009684160DE210170D2
:10F650004FF6FF714180002070470E207047082050
:10F6600070477FB5054600294DD0002D4BD0087856
:10F670000C46DE2847D1A8886188884202D12046FE
:10F6800002F0C8FC2888012825D002283BD0112888
:10F690003AD0512837D135F8040F6188884232D1E9
:10F6A000A978A81C02292ED1017A042903D00629A1
:10F6B00001D0052927D10021009102228DF80020D8
:10F6C00001914FF4C07202910391ADF80420007AC9
:10F6D00005280FD010E0297A2046012913D1A988E6
:10F6E000428891420FD10121017204B0BDE87040FF
:10F6F00002F090BCADF8041028886946B0DF0028FD
:10F7000001D0616888477FBDA88861888842FAD1A6
:10F710004FF6FF7060807FBD00F1804000680028D8
:10F7200000D00120704708B500F180400021016041
:10F730000068009008BD000070B50B4C207808B13F
:10F7400085250FE00020A06060602061E060074830
:10F7500001F0E4F8054601F013F808B901F0C8F823
:10F7600001202070284670BDA42C0020D9E401009F
:10F7700038B500258DF800506846FDF7D5FB074CDD
:10F78000E068401EE060E06810B901F0D7F8A570AD
:10F790009DF80000FDF7ECFB38BD0000A42C002014
:10F7A000F0B505460478154889B0164640F824207F
:10F7B000124A08690832A2F10C0742F82400487F77
:10F7C000385520226846FCF751FE04942878385CAE
:10F7D00048B10EB10A4A00E000226946281D01F036
:10F7E0003BFB09B0F0BD0EB1064A00E000226946BD
:10F7F00005F10C0001F0E6F9F3E7000064260020B3
:10F80000951D0200391C020030B40378054CE35CFE
:10F810001BB130BC001D01F055BB30BC0C3001F0F9
:10F8200039BA00006026002030B40378054CE35C50
:10F830001BB130BC001D01F0C7BB30BC0C3001F067
:10F840009FBA0000602600200FB408B50399002974
:10F8500004D004AA00926A4600F00FF801B05DF8E7
:10F8600014FB10B582680446002A05D0D4E90403CD
:10F87000216898470020A06010BD2DE9FC47914603
:10F880000C00804676D014F8011B39B125290ED022
:10F890004046FEF7D1FC20780028F4D198F80C00FF
:10F8A000002867D04046BDE8FC47FFF7DABF0020DC
:10F8B000012221782B291BD02D2902D0302908D1F3
:10F8C00002E040F0010001E040F00200641C002A68
:10F8D000EFD100252A290ED02178A1F130020A2A81
:10F8E00011D205EB850201EB4205641C303DF1E7C6
:10F8F00040F00400EAE7D9F800100B1DC9F8003009
:10F900000968641C0D44217800232E290BD114F8BA
:10F91000011FA1F130020A2A05D203EB830201EB99
:10F920004203303BF3E76C290DD068290BD06929DD
:10F9300021D00BDC252918D0582931D063290ED0CD
:10F94000642915D117E014F8011FECE7702969D07C
:10F95000732932D075291BD0782909D120E0D9F834
:10F960000000011DC9F8001001784046FEF764FC54
:10F97000641C90E76CE0D9F800100A1DC9F800205B
:10F980000968CDE900500A224046FFF74BF9EFE73E
:10F99000D9F800100A1DC9F8002009680A2206E0FB
:10F9A000D9F800100A1DC9F8002009681022CDE915
:10F9B0000050404602F094FADAE7D9F80010002728
:10F9C0000A1DC9F800200E68C00705D112E04046A4
:10F9D000761C7F1CFEF730FC31780029F7D104E05B
:10F9E000202140466D1EFEF727FCBD42C0D9002DE8
:10F9F000F6D1BDE74EB13046FCF75CFD074604E0AA
:10FA0000202140466D1EFEF717FCBD4206D9002D91
:10FA1000F6D103E04046761CFEF70EFC3178002953
:10FA2000F8D1A5E7D9F80000011DC9F80010056854
:10FA300030214046FEF700FC78214046FEF7FCFBF3
:10FA400008200021CDE90001034610222946B0E735
:10FA5000BDE8FC872DE9FF411C46DDE90A78154623
:10FA60000E46684600F098F846EA450141EA8401EE
:10FA700041EA072242EA0841009A00EB8200C0F8FE
:10FA80000017BDE8FF812DE9FF411C46DDE90A783A
:10FA900015460E46684600F08DF846EA450141EAF3
:10FAA000840141EA072242EA0841009A00EB820001
:10FAB000C0F80017BDE8FF812DE9FF411C46DDE9D4
:10FAC0000A7815460E46684600F082F846EA450177
:10FAD00041EA840141EA072242EA0841009A00EB28
:10FAE0008200C0F80017BDE8FF812DE9FF411C46E8
:10FAF000DDE90A7815460E46684600F077F846EAD2
:10FB0000450141EA840141EA072242EA0841009A9C
:10FB100000EB8200C0F80017BDE8FF811CB5002291
:10FB20000B46009211460192FFF7C6FF1CBD1CB5A3
:10FB300000220B46009211460192FFF7D6FF1CBD32
:10FB40001CB5002100910B46012201911146FFF7DF
:10FB5000B3FF1CBD1CB5002100910B460122019191
:10FB60001146FFF7C2FF1CBD13B50C46684600F0F6
:10FB700021F8009900EB8101D1F8002722F44032EE
:10FB8000C1F80027009900EB8100D0F8001741EA86
:10FB90000441C0F800171CBD0168202902D24FF0B3
:10FBA000A040704701F01F0101600148704700004C
:10FBB000000300500168202902D24FF0A040704796
:10FBC00001F01F0101600148704700000003005070
:10FBD0000168202902D24FF0A040704701F01F01B8
:10FBE00001600148704700000003005001682029AF
:10FBF00002D24FF0A040704701F01F0101600148A0
:10FC0000704700000003005001B56846FFF7D2FFBF
:10FC1000D0F810050099C84000F0010008BD01B5FA
:10FC20006846FFF7D5FF009A01219140C0F80815FA
:10FC300008BD01B56846FFF7D9FF009A0121914040
:10FC4000C0F8081508BD38B501240090684631B1E8
:10FC5000FFF7A2FF00998C40C0F8084538BDFFF7B8
:10FC60009BFF00998C40C0F80C4538BD1CB5094C71
:10FC70000144D4E90034CDE900346C4606E000BF0D
:10FC800054F82030D3F81035401C08C28142F7D810
:10FC90001CBD0000E8210200034908B5084400210A
:10FCA00001600068009008BD0060004002494058B3
:10FCB000012800D0002070470060004030B5154A90
:10FCC00001460020D2F8104423460AE0DB681D7983
:10FCD000854205D1401C0A28F6DB4FF0FF3030BDCD
:10FCE0001B68002BF2D1431CF9D0CB681871D2F8F5
:10FCF000103443B1DB68CC681B682360D2F8102451
:10FD0000D268116030BDC2F81014C96800220A60C0
:10FD100030BD0000F02F00207047FCF737BD704762
:10FD200008B5034A00924023024A00F005F808BDD6
:10FD300041170200582E0020F0B595B01C4615461C
:10FD40000F4608461A9E00F0F7FA182109A8FCF79A
:10FD5000A6FB0E96CDE909540023082203A93846D4
:10FD600000F0FFFA05980690BDF81000ADF81C00F1
:10FD7000BDF81200ADF81E0000208DF82100039898
:10FD8000082600F00300012802D0022818D032E033
:10FD900003983346850AC0F3C2008DF8200003980B
:10FDA0000FA9C0F38314A200384600F0DAFA09A8BC
:10FDB000009006AB22460FA9284600F019FA1AE077
:10FDC0000398840DC0F3C2008DF82000082C01D2E6
:10FDD000254600E0082533462A460FA9384600F09C
:10FDE000C0FA2E44641B09AB06AA29460FA800F0EE
:10FDF0005BF9002CEAD1384600F0A4FA15B0F0BD4A
:10FE00000A4A012902EBC00007D0022907D00329C2
:10FE100007D0042907D00020704702207047042033
:10FE2000704700797047407970470000B02C02009D
:10FE300010B5FFF772FF04210348FFF73FFF0249A7
:10FE40000120C968487110BDA02C02002DE9F04FB7
:10FE50008DB0FEF709FA18B100200DB0BDE8F08FA3
:10FE60007E4C4FF0000BC4F818B4BFF34F8F60689E
:10FE70000290A568D846284004EB80000CE000BF43
:10FE8000D4F8180470B921680298814201D86160E1
:10FE9000E2E7284004EB80000C3002A9FEF758FF8F
:10FEA0000028EDD1002005AA029901EA050304EB20
:10FEB0008303491CDB6842F82030401C0291022871
:10FEC000F2D3059800F00300022802D001284DD09B
:10FED000AAE005985022810D8946B2EB905F00D8C8
:10FEE00050210E4666F39F50059008315C4800F0A3
:10FEF000DAF9070078D000F01FFA4346082205A976
:10FF0000384600F036FA029908F1080A2940681AC2
:10FF10008000001D864222D9504D0C3530B1C2B24E
:10FF200004EB8101301A90460C3104E02946F2B20C
:10FF3000002590462846C6B25346384600F019FAC6
:10FF40000AEB080325B132462946384600F011FA7B
:10FF5000029909F1030001EB900002903BE004EBF1
:10FF600081015346324638460C31EFE70598C0F31D
:10FF70008310062800D30620059960F38911C1F388
:10FF80008310801C05918100354800F08CF9070032
:10FF90004AD000F0D1F94346082205A9384600F0BE
:10FFA000E8F908F1080800260FE00298434600EA45
:10FFB0000501401C04EB81010290042238460C31FB
:10FFC00000F0D7F908F10408761C0598C0F38310F7
:10FFD000B042EAD847B1D4F81054D4F8180478B134
:10FFE000384600F0AFF934E01EE0E86840790128B7
:10FFF00004D12A682846394612689047E86805689F
:020000040002F8
:10000000002DF2D1384600F09DF98DF800B0684619
:10001000FCF78AFFD4F8180408B9029860609DF8CC
:100020000000FCF7A5FF14E0D4F8104405E02168B7
:10003000204689688847E0680468002CF7D10948A1
:100040000949401AC008022101EB004007A100F055
:1000500017F8FEF709F980F00100FEE6F02F002006
:10006000302D0200102D0200B02C02004261636BA3
:10007000656E647320666C757368656400000000CB
:1000800000231A4601F04ABC08B5012300926A46D3
:1000900001F044FC08BD1CB5CDE9002302236A46EB
:1000A00001F03CFC1CBD00002DE9F0470E468046E7
:1000B0001C469246082940D894F80C9000202073E2
:1000C0001946104601F0ACF90025B54206D218F8E1
:1000D00005201BA12046FFF7B7FB03E01AA120462D
:1000E000FFF7B2FB6D1C082DEFD318A12046FFF7D8
:1000F000ABFB0025B54212D218F805707E2F08D848
:10010000FCF7B0F90068C05D10F03E0F01D03A4630
:1001100000E02E220EA12046FFF796FB03E00DA182
:100120002046FFF791FB6D1C082DE3D301222146E9
:10013000504601F057F984F80C90BDE8F0870000B4
:100140002025303278000000202020007C000000B4
:1001500025630000200000000B4810B5FF218160DE
:10016000002101604160C0F81814C0F8141480F830
:100170002014064800F0E4F8002803D1044800F0F9
:1001800039F9002010BD0000F02F0020302D0200B2
:10019000D823020002480349401AC00870470000F3
:1001A000302D0200B02C020013B56846FFF720F88E
:1001B00008B100201CBD0248009950F831001CBD58
:1001C000B02C020070B509480125D0F8104480F821
:1001D000205407E0E0684571216820464968884757
:1001E000E0680468002CF5D170BD0000F02F0020FD
:1001F0002DE9FF4781460C9D00200C462F7B28737C
:10020000984616462946184601F00AF9072E42D2AA
:10021000DFE806F004090F161F2A36004946284673
:10022000FFF712FB37E0494628462268FFF70CFB30
:1002300031E0D4E9002349462846FFF705FB2AE0D0
:10024000A0680090D4E9002349462846FFF7FCFA4D
:1002500021E0D4E90201CDE90001D4E900234946B7
:100260002846FFF7F1FA16E004F1080007C88DE808
:100270000700D4E9002349462846FFF7E5FA0AE0DB
:1002800004F108000FC88DE80F00D4E900234946A7
:100290002846FFF7D9FA00222946404601F0A2F885
:1002A0002F73BDE8FF872DE9F041058A80462D1F99
:1002B0004819C01CB0FBF5F0C6B24046FFF78AF8FB
:1002C000041E19D00020207101206071E5800027F4
:1002D0002546761EC4F800800BE04046FFF77AF80A
:1002E00060B16179491C6171286005467F1CC0F8C6
:1002F0000080B742F1D32046BDE8F081204600F0EF
:1003000002F80020F8E72DE9F041457901466B1E1F
:10031000002201E00968521C9A42FBD30F68014693
:10032000002605E038460C68FFF776F82146761C73
:10033000AE42F7D3BDE8F0810121001DFFF728B8D8
:10034000FFF782B810B504460121001DFFF73CF805
:1003500010F0FF0F04D12046BDE81040FFF7D3BFD7
:1003600010BD1CB501920122009201AAFEF700FF08
:100370001CBD1CB501920022009201AAFEF7F8FEF6
:100380001CBD0000064910B500204870091D08601A
:10039000BFF35F8F0349044800F016FA002010BD38
:1003A000EC260020702202004C2E002008B5002010
:1003B0008DF800006846FCF7B7FDF1EE100A20F05A
:1003C0009F00E1EE100ABFF35F8F08494020C1F89B
:1003D00080029DF80000FCF7CBFD00F0D1F908B1D8
:1003E00041DF08BD20BF40BF20BF08BD04E000E0E2
:1003F000FCF772BC8268002191608268116182689A
:1004000051618268D1608268516080680160704784
:1004100008B5002242504058009008BD20B1034961
:1004200009680160002070470E2070475C240200BC
:100430002DE9FE4307460E460846FFF7EFFF00286A
:1004400078D100250095019506208DF800704FF0B9
:100450000108ADF8040002958DF80280694620205D
:10046000326869DF3449354A891AC908012202EB2A
:10047000014430B100F016FA024620463049FFF739
:1004800003FE0095019502958DF801806946402094
:10049000326869DF30B100F005FA0246204629498A
:1004A000FFF7F2FD00958DF80070F720ADF802001F
:1004B0000195029569462320326869DF30B100F06A
:1004C000F1F9024620462049FFF7DEFD009501952F
:1004D00002958DF8008069460120326869DF30B1ED
:1004E00000F0E0F9024620461849FFF7CDFD4FF431
:1004F000B0600090019502956946A120326869DFDD
:1005000030B100F0CFF9024620461149FFF7BCFD9B
:100510000095019502958DF800506946A02032683B
:1005200069DF30B100F0BEF9024620460949FFF705
:10053000ABFD0020BDE8FE83202D0200B02C0200A0
:10054000FC2A0200442B0200902B02005C2A0200CD
:10055000A82A0200082A02002DE9F0410546076892
:1005600060DF804619491A482A68081AC608BA4244
:1005700019D9022000EB064416A12046FFF780FDA2
:1005800020463A461FA12B68FFF785FD4FF08050AB
:10059000D0F80C012968800200F10050421A204670
:1005A00025A1FFF771FDB8F100004FF001040AD05A
:1005B00000F078F9024604EB06402AA1FFF764FD3B
:1005C0004046BDE8F0812F480470F9E7202D020075
:1005D000B02C0200496E73756666696369656E7456
:1005E0002052414D20616C6C6F63617465642066BC
:1005F0006F722074686520536F6674446576696312
:10060000652E00004368616E67652074686520523E
:10061000414D207374617274206C6F636174696FF3
:100620006E2066726F6D203078257820746F2030D0
:100630007825782E000000004D6178696D756D2079
:1006400052414D2073697A6520666F722061707027
:100650006C69636174696F6E2069732030782578E6
:100660002E00000073645F626C655F656E61626C92
:100670006528292072657475726E65642025732E55
:10068000000000005727002030B51548ADF5017D6A
:100690000078002821D04FF4FA7500BFADF8005261
:1006A00080A9684661DF38B1052816D00DF5017DB7
:1006B000BDE83040FCF710BB6C460A497DA800F04D
:1006C00083F806E0D0E90021204690477DA800F09D
:1006D00092F87F980028E1D0F4E70DF5017D30BD58
:1006E00057270020602402007CB5194C207808B1FF
:1006F00008207CBD0120A070002000F0EBFF112835
:1007000019D0002000F0FEFF12480026006801907A
:100710008DF800606846FCF707FC0F4901A810DF60
:1007200005000AD0002020709DF80000FCF720FC96
:100730002DB128467CBD00207CBD0120F3E7A670CA
:10074000667001F0A1F8012000F0DCFFF3E7000083
:1007500054270020F423020055CC01000EB50749B0
:10076000684600F031F805E0D0E900108847684697
:1007700000F041F802980028F6D10EBD10240200C6
:100780000148007870470000542700201FB56846D4
:100790004BDF30B1052814D004B0BDE81040FCF7A1
:1007A0009BBA084901A800F00FF806E0D0E9002143
:1007B0000098904701A800F01EF803980028E6D0A2
:1007C000F4E71FBD7C240200016009684160AFF3BB
:1007D000008010B5D0E900215368994201D1002171
:1007E00004E0D1E90034A34202D01946816010BD73
:1007F00008314160F0E7816800290BD002689268F7
:100800000A44826041684B689A4203D108314160D2
:10081000FFF7DFBF704770B50D460646446804E039
:10082000B2682946904718B1246820680028F7D19B
:1008300020682860256070BD406800687047416886
:100840000868002801D002680A607047024600204C
:10085000526806E08B4203D108681060012070479F
:100860001A461368002BF5D1704700000C4A10B5EA
:1008700002F594730EE0991AC91001EBD171491079
:1008800002EBC1010C68844201D90B4602E005D29B
:1008900001F108029A42EED3002010BD486810BD55
:1008A0009022020000B5FFF7E1FF002800D10148C7
:1008B00000BD00007C2202004058002800D001202A
:1008C000704708B5002242504058009008BDD0F84B
:1008D0000403084000D0012070474058002800D091
:1008E0000120704708B5002242504058009008BDD2
:1008F00008480068012110F0010F06D14FF0E020F8
:10090000C02280F80024C0F80011034901200860CB
:100910007047000000E100E018050040064902466B
:1009200000200B790BB1852070470A6001220A7103
:1009300000224A71704700007426002004490120FB
:10094000086004480168C1F300410029FAD17047EA
:100950000C00004018040040002802D0014980012A
:1009600008477047412202002DE9F0410E468046BB
:1009700000F020FD204D0028404616D0FDF7C8FCB1
:10098000284490F858008009032802D001280AD092
:1009900003E04046FFF738F928B103214046BDE89F
:1009A000F041FFF7E1B80221F8E700F00FFD002861
:1009B00020D04046FDF7ACFC0446104F4FF4807049
:1009C00007EB840100EB8400D1F8102580B242F0DF
:1009D0000102C1F81025FFF75FF9002E0AD040464A
:1009E000FDF796FC55F82000002803D00120A04018
:1009F000C7F80403BDE8F081B82C00200060004077
:100A00002DE9FC41DFF8C080044608EB0400002714
:100A100090F930001346C0170E46401C01D008273D
:100A20004FE0B0781946C0F340022046FDF74CFC79
:100A30000546401C44D0B07841071CD4C0070DD0F7
:100A400068460094FFF7B6F8009900EB8100D0F8F3
:100A5000001721F00201C0F8001707E000217378A9
:100A6000204600910A460191FFF70DF816492046ED
:100A70006431FEF709FDB078800718D51348317846
:100A800000EB8500D0F81025114B1A40C0F8102556
:100A90004FF47C524FF4403302EA042203EA01414E
:100AA0000A43D0F810150A43C0F8102509E008EBF6
:100AB0000500327810F8581F41EA8211017000E0F9
:100AC00004273846BDE8FC81B82C002000600040B7
:100AD000FFC0FCFF10B5FFF797F8002800D00120F9
:100AE00010BD000070B5184D95F86A0008B10820D7
:100AF00070BD0020411E2A18401CC0B282F8301080
:100B00003028F8D300242046FDF7D0FB641CE4B263
:100B10000C2CF8D30C490024C0204C66A1F8684086
:100B20000A4981F8000401264020891FC1F800010C
:100B30004FF4BE70FFF7B0F80549F007C1F80403A1
:100B400085F86A60204670BDB82C002006E000E001
:100B500000600040034890F86A00002800D001209F
:100B600070470000B82C00200121B1EB507F01D16B
:100B7000012070470020704738B50D4600F09CFCFE
:100B8000040014D000208DF800006846FCF7CCF972
:100B9000207928B19DF80000FCF7EAF9112038BD52
:100BA0000120256020719DF80000FCF7E1F900208C
:100BB00038BD00000149024801F056B8242D00203C
:100BC000002000402DE9F0410546007916460F4609
:100BD00000EB40012C4A01EBC00102EB810494F8C8
:100BE0002A1011B10820BDE8F081284951F82010E1
:100BF0002868FFF7C1FF08B11120F4E739462846FD
:100C0000FCF7D0F966603869206030004FF00106CB
:100C10002DD03F7F4FF48E712868FFF752FE4FF4BE
:100C2000A2712868FFF74DFE28681949C0F804131F
:100C300028684FEA471140F30730002806DA00F031
:100C40000F0000F1E02080F8141D03E000F1E02027
:100C500080F80014286840F3073000F01F0106FAFE
:100C600001F14009800000F1E020C0F8001128687F
:100C70000421C0F800150020A061E06184F829007B
:100C800044F8140FA675AEE7242D0020F0210200D1
:100C9000800002002DE9F05F054600794FF40176EF
:100CA00000EB400303EBC000344B03EB8004002057
:100CB000636813B12B68C3F80863A3694FF0000998
:100CC0006BB1E06938B1606810B12868C0F804639E
:100CD0001120BDE8F09FE2610120216105E0C4F828
:100CE0002490A261E160C4F81C9094F8291001439B
:100CF00002D1284600F0B5FC60680028286803D0BF
:100D0000C0F804630020E4E74FF4A2763146FFF711
:100D1000D8FDB2464FF4927B59462868FFF7CCFDC8
:100D200006464FF484712868FFF7C6FD8046514699
:100D30002868FFF7C1FD074648EA07003043EBD0BB
:100D400056EA070007D12146286800F05BFCA1693C
:100D5000606A8142E0D8C4F818900EB10320B8E769
:100D60000FB10F20B5E794F8291001200029296858
:100D700001D00860C6E74860C4E70000242D0020C9
:100D80002DE9F05F054600790B4600EB400101EBD1
:100D9000C000244901EB8004284600F045F810B15A
:100DA0001120BDE8F09F62614FF00009C4F8209067
:100DB000A36084F828904FF48E784E464146286808
:100DC000FFF77FFD28684FF0010AC0F808A0214610
:100DD000286800F079FE606808BBD5F800B0676944
:100DE0000FE000BF94F8280008B10F2615E0414637
:100DF0005846FFF761FD0028F4D02146584600F020
:100E000063FE206AB842F2D3574641462868FFF78E
:100E100053FD0028F9D02868C760C4F81490304604
:100E2000BFE70000242D0020007900EB400101EB1A
:100E3000C000044901EB80004069002800D0012077
:100E400070470000242D00200149024800F0BABF7D
:100E5000502D0020002000402DE9F04105461646A7
:100E600000790F46154A00EBC00102EB810494F8AB
:100E7000201011B10820BDE8F081114951F820106F
:100E80002868FFF779FE08B11120F4E739462846B3
:100E9000FCF7C3F86660386920601EB1397F2846C8
:100EA000FDF714FF28680821C0F800150020A06194
:100EB000E0616061012184F82010DCE7502D002002
:100EC000F42102002DE9F05F044600790E4600EBA4
:100ED000C001DFF8F0A017460AEB81053046FFF7A6
:100EE00043FEB0B168684FF000084FF4047910B1C8
:100EF0002168C1F80893A8694FF0000B80B1E86938
:100F000048B1686810B12068C0F804931120BDE8AA
:100F1000F09F1020FBE7EF614FF001082E6102E027
:100F2000EE60C5E9067B00254FF488712068FFF765
:100F3000D9FC4FF4A2712068FFF7D4FC2068C0F8F8
:100F40003465C0F838752068B8F1000F12D0D0F8B9
:100F5000001241F02001C0F800122079D04600EBC9
:100F6000C0010AEB8100406838B12068C0F80493E2
:100F70002846CCE701210160EFE74FF4887A4FF46F
:100F8000A27951462068FFF7A8FC07464946206829
:100F9000FFF7A3FC06464FF492712068FFF79DFC13
:100FA000014647EA06000843EBD0227902EBC20370
:100FB00008EB8302C2F818B001B10325002ED7D088
:100FC0000F25D5E7502D00202DE9F04704460E46A9
:100FD0000079274900EBC00001EB80051746304639
:100FE000FFF7C2FD30B1204600F044F820B11120D7
:100FF000BDE8F0871020FBE76F61AE604FF490779B
:101000004FF0000839462068FFF76CFC4FF4AC76CF
:1010100031462068FFF766FC2068AA686969C0F855
:101020004425C0F8481520684FF00109C0F8089021
:101030006868D0B9BA4651462068FFF74EFC0746AB
:1010400031462068FFF749FC0743F4D010B14FF058
:101050000F0808E02068C0F80C9031462068FFF7C0
:101060003CFC0028F9D0002068614046C0E7000041
:10107000502D00200079054900EBC00001EB8000F5
:101080004069002800D0012070470000502D00204A
:101090002DE9F04105460078002828D11548164969
:1010A0000026401AC008012101EB004710E0286922
:1010B000805DFBF70FFF040009D0112CF7D03846F4
:1010C00022460EA1FEF7E0FF2046FBF705FE761C48
:1010D000A88AB042EBD8A98A2869084410F8010C04
:1010E0000D2804D10A20FBF7F5FE1128FAD0BDE83F
:1010F000F0810000102D0200B02C02004661696CE6
:10110000656420726563656976696E67204E555324
:10111000206D6573736167652E204572726F722052
:10112000307825782E20000010B550B103280CD15E
:101130000220FCF7FBFE002807D0BDE81040FBF7BB
:10114000CBBDBDE8104000F07FBB10BD007800288B
:1011500007D104483B21408876DF002801D0FBF707
:10116000BBBD704714260020F0B58BB00026019659
:101170000D4604468988406901AAFBF789FF0AA841
:10118000CDE908600227ADF82070ADF82260218912
:10119000A88808AAADDF002819D1A069002816D0B8
:1011A0000998FCF75BFD002811D0019E0EB10120CB
:1011B0003070182102A8FBF772F98DF808700394BB
:1011C000A888ADF810000596A16902A888470BB061
:1011D000F0BD000070B58D88027900EBC504227364
:1011E000C97BA41D012901D1008820802188608845
:1011F000814211D92846A5DF0126B0B1112816D0A9
:10120000FFF750FB02460B480B49401AC00806EB9B
:1012100000400AA1FEF738FFA179E079814208D9A0
:101220002846BDE87040FDF7FBB96671F4E726710A
:10123000F2E770BDB02C0200B02C020073645F6254
:101240006C655F67617474635F65786368616E671E
:10125000655F6D74755F726571756573742829209B
:1012600072657475726E65642025732E000000002F
:101270007CB506468D88C88806EBC504A41D1728D2
:1012800000D217202188814200D8084660800020C3
:10129000207121882846B5DF60B1FFF703FB0246C5
:1012A0000F481049401AC008012101EB00400EA16F
:1012B000FEF7EAFE6079002810D1306900280DD0D1
:1012C0001549D1E90201CDE90001ADF8025060886D
:1012D000ADF8040032696946304690477CBD000095
:1012E000B02C0200B02C020073645F626C655F6713
:1012F000617474735F65786368616E67655F6D7450
:10130000755F7265706C7928292072657475726ECC
:1013100065642025732E0000C0210200F0B587B05F
:101320000C4605468E1D8988406906AAFBF7B0FE6B
:1013300018216846FBF7B3F80195A088069AADF826
:101340000800039231882B89002704F1120099428A
:1013500002D17389022B0DD0AA8991421ED1A969AD
:1013600000291BD08DF8007004907089ADF814002E
:10137000A96911E0002A11D0FCF770FC20B1069990
:1013800001200870022002E00698077003208DF803
:101390000000A969002901D06846884707B0F0BD60
:1013A0000068012803D0022801D0002070470120E6
:1013B000704700000449084490F93000082801DB18
:1013C0000120704700207047B82C002004490844D1
:1013D00090F93000082801D20120704700207047A2
:1013E000B82C002010B50C46017A052908D0407AA7
:1013F00038B1084808A102682046FEF725FA00E047
:101400001AB106A12046FEF71FFA2046BDE810409B
:10141000FEF727BA30270020257300000D0A0000D0
:1014200038B5C3880D46044633B114A0009015A208
:1014300016A12846FEF708FA217A05291CD0607A01
:1014400048B1A088FEF7DCFC164951F8202016A10F
:101450002846FEF7F9F9A0880021FEF7A5FE03460D
:101460001049207A143951F8202001B02846BDE8EF
:1014700030400EA1FEF7E8B938BD00001B5B306DAF
:10148000000000001B5B313B33316D0025734C6F56
:1014900067732064726F7070656420282564292545
:1014A000730D0A0030270020257300003C25733E91
:1014B0002025733A200000000349884201D10348E7
:1014C0007047002070470000002000407C2600206C
:1014D00070B50546FDF7EBF9134C40B1D4E90402B1
:1014E0004FF08071411842F10000C4E9041000215E
:1014F0002846FDF72DF930B1606820B1606800F032
:1015000053FA0020606001212846FDF721F918B147
:10151000FDF746FBC4E90601284600F071FA2846AB
:10152000BDE8704000F034B8A026002070B5054634
:1015300000200C460870FDF733FBD5E90223101A92
:1015400063EB010300263146361A994112DAB0F5F1
:10155000350F03D3FBF7F4FB0B4942184FF4960306
:1015600000210A48FDF7AFF910B10D2806D009E0B7
:10157000012070BD00210548FDF7E0F8284600F085
:1015800013FA2070002070BDFFFFB400A8260020D1
:10159000F8B51A4C074600261948FFF74DF9D0B1A7
:1015A000616871B1D0E902106268D2E90232C91AE9
:1015B000904120D26068007F18B161681048FFF741
:1015C0002AF900F08DF905466946FFF7AFFF98B19B
:1015D000606840B10AE0606800280CD13846BDE878
:1015E000F840FDF76CB93846FDF765F965609DF880
:1015F00000000028D0D1F8BD6660CDE7A02600200D
:101600000822020070B5054688690C4600284FF490
:10161000847128460AD0FFF754F9D5F81805626A94
:10162000E1688854606A401C606270BDFFF749F948
:10163000D5F8180570BD1FB501238DF80030CDE930
:101640000121D0E90012684690471FBD1FB5012354
:101650008DF80030CDE90121D0E9001268469047AD
:101660001FBD10B5044600684FF49271FFF729F9C9
:101670004FF484712068FFF724F92068012101608C
:1016800010BD000038B50021012548B101280CD05B
:10169000032809D1FFF72CF9BDE83840FEF768B8F8
:1016A0004FF0E020C0F8805138BD8DF8001068463A
:1016B000FBF73AFC064C207808B9FEF73DF8E068E5
:1016C000401CE060A5709DF80000FBF751FC38BDA0
:1016D000A42C00203EB5044609496846FFF774F87B
:1016E00008E000BFD0E900212046904730B16846AD
:1016F000FFF781F802980028F4D13EBD11203EBDCD
:10170000F82302003EB5044608496846FFF75CF836
:1017100007E000BFD0E90021204690476846FFF768
:101720006AF802980028F5D13EBD000004240200AA
:1017300002498969002900D0084770470C2C002015
:101740002DE9F0411400884618D000250E4F0326DD
:1017500008EB050122460020FBF71AF80544241A7D
:1017600040B93878002809D008494FF47A408847B2
:10177000761E05D001203870002CE9D1BDE8F0813B
:1017800000203870FAE70000F8260020D12302007C
:101790002DE9F0410746806A14468846C8B3002503
:1017A00031E000BFB96A05EB450001EB8006B08867
:1017B000801CFE2802D90C20BDE8F0812288401C44
:1017C00008F8020020881622401C80B2208008F809
:1017D00000202088401C80B2208000EB0801308867
:1017E00000F079FB2188084480B22080B28842B1A1
:1017F000B16871B14044FAF739FE2088B1880844D5
:1018000020806D1CEDB297F82C00A842CAD80020A9
:10181000D2E7FFE70720CFE70A78062822F0FF0289
:101820000A7010D2DFE800F0030507090B0D002055
:1018300008E0112006E0212004E0312002E012201F
:1018400000E022200870704710B50020FCF76EFB06
:1018500008B1FBF741FAFCF7C3FA08B1FBF73CFA11
:1018600033DF002803D0BDE81040FBF735BA10BDC8
:10187000002805D10349012048700020FCF718BE5C
:1018800070470000A42C002010B51620FBF74AF981
:10189000A0B1114890F800044009082811D2012194
:1018A000814011F0EC0F0CD00C4882684FF480019D
:1018B0006AB1016841F48001016010BD42F201008B
:1018C00001E042F20200BDE81040FBF705BA4FF01C
:1018D000E020C0F8001110BD16E000E0402E00200E
:1018E0000148FEF7ACBF000008220200C207002A30
:1018F00003D000BF4FF00F0201E04FF0F00201D023
:101900004FEA0111044B03EB5003187800EA020080
:1019100040EA010018707047982D00202DE9F84F1B
:10192000204D924689460646984601226946184649
:10193000AF68FCF739FC58B3009800210446801CBE
:1019400009E000BF00EA07035AF8212005EB8303F2
:10195000401C491CDA604145F4D34FEA164AFCF7B3
:10196000E3FE4AEA0041601C384005EB80003C4041
:1019700005EB8402C160D06866F3C50068F3891086
:1019800069F39F2020F00300401C20F00400D06089
:1019900095F8200402E000BFFEF758FA0028FBD1BA
:1019A000BDE8F88FF02F002070B5044612480025DE
:1019B0000078F8B1F4B1207FE0B1FDF7F1F8D4E997
:1019C0000223801A994110D32069002600B9267796
:1019D000D4E905108847206960B1217F51B1D4E96D
:1019E000022110187141C4E9020121460348FEF7A3
:1019F00012FF0125284670BDA02600200822020003
:101A0000F8B51B4C69462068FDF786FC00260127C7
:101A1000184D29E0017821B101290CD002291BD1F0
:101A200014E041680A7FBAB90F774168104808305E
:101A3000FEF7F1FE10E041686868814201D16E60F6
:101A40000AE00B480830FEF701FF05E0FFF748FF0A
:101A500008B10677FAE72F7069462068FDF751FC58
:101A600069462068FDF758FC0028D3D1F8BD000076
:101A700000220200A0260020F8B50B4C0D460646B9
:101A800069462068FDF732FC58B10670456069462A
:101A90002068FDF74CFC10B10448FCF7F7FE00206D
:101AA000F8BD0420F8BD000000220200A826002096
:101AB000034880684108034800224068FBF780B96A
:101AC00088260020F821020070B50C4605464FF428
:101AD0008E71FEF7F6FE216AA068415C206A401C08
:101AE0002062C5F81C1570BD1FB500228DF80020BE
:101AF0000291816801914261D0E9001268469047E5
:101B00001FBD1FB500228DF8002002918168019150
:101B10004261D0E90012684690471FBD38B5017890
:101B200041B1012901D002292FD14068BDE83840D8
:101B3000FBF7D2B8164C154D20782844FBF75EF918
:101B40002078401CC0B22918207011F8011C0A2905
:101B500004D00D2902D0A188884216D3012812D9B9
:101B60002078ADF800000A4863886A4607490C30BF
:101B7000FBF79EFF082806D01328F1D0052802D0D5
:101B800008B1FBF7A9F80020207038BD5C270020C1
:101B9000142600207CB50178254DA1B301290BD076
:101BA00002291DD18DF80010C068691C0190012226
:101BB000C81DFDF729FE30E0017A59B1406801786F
:101BC0001C48FBF7AFF81B4C012650B18DF80060A4
:101BD00001900DE016490122491CC81DFDF714FEB5
:101BE0007CBDA068E168814205D000208DF800002E
:101BF000696868468847A068E168081AA188884231
:101C0000E8D9AE707CBDFFE70A4809491030FBF700
:101C10006EF830B103208DF8000069686846884787
:101C2000F0E70349012201F10800FDF7FDFDE9E7B6
:101C3000C4260020202E00201FB50A4601788DF80A
:101C4000001041680191017A8DF80810C068039076
:101C5000044850F82210083850F82220684690476F
:101C60001FBD00006C2600202DE9FF470C460546ED
:101C70004FF40071FEF72BFE01274FF40178002688
:101C800018B34FF4927949462846FEF715FEE0B1A5
:101C900049462846FEF715FEC5F8088394F8290042
:101CA00000B96F6002208DF80000D5F88004C5F8F7
:101CB00080040390A0690290E0680190A661E6614B
:101CC000D4E900126846904728E004212846FEF730
:101CD000FEFD18B34FF484712846FEF7EDFDE8B120
:101CE00021462846FFF78EFC616AA069884215D11B
:101CF000E06938B1E268616AA0612069E661666204
:101D0000E06008E094F8290000B96F60C5F8088326
:101D1000A661E268616A2046FFF78DFC4FF48E7879
:101D200041462846FEF7C8FD80B16069216A8142BC
:101D300002D294F8280028B341462846FEF7C1FD98
:101D4000606918B161692046FFF7CEFE4FF4A278B2
:101D500041462846FEF7B0FD002818D041462846E7
:101D6000FEF7AFFD94F8290000B12F60A0690028AC
:101D70000DD0A661E268616A04B02046BDE8F04774
:101D8000FFF759BC21462846FFF79EFEDEE7BDE877
:101D9000FF8700001FB50A4601788DF800104168E2
:101DA0000191017A8DF80810C0680390044850F83A
:101DB0002210083850F82220684690471FBD0000C6
:101DC0006C2600202DE9FF410C464FF49277054622
:101DD0003946FEF782FD0026B8B139462846FEF79F
:101DE00081FD02208DF80000D5F88004C5F880043C
:101DF0000390D5F83C050290E0680190A661E66189
:101E0000D4E900126846904723E04FF488773946BA
:101E10002846FEF762FDE0B139462846FEF762FD2E
:101E2000D5F83C15A069884213D1E06960B1E26839
:101E3000D5F8000220F02000C5F80002E069A0619A
:101E40002069E661E06001E0A661E2682046FFF7F4
:101E5000FDFB4FF4A27739462846FEF73EFD68B1F8
:101E600039462846FEF73EFDA06938B1A661E66115
:101E7000D5F83C152046E268FFF7E8FB4FF4907672
:101E800031462846FEF729FD60B131462846FEF767
:101E900029FD0120E860606920B1D5F84C15204685
:101EA000FFF72FFE4FF4AC7631462846FEF715FDBE
:101EB00000280ED031462846FEF714FD6069002840
:101EC00007D0D5F84C1504B02046BDE8F041FFF727
:101ED00018BEBDE8FF810870000A487002207047F4
:101EE0002DE9F05F8346DDE90A4A994690460D46A2
:101EF0000846012703E000BFB0FBF8F07F1C404517
:101F0000FAD2B94500D94F465FEACA7012D18CB1F6
:101F10005FEA8A7002D5B9F1000F01D0202607E0F0
:101F2000302605E031465846641EFCF785F90CB1B1
:101F3000A742F7D35FF00106B9F1010F02D9A9F169
:101F4000010903E0B5FBF6F0404502D306FB08F6B5
:101F5000F2E7DFF83C9000BFB5FBF6F000FB16554A
:101F600019F800105846FCF767F9B6FBF8F6002E92
:101F7000F2D15FEACA7009D0002C07D0A74205D27F
:101F800020215846641EFCF757F9F5E7BDE8F09F9D
:101F900046220200F8B5054680B2FCF739FE04007F
:101FA00013D0154E207A0027317B88420ED2A8B27A
:101FB00004F10A0175DF28B1112806D0BDE8F84008
:101FC000FFF7B6BB207A401C2072F8BD2772307C28
:101FD00038B1A8B23B2176DF18B1082801D0FFF74D
:101FE000A7FB71690029F0D08DF80070ADF80250A0
:101FF00068468847F8BD00000C2C0020417939B1B3
:1020000090F8F21021B990F8F40008B1012070475F
:102010000020704730B40446007A00280AD0608857
:10202000002166DF28B1112802D0616830BC084762
:102030000120207230BC704770B50C460546FCF795
:102040001DF9002807D04268002A04D021462846FE
:10205000BDE87040104770BD2DE9FC411646DDE932
:102060000854CDE900541F468046022200F00CF8C7
:10207000002807D1CDE900543B46102231464046A6
:1020800000F002F8BDE8FC812DE9FC5F0026DDE9E7
:102090000C4B994692468E4680462788354630E05E
:1020A000D8F80400002200EB850069460068019022
:1020B00001A864DF002830D19DF8000050451FD1F1
:1020C0000EB1002100E00221228808441118594570
:1020D00022D846B9521C90B2208009F800E020882E
:1020E000401C20800126218801A801EB09026946D5
:1020F00064DF002811D120889DF80010084420805A
:102100006D1CB8F80000A842CADC56B12088C01B7C
:10211000401E80B2FF2802D90C20BDE8FC9F09F8C0
:1021200007000020F9E7000010B504281DD209B10E
:10213000032400E00024FBF795FD202802D24FF095
:10214000A04102E00A4900F01F0001EB8000D0F836
:10215000001721F44031C0F80017D0F8001741EA09
:102160000441C0F80017002010BD062010BD00007B
:1021700000030050080000000600000005000000F9
:10218000070000000000000000E0D7010D0E0F1056
:102190000B0C1819682B0020882B0020B82B00206E
:1021A0000B00030001DE01000C00030001DE010052
:1021B0001800030001DE01001900030001DE010028
:1021C000770A000000000000770A0000000000000D
:1021D0007ADA0000000000009ECADC240EE5A9E0C7
:1021E00093F3A3B50000406E0000005000030050C0
:1021F000B50B0200490E020003000000782D0020FC
:10220000B82D00200100060000000000C0260020BC
:10221000F5E40100FFFFFFFFFFFFFFFFFFFFFFFFF0
:10222000FFFFFFFF00000000000000000000D601DB
:102230000601000000000000000000000000000097
:102240000338FDD8704730313233343536373839BA
:1022500041424344454600000000000000000000E9
:10226000000000000000000000000000000000006E
:10227000582202007022020004000000556E6B6EAE
:102280006F776E206572726F7220636F64650000F5
:10229000000000002C29020001000000D8270200E5
:1022A00002000000CC250200030000004C280200C0
:1022B00004000000A02802000500000080270200A2
:1022C000060000001C27020007000000882802000A
:1022D000080000009427020009000000F82702000F
:1022E0000A000000142902000B000000B4250200BF
:1022F0000C000000AC2702000D0000007C29020049
:102300000E000000782802000F000000B428020030
:1023100010000000E82802001100000090290200CF
:1023200012000000642902001300000000290200CE
:1023300080000000342702008100000070260200A7
:1023400082000000302602008300000010260200F8
:10235000840000004C26020085000000582702007F
:10236000860000006028020090000000FC260200A9
:1023700091000000F025020092000000C02702003A
:1023800000820000C8280200018200001428020018
:102390000282000030280200008400008C26020027
:1023A000018400003829020002840000D4260200C3
:1023B00003840000B026020021FD01001FFD010082
:1023C00019FD0100000000000000000000000000F6
:1023D0000338FDD870470000582F00207F00000010
:1023E000D82F0020000000000000000000000000C6
:1023F0000000000001000007E4230200F4230200B3
:10240000080000001C2402002C2402000800000028
:102410002C2402003C240200080000009C2D020035
:10242000A42D020000000000000000008C2D02001E
:102430009C2D02000000000000000000442D02005E
:102440004C2D02004C2D02006C2D02006C2D020060
:102450007C2D02007C2D0200842D02000C26002021
:102460003C2402005C24020008000000842D0200CD
:102470008C2D020000000000000000006C2402000F
:102480007C240200080000000040404040404040E2
:102490004040414141414140404040404040404037
:1024A00040404040404040404005020202020202DB
:1024B000020202020202020202202020202020202A
:1024C000202020020202020202029090909090903E
:1024D00010101010101010101010101010101010FC
:1024E0001010101002020202020288888888888870
:1024F000080808080808080808080808080808085C
:1025000008080808020202024000000089240200B4
:1025100073645F626C655F6761705F646174615F63
:102520006C656E6774685F757064617465282920D6
:10253000287265717565737429206F6E20636F6EE4
:102540006E656374696F6E203078257820726574CB
:1025500075726E65642025732E0000005468652036
:1025600072657175657374656420636F6D62696E01
:102570006174696F6E206F6620545820616E64200C
:102580005258207061636B6574206C656E67746867
:102590007320697320746F6F206C6F6E672062798F
:1025A000202575206D6963726F7365636F6E647348
:1025B0002E0000004E52465F4552524F525F494E28
:1025C00056414C49445F4441544100004E52465FDD
:1025D0004552524F525F534F465444455649434526
:1025E0005F4E4F545F454E41424C45440000000051
:1025F0004E52465F4552524F525F464541545552E6
:10260000455F4E4F545F454E41424C4544000000EB
:102610004E52465F4552524F525F4D555445585F9A
:10262000554E4C4F434B5F4641494C4544000000DA
:102630004E52465F4552524F525F4D555445585F7A
:102640004C4F434B5F4641494C4544004E52465F18
:102650004552524F525F4D555445585F434F4E447B
:102660005F494E49545F4641494C454400000000D3
:102670004E52465F4552524F525F4D555445585F3A
:10268000494E49545F4641494C4544004E52465FCD
:102690004552524F525F424C455F495053505F5232
:1026A000585F504B545F5452554E4341544544007B
:1026B0004E52465F4552524F525F424C455F495021
:1026C00053505F504545525F52454A454354454437
:1026D000000000004E52465F4552524F525F424C3E
:1026E000455F495053505F4C494E4B5F44495343FB
:1026F0004F4E4E4543544544000000004E52465F45
:102700004552524F525F4150495F4E4F545F494DC1
:10271000504C454D454E5445440000004E52465FD6
:102720004552524F525F4E4F545F535550504F5287
:10273000544544004E52465F4552524F525F4D4FF2
:1027400044554C455F4E4F545F494E495449414CA6
:10275000495A4544000000004E52465F4552524FD0
:10276000525F4D4F44554C455F414C524541445991
:102770005F494E495449414C495A454400000000C4
:102780004E52465F4552524F525F4E4F545F464F36
:10279000554E44004E52465F4552524F525F494E8D
:1027A00056414C49445F5354415445004E52465F94
:1027B0004552524F525F444154415F53495A45007C
:1027C0004E52465F4552524F525F494F5F50454E01
:1027D00044494E47000000004E52465F4552524F5A
:1027E000525F5356435F48414E444C45525F4D49FA
:1027F0005353494E470000004E52465F4552524FD8
:10280000525F494E56414C49445F4C454E475448EF
:10281000000000004E52465F4552524F525F4452F4
:10282000565F5457495F4552525F414E41434B00FA
:102830004E52465F4552524F525F4452565F545774
:10284000495F4552525F444E41434B004E52465FF2
:102850004552524F525F494E5445524E414C000032
:102860004E52465F4552524F525F53544F5241476A
:10287000455F46554C4C00004E52465F4552524F04
:10288000525F4E554C4C00004E52465F4552524FDF
:10289000525F494E56414C49445F504152414D00B0
:1028A0004E52465F4552524F525F4E4F5F4D454D1F
:1028B000000000004E52465F4552524F525F464F55
:1028C0005242494444454E004E52465F4552524F93
:1028D000525F4452565F5457495F4552525F4F56BC
:1028E000455252554E0000004E52465F4552524FDF
:1028F000525F494E56414C49445F414444520000A6
:102900004E52465F4552524F525F5245534F5552B9
:10291000434553004E52465F4552524F525F494E17
:1029200056414C49445F464C414753004E52465F26
:1029300053554343455353004E52465F4552524F01
:10294000525F424C455F495053505F4348414E4EA1
:10295000454C5F414C52454144595F455849535499
:10296000530000004E52465F4552524F525F434F54
:102970004E4E5F434F554E54000000004E52465F8E
:102980004552524F525F54494D454F555400000037
:102990004E52465F4552524F525F425553590000C6
:1029A0007761726E696E670064656275670000002A
:1029B0001B5B313B33306D001B5B306D0000000052
:1029C0001B5B313B33316D001B5B313B33326D00A0
:1029D0001B5B313B33336D001B5B313B33346D008C
:1029E0001B5B313B33356D001B5B313B33366D0078
:1029F0001B5B313B33376D00696E666F0000000072
:102A00006572726F7200000073645F626C655F6371
:102A100066675F73657428292072657475726E65C8
:102A200064202573207768656E20617474656D700D
:102A300074696E6720746F2073657420424C455F23
:102A400047415454535F4346475F534552564943A9
:102A5000455F4348414E4745442E000073645F6222
:102A60006C655F6366675F7365742829207265749F
:102A700075726E6564202573207768656E206174B9
:102A800074656D7074696E6720746F20736574204F
:102A9000424C455F434F4D4D4F4E5F4346475F5657
:102AA000535F555549442E0073645F626C655F63E4
:102AB00066675F73657428292072657475726E6528
:102AC00064202573207768656E20617474656D706D
:102AD00074696E6720746F2073657420424C455F83
:102AE00047415454535F4346475F415454525F54E7
:102AF00041425F53495A452E0000000073645F62F3
:102B00006C655F6366675F736574282920726574FE
:102B100075726E6564202573207768656E20617418
:102B200074656D7074696E6720746F2073657420AE
:102B3000424C455F434F4E4E5F4346475F474150CF
:102B40002E00000073645F626C655F6366675F738D
:102B5000657428292072657475726E65642025730A
:102B6000207768656E20617474656D7074696E6736
:102B700020746F2073657420424C455F4741505F5D
:102B80004346475F524F4C455F434F554E542E00CE
:102B900073645F626C655F6366675F736574282941
:102BA0002072657475726E65642025732077686580
:102BB0006E20617474656D7074696E6720746F2027
:102BC00073657420424C455F434F4E4E5F4346470A
:102BD0005F474154542E00006E72665F626C655F01
:102BE0006761747400000000626C655F6E7573004D
:102BF000636C6F636B000000434C4F434B0000005D
:102C00004750494F544500005052530055415254CB
:102C10000000000055415254450000006170705F93
:102C2000627574746F6E00006170705F74696D65B9
:102C3000720000007077725F6D676D7400000000B5
:102C4000736F72746C697374000000007274745F47
:102C50006C6F675F6261636B656E640061707000CA
:102C60006E72665F736468006E72665F7364685F3D
:102C7000626C65006E72665F7364685F736F630099
:102C8000A42D02000C2600205001000018C50100F0
:102C9000FC2D02005C270020442F000014CB010013
:102CA000B8230200000000004C2C0200FC2600208B
:102CB000D82B020000000303E82B020000000000F4
:102CC000F02B020000000000F82B020000000000C2
:102CD000002C020000000000082C02000000000090
:102CE0000C2C020000000000142C02000000000068
:102CF0001C2C020000000000282C02000000000034
:102D0000342C020000000000402C020000000000F3
:102D10005C2C020000000303602C0200000003038F
:102D2000682C020000000303742C0200000003035F
:102D30000C270020042700200C270020982E0020BC
:102D40001800000099D9010000000000D9F401002A
:102D5000502A0020B9D30100702A00202DD801008C
:102D6000000000009DD8010000000000EDDB010024
:102D70002026002063F60100642A002051D70100BC
:102D80000000000071180200000000008906020027
:102D9000000000008D070200000000008516020000
:102DA00000000000133C26132001320414FFFF141E
:102DB00012010217021A0C2801713D100140119CEA
:102DC000011F1220BA4008011F0220FF132A02141B
:102DD000A029021AF8041AA8041AB8041AB0041A8E
:102DE000C0041AC8041AD0041AD8041AE0041AE855
:0C2DF000041AF00451040090D00300000D
:040000050001C20133
:00000001FF
