:020000040000FA
:10000000E85B0020490300005103000031020000BA
:1000100055030000570300005903000000000000D2
:100020000000000000000000000000005B03000072
:100030005D030000000000005F030000610300009A
:10004000FD07000063030000C10B00006303000014
:1000500063030000630300009104000063030000D9
:1000600063030000630300006303000063030000F8
:10007000630300000D080000630300006303000039
:100080006303000035080000630300006303000001
:1000900063030000630300006303000063030000C8
:1000A00063030000630300006303000063030000B8
:1000B0006303000063030000000000000000000074
:1000C0006303000063030000630300006303000098
:1000D00063030000630300006303000000000000EE
:1000E0000000000000000000000000000000000010
:1000F0000000000000000000000000000000000000
:1001000000000000000000000000000000000000EF
:1001100000000000000000000000000000000000DF
:1001200000000000000000000000000000000000CF
:1001300000000000000000000000000000000000BF
:1001400000000000000000000000000000000000AF
:10015000000000000000000000000000000000009F
:10016000000000000000000000000000000000008F
:10017000000000000000000000000000000000007F
:10018000000000000000000000000000000000006F
:10019000000000000000000000000000000000005F
:1001A000000000000000000000000000000000004F
:1001B000000000000000000000000000000000003F
:1001C000000000000000000000000000000000002F
:1001D000000000000000000000000000000000001F
:1001E000000000000000000000000000000000000F
:1001F00000000000000000000000000000000000FF
:10020000DFF80CD000F006F900480047B1200000EC
:10021000E85B002000B583B002900091019244F2A7
:10022000010071466A4600F0F9FD03B000BD000010
:10023000094B1EF0040F1CBFEFF309801847EFF3C2
:1002400008800649064A884201D8904202D88D4665
:100250004FF0000018470000FD050000E85B00209B
:10026000E83B002030B4044654E8000F0D4644E853
:100270000053002BF8D1156030BC704730B40446F1
:1002800054E8000F40EA010544E80053002BF7D181
:10029000156030BC704730B4044654E8000F00EAE3
:1002A000010544E80053002BF7D1156030BC7047BE
:1002B00030B4044654E8000F80EA010544E80053D6
:1002C000002BF7D1156030BC704730B4044654E8B9
:1002D000000F00EB010544E80053002BF7D1156037
:1002E00030BC704730B4044654E8000FA0EB010561
:1002F00044E80053002BF7D1156030BC704770B450
:1003000004464FF0000054E8006F0D68AE4207BF8E
:1003100044E80023012044E800630E60002B1CBF6A
:100320000020F0E770BC704730B4044654E8000F7A
:1003300088422CBF451A054644E80053002BF5D1EE
:10034000156030BC704700000648804706480047EB
:10035000FEE7FEE7FEE7FEE7FEE7FEE7FEE7FEE775
:10036000FEE7FEE7A5080000010200000048704714
:100370008C8D000040EA01039B0703D009E008C907
:10038000121F08C0042AFAD203E011F8013B00F85A
:10039000013B521EF9D27047D2B201E000F8012BA6
:1003A000491EFBD270470022F6E710B513460A46F5
:1003B00004461946FFF7F0FF204610BD421C10F816
:1003C000011B0029FBD1801A704730B5044600207C
:1003D000034600E05B1C934203D2E05CCD5C401B13
:1003E000F8D030BD034611F8012B00F8012B002A8C
:1003F000F9D11846704710B54843044601F0B2FEE3
:10040000002805D00021002C02D0641E0155FAE717
:1004100010BD0000064C074D06E0E06840F0010307
:1004200094E8070098471034AC42F6D3FFF7ECFE8F
:10043000689F0000889F000070B58C1810F8015B61
:1004400015F0070301D110F8013B2A1106D110F86D
:10045000012B03E010F8016B01F8016B5B1EF9D171
:100460002B0705D40023521E0DD401F8013BFAE7F7
:1004700010F8013BCB1A921C03E013F8015B01F862
:10048000015B521EF9D5A142D8D3002070BD0000F7
:100490002DE9F04700268AB0DFF85891B0464FF4B6
:1004A0008075012437460596284603F089FF38B148
:1004B000D9F80403204203D0284603F077FF2643EF
:1004C0002D1D64007F1CADB2082FEDD34FF4BE7418
:1004D000204603F075FF48B1204603F067FF46F061
:1004E000004605AA0121002003F02AFF424D16F024
:1004F000FF0F15D00127002437420DD009EB8401EE
:10050000D1F81005D1F81015C0F3042055F82420B7
:10051000C1F3014102B190477F00641C082CEBD36A
:10052000002E63DA4FF0FF30CDF8108058E0281924
:1005300010F8507F90F9000027F0C008401C3FD011
:1005400008A9404603F026F930B34FEA9719404610
:1005500001F048F855F820701FB1B9F1030F03D02E
:1005600006E0B9F1030F2BD104A9404603F01AF9B4
:1005700002A8CDF8088003F05DFE029900EB81002F
:10058000D0F8000705A9C0F3014A404603F002F97C
:1005900018B1BAF1020F03D012E0BAF1030F0FD174
:1005A000B9F1030F08D1BAF1020F1DD00221404664
:1005B00003F028FE761CF6B217B149464046B8470C
:1005C000641C042CB3D3002E10D06A4601210020F5
:1005D00003F0B6FE05990098884207D0059004986C
:1005E000002634460890A2E70321E0E70AB0BDE800
:1005F000F087000000600040980300201CB5814691
:1006000004F0CEF903F0F2FF0028FBD130485FEA96
:10061000090507682F4830494FF00106A0EB01009B
:100620004FEAD00006EB004417D020462BA1AA6960
:1006300004F0F8F8D5E90201CDE90001D5E900237D
:1006400020462CA104F006F9E8690090D5E90423BE
:10065000204636A104F0F5F803E020463DA104F061
:10066000DDF81B48001D0068800703D52046464979
:1006700004F0D4F8DFF81481002500BF06FA05F075
:10068000384206D058F825201AB1204640A104F07F
:10069000C9F86D1C1A2DF1D3380606D50C480C305C
:1006A000026820463DA104F0BDF8380406D508488C
:1006B00010300268204641A104F0B4F80448C83064
:1006C0000068C00700D000BE484600F085F8000072
:1006D00028ED00E008A00000B89F00004841524407
:1006E000204641554C5420617420307825303858CC
:1006F00000000000202052303A2020307825303889
:1007000058202052313A2020307825303858202087
:1007100052323A2020307825303858202052333A4F
:100720002020307825303858000000002020523139
:10073000323A2030782530385820204C523A202048
:1007400030782530385820205053523A20307825C0
:1007500030385800537461636B2076696F6C617434
:10076000696F6E3A20737461636B20706F696E7489
:100770006572206F75747369646520737461636B4F
:1007800020617265612E000020940000F0000020BE
:1007900043617573653A2025732E00004D656D4DDC
:1007A000616E616765204661756C74204164647296
:1007B0006573733A203078253038580042757320BD
:1007C0004661756C7420416464726573733A2030BD
:1007D0007825303858000000BFF34F8F0548016876
:1007E000054A01F4E06111430160BFF34F8F00BF80
:1007F000FDE700000CED00E00400FA0510B504F080
:100800004BFDBDE8104004F0B3BC0000064882B0C8
:100810000021016000680090044800680449C0B2EB
:10082000496802B00847000000D1004008D50040E8
:10083000D800002002490248091F096800680847DB
:10084000E800002000F0EAB970B50E46144900EB4C
:10085000400001EBC0051446E86A183520B10128B4
:100860000FD0022805D113E0284600F00BFAA04271
:1008700001D2002411E022463146284600F03AFA1F
:100880000BE0284600F0FEF9A042F4D20446F2E75D
:100890003146284600F001FA0446204670BD0000AB
:1008A00060130020F0B5B5480023021D0178101D2B
:1008B00001254FF0805406290BD11678360708D150
:1008C0000678C6F30316032E06D0042E04D0052E98
:1008D00002D0062907D00EE0B4F82463A84FC6F36F
:1008E00004263E6002E01678360704D10678C6F387
:1008F0000316032E02D0062904D00FE0A24FA14E0A
:100900007E670EE01678360708D10678C6F3031620
:10091000032E06D0042E04D0052E02D0062907D0BF
:100920000EE0D4F84462994FC6F342363E6002E0CE
:100930001678360704D10678C6F30316032E02D0C4
:10094000062906D011E0924E376827F0807737608D
:100950000EE01678360708D10678C6F30316032E84
:1009600006D0042E04D0052E02D006290AD011E0AC
:100970004FF08046C6F80C31C6F81031834E361F52
:10098000336002E01678360704D10678C6F3031602
:10099000032E02D0062905D00CE07C4F03266437D5
:1009A0003E600AE01678360704D10678C6F30316CF
:1009B000032E02D006290DD014E0764F05263E60A6
:1009C000744E78363560734E083633603F263F1DCF
:1009D0003E6002E01678360704D10678C6F30316A7
:1009E000052E02D0062957D062E06B4E36686B4F59
:1009F0003E60694E361D36683F1D3E60664E0836C5
:100A000036683F1D3E60644E0C3636683F1D3E60C2
:100A1000614E103636683F1D3E605F4E14363668B4
:100A20003F1D3E605C4E183636685C4F20373E6096
:100A3000594E1C3636683F1D3E60574E203636688C
:100A40003F1D3E60544E243636683F1D3E60524E78
:100A5000283636683F1D3E604F4E2C3636683F1DA7
:100A60003E604D4E303636684C4F40373E604A4E01
:100A7000343636683F1D3E60474E383636683F1D77
:100A80003E60454E3C3636683F1D3E60424E403625
:100A900036683F1D3E6002E01678360708D10678BA
:100AA000C6F30316032E06D0042E04D0052E02D062
:100AB000062907D019E0D4F85812394A01F04F013D
:100AC000116002E0117809070FD10078C0F303101C
:100AD000032803D0042801D0052806D13148016835
:100AE000C90702D06FF001010160D4F83001062877
:100AF00008D1D4F83401062804D12B48016841F408
:100B00008061016022487438016841F4700101601D
:100B1000BFF34F8FBFF36F8F4FF01021D1F800025A
:100B2000002803DBD1F80402002822DA1F4A1560EE
:100B30001F480468002CFCD01524C1F80042056849
:100B4000002DFCD0C1F8044201680029FCD01360DC
:100B500001680029FCD0BFF34F8F0D48F0380168C1
:100B6000144A01F4E06111430160BFF34F8F00BFED
:100B7000FDE7124910480860F0BD0000E00F00F0EA
:100B8000403501400DF0ADBA00C007403C050040C3
:100B9000FCED00E0105600400404001020C50040A9
:100BA000E40E0040000400403C17004004E5014012
:100BB00000E401400400FA050090D003E4010020A5
:100BC00010B5054C206818B904A12B2000F086FA56
:100BD0002068BDE810400047D00000202E2E5C2E7B
:100BE0002E5C2E2E5C2E2E5C2E2E5C2E2E5C2E2E3F
:100BF0005C2E2E5C6D6F64756C65735C6E726678CE
:100C00005C647269766572735C7372635C70727334
:100C10005C6E7266785F7072732E630010B5124C52
:100C200002202061606111A0A06104F17800E06100
:100C30004FF4006020620020A06260620BA1A164FA
:100C4000E06204F67801E1641021A065C4E91410A3
:100C5000E06509A1E01DFFF7C5FB08A12046FFF7ED
:100C6000C1FB2020A07110BD601300205465726D7F
:100C7000696E616C000000005254540053454747B0
:100C8000455200000269C1688A4203D88068401A50
:100C9000104400E0501A401E70472DE9F047C46828
:100CA0001746894606464FF000083069A04201D930
:100CB000051B02E0B168201A0D1AB0686D1E001BFA
:100CC000A84200D80546BD4200D33D4670682A467A
:100CD00020444946FFF74EFBB0687F1B2C44A844D4
:100CE000A944A04200D10024F460002FDDD1404689
:100CF000BDE8F0872DE9F04104468846D4E90207B3
:100D0000C51BE168606816460844B54206D94146ED
:100D1000FFF730FBB819E060BDE8F0812A46414694
:100D2000FFF728FB761B08EB050132466068FFF7EA
:100D300021FBE660F0E702E008C8121F08C1002AA4
:100D4000FAD170477047002001E001C1121F002A4C
:100D5000FBD1704730B58B1A8021815401210024CA
:100D600003E05518491C4455C9B29942F9D330BD26
:100D700070B58C1A0123002505E0D61806445B1CCB
:100D800006F8015CDBB2A342F7D3084400F8014C3B
:100D900070BD002301E08354521C8A42FBD370478C
:100DA0007CB5DDE90645CDE9004501F011FA7CBDD1
:100DB000FEB508AF97E870008DE8700001F053FAB7
:100DC000FEBDFEB508AF97E870008DE8700001F039
:100DD000B7FAFEBD01F0E5BA074A10B512684FF444
:100DE0008C7101209047040003D001F0BAFE204628
:100DF00010BD002010BD0000DC01002010B504462D
:100E000001F0A4FE024920460968BDE810400847E9
:100E1000E001002001F0AABE01F00EBFFEB51446AD
:100E20000E46074672B603F0BBFD00BF03F0DEFBC3
:100E30000028FBD11D4A1E496FF480403B18A2EBED
:100E400001014FF001004FEAD10100EB01451AD03A
:100E5000012B11D02846324616A103F0E3FC1B48B3
:100E60000068C00700D000BE224603B031463846B5
:100E7000BDE8F04000F058B82388284614A1626805
:100E800003F0D7FCEBE7A06804F0E0F80346D4E9F0
:100E90000001CDE900100296284614A1A26803F0D3
:100EA000E3FC28461BA103F0B9FCD8E720A0000012
:100EB000B89F0000554E4B4E4F574E204641554C63
:100EC000542061742030782530385800F0ED00E06F
:100ED000415353455254494F4E204641494C454495
:100EE0002061742025733A25750000004552524F49
:100EF00052202575205B25735D2061742025733A8F
:100F000025750D0A50432061743A20307825303819
:100F100078000000456E64206F66206572726F7203
:100F2000207265706F72740008B501238DF800306F
:100F30009DF80030144B186059609A606FF480413E
:100F4000401807D001280FD1DA60D868008898616E
:100F5000D86807E01A6118698068586118690068E4
:100F6000986118694068D861186858689868D868A6
:100F7000186958699869D86972B600BF9DF8000071
:100F80000028FBD162B608BD4404002010B504F06F
:100F9000B3FE012803D004491D2000F09FF8BDE8EE
:100FA000104000F013B800000093000010B504F0EA
:100FB000A3FE012803D004492B2000F08FF8BDE8E0
:100FC000104000F00BB800000093000072B6024819
:100FD0000168491C01607047E0000020034908686F
:100FE000401E086000D162B670470000E00000209B
:100FF00070B5054608680C46411C04D003F08CF916
:10100000206803F0EBF86068411C02D0002103F077
:10101000D3F82968A069C1F82405607D227D29687C
:101020001043C1F86C05D4E900122868C0F81425F3
:10103000C0F80C15207D012814D1A068411C02D0F5
:10104000002103F0B9F8E068411C04D003F064F912
:10105000E06803F0C3F8D4E902122868C0F8082554
:10106000C0F8101570BD70B5054608680C46411CE7
:1010700004D003F05BF9206803F0BAF86068411C03
:1010800002D0002103F0A1F82968A069C1F8240565
:10109000607D217D2A680843C2F86C05D4E90012FE
:1010A0002868C0F80C15C0F81425207D012814D13B
:1010B000A068411C02D0002103F087F8E068411CC1
:1010C00004D003F033F9E06803F092F8D4E9021297
:1010D0002868C0F80825C0F8101570BD1CB56A4610
:1010E000ADF800000191002144F20200FFF796FEE6
:1010F0001CBD70B5049C2568102D02D248F2145016
:1011000070BD150702D048F2115070BD00F009F80B
:1011100018B1BDE8704004F047BE102020600020E8
:1011200070BD2DE9FC4789460021984615460C46BE
:1011300000F1090600F11C070CE009EB0401CDE900
:101140000018334610220121384601F041F8010011
:1011500003D11034AC42F0D30846BDE8FC872DE93A
:10116000F0470C464168002507464A884FF48079CD
:10117000802A07D0C02A05D04A4503D048F218502B
:10118000BDE8F0870B7800F1080200F11C064FF073
:10119000000848F2175107F10C00092B42D2DFE892
:1011A00003F005050505090911111900012C0BD0E3
:1011B00094B909E0012C00D074B987F8088001F0D7
:1011C000D0FC31E0022C07D111211046FFF7EBF8DB
:1011D0003046F4E7022C01D00846D1E7054601F07D
:1011E00025FF78684088802805D0C02805D048456C
:1011F00010D1042002E0022000E0032001F0EEFE06
:1012000001000AD0284601F06DFF48B104F0CCFD82
:10121000054609E048F2025506E048F2165503E09B
:10122000454601E048F203553C722846A8E70B46C4
:1012300010B500F1090110221846FFF79BF80020B5
:1012400010BD10B510220930FFF794F8002010BD32
:1012500070B54268034600F11C0415780C30092D66
:1012600021D2DFE805F0050516160E0E1616190038
:10127000187A01280DD052884FEA040001F076FC5C
:101280000DE01B7A5288012BF8D100BF01F0D4FC8D
:1012900005E052882046F9E7528801F0E9FDBDE8F3
:1012A000704004F081BD48F2035070BD10B5416834
:1012B0000A7800F11C010C30092A0FD2DFE802F095
:1012C00008080808050508080A0001F03FFC03E0CB
:1012D0000846FAE701F05EFE002010BD48F2035018
:1012E00010BD2DE9F0431546426889B000F11C0499
:1012F000167800F10902092E4AD2DFE806F005054A
:101300001A0E23233B3B3F00CDE90013017A13461D
:101310002A46204600F05CFF34E00020079003A836
:101320008DE80B00134607AA2946204601F008F86D
:1013300028E0CDE90013017A13462A46204600F042
:10134000CEFF1FE00746002688461C4628070CD023
:101350006FF0210017E0A31908EB0602397A48461E
:1013600001F01FF878B9103601E007F10C09AE4220
:10137000F1D312E02A46FFF7D4FE03E02A460C30F0
:1013800001F0A2FD48B109B0BDE8F04304F00CBD86
:1013900048F2025009B0BDE8F0830020FAE72DE9D9
:1013A000F04FADF5477D14460E468246B2F5C07F3C
:1013B00005D96FF037000DF5477DBDE8F08F4FF48C
:1013C000D0716846FEF7EFFF68A801F0CAFB200E57
:1013D0008DF81000200C8DF81100200A8DF81200F5
:1013E00030208DF8170006AD8DF8134022463146A7
:1013F0002846FEF7BFFF8020285504F1190500207C
:10140000BEA90854401C2028FBDB4FF4807B5A46C1
:1014100068A801F011FC0026B1466F46CDF8B892DD
:10142000CDF8BC92CDF8C0922C460DF52E78CDF8B3
:10143000C49215E0002041463B5C0A5C5A400A54C5
:10144000401C1028F8DB1037102C01D3102000E0CE
:101450002046241AAEAB1A46012168A800F0A1FF6D
:10146000002CE7D1B2A830441022AEA9FEF782FFCB
:101470009DF803001036401C8DF80300302ECCDBA5
:101480005A46B2A968A801F0D7FBBAAD56462B461A
:101490001A46012168A800F084FF10222946304630
:1014A000FEF768FF10341036302CF0DB68A801F02E
:1014B0004DFB00207FE7000041094A4200EB42104B
:1014C00010B5044A0124844052F82130234342F8E5
:1014D000213010BD5C0100202DE9F0470546861C37
:1014E00090460F464FF001090020FFF74FFD1B4CBF
:1014F00020683860D4E90001401AA16804F21C4752
:10150000081A0EE00121384602F09AF800F07AFD40
:101510000146384602F094F8D4E90001401AA16867
:10152000081A401C8642EDD8B8F1000F03D0052000
:1015300065F3891002E0062065F39F50A2682168D8
:10154000114004EB8101C860206830442060002015
:10155000FFF72CFD4846BDE8F08700003C0F002057
:1015600070B50D4604460A2902D10D21FFF7F8FF98
:10157000A0682268411CA1601554D4E90101814290
:1015800004D32046BDE8704002F056BC70BD000098
:10159000034803C8814201D10120704700207047F1
:1015A0003C0F002013460A46022101F03CBC00001B
:1015B000054A10B54421126801209047040001D06B
:1015C00001F02EFC204610BDDC01002010B50446C1
:1015D00001F01CFC024920460968BDE8104008479C
:1015E000E00100200249084490F9300070470000F3
:1015F0009803002070B5084C050009D0103421680C
:10160000002907D008682060496828468847F6E71F
:101610000834F4E770BD000034030020054A0121BE
:1016200020B1012805D19170FFF7E4BF517000206F
:10163000FAE770473403002070B5002404E00D5D24
:10164000165D75400555641C9C42F8D370BD0000C2
:1016500030B100680549884205D048F20250704711
:1016600048F2015070470020704700006341455325
:1016700002681368526831B19A4202D38068801AB6
:1016800007E0981A70479A4201D3D01A70478068D1
:10169000C01A401C7047000070B5D8B000265396A1
:1016A0005496559633485696FEF788FE04460246F1
:1016B000304931A004F07CFC22462E4931A000F0D4
:1016C00009FB0222344901A802F0B0F805003348B2
:1016D0003349A0EB01004FEAD0004FF0050101EBC8
:1016E000004401D0284624E0224901A8203902F014
:1016F000CFF805001DD14F96509651964FA901A8DD
:10170000529602F0AFF8050013D11A48FEF756FEC4
:1017100002461020579057A8009053AB154901A8D6
:1017200002F05AF8050004D101A802F0C3F8050040
:1017300009D002F0D7F8034620462A4619A103F043
:1017400078F858B070BD579853A9C2B21BA000F0EA
:10175000C1FA08491022643153A8FEF736FE00286A
:10176000204604D01BA100BF03F058F8E9E721A1EF
:10177000FAE7000020000020506C61696E2074655B
:1017800078740000506C61696E207465787420284C
:1017900068657829000000002C65000020A000008A
:1017A000B89F00000D0A4572726F72203D2030789C
:1017B00025780D0A25730D0A0000000043616C6353
:1017C000756C61746564204D4143202868657829F3
:1017D00000000000414553204342435F4D414320F8
:1017E0006578616D706C65206661696C6564212146
:1017F000210D0A00414553204342435F4D414320A0
:101800006578616D706C6520657865637574656475
:10181000207375636365737366756C6C792E0D0A3E
:10182000000000002DE9F0418CB00E4604466F46E2
:1018300030213846FEF7B7FD002504F120081020BE
:10184000211811F8012D521C12F0FF020A7002D16A
:10185000401E0028F4DC3B4622460121404600F0B1
:10186000A0FD10351037302DE9DB00206946335CD0
:101870000A5C5A400A54401C3028F8DB4FF480724E
:10188000404601F0D9F908AD95E80F0084E80F0053
:101890000CB00020BDE8F08110B50021024801F035
:1018A000DAFE80F3100010BD5813002010B5084672
:1018B000114602F077F9002010BD000010B5002895
:1018C00021D0114B0022001F196803E0814203D888
:1018D0000A4649680029F9D152B11368841A9C421A
:1018E00004D1006818441060104602E0506000E027
:1018F000186039B102680B1A934203D10B681A447D
:1019000002604968416010BDE801002013460A46A4
:10191000022101F060BD0000064A10B512684FF4C4
:10192000C87101209047040001D001F050FD20460D
:1019300010BD0000DC01002010B5044601F03CFDA4
:10194000024920460968BDE810400847E001002030
:101950002DE9F04F87B004460020019002900390DB
:101960000490059001A802AB009010221946204671
:1019700001F0D4FB00286AD102989DF80F1000BA3C
:1019800020F0FF039DF80B009DF8175003430398C8
:10199000002600BA20F0FF00084304994FF0614789
:1019A00009BA21F0FF029DF813100A430599C4E912
:1019B0003266C4E9126609BA21F0FF01C4E94203A4
:1019C0002943C4E92212042501F00106A6FB076C95
:1019D0005FEA52084FEA31015B0883EA060304EB31
:1019E000C50648EAC0724FEA3000C6E93203C6E9CC
:1019F00012124FEA6505002DE6DC022304EBC30159
:101A000001F14802F1E93260D2E9009582460120F5
:101A100017E000BF04EBC00CE346DCE9327C01EBCD
:101A2000C00877408CEA0A0CC8E9007CDBE9127C2C
:101A300002EBC00887EA09078CEA050CC8E9007CBC
:101A4000401C9842E6DB5B00082BD7DD002007B086
:101A5000BDE8F08F2DE9F84F8B46C97BDFF8ECE04D
:101A600001F00F0100EBC1044FF00F0CD4E932314B
:101A7000D4E912741BF80C50BCF10F0F05F00F09DC
:101A80004FEA151A1BD01E073D0945EA047546EAC0
:101A9000141607F00F081C09CDF800803EF8383006
:101AA00000EBC9081F0444EA017487EA1117D8E95A
:101AB000323163407940D8E912746F4074401E0798
:101AC0003D0945EA047546EA141607F00F081C099B
:101AD0003EF8383000EBCA081F0444EA017487EA74
:101AE0001117D8E9323163407940D8E912746F4058
:101AF0007440BCF1010CBDD5080E1070080C50707C
:101B0000080A9070180ED17040EA01201071180C6C
:101B100040EA01405071180A40EA01609071D371A7
:101B2000200E1072200C5072200A9072380ED4725F
:101B300040EA04201073380C40EA04405073380A1D
:101B400040EA04609073D773BDE8F88F888C00007A
:101B5000F0B50D4C0246002004F11C0504F13803D9
:101B60004AB154F82060964205D353F8206055F8E6
:101B70002070BE4207D153F820608E4203D8401C2B
:101B80000728EDD30020F0BD6065000010B50146C8
:101B90000020FFF7DDFF024951F8200010BD0000D2
:101BA0006065000018B112B1002011607047014853
:101BB00070470000009FFFFFF0B5002398B192B17D
:101BC000FF240025156051B345181E4615F8017C09
:101BD00007B1012747EA06031768B34205D000BFE3
:101BE0004FF0010603E01248F0BD4FF00006A1F1EE
:101BF000010C06FB0CF647EA0607176015F8015CB6
:101C000085F0800502D14FF0010601E04FF000069B
:101C100045EA060505EA0404491ED5D10CB10120A8
:101C200000E000204FF41E4110FB01F0F0BD000069
:101C3000009FFFFF70B548B142B1431813F8013C53
:101C4000CC1A14608B4203D9012202E0104870BD07
:101C5000002223B1002313430022491E0CE001237C
:101C6000F9E7855CA24201D3012600E0002615FBBE
:101C700006F51D43EBB2521C8A42F2D30BB1012090
:101C800000E000204FF41E4110FB01F070BD000089
:101C9000009FFFFF30B5002380B17AB100241460AB
:101CA000A1B145181C4615F8015C05B1012545EAAE
:101CB00004031568A34203D0012402E0044830BDA8
:101CC00000244C4325431560491EEAD1002030BD55
:101CD000009FFFFF2DE9F0410F4680461D481E4939
:101CE0001646401AC108052000EB01401346044681
:101CF00042461AA102F09DFD02F078FC0028FBD1BB
:101D0000002516E0280709D145B120461AA102F0A6
:101D100085FD00BF02F06AFC0028FBD17A5D2046F9
:101D200016A102F07FFD00BF02F060FC0028FBD18D
:101D30006D1CB542E6D320460FA102F06FFD204690
:101D4000424610A102F06EFD02F050FC0028FBD1CB
:101D5000BDE8F08120A00000B89F00002D2D2D2DA2
:101D600020257320286C656E6774683A20257529D4
:101D7000202D2D2D2D0D0A000D0A00002530327862
:101D8000200000002D2D2D2D20257320656E642050
:101D90002D2D2D2D0D0A0D0A000000002DE9FC5FF0
:101DA0000E008346DDE90C47C6F1000098469246D6
:101DB000814600D40846012503E000BF90FBFAF0FD
:101DC0006D1C5045FADAA84500D9454624B1002ECD
:101DD00001DB780700D5641EB80702D5B8F1000F03
:101DE0000AD0F80708D13CB1A54205D220215846B7
:101DF000641EFFF7B5FBF6E7002E02DA4E462D21F2
:101E000002E0780703D52B215846FFF7A9FB07F01E
:101E1000030002280BD1B8F1000F08D13CB1A54254
:101E200005D230215846641EFFF79AFBF6E7CDE94C
:101E30000047434652463146584604F0B9FABDE8D9
:101E4000FC9F000070B50E46054600684FF48E7189
:101E500003F00BF94FF4A271286803F006F9286823
:101E60001449C0F804132868082E40F3073403D33C
:101E700011A14520FFF732F97007000E002C06DA99
:101E800004F00F0101F1E02181F8140D03E004F1E9
:101E9000E02484F800042868012140F3073000F0B2
:101EA0001F0291404009800000F1E020C0F80011BD
:101EB00070BD0000800002002E2E5C2E2E5C2E2EA7
:101EC0005C2E2E5C2E2E5C2E2E5C2E2E5C2E2E5C1E
:101ED000696E746567726174696F6E5C6E72667844
:101EE0005C6E7266785F676C75652E680000000036
:101EF00070B50E46044600684FF4887103F0C6F8CA
:101F00004FF49071206803F0C1F84FF4927120688B
:101F100003F0BCF84FF4A271206803F0B7F84FF457
:101F2000AC71206803F0B2F820681449C0F80413BB
:101F30002068082E40F3073503D311A14520FFF791
:101F4000CDF87007000E002D06DA05F00F0101F143
:101F5000E02181F8140D03E005F1E02585F8000487
:101F60002068012140F3073000F01F029140400932
:101F7000800000F1E020C0F8001170BD10034200A5
:101F80002E2E5C2E2E5C2E2E5C2E2E5C2E2E5C2E8B
:101F90002E5C2E2E5C2E2E5C696E746567726174E9
:101FA000696F6E5C6E7266785C6E7266785F676C85
:101FB00075652E6800000000024600201268530775
:101FC00013D502F00300012802D002280CD105E04D
:101FD000C2F383100B68801C184404E002230868D5
:101FE00003EB9252104408600120704702681346C8
:101FF00002E08A4204D01268002AFAD10B60016024
:10200000704700002DE9FF410026264801F015FB2E
:102010002448001F074601F010FB234C6068009025
:10202000A56800E000986946284004EB80000C3069
:10203000FFF7C2FF0028F5D101AA009901EA0503C4
:1020400004EB8303491CDB6842F82030401C0091FC
:102050000228F2D3019800F0030001281AD00228C8
:102060000ED012494FF4AC70FFF738F8384601F043
:10207000E1FA08B10098606004B03046BDE8F08134
:102080000198032101EB90500099BDF80A6001EB23
:10209000900005E00198BDF80A60C0F38310084481
:1020A0000090E3E7541300203C0F0020449D000003
:1020B0004FF48041002002F03DFC18B11AA2B32178
:1020C000FEF7A8F802F06AFA1B481C49401AC0083B
:1020D000052101EB00401AA102F0A0FB02F086FAF4
:1020E0000028FBD101F0F2FC18B10FA2BA21FEF7D3
:1020F00091F8002001F004FD01F024FC18B10AA2BF
:10210000BE21FEF787F802F0C9FC18B106A2C12172
:10211000FEF780F8FFF7C0FA02F068FA0028FBD15A
:1021200002F064FAF8E700002E2E5C2E2E5C2E2EB4
:102130005C6D61696E2E630020A00000B89F0000F6
:10214000414553204342435F4D4143206578616DD3
:10215000706C6520737461727465642E0D0A0D0ACB
:1021600000000000F0B50B30154D20F007010024F1
:10217000144A0FE003688B420BD38B4205D95E1AD9
:1021800043184768C3E9006700E04368136002C072
:1021900004E0021D10680028ECD12046002802D17E
:1021A000286808B10020F0BD064A07481060074AB9
:1021B000121A22F00702C0E9002401202860D7E7A4
:1021C000EC010020E8010020EC1B0020E83B00208F
:1021D0002DE9FF478146DDE90C641F461546884618
:1021E000100704D06FF0210004B0BDE8F087B8F10B
:1021F000000F1BD033E0102231466846FEF7BAF8D4
:10220000234632464146484600F0CBF80020215C88
:102210003A5C51402154401C1028F8DB10226946DA
:102220003846FEF7A7F81034103D1036002DE2D1E5
:1022300017E00020315C3A5C51402154401C1028CA
:10224000F8DB23461A464146484600F0AAF8102219
:1022500021463846FEF78EF81034103D1036002D1A
:10226000E7D10020C0E72DE9F0471C68DDE90976D9
:10227000DDF8208099461546824699B128E02CB9B0
:1022800043461A460121504600F08BF817F8010B1F
:1022900018F80410414006F8011B08F80400641CFB
:1022A00004F00F046D1EEAD214E02CB943461A461E
:1022B0000121504600F075F818F8040017F8011BCA
:1022C000484006F8010B08F80400641C04F00F04F1
:1022D0006D1EEAD20020C9F80040BDE8F0872DE964
:1022E000F04786B09946DDE90E5614460F46824601
:1022F000E8461FE0102249466846FEF73BF84B4689
:102300001A460121504600F04CF817B928788DF88C
:10231000100099F8000015F8011B484006F8010B61
:10232000012F01D18DF81000102208F1010148465B
:10233000FEF720F82046641EDCD206B0BDE8F08728
:102340002DE9F04F9846DDE90A7691460D46834621
:10235000DDF824A014681DE094B9534642460121DB
:10236000584600F01EF8102008EB000111F8012D6E
:10237000521C12F0FF020A7002D1401E0028F3DC4A
:1023800017F8011B1AF804004840641C06F8010BFA
:1023900004F00F046D1EDFD20020C9F80040BDE834
:1023A000F08F10B5144601291A46214603D000F0DB
:1023B00005F8002010BD00F0E5F9FAE72DE9F84F27
:1023C000CC7843680D684E6864F31F6510CB8F6846
:1023D0006C40CD7991F80FC065F31F6620CB006883
:1023E0007540CE7ADFF890E366F31F6753F8086B09
:1023F0000EF5806B7E40CF6853F8041C6CF31F67AA
:1024000079404FF0FF3707EB600A0BF58060CDE0B5
:1024100004F0FF0C53F8049B5EF82C70C6F3074CD5
:1024200089EA0709C1F3072750F82CC05BF8277029
:10243000984687EA0C0789EA0709D04F4FEA156CDE
:1024400057F82C7005F0FF0C89EA07091F685EF841
:102450002C30C1F3074C5F40C4F3072350F82CC065
:102460005BF8233083EA0C035F40C44B4FEA166CE1
:1024700053F82C305F4008F104030093D8F804C0EF
:1024800006F0FF085EF82830C4F307488CEA030C16
:10249000C5F3072350F828805BF8233083EA08034C
:1024A0008CEA030CB54B4FEA116853F828308CEADC
:1024B000030C009B1B1D0093D3F80080CBB25EF889
:1024C0002310C5F3074388EA0108C6F3072150F833
:1024D00023305BF8211009F0FF05594088EA010814
:1024E000A649230E51F82310009B88EA01085EF8E4
:1024F00025105C68CCF307454C40C8F3072150F821
:1025000025505BF8211069404C409C493D0E03F179
:10251000080651F825109D68FBB24C405EF8231068
:10252000C8F307434D40C9F3072150F823305BF847
:102530002110AAF1010A59404D4090494FEA1C630D
:1025400051F82310331D00930CF0FF034D407668C3
:102550005EF82310C9F307434E40C7F3072150F834
:1025600023305BF82110C7F3074759404E40834999
:102570004FEA186308F0FF0851F82310009B4E4003
:102580001B1D009319685EF8283050F827705940D9
:10259000CCF307235BF823307B405940774B4FEA5D
:1025A000196753F827305940009B1B1DBAF1000FE3
:1025B0003FF72EAFDFF8C0C104F0FF0880CB5CF816
:1025C00028C0C6F3074887EA0C07C1F3072C8646E4
:1025D0005BF82CC050F828009A468CEA000C87EA79
:1025E0000C0766484FEA156CD3F8008050F82C00B1
:1025F000EBB24740604806F0FF0C50F82300C1F3EF
:10260000074388EA0008C4F307205EF823305BF82C
:102610002000584088EA00085848330E50F823003C
:10262000554B88EA00095AF8040F53F82C3001F092
:10263000FF085840C5F30723C5F307455BF823C0DF
:10264000C4F307435EF825505EF823308CEA030C90
:1026500080EA0C00494B4FEA116C474953F82C3083
:1026600058400AF1040351F8281053F804CB8CEABF
:10267000010CC6F307215BF8211069408CEA010CBC
:102680003E49240E51F8241010CB8CEA010C3C4931
:1026900051FA87F52D78C0F307466C40CCF3072537
:1026A0008E5D4D5D2D0285EA06456C4001EB196596
:1026B0002D7884EA056420CB51FA89F63678CCF37C
:1026C00007487540C7F3072611F808808E5D9A46C3
:1026D000360286EA0846754001EB10661B683678BC
:1026E00085EA066551FA80F63678C7F307487340E5
:1026F000C9F3072611F808808E5D360286EA08467F
:10270000734001EB1C66367883EA066651FA8CFC4E
:102710009CF800C0DAF80430C0F3072083EA0C0309
:10272000C9F3074C085C11F80CC0000280EA0C40A9
:10273000434001EB1760210A007814705170210C9E
:102740009170210ED1701571290A5171290C917166
:10275000290ED1711672310A5172310C9172310EFB
:1027600083EA0060D1721073010A5173010C9173F6
:10277000000ED073BDE8F88F60790000608500001E
:10278000607800002DE9F84FCC7843680D684E68FA
:1027900064F31F6510CB8F686C40CD7991F80FC042
:1027A00065F31F6620CB00687540CE7ADFF890E3B2
:1027B00066F31F6753F8086B0EF5806B7E40CF6899
:1027C00053F8041C6CF31F6779404FF0FF3707EB99
:1027D000600A0BF58060CDE004F0FF0C53F8049B19
:1027E0005EF82C70C6F3074C89EA0709C5F3072782
:1027F00050F82CC05BF82770984687EA0C0789EAE6
:102800000709D04F4FEA116C57F82C7005F0FF0CF8
:1028100089EA07091F685EF82C30C1F3074C5F4056
:10282000C6F3072350F82CC05BF8233083EA0C036F
:102830005F40C44B4FEA146C53F82C305F4008F1F2
:1028400004030093D8F804C006F0FF085EF82830AF
:10285000C4F307488CEA030CC1F3072350F828801F
:102860005BF8233083EA08038CEA030CB54B4FEA8C
:10287000156853F828308CEA030C009B1B1D00934D
:10288000D3F80080CBB25EF82310C5F3074388EA83
:102890000108C4F3072150F823305BF8211009F038
:1028A000FF05594088EA0108A649330E51F8231064
:1028B000009B88EA01085EF825105C68CCF30745A8
:1028C0004C40C7F3072150F825505BF821106940B0
:1028D0004C409C494FEA186503F1080651F8251051
:1028E0009D68FBB24C405EF82310C8F307434D408F
:1028F000CCF3072150F823305BF82110AAF1010A2C
:1029000059404D408F494FEA196351F82310331D48
:1029100000930CF0FF034D4076685EF82310C9F376
:1029200007434E40C8F3072150F823305BF82110CD
:1029300008F0FF0859404E4082493B0EC7F3074755
:1029400051F82310009B4E401B1D009319685EF840
:10295000283050F827705940C9F307235BF823301B
:102960007B405940774B4FEA1C6753F8273059405A
:10297000009B1B1DBAF1000F3FF72EAFDFF8C0C15F
:1029800004F0FF0880CB5CF828C0C6F3074887EA4C
:102990000C07C5F3072C86465BF82CC050F82800BE
:1029A0009A468CEA000C87EA0C0766484FEA116CDD
:1029B000D3F8008050F82C00EBB24740604806F096
:1029C000FF0C50F8230088EA0008C6F307205BF8E4
:1029D0002030C1F307405EF82000434088EA030836
:1029E0005848230E50F82300554B88EA00095AF83E
:1029F000040F53F82C30C4F3074C5840C1F307239D
:102A00005EF82CC05BF8233001F0FF0883EA0C036A
:102A100058404C4B4FEA156C494953F82C305840FC
:102A20000AF1040351F8281053F804CB8CEA010C86
:102A3000C4F30721C5F307445BF821105EF8244076
:102A400061408CEA010C3F49340E51F8241010CB40
:102A50008CEA010C3C4951FA87F52D78C0F3074602
:102A60006C40C9F307258E5D4D5D2D0285EA064554
:102A70006C4001EB1C652D7884EA056420CB51FA8B
:102A800089F63678CCF307487540C0F3072611F86D
:102A900008808E5D9A46360286EA0846754001EB4C
:102AA00017661B68367885EA066551FA80F636782F
:102AB000C7F307487340CCF3072611F808808E5DF2
:102AC000360286EA0846734001EB1966367883EAD7
:102AD000066651FA8CFC9CF800C0DAF80430C7F3A3
:102AE000072783EA0C03C9F3074CCF5D11F80CC02C
:102AF00001EB1060210A007814705170210C917064
:102B0000210ED1701571290A5171290C9171290E6C
:102B1000D1711672310A51723F02310C87EA0C47AB
:102B200091727B40310E83EA0060D1721073010A0A
:102B30005173010C9173000ED073BDE8F88F000043
:102B4000606800006074000060670000002807D023
:102B500040F217115FF0000200F8012B491EFBD272
:102B600070474FF48C71FDF71EBC00002DE9F04F4B
:102B7000C7B0054616460F466846FFF7F2FF05F157
:102B800008043246394668466C6000F055F84690B5
:102B9000F0BB00982860DDE9001000EB011101C9CD
:102BA00001C401C901C401C944F8080B51F81C094A
:102BB00044F8040C2A6828E01E48002500F59059C6
:102BC00000F5B05A00F5D05C00F5F05B08C950FA8A
:102BD00083F637786D1C59F82760C3F3072710F880
:102BE00007805AF828707E40C3F3074700EB136351
:102BF000C75D93F800805CF827705BF828305F4071
:102C00007E4040C4042DE1DB2039521E002A00E042
:102C100008E0D1DC08682060486860608868A060CF
:102C2000C868E0606846FFF791FF469847B0BDE886
:102C3000F08F000060670000F0B5802A07D0C02A3E
:102C400007D0B2F5807F0BD06FF01F00F0BD0A23D4
:102C500000E00C23036000F10803002443600AE055
:102C60000E23F7E701EB8405EE782D6866F31F6508
:102C700043F82450641CB4EB521FF3D3544A016848
:102C8000A2F508500A2904D00C292BD00E2928D1EE
:102C900056E0002453F80C5B52F824104D4002CB50
:102CA000C1F30726C1F30747865DC75D86EA07269D
:102CB000754000EB1166367885EA064550FA81F6D4
:102CC0003678641C85EA06651D6053F80C6C6E400E
:102CD0005E6053F8085C75406940C3E902510A2CF4
:102CE000D8D373E05FF000041D6852F824104D4003
:102CF0005969C1F30726C1F30747865DC75D86EAB8
:102D00000726754000EB1166367885EA064550FACD
:102D100081F63678641C85EA06659D615E686E40C2
:102D2000DE619D6875401D62DE686E405E621D69F1
:102D300075406940C3E90A511833082CD4D345E0E3
:102D40005FF000051C6852F825104C40D969C1F3AA
:102D50000726C1F30747865DC75D86EA07267440EC
:102D600000EB1166367884EA064450FA81F636782C
:102D700084EA06661E625C6874405C629E68664017
:102D80009E62DC687440DC6250FA84F73F781E690A
:102D9000C4F3074C7E40C4F3072710F80CC0C75D8E
:102DA00000EB14643F0287EA0C4724787E4086EAF1
:102DB00004641C635E696D1C66405E639C697440BC
:102DC0006140C3E90E412033072DBBD30020F0BD85
:102DD0006089000070B54843044601F052FE0500CA
:102DE00002D02146FDF7DFFA284670BD01F080B918
:102DF00010B50349034800F08DFB002010BD000012
:102E0000ED2D0000D52D00000020704710B50446C0
:102E100000F0C0F82046BDE81040442100F082BB1D
:102E20004421FDF7C0BA2DE9F0411D460B46164678
:102E3000074601222946184600F0E0F804006FF02A
:102E40000C0013D06169102910D1384600F0A2F8A7
:102E50002146384600F046F9002807D12A46314677
:102E60003846BDE8F041012300F018B9BDE8F08113
:102E700070B5134D040012D0206880B179B10123E0
:102E8000204600F00BF900280AD1206800780228BB
:102E900007D0032805D0042803D0242801D02846D1
:102EA00070BD084A242101201268904728B11021E2
:102EB000206400F045FB002070BD0148803870BDE3
:102EC000009FFFFFDC0100202DE9FC5F15460F4647
:102ED0005FEA000A4FF0000924D0DAF8000008B3D6
:102EE00007B3DAF84040ECB14669206A18B3321AE9
:102EF000AA4220D204F1100840443946FDF73AFABC
:102F00002246334641461046FEF796FB01A823466B
:102F1000009032461946504600F000F95FEA000979
:102F200033D102E01A48BDE8FC9F206A301A2D1AFE
:102F3000002107442162A819401EB0FBF6FB0120C6
:102F400014E02246334639461046FEF775FB01A8C9
:102F50002346009032461946504600F0DFF85FEAFB
:102F6000000912D1AD1B374408F1010080465845D5
:102F7000E7D355B1216A04F1100008442A463946C6
:102F8000FDF7F8F9206A284420624846CBE70000A4
:102F9000009FFFFF10B5040014D0206C30B1242135
:102FA00000F0C7FA0849206C09688847E06B18B13F
:102FB00021688969096A88472046BDE81040442194
:102FC00000F0B7BA10BD0000E001002018B10068A1
:102FD00008B140697047002070470000064905E0CD
:102FE0000A78824201D14868704708314A68002A4D
:102FF000F6D1002070470000EC8B000030B50A4B82
:103000000CE0A5692D78854207D165688D4204D111
:103010006478944201D1586830BD08335C68002C54
:10302000EFD1002030BD0000EC8B00004421FDF703
:10303000BAB9000018B102685278022A01D00F48CC
:103040007047012908D002290AD003290ED004298B
:1030500010D00A48803070470949C160094902E030
:103060000949C16009490161002070470849C160F0
:103070000849F8E70021C1600749F4E7009FFFFF16
:10308000550D0000B91B0000710D0000351C00003B
:10309000930D0000951C0000A51B0000F0B4104E1D
:1030A00088B104687CB1257CAD0702D4656895427F
:1030B00009D142600372012B08D06578032D05D039
:1030C000052D03D033B13046F0BC7047A369C06B07
:1030D0005B6902E0A369C06B9B69F0BC1847000004
:1030E000009FFFFF70B50C0005460FD075B144215D
:1030F000FDF759F9A069C0698047E86340B1042130
:1031000028462C60FFF796FF002070BD024870BD76
:103110000148803870BD0000009FFFFF2DE9FF5F70
:10312000DFF89CA10E9F994615468846040037D0CB
:10313000206878B377B3002038602046FFF746FF59
:10314000216806464878012807D0062816D0FEB127
:10315000C84527D1626AEAB91DE0B54203D0594893
:1031600004B0BDE8F09F3D60226894F90810E06B60
:1031700092694B4654684246A047F1E73D60E06BD8
:1031800004B04B4642462946BDE8F05F00F04DB919
:103190004D48E5E704E0B5FBF6F206FB12520AB132
:1031A0005046DDE704F1280204F1140A03920228D4
:1031B00007D0121F032868D0052873D040488030FC
:1031C000CEE794F9080010B1012805D013E0606A39
:1031D000301AA84204D20EE0606A301AA8420AD916
:1031E000616A2A4601EB0A004146FDF7C3F8606AAE
:1031F0002844606247E0606AE8B1A6EB000B5044E7
:103200005A464146FDF7B6F8CDE900A9226894F97F
:103210000810E06B9269039BD2F808C03246E04781
:1032200000289DD13868B144304438600020D8442B
:10323000A5EB0B05606235B3B5FBF6F006FB10504D
:103240005FEA000B02D1207A00B9B346A5EB0B056B
:1032500005EB08015A465046FDF78CF8616A01EB10
:103260000B0060627DB1CDE90089226894F90810F5
:10327000E06B9269039B94682A46A047002888D196
:1032800038682844386000206AE7039E13468DE8BA
:103290004003896994F90860E06BCC682A4631469E
:1032A00009E0FFE7CDF800A0CDE901898969E06B6D
:1032B000039B0C692946A0470028E5D13D60E2E761
:1032C000009FFFFF809DFFFF809CFFFF10B5040063
:1032D0000AD004F12000FFF739FC40F23F10002132
:1032E00004F8011B401EFBD210BD4FF4A071FDF786
:1032F0005AB8F0B50F4685694FF4C071E1B0164673
:1033000004468D4203D8C5F5C070B04203D26FF0B9
:10331000370061B0F0BD6846FDF745F8D4E94E309E
:103320002A466946984710B16FF03300F1E7A56966
:103330003FB136B10DEB050032463946FDF71AF8BC
:10334000354469462A460846FEF729F8694620466C
:10335000FEF768FA012020610020DAE77CB530250D
:10336000069CCDE9004500F001F87CBD2DE9F04751
:1033700088B00D46DDE9108904469A46164620219C
:103380006846FDF710F804F120000746FFF7E9FB57
:1033900042F21070C4E90690C4E94E564FF48072B0
:1033A00069463846FFF748FC424651462046FFF73B
:1033B000A0FF08B0BDE8F08710B50446FFF7EAFDAE
:1033C0002046BDE810404FF4C87100F0C0B84FF47B
:1033D000C871FCF7E8BF2DE9F0411D460B461646C3
:1033E0000746012229461846FFF708FE04006FF041
:1033F000130018D06169102915D13846FFF7CAFDAE
:1034000021463846FFF76EFE00280CD101232A46DC
:1034100031463846FFF742FE002804D13846BDE861
:10342000F041FEF795BABDE8F0812DE9F04186B094
:103430004FF0000C0D46044698466FF01306CDF889
:1034400014C0934203D9A8EB0200A8420ED3D4E9DA
:103450005273781943EB0C01C71B71EB030305D3BF
:103460006FF01F070F233F1A8B4103D2304606B07F
:10347000BDE8F0811646C4E9520146E0102D01D2A4
:103480002F4600E010271020211891F86721521CC8
:1034900012F0FF0281F8672102D1401E0C28F3D8F8
:1034A00005A8009001AB102204F5B4712046FFF787
:1034B00035FE0028DBD101AA1CE0D4F8881141B9FF
:1034C000211816F800C091F8783183EA0C0381F8CE
:1034D0007831135C315C4B4008F80030D4F8881127
:1034E000012906D1211891F878C18CEA030C81F8E2
:1034F00078C1401CB842E0D304F5BC7211462046A6
:10350000FEF7A8FAED1B3E44B844002DB6D10020CA
:10351000ADE70000024AC2E9000100207047000048
:10352000DC010020002201E000F8012B491EFBD243
:103530007047002201E000F8012B491EFBD27047C2
:10354000002201E000F8012B491EFBD27047002247
:1035500001E000F8012B491EFBD270472DE9F05F16
:103560001E46DDF828B091468A46040003D124495E
:103570009020FDF7B3FDB4F80680607908FB00F8F1
:10358000A8F10408464503D31D499E20FDF7A6FD7A
:10359000E788301DB0FBF7F1B0FBF7F207FB120034
:1035A000D9F80050AA19424501D9A8EB0605C9F877
:1035B000005001E02468491E0029FBD13E1A8846CC
:1035C000AE4215D817E000BF2044001D0AEB0803E7
:1035D000BBF1000F324602D00146184600E0194602
:1035E000FCF7C8FE00202468AD1BB044AF4201D9EF
:1035F0002E4600E03E46002DE6D1BDE8F09F0000DB
:10360000A498000030B5024651B101F0B1F9002193
:10361000074C08E034F821301568AB4202D1116044
:10362000002030BD491C8142F4D3052030BD00008C
:1036300000000000002100F009B8012100F010B8DE
:1036400008B56A46FCF741FE009808BD08B56A4611
:10365000FCF721FE08BD08B56A46FCF703FE08BD6D
:1036600008B56A46FCF70AFE009808BD08B56A4628
:10367000FCF738FE009808BD70B5040003D113496B
:10368000FE20FDF72BFD00252846FDF77FFC206876
:1036900062680168914214D9491E01600D781CB915
:1036A0000A49C220FDF71AFD208AE16805FB0015D2
:1036B0002068217A0278891A0279C9B28A4200D236
:1036C00001710020FDF772FC284670BD6098000073
:1036D00070B50C46050004D1104940F22110FDF7E9
:1036E000FDFC24B90D494FF49170FDF7F7FC002063
:1036F000FDF74CFC1DB90949CF20FDF7EFFCE86848
:103700002A68211A288AB1FBF0F11068431C136063
:103710000170BDE870400020FDF748BC60980000D3
:1037200010B5040002D0206830B901E00E2010BDB1
:103730001749D920FDF7D2FC606818B91449DA207E
:10374000FDF7CCFCA06818B91149DB20FDF7C6FCD9
:10375000E06818B90E49DC20FDF7C0FC208A18B9D2
:103760000B49DD20FDF7BAFC207A61682268401A17
:10377000C0B2116004E0226811684B1C136008702D
:10378000401EC0B2F7D221680020087110BD0000B1
:1037900060980000C20800F007030120895C98408F
:1037A0000840704710B5C20800F00703885C012488
:1037B0009C402043885410BD00F1804000680028E0
:1037C00000D00120704708B500F180400021016061
:1037D0000068009008BD00002DE9F8431E469046A1
:1037E0000F460446089DFDF733FF002817D1C7B1E7
:1037F00048F21350002E12D0002D10D000956068B2
:1038000033464246056A39462046A847002806D175
:10381000204600F04FF8002801D103492160BDE89F
:10382000F88348F21050FAE75345416370B51646E5
:103830000D460446FDF70CFF18B1A0F5054102390D
:1038400009D14DB16560AA682046314690470028ED
:1038500001D10349216070BD48F2105070BD0000D5
:103860006341455370B50D460446FDF7F1FE00284F
:103870000AD1606842692AB13DB129462046BDE8B7
:103880007040104748F2035070BD48F2105070BDB0
:1038900070B50D460446FDF7DBFE002809D135B1B1
:1038A0006068294602692046BDE87040104748F22A
:1038B000105070BD10B50446FDF7CAFEA0F50541D5
:1038C000023908D0002805D16068C16820468847C1
:1038D0000021216010BD024A21689142F4D010BD40
:1038E0005345416350B1094A002100BF52F83130BD
:1038F000834205D102EBC1004068704704A07047C5
:10390000491C1929F2D305A0704700006464000027
:103910004E6F206572726F72000000004572726F08
:1039200072206E6F742072656C6174656420746FB0
:10393000206E72665F63727970746F206C69627258
:10394000617279002DE9F0410B480C4D0C4F401B82
:10395000C60801203870002406E000BF55F8340086
:103960008047002805D1641CB442F7D30220387088
:103970000020BDE8F0810000989F0000889F0000B3
:103980009400002005480178022904D0007801281D
:1039900001D00020704701207047000094000020F3
:1039A00038B5041D002000F03BF900280ED1204658
:1039B000FFF79BFC00200346024600900449204686
:1039C000FFF7CCFCBDE8384002F011BA38BD00006A
:1039D000AD18000010B5001DFFF778FC00F07EF96F
:1039E000002010BD2DE9F0410F46064601F008FB0E
:1039F00068B118481849401AC008012101EB00407D
:103A000016A100F00BFF48F21950BDE8F081FFF756
:103A1000B9FF40B1184C194D606838B1A068A84290
:103A200004D10020F1E74FF40540EEE748F21750CB
:103A3000002EEAD1002FE8D10F4911480C31606007
:103A4000FFF7AEFF0028E0D1A56062680D49116064
:103A5000DBE7000020A00000B89F00005374616302
:103A60006B206F766572666C6F7720646574656332
:103A70007465642E00000000980000206572E54B1C
:103A8000F00100206169614D70B50D4C0D4A48F29E
:103A90000251A068904204D160680B4B02689A42C0
:103AA00001D0084670BD00210160A160FFF792FFC0
:103AB0000546206808B100F01BFB284670BD0000D9
:103AC000980000206572E54B6169614D70B50A4C44
:103AD000207808B185250CE00020A060606020619E
:103AE000E060064801F00EFB054601F0D5FA012022
:103AF0002070284670BD0000340300201D16000011
:103B000070B5174C0546207818B916A1C320FDF7EB
:103B1000E5FAA07838B115B169680120884700201E
:103B2000FDF734FA0CE00020FDF730FA25B10C481F
:103B300029461030FEF75AFAE06808B901F044FB54
:103B4000E068401CE0600020FDF730FAE0680028E3
:103B500005D1BDE8704003A1DF20FDF7BFBA70BDFD
:103B6000340300202E2E5C2E2E5C2E2E5C2E2E5C1E
:103B70002E2E5C2E2E5C2E2E5C2E2E5C696E7465B5
:103B800067726174696F6E5C6E7266785C6C656793
:103B90006163795C6E72665F6472765F636C6F639B
:103BA0006B2E630070B506460C480C460078012861
:103BB00011D00BA1BA20FDF791FA0CE0402C01D2F4
:103BC000254600E04025E9B2304600F047F80028DD
:103BD000F9D1641B2E44002CF0D170BDA800002048
:103BE0002E2E5C2E2E5C2E2E5C2E2E5C2E2E5C2E0F
:103BF0002E5C2E2E5C2E2E5C696E7465677261746D
:103C0000696F6E5C6E7266785C6C65676163795C27
:103C10006E72665F6472765F726E672E630000007C
:103C200070B50B4C217809B1852070BD00B90948E9
:103C300009490088A4F80100601C01F009FC050096
:103C4000F3D101F07DFC01202070284670BD0000FA
:103C5000A8000020506500003154000070B50C46EB
:103C60000C4905460978012903D00BA19120FDF7E5
:103C700035FA22462946184801F0FEF8044601F0BC
:103C80005FFC2CB1052C03D003A1AB20FDF726FA75
:103C9000204670BDA80000202E2E5C2E2E5C2E2EFD
:103CA0005C2E2E5C2E2E5C2E2E5C2E2E5C2E2E5C20
:103CB000696E746567726174696F6E5C6E72667846
:103CC0005C6C65676163795C6E72665F6472765F77
:103CD000726E672E630000003CA0000010B5094C16
:103CE0002078012803D008A16A20FDF7F7F901F038
:103CF0005FFC01F08FFC144801F00AF900202070ED
:103D000010BD0000A80000202E2E5C2E2E5C2E2E52
:103D10005C2E2E5C2E2E5C2E2E5C2E2E5C2E2E5CAF
:103D2000696E746567726174696F6E5C6E726678D5
:103D30005C6C65676163795C6E72665F6472765F06
:103D4000726E672E630000003CA00000F0B50546CF
:103D50000478154889B0164640F82420124A0869AC
:103D6000121DA2F1080742F82400487F385520228E
:103D70006846FCF7FFFA04942878385C48B10EB125
:103D80000A4A00E000226946281D01F0DDFD09B065
:103D9000F0BD0EB1064A00E00022694605F10C00B4
:103DA00001F07AFCF3E70000B00000206D62000033
:103DB000AD6000000FB438B5040003D110A11C2081
:103DC000FDF78CF9606918B90DA11D20FDF786F982
:103DD000206818B90AA11E20FDF780F9606818B99B
:103DE00007A11F20FDF77AF90599002905D006A83B
:103DF00000906A46204600F04DF838BC5DF814FB90
:103E00002E2E5C2E2E5C2E2E5C2E2E5C2E2E5C2EEC
:103E10002E5C2E2E5C2E2E5C65787465726E616C45
:103E20005C667072696E74665C6E72665F667072F4
:103E3000696E74662E63000010B5040003D107A1FB
:103E40000B20FDF74BF9A268002A05D0D4E9040342
:103E5000216898470020A06010BD00002E2E5C2E27
:103E60002E5C2E2E5C2E2E5C2E2E5C2E2E5C2E2E8C
:103E70005C2E2E5C65787465726E616C5C66707227
:103E8000696E74665C6E72665F667072696E746687
:103E90002E6300002DE9FC4791460C465FEA0008BE
:103EA00004D183A140F25220FDF718F9D8F814008C
:103EB00020B97FA14FF41570FDF710F9D8F8000074
:103EC00020B97BA140F25520FDF708F9D8F804008D
:103ED00020B977A140F25620FDF700F9002C76D0EA
:103EE00014F8011B39B125290ED04046FDF738FBE7
:103EF00020780028F4D198F80C00002867D04046BC
:103F0000BDE8FC47FFF798BF0020012221782B294C
:103F10001BD02D2902D0302908D102E040F0010049
:103F200001E040F00200641C002AEFD100252A299C
:103F30000ED02178A1F130020A2A11D205EB8502B8
:103F400001EB4205641C303DF1E740F00400EAE774
:103F5000D9F800100B1DC9F800300968641C0D4425
:103F6000217800232E290BD114F8011FA1F1300272
:103F70000A2A05D203EB830201EB4203303BF3E74D
:103F80006C290DD068290BD0692921D00BDC25299B
:103F900018D0582931D063290ED0642915D117E0E3
:103FA00014F8011FECE7702969D0732932D0752904
:103FB0001BD0782909D120E0D9F80000011DC9F8EB
:103FC000001001784046FDF7CBFA641C90E76CE0E6
:103FD000D9F800100A1DC9F800200968CDE9005081
:103FE0000A224046FDF7DAFEEFE7D9F800100A1D75
:103FF000C9F8002009680A2206E0D9F800100A1D55
:10400000C9F8002009681022CDE90050404602F0AE
:10401000CFF9DAE7D9F8001000270A1DC9F8002007
:104020000E68C00705D112E04046761C7F1CFDF7E4
:1040300097FA31780029F7D104E0202140466D1E1F
:10404000FDF78EFABD42C0D9002DF6D1BDE74EB1C5
:104050003046FCF7B3F9074604E0202140466D1EC8
:10406000FDF77EFABD4206D9002DF6D103E04046A9
:10407000761CFDF775FA31780029F8D1A5E7D9F853
:104080000000011DC9F80010056830214046FDF709
:1040900067FA78214046FDF763FA08200021CDE950
:1040A0000001034610222946B0E7BDE8FC87000066
:1040B0002E2E5C2E2E5C2E2E5C2E2E5C2E2E5C2E3A
:1040C0002E5C2E2E5C2E2E5C65787465726E616C93
:1040D0005C667072696E74665C6E72665F66707242
:1040E000696E74665F666F726D61742E63000000A6
:1040F0002DE9F04106460C480078002812D0002E29
:1041000010D00025094F2C467819B042204603D123
:10411000BDE8F041FDF7D0B9FDF738FD641C05445A
:104120001A2CF1D3BDE8F08158010020640400206E
:104130002DE9FF411C46DDE90A7815460E46684622
:1041400000F09EF846EA450141EA840141EA07226F
:1041500042EA0841009A00EB8200C0F80017BDE86F
:10416000FF812DE9FF411C46DDE90A7815460E4620
:10417000684600F0ABF846EA450141EA840141EAAD
:10418000072242EA0841009A00EB8200C0F80017BB
:10419000BDE8FF811CB5002100910B460122019171
:1041A000FFF7C6FF1CBD1CB5002100910B46012284
:1041B0000191FFF7D6FF1CBD1CB500220B460092F3
:1041C00011460192FFF7B4FF1CBD1CB500220B463F
:1041D000009211460192FFF7C4FF1CBD1CB50021DF
:1041E00000910B46012201911146FFF7A1FF1CBD72
:1041F0001CB5002100910B46012201911146FFF7E9
:10420000B0FF1CBD13B50C46684600F013F80099CA
:1042100000EB8101D1F8002722F44032C1F80027D9
:10422000009900EB8100D0F8001741EA0441C0F882
:1042300000171CBD10B50068202804D303A140F26C
:10424000A710FCF74BFF4FF0A04010BD2E2E5C2EA8
:104250002E5C2E2E5C2E2E5C2E2E5C2E2E5C2E2E98
:104260005C2E2E5C6D6F64756C65735C6E72667827
:104270005C68616C2F6E72665F6770696F2E680094
:1042800010B50068202804D303A140F2A710FCF762
:1042900025FF4FF0A04010BD2E2E5C2E2E5C2E2E42
:1042A0005C2E2E5C2E2E5C2E2E5C2E2E5C2E2E5C1A
:1042B0006D6F64756C65735C6E7266785C68616C5A
:1042C0002F6E72665F6770696F2E680010B50068A8
:1042D000202804D303A140F2A710FCF7FFFE4FF003
:1042E000A04010BD2E2E5C2E2E5C2E2E5C2E2E5C41
:1042F0002E2E5C2E2E5C2E2E5C2E2E5C6D6F647529
:104300006C65735C6E7266785C68616C2F6E726649
:104310005F6770696F2E680001B56846FFF7B0FFF0
:10432000009A01219140C0F8081508BD01B5684602
:10433000FFF7CCFF009A01219140C0F8081508BD95
:10434000F8B504460B486618154600680090012E23
:1043500004D909A140F2D720FCF7C0FE694605E068
:1043600051F82400D0F81005641C01C5A642F7D806
:10437000F8BD0000546500002E2E5C2E2E5C2E2E03
:104380005C2E2E5C2E2E5C2E2E5C2E2E5C2E2E5C39
:104390006D6F64756C65735C6E7266785C68616C79
:1043A0002F6E72665F6770696F2E6800034908B5EB
:1043B0000844002101600068009008BD00600040D2
:1043C00002494058012800D000207047006000409A
:1043D00000210846FFF706BBFFF756BB30B5154A6C
:1043E00001460020D2F8104423460AE0DB681D791C
:1043F000854205D1401C0A28F6DB4FF0FF3030BD66
:104400001B68002BF2D1431CF9D0CB681871D2F88D
:10441000103443B1DB68CC681B682360D2F81024E9
:10442000D268116030BDC2F81014C96800220A6059
:1044300030BD00003C0F00207047FCF703BA704706
:1044400008B5034A00924023024A00F005F808BD6F
:10445000715E0000640D0020F0B595B01C46154655
:104460000F4608461A9E00F0CCFB182109A8FBF75E
:104470009AFF0E96CDE909540023082203A9384675
:1044800000F0D4FB05980690BDF81000ADF81C00B4
:10449000BDF81200ADF81E0000208DF82100039831
:1044A000082600F00300012802D0022818D032E0CC
:1044B00003983346850AC0F3C2008DF820000398A4
:1044C0000FA9C0F38314A200384600F0AFFB09A87F
:1044D000009006AB22460FA9284600F077FA1AE0B2
:1044E0000398840DC0F3C2008DF82000082C01D27F
:1044F000254600E0082533462A460FA9384600F035
:1045000095FB2E44641B09AB06AA29460FA800F0B0
:10451000B9F9002CEAD1384600F079FB15B0F0BDAE
:104520007047012001F0E0BD084810B50178084A45
:10453000515C19B1001D01F005FB02E00C3001F0E7
:10454000A1F9BDE81040002001F0CEBD68010020B7
:10455000AC00002008B5034A00924023024AFFF74E
:104560007BFF08BDC15E0000A40D00200A4A01299E
:1045700002EBC00007D0022907D0032907D0042985
:1045800007D0002070470220704704207047007950
:104590007047407970470000B89F000010B5FFF7E2
:1045A0004CFF04210F48FFF719FF002803DA0E49DA
:1045B0001B20FCF793FD0B480124C0684471FFF7F2
:1045C000B0FF084804211030FFF708FF002803DA85
:1045D00005492220FCF782FD02481030C068447172
:1045E00010BD0000989F0000F49C00002DE9F047EA
:1045F0008CB0FCF7CDFF18B100200CB0BDE8F087FF
:104600007D4C0020C4F81804BFF34F8F60680290FF
:10461000A5684FF00008284004EB80000CE000BFC4
:10462000D4F8180470B921680298814201D86160F9
:10463000E2E7284004EB80000C3002A9FDF7BCFC47
:104640000028EDD1002003AA029901EA050304EB3A
:104650008303491CDB6842F82030401C0291022889
:10466000F2D3039800F00300022802D001284DD0B5
:10467000A7E003985022810D8946B2EB905F00D8E5
:1046800050210E4666F39F50039008315B4800F0BE
:104690006FFA070078D000F0B4FA4346082203A965
:1046A000384600F0D5FA029908F1080A2940681A3C
:1046B0008000001D864222D94F4D0C3530B1C2B268
:1046C00004EB8101301A90460C3104E02946F2B225
:1046D000002590462846C6B25346384600F0B8FA40
:1046E0000AEB080325B132462946384600F0B0FAF5
:1046F000029909F1030001EB900002903BE004EB0A
:1047000081015346324638460C31EFE70398C0F337
:104710008310062800D30620039960F38911C1F3A2
:104720008310801C03918100344800F021FA0700B7
:1047300047D000F066FA4346082203A9384600F045
:1047400087FA08F1080800260FE00298434600EABD
:104750000501401C04EB81010290042238460C3113
:1047600000F076FA08F10408761C0398C0F3831071
:10477000B042EAD847B1D4F81054D4F8180478B14C
:10478000384600F044FA31E01BE0E868407901283F
:1047900004D12A682846394612689047E8680568B7
:1047A000002DF2D1384600F032FA0020FCF7EEFB83
:1047B000D4F8180408B9029860600020FCF7F6FBF2
:1047C00014E0D4F8104405E0216820468968884741
:1047D000E0680468002CF7D109480A49401AC0086B
:1047E000022101EB004008A100F018F8FCF7D0FE10
:1047F00080F0010001E700003C0F002028A000002D
:1048000020A00000B89F00004261636B656E647376
:1048100020666C75736865640000000000231A460A
:1048200001F072BB08B5012300926A4601F06CFBEF
:1048300008BD1CB5CDE9002302236A4601F064FBE4
:104840001CBD3EB5069C8DE81C0003236A4601F0A2
:104850005BFB3EBD7FB5DDE908458DE83C000423E8
:104860006A4601F051FB7FBD70B586B00DF1280C92
:104870009CE870008DE87C0005236A4601F044FB4B
:1048800006B070BD2DE9F0470E4680461C469246A4
:10489000082940D894F80C9000202073194610463F
:1048A00001F0DEF90025B54206D218F805201BA15B
:1048B0002046FFF77FFA03E01AA12046FFF77AFAB5
:1048C0006D1C082DEFD318A12046FFF773FA0025C1
:1048D000B54212D218F805707E2F08D8FBF746FDB6
:1048E0000068C05D10F03E0F01D03A4600E02E2275
:1048F0000EA12046FFF75EFA03E00DA12046FFF768
:1049000059FA6D1C082DE3D301222146504601F0CF
:1049100089F984F80C90BDE8F0870000202530323A
:1049200078000000202020007C00000025630000AB
:10493000200000000B4810B5FF21816000210160BC
:104940004160C0F81814C0F8141480F82014064808
:1049500000F05BF9002803D1044800F043FB00207D
:1049600010BD00003C0F002028A00000546700008C
:1049700002480349401AC0087047000028A0000000
:10498000B89F000013B56846FEF73CFE08B1002052
:104990001CBD0248009950F831001CBDB89F0000B2
:1049A00070B509480125D0F8104480F8205407E07C
:1049B000E06845712168204649688847E0680468D6
:1049C000002CF5D170BD00003C0F00202DE9FF4701
:1049D00081460C9D00200C462F7B28739846164676
:1049E0002946184601F03CF9072E42D2DFE806F0CE
:1049F00004090F161F2A360049462846FFF7DAF940
:104A000037E0494628462268FFF7D4F931E0D4E977
:104A1000002349462846FFF7CDF92AE0A068009018
:104A2000D4E9002349462846FFF7C4F921E0D4E938
:104A30000201CDE90001D4E9002349462846FFF7E9
:104A4000B9F916E004F1080007C88DE80700D4E9B9
:104A5000002349462846FFF7ADF90AE004F10800B3
:104A60000FC88DE80F00D4E9002349462846FFF718
:104A7000A1F900222946404601F0D4F82F73BDE881
:104A8000FF871CB50024CDE9004001A9684600F06D
:104A900015F800B1009400981CBD000010B500246A
:104AA0002046FCF709FD641C1A2CF9D302490120A9
:104AB0000870002010BD0000580100202DE9F047CB
:104AC000804628480E46007878B148F20E10B8F1BA
:104AD000000F08D0002E06D0306810B1B0F5807FEE
:104AE00006D948F20710BDE8F08748F20810FAE747
:104AF0001A21FDF72DF81C49DFF8689048F20417D9
:104B000051F82040383109F1040951F8205025E0CE
:104B10002046FDF73BF801466009424259F8200063
:104B200004EB4212D0404B4610F0010F14D0600944
:104B3000424204EB421253F820404FF0010C0CFAB1
:104B400002FC24EA0C0449F82040084800274219D6
:104B5000C8F80020316003E00D44641C1A2CD7D340
:104B60003846C0E7580100207C650000640400203E
:104B70002DE9F041058A80462D1F4819C01CB0FB65
:104B8000F5F0C6B24046FEF777FD041E19D00020AE
:104B9000207101206071E58000272546761EC4F84B
:104BA00000800BE04046FEF767FD60B16179491C6B
:104BB0006171286005467F1CC0F80080B742F1D3C0
:104BC0002046BDE8F081204600F002F80020F8E71A
:104BD0002DE9F041457901466B1E002201E009688C
:104BE000521C9A42FBD30F680146002605E0384666
:104BF0000C68FEF76DFD2146761CAE42F7D3BDE88A
:104C0000F0810121001DFEF71BBDFEF789BD10B527
:104C100004460121001DFEF729FD10F0FF0F04D10D
:104C20002046BDE81040FFF7D3BF10BD1CB51446A9
:104C30000122CDE9002401AAFEF790FC0198A042D0
:104C400003D00249DA20FCF749FA1CBDA498000001
:104C50001CB514460022CDE9002401AAFEF77EFC13
:104C60000198A04203D00249D020FCF737FA1CBDBE
:104C7000A498000008B500F18040014600680022B9
:104C800020B101200A600968009108BD104608BDE6
:104C900010B5040004D105A140F20D20FCF71EFA66
:104CA000204600F06BF9A168081A10BD2E2E5C2E6C
:104CB0002E5C2E2E5C2E2E5C2E2E5C2E2E5C2E2E2E
:104CC0005C2E2E5C636F6D706F6E656E74735C6CC2
:104CD00069627261726965735C71756575655C6E38
:104CE00072665F71756575652E63000070B50400AE
:104CF00003D108A17220FCF7F1F92068056841682A
:104D0000204600F027F8A84201D1012070BD002004
:104D100070BD00002E2E5C2E2E5C2E2E5C2E2E5C86
:104D20002E2E5C2E2E5C2E2E5C2E2E5C636F6D70F4
:104D30006F6E656E74735C6C6962726172696573C3
:104D40005C71756575655C6E72665F7175657565BC
:104D50002E63000070B50C46050003D105495D20A7
:104D6000FCF7BCF9A868A04201D9601C70BD002006
:104D700070BD0000AC4C00002DE9F0410E4604006F
:104D80004FF0000803D12CA17D20FCF7A7F91EB934
:104D900029A17E20FCF7A2F90020FCF7F7F82046B5
:104DA000FFF7A4FF070009D0207C38B14FF00408BA
:104DB0000020FCF7FBF84046BDE8F081206845681C
:104DC00041682046FFF7C6FF2168486037B1206878
:104DD00001682046FFF7BEFF21680860E268012AEB
:104DE00014D0022A16D0042A19D0082A1CD06068D0
:104DF000314605FB0200FBF7BDFA204600F0C8FF74
:104E000021688A688242D3D28860D1E761683078AD
:104E10004855F2E76168308821F81500EDE76168D0
:104E2000306841F82500E8E7D6E90001626802EB46
:104E3000C502C2E90001E0E72E2E5C2E2E5C2E2E6C
:104E40005C2E2E5C2E2E5C2E2E5C2E2E5C2E2E5C6E
:104E5000636F6D706F6E656E74735C6C69627261A6
:104E6000726965735C71756575655C6E72665F719C
:104E7000756575652E6300002DE9F04115460E46F7
:104E800007004FF0000404D111A14FF4D970FCF7D2
:104E900025F926B90EA140F2B310FCF71FF94FF027
:104EA0000000002D11D0FCF771F8384600F070FFBB
:104EB000A84205D32A463146384600F037FF00E0C5
:104EC00005240020FCF772F82046BDE8F0810000C0
:104ED0002E2E5C2E2E5C2E2E5C2E2E5C2E2E5C2E0C
:104EE0002E5C2E2E5C2E2E5C636F6D706F6E656E69
:104EF00074735C6C69627261726965735C7175650B
:104F000075655C6E72665F71756575652E63000010
:104F100010B5040004D109A14FF4F570FCF7DEF8D8
:104F20000020FCF733F820680021016041608160B7
:104F3000BDE810400846FCF739B800002E2E5C2E64
:104F40002E5C2E2E5C2E2E5C2E2E5C2E2E5C2E2E9B
:104F50005C2E2E5C636F6D706F6E656E74735C6C2F
:104F600069627261726965735C71756575655C6EA5
:104F700072665F71756575652E63000010B504007B
:104F800004D108A14FF4FC70FCF7A8F80020FBF74F
:104F9000FDFF204600F0FCFE04460020FCF706F86A
:104FA000204610BD2E2E5C2E2E5C2E2E5C2E2E5CEE
:104FB0002E2E5C2E2E5C2E2E5C2E2E5C636F6D7062
:104FC0006F6E656E74735C6C696272617269657331
:104FD0005C71756575655C6E72665F71756575652A
:104FE0002E630000826800219160826811618268EE
:104FF00051618268D1608268516080680160704749
:1050000003496846884201D201207047002070475A
:10501000E83B00200C4A10B502F58C730EE0991A9B
:10502000C91001EBD171491002EBC1010C68844237
:1050300001D90B4602E005D201F108029A42EED3F3
:10504000002010BD486810BDF465000000B5FFF7F2
:10505000E1FF002800D1014800BD0000E06500002C
:105060004058002800D00120704708B50022425067
:105070004058009008BDD0F80403084000D001203B
:1050800070474058002800D00120704708B5002222
:1050900042504058009008BD084810B5007918B932
:1050A00007A19720FCF71AF800F0E6F81449012050
:1050B00008600249091F087010BD0000BC000020F4
:1050C0002E2E5C2E2E5C2E2E5C2E2E5C2E2E5C2E1A
:1050D0002E5C2E2E5C2E2E5C6D6F64756C65735C81
:1050E0006E7266785C647269766572735C73726303
:1050F0005C6E7266785F636C6F636B2E630000009A
:105100001805004010B5040003D108A17E20FBF76C
:10511000E5FF164900200A790AB1852010BD012259
:105120000C600A7100224A7110BD00002E2E5C2E08
:105130002E5C2E2E5C2E2E5C2E2E5C2E2E5C2E2EA9
:105140005C2E2E5C6D6F64756C65735C6E72667838
:105150005C647269766572735C7372635C6E7266AE
:10516000785F636C6F636B2E63000000BC000020EF
:1051700070B54FF480763046FEF71EFB114CB50536
:1051800060B13046FEF71FFB0120C5F808036079C7
:1051900020B9012060712168002088474FF4827691
:1051A0003046FEF709FB00280AD03046FEF70BFB1D
:1051B0000220C5F808032168BDE8704001200847B7
:1051C00070BD0000BC00002070B51348007918B90C
:1051D00012A1C420FBF782FF4FF48270FEF7F3FAAE
:1051E00002204107C1F804031C4B196841F080708C
:1051F00018601B48026842F00104046044684FF4E0
:105200000A554668361BAE42FBD302601960154949
:105210000120086070BD0000BC0000202E2E5C2E16
:105220002E5C2E2E5C2E2E5C2E2E5C2E2E5C2E2EB8
:105230005C2E2E5C6D6F64756C65735C6E72667847
:105240005C647269766572735C7372635C6E7266BD
:10525000785F636C6F636B2E63000000FCED00E011
:10526000001000E0080000400121B1EB507F01D1A7
:10527000012070470020704706480068012110F0A7
:10528000010F06D14FF0E020C02280F80024C0F8C2
:105290000011704700E100E070B54FF08040D0F899
:1052A00004531A4C68070CD54FF48470FFF7E2FCE6
:1052B00038B1606818B916A1F020FBF70FFF6068DD
:1052C0008047A8060DD54FF48A70FFF7D3FC40B194
:1052D000A06818B90EA1F920FBF700FFA168002013
:1052E0008847680611D54FF48C70FFF7C3FC00287F
:1052F0000BD0A06820B906A14FF48070FBF7EEFE3A
:10530000A168BDE870400120084770BDC4000020BE
:105310002E2E5C2E2E5C2E2E5C2E2E5C2E2E5C2EC7
:105320002E5C2E2E5C2E2E5C6D6F64756C65735C2E
:105330006E7266785C647269766572735C737263B0
:105340005C6E7266785F706F7765722E6300000026
:1053500070B50D46040003D10DA15120FBF7BEFE30
:10536000204600F0D7FC04000FD00020FBF70EFE13
:10537000207920B10020FBF719FE112070BD01201B
:10538000256020710020FBF711FE002070BD000099
:105390002E2E5C2E2E5C2E2E5C2E2E5C2E2E5C2E47
:1053A0002E5C2E2E5C2E2E5C6D6F64756C65735CAE
:1053B0006E7266785C647269766572735C73726330
:1053C0005C7072735C6E7266785F7072732E6300CD
:1053D00010B5040003D106A17520FBF77FFE20461F
:1053E00000F098FC002802D000210160017110BD7E
:1053F0002E2E5C2E2E5C2E2E5C2E2E5C2E2E5C2EE7
:105400002E5C2E2E5C2E2E5C6D6F64756C65735C4D
:105410006E7266785C647269766572735C737263CF
:105420005C7072735C6E7266785F7072732E63006C
:1054300001B569460548FFF79FFC0448FFF756FC95
:10544000002801D000F0B4F808BD00003CA0000026
:1054500070B50E46040003D118A11820FBF73EFEDC
:105460001EB916A11920FBF739FE234D287808B183
:10547000852070BD6E602078C00704D01F48016889
:1054800041F0010101601E48D0F8001221F0010135
:10549000C0F800126478082C03D31AA14520FBF74A
:1054A0001DFE2649600181F8000401204FF0E02232
:1054B0004103C2F800112870002070BD2E2E5C2E12
:1054C0002E5C2E2E5C2E2E5C2E2E5C2E2E5C2E2E16
:1054D0005C2E2E5C6D6F64756C65735C6E726678A5
:1054E0005C647269766572735C7372635C6E72661B
:1054F000785F726E672E6300D800002004D50040EC
:1055000000D000402E2E5C2E2E5C2E2E5C2E2E5CAB
:105510002E2E5C2E2E5C2E2E5C2E2E5C696E7465FB
:1055200067726174696F6E5C6E7266785C6E7266CB
:10553000785F676C75652E68000000000DE000E084
:10554000094808B50078012803D008A13020FBF7EE
:10555000C5FD1649002214480A600968009101211E
:10556000C0F80413016008BDD80000202E2E5C2E68
:105570002E5C2E2E5C2E2E5C2E2E5C2E2E5C2E2E65
:105580005C2E2E5C6D6F64756C65735C6E726678F4
:105590005C647269766572735C7372635C6E72666A
:1055A000785F726E672E630000D0004000D100402B
:1055B000074810B50078012803D006A13820FBF772
:1055C0008DFD13490120C1F80803091D086010BDB5
:1055D000D80000202E2E5C2E2E5C2E2E5C2E2E5CF3
:1055E0002E2E5C2E2E5C2E2E5C2E2E5C6D6F647526
:1055F0006C65735C6E7266785C64726976657273F2
:105600005C7372635C6E7266785F726E672E6300A5
:1056100000D0004010B50B4C2078012803D00AA11F
:105620003F20FBF75BFD17490120C1F80803091D66
:10563000086041034FF0E0220020C2F88011207082
:1056400010BD0000D80000202E2E5C2E2E5C2E2EC9
:105650005C2E2E5C2E2E5C2E2E5C2E2E5C2E2E5C56
:105660006D6F64756C65735C6E7266785C6472698C
:10567000766572735C7372635C6E7266785F726E6D
:10568000672E630000D000400149024800F058BD79
:10569000F4030020002000402DE9F04117460D00E2
:1056A000064603D11AA18420FBF718FD3079284A59
:1056B00000EB400101EBC00102EB810494F82A10D9
:1056C00011B10820BDE8F081224951F8201030685E
:1056D000FFF73EFE08B11120F4E729463046FBF7FC
:1056E00087FC6760286920601FB1297F3046FCF77E
:1056F000A9FB30680421C0F800150020A061E0611A
:1057000084F8290044F8140F0121A175DAE700009C
:105710002E2E5C2E2E5C2E2E5C2E2E5C2E2E5C2EC3
:105720002E5C2E2E5C2E2E5C6D6F64756C65735C2A
:105730006E7266785C647269766572735C737263AC
:105740005C6E7266785F756172742E630000000093
:10575000F4030020586500002DE9F05F054600794C
:105760000F4600EB400101EBC0002D49164601EB4E
:10577000800494F82A00012803D02AA1F220FBF724
:10578000ADFC1FB927A1F320FBF7A8FC1EB925A18A
:10579000F420FBF7A3FC284600F064F810B11120B8
:1057A000BDE8F09F66614FF00009C4F82090A76043
:1057B00084F828904FF48E784E4641462868FFF7CB
:1057C00054FC28684FF0010AC0F808A02146286858
:1057D00000F042FC606800BBD5F800B067690EE0DD
:1057E00094F8280008B10F2615E041465846FFF707
:1057F00037FC0028F4D02146584600F02DFC206AE2
:10580000B842F2D3574641462868FFF729FC0028E2
:10581000F9D02868C760C4F814903046C0E700008B
:10582000F40300202E2E5C2E2E5C2E2E5C2E2E5C81
:105830002E2E5C2E2E5C2E2E5C2E2E5C6D6F6475D3
:105840006C65735C6E7266785C647269766572739F
:105850005C7372635C6E7266785F756172742E63DE
:1058600000000000007900EB400101EBC00004499A
:1058700001EB80004069002800D001207047000043
:10588000F40300202DE9F047044600794FF00009A9
:1058900000EB400101EBC000254901EB80072068C7
:1058A000C0F80095786880B120682249C0F80813D4
:1058B0002068012140F3073000F01F0291404009A9
:1058C000800000F1E020C0F880112068D0F80C259D
:1058D000D0F81485D0F80865D0F810554FF0FF3196
:1058E000C0F81415C0F80C152068C0F80815C0F8E9
:1058F0001015501C02D01046FEF74CFCB8F1FF3FCB
:1059000002D04046FEF746FC681C02D02846FEF74F
:1059100041FC701C02D03046FEF73CFC2068FFF7CB
:1059200057FD87F82A90C7F80490BDE8F08700007B
:10593000F4030020840202000149024800F0AEBCDA
:1059400020040020002000402DE9F04117460D0002
:10595000064603D118A1A920FBF7C0FB3079264ADF
:1059600000EBC00102EB810494F8201011B1082073
:10597000BDE8F081214951F820103068FFF7E8FCBC
:1059800008B11120F4E729463046FBF76CFB67604D
:10599000286920601FB1297F3046FCF7A9FA3068DA
:1059A0000821C0F800150020A061E06160610121BC
:1059B00084F82010DCE700002E2E5C2E2E5C2E2EAC
:1059C0005C2E2E5C2E2E5C2E2E5C2E2E5C2E2E5CE3
:1059D0006D6F64756C65735C6E7266785C64726919
:1059E000766572735C7372635C6E7266785F756104
:1059F0007274652E63000000200400205C650000C6
:105A00002DE9F04704460F460079364900EBC00007
:105A100001EB8005164695F82000012804D032A13C
:105A200040F20710FBF75AFB27B92FA14FF48470FF
:105A3000FBF754FB26B92CA140F20910FBF74EFBF3
:105A4000207908B9FF2E04D927A14FF48570FBF700
:105A500045FB3846FFF708FC30B1204600F064F8FB
:105A600020B11120BDE8F0871020FBE76E61AF6028
:105A70004FF490774FF0000839462068FFF706FB97
:105A80004FF4AC7631462068FFF700FB2068AA6827
:105A90006969C0F84425C0F8481520684FF001092D
:105AA000C0F808906868D0B9BA4651462068FFF738
:105AB000E8FA074631462068FFF7E3FA0743F4D0D7
:105AC00010B14FF00F0808E02068C0F80C90314684
:105AD0002068FFF7D6FA0028F9D000206861404618
:105AE000C0E70000200400202E2E5C2E2E5C2E2EFF
:105AF0005C2E2E5C2E2E5C2E2E5C2E2E5C2E2E5CB2
:105B00006D6F64756C65735C6E7266785C647269E7
:105B1000766572735C7372635C6E7266785F7561D2
:105B20007274652E630000000079054900EBC00027
:105B300001EB80004069002800D001207047000080
:105B4000200400202DE9F04704460079334900EB9A
:105B5000C00001EB80070125786880B120683049DA
:105B6000C0F80813206840F3073000F01F0105FA61
:105B700001F14009800000F1E020C0F880112068A8
:105B8000D0F8001221F02001C0F800122068456012
:105B90004FF4AC7631462068FFF778FA2068C5608C
:105BA00031462068FFF76DFA0028F9D020684FF0E1
:105BB0000009C0F800952068D0F80C25D0F81485AD
:105BC000D0F80865D0F810554FF0FF31C0F80C152B
:105BD000C0F814152068C0F80815C0F81015501C3E
:105BE00002D01046FEF7DFFAB8F1FF3F02D0404680
:105BF000FEF7D9FA681C02D02846FEF7D4FA701CCA
:105C000002D03046FEF7CFFA2068FFF7E1FB87F8B5
:105C10002090C7F80490BDE8F08700002004002021
:105C20001003420010B50C46017A052908D0407ACD
:105C300038B1084808A102682046FEF7BBF800E02A
:105C40001AB106A12046FEF7B5F82046BDE810407F
:105C5000FEF7F2B8B8010020257300000D0A00001D
:105C600038B5C3880D46044633B114A0009015A280
:105C700016A12846FEF79EF8217A05291CD0607AE5
:105C800048B1A088FEF772FC164951F8202016A1F1
:105C90002846FEF78FF8A0880021FEF773FE034622
:105CA0001049207A143951F8202001B02846BDE867
:105CB00030400EA1FEF77EB838BD00001B5B306D92
:105CC000000000001B5B313B33316D0025734C6FCE
:105CD00067732064726F70706564202825642925BD
:105CE000730D0A00B8010020257300003C25733EA7
:105CF0002025733A20000000EFF30580C005C00D99
:105D000001D001207047EFF3148040F30000401CE5
:105D1000704700000349884201D1034870470020C2
:105D20007047000000200040D00000202DE9F0471F
:105D30000446006816468946076800212046FBF79E
:105D400097FC0546D4F80C806068AE4207FB08015A
:105D50000DD808FB06F24846FAF70CFBA168B81903
:105D6000884200D9002021680860BDE8F08708FB60
:105D700005F842464846FAF7FDFAE268751B6A43A1
:105D800009EB08006168FAF7F5FA20680560ECE7AE
:105D900001680A684968914201D3881A704780688F
:105DA000801A0844401C704748F2115110F5A24F68
:105DB0001AD009DC10F5C34F10D010F5C24F0BD02C
:105DC00010F5C14F05D10CE010F1220F04D00028CE
:105DD00001D048F2165070470846704748F21550F7
:105DE000704748F20350704748F21750704710F15F
:105DF000380F07D010F1360F07D0002801D048F235
:105E00001650704748F21150704748F214507047CE
:105E100070B5054688690C4600284FF48471284601
:105E20000AD0FFF722F9D5F81805626AE1688854AC
:105E3000606A401C606270BDFFF717F9D5F818055D
:105E400070BD1FB501238DF80030CDE90121D0E9E7
:105E50000012684690471FBD1FB501238DF8003022
:105E6000CDE90121D0E90012684690471FBD00002E
:105E70002DE9F0411400884618D000250E4F032666
:105E800008EB050122460020FAF7DEFC0544241A3F
:105E900040B93878002809D008494FF47A4088473B
:105EA000761E05D001203870002CE9D1BDE8F081C4
:105EB00000203870FAE70000600100202167000030
:105EC00070B50E4C0020D2B22070201D0C4D03780E
:105ED000EB5C1BB1001DFFF793FD02E00C30FFF7F8
:105EE0003BFC18B1074A2D21FAF794F96078002895
:105EF00002D021780029FAD070BD00006401002092
:105F0000AC000020A89C00002DE9F84FDFF8988035
:105F10009246894605461F46012269461846D8F82A
:105F20000860FBF7D9FAB0B3009800210446801C42
:105F30000AE000BF00EA06025AF821C008EB82021C
:105F4000401C491CC2F80CC0B942F3D3BA462F0C0E
:105F5000FBF7A2FC8346FEF70BFDB84204D81349B9
:105F600040F27D10FBF7BAF8601C304008EB80006F
:105F7000344047EA0B4208EB8401C260C86865F30D
:105F8000C5006AF3891069F39F2020F00300401CCC
:105F900020F00400C86098F8200401E0FEF726FB1A
:105FA0000028FBD1BDE8F88F3C0F0020449D000085
:105FB0002DE9F0410F468046174818491646401A09
:105FC000C108052000EB014013460446424614A1D7
:105FD000FEF72FFCFEF70AFB0028FBD100250AE0A4
:105FE0007A5D204615A1FEF71DFC00BFFEF7FEFA04
:105FF0000028FBD16D1CB542F2D320460EA1FEF75E
:106000000DFC204642460EA1FEF70CFCFEF7EEFA10
:106010000028FBD1BDE8F08120A00000B89F00005F
:106020002D2D2D2D257320286C656E6774683A2000
:10603000257529202D2D2D2D0D0A0000256300002A
:106040002D2D2D2D20257320656E64202D2D2D2DB9
:106050000D0A0D0A0000000070B50C4605464FF40D
:106060008E71FFF702F8216AA068415C206A401C2B
:106070002062C5F81C1570BD1FB500228DF80020E8
:106080000291816801914261D0E90012684690470F
:106090001FBD1FB500228DF800200291816801917B
:1060A0004261D0E90012684690471FBD1FB50A46FD
:1060B00001788DF8001041680191017A8DF808107F
:1060C000C0680390044850F82210001F50F82220A6
:1060D000684690471FBD0000B40000200149012020
:1060E000087070476401002010B588B00446202273
:1060F0000F496846FAF73EF906200090C01F01904C
:10610000029003904FF0EB7006900CB1094A00E04A
:10611000002269460848FDF719FE18B1074A1D21FB
:10612000FAF778F80448001F447008B010BD00006A
:1061300034670000DD60000068010020A89C0000BA
:106140002DE9FF470C4605464FF40071FEF793FF1B
:1061500001274FF40178002618B34FF4927949468D
:106160002846FEF77DFFE0B149462846FEF77DFF51
:10617000C5F8088394F8290000B96F6002208DF8F3
:106180000000D5F88004C5F880040390A06902904F
:10619000E0680190A661E661D4E900126846904784
:1061A00028E004212846FEF766FF18B34FF48471F7
:1061B0002846FEF755FFE8B121462846FFF728FE9E
:1061C000616AA069884215D1E06938B1E268616A04
:1061D000A0612069E6616662E06008E094F8290049
:1061E00000B96F60C5F80883A661E268616A20465D
:1061F000FFF727FE4FF48E7841462846FEF730FF22
:1062000080B16069216A814202D294F8280028B3E3
:1062100041462846FEF729FF606918B161692046AA
:10622000FFF72AFF4FF4A27841462846FEF718FFF1
:10623000002818D041462846FEF717FF94F8290099
:1062400000B12F60A06900280DD0A661E268616AE4
:1062500004B02046BDE8F047FFF7F3BD21462846CD
:10626000FFF7FAFEDEE7BDE8FF8700001FB50A462C
:1062700001788DF8001041680191017A8DF80810BD
:10628000C0680390044850F82210001F50F82220E4
:10629000684690471FBD0000B40000202DE9FF4173
:1062A0000C464FF4927705463946FEF7EAFE002683
:1062B000B8B139462846FEF7E9FE02208DF8000005
:1062C000D5F88004C5F880040390D5F83C05029009
:1062D000E0680190A661E661D4E900126846904743
:1062E00023E04FF4887739462846FEF7CAFEE0B12E
:1062F00039462846FEF7CAFED5F83C15A069884203
:1063000013D1E06960B1E268D5F8000220F0200006
:10631000C5F80002E069A0612069E661E06001E083
:10632000A661E2682046FFF797FD4FF4A277394651
:106330002846FEF7A6FE68B139462846FEF7A6FEB7
:10634000A06938B1A661E661D5F83C152046E2683F
:10635000FFF782FD4FF4907631462846FEF791FE16
:1063600060B131462846FEF791FE0120E860606981
:1063700020B1D5F84C152046FFF78BFE4FF4AC76D4
:1063800031462846FEF77DFE00280ED031462846CD
:10639000FEF77CFE6069002807D0D5F84C1504B0E4
:1063A0002046BDE8F041FFF774BEBDE8FF81000064
:1063B0002DE9F05F8346DDE90A4A994690460D468D
:1063C0000846012703E000BFB0FBF8F07F1C404502
:1063D000FAD2B94500D94F465FEACA7012D18CB1E2
:1063E0005FEA8A7002D5B9F1000F01D0202607E0DC
:1063F000302605E031465846641EFBF7B1F80CB173
:10640000A742F7D35FF00106B9F1010F02D9A9F154
:10641000010903E0B5FBF6F0404502D306FB08F6A0
:10642000F2E7DFF83C9000BFB5FBF6F000FB165535
:1064300019F800105846FBF793F8B6FBF8F6002E53
:10644000F2D15FEACA7009D0002C07D0A74205D26A
:1064500020215846641EFBF783F8F5E7BDE8F09F5E
:10646000D0650000008500006091000001850000FB
:10647000E8900000028500004892000003850000BB
:10648000F48F0000048500003090000010850000AB
:10649000DC8D000011850000F48E000012850000E4
:1064A0005C8E0000138500001C8E00001485000027
:1064B00020910000158500009C8E000016850000CC
:1064C000A0910000178500002092000018850000B0
:1064D0004C8F000019850000C08E00004085000030
:1064E000D88E000041850000D89100004285000050
:1064F000B090000043850000348F000050850000FC
:10650000BC8D000060850000E09200006185000005
:10651000BC8F000062850000808F00007085000045
:10652000748E000071850000908D000006008000D0
:10653000340100005F110000AD1200005112000094
:10654000431200002F120000E3120000F3100000BD
:106550000106000000000050895600003959000073
:10656000200000004000000020000000400000006B
:106570008000000000010000000800000000000092
:1065800000000000000000000800000010000000F3
:10659000180000001A0000000000000000000000C9
:1065A0000800000010000000180000001A000000A1
:1065B0001A000000000000000000000000000000C1
:1065C00000010000000300000007000000090000B7
:1065D0003031323334353637383941424344454619
:1065E000556E6B6E6F776E206572726F7220636F7F
:1065F00064650000000000004C9C000001000000E9
:106600000C9B000002000000009900000300000045
:10661000809B000004000000D49B000005000000E7
:10662000B49A000006000000509A00000700000025
:10663000BC9B000008000000C89A00000900000090
:106640002C9B00000A000000349C00000B0000009E
:10665000E89800000C000000E09A00000D00000027
:10666000849C00000E000000AC9B00000F000000A6
:10667000E89B0000100000001C9C000011000000BE
:10668000989C000080000000689A000081000000D3
:10669000A4990000820000006499000083000000BB
:1066A00044990000840000008099000085000000EB
:1066B0008C9A000086000000949B0000900000006F
:1066C000309A000091000000249900009200000020
:1066D000F49A000000820000FC9B00000182000090
:1066E000489B000002820000649B000000840000C0
:1066F000C099000001840000589C00000284000042
:10670000089A000003840000E4990000414400005E
:106710003F44000039440000000000000000000079
:106720000338FDD87047000055450000294500009A
:1067300021450000FFFFFFFFFFFFFFFFFFFFFFFFFF
:10674000FFFFFFFF00000000000000000000D60176
:1067500006010000A40E00207F000000240F00208E
:10676000637C777BF26B6FC53001672BFED7AB760E
:10677000CA82C97DFA5947F0ADD4A2AF9CA472C0B9
:10678000B7FD9326363FF7CC34A5E5F171D8311526
:1067900004C723C31896059A071280E2EB27B27547
:1067A00009832C1A1B6E5AA0523BD6B329E32F84BF
:1067B00053D100ED20FCB15B6ACBBE394A4C58CFB7
:1067C000D0EFAAFB434D338545F9027F503C9FA88B
:1067D00051A3408F929D38F5BCB6DA2110FFF3D259
:1067E000CD0C13EC5F974417C4A77E3D645D19730D
:1067F00060814FDC222A908846EEB814DE5E0BDB07
:10680000E0323A0A4906245CC2D3AC629195E4793D
:10681000E7C8376D8DD54EA96C56F4EA657AAE0897
:10682000BA78252E1CA6B4C6E8DD741F4BBD8B8A32
:10683000703EB5664803F60E613557B986C11D9E98
:10684000E1F8981169D98E949B1E87E9CE5528DF0F
:106850008CA1890DBFE6426841992D0FB054BB163B
:10686000C66363A5F87C7C84EE777799F67B7B8D95
:10687000FFF2F20DD66B6BBDDE6F6FB191C5C554E3
:106880006030305002010103CE6767A9562B2B7D83
:10689000E7FEFE19B5D7D7624DABABE6EC76769A3C
:1068A0008FCACA451F82829D89C9C940FA7D7D87EA
:1068B000EFFAFA15B25959EB8E4747C9FBF0F00BC6
:1068C00041ADADECB3D4D4675FA2A2FD45AFAFEA52
:1068D000239C9CBF53A4A4F7E47272969BC0C05B38
:1068E00075B7B7C2E1FDFD1C3D9393AE4C26266AF9
:1068F0006C36365A7E3F3F41F5F7F70283CCCC4FDA
:106900006834345C51A5A5F4D1E5E534F9F1F1081A
:10691000E2717193ABD8D873623131532A15153FA8
:106920000804040C95C7C752462323659DC3C35E64
:1069300030181828379696A10A05050F2F9A9AB590
:106940000E070709241212361B80809BDFE2E23D0E
:10695000CDEBEB264E2727697FB2B2CDEA75759F46
:106960001209091B1D83839E582C2C74341A1A2E6D
:10697000361B1B2DDC6E6EB2B45A5AEE5BA0A0FB28
:10698000A45252F6763B3B4DB7D6D6617DB3B3CE1B
:106990005229297BDDE3E33E5E2F2F711384849718
:1069A000A65353F5B9D1D16800000000C1EDED2C1C
:1069B00040202060E3FCFC1F79B1B1C8B65B5BED01
:1069C000D46A6ABE8DCBCB4667BEBED97239394B0D
:1069D000944A4ADE984C4CD4B05858E885CFCF4AF8
:1069E000BBD0D06BC5EFEF2A4FAAAAE5EDFBFB1693
:1069F000864343C59A4D4DD76633335511858594EB
:106A00008A4545CFE9F9F91004020206FE7F7F812D
:106A1000A05050F0783C3C44259F9FBA4BA8A8E377
:106A2000A25151F35DA3A3FE804040C0058F8F8A21
:106A30003F9292AD219D9DBC70383848F1F5F50428
:106A400063BCBCDF77B6B6C1AFDADA754221216329
:106A500020101030E5FFFF1AFDF3F30EBFD2D26D08
:106A600081CDCD4C180C0C1426131335C3ECEC2F30
:106A7000BE5F5FE1359797A2884444CC2E17173943
:106A800093C4C45755A7A7F2FC7E7E827A3D3D474A
:106A9000C86464ACBA5D5DE73219192BE67373956F
:106AA000C06060A0198181989E4F4FD1A3DCDC7F2C
:106AB00044222266542A2A7E3B9090AB0B8888831E
:106AC0008C4646CAC7EEEE296BB8B8D32814143CDE
:106AD000A7DEDE79BC5E5EE2160B0B1DADDBDB765E
:106AE000DBE0E03B64323256743A3A4E140A0A1E36
:106AF000924949DB0C06060A4824246CB85C5CE425
:106B00009FC2C25DBDD3D36E43ACACEFC46262A67C
:106B1000399191A8319595A4D3E4E437F279798B32
:106B2000D5E7E7328BC8C8436E373759DA6D6DB792
:106B3000018D8D8CB1D5D5649C4E4ED249A9A9E06A
:106B4000D86C6CB4AC5656FAF3F4F407CFEAEA25E5
:106B5000CA6565AFF47A7A8E47AEAEE910080818B8
:106B60006FBABAD5F07878884A25256F5C2E2E72D8
:106B7000381C1C2457A6A6F173B4B4C797C6C651D7
:106B8000CBE8E823A1DDDD7CE874749C3E1F1F2167
:106B9000964B4BDD61BDBDDC0D8B8B860F8A8A85E4
:106BA000E07070907C3E3E4271B5B5C4CC6666AA7A
:106BB000904848D806030305F7F6F6011C0E0E129E
:106BC000C26161A36A35355FAE5757F969B9B9D06B
:106BD0001786869199C1C1583A1D1D27279E9EB9D7
:106BE000D9E1E138EBF8F8132B9898B3221111335F
:106BF000D26969BBA9D9D970078E8E89339494A7BD
:106C00002D9B9BB63C1E1E2215878792C9E9E92061
:106C100087CECE49AA5555FF50282878A5DFDF7AC0
:106C2000038C8C8F59A1A1F8098989801A0D0D1741
:106C300065BFBFDAD7E6E631844242C6D06868B89D
:106C4000824141C3299999B05A2D2D771E0F0F11FA
:106C50007BB0B0CBA85454FC6DBBBBD62C16163AF7
:106C6000A5C6636384F87C7C99EE77778DF67B7B91
:106C70000DFFF2F2BDD66B6BB1DE6F6F5491C5C5DF
:106C80005060303003020101A9CE67677D562B2B7F
:106C900019E7FEFE62B5D7D7E64DABAB9AEC767638
:106CA000458FCACA9D1F82824089C9C987FA7D7DE6
:106CB00015EFFAFAEBB25959C98E47470BFBF0F0C2
:106CC000EC41ADAD67B3D4D4FD5FA2A2EA45AFAF4E
:106CD000BF239C9CF753A4A496E472725B9BC0C034
:106CE000C275B7B71CE1FDFDAE3D93936A4C2626F5
:106CF0005A6C3636417E3F3F02F5F7F74F83CCCCD6
:106D00005C683434F451A5A534D1E5E508F9F1F116
:106D100093E2717173ABD8D8536231313F2A1515A4
:106D20000C0804045295C7C7654623235E9DC3C360
:106D300028301818A13796960F0A0505B52F9A9A8C
:106D4000090E0707362412129B1B80803DDFE2E20A
:106D500026CDEBEB694E2727CD7FB2B29FEA757542
:106D60001B1209099E1D838374582C2C2E341A1A69
:106D70002D361B1BB2DC6E6EEEB45A5AFB5BA0A024
:106D8000F6A452524D763B3B61B7D6D6CE7DB3B317
:106D90007B5229293EDDE3E3715E2F2F9713848414
:106DA000F5A6535368B9D1D1000000002CC1EDED18
:106DB000604020201FE3FCFCC879B1B1EDB65B5BFD
:106DC000BED46A6A468DCBCBD967BEBE4B72393909
:106DD000DE944A4AD4984C4CE8B058584A85CFCFF4
:106DE0006BBBD0D02AC5EFEFE54FAAAA16EDFBFB8F
:106DF000C5864343D79A4D4D5566333394118585E7
:106E0000CF8A454510E9F9F90604020281FE7F7F29
:106E1000F0A0505044783C3CBA259F9FE34BA8A873
:106E2000F3A25151FE5DA3A3C08040408A058F8F1D
:106E3000AD3F9292BC219D9D4870383804F1F5F524
:106E4000DF63BCBCC177B6B675AFDADA6342212125
:106E5000302010101AE5FFFF0EFDF3F36DBFD2D204
:106E60004C81CDCD14180C0C352613132FC3ECEC2C
:106E7000E1BE5F5FA2359797CC884444392E17173F
:106E80005793C4C4F255A7A782FC7E7E477A3D3D46
:106E9000ACC86464E7BA5D5D2B32191995E673736B
:106EA000A0C0606098198181D19E4F4F7FA3DCDC28
:106EB000664422227E542A2AAB3B9090830B88881A
:106EC000CA8C464629C7EEEED36BB8B83C281414DA
:106ED00079A7DEDEE2BC5E5E1D160B0B76ADDBDB5A
:106EE0003BDBE0E0566432324E743A3A1E140A0A32
:106EF000DB9249490A0C06066C482424E4B85C5C21
:106F00005D9FC2C26EBDD3D3EF43ACACA6C4626278
:106F1000A8399191A431959537D3E4E48BF279792E
:106F200032D5E7E7438BC8C8596E3737B7DA6D6D8E
:106F30008C018D8D64B1D5D5D29C4E4EE049A9A966
:106F4000B4D86C6CFAAC565607F3F4F425CFEAEAE1
:106F5000AFCA65658EF47A7AE947AEAE18100808B4
:106F6000D56FBABA88F078786F4A2525725C2E2ED4
:106F700024381C1CF157A6A6C773B4B45197C6C6D3
:106F800023CBE8E87CA1DDDD9CE87474213E1F1F63
:106F9000DD964B4BDC61BDBD860D8B8B850F8A8AE0
:106FA00090E07070427C3E3EC471B5B5AACC666676
:106FB000D89048480506030301F7F6F6121C0E0E9A
:106FC000A3C261615F6A3535F9AE5757D069B9B967
:106FD000911786865899C1C1273A1D1DB9279E9ED3
:106FE00038D9E1E113EBF8F8B32B9898332211115B
:106FF000BBD2696970A9D9D989078E8EA7339494B9
:10700000B62D9B9B223C1E1E9215878720C9E9E95D
:107010004987CECEFFAA5555785028287AA5DFDFBC
:107020008F038C8CF859A1A180098989171A0D0D3D
:10703000DA65BFBF31D7E6E6C6844242B8D0686899
:10704000C3824141B0299999775A2D2D111E0F0FF6
:10705000CB7BB0B0FCA85454D66DBBBB3A2C1616F3
:1070600063A5C6637C84F87C7799EE777B8DF67B8D
:10707000F20DFFF26BBDD66B6FB1DE6FC55491C5DB
:10708000305060300103020167A9CE672B7D562B7B
:10709000FE19E7FED762B5D7ABE64DAB769AEC7634
:1070A000CA458FCA829D1F82C94089C97D87FA7DE2
:1070B000FA15EFFA59EBB25947C98E47F00BFBF0BE
:1070C000ADEC41ADD467B3D4A2FD5FA2AFEA45AF4A
:1070D0009CBF239CA4F753A47296E472C05B9BC030
:1070E000B7C275B7FD1CE1FD93AE3D93266A4C26F1
:1070F000365A6C363F417E3FF702F5F7CC4F83CCD2
:10710000345C6834A5F451A5E534D1E5F108F9F112
:107110007193E271D873ABD831536231153F2A15A0
:10712000040C0804C75295C723654623C35E9DC35C
:107130001828301896A13796050F0A059AB52F9A88
:1071400007090E0712362412809B1B80E23DDFE206
:10715000EB26CDEB27694E27B2CD7FB2759FEA753E
:10716000091B1209839E1D832C74582C1A2E341A65
:107170001B2D361B6EB2DC6E5AEEB45AA0FB5BA020
:1071800052F6A4523B4D763BD661B7D6B3CE7DB313
:10719000297B5229E33EDDE32F715E2F8497138410
:1071A00053F5A653D168B9D100000000ED2CC1ED14
:1071B00020604020FC1FE3FCB1C879B15BEDB65BF9
:1071C0006ABED46ACB468DCBBED967BE394B723905
:1071D0004ADE944A4CD4984C58E8B058CF4A85CFF0
:1071E000D06BBBD0EF2AC5EFAAE54FAAFB16EDFB8B
:1071F00043C586434DD79A4D3355663385941185E3
:1072000045CF8A45F910E9F9020604027F81FE7F25
:1072100050F0A0503C44783C9FBA259FA8E34BA86F
:1072200051F3A251A3FE5DA340C080408F8A058F19
:1072300092AD3F929DBC219D38487038F504F1F520
:10724000BCDF63BCB6C177B6DA75AFDA2163422121
:1072500010302010FF1AE5FFF30EFDF3D26DBFD200
:10726000CD4C81CD0C14180C13352613EC2FC3EC28
:107270005FE1BE5F97A2359744CC884417392E173B
:10728000C45793C4A7F255A77E82FC7E3D477A3D42
:1072900064ACC8645DE7BA5D192B32197395E67367
:1072A00060A0C060819819814FD19E4FDC7FA3DC24
:1072B000226644222A7E542A90AB3B9088830B8816
:1072C00046CA8C46EE29C7EEB8D36BB8143C2814D6
:1072D000DE79A7DE5EE2BC5E0B1D160BDB76ADDB56
:1072E000E03BDBE0325664323A4E743A0A1E140A2E
:1072F00049DB9249060A0C06246C48245CE4B85C1D
:10730000C25D9FC2D36EBDD3ACEF43AC62A6C46274
:1073100091A8399195A43195E437D3E4798BF2792A
:10732000E732D5E7C8438BC837596E376DB7DA6D8A
:107330008D8C018DD564B1D54ED29C4EA9E049A962
:107340006CB4D86C56FAAC56F407F3F4EA25CFEADD
:1073500065AFCA657A8EF47AAEE947AE08181008B0
:10736000BAD56FBA7888F078256F4A252E725C2ED0
:107370001C24381CA6F157A6B4C773B4C65197C6CF
:10738000E823CBE8DD7CA1DD749CE8741F213E1F5F
:107390004BDD964BBDDC61BD8B860D8B8A850F8ADC
:1073A0007090E0703E427C3EB5C471B566AACC6672
:1073B00048D8904803050603F601F7F60E121C0E96
:1073C00061A3C261355F6A3557F9AE57B9D069B963
:1073D00086911786C15899C11D273A1D9EB9279ECF
:1073E000E138D9E1F813EBF898B32B981133221157
:1073F00069BBD269D970A9D98E89078E94A73394B5
:107400009BB62D9B1E223C1E87921587E920C9E959
:10741000CE4987CE55FFAA5528785028DF7AA5DFB8
:107420008C8F038CA1F859A1898009890D171A0D39
:10743000BFDA65BFE631D7E642C6844268B8D06895
:1074400041C3824199B029992D775A2D0F111E0FF2
:10745000B0CB7BB054FCA854BBD66DBB163A2C16EF
:107460006363A5C67C7C84F8777799EE7B7B8DF689
:10747000F2F20DFF6B6BBDD66F6FB1DEC5C55491D7
:1074800030305060010103026767A9CE2B2B7D5677
:10749000FEFE19E7D7D762B5ABABE64D76769AEC30
:1074A000CACA458F82829D1FC9C940897D7D87FADE
:1074B000FAFA15EF5959EBB24747C98EF0F00BFBBA
:1074C000ADADEC41D4D467B3A2A2FD5FAFAFEA4546
:1074D0009C9CBF23A4A4F753727296E4C0C05B9B2C
:1074E000B7B7C275FDFD1CE19393AE3D26266A4CED
:1074F00036365A6C3F3F417EF7F702F5CCCC4F83CE
:1075000034345C68A5A5F451E5E534D1F1F108F90E
:10751000717193E2D8D873AB3131536215153F2A9C
:1075200004040C08C7C7529523236546C3C35E9D58
:10753000181828309696A13705050F0A9A9AB52F84
:107540000707090E1212362480809B1BE2E23DDF02
:10755000EBEB26CD2727694EB2B2CD7F75759FEA3A
:1075600009091B1283839E1D2C2C74581A1A2E3461
:107570001B1B2D366E6EB2DC5A5AEEB4A0A0FB5B1C
:107580005252F6A43B3B4D76D6D661B7B3B3CE7D0F
:1075900029297B52E3E33EDD2F2F715E848497130C
:1075A0005353F5A6D1D168B900000000EDED2CC110
:1075B00020206040FCFC1FE3B1B1C8795B5BEDB6F5
:1075C0006A6ABED4CBCB468DBEBED96739394B7201
:1075D0004A4ADE944C4CD4985858E8B0CFCF4A85EC
:1075E000D0D06BBBEFEF2AC5AAAAE54FFBFB16ED87
:1075F0004343C5864D4DD79A3333556685859411DF
:107600004545CF8AF9F910E9020206047F7F81FE21
:107610005050F0A03C3C44789F9FBA25A8A8E34B6B
:107620005151F3A2A3A3FE5D4040C0808F8F8A0515
:107630009292AD3F9D9DBC2138384870F5F504F11C
:10764000BCBCDF63B6B6C177DADA75AF212163421D
:1076500010103020FFFF1AE5F3F30EFDD2D26DBFFC
:10766000CDCD4C810C0C141813133526ECEC2FC324
:107670005F5FE1BE9797A2354444CC881717392E37
:10768000C4C45793A7A7F2557E7E82FC3D3D477A3E
:107690006464ACC85D5DE7BA19192B32737395E663
:1076A0006060A0C0818198194F4FD19EDCDC7FA320
:1076B000222266442A2A7E549090AB3B8888830B12
:1076C0004646CA8CEEEE29C7B8B8D36B14143C28D2
:1076D000DEDE79A75E5EE2BC0B0B1D16DBDB76AD52
:1076E000E0E03BDB323256643A3A4E740A0A1E142A
:1076F0004949DB9206060A0C24246C485C5CE4B819
:10770000C2C25D9FD3D36EBDACACEF436262A6C470
:107710009191A8399595A431E4E437D379798BF226
:10772000E7E732D5C8C8438B3737596E6D6DB7DA86
:107730008D8D8C01D5D564B14E4ED29CA9A9E0495E
:107740006C6CB4D85656FAACF4F407F3EAEA25CFD9
:107750006565AFCA7A7A8EF4AEAEE94708081810AC
:10776000BABAD56F787888F025256F4A2E2E725CCC
:107770001C1C2438A6A6F157B4B4C773C6C65197CB
:10778000E8E823CBDDDD7CA174749CE81F1F213E5B
:107790004B4BDD96BDBDDC618B8B860D8A8A850FD8
:1077A000707090E03E3E427CB5B5C4716666AACC6E
:1077B0004848D89003030506F6F601F70E0E121C92
:1077C0006161A3C235355F6A5757F9AEB9B9D0695F
:1077D00086869117C1C158991D1D273A9E9EB927CB
:1077E000E1E138D9F8F813EB9898B32B1111332253
:1077F0006969BBD2D9D970A98E8E89079494A733B1
:107800009B9BB62D1E1E223C87879215E9E920C955
:10781000CECE49875555FFAA28287850DFDF7AA5B4
:107820008C8C8F03A1A1F859898980090D0D171A35
:10783000BFBFDA65E6E631D74242C6846868B8D091
:107840004141C3829999B0292D2D775A0F0F111EEE
:10785000B0B0CB7B5454FCA8BBBBD66D16163A2CEB
:1078600052096AD53036A538BF40A39E81F3D7FBB5
:107870007CE339829B2FFF87348E4344C4DEE9CBFF
:10788000547B9432A6C2233DEE4C950B42FAC34E74
:10789000082EA16628D924B2765BA2496D8BD1252A
:1078A00072F8F66486689816D4A45CCC5D65B692CE
:1078B0006C704850FDEDB9DA5E154657A78D9D8472
:1078C00090D8AB008CBCD30AF7E45805B8B3450692
:1078D000D02C1E8FCA3F0F02C1AFBD0301138A6BAC
:1078E0003A9111414F67DCEA97F2CFCEF0B4E673DC
:1078F00096AC7422E7AD3585E2F937E81C75DF6E8A
:1079000047F11A711D29C5896FB7620EAA18BE1BEF
:10791000FC563E4BC6D279209ADBC0FE78CD5AF495
:107920001FDDA8338807C731B11210592780EC5FDB
:1079300060517FA919B54A0D2DE57A9F93C99CEF37
:10794000A0E03B4DAE2AF5B0C8EBBB3C8353996138
:10795000172B047EBA77D626E169146355210C7D76
:1079600051F4A7507E4165531A17A4C33A275E9677
:107970003BAB6BCB1F9D45F1ACFA58AB4BE303938C
:107980002030FA55AD766DF688CC7691F5024C250F
:107990004FE5D7FCC52ACBD726354480B562A38FE7
:1079A000DEB15A4925BA1B6745EA0E985DFEC0E173
:1079B000C32F7502814CF0128D4697A36BD3F9C685
:1079C000038F5FE715929C95BF6D7AEB955259DA5C
:1079D000D4BE832D587421D349E069298EC9C84487
:1079E00075C2896AF48E797899583E6B27B971DD32
:1079F000BEE14FB6F088AD17C920AC667DCE3AB473
:107A000063DF4A18E51A31829751336062537F452C
:107A1000B16477E0BB6BAE84FE81A01CF9082B94A7
:107A2000704868588F45FD1994DE6C87527BF8B713
:107A3000AB73D323724B02E2E31F8F576655AB2A19
:107A4000B2EB28072FB5C20386C57B9AD33708A5AA
:107A5000302887F223BFA5B202036ABAED16825C12
:107A60008ACF1C2BA779B492F307F2F04E69E2A1FA
:107A700065DAF4CD0605BED5D134621FC4A6FE8AF0
:107A8000342E539DA2F355A0058AE132A4F6EB757E
:107A90000B83EC394060EFAA5E719F06BD6E1051FA
:107AA0003E218AF996DD063DDD3E05AE4DE6BD463A
:107AB00091548DB571C45D050406D46F605015FFF7
:107AC0001998FB24D6BDE997894043CC67D99E77A6
:107AD000B0E842BD07898B88E7195B3879C8EEDBCF
:107AE000A17C0A477C420FE9F8841EC9000000000F
:107AF00009808683322BED481E1170AC6C5A724E91
:107B0000FD0EFFFB0F8538563DAED51E362D3927AD
:107B10000A0FD964685CA6219B5B54D124362E3AA7
:107B20000C0A67B19357E70FB4EE96D21B9B919E58
:107B300080C0C54F61DC20A25A774B691C121A160F
:107B4000E293BA0AC0A02AE53C22E043121B171DAB
:107B50000E090D0BF28BC7AD2DB6A8B9141EA9C81E
:107B600057F11985AF75074CEE99DDBBA37F60FD1A
:107B7000F701269F5C72F5BC44663BC55BFB7E3417
:107B80008B432976CB23C6DCB6EDFC68B8E4F16301
:107B9000D731DCCA426385101397224084C6112076
:107BA000854A247DD2BB3DF8AEF93211C729A16DBB
:107BB0001D9E2F4BDCB230F30D8652EC77C1E3D023
:107BC0002BB3166CA970B999119448FA47E964224D
:107BD000A8FC8CC4A0F03F1A567D2CD8223390EF1D
:107BE00087494EC7D938D1C18CCAA2FE98D40B366A
:107BF000A6F581CFA57ADE28DAB78E263FADBFA4E1
:107C00002C3A9DE45078920D6A5FCC9B547E46627C
:107C1000F68D13C290D8B8E82E39F75E82C3AFF55F
:107C20009F5D80BE69D0937C6FD52DA9CF2512B3FF
:107C3000C8AC993B10187DA7E89C636EDB3BBB7B0F
:107C4000CD2678096E5918F4EC9AB701834F9AA89B
:107C5000E6956E65AAFFE67E21BCCF08EF15E8E643
:107C6000BAE79BD94A6F36CEEA9F09D429B07CD6B1
:107C700031A4B2AF2A3F2331C6A5943035A266C0E5
:107C8000744EBC37FC82CAA6E090D0B033A7D8159A
:107C9000F104984A41ECDAF77FCD500E1791F62F98
:107CA000764DD68D43EFB04DCCAA4D54E49604DF0B
:107CB0009ED1B5E34C6A881BC12C1FB84665517F25
:107CC0009D5EEA04018C355DFA877473FB0B412ECF
:107CD000B3671D5A92DBD252E91056336DD6471363
:107CE0009AD7618C37A10C7A59F8148EEB133C8922
:107CF000CEA927EEB761C935E11CE5ED7A47B13C65
:107D00009CD2DF5955F2733F1814CE7973C737BF31
:107D100053F7CDEA5FFDAA5BDF3D6F147844DB8645
:107D2000CAAFF381B968C43E3824342CC2A3405F83
:107D3000161DC372BCE2250C283C498BFF0D9541F2
:107D400039A80171080CB3DED8B4E49C6456C19024
:107D50007BCB8461D532B670486C5C74D0B8574226
:107D60005051F4A7537E4165C31A17A4963A275E73
:107D7000CB3BAB6BF11F9D45ABACFA58934BE30388
:107D8000552030FAF6AD766D9188CC7625F5024C0B
:107D9000FC4FE5D7D7C52ACB802635448FB562A3E3
:107DA00049DEB15A6725BA1B9845EA0EE15DFEC06F
:107DB00002C32F7512814CF0A38D4697C66BD3F981
:107DC000E7038F5F9515929CEBBF6D7ADA95525958
:107DD0002DD4BE83D35874212949E069448EC9C883
:107DE0006A75C28978F48E796B99583EDD27B9712E
:107DF000B6BEE14F17F088AD66C920ACB47DCE3A6F
:107E00001863DF4A82E51A31609751334562537F28
:107E1000E0B1647784BB6BAE1CFE81A094F9082BA3
:107E200058704868198F45FD8794DE6CB7527BF80F
:107E300023AB73D3E2724B0257E31F8F2A6655AB15
:107E400007B2EB28032FB5C29A86C57BA5D33708A6
:107E5000F2302887B223BFA5BA02036A5CED16820E
:107E60002B8ACF1C92A779B4F0F307F2A14E69E2F6
:107E7000CD65DAF4D50605BE1FD134628AC4A6FEEC
:107E80009D342E53A0A2F35532058AE175A4F6EB7A
:107E9000390B83ECAA4060EF065E719F51BD6E10F6
:107EA000F93E218A3D96DD06AEDD3E05464DE6BD36
:107EB000B591548D0571C45D6F0406D4FF605015F3
:107EC000241998FB97D6BDE9CC8940437767D99EA2
:107ED000BDB0E8428807898B38E7195BDB79C8EECB
:107EE00047A17C0AE97C420FC9F8841E000000000B
:107EF0008309808648322BEDAC1E11704E6C5A728D
:107F0000FBFD0EFF560F85381E3DAED527362D39A9
:107F1000640A0FD921685CA6D19B5B543A24362EA3
:107F2000B10C0A670F9357E7D2B4EE969E1B9B9154
:107F30004F80C0C5A261DC20695A774B161C121A0B
:107F40000AE293BAE5C0A02A433C22E01D121B17A7
:107F50000B0E090DADF28BC7B92DB6A8C8141EA91A
:107F60008557F1194CAF7507BBEE99DDFDA37F6016
:107F70009FF70126BC5C72F5C544663B345BFB7E13
:107F8000768B4329DCCB23C668B6EDFC63B8E4F1FD
:107F9000CAD731DC10426385401397222084C61172
:107FA0007D854A24F8D2BB3D11AEF9326DC729A1B7
:107FB0004B1D9E2FF3DCB230EC0D8652D077C1E31F
:107FC0006C2BB31699A970B9FA1194482247E96449
:107FD000C4A8FC8C1AA0F03FD8567D2CEF22339019
:107FE000C787494EC1D938D1FE8CCAA23698D40B66
:107FF000CFA6F58128A57ADE26DAB78EA43FADBFDD
:10800000E42C3A9D0D5078929B6A5FCC62547E4678
:10801000C2F68D13E890D8B85E2E39F7F582C3AF5B
:10802000BE9F5D807C69D093A96FD52DB3CF2512FB
:108030003BC8AC99A710187D6EE89C637BDB3BBB0B
:1080400009CD2678F46E591801EC9AB7A8834F9A97
:1080500065E6956E7EAAFFE60821BCCFE6EF15E83F
:10806000D9BAE79BCE4A6F36D4EA9F09D629B07CAD
:10807000AF31A4B2312A3F2330C6A594C035A266E1
:1080800037744EBCA6FC82CAB0E090D01533A7D896
:108090004AF10498F741ECDA0E7FCD502F1791F694
:1080A0008D764DD64D43EFB054CCAA4DDFE4960407
:1080B000E39ED1B51B4C6A88B8C12C1F7F46655121
:1080C000049D5EEA5D018C3573FA87742EFB0B41CB
:1080D0005AB3671D5292DBD233E91056136DD6475F
:1080E0008C9AD7617A37A10C8E59F81489EB133C1E
:1080F000EECEA92735B761C9EDE11CE53C7A47B161
:10810000599CD2DF3F55F273791814CEBF73C7372D
:10811000EA53F7CD5B5FFDAA14DF3D6F867844DB41
:1081200081CAAFF33EB968C42C3824345FC2A3407F
:1081300072161DC30CBCE2258B283C4941FF0D95EE
:108140007139A801DE080CB39CD8B4E4906456C120
:10815000617BCB8470D532B674486C5C42D0B85722
:10816000A75051F465537E41A4C31A175E963A276F
:108170006BCB3BAB45F11F9D58ABACFA03934BE384
:10818000FA5520306DF6AD76769188CC4C25F50207
:10819000D7FC4FE5CBD7C52A44802635A38FB562DF
:1081A0005A49DEB11B6725BA0E9845EAC0E15DFE6B
:1081B0007502C32FF012814C97A38D46F9C66BD37D
:1081C0005FE7038F9C9515927AEBBF6D59DA955254
:1081D000832DD4BE21D35874692949E0C8448EC97F
:1081E000896A75C27978F48E3E6B995871DD27B92A
:1081F0004FB6BEE1AD17F088AC66C9203AB47DCE6B
:108200004A1863DF3182E51A336097517F45625324
:1082100077E0B164AE84BB6BA01CFE812B94F9089F
:1082200068587048FD198F456C8794DEF8B7527B0B
:10823000D323AB7302E2724B8F57E31FAB2A665511
:108240002807B2EBC2032FB57B9A86C508A5D337A2
:1082500087F23028A5B223BF6ABA0203825CED160A
:108260001C2B8ACFB492A779F2F0F307E2A14E69F2
:10827000F4CD65DABED50605621FD134FE8AC4A6E8
:10828000539D342E55A0A2F3E132058AEB75A4F676
:10829000EC390B83EFAA40609F065E711051BD6EF2
:1082A0008AF93E21063D96DD05AEDD3EBD464DE632
:1082B0008DB591545D0571C4D46F040615FF6050EF
:1082C000FB241998E997D6BD43CC89409E7767D99E
:1082D00042BDB0E88B8807895B38E719EEDB79C8C7
:1082E0000A47A17C0FE97C421EC9F8840000000007
:1082F00086830980ED48322B70AC1E11724E6C5A89
:10830000FFFBFD0E38560F85D51E3DAE3927362DA5
:10831000D9640A0FA621685C54D19B5B2E3A24369F
:1083200067B10C0AE70F935796D2B4EE919E1B9B50
:10833000C54F80C020A261DC4B695A771A161C1207
:10834000BA0AE2932AE5C0A0E0433C22171D121BA3
:108350000D0B0E09C7ADF28BA8B92DB6A9C8141E16
:10836000198557F1074CAF75DDBBEE9960FDA37F12
:10837000269FF701F5BC5C723BC544667E345BFB0F
:1083800029768B43C6DCCB23FC68B6EDF163B8E4F9
:10839000DCCAD7318510426322401397112084C66E
:1083A000247D854A3DF8D2BB3211AEF9A16DC729B3
:1083B0002F4B1D9E30F3DCB252EC0D86E3D077C11B
:1083C000166C2BB3B999A97048FA1194642247E945
:1083D0008CC4A8FC3F1AA0F02CD8567D90EF223315
:1083E0004EC78749D1C1D938A2FE8CCA0B3698D462
:1083F00081CFA6F5DE28A57A8E26DAB7BFA43FADD9
:108400009DE42C3A920D5078CC9B6A5F4662547E74
:1084100013C2F68DB8E890D8F75E2E39AFF582C357
:1084200080BE9F5D937C69D02DA96FD512B3CF25F7
:10843000993BC8AC7DA71018636EE89CBB7BDB3B07
:108440007809CD2618F46E59B701EC9A9AA8834F93
:108450006E65E695E67EAAFFCF0821BCE8E6EF153B
:108460009BD9BAE736CE4A6F09D4EA9F7CD629B0A9
:10847000B2AF31A423312A3F9430C6A566C035A2DD
:10848000BC37744ECAA6FC82D0B0E090D81533A792
:10849000984AF104DAF741EC500E7FCDF62F179190
:1084A000D68D764DB04D43EF4D54CCAA04DFE49603
:1084B000B5E39ED1881B4C6A1FB8C12C517F46651D
:1084C000EA049D5E355D018C7473FA87412EFB0BC7
:1084D0001D5AB367D25292DB5633E91047136DD65B
:1084E000618C9AD70C7A37A1148E59F83C89EB131A
:1084F00027EECEA9C935B761E5EDE11CB13C7A475D
:10850000DF599CD2733F55F2CE79181437BF73C729
:10851000CDEA53F7AA5B5FFD6F14DF3DDB8678443D
:10852000F381CAAFC43EB968342C3824405FC2A37B
:10853000C372161D250CBCE2498B283C9541FF0DEA
:10854000017139A8B3DE080CE49CD8B4C19064561C
:1085500084617BCBB670D5325C74486C5742D0B81E
:10856000F4A750514165537E17A4C31A275E963A6B
:10857000AB6BCB3B9D45F11FFA58ABACE303934B80
:1085800030FA5520766DF6ADCC769188024C25F503
:10859000E5D7FC4F2ACBD7C53544802662A38FB5DB
:1085A000B15A49DEBA1B6725EA0E9845FEC0E15D67
:1085B0002F7502C34CF012814697A38DD3F9C66B79
:1085C0008F5FE703929C95156D7AEBBF5259DA9550
:1085D000BE832DD47421D358E0692949C9C8448E7B
:1085E000C2896A758E7978F4583E6B99B971DD2726
:1085F000E14FB6BE88AD17F020AC66C9CE3AB47D67
:10860000DF4A18631A3182E551336097537F456220
:108610006477E0B16BAE84BB81A01CFE082B94F99B
:108620004868587045FD198FDE6C87947BF8B75207
:1086300073D323AB4B02E2721F8F57E355AB2A660D
:10864000EB2807B2B5C2032FC57B9A863708A5D39E
:108650002887F230BFA5B223036ABA0216825CED06
:10866000CF1C2B8A79B492A707F2F0F369E2A14EEE
:10867000DAF4CD6505BED50634621FD1A6FE8AC4E4
:108680002E539D34F355A0A28AE13205F6EB75A472
:1086900083EC390B60EFAA40719F065E6E1051BDEE
:1086A000218AF93EDD063D963E05AEDDE6BD464D2E
:1086B000548DB591C45D057106D46F045015FF60EB
:1086C00098FB2419BDE997D64043CC89D99E77679A
:1086D000E842BDB0898B8807195B38E7C8EEDB79C3
:1086E0007C0A47A1420FE97C841EC9F80000000003
:1086F000808683092BED48321170AC1E5A724E6C85
:108700000EFFFBFD8538560FAED51E3D2D392736A1
:108710000FD9640A5CA621685B54D19B362E3A249B
:108720000A67B10C57E70F93EE96D2B49B919E1B4C
:10873000C0C54F80DC20A261774B695A121A161C03
:1087400093BA0AE2A02AE5C022E0433C1B171D129F
:10875000090D0B0E8BC7ADF2B6A8B92D1EA9C81412
:10876000F119855775074CAF99DDBBEE7F60FDA30E
:1087700001269FF772F5BC5C663BC544FB7E345B0B
:108780004329768B23C6DCCBEDFC68B6E4F163B8F5
:1087900031DCCAD76385104297224013C61120846A
:1087A0004A247D85BB3DF8D2F93211AE29A16DC7AF
:1087B0009E2F4B1DB230F3DC8652EC0DC1E3D07717
:1087C000B3166C2B70B999A99448FA11E964224741
:1087D000FC8CC4A8F03F1AA07D2CD8563390EF2211
:1087E000494EC78738D1C1D9CAA2FE8CD40B36985E
:1087F000F581CFA67ADE28A5B78E26DAADBFA43FD5
:108800003A9DE42C78920D505FCC9B6A7E46625470
:108810008D13C2F6D8B8E89039F75E2EC3AFF58253
:108820005D80BE9FD0937C69D52DA96F2512B3CFF3
:10883000AC993BC8187DA7109C636EE83BBB7BDB03
:10884000267809CD5918F46E9AB701EC4F9AA8838F
:10885000956E65E6FFE67EAABCCF082115E8E6EF37
:10886000E79BD9BA6F36CE4A9F09D4EAB07CD629A5
:10887000A4B2AF313F23312AA59430C6A266C035D9
:108880004EBC377482CAA6FC90D0B0E0A7D815338E
:1088900004984AF1ECDAF741CD500E7F91F62F178C
:1088A0004DD68D76EFB04D43AA4D54CC9604DFE4FF
:1088B000D1B5E39E6A881B4C2C1FB8C165517F4619
:1088C0005EEA049D8C355D01877473FA0B412EFBC3
:1088D000671D5AB3DBD25292105633E9D647136D57
:1088E000D7618C9AA10C7A37F8148E59133C89EB16
:1088F000A927EECE61C935B71CE5EDE147B13C7A59
:10890000D2DF599CF2733F5514CE7918C737BF7325
:10891000F7CDEA53FDAA5B5F3D6F14DF44DB867839
:10892000AFF381CA68C43EB924342C38A3405FC277
:108930001DC37216E2250CBC3C498B280D9541FFE6
:10894000A80171390CB3DE08B4E49CD856C1906418
:10895000CB84617B32B670D56C5C7448B85742D01A
:1089600001000000020000000400000008000000F8
:108970001000000020000000400000008000000007
:108980001B0000003600000002000000D50D0000B2
:10899000A10D0000B10D0000C30D0000190E000074
:1089A000150E0000D90D0000FD0D000002010000B1
:1089B00080000000EC9D000010000000000000009E
:1089C000100000008889000003010000C0000000C2
:1089D000F89D0000100000000000000010000000E2
:1089E000888900000401000000010000049E0000CE
:1089F0001000000000000000100000008889000046
:108A00000502000080000000109E00001000000021
:108A1000000000001000000088890000060200002D
:108A2000C00000001C9E00001000000000000000BC
:108A3000100000008889000007020000000100000B
:108A4000289E000010000000000000001000000040
:108A5000888900000803000080000000349E0000A8
:108A600010000000000000001000000088890000D5
:108A700009030000C0000000449E00001000000038
:108A80000000000010000000888900000A030000B8
:108A900000010000549E00001000000000000000D3
:108AA00010000000888900000B0500008000000015
:108AB000649E000010000000000000001000000094
:108AC000888900000C050000C0000000709E0000B6
:108AD0001000000000000000100000008889000065
:108AE0000D050000000100007C9E00001000000049
:108AF0000000000010000000888900000200000053
:108B00000000000000000000000000000000000065
:108B10000D1900000D190000191900003919000085
:108B20000E06000080000000889E00000C0000007F
:108B30000100000010000000FC8A00000F06000089
:108B4000C0000000949E00000C0000000100000026
:108B500010000000FC8A0000100600000001000068
:108B6000A09E00000C0000000100000010000000AA
:108B7000FC8A00000200000000000000000000006D
:108B80000000000000000000A5150000A515000071
:108B9000B1150000CD1500002B080000800000007A
:108BA000AC9E00000C00000001000000100000005E
:108BB000748B00002C080000C0000000B89E00006C
:108BC0000C0000000100000010000000748B000089
:108BD0002D08000000010000C49E00000C000000F1
:108BE0000100000010000000748B00000200000073
:108BF000AC89000003000000C889000004000000E8
:108C0000E489000005000000008A00000600000062
:108C10001C8A000007000000388A000008000000DD
:108C2000548A000009000000708A00000A00000059
:108C30008C8A00000B000000A88A00000C000000D5
:108C4000C48A00000D000000E08A00000E00000051
:108C5000208B00000F0000003C8B00001000000083
:108C6000588B00002B000000988B00002C000000A7
:108C7000B48B00002D000000D08B0000000000002D
:108C800000000000000000000000000000000000E4
:108C9000201C000000000000403800000000000020
:108CA0006024000000000000807000000000000050
:108CB000A06C000000000000C048000000000000A0
:108CC000E05400000000000000E10000000000008F
:108CD00020FD00000000000040D90000000000005E
:108CE00060C500000000000080910000000000004E
:108CF000A08D000000000000C0A9000000000000DE
:108D0000E0B500000000000000404040404040400E
:108D1000404041414141414040404040404040404E
:108D200040404040404040404005020202020202F2
:108D30000202020202020202022020202020202041
:108D40002020200202020202020290909090909055
:108D50001010101010101010101010101010101013
:108D60001010101002020202020288888888888887
:108D70000808080808080808080808080808080873
:108D8000080808080202020240000000098D0000E5
:108D900052657365656420726571756972656420DA
:108DA0002872657365656420636F756E74657220E3
:108DB0006F766572666C6F77656429004D657373B5
:108DC0006167652070616464696E67206973206300
:108DD0006F727275707465642E0000004F6E6520AE
:108DE0006F72206D6F7265206F66207468652069F0
:108DF0006E70757420617267756D656E7473206630
:108E00006F7220746869732066756E6374696F6E23
:108E100020776173204E554C4C0000004F6E65204A
:108E20006F72206D6F7265206F6620746865206FA9
:108E3000757470757420617267756D656E747320DA
:108E4000666F7220746869732066756E6374696FEB
:108E50006E20776173204E554C4C0000496E707542
:108E6000742064617461206E6F7420696E205241B9
:108E70004D000000496E697469616C697A617469BA
:108E80006F6E206F722073746172747570206F66DC
:108E900020524E47206661696C656400412072650E
:108EA000717569726564206D656D6F727920616C92
:108EB0006C6F636174696F6E206661696C656400D4
:108EC000537461636B206F766572666C6F77206494
:108ED0006574656374656400454343206B65792060
:108EE000776173206E6F7420696E697469616C6953
:108EF0007A656400546865206C656E677468206FDD
:108F000066206F6E65206F72206D6F7265206F66D0
:108F10002074686520696E70757420617267756D64
:108F2000656E74732077617320696E76616C696415
:108F30000000000050726F7669646564206B65798B
:108F400020697320696E76616C69640053697A6583
:108F5000206F6620746865206B6579206973206EC8
:108F60006F7420737570706F7274656420627920FD
:108F700063686F6F73656E206261636B656E64001A
:108F800053697A65206F6620746865204D414320DF
:108F90002874616729206973206E6F74207375705F
:108FA000706F7274656420696E2074686973204103
:108FB000454144206D6F64650000000053697A6587
:108FC000206F6620746865206E6F6E63652069731C
:108FD000206E6F7420737570706F72746564206991
:108FE0006E20746869732041454144206D6F64654B
:108FF000000000005468652066756E6374696F6ECA
:10900000207761732063616C6C6564207769746894
:1090100020612066656174757265207468617420D2
:10902000697320756E617661696C61626C650000C0
:109030005468652066756E6374696F6E20636F7522
:109040006C64206E6F742062652063616C6C656473
:109050002062656361757365207468652063727949
:1090600070746F206261636B656E6420776173203A
:10907000627573792E20506C65617365207265721C
:10908000756E207468652063727970746F677261A1
:109090007068696320726F7574696E6520617420F1
:1090A00061206C617465722074696D650000000058
:1090B0005369676E61747572652076657269666959
:1090C000636174696F6E20636865636B207265709D
:1090D0006F7274656420696E76616C69642073696F
:1090E000676E61747572650041206E756C6C2070DE
:1090F0006F696E746572207761732070726F766924
:1091000064656420666F722074686520636F6E7496
:1091100065787420737472756374757265000000ED
:10912000546865206C656E677468206F662074688B
:1091300065206F6E65206F72206D6F7265206F7590
:109140007470757420617267756D656E74732077C5
:10915000617320746F6F20736D616C6C0000000090
:109160006E72665F63727970746F5F696E69742086
:10917000776173206E6F742063616C6C656420701E
:1091800072696F7220746F207468697320637279DA
:1091900070746F2066756E6374696F6E00000000F6
:1091A000416E20696E7465726E616C206572726FBB
:1091B00072206F63637572726564207768656E20D4
:1091C00063616C6C696E6720746869732066756E84
:1091D0006374696F6E0000005075626C6963206192
:1091E0006E642070726976617465206B6579207099
:1091F000726F766964656420746F2045434448202B
:109200006861766520646966666572656E7420744F
:1092100079706573206F66206375727665730000E0
:10922000496E76616C696420636F6D62696E61740A
:10923000696F6E206F6620696E7075742070617240
:10924000616D65746572730054686520636F6E7438
:1092500065787420776173206E6F7420696E69740D
:1092600069616C697A6564207072696F7220746FCD
:1092700020746869732063616C6C206F722069745C
:109280002077617320636F727275707465642E202D
:10929000506C656173652063616C6C207468652037
:1092A000636F72726573706F6E64696E6720696E4A
:1092B00069742066756E6374696F6E20666F7220C4
:1092C00074686520616C676F726974686D20746F73
:1092D00020696E697469616C697A6520697400003F
:1092E0004D4143206E6F74206D61746368696E67D1
:1092F00020656E637279707465642074657874009B
:109300002E2E5C2E2E5C2E2E5C2E2E5C2E2E5C2E97
:109310002E5C2E2E5C2E2E5C636F6D706F6E656EF4
:1093200074735C6C69627261726965735C7574698F
:109330006C5C6170705F7574696C5F706C61746691
:109340006F726D2E6300000044617461206275735A
:10935000206572726F72202872657475726E20615A
:1093600064647265737320696E2074686520737419
:1093700061636B206672616D65206973206E6F7426
:109380002072656C6174656420746F207468652058
:10939000696E737472756374696F6E20746861743A
:1093A0002063617573656420746865206572726FEF
:1093B00072290000446174612062757320657272C5
:1093C0006F72202850432076616C7565207374613C
:1093D000636B656420666F722074686520657863CE
:1093E000657074696F6E2072657475726E20706F2F
:1093F000696E747320746F2074686520696E73746D
:1094000072756374696F6E2074686174206361752E
:1094100073656420746865206661756C742900004A
:1094200043617573653A204275734661756C7420AB
:109430006F6E206120766563746F72207461626C58
:1094400065207265616420647572696E6720657855
:1094500063657074696F6E2070726F636573736992
:109460006E672E005468652070726F636573736F4A
:109470007220686173206578656375746564206126
:109480006E2053444956206F722055444956206936
:109490006E737472756374696F6E20776974682077
:1094A000612064697669736F72206F6620300000F6
:1094B0005468652070726F636573736F72206861A2
:1094C0007320617474656D7074656420746F2065B9
:1094D00078656375746520616E20696E737472754A
:1094E0006374696F6E2074686174206D616B65735D
:1094F00020696C6C6567616C20757365206F6620F0
:10950000746865204550535200000000546865207F
:1095100070726F636573736F72206861732061741A
:1095200074656D7074656420616E20696C6C65672C
:10953000616C206C6F6164206F66204558435F52F8
:10954000455455524E20746F207468652050432C4A
:10955000206173206120726573756C74206F6620C2
:10956000616E20696E76616C696420636F6E7465EC
:1095700078742C206F7220616E20696E76616C6940
:1095800064204558435F52455455524E2076616CD5
:10959000756500005468652070726F636573736F42
:1095A0007220617474656D707465642061206C6FE5
:1095B0006164206F722073746F7265206174206122
:1095C000206C6F636174696F6E20746861742064CD
:1095D0006F6573206E6F74207065726D697420748E
:1095E0006865206F7065726174696F6E00000000BD
:1095F00041204D656D4D616E616765206661756CDA
:1096000074206F6363757272656420647572696E2D
:109610006720666C6F6174696E672D706F696E7418
:10962000206C617A7920737461746520707265733F
:109630006572766174696F6E00000000412062758A
:1096400073206661756C74206F63637572726564F4
:1096500020647572696E6720666C6F6174696E67ED
:109660002D706F696E74206C617A792073746174E7
:109670006520707265736572766174696F6E000043
:109680005468652070726F636573736F72206861D0
:109690007320617474656D7074656420746F2065E7
:1096A00078656375746520616E20756E64656669A2
:1096B0006E656420696E737472756374696F6E0091
:1096C000496E737472756374696F6E20627573206E
:1096D0006572726F720000005468652070726F636B
:1096E0006573736F722068617320617474656D7047
:1096F00074656420746F20616363657373206120F7
:10970000636F70726F636573736F7200556E7374FD
:1097100061636B20666F7220616E2065786365708F
:1097200074696F6E2072657475726E206861732043
:10973000636175736564206F6E65206F72206D6F55
:109740007265206163636573732076696F6C617401
:10975000696F6E7300000000537461636B696E671C
:1097600020666F7220616E20657863657074696F22
:109770006E20656E74727920686173206361757301
:109780006564206F6E65206F72206D6F7265206159
:1097900063636573732076696F6C6174696F6E7350
:1097A000000000005468652070726F636573736F0A
:1097B0007220686173206D61646520616E20756E32
:1097C000616C69676E6564206D656D6F727920618B
:1097D0006363657373000000556E737461636B207F
:1097E000666F7220616E20657863657074696F6E54
:1097F0002072657475726E20686173206361757381
:109800006564206F6E65206F72206D6F72652042F7
:1098100075734661756C7473000000005374616366
:109820006B696E6720666F7220616E206578636574
:109830007074696F6E20656E747279206861732030
:10984000636175736564206F6E65206F72206D6F44
:109850007265204275734661756C74730000000078
:109860002E2E5C2E2E5C2E2E5C2E2E5C2E2E5C2E32
:109870002E5C2E2E5C2E2E5C636F6D706F6E656E8F
:1098800074735C6C69627261726965735C62616C4D
:109890006C6F635C6E72665F62616C6C6F632E638B
:1098A000000000002E2E5C2E2E5C2E2E5C2E2E5CD8
:1098B0002E2E5C2E2E5C2E2E5C2E2E5C636F6D7019
:1098C0006F6E656E74735C6C6962726172696573E8
:1098D0005C6D656D6F626A5C6E72665F6D656D6F03
:1098E000626A2E63000000004E52465F4552524F9E
:1098F000525F494E56414C49445F44415441000037
:109900004E52465F4552524F525F534F4654444564
:10991000564943455F4E4F545F454E41424C454486
:10992000000000004E52465F4552524F525F46457E
:1099300041545552455F4E4F545F454E41424C4550
:10994000440000004E52465F4552524F525F4D5503
:109950005445585F554E4C4F434B5F4641494C452B
:10996000440000004E52465F4552524F525F4D55E3
:109970005445585F4C4F434B5F4641494C4544006A
:109980004E52465F4552524F525F4D555445585FB7
:10999000434F4E445F494E49545F4641494C45440C
:1099A000000000004E52465F4552524F525F4D55E7
:1099B0005445585F494E49545F4641494C4544001F
:1099C0004E52465F4552524F525F424C455F49509E
:1099D00053505F52585F504B545F5452554E434161
:1099E000544544004E52465F4552524F525F424CDE
:1099F000455F495053505F504545525F52454A4577
:109A000043544544000000004E52465F4552524FB9
:109A1000525F424C455F495053505F4C494E4B5F3B
:109A2000444953434F4E4E454354454400000000C3
:109A30004E52465F4552524F525F4150495F4E4F22
:109A4000545F494D504C454D454E5445440000002F
:109A50004E52465F4552524F525F4E4F545F5355E0
:109A600050504F52544544004E52465F4552524F5B
:109A7000525F4D4F44554C455F4E4F545F494E49E0
:109A80005449414C495A4544000000004E52465F3B
:109A90004552524F525F4D4F44554C455F414C52D9
:109AA000454144595F494E495449414C495A4544FE
:109AB000000000004E52465F4552524F525F4E4FDB
:109AC000545F464F554E44004E52465F4552524FEA
:109AD000525F494E56414C49445F535441544500EE
:109AE0004E52465F4552524F525F444154415F537C
:109AF000495A45004E52465F4552524F525F494FB8
:109B00005F50454E44494E47000000004E52465FAC
:109B10004552524F525F5356435F48414E444C4565
:109B2000525F4D495353494E470000004E52465F25
:109B30004552524F525F494E56414C49445F4C4545
:109B40004E475448000000004E52465F4552524F67
:109B5000525F4452565F5457495F4552525F414EDF
:109B600041434B004E52465F4552524F525F445262
:109B7000565F5457495F4552525F444E41434B0034
:109B80004E52465F4552524F525F494E5445524ED7
:109B9000414C00004E52465F4552524F525F535463
:109BA0004F524147455F46554C4C00004E52465F70
:109BB0004552524F525F4E554C4C00004E52465F3C
:109BC0004552524F525F494E56414C49445F5041B5
:109BD00052414D004E52465F4552524F525F4E4FDA
:109BE0005F4D454D000000004E52465F4552524FBA
:109BF000525F464F5242494444454E004E52465FE2
:109C00004552524F525F4452565F5457495F455236
:109C1000525F4F56455252554E0000004E52465F1D
:109C20004552524F525F494E56414C49445F414460
:109C3000445200004E52465F4552524F525F494EC9
:109C400056414C49445F464C414753004E52465F93
:109C500053554343455353004E52465F4552524F6E
:109C6000525F424C455F495053505F4348414E4E0E
:109C7000454C5F414C52454144595F455849535406
:109C8000530000004E52465F4552524F525F5449B6
:109C90004D454F55540000004E52465F4552524FBD
:109CA000525F4255535900002E2E5C2E2E5C2E2EF4
:109CB0005C2E2E5C2E2E5C2E2E5C2E2E5C2E2E5CB0
:109CC000636F6D706F6E656E74735C6C69627261E8
:109CD000726965735C6C6F675C7372635C6E7266ED
:109CE0005F6C6F675F6261636B656E645F75617205
:109CF000742E63002E2E5C2E2E5C2E2E5C2E2E5C7F
:109D00002E2E5C2E2E5C2E2E5C2E2E5C636F6D70C4
:109D10006F6E656E74735C6C696272617269657393
:109D20005C6C6F675C7372635C6E72665F6C6F67AE
:109D30005F64656661756C745F6261636B656E64B8
:109D4000732E63002E2E5C2E2E5C2E2E5C2E2E5C2F
:109D50002E2E5C2E2E5C2E2E5C2E2E5C636F6D7074
:109D60006F6E656E74735C6C696272617269657343
:109D70005C6C6F675C7372635C6E72665F6C6F675E
:109D80005F66726F6E74656E642E63007761726ECB
:109D9000696E670064656275670000001B5B313B9C
:109DA00033306D001B5B306D000000001B5B313BEE
:109DB00033316D001B5B313B33326D001B5B313B3C
:109DC00033336D001B5B313B33346D001B5B313B28
:109DD00033356D001B5B313B33366D001B5B313B14
:109DE00033376D00696E666F000000004145532DEA
:109DF0003132382D454342004145532D3139322D02
:109E0000454342004145532D3235362D45434200EE
:109E10004145532D3132382D434243004145532DA6
:109E20003139322D434243004145532D3235362DD1
:109E3000434243004145532D3132382D4346423190
:109E4000323800004145532D3139322D43464231DD
:109E5000323800004145532D3235362D43464231CC
:109E6000323800004145532D3132382D43545200D1
:109E70004145532D3139322D435452004145532D24
:109E80003235362D435452004145532D3132382D51
:109E900047434D004145532D3139322D47434D0045
:109EA0004145532D3235362D47434D004145532D05
:109EB0003132382D43434D004145532D3139322D38
:109EC00043434D004145532D3235362D43434D001C
:109ED000636C6F636B000000726E6700434C4F430E
:109EE0004B0000004750494F54450000505253006A
:109EF000524E470055415254000000005541525403
:109F0000450000006170705F627574746F6E0000D0
:109F10006170705F74696D657200000068617264E1
:109F20006661756C740000006D656D5F6D6E6772C3
:109F300000000000736F72746C697374000000009D
:109F40007274745F6C6F675F6261636B656E6400EF
:109F5000756172745F6C6F675F6261636B656E647D
:109F6000000000006170700050A0000000000020A0
:109F7000F00100003804000038A10000F0010020CA
:109F8000F8590000460D0000F12D0000092E0000D8
:109F9000D1430000D94300000C670000000000001E
:109FA000409F00007C0100202867000000000000A6
:109FB000509F000084010020D09E0000000000009F
:109FC000D89E000000000000DC9E000000000000A1
:109FD000E49E000000000000EC9E00000000000075
:109FE000F09E000000000000F49E00000000000051
:109FF000FC9E000000000000049F00000000000024
:10A00000109F0000000000001C9F000000000303E0
:10A01000289F000000000000349F000000000000A6
:10A02000649F000000000303940100208C010020C5
:10A0300094010020E40D0020180000008C03002093
:10A040004803002040000000010000000000000064
:10A0500018354E4F524449432053454D49434F4EC6
:10A06000445543544F52414553264D414320544596
:10A0700053544578616D706C6520737472696E67B6
:10A080002064656D6F6E0C2B61740E19291E2043C0
:10A0900042435F2D0019242E205465787420697383
:10A0A000203634206279746573206C6F6E672E00E1
:10A0B000115C254289D6109CC43B8C0ACF52EBB967
:10A0C0003324238096639495230C971A58045AF0EE
:10A0D00010411AC02023B4931A48041AD81C231C18
:10A0E000981A3C14A9401BB0943C19349AD8188192
:10A0F0001AA4341A642001151220BA400831DAFF7C
:10A100000801181AD06C238C9D1AE4041A94041ABE
:10A11000A4041A9C041AAC041AB4041ABC041AC489
:10A12000041ACC041AD4041ADC0423F70333BD1830
:08A130001B90D00A6100000041
:0400000500000201F4
:00000001FF
