:020000040000FA
:1000000008340020F5040000FD0400001503000082
:1000100001050000030500000505000000000000C8
:1000200000000000000000000000000007050000C4
:1000300009050000000000000B0500000D05000090
:10004000B91000000F050000751200000F05000038
:100050000F0500000F050000DD0C00000F0500007B
:100060000F0500000F0500000F0500000F05000040
:100070000F0500000F0500000F0500000F05000030
:100080000F050000C91000000F0500000F0500005B
:100090000F0500000F0500000F0500000F05000010
:1000A0000F0500000F0500000F0500000F05000000
:1000B0000F0500000F050000000000000000000018
:1000C0000F0500000F0500000F0500000F050000E0
:1000D0000F0500000F0500000F050000CD12000005
:1000E0000F050000000000000000000000000000FC
:1000F000000000000F050000000000000F050000D8
:1001000000000000000000000000000000000000EF
:1001100000000000000000000000000000000000DF
:1001200000000000000000000000000000000000CF
:1001300000000000000000000000000000000000BF
:1001400000000000000000000000000000000000AF
:10015000000000000000000000000000000000009F
:10016000000000000000000000000000000000008F
:10017000000000000000000000000000000000007F
:10018000000000000000000000000000000000006F
:10019000000000000000000000000000000000005F
:1001A000000000000000000000000000000000004F
:1001B000000000000000000000000000000000003F
:1001C000000000000000000000000000000000002F
:1001D000000000000000000000000000000000001F
:1001E000000000000000000000000000000000000F
:1001F00000000000000000000000000000000000FF
:10020000DFF80CD000F096FB004800472D7400008A
:100210000834002030B4044654E8000F0D4644E88A
:100220000053002BF8D1156030BC704730B4044641
:1002300054E8000F40EA010544E80053002BF7D1D1
:10024000156030BC704730B4044654E8000F00EA33
:10025000010544E80053002BF7D1156030BC70470E
:1002600030B4044654E8000F80EA010544E8005326
:10027000002BF7D1156030BC704730B4044654E809
:10028000000F00EB010544E80053002BF7D1156087
:1002900030BC704730B4044654E8000FA0EB0105B1
:1002A00044E80053002BF7D1156030BC704770B4A0
:1002B00004464FF0000054E8006F0D68AE4207BFDF
:1002C00044E80023012044E800630E60002B1CBFBB
:1002D0000020F0E770BC704730B4044654E8000FCB
:1002E00088422CBF451A054644E80053002BF5D13F
:1002F000156030BC7047000000B583B002900091DB
:10030000019244F2010071466A4601F02DF903B0F2
:1003100000BD0000094B1EF0040F1CBFEFF3098065
:100320001847EFF308800649064A884201D89042F0
:1003300002D88D464FF0000018470000910E0000D3
:10034000083400200814002030B450E8012F93B284
:10035000C48923448489A34228BF1B1B0489A34268
:1003600002BFBFF32F8F002007E0C3EA020340E87B
:100370000134002CE9D14FF001000A6030BC704715
:1003800050E8012FC2EA024240E801210029F7D1DA
:10039000704730B450E8022F1FFAA2F3C488A3427A
:1003A00002BFBFF32F8F00200DE0C489234484894E
:1003B000A34228BF1B1BC2EA034340E80234002CBF
:1003C000E8D14FF001000A6030BC704750E8022FBE
:1003D000C2EA224240E802210029F7D170470346D1
:1003E00053E8022FD988B2EB324F4FF0000017BF0D
:1003F00092B241EA014142EA014104E05A68B2EB9B
:10040000324F08BF012043E80212002AE8D17047AA
:1004100030B4044654E8000F0D4644E80053002B66
:10042000F8D1156030BC704730B4044654E8000F72
:1004300040EA010544E80053002BF7D1156030BCB9
:10044000704730B4044654E8000F00EA010544E860
:100450000053002BF7D1156030BC704730B4044610
:1004600054E8000F80EA010544E80053002BF7D15F
:10047000156030BC704730B4044654E8000F00EB00
:10048000010544E80053002BF7D1156030BC7047DC
:1004900030B4044654E8000FA0EB010544E80053D3
:1004A000002BF7D1156030BC704770B404464FF094
:1004B000000054E8006F0D68AE4207BF44E8002317
:1004C000012044E800630E60002B1CBF0020F0E711
:1004D00070BC704730B4044654E8000F88422CBF0B
:1004E000451A054644E80053002BF5D1156030BC91
:1004F000704700000648804706480047FEE7FEE7D1
:10050000FEE7FEE7FEE7FEE7FEE7FEE7FEE7FEE7C3
:10051000D9100000010200002DE9F05F054600201F
:1005200092469B4688460646814640241BE0284664
:1005300041464746224600F0ABF953465A46C01A98
:10054000914110D311461846224600F016F82D1A94
:1005500067EB01084F4622460120002100F00DF80C
:1005600017EB00094E41201EA4F10104DFDC4846D0
:1005700031462A464346BDE8F09F202A04DB203A54
:1005800000FA02F1002070479140C2F1200320FAE6
:1005900003F3194390407047004870478CF5000002
:1005A00010B50446FFF7F8FF0068005D00F0010099
:1005B00010BD2DE9FE43994615468846074601AC15
:1005C000022942D3002D40D000200290A8F1010062
:1005D0004FF0FF36009022E000FB057201FB057032
:1005E00011464A469047002805DC54F8260030445E
:1005F00044F8260013E060682A4600FB057154F8B1
:10060000040C00FB057007E00B7890F800C001F8BF
:1006100001CB00F8013B521E002AF5D1764254F876
:10062000040C61688842D7DC4B462A463846FFF7FF
:10063000C0FF54F8040C4B46A8EB0001401C00FB23
:1006400005702A46491EFFF7B4FFBDE8FE8310B5CA
:10065000431A934209D28318881803E010F8011D49
:1006600003F8011D521EF9D210BD40EA01039B0799
:1006700003D009E008C9121F08C0042AFAD203E017
:1006800011F8013B00F8013B521EF9D210BDD2B265
:1006900001E000F8012B491EFBD270470022F6E76B
:1006A00010B513460A4604461946FFF7F0FF2046E8
:1006B00010BD421C10F8011B0029FBD1801A7047A5
:1006C00010B5002200E0521C835C8C5CA34201D177
:1006D000002BF8D1D8B2E1B2401A10BD034611F890
:1006E000012B00F8012B002AF9D11846704730B5CC
:1006F00005460020034600E05B1C934205D2EC5CFB
:10070000C85C201A01D1002CF6D130BD0FB400B561
:100710008DB010A909900B9000914FF0FF300A9016
:1007200000200C9005480690054807906A4609A8E5
:100730000F9900F0D1F80DB05DF814FBF50800003A
:10074000130900002DE9FF5F1D464FF0FF3BD5E97F
:10075000014691465F464FF00008A9697F1C019849
:100760008847296A824688470028F6D1BAF1FF3FB8
:100770000CD024F4C064002E19DD600614D5BAF143
:100780002B0F09D0BAF12D0F0ED103E0584604B05B
:10079000BDE8F09F44F48064A9697F1C01988847F4
:1007A000761E8246002E02DDBAF1300F03D0B9F179
:1007B000000F26D032E0A969761E44F400747F1C35
:1007C000019888478246002E05DDBAF1780F06D0E1
:1007D000BAF1580F03D0B9F1000F10D01EE0B9F1F3
:1007E000000F02D0B9F1100F18D1A969761E24F4B8
:1007F00000747F1C019888478246102002E0082080
:1008000000E00A20814609E008FB0908A969761E74
:1008100044F400747F1C019888478246002E05DD51
:100820004946504600F044F80028EDDAE96901989D
:100830008847A00502D46FF00100A8E7E00725D1A2
:10084000600613D5600502D5C8F1000000E04046FF
:1008500029680A1D2A600968220501D5087015E07B
:10086000220701D5088011E008600FE02868011D0B
:1008700029600068210502D580F8008006E0210784
:1008800002D5A0F8008001E0C0F8008038467EE77D
:10089000202A04DB203A21FA02F00021704721FAD5
:1008A00002F3D040C2F1200291400843194670473C
:1008B0003A2800D2303820F02002412A01D3A2F198
:1008C0003700884201D34FF0FF307047026811446F
:1008D0001378016018467047D1600449516104499A
:1008E000116200211161114600F036B8CD080000F8
:1008F000A1050000426842B1016811F8013B23B133
:10090000521EC0E90012184670470121C160881EBE
:10091000704742685AB1C368016843B983688B4223
:1009200005D0491E521CC0E90012002070474FF04C
:10093000FF307047064C074D06E0E06840F00103C9
:1009400094E8070098471034AC42F6D3FFF75CFCFC
:10095000300A0100500A01002DE9F34F8BB04FF02F
:10096000000801F10C000C464FF0010B46460DF15A
:10097000080A01906269012101989047051E2DD057
:10098000252D2CD0216A8847C0B1626901210198C8
:100990009047216A88470028F7D1411E6269019873
:1009A000904700E0761CA1690B988847216A884728
:1009B0000028F7D1E1690B988847DBE7A1690B981C
:1009C00088470746A84201D1761CD3E7E1690B9816
:1009D00088477F1C02D1B8F1000F6FD046E1002795
:1009E00062693D463946019890472A2804D16269D8
:1009F0000121019890470125DFF884926269012165
:100A000001989047A0F130010A290AD24F45E5DC50
:100A100007EB870100EB4107303FDFD445F01005BD
:100A2000ECE7E90601D46FF000476C280AD04C28A7
:100A300014D0682815D06A280DD074281CD07A28C4
:100A40001AD01DE062690121019890476C2802D0FC
:100A500045F0040514E045F002050DE045F02005E1
:100A60000AE06269012101989047682802D045F0A8
:100A7000080505E045F40065626901210198904789
:100A8000C4E9015765283DD019DC58287AD00CDC20
:100A9000452837D004DC252826D0412831D131E043
:100AA00046282FD047282CD12CE05B2877D061280E
:100AB00028D063287CD0642823D15AE0D0E06F2866
:100AC00048D008DC66281DD067281BD0692821D0B3
:100AD0006E2816D127E0702845D0732868D0752875
:100AE00047D078280DD14DE0A1690B98884705467D
:100AF00025283FF469AFE1690B9888476D1C3FF4E6
:100B00006AAFB3E023466A466FF001000B99AFF37A
:100B100000809EE045F040006060A80723464FF04B
:100B2000000236D43EE0E8077FF447AF2068011D9D
:100B300021600068290501D506701BE7290701D54A
:100B4000068017E7A90703D5F117C0E9006111E78F
:100B500006600FE745F040006060A80723464FF0AD
:100B6000080216D41EE040F60E0125EA010060607E
:100B700016E045F040006060A80723464FF00A02E7
:100B800007D40FE045F040006060A80708D5234671
:100B900010226FF001000B99AFF3008059E007E0DD
:100BA000234610226FF001000B99FFF7CBFD50E0B8
:100BB0004FF000094F464B46632802D05B2806D011
:100BC00040E0E80601D40120A06001273AE0626914
:100BD0000121019890475E2805D14FF00109626913
:100BE000494601989047216939B900210A46534680
:100BF00043F82120491C0829FADBB0B3216969B9FF
:100C0000C11700EBD16253110AEB830122F01F02DE
:100C1000821A01200B68904003430B606269012136
:100C2000019890475D28E8D1B9F1000F09D0002064
:100C3000514651F82020D24341F82020401C08287A
:100C4000F7DB02AB224600976FF001000B99AFF380
:100C5000008000280CDA401C08D1BBF1000F05D041
:100C60004FF0FF300DB0BDE8F08FFFE74046F9E7E9
:100C7000E90701D108F1010806444FF0000B79E6BD
:100C8000CCCCCC0C70B58C1810F8015B15F00703B8
:100C900001D110F8013B2A1106D110F8012B03E015
:100CA00010F8016B01F8016B5B1EF9D12B0705D41D
:100CB0000023521E0DD401F8013BFAE710F8013B66
:100CC000CB1A921C03E013F8015B01F8015B521E82
:100CD000F9D5A142D8D3002070BD00002DE9F04F16
:100CE00000268DB0DFF8A081B14604964FF48075E0
:100CF000012437460596284608F0CAFC38B1D8F8D2
:100D00000403204203D0284608F0B8FC26432D1DDA
:100D100064007F1CADB2082FEDD34FF4BE742046A3
:100D200008F0B6FC48B1204608F0A8FC46F00046A2
:100D300004AA0221002008F06BFC544C16F0FF0FAF
:100D400015D00127002537420DD008EB8501D1F8D9
:100D50001005D1F81015C0F3052054F82520C1F373
:100D6000014102B190477F006D1C082DEBD3002E8E
:100D70007EDA0020CDF82890411E0DF1100B07AA55
:100D8000CDF82C9042F82010401C91460228F9D34F
:100D900000252E46A11911F85A7F91F9000027F07D
:100DA000C008401C40D007A9404606F0B5FF40B33C
:100DB0004FEA971A404602F00FFE54F820701FB118
:100DC000BAF1030F03D006E0BAF1030F2CD10AA940
:100DD000404606F0A9FF02A8CDF8088008F056FBAF
:100DE000029900EB8100D0F8000704A9C0F301408C
:100DF0000290404606F090FF0028029802D0022898
:100E000002D011E003280FD1BAF1030F08D10298E4
:100E1000022833D00221404608F0F0FA6D1CEDB2F2
:100E200017B151464046B847761C042EB2D3002D68
:100E300021D001AA0221002008F0EAFB00205A4636
:100E40000DF1040152F8206051F82030B34217D060
:100E500000200AAE4FEA090351F8207042F82070D2
:100E600056F8207043F82070401C0228F4D300E0AC
:100E700001E0002D8CD10DB0BDE8F08F0321CAE751
:100E8000401C0228DED3F6E700600040BC080020CA
:100E90001CB5824608F0A6FF08F026FD0028FBD10D
:100EA00039485FEA0A05076839483A49374EA0EBE6
:100EB00001004FEAD0004FF0010808EB00447088B1
:100EC0001ED0002821D0204633A1AA6908F046FE92
:100ED0007088002819D0D5E90201CDE90001D5E9D3
:100EE0000023204632A108F051FE708868B1E869FD
:100EF0000090D5E9042320463BA108F03EFE04E023
:100F000018B1204642A108F025FE1F48001D0068C8
:100F1000800705D5708818B120464A4908F01AFEA6
:100F2000DFF82491002500BF08FA05F0384208D008
:100F300059F825202AB1708818B1204643A108F03D
:100F40000DFE6D1C1A2DEFD3380608D5708830B110
:100F50000D480C30026820463FA108F0FFFD380420
:100F600008D5708830B1084810300268204642A188
:100F700008F0F4FD0448C8300068C00700D000BE87
:100F8000504600F087F8000028ED00E0080400203B
:100F9000600B0100B00A010048415244204641550F
:100FA0004C542061742030782530385800000000FF
:100FB000202052303A2020307825303858202052D6
:100FC000313A2020307825303858202052323A20CB
:100FD00020307825303858202052333A202030787D
:100FE000253038580000000020205231323A20309D
:100FF000782530385820204C523A2020307825303F
:10100000385820205053523A203078253038580034
:10101000537461636B2076696F6C6174696F6E3AAB
:1010200020737461636B20706F696E746572206FDA
:1010300075747369646520737461636B2061726594
:10104000612E00001CF800008802002043617573C7
:10105000653A2025732E00004D656D4D616E616708
:1010600065204661756C7420416464726573733ADF
:101070002030782530385800427573204661756CF1
:101080007420416464726573733A20307825303877
:1010900058000000BFF34F8F05480168054A01F46E
:1010A000E06111430160BFF34F8F00BFFDE7000017
:1010B0000CED00E00400FA0510B50AF01FFABDE8D7
:1010C000104009F0DBBF000002490248091F09680F
:1010D000006808478002002030B54FF080520021A0
:1010E000D2F8300101240D2802D1D2F8343113B1E5
:1010F0000D2809D00BE04FF08040C0F80C11C0F86B
:1011000010115248016005E0D2F8343113B10D28B6
:1011100057D060E04E4800684E4A10604C48001DB1
:101120000068121D10604A4808300068121D1060E7
:1011300047480C300068121D1060454810300068A8
:10114000121D1060424814300068121D10604048A3
:10115000183000683F4A203210603D481C3000685B
:10116000121D10603A4820300068121D1060384887
:1011700024300068121D1060354828300068121DA8
:10118000106033482C300068121D10603048303039
:101190000068304A403210602D4834300068121D1B
:1011A00010602B4838300068121D106028483C3011
:1011B0000068121D1060264840300068121D106043
:1011C00002E0D2F8340130B923480268D20702D0D5
:1011D0006FF0010202602148026842F4700202606E
:1011E000BFF34F8FBFF36F8F4FF01022D2F8000282
:1011F000002803DBD2F80402002822DA184B1C6016
:1012000018480468002CFCD01224C2F8004205687B
:10121000002DFCD0C2F804420268002AFCD01960FC
:1012200001680029FCD0BFF34F8F0C487C3801685F
:101230000D4A01F4E06111430160BFF34F8F00BF1D
:10124000FDE70B490948086030BD00003805004043
:101250000404001020C500400004004088ED00E0B8
:1012600004E5014000E401400400FA050090D003C9
:101270008C03002010B5054C206818B904A12B2060
:1012800001F092FF2068BDE8104000477001002087
:101290002E2E5C2E2E5C2E2E5C2E2E5C2E2E5C2E88
:1012A0002E5C6D6F64756C65735C6E7266785C64E1
:1012B0007269766572735C7372635C7072735C6E74
:1012C0007266785F7072732E630000002DE9F05F24
:1012D0005248D0F8045300242E464FF001090FE085
:1012E00096FAA6F0B0FA80F7B80000F5807009F021
:1012F000CDFD10B109FA07F0044309FA07F086435F
:10130000002EEDD10BF0F3FA002869D0444AD078D2
:10131000F0BBA00264D5434940F2A978C1F800802F
:10132000081D036813F0FF0C02D0036803EA0C0CDD
:1013300040F2AA7AC1F800A0036813F0FF0301D0BD
:101340000668334040F2AB7BC1F800B0066816F087
:10135000FF0601D007683E4040F2AC770F60076897
:1013600017EA0C0709D0D2F810C04CEA070CC2F8F3
:1013700010C0C1F800800760076840F2AD770F60C9
:1013800007681F4009D0136943EA0743136100E06F
:1013900026E0C1F800A00760036840F2AE730B605E
:1013A000036833400BD0DE0701D044F40004DE06AE
:1013B00001D544F00104C1F800B003600068106971
:1013C00030F0011102D005F080710C4310F0011FC4
:1013D00006D0690504D520F0011044F48064106142
:1013E000C4F3C05624F400044F46DFF83C8009E003
:1013F00094FAA4F0B0FA80F558F82500804707FA6F
:1014000005F08443002CF3D10DF072F9002E03D0C7
:10141000BDE8F05F04F0ACBABDE8F09F0070024098
:101420007801002000780240ECED0000C11700EBCD
:10143000D161074B4A1153F8222021F01F01411AB4
:1014400001208840024201D00120704700207047EF
:1014500000E100E002E008C8121F08C1002AFAD12A
:1014600070477047002001E001C1121F002AFBD124
:101470007047022001F02EBF70B50B4D686820B98F
:101480000AA140F20F1001F08FFE002406E0686808
:10149000012110F8340009F055FE641C28788442BC
:1014A000F5D3002070BD0000900100202E2E5C2E90
:1014B0002E5C2E2E5C2E2E5C2E2E5C2E2E5C636FF0
:1014C0006D706F6E656E74735C6C69627261726967
:1014D00065735C627574746F6E5C6170705F627569
:1014E00074746F6E2E630000F8B516460C46054600
:1014F0000A2A01D20720F8BD09F08EFF18B909F0B9
:1015000055FF0028F7D1134F202113487D603C7010
:10151000BE60FFF7C3F80020C7E904000F4E0DE0DE
:1015200005EBC4003168009181788DF801100078D6
:101530000B4A694609F082FE0028DCD1641EE4B241
:10154000EED2BDE8F84005480021064A001D00F033
:10155000D7B8000090010020AC0B002088EE0000FE
:10156000115E0000055200002DE9FE4314460F46AF
:10157000804672B608F036FC08F0B6F90028FBD1B8
:101580002448254A6FF48041A0EB0200204E4FEA28
:10159000D0004FF0010218EB010102EB00451ED014
:1015A0007088012912D020B128463A461BA108F0C4
:1015B000D5FA20480068C00700D000BE224603B01C
:1015C00039464046BDE8F04300F062B80028F0D04C
:1015D0002388284618A1626808F0C7FAE9E77088EE
:1015E0000028E6D0A06809F051FA0346D4E90001CA
:1015F000CDE900100297284616A1A26808F0D0FA9B
:1016000070880028D5D028461CA108F0A3FAD0E79E
:101610001C040020880B0100B00A0100554E4B4EFF
:101620004F574E204641554C542061742030782548
:1016300030385800F0ED00E0415353455254494FC3
:101640004E204641494C45442061742025733A257B
:10165000750000004552524F52202575205B2573BE
:101660005D2061742025733A25750D0A5043206171
:10167000743A20307825303878000000456E6420B8
:101680006F66206572726F72207265706F7274007F
:1016900008B501238DF800309DF80030144B186018
:1016A00059609A606FF48041401807D001280FD12B
:1016B000DA60D86800889861D86807E01A6118690C
:1016C0008068586118690068986118694068D86135
:1016D000186858689868D868186958699869D86906
:1016E00072B600BF9DF800000028FBD162B608BDAD
:1016F000CC0B0020014803F00BBE0000D8010020F5
:1017000070B514460E46050004D10BA14FF40270CB
:1017100001F04AFD3CB12868012E44610AD0002145
:101720000161002070BD04A140F2092001F03CFDE0
:10173000072070BD0121F3E72E2E5C2E2E5C2E2E8D
:101740005C2E2E5C2E2E5C2E2E5C636F6D706F6E89
:10175000656E74735C6C69627261726965735C74E6
:10176000696D65725C6170705F74696D6572322E4F
:101770006300000038B511480823582241680091E1
:101780000F49006806F0BEF8002815D10D4A6946D9
:101790000D4803F0C1FD04000ED101210A4803F0F9
:1017A000B0FE0123094A1946074803F067FD0649C0
:1017B000012008390870204638BD000090EE000076
:1017C000EC0B0020F9D20000D8010020FFFF7F00C1
:1017D00070B516460D46040004D10DA14FF40670F5
:1017E00001F0E2FC94F8200008B1002070BDA66171
:1017F00004F0F4FA401941F10001C4E90201206942
:1018000000B125612146BDE8704000200CF0BABB54
:101810002E2E5C2E2E5C2E2E5C2E2E5C2E2E5C2E02
:101820002E5C636F6D706F6E656E74735C6C696255
:101830007261726965735C74696D65725C61707008
:101840005F74696D6572322E6300000010B504008C
:1018500004D107A140F22E2001F0A6FC0020214671
:1018600084F82000BDE8104001200CF08BBB000084
:101870002E2E5C2E2E5C2E2E5C2E2E5C2E2E5C2EA2
:101880002E5C636F6D706F6E656E74735C6C6962F5
:101890007261726965735C74696D65725C617070A8
:1018A0005F74696D6572322E6300000070B5054685
:1018B0000648046907E02946204602F005FA20465A
:1018C00000F0BEF90446002CF5D170BD1C020020CA
:1018D00070B50A4805690EE02E7A002405E021461D
:1018E000284601F007F9641CE4B2B442F7D3284655
:1018F00000F0A6F90546002DEED170BD1C020020B7
:101900002DE9F0410E4840F24477056914E02E7A43
:1019100000240BE000222146284601F04FF918B1BF
:1019200008A1384601F040FC641CE4B2B442F1D393
:10193000284600F085F90546002DE8D1BDE8F08184
:101940001C0200202E2E5C2E2E5C2E2E5C2E2E5C79
:101950002E2E5C2E2E5C636F6D706F6E656E7473D1
:101960005C6C69627261726965735C757362645CF8
:101970006170705F757362642E63000070B5064617
:101980000948062504690AE03146204602F09CF920
:101990000546062805D1204600F052F90446002CE1
:1019A000F2D1284670BD00001C020020F8B50400EA
:1019B00004D138A140F2445001F0F6FB606820B930
:1019C00034A140F2455001F0EFFB6068006820B997
:1019D00030A140F2465001F0E7FB2068006820B1DA
:1019E0002CA140F2475001F0DFFB0BF047F910B992
:1019F0000BF04EF920B927A140F24B5001F0D4FB77
:101A000000250FE0002705E0007800F0ABFC08B1EE
:101A10001120F8BD3946781CC7B2304600F0C0F836
:101A20000028F1D12946681CC5B2204600F0E0F834
:101A30000600E7D100250DE0002703E000782146ED
:101A400000F096FC3946781CC7B2304600F0A8F882
:101A50000028F3D12946681CC5B2204600F0C8F81A
:101A60000600E9D1194D40F2715607E0A04203D1BA
:101A700008A1304601F098FB28680568286800280E
:101A8000F4D113482C60694680690090204602F02A
:101A90001BF9F8BD2E2E5C2E2E5C2E2E5C2E2E5C9D
:101AA0002E2E5C2E2E5C636F6D706F6E656E747380
:101AB0005C6C69627261726965735C757362645CA7
:101AC0006170705F757362642E6300002C020020E9
:101AD000A4EE00002DE9F04F87B04FF000081D463E
:101AE000934689460446DDF840A04646CDF80C8072
:101AF00000E0761C6068012300224768214603A8A5
:101B0000B8470028F5D140468DF800800027B84638
:101B100001903BE0606801236A46D0F804C021468A
:101B200001A8E0476068012305AAD0F804C0214657
:101B300001A8E0479DF8141049451AD1D84514D1A1
:101B40009DF80000CAF8000005F8010B6A1C85F832
:101B5000009060689DF800302146456801A89B1EF2
:101B6000A847002007B0BDE8F08F08F1010000F0A1
:101B7000FF0860689DF800300022D0F804C02146BC
:101B800001A89B1EE0479DF800000744B742C1D35F
:101B90000520E7E701480069704700001C020020AB
:101BA00070B50D46040004D1064940F21D1001F045
:101BB000FBFA6078A84201D8002070BDA0782044CC
:101BC000284470BDD4F5000070B50D46040004D162
:101BD000064940F21D1001F0E7FA6078A84201D8EA
:101BE000002070BDA0782044284470BDD4F50000CA
:101BF00070B50D46040003D10649EA2001F0D4FA7D
:101C0000207AA84201D8002070BD05EB45000934B8
:101C1000204470BDD4F5000070B50D46040003D11A
:101C20000649EA2001F0C0FA207AA84201D8002033
:101C300070BD05EB45000934204470BDD4F50000AB
:101C400010B5040004D1044940F21D2001F0ACFAA3
:101C50002068006810BD0000C424000010B5040016
:101C600004D104A140F21D2001F09EFA2068006812
:101C700010BD00002E2E5C2E2E5C2E2E5C2E2E5CB7
:101C80002E2E5C2E2E5C636F6D706F6E656E74739E
:101C90005C6C69627261726965735C757362645CC5
:101CA0006170705F757362642E680000024840784E
:101CB000002800D0012070471C02002010B520B978
:101CC00009A14FF4C96001F06FFA15494878401C2A
:101CD00010F0FF00487004D103A140F24B6001F006
:101CE00063FA002010BD00002E2E5C2E2E5C2E2EDE
:101CF0005C2E2E5C2E2E5C2E2E5C636F6D706F6ED4
:101D0000656E74735C6C69627261726965735C752F
:101D10007362645C6170705F757362642E6300004F
:101D20001C02002010B520B908A140F2536001F058
:101D30003BFA144C607820B904A140F2556001F0E0
:101D400033FA6078401E6070002010BD2E2E5C2E8D
:101D50002E5C2E2E5C2E2E5C2E2E5C2E2E5C636F47
:101D60006D706F6E656E74735C6C696272617269BE
:101D700065735C757362645C6170705F75736264D7
:101D80002E6300001C02002070B5040004D125A1C0
:101D900040F2D95001F008FA606820B921A140F260
:101DA000DA5001F001FA6068006820B91DA140F224
:101DB000DB5001F0F9F90AF061FF10B90AF068FF91
:101DC00020B918A140F2DD5001F0EEF9234D40F2A8
:101DD000E35608E0A04203D112A1304601F0E4F935
:101DE000286805682D1D28680028F3D12068406800
:101DF00020B10CA14FF4BD6001F0D6F9174D40F2AF
:101E0000EE562D1F08E0A04203D106A1304601F096
:101E1000CBF9286805682D1D28680028F3D12C60AF
:101E200070BD00002E2E5C2E2E5C2E2E5C2E2E5CA5
:101E30002E2E5C2E2E5C636F6D706F6E656E7473EC
:101E40005C6C69627261726965735C757362645C13
:101E50006170705F757362642E630000340200204D
:101E600010B5040004D111A140F2F95001F09CF921
:101E70000AF004FF10B90AF00BFF20B90BA140F2E1
:101E8000FB5001F091F917480BE0A14207D12168FE
:101E900049680160206800214160084610BD08685B
:101EA000001D01680029F0D1052010BD2E2E5C2EEA
:101EB0002E5C2E2E5C2E2E5C2E2E5C2E2E5C636FE6
:101EC0006D706F6E656E74735C6C6962726172695D
:101ED00065735C757362645C6170705F7573626476
:101EE0002E6300003002002010B500210A464FF496
:101EF00000634418227200EB8104491CC9B263617B
:101F00000429F6D380F8292080F8282010BD10B5C8
:101F1000002000F0FFF9BDE81040802000F0FAB981
:101F200010B5002000F0F8F9BDE81040802000F066
:101F3000F3B900002DE9F0414B4E0D4602460978F9
:101F4000062430780B2934D009DC4FF0010707292B
:101F50006DD2DFE801F06C0D0F116C2951000C29D6
:101F60002FD00D2936D00E293DD085295FD115E01F
:101F7000032016E000245AE03B48001D05F004FD54
:101F800028B13A480760BFF36F8FBFF34F8F3078A7
:101F90000028EFD136A140F212400FE0032846D1CD
:101FA00004200CF0ABFA42E0104600F0A3F804461F
:101FB0003DE00028DED02EA140F2264001F0F4F8EA
:101FC000D8E7012804D02AA140F22C4001F0ECF817
:101FD000002005E03548006810F0010F0AD002200B
:101FE0000CF08CFAC6E7022804D221A14FF48860D5
:101FF00001F0DAF80120F3E7E878032817D0A87891
:1020000030B1802804D01AA140F24E4001F0CCF843
:102010001549E87808310A6832B100230B60496835
:102020009047040006D000E00E240AF08BFE204604
:10203000BDE8F0810CF05AFA28B1A8780028F6D152
:102040000AF043FEF3E70AF075FC48B10AF072FCAF
:102050000028ECD04FF08050D0F834010028E6D0B2
:102060000AF030FEE3E70000400200205C7002400E
:102070002E2E5C2E2E5C2E2E5C2E2E5C2E2E5C2E9A
:102080002E5C636F6D706F6E656E74735C6C6962ED
:102090007261726965735C757362645C6170705FB4
:1020A000757362645F636F72652E6300380400406D
:1020B00002494978C14001F0010070474002002008
:1020C000024A0146D2E9000210470000940D0020A8
:1020D00070B50C4605460AF0EFFDA84201D010206D
:1020E00070BD0348D4E90012C0E90212002070BD9F
:1020F000400200207FB5054605208DF8000006242B
:102100000DF101000AF0F6FD0CF0F0F9294900206C
:1021100008609DF8010010F01F0006D001280FD0C4
:10212000022826D0032833D106E0694628460BF062
:1021300033FB044606282AD16846FFF71FFC25E03A
:102140009DF8050003A900F015FD050008D06A46BA
:102150009DF80C1000F0CAFC0446062802D016E0D8
:10216000102415E06A469DF80C1028460BF060FC20
:102170000CE09DF80500010705D0694600F080F8E5
:102180000446062803D168460BF0A8FB044624B198
:102190000AF0D8FD04B0204670BD0CF0A7F930B1AC
:1021A0000AF08AFD0028F5D10AF08FFDF2E70AF067
:1021B00089FDEFE748020020FEB5C08814460E46B0
:1021C000A04201D2054600E01546844207D2802095
:1021D0000AF0DAF9B4FBF0F100FB114068B100201D
:1021E0000096CDE90150002000F0FAFE69468020FB
:1021F00000F0F0F8040002D006E00120F0E7054905
:102200008020FFF765FF0446002000F017FF2046FE
:10221000FEBD0000ECEE000008B140210160014865
:1022200070470000E80D002010B50AF039FD20B11C
:1022300004A140F2AB3000F0B7FFBDE8104009F058
:102240009FBF00002E2E5C2E2E5C2E2E5C2E2E5C50
:102250002E2E5C2E2E5C636F6D706F6E656E7473C8
:102260005C6C69627261726965735C757362645CEF
:102270006170705F757362642E63000009F0BEBF09
:1022800010B50C46010600F00F02092A08D200F032
:1022900009F8006820B12146BDE8104001F014BDE6
:1022A000102010BD10B5010600F00F0408D5092C50
:1022B00004D309A14FF4B97000F076FF144808E088
:1022C000092C04D304A14FF4BC7000F06DFF10483A
:1022D000483000EBC40010BD2E2E5C2E2E5C2E2E3E
:1022E0005C2E2E5C2E2E5C2E2E5C636F6D706F6EDE
:1022F000656E74735C6C69627261726965735C753A
:102300007362645C6170705F757362642E63000059
:102310004C0D00200AF034B810B5044600F00F0050
:10232000082805D220460AF05BF820460AF0B0F9EA
:102330002046BDE810400AF077B8000070B50C46A2
:1023400005460AF0C1F818B105480078022801D006
:10235000082070BD21462846BDE870400AF0BCB890
:102360001C02002010B5FFF79DFF006810BD0000A3
:1023700070B50D460646FFF795FF0446056015B19A
:102380006868006808E00EB1802E04D103A14FF404
:10239000CE7000F009FF0020606070BD2E2E5C2E14
:1023A0002E5C2E2E5C2E2E5C2E2E5C2E2E5C636FF1
:1023B0006D706F6E656E74735C6C69627261726968
:1023C00065735C757362645C6170705F7573626481
:1023D0002E63000070B50C4605460AF075F818B17A
:1023E00005480078022801D0082070BD2146284603
:1023F000BDE870400AF0E0B91C020020F8B50446C0
:1024000000782D4D05280BD12C4800682B49C0B20F
:10241000091F096811F0FF0F04D1052802D1284CCB
:10242000207818B3264F6946243F386A05F07DFAB4
:1024300006001AD020683060002000F0D1FD6888C6
:10244000E968401A401CF0801B4800210C3005F060
:10245000BAFAB080002000F0F1FD6946386A05F054
:1024600085FA014620460CF067FBF8BD40F255277F
:10247000AE690AE02146304601F05EFC1EB911A1AA
:10248000384600F091FE30684668002EF2D10020F8
:1024900000F0A6FDE86808B9608868800648012158
:1024A0000C3005F07AFA002000F0C8FD012120462A
:1024B0000CF042FBE868F8BD1C0200208474024066
:1024C000C8EE00002E2E5C2E2E5C2E2E5C2E2E5C76
:1024D0002E2E5C2E2E5C636F6D706F6E656E747346
:1024E0005C6C69627261726965735C757362645C6D
:1024F0006170705F757362642E68000070B58A4CFD
:102500000546206920B989A140F2FF3000F04CFE59
:1025100002F0FCFC062804D284A140F2064000F040
:1025200043FE2878092877D008DC092818D2DFE88C
:1025300000F07493C29CAFCBD017F30082282DD04B
:1025400008DC0A28EFD00F28EDD0802841D0812860
:1025500006D10CE0832847D084284ED085287AD035
:10256000BDE8704071A14FF4A06000F01DBE7D4831
:10257000FFF7A6FD7B48FFF799F90D200CF0EAFA6A
:10258000FFF7A6F9FFF7C3FC606910B97648007A37
:1025900000B101200AF0DAFB012088E0FFF798F98A
:1025A0000AF024FC00200BF0C7FB6E48401CFFF72C
:1025B0007DF96C48401CFFF783FD0E200CF0CAFA31
:1025C000207800F0BFFC002844D0BDE8704006F041
:1025D00039BB2078052803D0062803D0072839D135
:1025E000022064E0082062E02078032832D10AF05B
:1025F00045FC00282ED0042059E02078032805D17E
:102600000AF03CFC10B104200BF096FB0AF016FD1A
:1026100000281FD006204AE07FE02078032801D060
:10262000082803D14F48801CFFF768FF00200CF0FA
:1026300091FA646940F239260AE02946204601F001
:1026400043FB1CB94949304600F0AEFD20684468A0
:10265000002CF2D170BD37E0FFF73AF9FFF760FCCC
:1026600002200BF069FB012006E02078082809D041
:1026700005200BF061FB03200CF06CFA2846FFF7F5
:102680001FFD4CE002200BF057FB0AF08FFAF2E737
:1026900003200CF05FFA3348C01CFFF711FD3148EE
:1026A000C01CFFF703F92078062899D10720BDE860
:1026B00070400BF041BB03200BF03EFB02200CF0FE
:1026C00049FA2846FFF7F2F82846BDE87040FFF7C0
:1026D000F7BCA878FFF7E6FD0446006820B913A10F
:1026E00040F2DC4000F060FD606820B90FA140F2CC
:1026F000DD4000F059FDD4E900022946904700284A
:10270000A8D0A8780107A5D000F00F010829A1D210
:10271000BDE8704009F08ABF08200CF01BFA28467B
:10272000BDE87040FFF7C2B81C0200202E2E5C2EC0
:102730002E5C2E2E5C2E2E5C2E2E5C2E2E5C636F5D
:102740006D706F6E656E74735C6C696272617269D4
:1027500065735C757362645C6170705F75736264ED
:102760002E630000B5EE0000DC0D0020C424000044
:10277000FFF744BEF8B5214C00250095204EA06817
:102780004FF4006728B9211D306A05F0E4F8A06015
:10279000C0B1818869B1C188B94200D3C580C18800
:1027A000ADF80210C188491CC1808188491E818012
:1027B0001FE0FFF7A3FE1149306A091D05F0C0F8BC
:1027C000A56019E0E068002817D0002000F008FCA0
:1027D0006088B84200D365806088ADF80200401C74
:1027E0006080064801210C3005F0FEF8002000F062
:1027F00025FC6846FFF782FE0120F8BD1C02002080
:10280000A4EE000010B520B104A140F2552000F064
:10281000CBFCBDE810400F48FFF7F0BD2E2E5C2E1C
:102820002E5C2E2E5C2E2E5C2E2E5C2E2E5C636F6C
:102830006D706F6E656E74735C6C696272617269E3
:1028400065735C757362645C6170705F75736264FC
:102850002E630000A4EE000010B50021FFF7DCF9A4
:102860000021FFF7B1F9007810BD00002DE9F0411B
:102870008046187800240D461F4616460F284AD277
:10288000DFE800F0082B5F6149353A494949496959
:102890007B8D90007988104603F01AFF0146A0F561
:1028A0007F40FF3878D000200346321892F8244049
:1028B00034B106EB800C7C88CCF8144082F82430CC
:1028C00096F829201AB1401CC0B20428EDD3A8699B
:1028D000C9B282694046904731E00321104600F0BA
:1028E000F1F8012030733046FFF7FEFA54E0294634
:1028F00040460BF03DF822E0B878000604D52946A2
:10290000404602F0E7FE1AE0A8694446C06810B1EC
:10291000D87810B106E006243EE00222294640465F
:102920000CF012F928694068402804D91F494FF477
:10293000E27000F039FCA869C16820468847044667
:102940002AE002212CE00221104600F0BBF8A86921
:1029500081684046F2E74046FFF716FA04001BD1B3
:102960004046FFF7ABF9040016D13046FFF7BCFA3A
:102970000021304600F0B0F80EE04046FFF770FA54
:10298000040009D14046FFF7CDF9040004D100212D
:102990004FEA060000F096F82046BDE8F0810121DC
:1029A0001046E7E701211046F4E7000018F60000A2
:1029B000426A52680A60406A00687047FEB5154670
:1029C0000F46044603F0A2FA06462046FFF744FFEE
:1029D00004460321304600F07AF800200097CDE944
:1029E000015000F0FDFA69462046FFF7F3FC0400B1
:1029F00003D10321304600F074F8002000F01EFBE4
:102A00002046FEBDC26952680A60C069006870470E
:102A10002DE9FC4117460D46064603F077FA0446B9
:102A2000706BCDE90057694607F04EFC10B11120DC
:102A3000BDE8FC81206800256FEA900040F30000AB
:102A4000401C02D000F098FA0FE020686FEAD00036
:102A500040F30000401C90F0010F06D094F82800CD
:102A600018B9304603F0F6FD05462846E0E7026A4D
:102A700052680A60006A00687047000010B50400E0
:102A800004D1034940F2472000F08EFB606910BD7D
:102A900018F6000010B5040004D1034940F24120AB
:102AA00000F082FBE06810BD18F6000010B50400CD
:102AB00004D103494FF4F67000F076FB206910BD95
:102AC000B8F6000001228A40D14304F06CBF012215
:102AD0008A40D14304F067BF012202FA01F104F0F9
:102AE00077BF012202FA01F104F072BF114601F032
:102AF000EBB8000070B5044640680D46C2680AB1E4
:102B000020469047207AA84204D20CA140F2F2203D
:102B100000F04AFB29462046FFF76AF8054646784A
:102B2000002408E021462846FFF73AF8007809F02B
:102B300027FC641CE4B2B442F4D370BD2E2E5C2E8C
:102B40002E5C2E2E5C2E2E5C2E2E5C2E2E5C636F49
:102B50006D706F6E656E74735C6C696272617269C0
:102B600065735C757362645C6170705F75736264D9
:102B70002E6300002DE9F04180460F480E4605699E
:102B800016E02F7A00240DE021462846FFF730F8A2
:102B90000178414504D106B134702846BDE8F08182
:102BA000641CE4B2BC42EFD32846FFF749F805465F
:102BB000002DE6D10020F1E71C02002070B504468C
:102BC000406815460E4683681BB120469847062884
:102BD00009D1207AB04204D20E4940F2D32000F04D
:102BE000E3FA0DB1072070BD31462046FFF700F82B
:102BF00005464678002408E021462846FEF7D0FF27
:102C00000078FFF789FB641CE4B2B442F4D30020DF
:102C100070BD00003C2B0000034600205A6812697A
:102C2000002A01D018461047704700002DE9F843EC
:102C3000054606F0B5F820B930A140F20B3000F09F
:102C4000B3FA3D4C08234FF484723A49206A04F0E9
:102C500059FE10B10320BDE8F883384809F0ACFFF5
:102C60000028F8D136490870086148614821354884
:102C7000FDF714FD334848214830FDF70FFD31487A
:102C8000783095B195E80E00183080E80E000020ED
:102C900006F00CF930B1852804D018A240F2393181
:102CA000FDF72AFB284D002611E004F138010EC97A
:102CB000EAE7002703E000782946FFF759FB394689
:102CC000781CC7B24046FEF76BFF0028F3D13146AF
:102CD000701CC6B22846FEF78BFF5FEA0008E8D1F9
:102CE000606800906946284600F0EEFF040003D0BB
:102CF0000AF078F92046AEE70020ACE72E2E5C2ED5
:102D00002E5C2E2E5C2E2E5C2E2E5C2E2E5C636F87
:102D10006D706F6E656E74735C6C696272617269FE
:102D200065735C757362645C6170705F7573626417
:102D30002E630000440C0020A4EE00007127000068
:102D40001C0200204C0D00202CEF000040B1012897
:102D500008D0022809D007A14FF40F7000F024BA60
:102D6000124804E01148001D01E010480830FFF748
:102D700045BB00002E2E5C2E2E5C2E2E5C2E2E5C73
:102D80002E2E5C2E2E5C636F6D706F6E656E74738D
:102D90005C6C69627261726965735C757362645CB4
:102DA0006170705F757362642E630000CCEE00008A
:102DB00010B509F06DFF10B109F060FF08B10820EF
:102DC00010BD054806F086F820B104A24FF46771E3
:102DD000FDF792FA002010BDD8EE00002E2E5C2EDA
:102DE0002E5C2E2E5C2E2E5C2E2E5C2E2E5C636FA7
:102DF0006D706F6E656E74735C6C6962726172691E
:102E000065735C757362645C6170705F7573626436
:102E10002E6300002DE9F0410D46164901EB8007B5
:102E200057F82500017849B10020FFF7F5F957F868
:102E3000255006460024287848B911E0801CBDE8DA
:102E4000F0811F2C03D30C49C02000F0ADF9641CA5
:102E5000E4B215F8010B26F8140028780028F0D108
:102E6000022000EB4400C0B240F440703080304695
:102E7000E5E700006002002000F7000010B509F04F
:102E8000FDFE20B909A140F2B23000F08DF91548DD
:102E90000168C1F3400121B1BDE810401248FFF7BD
:102EA000ADBA016811F0010FF2D110BD2E2E5C2ECB
:102EB0002E5C2E2E5C2E2E5C2E2E5C2E2E5C636FD6
:102EC0006D706F6E656E74735C6C6962726172694D
:102ED00065735C757362645C6170705F7573626466
:102EE0002E63000038040040A9EE0000034808B536
:102EF000806800906846FFF781FA08BDA4EE0000E4
:102F00004FF0000150B106280BD2074A105C002890
:102F100008D0064A52F820201AB100E00020FFF73E
:102F200079BF002070470000E0EF00006002002041
:102F3000034808B5C06800906846FFF75FFA08BD0F
:102F4000A4EE0000092808D2DFE800F00707050713
:102F50000705050505000120704700207047092876
:102F600008D2DFE800F00707050707070707050095
:102F7000012070470020704708B5FEF797FE20B982
:102F800008A140F2ED3000F00FF90120FFF790F8B2
:102F9000002806D01148006900906846FFF72EFA15
:102FA000012008BD2E2E5C2E2E5C2E2E5C2E2E5C5B
:102FB0002E2E5C2E2E5C636F6D706F6E656E74735B
:102FC0005C6C69627261726965735C757362645C82
:102FD0006170705F757362642E630000A4EE000080
:102FE00010B50AF063F9012803D004A11D2000F0F8
:102FF000DBF8BDE8104000F04FB800002E2E5C2E2C
:103000002E5C2E2E5C2E2E5C2E2E5C2E2E5C636F84
:103010006D706F6E656E74735C6C696272617269FB
:1030200065735C7574696C5C6170705F7574696CF4
:103030005F706C6174666F726D2E630010B50AF07C
:1030400035F9012803D004A12B2000F0ADF8BDE82C
:10305000104000F029B800002E2E5C2E2E5C2E2E83
:103060005C2E2E5C2E2E5C2E2E5C636F6D706F6E50
:10307000656E74735C6C69627261726965735C75AC
:1030800074696C5C6170705F7574696C5F706C61A1
:1030900074666F726D2E630072B602480168491C37
:1030A000016070477802002003490868401E0860EC
:1030B00000D162B6704700007802002070B5054666
:1030C00008680C46411C04D006F07BFA206806F024
:1030D00081F96068411C02D0002106F069F9296875
:1030E000A069C1F82405607D227D29681043C1F8DC
:1030F0006C05D4E900122868C0F81425C0F80C1536
:10310000207D012814D1A068411C02D0002106F0C6
:103110004FF9E068411C04D006F053FAE06806F06D
:1031200059F9D4E902122868C0F80825C0F810152A
:1031300070BD70B5054608680C46411C04D006F009
:103140004AFA206806F050F96068411C02D000215C
:1031500006F037F92968A069C1F82405607D217D52
:103160002A680843C2F86C05D4E900122868C0F840
:103170000C15C0F81425207D012814D1A068411C2D
:1031800002D0002106F01DF9E068411C04D006F0D1
:1031900022FAE06806F028F9D4E902122868C0F89B
:1031A0000825C0F8101570BD1CB56A46ADF80000C2
:1031B0000191002144F20200FEF7D6F91CBD000087
:1031C000F0B500220D4BCA60C1E901230C4B0D4D37
:1031D0001446EE1A0A600CE003EB0215EF683F7923
:1031E000FF2F05D0A04202D1A8680860F0BD641C82
:1031F000521CB2EB161FEFD3F0BD0000A4F3000089
:10320000900A0100B00A0100102802D31038C0B2A1
:10321000704740F08000704738B50446042803D357
:103220000AA18620FFF7C0FF1448005D00906846A1
:1032300006F0FCF8D0F810050099C84010F0010025
:1032400000D0012080F0010038BD00002E2E5C2E41
:103250002E5C2E2E5C2E2E5C2E2E5C2E2E5C636F32
:103260006D706F6E656E74735C626F617264735CB7
:10327000626F617264732E63000000002CED000029
:103280002DE9FC410646C0074FF000050ED0104F57
:1032900000240122385D009500231146019506F0B7
:1032A00011F8641C042CF4D300F0D2F8B0070DD54B
:1032B000074E0024361D0022305D03230095114681
:1032C000019505F0FFFF641C042CF4D3BDE8FC81DC
:1032D00028ED000038B50446042803D30BA139209B
:1032E000FFF762FF1548005D0090684606F09EF803
:1032F000D0F80425009B0121994021EA0203C0F87F
:1033000008351140C0F80C1538BD00002E2E5C2E7B
:103310002E5C2E2E5C2E2E5C2E2E5C2E2E5C636F71
:103320006D706F6E656E74735C626F617264735CF6
:10333000626F617264732E630000000028ED00006C
:1033400010B50446042803D305A12120FFF72CFF64
:103350000F480121005DBDE8104006F046B90000AD
:103360002E2E5C2E2E5C2E2E5C2E2E5C2E2E5C2E97
:103370002E5C636F6D706F6E656E74735C626F61EF
:103380007264735C626F617264732E63000000008C
:1033900028ED000010B50446042803D305A11B2026
:1033A000FFF702FF0F480021005DBDE8104006F066
:1033B0001CB900002E2E5C2E2E5C2E2E5C2E2E5C58
:1033C0002E2E5C2E2E5C636F6D706F6E656E747347
:1033D0005C626F617264735C626F617264732E63AE
:1033E0000000000028ED000038B50446042803D38F
:1033F0000AA11420FFF7D8FE1448005D009068462B
:1034000006F014F8D0F804050099C84010F0010047
:1034100000D0012080F0010038BD00002E2E5C2E6F
:103420002E5C2E2E5C2E2E5C2E2E5C2E2E5C636F60
:103430006D706F6E656E74735C626F617264735CE5
:10344000626F617264732E630000000028ED00005B
:1034500010B500242046FFF773FF641C042CF9D339
:1034600010BD10B500242046FFF794FF641C042C07
:10347000F9D310BD10B50246064B4FF0FF300021C6
:103480005C5C944201D1084610BD491C0429F7D365
:1034900010BD00002CED00002DE9F0470D468146DF
:1034A000FFF7E8FF0446042836D2DFF874801B4893
:1034B0001C4EA8F10C0725B3012D0ED0022D2BD1E7
:1034C00004EB440030444578002D25D0B96800292C
:1034D00022D02846BDE8F047084704EB4401755C5C
:1034E0000E44717849B10E4A4FF48041093A806820
:1034F000FEF76EF908B987F80390B17808F8041060
:10350000E2E78068FEF7A2F904EB4401314418F8C1
:1035100004008D78A842D7D0BDE8F08730ED0000D8
:10352000BC0000209C080020042801D2FFF774BED4
:1035300000207047014908600020704738010020D2
:1035400010B5134C0E384FF0FF310C281ED2DFE8B7
:1035500000F0060917141D1D1D1D1D1D1815032142
:10356000002001E00321012002F05CFF206800221E
:10357000BDE810405221FEF72BB90121032001E0E4
:1035800001210220BDE8104002F04CBF10BD000038
:1035900058EC000070B50023042810D20D4D00EB4C
:1035A0004004012A02D101290CD00022094E00EB6F
:1035B0004000304461B1012906D0022906D007231A
:1035C000184670BD0E30C2B22A55F9E74270F7E7CF
:1035D0008270F5E79C08002070B506461E4800245E
:1035E000C0E90161B00720D5002501221146284617
:1035F000FFF7D0FF6D1C0446042D02D2002CF4D03E
:1036000013E094B940F2333204211448FDF76CFF03
:1036100004000AD1FDF730FF040006D10F48104A1C
:103620000021001FFEF76CF80446F00712D00120BD
:10363000FFF726FE74B909480A4A00210C38FEF744
:103640005FF8040006D10548074A01210838FEF753
:1036500057F80446204670BDB00000203CED000045
:103660006D390000516E0000731400002DE9F05F09
:103670006E4C054600266078B34618B184F801B058
:1036800003F0CEFB6A4F4FF47A694FF4C87A4FF0DB
:103690000108182D69D2DFE805F00C1313384754E0
:1036A000696E727B727BC58484848484B3B6B9BC32
:1036B000C5C503F0B5FB3868FEF7C8F806465CE000
:1036C0000020FFF791FE00284FF0000008D0FFF720
:1036D00037FE022D02D14FF4E16008E0484606E0D3
:1036E000FFF758FE022D01D1C82000E05046410CE2
:1036F000C0034FF47A72801841F100012570520026
:103700000023FCF709FF01462AE00020FFF76CFECA
:1037100000284FF0000004D0FFF712FE4FF448706D
:10372000E5E7FFF737FEDFE70020FFF75DFE002843
:103730004FF0000002D0FFF703FECFE7FFF72AFEAD
:10374000D4E70020FFF750FE00284FF0000002D021
:10375000FFF7F6FD01E0FFF71DFE257040F6CD41B5
:1037600000223868FEF734F8064646E00020FFF7EE
:10377000B1FD257008E0002051E025703DE084F89F
:1037800001800120FFF7A6FD002240F26661E8E714
:1037900084F801800120FFF79DFD00224FF40051C5
:1037A000DFE77868FEF752F80646D5F1110000D041
:1037B0002EB10220FFF7C4FD84F802B01DE00128FD
:1037C00016D980B2C8214843C117C90341EA504104
:1037D000C0034FF47A72801841F1000152000023B7
:1037E000FCF79AFE014600227868FDF7F1FF0646D5
:1037F0000220FFF7CFFD84F802803046BDE8F09F3D
:1038000003F00EFBB9E703F00BFBB4E703F008FB92
:1038100004E003F005FB0020FFF7BCFD0120FFF7EB
:10382000B9FDAAE7FFF71DFEA7E70000B0000020E2
:1038300030ED00002DE9F0470546861C90460F4606
:103840004FF001090020FFF7CBFB1B4C20683860CC
:10385000D4E90001401AA16804F21C47081A0EE0DE
:103860000121384604F099F803F0EAFC0146384695
:1038700004F093F8D4E90001401AA168081A401C2A
:103880008642EDD8B8F1000F03D0052065F389100A
:1038900002E0062065F39F50A2682168114004EB06
:1038A0008101C8602068304420600020FFF7C6FB1B
:1038B0004846BDE8F0870000E40F002070B50D46D3
:1038C00004460A2902D10D21FFF7F8FFA0682268FB
:1038D000411CA1601554D4E90101814204D3204662
:1038E000BDE8704005F098BB70BD0000034803C8F8
:1038F000814201D10120704700207047E40F002071
:1039000070B50346094800210478426806E000BF0C
:1039100002EBC10005789D4207D0491CA142F7DBAC
:1039200003A16220FFF740FC002070BD9001002041
:103930002E2E5C2E2E5C2E2E5C2E2E5C2E2E5C2EC1
:103940002E5C636F6D706F6E656E74735C6C696214
:103950007261726965735C627574746F6E5C6170BC
:10396000705F627574746F6E2E63000000780221C0
:10397000FFF792BD05494FF0FF32082841F820209B
:1039800002D3084480F8522070470000BC08002091
:10399000F0B54FF0FF3512B10023082601E00823EF
:1039A0000C260C4C05E000BF54F823707F1C04D09B
:1039B0005B1CB342F8D32846F0BD26185DB286F8EA
:1039C000305044F82310002AF5D1E11881F8520054
:1039D000F1E70000BC0800200249084490F93000DB
:1039E00070470000BC08002070B5816804468A7FDB
:1039F000002A4DD0C87F00284AD0121A0844D5B2F8
:103A000000F120016A1C1F30FCF721FEA068C17F75
:103A1000491EC177A068817F491E81778DB3082236
:103A20001C49206905F0B8FA204603F043FF81786D
:103A3000C078814211D1A06817A2C17F4318082124
:103A40002046203304F07AFD204600F093F9294601
:103A50002046BDE8704001F0E3BA204600F0F6F9D8
:103A6000204600F087F9A0680BA2C17F4318082107
:103A70002046203304F062FD2046BDE8704000F08F
:103A8000AFB92069BDE87040044A03A105F084BACB
:103A900070BD0000C43C000025730000B1F10000BF
:103AA00070B504468068827FC17F521A12F0FF050C
:103AB00048D0084400F121012A462030FCF7C7FD18
:103AC000A068817F491E8177204603F0F3FE81784C
:103AD000C07881420CD1A0681BA2C17F4318082185
:103AE0002046203304F02AFD40F26946C4B913E0B1
:103AF000204600F0ABF9204600F03CF9A06812A285
:103B0000C17F431808212046203304F017FD2046CA
:103B1000BDE8704000F064B90CA13046FFF744FBEB
:103B2000206918B909A13046FFF73EFB154A06A1E6
:103B3000206905F031FA6D1EE9B22046BDE87040FB
:103B400001F06EBA70BD0000257300002E2E5C2EB1
:103B50002E5C2E2E5C2E2E5C2E2E5C2E2E5C636F29
:103B60006D706F6E656E74735C6C696272617269A0
:103B700065735C636C695C6E72665F636C692E630F
:103B800000000000B5F100002DE9F0410446806816
:103B90000F46D0F84811C27F11F00106817FA1EBDA
:103BA0000203DDB20BD07F2901D3002D7ED0A068A7
:103BB000C17F0844002180F8207066B113E07F299E
:103BC0007CD2002DF3D0831803F120012A46481C33
:103BD000FCF73DFDEBE7A068827F521CD2B28277F2
:103BE000A068203281544DB3204603F063FE8178F3
:103BF000C07881420ED1A06831A2C17F431808214C
:103C00002046203304F09AFCA81BC1B2204601F0E4
:103C100007FA21E0204600F019F9A06828A2C17F28
:103C2000431808212046203304F088FC204600F089
:103C3000D7F80121204601F0CDFA0DE03EB1A06891
:103C4000827F521CD2B28277A068203281543A46D9
:103C50001CA1206905F0A0F9A168C87F401CC877A5
:103C6000204601F0CAF90028204603D0BDE8F04103
:103C700001F0E2B902F09FF800281FD0204603F0BF
:103C800019FE0546C078A978401A401EC1B22046E8
:103C900001F054F9204601F0CFF9E878A978401AEC
:103CA000C1B2204601F0A2FA287800E006E0401EEA
:103CB000C1B22046BDE8F04101F08CBABDE8F08108
:103CC000257300002563000070B50D46040003D184
:103CD0000BA1E920FFF768FA606818B908A1EA208B
:103CE000FFF762FA6068006818B905A1EB20FFF7DA
:103CF0005BFA6068294602682046BDE870401047BC
:103D00002E2E5C2E2E5C2E2E5C2E2E5C2E2E5C2EED
:103D10002E5C636F6D706F6E656E74735C6C696240
:103D20007261726965735C757362645C6170705F07
:103D3000757362642E63000070B50D46040003D1F4
:103D40000B49F320FFF730FA206818B90849F4202E
:103D5000FFF72AFA2068806818B90549F520FFF7AF
:103D600023FA216868888968BDE870400847000028
:103D70003C2B000070B504004FF4D77503D108A1A7
:103D80002846FFF711FA206918B905A12846FFF760
:103D90000BFA2069BDE870400F4A10A105F0FCB88D
:103DA0002E2E5C2E2E5C2E2E5C2E2E5C2E2E5C2E4D
:103DB0002E5C636F6D706F6E656E74735C6C6962A0
:103DC0007261726965735C636C695C6E72665F6375
:103DD0006C692E6300000000A9F10000257300004B
:103DE00070B504004FF4DD7503D108A12846FFF734
:103DF000DBF9206918B905A12846FFF7D5F9206934
:103E0000BDE870400F4A10A105F0C6B82E2E5C2EFA
:103E10002E5C2E2E5C2E2E5C2E2E5C2E2E5C636F66
:103E20006D706F6E656E74735C6C696272617269DD
:103E300065735C636C695C6E72665F636C692E634C
:103E400000000000A3F100002573000070B504001D
:103E50004FF4DA7503D108A12846FFF7A5F92069C8
:103E600018B905A12846FFF79FF92069BDE8704001
:103E70000F4A10A105F090B82E2E5C2E2E5C2E2E2F
:103E80005C2E2E5C2E2E5C2E2E5C636F6D706F6E22
:103E9000656E74735C6C69627261726965735C6390
:103EA0006C695C6E72665F636C692E630000000073
:103EB000A0F10000257300002DE9F04F4FF000093C
:103EC00095B005464F464C4600F05AFF284602F092
:103ED000B3FD284601F03EF8284601F08EF810B9EF
:103EE000284601F0A9F8AA680C2301A90EA82032DF
:103EF00003F044FB03460E9840B15BB14CA2022193
:103F0000284604F01BFB15B0BDE8F08F284601F0F1
:103F100093F8F8E74C484B490026A1EB00080DF157
:103F2000040A834613E008D348A000904CA2022163
:103F30002846019B04F002FBE5E70BEBC604606832
:103F400001685AF82900FCF7BBFB18B1761CB6EBE8
:103F5000D80FE8D9207820B143A140F67D10FFF7B3
:103F600023F900200F90A96848608860C860086144
:103F70006168C86828B14AC9AA68C2E90360C2E991
:103F80000113606809F101040026D0F808800E983A
:103F9000844235D25AF8240041A1FCF791FB40B38A
:103FA0005AF824003FA1FCF78BFB10B310A832464F
:103FB0000090761C0FAB2146404600F073FEFEB128
:103FC0000F98E8B101685AF82400FCF779FB002843
:103FD000DDD10F98C16839B190E84810AA6827462A
:103FE000C2E903C1C2E901360026641CD0F808808A
:103FF000CDE7A868D0F8481141F00201C0F8481197
:10400000A868036933B10E980AEB8702C11B2846E2
:10401000984704E025A20221284604F08FFAA868F8
:10402000D0F8481121F00201C0F848116BE70000F8
:104030006E6F74207465726D696E617465643A2088
:1040400025630A00900A0100500A01003A20636FBC
:104050006D6D616E64206E6F7420666F756E6400A6
:10406000257325730A0000002E2E5C2E2E5C2E2E4A
:104070005C2E2E5C2E2E5C2E2E5C636F6D706F6E30
:10408000656E74735C6C69627261726965735C639E
:104090006C695C6E72665F636C692E630000000081
:1040A0002D6800002D2D68656C700000506C6561F6
:1040B000736520737065636966792061207375622A
:1040C000636F6D6D616E642E0A0000008068D0F829
:1040D0004801C0F3C00070472DE9F0410446C068B4
:1040E0008EB00D46406800263246006801A905F0F2
:1040F000B5FF18B100200EB0BDE8F0816DB1019898
:1041000005F030FFA168D1F83801401CC1F8380132
:1041100000F0070001287AD10126204603F0CAFBEF
:1041200005468078012804D9401EC1B2204601F01E
:104130005DF82878012804D9401EC1B2204600F05D
:104140006FFF2046FFF716FE2EB132A20221204655
:1041500004F0F4F95BE04FF000080023082202A904
:10416000019805F00FFF04980590BDF80C00ADF81C
:104170001800BDF80E00ADF81A008DF81D800298E9
:10418000082700F00300012802D0022818D032E0EE
:1041900002983B46860AC0F3C2008DF81C000298C4
:1041A00008A9C0F38315AA00019805F0EBFE206969
:1041B000009005AB2A4608A9304605F029FE1AE012
:1041C0000298850DC0F3C2008DF81C00082D01D2A5
:1041D0002E4600E008263B46324608A9019805F025
:1041E000D1FE3744AD1B05AA314608A8236905F066
:1041F000E5FC002DEAD1019805F0B4FEE06800224C
:1042000001A94068006805F029FF0028A5D0012019
:1042100071E700004C6F7374206C6F6773202D2062
:10422000696E637265617365206C6F67206261639C
:104230006B656E642071756575652073697A652E8E
:104240000A0000002DE9F0411E4617460D46040005
:1042500000D01DB909A1FD20FEF7A6FF606818B9BE
:1042600006A1FE20FEF7A0FF606833463A460168CB
:104270000C692946A446BDE8F04160472E2E5C2E0D
:104280002E5C2E2E5C2E2E5C2E2E5C2E2E5C636FF2
:104290006D706F6E656E74735C6C69627261726969
:1042A00065735C636C695C6E72665F636C692E63D8
:1042B000000000002DE9FC4100260446012701967C
:1042C00001AB012269462046FFF7BCFF0198002898
:1042D00036D09DF800007F28F2D805F0BDFEA0681A
:1042E000417821B101296FD002296ED18DE09DF86E
:1042F00000500D2D09D00A2D07D0D0F848210021FB
:1043000061F38D12C0F8482122E0D0F84811C1F3C2
:10431000871129B1D0F84811C1F38711A94217D1EB
:10432000D0F8481165F38D11C0F84811A068817F5D
:1043300041B12046FFF7C0FD0221204600F0F4F80D
:10434000BDE8FC81C0F84461204600F075FEF3E74B
:10435000092D1ED004DC002DB2D0082D04D121E09F
:104360001B2D12D07F2D26D0FCF716F90068405D7A
:1043700010F03E0FA4D02046FFF7A8FE30B39DF802
:1043800000102046FFF700FC9AE7A1680120487062
:1043900096E72046FFF79AFE002891D0204600F0CD
:1043A000DDF88DE72046FFF791FE002888D02046F3
:1043B000FFF71AFB84E72046FFF788FE0028E3D0CA
:1043C0002046FFF76DFB7BE716E019E0A1689DF83A
:1043D0000020887F7F28D7D2C87F0B18401CC87761
:1043E00083F82020A068C17F084480F82060A1687D
:1043F000887F401C887763E79DF800105B2901D017
:10440000002100E0022141705AE70021417020465E
:10441000FFF75CFE002893D09DF80000422840D0B2
:104420001BDC33287CD012DC312872D03228ABD18F
:10443000A16803204870A068D0F84811D0F848213E
:1044400027EA010161F30002C0F8482138E7342867
:1044500056D0412898D1012124E0462853D01BDCB6
:10446000432823D044288FD1204603F023FA054661
:104470000078A979491C884202D1A978012987D0FE
:1044800001284FF0010120462FD000F0C9FDA1689E
:10449000C87F401EC87713E748283DD04C2889D1F3
:1044A000C9E70021204602F0ADF909E7204603F0F4
:1044B00001FA054600786978884203D1A978EA783C
:1044C000914298D0697988424FF00101204606D187
:1044D00000F034FD6979204600F0A2FD01E000F013
:1044E00079FEA168C87F401CD4E700F07FFE69799F
:1044F000204600F06FFEA068C17F491EC177DFE64D
:10450000A16803204870204600F024FDD8E607E0AB
:10451000FFE7A16803204870204600F044FDCFE685
:10452000A1680320487046E78268022911700CD107
:104530008268002182F820108268D17782689177A2
:1045400002A20321036803F0F9BF7047257300003E
:10455000002801D0FCF7ADB8704700002DE9F04FFE
:1045600005460020A7B00746159006462090069005
:10457000A868817FC1F17F01C9B25FEA010970D0EB
:10458000C27F00F12001A030FCF761F8A868002488
:10459000C17F084480F8A040FBF7FEFF219001682E
:1045A000A8680C23C27F0244D27F895CC0F84441D2
:1045B000AA6801F0010A07A916A8A03202F0DEFFDE
:1045C0000798FFF7C5FF00F0FF08A346179418945B
:1045D000169818B15044401EB0426CD8BAF1000F82
:1045E00001D0002005E007A850F82600FFF7B0FF33
:1045F000C0B28046002419A822460090641C17AB64
:104600003146584600F04EFB179800286CD00168E0
:1046100007A8424650F8260002F0EEFB0028EAD038
:1046200018987F1CF0B117980068FFF791FF069962
:10463000C0B2884200D90690B9F1000F2ED022A84E
:10464000009018AB31465846159A00F02BFB17988E
:104650000168189801EB08020168002001EB0803CB
:1046600016E08DE0601E209017980068FFF770FF3D
:10467000C0B20690A0EB080048450FDAC0B20CE0CB
:1046800013F800C0614506D1401C10F0FF0010D0A7
:10469000115C0029F4D1814500D98146601E159036
:1046A00017981890A7D266A20421284603F046FF67
:1046B0001AE0FF20EFE7002419A822460090641CAE
:1046C00017AB3146584600F0EDFAECB317980028C6
:1046D00056D0016807A850F82600FBF7F1FF002824
:1046E000EAD11798D0F808B0BBF1000F09D017989D
:1046F00038B11699761CF6B201EB0A008642FFF437
:1047000067AF002F3CD0012F43D000212846069AE6
:1047100008F0F8FC209C0DF11C0A19A82246009014
:10472000641C17AB3146584600F0BCFA1798424655
:1047300001685AF8260002F05FFB40B117987F1E0F
:10474000069A0168284600E01DE008F0DBFC002F17
:10475000E3D146A2032128462B6803F0EFFEAB68A5
:1047600043A208212846203303F0E8FE284600F043
:10477000FBFC18984A4601682846414400F05AFB61
:1047800027B0BDE8F08F2EA20421284603F0D6FE04
:10479000F6E79BF8000038B119A8009018AB314635
:1047A0005846159A00F07EFA18980068FFF7D0FE78
:1047B000404506D018984A4601682846414400F012
:1047C00039FB2198A9680268C87F0B1893F820303C
:1047D000D25CD20715D0897F8842D1D2284603F017
:1047E00069F88478A868C17F491CC177284603F01E
:1047F00061F88078A0421FD10121284600F0EAFC30
:10480000BEE7D1F84801C00711D0D1F8480120F027
:104810000100C1F8480120212846FFF7B5F9A86832
:10482000D0F8481141F00101C0F84811A8E7202153
:104830002846FFF7A9F9A3E7284600F0FDFB9FE70C
:104840005461622066756E6374696F6E3A20636F9F
:104850006D6D616E647320636F756E746572206F29
:10486000766572666C6F7765642E0A000A257300A0
:104870002573000070B505460C0004D107A140F671
:104880000920FEF791FC002D06D0A068D0F8481151
:1048900041F02001C0F8481170BD00002E2E5C2EA2
:1048A0002E5C2E2E5C2E2E5C2E2E5C2E2E5C636FCC
:1048B0006D706F6E656E74735C6C69627261726943
:1048C00065735C636C695C6E72665F636C692E63B2
:1048D0000000000070B5044640680D4690F82800BE
:1048E00030B1A0680068FCF7B1FF08B108280CD10E
:1048F000012685B1606904F043FB6168002208313C
:10490000606904F0F9FA08B1062070BD606880F8AB
:104910002960002070BD606890F8280048B9074AF7
:104920000021A068FCF7ECFE6168002881F828608F
:10493000F0D12046BDE8704008F0BCBDEDDE0000BF
:1049400070B5044640680D4602606068002243600E
:10495000606880F82820606880F82920606820223C
:104960000830FBF774FE2C61074A2946606904F0A1
:10497000C3FA050005D1E06805F070FF206905F075
:104980006DFF284670BD000029E000002DE9F041D0
:104990001C0016460F46054603D106A1D220FEF79D
:1049A00003FC266022463946E868BDE8F04105F080
:1049B00011BE00002E2E5C2E2E5C2E2E5C2E2E5C48
:1049C0002E2E5C2E2E5C636F6D706F6E656E747331
:1049D0005C6C69627261726965735C636C695C7559
:1049E0006172745C6E72665F636C695F756172742C
:1049F0002E63000010B50446406904F0C1FAA068B7
:104A00000068BDE81040FCF721BF00002DE9FC4123
:104A10001D0016460F46044603D11AA1E620FEF7F4
:104A2000C3FB2E602A463946206905F03DFE05008D
:104A300025D16069234A0178515C19B1001D07F046
:104A4000CBFA02E00C3007F099F8C0B9FF200090D3
:104A500001236A4601A9206905F09EFE78B90098F5
:104A60000199C2B2606904F07BFA0546606890F86B
:104A7000290020B11DB92069009905F079FE28466A
:104A8000BDE8FC812E2E5C2E2E5C2E2E5C2E2E5C24
:104A90002E2E5C2E2E5C636F6D706F6E656E747360
:104AA0005C6C69627261726965735C636C695C7588
:104AB0006172745C6E72665F636C695F756172745B
:104AC0002E630000400100202DE9F8431F461446E4
:104AD0008846050002D0B8F1000F03D11EA1CE20F8
:104AE000FEF762FB6868006818B91BA1CF20FEF7CB
:104AF0005BFB002628E000BF686808EB06016B46F8
:104B00000268D2F80CC02246E04718B112A1D920A1
:104B1000FEF74AFB0098844203D20FA1DA20FEF789
:104B200043FB00980644241A70B9A8680178032949
:104B30000AD000BFD0F848118906FBD5D0F848113B
:104B400021F02001C0F84811002CD5D1002F01D050
:104B500000983860BDE8F8832E2E5C2E2E5C2E2E39
:104B60005C2E2E5C2E2E5C2E2E5C636F6D706F6E35
:104B7000656E74735C6C69627261726965735C63A3
:104B80006C695C6E72665F636C692E630000000086
:104B900070B5084C050009D010342168002907D0F1
:104BA00008682060496828468847F6E70834F4E733
:104BB00070BD0000A8080020054A012120B101288D
:104BC00005D19170FFF7E4BF51700020FAE77047FC
:104BD000A808002038B5094C1546206818B908A166
:104BE0000920FEF7E1FA6A4613A16868FBF78EFD1B
:104BF000009821680E30C0B2884738BD38010020C7
:104C00002E2E5C2E2E5C2E2E5C2E2E5C2E2E5C2EDE
:104C10002E5C636F6D706F6E656E74735C6C696231
:104C20007261726965735C6273705C6273705F63FA
:104C30006C692E63000000002575000038B5094C32
:104C40001546206818B908A11320FEF7ADFA6A4688
:104C500013A16868FBF75AFD00982168C0B2884725
:104C600038BD0000380100202E2E5C2E2E5C2E2E2A
:104C70005C2E2E5C2E2E5C2E2E5C636F6D706F6E24
:104C8000656E74735C6C69627261726965735C6293
:104C900073705C6273705F636C692E630000000068
:104CA000257500002DE9F05F1C000A9F1546884617
:104CB000064604D121A14FF48970FEF775FA27B991
:104CC0001EA140F21310FEF76FFA4FF00009B8F181
:104CD000000F0BD01EB3307838B3726839462846BF
:104CE00090473868D8B12760BDE8F09F2149224835
:104CF000A1EB0008B5EBD80F14D2DFF880A0002696
:104D0000834609E00BEBC607786801685AF825006E
:104D1000FBF7D6FC20B1761CB6EBD80FF2D301E03E
:104D2000786808E0C4F80090DEE7706800EB0510D2
:104D300001680029F6D02060D6E700002E2E5C2EF8
:104D40002E5C2E2E5C2E2E5C2E2E5C2E2E5C636F27
:104D50006D706F6E656E74735C6C6962726172699E
:104D600065735C636C695C6E72665F636C692E630D
:104D700000000000900A0100500A0100900300208A
:104D80002DE9F04185680646002495F820000028AA
:104D900011D0A046FBF700FC0746006804F1200193
:104DA00004F10104695CE4B2415CC90705D0002C40
:104DB000F4D185F82080BDE8F081641E14F0FF0472
:104DC0000FD0A87F021B04F12000291805F1200054
:104DD000521CFBF73CFCB168887F001B8877B168E8
:104DE000C877B2683D68937FD0181F300446002111
:104DF00002E0491CC9B2401E0778EF5DFF07F8D1F9
:104E00008442D8D05B1A203302F80380B268907FC6
:104E1000401A9077B168C877CDE710B5D0E9023471
:104E2000D1E90220D11AA04101D3012010BD0020F8
:104E300010BD00002DE9F04115460F00044604D1D5
:104E400023A140F22D60FEF7AFF9A068817FC27FF9
:104E50008B1A2944DEB27F2937D8002D35D0104473
:104E600000F1200105F120021044721CFBF7EFFB5A
:104E7000A0682A46C17F084439462030FBF7E7FB8B
:104E8000A0682030FFF764FBA1681FA28877A068A4
:104E9000C17F431808212046203303F04FFBA06850
:104EA000C17F2944C177204600F0A7F818B92046F1
:104EB00000F081FF10B1204600F0BEF8002E04D0B3
:104EC0002046BDE8F04100F04FB9BDE8F081000098
:104ED0002E2E5C2E2E5C2E2E5C2E2E5C2E2E5C2E0C
:104EE0002E5C636F6D706F6E656E74735C6C69625F
:104EF0007261726965735C636C695C6E72665F6334
:104F00006C692E630000000025730000EFF305803C
:104F1000C005C00D10D0103840B2002806DA00F0ED
:104F20000F0000F1E02090F8140D03E000F1E02004
:104F300090F80004400970470F207047002904D002
:104F40000A46006901A104F027B870471B5B25647D
:104F50004200000070B5054602F0ACFC0446007843
:104F60006178884203D1A078E17888421AD0E1784C
:104F7000A078814204D9081AC1B22846FFF7DEFFA3
:104F800020786178884205D9401AC1B2284600F0DD
:104F900047F804E0081AC1B2284600F01BF9A868D7
:104FA000817FC17770BD70B5054602F083FC044671
:104FB00001788079401C814202D1A07801281BD061
:104FC000A078012804D9401EC1B2284600F00EF98D
:104FD0002078A179884206D9401A401EC1B22846DD
:104FE00000F01EF805E0081A401CC1B2284600F087
:104FF000F1F8A9680020C87770BD10B504460068B4
:10500000FFF7A6FA0146A068C27F407E1144B1FBBB
:10501000F0F200FB121008B1002010BD012010BDFD
:10502000002904D00A46006901A103F0B5BF70470A
:105030001B5B256444000000006901A103F0ACBFC4
:105040000A0000002DE9FC47002604468DF80460A4
:1050500080683546B146B0468021A030FBF71EFB84
:105060004049206903F098FF206903F0D5FF00272D
:105070006B46012201A92046FFF7E4F80098D8B159
:105080009DF804001B2806D0A16891F8A0101B29E8
:10509000EED152281FD0A26808F1A001505408F1A7
:1050A000010000F0FF08B8F1090F0AD9A168042037
:1050B00081F8A090BDE8FC872A494FF6C010103156
:1050C000884700980028D3D17F1CBFB2B7F57A7FFC
:1050D000CED30D20EEE7A16808F1A0004A4601F802
:1050E0000090A16891F8A1005B2803D081F8A0206E
:1050F0000B20DFE702206FF02F0309E005EB8505A9
:1051000003EB4505401C3D44C0B2ADB2802808D237
:1051100000F1A007CF5D3B2FF0D1401CC0B280282A
:1051200009D30C20C6E700BF06EB860603EB460654
:105130003E44B6B2F1E700F1A007CF5D002FF3D1F6
:10514000FA20FA2E01D9087500E00E75FA2D02D961
:10515000A168887501E0A0688575A06880F8A02026
:105160000020A7E7C1F1000070B5054602F0A2FBE0
:1051700004468078E178884201D1012600E00026CB
:105180002846FFF73AFF18B9284600F014FE10B180
:105190002846FFF751FF1EB160782178401A12E0CF
:1051A000E078A178401AC1B2284600F01FF82078B4
:1051B0006178884206D9401AC1B22846BDE87040DD
:1051C00000F008B8081AC1B22846BDE87040FFF7E1
:1051D00027BF0000002904D00A46006901A103F09E
:1051E000DBBE70471B5B256443000000002904D030
:1051F0000A46006901A103F0CFBE70471B5B25641E
:105200004100000070B500240F4D10E0686800EB0D
:10521000C406307806F09CF87178012901D001218C
:1052200000E000214140307800F0B2FC641C287896
:105230008442EBDBD5E90401084303D0BDE87040AC
:1052400008F0BCBE70BD00009001002010B5002128
:10525000024802F0B8FB80F3100010BD00140020DB
:105260004FF4803202FA01F100F052BC4FF4A07208
:1052700002EB810189B200F0F7BC00002DE9F0419A
:10528000984617460E46050003D113A17020FDF77E
:105290008BFF4FF4A07000EB860081B228684FF4BA
:1052A0008034B44027F07F47C0F808432868C0F82E
:1052B0004843286805F0F8FA286800EB8600C0F833
:1052C00040752868C0F84443B8F1000F02D0286840
:1052D000C0F80443BDE8F0812E2E5C2E2E5C2E2EED
:1052E0005C2E2E5C2E2E5C2E2E5C636F6D706F6EAE
:1052F000656E74735C6C69627261726965735C740B
:10530000696D65725C6472765F7274632E6300000F
:105310000068D0F8040570472DE9F04715460E46A1
:10532000040003D138A12F20FDF73EFF1EB936A19E
:105330003020FDF739FF1DB933A13120FDF734FFCF
:1053400060793F49DFF8F890DFF800A141F820507C
:10535000617909F1040909EBC1003A4902793A4837
:10536000081AC7084AB1BAF802000824022848D32C
:10537000022000EB074036A141E03588D4F80080D8
:10538000B5F5805F04D33BA14FF4AB70FDF70CFF84
:10539000C8F80855B67894F90450082E03D341A1F3
:1053A0004520FDF701FF002D4FEA461006DA05F013
:1053B0000F0101F1E02181F8140D03E005F1E02572
:1053C00085F8000494F90400012100F01F0201FA9D
:1053D00002F24009800000F1E020C0F8002162796B
:1053E00009EBC2021171617949F83140BAF8020043
:1053F0000024032805D3032000EB074035A104F067
:10540000A9FB2046BDE8F0872E2E5C2E2E5C2E2EAA
:105410005C2E2E5C2E2E5C2E2E5C636F6D706F6E7C
:10542000656E74735C6C69627261726965735C74D9
:10543000696D65725C6472765F7274632E630000DE
:105440007C020020380B0100B00A0100F4030020A8
:1054500052544320696E7374616E636520616C728F
:105460006561647920696E697469616C697A6564E3
:105470002E0000002E2E5C2E2E5C2E2E5C2E2E5C1E
:105480002E2E5C2E2E5C6D6F64756C65735C6E7277
:1054900066785C68616C2F6E72665F7274632E68EA
:1054A000000000002E2E5C2E2E5C2E2E5C2E2E5C1C
:1054B0002E2E5C2E2E5C696E746567726174696F46
:1054C0006E5C6E7266785C6E7266785F676C75652E
:1054D0002E6800005254433A20696E697469616C09
:1054E000697A65642E00000090F90400012100F043
:1054F0001F0291404009800000F1E020C0F8001236
:1055000070470A46022100F015BB4FF4827100F08B
:10551000ABBB000010B5040003D104A16120FDF76E
:1055200043FE20680121016010BD00002E2E5C2E7C
:105530002E5C2E2E5C2E2E5C2E2E5C2E2E5C636F2F
:105540006D706F6E656E74735C6C696272617269A6
:1055500065735C74696D65725C6472765F727463A6
:105560002E63000010B5040003D104A16720FDF7ED
:105570001BFE20680121416010BD00002E2E5C2E14
:105580002E5C2E2E5C2E2E5C2E2E5C2E2E5C636FDF
:105590006D706F6E656E74735C6C69627261726956
:1055A00065735C74696D65725C6472765F72746356
:1055B0002E6300002DE9F05F9B4615460C46060061
:1055C00003D136A1A720FDF7EFFD4FF4803000FA9C
:1055D00004F84FF4A07000EB84001FFA80FA25F065
:1055E0007F454146304600F093FA3068D0F80475A4
:1055F00000EB8401D1F84095C1F840755146306800
:1056000005F052F9A9EB070020F07F40012806D1F0
:10561000102005F08FFD5146306805F045F93068DF
:10562000D0F80475C0F84483E91B21F07F4230684C
:10563000012A00EB840010D0C0F840553068D0F843
:1056400004156FF07F476A1A521E22F07F42A7EBC3
:105650000B03934217D362B118E06D1CC0F840559C
:10566000102005F067FD3068D0F80405B8420AD173
:105670000CE000EB84006D1CC0F840553068D0F899
:105680000405884202D00D20BDE8F09F012241466A
:10569000304600F04FFA0020F6E700002E2E5C2E78
:1056A0002E5C2E2E5C2E2E5C2E2E5C2E2E5C636FBE
:1056B0006D706F6E656E74735C6C69627261726935
:1056C00065735C74696D65725C6472765F72746335
:1056D0002E63000070B50646D87814460D4618B9FA
:1056E0000322304609F030FA6068012120B103211D
:1056F0002046FDF7E7F914E094F8280098B100205F
:105700004FF4006204EB80035B69934202D12318DB
:1057100083F8241094F829301BB1401CC0B204282F
:10572000F0D3002070BDA86981683046BDE87040A4
:105730000847000010B50446010600F00F000928D4
:1057400004D306494FF42670FDF72EFD6FEA04607E
:10575000C10F204661F31F1010BD0000B8E6000025
:1057600070B50546000605F00F0402D5092C09D3D3
:1057700001E0092C08D307A140F28520FDF714FDB4
:10578000280601D5114801E01048903800EB0410BC
:1057900070BD00002E2E5C2E2E5C2E2E5C2E2E5CFC
:1057A0002E2E5C2E2E5C6D6F64756C65735C6E7254
:1057B00066785C647269766572735C7372635C6E42
:1057C0007266785F757362642E630000040A0020BD
:1057D00010B50446010600F00F00092804D3034960
:1057E0004FF41A70FDF7E0FC204610BDB8E600004B
:1057F00005F072B9812005F0E9B9822005F0E6B91B
:10580000832005F0E3B9842005F0E0B9852005F098
:10581000DDB9862005F0DAB9872005F0D7B98820F0
:1058200005F022BA38B508F01DFF0020FFF798FFF9
:10583000817B0124032905D0006868B1BDE83840A8
:1058400007F043BA0020FFF775FF8440E143BDE84D
:1058500038400A4805F044BB0020FFF76BFF844046
:10586000E143064805F03CFB05480449C0680C3993
:10587000009049686846884738BD000084010020D0
:10588000B8ED0000012005F05DBA022005F05ABA1B
:10589000032005F057BA042005F054BA052005F09E
:1058A00051BA062005F04EBA072005F04BBA0000A9
:1058B00038B5082408F0D6FE2046FFF751FF817B5B
:1058C000032915D00068002812D12046FFF732FFC7
:1058D00001218140C943074805F002FB06480549FC
:1058E000406900900C398DF8024049686846884745
:1058F00038BD000084010020B8ED000070B51348E9
:1059000004680460BFF36F8FBFF34F8F06F0EFFFA3
:1059100038B10F49086920F0011200F0011014435A
:10592000086101266CB194FAA4F0B0FA80F528461B
:10593000FDF76AFC06FA05F18C43294609F058F890
:10594000F0E7BDE8704008F0D3BE00006C74024080
:105950007801002010B5054CA078FFF7EBFE01465A
:10596000A078BDE8104009F043B80000780100209D
:10597000F8B51A4800681A4DC6B2A878FFF7DAFEE3
:10598000012404FA00F12889EA68C04380B2104378
:10599000014202D0A87808F085FF06F08000A870C8
:1059A0000020FFF7C7FE04FA00F68020FFF7C2FED2
:1059B00004FA00F006430A48F1430C3005F090FA6F
:1059C0008020FFF7B7FE8440A86804430548AC6018
:1059D000006A0090696868468847F8BD8074024094
:1059E00078010020B8ED000038B5002000900E4886
:1059F0000068ADF802008820FFF79CFE012505FA3B
:105A000000F4082005F072F9401C04D00820FFF7CC
:105A100091FE85402C430549886820438860496889
:105A20006846884738BD0000207502407801002094
:105A300070470000F8B51C480568284605F032FAA2
:105A4000BFF36F8FBFF34F8F184E194CE80506D583
:105A500001206070706A0090616868468847A805F8
:105A60004FF0000705D56770B06A0090616868461E
:105A70008847680516D56078002813D005F01CFA11
:105A800020B10CA14FF49B60FDF78EFB67701749A6
:105A900001200860582005F017FAF06A009061684C
:105AA00068468847F8BD000000740240B8ED000069
:105AB000780100202E2E5C2E2E5C2E2E5C2E2E5C6D
:105AC0002E2E5C2E2E5C6D6F64756C65735C6E7231
:105AD00066785C647269766572735C7372635C6E1F
:105AE0007266785F757362642E6300000875024009
:105AF000054908B500204870887004484068009047
:105B000049686846884708BD78010020B8ED000064
:105B100070B50C46050003D105498D20FDF744FB07
:105B20002868C0F848432868C0F8084370BD0000E2
:105B3000585B000070B516460C46050003D106A15F
:105B40008320FDF731FB2868C0F84443002E02D0C3
:105B50002868C0F8044370BD2E2E5C2E2E5C2E2EBD
:105B60005C2E2E5C2E2E5C2E2E5C636F6D706F6E25
:105B7000656E74735C6C69627261726965735C7482
:105B8000696D65725C6472765F7274632E63000087
:105B90002DE9F0470E463249804601EB5001C0071F
:105BA000097801D00F0901E001F00F0742460120FA
:105BB0000021FAF7E2FCDFF8AC9004460D46052F11
:105BC0004BD2DFE807F0031419262A00002E44D038
:105BD0000121404608F012F80020FDF701FA48467E
:105BE000D0E904120C431543C9E9044530E00EB175
:105BF000022114E0002112E04EB10321404607F0DB
:105C0000FDFF4046BDE8F047012108F0ABBF012190
:105C100005E0002E21D1042101E02EB103214046F0
:105C2000BDE8F04707F0EABF0021404607F0E6FF75
:105C30000021404608F096FF0020FDF7D1F94A46C2
:105C4000E043D2E90434184024EA0501C9E904011B
:105C5000BDE8F0470020FDF7F1B9BDE8F08700008E
:105C6000AC0B00209001002070B50C46050003D15C
:105C700006A19420FDF798FA2868015921B1214620
:105C800004F012FE012070BD002070BD2E2E5C2E8F
:105C90002E5C2E2E5C2E2E5C2E2E5C2E2E5C636FC8
:105CA0006D706F6E656E74735C6C6962726172693F
:105CB00065735C74696D65725C6472765F7274633F
:105CC0002E6300002DE9F05F17460E00814670D06C
:105CD00013B1F9B2FFF77EFA0024FAF75DFC8246B1
:105CE000006800E0641C315D415CC907FAD1002501
:105CF0003046FEF72DFCD9F80810001B4A7ED11B58
:105D0000814228D306EB040805E000BF18F805100F
:105D10000A290CD06D1C8542F8D33119D9F810002E
:105D200003F03AF94846BDE8F05FFFF785B9D9F8C6
:105D3000100003F071F9414600232A464846FEF759
:105D4000C3FE2C444846641CFFF776F9F9B2484676
:105D5000FFF740FAE1E78B46DAF8001006EB04089B
:105D600018F805000B5CDB0702D0AB460A2804D00C
:105D7000E819904201D26D1CF2E7D9F8100003F047
:105D80004BF9414600235A464846FEF79DFE5C44C7
:105D9000DAF8000000E0641C315D415CC907FAD10B
:105DA0004846FFF749F9F9B24846FFF713FA9EE76C
:105DB000FFE7BDE8F09F10B504460068FEF7C8FB9A
:105DC0000146A068827F407E1144B1FBF0F200FBE7
:105DD000121008B1002010BD012010BD10B50B48F5
:105DE000FFF796FA094A083AD2E90434C018D2E912
:105DF000063244F10001C31A71EB020204D24FF0E3
:105E00008072801841F1000110BD0000D80100200F
:105E100010B5C0B2FDF774FD0446007805F098FA9D
:105E200001466078012801D0012000E0002090EABE
:105E3000010F08D00449D1E90401084303D1BDE8AA
:105E4000104008F0BBB810BD900100207F2801DD94
:105E50007F2070476FF07F01884201DA0846704763
:105E600040B270472DE9F84F5FEA000B03D1264995
:105E70007C20FDF799F9584600F09AFA054600F0A3
:105E800045F80090284600F0D5FB6D6B04460022D3
:105E90002146284604F0E2F807460528F7D10020FD
:105EA000FDF79EF89BF80890002521E0294658460A
:105EB000FBF7B2FE824690F80180002414E02146F0
:105EC0005046FBF781FE0646007800F00F000828D8
:105ED00003D30D499920FDF767F93078010601D504
:105EE00006F04CFA641CE4B24445E8D36D1CEDB2F4
:105EF0004D45DBD303210098FCF7E9FD0020FDF7B9
:105F00009DF83846BDE8F88F60F6000010B5040033
:105F100003D106491B20FDF747F9206818B903494A
:105F20001C20FDF741F920680C3010BD60F6000020
:105F300070B5064600F03CFA0446FFF7E7FF054659
:105F4000606B04F0F9F828B103212846FCF7BFFD87
:105F5000002070BD3046BDE8704000F07BBB3EB510
:105F6000044600F025FA054620460021FBF754FEC2
:105F70000121FBF729FE047805F11000FCF796FDDE
:105F80000021009101910291016800914068019007
:105F900069462046FCF71EFA3EBD000070B50D466E
:105FA000060004D10C4940F2AB10FDF7FDF825B90D
:105FB00009494FF4D670FDF7F7F8304600F0F8F9CC
:105FC00000F11004FFF7A2FF02462B46214630469F
:105FD000BDE87040FCF74ABC60F600002DE9F84FC0
:105FE0008B46DFF8C4830546097A1F46164688F8B3
:105FF0000010584600F0DCF9824625B9EB4940F222
:10600000ED10FDF7D1F829684FF0000940F20622A3
:106010004C46A1F20620914271D024DC40F2FD12E0
:10602000A1F2FD1091426BD014DC40F2F910A1F204
:10603000F912814258D008DC79B3B1F5FA7F36D035
:10604000A1F58071F53974D13CE0022A59D0032AB8
:10605000F9D163E009286CD2DFE800F06B7D899408
:106060006B6B9FAAB500192870D00EDC0E286ED07D
:1060700006DC01286CD002286BD00B28E3D1E0E0CD
:106080000F2867D01828DED11CE11D380528E2D280
:10609000DFE800F0F9F8F7F6F50088F8019074E110
:1060A00009202871BC4202D34FF4FA7057E10EB1B7
:1060B000287930550420641C2871BC4202D340F278
:1060C000F5104CE10EB12879305598F8011058467A
:1060D000641CFBF7A1FDC8F8080000782871BC42D9
:1060E00002D340F2F9103AE10EB128793055641C20
:1060F00085F80490BC4204D340F2FB102FE16DE020
:1061000018E00EB128793055D8F80800641CBC425C
:106110004078287102D34FF4FE7020E10EB1287947
:1061200030550320641C2871BC4203D340F2FD109B
:1061300015E134E10EB1287930559AF81800641C45
:106140002871BC4207D34FF4FF7008E1C5E089E035
:106150004FE05BE098E00EB1287930559AF81900CD
:10616000641C2871BC4202D340F2FF10F7E00EB16C
:1061700028793055641C85F80490BC4202D34FF452
:106180000070ECE00EB1287930550920641C2871AC
:10619000BC4202D340F20320E1E00EB12879305531
:1061A0002120641C2871BC4202D34FF40170D6E058
:1061B0000EB1287930551120641C2871BC4202D3DD
:1061C00040F20520CBE00EB1287930550120641C47
:1061D0002871BC4202D340F20620C0E00EB12879FB
:1061E0003055641C85F80490BC4202D340F207206D
:1061F000B5E00EB1287930555846641C00F0E4F83B
:106200002871BC4202D34FF40270A8E00EB1287985
:1062100030555846641C00F0D7F888F8020088F81A
:1062200003903AE05846009100F0C2F800690099E6
:10623000BC4250F821000079287102D340F21120AD
:106240008DE00EB12879305598F803105846641C3B
:1062500000F0CAF8A8F806002871BC4202D34FF437
:1062600005707CE00EB128793055B8F80600641C42
:10627000000A2871BC4207D340F215206FE072E09B
:106280005FE053E047E03BE00EB12879305598F8E5
:106290000310491C88F80310641C98F8031098F840
:1062A000022040469142BDD3816849780171494638
:1062B00088F8039061E007202871BC4202D340F2C5
:1062C0001E204CE00EB1287930550520641C287141
:1062D000BC4202D340F21F2041E00EB12879305574
:1062E00098F80310641CD8F80800FBF76DFCC8F898
:1062F0000C0000782871BC4202D340F223202EE02B
:106300000EB1287930550320641C2871BC4202D399
:106310004FF4097023E00EB1287930554020641CF9
:106320002871BC4202D340F2252018E00EB1287932
:106330003055641C85F80490BC4202D340F22620FC
:106340000DE00EB12879305598F80300DAF83010D6
:10635000641CBC42085C287105D340F227202860E9
:106360000120BDE8F88F0EB12879305598F8031058
:106370004046491C88F80310641C0279C9B2914256
:1063800099D34178491C88F8011098F8011098F8C1
:1063900000008142FFF484AE40F22B20DFE70020B2
:1063A000C5F80090DDE700005002002060F6000014
:1063B00010B5040003D103492B20FCF7F5FE20465D
:1063C00010BD000060F6000010B5FFF7F1FF007D82
:1063D00010BD70B514460D46FFF7EAFF006950F88E
:1063E00025008068204470BD10B50C46FFF7E0FF23
:1063F000006950F82400006810BD000070B50C0062
:10640000054604D1064940F24320FCF7CDFE28465C
:10641000FFF7CEFFFFF77AFD0461002070BD00009A
:1064200060F6000070B505460C460020FCF7D8FD6C
:10643000134A35B1012D08D0022D13D0032D17D1E9
:1064400007E010882044108012E0508820445080DB
:106450000EE01079012C02D020F0020007E040F09D
:10646000020004E01079012C07D020F00100107127
:10647000BDE870400020FCF7E1BD40F00100F6E708
:106480008E00002070B51C4E3078002832D1B41D2B
:106490002146B4F90000097920B9628812B96279FD
:1064A000914227D0144D6D1C2970FFF7CFFC687006
:1064B000B4F90200FFF7CAFCA870042229460F486D
:1064C000FCF7A6FA002815D10120307028786071F9
:1064D0000020FCF785FD208895F90110401A2080E6
:1064E000608895F90210401A6080BDE87040002075
:1064F000FCF7A4BD70BD00008800002074EC000013
:1065000038B50C46FFF754FF024600200090207972
:10651000012805D0022808D003280BD0062038BD5A
:1065200069461046FCF76EFA08E069461046FCF72B
:106530009EFA03E069461046FCF73AFA0146601CF1
:10654000009AFBF739FE38BD70B50C460546FFF7DB
:106550002FFFFFF7DBFC026922B121462846BDE888
:1065600070401047062070BDF0B50D460979002631
:10657000244F85B0022904D003291FD0062005B07E
:10658000F0BDFFF715FF04461030FCF78FFA0268E4
:10659000E97811700096019602960168491C0091F5
:1065A0004068401E01900020FCF71AFD694600205B
:1065B000FBF710FF05001FD1386816E0FFF7F8FE63
:1065C00004461030FCF75AFA0096019602960168CC
:1065D0000091406801900020FCF702FD6946002010
:1065E000FBF7F8FE050007D1B868CDE9030403A95D
:1065F0000020FBF76DFD05460020FCF71FFD284637
:10660000BDE7000070EF000010B50200084601D0A1
:10661000032010BDC26A02219047002010BD10B5B2
:106620000200084601D0032010BDC26A0421904731
:10663000002010BD10B5040003D105493A20FCF735
:10664000B3FD04F11000BDE81040FCF723BA0000D0
:1066500060F60000FEB50446FFF758FC06462046EB
:10666000FCF7FAF8074603213046FCF730FA606B76
:1066700003F062FD90F0010026D02046FFF7DAFF1C
:10668000054600222946606B03F0E8FC18B10F496B
:106690006B20FCF789FD0020009001900290286893
:1066A0000090686801900020FCF79AFC6946384623
:1066B000FBF790FE040003D103213046FCF711FAEA
:1066C0000020FCF7BBFC2046FEBD000060F6000089
:1066D0002DE9FC41024690F828004FF6FF7400B304
:1066E0000020009040F2FF7C6F46019013181B7A47
:1066F0009B0027F8103061450DD102EB80067569CB
:10670000B5F5006F07D005F2FF75B5FBF3FE03FB8F
:106710001E556D1C7561556825B103211046FCF7A7
:10672000D1F914E002EB80056D690D44B5FBF3F679
:1067300003FB16550A26B3FBF6F39B1C9D4207D3B9
:1067400092F829301BB1401CC0B20428CED3204699
:10675000BDE8FC8170B51B4A1B4C0323121B184D6E
:10676000D20803EB0244B1B101291CD002290BD09D
:10677000032923D1154900200870FFF783FEBDE8E7
:1067800070400220FCF7A6BDBDE8704010A14FF498
:10679000A670FCF709BDFFF765FB688803280DD3D9
:1067A00020460FA106E0FFF75DFB6888032805D3AC
:1067B00020460FA1BDE8704003F0CCB970BD0000C9
:1067C0001C040020880B0100B00A01008800002092
:1067D0002E2E5C2E2E5C2E2E5C6D61696E2E63005B
:1067E0005345545F424F4F545F50524F544F000037
:1067F0005345545F5245504F52545F50524F544F7F
:1068000000000000FEB500260446009601960296A0
:106810008068E9B3D0E950128A4272D0D0F83C01C6
:1068200000286ED02046FEF7BEFBA068D0F8445189
:10683000002D69D0002309226946284603F0A2FBF7
:10684000A1689DF808500098C1F84401A068002391
:106850000922D0F84401694603F094FBA1689DF831
:1068600008200923D1F844012031521C03F08AFB8F
:10687000A1689DF80800C877A1689DF8080088778E
:106880009DF80800A84202D22046FDF773FA00E006
:106890000BE0A3682BA208212046203301F04EFE16
:1068A0002046FEF7AAFB68BB43E0D0F8440100286D
:1068B00047D02046FEF777FBA06800230922D0F8D6
:1068C0004401694603F05EFBA0680199C0F84411D9
:1068D000A0680029857FB9D1A030FDF739FE0028D6
:1068E000A06805D000F1A0012030F9F7F7FE01E023
:1068F00080F82060A0682030FDF72AFE8DF808009F
:10690000B6E71EE01AE0FFE72030FDF721FE10F0A9
:10691000FF05A068D0F83C11C0F84411A06805D06C
:1069200000F12001A030F9F7D9FE8FE780F8A060D0
:106930008CE72046FFF73FFA002802D02046FEF7FA
:106940007BFBFEBD25730000FEB50D00044604D19F
:106950001E4940F28450FCF727FCA1680026D1F8BC
:106960003C0138B300230922694603F00BFB019573
:10697000A06800230922D0F83C01694603F030FBEF
:106980000196A068D0F83C110091807F8DF8080036
:10699000A068C0F83C51002309226946284603F04C
:1069A0001FFBA168092328468A7F2031521C03F06F
:1069B00017FBFEBDC1F83C51A068C0F840510096DD
:1069C0000196A068807F8DF80800E4E70CDE0000E7
:1069D000FEB504468068D0F84061002E28D0002320
:1069E00009226946304603F0CDFAA16801980025D6
:1069F000C1F84001009501952B46092269463046B1
:106A0000029503F0EDFA304603F08DFAA168D1F853
:106A1000400170B100230922694603F0B3FA0095E2
:106A2000A06800230922D0F84001694603F0D8FA93
:106A3000FEBDC1F83C51FEBDFEB504468068203065
:106A4000FDF786FD10F0FF05A0684FF00006C0F8C6
:106A5000446133D0A068D0F83C01E0B100230922A2
:106A6000694603F08FFA9DF80820AA4213D1A06866
:106A7000092300F1A001D0F83C01521C03F082FA76
:106A8000A06800F1A0012030F9F71AFE0028A068E4
:106A900080F8A06012D000260A352946606903F00C
:106AA00012FA0100204604D003B0BDE8F040FFF721
:106AB0004BBFFFF78DFF761C082EEED3FEBD000006
:106AC00008B509B1062008BD04A0022200680090A4
:106AD00069460348FBF772FF08BD0000BEEF0000E7
:106AE00074EC000010B512490220FCF775FD20B1CE
:106AF00010A240F2E311F9F7FFFB18220021022057
:106B0000FCF748FD20B10BA240F2E511F9F7F4FBC8
:106B1000192200210320FCF73DFD20B105A24FF40E
:106B2000F371F9F7E9FBBDE810400120FCF7A8BBC1
:106B3000413500002E2E5C2E2E5C2E2E5C6D616980
:106B40006E2E630000B589B01848FCF7F3FC20B145
:106B5000174A40F2F111F9F7CFFB2022154901A89D
:106B6000F9F775FD062001900820029000208DF8AD
:106B70001800032000900F4801231A4601A950383D
:106B800001F0AAFE20B10A4A40F2F711F9F7B4FB6E
:106B90000848503801F0F6FF002804D0044A40F2BB
:106BA000F911F9F7A9FB09B000BD0000413500005B
:106BB000346B0000ACEC00002DE9FC5F0E00834656
:106BC000DDE90C47C6F1000098469246814600D4A4
:106BD0000846012503E000BF90FBFAF06D1C50450C
:106BE000FADAA84500D9454624B1002E01DB780722
:106BF00000D5641EB80702D5B8F1000F0AD0F80717
:106C000008D13CB1A54205D220215846641EFCF7AC
:106C100055FEF6E7002E02DA4E462D2102E07807F7
:106C200003D52B215846FCF749FE07F00300022844
:106C30000BD1B8F1000F08D13CB1A54205D23021EB
:106C40005846641EFCF73AFEF6E7CDE90047434696
:106C500052463146584607F0EFFBBDE8FC9F000066
:106C600070B50E46054600684FF48E7103F01DFFA7
:106C70004FF4A271286803F018FF28681449C0F87F
:106C800004132868082E40F3073403D311A14520CC
:106C9000FCF78AFA7007000E002C06DA04F00F01E8
:106CA00001F1E02181F8140D03E004F1E02484F8FF
:106CB00000042868012140F3073000F01F029140D2
:106CC0004009800000F1E020C0F8001170BD000014
:106CD000800002002E2E5C2E2E5C2E2E5C2E2E5C52
:106CE0002E2E5C2E2E5C696E746567726174696FFE
:106CF0006E5C6E7266785C6E7266785F676C7565E6
:106D00002E68000070B50E46044600684FF4887186
:106D100003F0DCFE4FF49071206803F0D7FE4FF4CF
:106D20009271206803F0D2FE4FF4A271206803F044
:106D3000CDFE4FF4AC71206803F0C8FE2068144902
:106D4000C0F804132068082E40F3073503D311A1BF
:106D50004520FCF729FA7007000E002D06DA05F031
:106D60000F0101F1E02181F8140D03E005F1E025A8
:106D700085F800042068012140F3073000F01F026D
:106D800091404009800000F1E020C0F8001170BD82
:106D9000100342002E2E5C2E2E5C2E2E5C2E2E5CBE
:106DA0002E2E5C2E2E5C696E746567726174696F3D
:106DB0006E5C6E7266785C6E7266785F676C756525
:106DC0002E680000024600201268530713D502F017
:106DD0000300012802D002280CD105E0C2F3831081
:106DE0000B68801C184404E00223086803EB9252ED
:106DF000104408600120704710B5F9F778FC08B11D
:106E0000002010BD012010BD0268134602E08A4236
:106E100004D01268002AFAD10B60016070470000AC
:106E20000A4810B5807860B1002401E0022C06D039
:106E30002046FCF785FA641C042CF7D310BD03240C
:106E4000F6E7BDE81040FCF703BB0000B0000020EF
:106E500003480179C90702D00078FCF707BC7047E6
:106E6000B0000020014B00F069BF0000317000004D
:106E7000014B00F063BF0000FD710000014B00F00A
:106E80005DBF000005720000014B00F057BF00001D
:106E9000ED7200007CB514460546012902D001F0D0
:106EA00015FD38B102B02846BDE8704000221146F9
:106EB00001F0A2BB616805A0CDE9000109A2022191
:106EC0002846236801F03AFB7CBD000020756E6BFC
:106ED0006E6F776E20706172616D657465723A20B5
:106EE0000000000025733A257325730D0A00000089
:106EF0002DE9FC41074601F0E9FC38B102B0384603
:106F0000BDE8F0410022114601F076BB1248134E55
:106F1000801B050900241AE006EB0410C2681179F1
:106F2000FF2903D0527942B10DA207E083680EA277
:106F30000821384601F002FB08E013A2CDE9002148
:106F4000836814A20821384601F0F8FA641CAC42A8
:106F5000E2D3BDE8FC810000B00A0100900A010004
:106F6000656E61626C65640025730D0A092D2053FE
:106F700074617475733A20646561637469766174D1
:106F800065640D0A0D0A000064697361626C6564D2
:106F90000000000025730D0A092D205374617475DB
:106FA000733A2025730D0A092D2049443A2025649F
:106FB0000D0A0D0A0000000010B5044601F086FC21
:106FC00030B120460022BDE81040114601F014BB4C
:106FD0002046BDE8104002A2022101F0AFBA000035
:106FE0004E6F7420737570706F727465642E0D0A25
:106FF0000000000010B5044601F068FC30B12046E6
:107000000022BDE81040114601F0F6BA2046BDE866
:10701000104002A2022101F091BA00004E6F7420CC
:10702000737570706F727465642E0D0A0000000035
:107030002DE9FF4FC86881B01D46007917004FF059
:107040000006009057D0072245A12868F9F74FFBAA
:1070500078B1082244A12868F9F749FB00282FD00D
:107060002B6843A2019805B00221BDE8F04F01F062
:1070700065BA012F02D0022F08D008E0019805B0B0
:1070800041A2BDE8F04F022101F058BA0126DFF815
:10709000108100240A2258F824106868F9F727FBA9
:1070A00010B1641C052CF5D3052C06D004F0FF09A3
:1070B0000224002E51D0002419E03AA26B68D1E7D7
:1070C000012F4FF00009F6D0012446E04A46214640
:1070D000009800F095FB48B90021204602F074FEAC
:1070E000034638A20221019801F028FA641C02F03C
:1070F00015FEA042EAD805B0BDE8F08F4FF0000AB7
:1071000055F824B002F00AFE8046002609E000216E
:10711000304602F059FE20225946F9F7E8FA58B1F4
:10712000761C4645F3D3464508D04A46514600985A
:1071300000F066FB30B10FE0B246F4E755F82430BA
:1071400029A205E00021504602F03EFE03461DA2A2
:107150000221019801F0F2F9641CBC42CED3CAE7C7
:10716000656E61626C65000064697361626C6500E4
:10717000556E6B6E6F776E206F7074696F6E3A200C
:1071800025730D0A00000000426164207061726185
:107190006D6574657220636F756E742E0D0A000044
:1071A00014030020556E6B6E6F776E2073657665E5
:1071B00072697479206C6576656C3A2025730D0AC6
:1071C000000000004C6576656C20756E6176616923
:1071D0006C61626C6520666F72206D6F64756C65A2
:1071E0003A2025730D0A0000556E6B6E6F776E2086
:1071F0006D6F64756C653A25730D0A00C9680120CE
:1072000048717047C96800204871704730B4134610
:10721000C4680A46214630BCFFF70ABFC068012196
:10722000C06841717047C0680021C06841717047F3
:1072300030B41346C4680A46214630BC00F056B844
:107240002DE9FF410026264800F0A1FB2448001F3D
:10725000074600F09CFB234C60680090A56800E0A6
:1072600000986946284004EB80000C30FFF7AAFD27
:107270000028F5D101AA009901EA050304EB830374
:10728000491CDB6842F82030401C00910228F2D3F0
:10729000019800F0030001281AD002280ED01249EC
:1072A0004FF4AC70FBF780FF384600F06DFB08B17F
:1072B0000098606004B03046BDE8F0810198032179
:1072C00001EB90500099BDF80A6001EB900005E0D9
:1072D0000198BDF80A60C0F3831008440090E3E70A
:1072E000FC130020E40F0020A80401002DE9FE4F4C
:1072F0008846824602F012FD0746D8F80C00407915
:1073000020B922A20221504601F018F924A327A295
:107310000821504601F012F92CA20821504601F034
:107320000DF900242DE000BFD8F80C0001231A4607
:1073300005792146284602F0FBFC81460023012204
:107340002146284602F0F4FC0546032801D20646F1
:1073500000E003260121204602F036FD0346AE423E
:1073600001D22AA200E028A2294850F8261050F89D
:1073700029008DE8070027A20821504601F0DEF819
:10738000641CBC42D0D3BDE8FE8F00004C6F677315
:10739000206172652068616C746564210D0A0000CB
:1073A0006D6F64756C655F6E616D6500252D3430A1
:1073B00073207C2063757272656E74207C20627508
:1073C000696C742D696E200D0A0000002D2D2D2D85
:1073D0002D2D2D2D2D2D2D2D2D2D2D2D2D2D2D2DDD
:1073E0002D2D2D2D2D2D2D2D2D2D2D2D2D2D2D2DCD
:1073F0002D2D2D2D2D2D2D2D2D2D2D2D2D2D2D2DBD
:107400002D2D2D2D2D2D0D0A000000002A0000002D
:1074100014030020252D343073207C20252D377354
:10742000207C20257325730D0A0000004FF4804155
:10743000002002F01BFC20B13AA240F21721F8F71D
:107440005BFF01F093FC20B136A240F21A21F8F75D
:1074500053FF002001F0DAFC01F0A8FC0028FBD06B
:10746000FAF788F920B12FA24FF40971F8F744FF19
:10747000304A01213048FAF743F920B129A240F2FD
:107480002721F8F739FFFFF72DFBFFF75BFB2C48AF
:107490002C4A2A4D801AC0086988032202EB004456
:1074A000032903D3204628A102F054FB224874305C
:1074B000FBF7BCFB20B11BA24FF40C71F8F71CFFCB
:1074C0006888032803D3204622A102F043FB1A4C0C
:1074D00029491C342046FEF791FF20B111A24FF438
:1074E0000E71F8F709FF2046FAF760FA20B10DA2F5
:1074F00040F23B21F8F700FFFBF75AFC20B109A24C
:107500004FF41071F8F7F8FEFBF734F90028FBD1BF
:10751000FEF7B8FF0848001D01F0CEFA02F0E4F9CA
:1075200020BFF1E72E2E5C2E2E5C2E2E5C6D616945
:107530006E2E63007578000058EC00001C040020DB
:10754000880B0100B00A010048656C6C6F20555330
:107550004221000055534244204849442067656E4B
:1075600065726963206578616D706C652073746104
:10757000727465642E000000C16A00002DE9FF4F9F
:107580004FF0000881B014468B468146C246C0F8D1
:1075900000802578002D71D0F8F7FEFF009000687C
:1075A000405DC00702D004F801AB84E0D9F80000C8
:1075B0008300401CC9F800004BF8034015E0267812
:1075C000002E78D0B8F1000F05D1222E10D0272E32
:1075D0000ED05C2E1ED0B04514D12046FCF7B8FF6B
:1075E0000246611C2046F9F732F84FF00008E6E742
:1075F0002046FCF7ADFF0246611C2046F9F727F84C
:10760000B046DCE7B8F1000F50D05C2E6AD160784C
:10761000404508D12046FCF79BFF0246611C2046EE
:10762000F9F715F85EE030281CD100270225605DCF
:10763000A0F13001072906D86D1C41EAC701EDB25F
:10764000CFB2052DF3D3022D0CD92046FCF780FFD5
:10765000421B61192046491E921CF8F7F8FF04F8F6
:10766000017BACE778281ED100270225605DA0F1E0
:107670003001092903D841EA07100DE021E0A0F10B
:107680006101052901D8573804E0A0F1410105291D
:1076900007D8373840EA07106D1CEDB2C7B2042D89
:1076A000E4D3022DD1D8B8F1000F1BD100980068A7
:1076B000805DC00716D0D9F8001004988142FFF40D
:1076C00068AFD9F800000C2804D907A140F2045093
:1076D000FBF76AFDD9F8002040464BF822A005B020
:1076E000BDE8F08F641C6AE72E2E5C2E2E5C2E2ED9
:1076F0005C2E2E5C2E2E5C2E2E5C636F6D706F6E7A
:10770000656E74735C6C69627261726965735C63E7
:107710006C695C6E72665F636C692E6300000000CA
:107720002DE9F05F1E46DDF828B091468A46040038
:1077300003D124A19020FBF737FDB4F806806079CF
:1077400008FB00F8A8F10408464503D31DA19E20BC
:10775000FBF72AFDE788301DB0FBF7F1B0FBF7F22D
:1077600007FB1200D9F80050AA19424501D9A8EB2D
:107770000605C9F8005001E02468491E0029FBD124
:107780003E1A8846AE4215D817E000BF2044001DBF
:107790000AEB0803BBF1000F324602D0014618463F
:1077A00000E01946F8F753FF00202468AD1BB044F1
:1077B000AF4201D92E4600E03E46002DE6D1BDE89D
:1077C000F09F00002E2E5C2E2E5C2E2E5C2E2E5C4A
:1077D0002E2E5C2E2E5C636F6D706F6E656E7473F3
:1077E0005C6C69627261726965735C6D656D6F6214
:1077F0006A5C6E72665F6D656D6F626A2E63000013
:1078000070B5144600230D4606461A4602F090FA5B
:10781000844201D9002070BD22462946304602F03C
:10782000ABFA012070BD000030B5024651B102F044
:1078300075FA0021074C08E034F821301568AB4296
:1078400002D11160002030BD491C8142F4D30520D3
:1078500030BD0000B003002010B50C460021E160EF
:1078600061600349A160012102F0AEFA206010BD01
:107870009CF3000010B50020FBF756FE40B1032139
:107880000020FEF7CFFD0120FBF74EFE20B910BD12
:107890000120FBF749FE28B10321BDE8104001207B
:1078A000FEF7C0BD02480068BDE81040F9F7CEBF42
:1078B00058EC000070B58468006804F11405FCF70A
:1078C00047FEC1B2A971E07F6A790844B0FBF2F3C8
:1078D00002FB13035B1C2B70E07F0844B0FBF2F348
:1078E0005B1CAB70A07F0844B0FBF2F35B1CEB7039
:1078F000A07F0844B0FBF2F102FB1101491C697042
:10790000284670BD10B531B1B2FBF3F403FB14246B
:107910001CB1092010BD0E2010BD01600021416086
:1079200081608281C381084610BD70B50C46054652
:10793000F8F70AFD002802D021882868084470BDA5
:1079400010B50A8849888A4203D1F8F73FFD012023
:1079500010BD002010BD70B50C460546F8F719FDA6
:10796000002802D061882868084470BD10B50A88D4
:1079700049888A4203D1F8F703FD012010BD002099
:1079800010BD002100F00FB8002100F012B8012155
:1079900000F01EB8012100F011B808B56A46F8F7EA
:1079A0006AFD009808BD08B56A46F8F74AFD0098D8
:1079B00008BD08B56A46F8F744FD08BD08B56A4633
:1079C000F8F732FD08BD08B56A46F8F721FD08BD95
:1079D00008B56A46F8F728FD009808BD08B56A465C
:1079E000F8F756FD009808BD08B56A46F8F772FD2D
:1079F000009808BD70B5040003D113A1FE20FBF769
:107A0000D3FB00252846FBF7EBFA20686268016883
:107A1000914214D9491E01600D781CB919A1C220E8
:107A2000FBF7C2FB208BE16805FB00152068217A7B
:107A30000278891A0279C9B28A4200D20171002003
:107A4000FBF7FCFA284670BD2E2E5C2E2E5C2E2EE7
:107A50005C2E2E5C2E2E5C2E2E5C636F6D706F6E16
:107A6000656E74735C6C69627261726965735C6285
:107A7000616C6C6F635C6E72665F62616C6C6F638D
:107A80002E6300002E2E5C2E2E5C2E2E5C2E2E5C85
:107A90002E2E5C2E2E5C636F6D706F6E656E747330
:107AA0005C6C69627261726965735C62616C6C6F57
:107AB000635C6E72665F62616C6C6F632E63000064
:107AC00070B50C46050004D110A140F22110FBF75F
:107AD0006BFB24B90DA14FF49170FBF765FB0020FF
:107AE000FBF77EFA1DB91849CF20FBF75DFBE8686C
:107AF0002A68211A288BB1FBF0F11068431C13602F
:107B00000170BDE870400020FBF798BA2E2E5C2E65
:107B10002E5C2E2E5C2E2E5C2E2E5C2E2E5C636F29
:107B20006D706F6E656E74735C6C696272617269A0
:107B300065735C62616C6C6F635C6E72665F6261E0
:107B40006C6C6F632E630000847A000010B5040033
:107B500002D0206830B901E00E2010BD17A1D92055
:107B6000FBF722FB606818B914A1DA20FBF71CFBB5
:107B7000A06818B911A1DB20FBF716FBE06818B963
:107B80000EA1DC20FBF710FB208B18B90BA1DD2028
:107B9000FBF70AFB207A61682268401AC0B21160C4
:107BA00004E0226811684B1C13600870401EC0B2CC
:107BB000F7D221680020087110BD00002E2E5C2E27
:107BC0002E5C2E2E5C2E2E5C2E2E5C2E2E5C636F79
:107BD0006D706F6E656E74735C6C696272617269F0
:107BE00065735C62616C6C6F635C6E72665F626130
:107BF0006C6C6F632E6300002DE9F04F8146806846
:107C000089B0D0F84801C0F3400038B109B0484607
:107C1000BDE8F04F0022114600F0EEBC012907D963
:107C200009B04846BDE8F04F24A2022100F086BC0E
:107C300027492848081A1C21B0FBF1F8002538E034
:107C40002448C5EBC50110EB81044FF0000AB4F8DD
:107C500018B0D4E90101A1EB000604D11EA140F245
:107C60001F10FBF7A1FA2068077924B91AA140F286
:107C70002F10FBF799FA2068217A0078081AC0B211
:107C8000642117FB01F1B1FBF6F2642110FB01F155
:107C9000B1FBF6F16369CDE90210CDE90462CDE9EB
:107CA0000676CDE900BA1B4A0821484600F046FC9A
:107CB0006D1C4545C4D309B0BDE8F08F4261642016
:107CC000617267756D656E7420636F756E74000008
:107CD000C80B0100900B01002E2E5C2E2E5C2E2E68
:107CE0005C2E2E5C2E2E5C2E2E5C636F6D706F6E84
:107CF000656E74735C6C69627261726965735C62F3
:107D0000616C6C6F635C6E72665F62616C6C6F63FA
:107D10002E680000B0FC0000C20800F0070301203C
:107D2000895C98400840704710B5C20800F007030E
:107D3000885C01249C402043885410BD2DE9FF5FDE
:107D40008B46164814499A46091A0F09914652F86B
:107D5000046C0025804607E008EB05143046A16856
:107D6000F8F7AEFC18B16D1CBD42F5D30BE0210055
:107D700009D0009804B04B465A46D446BDE8F04FAF
:107D80005DF804EB6047009804B03346BDE8F05F4F
:107D900003A2022100F0D2BBB00A0100900A010048
:107DA000496E76616C6964206261636B656E643AEA
:107DB0002025730D0A00000070B515468268D2F8C0
:107DC0004841C4F3400424B11A46294600F014FC8B
:107DD00005E031B1536804A2022100F0AFFB01209D
:107DE00070BD002070BD000025733A2077726F6E61
:107DF0006720706172616D6574657220636F756E66
:107E0000740A000070B50D46040004D122A140F6AA
:107E10003750FBF7C9F9A06818B1606808B120684D
:107E200020B91DA140F63850FBF7BEF9022D0CD148
:107E3000A068D0F84801C0F3400030B12046BDE84A
:107E400070400022114600F0D7BB4FF454651CB9B6
:107E500011A12846FBF7A8F9206918B90EA12846F8
:107E6000FBF7A2F91A4A1BA1206901F095F840F628
:107E700041551CB908A12846FBF796F9206918B9A5
:107E800005A12846FBF790F92069BDE87040104A2B
:107E900010A1093201F080B82E2E5C2E2E5C2E2E01
:107EA0005C2E2E5C2E2E5C2E2E5C636F6D706F6EC2
:107EB000656E74735C6C69627261726965735C6330
:107EC0006C695C6E72665F636C692E630000000013
:107ED000BDF100002573000070B50D46040004D10B
:107EE00013A140F64650FBF75FF9A06818B160682F
:107EF00008B1206820B90EA140F64750FBF754F9AD
:107F0000012D07D0022D0CD1A068D0F84801C0F394
:107F1000400030B12046BDE870400022114600F01C
:107F20006BBB2046BDE870400FA2022100F006BBEB
:107F30002E2E5C2E2E5C2E2E5C2E2E5C2E2E5C2E7B
:107F40002E5C636F6D706F6E656E74735C6C6962CE
:107F50007261726965735C636C695C6E72665F63A3
:107F60006C692E6300000000506C656173652073BE
:107F7000706563696679206120737562636F6D6DEA
:107F8000616E642E0A0000001CB5012905D002298B
:107F90000BD014D94FF0010112E002B04FF00002F3
:107FA000BDE81040114600F027BB536808A1CDE999
:107FB000001313680CA2022100F0C0FA1CBD0021BE
:107FC00002B00023BDE810401A46FFF7F5BE0000DE
:107FD00020756E6B6E6F776E20706172616D657467
:107FE00065723A200000000025733A257325730A54
:107FF0000000000010B50446012901D0012100E075
:10800000002100231A46FFF7D7FE002809D1A168F6
:10801000C1F83801E06840680068BDE8104002F02F
:1080200017B910BD3EB50546012901D0012100E078
:10803000002100231A46FFF7BFFE002818D1E86888
:1080400040680468204602F0D9F8C0B2642110FBF1
:1080500001F2A168B2FBF1F2D2B20092CDE90101C6
:10806000A86804A20021D0F83831284600F066FA4A
:108070003EBD00004C6F7374206C6F67733A20250F
:10808000750A4D6178206C6F672071756575652084
:108090007574696C697A6174696F6E3A202575250B
:1080A00025205B25752F25755D0A00007CB51546DA
:1080B0000E46040004D118A140F66750FBF774F88F
:1080C000A06818B1606808B1206820B912A140F614
:1080D0006850FBF769F8012E03D0022E09D0012168
:1080E00008E002B02046BDE870400022114600F0D2
:1080F00083BA002100231A462046FFF75DFE0028C0
:1081000009D1696812A0CDE9000117A20221204619
:108110002B6800F013FA7CBD2E2E5C2E2E5C2E2ECA
:108120005C2E2E5C2E2E5C2E2E5C636F6D706F6E3F
:10813000656E74735C6C69627261726965735C63AD
:108140006C695C6E72665F636C692E630000000090
:1081500020756E6B6E6F776E20706172616D6574E5
:1081600065723A200000000025733A257325730AD2
:108170000000000010B50446012901D0012100E0F3
:10818000002100231A46FFF717FE002806D1A06839
:10819000D0F8481121F00401C0F8481110BD10B505
:1081A0000446012901D0012100E0002100231A46E4
:1081B000FFF702FE002806D1A068D0F8481141F070
:1081C0000401C0F8481110BD7CB514460D460646A2
:1081D000022901D9012100E0002100231A46FFF7FE
:1081E000EBFD002811D1022D05D03046FBF76EFFC4
:1081F00060B10BA30BE061680AA0CDE900010FA2FA
:1082000002213046236800F099F97CBD0EA302B02C
:108210003046BDE870400DA2002100F08FB900008B
:108220006F6E000020756E6B6E6F776E20706172DE
:10823000616D657465723A200000000025733A256F
:108240007325730A000000006F6666004563686F5F
:10825000207374617475733A2025730A000000005E
:1082600010B50446012901D0012100E000210023BE
:108270001A46FFF7A1FD002806D1A068D0F84811E2
:1082800021F00801C0F8481110BD10B504460129BD
:1082900001D0012100E0002100231A46FFF78CFDE8
:1082A000002806D1A068D0F8481141F00801C0F8B4
:1082B000481110BD7FB50D46040004D122A140F63F
:1082C0009F50FAF771FFA06818B1606808B1206884
:1082D00020B91DA14FF45A60FAF766FF012D01D0B5
:1082E000012100E0002100231A462046FFF764FD2B
:1082F000002827D1A0680026D0F84051F5B101E050
:10830000082E1BD20023092201A9284601F03AFEBB
:108310009DF80C20A16809232846A031521C01F0C9
:1083200031FEA0683346A0300090029D761C14A256
:108330000021204600F002F9002DE1D1A1680020C3
:1083400081F8A0007FBD00002E2E5C2E2E5C2E2E0C
:108350005C2E2E5C2E2E5C2E2E5C636F6D706F6E0D
:10836000656E74735C6C69627261726965735C637B
:108370006C695C6E72665F636C692E63000000005E
:108380005B2533645D2025730A0000007CB515462B
:108390000E46040004D120A14FF46060FAF704FFF8
:1083A000A06818B1606808B1206820B91AA140F629
:1083B0000160FAF7F9FE012E03D0022E18D901212F
:1083C00017E0A168204601F11802193105F0E0FC20
:1083D00000281FD0A16850201DA24876A16818204F
:1083E000087602B02046BDE87040042100F0A6B82F
:1083F000002100231A462046FFF7DEFC002809D1A1
:10840000696822A0CDE9000126A2022120462B683E
:1084100000F094F87CBD00002E2E5C2E2E5C2E2EDB
:108420005C2E2E5C2E2E5C2E2E5C636F6D706F6E3C
:10843000656E74735C6C69627261726965735C63AA
:108440006C695C6E72665F636C692E63000000008D
:108450004E6F20726573706F6E73652066726F6DFC
:1084600020746865207465726D696E616C2C206182
:108470007373756D6564203830783234207363729D
:1084800065656E2073697A650A00000020756E6B61
:108490006E6F776E20706172616D657465723A20DF
:1084A0000000000025733A257325730A00000000C0
:1084B00070B50446012901D0012100E0002100230C
:1084C0001A46FFF779FC002817D140F6F9551CB978
:1084D0000AA12846FAF768FE206918B907A12846BC
:1084E000FAF762FE134A14A1206900F055FDA16855
:1084F00050204876A1681820087670BD2E2E5C2E7C
:108500002E5C2E2E5C2E2E5C2E2E5C2E2E5C636F2F
:108510006D706F6E656E74735C6C696272617269A6
:1085200065735C636C695C6E72665F636C692E6315
:1085300000000000D6F10000257300000FB4F8B56C
:10854000044608980E4620B91DA140F63930FAF7C6
:108550002BFE24B91AA140F63A30FAF725FEA0689E
:1085600018B1606808B1206820B915A140F63B3009
:10857000FAF71AFE09A80090A068D0F84811490738
:1085800018D5C17EB14215D0B0F81B5031462046F7
:1085900006F016FB6A462069089900F069FDE9B209
:1085A000204606F00DFB290A204606F0EBFAF8BC3F
:1085B0005DF814FB6A462069089900F059FDF6E75A
:1085C0002E2E5C2E2E5C2E2E5C2E2E5C2E2E5C2EE5
:1085D0002E5C636F6D706F6E656E74735C6C696238
:1085E0007261726965735C636C695C6E72665F630D
:1085F0006C692E63000000002DE9F04F89B09046B1
:108600000D46040004D18EA140F6BA30FAF7CCFD35
:10861000A06818B1606808B1206820B988A140F648
:10862000BB30FAF7C1FD9448FBF792FF064692482B
:108630003638FBF78DFF301A1FFA80F98E488FA26B
:1086400023380090A068082143682046FFF776FF92
:10865000A0684068FBF77CFF064687482338FBF795
:1086600077FF304482B2A068002381682046FDF77E
:1086700029FB84A200212046FFF760FFB8F1000F1C
:1086800021D005B300261CE006EB460A05EB8A0B59
:10869000DBF80400FBF75CFF074655F82A00FBF700
:1086A00057FF391849450BD9DBF80400FBF750FF99
:1086B000074655F82A00FBF74BFF38441FFA80F9AC
:1086C000761C4645E0D36C483638FBF741FF4844FA
:1086D000801C1FFA80F9684800904B466CA2082164
:1086E0002046FFF72BFF09F1030087B20790002314
:1086F0003A4669A12046FDF7E5FA002D51D0002643
:108700004DE000BF06EB460A05EB8A0B55F82A0040
:10871000DBF8043063B348B3574964A23639CDE976
:10872000001008212046FFF709FF09F10200009020
:10873000DBF80400FBF70CFF074655F82A00FBF7AF
:1087400007FF07444C483638FBF702FF39180098FA
:10875000401A801EC1B22046FCF73CFD3A22564921
:10876000206900F019FC0098401C0AE0009301E029
:1087700040B100904B4646A208212046FFF7DEFE9E
:10878000079887B2DBF8081029B100233A46204643
:10879000FDF798FA02E02046FCF74EFC761C4645B1
:1087A000B0D3A068C068002847D0814600200646A4
:1087B000054603AF02902A466D1C02AB01214846D4
:1087C0000097FCF76FFA029850B10068FBF7C0FE03
:1087D000B042F0D902980068FBF7BAFE86B2EAE729
:1087E000012D2AD035A200212046FFF7A7FE002543
:1087F000B8462A466D1C02AB01214846CDF80080E0
:10880000FCF750FA0298002817D0B11C8FB200680C
:1088100000903B461EA208212046FFF78FFE0298DB
:10882000FF1CBAB2416821B100232046FDF74AFA85
:10883000DFE72046FCF700FCDBE709B0BDE8F08F7E
:108840002E2E5C2E2E5C2E2E5C2E2E5C2E2E5C2E62
:108850002E5C636F6D706F6E656E74735C6C6962B5
:108860007261726965735C636C695C6E72665F638A
:108870006C692E6300000000DCF100002573257395
:10888000000000004F7074696F6E733A0A000000B8
:108890002020252D2A733A0053686F7720636F6D6F
:1088A0006D616E642068656C702E00002020257359
:1088B0002573257300000000C43C000053756263FB
:1088C0006F6D6D616E64733A0A0000008068D0F8C5
:1088D0004801C0F3400070472DE9F0411E46DDF825
:1088E000188015460F46040004D10EA140F67C20E6
:1088F000FAF75AFC2A463946204600F02FF80500C0
:108900000DD166B14146E06800F0CAFE002802DAE7
:108910000420BDE8F081E0680121C068417128466B
:10892000F7E700002E2E5C2E2E5C2E2E5C2E2E5C89
:108930002E2E5C2E2E5C636F6D706F6E656E747381
:108940005C6C69627261726965735C636C695C6EB0
:1089500072665F636C692E63000000002DE9F047CA
:1089600015460E46040004D13EA140F61F20FAF73A
:108970001BFCA06818B1606808B1206820B939A153
:108980004FF42260FAF710FCE0682346434A40683F
:108990008460606801680F683146B84700285ED17E
:1089A000606920B92FA140F62F20FAF7FDFB60691E
:1089B00001F0D6FA002852D1A168C1F83C01A168A3
:1089C000C1F840014FF4A671A068F7F767FEA068F0
:1089D000D0F8481141F02001C0F84811A068D0F843
:1089E000481165F38201C0F84811A068D0F8481119
:1089F00041F00801C0F84811A1680120284F087013
:108A0000A168502040F64B294876A1681820002420
:108A100008762448244940F64C2A0D1A804612E074
:108A200018EBC40603D10FA14846FAF7BDFB7068E6
:108A3000006818B90BA15046FAF7B6FB70680068D9
:108A400047F82400641CB4EBD50FE9D3072D05D9F2
:108A5000E908164B04223846F7F7ABFD0020BDE8C5
:108A6000F08700002E2E5C2E2E5C2E2E5C2E2E5CAF
:108A70002E2E5C2E2E5C636F6D706F6E656E747340
:108A80005C6C69627261726965735C636C695C6E6F
:108A900072665F636C692E63000000007548000019
:108AA00090030020500A0100900A0100D5DC00006C
:108AB0000023FCF709B8000010B5040004D122A17E
:108AC00040F60330FAF770FBA06818B1606808B18F
:108AD000206820B91CA140F60430FAF765FBA068B5
:108AE000102100F5A470FEF773FFA0680078F8B1BC
:108AF00001281DD002281BD12046FBF7DBFB0021FB
:108B00002046FBF7E9FA98B11DA20321204623680D
:108B1000FFF714FD2046FBF7D9FA48B1A36818A265
:108B2000082120462033FFF709FD2046FCF71CFBF7
:108B3000206900F071FAA068BDE810406FF01001E4
:108B400000F5A470FEF72FBF2E2E5C2E2E5C2E2E6D
:108B50005C2E2E5C2E2E5C2E2E5C636F6D706F6E05
:108B6000656E74735C6C69627261726965735C6373
:108B70006C695C6E72665F636C692E630000000056
:108B80002573000070B5040004D117A140F6D2206F
:108B9000FAF70AFBA06818B1606808B1206820B92C
:108BA00011A140F6D320FAF7FFFAA0680078012857
:108BB00001D0082070BD606801688A680021904774
:108BC00005000FD10821204605F0FAFF01212046BB
:108BD00005F0D8FF12A1206900F0DEF9022120463D
:108BE000FBF7A2FC284670BD2E2E5C2E2E5C2E2E8E
:108BF0005C2E2E5C2E2E5C2E2E5C636F6D706F6E65
:108C0000656E74735C6C69627261726965735C63D2
:108C10006C695C6E72665F636C692E6300000000B5
:108C20000A0A000000F180400068002800D00120FE
:108C3000704708B500F18040002101600068009095
:108C400008BD000010B5104C207820B90FA140F2EB
:108C50002110FAF7A9FA606820B90CA14FF49170BD
:108C6000FAF7A2FA0020FAF7BBF96068401E6060CC
:108C7000606818B902F09CF900206070BDE81040EF
:108C80000020FAF7DBB90000A80800202E2E5C2E89
:108C90002E5C2E2E5C2E2E5C2E2E5C2E2E5C696E93
:108CA000746567726174696F6E5C6E7266785C6C15
:108CB00065676163795C6E72665F6472765F636C30
:108CC0006F636B2E6300000070B5184C054620786A
:108CD00020B917A14FF48070FAF766FA607838B1BE
:108CE00015B16968002088470020FAF779F90CE08F
:108CF0000020FAF775F925B10C4829460830FEF72F
:108D000083F8606808B902F023F96068401C60606D
:108D10000020FAF793F96068002806D1BDE870409A
:108D200003A14FF48E70FAF73FBA70BDA808002077
:108D30002E2E5C2E2E5C2E2E5C2E2E5C2E2E5C2E6D
:108D40002E5C696E746567726174696F6E5C6E72B9
:108D500066785C6C65676163795C6E72665F64728D
:108D6000765F636C6F636B2E6300000070B50A4C16
:108D7000207808B185250CE00020A06060602061AB
:108D8000E060064802F04AF9054602F0AFF801201B
:108D90002070284670BD0000A8080020B94B0000D4
:108DA0000148007870470000A8080020064810B568
:108DB000007818B905A1F220FAF7F6F91248006810
:108DC000C0F3004010BD0000A80800202E2E5C2E2D
:108DD0002E5C2E2E5C2E2E5C2E2E5C2E2E5C696E52
:108DE000746567726174696F6E5C6E7266785C6CD4
:108DF00065676163795C6E72665F6472765F636CEF
:108E00006F636B2E630000001804004070B5174CB0
:108E10000546207818B916A1C320FAF7C5F9A0783D
:108E200038B115B16968012088470020FAF7D8F8F1
:108E30000CE00020FAF7D4F825B10C482946103090
:108E4000FDF7E2FFE06808B902F040F9E068401C75
:108E5000E0600020FAF7F2F8E068002805D1BDE8EC
:108E6000704003A1DF20FAF79FB970BDA808002069
:108E70002E2E5C2E2E5C2E2E5C2E2E5C2E2E5C2E2C
:108E80002E5C696E746567726174696F6E5C6E7278
:108E900066785C6C65676163795C6E72665F64724C
:108EA000765F636C6F636B2E6300000010B5074C38
:108EB000217809B1852010BD00B9054802F0E6FA15
:108EC0000028F8D10121217010BD00003C010020D4
:108ED000A4ED000010B5044600F007F8204602F0AB
:108EE000A7FB02F09EFB002010BD10B502F092FB24
:108EF000BDE8104002F0CABBF0B50546047815483D
:108F000089B0164640F82420124A08690832A2F1B6
:108F10000C0742F82400487F385520226846F7F7AE
:108F200096FB04942878385C48B10EB10A4A00E0F8
:108F300000226946281D02F093FE09B0F0BD0EB173
:108F4000064A00E00022694605F10C0002F086FCAA
:108F5000F3E7000044010020F5E2000035E10000E5
:108F600030B40378054CE35C1BB130BC001D02F04B
:108F7000A3BF30BC0C3002F07FBD000040010020D8
:108F80000178044A515C11B1001D03F033B80C3074
:108F900002F004BE400100200FB438B5040003D134
:108FA00010A11C20FAF700F9606918B90DA11D2065
:108FB000FAF7FAF8206818B90AA11E20FAF7F4F8AF
:108FC000606818B907A11F20FAF7EEF80599002983
:108FD00005D006A800906A46204600F049F838BC43
:108FE0005DF814FB2E2E5C2E2E5C2E2E5C2E2E5C3D
:108FF0002E2E5C2E2E5C65787465726E616C5C66DC
:109000007072696E74665C6E72665F667072696EAD
:1090100074662E630000000010B5040003D107A1A0
:109020000B20FAF7C1F8A268002A05D0D4E904039E
:10903000216898470020A06010BD00002E2E5C2EF5
:109040002E5C2E2E5C2E2E5C2E2E5C2E2E5C6578D9
:109050007465726E616C5C667072696E74665C6E6B
:1090600072665F667072696E74662E63000000003F
:109070002DE9FC4791460C465FEA000804D183A124
:1090800040F25220FAF790F8D8F8140020B97FA1E6
:109090004FF41570FAF788F8D8F8000020B97BA1D2
:1090A00040F25520FAF780F8D8F8040020B977A1EB
:1090B00040F25620FAF778F8002C76D014F8011B0D
:1090C00039B125290ED04046FAF7F8FB2078002860
:1090D000F4D198F80C00002867D04046BDE8FC4762
:1090E000FFF79ABF0020012221782B291BD02D29C0
:1090F00002D0302908D102E040F0010001E040F048
:109100000200641C002AEFD100252A290ED0217804
:10911000A1F130020A2A11D205EB850201EB4205CA
:10912000641C303DF1E740F00400EAE7D9F8001094
:109130000B1DC9F800300968641C0D442178002318
:109140002E290BD114F8011FA1F130020A2A05D2F1
:1091500003EB830201EB4203303BF3E76C290DD0B4
:1091600068290BD0692921D00BDC252918D0582972
:1091700031D063290ED0642915D117E014F8011FEE
:10918000ECE7702969D0732932D075291BD0782972
:1091900009D120E0D9F80000011DC9F800100178BC
:1091A0004046FAF78BFB641C90E76CE0D9F800109E
:1091B0000A1DC9F800200968CDE900500A2240467E
:1091C000FDF7FAFCEFE7D9F800100A1DC9F80020F6
:1091D00009680A2206E0D9F800100A1DC9F8002023
:1091E00009681022CDE90050404605F025F9DAE77C
:1091F000D9F8001000270A1DC9F800200E68C00722
:1092000005D112E04046761C7F1CFAF757FB3178F7
:109210000029F7D104E0202140466D1EFAF74EFBED
:10922000BD42C0D9002DF6D1BDE74EB13046F7F7AB
:1092300040FA074604E0202140466D1EFAF73EFB47
:10924000BD4206D9002DF6D103E04046761CFAF760
:1092500035FB31780029F8D1A5E7D9F80000011DC8
:10926000C9F80010056830214046FAF727FB78213D
:109270004046FAF723FB08200021CDE90001034610
:1092800010222946B0E7BDE8FC8700002E2E5C2E98
:109290002E5C2E2E5C2E2E5C2E2E5C2E2E5C657887
:1092A0007465726E616C5C667072696E74665C6E19
:1092B00072665F667072696E74665F666F726D610A
:1092C000742E63002DE9FF411C46DDE90A7815463E
:1092D0000E46684600F0AAF846EA450141EA8401D4
:1092E00041EA072242EA0841009A00EB8200C0F8F6
:1092F0000017BDE8FF812DE9FF411C46DDE90A7832
:1093000015460E46684600F0C1F846EA450141EAB6
:10931000840141EA072242EA0841009A00EB8200F8
:10932000C0F80017BDE8FF812DE9FF411C46DDE9CB
:109330000A7815460E46684600F0D8F846EA450118
:1093400041EA840141EA072242EA0841009A00EB1F
:109350008200C0F80017BDE8FF812DE9FF411C46DF
:10936000DDE90A7815460E46684600F0EFF846EA51
:10937000450141EA840141EA072242EA0841009A94
:1093800000EB8200C0F80017BDE8FF811CB500218A
:1093900000910B4601220191FFF7C6FF1CBD1CB5D1
:1093A000002100910B4601220191FFF7D6FF1CBD61
:1093B0001CB500220B46009211460192FFF7B4FF44
:1093C0001CBD1CB500220B46009211460192FFF70E
:1093D000C4FF1CBD1CB5002100910B460122019168
:1093E0001146FFF7A1FF1CBD1CB5002100910B46E3
:1093F000012201911146FFF7B0FF1CBD13B50C46C9
:10940000684600F043F8009900EB8101D1F800278D
:1094100022F44032C1F80027009900EB8100D0F817
:10942000001741EA0441C0F800171CBD10B50446FE
:1094300000682A2804D308A140F2A710F9F7B4FE67
:109440002068202802D24FF0A04010BD00F01F007D
:1094500020600D4810BD00002E2E5C2E2E5C2E2E9E
:109460005C2E2E5C2E2E5C2E2E5C6D6F64756C65F2
:10947000735C6E7266785C68616C5C6E72665F6766
:1094800070696F2E680000000003005010B504469C
:1094900000682A2804D308A140F2A710F9F784FE37
:1094A0002068202802D24FF0A04010BD00F01F001D
:1094B00020600D4810BD00002E2E5C2E2E5C2E2E3E
:1094C0005C2E2E5C2E2E5C2E2E5C6D6F64756C6592
:1094D000735C6E7266785C68616C2F6E72665F6733
:1094E00070696F2E680000000003005010B504463C
:1094F00000682A2804D308A140F2A710F9F754FE07
:109500002068202802D24FF0A04010BD00F01F00BC
:1095100020600D4810BD00002E2E5C2E2E5C2E2EDD
:109520005C2E2E5C2E2E5C2E2E5C6D6F64756C6531
:10953000735C6E7266785C68616C2F6E72665F67D2
:1095400070696F2E680000000003005010B50446DB
:1095500000682A2804D308A140F2A710F9F724FED6
:109560002068202802D24FF0A04010BD00F01F005C
:1095700020600D4810BD00002E2E5C2E2E5C2E2E7D
:109580005C2E2E5C2E2E5C2E2E5C6D6F64756C65D1
:10959000735C6E7266785C68616C2F6E72665F6772
:1095A00070696F2E680000000003005001B5684626
:1095B000FFF76CFFD0F810050099C84000F00100DB
:1095C00008BD01B56846FFF791FF009A012191405F
:1095D000C0F8081508BD01B56846FFF7B7FF009A47
:1095E00001219140C0F8081508BD38B5012400904C
:1095F000684631B1FFF71AFF00998C40C0F8084562
:1096000038BDFFF713FF00998C40C0F80C4538BDFA
:109610007CB5154604460C4A6618022ED2E90002B3
:10962000CDE9000204D909A140F2D720F9F7BCFD29
:10963000694605E051F82400D0F81005641C01C506
:10964000A642F7D87CBD0000A8ED00002E2E5C2EAF
:109650002E5C2E2E5C2E2E5C2E2E5C2E2E5C6D6FC4
:1096600064756C65735C6E7266785C68616C2F6E95
:1096700072665F6770696F2E68000000034908B565
:109680000844002101600068009008BD00600040AF
:1096900002494058012800D0002070470060004077
:1096A0002DE9F041054620480E460024D0F810343C
:1096B00019460AE0CA681179A14205D1641C0A2C36
:1096C000F6DB4FF0FF342BE011680029F2D1611C6A
:1096D00026D0E9680C71D0F8101459B1C968EA684D
:1096E00009681160D0F81004C06805600027DFF831
:1096F0003C8011E0C0F81054E96800200860F5E7EC
:1097000008EBC700C279B24200D33246E868394656
:10971000007900F031FB7F1C00F000FBB842EFD86D
:109720002046BDE8F0810000E40F0020B00A0100EF
:10973000406801218068FAF7CFBC10B540688468A2
:10974000606801688A680121904718B10420A16807
:10975000087010BD0320FAE72DE9F3414468A668BC
:10976000B068007804281ED0032807D0002501A97E
:10977000206800F0A9FD85F0010709E00125F6E762
:1097800039463046FAF7A8FC01A9206800F09CFD94
:109790000028F5D1019800F0DFFB002D03D0002157
:1097A0003046FAF799FCBDE8FC81F0B595B01C464F
:1097B00015460F4608461A9E00F0CEFB182109A850
:1097C000F6F76CFF0E96CDE909540023082203A991
:1097D000384600F0D7FB05980690BDF81000ADF8AC
:1097E0001C00BDF81200ADF81E0000208DF821000D
:1097F0000398082600F00300012802D0022818D0A0
:1098000032E003983346850AC0F3C2008DF8200089
:1098100003980FA9C0F38314A200384600F0B2FBEE
:1098200009A8009006AB22460FA9284600F0F0FADE
:109830001AE00398840DC0F3C2008DF82000082CB4
:1098400001D2254600E0082533462A460FA93846AE
:1098500000F098FB2E44641B09AB06AA29460FA80A
:1098600000F0ACF9002CEAD1384600F07BFB15B0D3
:10987000F0BD7047084810B50178084A515C19B12D
:10988000001D02F0B7FB02E00C3002F087F9BDE8E2
:109890001040002004F06CBCF802002040010020C1
:1098A00008B5034A00924023024AFFF77EFF08BD35
:1098B00055D500004C0E00200A4A012902EBC000D9
:1098C00007D0022907D0032907D0042907D0002098
:1098D0007047022070470420704700797047407934
:1098E00070470000B00A01002DE9FF5FF9F7FEFFA5
:1098F00018B1002004B0BDE8F09F8B4C0020C4F8E4
:109900001804BFF34F8F60680090A5684FF00009FE
:10991000284004EB80000BE0D4F8180470B92168EB
:109920000098814201D86160E3E7284004EB8000A1
:109930000C306946FDF746FA0028EDD1002001AB56
:10994000A046009901EA050208EB8202491CD26890
:1099500043F82020401C00910228F2D3019800F027
:109960000300022802D0012850D0BEE00198502206
:10997000810D8A46B2EB905F00D850210C4664F30B
:109980009F50C0F3C20701900831684800F09BFA6D
:109990000600EAD000F0E0FA4B46082201A9304662
:1099A00000F01EFB009909F1080B2940681A80009D
:1099B000001D844223D95C4D0C3530B1C2B208EB96
:1099C0008101201A91460C3104E02946E2B20025BB
:1099D00091462846C4B25B46304600F001FB0BEBD3
:1099E00009032DB1224629464FEA060000F0F8FA95
:1099F00000990AF1030001EB900000903DE008EBB4
:109A000081015B46224630460C31EFE70198C0F3F6
:109A10008310062800D30620019960F38911C1F351
:109A20008310C1F3C207801C019181003F4800F000
:109A30004AFA060059D000F08FFA4B46082201A9D5
:109A4000304600F0CDFA09F1080900240FE0009833
:109A50004B4600EA0501401C08EB810100900422FE
:109A600030460C3100F0BCFA09F10409641C01987D
:109A7000C0F38310A042EAD8B6B3D8F81044D8F89F
:109A800018044546F8B1304600F06CFA46E0E0684C
:109A90004179012915D10179BDF80800244A52F80D
:109AA000200001EB4102072191400840D040052FE2
:109AB00000D10327B84204D32268204631461268F9
:109AC0009047E0680468002CE1D1304600F04AFA83
:109AD0000020F9F785FAD5F8180408B900986860ED
:109AE0000020F9F7ABFA19E0FFE7D8F8104405E0D9
:109AF0002168204689688847E0680468002CF7D10F
:109B00000C484088022809D30B480C49401AC00869
:109B1000022101EB00400AA100F01CF8F9F7E6FE73
:109B200080F00100E6E60000E40F0020AC0B01002D
:109B3000200400201C040020880B0100B00A010052
:109B40004261636B656E647320666C7573686564EF
:109B50000000000000231A4604F068B808B501238D
:109B600000926A4604F062F808BD1CB5CDE90023F6
:109B700002236A4604F05AF81CBD3EB5069C8DE8E7
:109B80001C0003236A4604F051F83EBD7FB5DDE9B1
:109B900008458DE83C0004236A4604F047F87FBD81
:109BA00070B586B00DF1280C9CE870008DE87C0043
:109BB00005236A4604F03AF806B070BD2DE9F04777
:109BC0000E4680461C469246082940D894F80C90D0
:109BD000002020731946104603F01CFB0025B542F7
:109BE00006D218F805201BA12046FFF7D5F903E09F
:109BF0001AA12046FFF7D0F96D1C082DEFD318A14C
:109C00002046FFF7C9F90025B54212D218F80570B1
:109C10007E2F08D8F6F7C0FC0068C05D10F03E0F3C
:109C200001D03A4600E02E220EA12046FFF7B4F9FB
:109C300003E00DA12046FFF7AFF96D1C082DE3D31B
:109C400001222146504603F0C7FA84F80C90BDE883
:109C5000F08700002025303278000000202020000E
:109C60007C00000025630000200000002DE9F04783
:109C700023484FF00008FF21C0F80080C0E90181AF
:109C8000C0F81884C0F8148480F820841D4800F0BF
:109C900067F9002831D11C4800F0E0FD1B49DFF8CE
:109CA0007090DFF870A0A1EB0900C608002414E052
:109CB00000273D460CE0AC4209D059F8340059F871
:109CC00035101422F6F713FD002800DD7F1C6D1CF3
:109CD000B542F0D32AF82470641CB442E8D30020C3
:109CE000414652460C4D05E002EB8004618045F888
:109CF0002010401CB042F7D30020BDE8F0870000E0
:109D0000E40F0020AC0B0100ACF30000900B01004D
:109D1000B00A0100B00300202004002002480349DB
:109D2000401AC00870470000900B0100B00A010003
:109D30007FB505461146002401A873B1FDF774FDF7
:109D400098B90B480199072250F8210005EB45010D
:109D50008A401040C840C4B207E0FDF765FD20B955
:109D60000448019900EBC100847904B0204670BD1D
:109D700020040020B00A010070B5114B00EB400038
:109D800003EB81040F4B02F0070203EB8101072371
:109D900003FA00F60D688240B5432A4300200A60AA
:109DA0004FEA000103FA01F51540CD40ADB28542FE
:109DB00000D92846C91C0A29F4D3608070BD000070
:109DC000B00300202004002013B56846FDF72CFDE9
:109DD00008B100201CBD0248009950F831001CBD9C
:109DE000B00A010070B509480125D0F8104480F888
:109DF000205407E0E068457121682046496888479B
:109E0000E0680468002CF5D170BD0000E40F00206C
:109E10002DE9FF4781460C9D00200C462F7B2873BF
:109E2000984616462946184603F0F4F9072E42D202
:109E3000DFE806F004090F161F2A360049462846B7
:109E4000FFF7AAF837E0494628462268FFF7A4F84A
:109E500031E0D4E9002349462846FFF79DF82AE07F
:109E6000A0680090D4E9002349462846FFF794F8FB
:109E700021E0D4E90201CDE90001D4E900234946FB
:109E80002846FFF789F816E004F1080007C88DE8B6
:109E90000700D4E9002349462846FFF77DF80AE089
:109EA00004F108000FC88DE80F00D4E900234946EB
:109EB0002846FFF771F800222946404603F08CF946
:109EC0002F73BDE8FF872DE9F041058B80462D1FDC
:109ED0004819C01CB0FBF5F0C6B24046FDF78AFD3C
:109EE000041E19D00020207101206071E580002738
:109EF0002546761EC4F800800BE04046FDF77AFD4B
:109F000060B16179491C6171286005467F1CC0F809
:109F10000080B742F1D32046BDE8F081204600F032
:109F200002F80020F8E72DE9F041457901466B1E63
:109F3000002201E00968521C9A42FBD30F680146D7
:109F4000002605E038460C68FDF7BAFD2146761C70
:109F5000AE42F7D3BDE8F0810121001DFDF71DBD24
:109F6000FDF7F4BD10B504460121001DFDF736FDD7
:109F700010F0FF0F04D12046BDE81040FFF7D3BF1B
:109F800010BD00001CB514460122CDE9002401AA31
:109F9000FDF7C6FB0198A04203D002A1DA20F9F731
:109FA00003F91CBD2E2E5C2E2E5C2E2E5C2E2E5CFC
:109FB0002E2E5C2E2E5C636F6D706F6E656E7473EB
:109FC0005C6C69627261726965735C6D656D6F620C
:109FD0006A5C6E72665F6D656D6F626A2E6300000B
:109FE0001CB514460022CDE9002401AAFDF798FB18
:109FF0000198A04203D002A1D020F9F7D5F81CBDEA
:10A000002E2E5C2E2E5C2E2E5C2E2E5C2E2E5C2E8A
:10A010002E5C636F6D706F6E656E74735C6C6962DD
:10A020007261726965735C6D656D6F626A5C6E7298
:10A03000665F6D656D6F626A2E63000008B500F1A2
:10A04000804001460068002220B101200A600968B2
:10A05000009108BD104608BD704700002DE9F04191
:10A0600090460D4604004FF0000703D123A1C12004
:10A07000F9F79AF81DB921A1C220F9F795F8002047
:10A08000F8F7AEFF204600F057F830B10527002062
:10A09000F8F7D4FF3846BDE8F08120680668B8F1CB
:10A0A000000F05D10168204600F0FCF82168086027
:10A0B000E268012A0CD0022A0ED0042A11D060686E
:10A0C000082A13D006FB02012846F6F7C0FADEE79D
:10A0D0006068805D2870DAE7606830F816002880D4
:10A0E000D5E7606850F826002860D0E700EBC6018D
:10A0F000D1E90001C5E90001C9E700002E2E5C2E60
:10A100002E5C2E2E5C2E2E5C2E2E5C2E2E5C636F13
:10A110006D706F6E656E74735C6C6962726172698A
:10A1200065735C71756575655C6E72665F7175658A
:10A1300075652E630000000010B5040004D107A16E
:10A1400040F20520F9F730F821680868496888422C
:10A1500001D1012010BD002010BD00002E2E5C2E6C
:10A160002E5C2E2E5C2E2E5C2E2E5C2E2E5C636FB3
:10A170006D706F6E656E74735C6C6962726172692A
:10A1800065735C71756575655C6E72665F7175652A
:10A1900075652E630000000070B5040003D108A1AE
:10A1A0007220F9F701F8206805684168204600F040
:10A1B00079F8A84201D1012070BD002070BD0000D7
:10A1C0002E2E5C2E2E5C2E2E5C2E2E5C2E2E5C2EC9
:10A1D0002E5C636F6D706F6E656E74735C6C69621C
:10A1E0007261726965735C71756575655C6E7266C6
:10A1F0005F71756575652E630000000010B5040081
:10A2000004D104A140F21320F8F7CEFF2068806843
:10A2100010BD00002E2E5C2E2E5C2E2E5C2E2E5C91
:10A220002E2E5C2E2E5C636F6D706F6E656E747378
:10A230005C6C69627261726965735C717565756584
:10A240005C6E72665F71756575652E630000000057
:10A2500010B5040004D104A140F21920F8F7A4FFBE
:10A2600021680020886010BD2E2E5C2E2E5C2E2EC4
:10A270005C2E2E5C2E2E5C2E2E5C636F6D706F6ECE
:10A28000656E74735C6C69627261726965735C712E
:10A29000756575655C6E72665F71756575652E6353
:10A2A0000000000070B50C46050003D105495D2093
:10A2B000F8F77AFFA868A04201D9601C70BD0020A1
:10A2C00070BD000014A200002DE9F0410E4604000C
:10A2D0004FF0000803D12CA17D20F8F765FF1EB9CF
:10A2E00029A17E20F8F760FF0020F8F779FE2046CC
:10A2F000FFF752FF070009D0207C38B14FF0040867
:10A300000020F8F79BFE4046BDE8F08120684568D4
:10A3100041682046FFF7C6FF2168486037B12068D2
:10A3200001682046FFF7BEFF21680860E268012A45
:10A3300014D0022A16D0042A19D0082A1CD060682A
:10A34000314605FB0200F6F782F9204602F0C8FF0D
:10A3500021688A688242D3D28860D1E76168307808
:10A360004855F2E76168308821F81500EDE761682B
:10A37000306841F82500E8E7D6E90001626802EBA1
:10A38000C502C2E90001E0E72E2E5C2E2E5C2E2EC7
:10A390005C2E2E5C2E2E5C2E2E5C636F6D706F6EAD
:10A3A000656E74735C6C69627261726965735C710D
:10A3B000756575655C6E72665F71756575652E6332
:10A3C000000000002DE9F04F8046806889B0D0F889
:10A3D0004801C0F3400038B109B04046BDE8F04F35
:10A3E00000221146FEF708B9012907D909B04046F5
:10A3F000BDE8F04F1FA20221FEF7A0B82249DFF806
:10A400008CB0A1EB0B001C21B0FBF1F7002529E07B
:10A41000C5EBC5010BEB81042046D4E9026AFFF7C6
:10A42000EDFE8146204600F041F8642209FB02F16E
:10A430004243B1FBF6F1B2FBF6F26369247CB4B19E
:10A440000FF24C0CCDF81CC0CDF800A0CDE905965C
:10A45000CDE90120CDE90361104A08214046FEF70D
:10A460006DF86D1CBD42D3D309B0BDE8F08F0FF27B
:10A47000300CE7E742616420617267756D656E7448
:10A4800020636F756E740000000C0100C80B0100A2
:10A490004E6F206F766572666C6F77002400010046
:10A4A0004F766572666C6F770000000010B504008F
:10A4B00004D108A14FF4FC70F8F776FE0020F8F7FD
:10A4C0008FFD204602F00CFF04460020F8F7B6FD91
:10A4D000204610BD2E2E5C2E2E5C2E2E5C2E2E5C69
:10A4E0002E2E5C2E2E5C636F6D706F6E656E7473B6
:10A4F0005C6C69627261726965735C7175657565C2
:10A500005C6E72665F71756575652E630000000094
:10A510002DE9F0411F4615460E00044603D11DA14A
:10A520001520F8F741FE1DB91AA11620F8F73CFED8
:10A5300037B1A068FDF72EFA10B11120BDE8F08107
:10A54000A068D0E903316068A3EB010C421C94457C
:10A5500007D10020286017B1A068FDF712FA00208B
:10A56000ECE703EA000201EA0007BA4201D3831ACA
:10A5700001E0181A0B1A28685B1C984200D20346A7
:10A580002B60206810443060A0682A68C1681144BC
:10A59000C160E4E72E2E5C2E2E5C2E2E5C2E2E5CEF
:10A5A0002E2E5C2E2E5C636F6D706F6E656E7473F5
:10A5B0005C6C69627261726965735C72696E676214
:10A5C00075665C6E72665F72696E676275662E6331
:10A5D000000000002DE9F04117465FEA010805463A
:10A5E00003D121A19B20F8F7DFFD1FB91EA19C20FC
:10A5F000F8F7DAFDA868001DFDF7CCF910B11120BD
:10A60000BDE8F081A868816800690C1A3868A0422A
:10A6100000D204463C60AA686968106992680840E4
:10A620000A40824201D9161A01E00E1A761CB44281
:10A6300008D92968324601444046F6F708F8A41BB9
:10A640000020B0442968224601444046F5F7FFFF48
:10A65000A8683A68016911440161A868001DFDF706
:10A6600090F90020CCE700002E2E5C2E2E5C2E2EC2
:10A670005C2E2E5C2E2E5C2E2E5C636F6D706F6ECA
:10A68000656E74735C6C69627261726965735C7229
:10A69000696E676275665C6E72665F72696E67622C
:10A6A00075662E63000000002DE9F04117465FEA51
:10A6B0000108054603D11EA14C20F8F775FD1FB90E
:10A6C0001BA14D20F8F770FDA868FDF763F910B1E4
:10A6D0001120BDE8F081A86881680069081A6968DE
:10A6E0000C1A3868641CA04200D204463C60A8687A
:10A6F0006968806808400E1A761CB44208D9296837
:10A70000324608444146F5F7A2FFA41B0020B0449E
:10A710002968224608444146F5F799FFA8683A6837
:10A72000816811448160A868FDF72BF90020D0E70B
:10A730002E2E5C2E2E5C2E2E5C2E2E5C2E2E5C2E53
:10A740002E5C636F6D706F6E656E74735C6C6962A6
:10A750007261726965735C72696E676275665C6E60
:10A7600072665F72696E676275662E630000000034
:10A7700010B5826894681369E41AA14201D90420D3
:10A7800010BD19441161826851618068001DFDF798
:10A79000F8F8002010BD00002DE9F0411E461446D7
:10A7A0000F00054603D11DA16C20F8F7FDFC1CB974
:10A7B0001AA16D20F8F7F8FC3EB1A868001DFDF75E
:10A7C000E9F810B11120BDE8F081A96888684969ED
:10A7D000421A09D06B681940184088420DD9266882
:10A7E00096420AD9226010E0002020601EB1A868BD
:10A7F000001DFDF7C6F80020E5E7884205D8581A85
:10A800002268401C824200D92060286808443860D1
:10A81000A8682268416911444161ECE72E2E5C2E44
:10A820002E5C2E2E5C2E2E5C2E2E5C2E2E5C636FEC
:10A830006D706F6E656E74735C6C69627261726963
:10A8400065735C72696E676275665C6E72665F7274
:10A85000696E676275662E630000000082680021E1
:10A86000916082681161826851618268D1608268FA
:10A87000516080680160704770B58268456894686F
:10A880001369E31AEB1A5B1C994201D9042070BDCD
:10A89000214491608268D1608068FDF775F808B145
:10A8A000002070BD082070BD08B5002242504058FD
:10A8B000009008BD70B50D46060003D10BA1142011
:10A8C000F8F772FC1DB909A11520F8F76DFC746842
:10A8D00004E0B2682946904718B12468206800282F
:10A8E000F7D120682860256070BD00002E2E5C2EF8
:10A8F0002E5C2E2E5C2E2E5C2E2E5C2E2E5C636F1C
:10A900006D706F6E656E74735C6C69627261726992
:10A9100065735C736F72746C6973745C6E72665F7E
:10A92000736F72746C6973742E63000010B5040049
:10A9300003D103A13720F8F737FC6068006810BD29
:10A940002E2E5C2E2E5C2E2E5C2E2E5C2E2E5C2E41
:10A950002E5C636F6D706F6E656E74735C6C696294
:10A960007261726965735C736F72746C6973745C25
:10A970006E72665F736F72746C6973742E6300001D
:10A9800010B5040003D105A12B20F8F70DFC616878
:10A990000868002801D002680A6010BD2E2E5C2EC7
:10A9A0002E5C2E2E5C2E2E5C2E2E5C2E2E5C636F6B
:10A9B0006D706F6E656E74735C6C696272617269E2
:10A9C00065735C736F72746C6973745C6E72665FCE
:10A9D000736F72746C6973742E63000070B50C46EB
:10A9E000050003D10BA14320F8F7DEFB1CB909A138
:10A9F0004420F8F7D9FB0021686806E0A24203D1A1
:10AA000021680160012103E010460268002AF5D1A7
:10AA1000084670BD2E2E5C2E2E5C2E2E5C2E2E5CDB
:10AA20002E2E5C2E2E5C636F6D706F6E656E747370
:10AA30005C6C69627261726965735C736F72746C6D
:10AA40006973745C6E72665F736F72746C69737431
:10AA50002E6300000C4A10B502F58C730EE0991AB3
:10AA6000C91001EBD171491002EBC1010C6884429D
:10AA700001D90B4602E005D201F108029A42EED359
:10AA8000002010BD486810BD58F2000000B5FFF767
:10AA9000E1FF002800D1014800BD000044F20000A1
:10AAA0004058002800D00120704708B500224250CD
:10AAB0004058009008BDD0F80403084000D00120A1
:10AAC00070474058002800D00120704708B5002288
:10AAD00042504058009008BD10B503F0C3FD8020DF
:10AAE000FAF73EFE817B0124032902D0006800288A
:10AAF00009D18020FAF71EFE8440E143BDE81040F2
:10AB0000014800F0EDB910BD8401002030B5050604
:10AB100000F00F030E4C03EB830004EB80000AD51A
:10AB2000082B03D30B480160001D09E0C0F8001694
:10AB3000C0F8042630BD082B04D307480160001D6F
:10AB4000026030BDC0F80017C0F8042730BD000017
:10AB500000700240A0760240A077024010B5044683
:10AB600000F00F00092804D30BA140F29140F8F740
:10AB70001BFB21064FF0010004F00F0200FA02F067
:10AB800001D5114901E01049091D0968014201D0B0
:10AB9000012010BD002010BD2E2E5C2E2E5C2E2E0E
:10ABA0005C2E2E5C2E2E5C2E2E5C6D6F64756C659B
:10ABB000735C6E7266785C68616C2F6E72665F752E
:10ABC0007362642E680000001075024070B5044680
:10ABD000000604D415A140F29930F8F7E5FA04F024
:10ABE0000F00082804D311A140F29A30F8F7DCFADC
:10ABF000200704D10DA140F29B30F8F7D5FA03F0FD
:10AC000031FD2046FAF7ACFD817B0125032902D0F6
:10AC10000068002809D12046FAF78CFD8540E943F9
:10AC2000BDE870400F4800F05BB970BD2E2E5C2E61
:10AC30002E5C2E2E5C2E2E5C2E2E5C2E2E5C6D6FCE
:10AC400064756C65735C6E7266785C647269766557
:10AC500072735C7372635C6E7266785F7573626444
:10AC60002E6300008401002038B50446000604D499
:10AC70001B4940F2B730F8F797FA04F00F000828A4
:10AC800004D217494FF46E70F8F78EFA03F0EAFC1D
:10AC90002046FAF765FD817B0125032915D0006860
:10ACA000002811D12046FAF745FD8540E9430D48BB
:10ACB00000F016F90C480B49806800900C398DF8AB
:10ACC000024049686846884738BD2046FAF732FD99
:10ACD0008540E943BDE83840024800F001B9000072
:10ACE000B8E6000084010020B8ED000070B505460C
:10ACF000000605F00F0402D5092C09D301E0092C48
:10AD00000BD30E4940F24B40F8F74EFA280604D513
:10AD10000A4940F24C40F8F747FA082C04D2074998
:10AD200040F24D40F8F740FA0548006818B1C103F9
:10AD300000D5002070BD4FF0FF3070BDACCF0000DB
:10AD4000C074024038B50446000604D51FA140F285
:10AD5000F730F8F729FA04F00F00082804D31BA1F4
:10AD60004FF47E70F8F720FA200704D117A140F2C3
:10AD7000F930F8F719FA03F075FC2046FAF7F0FC01
:10AD8000817B0125032902D0006848B11AE02046E2
:10AD9000FAF7D0FC8540E9431A4800F0A1F811E029
:10ADA0002046FAF7C7FC8540E943164800F098F8BA
:10ADB00015481449006900900C398DF80240496823
:10ADC00068468847BDE8384003F092BC2E2E5C2EC2
:10ADD0002E5C2E2E5C2E2E5C2E2E5C2E2E5C6D6F2D
:10ADE00064756C65735C6E7266785C6472697665B6
:10ADF00072735C7372635C6E7266785F75736264A3
:10AE00002E63000084010020B8ED000070B50546F7
:10AE1000000605F00F0402D5092C09D301E0092C26
:10AE20000BD30D4940F23940F8F7BEF9280604D596
:10AE3000094940F23A40F8F7B7F9082C05D307481A
:10AE40000068C10300D5002070BD054901EB8400F6
:10AE5000D0F8A00470BD0000ACCF0000C074024068
:10AE60000070024002494058002800D0012070477D
:10AE7000007002400449084400210160BFF36F8F55
:10AE8000BFF34F8F704700000070024070B5054659
:10AE9000FFF7E8FF040002D02846FFF7EBFF20464B
:10AEA00070BD000003490860BFF36F8FBFF34F8F81
:10AEB000704700000074024002480068002800D07B
:10AEC000012070472C7502400449084401210160AB
:10AED000BFF36F8FBFF34F8F7047000000700240C9
:10AEE00008B56A46F5F7AFF908BD0000084810B587
:10AEF000007918B907A19720F8F756F900F0A6FADB
:10AF00001249012008600249091F087010BD0000A5
:10AF1000580100202E2E5C2E2E5C2E2E5C2E2E5CD8
:10AF20002E2E5C2E2E5C6D6F64756C65735C6E727C
:10AF300066785C647269766572735C7372635C6E6A
:10AF40007266785F636C6F636B2E63001805004058
:10AF5000084810B5007918B907A1D920F8F724F9E5
:10AF60004FF48070FDF765FE01208107C1F80403EE
:10AF7000086010BD580100202E2E5C2E2E5C2E2E57
:10AF80005C2E2E5C2E2E5C2E2E5C6D6F64756C65B7
:10AF9000735C6E7266785C647269766572735C73FA
:10AFA00072635C6E7266785F636C6F636B2E6300B6
:10AFB000094810B5007918B908A1E120F8F7F4F8AC
:10AFC00014490120086014484FF00111026802F092
:10AFD00001128A42FAD010BD580100202E2E5C2E9C
:10AFE0002E5C2E2E5C2E2E5C2E2E5C2E2E5C6D6F1B
:10AFF00064756C65735C6E7266785C6472697665A4
:10B0000072735C7372635C6E7266785F636C6F639D
:10B010006B2E6300040000400C04004010B50400D7
:10B0200003D107A17E20F8F7BFF8134900200A7961
:10B030000AB1852010BD01220C600A7110BD00000C
:10B040002E2E5C2E2E5C2E2E5C2E2E5C2E2E5C2E3A
:10B050002E5C6D6F64756C65735C6E7266785C6493
:10B060007269766572735C7372635C6E7266785F28
:10B07000636C6F636B2E63005801002070B54FF452
:10B0800080763046FDF7CEFD0F4DB40540B1304619
:10B09000FDF7CFFD0120C4F8080329680020884788
:10B0A0004FF482763046FDF7BDFD00280AD03046C9
:10B0B000FDF7BFFD0220C4F808032968BDE8704011
:10B0C0000120084770BD000058010020094810B554
:10B0D000007918B908A1C420F8F766F84FF4827017
:10B0E000FDF7A7FD02204107C1F804031049012024
:10B0F000086010BD580100202E2E5C2E2E5C2E2ED6
:10B100005C2E2E5C2E2E5C2E2E5C6D6F64756C6535
:10B11000735C6E7266785C647269766572735C7378
:10B1200072635C6E7266785F636C6F636B2E630034
:10B1300008000040002802D00149800108477047FC
:10B14000F1EF00002DE9F0410E4680462A2804D395
:10B1500029A140F21120F8F727F8404602F01AF82A
:10B1600020B925A140F21220F8F71EF8404602F05F
:10B170001BF8304D0028404616D0F8F72DFC284427
:10B1800090F852008009032802D001280AD003E079
:10B190004046FEF70BFA28B103214046BDE8F041D6
:10B1A000FEF72CB90221F8E702F00AF8002820D0B7
:10B1B0004046F8F711FC04461F4F4FF4807007EB30
:10B1C000840100EB8400D1F8102580B242F0010226
:10B1D000C1F81025FEF752FA002E0AD04046F8F7C3
:10B1E000FBFB55F82000002803D00120A040C7F841
:10B1F0000403BDE8F08100002E2E5C2E2E5C2E2E66
:10B200005C2E2E5C2E2E5C2E2E5C6D6F64756C6534
:10B21000735C6E7266785C647269766572735C7377
:10B2200072635C6E7266785F6770696F74652E63B7
:10B2300000000000BC080020006000402DE9FC4137
:10B2400015460E4604462A2804D32FA140F2E110E9
:10B25000F7F7AAFF0027204601F09CFF08B1082756
:10B260004FE0B0782946C0F340022046F8F790FB43
:10B270000546401C44D0B07841071BD4C0070DD010
:10B2800068460094FEF702F9009900EB8100D0F8BF
:10B29000001721F00201C0F8001707E000217378C1
:10B2A000204600910A460191FEF725F820462549DF
:10B2B000FCF73AFDB078800718D52348317800EBC9
:10B2C0008500D0F81025214B1A40C0F810254FF406
:10B2D0007C524FF4403302EA042203EA01410A435C
:10B2E000D0F810150A43C0F810250AE01548327846
:10B2F0005E38284410F8521F41EA8211017000E0C4
:10B3000004273846BDE8FC812E2E5C2E2E5C2E2EA6
:10B310005C2E2E5C2E2E5C2E2E5C6D6F64756C6523
:10B32000735C6E7266785C647269766572735C7366
:10B3300072635C6E7266785F6770696F74652E63A6
:10B34000000000001A09002000600040FFC0FCFF60
:10B3500010B504462A2804D305A140F26220F7F76D
:10B3600023FF2046FEF722F9002800D0012010BD5F
:10B370002E2E5C2E2E5C2E2E5C2E2E5C2E2E5C2E07
:10B380002E5C6D6F64756C65735C6E7266785C6460
:10B390007269766572735C7372635C6E7266785FF5
:10B3A0006770696F74652E630000000070B5174DFB
:10B3B00095F8640008B1082070BD0020411E2A18CD
:10B3C000401CC0B282F830102A28F8D3002420464E
:10B3D000F8F7D0FA641CE4B20C2CF8D3002445F83A
:10B3E0005E4F0B49AC80C02081F80004012640204C
:10B3F000891FC1F800014FF4BE70FEF73FF90549FF
:10B40000F007C1F80403AE71204670BDBC080020EF
:10B4100006E000E000600040034890F86400002867
:10B4200000D0012070470000BC0800200121B1EBD2
:10B43000507F01D101207047002070470121B1EBFE
:10B44000507F01D1012070470020704706480068F6
:10B45000012110F0010F06D14FF0E020C02280F84A
:10B460000024C0F80011704700E100E006480068C1
:10B47000012110F0010F06D14FF0E020C02280F82A
:10B480000024C0F80011704700E100E070B504002E
:10B4900003D10AA14A20F7F787FE164D287808B194
:10B4A000852070BD2078144900F001000860FFF786
:10B4B000DDFF01202870002070BD00002E2E5C2EC4
:10B4C0002E5C2E2E5C2E2E5C2E2E5C2E2E5C6D6F36
:10B4D00064756C65735C6E7266785C6472697665BF
:10B4E00072735C7372635C6E7266785F706F77659F
:10B4F000722E6300600100207805004070B54FF0A7
:10B500008040D0F80453344C68070CD54FF4847055
:10B51000FEF794FD38B1606818B930A1F020F7F754
:10B5200043FE60688047A8060DD54FF48A70FEF789
:10B5300085FD40B1A06818B928A1F920F7F734FEBD
:10B54000A1680020884768060ED54FF48C70FEF77E
:10B5500075FD48B1A06820B920A14FF48070F7F7BD
:10B5600023FEA1680120884728060ED54FF48E706F
:10B57000FEF764FD48B1E06820B918A140F2091057
:10B58000F7F712FEE16800208847E8050ED54FF472
:10B590009070FEF753FD48B1E06820B90FA14FF459
:10B5A0008870F7F701FEE16801208847A80511D5EA
:10B5B0004FF49270FEF742FD00280BD0E06820B9EE
:10B5C00006A140F21710F7F7EFFDE168BDE8704003
:10B5D0000220084770BD0000600100202E2E5C2E66
:10B5E0002E5C2E2E5C2E2E5C2E2E5C2E2E5C6D6F15
:10B5F00064756C65735C6E7266785C64726976659E
:10B6000072735C7372635C6E7266785F706F77657D
:10B61000722E63004FF080414FF46070C1F8080350
:10B6200070474FF080414FF46070C1F804037047D9
:10B6300010B5040003D106A1C720F7F7B5FD1248E5
:10B640000021C1602168002900D0C16010BD000048
:10B650002E2E5C2E2E5C2E2E5C2E2E5C2E2E5C2E24
:10B660002E5C6D6F64756C65735C6E7266785C647D
:10B670007269766572735C7372635C6E7266785F12
:10B68000706F7765722E6300600100200149002011
:10B69000C86070476001002070B50D46040003D1FA
:10B6A0000DA15120F7F780FD204601F00DFE0400AA
:10B6B0000FD00020F7F794FC207920B10020F7F795
:10B6C000BDFC112070BD0120256020710020F7F71E
:10B6D000B5FC002070BD00002E2E5C2E2E5C2E2EA0
:10B6E0005C2E2E5C2E2E5C2E2E5C6D6F64756C6550
:10B6F000735C6E7266785C647269766572735C7393
:10B7000072635C7072735C6E7266785F7072732EB7
:10B710006300000010B5040003D106A17520F7F7FF
:10B7200043FD204601F0D0FD002802D00021016039
:10B73000017110BD2E2E5C2E2E5C2E2E5C2E2E5CEA
:10B740002E2E5C2E2E5C6D6F64756C65735C6E7254
:10B7500066785C647269766572735C7372635C7040
:10B7600072735C6E7266785F7072732E6300000095
:10B7700010B50446B0F5000F03D307A16A20F7F710
:10B7800013FD4FF0E020816982698A1A22F07F421E
:10B79000A242F9D310BD00002E2E5C2E2E5C2E2E60
:10B7A0005C2E2E5C2E2E5C2E2E5C6D6F64756C658F
:10B7B000735C6E7266785C647269766572735C73D2
:10B7C00072635C6E7266785F7379737469636B2EF3
:10B7D0006300000070B50B4D04460B4E28680B4902
:10B7E000B0FBF6F0B1FBF0F0A04203D208A1752047
:10B7F000F7F7DAFC2868B0FBF6F06043BDE870406C
:10B80000FFF7B6BF8C03002040420F00FFFF7F0010
:10B810002E2E5C2E2E5C2E2E5C2E2E5C2E2E5C2E62
:10B820002E5C6D6F64756C65735C6E7266785C64BB
:10B830007269766572735C7372635C6E7266785F50
:10B840007379737469636B2E6300000001490248C9
:10B8500002F0BABC24090020002000402DE9F0418C
:10B8600017460D00064603D11AA18420F7F79CFC69
:10B870003079264A00EB400101EBC00102EB810464
:10B8800094F82A1011B10820BDE8F081204951F840
:10B8900020103068FFF700FF08B11120F4E72946B7
:10B8A0003046F7F70BFC6760286920601FB1297FDD
:10B8B0003046FBF7D5F930680421C0F800150020A8
:10B8C000A061E06184F8290044F8140F0121A175FA
:10B8D000DAE700002E2E5C2E2E5C2E2E5C2E2E5CC7
:10B8E0002E2E5C2E2E5C6D6F64756C65735C6E72B3
:10B8F00066785C647269766572735C7372635C6EA1
:10B900007266785F756172742E63000024090020EE
:10B91000B0ED00002DE9F05F054600790F4600EB21
:10B92000400101EBC0014048164600EB810494F849
:10B930002A00012804D03DA14FF4A370F7F734FC8E
:10B9400027B93AA140F24710F7F72EFC26B937A1E4
:10B950004FF4A470F7F728FC616800204FF40178D9
:10B9600011B12A68C2F80883A1694FF0000969B1D2
:10B97000E06938B1606810B12868C0F8048311200C
:10B98000BDE8F09F27610120E66105E0C4F824903E
:10B99000E760A661C4F81C9094F82910014302D115
:10B9A000284601F076FD60680028286803D0C0F8BA
:10B9B00004830020E4E74FF4A2763146FFF775F8E0
:10B9C000B2464FF4927B59462868FFF769F806465D
:10B9D0004FF484712868FFF763F880465146286861
:10B9E000FFF75EF8074648EA07003043EBD056EA17
:10B9F000070007D12146286801F01CFD616AA06993
:10BA00008842E0D8C4F818900EB10320B8E70FB10F
:10BA10000F20B5E794F8291001200029296801D0EA
:10BA20000860C6E74860C4E7240900202E2E5C2E7B
:10BA30002E5C2E2E5C2E2E5C2E2E5C2E2E5C6D6FC0
:10BA400064756C65735C6E7266785C647269766549
:10BA500072735C7372635C6E7266785F7561727428
:10BA60002E63000001684FF40172C1F808230068DA
:10BA700001214160704700002DE9F05F0546007923
:10BA80000F4600EB400101EBC0002D49164601EBCB
:10BA9000800494F82A00012803D02AA1F220F7F7A5
:10BAA00083FB1FB927A1F320F7F77EFB1EB925A161
:10BAB000F420F7F779FB284600F060F810B1112068
:10BAC000BDE8F09F66614FF00009C4F82090A760C0
:10BAD00084F828904FF48E784E4641462868FEF749
:10BAE000E4FF28684FF0010AC0F808A02146286842
:10BAF00002F070FA606800BBD5F800B067690EE02C
:10BB000094F8280008B10F2615E041465846FEF784
:10BB1000C7FF0028F4D02146584602F05BFA206A9D
:10BB2000B842F2D3574641462868FEF7B9FF0028CD
:10BB3000F9D02868C760C4F814903046C0E7000008
:10BB4000240900202E2E5C2E2E5C2E2E5C2E2E5CC8
:10BB50002E2E5C2E2E5C6D6F64756C65735C6E7240
:10BB600066785C647269766572735C7372635C6E2E
:10BB70007266785F756172742E630000007900EB65
:10BB8000400101EBC000044901EB8000406900283E
:10BB900000D0012070470000240900202DE9F04763
:10BBA000044600794FF0000900EB400101EBC000B2
:10BBB000254901EB80072068C0F80095786880B1BE
:10BBC00020682249C0F808132068012140F307309B
:10BBD00000F01F0291404009800000F1E020C0F811
:10BBE00080112068D0F80C25D0F81485D0F80865AD
:10BBF000D0F810554FF0FF31C0F81415C0F80C15EF
:10BC00002068C0F80815C0F81015501C02D0104666
:10BC1000FDF7BCFBB8F1FF3F02D04046FDF7B6FB95
:10BC2000681C02D02846FDF7B1FB701C02D03046DC
:10BC3000FDF7ACFB2068FFF76DFD87F82A90C7F889
:10BC40000490BDE8F087000024090020840202006F
:10BC50000149024802F066BB500900200020004064
:10BC60002DE9F04117460D00064603D118A1A92081
:10BC7000F7F79AFA3079244A00EBC00102EB81040D
:10BC800094F8201011B10820BDE8F0811F4951F847
:10BC900020103068FFF700FD08B11120F4E72946B5
:10BCA0003046F7F746FA6760286920601FB1297FA0
:10BCB0003046FBF727F830680821C0F8001500204F
:10BCC000A061E0616061012184F82010DCE70000E0
:10BCD0002E2E5C2E2E5C2E2E5C2E2E5C2E2E5C2E9E
:10BCE0002E5C6D6F64756C65735C6E7266785C64F7
:10BCF0007269766572735C7372635C6E7266785F8C
:10BD000075617274652E630050090020B4ED000067
:10BD10002DE9F05F044600790F46DFF834A100EB0F
:10BD2000C0010AEB8105164695F82000012804D0D1
:10BD300048A14FF4AD70F7F737FA27B945A140F2A3
:10BD40005B10F7F731FA26B942A14FF4AE70F7F75E
:10BD50002BFA207910B9B6F5803F04D33DA140F20B
:10BD60005D10F7F721FA3846FFF760FBB0B168685D
:10BD70004FF000084FF4047910B12168C1F808931E
:10BD8000A8694FF0000B80B1E86948B1686810B14C
:10BD90002068C0F804931120BDE8F09F1020FBE755
:10BDA0002F614FF00108EE6102E0EF60C5E9066B1C
:10BDB00000254FF488712068FEF788FE4FF4A271C9
:10BDC0002068FEF783FE2068C0F83475C0F8386537
:10BDD0002068B8F1000F12D0D0F8001241F0200115
:10BDE000C0F800122079D04600EBC0010AEB8100B8
:10BDF000406838B12168C1F804932846CCE7012196
:10BE00000160EFE74FF4887A4FF4A2795146206839
:10BE1000FEF757FE074649462068FEF752FE0646E3
:10BE20004FF492712068FEF74CFE014647EA060087
:10BE30000843EBD0227902EBC20308EB8302C2F87D
:10BE400018B001B10325002ED7D00F25D5E700008B
:10BE5000500900202E2E5C2E2E5C2E2E5C2E2E5C89
:10BE60002E2E5C2E2E5C6D6F64756C65735C6E722D
:10BE700066785C647269766572735C7372635C6E1B
:10BE80007266785F75617274652E63000179094A84
:10BE900001EBC10102EB8101C96931B10168D1F83F
:10BEA000002222F02002C1F8002200680121416036
:10BEB00070470000500900202DE9F04704460F4666
:10BEC0000079364900EBC00001EB8005164695F875
:10BED0002000012804D032A140F20710F7F764F9DE
:10BEE00027B92FA14FF48470F7F75EF926B92CA17A
:10BEF00040F20910F7F758F9207910B9B6F5803FEC
:10BF000004D327A14FF48570F7F74EF93846FFF7B1
:10BF10008DFA30B1204600F05FF820B11120BDE865
:10BF2000F0871020FBE76E61AF604FF490774FF021
:10BF3000000839462068FEF7C9FD4FF4AC7631465B
:10BF40002068FEF7C3FD2068AA686969C0F8442527
:10BF5000C0F8481520684FF00109C0F808906868DB
:10BF6000D0B9BA4651462068FEF7ABFD07463146C8
:10BF70002068FEF7A6FD0743F4D010B14FF00F087C
:10BF800008E02068C0F80C9031462068FEF799FD63
:10BF90000028F9D0002068614046C0E75009002021
:10BFA0002E2E5C2E2E5C2E2E5C2E2E5C2E2E5C2ECB
:10BFB0002E5C6D6F64756C65735C6E7266785C6424
:10BFC0007269766572735C7372635C6E7266785FB9
:10BFD00075617274652E63000079054900EBC0003D
:10BFE00001EB80004069002800D00120704700006C
:10BFF000500900202DE9F04704460079334900EB51
:10C00000C00001EB80070125786880B120683049C5
:10C01000C0F80813206840F3073000F01F0105FA4C
:10C0200001F14009800000F1E020C0F88011206893
:10C03000D0F8001221F02001C0F8001220684560FD
:10C040004FF4AC7631462068FEF740FD2068C560AD
:10C0500031462068FEF735FD0028F9D020684FF002
:10C060000009C0F800952068D0F80C25D0F8148598
:10C07000D0F80865D0F810554FF0FF31C0F80C1516
:10C08000C0F814152068C0F80815C0F81015501C29
:10C0900002D01046FDF783F9B8F1FF3F02D04046C9
:10C0A000FDF77DF9681C02D02846FDF778F9701C71
:10C0B00002D03046FDF773F92068FFF72BFB87F8B5
:10C0C0002090C7F80490BDE8F087000050090020D8
:10C0D0001003420003490248C1F8040370470000FE
:10C0E00004148001007002402DE9F0411D461746FE
:10C0F00006460C46AA4204D213A140F2B510F7F747
:10C1000053F8206838B1FFF799F920B90EA14FF420
:10C11000DB70F7F749F86068A84204D2002171602B
:10C120002168316007E075602168401B3160606004
:10C13000216829442160AF4203D110B10120BDE83C
:10C14000F0810020FBE700002E2E5C2E2E5C2E2EB0
:10C150005C2E2E5C2E2E5C2E2E5C6D6F64756C65D5
:10C16000735C6E7266785C647269766572735C7318
:10C1700072635C6E7266785F757362642E63000032
:10C1800010B50D4C207820B90CA140F20F70F7F7D4
:10C190000BF800F02BFE1749D1F80403C1F808038F
:10C1A000154900200860BFF36F8FBFF34F8F02F077
:10C1B00059FA0120207010BD780100202E2E5C2E2F
:10C1C0002E5C2E2E5C2E2E5C2E2E5C2E2E5C6D6F29
:10C1D00064756C65735C6E7266785C6472697665B2
:10C1E00072735C7372635C6E7266785F757362649F
:10C1F0002E63000000700240007502402DE9F047F8
:10C20000DFF8289199F80000012804D048A140F2F5
:10C21000A360F6F7C9FF4FF400684046FEF742FE00
:10C2200000F070FB504F514C49F2753550B1002071
:10C23000F6F7D6FE21680320002961D0386000207F
:10C24000F6F7FCFE00F06CFB484E143650B10020AF
:10C25000F6F7C6FE2168C020002956D030600020C5
:10C26000F6F7ECFE424901200860BFF36F8FBFF381
:10C270004F8F404801680905FCD54046FEF712FE85
:10C2800000F04EFB4FF0000848B10020F6F7A8FE82
:10C290002068C8B3C6F800800020F6F7CFFE00F093
:10C2A0003FFB50B1344940F2E37008604020091D63
:10C2B0000860BFF36F8FBFF34F8F2D4980201C3173
:10C2C00008602B490020303108604E4640F2FF10D4
:10C2D000C6E9020802F0C6F986F802800220307032
:10C2E00000F010FB00281ED00020F6F779FE206831
:10C2F000A0B1C7F80080BDE8F0470020F6F79EBE69
:10C300002560386025609AE703E02560306025608D
:10C31000A5E72560C6F800802560BDE72560C7F861
:10C3200000802560E7E7BDE8F08700007801002085
:10C330002E2E5C2E2E5C2E2E5C2E2E5C2E2E5C2E37
:10C340002E5C6D6F64756C65735C6E7266785C6490
:10C350007269766572735C7372635C6E7266785F25
:10C36000757362642E63000014ED064000EC064015
:10C3700000750240007402400078024002F092BA58
:10C3800070B5054602F08EFA2846F9F721FA044600
:10C3900000F00F00092804D30E4940F2B140F6F72F
:10C3A00003FF04F00F0122064FF0010001D50A4AF5
:10C3B00001E0094A121D1368884083431360BFF3EC
:10C3C0006F8FBFF34F8F284600F0BEF90349C1F8C5
:10C3D000080370BDACCF0000107502400070024031
:10C3E00070B5010600F00F050446092D04D30C4971
:10C3F00040F27D40F6F7D8FE082D04D3084940F2FC
:10C400007E40F6F7D1FE07480460BFF34F8F44F437
:10C4100080710160BFF36F8FBFF34F8F70BD00005D
:10C42000ACCF00000C75024070B5054600F08CF9E9
:10C430002149C1F804032846FEF790FB00283AD1B1
:10C440002846F9F7C5F9044600F00F00092804D37F
:10C450001A494FF49460F6F7A7FE04F00F00210686
:10C460004FF0010401D5164901E01549091D0A687C
:10C4700004FA00F002430A60BFF36F8FBFF34F8FDF
:10C48000280718D0280616D405F00F00082812D265
:10C490000020F6F7A5FD284600F01EFD2846F9F716
:10C4A00049F984400748C168A143C160BDE87040B4
:10C4B0000020F6F7C3BD70BD00700240ACCF000095
:10C4C000107502407801002010B5F9F781F9BDE838
:10C4D0001040FEF743BB00002DE9F0410E46074631
:10C4E000F9F728F9054626B918A140F67400F6F7C1
:10C4F0005BFE0020F6F774FD224C380704D1A078CB
:10C50000874201D010241BE02089E168C04380B23B
:10C510000843012101FA05F5284201D011240FE05A
:10C520003846F9F71DF900218160326802607268AF
:10C5300042608173E0680543E5600C4602F086FACC
:10C540000020F6F77BFD2046BDE8F0812E2E5C2E04
:10C550002E5C2E2E5C2E2E5C2E2E5C2E2E5C6D6F95
:10C5600064756C65735C6E7266785C64726976651E
:10C5700072735C7372635C6E7266785F757362640B
:10C580002E6300007801002010B5F9F7E9F88089E2
:10C5900010BD000070B505460C46C80704D014A1B4
:10C5A00040F2B570F6F700FE05F00F015CB1082906
:10C5B00012D31D480068C1B280290AD04FF48060B0
:10C5C000A04210D20AE00829F3D209A140F2B770C4
:10C5D00007E04FF40070F3E7402C04D904A140F2C7
:10C5E000B970F6F7E1FD2846F9F7BAF8848170BD15
:10C5F0002E2E5C2E2E5C2E2E5C2E2E5C2E2E5C2E75
:10C600002E5C6D6F64756C65735C6E7266785C64CD
:10C610007269766572735C7372635C6E7266785F62
:10C62000757362642E6300001C75024010B5F9F743
:10C63000CFF8044600F00F00082804D3064940F262
:10C64000CA40F6F7B1FD054944F480700860BFF3B5
:10C650006F8FBFF34F8F10BDACCF00001875024035
:10C6600010B5F9F7B5F800F00F01082901D3002043
:10C6700010BD0206054800EB810002D5D0F8200469
:10C6800001E0D0F844040128F1D110BD007002404F
:10C6900010B50446000606D42046FFF7E1FF10B1AE
:10C6A000204600F019FC2046F9F792F8044600F005
:10C6B0000F00082804D3064940F2D240F6F774FD73
:10C6C00004480460BFF36F8FBFF34F8F10BD0000AD
:10C6D000ACCF00001875024070B50446000604F0A7
:10C6E0000F0502D5092D09D301E0092D08D307A1B3
:10C6F00040F25510F6F758FD200601D5114801E02B
:10C700001048123030F8150070BD00002E2E5C2E3F
:10C710002E5C2E2E5C2E2E5C2E2E5C2E2E5C6D6FD3
:10C7200064756C65735C6E7266785C64726976655C
:10C7300072735C7372635C6E7266785F7573626449
:10C740002E63000050EE000070B50546000605F0AF
:10C750000F0402D5092C09D301E0092C08D307A145
:10C760004FF4BF70F6F720FD280601D5114801E00F
:10C7700010480930015D0120884070BD2E2E5C2ECE
:10C780002E5C2E2E5C2E2E5C2E2E5C2E2E5C6D6F63
:10C7900064756C65735C6E7266785C6472697665EC
:10C7A00072735C7372635C6E7266785F75736264D9
:10C7B0002E63000074EE00002DE9F0410D460646A0
:10C7C000F8F7B8FF044625B930A140F60400F6F7A3
:10C7D000EBFC0020F6F704FC3A48310704D18178DD
:10C7E0008E4201D0102438E001898046C943C068D8
:10C7F00089B201270143A740394201D011242CE01E
:10C800003046F8F7ADFF044606F00F00310600EBA6
:10C8100040002AD52C4901EB80062868FEF70EFE61
:10C820000028287A4FEAC07004D008B1274803E0F6
:10C83000274801E0B8B12748206095E8070086E85E
:10C8400007000020C4E90160A073D8F80C1004466A
:10C850000F43C8F80C7002F0F9F80020F6F7EEFB71
:10C860002046BDE8F0811C48E6E717496C3101EB32
:10C870008006286838B1FEF7E1FD20B903A140F633
:10C880005E00F6F791FC1548D6E700002E2E5C2ED0
:10C890002E5C2E2E5C2E2E5C2E2E5C2E2E5C6D6F52
:10C8A00064756C65735C6E7266785C6472697665DB
:10C8B00072735C7372635C6E7266785F75736264C8
:10C8C0002E63000078010020940A002021CB000094
:10C8D000A5CA000005CA00006DC90000E9C000003B
:10C8E00010B5F8F775FFBDE81040FEF78FBA10B528
:10C8F00000F016F810B100F027F808B1002010BDC4
:10C90000012010BD10B500F01FF838B94FF080506D
:10C91000D0F830010D2801D0002010BD012010BD3D
:10C920004FF08050D0F83001082801D00020704727
:10C93000012070474FF08050D0F83001082801D016
:10C94000002070470120704710B5FFF7E9FF30B1B4
:10C950004FF08050D0F8340108B1012010BD002004
:10C9600010BD0000004870476C0B00202DE9F0411D
:10C97000804616460C460868FEF760FD20B112A1FD
:10C9800040F21B20F6F710FC65681D4FB54200D938
:10C990003546402D04D90CA140F22520F6F704FCC1
:10C9A0002A4638462168F3F752FEC8E900756068E8
:10C9B000401B60602068284420606068002800D028
:10C9C0000120BDE8F08100002E2E5C2E2E5C2E2E64
:10C9D0005C2E2E5C2E2E5C2E2E5C6D6F64756C654D
:10C9E000735C6E7266785C647269766572735C7390
:10C9F00072635C6E7266785F757362642E630000AA
:10CA00006C0B00202DE9F041064690460D46086863
:10CA1000FEF714FD20B114A140F23E20F6F7C4FB4E
:10CA20006C681F4F4046444500D90446402C04D949
:10CA30000DA14FF41270F6F7B7FB34B12246384619
:10CA40002968F3F704FE376001E00020306074606D
:10CA50006868001B686028682044286014B10120C1
:10CA6000BDE8F0810020FBE72E2E5C2E2E5C2E2EE2
:10CA70005C2E2E5C2E2E5C2E2E5C6D6F64756C65AC
:10CA8000735C6E7266785C647269766572735C73EF
:10CA900072635C6E7266785F757362642E63000009
:10CAA0006C0B00202DE9F041074616460C4608683D
:10CAB000FEF7C4FC20B90CA14FF4EE70F6F774FB3E
:10CAC0006568B54200D935462068C7E90005606849
:10CAD000401B60602068284420606068002800D007
:10CAE0000120BDE8F08100002E2E5C2E2E5C2E2E43
:10CAF0005C2E2E5C2E2E5C2E2E5C6D6F64756C652C
:10CB0000735C6E7266785C647269766572735C736E
:10CB100072635C6E7266785F757362642E63000088
:10CB20002DE9F041074616460C460868FEF786FCDC
:10CB300020B910A140F2FD10F6F736FB6568B5424A
:10CB400000D93546002D0FD0D4F80000C7E9000504
:10CB50006068A0EB0500606020682844206006D073
:10CB60004FF00100BDE8F0814FF00000EEE74FF01C
:10CB70000000F7E72E2E5C2E2E5C2E2E5C2E2E5CF7
:10CB80002E2E5C2E2E5C6D6F64756C65735C6E7200
:10CB900066785C647269766572735C7372635C6EEE
:10CBA0007266785F757362642E630000014900202D
:10CBB00048707047780100202DE9F041040004D14D
:10CBC0001FA140F27560F6F7EFFA2B49087810B113
:10CBD0000820BDE8F0814C60012000240870460266
:10CBE0004FEA040544F0800707F00F00082801D33E
:10CBF000314600E040213846FFF7CCFC3846F8F7D4
:10CC0000AFFD8573641C0560E4B28560092CE9D32F
:10CC10005FF0000404F00F00082801D3314600E063
:10CC200040212046FFF7B6FC2046F8F799FD8573B2
:10CC3000641C0560E4B28560092CEBD30020C8E7D2
:10CC40002E2E5C2E2E5C2E2E5C2E2E5C2E2E5C2E1E
:10CC50002E5C6D6F64756C65735C6E7266785C6477
:10CC60007269766572735C7372635C6E7266785F0C
:10CC7000757362642E630000780100200348007819
:10CC8000022801D30120704700207047780100205E
:10CC900002480078002800D0012070477801002069
:10CCA00010B5FFF7EBFF28B12720F4F7BFFB08B161
:10CCB000012010BD002010BD0148807870470000A1
:10CCC000780100205020FEF7FFB810B5FFF70FFEE7
:10CCD00058B1EFF3108472B64C20FEF7F5F84C20F3
:10CCE000FEF7F2F884F3108810BDBDE810404C2028
:10CCF000FEF7EAB80021016041601149096801703E
:10CD00000F49091D096841700D49083109680C4A2D
:10CD10000C32126841EA0221418009491031096848
:10CD2000074A1432126841EA02218180044918310D
:10CD30000968034A1C32126841EA0221C180704727
:10CD4000807402405420FEF7BFB8000070B5134C49
:10CD500005462078022804D011A140F21D70F6F794
:10CD600023FA002060701C4C15B9FFF7C0FD00B11C
:10CD70001A4C1B48C0F804431A49C02081F800042B
:10CD8000184A01208021233AC2F800111649086090
:10CD9000BFF36F8FBFF34F8F70BD0000780100208D
:10CDA0002E2E5C2E2E5C2E2E5C2E2E5C2E2E5C2EBD
:10CDB0002E5C6D6F64756C65735C6E7266785C6416
:10CDC0007269766572735C7372635C6E7266785FAB
:10CDD000757362642E6300000714C0010714E0013C
:10CDE0000070024027E000E00475024070B5114871
:10CDF0000078022804D010A140F23C70F6F7D4F974
:10CE00001B4D8024C5F880422720F4F70FFB002833
:10CE10000ED001F0C7FD174900200860BFF36F8FE7
:10CE2000BFF34F8FC5F880411349401EC1F8080376
:10CE300070BD0000780100202E2E5C2E2E5C2E2E60
:10CE40005C2E2E5C2E2E5C2E2E5C6D6F64756C65D8
:10CE5000735C6E7266785C647269766572735C731B
:10CE600072635C6E7266785F757362642E63000035
:10CE700004E000E0047502400070024010B5002498
:10CE80002046F6F7ADF80C48407878B101F08AFDFD
:10CE90000A480168890509D4094901220A60006825
:10CEA000800502D50020086000E001240020F6F78C
:10CEB000C5F8204610BD0000780100200074024033
:10CEC0002C75024003490248C1F80803704700006E
:10CED00004148001007002402DE9F0410446000670
:10CEE00004D523A140F60310F6F75EF9FFF718FD0D
:10CEF0002D4D01264FF0000804F00F0710B1FFF789
:10CF000023FD00B30020F6F76BF82046F8F712FC7B
:10CF10008640A868B043A860082F0FD2200604D529
:10CF200022A140F25D40F6F73FF92C4A02EB87015F
:10CF3000C1F8A084BFF36F8FBFF34F8FBDE8F041FE
:10CF40000020F6F77BB80020F6F74AF82046F8F7FD
:10CF5000F1FB8640A8682249B043A86040F2C57042
:10CF600000EB47000860081DC0F800800068E5E796
:10CF70002E2E5C2E2E5C2E2E5C2E2E5C2E2E5C2EEB
:10CF80002E5C6D6F64756C65735C6E7266785C6444
:10CF90007269766572735C7372635C6E7266785FD9
:10CFA000757362642E630000780100202E2E5C2EC3
:10CFB0002E5C2E2E5C2E2E5C2E2E5C2E2E5C6D6F2B
:10CFC00064756C65735C6E7266785C68616C2F6EFC
:10CFD00072665F757362642E680000000070024024
:10CFE0000078024010B5064C2078012804D005A135
:10CFF00040F29A60F6F7D8F800206060207010BD0B
:10D00000780100202E2E5C2E2E5C2E2E5C2E2E5CA7
:10D010002E2E5C2E2E5C6D6F64756C65735C6E726B
:10D0200066785C647269766572735C7372635C6E59
:10D030007266785F757362642E63000010B5002419
:10D040002046F5F7CDFF0F48407880B1FDF734FF5B
:10D0500068B10D49002008600124FFF761FC30B180
:10D060000A490B68094AC02014322BB11060002015
:10D07000F5F7E4FF204610BD49F275330B601060F0
:10D080000B60F4E7780100202C75024000EC0640AC
:10D0900010B50C4C6168002913D0F8F739F96168B4
:10D0A0008968401A20F07F40B0F5960F04D306A19E
:10D0B0004FF48270F6F778F8606800F0C3FE002045
:10D0C000606010BDD00100202E2E5C2E2E5C2E2E16
:10D0D0005C2E2E5C2E2E5C2E2E5C636F6D706F6E40
:10D0E000656E74735C6C69627261726965735C749D
:10D0F000696D65725C6170705F74696D6572322E06
:10D10000630000002DE9F84317460C0005462BD0BC
:10D11000DFF870804646D8F80000F7F719FA38446F
:10D12000C7B23068F7F714FAA968497E081AB0FB4D
:10D13000F7F0C6B22046F7F70BFAA968381AC7B25B
:10D14000487FB0FBF6F206FB1202401C487782B122
:10D1500023460DA207212846FBF7F0F93946284659
:10D16000BDE8F843F8F736B8A96800204877BDE86D
:10D17000F883009405A207212846D8F80030FBF771
:10D18000DDF9EBE7F0020020257300000A25732586
:10D19000730000000349084490F93000C017401C98
:10D1A00070470000BC0800200449084490F9300092
:10D1B000082801DB0120704700207047BC080020D0
:10D1C0000449084490F93000082801D20120704732
:10D1D00000207047BC08002010B50C46017A0529D4
:10D1E00008D0407A38B1084808A102682046FBF709
:10D1F000D3FE00E01AB106A12046FBF7CDFE204683
:10D20000BDE81040FBF708BF68030020257300004D
:10D210000D0A000038B5C3880D46044633B114A08A
:10D22000009015A216A12846FBF7B6FE217A052923
:10D230001CD0607A48B1A088FCF73EFB164951F833
:10D24000202016A12846FBF7A7FEA0880021FCF7A6
:10D25000BBFD03461049207A143951F8202001B053
:10D260002846BDE830400EA1FBF796BE38BD000051
:10D270001B5B306D000000001B5B313B33316D00E8
:10D2800025734C6F67732064726F7070656420281B
:10D2900025642925730D0A0068030020257300000A
:10D2A0003C25733E2025733A20000000EFF30580F3
:10D2B000C005C00D01D001207047EFF3148040F38A
:10D2C0000000401C704700000349884201D1034818
:10D2D00070470020704700000020004070010020CF
:10D2E00001680A684968914201D3881A70478068CA
:10D2F000801A0844401C704770B50546F8F705F9D8
:10D30000114C40B1D4E904024FF08071411842F150
:10D310000000C4E9041000212846F7F7A7FF10B168
:10D320002846FFF7B5FE01212846F7F79FFF18B101
:10D33000F8F754FDC4E90601284600F0E5FD28464B
:10D34000BDE8704000F03AB8D001002070B5054645
:10D3500000200C460870F8F741FDD5E90223101AA9
:10D3600063EB010300263146361A994117DAB0F50E
:10D37000350F03D3F4F7BEF90D4942184FF4960365
:10D3800000210C48F8F716F938B10D280BD00A49DE
:10D39000CF20F5F709FF002070BD012070BD0021EE
:10D3A0000448F7F75DFF284600F04CFD2070F2E7D7
:10D3B000FFFFB400D8010020C8D00000F8B51B4C16
:10D3C000074600261A48FDF7B1FAD8B1616879B16D
:10D3D000D0E902106268D2E90232C91A904121D222
:10D3E000606890F8200018B161681148FDF762FA92
:10D3F00000F0FEFB05466946FFF7A8FF98B160689C
:10D4000040B10AE0606800280CD13846BDE8F84019
:10D41000F8F7A8B83846F8F77DF865609DF8000081
:10D420000028CFD1F8BD6660CCE70000D001002015
:10D4300098EE000070B5054688690C4600284FF448
:10D44000847128460AD0FDF730FBD5F81805626ACA
:10D45000E1688854606A401C606270BDFDF725FB7E
:10D46000D5F8180570BD1FB501238DF80030CDE942
:10D470000121D0E90012684690471FBD1FB5012366
:10D480008DF80030CDE90121D0E9001268469047BF
:10D490001FBD10B5044600684FF49271FDF705FBFF
:10D4A0004FF484712068FDF700FB206801210160C2
:10D4B00010BD00007CB50546FF20009001236A46A0
:10D4C00001A9E868FDF724F8040004D010A11A208F
:10D4D000F5F76AFE19E0009ABAB168691C4C019927
:10D4E0000378D2B2E35C1BB1001DFEF711FC02E031
:10D4F0000C30FEF70FFA040007D1A8682A4640F264
:10D5000066610068F4F764F9044620467CBD0000BB
:10D510002E2E5C2E2E5C2E2E5C2E2E5C2E2E5C2E45
:10D520002E5C636F6D706F6E656E74735C6C696298
:10D530007261726965735C636C695C756172745C5D
:10D540006E72665F636C695F756172742E63000052
:10D550004001002070B50E4C0020D2B22070201D7A
:10D560000C4D0378EB5C1BB1001DFEF7A5FC02E03F
:10D570000C30FEF781FA18B1074A2D21F2F7BCFEF4
:10D580006078002802D021780029FAD070BD000010
:10D59000F4020020400100206004010000207047D8
:10D5A0002DE9FE4308790C46012804D0022809D051
:10D5B000032878D178E0B4F80700002871D012224F
:10D5C00043497DE0B4F8070000286AD0092800D953
:10D5D0000920814609264FF00008F4F7DBFA25E020
:10D5E000686820B93BA140F2A120F5F7DDFD68682D
:10D5F000406820B937A140F2A220F5F7D5FD0027F9
:10D60000009700E07F1C686801230022D0F804C066
:10D6100029466846E0470028F4D1297A3E4401EBC8
:10D62000080000F0FF082846F4F718FB0500D7D1E2
:10D6300002A8F4F7F1FD02990546894504D925A110
:10D6400040F2B720F5F7B0FD21494A46123128468D
:10D65000F2F7FDFF85F804806E80F4F727FB18B120
:10D66000E87940F02000E871F4F794FA0146284880
:10D6700080E82202B4F80710C1600020F5F7B0FC82
:10D68000134980200839F4F759FE040005D11049E8
:10D6900080201039F4F71CFD04460020F5F7CEFC7D
:10D6A0002046BDE8FE8311E0B4F807000028F8D05A
:10D6B000E078B4F80510F5F723FC010006D00A78ED
:10D6C00003B0601CBDE8F043F4F776BD0620E8E740
:10D6D000FCEE00002E2E5C2E2E5C2E2E5C2E2E5C80
:10D6E0002E2E5C2E2E5C636F6D706F6E656E747384
:10D6F0005C6C69627261726965735C757362645CAB
:10D700006170705F757362645F636F72652E630032
:10D71000280E002038B50D466846F4F77DFD044616
:10D720000098022804D20CA140F26F20F5F73CFDCE
:10D73000002020802078174940F0010020704978AF
:10D740004908C90702D040F0020020700222214699
:10D75000681CF4F731FD38BD2E2E5C2E2E5C2E2E6B
:10D760005C2E2E5C2E2E5C2E2E5C636F6D706F6EA9
:10D77000656E74735C6C69627261726965735C7505
:10D780007362645C6170705F757362645F636F7213
:10D79000652E630040020020F8B50C46070004D156
:10D7A0003EA14FF44E70F5F7FFFC24B93BA140F2C7
:10D7B0003930F5F7F9FC607810F0600F2AD10006D7
:10D7C000454DA0784FF0000626D520B1062808D098
:10D7D00008281FD10BE021463846BDE8F840FFF786
:10D7E00099BF21463846BDE8F840FFF7D9BE6846E4
:10D7F000F4F712FD01462878052802D0042803D04A
:10D8000008E00120087000E00E700122601CF4F7AF
:10D81000D3FCF8BD0620F8BD0A28FBD2DFE800F0F3
:10D820000517050C050605050526F3E71BA14FF4B2
:10D830005770F5F7B9FCEDE7B4F803000128E9D11A
:10D84000F4F734FA80B1687840F0020009E0B4F8E7
:10D8500003000128DED1F4F729FA28B1687820F016
:10D86000020068700020F8BD0F20F8BD2878052858
:10D8700003D0042801D00820F8BDE07818B10128B1
:10D8800005D00720F8BDF4F723F8042002E0F4F7F0
:10D8900037F8052000F032FE3046F8BD2E2E5C2E03
:10D8A0002E5C2E2E5C2E2E5C2E2E5C2E2E5C636F3C
:10D8B0006D706F6E656E74735C6C696272617269B3
:10D8C00065735C757362645C6170705F75736264CC
:10D8D0005F636F72652E630040020020F8B5054655
:10D8E000407810F0600F31D120486C79A978007829
:10D8F00021B1012923D0032928D111E0052801D025
:10D90000200729D16846F4F787FC06462046FEF733
:10D91000A7FE308002223146681CF4F74DFCF8BDAA
:10D9200004F00F01082911D2B5F8031071B90528C8
:10D9300001D0200710D12046FEF778FE14E004F055
:10D940000F01082902D2B5F8031009B10620F8BD6D
:10D95000052803D0200701D00820F8BD2046FEF797
:10D960003FFD2046FEF794FE0020F8BD4002002057
:10D970002DE9F0411E4617460C00054604D12B49FF
:10D9800040F25310F5F710FC27B928494FF4AA705C
:10D99000F5F70AFC26B9254940F25510F5F704FCC5
:10D9A00070780106C0F3411033D510B101282DD194
:10D9B00007E033463A4621462846BDE8F04100F0EC
:10D9C000C9B8B2783046012A04D0022A10D0032AFE
:10D9D0001CD113E00179012903D0022901D00329C8
:10D9E00014D1A16928460A683146BDE8F0411047C4
:10D9F000C27807F108011144012202E0012207F177
:10DA00000C01701CBDE8F041F4F7D6BB0620BDE860
:10DA1000F0810028FAD00128F8D133463A46214651
:10DA20002846BDE8F04100F047B8000018F60000B5
:10DA3000F8B50B4651780646144611F0600F25D113
:10DA40001C480906A17800781ED511B10A291DD1FC
:10DA500009E005281ED16846F4F7DEFB01460020E8
:10DA6000088002220CE0052814D16846F4F7D4FBA4
:10DA7000054619463046F5F7CFF8287001222946A9
:10DA8000601CF4F799FBF8BD0B2901D00620F8BD06
:10DA9000052801D00820F8BDB4F80300FF2801D9FB
:10DAA0000720F8BDD27819463046BDE8F840F5F7B2
:10DAB00085B800004002002070B59E780D46092E02
:10DAC00006D0002401210A2E0ED00B2E40D131E0C9
:10DAD0001979022901D003293AD1A9694A687AB390
:10DAE000BDE8704019461047DE7802F108001D7944
:10DAF0003554DD784FF4006002EB850568611879D4
:10DB000038B182F82810D87808B182F8291000209E
:10DB100070BD01201118097A0029F8D1401CC0B24B
:10DB20000428F7D382F82940107A0028EFD182F830
:10DB30002840ECE7B3F803301BB10123117302E076
:10DB400006E0002314731A46294600F0FDFFDEE7C5
:10DB5000062070BDFEB5074658781C4600F01F0031
:10DB60000D46012802D1A078062801D00620FEBD6E
:10DB70000020019002A8F4F74FFB064601A8009090
:10DB8000E278217933463846F3F7A4FF052809D017
:10DB90000198402803D30C498620F5F705FB314650
:10DBA000019A0DE0A869E178026938469047064677
:10DBB000A869E17800224369384698470146324611
:10DBC000601CF4F7F9FAFEBD18F600000022CA60E6
:10DBD0004A60054A8A60052803D2044A52F82000A8
:10DBE00000E00020086070479CF30000280300203C
:10DBF0000148FCF7C5BE000098EE0000C207002AED
:10DC000003D000BF4FF00F0201E04FF0F00201D04F
:10DC10004FEA0111044B03EB5003187800EA0200AD
:10DC200040EA010018707047AC0B00202DE9F84F56
:10DC3000DFF898809246894605461F4601226946CC
:10DC40001846D8F80860F5F7F5FDB0B30098002144
:10DC50000446801C0AE000BF00EA06025AF821C010
:10DC600008EB8202401C491CC2F80CC0B942F3D335
:10DC7000BA462F0CF7F7EAFA8346FCF74FF8B8429A
:10DC800004D8134940F27D10F5F78EFA601C30403D
:10DC900008EB8000344047EA0B4208EB8401C26085
:10DCA000C86865F3C5006AF3891069F39F2020F006
:10DCB0000300401C20F00400C86098F8200401E034
:10DCC000FBF712FE0028FBD1BDE8F88FE40F00201F
:10DCD000A804010070B50C46050004D108A140F667
:10DCE000FD10F5F761FA24B905A140F6FE10F5F72D
:10DCF0005BFA21682868BDE87040F2F7E1BC0000DB
:10DD00002E2E5C2E2E5C2E2E5C2E2E5C2E2E5C2E4D
:10DD10002E5C636F6D706F6E656E74735C6C6962A0
:10DD20007261726965735C636C695C6E72665F6375
:10DD30006C692E630000000070B50546F5F702F926
:10DD4000124C06462078F5F7FDF886420AD02846A0
:10DD5000F5F7F8F820B104F11C00FAF7B5FF01E07F
:10DD6000FAF770FF2846F5F7FAF806462078F5F737
:10DD7000F6F8864208D02846F5F7F1F810B1FEF71C
:10DD8000A9F901E0FFF79EF8257070BD1C02002084
:10DD90002DE9F04114460D00064604D11BA140F2C6
:10DDA0002330F5F701FA24B918A14FF44970F5F7BB
:10DDB000FBF93046F7F746F978B9B068FA21077DE4
:10DDC00090F816803046F7F705FAFA213046F7F753
:10DDD000B5F83046F7F736F910B10620BDE8F08106
:10DDE000B068007D2870B068807D20702878C01BE6
:10DDF000C1B23046F7F714F92178A1EB0800C1B29F
:10DE00003046F7F7F3F90020E8E700002E2E5C2EED
:10DE10002E5C2E2E5C2E2E5C2E2E5C2E2E5C636FC6
:10DE20006D706F6E656E74735C6C6962726172693D
:10DE300065735C636C695C6E72665F636C692E63AC
:10DE40000000000070B50446406918B916A17C2096
:10DE5000F5F7AAF923480025007810B30CB394F81D
:10DE60002000F0B1F7F7BAFFD4E90223801A9941F4
:10DE700012D32069002608B984F82060D4E905107F
:10DE80008847206968B194F8201051B1D4E9022183
:10DE900010187141C4E9020121461348FCF70AFD3C
:10DEA0000125284670BD00002E2E5C2E2E5C2E2EE5
:10DEB0005C2E2E5C2E2E5C2E2E5C636F6D706F6E52
:10DEC000656E74735C6C69627261726965735C74AF
:10DED000696D65725C6170705F74696D6572322E18
:10DEE00063000000D001002098EE00004069054A60
:10DEF0000178515C11B1001DFDF7C8BF0C30FDF772
:10DF0000B1BD000040010020F8B51C4C69462068F6
:10DF1000F9F721FD00260127194D2CE0017821B1E8
:10DF200001290ED002291ED116E0416891F8202067
:10DF3000CAB981F82070416810480830FCF7BAFC73
:10DF400011E041686868814201D16E600BE00B48C6
:10DF50000830FCF743FD06E0FFF74AFE10B180F8F9
:10DF60002060F9E72F7069462068F9F7E9FC6946F7
:10DF70002068F9F7F0FC0028D0D1F8BD90EE000041
:10DF8000D0010020F8B50B4C0D46064669462068C6
:10DF9000F9F7CBFC58B10670456069462068F9F77F
:10DFA000E5FC10B10448F7F79FFA0020F8BD042003
:10DFB000F8BD000090EE0000D80100200348806802
:10DFC0004108034800224068F3F702BC900100209A
:10DFD00088EE000070B50C4605464FF48E71FCF7D4
:10DFE00064FD216AA068415C206A401C2062C5F87B
:10DFF0001C1570BD1FB500228DF8002002918168AC
:10E0000001914261D0E90012684690471FBD1FB5DB
:10E0100000228DF800200291816801914261D0E9CF
:10E020000012684690471FBD7CB5FF260546009646
:10E0300000780C46002835D0012819D0022802D0DB
:10E040002CA1652011E0297AE068FCF715FC28B1C5
:10E05000042803D027A13920F5F7A6F82046FFF7BA
:10E0600029FA002803D023A13B20F5F79DF87CBDB9
:10E07000297AE068FCF700FC28B1042803D01DA130
:10E080004120F5F791F8287A20B16068D0E90021A5
:10E09000002090472046FFF70DFA0028E7D015A191
:10E0A0004D20E2E7297A2069FCF762FB18B111A143
:10E0B0005320F5F779F8009601236A4601A92069F3
:10E0C000FCF76AFB18B10BA15620F5F76DF8009824
:10E0D00048B1C2B260690199FAF742FF18B105A1CF
:10E0E0005B20F5F761F86068D0E9002101209047D6
:10E0F0007CBD00002E2E5C2E2E5C2E2E5C2E2E5C07
:10E100002E2E5C2E2E5C636F6D706F6E656E747359
:10E110005C6C69627261726965735C636C695C7581
:10E120006172745C6E72665F636C695F7561727454
:10E130002E6300001FB50A4601788DF80010416873
:10E140000191017A8DF80810C0680390044850F8D6
:10E150002210083850F82220684690471FBD000062
:10E160004C0100200149012008707047F402002092
:10E1700010B588B0044620220F496846F2F767FAC6
:10E1800006200090C01F0190029003904FF0EB70AA
:10E1900006900CB1094A00E0002269460848FAF7E7
:10E1A000ABFE18B1074A1D21F2F7A6F80448001F7C
:10E1B000447008B010BD00007CF3000065E1000071
:10E1C000F8020020600401002DE9FF470C460546D7
:10E1D0004FF40071FCF76FFC01274FF40178002623
:10E1E00018B34FF4927949462846FCF759FCE0B140
:10E1F00049462846FCF759FCC5F8088394F82900DD
:10E2000000B96F6002208DF80000D5F88004C5F8D1
:10E2100080040390A0690290E0680190A661E66125
:10E22000D4E900126846904728E004212846FCF70C
:10E2300042FC18B34FF484712846FCF731FCE8B176
:10E2400021462846FFF7F6F8616AA069884215D191
:10E25000E06938B1E268616AA0612069E6616662DE
:10E26000E06008E094F8290000B96F60C5F8088301
:10E27000A661E268616A2046FFF7F5F84FF48E78F0
:10E2800041462846FCF70CFC80B16069216A814256
:10E2900002D294F8280028B341462846FCF705FC32
:10E2A000606918B161692046FFF7A4FE4FF4A278B7
:10E2B00041462846FCF7F4FB002818D04146284682
:10E2C000FCF7F3FB94F8290000B12F60A069002847
:10E2D0000DD0A661E268616A04B02046BDE8F0474F
:10E2E000FFF7C1B821462846FFF774FEDEE7BDE818
:10E2F000FF8700001FB50A4601788DF800104168BD
:10E300000191017A8DF80810C0680390044850F814
:10E310002210083850F82220684690471FBD0000A0
:10E320004C0100202DE9FF410C464FF49277054641
:10E330003946FCF7C6FB0026B8B139462846FCF73B
:10E34000C5FB02208DF80000D5F88004C5F88004D4
:10E350000390D5F83C050290E0680190A661E66163
:10E36000D4E900126846904723E04FF48877394695
:10E370002846FCF7A6FBE0B139462846FCF7A6FB89
:10E38000D5F83C15A069884213D1E06960B1E26814
:10E39000D5F8000220F02000C5F80002E069A06175
:10E3A0002069E661E06001E0A661E2682046FFF7CF
:10E3B00065F84FF4A27739462846FCF782FB68B12E
:10E3C00039462846FCF782FBA06938B1A661E661B0
:10E3D000D5F83C152046E268FFF750F84FF49076E8
:10E3E00031462846FCF76DFB60B131462846FCF704
:10E3F0006DFB0120E860606920B1D5F84C1520461E
:10E40000FFF705FE4FF4AC7631462846FCF759FB82
:10E4100000280ED031462846FCF758FB60690028DA
:10E4200007D0D5F84C1504B02046BDE8F041FFF701
:10E43000EEBDBDE8FF8100002DE9F05F8346DDE918
:10E440000A4A994690460D460846012703E000BF58
:10E45000B0FBF8F07F1C4045FAD2B94500D94F46D1
:10E460005FEACA7012D18CB15FEA8A7002D5B9F145
:10E47000000F01D0202607E0302605E0314658463F
:10E48000641EF5F71BFA0CB1A742F7D35FF0010643
:10E49000B9F1010F02D9A9F1010903E0B5FBF6F0CA
:10E4A000404502D306FB08F6F2E7DFF83C9000BFD8
:10E4B000B5FBF6F000FB165519F800105846F5F7B5
:10E4C000FDF9B6FBF8F6002EF2D15FEACA7009D06A
:10E4D000002C07D0A74205D220215846641EF5F72C
:10E4E000EDF9F5E7BDE8F09FFCF100000248006897
:10E4F000002800D0012070474802002007490A7810
:10E50000824209D00870052803D0487820F0020024
:10E5100048700348F3F7F2BF704700004002002044
:10E52000E8EE00002DE9FE4F8046486891464FF026
:10E53000010A0C4628B92068F3F790FB08B9A068D7
:10E5400090B1B9F1400F04D937A140F27110F4F73E
:10E550002BFE00260096FEF705FAE768834648463C
:10E560004F4559D9074657E04FF0000AC8F800A0B8
:10E57000C8F804A054E0A068B84201D93D4600E0C4
:10E580000546616839B10BEB06002A46F2F75FF8E1
:10E59000002060600CE058B121680BEB06022B46AE
:10E5A0004868D0F804C004F11000E0470120009052
:10E5B000A068A7EB0507411BA160E0682E44A0EB13
:10E5C0000500E06005D1009818B12068F3F746FB1C
:10E5D0002060E06810B1A068F0B902E04FF0000AD6
:10E5E0001AE0206800284FF0000001D0019009E0F7
:10E5F00060609EB14E4511D24FF0000A0EE0A06857
:10E60000401CA0602168012300224868456801A8D9
:10E61000A8470028F3D12061002FACD1C8E900B68B
:10E620005046BDE8FE8F00002E2E5C2E2E5C2E2E56
:10E630005C2E2E5C2E2E5C2E2E5C636F6D706F6ECA
:10E64000656E74735C6C69627261726965735C7526
:10E650007362645C6170705F757362645F636F7234
:10E66000652E630010B5FEF75BF9002108B1024882
:10E6700001600248C17010BD1C7C0240780100207E
:10E6800070B50446010600F00F0502D5092D09D327
:10E6900001E0092D08D308A140F27520F4F784FDAC
:10E6A000200601D5042000E0282000EB8500BDE80D
:10E6B0007040FCF709BC00002E2E5C2E2E5C2E2E26
:10E6C0005C2E2E5C2E2E5C2E2E5C6D6F64756C6540
:10E6D000735C6E7266785C647269766572735C7383
:10E6E00072635C6E7266785F757362642E6300009D
:10E6F0002DE9F04F594D89B0E87800284BD180467C
:10E700004FF0010943E000BF10F0012F01D000F0ED
:10E71000012090FAA0F0B0FA80F63046F4F774FDCC
:10E720008346F7F71DF80446006820B94CA140F273
:10E730004B50F4F739FD5FEA0B6007D5D4E900319F
:10E74000A28902A89847002836D037E05846FEF73D
:10E75000C7F8D4E9007182460346A28902A8B847E7
:10E7600007460298D0B1039951451DD20220A073EB
:10E7700009FA06F0C14339480C30FCF7B1FB4648B2
:10E78000006B00908DF802B0696868468847D5E94B
:10E7900002100840B8D109B0BDE8F08F039850B11D
:10E7A0002FA140F2675004E0514504D02CA140F263
:10E7B0007650F4F7F9FC0FB9C4F80080FEF7B0F812
:10E7C00010B136498220086085F80390A96809FADB
:10E7D00006F08143A960A06803990844A060DDE9C0
:10E7E00002125846FCF792F9FEF781F818B32C4D47
:10E7F0004FF482742046FCF73DFB5846FFF740FF7C
:10E800000220FCF7E7FF2046FCF72CFB0028F1D0A4
:10E810001E2000E00220FCF7DDFF28688006F9D505
:10E820000120FCF7D7FF5846FDF756FFFCF71AFB0F
:10E830000028DFD0AFE75846FFF722FF4FF480747F
:10E840005846FDF749FFFCF70DFB0028A3D12046F1
:10E85000FCF708FB0028F3D09DE7000078010020BA
:10E860002E2E5C2E2E5C2E2E5C2E2E5C2E2E5C2EE2
:10E870002E5C6D6F64756C65735C6E7266785C643B
:10E880007269766572735C7372635C6E7266785FD0
:10E89000757362642E630000B8ED00001C7C0240BA
:10E8A000747402402DE9F84307460020F4F798FB02
:10E8B0003846F6F755FF0646374D38064FF0000844
:10E8C0004FF003094FF001041FD43846F6F732FF2A
:10E8D000E96804FA00F0884303D03846FEF7FCFAF2
:10E8E00010E03846C6F80080F6F724FFE96804FA1D
:10E8F00000F081433846E960F6F71CFF8440A868C1
:10E90000A043A86086F80E9040E007F00F010829A8
:10E9100016D2224B40F2B472181D802F07D002EBA2
:10E92000410119600168C9B241F0020104E01A60B6
:10E930000168C9B241F0040102680A43026000683C
:10E940003846F6F7F7FED5E9022104FA00F061EA4D
:10E95000020108421AD03846F6F7ECFEE96804FADC
:10E9600000F081433846E960F6F7E4FE8440A86889
:10E970000443AC600A48C6F8008086F80E90006830
:10E9800000908DF80270696868468847BDE8F843D2
:10E990000020F4F753BB000078010020007802400B
:10E9A000B8ED00002DE9F041104EB068040CF0689D
:10E9B00024040443012712E094FAA4F0B0FA80F58D
:10E9C0002846F4F721FC00F00F00082804D228465E
:10E9D000F4F71AFCFFF766FF07FA05F08443002CF2
:10E9E000EAD140F2FF10B060BDE8F081780100206C
:10E9F000F8B5144C05460126A0688E403043A0604F
:10EA0000114F280612D52846FDF766FEFCF73EFAA0
:10EA100038B1802D03D02846FCF7D8F801E0FCF788
:10EA20005BF8E06806420BD1B86903E0E068064293
:10EA300006D1F86900908DF80250616868468847F1
:10EA4000F8BD000078010020B8ED000002498020E8
:10EA5000C1F800027047000004E000E070B52749EB
:10EA6000274E254D891B0322C90802EB01420023D2
:10EA7000204C69880F280AD2DFE800F009080A0E46
:10EA8000090909091A283209090E1400237070BDFA
:10EA90002370F4F74DFA07E02370BDE870400020C2
:10EAA000F4F778BCF3F7C0FBBDE87040F4F7D0BCD6
:10EAB000032903D3104613A1FBF74CF8FEF7DEF849
:10EAC0000028E4D1BDE87040F3F7D8BB032903D395
:10EAD000104611A1FBF73EF8BDE87040F4F706BA06
:10EAE000032903D3104611A1FBF734F8BDE87040A9
:10EAF000F4F7C4B9880000201C040020880B010032
:10EB0000B00A010055534220706F7765722064652A
:10EB1000746563746564000055534220706F7765B7
:10EB2000722072656D6F7665640000005553422057
:10EB30007265616479000000024A1268002A00D000
:10EB400010477047DC0D0020CB69002B01D0114627
:10EB50001847704702494968002900D008477047A4
:10EB6000DC0D002070B50C460546F4F7C9FE002800
:10EB700007D04268002A04D021462846BDE87040EC
:10EB8000104770BD1CB5002913D08268127F8A42DD
:10EB90000FD008A3D3E90023CDE9002301F12F0210
:10EBA0008DF803208268117700696A4603A1FAF79D
:10EBB000F3F91CBD1B5B34006D00000025730000E1
:10EBC0001CB5826899B1D27E8A420FD00CA2D2E9DC
:10EBD0000032CDE9003201F12F028DF80520826864
:10EBE000D17600696A4608A1FAF7D6F91CBDD1763C
:10EBF000006902B0054ABDE8104003A1FAF7CCB99C
:10EC00001B5B313B33006D0025730000ADF100004C
:10EC100000000020900400203F000000D0040020ED
:10EC2000E80400200F000000F804002000000000AD
:10EC30000020004000000000002000400000000014
:10EC4000E8F100001005002010EC000020EC0000AE
:10EC500014EC00002CEC00006000002090F5000097
:10EC600040EC00003C050020900A01002800002034
:10EC7000900B0100640800205CEF0000010001031C
:10EC8000810000005400002001000000010200008B
:10EC9000A400002018ED000020ED00003CEF000073
:10ECA0005567000058000020E40B0100FFFFFFFF44
:10ECB000FFFFFFFFFFFFFFFFFFFFFFFF0000000060
:10ECC000000000000000D601060100000000000066
:10ECD0005DEA00000000000005010902A101090130
:10ECE000A1000509190129021500250175019502E8
:10ECF0008102750695018101050109300931093844
:10ED00001581257F750895038106C0C03400000079
:10ED100022000000D8EC0000AC0000200100000040
:10ED200028080020200000000D0E0F100B0C1819F1
:10ED3000C0000020E8000020100100200B000300AC
:10ED4000993400000C0003009934000018000300FF
:10ED500099340000190003009934000000000000FD
:10ED600064ED0000B0F50000B8F500000000000000
:10ED7000D54B0000B4F50000A0F500000000000035
:10ED80003D4C0000000000000000000000000000FA
:10ED900000000000D0F50000D0F500005CED0000A0
:10EDA00000000000000000000000005000030050C0
:10EDB0004DB8000051BC0000060000030100000037
:10EDC000060000000600000006000000060000002B
:10EDD000060000000600000105000000020000001F
:10EDE000030000000400000006000002F15A0000C9
:10EDF000315A0000F1570000F5570000FB570000A2
:10EE000001580000075800000D580000135800007A
:10EE100019580000555900001F58000025580000DF
:10EE2000855800008B58000091580000975800004A
:10EE30009D580000A3580000A9580000B1580000D8
:10EE4000E9590000355A000071590000FD580000D2
:10EE500008010C011001140118011C0120012401FA
:10EE60002C013001340138013C01400144014801CA
:10EE70004C01500102030405060708090B0C0D0E96
:10EE80000F1011121314000003000000A80100204D
:10EE9000F001002001000600000000000402002034
:10EEA0001B4E0000800000000B810000820000006B
:10EEB00083000000840D0E03030000000B0000001F
:10EEC0000C0000000802002085000000080000007F
:10EED000090000000A0000004D2D000000000000A5
:10EEE00000000000000000000F0000009DD50000A1
:10EEF0000000000025E50000280E0020120100029D
:10EF00000000004015190C52000101020301090222
:10EF10000000000104C03200351F000000000000A6
:10EF2000000000000000000000000000400E002073
:10EF300018EF0000010002030080000001650000DE
:10EF400069650000315F00005F5F0000E963000059
:10EF5000D363000049650000FD6300009D5F000071
:10EF6000DD5F000000000000000000000000000065
:10EF700009660000000000001F660000000000009D
:10EF80000000040309044E6F726469632053656DC9
:10EF900069636F6E647563746F72006E52463532CA
:10EFA00020555342204849442067656E6572696365
:10EFB0002044656D6F0030303030303030303030CC
:10EFC00030300044656661756C7420636F6E6669ED
:10EFD0006775726174696F6E0055736572203100D8
:10EFE0000001020304050000000000000000000012
:10EFF0000338FDD8704700000000000000F000005A
:10F0000080FC00005CFC000000000000F97B0000B8
:10F0100000000000000000000000000000000000F0
:10F0200088FC000090FC0000F8EF0000F97B000075
:10F03000599700003B970000319700000000000046
:10F0400044F0000070FD000058FD000000000000CA
:10F050007581000074FD000040FD0000000000000C
:10F060009F81000000000000000000000000000080
:10F0700000000000000000007CF0000070FD0000B7
:10F0800078FD0000000000006182000074FD0000B7
:10F09000D4FD0000000000008B8200000000000092
:10F0A0000000000000000000000000000000000060
:10F0B000B4F0000040FE000014FE0000000000005C
:10F0C000F57F000048FE0000E8FD000000000000A1
:10F0D000258000000000000000000000000000008B
:10F0E0000000000000000000ECF0000094FE0000B2
:10F0F00074FE00003CF00000AD8000008CFE0000BB
:10F1000050FE000074F00000C98100009CFE000069
:10F1100064FE0000ACF00000897F000000000000E9
:10F1200000000000000000000000000000000000DF
:10F1300034F10000E8FE0000A4FE00000000000022
:10F14000B18400000000000000000000000000008A
:10F150000000000000FF0000F0FE000000000000C2
:10F16000057E00002CFF000008FF0000E4F0000016
:10F17000D97E000044FF000030FF000000000000C6
:10F18000B5820000ECFF00004CFF00002CF10000F5
:10F190008D8300000000000000000000000000005F
:10F1A0001B37001B38002C20001B5B4A001B5B6DCB
:10F1B00000082008001B5B4B00202D20001B5B4833
:10F1C000001B5B366E001B5B324A00000000000033
:10F1D0000338FDD870471B5B3F336C002D682C2033
:10F1E0002D2D68656C70000041490000F549000054
:10F1F000D54800000D4A00008D49000030313233FF
:10F200003435363738394142434445460000000022
:10F2100014F2000080FC0000F8FF00000000000075
:10F22000C5A3000000000000000000000000000076
:10F23000000000001C00010090FC00000CF2000027
:10F24000C5A30000556E6B6E6F776E206572726F8E
:10F250007220636F64650000000000000404010078
:10F2600001000000C402010002000000B80001001B
:10F270000300000038030100040000008C030100BB
:10F28000050000006C0201000600000008020100F9
:10F290000700000074030100080000008002010064
:10F2A00009000000E40201000A000000EC03010074
:10F2B0000B000000A00001000C00000098020100FB
:10F2C0000D0000003C0401000E000000640301007A
:10F2D0000F000000A003010010000000D403010093
:10F2E0001100000050040100800000002002010015
:10F2F000810000005C010100820000001C0101008F
:10F3000083000000FC0001008400000038010100BF
:10F310008500000044020100860000004C0301004B
:10F3200090000000E801010091000000DC000100F5
:10F3300092000000AC02010000820000B403010052
:10F340000182000000030100028200001C03010092
:10F350000084000078010100018400001004010015
:10F3600002840000C0010100038400009C01010030
:10F37000A19800007598000073980000FFFFFFFF40
:10F38000FFFFFFFFFFFFFFFFFFFFFFFF0000000089
:10F39000000000000000D60106010000010000008E
:10F3A0005978000000000000C0F300004C0F00205E
:10F3B0007F000000CC0F002001000000CDDB00002A
:10F3C00004060100900501009CF30000656E00003A
:10F3D000FC0501000C050100B8F30000656E00009B
:10F3E0002C0601000C06010000000000716E0000F8
:10F3F000400601001C060100000000007D6E0000B8
:10F4000080FC00003006010000000000896E000052
:10F4100000000000000000000000000000000000EC
:10F4200001000000C13100000000000030F40000C5
:10F43000B00601004806010000000000B96F00009E
:10F44000B80601007C06010000000000F56F000016
:10F4500000000000000000000000000000000000AC
:10F460000000000068F40000F4060100C00601007E
:10F4700020F4000000000000FC0601000407010069
:10F4800028F40000000000000406010090050100BF
:10F490009CF300000D720000FC0501000C0501004A
:10F4A000B8F300000D7200002C0601000C060100EC
:10F4B000000000001D720000400601001C06010053
:10F4C000000000002772000020070100DC06010098
:10F4D00000000000F16E000080FC0000300601001A
:10F4E0000000000031720000000000000000000079
:10F4F0000000000000000000300701003407010098
:10F5000060F40000956E00000040404040404040E4
:10F5100040404141414141404040404040404040E6
:10F52000404040404040404040050202020202028A
:10F5300002020202020202020220202020202020D9
:10F5400020202002020202020202909090909090ED
:10F5500010101010101010101010101010101010AB
:10F56000101010100202020202028888888888881F
:10F57000080808080808080808080808080808080B
:10F5800008080808020202024000000009F5000015
:10F59000756172745F636C693A7E2420000000001C
:10F5A000425350206576656E742069640000000047
:10F5B00062746E00657674004253502062757474F4
:10F5C0006F6E206576656E74206B657900000000B3
:10F5D000627370002E2E5C2E2E5C2E2E5C2E2E5C06
:10F5E0002E2E5C2E2E5C636F6D706F6E656E747365
:10F5F0005C6C69627261726965735C757362645C8C
:10F600006170705F757362645F636C6173735F6276
:10F610006173652E680000002E2E5C2E2E5C2E2E4F
:10F620005C2E2E5C2E2E5C2E2E5C636F6D706F6ECA
:10F63000656E74735C6C69627261726965735C7526
:10F640007362645C636C6173735C6869645C617051
:10F65000705F757362645F6869642E630000000008
:10F660002E2E5C2E2E5C2E2E5C2E2E5C2E2E5C2ED4
:10F670002E5C636F6D706F6E656E74735C6C696227
:10F680007261726965735C757362645C636C6173EB
:10F69000735C6869645C67656E657269635C617000
:10F6A000705F757362645F6869645F67656E6572D9
:10F6B00069632E63000000002E2E5C2E2E5C2E2E21
:10F6C0005C2E2E5C2E2E5C2E2E5C636F6D706F6E2A
:10F6D000656E74735C6C69627261726965735C7586
:10F6E0007362645C636C6173735C6869645C6170B1
:10F6F000705F757362645F6869642E680000000063
:10F700002E2E5C2E2E5C2E2E5C2E2E5C2E2E5C2E33
:10F710002E5C636F6D706F6E656E74735C6C696286
:10F720007261726965735C757362645C6170705F4D
:10F73000757362645F737472696E675F6465736327
:10F740002E630000446174612062757320657272DB
:10F750006F72202872657475726E206164647265C0
:10F76000737320696E2074686520737461636B2005
:10F770006672616D65206973206E6F742072656CAE
:10F780006174656420746F2074686520696E737499
:10F7900072756374696F6E2074686174206361753B
:10F7A00073656420746865206572726F7229000049
:10F7B0004461746120627573206572726F722028D3
:10F7C00050432076616C756520737461636B65646A
:10F7D00020666F722074686520657863657074694F
:10F7E0006F6E2072657475726E20706F696E7473BF
:10F7F00020746F2074686520696E73747275637409
:10F80000696F6E207468617420636175736564202C
:10F81000746865206661756C7429000043617573B6
:10F82000653A204275734661756C74206F6E206175
:10F8300020766563746F72207461626C65207265F6
:10F84000616420647572696E6720657863657074A1
:10F85000696F6E2070726F63657373696E672E00D7
:10F860005468652070726F636573736F722068618E
:10F870007320657865637574656420616E205344F8
:10F880004956206F72205544495620696E73747230
:10F89000756374696F6E207769746820612064698C
:10F8A0007669736F72206F6620300000546865209F
:10F8B00070726F636573736F722068617320617417
:10F8C00074656D7074656420746F20657865637508
:10F8D000746520616E20696E737472756374696FEC
:10F8E0006E2074686174206D616B657320696C6C47
:10F8F0006567616C20757365206F6620746865208C
:10F9000045505352000000005468652070726F63C8
:10F910006573736F722068617320617474656D70B4
:10F9200074656420616E20696C6C6567616C206C25
:10F930006F6164206F66204558435F5245545552AD
:10F940004E20746F207468652050432C2061732012
:10F950006120726573756C74206F6620616E20691A
:10F960006E76616C696420636F6E746578742C20A8
:10F970006F7220616E20696E76616C6964204558F3
:10F98000435F52455455524E2076616C75650000B8
:10F990005468652070726F636573736F7220617451
:10F9A00074656D707465642061206C6F6164206F94
:10F9B000722073746F72652061742061206C6F63B4
:10F9C0006174696F6E207468617420646F65732060
:10F9D0006E6F74207065726D697420746865206F35
:10F9E0007065726174696F6E0000000041204D65A2
:10F9F0006D4D616E616765206661756C74206F6323
:10FA000063757272656420647572696E6720666CD6
:10FA10006F6174696E672D706F696E74206C617AA6
:10FA20007920737461746520707265736572766194
:10FA300074696F6E0000000041206275732066617A
:10FA4000756C74206F63637572726564206475727F
:10FA5000696E6720666C6F6174696E672D706F697F
:10FA60006E74206C617A7920737461746520707291
:10FA700065736572766174696F6E00005468652005
:10FA800070726F636573736F722068617320617445
:10FA900074656D7074656420746F20657865637536
:10FAA000746520616E20756E646566696E6564209C
:10FAB000696E737472756374696F6E00496E7374E6
:10FAC00072756374696F6E20627573206572726FF0
:10FAD000720000005468652070726F636573736F05
:10FAE000722068617320617474656D707465642040
:10FAF000746F20616363657373206120636F70723C
:10FB00006F636573736F7200556E737461636B20FE
:10FB1000666F7220616E20657863657074696F6EC0
:10FB20002072657475726E206861732063617573ED
:10FB30006564206F6E65206F72206D6F7265206145
:10FB400063636573732076696F6C6174696F6E733C
:10FB500000000000537461636B696E6720666F720A
:10FB600020616E20657863657074696F6E20656EC4
:10FB70007472792068617320636175736564206FA6
:10FB80006E65206F72206D6F7265206163636573AF
:10FB9000732076696F6C6174696F6E73000000008A
:10FBA0005468652070726F636573736F722068614B
:10FBB00073206D61646520616E20756E616C69678C
:10FBC0006E6564206D656D6F727920616363657326
:10FBD00073000000556E737461636B20666F722052
:10FBE000616E20657863657074696F6E20726574EC
:10FBF00075726E2068617320636175736564206F30
:10FC00006E65206F72206D6F72652042757346615C
:10FC1000756C747300000000537461636B696E67E8
:10FC200020666F7220616E20657863657074696FFD
:10FC30006E20656E747279206861732063617573DC
:10FC40006564206F6E65206F72206D6F7265204253
:10FC500075734661756C7473000000005072696EB4
:10FC60007420737461747573206F662062616C6CAC
:10FC70006F6320696E7374616E6365732E0000009C
:10FC8000737461747573000062616C6C6F63000063
:10FC9000436F6D6D616E647320666F722042414CDC
:10FCA0004C4F43206D616E6167656D656E74000039
:10FCB00025730D0A092D20456C656D656E742073E2
:10FCC000697A653A092564202B20256420627974BD
:10FCD0006573206F6620646562756720696E666F64
:10FCE000726D6174696F6E0D0A092D20557361671D
:10FCF000653A092575252520282575206F757420FE
:10FD00006F6620257520656C656D656E7473290DB1
:10FD10000A092D204D6178696D756D3A09257525A3
:10FD20002520282575206F7574206F662025752085
:10FD3000656C656D656E7473290D0A0D0A0000000F
:10FD4000456E61626C6520636F6C6F7265642073D1
:10FD5000796E7461782E000044697361626C65206D
:10FD6000636F6C6F7265642073796E7461782E00B6
:10FD70006F6666006F6E000044697361626C652097
:10FD8000434C49206563686F2E204172726F777310
:10FD900020616E6420627574746F6E733A204261E4
:10FDA000636B73706163652C2044656C6574652CAE
:10FDB00020456E642C20486F6D652C20496E73655C
:10FDC000727420617265206E6F742068616E646C5D
:10FDD00065642E00456E61626C6520434C49206568
:10FDE00063686F2E0000000047657420434C492073
:10FDF0007374617469737469637320666F722074BD
:10FE00006865204C6F67676572206D6F64756C65FF
:10FE10002E000000526573657420434C49207374B2
:10FE2000617469737469637320666F7220746865A6
:10FE3000204C6F67676572206D6F64756C652E006E
:10FE4000726573657400000073686F7700000000CE
:10FE5000546F67676C6520434C49206563686F2E5B
:10FE600000000000434C4920737461746973746925
:10FE700063732E00546F67676C6520636F6C6F72DD
:10FE800065642073796E7461782E00006563686F15
:10FE900000000000636F6C6F727300007374617414
:10FEA00073000000417373756D65203830206368FE
:10FEB0006172732073637265656E2077696474681C
:10FEC00020616E642073656E6420746869732073AA
:10FED000657474696E6720746F207468652074653A
:10FEE000726D696E616C2E0064656661756C74007C
:10FEF000436C6561722073637265656E2E0000004D
:10FF0000636C65617200000055736566756C2C202A
:10FF10006E6F7420556E69782D6C696B6520434C4B
:10FF20004920636F6D6D616E64732E00636C6900B0
:10FF3000436F6D6D616E6420686973746F72792EA2
:10FF400000000000686973746F727900436F6E730C
:10FF50006F6C652067657473207465726D696E617E
:10FF60006C2073637265656E2073697A65206F72A9
:10FF700020617373756D657320383020696E20635E
:10FF80006173652074686520726561646F757420A3
:10FF90006661696C732E204974206D7573742062DC
:10FFA0006520657865637574656420616674657243
:10FFB0002065616368207465726D696E616C20777D
:10FFC00069647468206368616E676520746F20657A
:10FFD0006E7375726520636F7272656374207465E9
:10FFE000787420646973706C61792E00726573692E
:10FFF0007A650000202000005072696E74207374CE
:020000040001F9
:1000000061747573206F6620717565756520696E02
:100010007374616E6365732E000000007175657501
:100020006500000025730D0A092D20456C656D657E
:100030006E742073697A653A0925640D0A092D20CA
:1000400055736167653A0925752525202825752092
:100050006F7574206F6620257520656C656D656E03
:100060007473290D0A092D204D6178696D756D3AFB
:10007000092575252520282575206F7574206F6644
:1000800020257520656C656D656E7473290D0A09F0
:100090002D204D6F64653A090925730D0A0D0A007C
:1000A0004E52465F4552524F525F494E56414C495F
:1000B000445F4441544100004E52465F4552524F06
:1000C000525F534F46544445564943455F4E4F5443
:1000D0005F454E41424C4544000000004E52465F91
:1000E0004552524F525F464541545552455F4E4F1F
:1000F000545F454E41424C45440000004E52465F1D
:100100004552524F525F4D555445585F554E4C4FD6
:10011000434B5F4641494C45440000004E52465F08
:100120004552524F525F4D555445585F4C4F434BCB
:100130005F4641494C4544004E52465F4552524F3E
:10014000525F4D555445585F434F4E445F494E49A9
:10015000545F4641494C4544000000004E52465F02
:100160004552524F525F4D555445585F494E495480
:100170005F4641494C4544004E52465F4552524FFE
:10018000525F424C455F495053505F52585F504B4D
:10019000545F5452554E4341544544004E52465FBD
:1001A0004552524F525F424C455F495053505F5049
:1001B0004545525F52454A454354454400000000BE
:1001C0004E52465F4552524F525F424C455F495036
:1001D00053505F4C494E4B5F444953434F4E4E453D
:1001E00043544544000000004E52465F4552524F72
:1001F000525F4150495F4E4F545F494D504C454D01
:10020000454E5445440000004E52465F4552524F01
:10021000525F4E4F545F535550504F525445440017
:100220004E52465F4552524F525F4D4F44554C45DA
:100230005F4E4F545F494E495449414C495A4544D9
:10024000000000004E52465F4552524F525F4D4FE4
:1002500044554C455F414C52454144595F494E49D4
:100260005449414C495A4544000000004E52465FF3
:100270004552524F525F4E4F545F464F554E4400C9
:100280004E52465F4552524F525F494E56414C497D
:10029000445F5354415445004E52465F4552524FBD
:1002A000525F444154415F53495A45004E52465FA4
:1002B0004552524F525F494F5F50454E44494E4759
:1002C000000000004E52465F4552524F525F535657
:1002D000435F48414E444C45525F4D495353494E4C
:1002E000470000004E52465F4552524F525F494E02
:1002F00056414C49445F4C454E475448000000006D
:100300004E52465F4552524F525F4452565F5457C9
:10031000495F4552525F414E41434B004E52465F4A
:100320004552524F525F4452565F5457495F4552AF
:10033000525F444E41434B004E52465F4552524F2E
:10034000525F494E5445524E414C00004E52465F5A
:100350004552524F525F53544F524147455F4655A5
:100360004C4C00004E52465F4552524F525F4E5524
:100370004C4C00004E52465F4552524F525F494E20
:1003800056414C49445F504152414D004E52465FE8
:100390004552524F525F4E4F5F4D454D0000000099
:1003A0004E52465F4552524F525F464F5242494469
:1003B00044454E004E52465F4552524F525F4452A2
:1003C000565F5457495F4552525F4F5645525255FA
:1003D0004E0000004E52465F4552524F525F494E0A
:1003E00056414C49445F4144445200004E52465FDE
:1003F0004552524F525F494E56414C49445F464C1C
:10040000414753004E52465F5355434345535300B3
:100410004E52465F4552524F525F424C455F4950E3
:1004200053505F4348414E4E454C5F414C5245410D
:1004300044595F4558495354530000004E52465F9B
:100440004552524F525F54494D454F55540000009C
:100450004E52465F4552524F525F4255535900002B
:100460002E2E5C2E2E5C2E2E5C2E2E5C2E2E5C2EC6
:100470002E5C636F6D706F6E656E74735C6C696219
:100480007261726965735C6C6F675C7372635C6EDA
:1004900072665F6C6F675F6261636B656E645F75E8
:1004A0006172742E630000002E2E5C2E2E5C2E2EA8
:1004B0005C2E2E5C2E2E5C2E2E5C636F6D706F6E2C
:1004C000656E74735C6C69627261726965735C6C91
:1004D0006F675C7372635C6E72665F6C6F675F669A
:1004E000726F6E74656E642E630000006E6F6E65D1
:1004F000000000007761726E696E67006465627566
:1005000067000000696E666F00000000276C6F676F
:1005100020656E61626C65203C6C6576656C3E2082
:100520003C6D6F64756C655F303E202E2E2E202052
:100530003C6D6F64756C655F6E3E2720656E616211
:100540006C6573206C6F677320757020746F206703
:100550006976656E206C6576656C20696E207370B7
:1005600065636966696564206D6F64756C65732089
:1005700028616C6C206966206E6F206D6F64756CED
:10058000657320737065636966696564292E000070
:10059000276C6F672064697361626C65203C6D6FC6
:1005A00064756C655F303E202E2E203C6D6F647547
:1005B0006C655F6E3E272064697361626C657320B1
:1005C0006C6F677320696E20737065636966696517
:1005D00064206D6F64756C65732028616C6C206994
:1005E00066206E6F206D6F64756C65732073706527
:1005F000636966696564292E00000000656E6162AA
:100600006C65000064697361626C650052657375A6
:100610006D65206C6F6767696E67000048616C7478
:10062000206C6F6767696E6700000000676F0000ED
:100630004C6F676765722073746174757300000096
:1006400068616C74000000004C6F616420636F6E21
:1006500066696775726174696F6E2073746F726515
:100660006420696E206E6F6E2D766F6C6174696C9C
:1006700065206D656D6F72792E00000053746F7286
:10068000652063757272656E7420636F6E6669674C
:1006900075726174696F6E20696E206E6F6E2D7653
:1006A0006F6C6174696C65206D656D6F72792E0079
:1006B0006C6F61640000000073746F72650000006D
:1006C0004C6F67676572206261636B656E6473204F
:1006D000636F6D6D616E64732E0000004C697374FE
:1006E00073206C6F67676572206261636B656E640F
:1006F000732E00006261636B656E6400636F6E66EB
:10070000696700004D616E616765206C6F676765A2
:100710007220636F6E66696775726174696F6E00CF
:100720006C6973745F6261636B656E647300000073
:100730006C6F6700436F6D6D616E647320666F72DE
:1007400020636F6E74726F6C6C696E67206C6F677C
:10075000676572001B5B313B33306D001B5B306D96
:10076000000000001B5B313B33316D001B5B313BF4
:1007700033326D001B5B313B33336D001B5B313B10
:1007800033346D001B5B313B33356D001B5B313BFC
:1007900033366D001B5B313B33376D006170705F2A
:1007A00074696D65722E6D5F636C695F75617274DB
:1007B0005F7472616E73706F72745F74696D65726D
:1007C0000000000071756575652E6D5F636C695F73
:1007D000756172745F6C6F675F6261636B656E6495
:1007E0005F7175657565000062616C6C6F632E6D7D
:1007F0005F636C695F756172745F636D645F686984
:1008000073745F6D656D6F626A0000007175657568
:10081000652E6D5F6170705F6869645F67656E65A6
:100820007269635F71756575650000006170705F66
:1008300074696D65722E6D5F6D6F7573655F6D6F39
:1008400076655F74696D6572000000006D5F636CB2
:10085000695F756172745F6C6F675F6261636B651E
:100860006E645F7175657565000000006D5F617095
:10087000705F6869645F67656E657269635F7175F3
:10088000657565006D5F636C695F756172745F6C3F
:100890006F675F6261636B656E6400006D5F636CC0
:1008A000695F756172745F636D645F686973745FBB
:1008B0006D656D6F626A00006170705F74696D656F
:1008C000722E6D5F6273705F6C6564735F746D72BE
:1008D000000000006170705F74696D65722E6D5F5D
:1008E0006273705F616C6572745F746D720000009A
:1008F0006170705F74696D65722E6D5F6273705F99
:10090000627574746F6E5F746D720000636C6F63F8
:100910006B000000434C4F434B0000004750494FD1
:1009200054450000505253005541525400000000FD
:100930005541525445000000555342440000000008
:100940006170705F627574746F6E00006170705FCB
:1009500074696D65722E6D5F646574656374696F2B
:100960006E5F64656C61795F74696D65725F6964FF
:10097000000000006170705F74696D6572000000B6
:1009800061746669666F2E6D5F7265715F66696618
:100990006F0000006170705F75736264000000009A
:1009A00061746669666F2E6D5F6576656E745F71E2
:1009B00075657565000000006170705F7573626435
:1009C0005F636F7265000000686172646661756CD8
:1009D00074000000636C695F756172740000000050
:1009E0007077725F6D676D7400000000736F7274D2
:1009F0006C69737400000000756172745F6C6F67DE
:100A00005F6261636B656E640000000062616C6C24
:100A10006F632E6C6F675F6D656D706F6F6C00003C
:100A2000617070006C6F675F6D656D706F6F6C00EB
:100A3000000C01000000002090040000840C000065
:100A4000E00C010090040020782F000064140000E6
:100A50000000000094ED00000000000020F0000005
:100A60000000000054F100000000000064F10000EC
:100A70000000000074F100000000000084F100009C
:100A80000000000034F2000000000000F8F4000054
:100A900030F0000040000020840801004C000020DD
:100AA00070F3000000000000F80901000C030020B2
:100AB0009C07010000000003C407010000000003C0
:100AC000E8070100000000030C080100000000031B
:100AD0002C08010000000003B8080100000000031A
:100AE000D408010000000003F0080100000000032A
:100AF0000C090100000000001409010000000000C2
:100B00001C09010000000000240901000000000091
:100B10002809010000000000300901000000000069
:100B20003809010000000000400901000000000039
:100B30004C090100000000037409010000000000DE
:100B4000800901000000000394090100000000007A
:100B5000A009010000000003B80901000000000026
:100B6000C809010000000303D409010000000000CF
:100B7000E009010000000000EC0901000000000095
:100B80000C0A010000000003200A0100000003031A
:100B90009C000020940000209C000020A80600205B
:100BA000B80300209C08010030000000440300202E
:100BB0003C030020440300208C0E00201804002079
:100BC000240A0100180000009C060020880600206E
:100BD0000400000004000000010000004C080100B7
:100BE000B40300205808002048080020010000003D
:100BF00008000000000000006C080100BC03002099
:100C0000011C13B0038220135C06B32017235CEC95
:100C100023B18AD4C80B0132FF230CEDC91601168B
:100C20009AC06001540A25C4600A25C8280A5DCC10
:100C3000B001380A12F09815100140110221040A7F
:100C400016F8D40A2004EC032205282380EF1A8624
:100C5000041A9B041AB6041AC3041AD904011023F7
:100C60007CFA6390F92308FB1A54045AEC10411AD9
:100C7000BC2023B0F71A44041AD41C2318FC1A38D9
:100C800014A9401BACF83C19349AD418811AA0342A
:100C90001A6020B3F4FF1220BA400831291F14EC67
:100CA00004011ACC441AF408140405011AFC08299A
:100CB00004291429102920291C011CE940145C076F
:100CC000011A54041A64041A6C041A74041A7C0479
:100CD0001A84041A8C041A94041104FF90D003118E
:0400000500000201F4
:00000001FF
