:020000040000FA
:1000000060280020C1030000C9030000CB030000EA
:10001000CD030000CF030000D1030000000000006A
:10002000000000000000000000000000D3030000FA
:10003000D503000000000000D7030000D903000032
:10004000DB030000DB03000099090000DB03000074
:10005000DB030000DB03000009050000DB030000F8
:10006000DB030000DB030000DB030000DB03000018
:10007000DB030000DB030000DB030000DB03000008
:10008000DB0300006D060000DB030000DB03000063
:10009000DB030000DB030000DB030000DB030000E8
:1000A000DB030000DB030000DB030000DB030000D8
:1000B000DB030000DB030000000000000000000084
:1000C000DB030000DB030000DB030000DB030000B8
:1000D000DB030000DB030000DB0300000000000086
:1000E0000000000000000000000000000000000010
:1000F0000000000000000000000000000000000000
:1001000000000000000000000000000000000000EF
:1001100000000000000000000000000000000000DF
:1001200000000000000000000000000000000000CF
:1001300000000000000000000000000000000000BF
:1001400000000000000000000000000000000000AF
:10015000000000000000000000000000000000009F
:10016000000000000000000000000000000000008F
:10017000000000000000000000000000000000007F
:10018000000000000000000000000000000000006F
:10019000000000000000000000000000000000005F
:1001A000000000000000000000000000000000004F
:1001B000000000000000000000000000000000003F
:1001C000000000000000000000000000000000002F
:1001D000000000000000000000000000000000001F
:1001E000000000000000000000000000000000000F
:1001F00000000000000000000000000000000000FF
:10020000DFF80CD000F06EF900480047A519000097
:100210006028002030B450E8012F93B2C4892344F1
:100220008489A34228BF1B1B0489A34202BFBFF3DA
:100230002F8F002007E0C3EA020340E80134002CBE
:10024000E9D14FF001000A6030BC704750E8012F3F
:10025000C2EA024240E801210029F7D1704730B4D8
:1002600050E8022F1FFAA2F3C488A34202BFBFF3D3
:100270002F8F00200DE0C48923448489A34228BF26
:100280001B1BC2EA034340E80234002CE8D14FF0C4
:1002900001000A6030BC704750E8022FC2EA2242D7
:1002A00040E802210029F7D17047034653E8022FA6
:1002B000D988B2EB324F4FF0000017BF92B241EA3B
:1002C000014142EA014104E05A68B2EB324F08BFF3
:1002D000012043E80212002AE8D1704730B40446F6
:1002E00054E8000F0D4644E80053002BF8D1156088
:1002F00030BC704730B4044654E8000F40EA0105B2
:1003000044E80053002BF7D1156030BC704730B47F
:10031000044654E8000F00EA010544E80053002BAE
:10032000F7D1156030BC704730B4044654E8000F74
:1003300080EA010544E80053002BF7D1156030BC7A
:10034000704730B4044654E8000F00EB010544E860
:100350000053002BF7D1156030BC704730B4044611
:1003600054E8000FA0EB010544E80053002BF7D13F
:10037000156030BC704770B404464FF0000054E87C
:10038000006F0D68AE4207BF44E80023012044E837
:1003900000630E60002B1CBF0020F0E770BC7047AC
:1003A00030B4044654E8000F88422CBF451A054675
:1003B00044E80053002BF5D1156030BC70470000B5
:1003C0000648804706480047FEE7FEE7FEE7FEE7EF
:1003D000FEE7FEE7FEE7FEE7FEE7FEE77D0600003C
:1003E000010200002DE9F05F0546002092469B4681
:1003F00088460646814640241BE02846414647463B
:10040000224600F05EF853465A46C01A914110D376
:1004100011461846224600F016F82D1A67EB01081F
:100420004F4622460120002100F00DF817EB00098D
:100430004E41201EA4F10104DFDC484631462A4625
:100440004346BDE8F09F202A04DB203A00FA02F17F
:10045000002070479140C2F1200320FA03F31943B2
:100460009040704700487047F43A000040EA0103AA
:100470009B0703D009E008C9121F08C0042AFAD25A
:1004800003E011F8013B00F8013B521EF9D270471E
:10049000D2B201E000F8012B491EFBD270470022C6
:1004A000F6E710B513460A4604461946FFF7F0FF73
:1004B000204610BD421C10F8011B0029FBD1801AF8
:1004C0007047202A04DB203A21FA02F0002170470D
:1004D00021FA02F3D040C2F12002914008431946AC
:1004E00070470000064C074D06E0E06840F001034D
:1004F00094E8070098471034AC42F6D3FFF784FE27
:10050000B83B0000D83B00002DE9F04700268AB038
:10051000DFF85091B0464FF48075012437460696B7
:10052000284601F0DDFD38B1D9F80403204203D09C
:10053000284601F0CBFD26432D1D64007F1CADB283
:10054000082FEDD34FF4BE74204601F0C9FD48B129
:10055000204601F0BBFD46F0004606AA012100201E
:1005600001F0A0FD404D16F0FF0F15D0012700242B
:1005700037420DD009EB8401D1F81005D1F81015E0
:10058000C0F3042055F82420C1F3014102B1904783
:100590007F00641C082CEBD3002E5FDA4FF0FF3095
:1005A000CDF8108054E0281910F8507F90F9000021
:1005B00027F0C008401C3BD007A9404601F089FB4A
:1005C00010B34FEA9719404600F084FE55F82070AA
:1005D0001FB1B9F1030F03D006E0B9F1030F27D122
:1005E00004A9404601F07DFB4FF0A04101EB8800DB
:1005F000D0F8000706A9C0F3014A404601F069FBA4
:1006000018B1BAF1020F03D012E0BAF1030F0FD103
:10061000B9F1030F08D1BAF1020F1DD002214046F3
:1006200001F024FD761CF6B217B149464046B847A2
:10063000641C042CB7D3002E10D06A460121002080
:1006400001F030FD06990098884207D00690049882
:10065000002634460790A6E70321E0E70AB0BDE88C
:10066000F087000000600040580100200249024865
:10067000091F0968006808476C000020F0B5B548FC
:100680000023021D0178101D01254FF0805406291A
:100690000BD11678360708D10678C6F30316032E59
:1006A00006D0042E04D0052E02D0062907D00EE075
:1006B000B4F82463A84FC6F304263E6002E016781F
:1006C000360704D10678C6F30316032E02D0062996
:1006D00004D00FE0A24FA14E7E670EE016783607D9
:1006E00008D10678C6F30316032E06D0042E04D0D4
:1006F000052E02D0062907D00EE0D4F84462994FA7
:10070000C6F342363E6002E01678360704D106781A
:10071000C6F30316032E02D0062906D011E0924E2E
:10072000376827F0807737600EE01678360708D1F3
:100730000678C6F30316032E06D0042E04D0052E29
:1007400002D006290AD011E04FF08046C6F80C31DD
:10075000C6F81031834E361F336002E01678360734
:1007600004D10678C6F30316032E02D0062905D05D
:100770000CE07C4F032664373E600AE016783607AB
:1007800004D10678C6F30316032E02D006290DD035
:1007900014E0764F05263E60744E78363560734E11
:1007A000083633603F263F1D3E6002E0167836076C
:1007B00004D10678C6F30316052E02D0062957D0B9
:1007C00062E06B4E36686B4F3E60694E361D366890
:1007D0003F1D3E60664E083636683F1D3E60644EE3
:1007E0000C3636683F1D3E60614E103636683F1D40
:1007F0003E605F4E143636683F1D3E605C4E1836D4
:1008000036685C4F20373E60594E1C3636683F1DB7
:100810003E60574E203636683F1D3E60544E2436AB
:1008200036683F1D3E60524E283636683F1D3E609A
:100830004F4E2C3636683F1D3E604D4E3036366882
:100840004C4F40373E604A4E343636683F1D3E605E
:10085000474E383636683F1D3E60454E3C3636685A
:100860003F1D3E60424E403636683F1D3E6002E00E
:100870001678360708D10678C6F30316032E06D07D
:10088000042E04D0052E02D0062907D019E0D4F892
:100890005812394A01F04F01116002E0117809073E
:1008A0000FD10078C0F30310032803D0042801D02F
:1008B000052806D131480168C90702D06FF001014F
:1008C0000160D4F83001062808D1D4F83401062894
:1008D00004D12B48016841F48061016022487438DA
:1008E000016841F470010160BFF34F8FBFF36F8F58
:1008F0004FF01021D1F80002002803DBD1F80402E8
:10090000002822DA1F4A15601F480468002CFCD01A
:100910001524C1F800420568002DFCD0C1F804423E
:1009200001680029FCD0136001680029FCD0BFF3E6
:100930004F8F0D48F0380168144A01F4E06111430B
:100940000160BFF34F8F00BFFDE7124910480860F8
:10095000F0BD0000E00F00F0403501400DF0ADBAF1
:1009600000C007403C050040FCED00E01056004090
:100970000404001020C50040E40E004000040040C4
:100980003C17004004E5014000E401400400FA0582
:100990000090D003E40000200148006800470000F8
:1009A0002000002002E008C8121F08C1002AFAD166
:1009B00070477047002001E001C1121F002AFBD1DF
:1009C0007047022000F0C6B970B50024064D06E05D
:1009D0006868012110F8340001F05CFF641C28787D
:1009E0008442F5D3002070BD28000020F8B51646DB
:1009F0000C4605460A2A01D20720F8BD02F044F849
:100A000018B902F00BF80028F7D1134F1021134842
:100A10007D603C70BE60FFF742FD0020C7E9040026
:100A20000F4E0DE005EBC4003168009181788DF820
:100A3000011000780B4A694601F07EFF0028DCD1E6
:100A4000641EE4B2EED2BDE8F84005480021064A33
:100A5000001D00F05FB800002800002028020020E0
:100A6000043A0000291700003113000072B601F0AB
:100A7000CFFD00BF01F01AFC0028FBD1114812493C
:100A8000401AC408012000EB044010A101F026FD2B
:100A900011480068C00700D000BE022000EB0440EF
:100AA0000EA101F01BFDBFF34F8F0B48E438016826
:100AB0000E4A01F4E06111430160BFF34F8F00BFA4
:100AC000FDE70000203C0000E83B00004661746147
:100AD0006C206572726F7200F0ED00E053797374F0
:100AE000656D207265736574000000000400FA05EE
:100AF0000EB500210091CDE901106A4644F20100D3
:100B0000FFF7B4FF0EBD0000014800F078BC000004
:100B1000480000203AB100680129426100D000215C
:100B200001610020704707207047000038B5114868
:100B300008235822416800910F49006801F01CF811
:100B4000002815D10D4A69460D4800F05DFC0400EF
:100B50000ED101210A4800F0CEFC0123094A1946B2
:100B6000074800F024FC0649012008390870204697
:100B700038BD00000C3A000048020020C1310000DE
:100B800048000020FFFF7F0070B50446007F0D463F
:100B900008B1002070BDA26100F0ACFD401941F128
:100BA0000001C4E90201206900B125612146BDE8C8
:100BB0007040002002F0CCBC0146002008770120E4
:100BC00002F0C6BC00F002B800F008B872B60248E5
:100BD0000168491C016070476400002003490868EF
:100BE000401E086000D162B670470000640000201B
:100BF0002DE9F041064608680C46411C4FF0A0471D
:100C00004FF0010506D005FA00F1C7F80815206875
:100C100001F018FA6068411C02D0002101F000FACE
:100C20003168A069C1F82405607D227D31681043D8
:100C3000C1F86C05D4E900123068C0F81425C0F87A
:100C40000C15207D012815D1A068411C02D000217F
:100C500001F0E6F9E068411C05D08540C7F8085569
:100C6000E06801F0EFF9D4E902123068C0F8082515
:100C7000C0F81015BDE8F0812DE9F041064608687E
:100C80000C46411C4FF0A0474FF0010506D005FA75
:100C900000F1C7F80815206801F0DEF96068411C12
:100CA00002D0002101F0C5F93168A069C1F824051E
:100CB000607D217D32680843C2F86C05D4E90012DA
:100CC0003068C0F80C15C0F81425207D012815D116
:100CD000A068411C02D0002101F0ABF9E068411C82
:100CE00005D08540C7F80855E06801F0B5F9D4E9AA
:100CF00002123068C0F80825C0F81015BDE8F08170
:100D00002DE9FC410646C0074FF000050ED0104FFC
:100D100000240122385D009500231146019501F061
:100D200025F9641C042CF4D300F046F8B0070DD567
:100D3000074E0024361D0022305D03230095114626
:100D4000019501F013F9641C042CF4D3BDE8FC8177
:100D5000C439000007490B5C4FF0A041D1F80425CD
:100D60000120984020EA0203C1F808351040C1F87C
:100D70000C057047C43900000249085C012101F0EC
:100D800086B90000C43900000249085C002101F066
:100D90007EB90000C43900000649095C4FF0A0404C
:100DA000D0F80405C84010F0010000D0012080F008
:100DB00001007047C439000010B500242046FFF739
:100DC000DBFF641C042CF9D310BD10B500242046B1
:100DD000FFF7DAFF641C042CF9D310BD10B50246EE
:100DE000064B4FF0FF3000215C5C944201D1084675
:100DF00010BD491C0429F7D310BD0000C8390000FC
:100E00002DE9F0470D468146FFF7E8FF0446042828
:100E100036D2DFF874801B481C4EA8F10C0725B3AE
:100E2000012D0ED0022D2BD104EB44003044457827
:100E3000002D25D0B968002922D02846BDE8F0470A
:100E4000084704EB4401755C0E44717849B10E4AC1
:100E50004FF48041093A8068FFF796FE08B987F899
:100E60000390B17808F80410E2E78068FFF7A4FE69
:100E700004EB4401314418F804008D78A842D7D01F
:100E8000BDE8F087CC3900001000002028010020C8
:100E900070B50023042810D20D4D00EB4004012A48
:100EA00002D101290CD00022094E00EB4000304451
:100EB00061B1012906D0022906D00723184670BD6A
:100EC0000E30C2B22A55F9E74270F7E78270F5E7B3
:100ED00028010020044A014600201279D20702D0DE
:100EE000084600F04DB870470400002070B5064673
:100EF0001E480024C0E90161B00720D50025012269
:100F000011462846FFF7C4FF6D1C0446042D02D28B
:100F1000002CF4D013E094B940F233320421144889
:100F2000FFF764FD04000AD1FFF74EFD040006D16F
:100F30000F48104A0021001FFFF7ECFD0446F007A0
:100F400012D00120FFF7DCFE74B909480A4A0021DB
:100F50000C38FFF7DFFD040006D10548074A0121E0
:100F60000838FFF7D7FD0446204670BD0400002076
:100F7000D83900003D120000F5180000C309000038
:100F80002DE9F05F6E4C054600266078B34618B137
:100F900084F801B000F096FC6A4F4FF47A694FF480
:100FA000C87A4FF00108182D69D2DFE805F00C135C
:100FB00013384754696E727B727BC5848484848441
:100FC000B3B6B9BCC5C500F07DFC3868FFF7F4FDC9
:100FD00006465CE00020FFF7DFFE00284FF000002F
:100FE00008D0FFF7C9FE022D02D14FF4E16008E0FE
:100FF000484606E0FFF7C8FE022D01D1C82000E0F8
:101000005046410CC0034FF47A72801841F1000140
:10101000257052000023FFF7E5F901462AE0002081
:10102000FFF7BAFE00284FF0000004D0FFF7A4FE3F
:101030004FF44870E5E7FFF7A7FEDFE70020FFF772
:10104000ABFE00284FF0000002D0FFF795FECFE77F
:10105000FFF79AFED4E70020FFF79EFE00284FF02E
:10106000000002D0FFF788FE01E0FFF78DFE25703B
:1010700040F6CD4100223868FFF786FD064646E07F
:101080000020FFF767FE257008E0002051E0257082
:101090003DE084F801800120FFF75CFE002240F271
:1010A0006661E8E784F801800120FFF753FE002223
:1010B0004FF40051DFE77868FFF77EFD0646D5F173
:1010C000110000D02EB10220FFF756FE84F802B0C6
:1010D0001DE0012816D980B2C8214843C117C903B1
:1010E00041EA5041C0034FF47A72801841F1000187
:1010F00052000023FFF776F9014600227868FFF7D7
:1011000043FD06460220FFF73FFE84F8028030468A
:10111000BDE8F09F00F0D6FBB9E700F0D3FBB4E7E1
:1011200000F0D0FB04E000F0CDFB0020FFF72CFE28
:101130000120FFF729FEAAE7FFF747FEA7E7000017
:1011400004000020CC3900002DE9F0470546861C3C
:1011500090460F464FF001090020FFF733FD1B4C6E
:1011600020683860D4E90001401AA16804F21C47E5
:10117000081A0EE00121384600F043FD00F0C4FBE0
:101180000146384600F03DFDD4E90001401AA1684F
:10119000081A401C8642EDD8B8F1000F03D0052094
:1011A00065F3891002E0062065F39F50A26821686C
:1011B000114004EB8101C8602068304420600020A9
:1011C000FFF702FD4846BDE8F08700003804002024
:1011D00070B50D4604460A2902D10D21FFF7F8FF2C
:1011E000A0682268411CA1601554D4E90101814224
:1011F00004D32046BDE8704000F0BFBD70BD0000C4
:10120000034803C8814201D1012070470020704784
:1012100038040020034630B50748002104784268AE
:1012200006E000BF02EBC10005789D4203D0491CD7
:10123000A142F7DB002030BD280000200078022109
:10124000FFF7DEBD70B50446000E02F007F9050693
:10125000200C02F003F945EA0045200A02F0FEF8EE
:1012600045EA0025204602F0F9F8284370BD000049
:1012700005494FF0FF32082841F8202002D30844E6
:1012800080F848207047000058010020F0B54FF06A
:10129000FF3512B10023082601E008230C260C4C70
:1012A00005E000BF54F823707F1C04D05B1CB342E0
:1012B000F8D32846F0BD26185DB286F8305044F8C1
:1012C0002310002AF5D1E11881F84800F1E7000069
:1012D000580100200249084490F93000704700008E
:1012E000580100204FF080400022C0F80021012169
:1012F000C0F80010D0F80031002BFBD0054B19606E
:10130000C0F80421C0F80810D0F804110029FBD05F
:10131000704700001805004010B5D0E90234D1E94B
:101320000220D11AA04101D3012010BD002010BD20
:1013300070B500240F4D10E0686800EBC4063078EB
:1013400001F062FB7178012901D0012100E0002148
:101350004140307800F058F9641C28788442EBDB77
:10136000D5E90401084303D0BDE8704002F00CB990
:1013700070BD00002800002010B50021024800F0D8
:101380004BFC80F3100010BD540800204FF4803255
:101390008A400168C1F848230068C0F808237047F4
:1013A0004FF4A07202EB810189B200F099B92DE9E6
:1013B000F04105460E464FF4A07000EB860081B266
:1013C00028684FF48034B440984622F07F47C0F834
:1013D00008432868C0F84843286801F006FA2868DE
:1013E00000EB8600C0F840752868C0F84443B8F1A7
:1013F000000F02D02868C0F80443BDE8F0810068FF
:10140000D0F804057047000070B54379224C44F8C9
:1014100023204279241D04EBC202204B1579204A77
:101420009A1AD3082DB10824022000EB03401DA115
:101430002EE002680D88C2F8085590F904208978DA
:10144000002A4FEA411106DA02F00F0202F1E0220F
:1014500082F8141D03E002F1E02282F8001490F9F2
:101460000410012201F01F0502FA05F5490989005F
:1014700001F1E021C1F80051417904EBC1010A7189
:10148000417944F831000320002400EB03400EA111
:1014900001F024F8204670BD68000020103C0000D8
:1014A000E83B000052544320696E7374616E6365BB
:1014B00020616C726561647920696E697469616C20
:1014C000697A65642E0000005254433A20696E69BF
:1014D0007469616C697A65642E00000090F90400FB
:1014E000012100F01F0291404009800000F1E0203E
:1014F000C0F8001270470A46022100F07BB84FF492
:10150000827100F0EDB80068012101607047006849
:101510000121416070472DE9F05F07460C464FF40A
:10152000A07000EB84001FFA80FA38684FF4803610
:10153000A6409B4622F07F45C0F848633868C0F853
:1015400008633868D0F8048500EB8402D2F840952F
:10155000C2F840855146386801F047F9A9EB080008
:1015600020F07F40012806D1102001F08BF9514670
:10157000386801F03AF93868D0F80485C0F8446357
:10158000A5EB080121F07F413868012900EB8400B8
:1015900010D0C0F840553868D0F804156FF07F4C73
:1015A0006A1A521E22F07F42ACEB0B03934217D310
:1015B00062B118E06D1CC0F84055102001F062F9CE
:1015C0003868D0F8040540450AD10CE000EB8400EF
:1015D0006D1CC0F840553868D0F80405884202D028
:1015E0000D20BDE8F09F01223146384600F002F898
:1015F0000020F6E70368C3F84413002A02D000680D
:10160000C0F80413704700002DE9F0470E46324938
:10161000804601EB5001C007097801D00F0901E0B5
:1016200001F00F07424601200021FEF70CFFDFF812
:10163000AC9004460D46052F4BD2DFE807F00314AB
:1016400019262A00002E44D00121404601F0A8FEB0
:101650000020FFF7B7FA4846D0E904120C431543BF
:10166000C9E9044530E00EB1022114E0002112E086
:101670004EB10321404601F093FE4046BDE8F047DD
:10168000012102F08FB9012105E0002E21D10421B2
:1016900001E02EB103214046BDE8F04701F080BED5
:1016A0000021404601F07CFE0021404602F07AF91C
:1016B0000020FFF787FA4A46E043D2E90434184095
:1016C00024EA0501C9E90401BDE8F0470020FFF75D
:1016D0007BBABDE8F0870000280200202800002027
:1016E00010B5006842581AB101F07FF8012010BD12
:1016F000002010BD10B50B48FFF781FE094A083ADB
:10170000D2E90434C018D2E9063244F10001C31A08
:1017100071EB020204D24FF08072801841F1000197
:1017200010BD00004800002010B5C0B2FFF772FDE8
:101730000446007801F068F901466078012801D07C
:10174000012000E0002090EA010F08D00449D1E90F
:101750000401084303D1BDE8104001F015BF10BDDE
:10176000280000202DE9FC5F0E008346DDE90C47D0
:10177000C6F1000098469246814600D408460125ED
:1017800003E000BF90FBFAF06D1C5045FADAA84563
:1017900000D9454624B1002E01DB780700D5641E30
:1017A000B80702D5B8F1000F0AD0F80708D13CB14C
:1017B000A54205D220215846641EFFF709FDF6E731
:1017C000002E02DA4E462D2102E0780703D52B21A8
:1017D0005846FFF7FDFC07F0030002280BD1B8F1D3
:1017E000000F08D13CB1A54205D230215846641EF5
:1017F000FFF7EEFCF6E7CDE9004743465246314697
:10180000584602F075F8BDE8FC9F000070B50D4623
:10181000044600684FF4887101F02DF84FF4907180
:10182000206801F028F84FF49271206801F023F845
:101830004FF4A271206801F01EF84FF4AC712068DB
:1018400001F019F820681149C0F8041320686907ED
:1018500040F30730090E002806DA00F00F0000F10F
:10186000E02080F8141D03E000F1E02080F800146F
:101870002068012140F3073000F01F029140400929
:10188000800000F1E020C0F8001170BD100342009C
:10189000024600201268530713D502F00300012806
:1018A00002D002280CD105E0C2F383100B68801C23
:1018B000184404E00223086803EB925210440860C5
:1018C000012070470A4810B5807860B1002401E01B
:1018D000022C06D02046FFF74FFA641C042CF7D3E5
:1018E00010BD0324F6E7BDE81040FFF765BA00001D
:1018F0000400002003480179C90702D00078FFF7EF
:101900003FBB7047040000202DE9FF41002623481B
:1019100000F074F92148001F074600F06FF9204CD1
:1019200060680090A56800E000986946284004EBD4
:1019300080000C30FFF7ACFF0028F5D101AA009918
:1019400001EA050304EB8303491CDB6842F82030FD
:10195000401C00910228F2D3019800F003000128F6
:101960000BD0022810D10198032101EB905000996F
:10197000BDF80A6001EB900005E00198BDF80A602F
:10198000C0F3831008440090384600F034F908B1E1
:101990000098606004B03046BDE8F0815008002037
:1019A00038040020FFF79EFCFFF7C0F808B1FFF7EE
:1019B0009FF84FF48041002000F0F4FD08B1FFF7DC
:1019C00097F800F065FC00210120FFF78FFA08B1BD
:1019D000FFF78EF801F05AFB1C491B4808601220E3
:1019E000FFF778FA05461A481A49401AC108032039
:1019F00000EB014418A1204600F070FD20461EA116
:101A000000F06CFD280001D0FFF772F800F04EFCEA
:101A10000028FBD101F0AAFB05460A20FFF75AFA7D
:101A2000064620461AA100F059FD300001D0FFF70C
:101A30005FF820462A461BA100F054FD00F036FC5A
:101A40000028FBD1E6E7000000000020041500405C
:101A5000203C0000E83B0000526164696F20726521
:101A6000636569766572206578616D706C65207359
:101A70007461727465642E005761697420666F72B8
:101A8000206669727374207061636B657400000076
:101A90005061636B6574207761732072656365695B
:101AA0007665640054686520636F6E74656E747348
:101AB000206F6620746865207061636B61676520C4
:101AC00069732025750000002DE9F047C5881E1DAB
:101AD000B6FBF5F78946B6FBF5F1044605FB176C36
:101AE000407916686843DDF820A0F718001F874288
:101AF00000D9C61A166001E02468491E0029FBD1EE
:101B0000A5EB0C078846B74216D818E004EB0C008A
:101B1000001D09EB0803BAF1000F3A4602D0014656
:101B2000184600E01946FEF7A1FC2468F61B4FF0AA
:101B3000000CB844B54201D9374600E02F46002ECC
:101B4000E4D1BDE8F087000030B5024651B100F0A5
:101B500047FD0021074C08E034F821301568AB42FE
:101B600002D11160002030BD491C8142F4D3052010
:101B700030BD00000000000010B531B1B2FBF3F43D
:101B800003FB14241CB1092010BD0E2010BD016000
:101B90000021416081608281C381084610BD70B51B
:101BA0000C460546FEF736FB002802D0218828683F
:101BB000084470BD10B50A8849888A4203D1FEF7EF
:101BC0006BFB012010BD002010BD70B50C46054612
:101BD000FEF745FB002802D061882868084470BDE4
:101BE00010B50A8849888A4203D1FEF72FFB0120ED
:101BF00010BD002010BD002100F009B8012100F047
:101C000010B808B56A46FEF79CFB009808BD08B5F9
:101C10006A46FEF77CFB08BD08B56A46FEF75EFB28
:101C200008BD08B56A46FEF765FB009808BD08B513
:101C30006A46FEF793FB009808BD70B50446002580
:101C40002846FEF7BFFF21686268086890420ED9F7
:101C5000401E08600178238AE26801FB0325227A8E
:101C60002168101AC0B20A79824200D2087100209D
:101C7000FEF7AAFF284670BD70B505460C46002049
:101C8000FEF7A0FFE868298A201AB0FBF1F12A6864
:101C90001068431C13600170BDE870400020FEF71F
:101CA00093BF10B530B1017A42680368891AC9B28E
:101CB0001A6006E00E2010BD03681A68541C1C60F0
:101CC0001170491EC9B2F7D200680021017108469F
:101CD00010BDC20800F007030120895C984008404D
:101CE000704710B5C20800F00703885C01249C40CF
:101CF0002043885410BD0000F0B50546047815480F
:101D000089B0164640F82420124A0869121DA2F133
:101D1000080742F82400487F385520226846FEF71D
:101D2000A5FB04942878385C48B10EB10A4A00E05B
:101D300000226946281D01F011F809B0F0BD0EB16E
:101D4000064A00E00022694605F10C0000F0D8FECA
:101D5000F3E7000018000020AD370000F535000063
:101D60000FB408B50399002904D004AA00926A466A
:101D700000F00FF801B05DF814FB10B5826804465E
:101D8000002A05D0D4E90403216898470020A06008
:101D900010BD2DE9FC4791460C00804676D014F822
:101DA000011B39B125290ED04046FFF711FA2078E2
:101DB0000028F4D198F80C00002867D04046BDE810
:101DC000FC47FFF7DABF0020012221782B291BD026
:101DD0002D2902D0302908D102E040F0010001E0B5
:101DE00040F00200641C002AEFD100252A290ED001
:101DF0002178A1F130020A2A11D205EB850201EB0C
:101E00004205641C303DF1E740F00400EAE7D9F8F0
:101E100000100B1DC9F800300968641C0D442178BE
:101E200000232E290BD114F8011FA1F130020A2A38
:101E300005D203EB830201EB4203303BF3E76C294D
:101E40000DD068290BD0692921D00BDC252918D0A9
:101E5000582931D063290ED0642915D117E014F820
:101E6000011FECE7702969D0732932D075291BD086
:101E7000782909D120E0D9F80000011DC9F8001027
:101E800001784046FFF7A4F9641C90E76CE0D9F8AC
:101E900000100A1DC9F800200968CDE900500A2287
:101EA0004046FFF75FFCEFE7D9F800100A1DC9F8BC
:101EB000002009680A2206E0D9F800100A1DC9F8B6
:101EC000002009681022CDE90050404601F010FDC5
:101ED000DAE7D9F8001000270A1DC9F800200E68BB
:101EE000C00705D112E04046761C7F1CFFF770F951
:101EF00031780029F7D104E0202140466D1EFFF71C
:101F000067F9BD42C0D9002DF6D1BDE74EB13046CC
:101F1000FEF7D0FA074604E0202140466D1EFFF789
:101F200057F9BD4206D9002DF6D103E04046761C94
:101F3000FFF74EF931780029F8D1A5E7D9F800006C
:101F4000011DC9F80010056830214046FFF740F92F
:101F500078214046FFF73CF908200021CDE9000137
:101F6000034610222946B0E7BDE8FC8770B541EA78
:101F70004201DDE904564FF0A04441EA830141EA01
:101F8000052104EB800041EA0641C0F8001770BD4E
:101F900070B541EA4201DDE904564FF0A04441EA40
:101FA000830141EA052104EB800041EA0641C0F8C3
:101FB000001770BD70B541EA4201DDE904564FF0EB
:101FC000A04441EA830141EA052104EB800041EA93
:101FD0000641C0F8001770BD70B541EA4201DDE965
:101FE00004564FF0A04441EA830141EA052104EB85
:101FF000800041EA0641C0F8001770BD1CB5002101
:1020000000910B4601220191FFF7D4FF1CBD1CB5C6
:10201000002100910B4601220191FFF7DDFF1CBD5D
:102020001CB500220B46009211460192FFF7C2FF39
:102030001CBD1CB500220B46009211460192FFF711
:10204000CBFF1CBD1CB5002100910B460122019164
:102050001146FFF7AFFF1CBD1CB5002100910B46D8
:10206000012201911146FFF7B7FF1CBD4FF0A042BE
:1020700002EB8000D0F8002722F44032C0F800279D
:10208000D0F8002742EA0141C0F80017704701224A
:102090004FF0A043824011B1C3F808257047C3F840
:1020A0000C25704718B5084B6C4601441B6800931B
:1020B00006E000BF54F82030D3F81035401C08C2A9
:1020C0008142F7D818BD0000F8390000034908B56F
:1020D0000844002101600068009008BD00600040D5
:1020E00002494058012800D000207047006000409D
:1020F00030B5154A01460020D2F8104423460AE0C4
:10210000DB681D79854205D1401C0A28F6DB4FF0BB
:10211000FF3030BD1B68002BF2D1431CF9D0CB68D7
:102120001871D2F8103443B1DB68CC681B682360A7
:10213000D2F81024D268116030BDC2F81014C968FA
:1021400000220A6030BD000038040020F0B595B0D0
:102150001C4615460F4608461A9E00F013FB182130
:1021600009A8FEF79CF90E96CDE909540023082230
:1021700003A9384600F01BFB05980690BDF8100037
:10218000ADF81C00BDF81200ADF81E0000208DF85F
:1021900021000398082600F00300012802D002283D
:1021A00018D032E003983346850AC0F3C2008DF898
:1021B000200003980FA9C0F38314A200384600F052
:1021C000F6FA09A8009006AB22460FA9284600F0AF
:1021D00035FA1AE00398840DC0F3C2008DF8200090
:1021E000082C01D2254600E0082533462A460FA9CF
:1021F000384600F0DCFA2E44641B09AB06AA2946D7
:102200000FA800F077F9002CEAD1384600F0C0FAA8
:1022100015B0F0BD7047012001F00ABA084810B5AA
:102220000178084A515C19B1001D00F031FE02E04E
:102230000C3000F031FDBDE81040002001F0F8B98D
:10224000780000201400002008B5034A00924023C3
:10225000024AFFF77BFF08BD55330000A0020020B3
:102260000A4A012902EBC00007D0022907D003293E
:1022700007D0042907D000207047022070470420AF
:10228000704700797047407970470000E83B0000D4
:1022900010B5FFF7C0FF04210348FFF729FF0249EB
:1022A0000120C968487110BDD83B00002DE9F047F6
:1022B0008CB0FEF7A5FF18B100200CB0BDE8F08788
:1022C0007D4C0020C4F81804BFF34F8F6068029063
:1022D000A5684FF00008284004EB80000CE000BF28
:1022E000D4F8180470B921680298814201D861605D
:1022F000E2E7284004EB80000C3002A9FFF7C8FA9F
:102300000028EDD1002003AA029901EA050304EB9D
:102310008303491CDB6842F82030401C02910228EC
:10232000F2D3039800F00300022802D001284DD018
:10233000A7E003985022810D8946B2EB905F00D848
:1023400050210E4666F39F50039008315B4800F021
:10235000D0F9070078D000F015FA4346082203A907
:10236000384600F02CFA029908F1080A2940681A48
:102370008000001D864222D94F4D0C3530B1C2B2CB
:1023800004EB8101301A90460C3104E02946F2B288
:10239000002590462846C6B25346384600F00FFA4C
:1023A0000AEB080325B132462946384600F007FA01
:1023B000029909F1030001EB900002903BE004EB6D
:1023C00081015346324638460C31EFE70398C0F39B
:1023D0008310062800D30620039960F38911C1F306
:1023E0008310801C03918100344800F082F90700BB
:1023F00047D000F0C7F94346082203A9384600F049
:10240000DEF908F1080800260FE00298434600EACA
:102410000501401C04EB81010290042238460C3176
:1024200000F0CDF908F10408761C0398C0F383107E
:10243000B042EAD847B1D4F81054D4F8180478B1AF
:10244000384600F0A5F931E01BE0E8684079012842
:1024500004D12A682846394612689047E86805681A
:10246000002DF2D1384600F093F90020FEF7AAFBC8
:10247000D4F8180408B9029860600020FEF7A4FBA5
:1024800014E0D4F8104405E02168204689688847A4
:10249000E0680468002CF7D109480A49401AC008CE
:1024A000022101EB004008A100F018F8FEF7A8FE99
:1024B00080F0010001E7000038040020283C000003
:1024C000203C0000E83B00004261636B656E647372
:1024D00020666C75736865640000000000231A466E
:1024E00000F076BF08B5012300926A4600F070FF45
:1024F00008BD00002DE9F0470E4680461C46924676
:10250000082940D894F80C900020207319461046F2
:1025100000F064FD0025B54206D218F805201BA185
:102520002046FFF71DFC03E01AA12046FFF718FC28
:102530006D1C082DEFD318A12046FFF711FC0025D4
:10254000B54212D218F805707E2F08D8FDF78AFF21
:102550000068C05D10F03E0F01D03A4600E02E2228
:102560000EA12046FFF7FCFB03E00DA12046FFF77C
:10257000F7FB6D1C082DE3D301222146504600F0E5
:102580000FFD84F80C90BDE8F08700002025303264
:1025900078000000202020007C000000256300005F
:1025A000200000000B4810B5FF2181600021016070
:1025B0004160C0F81814C0F8141480F820140648BC
:1025C00000F0E4F8002803D1044800F000F90020EE
:1025D00010BD000038040020283C0000643A0000D0
:1025E00002480349401AC00870470000283C000018
:1025F000E83B000013B56846FFF7A6FA08B10020D3
:102600001CBD0248009950F831001CBDE83B000099
:1026100070B509480125D0F8104480F8205407E02F
:10262000E06845712168204649688847E068046889
:10263000002CF5D170BD0000380400202DE9FF47C3
:1026400081460C9D00200C462F7B28739846164629
:102650002946184600F0C2FC072E42D2DFE806F0F9
:1026600004090F161F2A360049462846FFF778FB53
:1026700037E0494628462268FFF772FB31E0D4E98B
:10268000002349462846FFF76BFB2AE0A06800902C
:10269000D4E9002349462846FFF762FB21E0D4E94C
:1026A0000201CDE90001D4E9002349462846FFF79D
:1026B00057FB16E004F1080007C88DE80700D4E9CD
:1026C000002349462846FFF74BFB0AE004F10800C7
:1026D0000FC88DE80F00D4E9002349462846FFF7CC
:1026E0003FFB00222946404600F05AFC2F73BDE80C
:1026F000FF872DE9F041058A80462D1F4819C01C2F
:10270000B0FBF5F0C6B24046FFF797FA041E19D0A9
:102710000020207101206071E58000272546761E8B
:10272000C4F800800BE04046FFF787FA60B161799A
:10273000491C6171286005467F1CC0F80080B742C3
:10274000F1D32046BDE8F081204600F002F80020D9
:10275000F8E72DE9F041457901466B1E002201E0C2
:102760000968521C9A42FBD30F680146002605E017
:1027700038460C68FFF780FA2146761CAE42F7D344
:10278000BDE8F0810121001DFFF73BBAFFF789BAD0
:1027900010B504460121001DFFF749FA10F0FF0FA4
:1027A00004D12046BDE81040FFF7D3BF10BD1CB5D3
:1027B00001920122009201AAFFF786F91CBD1CB507
:1027C00001920022009201AAFFF77EF91CBD8268E7
:1027D0000021916082681161826851618268D160D4
:1027E0008268516080680160704708B500224250DD
:1027F0004058009008BD70B50D460646446804E098
:10280000B2682946904718B1246820680028F7D19B
:1028100020682860256070BD406800687047416886
:102820000868002801D002680A607047024600204C
:10283000526806E08B4203D108681060012070479F
:102840001A461368002BF5D170474058002800D075
:102850000120704708B5002242504058009008BD42
:10286000D0F80403084000D00120704740580028E9
:1028700000D00120704708B5002242504058009017
:1028800008BD0000002802D00149800108477047B8
:10289000213A00002DE9F0418846054600F068FB2A
:1028A000234E002828461AD0FEF714FD304490F835
:1028B00048008009032802D001280ED007E04FF01D
:1028C000A040D0F81005E84010F0010F05D003211A
:1028D0002846BDE8F041FFF7C9BB0221F8E700F048
:1028E00053FB002822D02846FEF7F4FC04464FF4A0
:1028F000807000EB84000F4F81B207EB8400D0F8AA
:10290000102542F00102C0F810250846FFF7DEFB53
:10291000B8F1000F0AD02846FEF7DCFC56F820007C
:10292000002803D00120A040C7F80403BDE8F081CF
:1029300058010020006000402DE9FC41DFF8BC8018
:10294000044608EB0400002790F930001346C01736
:102950000E46401C01D008274CE0B0781946C0F361
:1029600040022046FEF792FC0546401C41D0B0785C
:10297000410719D4C0070AD04FF0A04000EB8401F2
:10298000D1F8000720F00200C1F8000707E000219D
:102990007378204600910A460191FFF7F9FA17492A
:1029A00020465431FFF79DF9B078800718D51448B8
:1029B000317800EB8500D0F81025124B1A40C0F892
:1029C00010254FF4F8524FF4403302EA042203EA90
:1029D00001410A43D0F810150A43C0F8102509E058
:1029E00008EB0500327810F8481F41EA82110170A7
:1029F00000E004273846BDE8FC81000058010020B3
:102A000000600040FFE0FCFF4FF0A041D1F810153E
:102A1000C14011F0010000D00120704770B5174D82
:102A200095F8580008B1082070BD0020411E2A18F2
:102A3000401CC0B282F830102028F8D30024204671
:102A4000FEF716FC641CE4B20C2CF8D300240C49ED
:102A5000C0206C6581F8000401264020891FC1F860
:102A600000014FF4BE70FFF731FB0649F007C1F8D3
:102A7000040385F85860204670BD0000580100200E
:102A800006E000E000600040034890F8580000288D
:102A900000D0012070470000580100200121B1EB57
:102AA000507F01D1012070470020704770B50D465E
:102AB00000F0E0FA04000FD00020FEF783F8207940
:102AC00020B10020FEF780F8112070BD01202560A4
:102AD00020710020FEF778F8002070BD10B500F0DE
:102AE000C9FA002802D000210160017110BD000068
:102AF0000149024800F0C4BDB4010020002000409C
:102B00002DE9F0410546007916460F4600EB4001DD
:102B10002C4A01EBC00102EB810494F82A1011B198
:102B20000820BDE8F081284951F820102868FFF7F7
:102B3000BDFF08B11120F4E739462846FEF758F8E2
:102B400066603869206030004FF001062DD03F7F6D
:102B50004FF48E712868FFF77DFE4FF4A27128684C
:102B6000FFF778FE28681949C0F8041328684FEA6F
:102B7000471140F30730002806DA00F00F0000F19B
:102B8000E02080F8141D03E000F1E02080F800143C
:102B9000286840F3073000F01F0106FA01F14009F0
:102BA000800000F1E020C0F8001128680421C0F87E
:102BB00000150020A061E06184F8290044F8140F9A
:102BC000A675AEE7B4010020FC39000080000200C9
:102BD0002DE9F05F054600790B4600EB400101EB63
:102BE000C000244901EB8004284600F045F810B1EC
:102BF0001120BDE8F09F62614FF00009C4F82090F9
:102C0000A36084F828904FF48E784E464146286899
:102C1000FFF720FE28684FF0010AC0F808A02146FF
:102C2000286800F0BDFC606808BBD5F800B0676993
:102C30000FE000BF94F8280008B10F2615E04146C8
:102C40005846FFF702FE0028F4D02146584600F00F
:102C5000A7FC206AB842F2D3574641462868FFF7DE
:102C6000F4FD0028F9D02868C760C4F814903046F5
:102C7000BFE70000B4010020007900EB400101EB48
:102C8000C000044901EB80004069002800D0012009
:102C900070470000B40100202DE9F0470446007998
:102CA0004FF0000900EB400101EBC000254901EBAA
:102CB00080072068C0F80095786880B120682249B4
:102CC000C0F808132068012140F3073000F01F020C
:102CD00091404009800000F1E020C0F88011206898
:102CE000D0F80C25D0F81485D0F80865D0F8105528
:102CF0004FF0FF31C0F81415C0F80C152068C0F86B
:102D00000815C0F81015501C02D01046FFF776F9D0
:102D1000B8F1FF3F02D04046FFF770F9681C02D0BF
:102D20002846FFF76BF9701C02D03046FFF766F9B2
:102D30002068FFF7D3FE87F82A90C7F80490BDE813
:102D4000F0870000B401002084020200014902481B
:102D500000F044BDE0010020002000402DE9F041DA
:102D60000546164600790F46154A00EBC00102EBF6
:102D7000810494F8201011B10820BDE8F0811149B8
:102D800051F820102868FFF791FE08B11120F4E7F0
:102D900039462846FDF770FF6660386920601EB12D
:102DA000397F2846FEF732FD28680821C0F8001553
:102DB0000020A061E0616061012184F82010DCE75F
:102DC000E0010020003A00002DE9F04704460E46DD
:102DD0000079274900EBC00001EB8005174630461B
:102DE000FFF75CFE30B1204600F044F820B111201E
:102DF000BDE8F0871020FBE76F61AE604FF490777D
:102E00004FF0000839462068FFF735FD4FF4AC76E7
:102E100031462068FFF72FFD2068AA686969C0F86D
:102E20004425C0F8481520684FF00109C0F8089003
:102E30006868D0B9BA4651462068FFF717FD0746C3
:102E400031462068FFF712FD0743F4D010B14FF070
:102E50000F0808E02068C0F80C9031462068FFF7A2
:102E600005FD0028F9D0002068614046C0E7000059
:102E7000E00100200079054900EBC00001EB800073
:102E80004069002800D0012070470000E0010020C8
:102E90002DE9F04704460079334900EBC00001EB0F
:102EA00080070125786880B120683049C0F8081390
:102EB000206840F3073000F01F0105FA01F14009D6
:102EC000800000F1E020C0F880112068D0F80012E6
:102ED00021F02001C0F80012206845604FF4AC7664
:102EE00031462068FFF7C7FC2068C560314620687E
:102EF000FFF7BCFC0028F9D020684FF00009C0F8AB
:102F000000952068D0F80C25D0F81485D0F8086515
:102F1000D0F810554FF0FF31C0F80C15C0F814155B
:102F20002068C0F80815C0F81015501C02D01046D3
:102F3000FFF76DF8B8F1FF3F02D04046FFF767F8A2
:102F4000681C02D02846FFF762F8701C02D0304699
:102F5000FFF75DF82068FFF7C1FD87F82090C7F8FC
:102F60000490BDE8F0870000E0010020100342005B
:102F70000449084490F93000082801DB012070471B
:102F800000207047580100200449084490F930009F
:102F9000082801D201207047002070475801002006
:102FA00010B50C46017A052908D0407A38B1084896
:102FB00008A102682046FEF7D3FE00E01AB106A180
:102FC0002046FEF7CDFE2046BDE81040FEF7D5BEF8
:102FD000C0000020257300000D0A000038B5C3882A
:102FE0000D46044633B114A0009015A216A1284640
:102FF000FEF7B6FE217A05291CD0607A48B1A08878
:10300000FFF72EF9164951F8202016A12846FEF7A1
:10301000A7FEA0880021FFF7EDFA03461049207AA9
:10302000143951F8202001B02846BDE830400EA1E7
:10303000FEF796BE38BD00001B5B306D000000003F
:103040001B5B313B33316D0025734C6F677320641C
:10305000726F70706564202825642925730D0A003D
:10306000C0000020257300003C25733E2025733AE4
:10307000200000000349884201D103487047002026
:1030800070470000002000402000002070B532484A
:103090000024046030490720091F08602E48001DE5
:1030A0000460C32000F0DAF90506C22000F0D6F96A
:1030B00045EA0045C12000F0D1F945EA0025C020CD
:1030C00000F0CCF90543244818300560C72000F013
:1030D000C5F90506C62000F0C1F945EA0045C4203F
:1030E00000F0BCF905431C481C3005601B48FEF786
:1030F000A9F81949103108601948FEF7A3F81649D4
:103100001431086014482030046013490120243130
:1031100008601148083004600F4912480C310860FB
:103120000D480221283001600168021D01F00303EF
:1031300009493031022B0AD0006800F00300012851
:1031400004D1FF20086040F20710106070BD4FF6F8
:10315000FF7008600448F8E70C150040674523013C
:10316000EFCDAB890101040121100100114910B517
:1031700000200246C1F8000101234B60D1F8004154
:10318000002CFBD0C1F80C21C1F80830D1F80C415B
:10319000002CFBD0084C2468012C01D107480068A2
:1031A000C1F81021C1F81030D1F81021002AFBD04D
:1031B00010BD00000010004000140040000000207E
:1031C00070B50546FEF79BF9134C40B1D4E90402F3
:1031D0004FF08071411842F10000C4E90410002151
:1031E0002846FEF7DDF830B1606820B1606800F075
:1031F00047F90020606001212846FEF7D1F818B198
:10320000FEF778FAC4E90601284600F065F9284679
:10321000BDE8704000F034B84000002070B50546AD
:1032200000200C460870FEF765FAD5E90223101A53
:1032300063EB010300263146361A994112DAB0F5E4
:10324000350F03D3FDF760FC0B4942184FF496038A
:1032500000210A48FEF75FF910B10D2806D009E0F9
:10326000012070BD00210548FEF790F8284600F0C7
:1032700007F92070002070BDFFFFB4004800002057
:10328000F8B51A4C074600261948FFF7C5FAD0B121
:10329000616871B1D0E902106268D2E90232C91ADC
:1032A000904120D26068007F18B161681048FFF734
:1032B000A2FA00F06FF805466946FFF7AFFF98B134
:1032C000606840B10AE0606800280CD13846BDE86B
:1032D000F840FEF71CB93846FEF715F965609DF811
:1032E00000000028D0D1F8BD6660CDE74000002086
:1032F000143A000070B5054688690C4600284FF462
:10330000847128460AD0FFF7A5FAD5F81805626A35
:10331000E1688854606A401C606270BDFFF79AFAE9
:10332000D5F8180570BD1FB501238DF80030CDE923
:103330000121D0E90012684690471FBD1FB5012347
:103340008DF80030CDE90121D0E9001268469047A0
:103350001FBD000070B50D4C0020D2B22070201DA2
:103360000B4D0378EB5C1BB1001DFFF72DFD02E058
:103370000C30FFF72DFC08B1FDF7BAFB6078002890
:1033800002D021780029FAD070BD0000740000201E
:10339000140000200148FFF742BA0000143A000070
:1033A000C207002A03D000BF4FF00F0201E04FF028
:1033B000F00201D04FEA0111044B03EB50031878DF
:1033C00000EA020040EA010018707047280200205D
:1033D0002DE9F84F204D924689460646984601222F
:1033E00069461846AF68FDF7AFFE58B30098002154
:1033F0000446801C09E000BF00EA07035AF82120B8
:1034000005EB8303401C491CDA604145F4D34FEAC5
:10341000164AFDF7B1FF4AEA0041601C384005EB4F
:1034200080003C4005EB8402C160D06866F3C500B3
:1034300068F3891069F39F2020F00300401C20F0FE
:103440000400D06095F8200402E000BFFEF72EFFD4
:103450000028FBD1BDE8F88F38040020014610B5E4
:103460000020CBB24FEA000123FA01F202F0010280
:10347000C1F10704A2401043491C0829F4D310BD30
:1034800070B50446124800250078F8B1F4B1207FE9
:10349000E0B1FEF72FF9D4E90223801A994110D345
:1034A0002069002600B92677D4E9051088472069ED
:1034B00060B1217F51B1D4E9022110187141C4E9F2
:1034C000020121460348FFF796F90125284670BD01
:1034D00040000020143A0000F8B51B4C69462068F3
:1034E000FEF773FB00260127184D29E0017821B172
:1034F00001290CD002291BD114E041680A7FBAB916
:103500000F77416810480830FFF775F910E04168FF
:103510006868814201D16E600AE00B480830FFF70D
:1035200085F905E0FFF736FF08B10677FAE72F7057
:1035300069462068FEF73EFB69462068FEF745FBBA
:103540000028D3D1F8BD00000C3A00004000002054
:10355000F8B50B4C0D46064669462068FEF71FFB82
:1035600058B10670456069462068FEF739FB10B116
:103570000448FDF7B3FF0020F8BD0420F8BD0000AB
:103580000C3A0000480000200348806841080348C6
:1035900000224068FDF7F8BA28000020043A000035
:1035A00070B50C4605464FF48E71FFF753F9216A4A
:1035B000A068415C206A401C2062C5F81C1570BDE3
:1035C0001FB500228DF800200291816801914261AF
:1035D000D0E90012684690471FBD1FB500228DF844
:1035E00000200291816801914261D0E90012684691
:1035F00090471FBD1FB50A4601788DF8001041683D
:103600000191017A8DF80810C0680390044850F8C1
:103610002210001F50F82220684690471FBD00006E
:103620001C00002001490120087070477400002030
:1036300010B588B0044620220E496846FCF716FFF4
:1036400006200090C01F0190029003904FF0EB7095
:1036500006900CB1084A00E0002269460748FEF7D0
:103660004BFB08B1FDF744FA0448001F447008B052
:1036700010BD0000443A000025360000780000200C
:103680002DE9FF470C4605464FF40071FFF7E8F8B7
:1036900001274FF40178002618B34FF49279494678
:1036A0002846FFF7D2F8E0B149462846FFF7D2F89E
:1036B000C5F8088394F8290000B96F6002208DF8DE
:1036C0000000D5F88004C5F880040390A06902903A
:1036D000E0680190A661E661D4E90012684690476F
:1036E00028E004212846FFF7BBF818B34FF4847193
:1036F0002846FFF7AAF8E8B121462846FFF7FAFD69
:10370000616AA069884215D1E06938B1E268616AEE
:10371000A0612069E6616662E06008E094F8290033
:1037200000B96F60C5F80883A661E268616A204647
:10373000FFF7F9FD4FF48E7841462846FFF785F8EC
:1037400080B16069216A814202D294F8280028B3CE
:1037500041462846FFF77EF8606918B16169204646
:10376000FFF72EFF4FF4A27841462846FFF76DF889
:10377000002818D041462846FFF76CF894F8290035
:1037800000B12F60A06900280DD0A661E268616ACF
:1037900004B02046BDE8F047FFF7C5BD21462846E6
:1037A000FFF7FEFEDEE7BDE8FF8700001FB50A4613
:1037B00001788DF8001041680191017A8DF80810A8
:1037C000C0680390044850F82210001F50F82220CF
:1037D000684690471FBD00001C0000202DE9FF41F6
:1037E0000C464FF4927705463946FFF73FF800261E
:1037F000B8B139462846FFF73EF802208DF80000A0
:10380000D5F88004C5F880040390D5F83C050290F3
:10381000E0680190A661E661D4E90012684690472D
:1038200023E04FF4887739462846FFF71FF8E0B1C8
:1038300039462846FFF71FF8D5F83C15A06988429D
:1038400013D1E06960B1E268D5F8000220F02000F1
:10385000C5F80002E069A0612069E661E06001E06E
:10386000A661E2682046FFF769FD4FF4A27739466A
:103870002846FEF7FBFF68B139462846FEF7FBFFF6
:10388000A06938B1A661E661D5F83C152046E2682A
:10389000FFF754FD4FF4907631462846FEF7E6FFD9
:1038A00060B131462846FEF7E6FF0120E860606916
:1038B00020B1D5F84C152046FFF78FFE4FF4AC76BB
:1038C00031462846FEF7D2FF00280ED03146284662
:1038D000FEF7D1FF6069002807D0D5F84C1504B079
:1038E0002046BDE8F041FFF778BEBDE8FF8100004B
:1038F0002DE9F05F8346DDE90A4A994690460D4678
:103900000846012703E000BFB0FBF8F07F1C4045EC
:10391000FAD2B94500D94F465FEACA7012D18CB1CC
:103920005FEA8A7002D5B9F1000F01D0202607E0C6
:10393000302605E031465846641EFDF749FC0CB1BF
:10394000A742F7D35FF00106B9F1010F02D9A9F13F
:10395000010903E0B5FBF6F0404502D306FB08F68B
:10396000F2E7DFF83C9000BFB5FBF6F000FB165520
:1039700019F800105846FDF72BFCB6FBF8F6002EA0
:10398000F2D15FEACA7009D0002C07D0A74205D255
:1039900020215846641EFDF71BFCF5E7BDE8F09FAB
:1039A000263A000070B50C460546FDF733FC0028AA
:1039B00007D04268002A04D021462846BDE870405E
:1039C000104770BD111213140D0E0F10E8000020E7
:1039D00008010020380100200D000300010E000046
:1039E0000E000300010E00000F000300010E000096
:1039F00010000300010E000000000050F12A00003A
:103A00004D2D0000030000000802002038020020B5
:103A100001000600000000006000002019130000F3
:103A20000338FDD8704730313233343536373839C2
:103A30004142434445460000492200001D22000047
:103A400015220000FFFFFFFFFFFFFFFFFFFFFFFF4B
:103A5000FFFFFFFF00000000000000000000D60193
:103A600006010000A00300207F00000020040020C9
:103A70000040404040404040404041414141414081
:103A80004040404040404040404040404040404036
:103A900040050202020202020202020202020202C5
:103AA00002202020202020202020200202020202CA
:103AB0000202909090909090101010101010101022
:103AC000101010101010101010101010020202022E
:103AD0000202888888888888080808080808080872
:103AE000080808080808080808080808020202026E
:103AF00040000000713A00007761726E696E6700E5
:103B000064656275670000001B5B313B33306D00FC
:103B10001B5B306D000000001B5B313B33316D00DF
:103B20001B5B313B33326D001B5B313B33336D002C
:103B30001B5B313B33346D001B5B313B33356D0018
:103B40001B5B313B33366D001B5B313B33376D0004
:103B5000696E666F000000006572726F720000008F
:103B60004750494F5445000050525300554152545C
:103B70000000000055415254450000006170705F24
:103B8000627574746F6E00006170705F74696D654A
:103B900072000000736F72746C697374000000002F
:103BA000756172745F6C6F675F6261636B656E6491
:103BB00000000000617070003C3C0000000000202C
:103BC000E8000000A4090000243D0000E8000020F7
:103BD00078270000B4090000383A00000000000017
:103BE000A03B00008C000020603B000000000000B3
:103BF000683B0000000000006C3B0000000000007B
:103C0000743B0000000000007C3B0000000000004E
:103C1000883B000000000000943B00000000000012
:103C2000B43B0000000003039C000020940000202F
:103C30009C000020E00200201800000000000000AE
:103C40000000000000000000000000000000000074
:103C50000000000000000000000000000000000064
:103C60000000000000000000000000000000000054
:103C70000000000000000000000000000000000044
:103C800000000000001001401100040000000000CE
:103C90000000000000000000000000000000000024
:103CA0000000000000000000000000000000000014
:103CB00000000000000000000020004000000000A4
:103CC000002000400000000000000000FF00000095
:103CD00000000000000000000000000000000000E4
:103CE000000000000000000000000000583B000041
:103CF000F83A0000503B0000003B0000103B000081
:103D0000083B0000183B0000203B0000283B00005F
:103D1000303B0000383B0000403B0000483B0000C7
:043D20000090D0033C
:0400000500000201F4
:00000001FF
