Component: ARM Compiler 5.06 update 6 (build 750) Tool: armlink [4d35ed]

==============================================================================

Section Cross References

    arm_startup_nrf52810.o(RESET) refers to arm_startup_nrf52810.o(STACK) for __initial_sp
    arm_startup_nrf52810.o(RESET) refers to arm_startup_nrf52810.o(.text) for Reset_Handler
    arm_startup_nrf52810.o(RESET) refers to nrfx_clock.o(i.POWER_CLOCK_IRQHandler) for POWER_CLOCK_IRQHandler
    arm_startup_nrf52810.o(RESET) refers to nrfx_prs.o(i.UARTE0_UART0_IRQHandler) for UARTE0_UART0_IRQHandler
    arm_startup_nrf52810.o(RESET) refers to nrfx_gpiote.o(i.GPIOTE_IRQHandler) for GPIOTE_IRQHandler
    arm_startup_nrf52810.o(RESET) refers to drv_rtc.o(i.RTC1_IRQHandler) for RTC1_IRQHandler
    arm_startup_nrf52810.o(RESET) refers to nrf_sdh.o(i.SWI2_IRQHandler) for SWI2_IRQHandler
    arm_startup_nrf52810.o(.text) refers to system_nrf52810.o(i.SystemInit) for SystemInit
    arm_startup_nrf52810.o(.text) refers to entry.o(.ARM.Collect$$$$00000000) for __main
    system_nrf52810.o(i.SystemCoreClockUpdate) refers to system_nrf52810.o(.data) for .data
    system_nrf52810.o(i.SystemInit) refers to system_nrf52810.o(i.errata_31) for errata_31
    system_nrf52810.o(i.SystemInit) refers to system_nrf52810.o(i.errata_36) for errata_36
    system_nrf52810.o(i.SystemInit) refers to system_nrf52810.o(i.errata_136) for errata_136
    system_nrf52810.o(i.SystemInit) refers to system_nrf52810.o(.data) for .data
    main.o(i.advertising_init) refers to memseta.o(.text) for __aeabi_memclr4
    main.o(i.advertising_init) refers to ble_advdata.o(i.ble_advdata_encode) for ble_advdata_encode
    main.o(i.advertising_init) refers to app_error.o(i.app_error_handler_bare) for app_error_handler_bare
    main.o(i.advertising_init) refers to main.o(.constdata) for .constdata
==============================================================================

Removing Unused input sections from the image.

    Removing arm_startup_nrf52810.o(HEAP), (2048 bytes).
    Removing system_nrf52810.o(.rev16_text), (4 bytes).
    Removing system_nrf52810.o(.revsh_text), (4 bytes).
    Removing system_nrf52810.o(.rrx_text), (6 bytes).
    Removing system_nrf52810.o(i.SystemCoreClockUpdate), (16 bytes).
    Removing main.o(.rev16_text), (4 bytes).
    Removing main.o(.revsh_text), (4 bytes).
    Removing main.o(.rrx_text), (6 bytes).
    Removing main.o(i.assert_nrf_callback), (16 bytes).
    Removing boards.o(.rev16_text), (4 bytes).
    Removing boards.o(.revsh_text), (4 bytes).
    Removing boards.o(.rrx_text), (6 bytes).
    Removing boards.o(i.bsp_board_button_idx_to_pin), (12 bytes).
    Removing boards.o(i.bsp_board_button_state_get), (32 bytes).
    Removing boards.o(i.bsp_board_led_idx_to_pin), (12 bytes).
    Removing boards.o(i.bsp_board_led_invert), (36 bytes).
    Removing boards.o(i.bsp_board_led_state_get), (32 bytes).
    Removing boards.o(i.bsp_board_leds_on), (6 bytes).
==============================================================================

Image Symbol Table

    Local Symbols

    Symbol Name                              Value     Ov Type        Size  Object(Section)

    ../clib/microlib/ctype/ctype.c           0x00000000   Number         0  isalpha_o.o ABSOLUTE
    ../clib/microlib/ctype/ctype.c           0x00000000   Number         0  iscntrl_o.o ABSOLUTE
    ../clib/microlib/ctype/ctype.c           0x00000000   Number         0  islower_o.o ABSOLUTE
    ../clib/microlib/ctype/ctype.c           0x00000000   Number         0  isdigit_o.o ABSOLUTE
    ../clib/microlib/ctype/ctype.c           0x00000000   Number         0  isxdigit_o.o ABSOLUTE
    ../clib/microlib/ctype/ctype.c           0x00000000   Number         0  isupper_o.o ABSOLUTE
    ../clib/microlib/ctype/ctype.c           0x00000000   Number         0  isspace_o.o ABSOLUTE
    ../clib/microlib/ctype/ctype.c           0x00000000   Number         0  ispunct_o.o ABSOLUTE
    ../clib/microlib/ctype/ctype.c           0x00000000   Number         0  isprint_o.o ABSOLUTE
    ../clib/microlib/ctype/ctype.c           0x00000000   Number         0  isblank_o.o ABSOLUTE
    ../clib/microlib/ctype/ctype.c           0x00000000   Number         0  ctype_o.o ABSOLUTE
    ../clib/microlib/ctype/ctype.c           0x00000000   Number         0  isalnum_o.o ABSOLUTE
    ../clib/microlib/ctype/ctype.c           0x00000000   Number         0  isgraph_o.o ABSOLUTE
    ../clib/microlib/init/entry.s            0x00000000   Number         0  entry5.o ABSOLUTE
    ../clib/microlib/init/entry.s            0x00000000   Number         0  entry7a.o ABSOLUTE
    ../clib/microlib/init/entry.s            0x00000000   Number         0  entry7b.o ABSOLUTE
    ../clib/microlib/init/entry.s            0x00000000   Number         0  entry8a.o ABSOLUTE
    ../clib/microlib/init/entry.s            0x00000000   Number         0  entry8b.o ABSOLUTE
    ../clib/microlib/init/entry.s            0x00000000   Number         0  entry9a.o ABSOLUTE
    ../clib/microlib/init/entry.s            0x00000000   Number         0  entry9b.o ABSOLUTE
    ../clib/microlib/init/entry.s            0x00000000   Number         0  entry10a.o ABSOLUTE
    ../clib/microlib/init/entry.s            0x00000000   Number         0  entry10b.o ABSOLUTE
    ../clib/microlib/init/entry.s            0x00000000   Number         0  entry11a.o ABSOLUTE
    ../clib/microlib/init/entry.s            0x00000000   Number         0  entry11b.o ABSOLUTE
    ../clib/microlib/init/entry.s            0x00000000   Number         0  entry2.o ABSOLUTE
    ../clib/microlib/init/entry.s            0x00000000   Number         0  entry.o ABSOLUTE
    ../clib/microlib/longlong.c              0x00000000   Number         0  llshl.o ABSOLUTE
    ../clib/microlib/stdio/fflush.c          0x00000000   Number         0  fflush.o ABSOLUTE
    ../clib/microlib/stdio/fputc.c           0x00000000   Number         0  fputc.o ABSOLUTE
    ../clib/microlib/stdio/semi.s            0x00000000   Number         0  semi.o ABSOLUTE
    ../clib/microlib/stdio/streams.c         0x00000000   Number         0  stdout.o ABSOLUTE
    ../clib/microlib/string/memcmp.c         0x00000000   Number         0  memcmp.o ABSOLUTE
    ../clib/microlib/string/memcpy.c         0x00000000   Number         0  memcpya.o ABSOLUTE
    ../clib/microlib/string/memcpy.c         0x00000000   Number         0  memcpyb.o ABSOLUTE
    ../clib/microlib/string/memset.c         0x00000000   Number         0  memseta.o ABSOLUTE
    ../clib/microlib/string/strcmp.c         0x00000000   Number         0  strcmp.o ABSOLUTE
    ../clib/microlib/string/strcpy.c         0x00000000   Number         0  strcpy.o ABSOLUTE
    ../clib/microlib/string/strlen.c         0x00000000   Number         0  strlen.o ABSOLUTE
    ../clib/microlib/stubs.s                 0x00000000   Number         0  useno.o ABSOLUTE
    ../clib/microlib/stubs.s                 0x00000000   Number         0  iusesemip.o ABSOLUTE
    ..\..\..\..\..\..\components\ble\ble_services\ble_lbs\ble_lbs.c 0x00000000   Number         0  ble_lbs.o ABSOLUTE
    ..\..\..\..\..\..\components\ble\common\ble_advdata.c 0x00000000   Number         0  ble_advdata.o ABSOLUTE
    ..\..\..\..\..\..\components\ble\common\ble_conn_params.c 0x00000000   Number         0  ble_conn_params.o ABSOLUTE
    ..\..\..\..\..\..\components\ble\common\ble_conn_state.c 0x00000000   Number         0  ble_conn_state.o ABSOLUTE
    ..\..\..\..\..\..\components\ble\common\ble_srv_common.c 0x00000000   Number         0  ble_srv_common.o ABSOLUTE
    ..\..\..\..\..\..\components\ble\nrf_ble_gatt\nrf_ble_gatt.c 0x00000000   Number         0  nrf_ble_gatt.o ABSOLUTE
    ..\..\..\..\..\..\components\ble\nrf_ble_qwr\nrf_ble_qwr.c 0x00000000   Number         0  nrf_ble_qwr.o ABSOLUTE
    ..\..\..\..\..\..\components\boards\boards.c 0x00000000   Number         0  boards.o ABSOLUTE
    ..\..\..\..\..\..\components\libraries\atomic\nrf_atomic.c 0x00000000   Number         0  nrf_atomic.o ABSOLUTE
    ..\..\..\..\..\..\components\libraries\atomic_fifo\nrf_atfifo.c 0x00000000   Number         0  nrf_atfifo.o ABSOLUTE
    ..\..\..\..\..\..\components\libraries\atomic_flags\nrf_atflags.c 0x00000000   Number         0  nrf_atflags.o ABSOLUTE
    ..\..\..\..\..\..\components\libraries\balloc\nrf_balloc.c 0x00000000   Number         0  nrf_balloc.o ABSOLUTE
    ..\..\..\..\..\..\components\libraries\button\app_button.c 0x00000000   Number         0  app_button.o ABSOLUTE
    ..\..\..\..\..\..\components\libraries\experimental_section_vars\nrf_section_iter.c 0x00000000   Number         0  nrf_section_iter.o ABSOLUTE
    ..\..\..\..\..\..\components\libraries\hardfault\hardfault_implementation.c 0x00000000   Number         0  hardfault_implementation.o ABSOLUTE
    ..\..\..\..\..\..\components\libraries\log\src\nrf_log_backend_rtt.c 0x00000000   Number         0  nrf_log_backend_rtt.o ABSOLUTE
    ..\..\..\..\..\..\components\libraries\log\src\nrf_log_backend_serial.c 0x00000000   Number         0  nrf_log_backend_serial.o ABSOLUTE
    ..\..\..\..\..\..\components\libraries\log\src\nrf_log_backend_uart.c 0x00000000   Number         0  nrf_log_backend_uart.o ABSOLUTE
    ..\..\..\..\..\..\components\libraries\log\src\nrf_log_default_backends.c 0x00000000   Number         0  nrf_log_default_backends.o ABSOLUTE
    ..\..\..\..\..\..\components\libraries\log\src\nrf_log_frontend.c 0x00000000   Number         0  nrf_log_frontend.o ABSOLUTE
    ..\..\..\..\..\..\components\libraries\log\src\nrf_log_str_formatter.c 0x00000000   Number         0  nrf_log_str_formatter.o ABSOLUTE
    ..\..\..\..\..\..\components\libraries\memobj\nrf_memobj.c 0x00000000   Number         0  nrf_memobj.o ABSOLUTE
    ..\..\..\..\..\..\components\libraries\pwr_mgmt\nrf_pwr_mgmt.c 0x00000000   Number         0  nrf_pwr_mgmt.o ABSOLUTE
    ..\..\..\..\..\..\components\libraries\ringbuf\nrf_ringbuf.c 0x00000000   Number         0  nrf_ringbuf.o ABSOLUTE
    ..\..\..\..\..\..\components\libraries\scheduler\app_scheduler.c 0x00000000   Number         0  app_scheduler.o ABSOLUTE
    ..\..\..\..\..\..\components\libraries\sortlist\nrf_sortlist.c 0x00000000   Number         0  nrf_sortlist.o ABSOLUTE
    ..\..\..\..\..\..\components\libraries\strerror\nrf_strerror.c 0x00000000   Number         0  nrf_strerror.o ABSOLUTE
    ..\..\..\..\..\..\components\libraries\timer\app_timer2.c 0x00000000   Number         0  app_timer2.o ABSOLUTE
    ..\..\..\..\..\..\components\libraries\timer\drv_rtc.c 0x00000000   Number         0  drv_rtc.o ABSOLUTE
    ..\..\..\..\..\..\components\libraries\util\app_error.c 0x00000000   Number         0  app_error.o ABSOLUTE
    ..\..\..\..\..\..\components\libraries\util\app_error_handler_keil.c 0x00000000   Number         0  app_error_handler_keil.o ABSOLUTE
    ..\..\..\..\..\..\components\libraries\util\app_error_weak.c 0x00000000   Number         0  app_error_weak.o ABSOLUTE
    ..\..\..\..\..\..\components\libraries\util\app_util_platform.c 0x00000000   Number         0  app_util_platform.o ABSOLUTE
    ..\..\..\..\..\..\components\libraries\util\nrf_assert.c 0x00000000   Number         0  nrf_assert.o ABSOLUTE
    ..\..\..\..\..\..\components\softdevice\common\nrf_sdh.c 0x00000000   Number         0  nrf_sdh.o ABSOLUTE
    ..\..\..\..\..\..\components\softdevice\common\nrf_sdh_ble.c 0x00000000   Number         0  nrf_sdh_ble.o ABSOLUTE
    ..\..\..\..\..\..\components\softdevice\common\nrf_sdh_soc.c 0x00000000   Number         0  nrf_sdh_soc.o ABSOLUTE
    ..\..\..\..\..\..\external\fprintf\nrf_fprintf.c 0x00000000   Number         0  nrf_fprintf.o ABSOLUTE
    ..\..\..\..\..\..\external\fprintf\nrf_fprintf_format.c 0x00000000   Number         0  nrf_fprintf_format.o ABSOLUTE
    ..\..\..\..\..\..\external\segger_rtt\SEGGER_RTT.c 0x00000000   Number         0  segger_rtt.o ABSOLUTE
    ..\..\..\..\..\..\external\segger_rtt\SEGGER_RTT_Syscalls_KEIL.c 0x00000000   Number         0  segger_rtt_syscalls_keil.o ABSOLUTE
    ..\..\..\..\..\..\external\segger_rtt\SEGGER_RTT_printf.c 0x00000000   Number         0  segger_rtt_printf.o ABSOLUTE
    ..\..\..\..\..\..\external\utf_converter\utf.c 0x00000000   Number         0  utf.o ABSOLUTE
    ..\..\..\..\..\..\integration\nrfx\legacy\nrf_drv_clock.c 0x00000000   Number         0  nrf_drv_clock.o ABSOLUTE
    ..\..\..\..\..\..\integration\nrfx\legacy\nrf_drv_uart.c 0x00000000   Number         0  nrf_drv_uart.o ABSOLUTE
    ..\..\..\..\..\..\modules\nrfx\drivers\src\nrfx_clock.c 0x00000000   Number         0  nrfx_clock.o ABSOLUTE
    ..\..\..\..\..\..\modules\nrfx\drivers\src\nrfx_gpiote.c 0x00000000   Number         0  nrfx_gpiote.o ABSOLUTE
    ..\..\..\..\..\..\modules\nrfx\drivers\src\nrfx_uart.c 0x00000000   Number         0  nrfx_uart.o ABSOLUTE
    ..\..\..\..\..\..\modules\nrfx\drivers\src\nrfx_uarte.c 0x00000000   Number         0  nrfx_uarte.o ABSOLUTE
    ..\..\..\..\..\..\modules\nrfx\drivers\src\prs\nrfx_prs.c 0x00000000   Number         0  nrfx_prs.o ABSOLUTE
    ..\..\..\..\..\..\modules\nrfx\mdk\arm_startup_nrf52810.s 0x00000000   Number         0  arm_startup_nrf52810.o ABSOLUTE
    ..\..\..\..\..\..\modules\nrfx\mdk\system_nrf52810.c 0x00000000   Number         0  system_nrf52810.o ABSOLUTE
    ..\..\..\..\..\..\modules\nrfx\soc\nrfx_atomic.c 0x00000000   Number         0  nrfx_atomic.o ABSOLUTE
    ..\..\..\main.c                          0x00000000   Number         0  main.o ABSOLUTE
    ..\\..\\..\\..\\..\\..\\components\\ble\\ble_services\\ble_lbs\\ble_lbs.c 0x00000000   Number         0  ble_lbs.o ABSOLUTE
    ..\\..\\..\\..\\..\\..\\components\\ble\\common\\ble_advdata.c 0x00000000   Number         0  ble_advdata.o ABSOLUTE
    ..\\..\\..\\..\\..\\..\\components\\ble\\common\\ble_conn_params.c 0x00000000   Number         0  ble_conn_params.o ABSOLUTE
    ..\\..\\..\\..\\..\\..\\components\\ble\\common\\ble_conn_state.c 0x00000000   Number         0  ble_conn_state.o ABSOLUTE
    ..\\..\\..\\..\\..\\..\\components\\ble\\common\\ble_srv_common.c 0x00000000   Number         0  ble_srv_common.o ABSOLUTE
    ..\\..\\..\\..\\..\\..\\components\\ble\\nrf_ble_gatt\\nrf_ble_gatt.c 0x00000000   Number         0  nrf_ble_gatt.o ABSOLUTE
    ..\\..\\..\\..\\..\\..\\components\\ble\\nrf_ble_qwr\\nrf_ble_qwr.c 0x00000000   Number         0  nrf_ble_qwr.o ABSOLUTE
    ..\\..\\..\\..\\..\\..\\components\\boards\\boards.c 0x00000000   Number         0  boards.o ABSOLUTE
    ..\\..\\..\\..\\..\\..\\components\\libraries\\atomic\\nrf_atomic.c 0x00000000   Number         0  nrf_atomic.o ABSOLUTE
    ..\\..\\..\\..\\..\\..\\components\\libraries\\atomic_fifo\\nrf_atfifo.c 0x00000000   Number         0  nrf_atfifo.o ABSOLUTE
    ..\\..\\..\\..\\..\\..\\components\\libraries\\atomic_flags\\nrf_atflags.c 0x00000000   Number         0  nrf_atflags.o ABSOLUTE
    ..\\..\\..\\..\\..\\..\\components\\libraries\\balloc\\nrf_balloc.c 0x00000000   Number         0  nrf_balloc.o ABSOLUTE
    ..\\..\\..\\..\\..\\..\\components\\libraries\\button\\app_button.c 0x00000000   Number         0  app_button.o ABSOLUTE
    ..\\..\\..\\..\\..\\..\\components\\libraries\\experimental_section_vars\\nrf_section_iter.c 0x00000000   Number         0  nrf_section_iter.o ABSOLUTE
    ..\\..\\..\\..\\..\\..\\components\\libraries\\hardfault\\hardfault_implementation.c 0x00000000   Number         0  hardfault_implementation.o ABSOLUTE
    ..\\..\\..\\..\\..\\..\\components\\libraries\\log\\src\\nrf_log_backend_rtt.c 0x00000000   Number         0  nrf_log_backend_rtt.o ABSOLUTE
    ..\\..\\..\\..\\..\\..\\components\\libraries\\log\\src\\nrf_log_backend_serial.c 0x00000000   Number         0  nrf_log_backend_serial.o ABSOLUTE
    ..\\..\\..\\..\\..\\..\\components\\libraries\\log\\src\\nrf_log_backend_uart.c 0x00000000   Number         0  nrf_log_backend_uart.o ABSOLUTE
    ..\\..\\..\\..\\..\\..\\components\\libraries\\log\\src\\nrf_log_default_backends.c 0x00000000   Number         0  nrf_log_default_backends.o ABSOLUTE
    ..\\..\\..\\..\\..\\..\\components\\libraries\\log\\src\\nrf_log_frontend.c 0x00000000   Number         0  nrf_log_frontend.o ABSOLUTE
    ..\\..\\..\\..\\..\\..\\components\\libraries\\log\\src\\nrf_log_str_formatter.c 0x00000000   Number         0  nrf_log_str_formatter.o ABSOLUTE
    ..\\..\\..\\..\\..\\..\\components\\libraries\\memobj\\nrf_memobj.c 0x00000000   Number         0  nrf_memobj.o ABSOLUTE
    ..\\..\\..\\..\\..\\..\\components\\libraries\\pwr_mgmt\\nrf_pwr_mgmt.c 0x00000000   Number         0  nrf_pwr_mgmt.o ABSOLUTE
    ..\\..\\..\\..\\..\\..\\components\\libraries\\ringbuf\\nrf_ringbuf.c 0x00000000   Number         0  nrf_ringbuf.o ABSOLUTE
    ..\\..\\..\\..\\..\\..\\components\\libraries\\scheduler\\app_scheduler.c 0x00000000   Number         0  app_scheduler.o ABSOLUTE
    ..\\..\\..\\..\\..\\..\\components\\libraries\\sortlist\\nrf_sortlist.c 0x00000000   Number         0  nrf_sortlist.o ABSOLUTE
    ..\\..\\..\\..\\..\\..\\components\\libraries\\strerror\\nrf_strerror.c 0x00000000   Number         0  nrf_strerror.o ABSOLUTE
    ..\\..\\..\\..\\..\\..\\components\\libraries\\timer\\app_timer2.c 0x00000000   Number         0  app_timer2.o ABSOLUTE
    ..\\..\\..\\..\\..\\..\\components\\libraries\\timer\\drv_rtc.c 0x00000000   Number         0  drv_rtc.o ABSOLUTE
    ..\\..\\..\\..\\..\\..\\components\\libraries\\util\\app_error.c 0x00000000   Number         0  app_error.o ABSOLUTE
    ..\\..\\..\\..\\..\\..\\components\\libraries\\util\\app_error_handler_keil.c 0x00000000   Number         0  app_error_handler_keil.o ABSOLUTE
    ..\\..\\..\\..\\..\\..\\components\\libraries\\util\\app_error_weak.c 0x00000000   Number         0  app_error_weak.o ABSOLUTE
    ..\\..\\..\\..\\..\\..\\components\\libraries\\util\\app_util_platform.c 0x00000000   Number         0  app_util_platform.o ABSOLUTE
    ..\\..\\..\\..\\..\\..\\components\\libraries\\util\\nrf_assert.c 0x00000000   Number         0  nrf_assert.o ABSOLUTE
    ..\\..\\..\\..\\..\\..\\components\\softdevice\\common\\nrf_sdh.c 0x00000000   Number         0  nrf_sdh.o ABSOLUTE
    ..\\..\\..\\..\\..\\..\\components\\softdevice\\common\\nrf_sdh_ble.c 0x00000000   Number         0  nrf_sdh_ble.o ABSOLUTE
    ..\\..\\..\\..\\..\\..\\components\\softdevice\\common\\nrf_sdh_soc.c 0x00000000   Number         0  nrf_sdh_soc.o ABSOLUTE
    ..\\..\\..\\..\\..\\..\\external\\fprintf\\nrf_fprintf.c 0x00000000   Number         0  nrf_fprintf.o ABSOLUTE
    ..\\..\\..\\..\\..\\..\\external\\fprintf\\nrf_fprintf_format.c 0x00000000   Number         0  nrf_fprintf_format.o ABSOLUTE
    ..\\..\\..\\..\\..\\..\\external\\segger_rtt\\SEGGER_RTT.c 0x00000000   Number         0  segger_rtt.o ABSOLUTE
    ..\\..\\..\\..\\..\\..\\external\\segger_rtt\\SEGGER_RTT_Syscalls_KEIL.c 0x00000000   Number         0  segger_rtt_syscalls_keil.o ABSOLUTE
    ..\\..\\..\\..\\..\\..\\external\\segger_rtt\\SEGGER_RTT_printf.c 0x00000000   Number         0  segger_rtt_printf.o ABSOLUTE
    ..\\..\\..\\..\\..\\..\\integration\\nrfx\\legacy\\nrf_drv_clock.c 0x00000000   Number         0  nrf_drv_clock.o ABSOLUTE
    ..\\..\\..\\..\\..\\..\\integration\\nrfx\\legacy\\nrf_drv_uart.c 0x00000000   Number         0  nrf_drv_uart.o ABSOLUTE
    ..\\..\\..\\..\\..\\..\\modules\\nrfx\\drivers\\src\\nrfx_clock.c 0x00000000   Number         0  nrfx_clock.o ABSOLUTE
    ..\\..\\..\\..\\..\\..\\modules\\nrfx\\drivers\\src\\nrfx_gpiote.c 0x00000000   Number         0  nrfx_gpiote.o ABSOLUTE
    ..\\..\\..\\..\\..\\..\\modules\\nrfx\\drivers\\src\\nrfx_uart.c 0x00000000   Number         0  nrfx_uart.o ABSOLUTE
    ..\\..\\..\\..\\..\\..\\modules\\nrfx\\drivers\\src\\nrfx_uarte.c 0x00000000   Number         0  nrfx_uarte.o ABSOLUTE
    ..\\..\\..\\..\\..\\..\\modules\\nrfx\\drivers\\src\\prs\\nrfx_prs.c 0x00000000   Number         0  nrfx_prs.o ABSOLUTE
    ..\\..\\..\\..\\..\\..\\modules\\nrfx\\mdk\\system_nrf52810.c 0x00000000   Number         0  system_nrf52810.o ABSOLUTE
    ..\\..\\..\\..\\..\\..\\modules\\nrfx\\soc\\nrfx_atomic.c 0x00000000   Number         0  nrfx_atomic.o ABSOLUTE
    ..\\..\\..\\main.c                       0x00000000   Number         0  main.o ABSOLUTE
    dc.s                                     0x00000000   Number         0  dc.o ABSOLUTE
    handlers.s                               0x00000000   Number         0  handlers.o ABSOLUTE
    init.s                                   0x00000000   Number         0  init.o ABSOLUTE
    RESET                                    0x00019000   Section      512  arm_startup_nrf52810.o(RESET)
    .ARM.Collect$$$$00000000                 0x00019200   Section        0  entry.o(.ARM.Collect$$$$00000000)
    .ARM.Collect$$$$00000001                 0x00019200   Section        4  entry2.o(.ARM.Collect$$$$00000001)
    .ARM.Collect$$$$00000004                 0x00019204   Section        4  entry5.o(.ARM.Collect$$$$00000004)
    .ARM.Collect$$$$00000008                 0x00019208   Section        0  entry7b.o(.ARM.Collect$$$$00000008)
    .ARM.Collect$$$$0000000A                 0x00019208   Section        0  entry8b.o(.ARM.Collect$$$$0000000A)
    .ARM.Collect$$$$0000000B                 0x00019208   Section        8  entry9a.o(.ARM.Collect$$$$0000000B)
    .ARM.Collect$$$$0000000D                 0x00019210   Section        0  entry10a.o(.ARM.Collect$$$$0000000D)
    .ARM.Collect$$$$0000000F                 0x00019210   Section        0  entry11a.o(.ARM.Collect$$$$0000000F)
    .ARM.Collect$$$$00002712                 0x00019210   Section        4  entry2.o(.ARM.Collect$$$$00002712)
    __lit__00000000                          0x00019210   Data           4  entry2.o(.ARM.Collect$$$$00002712)
    .emb_text                                0x00019214   Section      200  nrf_atfifo.o(.emb_text)
    .emb_text                                0x000192dc   Section      226  nrf_atomic.o(.emb_text)
    .text                                    0x000193c0   Section       84  arm_startup_nrf52810.o(.text)
    .text                                    0x00019414   Section        0  llshl.o(.text)
    .text                                    0x00019434   Section        0  ctype_o.o(.text)
    .text                                    0x0001943c   Section        0  memcpya.o(.text)
    .text                                    0x00019460   Section        0  memseta.o(.text)
    .text                                    0x00019484   Section        0  strlen.o(.text)
    .text                                    0x00019494   Section       36  init.o(.text)
    i.GPIOTE_IRQHandler                      0x000194b8   Section        0  nrfx_gpiote.o(i.GPIOTE_IRQHandler)
    i.POWER_CLOCK_IRQHandler                 0x0001961c   Section        0  nrfx_clock.o(i.POWER_CLOCK_IRQHandler)
    i.RTC1_IRQHandler                        0x00019674   Section        0  drv_rtc.o(i.RTC1_IRQHandler)
    i.SWI2_IRQHandler                        0x00019684   Section        0  nrf_sdh.o(i.SWI2_IRQHandler)
    i.SystemInit                             0x00019688   Section        0  system_nrf52810.o(i.SystemInit)
    i.UARTE0_UART0_IRQHandler                0x00019988   Section        0  nrfx_prs.o(i.UARTE0_UART0_IRQHandler)
    i.__scatterload_copy                     0x00019994   Section       14  handlers.o(i.__scatterload_copy)
    i.__scatterload_null                     0x000199a2   Section        2  handlers.o(i.__scatterload_null)
    i.__scatterload_zeroinit                 0x000199a4   Section       14  handlers.o(i.__scatterload_zeroinit)
    i.__sd_nvic_app_accessible_irq           0x000199b4   Section        0  nrf_sdh.o(i.__sd_nvic_app_accessible_irq)
    __sd_nvic_app_accessible_irq             0x000199b5   Thumb Code    32  nrf_sdh.o(i.__sd_nvic_app_accessible_irq)
    i.advertising_init                       0x000199d8   Section        0  main.o(i.advertising_init)
    advertising_init                         0x000199d9   Thumb Code   150  main.o(i.advertising_init)
    i.advertising_start                      0x00019a7c   Section        0  main.o(i.advertising_start)
    advertising_start                        0x00019a7d   Thumb Code    26  main.o(i.advertising_start)
    i.app_button_disable                     0x00019a9c   Section        0  app_button.o(i.app_button_disable)
    i.app_button_enable                      0x00019ae4   Section        0  app_button.o(i.app_button_enable)
    i.app_button_init                        0x00019b08   Section        0  app_button.o(i.app_button_init)
    i.app_error_fault_handler                0x00019b88   Section        0  app_error_weak.o(i.app_error_fault_handler)
    i.app_error_handler_bare                 0x00019c0c   Section        0  app_error.o(i.app_error_handler_bare)
    i.app_timer_cnt_get                      0x00019c24   Section        0  app_timer2.o(i.app_timer_cnt_get)
    i.app_timer_create                       0x00019c30   Section        0  app_timer2.o(i.app_timer_create)
    i.app_timer_init                         0x00019c48   Section        0  app_timer2.o(i.app_timer_init)
    i.app_timer_start                        0x00019ca4   Section        0  app_timer2.o(i.app_timer_start)
    i.app_timer_stop                         0x00019cd4   Section        0  app_timer2.o(i.app_timer_stop)
    i.app_util_critical_region_enter         0x00019ce0   Section        0  app_util_platform.o(i.app_util_critical_region_enter)
    i.app_util_critical_region_exit          0x00019d28   Section        0  app_util_platform.o(i.app_util_critical_region_exit)
    i.apply_config                           0x00019d5c   Section        0  nrfx_uart.o(i.apply_config)
    apply_config                             0x00019d5d   Thumb Code   136  nrfx_uart.o(i.apply_config)
    i.apply_config                           0x00019de4   Section        0  nrfx_uarte.o(i.apply_config)
    apply_config                             0x00019de5   Thumb Code   136  nrfx_uarte.o(i.apply_config)
    i.ble_advdata_encode                     0x00019e6c   Section        0  ble_advdata.o(i.ble_advdata_encode)
    i.ble_conn_params_init                   0x00019ff0   Section        0  ble_conn_params.o(i.ble_conn_params_init)
    i.ble_device_addr_encode                 0x0001a058   Section        0  ble_advdata.o(i.ble_device_addr_encode)
    ble_device_addr_encode                   0x0001a059   Thumb Code    96  ble_advdata.o(i.ble_device_addr_encode)
    i.ble_evt_handler                        0x0001a0b8   Section        0  main.o(i.ble_evt_handler)
    ble_evt_handler                          0x0001a0b9   Thumb Code   206  main.o(i.ble_evt_handler)
    i.ble_evt_handler                        0x0001a1b4   Section        0  ble_conn_params.o(i.ble_evt_handler)
    ble_evt_handler                          0x0001a1b5   Thumb Code   242  ble_conn_params.o(i.ble_evt_handler)
    i.ble_evt_handler                        0x0001a2b0   Section        0  ble_conn_state.o(i.ble_evt_handler)
    ble_evt_handler                          0x0001a2b1   Thumb Code   274  ble_conn_state.o(i.ble_evt_handler)
    i.ble_lbs_init                           0x0001a3c8   Section        0  ble_lbs.o(i.ble_lbs_init)
    i.ble_lbs_on_ble_evt                     0x0001a48c   Section        0  ble_lbs.o(i.ble_lbs_on_ble_evt)
    i.ble_lbs_on_button_change               0x0001a4ba   Section        0  ble_lbs.o(i.ble_lbs_on_button_change)
    i.ble_srv_is_notification_enabled        0x0001a4e8   Section        0  ble_srv_common.o(i.ble_srv_is_notification_enabled)
    i.bsp_board_init                         0x0001a4f0   Section        0  boards.o(i.bsp_board_init)
    i.bsp_board_led_off                      0x0001a530   Section        0  boards.o(i.bsp_board_led_off)
    i.bsp_board_led_on                       0x0001a540   Section        0  boards.o(i.bsp_board_led_on)
    i.bsp_board_leds_off                     0x0001a550   Section        0  boards.o(i.bsp_board_leds_off)
    i.buf_prealloc                           0x0001a558   Section        0  nrf_log_frontend.o(i.buf_prealloc)
    buf_prealloc                             0x0001a559   Thumb Code   138  nrf_log_frontend.o(i.buf_prealloc)
    i.buffer_add                             0x0001a5e8   Section        0  nrf_fprintf_format.o(i.buffer_add)
    buffer_add                               0x0001a5e9   Thumb Code    46  nrf_fprintf_format.o(i.buffer_add)
    i.buffer_is_empty                        0x0001a618   Section        0  nrf_log_frontend.o(i.buffer_is_empty)
    i.button_event_handler                   0x0001a62c   Section        0  main.o(i.button_event_handler)
    button_event_handler                     0x0001a62d   Thumb Code    74  main.o(i.button_event_handler)
    i.button_get                             0x0001a6a4   Section        0  app_button.o(i.button_get)
    button_get                               0x0001a6a5   Thumb Code    36  app_button.o(i.button_get)
    i.channel_free                           0x0001a6cc   Section        0  nrfx_gpiote.o(i.channel_free)
    channel_free                             0x0001a6cd   Thumb Code    22  nrfx_gpiote.o(i.channel_free)
    i.channel_port_alloc                     0x0001a6e8   Section        0  nrfx_gpiote.o(i.channel_port_alloc)
    channel_port_alloc                       0x0001a6e9   Thumb Code    66  nrfx_gpiote.o(i.channel_port_alloc)
    i.channel_port_get                       0x0001a730   Section        0  nrfx_gpiote.o(i.channel_port_get)
    channel_port_get                         0x0001a731   Thumb Code    10  nrfx_gpiote.o(i.channel_port_get)
    i.characteristic_add                     0x0001a740   Section        0  ble_srv_common.o(i.characteristic_add)
    i.clock_clk_started_notify               0x0001a8d0   Section        0  nrf_drv_clock.o(i.clock_clk_started_notify)
    clock_clk_started_notify                 0x0001a8d1   Thumb Code    34  nrf_drv_clock.o(i.clock_clk_started_notify)
    i.clock_irq_handler                      0x0001a8f8   Section        0  nrf_drv_clock.o(i.clock_irq_handler)
    clock_irq_handler                        0x0001a8f9   Thumb Code    24  nrf_drv_clock.o(i.clock_irq_handler)
    i.compare_func                           0x0001a914   Section        0  app_timer2.o(i.compare_func)
    compare_func                             0x0001a915   Thumb Code    24  app_timer2.o(i.compare_func)
    i.conn_handle_list_get                   0x0001a92c   Section        0  ble_conn_state.o(i.conn_handle_list_get)
    i.conn_int_encode                        0x0001a96a   Section        0  ble_advdata.o(i.conn_int_encode)
    conn_int_encode                          0x0001a96b   Thumb Code   136  ble_advdata.o(i.conn_int_encode)
    i.conn_params_error_handler              0x0001a9f2   Section        0  main.o(i.conn_params_error_handler)
    conn_params_error_handler                0x0001a9f3   Thumb Code     4  main.o(i.conn_params_error_handler)
    i.conn_params_negotiation                0x0001a9f8   Section        0  ble_conn_params.o(i.conn_params_negotiation)
    conn_params_negotiation                  0x0001a9f9   Thumb Code    68  ble_conn_params.o(i.conn_params_negotiation)
    i.detection_delay_timeout_handler        0x0001aa40   Section        0  app_button.o(i.detection_delay_timeout_handler)
    detection_delay_timeout_handler          0x0001aa41   Thumb Code    66  app_button.o(i.detection_delay_timeout_handler)
    i.dropped_sat16_get                      0x0001aa88   Section        0  nrf_log_frontend.o(i.dropped_sat16_get)
    dropped_sat16_get                        0x0001aa89   Thumb Code    16  nrf_log_frontend.o(i.dropped_sat16_get)
    i.drv_rtc_compare_disable                0x0001aa9c   Section        0  drv_rtc.o(i.drv_rtc_compare_disable)
    i.drv_rtc_compare_pending                0x0001aab0   Section        0  drv_rtc.o(i.drv_rtc_compare_pending)
    i.drv_rtc_compare_set                    0x0001aabe   Section        0  drv_rtc.o(i.drv_rtc_compare_set)
    i.drv_rtc_counter_get                    0x0001ab0e   Section        0  drv_rtc.o(i.drv_rtc_counter_get)
    i.drv_rtc_init                           0x0001ab18   Section        0  drv_rtc.o(i.drv_rtc_init)
    i.drv_rtc_irq_trigger                    0x0001abec   Section        0  drv_rtc.o(i.drv_rtc_irq_trigger)
    i.drv_rtc_overflow_enable                0x0001ac06   Section        0  drv_rtc.o(i.drv_rtc_overflow_enable)
    i.drv_rtc_overflow_pending               0x0001ac0e   Section        0  drv_rtc.o(i.drv_rtc_overflow_pending)
    i.drv_rtc_start                          0x0001ac16   Section        0  drv_rtc.o(i.drv_rtc_start)
    i.drv_rtc_stop                           0x0001ac1e   Section        0  drv_rtc.o(i.drv_rtc_stop)
    i.drv_rtc_windowed_compare_set           0x0001ac26   Section        0  drv_rtc.o(i.drv_rtc_windowed_compare_set)
    i.errata_136                             0x0001ad04   Section        0  system_nrf52810.o(i.errata_136)
    errata_136                               0x0001ad05   Thumb Code    70  system_nrf52810.o(i.errata_136)
    i.errata_31                              0x0001ad50   Section        0  system_nrf52810.o(i.errata_31)
    errata_31                                0x0001ad51   Thumb Code    70  system_nrf52810.o(i.errata_31)
    i.errata_36                              0x0001ad9c   Section        0  system_nrf52810.o(i.errata_36)
    errata_36                                0x0001ad9d   Thumb Code    70  system_nrf52810.o(i.errata_36)
    i.evt_enable                             0x0001ade8   Section        0  drv_rtc.o(i.evt_enable)
    evt_enable                               0x0001ade9   Thumb Code    18  drv_rtc.o(i.evt_enable)
    i.evt_handle                             0x0001adfc   Section        0  app_button.o(i.evt_handle)
    i.evt_pending                            0x0001aedc   Section        0  drv_rtc.o(i.evt_pending)
    evt_pending                              0x0001aedd   Thumb Code    20  drv_rtc.o(i.evt_pending)
    i.flag_toggle                            0x0001aef0   Section        0  ble_conn_state.o(i.flag_toggle)
    flag_toggle                              0x0001aef1   Thumb Code    10  ble_conn_state.o(i.flag_toggle)
    i.get_now                                0x0001aefc   Section        0  app_timer2.o(i.get_now)
    get_now                                  0x0001aefd   Thumb Code    46  app_timer2.o(i.get_now)
    i.gpiote_event_handler                   0x0001af30   Section        0  app_button.o(i.gpiote_event_handler)
    gpiote_event_handler                     0x0001af31   Thumb Code    56  app_button.o(i.gpiote_event_handler)
    i.instance_get                           0x0001af6c   Section        0  ble_conn_params.o(i.instance_get)
    instance_get                             0x0001af6d   Thumb Code    14  ble_conn_params.o(i.instance_get)
    i.int_print                              0x0001af80   Section        0  nrf_fprintf_format.o(i.int_print)
    int_print                                0x0001af81   Thumb Code   166  nrf_fprintf_format.o(i.int_print)
    i.interrupts_enable                      0x0001b028   Section        0  nrfx_uarte.o(i.interrupts_enable)
    interrupts_enable                        0x0001b029   Thumb Code   128  nrfx_uarte.o(i.interrupts_enable)
    i.invalid_packets_omit                   0x0001b0ac   Section        0  nrf_log_frontend.o(i.invalid_packets_omit)
    invalid_packets_omit                     0x0001b0ad   Thumb Code    52  nrf_log_frontend.o(i.invalid_packets_omit)
    i.is_conn_params_ok                      0x0001b0e0   Section        0  ble_conn_params.o(i.is_conn_params_ok)
    is_conn_params_ok                        0x0001b0e1   Thumb Code    68  ble_conn_params.o(i.is_conn_params_ok)
    i.led_write_handler                      0x0001b124   Section        0  main.o(i.led_write_handler)
    led_write_handler                        0x0001b125   Thumb Code    48  main.o(i.led_write_handler)
    i.link_init                              0x0001b184   Section        0  nrf_ble_gatt.o(i.link_init)
    link_init                                0x0001b185   Thumb Code    14  nrf_ble_gatt.o(i.link_init)
    i.log_skip                               0x0001b194   Section        0  nrf_log_frontend.o(i.log_skip)
    log_skip                                 0x0001b195   Thumb Code   148  nrf_log_frontend.o(i.log_skip)
    i.main                                   0x0001b230   Section        0  main.o(i.main)
    i.manuf_specific_data_encode             0x0001b3c4   Section        0  ble_advdata.o(i.manuf_specific_data_encode)
    manuf_specific_data_encode               0x0001b3c5   Thumb Code   100  ble_advdata.o(i.manuf_specific_data_encode)
    i.memobj_op                              0x0001b428   Section        0  nrf_memobj.o(i.memobj_op)
    memobj_op                                0x0001b429   Thumb Code   126  nrf_memobj.o(i.memobj_op)
    i.module_idx_get                         0x0001b4a8   Section        0  nrf_log_frontend.o(i.module_idx_get)
    module_idx_get                           0x0001b4a9   Thumb Code    42  nrf_log_frontend.o(i.module_idx_get)
    i.name_encode                            0x0001b4d8   Section        0  ble_advdata.o(i.name_encode)
    name_encode                              0x0001b4d9   Thumb Code   166  ble_advdata.o(i.name_encode)
    i.nrf_atfifo_init                        0x0001b57e   Section        0  nrf_atfifo.o(i.nrf_atfifo_init)
    i.nrf_atfifo_item_alloc                  0x0001b5a4   Section        0  nrf_atfifo.o(i.nrf_atfifo_item_alloc)
    i.nrf_atfifo_item_free                   0x0001b5ba   Section        0  nrf_atfifo.o(i.nrf_atfifo_item_free)
    i.nrf_atfifo_item_get                    0x0001b5d0   Section        0  nrf_atfifo.o(i.nrf_atfifo_item_get)
    i.nrf_atfifo_item_put                    0x0001b5e6   Section        0  nrf_atfifo.o(i.nrf_atfifo_item_put)
    i.nrf_atflags_clear                      0x0001b5fc   Section        0  nrf_atflags.o(i.nrf_atflags_clear)
    i.nrf_atflags_get                        0x0001b612   Section        0  nrf_atflags.o(i.nrf_atflags_get)
    i.nrf_atflags_set                        0x0001b628   Section        0  nrf_atflags.o(i.nrf_atflags_set)
    i.nrf_atomic_flag_clear_fetch            0x0001b63c   Section        0  nrf_atomic.o(i.nrf_atomic_flag_clear_fetch)
    i.nrf_atomic_flag_set                    0x0001b642   Section        0  nrf_atomic.o(i.nrf_atomic_flag_set)
    i.nrf_atomic_u32_add                     0x0001b648   Section        0  nrf_atomic.o(i.nrf_atomic_u32_add)
    i.nrf_atomic_u32_and                     0x0001b654   Section        0  nrf_atomic.o(i.nrf_atomic_u32_and)
    i.nrf_atomic_u32_fetch_and               0x0001b660   Section        0  nrf_atomic.o(i.nrf_atomic_u32_fetch_and)
    i.nrf_atomic_u32_fetch_store             0x0001b66a   Section        0  nrf_atomic.o(i.nrf_atomic_u32_fetch_store)
    i.nrf_atomic_u32_or                      0x0001b674   Section        0  nrf_atomic.o(i.nrf_atomic_u32_or)
    i.nrf_atomic_u32_sub                     0x0001b680   Section        0  nrf_atomic.o(i.nrf_atomic_u32_sub)
    i.nrf_balloc_alloc                       0x0001b68c   Section        0  nrf_balloc.o(i.nrf_balloc_alloc)
    i.nrf_balloc_free                        0x0001b6d0   Section        0  nrf_balloc.o(i.nrf_balloc_free)
    i.nrf_balloc_init                        0x0001b700   Section        0  nrf_balloc.o(i.nrf_balloc_init)
    i.nrf_bitmask_bit_is_set                 0x0001b730   Section        0  nrfx_gpiote.o(i.nrf_bitmask_bit_is_set)
    nrf_bitmask_bit_is_set                   0x0001b731   Thumb Code    16  nrfx_gpiote.o(i.nrf_bitmask_bit_is_set)
    i.nrf_bitmask_bit_set                    0x0001b740   Section        0  nrfx_gpiote.o(i.nrf_bitmask_bit_set)
    nrf_bitmask_bit_set                      0x0001b741   Thumb Code    20  nrfx_gpiote.o(i.nrf_bitmask_bit_set)
    i.nrf_ble_gatt_init                      0x0001b754   Section        0  nrf_ble_gatt.o(i.nrf_ble_gatt_init)
    i.nrf_ble_gatt_on_ble_evt                0x0001b778   Section        0  nrf_ble_gatt.o(i.nrf_ble_gatt_on_ble_evt)
    i.nrf_ble_qwr_conn_handle_assign         0x0001b86c   Section        0  nrf_ble_qwr.o(i.nrf_ble_qwr_conn_handle_assign)
    i.nrf_ble_qwr_init                       0x0001b882   Section        0  nrf_ble_qwr.o(i.nrf_ble_qwr_init)
    i.nrf_ble_qwr_on_ble_evt                 0x0001b8a6   Section        0  nrf_ble_qwr.o(i.nrf_ble_qwr_on_ble_evt)
    i.nrf_clock_event_check                  0x0001b95c   Section        0  nrfx_clock.o(i.nrf_clock_event_check)
    nrf_clock_event_check                    0x0001b95d   Thumb Code    14  nrfx_clock.o(i.nrf_clock_event_check)
    i.nrf_clock_event_clear                  0x0001b96a   Section        0  nrfx_clock.o(i.nrf_clock_event_clear)
    nrf_clock_event_clear                    0x0001b96b   Thumb Code    16  nrfx_clock.o(i.nrf_clock_event_clear)
    i.nrf_drv_clock_init                     0x0001b97c   Section        0  nrf_drv_clock.o(i.nrf_drv_clock_init)
    i.nrf_drv_clock_lfclk_release            0x0001b9b4   Section        0  nrf_drv_clock.o(i.nrf_drv_clock_lfclk_release)
    i.nrf_drv_uart_init                      0x0001b9e4   Section        0  nrf_drv_uart.o(i.nrf_drv_uart_init)
    i.nrf_fprintf                            0x0001ba4c   Section        0  nrf_fprintf.o(i.nrf_fprintf)
    i.nrf_fprintf_buffer_flush               0x0001ba66   Section        0  nrf_fprintf.o(i.nrf_fprintf_buffer_flush)
    i.nrf_fprintf_fmt                        0x0001ba7e   Section        0  nrf_fprintf_format.o(i.nrf_fprintf_fmt)
    i.nrf_gpio_cfg                           0x0001bc58   Section        0  boards.o(i.nrf_gpio_cfg)
    nrf_gpio_cfg                             0x0001bc59   Thumb Code    36  boards.o(i.nrf_gpio_cfg)
    i.nrf_gpio_cfg                           0x0001bc7c   Section        0  nrfx_gpiote.o(i.nrf_gpio_cfg)
    nrf_gpio_cfg                             0x0001bc7d   Thumb Code    36  nrfx_gpiote.o(i.nrf_gpio_cfg)
    i.nrf_gpio_cfg                           0x0001bca0   Section        0  nrfx_uart.o(i.nrf_gpio_cfg)
    nrf_gpio_cfg                             0x0001bca1   Thumb Code    36  nrfx_uart.o(i.nrf_gpio_cfg)
    i.nrf_gpio_cfg                           0x0001bcc4   Section        0  nrfx_uarte.o(i.nrf_gpio_cfg)
    nrf_gpio_cfg                             0x0001bcc5   Thumb Code    36  nrfx_uarte.o(i.nrf_gpio_cfg)
    i.nrf_gpio_cfg_default                   0x0001bce8   Section        0  nrfx_uart.o(i.nrf_gpio_cfg_default)
    nrf_gpio_cfg_default                     0x0001bce9   Thumb Code    18  nrfx_uart.o(i.nrf_gpio_cfg_default)
    i.nrf_gpio_cfg_default                   0x0001bcfa   Section        0  nrfx_uarte.o(i.nrf_gpio_cfg_default)
    nrf_gpio_cfg_default                     0x0001bcfb   Thumb Code    18  nrfx_uarte.o(i.nrf_gpio_cfg_default)
    i.nrf_gpio_cfg_input                     0x0001bd0c   Section        0  nrfx_uart.o(i.nrf_gpio_cfg_input)
    nrf_gpio_cfg_input                       0x0001bd0d   Thumb Code    18  nrfx_uart.o(i.nrf_gpio_cfg_input)
    i.nrf_gpio_cfg_input                     0x0001bd1e   Section        0  nrfx_uarte.o(i.nrf_gpio_cfg_input)
    nrf_gpio_cfg_input                       0x0001bd1f   Thumb Code    18  nrfx_uarte.o(i.nrf_gpio_cfg_input)
    i.nrf_gpio_cfg_output                    0x0001bd30   Section        0  nrfx_uart.o(i.nrf_gpio_cfg_output)
    nrf_gpio_cfg_output                      0x0001bd31   Thumb Code    20  nrfx_uart.o(i.nrf_gpio_cfg_output)
    i.nrf_gpio_cfg_output                    0x0001bd44   Section        0  nrfx_uarte.o(i.nrf_gpio_cfg_output)
    nrf_gpio_cfg_output                      0x0001bd45   Thumb Code    20  nrfx_uarte.o(i.nrf_gpio_cfg_output)
    i.nrf_gpio_cfg_sense_set                 0x0001bd58   Section        0  nrfx_gpiote.o(i.nrf_gpio_cfg_sense_set)
    nrf_gpio_cfg_sense_set                   0x0001bd59   Thumb Code    34  nrfx_gpiote.o(i.nrf_gpio_cfg_sense_set)
    i.nrf_gpio_pin_write                     0x0001bd7a   Section        0  boards.o(i.nrf_gpio_pin_write)
    nrf_gpio_pin_write                       0x0001bd7b   Thumb Code    22  boards.o(i.nrf_gpio_pin_write)
    i.nrf_gpio_ports_read                    0x0001bd90   Section        0  nrfx_gpiote.o(i.nrf_gpio_ports_read)
    nrf_gpio_ports_read                      0x0001bd91   Thumb Code    34  nrfx_gpiote.o(i.nrf_gpio_ports_read)
    i.nrf_gpiote_event_clear                 0x0001bdb8   Section        0  nrfx_gpiote.o(i.nrf_gpiote_event_clear)
    nrf_gpiote_event_clear                   0x0001bdb9   Thumb Code    16  nrfx_gpiote.o(i.nrf_gpiote_event_clear)
    i.nrf_gpiote_event_is_set                0x0001bdcc   Section        0  nrfx_gpiote.o(i.nrf_gpiote_event_is_set)
    nrf_gpiote_event_is_set                  0x0001bdcd   Thumb Code    12  nrfx_gpiote.o(i.nrf_gpiote_event_is_set)
    i.nrf_log_backend_add                    0x0001bddc   Section        0  nrf_log_frontend.o(i.nrf_log_backend_add)
    i.nrf_log_backend_serial_put             0x0001be38   Section        0  nrf_log_backend_serial.o(i.nrf_log_backend_serial_put)
    i.nrf_log_backend_uart_flush             0x0001bf00   Section        0  nrf_log_backend_uart.o(i.nrf_log_backend_uart_flush)
    nrf_log_backend_uart_flush               0x0001bf01   Thumb Code     2  nrf_log_backend_uart.o(i.nrf_log_backend_uart_flush)
    i.nrf_log_backend_uart_init              0x0001bf02   Section        0  nrf_log_backend_uart.o(i.nrf_log_backend_uart_init)
    i.nrf_log_backend_uart_panic_set         0x0001bf08   Section        0  nrf_log_backend_uart.o(i.nrf_log_backend_uart_panic_set)
    nrf_log_backend_uart_panic_set           0x0001bf09   Thumb Code    36  nrf_log_backend_uart.o(i.nrf_log_backend_uart_panic_set)
    i.nrf_log_backend_uart_put               0x0001bf34   Section        0  nrf_log_backend_uart.o(i.nrf_log_backend_uart_put)
    nrf_log_backend_uart_put                 0x0001bf35   Thumb Code    16  nrf_log_backend_uart.o(i.nrf_log_backend_uart_put)
    i.nrf_log_color_id_get                   0x0001bf4c   Section        0  nrf_log_frontend.o(i.nrf_log_color_id_get)
    i.nrf_log_default_backends_init          0x0001bf7c   Section        0  nrf_log_default_backends.o(i.nrf_log_default_backends_init)
    i.nrf_log_frontend_dequeue               0x0001bf98   Section        0  nrf_log_frontend.o(i.nrf_log_frontend_dequeue)
    i.nrf_log_frontend_std_0                 0x0001c1cc   Section        0  nrf_log_frontend.o(i.nrf_log_frontend_std_0)
    i.nrf_log_frontend_std_1                 0x0001c1d4   Section        0  nrf_log_frontend.o(i.nrf_log_frontend_std_1)
    i.nrf_log_frontend_std_2                 0x0001c1e2   Section        0  nrf_log_frontend.o(i.nrf_log_frontend_std_2)
    i.nrf_log_hexdump_entry_process          0x0001c1f4   Section        0  nrf_log_str_formatter.o(i.nrf_log_hexdump_entry_process)
    i.nrf_log_init                           0x0001c2a4   Section        0  nrf_log_frontend.o(i.nrf_log_init)
    i.nrf_log_module_cnt_get                 0x0001c2e0   Section        0  nrf_log_frontend.o(i.nrf_log_module_cnt_get)
    i.nrf_log_module_name_get                0x0001c2f4   Section        0  nrf_log_frontend.o(i.nrf_log_module_name_get)
    i.nrf_log_panic                          0x0001c310   Section        0  nrf_log_frontend.o(i.nrf_log_panic)
    i.nrf_log_std_entry_process              0x0001c33c   Section        0  nrf_log_str_formatter.o(i.nrf_log_std_entry_process)
    i.nrf_memobj_alloc                       0x0001c3f2   Section        0  nrf_memobj.o(i.nrf_memobj_alloc)
    i.nrf_memobj_free                        0x0001c452   Section        0  nrf_memobj.o(i.nrf_memobj_free)
    i.nrf_memobj_get                         0x0001c484   Section        0  nrf_memobj.o(i.nrf_memobj_get)
    i.nrf_memobj_pool_init                   0x0001c48c   Section        0  nrf_memobj.o(i.nrf_memobj_pool_init)
    i.nrf_memobj_put                         0x0001c490   Section        0  nrf_memobj.o(i.nrf_memobj_put)
    i.nrf_memobj_read                        0x0001c4ae   Section        0  nrf_memobj.o(i.nrf_memobj_read)
    i.nrf_memobj_write                       0x0001c4be   Section        0  nrf_memobj.o(i.nrf_memobj_write)
    i.nrf_pwr_mgmt_init                      0x0001c4d0   Section        0  nrf_pwr_mgmt.o(i.nrf_pwr_mgmt_init)
    i.nrf_pwr_mgmt_run                       0x0001c4f8   Section        0  nrf_pwr_mgmt.o(i.nrf_pwr_mgmt_run)
    i.nrf_qwr_error_handler                  0x0001c50c   Section        0  main.o(i.nrf_qwr_error_handler)
    nrf_qwr_error_handler                    0x0001c50d   Thumb Code     4  main.o(i.nrf_qwr_error_handler)
    i.nrf_ringbuf_init                       0x0001c510   Section        0  nrf_ringbuf.o(i.nrf_ringbuf_init)
    i.nrf_rtc_event_clear                    0x0001c52c   Section        0  drv_rtc.o(i.nrf_rtc_event_clear)
    nrf_rtc_event_clear                      0x0001c52d   Thumb Code    12  drv_rtc.o(i.nrf_rtc_event_clear)
    i.nrf_sdh_ble_app_ram_start_get          0x0001c538   Section        0  nrf_sdh_ble.o(i.nrf_sdh_ble_app_ram_start_get)
    i.nrf_sdh_ble_default_cfg_set            0x0001c54c   Section        0  nrf_sdh_ble.o(i.nrf_sdh_ble_default_cfg_set)
    i.nrf_sdh_ble_enable                     0x0001c644   Section        0  nrf_sdh_ble.o(i.nrf_sdh_ble_enable)
    i.nrf_sdh_ble_evts_poll                  0x0001c774   Section        0  nrf_sdh_ble.o(i.nrf_sdh_ble_evts_poll)
    nrf_sdh_ble_evts_poll                    0x0001c775   Thumb Code    82  nrf_sdh_ble.o(i.nrf_sdh_ble_evts_poll)
    i.nrf_sdh_enable_request                 0x0001c7d0   Section        0  nrf_sdh.o(i.nrf_sdh_enable_request)
    i.nrf_sdh_evts_poll                      0x0001c844   Section        0  nrf_sdh.o(i.nrf_sdh_evts_poll)
    i.nrf_sdh_is_enabled                     0x0001c868   Section        0  nrf_sdh.o(i.nrf_sdh_is_enabled)
    i.nrf_sdh_soc_evts_poll                  0x0001c874   Section        0  nrf_sdh_soc.o(i.nrf_sdh_soc_evts_poll)
    nrf_sdh_soc_evts_poll                    0x0001c875   Thumb Code    56  nrf_sdh_soc.o(i.nrf_sdh_soc_evts_poll)
    i.nrf_section_iter_init                  0x0001c8b0   Section        0  nrf_section_iter.o(i.nrf_section_iter_init)
    i.nrf_section_iter_item_set              0x0001c8ba   Section        0  nrf_section_iter.o(i.nrf_section_iter_item_set)
    nrf_section_iter_item_set                0x0001c8bb   Thumb Code    36  nrf_section_iter.o(i.nrf_section_iter_item_set)
    i.nrf_section_iter_next                  0x0001c8de   Section        0  nrf_section_iter.o(i.nrf_section_iter_next)
    i.nrf_sortlist_add                       0x0001c8fe   Section        0  nrf_sortlist.o(i.nrf_sortlist_add)
    i.nrf_sortlist_peek                      0x0001c920   Section        0  nrf_sortlist.o(i.nrf_sortlist_peek)
    i.nrf_sortlist_pop                       0x0001c926   Section        0  nrf_sortlist.o(i.nrf_sortlist_pop)
    i.nrf_sortlist_remove                    0x0001c934   Section        0  nrf_sortlist.o(i.nrf_sortlist_remove)
    i.nrf_strerror_find                      0x0001c954   Section        0  nrf_strerror.o(i.nrf_strerror_find)
    i.nrf_strerror_get                       0x0001c98c   Section        0  nrf_strerror.o(i.nrf_strerror_get)
    i.nrf_uart_event_check                   0x0001c9a0   Section        0  nrfx_uart.o(i.nrf_uart_event_check)
    nrf_uart_event_check                     0x0001c9a1   Thumb Code    10  nrfx_uart.o(i.nrf_uart_event_check)
    i.nrf_uart_event_clear                   0x0001c9aa   Section        0  nrfx_uart.o(i.nrf_uart_event_clear)
    nrf_uart_event_clear                     0x0001c9ab   Thumb Code    12  nrfx_uart.o(i.nrf_uart_event_clear)
    i.nrf_uart_int_enable_check              0x0001c9b6   Section        0  nrfx_uart.o(i.nrf_uart_int_enable_check)
    nrf_uart_int_enable_check                0x0001c9b7   Thumb Code    12  nrfx_uart.o(i.nrf_uart_int_enable_check)
    i.nrf_uarte_event_check                  0x0001c9c2   Section        0  nrfx_uarte.o(i.nrf_uarte_event_check)
    nrf_uarte_event_check                    0x0001c9c3   Thumb Code    10  nrfx_uarte.o(i.nrf_uarte_event_check)
    i.nrf_uarte_event_clear                  0x0001c9cc   Section        0  nrfx_uarte.o(i.nrf_uarte_event_clear)
    nrf_uarte_event_clear                    0x0001c9cd   Thumb Code    12  nrfx_uarte.o(i.nrf_uarte_event_clear)
    i.nrfx_clock_enable                      0x0001c9d8   Section        0  nrfx_clock.o(i.nrfx_clock_enable)
    i.nrfx_clock_init                        0x0001ca04   Section        0  nrfx_clock.o(i.nrfx_clock_init)
    i.nrfx_clock_lfclk_stop                  0x0001ca24   Section        0  nrfx_clock.o(i.nrfx_clock_lfclk_stop)
    i.nrfx_coredep_delay_us                  0x0001ca40   Section        0  drv_rtc.o(i.nrfx_coredep_delay_us)
    nrfx_coredep_delay_us                    0x0001ca41   Thumb Code    12  drv_rtc.o(i.nrfx_coredep_delay_us)
    i.nrfx_gpiote_in_event_disable           0x0001ca50   Section        0  nrfx_gpiote.o(i.nrfx_gpiote_in_event_disable)
    i.nrfx_gpiote_in_event_enable            0x0001ca98   Section        0  nrfx_gpiote.o(i.nrfx_gpiote_in_event_enable)
    i.nrfx_gpiote_in_init                    0x0001cb3c   Section        0  nrfx_gpiote.o(i.nrfx_gpiote_in_init)
    i.nrfx_gpiote_in_is_set                  0x0001cc0c   Section        0  nrfx_gpiote.o(i.nrfx_gpiote_in_is_set)
    i.nrfx_gpiote_init                       0x0001cc20   Section        0  nrfx_gpiote.o(i.nrfx_gpiote_init)
    i.nrfx_gpiote_is_init                    0x0001cc8c   Section        0  nrfx_gpiote.o(i.nrfx_gpiote_is_init)
    i.nrfx_is_in_ram                         0x0001cca0   Section        0  nrfx_uarte.o(i.nrfx_is_in_ram)
    nrfx_is_in_ram                           0x0001cca1   Thumb Code    16  nrfx_uarte.o(i.nrfx_is_in_ram)
    i.nrfx_prs_acquire                       0x0001ccb0   Section        0  nrfx_prs.o(i.nrfx_prs_acquire)
    i.nrfx_prs_release                       0x0001ccea   Section        0  nrfx_prs.o(i.nrfx_prs_release)
    i.nrfx_uart_0_irq_handler                0x0001ccfc   Section        0  nrfx_uart.o(i.nrfx_uart_0_irq_handler)
    i.nrfx_uart_init                         0x0001cd0c   Section        0  nrfx_uart.o(i.nrfx_uart_init)
    i.nrfx_uart_tx                           0x0001cddc   Section        0  nrfx_uart.o(i.nrfx_uart_tx)
    i.nrfx_uart_tx_in_progress               0x0001ce84   Section        0  nrfx_uart.o(i.nrfx_uart_tx_in_progress)
    i.nrfx_uart_uninit                       0x0001cea4   Section        0  nrfx_uart.o(i.nrfx_uart_uninit)
    i.nrfx_uarte_0_irq_handler               0x0001cf58   Section        0  nrfx_uarte.o(i.nrfx_uarte_0_irq_handler)
    i.nrfx_uarte_init                        0x0001cf68   Section        0  nrfx_uarte.o(i.nrfx_uarte_init)
    i.nrfx_uarte_tx                          0x0001cfd4   Section        0  nrfx_uarte.o(i.nrfx_uarte_tx)
    i.nrfx_uarte_tx_in_progress              0x0001d080   Section        0  nrfx_uarte.o(i.nrfx_uarte_tx_in_progress)
    i.nrfx_uarte_uninit                      0x0001d09c   Section        0  nrfx_uarte.o(i.nrfx_uarte_uninit)
    i.on_conn_params_evt                     0x0001d17c   Section        0  main.o(i.on_conn_params_evt)
    on_conn_params_evt                       0x0001d17d   Thumb Code    24  main.o(i.on_conn_params_evt)
    i.on_connected_evt                       0x0001d198   Section        0  nrf_ble_gatt.o(i.on_connected_evt)
    on_connected_evt                         0x0001d199   Thumb Code    80  nrf_ble_gatt.o(i.on_connected_evt)
    i.on_exchange_mtu_request_evt            0x0001d224   Section        0  nrf_ble_gatt.o(i.on_exchange_mtu_request_evt)
    on_exchange_mtu_request_evt              0x0001d225   Thumb Code   114  nrf_ble_gatt.o(i.on_exchange_mtu_request_evt)
    i.pin_in_use_by_port                     0x0001d2d4   Section        0  nrfx_gpiote.o(i.pin_in_use_by_port)
    pin_in_use_by_port                       0x0001d2d5   Thumb Code    20  nrfx_gpiote.o(i.pin_in_use_by_port)
    i.pin_in_use_by_te                       0x0001d2ec   Section        0  nrfx_gpiote.o(i.pin_in_use_by_te)
    pin_in_use_by_te                         0x0001d2ed   Thumb Code    20  nrfx_gpiote.o(i.pin_in_use_by_te)
    i.postfix_process                        0x0001d304   Section        0  nrf_log_str_formatter.o(i.postfix_process)
    postfix_process                          0x0001d305   Thumb Code    48  nrf_log_str_formatter.o(i.postfix_process)
    i.prefix_process                         0x0001d340   Section        0  nrf_log_str_formatter.o(i.prefix_process)
    prefix_process                           0x0001d341   Thumb Code    90  nrf_log_str_formatter.o(i.prefix_process)
    i.prs_box_get                            0x0001d3d8   Section        0  nrfx_prs.o(i.prs_box_get)
    prs_box_get                              0x0001d3d9   Thumb Code    14  nrfx_prs.o(i.prs_box_get)
    i.rtc_irq                                0x0001d3f0   Section        0  app_timer2.o(i.rtc_irq)
    rtc_irq                                  0x0001d3f1   Thumb Code    88  app_timer2.o(i.rtc_irq)
    i.rtc_schedule                           0x0001d44c   Section        0  app_timer2.o(i.rtc_schedule)
    rtc_schedule                             0x0001d44d   Thumb Code    92  app_timer2.o(i.rtc_schedule)
    i.rtc_update                             0x0001d4b0   Section        0  app_timer2.o(i.rtc_update)
    rtc_update                               0x0001d4b1   Thumb Code   108  app_timer2.o(i.rtc_update)
    i.rx_byte                                0x0001d524   Section        0  nrfx_uart.o(i.rx_byte)
    rx_byte                                  0x0001d525   Thumb Code    50  nrfx_uart.o(i.rx_byte)
    i.rx_done_event                          0x0001d556   Section        0  nrfx_uart.o(i.rx_done_event)
    rx_done_event                            0x0001d557   Thumb Code    22  nrfx_uart.o(i.rx_done_event)
    i.rx_done_event                          0x0001d56c   Section        0  nrfx_uarte.o(i.rx_done_event)
    rx_done_event                            0x0001d56d   Thumb Code    22  nrfx_uarte.o(i.rx_done_event)
    i.sd_state_evt_handler                   0x0001d584   Section        0  nrf_drv_clock.o(i.sd_state_evt_handler)
    sd_state_evt_handler                     0x0001d585   Thumb Code    76  nrf_drv_clock.o(i.sd_state_evt_handler)
    i.sdh_request_observer_notify            0x0001d5d4   Section        0  nrf_sdh.o(i.sdh_request_observer_notify)
    sdh_request_observer_notify              0x0001d5d5   Thumb Code    44  nrf_sdh.o(i.sdh_request_observer_notify)
    i.sdh_state_observer_notify              0x0001d604   Section        0  nrf_sdh.o(i.sdh_state_observer_notify)
    sdh_state_observer_notify                0x0001d605   Thumb Code    38  nrf_sdh.o(i.sdh_state_observer_notify)
    i.send_error_evt                         0x0001d630   Section        0  ble_conn_params.o(i.send_error_evt)
    send_error_evt                           0x0001d631   Thumb Code    12  ble_conn_params.o(i.send_error_evt)
    i.serial_tx                              0x0001d640   Section        0  nrf_log_backend_uart.o(i.serial_tx)
    serial_tx                                0x0001d641   Thumb Code    54  nrf_log_backend_uart.o(i.serial_tx)
    i.service_data_encode                    0x0001d680   Section        0  ble_advdata.o(i.service_data_encode)
    service_data_encode                      0x0001d681   Thumb Code   136  ble_advdata.o(i.service_data_encode)
    i.set_security_req                       0x0001d708   Section        0  ble_srv_common.o(i.set_security_req)
    set_security_req                         0x0001d709   Thumb Code    48  ble_srv_common.o(i.set_security_req)
    i.soc_evt_handler                        0x0001d738   Section        0  nrf_drv_clock.o(i.soc_evt_handler)
    soc_evt_handler                          0x0001d739   Thumb Code    18  nrf_drv_clock.o(i.soc_evt_handler)
    i.softdevices_evt_irq_enable             0x0001d750   Section        0  nrf_sdh.o(i.softdevices_evt_irq_enable)
    softdevices_evt_irq_enable               0x0001d751   Thumb Code    80  nrf_sdh.o(i.softdevices_evt_irq_enable)
    i.sortlist_pop                           0x0001d7a8   Section        0  app_timer2.o(i.sortlist_pop)
    sortlist_pop                             0x0001d7a9   Thumb Code     6  app_timer2.o(i.sortlist_pop)
    i.state_set                              0x0001d7b4   Section        0  app_button.o(i.state_set)
    state_set                                0x0001d7b5   Thumb Code    44  app_button.o(i.state_set)
    i.std_n                                  0x0001d7e4   Section        0  nrf_log_frontend.o(i.std_n)
    std_n                                    0x0001d7e5   Thumb Code   136  nrf_log_frontend.o(i.std_n)
    i.timer_expire                           0x0001d870   Section        0  app_timer2.o(i.timer_expire)
    timer_expire                             0x0001d871   Thumb Code    80  app_timer2.o(i.timer_expire)
    i.timer_req_process                      0x0001d8c8   Section        0  app_timer2.o(i.timer_req_process)
    timer_req_process                        0x0001d8c9   Thumb Code   110  app_timer2.o(i.timer_req_process)
    i.timer_req_schedule                     0x0001d940   Section        0  app_timer2.o(i.timer_req_schedule)
    timer_req_schedule                       0x0001d941   Thumb Code    46  app_timer2.o(i.timer_req_schedule)
    i.timer_start                            0x0001d978   Section        0  app_button.o(i.timer_start)
    timer_start                              0x0001d979   Thumb Code    16  app_button.o(i.timer_start)
    i.tx_byte                                0x0001d990   Section        0  nrfx_uart.o(i.tx_byte)
    tx_byte                                  0x0001d991   Thumb Code    32  nrfx_uart.o(i.tx_byte)
    i.tx_done_event                          0x0001d9b0   Section        0  nrfx_uart.o(i.tx_done_event)
    tx_done_event                            0x0001d9b1   Thumb Code    26  nrfx_uart.o(i.tx_done_event)
    i.tx_done_event                          0x0001d9ca   Section        0  nrfx_uarte.o(i.tx_done_event)
    tx_done_event                            0x0001d9cb   Thumb Code    26  nrfx_uarte.o(i.tx_done_event)
    i.uart_evt_handler                       0x0001d9e4   Section        0  nrf_drv_uart.o(i.uart_evt_handler)
    uart_evt_handler                         0x0001d9e5   Thumb Code    42  nrf_drv_uart.o(i.uart_evt_handler)
    i.uart_evt_handler                       0x0001da14   Section        0  nrf_log_backend_uart.o(i.uart_evt_handler)
    uart_evt_handler                         0x0001da15   Thumb Code     8  nrf_log_backend_uart.o(i.uart_evt_handler)
    i.uart_init                              0x0001da20   Section        0  nrf_log_backend_uart.o(i.uart_init)
    uart_init                                0x0001da21   Thumb Code    66  nrf_log_backend_uart.o(i.uart_init)
    i.uart_irq_handler                       0x0001da70   Section        0  nrfx_uart.o(i.uart_irq_handler)
    uart_irq_handler                         0x0001da71   Thumb Code   298  nrfx_uart.o(i.uart_irq_handler)
    i.uarte_evt_handler                      0x0001db9c   Section        0  nrf_drv_uart.o(i.uarte_evt_handler)
    uarte_evt_handler                        0x0001db9d   Thumb Code    42  nrf_drv_uart.o(i.uarte_evt_handler)
    i.uarte_irq_handler                      0x0001dbcc   Section        0  nrfx_uarte.o(i.uarte_irq_handler)
    uarte_irq_handler                        0x0001dbcd   Thumb Code   274  nrfx_uarte.o(i.uarte_irq_handler)
    i.uint16_encode                          0x0001dcde   Section        0  ble_advdata.o(i.uint16_encode)
    uint16_encode                            0x0001dcdf   Thumb Code    10  ble_advdata.o(i.uint16_encode)
    i.unsigned_print                         0x0001dce8   Section        0  nrf_fprintf_format.o(i.unsigned_print)
    unsigned_print                           0x0001dce9   Thumb Code   176  nrf_fprintf_format.o(i.unsigned_print)
    i.update_timeout_handler                 0x0001dd9c   Section        0  ble_conn_params.o(i.update_timeout_handler)
    update_timeout_handler                   0x0001dd9d   Thumb Code    98  ble_conn_params.o(i.update_timeout_handler)
    i.user_mem_reply                         0x0001de04   Section        0  nrf_ble_qwr.o(i.user_mem_reply)
    user_mem_reply                           0x0001de05   Thumb Code    36  nrf_ble_qwr.o(i.user_mem_reply)
    i.usr_event                              0x0001de28   Section        0  app_button.o(i.usr_event)
    usr_event                                0x0001de29   Thumb Code    32  app_button.o(i.usr_event)
    i.uuid_list_encode                       0x0001de48   Section        0  ble_advdata.o(i.uuid_list_encode)
    uuid_list_encode                         0x0001de49   Thumb Code    48  ble_advdata.o(i.uuid_list_encode)
    i.uuid_list_sized_encode                 0x0001de78   Section        0  ble_advdata.o(i.uuid_list_sized_encode)
    uuid_list_sized_encode                   0x0001de79   Thumb Code   158  ble_advdata.o(i.uuid_list_sized_encode)
    .constdata                               0x0001df18   Section        4  main.o(.constdata)
    .constdata                               0x0001df1c   Section        2  boards.o(.constdata)
    m_board_led_list                         0x0001df1c   Data           1  boards.o(.constdata)
    m_board_btn_list                         0x0001df1d   Data           1  boards.o(.constdata)
    .constdata                               0x0001df20   Section       14  nrf_ble_gatt.o(.constdata)
    .constdata                               0x0001df30   Section       16  ble_lbs.o(.constdata)
    .constdata                               0x0001df40   Section        4  nrfx_gpiote.o(.constdata)
    .constdata                               0x0001df44   Section        4  nrfx_uart.o(.constdata)
    irq_handlers                             0x0001df44   Data           4  nrfx_uart.o(.constdata)
    .constdata                               0x0001df48   Section        4  nrfx_uarte.o(.constdata)
    irq_handlers                             0x0001df48   Data           4  nrfx_uarte.o(.constdata)
    .constdata                               0x0001df4c   Section        8  app_button.o(.constdata)
    m_detection_delay_timer_id               0x0001df50   Data           4  app_button.o(.constdata)
    .constdata                               0x0001df54   Section       20  app_timer2.o(.constdata)
    m_req_fifo                               0x0001df54   Data           4  app_timer2.o(.constdata)
    m_app_timer_sortlist                     0x0001df5c   Data          12  app_timer2.o(.constdata)
    .constdata                               0x0001df70   Section        6  drv_rtc.o(.constdata)
    delay_machine_code                       0x0001df70   Data           6  drv_rtc.o(.constdata)
    .constdata                               0x0001df76   Section       16  nrf_fprintf_format.o(.constdata)
    _aV2C                                    0x0001df76   Data          16  nrf_fprintf_format.o(.constdata)
    .constdata                               0x0001df88   Section       24  nrf_pwr_mgmt.o(.constdata)
    pwr_mgmt_data_array                      0x0001df88   Data          24  nrf_pwr_mgmt.o(.constdata)
    .constdata                               0x0001dfa0   Section       12  nrf_pwr_mgmt.o(.constdata)
    pwr_mgmt_data                            0x0001dfa0   Data          12  nrf_pwr_mgmt.o(.constdata)
    .constdata                               0x0001dfac   Section      316  nrf_strerror.o(.constdata)
    m_unknown_str                            0x0001dfac   Data          19  nrf_strerror.o(.constdata)
    nrf_strerror_array                       0x0001dfc0   Data         296  nrf_strerror.o(.constdata)
    .constdata                               0x0001e0e8   Section       12  nrf_log_backend_uart.o(.constdata)
    .constdata                               0x0001e0f4   Section       32  nrf_log_backend_uart.o(.constdata)
    .constdata                               0x0001e114   Section       12  nrf_log_frontend.o(.constdata)
    m_log_push_ringbuf                       0x0001e114   Data          12  nrf_log_frontend.o(.constdata)
    .constdata                               0x0001e120   Section       16  nrf_sdh.o(.constdata)
    sdh_req_observers_array                  0x0001e120   Data          16  nrf_sdh.o(.constdata)
    .constdata                               0x0001e130   Section       40  nrf_sdh.o(.constdata)
    sdh_req_observers                        0x0001e134   Data          12  nrf_sdh.o(.constdata)
    sdh_state_observers                      0x0001e140   Data          12  nrf_sdh.o(.constdata)
    sdh_stack_observers                      0x0001e14c   Data          12  nrf_sdh.o(.constdata)
    .constdata                               0x0001e158   Section       16  nrf_sdh.o(.constdata)
    sdh_state_observers_array                0x0001e158   Data          16  nrf_sdh.o(.constdata)
    .constdata                               0x0001e168   Section       16  nrf_sdh.o(.constdata)
    sdh_stack_observers_array                0x0001e168   Data          16  nrf_sdh.o(.constdata)
    .constdata                               0x0001e178   Section       32  nrf_sdh_ble.o(.constdata)
    sdh_ble_observers_array                  0x0001e178   Data          32  nrf_sdh_ble.o(.constdata)
    .constdata                               0x0001e198   Section       16  nrf_sdh_ble.o(.constdata)
    sdh_ble_observers                        0x0001e19c   Data          12  nrf_sdh_ble.o(.constdata)
    .constdata                               0x0001e1a8   Section       16  nrf_sdh_soc.o(.constdata)
    sdh_soc_observers_array                  0x0001e1a8   Data          16  nrf_sdh_soc.o(.constdata)
    .constdata                               0x0001e1b8   Section       12  nrf_sdh_soc.o(.constdata)
    sdh_soc_observers                        0x0001e1b8   Data          12  nrf_sdh_soc.o(.constdata)
    .constdata                               0x0001e1c4   Section      129  ctype_o.o(.constdata)
    .constdata                               0x0001e248   Section        4  ctype_o.o(.constdata)
    table                                    0x0001e248   Data           4  ctype_o.o(.constdata)
    .conststring                             0x0001e24c   Section     1003  nrf_strerror.o(.conststring)
    .conststring                             0x0001e638   Section      102  nrf_log_str_formatter.o(.conststring)
    .conststring                             0x0001e6a0   Section      392  nrf_sdh_ble.o(.conststring)
    .conststrlit                             0x0001e828   Section       13  nrf_ble_gatt.o(.conststrlit)
    .conststrlit                             0x0001e838   Section        6  nrf_drv_clock.o(.conststrlit)
    .conststrlit                             0x0001e840   Section        6  nrfx_clock.o(.conststrlit)
    .conststrlit                             0x0001e848   Section        7  nrfx_gpiote.o(.conststrlit)
    .conststrlit                             0x0001e850   Section        4  nrfx_prs.o(.conststrlit)
    .conststrlit                             0x0001e854   Section        5  nrfx_uart.o(.conststrlit)
    .conststrlit                             0x0001e85c   Section        6  nrfx_uarte.o(.conststrlit)
    .conststrlit                             0x0001e864   Section       11  app_button.o(.conststrlit)
    .conststrlit                             0x0001e870   Section       10  app_timer2.o(.conststrlit)
    .conststrlit                             0x0001e87c   Section        9  nrf_pwr_mgmt.o(.conststrlit)
    .conststrlit                             0x0001e888   Section        9  nrf_sortlist.o(.conststrlit)
    .conststrlit                             0x0001e894   Section       17  nrf_log_default_backends.o(.conststrlit)
    .conststrlit                             0x0001e8a8   Section        4  nrf_log_frontend.o(.conststrlit)
    .conststrlit                             0x0001e8ac   Section        8  nrf_sdh.o(.conststrlit)
    .conststrlit                             0x0001e8b4   Section       12  nrf_sdh_ble.o(.conststrlit)
    .conststrlit                             0x0001e8c0   Section       12  nrf_sdh_soc.o(.conststrlit)
    log_backends                             0x0001e8ec   Section       16  nrf_log_default_backends.o(log_backends)
    __tagsym$$used                           0x0001e8ec   Number         0  nrf_log_default_backends.o(log_backends)
    uart_log_backend                         0x0001e8ec   Data          16  nrf_log_default_backends.o(log_backends)
    log_const_data                           0x0001e8fc   Section        8  nrf_ble_gatt.o(log_const_data)
    __tagsym$$used                           0x0001e8fc   Number         0  nrf_ble_gatt.o(log_const_data)
    log_const_data                           0x0001e904   Section        8  nrf_drv_clock.o(log_const_data)
    __tagsym$$used                           0x0001e904   Number         0  nrf_drv_clock.o(log_const_data)
    log_const_data                           0x0001e90c   Section        8  nrfx_clock.o(log_const_data)
    __tagsym$$used                           0x0001e90c   Number         0  nrfx_clock.o(log_const_data)
    log_const_data                           0x0001e914   Section        8  nrfx_gpiote.o(log_const_data)
    __tagsym$$used                           0x0001e914   Number         0  nrfx_gpiote.o(log_const_data)
    log_const_data                           0x0001e91c   Section        8  nrfx_prs.o(log_const_data)
    __tagsym$$used                           0x0001e91c   Number         0  nrfx_prs.o(log_const_data)
    log_const_data                           0x0001e924   Section        8  nrfx_uart.o(log_const_data)
    __tagsym$$used                           0x0001e924   Number         0  nrfx_uart.o(log_const_data)
    log_const_data                           0x0001e92c   Section        8  nrfx_uarte.o(log_const_data)
    __tagsym$$used                           0x0001e92c   Number         0  nrfx_uarte.o(log_const_data)
    log_const_data                           0x0001e934   Section        8  app_button.o(log_const_data)
    __tagsym$$used                           0x0001e934   Number         0  app_button.o(log_const_data)
    log_const_data                           0x0001e93c   Section        8  app_timer2.o(log_const_data)
    __tagsym$$used                           0x0001e93c   Number         0  app_timer2.o(log_const_data)
    log_const_data                           0x0001e944   Section        8  nrf_pwr_mgmt.o(log_const_data)
    __tagsym$$used                           0x0001e944   Number         0  nrf_pwr_mgmt.o(log_const_data)
    log_const_data                           0x0001e94c   Section        8  nrf_sortlist.o(log_const_data)
    __tagsym$$used                           0x0001e94c   Number         0  nrf_sortlist.o(log_const_data)
    log_const_data                           0x0001e954   Section        8  nrf_log_frontend.o(log_const_data)
    __tagsym$$used                           0x0001e954   Number         0  nrf_log_frontend.o(log_const_data)
    log_const_data                           0x0001e95c   Section        8  nrf_sdh.o(log_const_data)
    __tagsym$$used                           0x0001e95c   Number         0  nrf_sdh.o(log_const_data)
    log_const_data                           0x0001e964   Section        8  nrf_sdh_ble.o(log_const_data)
    __tagsym$$used                           0x0001e964   Number         0  nrf_sdh_ble.o(log_const_data)
    log_const_data                           0x0001e96c   Section        8  nrf_sdh_soc.o(log_const_data)
    __tagsym$$used                           0x0001e96c   Number         0  nrf_sdh_soc.o(log_const_data)
    nrf_balloc                               0x0001e974   Section       20  nrf_log_frontend.o(nrf_balloc)
    __tagsym$$used                           0x0001e974   Number         0  nrf_log_frontend.o(nrf_balloc)
    sdh_ble_observers0                       0x0001e988   Section        8  ble_conn_state.o(sdh_ble_observers0)
    __tagsym$$used                           0x0001e988   Number         0  ble_conn_state.o(sdh_ble_observers0)
    m_ble_evt_observer                       0x0001e988   Data           8  ble_conn_state.o(sdh_ble_observers0)
    sdh_ble_observers1                       0x0001e990   Section        8  main.o(sdh_ble_observers1)
    __tagsym$$used                           0x0001e990   Number         0  main.o(sdh_ble_observers1)
    m_gatt_obs                               0x0001e990   Data           8  main.o(sdh_ble_observers1)
    sdh_ble_observers1                       0x0001e998   Section        8  ble_conn_params.o(sdh_ble_observers1)
    __tagsym$$used                           0x0001e998   Number         0  ble_conn_params.o(sdh_ble_observers1)
    m_ble_observer                           0x0001e998   Data           8  ble_conn_params.o(sdh_ble_observers1)
    sdh_ble_observers2                       0x0001e9a0   Section       16  main.o(sdh_ble_observers2)
    __tagsym$$used                           0x0001e9a0   Number         0  main.o(sdh_ble_observers2)
    m_lbs_obs                                0x0001e9a0   Data           8  main.o(sdh_ble_observers2)
    __tagsym$$used                           0x0001e9a8   Number         0  main.o(sdh_ble_observers2)
    m_qwr_obs                                0x0001e9a8   Data           8  main.o(sdh_ble_observers2)
    sdh_ble_observers3                       0x0001e9b0   Section        8  main.o(sdh_ble_observers3)
    __tagsym$$used                           0x0001e9b0   Number         0  main.o(sdh_ble_observers3)
    m_ble_observer                           0x0001e9b0   Data           8  main.o(sdh_ble_observers3)
    sdh_soc_observers0                       0x0001e9b8   Section        8  nrf_drv_clock.o(sdh_soc_observers0)
    __tagsym$$used                           0x0001e9b8   Number         0  nrf_drv_clock.o(sdh_soc_observers0)
    m_soc_evt_observer                       0x0001e9b8   Data           8  nrf_drv_clock.o(sdh_soc_observers0)
    sdh_stack_observers0                     0x0001e9c0   Section        8  nrf_sdh_ble.o(sdh_stack_observers0)
    __tagsym$$used                           0x0001e9c0   Number         0  nrf_sdh_ble.o(sdh_stack_observers0)
    m_nrf_sdh_ble_evts_poll                  0x0001e9c0   Data           8  nrf_sdh_ble.o(sdh_stack_observers0)
    sdh_stack_observers0                     0x0001e9c8   Section        8  nrf_sdh_soc.o(sdh_stack_observers0)
    __tagsym$$used                           0x0001e9c8   Number         0  nrf_sdh_soc.o(sdh_stack_observers0)
    m_nrf_sdh_soc_evts_poll                  0x0001e9c8   Data           8  nrf_sdh_soc.o(sdh_stack_observers0)
    sdh_state_observers0                     0x0001e9d0   Section        8  nrf_drv_clock.o(sdh_state_observers0)
    __tagsym$$used                           0x0001e9d0   Number         0  nrf_drv_clock.o(sdh_state_observers0)
    m_sd_state_observer                      0x0001e9d0   Data           8  nrf_drv_clock.o(sdh_state_observers0)
    .data                                    0x20001ae0   Section        4  system_nrf52810.o(.data)
    __tagsym$$used                           0x20001ae0   Number         0  system_nrf52810.o(.data)
    .data                                    0x20001ae4   Section       28  main.o(.data)
    m_adv_handle                             0x20001ae4   Data           1  main.o(.data)
    m_conn_handle                            0x20001ae6   Data           2  main.o(.data)
    buttons                                  0x20001ae8   Data           8  main.o(.data)
    m_adv_data                               0x20001af0   Data          16  main.o(.data)
    .data                                    0x20001b00   Section        8  ble_conn_params.o(.data)
    m_preferred_conn_params                  0x20001b00   Data           8  ble_conn_params.o(.data)
    .data                                    0x20001b08   Section       12  nrf_drv_uart.o(.data)
    m_handlers                               0x20001b0c   Data           4  nrf_drv_uart.o(.data)
    m_contexts                               0x20001b10   Data           4  nrf_drv_uart.o(.data)
    .data                                    0x20001b14   Section        8  nrfx_clock.o(.data)
    m_clock_cb                               0x20001b14   Data           8  nrfx_clock.o(.data)
    .data                                    0x20001b1c   Section        8  nrfx_prs.o(.data)
    m_prs_box_2                              0x20001b1c   Data           8  nrfx_prs.o(.data)
    .data                                    0x20001b28   Section       24  app_button.o(.data)
    m_button_count                           0x20001b28   Data           1  app_button.o(.data)
    mp_buttons                               0x20001b2c   Data           4  app_button.o(.data)
    m_detection_delay                        0x20001b30   Data           4  app_button.o(.data)
    m_pin_active                             0x20001b38   Data           8  app_button.o(.data)
    .data                                    0x20001b40   Section       32  app_timer2.o(.data)
    m_global_active                          0x20001b40   Data           1  app_timer2.o(.data)
    mp_active_timer                          0x20001b44   Data           4  app_timer2.o(.data)
    m_rtc_inst                               0x20001b48   Data           8  app_timer2.o(.data)
    m_base_counter                           0x20001b50   Data           8  app_timer2.o(.data)
    m_stamp64                                0x20001b58   Data           8  app_timer2.o(.data)
    .data                                    0x20001b60   Section        4  app_timer2.o(.data)
    m_app_timer_sortlist_sortlist_cb         0x20001b60   Data           4  app_timer2.o(.data)
    .data                                    0x20001b64   Section       12  drv_rtc.o(.data)
    m_handlers                               0x20001b64   Data           4  drv_rtc.o(.data)
    m_cb                                     0x20001b68   Data           8  drv_rtc.o(.data)
    .data                                    0x20001b70   Section        8  nrf_pwr_mgmt.o(.data)
    m_pwr_mgmt_evt                           0x20001b70   Data           1  nrf_pwr_mgmt.o(.data)
    m_shutdown_started                       0x20001b71   Data           1  nrf_pwr_mgmt.o(.data)
    m_sysoff_mtx                             0x20001b74   Data           4  nrf_pwr_mgmt.o(.data)
    .data                                    0x20001b78   Section       24  nrf_log_backend_uart.o(.data)
    m_xfer_done                              0x20001b78   Data           1  nrf_log_backend_uart.o(.data)
    m_async_mode                             0x20001b79   Data           1  nrf_log_backend_uart.o(.data)
    .data                                    0x20001b90   Section        8  nrf_log_default_backends.o(.data)
    log_backend_cb_uart_log_backend          0x20001b90   Data           8  nrf_log_default_backends.o(.data)
    .data                                    0x20001b98   Section        8  nrf_log_frontend.o(.data)
    log_mempool_nrf_balloc_pool_stack        0x20001b98   Data           8  nrf_log_frontend.o(.data)
    .data                                    0x20001ba0   Section        8  nrf_log_frontend.o(.data)
    log_mempool_nrf_balloc_cb                0x20001ba0   Data           8  nrf_log_frontend.o(.data)
    .data                                    0x20001ba8   Section       64  nrf_log_str_formatter.o(.data)
    m_freq                                   0x20001ba8   Data           4  nrf_log_str_formatter.o(.data)
    m_timestamp_div                          0x20001bac   Data           4  nrf_log_str_formatter.o(.data)
    severity_names                           0x20001bb0   Data          20  nrf_log_str_formatter.o(.data)
    m_colors                                 0x20001bc4   Data          36  nrf_log_str_formatter.o(.data)
    .data                                    0x20001be8   Section        3  nrf_sdh.o(.data)
    m_nrf_sdh_enabled                        0x20001be8   Data           1  nrf_sdh.o(.data)
    m_nrf_sdh_suspended                      0x20001be9   Data           1  nrf_sdh.o(.data)
    m_nrf_sdh_continue                       0x20001bea   Data           1  nrf_sdh.o(.data)
    .data                                    0x20001beb   Section        1  nrf_sdh_ble.o(.data)
    m_stack_is_enabled                       0x20001beb   Data           1  nrf_sdh_ble.o(.data)
    .bss                                     0x20001bec   Section       52  main.o(.bss)
    m_lbs                                    0x20001bec   Data          24  main.o(.bss)
    m_gatt                                   0x20001c04   Data          16  main.o(.bss)
    m_qwr                                    0x20001c14   Data          12  main.o(.bss)
    .bss                                     0x20001c20   Section       31  main.o(.bss)
    m_enc_advdata                            0x20001c20   Data          31  main.o(.bss)
    .bss                                     0x20001c3f   Section       31  main.o(.bss)
    m_enc_scan_response_data                 0x20001c3f   Data          31  main.o(.bss)
    .bss                                     0x20001c60   Section       80  ble_conn_params.o(.bss)
    m_timer_data                             0x20001c60   Data          32  ble_conn_params.o(.bss)
    m_conn_params_instances                  0x20001c80   Data          20  ble_conn_params.o(.bss)
    m_conn_params_config                     0x20001c94   Data          28  ble_conn_params.o(.bss)
    .bss                                     0x20001cb0   Section      124  ble_conn_state.o(.bss)
    m_bcs                                    0x20001cb0   Data         124  ble_conn_state.o(.bss)
    .bss                                     0x20001d2c   Section       20  nrf_drv_clock.o(.bss)
    m_clock_cb                               0x20001d2c   Data          20  nrf_drv_clock.o(.bss)
    .bss                                     0x20001d40   Section       92  nrfx_gpiote.o(.bss)
    m_cb                                     0x20001d40   Data          92  nrfx_gpiote.o(.bss)
    .bss                                     0x20001d9c   Section       44  nrfx_uart.o(.bss)
    m_cb                                     0x20001d9c   Data          44  nrfx_uart.o(.bss)
    .bss                                     0x20001dc8   Section       36  nrfx_uarte.o(.bss)
    m_cb                                     0x20001dc8   Data          36  nrfx_uarte.o(.bss)
    .bss                                     0x20001df0   Section       32  app_button.o(.bss)
    m_detection_delay_timer_id_data          0x20001df0   Data          32  app_button.o(.bss)
    .bss                                     0x20001e10   Section       16  app_button.o(.bss)
    m_pin_states                             0x20001e10   Data          16  app_button.o(.bss)
    .bss                                     0x20001e20   Section       16  app_timer2.o(.bss)
    m_req_fifo_inst                          0x20001e20   Data          16  app_timer2.o(.bss)
    .bss                                     0x20001e30   Section       88  app_timer2.o(.bss)
    m_req_fifo_data                          0x20001e30   Data          88  app_timer2.o(.bss)
    .bss                                     0x20001e88   Section       12  app_util_platform.o(.bss)
    .bss                                     0x20001e94   Section       12  nrf_pwr_mgmt.o(.bss)
    m_handlers_iter                          0x20001e94   Data          12  nrf_pwr_mgmt.o(.bss)
    .bss                                     0x20001ea0   Section       64  nrf_log_backend_uart.o(.bss)
    m_string_buff                            0x20001ea0   Data          64  nrf_log_backend_uart.o(.bss)
    .bss                                     0x20001ee0   Section      192  nrf_log_frontend.o(.bss)
    log_mempool_nrf_balloc_pool_mem          0x20001ee0   Data         192  nrf_log_frontend.o(.bss)
    .bss                                     0x20001fa0   Section      128  nrf_log_frontend.o(.bss)
    m_log_push_ringbuf_buf                   0x20001fa0   Data         128  nrf_log_frontend.o(.bss)
    .bss                                     0x20002020   Section       24  nrf_log_frontend.o(.bss)
    m_log_push_ringbuf_cb                    0x20002020   Data          24  nrf_log_frontend.o(.bss)
    .bss                                     0x20002038   Section     1060  nrf_log_frontend.o(.bss)
    m_log_data                               0x20002038   Data        1060  nrf_log_frontend.o(.bss)
    STACK                                    0x20002460   Section     2048  arm_startup_nrf52810.o(STACK)

    Global Symbols

    Symbol Name                              Value     Ov Type        Size  Object(Section)

    BuildAttributes$$THM_ISAv4$E$P$D$K$B$S$7EM$PE$A:L22UL41UL21$X:L11$S22US41US21$IEEE1$IW$USESV6$~STKCKD$USESV7$~SHL$OSPACE$EBA8$MICROLIB$REQ8$EABIv2 0x00000000   Number         0  anon$$obj.o ABSOLUTE
    __ARM_use_no_argv                        0x00000000   Number         0  main.o ABSOLUTE
    __use_no_errno                           0x00000000   Number         0  useno.o ABSOLUTE
    __use_no_exception_handling              0x00000000   Number         0  useno.o ABSOLUTE
    __use_no_fp                              0x00000000   Number         0  useno.o ABSOLUTE
    __use_no_heap                            0x00000000   Number         0  useno.o ABSOLUTE
    __use_no_heap_region                     0x00000000   Number         0  useno.o ABSOLUTE
    __use_no_semihosting                     0x00000000   Number         0  useno.o ABSOLUTE
    __use_no_semihosting_swi                 0x00000000   Number         0  useno.o ABSOLUTE
    __use_no_signal_handling                 0x00000000   Number         0  useno.o ABSOLUTE
    __cpp_initialize__aeabi_                  - Undefined Weak Reference
    __cxa_finalize                            - Undefined Weak Reference
    __decompress                              - Undefined Weak Reference
    _clock_init                               - Undefined Weak Reference
    _microlib_exit                            - Undefined Weak Reference
    log_dynamic_data$$Base                    - Undefined Reference
    pwr_mgmt_data0$$Base                      - Undefined Reference
    pwr_mgmt_data0$$Limit                     - Undefined Reference
    pwr_mgmt_data1$$Base                      - Undefined Reference
    pwr_mgmt_data1$$Limit                     - Undefined Reference
    pwr_mgmt_data2$$Base                      - Undefined Reference
    pwr_mgmt_data2$$Limit                     - Undefined Reference
    sdh_req_observers0$$Base                  - Undefined Reference
    sdh_req_observers0$$Limit                 - Undefined Reference
    sdh_req_observers1$$Base                  - Undefined Reference
    sdh_req_observers1$$Limit                 - Undefined Reference
    sdh_soc_observers1$$Base                  - Undefined Reference
    sdh_soc_observers1$$Limit                 - Undefined Reference
    sdh_stack_observers1$$Base                - Undefined Reference
    sdh_stack_observers1$$Limit               - Undefined Reference
    sdh_state_observers1$$Base                - Undefined Reference
    sdh_state_observers1$$Limit               - Undefined Reference
    __Vectors_Size                           0x00000200   Number         0  arm_startup_nrf52810.o ABSOLUTE
    __Vectors                                0x00019000   Data           4  arm_startup_nrf52810.o(RESET)
    __Vectors_End                            0x00019200   Data           0  arm_startup_nrf52810.o(RESET)
    __main                                   0x00019201   Thumb Code     0  entry.o(.ARM.Collect$$$$00000000)
    _main_stk                                0x00019201   Thumb Code     0  entry2.o(.ARM.Collect$$$$00000001)
    _main_scatterload                        0x00019205   Thumb Code     0  entry5.o(.ARM.Collect$$$$00000004)
    __main_after_scatterload                 0x00019209   Thumb Code     0  entry5.o(.ARM.Collect$$$$00000004)
    _main_clock                              0x00019209   Thumb Code     0  entry7b.o(.ARM.Collect$$$$00000008)
    _main_cpp_init                           0x00019209   Thumb Code     0  entry8b.o(.ARM.Collect$$$$0000000A)
    _main_init                               0x00019209   Thumb Code     0  entry9a.o(.ARM.Collect$$$$0000000B)
    __rt_final_cpp                           0x00019211   Thumb Code     0  entry10a.o(.ARM.Collect$$$$0000000D)
    __rt_final_exit                          0x00019211   Thumb Code     0  entry11a.o(.ARM.Collect$$$$0000000F)
    __asm___12_nrf_atfifo_c_51f461e1__nrf_atfifo_wspace_req 0x00019215   Thumb Code    56  nrf_atfifo.o(.emb_text)
    __asm___12_nrf_atfifo_c_51f461e1__nrf_atfifo_wspace_close 0x0001924d   Thumb Code    18  nrf_atfifo.o(.emb_text)
    __asm___12_nrf_atfifo_c_51f461e1__nrf_atfifo_rspace_req 0x0001925f   Thumb Code    58  nrf_atfifo.o(.emb_text)
    __asm___12_nrf_atfifo_c_51f461e1__nrf_atfifo_rspace_close 0x00019299   Thumb Code    18  nrf_atfifo.o(.emb_text)
    __asm___12_nrf_atfifo_c_51f461e1__nrf_atfifo_space_clear 0x000192ab   Thumb Code    50  nrf_atfifo.o(.emb_text)
    __asm___12_nrf_atomic_c_85ca2469__nrf_atomic_internal_mov 0x000192dd   Thumb Code    24  nrf_atomic.o(.emb_text)
    __asm___12_nrf_atomic_c_85ca2469__nrf_atomic_internal_orr 0x000192f5   Thumb Code    26  nrf_atomic.o(.emb_text)
    __asm___12_nrf_atomic_c_85ca2469__nrf_atomic_internal_and 0x0001930f   Thumb Code    26  nrf_atomic.o(.emb_text)
    __asm___12_nrf_atomic_c_85ca2469__nrf_atomic_internal_eor 0x00019329   Thumb Code    26  nrf_atomic.o(.emb_text)
    __asm___12_nrf_atomic_c_85ca2469__nrf_atomic_internal_add 0x00019343   Thumb Code    26  nrf_atomic.o(.emb_text)
    __asm___12_nrf_atomic_c_85ca2469__nrf_atomic_internal_sub 0x0001935d   Thumb Code    26  nrf_atomic.o(.emb_text)
    __asm___12_nrf_atomic_c_85ca2469__nrf_atomic_internal_cmp_exch 0x00019377   Thumb Code    42  nrf_atomic.o(.emb_text)
    __asm___12_nrf_atomic_c_85ca2469__nrf_atomic_internal_sub_hs 0x000193a1   Thumb Code    30  nrf_atomic.o(.emb_text)
    Reset_Handler                            0x000193c1   Thumb Code    42  arm_startup_nrf52810.o(.text)
    NMI_Handler                              0x000193eb   Thumb Code     2  arm_startup_nrf52810.o(.text)
    HardFault_Handler                        0x000193ed   Thumb Code     2  arm_startup_nrf52810.o(.text)
    MemoryManagement_Handler                 0x000193ef   Thumb Code     2  arm_startup_nrf52810.o(.text)
    BusFault_Handler                         0x000193f1   Thumb Code     2  arm_startup_nrf52810.o(.text)
    UsageFault_Handler                       0x000193f3   Thumb Code     2  arm_startup_nrf52810.o(.text)
    SVC_Handler                              0x000193f5   Thumb Code     2  arm_startup_nrf52810.o(.text)
    DebugMon_Handler                         0x000193f7   Thumb Code     2  arm_startup_nrf52810.o(.text)
    PendSV_Handler                           0x000193f9   Thumb Code     2  arm_startup_nrf52810.o(.text)
    SysTick_Handler                          0x000193fb   Thumb Code     2  arm_startup_nrf52810.o(.text)
    CCM_AAR_IRQHandler                       0x000193fd   Thumb Code     0  arm_startup_nrf52810.o(.text)
    COMP_IRQHandler                          0x000193fd   Thumb Code     0  arm_startup_nrf52810.o(.text)
    ECB_IRQHandler                           0x000193fd   Thumb Code     0  arm_startup_nrf52810.o(.text)
    PDM_IRQHandler                           0x000193fd   Thumb Code     0  arm_startup_nrf52810.o(.text)
    PWM0_IRQHandler                          0x000193fd   Thumb Code     0  arm_startup_nrf52810.o(.text)
    QDEC_IRQHandler                          0x000193fd   Thumb Code     0  arm_startup_nrf52810.o(.text)
    RADIO_IRQHandler                         0x000193fd   Thumb Code     0  arm_startup_nrf52810.o(.text)
    RNG_IRQHandler                           0x000193fd   Thumb Code     0  arm_startup_nrf52810.o(.text)
    RTC0_IRQHandler                          0x000193fd   Thumb Code     0  arm_startup_nrf52810.o(.text)
    SAADC_IRQHandler                         0x000193fd   Thumb Code     0  arm_startup_nrf52810.o(.text)
    SPIM0_SPIS0_SPI0_IRQHandler              0x000193fd   Thumb Code     0  arm_startup_nrf52810.o(.text)
    SWI0_EGU0_IRQHandler                     0x000193fd   Thumb Code     0  arm_startup_nrf52810.o(.text)
    SWI1_EGU1_IRQHandler                     0x000193fd   Thumb Code     0  arm_startup_nrf52810.o(.text)
    SWI3_IRQHandler                          0x000193fd   Thumb Code     0  arm_startup_nrf52810.o(.text)
    SWI4_IRQHandler                          0x000193fd   Thumb Code     0  arm_startup_nrf52810.o(.text)
    SWI5_IRQHandler                          0x000193fd   Thumb Code     0  arm_startup_nrf52810.o(.text)
    TEMP_IRQHandler                          0x000193fd   Thumb Code     0  arm_startup_nrf52810.o(.text)
    TIMER0_IRQHandler                        0x000193fd   Thumb Code     0  arm_startup_nrf52810.o(.text)
    TIMER1_IRQHandler                        0x000193fd   Thumb Code     0  arm_startup_nrf52810.o(.text)
    TIMER2_IRQHandler                        0x000193fd   Thumb Code     0  arm_startup_nrf52810.o(.text)
    TWIM0_TWIS0_TWI0_IRQHandler              0x000193fd   Thumb Code     0  arm_startup_nrf52810.o(.text)
    WDT_IRQHandler                           0x000193fd   Thumb Code     0  arm_startup_nrf52810.o(.text)
    __aeabi_llsl                             0x00019415   Thumb Code    30  llshl.o(.text)
    _ll_shift_l                              0x00019415   Thumb Code     0  llshl.o(.text)
    __rt_ctype_table                         0x00019435   Thumb Code     4  ctype_o.o(.text)
    __aeabi_memcpy                           0x0001943d   Thumb Code    36  memcpya.o(.text)
    __aeabi_memcpy4                          0x0001943d   Thumb Code     0  memcpya.o(.text)
    __aeabi_memcpy8                          0x0001943d   Thumb Code     0  memcpya.o(.text)
    __aeabi_memset                           0x00019461   Thumb Code    14  memseta.o(.text)
    __aeabi_memset4                          0x00019461   Thumb Code     0  memseta.o(.text)
    __aeabi_memset8                          0x00019461   Thumb Code     0  memseta.o(.text)
    __aeabi_memclr                           0x0001946f   Thumb Code     4  memseta.o(.text)
    __aeabi_memclr4                          0x0001946f   Thumb Code     0  memseta.o(.text)
    __aeabi_memclr8                          0x0001946f   Thumb Code     0  memseta.o(.text)
    _memset$wrapper                          0x00019473   Thumb Code    18  memseta.o(.text)
    strlen                                   0x00019485   Thumb Code    14  strlen.o(.text)
    __scatterload                            0x00019495   Thumb Code    28  init.o(.text)
    __scatterload_rt2                        0x00019495   Thumb Code     0  init.o(.text)
    GPIOTE_IRQHandler                        0x000194b9   Thumb Code   346  nrfx_gpiote.o(i.GPIOTE_IRQHandler)
    POWER_CLOCK_IRQHandler                   0x0001961d   Thumb Code    82  nrfx_clock.o(i.POWER_CLOCK_IRQHandler)
    RTC1_IRQHandler                          0x00019675   Thumb Code    12  drv_rtc.o(i.RTC1_IRQHandler)
    SWI2_IRQHandler                          0x00019685   Thumb Code     4  nrf_sdh.o(i.SWI2_IRQHandler)
    SystemInit                               0x00019689   Thumb Code   694  system_nrf52810.o(i.SystemInit)
    UARTE0_UART0_IRQHandler                  0x00019989   Thumb Code     6  nrfx_prs.o(i.UARTE0_UART0_IRQHandler)
    __scatterload_copy                       0x00019995   Thumb Code    14  handlers.o(i.__scatterload_copy)
    __scatterload_null                       0x000199a3   Thumb Code     2  handlers.o(i.__scatterload_null)
    __scatterload_zeroinit                   0x000199a5   Thumb Code    14  handlers.o(i.__scatterload_zeroinit)
    app_button_disable                       0x00019a9d   Thumb Code    64  app_button.o(i.app_button_disable)
    app_button_enable                        0x00019ae5   Thumb Code    32  app_button.o(i.app_button_enable)
    app_button_init                          0x00019b09   Thumb Code   106  app_button.o(i.app_button_init)
    app_error_fault_handler                  0x00019b89   Thumb Code    86  app_error_weak.o(i.app_error_fault_handler)
    app_error_handler_bare                   0x00019c0d   Thumb Code    22  app_error.o(i.app_error_handler_bare)
    app_timer_cnt_get                        0x00019c25   Thumb Code     6  app_timer2.o(i.app_timer_cnt_get)
    app_timer_create                         0x00019c31   Thumb Code    22  app_timer2.o(i.app_timer_create)
    app_timer_init                           0x00019c49   Thumb Code    70  app_timer2.o(i.app_timer_init)
    app_timer_start                          0x00019ca5   Thumb Code    48  app_timer2.o(i.app_timer_start)
    app_timer_stop                           0x00019cd5   Thumb Code    12  app_timer2.o(i.app_timer_stop)
    app_util_critical_region_enter           0x00019ce1   Thumb Code    64  app_util_platform.o(i.app_util_critical_region_enter)
    app_util_critical_region_exit            0x00019d29   Thumb Code    46  app_util_platform.o(i.app_util_critical_region_exit)
    ble_advdata_encode                       0x00019e6d   Thumb Code   386  ble_advdata.o(i.ble_advdata_encode)
    ble_conn_params_init                     0x00019ff1   Thumb Code    90  ble_conn_params.o(i.ble_conn_params_init)
    ble_lbs_init                             0x0001a3c9   Thumb Code   190  ble_lbs.o(i.ble_lbs_init)
    ble_lbs_on_ble_evt                       0x0001a48d   Thumb Code    46  ble_lbs.o(i.ble_lbs_on_ble_evt)
    ble_lbs_on_button_change                 0x0001a4bb   Thumb Code    46  ble_lbs.o(i.ble_lbs_on_button_change)
    ble_srv_is_notification_enabled          0x0001a4e9   Thumb Code     8  ble_srv_common.o(i.ble_srv_is_notification_enabled)
    bsp_board_init                           0x0001a4f1   Thumb Code    60  boards.o(i.bsp_board_init)
    bsp_board_led_off                        0x0001a531   Thumb Code    10  boards.o(i.bsp_board_led_off)
    bsp_board_led_on                         0x0001a541   Thumb Code    10  boards.o(i.bsp_board_led_on)
    bsp_board_leds_off                       0x0001a551   Thumb Code     6  boards.o(i.bsp_board_leds_off)
    buffer_is_empty                          0x0001a619   Thumb Code    16  nrf_log_frontend.o(i.buffer_is_empty)
    characteristic_add                       0x0001a741   Thumb Code   400  ble_srv_common.o(i.characteristic_add)
    conn_handle_list_get                     0x0001a92d   Thumb Code    62  ble_conn_state.o(i.conn_handle_list_get)
    drv_rtc_compare_disable                  0x0001aa9d   Thumb Code    20  drv_rtc.o(i.drv_rtc_compare_disable)
    drv_rtc_compare_pending                  0x0001aab1   Thumb Code    14  drv_rtc.o(i.drv_rtc_compare_pending)
    drv_rtc_compare_set                      0x0001aabf   Thumb Code    80  drv_rtc.o(i.drv_rtc_compare_set)
    drv_rtc_counter_get                      0x0001ab0f   Thumb Code     8  drv_rtc.o(i.drv_rtc_counter_get)
    drv_rtc_init                             0x0001ab19   Thumb Code   144  drv_rtc.o(i.drv_rtc_init)
    drv_rtc_irq_trigger                      0x0001abed   Thumb Code    26  drv_rtc.o(i.drv_rtc_irq_trigger)
    drv_rtc_overflow_enable                  0x0001ac07   Thumb Code     8  drv_rtc.o(i.drv_rtc_overflow_enable)
    drv_rtc_overflow_pending                 0x0001ac0f   Thumb Code     8  drv_rtc.o(i.drv_rtc_overflow_pending)
    drv_rtc_start                            0x0001ac17   Thumb Code     8  drv_rtc.o(i.drv_rtc_start)
    drv_rtc_stop                             0x0001ac1f   Thumb Code     8  drv_rtc.o(i.drv_rtc_stop)
    drv_rtc_windowed_compare_set             0x0001ac27   Thumb Code   222  drv_rtc.o(i.drv_rtc_windowed_compare_set)
    evt_handle                               0x0001adfd   Thumb Code   216  app_button.o(i.evt_handle)
    main                                     0x0001b231   Thumb Code   330  main.o(i.main)
    nrf_atfifo_init                          0x0001b57f   Thumb Code    38  nrf_atfifo.o(i.nrf_atfifo_init)
    nrf_atfifo_item_alloc                    0x0001b5a5   Thumb Code    22  nrf_atfifo.o(i.nrf_atfifo_item_alloc)
    nrf_atfifo_item_free                     0x0001b5bb   Thumb Code    22  nrf_atfifo.o(i.nrf_atfifo_item_free)
    nrf_atfifo_item_get                      0x0001b5d1   Thumb Code    22  nrf_atfifo.o(i.nrf_atfifo_item_get)
    nrf_atfifo_item_put                      0x0001b5e7   Thumb Code    22  nrf_atfifo.o(i.nrf_atfifo_item_put)
    nrf_atflags_clear                        0x0001b5fd   Thumb Code    22  nrf_atflags.o(i.nrf_atflags_clear)
    nrf_atflags_get                          0x0001b613   Thumb Code    22  nrf_atflags.o(i.nrf_atflags_get)
    nrf_atflags_set                          0x0001b629   Thumb Code    20  nrf_atflags.o(i.nrf_atflags_set)
    nrf_atomic_flag_clear_fetch              0x0001b63d   Thumb Code     6  nrf_atomic.o(i.nrf_atomic_flag_clear_fetch)
    nrf_atomic_flag_set                      0x0001b643   Thumb Code     6  nrf_atomic.o(i.nrf_atomic_flag_set)
    nrf_atomic_u32_add                       0x0001b649   Thumb Code    12  nrf_atomic.o(i.nrf_atomic_u32_add)
    nrf_atomic_u32_and                       0x0001b655   Thumb Code    12  nrf_atomic.o(i.nrf_atomic_u32_and)
    nrf_atomic_u32_fetch_and                 0x0001b661   Thumb Code    10  nrf_atomic.o(i.nrf_atomic_u32_fetch_and)
    nrf_atomic_u32_fetch_store               0x0001b66b   Thumb Code    10  nrf_atomic.o(i.nrf_atomic_u32_fetch_store)
    nrf_atomic_u32_or                        0x0001b675   Thumb Code    12  nrf_atomic.o(i.nrf_atomic_u32_or)
    nrf_atomic_u32_sub                       0x0001b681   Thumb Code    12  nrf_atomic.o(i.nrf_atomic_u32_sub)
    nrf_balloc_alloc                         0x0001b68d   Thumb Code    68  nrf_balloc.o(i.nrf_balloc_alloc)
    nrf_balloc_free                          0x0001b6d1   Thumb Code    48  nrf_balloc.o(i.nrf_balloc_free)
    nrf_balloc_init                          0x0001b701   Thumb Code    48  nrf_balloc.o(i.nrf_balloc_init)
    nrf_ble_gatt_init                        0x0001b755   Thumb Code    34  nrf_ble_gatt.o(i.nrf_ble_gatt_init)
    nrf_ble_gatt_on_ble_evt                  0x0001b779   Thumb Code   180  nrf_ble_gatt.o(i.nrf_ble_gatt_on_ble_evt)
    nrf_ble_qwr_conn_handle_assign           0x0001b86d   Thumb Code    22  nrf_ble_qwr.o(i.nrf_ble_qwr_conn_handle_assign)
    nrf_ble_qwr_init                         0x0001b883   Thumb Code    36  nrf_ble_qwr.o(i.nrf_ble_qwr_init)
    nrf_ble_qwr_on_ble_evt                   0x0001b8a7   Thumb Code   182  nrf_ble_qwr.o(i.nrf_ble_qwr_on_ble_evt)
    nrf_drv_clock_init                       0x0001b97d   Thumb Code    48  nrf_drv_clock.o(i.nrf_drv_clock_init)
    nrf_drv_clock_lfclk_release              0x0001b9b5   Thumb Code    42  nrf_drv_clock.o(i.nrf_drv_clock_lfclk_release)
    nrf_drv_uart_init                        0x0001b9e5   Thumb Code    90  nrf_drv_uart.o(i.nrf_drv_uart_init)
    nrf_fprintf                              0x0001ba4d   Thumb Code    26  nrf_fprintf.o(i.nrf_fprintf)
    nrf_fprintf_buffer_flush                 0x0001ba67   Thumb Code    24  nrf_fprintf.o(i.nrf_fprintf_buffer_flush)
    nrf_fprintf_fmt                          0x0001ba7f   Thumb Code   474  nrf_fprintf_format.o(i.nrf_fprintf_fmt)
    nrf_log_backend_add                      0x0001bddd   Thumb Code    86  nrf_log_frontend.o(i.nrf_log_backend_add)
    nrf_log_backend_serial_put               0x0001be39   Thumb Code   200  nrf_log_backend_serial.o(i.nrf_log_backend_serial_put)
    nrf_log_backend_uart_init                0x0001bf03   Thumb Code     6  nrf_log_backend_uart.o(i.nrf_log_backend_uart_init)
    nrf_log_color_id_get                     0x0001bf4d   Thumb Code    42  nrf_log_frontend.o(i.nrf_log_color_id_get)
    nrf_log_default_backends_init            0x0001bf7d   Thumb Code    24  nrf_log_default_backends.o(i.nrf_log_default_backends_init)
    nrf_log_frontend_dequeue                 0x0001bf99   Thumb Code   528  nrf_log_frontend.o(i.nrf_log_frontend_dequeue)
    nrf_log_frontend_std_0                   0x0001c1cd   Thumb Code     8  nrf_log_frontend.o(i.nrf_log_frontend_std_0)
    nrf_log_frontend_std_1                   0x0001c1d5   Thumb Code    14  nrf_log_frontend.o(i.nrf_log_frontend_std_1)
    nrf_log_frontend_std_2                   0x0001c1e3   Thumb Code    16  nrf_log_frontend.o(i.nrf_log_frontend_std_2)
    nrf_log_hexdump_entry_process            0x0001c1f5   Thumb Code   150  nrf_log_str_formatter.o(i.nrf_log_hexdump_entry_process)
    nrf_log_init                             0x0001c2a5   Thumb Code    46  nrf_log_frontend.o(i.nrf_log_init)
    nrf_log_module_cnt_get                   0x0001c2e1   Thumb Code    10  nrf_log_frontend.o(i.nrf_log_module_cnt_get)
    nrf_log_module_name_get                  0x0001c2f5   Thumb Code    24  nrf_log_frontend.o(i.nrf_log_module_name_get)
    nrf_log_panic                            0x0001c311   Thumb Code    38  nrf_log_frontend.o(i.nrf_log_panic)
    nrf_log_std_entry_process                0x0001c33d   Thumb Code   182  nrf_log_str_formatter.o(i.nrf_log_std_entry_process)
    nrf_memobj_alloc                         0x0001c3f3   Thumb Code    96  nrf_memobj.o(i.nrf_memobj_alloc)
    nrf_memobj_free                          0x0001c453   Thumb Code    50  nrf_memobj.o(i.nrf_memobj_free)
    nrf_memobj_get                           0x0001c485   Thumb Code     8  nrf_memobj.o(i.nrf_memobj_get)
    nrf_memobj_pool_init                     0x0001c48d   Thumb Code     4  nrf_memobj.o(i.nrf_memobj_pool_init)
    nrf_memobj_put                           0x0001c491   Thumb Code    30  nrf_memobj.o(i.nrf_memobj_put)
    nrf_memobj_read                          0x0001c4af   Thumb Code    16  nrf_memobj.o(i.nrf_memobj_read)
    nrf_memobj_write                         0x0001c4bf   Thumb Code    16  nrf_memobj.o(i.nrf_memobj_write)
    nrf_pwr_mgmt_init                        0x0001c4d1   Thumb Code    28  nrf_pwr_mgmt.o(i.nrf_pwr_mgmt_init)
    nrf_pwr_mgmt_run                         0x0001c4f9   Thumb Code    20  nrf_pwr_mgmt.o(i.nrf_pwr_mgmt_run)
    nrf_ringbuf_init                         0x0001c511   Thumb Code    28  nrf_ringbuf.o(i.nrf_ringbuf_init)
    nrf_sdh_ble_app_ram_start_get            0x0001c539   Thumb Code    16  nrf_sdh_ble.o(i.nrf_sdh_ble_app_ram_start_get)
    nrf_sdh_ble_default_cfg_set              0x0001c54d   Thumb Code   220  nrf_sdh_ble.o(i.nrf_sdh_ble_default_cfg_set)
    nrf_sdh_ble_enable                       0x0001c645   Thumb Code   116  nrf_sdh_ble.o(i.nrf_sdh_ble_enable)
    nrf_sdh_enable_request                   0x0001c7d1   Thumb Code   102  nrf_sdh.o(i.nrf_sdh_enable_request)
    nrf_sdh_evts_poll                        0x0001c845   Thumb Code    32  nrf_sdh.o(i.nrf_sdh_evts_poll)
    nrf_sdh_is_enabled                       0x0001c869   Thumb Code     6  nrf_sdh.o(i.nrf_sdh_is_enabled)
    nrf_section_iter_init                    0x0001c8b1   Thumb Code    10  nrf_section_iter.o(i.nrf_section_iter_init)
    nrf_section_iter_next                    0x0001c8df   Thumb Code    32  nrf_section_iter.o(i.nrf_section_iter_next)
    nrf_sortlist_add                         0x0001c8ff   Thumb Code    34  nrf_sortlist.o(i.nrf_sortlist_add)
    nrf_sortlist_peek                        0x0001c921   Thumb Code     6  nrf_sortlist.o(i.nrf_sortlist_peek)
    nrf_sortlist_pop                         0x0001c927   Thumb Code    14  nrf_sortlist.o(i.nrf_sortlist_pop)
    nrf_sortlist_remove                      0x0001c935   Thumb Code    30  nrf_sortlist.o(i.nrf_sortlist_remove)
    nrf_strerror_find                        0x0001c955   Thumb Code    52  nrf_strerror.o(i.nrf_strerror_find)
    nrf_strerror_get                         0x0001c98d   Thumb Code    14  nrf_strerror.o(i.nrf_strerror_get)
    nrfx_clock_enable                        0x0001c9d9   Thumb Code    34  nrfx_clock.o(i.nrfx_clock_enable)
    nrfx_clock_init                          0x0001ca05   Thumb Code    26  nrfx_clock.o(i.nrfx_clock_init)
    nrfx_clock_lfclk_stop                    0x0001ca25   Thumb Code    20  nrfx_clock.o(i.nrfx_clock_lfclk_stop)
    nrfx_gpiote_in_event_disable             0x0001ca51   Thumb Code    66  nrfx_gpiote.o(i.nrfx_gpiote_in_event_disable)
    nrfx_gpiote_in_event_enable              0x0001ca99   Thumb Code   156  nrfx_gpiote.o(i.nrfx_gpiote_in_event_enable)
    nrfx_gpiote_in_init                      0x0001cb3d   Thumb Code   194  nrfx_gpiote.o(i.nrfx_gpiote_in_init)
    nrfx_gpiote_in_is_set                    0x0001cc0d   Thumb Code    20  nrfx_gpiote.o(i.nrfx_gpiote_in_is_set)
    nrfx_gpiote_init                         0x0001cc21   Thumb Code    94  nrfx_gpiote.o(i.nrfx_gpiote_init)
    nrfx_gpiote_is_init                      0x0001cc8d   Thumb Code    14  nrfx_gpiote.o(i.nrfx_gpiote_is_init)
    nrfx_prs_acquire                         0x0001ccb1   Thumb Code    58  nrfx_prs.o(i.nrfx_prs_acquire)
    nrfx_prs_release                         0x0001cceb   Thumb Code    18  nrfx_prs.o(i.nrfx_prs_release)
    nrfx_uart_0_irq_handler                  0x0001ccfd   Thumb Code     8  nrfx_uart.o(i.nrfx_uart_0_irq_handler)
    nrfx_uart_init                           0x0001cd0d   Thumb Code   196  nrfx_uart.o(i.nrfx_uart_init)
    nrfx_uart_tx                             0x0001cddd   Thumb Code   162  nrfx_uart.o(i.nrfx_uart_tx)
    nrfx_uart_tx_in_progress                 0x0001ce85   Thumb Code    26  nrfx_uart.o(i.nrfx_uart_tx_in_progress)
    nrfx_uart_uninit                         0x0001cea5   Thumb Code   170  nrfx_uart.o(i.nrfx_uart_uninit)
    nrfx_uarte_0_irq_handler                 0x0001cf59   Thumb Code     8  nrfx_uarte.o(i.nrfx_uarte_0_irq_handler)
    nrfx_uarte_init                          0x0001cf69   Thumb Code   100  nrfx_uarte.o(i.nrfx_uarte_init)
    nrfx_uarte_tx                            0x0001cfd5   Thumb Code   166  nrfx_uarte.o(i.nrfx_uarte_tx)
    nrfx_uarte_tx_in_progress                0x0001d081   Thumb Code    22  nrfx_uarte.o(i.nrfx_uarte_tx_in_progress)
    nrfx_uarte_uninit                        0x0001d09d   Thumb Code   214  nrfx_uarte.o(i.nrfx_uarte_uninit)
    nrf_log_backend_uart_api                 0x0001e0e8   Data          12  nrf_log_backend_uart.o(.constdata)
    m_ram_start                              0x0001e198   Data           4  nrf_sdh_ble.o(.constdata)
    __ctype_table                            0x0001e1c4   Data         129  ctype_o.o(.constdata)
    Region$$Table$$Base                      0x0001e8cc   Number         0  anon$$obj.o(Region$$Table)
    Region$$Table$$Limit                     0x0001e8ec   Number         0  anon$$obj.o(Region$$Table)
    log_const_data$$Base                     0x0001e8fc   Number         0  nrf_ble_gatt.o(log_const_data)
    m_nrf_log_nrf_ble_gatt_logs_data_const   0x0001e8fc   Data           8  nrf_ble_gatt.o(log_const_data)
    m_nrf_log_clock_logs_data_const          0x0001e904   Data           8  nrf_drv_clock.o(log_const_data)
    m_nrf_log_CLOCK_logs_data_const          0x0001e90c   Data           8  nrfx_clock.o(log_const_data)
    m_nrf_log_GPIOTE_logs_data_const         0x0001e914   Data           8  nrfx_gpiote.o(log_const_data)
    m_nrf_log_PRS_logs_data_const            0x0001e91c   Data           8  nrfx_prs.o(log_const_data)
    m_nrf_log_UART_logs_data_const           0x0001e924   Data           8  nrfx_uart.o(log_const_data)
    m_nrf_log_UARTE_logs_data_const          0x0001e92c   Data           8  nrfx_uarte.o(log_const_data)
    m_nrf_log_app_button_logs_data_const     0x0001e934   Data           8  app_button.o(log_const_data)
    m_nrf_log_app_timer_logs_data_const      0x0001e93c   Data           8  app_timer2.o(log_const_data)
    m_nrf_log_pwr_mgmt_logs_data_const       0x0001e944   Data           8  nrf_pwr_mgmt.o(log_const_data)
    m_nrf_log_sortlist_logs_data_const       0x0001e94c   Data           8  nrf_sortlist.o(log_const_data)
    m_nrf_log_app_logs_data_const            0x0001e954   Data           8  nrf_log_frontend.o(log_const_data)
    m_nrf_log_nrf_sdh_logs_data_const        0x0001e95c   Data           8  nrf_sdh.o(log_const_data)
    m_nrf_log_nrf_sdh_ble_logs_data_const    0x0001e964   Data           8  nrf_sdh_ble.o(log_const_data)
    m_nrf_log_nrf_sdh_soc_logs_data_const    0x0001e96c   Data           8  nrf_sdh_soc.o(log_const_data)
    log_const_data$$Limit                    0x0001e974   Number         0  nrf_sdh_soc.o(log_const_data)
    log_mempool                              0x0001e974   Data          20  nrf_log_frontend.o(nrf_balloc)
    sdh_ble_observers0$$Base                 0x0001e988   Number         0  ble_conn_state.o(sdh_ble_observers0)
    sdh_ble_observers0$$Limit                0x0001e990   Number         0  ble_conn_state.o(sdh_ble_observers0)
    sdh_ble_observers1$$Base                 0x0001e990   Number         0  main.o(sdh_ble_observers1)
    sdh_ble_observers1$$Limit                0x0001e9a0   Number         0  ble_conn_params.o(sdh_ble_observers1)
    sdh_ble_observers2$$Base                 0x0001e9a0   Number         0  main.o(sdh_ble_observers2)
    sdh_ble_observers2$$Limit                0x0001e9b0   Number         0  main.o(sdh_ble_observers2)
    sdh_ble_observers3$$Base                 0x0001e9b0   Number         0  main.o(sdh_ble_observers3)
    sdh_ble_observers3$$Limit                0x0001e9b8   Number         0  main.o(sdh_ble_observers3)
    sdh_soc_observers0$$Base                 0x0001e9b8   Number         0  nrf_drv_clock.o(sdh_soc_observers0)
    sdh_soc_observers0$$Limit                0x0001e9c0   Number         0  nrf_drv_clock.o(sdh_soc_observers0)
    sdh_stack_observers0$$Base               0x0001e9c0   Number         0  nrf_sdh_ble.o(sdh_stack_observers0)
    sdh_stack_observers0$$Limit              0x0001e9d0   Number         0  nrf_sdh_soc.o(sdh_stack_observers0)
    sdh_state_observers0$$Base               0x0001e9d0   Number         0  nrf_drv_clock.o(sdh_state_observers0)
    sdh_state_observers0$$Limit              0x0001e9d8   Number         0  nrf_drv_clock.o(sdh_state_observers0)
    Image$$RW_IRAM1$$Base                    0x20001ae0   Number         0  anon$$obj.o ABSOLUTE
    SystemCoreClock                          0x20001ae0   Data           4  system_nrf52810.o(.data)
    nrf_drv_uart_use_easy_dma                0x20001b08   Data           1  nrf_drv_uart.o(.data)
    m_uart                                   0x20001b7c   Data          20  nrf_log_backend_uart.o(.data)
    nrf_nvic_state                           0x20001e88   Data          12  app_util_platform.o(.bss)
    __initial_sp                             0x20002c60   Data           0  arm_startup_nrf52810.o(STACK)



==============================================================================

Memory Map of the image

  Image Entry point : 0x00019201

  Load Region LR_IROM1 (Base: 0x00019000, Size: 0x00005ae4, Max: 0x00017000, ABSOLUTE)

    Execution Region ER_IROM1 (Exec base: 0x00019000, Load base: 0x00019000, Size: 0x000059d8, Max: 0x00017000, ABSOLUTE)

    Exec Addr    Load Addr    Size         Type   Attr      Idx    E Section Name        Object

    0x00019000   0x00019000   0x00000200   Data   RO            3    RESET               arm_startup_nrf52810.o
    0x00019200   0x00019200   0x00000000   Code   RO         4746  * .ARM.Collect$$$$00000000  mc_w.l(entry.o)
    0x00019200   0x00019200   0x00000004   Code   RO         4798    .ARM.Collect$$$$00000001  mc_w.l(entry2.o)
    0x00019204   0x00019204   0x00000004   Code   RO         4801    .ARM.Collect$$$$00000004  mc_w.l(entry5.o)
    0x00019208   0x00019208   0x00000000   Code   RO         4803    .ARM.Collect$$$$00000008  mc_w.l(entry7b.o)
    0x00019208   0x00019208   0x00000000   Code   RO         4805    .ARM.Collect$$$$0000000A  mc_w.l(entry8b.o)
    0x00019208   0x00019208   0x00000008   Code   RO         4806    .ARM.Collect$$$$0000000B  mc_w.l(entry9a.o)
    0x00019210   0x00019210   0x00000000   Code   RO         4808    .ARM.Collect$$$$0000000D  mc_w.l(entry10a.o)
    0x00019210   0x00019210   0x00000000   Code   RO         4810    .ARM.Collect$$$$0000000F  mc_w.l(entry11a.o)
    0x00019210   0x00019210   0x00000004   Code   RO         4799    .ARM.Collect$$$$00002712  mc_w.l(entry2.o)
    0x00019214   0x00019214   0x000000c8   Code   RO         3043    .emb_text           nrf_atfifo.o
    0x000192dc   0x000192dc   0x000000e2   Code   RO         3179    .emb_text           nrf_atomic.o
    0x000193be   0x000193be   0x00000002   PAD
    0x000193c0   0x000193c0   0x00000054   Code   RO            4    .text               arm_startup_nrf52810.o
    0x00019414   0x00019414   0x0000001e   Code   RO         4754    .text               mc_w.l(llshl.o)
    0x00019432   0x00019432   0x00000002   PAD
    0x00019434   0x00019434   0x00000008   Code   RO         4756    .text               mc_w.l(ctype_o.o)
    0x0001943c   0x0001943c   0x00000024   Code   RO         4784    .text               mc_w.l(memcpya.o)
    0x00019460   0x00019460   0x00000024   Code   RO         4786    .text               mc_w.l(memseta.o)
    0x00019484   0x00019484   0x0000000e   Code   RO         4788    .text               mc_w.l(strlen.o)
    0x00019492   0x00019492   0x00000002   PAD
    0x00019494   0x00019494   0x00000024   Code   RO         4814    .text               mc_w.l(init.o)
    0x000194b8   0x000194b8   0x00000164   Code   RO         1702    i.GPIOTE_IRQHandler  nrfx_gpiote.o
    0x0001961c   0x0001961c   0x00000058   Code   RO         1564    i.POWER_CLOCK_IRQHandler  nrfx_clock.o
    0x00019674   0x00019674   0x00000010   Code   RO         2832    i.RTC1_IRQHandler   drv_rtc.o
    0x00019684   0x00019684   0x00000004   Code   RO         4539    i.SWI2_IRQHandler   nrf_sdh.o
    0x00019688   0x00019688   0x00000300   Code   RO           14    i.SystemInit        system_nrf52810.o
    0x00019988   0x00019988   0x0000000c   Code   RO         1971    i.UARTE0_UART0_IRQHandler  nrfx_prs.o
    0x00019994   0x00019994   0x0000000e   Code   RO         4818    i.__scatterload_copy  mc_w.l(handlers.o)
    0x000199a2   0x000199a2   0x00000002   Code   RO         4819    i.__scatterload_null  mc_w.l(handlers.o)
    0x000199a4   0x000199a4   0x0000000e   Code   RO         4820    i.__scatterload_zeroinit  mc_w.l(handlers.o)
    0x000199b2   0x000199b2   0x00000002   PAD
    0x000199b4   0x000199b4   0x00000024   Code   RO         4540    i.__sd_nvic_app_accessible_irq  nrf_sdh.o
    0x000199d8   0x000199d8   0x000000a4   Code   RO          111    i.advertising_init  main.o
    0x00019a7c   0x00019a7c   0x00000020   Code   RO          112    i.advertising_start  main.o
    0x00019a9c   0x00019a9c   0x00000048   Code   RO         2373    i.app_button_disable  app_button.o
    0x00019ae4   0x00019ae4   0x00000024   Code   RO         2374    i.app_button_enable  app_button.o
    0x00019b08   0x00019b08   0x00000080   Code   RO         2375    i.app_button_init   app_button.o
    0x00019b88   0x00019b88   0x00000084   Code   RO         2532    i.app_error_fault_handler  app_error_weak.o
    0x00019c0c   0x00019c0c   0x00000016   Code   RO         2472    i.app_error_handler_bare  app_error.o
    0x00019c22   0x00019c22   0x00000002   PAD
    0x00019c24   0x00019c24   0x0000000c   Code   RO         2623    i.app_timer_cnt_get  app_timer2.o
    0x00019c30   0x00019c30   0x00000016   Code   RO         2624    i.app_timer_create  app_timer2.o
    0x00019c46   0x00019c46   0x00000002   PAD
    0x00019c48   0x00019c48   0x0000005c   Code   RO         2625    i.app_timer_init    app_timer2.o
    0x00019ca4   0x00019ca4   0x00000030   Code   RO         2628    i.app_timer_start   app_timer2.o
    0x00019cd4   0x00019cd4   0x0000000c   Code   RO         2629    i.app_timer_stop    app_timer2.o
    0x00019ce0   0x00019ce0   0x00000048   Code   RO         2764    i.app_util_critical_region_enter  app_util_platform.o
    0x00019d28   0x00019d28   0x00000034   Code   RO         2765    i.app_util_critical_region_exit  app_util_platform.o
    0x00019d5c   0x00019d5c   0x00000088   Code   RO         2025    i.apply_config      nrfx_uart.o
    0x00019de4   0x00019de4   0x00000088   Code   RO         2213    i.apply_config      nrfx_uarte.o
    0x00019e6c   0x00019e6c   0x00000182   Code   RO          614    i.ble_advdata_encode  ble_advdata.o
    0x00019fee   0x00019fee   0x00000002   PAD
    0x00019ff0   0x00019ff0   0x00000068   Code   RO          739    i.ble_conn_params_init  ble_conn_params.o
    0x0001a058   0x0001a058   0x00000060   Code   RO          620    i.ble_device_addr_encode  ble_advdata.o
    0x0001a0b8   0x0001a0b8   0x000000fc   Code   RO          114    i.ble_evt_handler   main.o
    0x0001a1b4   0x0001a1b4   0x000000fc   Code   RO          741    i.ble_evt_handler   ble_conn_params.o
    0x0001a2b0   0x0001a2b0   0x00000118   Code   RO          844    i.ble_evt_handler   ble_conn_state.o
    0x0001a3c8   0x0001a3c8   0x000000c4   Code   RO         1178    i.ble_lbs_init      ble_lbs.o
    0x0001a48c   0x0001a48c   0x0000002e   Code   RO         1179    i.ble_lbs_on_ble_evt  ble_lbs.o
    0x0001a4ba   0x0001a4ba   0x0000002e   Code   RO         1180    i.ble_lbs_on_button_change  ble_lbs.o
    0x0001a4e8   0x0001a4e8   0x00000008   Code   RO          999    i.ble_srv_is_notification_enabled  ble_srv_common.o
    0x0001a4f0   0x0001a4f0   0x00000040   Code   RO          425    i.bsp_board_init    boards.o
    0x0001a530   0x0001a530   0x00000010   Code   RO          428    i.bsp_board_led_off  boards.o
    0x0001a540   0x0001a540   0x00000010   Code   RO          429    i.bsp_board_led_on  boards.o
    0x0001a550   0x0001a550   0x00000006   Code   RO          431    i.bsp_board_leds_off  boards.o
    0x0001a556   0x0001a556   0x00000002   PAD
    0x0001a558   0x0001a558   0x00000090   Code   RO         3939    i.buf_prealloc      nrf_log_frontend.o
    0x0001a5e8   0x0001a5e8   0x0000002e   Code   RO         3391    i.buffer_add        nrf_fprintf_format.o
    0x0001a616   0x0001a616   0x00000002   PAD
    0x0001a618   0x0001a618   0x00000014   Code   RO         3940    i.buffer_is_empty   nrf_log_frontend.o
    0x0001a62c   0x0001a62c   0x00000078   Code   RO          115    i.button_event_handler  main.o
    0x0001a6a4   0x0001a6a4   0x00000028   Code   RO         2377    i.button_get        app_button.o
    0x0001a6cc   0x0001a6cc   0x0000001c   Code   RO         1703    i.channel_free      nrfx_gpiote.o
    0x0001a6e8   0x0001a6e8   0x00000048   Code   RO         1704    i.channel_port_alloc  nrfx_gpiote.o
    0x0001a730   0x0001a730   0x00000010   Code   RO         1705    i.channel_port_get  nrfx_gpiote.o
    0x0001a740   0x0001a740   0x00000190   Code   RO         1001    i.characteristic_add  ble_srv_common.o
    0x0001a8d0   0x0001a8d0   0x00000028   Code   RO         1218    i.clock_clk_started_notify  nrf_drv_clock.o
    0x0001a8f8   0x0001a8f8   0x0000001c   Code   RO         1219    i.clock_irq_handler  nrf_drv_clock.o
    0x0001a914   0x0001a914   0x00000018   Code   RO         2631    i.compare_func      app_timer2.o
    0x0001a92c   0x0001a92c   0x0000003e   Code   RO          845    i.conn_handle_list_get  ble_conn_state.o
    0x0001a96a   0x0001a96a   0x00000088   Code   RO          621    i.conn_int_encode   ble_advdata.o
    0x0001a9f2   0x0001a9f2   0x00000004   Code   RO          116    i.conn_params_error_handler  main.o
    0x0001a9f6   0x0001a9f6   0x00000002   PAD
    0x0001a9f8   0x0001a9f8   0x00000048   Code   RO          742    i.conn_params_negotiation  ble_conn_params.o
    0x0001aa40   0x0001aa40   0x00000048   Code   RO         2378    i.detection_delay_timeout_handler  app_button.o
    0x0001aa88   0x0001aa88   0x00000014   Code   RO         3941    i.dropped_sat16_get  nrf_log_frontend.o
    0x0001aa9c   0x0001aa9c   0x00000014   Code   RO         2833    i.drv_rtc_compare_disable  drv_rtc.o
    0x0001aab0   0x0001aab0   0x0000000e   Code   RO         2835    i.drv_rtc_compare_pending  drv_rtc.o
    0x0001aabe   0x0001aabe   0x00000050   Code   RO         2836    i.drv_rtc_compare_set  drv_rtc.o
    0x0001ab0e   0x0001ab0e   0x00000008   Code   RO         2837    i.drv_rtc_counter_get  drv_rtc.o
    0x0001ab16   0x0001ab16   0x00000002   PAD
    0x0001ab18   0x0001ab18   0x000000d4   Code   RO         2838    i.drv_rtc_init      drv_rtc.o
    0x0001abec   0x0001abec   0x0000001a   Code   RO         2839    i.drv_rtc_irq_trigger  drv_rtc.o
    0x0001ac06   0x0001ac06   0x00000008   Code   RO         2841    i.drv_rtc_overflow_enable  drv_rtc.o
    0x0001ac0e   0x0001ac0e   0x00000008   Code   RO         2842    i.drv_rtc_overflow_pending  drv_rtc.o
    0x0001ac16   0x0001ac16   0x00000008   Code   RO         2843    i.drv_rtc_start     drv_rtc.o
    0x0001ac1e   0x0001ac1e   0x00000008   Code   RO         2844    i.drv_rtc_stop      drv_rtc.o
    0x0001ac26   0x0001ac26   0x000000de   Code   RO         2849    i.drv_rtc_windowed_compare_set  drv_rtc.o
    0x0001ad04   0x0001ad04   0x0000004c   Code   RO           15    i.errata_136        system_nrf52810.o
    0x0001ad50   0x0001ad50   0x0000004c   Code   RO           16    i.errata_31         system_nrf52810.o
    0x0001ad9c   0x0001ad9c   0x0000004c   Code   RO           17    i.errata_36         system_nrf52810.o
    0x0001ade8   0x0001ade8   0x00000012   Code   RO         2850    i.evt_enable        drv_rtc.o
    0x0001adfa   0x0001adfa   0x00000002   PAD
    0x0001adfc   0x0001adfc   0x000000e0   Code   RO         2379    i.evt_handle        app_button.o
    0x0001aedc   0x0001aedc   0x00000014   Code   RO         2851    i.evt_pending       drv_rtc.o
    0x0001aef0   0x0001aef0   0x0000000a   Code   RO          846    i.flag_toggle       ble_conn_state.o
    0x0001aefa   0x0001aefa   0x00000002   PAD
    0x0001aefc   0x0001aefc   0x00000034   Code   RO         2632    i.get_now           app_timer2.o
    0x0001af30   0x0001af30   0x0000003c   Code   RO         2380    i.gpiote_event_handler  app_button.o
    0x0001af6c   0x0001af6c   0x00000014   Code   RO          743    i.instance_get      ble_conn_params.o
    0x0001af80   0x0001af80   0x000000a6   Code   RO         3392    i.int_print         nrf_fprintf_format.o
    0x0001b026   0x0001b026   0x00000002   PAD
    0x0001b028   0x0001b028   0x00000084   Code   RO         2214    i.interrupts_enable  nrfx_uarte.o
    0x0001b0ac   0x0001b0ac   0x00000034   Code   RO         3942    i.invalid_packets_omit  nrf_log_frontend.o
    0x0001b0e0   0x0001b0e0   0x00000044   Code   RO          744    i.is_conn_params_ok  ble_conn_params.o
    0x0001b124   0x0001b124   0x00000060   Code   RO          117    i.led_write_handler  main.o
    0x0001b184   0x0001b184   0x0000000e   Code   RO         1059    i.link_init         nrf_ble_gatt.o
    0x0001b192   0x0001b192   0x00000002   PAD
    0x0001b194   0x0001b194   0x0000009c   Code   RO         3943    i.log_skip          nrf_log_frontend.o
    0x0001b230   0x0001b230   0x00000194   Code   RO          118    i.main              main.o
    0x0001b3c4   0x0001b3c4   0x00000064   Code   RO          622    i.manuf_specific_data_encode  ble_advdata.o
    0x0001b428   0x0001b428   0x0000007e   Code   RO         3431    i.memobj_op         nrf_memobj.o
    0x0001b4a6   0x0001b4a6   0x00000002   PAD
    0x0001b4a8   0x0001b4a8   0x00000030   Code   RO         3944    i.module_idx_get    nrf_log_frontend.o
    0x0001b4d8   0x0001b4d8   0x000000a6   Code   RO          623    i.name_encode       ble_advdata.o
    0x0001b57e   0x0001b57e   0x00000026   Code   RO         3047    i.nrf_atfifo_init   nrf_atfifo.o
    0x0001b5a4   0x0001b5a4   0x00000016   Code   RO         3048    i.nrf_atfifo_item_alloc  nrf_atfifo.o
    0x0001b5ba   0x0001b5ba   0x00000016   Code   RO         3049    i.nrf_atfifo_item_free  nrf_atfifo.o
    0x0001b5d0   0x0001b5d0   0x00000016   Code   RO         3050    i.nrf_atfifo_item_get  nrf_atfifo.o
    0x0001b5e6   0x0001b5e6   0x00000016   Code   RO         3051    i.nrf_atfifo_item_put  nrf_atfifo.o
    0x0001b5fc   0x0001b5fc   0x00000016   Code   RO         3113    i.nrf_atflags_clear  nrf_atflags.o
    0x0001b612   0x0001b612   0x00000016   Code   RO         3118    i.nrf_atflags_get   nrf_atflags.o
    0x0001b628   0x0001b628   0x00000014   Code   RO         3120    i.nrf_atflags_set   nrf_atflags.o
    0x0001b63c   0x0001b63c   0x00000006   Code   RO         3181    i.nrf_atomic_flag_clear_fetch  nrf_atomic.o
    0x0001b642   0x0001b642   0x00000006   Code   RO         3182    i.nrf_atomic_flag_set  nrf_atomic.o
    0x0001b648   0x0001b648   0x0000000c   Code   RO         3184    i.nrf_atomic_u32_add  nrf_atomic.o
    0x0001b654   0x0001b654   0x0000000c   Code   RO         3185    i.nrf_atomic_u32_and  nrf_atomic.o
    0x0001b660   0x0001b660   0x0000000a   Code   RO         3188    i.nrf_atomic_u32_fetch_and  nrf_atomic.o
    0x0001b66a   0x0001b66a   0x0000000a   Code   RO         3190    i.nrf_atomic_u32_fetch_store  nrf_atomic.o
    0x0001b674   0x0001b674   0x0000000c   Code   RO         3194    i.nrf_atomic_u32_or  nrf_atomic.o
    0x0001b680   0x0001b680   0x0000000c   Code   RO         3196    i.nrf_atomic_u32_sub  nrf_atomic.o
    0x0001b68c   0x0001b68c   0x00000044   Code   RO         3315    i.nrf_balloc_alloc  nrf_balloc.o
    0x0001b6d0   0x0001b6d0   0x00000030   Code   RO         3316    i.nrf_balloc_free   nrf_balloc.o
    0x0001b700   0x0001b700   0x00000030   Code   RO         3317    i.nrf_balloc_init   nrf_balloc.o
    0x0001b730   0x0001b730   0x00000010   Code   RO         1706    i.nrf_bitmask_bit_is_set  nrfx_gpiote.o
    0x0001b740   0x0001b740   0x00000014   Code   RO         1707    i.nrf_bitmask_bit_set  nrfx_gpiote.o
    0x0001b754   0x0001b754   0x00000022   Code   RO         1063    i.nrf_ble_gatt_init  nrf_ble_gatt.o
    0x0001b776   0x0001b776   0x00000002   PAD
    0x0001b778   0x0001b778   0x000000f4   Code   RO         1064    i.nrf_ble_gatt_on_ble_evt  nrf_ble_gatt.o
    0x0001b86c   0x0001b86c   0x00000016   Code   RO         1134    i.nrf_ble_qwr_conn_handle_assign  nrf_ble_qwr.o
    0x0001b882   0x0001b882   0x00000024   Code   RO         1135    i.nrf_ble_qwr_init  nrf_ble_qwr.o
    0x0001b8a6   0x0001b8a6   0x000000b6   Code   RO         1136    i.nrf_ble_qwr_on_ble_evt  nrf_ble_qwr.o
    0x0001b95c   0x0001b95c   0x0000000e   Code   RO         1565    i.nrf_clock_event_check  nrfx_clock.o
    0x0001b96a   0x0001b96a   0x00000010   Code   RO         1566    i.nrf_clock_event_clear  nrfx_clock.o
    0x0001b97a   0x0001b97a   0x00000002   PAD
    0x0001b97c   0x0001b97c   0x00000038   Code   RO         1226    i.nrf_drv_clock_init  nrf_drv_clock.o
    0x0001b9b4   0x0001b9b4   0x00000030   Code   RO         1230    i.nrf_drv_clock_lfclk_release  nrf_drv_clock.o
    0x0001b9e4   0x0001b9e4   0x00000068   Code   RO         1373    i.nrf_drv_uart_init  nrf_drv_uart.o
    0x0001ba4c   0x0001ba4c   0x0000001a   Code   RO         3352    i.nrf_fprintf       nrf_fprintf.o
    0x0001ba66   0x0001ba66   0x00000018   Code   RO         3353    i.nrf_fprintf_buffer_flush  nrf_fprintf.o
    0x0001ba7e   0x0001ba7e   0x000001da   Code   RO         3393    i.nrf_fprintf_fmt   nrf_fprintf_format.o
    0x0001bc58   0x0001bc58   0x00000024   Code   RO          435    i.nrf_gpio_cfg      boards.o
    0x0001bc7c   0x0001bc7c   0x00000024   Code   RO         1708    i.nrf_gpio_cfg      nrfx_gpiote.o
    0x0001bca0   0x0001bca0   0x00000024   Code   RO         2026    i.nrf_gpio_cfg      nrfx_uart.o
    0x0001bcc4   0x0001bcc4   0x00000024   Code   RO         2215    i.nrf_gpio_cfg      nrfx_uarte.o
    0x0001bce8   0x0001bce8   0x00000012   Code   RO         2027    i.nrf_gpio_cfg_default  nrfx_uart.o
    0x0001bcfa   0x0001bcfa   0x00000012   Code   RO         2216    i.nrf_gpio_cfg_default  nrfx_uarte.o
    0x0001bd0c   0x0001bd0c   0x00000012   Code   RO         2028    i.nrf_gpio_cfg_input  nrfx_uart.o
    0x0001bd1e   0x0001bd1e   0x00000012   Code   RO         2217    i.nrf_gpio_cfg_input  nrfx_uarte.o
    0x0001bd30   0x0001bd30   0x00000014   Code   RO         2029    i.nrf_gpio_cfg_output  nrfx_uart.o
    0x0001bd44   0x0001bd44   0x00000014   Code   RO         2218    i.nrf_gpio_cfg_output  nrfx_uarte.o
    0x0001bd58   0x0001bd58   0x00000022   Code   RO         1710    i.nrf_gpio_cfg_sense_set  nrfx_gpiote.o
    0x0001bd7a   0x0001bd7a   0x00000016   Code   RO          436    i.nrf_gpio_pin_write  boards.o
    0x0001bd90   0x0001bd90   0x00000028   Code   RO         1711    i.nrf_gpio_ports_read  nrfx_gpiote.o
    0x0001bdb8   0x0001bdb8   0x00000014   Code   RO         1712    i.nrf_gpiote_event_clear  nrfx_gpiote.o
    0x0001bdcc   0x0001bdcc   0x00000010   Code   RO         1713    i.nrf_gpiote_event_is_set  nrfx_gpiote.o
    0x0001bddc   0x0001bddc   0x0000005c   Code   RO         3945    i.nrf_log_backend_add  nrf_log_frontend.o
    0x0001be38   0x0001be38   0x000000c8   Code   RO         3784    i.nrf_log_backend_serial_put  nrf_log_backend_serial.o
    0x0001bf00   0x0001bf00   0x00000002   Code   RO         3824    i.nrf_log_backend_uart_flush  nrf_log_backend_uart.o
    0x0001bf02   0x0001bf02   0x00000006   Code   RO         3825    i.nrf_log_backend_uart_init  nrf_log_backend_uart.o
    0x0001bf08   0x0001bf08   0x0000002c   Code   RO         3826    i.nrf_log_backend_uart_panic_set  nrf_log_backend_uart.o
    0x0001bf34   0x0001bf34   0x00000018   Code   RO         3827    i.nrf_log_backend_uart_put  nrf_log_backend_uart.o
    0x0001bf4c   0x0001bf4c   0x00000030   Code   RO         3947    i.nrf_log_color_id_get  nrf_log_frontend.o
    0x0001bf7c   0x0001bf7c   0x0000001c   Code   RO         3903    i.nrf_log_default_backends_init  nrf_log_default_backends.o
    0x0001bf98   0x0001bf98   0x00000234   Code   RO         3948    i.nrf_log_frontend_dequeue  nrf_log_frontend.o
    0x0001c1cc   0x0001c1cc   0x00000008   Code   RO         3950    i.nrf_log_frontend_std_0  nrf_log_frontend.o
    0x0001c1d4   0x0001c1d4   0x0000000e   Code   RO         3951    i.nrf_log_frontend_std_1  nrf_log_frontend.o
    0x0001c1e2   0x0001c1e2   0x00000010   Code   RO         3952    i.nrf_log_frontend_std_2  nrf_log_frontend.o
    0x0001c1f2   0x0001c1f2   0x00000002   PAD
    0x0001c1f4   0x0001c1f4   0x000000b0   Code   RO         4125    i.nrf_log_hexdump_entry_process  nrf_log_str_formatter.o
    0x0001c2a4   0x0001c2a4   0x0000003c   Code   RO         3957    i.nrf_log_init      nrf_log_frontend.o
    0x0001c2e0   0x0001c2e0   0x00000014   Code   RO         3958    i.nrf_log_module_cnt_get  nrf_log_frontend.o
    0x0001c2f4   0x0001c2f4   0x0000001c   Code   RO         3961    i.nrf_log_module_name_get  nrf_log_frontend.o
    0x0001c310   0x0001c310   0x0000002c   Code   RO         3962    i.nrf_log_panic     nrf_log_frontend.o
    0x0001c33c   0x0001c33c   0x000000b6   Code   RO         4126    i.nrf_log_std_entry_process  nrf_log_str_formatter.o
    0x0001c3f2   0x0001c3f2   0x00000060   Code   RO         3432    i.nrf_memobj_alloc  nrf_memobj.o
    0x0001c452   0x0001c452   0x00000032   Code   RO         3433    i.nrf_memobj_free   nrf_memobj.o
    0x0001c484   0x0001c484   0x00000008   Code   RO         3434    i.nrf_memobj_get    nrf_memobj.o
    0x0001c48c   0x0001c48c   0x00000004   Code   RO         3435    i.nrf_memobj_pool_init  nrf_memobj.o
    0x0001c490   0x0001c490   0x0000001e   Code   RO         3436    i.nrf_memobj_put    nrf_memobj.o
    0x0001c4ae   0x0001c4ae   0x00000010   Code   RO         3437    i.nrf_memobj_read   nrf_memobj.o
    0x0001c4be   0x0001c4be   0x00000010   Code   RO         3438    i.nrf_memobj_write  nrf_memobj.o
    0x0001c4ce   0x0001c4ce   0x00000002   PAD
    0x0001c4d0   0x0001c4d0   0x00000028   Code   RO         3510    i.nrf_pwr_mgmt_init  nrf_pwr_mgmt.o
    0x0001c4f8   0x0001c4f8   0x00000014   Code   RO         3511    i.nrf_pwr_mgmt_run  nrf_pwr_mgmt.o
    0x0001c50c   0x0001c50c   0x00000004   Code   RO          119    i.nrf_qwr_error_handler  main.o
    0x0001c510   0x0001c510   0x0000001c   Code   RO         3584    i.nrf_ringbuf_init  nrf_ringbuf.o
    0x0001c52c   0x0001c52c   0x0000000c   Code   RO         2852    i.nrf_rtc_event_clear  drv_rtc.o
    0x0001c538   0x0001c538   0x00000014   Code   RO         4660    i.nrf_sdh_ble_app_ram_start_get  nrf_sdh_ble.o
    0x0001c54c   0x0001c54c   0x000000f8   Code   RO         4661    i.nrf_sdh_ble_default_cfg_set  nrf_sdh_ble.o
    0x0001c644   0x0001c644   0x00000130   Code   RO         4662    i.nrf_sdh_ble_enable  nrf_sdh_ble.o
    0x0001c774   0x0001c774   0x0000005c   Code   RO         4663    i.nrf_sdh_ble_evts_poll  nrf_sdh_ble.o
    0x0001c7d0   0x0001c7d0   0x00000074   Code   RO         4542    i.nrf_sdh_enable_request  nrf_sdh.o
    0x0001c844   0x0001c844   0x00000024   Code   RO         4543    i.nrf_sdh_evts_poll  nrf_sdh.o
    0x0001c868   0x0001c868   0x0000000c   Code   RO         4544    i.nrf_sdh_is_enabled  nrf_sdh.o
    0x0001c874   0x0001c874   0x0000003c   Code   RO         4714    i.nrf_sdh_soc_evts_poll  nrf_sdh_soc.o
    0x0001c8b0   0x0001c8b0   0x0000000a   Code   RO         3642    i.nrf_section_iter_init  nrf_section_iter.o
    0x0001c8ba   0x0001c8ba   0x00000024   Code   RO         3643    i.nrf_section_iter_item_set  nrf_section_iter.o
    0x0001c8de   0x0001c8de   0x00000020   Code   RO         3644    i.nrf_section_iter_next  nrf_section_iter.o
    0x0001c8fe   0x0001c8fe   0x00000022   Code   RO         3677    i.nrf_sortlist_add  nrf_sortlist.o
    0x0001c920   0x0001c920   0x00000006   Code   RO         3679    i.nrf_sortlist_peek  nrf_sortlist.o
    0x0001c926   0x0001c926   0x0000000e   Code   RO         3680    i.nrf_sortlist_pop  nrf_sortlist.o
    0x0001c934   0x0001c934   0x0000001e   Code   RO         3681    i.nrf_sortlist_remove  nrf_sortlist.o
    0x0001c952   0x0001c952   0x00000002   PAD
    0x0001c954   0x0001c954   0x00000038   Code   RO         3733    i.nrf_strerror_find  nrf_strerror.o
    0x0001c98c   0x0001c98c   0x00000014   Code   RO         3734    i.nrf_strerror_get  nrf_strerror.o
    0x0001c9a0   0x0001c9a0   0x0000000a   Code   RO         2030    i.nrf_uart_event_check  nrfx_uart.o
    0x0001c9aa   0x0001c9aa   0x0000000c   Code   RO         2031    i.nrf_uart_event_clear  nrfx_uart.o
    0x0001c9b6   0x0001c9b6   0x0000000c   Code   RO         2032    i.nrf_uart_int_enable_check  nrfx_uart.o
    0x0001c9c2   0x0001c9c2   0x0000000a   Code   RO         2219    i.nrf_uarte_event_check  nrfx_uarte.o
    0x0001c9cc   0x0001c9cc   0x0000000c   Code   RO         2220    i.nrf_uarte_event_clear  nrfx_uarte.o
    0x0001c9d8   0x0001c9d8   0x0000002c   Code   RO         1571    i.nrfx_clock_enable  nrfx_clock.o
    0x0001ca04   0x0001ca04   0x00000020   Code   RO         1574    i.nrfx_clock_init   nrfx_clock.o
    0x0001ca24   0x0001ca24   0x0000001c   Code   RO         1577    i.nrfx_clock_lfclk_stop  nrfx_clock.o
    0x0001ca40   0x0001ca40   0x00000010   Code   RO         2853    i.nrfx_coredep_delay_us  drv_rtc.o
    0x0001ca50   0x0001ca50   0x00000048   Code   RO         1717    i.nrfx_gpiote_in_event_disable  nrfx_gpiote.o
    0x0001ca98   0x0001ca98   0x000000a4   Code   RO         1718    i.nrfx_gpiote_in_event_enable  nrfx_gpiote.o
    0x0001cb3c   0x0001cb3c   0x000000d0   Code   RO         1719    i.nrfx_gpiote_in_init  nrfx_gpiote.o
    0x0001cc0c   0x0001cc0c   0x00000014   Code   RO         1720    i.nrfx_gpiote_in_is_set  nrfx_gpiote.o
    0x0001cc20   0x0001cc20   0x0000006c   Code   RO         1722    i.nrfx_gpiote_init  nrfx_gpiote.o
    0x0001cc8c   0x0001cc8c   0x00000014   Code   RO         1723    i.nrfx_gpiote_is_init  nrfx_gpiote.o
    0x0001cca0   0x0001cca0   0x00000010   Code   RO         2221    i.nrfx_is_in_ram    nrfx_uarte.o
    0x0001ccb0   0x0001ccb0   0x0000003a   Code   RO         1972    i.nrfx_prs_acquire  nrfx_prs.o
    0x0001ccea   0x0001ccea   0x00000012   Code   RO         1973    i.nrfx_prs_release  nrfx_prs.o
    0x0001ccfc   0x0001ccfc   0x00000010   Code   RO         2033    i.nrfx_uart_0_irq_handler  nrfx_uart.o
    0x0001cd0c   0x0001cd0c   0x000000d0   Code   RO         2035    i.nrfx_uart_init    nrfx_uart.o
    0x0001cddc   0x0001cddc   0x000000a8   Code   RO         2041    i.nrfx_uart_tx      nrfx_uart.o
    0x0001ce84   0x0001ce84   0x00000020   Code   RO         2043    i.nrfx_uart_tx_in_progress  nrfx_uart.o
    0x0001cea4   0x0001cea4   0x000000b4   Code   RO         2044    i.nrfx_uart_uninit  nrfx_uart.o
    0x0001cf58   0x0001cf58   0x00000010   Code   RO         2222    i.nrfx_uarte_0_irq_handler  nrfx_uarte.o
    0x0001cf68   0x0001cf68   0x0000006c   Code   RO         2224    i.nrfx_uarte_init   nrfx_uarte.o
    0x0001cfd4   0x0001cfd4   0x000000ac   Code   RO         2228    i.nrfx_uarte_tx     nrfx_uarte.o
    0x0001d080   0x0001d080   0x0000001c   Code   RO         2230    i.nrfx_uarte_tx_in_progress  nrfx_uarte.o
    0x0001d09c   0x0001d09c   0x000000e0   Code   RO         2231    i.nrfx_uarte_uninit  nrfx_uarte.o
    0x0001d17c   0x0001d17c   0x0000001c   Code   RO          120    i.on_conn_params_evt  main.o
    0x0001d198   0x0001d198   0x0000008c   Code   RO         1065    i.on_connected_evt  nrf_ble_gatt.o
    0x0001d224   0x0001d224   0x000000b0   Code   RO         1066    i.on_exchange_mtu_request_evt  nrf_ble_gatt.o
    0x0001d2d4   0x0001d2d4   0x00000018   Code   RO         1739    i.pin_in_use_by_port  nrfx_gpiote.o
    0x0001d2ec   0x0001d2ec   0x00000018   Code   RO         1740    i.pin_in_use_by_te  nrfx_gpiote.o
    0x0001d304   0x0001d304   0x0000003c   Code   RO         4128    i.postfix_process   nrf_log_str_formatter.o
    0x0001d340   0x0001d340   0x00000098   Code   RO         4129    i.prefix_process    nrf_log_str_formatter.o
    0x0001d3d8   0x0001d3d8   0x00000018   Code   RO         1974    i.prs_box_get       nrfx_prs.o
    0x0001d3f0   0x0001d3f0   0x0000005c   Code   RO         2633    i.rtc_irq           app_timer2.o
    0x0001d44c   0x0001d44c   0x00000064   Code   RO         2634    i.rtc_schedule      app_timer2.o
    0x0001d4b0   0x0001d4b0   0x00000074   Code   RO         2635    i.rtc_update        app_timer2.o
    0x0001d524   0x0001d524   0x00000032   Code   RO         2045    i.rx_byte           nrfx_uart.o
    0x0001d556   0x0001d556   0x00000016   Code   RO         2046    i.rx_done_event     nrfx_uart.o
    0x0001d56c   0x0001d56c   0x00000016   Code   RO         2232    i.rx_done_event     nrfx_uarte.o
    0x0001d582   0x0001d582   0x00000002   PAD
    0x0001d584   0x0001d584   0x00000050   Code   RO         1233    i.sd_state_evt_handler  nrf_drv_clock.o
    0x0001d5d4   0x0001d5d4   0x00000030   Code   RO         4549    i.sdh_request_observer_notify  nrf_sdh.o
    0x0001d604   0x0001d604   0x0000002c   Code   RO         4550    i.sdh_state_observer_notify  nrf_sdh.o
    0x0001d630   0x0001d630   0x00000010   Code   RO          745    i.send_error_evt    ble_conn_params.o
    0x0001d640   0x0001d640   0x00000040   Code   RO         3828    i.serial_tx         nrf_log_backend_uart.o
    0x0001d680   0x0001d680   0x00000088   Code   RO          624    i.service_data_encode  ble_advdata.o
    0x0001d708   0x0001d708   0x00000030   Code   RO         1003    i.set_security_req  ble_srv_common.o
    0x0001d738   0x0001d738   0x00000018   Code   RO         1234    i.soc_evt_handler   nrf_drv_clock.o
    0x0001d750   0x0001d750   0x00000058   Code   RO         4552    i.softdevices_evt_irq_enable  nrf_sdh.o
    0x0001d7a8   0x0001d7a8   0x0000000c   Code   RO         2636    i.sortlist_pop      app_timer2.o
    0x0001d7b4   0x0001d7b4   0x00000030   Code   RO         2381    i.state_set         app_button.o
    0x0001d7e4   0x0001d7e4   0x0000008c   Code   RO         3964    i.std_n             nrf_log_frontend.o
    0x0001d870   0x0001d870   0x00000058   Code   RO         2637    i.timer_expire      app_timer2.o
    0x0001d8c8   0x0001d8c8   0x00000078   Code   RO         2638    i.timer_req_process  app_timer2.o
    0x0001d940   0x0001d940   0x00000038   Code   RO         2639    i.timer_req_schedule  app_timer2.o
    0x0001d978   0x0001d978   0x00000018   Code   RO         2382    i.timer_start       app_button.o
    0x0001d990   0x0001d990   0x00000020   Code   RO         2048    i.tx_byte           nrfx_uart.o
    0x0001d9b0   0x0001d9b0   0x0000001a   Code   RO         2049    i.tx_done_event     nrfx_uart.o
    0x0001d9ca   0x0001d9ca   0x0000001a   Code   RO         2233    i.tx_done_event     nrfx_uarte.o
    0x0001d9e4   0x0001d9e4   0x00000030   Code   RO         1374    i.uart_evt_handler  nrf_drv_uart.o
    0x0001da14   0x0001da14   0x0000000c   Code   RO         3829    i.uart_evt_handler  nrf_log_backend_uart.o
    0x0001da20   0x0001da20   0x00000050   Code   RO         3830    i.uart_init         nrf_log_backend_uart.o
    0x0001da70   0x0001da70   0x0000012a   Code   RO         2050    i.uart_irq_handler  nrfx_uart.o
    0x0001db9a   0x0001db9a   0x00000002   PAD
    0x0001db9c   0x0001db9c   0x00000030   Code   RO         1375    i.uarte_evt_handler  nrf_drv_uart.o
    0x0001dbcc   0x0001dbcc   0x00000112   Code   RO         2234    i.uarte_irq_handler  nrfx_uarte.o
    0x0001dcde   0x0001dcde   0x0000000a   Code   RO          625    i.uint16_encode     ble_advdata.o
    0x0001dce8   0x0001dce8   0x000000b4   Code   RO         3394    i.unsigned_print    nrf_fprintf_format.o
    0x0001dd9c   0x0001dd9c   0x00000068   Code   RO          746    i.update_timeout_handler  ble_conn_params.o
    0x0001de04   0x0001de04   0x00000024   Code   RO         1137    i.user_mem_reply    nrf_ble_qwr.o
    0x0001de28   0x0001de28   0x00000020   Code   RO         2383    i.usr_event         app_button.o
    0x0001de48   0x0001de48   0x00000030   Code   RO          626    i.uuid_list_encode  ble_advdata.o
    0x0001de78   0x0001de78   0x0000009e   Code   RO          627    i.uuid_list_sized_encode  ble_advdata.o
    0x0001df16   0x0001df16   0x00000002   PAD
    0x0001df18   0x0001df18   0x00000004   Data   RO          124    .constdata          main.o
    0x0001df1c   0x0001df1c   0x00000002   Data   RO          437    .constdata          boards.o
    0x0001df1e   0x0001df1e   0x00000002   PAD
    0x0001df20   0x0001df20   0x0000000e   Data   RO         1067    .constdata          nrf_ble_gatt.o
    0x0001df2e   0x0001df2e   0x00000002   PAD
    0x0001df30   0x0001df30   0x00000010   Data   RO         1181    .constdata          ble_lbs.o
    0x0001df40   0x0001df40   0x00000004   Data   RO         1742    .constdata          nrfx_gpiote.o
    0x0001df44   0x0001df44   0x00000004   Data   RO         2053    .constdata          nrfx_uart.o
    0x0001df48   0x0001df48   0x00000004   Data   RO         2237    .constdata          nrfx_uarte.o
    0x0001df4c   0x0001df4c   0x00000008   Data   RO         2386    .constdata          app_button.o
    0x0001df54   0x0001df54   0x00000014   Data   RO         2642    .constdata          app_timer2.o
    0x0001df68   0x0001df68   0x00000008   PAD
    0x0001df70   0x0001df70   0x00000006   Data   RO         2854    .constdata          drv_rtc.o
    0x0001df76   0x0001df76   0x00000010   Data   RO         3395    .constdata          nrf_fprintf_format.o
    0x0001df86   0x0001df86   0x00000002   PAD
    0x0001df88   0x0001df88   0x00000018   Data   RO         3515    .constdata          nrf_pwr_mgmt.o
    0x0001dfa0   0x0001dfa0   0x0000000c   Data   RO         3516    .constdata          nrf_pwr_mgmt.o
    0x0001dfac   0x0001dfac   0x0000013c   Data   RO         3735    .constdata          nrf_strerror.o
    0x0001e0e8   0x0001e0e8   0x0000000c   Data   RO         3832    .constdata          nrf_log_backend_uart.o
    0x0001e0f4   0x0001e0f4   0x00000020   Data   RO         3833    .constdata          nrf_log_backend_uart.o
    0x0001e114   0x0001e114   0x0000000c   Data   RO         3969    .constdata          nrf_log_frontend.o
    0x0001e120   0x0001e120   0x00000010   Data   RO         4553    .constdata          nrf_sdh.o
    0x0001e130   0x0001e130   0x00000028   Data   RO         4554    .constdata          nrf_sdh.o
    0x0001e158   0x0001e158   0x00000010   Data   RO         4555    .constdata          nrf_sdh.o
    0x0001e168   0x0001e168   0x00000010   Data   RO         4556    .constdata          nrf_sdh.o
    0x0001e178   0x0001e178   0x00000020   Data   RO         4664    .constdata          nrf_sdh_ble.o
    0x0001e198   0x0001e198   0x00000010   Data   RO         4665    .constdata          nrf_sdh_ble.o
    0x0001e1a8   0x0001e1a8   0x00000010   Data   RO         4715    .constdata          nrf_sdh_soc.o
    0x0001e1b8   0x0001e1b8   0x0000000c   Data   RO         4716    .constdata          nrf_sdh_soc.o
    0x0001e1c4   0x0001e1c4   0x00000081   Data   RO         4757    .constdata          mc_w.l(ctype_o.o)
    0x0001e245   0x0001e245   0x00000003   PAD
    0x0001e248   0x0001e248   0x00000004   Data   RO         4758    .constdata          mc_w.l(ctype_o.o)
    0x0001e24c   0x0001e24c   0x000003eb   Data   RO         3736    .conststring        nrf_strerror.o
    0x0001e637   0x0001e637   0x00000001   PAD
    0x0001e638   0x0001e638   0x00000066   Data   RO         4130    .conststring        nrf_log_str_formatter.o
    0x0001e69e   0x0001e69e   0x00000002   PAD
    0x0001e6a0   0x0001e6a0   0x00000188   Data   RO         4666    .conststring        nrf_sdh_ble.o
    0x0001e828   0x0001e828   0x0000000d   Data   RO         1068    .conststrlit        nrf_ble_gatt.o
    0x0001e835   0x0001e835   0x00000003   PAD
    0x0001e838   0x0001e838   0x00000006   Data   RO         1240    .conststrlit        nrf_drv_clock.o
    0x0001e83e   0x0001e83e   0x00000002   PAD
    0x0001e840   0x0001e840   0x00000006   Data   RO         1581    .conststrlit        nrfx_clock.o
    0x0001e846   0x0001e846   0x00000002   PAD
    0x0001e848   0x0001e848   0x00000007   Data   RO         1746    .conststrlit        nrfx_gpiote.o
    0x0001e84f   0x0001e84f   0x00000001   PAD
    0x0001e850   0x0001e850   0x00000004   Data   RO         1976    .conststrlit        nrfx_prs.o
    0x0001e854   0x0001e854   0x00000005   Data   RO         2056    .conststrlit        nrfx_uart.o
    0x0001e859   0x0001e859   0x00000003   PAD
    0x0001e85c   0x0001e85c   0x00000006   Data   RO         2240    .conststrlit        nrfx_uarte.o
    0x0001e862   0x0001e862   0x00000002   PAD
    0x0001e864   0x0001e864   0x0000000b   Data   RO         2387    .conststrlit        app_button.o
    0x0001e86f   0x0001e86f   0x00000001   PAD
    0x0001e870   0x0001e870   0x0000000a   Data   RO         2643    .conststrlit        app_timer2.o
    0x0001e87a   0x0001e87a   0x00000002   PAD
    0x0001e87c   0x0001e87c   0x00000009   Data   RO         3517    .conststrlit        nrf_pwr_mgmt.o
    0x0001e885   0x0001e885   0x00000003   PAD
    0x0001e888   0x0001e888   0x00000009   Data   RO         3682    .conststrlit        nrf_sortlist.o
    0x0001e891   0x0001e891   0x00000003   PAD
    0x0001e894   0x0001e894   0x00000011   Data   RO         3904    .conststrlit        nrf_log_default_backends.o
    0x0001e8a5   0x0001e8a5   0x00000003   PAD
    0x0001e8a8   0x0001e8a8   0x00000004   Data   RO         3970    .conststrlit        nrf_log_frontend.o
    0x0001e8ac   0x0001e8ac   0x00000008   Data   RO         4557    .conststrlit        nrf_sdh.o
    0x0001e8b4   0x0001e8b4   0x0000000c   Data   RO         4667    .conststrlit        nrf_sdh_ble.o
    0x0001e8c0   0x0001e8c0   0x0000000c   Data   RO         4717    .conststrlit        nrf_sdh_soc.o
    0x0001e8cc   0x0001e8cc   0x00000020   Data   RO         4816    Region$$Table       anon$$obj.o
    0x0001e8ec   0x0001e8ec   0x00000010   Data   RO         3906    log_backends        nrf_log_default_backends.o
    0x0001e8fc   0x0001e8fc   0x00000008   Data   RO         1069    log_const_data      nrf_ble_gatt.o
    0x0001e904   0x0001e904   0x00000008   Data   RO         1241    log_const_data      nrf_drv_clock.o
    0x0001e90c   0x0001e90c   0x00000008   Data   RO         1583    log_const_data      nrfx_clock.o
    0x0001e914   0x0001e914   0x00000008   Data   RO         1747    log_const_data      nrfx_gpiote.o
    0x0001e91c   0x0001e91c   0x00000008   Data   RO         1978    log_const_data      nrfx_prs.o
    0x0001e924   0x0001e924   0x00000008   Data   RO         2057    log_const_data      nrfx_uart.o
    0x0001e92c   0x0001e92c   0x00000008   Data   RO         2241    log_const_data      nrfx_uarte.o
    0x0001e934   0x0001e934   0x00000008   Data   RO         2389    log_const_data      app_button.o
    0x0001e93c   0x0001e93c   0x00000008   Data   RO         2646    log_const_data      app_timer2.o
    0x0001e944   0x0001e944   0x00000008   Data   RO         3519    log_const_data      nrf_pwr_mgmt.o
    0x0001e94c   0x0001e94c   0x00000008   Data   RO         3683    log_const_data      nrf_sortlist.o
    0x0001e954   0x0001e954   0x00000008   Data   RO         3973    log_const_data      nrf_log_frontend.o
    0x0001e95c   0x0001e95c   0x00000008   Data   RO         4559    log_const_data      nrf_sdh.o
    0x0001e964   0x0001e964   0x00000008   Data   RO         4669    log_const_data      nrf_sdh_ble.o
    0x0001e96c   0x0001e96c   0x00000008   Data   RO         4718    log_const_data      nrf_sdh_soc.o
    0x0001e974   0x0001e974   0x00000014   Data   RO         3974    nrf_balloc          nrf_log_frontend.o
    0x0001e988   0x0001e988   0x00000008   Data   RO          850    sdh_ble_observers0  ble_conn_state.o
    0x0001e990   0x0001e990   0x00000008   Data   RO          126    sdh_ble_observers1  main.o
    0x0001e998   0x0001e998   0x00000008   Data   RO          749    sdh_ble_observers1  ble_conn_params.o
    0x0001e9a0   0x0001e9a0   0x00000010   Data   RO          127    sdh_ble_observers2  main.o
    0x0001e9b0   0x0001e9b0   0x00000008   Data   RO          128    sdh_ble_observers3  main.o
    0x0001e9b8   0x0001e9b8   0x00000008   Data   RO         1242    sdh_soc_observers0  nrf_drv_clock.o
    0x0001e9c0   0x0001e9c0   0x00000008   Data   RO         4670    sdh_stack_observers0  nrf_sdh_ble.o
    0x0001e9c8   0x0001e9c8   0x00000008   Data   RO         4719    sdh_stack_observers0  nrf_sdh_soc.o
    0x0001e9d0   0x0001e9d0   0x00000008   Data   RO         1243    sdh_state_observers0  nrf_drv_clock.o


    Execution Region RW_IRAM1 (Exec base: 0x20001ae0, Load base: 0x0001e9d8, Size: 0x00001180, Max: 0x00004520, ABSOLUTE)

    Exec Addr    Load Addr    Size         Type   Attr      Idx    E Section Name        Object

    0x20001ae0   0x0001e9d8   0x00000004   Data   RW           18    .data               system_nrf52810.o
    0x20001ae4   0x0001e9dc   0x0000001c   Data   RW          125    .data               main.o
    0x20001b00   0x0001e9f8   0x00000008   Data   RW          748    .data               ble_conn_params.o
    0x20001b08   0x0001ea00   0x0000000c   Data   RW         1376    .data               nrf_drv_uart.o
    0x20001b14   0x0001ea0c   0x00000008   Data   RW         1582    .data               nrfx_clock.o
    0x20001b1c   0x0001ea14   0x00000008   Data   RW         1977    .data               nrfx_prs.o
    0x20001b24   0x0001ea1c   0x00000004   PAD
    0x20001b28   0x0001ea20   0x00000018   Data   RW         2388    .data               app_button.o
    0x20001b40   0x0001ea38   0x00000020   Data   RW         2644    .data               app_timer2.o
    0x20001b60   0x0001ea58   0x00000004   Data   RW         2645    .data               app_timer2.o
    0x20001b64   0x0001ea5c   0x0000000c   Data   RW         2855    .data               drv_rtc.o
    0x20001b70   0x0001ea68   0x00000008   Data   RW         3518    .data               nrf_pwr_mgmt.o
    0x20001b78   0x0001ea70   0x00000018   Data   RW         3834    .data               nrf_log_backend_uart.o
    0x20001b90   0x0001ea88   0x00000008   Data   RW         3905    .data               nrf_log_default_backends.o
    0x20001b98   0x0001ea90   0x00000008   Data   RW         3971    .data               nrf_log_frontend.o
    0x20001ba0   0x0001ea98   0x00000008   Data   RW         3972    .data               nrf_log_frontend.o
    0x20001ba8   0x0001eaa0   0x00000040   Data   RW         4131    .data               nrf_log_str_formatter.o
    0x20001be8   0x0001eae0   0x00000003   Data   RW         4558    .data               nrf_sdh.o
    0x20001beb   0x0001eae3   0x00000001   Data   RW         4668    .data               nrf_sdh_ble.o
    0x20001bec        -       0x00000034   Zero   RW          121    .bss                main.o
    0x20001c20        -       0x0000001f   Zero   RW          122    .bss                main.o
    0x20001c3f        -       0x0000001f   Zero   RW          123    .bss                main.o
    0x20001c5e   0x0001eae4   0x00000002   PAD
    0x20001c60        -       0x00000050   Zero   RW          747    .bss                ble_conn_params.o
    0x20001cb0        -       0x0000007c   Zero   RW          849    .bss                ble_conn_state.o
    0x20001d2c        -       0x00000014   Zero   RW         1235    .bss                nrf_drv_clock.o
    0x20001d40        -       0x0000005c   Zero   RW         1741    .bss                nrfx_gpiote.o
    0x20001d9c        -       0x0000002c   Zero   RW         2051    .bss                nrfx_uart.o
    0x20001dc8        -       0x00000024   Zero   RW         2235    .bss                nrfx_uarte.o
    0x20001dec   0x0001eae4   0x00000004   PAD
    0x20001df0        -       0x00000020   Zero   RW         2384    .bss                app_button.o
    0x20001e10        -       0x00000010   Zero   RW         2385    .bss                app_button.o
    0x20001e20        -       0x00000010   Zero   RW         2640    .bss                app_timer2.o
    0x20001e30        -       0x00000058   Zero   RW         2641    .bss                app_timer2.o
    0x20001e88        -       0x0000000c   Zero   RW         2770    .bss                app_util_platform.o
    0x20001e94        -       0x0000000c   Zero   RW         3514    .bss                nrf_pwr_mgmt.o
    0x20001ea0        -       0x00000040   Zero   RW         3831    .bss                nrf_log_backend_uart.o
    0x20001ee0        -       0x000000c0   Zero   RW         3965    .bss                nrf_log_frontend.o
    0x20001fa0        -       0x00000080   Zero   RW         3966    .bss                nrf_log_frontend.o
    0x20002020        -       0x00000018   Zero   RW         3967    .bss                nrf_log_frontend.o
    0x20002038        -       0x00000424   Zero   RW         3968    .bss                nrf_log_frontend.o
    0x2000245c   0x0001eae4   0x00000004   PAD
    0x20002460        -       0x00000800   Zero   RW            1    STACK               arm_startup_nrf52810.o


==============================================================================

Image component sizes


      Code (inc. data)   RO Data    RW Data    ZI Data      Debug   Object Name

       736         74         27         24         48      17683   app_button.o
        22          0          0          0          0       2365   app_error.o
       132         46          0          0          0       3886   app_error_weak.o
       846         88         38         36        104      15541   app_timer2.o
       124         14          0          0         12       9450   app_util_platform.o
        84         22        512          0       2048        924   arm_startup_nrf52810.o
      1236          0          0          0          0      89855   ble_advdata.o
       636         44          8          8         80      13831   ble_conn_params.o
       352          6          8          0        124       6049   ble_conn_state.o
       288          6         16          0          0       4619   ble_lbs.o
       456          6          0          0          0       3143   ble_srv_common.o
       160         16          2          0          0      14309   boards.o
       696         76          6         12          0      42821   drv_rtc.o
      1104        238         36         28        114     148010   main.o
       326          0          0          0          0       5495   nrf_atfifo.o
        64          0          0          0          0       2724   nrf_atflags.o
       306          0          0          0          0       7355   nrf_atomic.o
       164          0          0          0          0       3392   nrf_balloc.o
       608        186         35          0          0       7211   nrf_ble_gatt.o
       276          0          0          0          0       5889   nrf_ble_qwr.o
       276         34         30          0         20      36360   nrf_drv_clock.o
       200         26          0         12          0      17444   nrf_drv_uart.o
        50          0          0          0          0       3381   nrf_fprintf.o
       866          4         16          0          0       6254   nrf_fprintf_format.o
       200          0          0          0          0      11413   nrf_log_backend_serial.o
       232         44         44         24         64      20366   nrf_log_backend_uart.o
        28          4         33          8          0       3237   nrf_log_default_backends.o
      1474        114         44         16       1404      28442   nrf_log_frontend.o
       570        108        102         64          0       5336   nrf_log_str_formatter.o
       346          0          0          0          0       8991   nrf_memobj.o
        60         12         53          8         12       4767   nrf_pwr_mgmt.o
        28          0          0          0          0       2255   nrf_ringbuf.o
       384         46        104          3          0      36242   nrf_sdh.o
       664        230        468          1          0       5525   nrf_sdh_ble.o
        60          4         56          0          0       2348   nrf_sdh_soc.o
        78          0          0          0          0       2544   nrf_section_iter.o
        84          0         17          0          0       3777   nrf_sortlist.o
        76         10       1319          0          0       2551   nrf_strerror.o
       222         30         14          8          0      40434   nrfx_clock.o
      1294         98         19          0         92      56614   nrfx_gpiote.o
       112         16         12          8          0       4152   nrfx_prs.o
      1294         42         17          0         44      28805   nrfx_uart.o
      1268         42         18          0         36      24467   nrfx_uarte.o
       996         92          0          4          0      56558   system_nrf52810.o

    ----------------------------------------------------------------------
     19520       1778       3128        268       4212     816815   Object Totals
         0          0         32          0          0          0   (incl. Generated)
        42          0         42          4         10          0   (incl. Padding)

    ----------------------------------------------------------------------

      Code (inc. data)   RO Data    RW Data    ZI Data      Debug   Library Member Name

         8          4        133          0          0         68   ctype_o.o
         0          0          0          0          0          0   entry.o
         0          0          0          0          0          0   entry10a.o
         0          0          0          0          0          0   entry11a.o
         8          4          0          0          0          0   entry2.o
         4          0          0          0          0          0   entry5.o
         0          0          0          0          0          0   entry7b.o
         0          0          0          0          0          0   entry8b.o
         8          4          0          0          0          0   entry9a.o
        30          0          0          0          0          0   handlers.o
        36          8          0          0          0         68   init.o
        30          0          0          0          0         68   llshl.o
        36          0          0          0          0         68   memcpya.o
        36          0          0          0          0        108   memseta.o
        14          0          0          0          0         68   strlen.o

    ----------------------------------------------------------------------
       216         20        136          0          0        448   Library Totals
         6          0          3          0          0          0   (incl. Padding)

    ----------------------------------------------------------------------

      Code (inc. data)   RO Data    RW Data    ZI Data      Debug   Library Name

       210         20        133          0          0        448   mc_w.l

    ----------------------------------------------------------------------
       216         20        136          0          0        448   Library Totals

    ----------------------------------------------------------------------

==============================================================================


      Code (inc. data)   RO Data    RW Data    ZI Data      Debug   

     19736       1798       3264        268       4212     803895   Grand Totals
     19736       1798       3264        268       4212     803895   ELF Image Totals
     19736       1798       3264        268          0          0   ROM Totals

==============================================================================

    Total RO  Size (Code + RO Data)                23000 (  22.46kB)
    Total RW  Size (RW Data + ZI Data)              4480 (   4.38kB)
    Total ROM Size (Code + RO Data + RW Data)      23268 (  22.72kB)

==============================================================================

