:020000040001F9
:10900000602C0020C1930100EB930100ED9301005F
:10901000EF930100F1930100F393010000000000C1
:10902000000000000000000000000000F5930100B7
:10903000F793010000000000F9930100FB93010089
:109040001D960100FD93010089990100FD93010027
:10905000FD93010000000000B9940100FD930100A0
:10906000FD930100FD930100FD930100FD930100BC
:10907000FD930100FD930100FD930100FD930100AC
:10908000FD93010075960100FD930100FD93010021
:10909000FD930100FD93010085960100FD93010001
:1090A000FD930100FD93010000000000000000009E
:1090B000FD930100FD93010000000000000000008E
:1090C00000000000000000000000000000000000A0
:1090D0000000000000000000000000000000000090
:1090E0000000000000000000000000000000000080
:1090F0000000000000000000000000000000000070
:10910000000000000000000000000000000000005F
:10911000000000000000000000000000000000004F
:10912000000000000000000000000000000000003F
:10913000000000000000000000000000000000002F
:10914000000000000000000000000000000000001F
:10915000000000000000000000000000000000000F
:1091600000000000000000000000000000000000FF
:1091700000000000000000000000000000000000EF
:1091800000000000000000000000000000000000DF
:1091900000000000000000000000000000000000CF
:1091A00000000000000000000000000000000000BF
:1091B00000000000000000000000000000000000AF
:1091C000000000000000000000000000000000009F
:1091D000000000000000000000000000000000008F
:1091E000000000000000000000000000000000007F
:1091F000000000000000000000000000000000006F
:10920000DFF80CD000F046F90048004731B2010009
:10921000602C002030B450E8012F93B2C48923445D
:109220008489A34228BF1B1B0489A34202BFBFF34A
:109230002F8F002007E0C3EA020340E80134002C2E
:10924000E9D14FF001000A6030BC704750E8012FAF
:10925000C2EA024240E801210029F7D1704730B448
:1092600050E8022F1FFAA2F3C488A34202BFBFF343
:109270002F8F00200DE0C48923448489A34228BF96
:109280001B1BC2EA034340E80234002CE8D14FF034
:1092900001000A6030BC704750E8022FC2EA224247
:1092A00040E802210029F7D17047034653E8022F16
:1092B000D988B2EB324F4FF0000017BF92B241EAAB
:1092C000014142EA014104E05A68B2EB324F08BF63
:1092D000012043E80212002AE8D1704730B4044666
:1092E00054E8000F0D4644E80053002BF8D11560F8
:1092F00030BC704730B4044654E8000F40EA010522
:1093000044E80053002BF7D1156030BC704730B4EF
:10931000044654E8000F00EA010544E80053002B1E
:10932000F7D1156030BC704730B4044654E8000FE4
:1093300080EA010544E80053002BF7D1156030BCEA
:10934000704730B4044654E8000F00EB010544E8D0
:109350000053002BF7D1156030BC704730B4044681
:1093600054E8000FA0EB010544E80053002BF7D1AF
:10937000156030BC704770B404464FF0000054E8EC
:10938000006F0D68AE4207BF44E80023012044E8A7
:1093900000630E60002B1CBF0020F0E770BC70471C
:1093A00030B4044654E8000F88422CBF451A0546E5
:1093B00044E80053002BF5D1156030BC7047000025
:1093C0000F4800680F4909680A280AD1002908D106
:1093D0000D4802686FF070031A404FF040031A43C3
:1093E00002600A4880470A480047FEE7FEE7FEE7BA
:1093F000FEE7FEE7FEE7FEE7FEE7FEE7FEE700002A
:109400003001001034010010E40E00408996010084
:1094100001920100202A04DB203A00FA02F1002028
:1094200070479140C2F1200320FA03F319439040A2
:10943000704700000048704748E2010040EA01031D
:109440009B0703D009E008C9121F08C0042AFAD2FA
:1094500003E011F8013B00F8013B521EF9D27047BE
:10946000D2B201E000F8012B491EFBD27047002266
:10947000F6E710B513460A4604461946FFF7F0FF13
:10948000204610BD421C10F8011B0029FBD1801A98
:1094900070470000064C074D06E0E06840F001030D
:1094A00094E8070098471034AC42F6D3FFF7ACFEBF
:1094B000CCE80100ECE801002DE9F04700268AB075
:1094C000DFF85091B0464FF4807501243746069678
:1094D000284602F07BFC38B1D9F80403204203D0BF
:1094E000284602F069FC26432D1D64007F1CADB2A6
:1094F000082FEDD34FF4BE74204602F067FC48B14C
:10950000204602F059FC46F0004606AA0121002040
:1095100002F03EFC404D16F0FF0F15D0012700244D
:1095200037420DD009EB8401D1F81005D1F81015A0
:10953000C0F3042055F82420C1F3014102B1904743
:109540007F00641C082CEBD3002E5FDA4FF0FF3055
:10955000CDF8108054E0281910F8507F90F90000E1
:1095600027F0C008401C3BD007A9404602F0E0F8B5
:1095700010B34FEA9719404601F0DAF855F8207019
:109580001FB1B9F1030F03D006E0B9F1030F27D1E2
:1095900004A9404602F0D4F84FF0A04101EB880046
:1095A000D0F8000706A9C0F3014A404602F0C0F80F
:1095B00018B1BAF1020F03D012E0BAF1030F0FD1C4
:1095C000B9F1030F08D1BAF1020F1DD002214046B4
:1095D00002F0C2FB761CF6B217B149464046B847C6
:1095E000641C042CB7D3002E10D06A460121002041
:1095F00002F0CEFB06990098884207D006900498A6
:10960000002634460790A6E70321E0E70AB0BDE84C
:10961000F087000000600040401D002070B54FF44E
:109620008076304602F09AF9114CB50560B13046AB
:1096300002F09BF90120C5F80803607920B90120E8
:1096400060712168002088474FF48276304602F02E
:1096500085F900280AD0304602F087F90220C5F8C3
:1096600008032168BDE870400120084770BD000074
:10967000141B002002490248091F096800680847B6
:10968000681B002003F0DEB82DE9F047AC4F4FF027
:1096900001093E1D3978351D4FF0805406290BD144
:1096A0003078000708D12878C0F30310032806D0CB
:1096B000042804D0052802D0062907D011E0B4F808
:1096C0002403A049C0F30420086002E030780007BA
:1096D00007D12878C0F30310032802D19B499A4888
:1096E000486701F035FB28B1D4F844029849C0F32B
:1096F000423008603878B84606280CD13078000728
:1097000009D12878C0F30310032804D191480168D7
:1097100021F08071016001F041FB002740B14FF062
:109720008040C0F80C71C0F810718948001F0760B4
:1097300098F80000062807D13178090704D1297864
:10974000C1F30311032902D0062805D019E0804A8D
:1097500003216432116007E03178090711D12978BB
:10976000C1F3031103290CD17B4B05221A607A4AFD
:109770007832C2F80090784908310F603F211A1DF5
:109780001160D4F830210A2A04D1D4F8341159B127
:10979000012909D0062807D13178090704D1297891
:1097A000C1F30311052955D16C4909686C4B196047
:1097B0006A49091D09681B1D196068490831096853
:1097C0001B1D196065490C3109681B1D196063492F
:1097D000103109681B1D19606049143109681B1D8F
:1097E00019605E49183109685D4B203319605B4987
:1097F0001C3109681B1D19605849203109681B1D5F
:1098000019605649243109681B1D196053492831D4
:1098100009681B1D196051492C3109681B1D19600D
:109820004E49303109684E4B403319604B49343151
:1098300009681B1D19604949383109681B1D1960E9
:1098400046493C3109681B1D19604449403109688B
:109850001B1D19600A2A05D1D4F8341111B9414AE7
:10986000FB211160DFF80081062811D13078000754
:109870000ED12878C0F30310032803D0042801D0A8
:10988000052805D1D4F8580200F04F01C8F800109F
:1098900001F038FA30B135480168C90702D06FF0DD
:1098A00001010160D4F83001062803D1D4F8341145
:1098B000062902D00A2806D008E02D48016841F4A4
:1098C0008061016002E0D4F8340128B1D8F80010BA
:1098D00041F00F01C8F800104FF01021D1F800023C
:1098E000002803DBD1F80402002823DA214AC2F859
:1098F000009021480368002BFCD01523C1F80032EA
:109900000468002CFCD0C1F8043201680029FCD0A6
:10991000176001680029FCD0BFF34F8F0D48F03865
:109920000168164A01F4E06111430160BFF34F8FF3
:1099300000BFFDE7134912480860BDE8F08700004A
:10994000E00F00F0403501400DF0ADBA00C0074017
:109950003C050040FCED00E01056004004040010FF
:1099600020C5004018F50040E40E0040000400400F
:109970003C17004004E5014000E401400400FA0502
:109980000090D003E01A0020014800680047000062
:109990001C1B002002E008C8121F08C1002AFAD1CF
:1099A00070477047002001E001C1121F002AFBD15F
:1099B000704700000121202803DA8140054801405A
:1099C00003E0402802DA2038814009B101207047C5
:1099D00000207047FC06FFBD30B52548A5B03C21EE
:1099E000006824902348807C8DF892006846FFF739
:1099F0003EFD02208DF8000001248DF80240062073
:109A00008DF803003C210FA8FFF731FD24A81A4D63
:109A10001490ADF84C402A1D6846296800F026FADB
:109A200008B100F0F3F8144A0FA80C32A96800F04E
:109A30001DFA08B100F0EAF818211EA8FFF717FD7B
:109A400000208DF88D408DF87840ADF884001F908F
:109A50008DF88C004020084920901EAAA1F10C002E
:109A600072DF002801D000F0D1F825B030BD000031
:109A700018DF0100EC1B0020F01A0020064810B58A
:109A80000121007873DF08B100F0C0F8BDE8104094
:109A9000002000F055BD0000E41A002038B5002475
:109AA0000E4D05E0686810F8340002F0D1FF641C28
:109AB00028788442F6D300208DF80000684600F034
:109AC0000FF90020C5E904009DF8000000F02CF912
:109AD00003484068BDE8384000F0FCB8281B00206F
:109AE0004CDF010070B50024064D06E068680121D6
:109AF00010F8340002F0D0FF641C28788442F5D3BB
:109B0000002070BD281B0020F8B516460C460546FF
:109B10000A2A01D20720F8BD03F0B8F818B903F0FB
:109B20007FF80028F7D1134F102113487D603C7057
:109B3000BE60FFF79CFC0020C7E904000F4E0DE05B
:109B400005EBC4003168009181788DF80110007830
:109B50000B4A694602F0F2FF0028DCD1641EE4B231
:109B6000EED2BDE8F84005480021064A001D00F08D
:109B70005FB80000281B0020101E00204CDF0100F1
:109B800031AF010041AA010072B602F0C1FB00BF73
:109B900002F002FA0028FBD111481249401AC40809
:109BA000012000EB044010A102F010FB11480068F6
:109BB000C00700D000BE022000EB04400EA102F05E
:109BC00005FBBFF34F8F0B48E43801680E4A01F4E0
:109BD000E06111430160BFF34F8F00BFFDE700005C
:109BE00054E90100FCE80100466174616C20657273
:109BF000726F7200F0ED00E053797374656D20723E
:109C000065736574000000000400FA050EB50021BC
:109C10000091CDE901106A4644F20100FFF7B4FF5C
:109C20000EBD0000014800F072BF0000481B00207C
:109C30003AB100680129426100D000210161002091
:109C4000704707207047000038B511480823582294
:109C5000416800910F49006801F091FC002815D17E
:109C60000D4A69460D4800F057FF04000ED101214E
:109C70000A4800F0C8FF0123094A1946074800F0C6
:109C80001EFF0649012008390870204638BD000033
:109C900054DF0100301E0020F1D30100481B0020DA
:109CA000FFFF7F0070B50446007F0D4608B100201D
:109CB00070BDA26101F022F9401941F10001C4E92F
:109CC0000201206900B125612146BDE870400020F5
:109CD00003F036BE014600200877012003F030BEB5
:109CE00030B5EFF3108172B60D4A9468012324B1A8
:109CF0000370002900D162B630BD93604FF0E023BD
:109D0000D3F88051074C25401560C3F88041D3F843
:109D1000844154605A17C3F8842100220270E8E796
:109D2000881E0020FC06FFBD0B498A68002A11D05E
:109D300000280FD1EFF3108072B60B684FF0E022CD
:109D4000C2F800314B68C2F8043100228A60002852
:109D500000D162B670470000881E00202DE9F04156
:109D6000064608680C46411C4FF0A0474FF001051D
:109D700006D005FA00F1C7F80815206801F0D8FFF1
:109D80006068411C02D0002101F0C0FF3168A06969
:109D9000C1F82405607D227D31681043C1F86C054F
:109DA000D4E900123068C0F81425C0F80C15207DE5
:109DB000012815D1A068411C02D0002101F0A6FFA6
:109DC000E068411C05D08540C7F80855E06801F0FF
:109DD000AFFFD4E902123068C0F80825C0F81015AA
:109DE000BDE8F0812DE9F041064608680C46411CAB
:109DF0004FF0A0474FF0010506D005FA00F1C7F873
:109E00000815206801F09EFF6068411C02D0002107
:109E100001F085FF3168A069C1F82405607D217DCE
:109E200032680843C2F86C05D4E900123068C0F803
:109E30000C15C0F81425207D012815D1A068411CFF
:109E400002D0002101F06BFFE068411C05D0854085
:109E5000C7F80855E06801F075FFD4E902123068D0
:109E6000C0F80825C0F81015BDE8F0812DE9FC47C1
:109E7000002517880646158090F82D00144689465F
:109E800030B13A462146484600F0E6F8051E09D1B1
:109E9000B0784FF00C0A18B32088C846001DB842AD
:109EA00002D95046BDE8FC87684679DF0028F9D121
:109EB0002088032108F8001020881921401C80B256
:109EC000208008F800102088401C80B2208000EB21
:109ED0000801BDF8000003F002FF2188084420803B
:109EE000F0780222C8B1218896F9033001F1030C01
:109EF0004846BC45D5D8425421884FF0010C491C36
:109F000089B2218000F801C02188491C89B22180D2
:109F100009F801302088401C20807068B8B1218881
:109F200090F9003001F1030C4846BC45B9D84254C1
:109F300021880A22491C89B2218042542188491C67
:109F400089B2218009F801302088401C20803089A6
:109F500050B1CDE900474B460622022106F1080028
:109F600003F072FF051E9DD1308A50B1CDE9004744
:109F70004B460722032106F1100003F065FF051E82
:109F800090D1308B50B1CDE900474B4615221421BA
:109F900006F1180003F058FF051E83D1306A30B176
:109FA0003B462246494600F0E0FC051EDBD1706AC4
:109FB00030B13B462246494601F004FA051ED2D193
:109FC00096F82C0038B13B4622464946304603F00D
:109FD00057FB051EC7D1307838B13B46224649466B
:109FE000304601F079FA051EBDD128465AE7000037
:109FF00070B5040012D001461C221448FFF71EFA67
:10A000001248134D0560206850B17ADF002806D150
:10A010002068016829604068686005E00E2070BD16
:10A020000B487BDF0028FAD108484FF6FF7114383F
:10A03000084A20F8041B0549343901600021FFF764
:10A04000F7FD0028EBD0032070BD0000941C002019
:10A05000001B00209DDD01007CB5054608880C46EC
:10A060000930904201D90C207CBD68466DDF002884
:10A07000FAD121880820685420881B21401C80B216
:10A08000208029542088401C80B220802844DDF89C
:10A0900001100160BDF8051081802088801D80B20C
:10A0A00020809DF80010490800D001212954208803
:10A0B000401C208000207CBDF8B5334D018804464B
:10A0C0006E8821294BD015DC3048314A1029A0EB8D
:10A0D00002004FEAD0004FF0030202EB004013D021
:10A0E00011292AD0132943D100231A46852130464D
:10A0F0007FDF1CE03B2942D052293AD0562937D184
:10A100008088132176DF12E022A102F05FF801209F
:10A1100000F016FA002000F00BFAA18869802048B0
:10A1200001F0A4FB08B1FFF771FDFFF7DBFC00288D
:10A130001ED0BDE8F840FFF769BD1AA102F046F84D
:10A14000012000F0F5F94FF6FF706880FFF7A6FCDC
:10A1500008B1FFF75BFDBDE8F840FFF78FBC0020BA
:10A160000090A08869468FDF002801D0FFF74EFDE0
:10A17000F8BD00231A4619463046B1DFD7E780887C
:10A18000132176DFD3E70000E41A002054E9010030
:10A19000FCE80100436F6E6E656374656400000047
:10A1A000141C0020446973636F6E6E65637465648C
:10A1B000000000002DE9F04701883B4E40F2F31902
:10A1C0004FF6FF7510291BD011293ED0122954D00B
:10A1D000502946D1C188F289841D914241D16189BB
:10A1E00002293ED18688304600F0C0FE050038D0F6
:10A1F00004F10C0000F078F9A8B3294630464EE08F
:10A20000C17B8788044601292BD1A846284600F047
:10A21000ADFE050017D02F8000202872234843464A
:10A220004A460168C5F80A104068C5F80E0004F1F6
:10A23000100105F10A0000F053FF6872F089002850
:10A240000FD129462AE0042013E0808800F08EFE1A
:10A25000040006D06068FFF73DFD08B103F0E8F99F
:10A260002580BDE8F087FFE76868FFF733FD002829
:10A27000F7D0BDE8F04703F0DBB9878806463846DB
:10A2800000F074FE0400ECD02B464A4606F10801AB
:10A2900004F10A0000F024FF607221463846BDE850
:10A2A000F04700F0A9BB0000941C0020001B002018
:10A2B0002DE9F04F044686880188424897B08346CE
:10A2C00010290CD0112950D0103019296AD01A2920
:10A2D00074D1217A0C09042C4DD301224CE0394D64
:10A2E000083DA868C0430B9069680BA801F0B2F95B
:10A2F0000B990CA800F01AFB2C220CA96846FFF75A
:10A300009DF80027E946A84610E000BF09EB47008A
:10A310005FF00005B0F804A008EB85005146001D71
:10A3200001F06CF96D1C1E2DF6D37F1C0098B8420D
:10A33000ECD8142E05D317B00420BDE8F04FFFF77A
:10A3400065BC3146584601F06FF9314608F104000A
:10A3500001F06AF9E07B012830D017B03146BDE842
:10A36000F04F1848001D01F05FB917B03146BDE845
:10A37000F04F01F043B90022314600F0B9FD032C43
:10A3800001D3012200E000220E4831460C3000F0DB
:10A39000AFFD022C01D3012200E000220948314622
:10A3A000083006E0217A002908D1617AC1F3C002A1
:10A3B000314617B0BDE8F04F00F09ABD17B0BDE8C8
:10A3C000F08F0000B81C002030B58DB004462E4B35
:10A3D000086860610FCB08AD85E80F0004F1120139
:10A3E00008A862DF00284CD1A07C8DF8320041F231
:10A3F0002350ADF8300022460CA90120A8DF002828
:10A400003FD120216846FFF732F841F22450ADF8E1
:10A410000000A07C8DF8020001259DF80D00ADF82C
:10A42000065040F012008DF81150ADF804508DF830
:10A430000D008DF81350208804F10A02694600F0DF
:10A440007FF900281DD120216846FFF710F841F25E
:10A450002550ADF80000A07C8DF802009DF80D009D
:10A46000ADF8065040F00A008DF81150ADF80450D8
:10A470008DF80D008DF812502088A21C694600F05E
:10A480005FF90DB030BD000030DF010030B402884C
:10A49000502A10D1034630F8062F4C88A2420AD128
:10A4A0004289012A07D14C69002C04D0027B98888C
:10A4B000A44630BC604730BC704707B586B0012267
:10A4C00000230093ADF810200193029303938DF8BD
:10A4D00002204989ADF8001008A9039104A902914E
:10A4E0006946AEDF09B000BD007800F0010070479A
:10A4F0007CB50546C0074FF000040AD00B48012286
:10A500000023007800941146019401F0A5FB00F0AF
:10A510001FF8A80709D505480022401C032300782E
:10A5200000941146019401F097FB7CBD1CDF0100F3
:10A530000249085C012101F020BC00001CDF010081
:10A540000249085C002101F018BC00001CDF01007A
:10A550000020FFF7EDBF00002DE9F8430546861CFB
:10A5600000208DF8000090460F464FF00109684624
:10A57000FFF7B6FB1B4C20683860D4E90001401A95
:10A58000A16804F21C47081A0EE00121384601F0C8
:10A590005BF800F0FFFD0146384601F055F8D4E9BC
:10A5A0000001401AA168081A401C8642EDD8B8F193
:10A5B000000F03D0052065F3891002E0062065F343
:10A5C0009F50A2682168114004EB8101C860206897
:10A5D000304420609DF80000FFF7A6FB4846BDE828
:10A5E000F88300003820002070B50D4604460A2983
:10A5F00002D10D21FFF7F8FFA0682268411CA1607D
:10A600001554D4E90101814204D32046BDE87040CD
:10A6100001F029BA70BD0000034803C8814201D18E
:10A6200001207047002070473820002010B50C46EC
:10A6300014281BD110481149401AC008032101EB0E
:10A6400000400FA101F0C2FD154822461349408881
:10A65000FFF733FF00280DD0A0F54051023909D093
:10A66000082807D043F20141884203D0BDE81040DA
:10A67000FFF7CCBA10BD000054E90100FCE801006E
:10A6800053656E6420627574746F6E2073746174A8
:10A6900065206368616E67652E000000EC1B00207A
:10A6A000E41A0020034630B50748002104784268C8
:10A6B00006E000BF02EBC10005789D4203D0491CB3
:10A6C000A142F7DB002030BD281B002005494FF0D8
:10A6D000FF32082841F8202002D3084480F848209F
:10A6E00070470000401D0020F0B54FF0FF3512B15B
:10A6F0000023082601E008230C260C4C05E000BFCF
:10A7000054F823707F1C04D05B1CB342F8D3284656
:10A71000F0BD26185DB286F8305044F82310002AA8
:10A72000F5D1E11881F84800F1E70000401D002054
:10A730000249084490F9300070470000401D002095
:10A740002DE9F0438146887891B090460C4600B9D7
:10A7500001208DF83E002088ADF83C0000250095D2
:10A76000607C694602F0D0FF6E46A07C711C02F04E
:10A77000CBFFE07B00289DF8020002D040F00800EB
:10A7800001E020F008008DF80200217C11B140F0BA
:10A79000100001E020F010008DF80200217B11B1C3
:10A7A00040F0010001E020F001008DF80200217D61
:10A7B00009B1022100E0012161F342008DF802009D
:10A7C0001C2102A8FEF753FE607BC10601D480065F
:10A7D00017D50E950EAFE07C791C02F095FF9DF821
:10A7E0003800079720F00F00401C20F0F0001030D8
:10A7F0008DF838009DF83A0020F00600801C8DF896
:10A800003A00607B8DF80800A07B8DF809001421C8
:10A8100009A8FEF72CFE0FA8CDE90906A088ADF81F
:10A820003000A06820B1E088ADF82C00A0680D9041
:10A83000A06998B301950088ADF81000A06901AD3A
:10A8400001A94088ADF81200A06940680695039000
:10A85000A069007B02F058FFA069691C407B02F0F0
:10A8600053FFA069807A00289DF8060002D040F0CE
:10A87000080001E020F008008DF80600A169C97AFF
:10A8800011B140F0100001E020F010008DF806003A
:10A89000A169097A19B140F0010002E00DE020F051
:10A8A00001008DF80600A169897B09B1022100E051
:10A8B000012161F342008DF80600E06900B10590C6
:10A8C000434609AA02A94846AADF11B0BDE8F083B1
:10A8D00070B5084C050009D010342168002907D054
:10A8E00008682060496828468847F6E70834F4E796
:10A8F00070BD00002C1D0020054A012120B1012857
:10A9000005D19170FFF7E4BF51700020FAE770475E
:10A910002C1D002010B5D0E90234D1E90220D11A53
:10A92000A04101D3012010BD002010BD73B58CB033
:10A930000646002000900D9880B100246D46214607
:10A940000DA800F066FE30B1009805EB4000848051
:10A950000098401C0090641C142CF0D32C226946F3
:10A960003046FEF76BFD0EB070BD2DE9F041178843
:10A970000646B81D14460D46984202D90C20BDE883
:10A98000F0813188072206290AD34FF4486C4FF62C
:10A99000FF73614501D9994202D17088062801D21E
:10A9A0001046ECE7604501D99842F9D1994203D0AD
:10A9B000984201D08142F3D80520E8552088122121
:10A9C000401C80B2208029542088401C80B2208006
:10A9D0004119308803F083F92188084480B220802F
:10A9E0004119708803F07BF92188084420800020F9
:10A9F000C5E7FFF70BB9000038B54A7A0F4B62B1D3
:10AA000000220A725969002906D001228DF800201F
:10AA1000ADF802006846884738BD0A7A62B19B6883
:10AA20004C68024619462046FFF73CF90028F3D04F
:10AA3000BDE8384002F0FCBD5B68F1E7941C0020E3
:10AA400070B500240F4D10E0686800EBC406307844
:10AA500002F0DCF87178012901D0012100E0002129
:10AA60004140307800F0CAF9641C28788442EBDB5E
:10AA7000D5E90401084303D0BDE8704002F07CBF73
:10AA800070BD0000281B002010B50021024800F016
:10AA9000ECFD80F3100010BD542400204FF48032F0
:10AAA0008A400168C1F848230068C0F8082370474D
:10AAB0004FF4A07202EB810189B200F00FBA2DE9C8
:10AAC000F04105460E464FF4A07000EB860081B2BF
:10AAD00028684FF48034B440984622F07F47C0F88D
:10AAE00008432868C0F84843286801F01FFD28681B
:10AAF00000EB8600C0F840752868C0F84443B8F100
:10AB0000000F02D02868C0F80443BDE8F081006857
:10AB1000D0F804057047000070B54379224C44F822
:10AB200023204279241D04EBC202204B1579204AD0
:10AB30009A1AD3082DB10824022000EB03401DA16E
:10AB40002EE002680D88C2F8085590F90420897833
:10AB5000002A4FEA411106DA02F00F0202F1E02268
:10AB600082F8141D03E002F1E02282F8001490F94B
:10AB70000410012201F01F0502FA05F549098900B8
:10AB800001F1E021C1F80051417904EBC1010A71E2
:10AB9000417944F831000320002400EB03400EA16A
:10ABA00001F014FB204670BD641B00203CE901004D
:10ABB000FCE8010052544320696E7374616E636552
:10ABC00020616C726561647920696E697469616C79
:10ABD000697A65642E0000005254433A20696E6918
:10ABE0007469616C697A65642E00000090F9040054
:10ABF000012100F01F0291404009800000F1E02097
:10AC0000C0F8001270470A46022100F0EDB84FF478
:10AC1000827100F063B9006801210160704700682B
:10AC20000121416070472DE9F05F07460C464FF463
:10AC3000A07000EB84001FFA80FA38684FF4803669
:10AC4000A6409B4622F07F45C0F848633868C0F8AC
:10AC500008633868D0F8048500EB8402D2F8409588
:10AC6000C2F840855146386801F060FCA9EB080045
:10AC700020F07F40012806D1102001F0E1FE51466E
:10AC8000386801F053FC3868D0F80485C0F8446394
:10AC9000A5EB080121F07F413868012900EB840011
:10ACA00010D0C0F840553868D0F804156FF07F4CCC
:10ACB0006A1A521E22F07F42ACEB0B03934217D369
:10ACC00062B118E06D1CC0F84055102001F0B8FECC
:10ACD0003868D0F8040540450AD10CE000EB840048
:10ACE0006D1CC0F840553868D0F80405884202D081
:10ACF0000D20BDE8F09F01223146384600F074F87F
:10AD00000020F6E74FF08050D0F830110A2904D126
:10AD1000D0F83401B8B1012814D00C4800780628C6
:10AD200011D10A48001D007800070CD107480830EF
:10AD30000078C0F30310032805D0042803D00528A9
:10AD400001D000207047012070470000E00F00F0A4
:10AD50004FF08050D0F830110A2904D1D0F83401D6
:10AD6000B8B1012814D00C480078062811D10A483F
:10AD7000001D007800070CD1074808300078C0F3A8
:10AD80000310032805D0042803D0052801D0002093
:10AD90007047012070470000E00F00F04FF0805036
:10ADA000D0F830110A2904D1D0F83401B8B1012803
:10ADB00014D00C480078062811D10A48001D0078EC
:10ADC00000070CD1074808300078C0F303100328AF
:10ADD00005D0042803D0052801D0002070470120A9
:10ADE00070470000E00F00F00368C3F84413002A26
:10ADF00002D00068C0F80413704700002DE9F84F36
:10AE00000E463449804601EB5001C007097801D055
:10AE10000F0901E001F00F074FF000094246012041
:10AE20004946FEF7F7FADFF8B0A004460D46052FB5
:10AE30004ED2DFE807F003161B282C00002E47D067
:10AE40000121404602F0B6FC8DF800906846FEF7FE
:10AE500047FF5046D0E904120C431543CAE90445A4
:10AE600032E00EB1022114E0002112E04EB10321C4
:10AE7000404602F09FFC4046BDE8F84F012102F039
:10AE8000D3BF012105E0002E22D1042101E02EB123
:10AE900003214046BDE8F84F02F08CBC002140463B
:10AEA00002F088FC0021404602F0BEFF8DF80090C1
:10AEB0006846FEF715FF5046E243D0E904341A40D5
:10AEC00024EA0501CAE904219DF80000FEF72CFFE1
:10AED000BDE8F88F101E0020281B002010B5006868
:10AEE00042581AB101F022FB012010BD002010BD14
:10AEF0000AB100F099BB00F081BB000010B50B480F
:10AF0000FFF705FE094A083AD2E90434C018D2E92D
:10AF1000063244F10001C31A71EB020204D24FF071
:10AF20008072801841F1000110BD0000481B002014
:10AF300010B5C0B2FFF7B6FB0446007801F066FE1C
:10AF400001466078012801D0012000E0002090EA4D
:10AF5000010F08D00449D1E90401084303D1BDE839
:10AF6000104002F009BD10BD281B00200146034817
:10AF700002888A4200D0002070470000801C002018
:10AF80002DE9FC5F0E008346DDE90C47C6F10000A9
:10AF900098469246814600D40846012503E000BF4A
:10AFA00090FBFAF06D1C5045FADAA84500D94546E9
:10AFB00024B1002E01DB780700D5641EB80702D546
:10AFC000B8F1000F0AD0F80708D13CB1A54205D26C
:10AFD00020215846641EFFF707FBF6E7002E02DA31
:10AFE0004E462D2102E0780703D52B215846FFF766
:10AFF000FBFA07F0030002280BD1B8F1000F08D1CB
:10B000003CB1A54205D230215846641EFFF7ECFA48
:10B01000F6E7CDE90047434652463146584602F02E
:10B0200063FEBDE8FC9F000070B50D460446006855
:10B030004FF4887101F0CAFC4FF49071206801F060
:10B04000C5FC4FF49271206801F0C0FC4FF4A2716E
:10B05000206801F0BBFC4FF4AC71206801F0B6FC35
:10B0600020681149C0F804132068690740F30730CD
:10B07000090E002806DA00F00F0000F1E02080F849
:10B08000141D03E000F1E02080F800142068012185
:10B0900040F3073000F01F0291404009800000F1AA
:10B0A000E020C0F8001170BD1003420002460020ED
:10B0B0001268530713D502F00300012802D00228BA
:10B0C0000CD105E0C2F383100B68801C184404E027
:10B0D0000223086803EB9252104408600120704775
:10B0E000F0B58488A518944200D82246A41AC288D4
:10B0F000D6189A4200D81346D21A4B880788BB420A
:10B100000CD34088834209D88888A04206D3A8423D
:10B1100004D8C888904201D3B04201D90020F0BDC4
:10B120000120F0BD0B480C4910B5401AC00803219E
:10B1300001EB00444FF0020022B1FFF701FA204674
:10B1400006A103E0FFF7F4F9204609A1BDE810408D
:10B1500001F03CB854E90100FCE801005265636568
:10B1600069766564204C4544204F4E210000000064
:10B170005265636569766564204C4544204F4646B8
:10B1800021000000172101804180002101714171DF
:10B19000704700002DE9FF410026234800F051FAD6
:10B1A0002148001F074600F04CFA204C60680090D0
:10B1B000A56800E000986946284004EB80000C3048
:10B1C000FFF774FF0028F5D101AA009901EA0503F1
:10B1D00004EB8303491CDB6842F82030401C0091DB
:10B1E0000228F2D3019800F0030001280BD00228B6
:10B1F00010D10198032101EB90500099BDF80A602D
:10B2000001EB900005E00198BDF80A60C0F38310DF
:10B2100008440090384600F011FA08B100986060C8
:10B2200004B03046BDE8F0815024002038200020D2
:10B2300088B04FF48041002001F034F808B1FEF7E7
:10B24000E5FC00F09BFE0120FFF752F9FEF7FCFC45
:10B2500008B1FEF7DBFC40F2333201214748FEF72C
:10B2600053FC08B1FEF7D2FC01F032F908B1FEF749
:10B27000CDFC01F0ADFA08B1FEF7C8FC0024694628
:10B280000120009401F062F908B1FEF7BFFC6846A6
:10B2900001F0D8F908B1FEF7B9FC9DF8080038A113
:10B2A00020F00F00401C20F0F00010308DF8080056
:10B2B0000D2202A87CDF08B1FEF7A8FC0094502004
:10B2C000ADF80000A0200194ADF80200ADF80440F4
:10B2D0004FF4C870ADF8060068467ADF08B1FEF793
:10B2E00095FC00212A4800F035FA08B1FEF78EFCE3
:10B2F000284801A9CDE900402548103000F0C1FAE6
:10B3000008B1FEF783FC24480090214869461838AC
:10B31000FFF75AF808B1FEF779FCFEF75DFB1C2138
:10B320006846FEF7A4F84FF4A020CDE90040801055
:10B3300002901A480590032519488DF80C50069084
:10B34000ADF80E408DF810406846FEF751FE08B18A
:10B35000FEF75CFC13481449401AC00805EB004096
:10B3600012A100F033FFFEF789FB00BF00F014FECE
:10B370000028FBD101F0C0F8F8E70000E81A00202F
:10B380004E6F726469635F426C696E6B7900000096
:10B39000041C00200DC5010025B101007DD1010074
:10B3A000F3A9010054E90100FCE80100426C696E58
:10B3B0006B79206578616D706C652073746172744F
:10B3C00065642E0070B5144682880E4605462088B6
:10B3D000111D0144921C994201D8FE2A01D90C206A
:10B3E00070BD521C32542088FF21401C80B2208046
:10B3F00031542088401C80B220808119288802F0B6
:10B400006EFC2188084480B22080AA8842B1A968D5
:10B4100041B13044FEF712F82088A9880844208002
:10B42000002070BD072070BD2DE9F047C5881E1DA6
:10B43000B6FBF5F78946B6FBF5F1044605FB176C3C
:10B44000407916686843DDF820A0F718001F87428E
:10B4500000D9C61A166001E02468491E0029FBD1F4
:10B46000A5EB0C078846B74216D818E004EB0C0091
:10B47000001D09EB0803BAF1000F3A4602D001465D
:10B48000184600E01946FDF7D9FF2468F61B4FF077
:10B49000000CB844B54201D9374600E02F46002ED3
:10B4A000E4D1BDE8F087000030B5024651B100F0AC
:10B4B00017FF0021074C08E034F821301568AB4233
:10B4C00002D11160002030BD491C8142F4D3052017
:10B4D00030BD000000000000F8B50F4601781446AA
:10B4E0000546012901D1687830B12088821C9A4232
:10B4F00032D8012902D006E00720F8BD697801445E
:10B50000891C994228D8181A801E86B2ADF80060AE
:10B510002188B81C084469467DDF0028EDD12978D0
:10B52000022904D06878BDF80020904205D3BDF808
:10B530000000B04201D809200AE00820012905D105
:10B540006978B14202D8ADF8001001E0ADF80060B2
:10B55000BDF80010FE2901D90C20F8BD2288491C35
:10B56000B9542188491C89B2218078542088401C14
:10B570002080BDF80010084420800020F8BD10B5E0
:10B5800031B1B2FBF3F403FB14241CB1092010BD4C
:10B590000E2010BD01600021416081608281C38165
:10B5A000084610BD70B50C460546FDF733FE002871
:10B5B00002D021882868084470BD10B50A884988DF
:10B5C0008A4203D1FDF768FE012010BD002010BDA6
:10B5D00070B50C460546FDF742FE002802D0618892
:10B5E0002868084470BD10B50A8849888A4203D18A
:10B5F000FDF72CFE012010BD002010BD01F01F033F
:10B6000001229A40D243490900EB8100114600F023
:10B6100021B84A0950F8220001F01F02012191408F
:10B62000084000D00120704701F01F0301229A401A
:10B63000490900EB8100114600F01CB8002100F020
:10B640000FB8012100F016B808B56A46FDF779FE7B
:10B65000009808BD08B56A46FDF759FE009808BD78
:10B6600008B56A46FDF753FE08BD08B56A46FDF702
:10B6700035FE08BD08B56A46FDF73CFE009808BDDA
:10B6800008B56A46FDF76AFE009808BD38B504465D
:10B6900000258DF800506846FEF722FB216862689D
:10B6A000086890420ED9401E08600178238AE2683B
:10B6B00001FB0325227A2168101AC0B20A7982425E
:10B6C00000D208719DF80000FEF72EFB284638BD19
:10B6D00038B5054600208DF800000C466846FEF798
:10B6E000FFFAE868298A201AB0FBF1F12A6810688D
:10B6F000431C136001709DF80000FEF715FB38BD78
:10B7000010B530B1017A42680368891AC9B21A606B
:10B7100006E00E2010BD03681A68541C1C601170EE
:10B72000491EC9B2F7D2006800210171084610BD58
:10B73000C20800F007030120895C98400840704768
:10B7400010B5C20800F00703885C01249C40204328
:10B75000885410BD10B560B1C160172120F8021BDC
:10B7600020F8021B1B2100F8021BFFF70BFD002035
:10B7700010BD0E2010BD00007CB50C46818800294C
:10B7800033D102880025102A06D0112A09D03A2A7E
:10B790000BD0552A2ED129E00146204601F0FCFCB1
:10B7A00028E0A01DFFF7EEFC24E02246408934F893
:10B7B000063F834200D818466080172800D2172021
:10B7C0006080D06878B1607968B1184BD3E9000324
:10B7D000CDE90003ADF802106088ADF80400D3682D
:10B7E000694610469847657125717CBD0146204623
:10B7F00001F018FDA07A0028F7D02846E188A5DFDF
:10B80000012680B11128F0D001F0C0F802460848A6
:10B81000084902B0401AC00806EB0040BDE870407D
:10B8200005A100F0D7BCA572E6727CBD20DF010047
:10B83000FCE80100FCE8010073645F626C655F670F
:10B84000617474635F65786368616E67655F6D746A
:10B85000755F7265717565737428292072657475DA
:10B86000726E65642025732E0000000020B10278FE
:10B87000DE2A03D0082070470E2070474180002048
:10B88000704760B159B10278DE2A0AD00968416078
:10B89000DE2101704FF6FF714180002070470E20BD
:10B8A0007047082070477FB5054600294DD0002D10
:10B8B0004BD008780C46DE2847D1A888618888429A
:10B8C00002D1204602F09EFA2888012825D00228BD
:10B8D0003BD011283AD0512837D135F8040F618870
:10B8E000884232D1A978A81C02292ED1017A0429D4
:10B8F00003D0062901D0052927D100210091022279
:10B900008DF8002001914FF4C07202910391ADF8BF
:10B910000420007A05280FD010E0297A204601295A
:10B9200013D1A988428891420FD10121017204B03C
:10B93000BDE8704002F066BAADF804102888694688
:10B94000B0DF002801D0616888477FBDA888618882
:10B950008842FAD14FF6FF7060807FBD00F18040D1
:10B960000068002800D00120704708B500F1804031
:10B97000002101600068009008BD000070B50B4C0C
:10B98000207808B185250FE00020A060606020616C
:10B99000E060074801F036F8054600F065FF08B999
:10B9A00001F01AF801202070284670BD2C1D0020DF
:10B9B000F9A8010038B500258DF800506846FEF75B
:10B9C0008FF9074CE068401EE060E06810B901F0B4
:10B9D00029F8A5709DF80000FEF7A6F938BD000013
:10B9E0002C1D0020F0B505460478154889B0164690
:10B9F00040F82420124A0869121DA2F1080742F8F3
:10BA00002400487F385520226846FDF717FD04942E
:10BA10002878385C48B10EB10A4A00E00022694635
:10BA2000281D01F0A1FA09B0F0BD0EB1064A00E0F0
:10BA30000022694605F10C0001F068F9F3E7000007
:10BA40000C1B00209DDB0100E5D901000FB408B5F7
:10BA50000399002904D004AA00926A4600F00FF866
:10BA600001B05DF814FB10B582680446002A05D0C9
:10BA7000D4E90403216898470020A06010BD2DE997
:10BA8000FC4791460C00804676D014F8011B39B172
:10BA900025290ED04046FEF7A7FD20780028F4D1D6
:10BAA00098F80C00002867D04046BDE8FC47FFF737
:10BAB000DABF0020012221782B291BD02D2902D0AA
:10BAC000302908D102E040F0010001E040F002001E
:10BAD000641C002AEFD100252A290ED02178A1F17B
:10BAE00030020A2A11D205EB850201EB4205641CE3
:10BAF000303DF1E740F00400EAE7D9F800100B1DF3
:10BB0000C9F800300968641C0D44217800232E29EF
:10BB10000BD114F8011FA1F130020A2A05D203EB60
:10BB2000830201EB4203303BF3E76C290DD0682917
:10BB30000BD0692921D00BDC252918D0582931D008
:10BB400063290ED0642915D117E014F8011FECE722
:10BB5000702969D0732932D075291BD0782909D171
:10BB600020E0D9F80000011DC9F800100178404616
:10BB7000FEF73AFD641C90E76CE0D9F800100A1D4E
:10BB8000C9F800200968CDE900500A224046FFF7B5
:10BB9000F7F9EFE7D9F800100A1DC9F80020096885
:10BBA0000A2206E0D9F800100A1DC9F80020096829
:10BBB0001022CDE90050404602F096F8DAE7D9F8B5
:10BBC000001000270A1DC9F800200E68C00705D123
:10BBD00012E04046761C7F1CFEF706FD31780029F6
:10BBE000F7D104E0202140466D1EFEF7FDFCBD426A
:10BBF000C0D9002DF6D1BDE74EB13046FDF742FC6D
:10BC0000074604E0202140466D1EFEF7EDFCBD42D4
:10BC100006D9002DF6D103E04046761CFEF7E4FC81
:10BC200031780029F8D1A5E7D9F80000011DC9F83D
:10BC30000010056830214046FEF7D6FC78214046CA
:10BC4000FEF7D2FC08200021CDE9000103461022B6
:10BC50002946B0E7BDE8FC8770B541EA4201DDE95D
:10BC600004564FF0A04441EA830141EA052104EB68
:10BC7000800041EA0641C0F8001770BD70B541EA86
:10BC80004201DDE904564FF0A04441EA830141EA54
:10BC9000052104EB800041EA0641C0F8001770BDA1
:10BCA00070B541EA4201DDE904564FF0A04441EA93
:10BCB000830141EA052104EB800041EA0641C0F816
:10BCC000001770BD70B541EA4201DDE904564FF03E
:10BCD000A04441EA830141EA052104EB800041EAE6
:10BCE0000641C0F8001770BD1CB5002100910B463D
:10BCF00001220191FFF7D4FF1CBD1CB5002100916A
:10BD00000B4601220191FFF7DDFF1CBD1CB500228F
:10BD10000B46009211460192FFF7C2FF1CBD1CB5F5
:10BD200000220B46009211460192FFF7CBFF1CBD8B
:10BD30001CB5002100910B46012201911146FFF72D
:10BD4000AFFF1CBD1CB5002100910B4601220191E3
:10BD50001146FFF7B7FF1CBD4FF0A04202EB800079
:10BD6000D0F8002722F44032C0F80027D0F800278E
:10BD700042EA0141C0F80017704701224FF0A0438A
:10BD8000824011B1C3F808257047C3F80C257047ED
:10BD900018B5084B6C4601441B68009306E000BFD1
:10BDA00054F82030D3F81035401C08C28142F7D82F
:10BDB00018BD000040DF0100034908B50844002118
:10BDC00001600068009008BD0060004002494058D2
:10BDD000012800D0002070470060004030B5154AAF
:10BDE00001460020D2F8104423460AE0DB681D79A2
:10BDF000854205D1401C0A28F6DB4FF0FF3030BDEC
:10BE00001B68002BF2D1431CF9D0CB681871D2F813
:10BE1000103443B1DB68CC681B682360D2F810246F
:10BE2000D268116030BDC2F81014C96800220A60DF
:10BE300030BD000038200020F0B595B01C461546F6
:10BE40000F4608461A9E00F01DFB182109A8FDF7B1
:10BE50000EFB0E96CDE909540023082203A93846AB
:10BE600000F025FB05980690BDF81000ADF81C0009
:10BE7000BDF81200ADF81E0000208DF821000398D7
:10BE8000082600F00300012802D0022818D032E072
:10BE900003983346850AC0F3C2008DF8200003984A
:10BEA0000FA9C0F38314A200384600F000FB09A8D4
:10BEB000009006AB22460FA9284600F03FFA1AE090
:10BEC0000398840DC0F3C2008DF82000082C01D225
:10BED000254600E0082533462A460FA9384600F0DB
:10BEE000E6FA2E44641B09AB06AA29460FA800F007
:10BEF00081F9002CEAD1384600F0CAFA15B0F0BD3D
:10BF00007047012001F08CBD084810B50178084A3F
:10BF1000515C19B1001D01F0C1F802E00C3000F0D5
:10BF2000C1FFBDE81040002001F07ABD7C1B00205D
:10BF3000081B002008B5034A00924023024AFFF77D
:10BF40007BFF08BD41D60100A01E00200A4A01293E
:10BF500002EBC00007D0022907D0032907D004292B
:10BF600007D00020704702207047042070470079F6
:10BF70007047407970470000FCE8010010B5FFF7FA
:10BF8000C0FF04210348FFF729FF02490120C968C7
:10BF9000487110BDECE801002DE9F04F8DB0FEF7BF
:10BFA0003BFB18B100200DB0BDE8F08F7E4C4FF088
:10BFB000000BC4F818B4BFF34F8F60680290A568F7
:10BFC000D846284004EB80000CE000BFD4F81804E9
:10BFD00070B921680298814201D86160E2E7284087
:10BFE00004EB80000C3002A9FFF760F80028EDD1C7
:10BFF000002005AA029901EA050304EB8303491C0A
:10C00000DB6842F82030401C02910228F2D30598E8
:10C0100000F00300022802D001284DD0AAE00598C4
:10C020005022810D8946B2EB905F00D850210E4618
:10C0300066F39F50059008315C4800F0DAF907007C
:10C0400078D000F01FFA4346082205A9384600F0D0
:10C0500036FA029908F1080A2940681A8000001D82
:10C06000864222D9504D0C3530B1C2B204EB810169
:10C07000301A90460C3104E02946F2B20025904671
:10C080002846C6B25346384600F019FA0AEB0803B0
:10C0900025B132462946384600F011FA029909F1D5
:10C0A000030001EB900002903BE004EB810153465A
:10C0B000324638460C31EFE70598C0F38310062866
:10C0C00000D30620059960F38911C1F38310801C09
:10C0D00005918100354800F08CF907004AD000F046
:10C0E000D1F94346082205A9384600F0E8F908F1DD
:10C0F000080800260FE00298434600EA0501401CAC
:10C1000004EB81010290042238460C3100F0D7F98B
:10C1100008F10408761C0598C0F38310B042EAD8F1
:10C1200047B1D4F81054D4F8180478B1384600F068
:10C13000AFF934E01EE0E8684079012804D12A68AC
:10C140002846394612689047E8680568002DF2D104
:10C15000384600F09DF98DF800B06846FDF7C0FD47
:10C16000D4F8180408B9029860609DF80000FDF743
:10C17000DBFD14E0D4F8104405E02168204689680E
:10C180008847E0680468002CF7D109480949401A3B
:10C19000C008022101EB004007A100F017F8FEF7EC
:10C1A0003BFA80F00100FEE63820002074E901002F
:10C1B00054E90100FCE801004261636B656E647341
:10C1C00020666C75736865640000000000231A46E1
:10C1D00001F008BB08B5012300926A4601F002FB9A
:10C1E00008BD1CB5CDE9002302236A4601F0FAFA26
:10C1F0001CBD00002DE9F0470E4680461C469246C5
:10C20000082940D894F80C90002020731946104655
:10C2100001F096F80025B54206D218F805201BA1BA
:10C220002046FFF713FC03E01AA12046FFF70EFC9F
:10C230006D1C082DEFD318A12046FFF707FC002541
:10C24000B54212D218F805707E2F08D8FDF7F2F823
:10C250000068C05D10F03E0F01D03A4600E02E228B
:10C260000EA12046FFF7F2FB03E00DA12046FFF7E9
:10C27000EDFB6D1C082DE3D301222146504601F051
:10C2800041F884F80C90BDE8F0870000202530329A
:10C2900078000000202020007C00000025630000C2
:10C2A000200000000B4810B5FF21816000210160D3
:10C2B0004160C0F81814C0F8141480F8201406481F
:10C2C00000F0E4F8002803D1044800F021F9002030
:10C2D00010BD00003820002074E9010014E10100C5
:10C2E00002480349401AC0087047000074E9010081
:10C2F000FCE8010013B56846FFF7D6F808B1002046
:10C300001CBD0248009950F831001CBDFCE801003A
:10C3100070B509480125D0F8104480F8205407E092
:10C32000E06845712168204649688847E0680468EC
:10C33000002CF5D170BD0000382000202DE9FF470A
:10C3400081460C9D00200C462F7B2873984616468C
:10C350002946184600F0F4FF072E42D2DFE806F027
:10C3600004090F161F2A360049462846FFF76EFBC0
:10C3700037E0494628462268FFF768FB31E0D4E9F8
:10C38000002349462846FFF761FB2AE0A068009099
:10C39000D4E9002349462846FFF758FB21E0D4E9B9
:10C3A0000201CDE90001D4E9002349462846FFF700
:10C3B0004DFB16E004F1080007C88DE80700D4E93A
:10C3C000002349462846FFF741FB0AE004F1080034
:10C3D0000FC88DE80F00D4E9002349462846FFF72F
:10C3E00035FB00222946404600F08CFF2F73BDE844
:10C3F000FF872DE9F041058A80462D1F4819C01C92
:10C40000B0FBF5F0C6B24046FFF740F9041E19D064
:10C410000020207101206071E58000272546761EEE
:10C42000C4F800800BE04046FFF730F960B1617955
:10C43000491C6171286005467F1CC0F80080B74226
:10C44000F1D32046BDE8F081204600F002F800203C
:10C45000F8E72DE9F041457901466B1E002201E025
:10C460000968521C9A42FBD30F680146002605E07A
:10C4700038460C68FFF72CF92146761CAE42F7D3FC
:10C48000BDE8F0810121001DFFF7DEB8FFF738B9E4
:10C4900010B504460121001DFFF7F2F810F0FF0F60
:10C4A00004D12046BDE81040FFF7D3BF10BD1CB536
:10C4B00001920122009201AAFEF7B6FF1CBD1CB535
:10C4C00001920022009201AAFEF7AEFF1CBD0000FF
:10C4D000064910B500204870091D0860BFF35F8F42
:10C4E0000349044800F0E4F9002010BD701B00204F
:10C4F000A0DF0100941E002010B500F0B5F908B1CE
:10C5000041DF10BD20BF40BF20BF10BDFDF77EBB87
:10C51000826800219160826811618268516182683D
:10C52000D1608268516080680160704708B5002260
:10C5300042504058009008BD20B10349096801608D
:10C54000002070470E20704798E10100FEB50246BA
:10C550000D460846FFF7F0FF002864D1002600963C
:10C560000196012706208DF80020ADF80400029600
:10C570008DF80270694620202A6869DF2A492B4A13
:10C58000891AC908012202EB014430B100F0FEF91A
:10C59000024620462649FFF71DFE009601960296A8
:10C5A0008DF80170694640202A6869DF30B100F0DB
:10C5B000EDF9024620461F49FFF70CFE00960A20BF
:10C5C0008DF8000001960296694601202A6869DF0D
:10C5D00030B100F0DBF9024620461749FFF7FAFDBB
:10C5E0004FF4B0600090019602966946A1202A6837
:10C5F00069DF30B100F0CAF9024620460F49FFF763
:10C60000E9FD0096019602968DF800606946A0202B
:10C610002A6869DF30B100F0B9F9024620460849BE
:10C62000FFF7D8FD0020FEBD64E90100FCE8010031
:10C6300094E70100DCE70100F4E6010040E70100B7
:10C64000A0E601002DE9F0410546076860DF80465D
:10C6500019491A482A68081AC608BA4219D9022084
:10C6600000EB064416A12046FFF7B0FD20463A46EF
:10C670001FA12B68FFF7B5FD4FF08050D0F80C01DB
:10C680002968800200F10050421A204625A1FFF7D8
:10C69000A1FDB8F100004FF001040AD000F076F9D6
:10C6A000024604EB06402AA1FFF794FD4046BDE890
:10C6B000F0812F480470F9E764E90100FCE801000B
:10C6C000496E73756666696369656E742052414D83
:10C6D00020616C6C6F636174656420666F72207496
:10C6E000686520536F66744465766963652E000043
:10C6F0004368616E6765207468652052414D207300
:10C7000074617274206C6F636174696F6E206672FD
:10C710006F6D203078257820746F20307825782E42
:10C72000000000004D6178696D756D2052414D200B
:10C7300073697A6520666F72206170706C696361DD
:10C7400074696F6E20697320307825782E000000A0
:10C7500073645F626C655F656E61626C6528292039
:10C7600072657475726E65642025732E000000007A
:10C77000EB1B002030B5144891B00078002820D081
:10C780005FF03405ADF8405010A903A861DF30B167
:10C79000052816D011B0BDE83040FDF737BA03AC1C
:10C7A0000A49684600F084F807E000BFD0E900219C
:10C7B00020469047684600F092F802980028E1D0A1
:10C7C000F4E711B030BD0000EB1B00209CE101003C
:10C7D0007CB5194C207808B108207CBD0120A070E0
:10C7E000002000F0F7FE112819D0002000F00AFF09
:10C7F00012480026006801908DF800606846FDF739
:10C800006FFA0F4901A810DF05000AD00020207040
:10C810009DF80000FDF788FA2DB128467CBD002068
:10C820007CBD0120F3E7A670667000F091FF012047
:10C8300000F0E8FEF3E70000E81B002030E1010013
:10C84000899B01000EB50749684600F031F805E004
:10C85000D0E900108847684600F041F802980028A7
:10C86000F6D10EBD4CE10100014800787047000090
:10C87000E81B00201FB568464BDF30B1052814D0F7
:10C8800004B0BDE81040FDF7C1B9084901A800F0A7
:10C890000FF806E0D0E900210098904701A800F0C9
:10C8A0001EF803980028E6D0F4E71FBDB8E10100A8
:10C8B000016009684160AFF3008010B5D0E9002144
:10C8C0005368994201D1002104E0D1E90034A34228
:10C8D00002D01946816010BD08314160F0E78168DF
:10C8E00000290BD0026892680A44826041684B6854
:10C8F0009A4203D108314160FFF7DFBF704770B53E
:10C900000D460646446804E0B2682946904718B1CF
:10C91000246820680028F7D120682860256070BD51
:10C9200040680068704741680868002801D00268C4
:10C930000A60704702460020526806E08B4203D12D
:10C9400008681060012070471A461368002BF5D163
:10C95000704700000C4A10B502F594730EE0991A66
:10C96000C91001EBD171491002EBC1010C6884427E
:10C9700001D90B4602E005D201F108029A42EED33A
:10C98000002010BD486810BDC0DF010000B5FFF7F2
:10C99000E1FF002800D1014800BD0000ACDF01002C
:10C9A0004058002800D00120704708B500224250AE
:10C9B0004058009008BDD0F80403084000D0012082
:10C9C00070474058002800D00120704708B5002269
:10C9D00042504058009008BD08480068012110F0FE
:10C9E000010F06D14FF0E020C02280F80024C0F8EB
:10C9F00000110349012008607047000000E100E0D9
:10CA0000180500400649024600200B790BB185202D
:10CA100070470A6001220A7100224A7170470000C3
:10CA2000141B002004490120086004480168C1F378
:10CA300000410029FAD170470C0000401804004062
:10CA4000002802D0014980010847704771DF0100CA
:10CA500010B5044600F03EFC28B12046BDE8104069
:10CA60000021FFF779B9204600F040FC00280FD0E4
:10CA70002046FDF75DFE074A02EB8001D1F8103534
:10CA800023F00103C1F8103501218140C2F80813D9
:10CA900010BD0000006000402DE9F04188460546C9
:10CAA00000F018FC234E002828461AD0FDF740FE5F
:10CAB000304490F848008009032802D001280ED0A5
:10CAC00007E04FF0A040D0F81005E84010F0010F4B
:10CAD00005D003212846BDE8F041FFF73DB902210A
:10CAE000F8E700F003FC002822D02846FDF720FEDE
:10CAF00004464FF4807000EB84000F4F81B207EBC7
:10CB00008400D0F8102542F00102C0F81025084634
:10CB1000FFF752F9B8F1000F0AD02846FDF708FEDA
:10CB200056F82000002803D00120A040C7F80403D5
:10CB3000BDE8F081401D0020006000402DE9FC416F
:10CB4000DFF8BC80044608EB0400002790F93000B1
:10CB50001346C0170E46401C01D008274CE0B078A1
:10CB60001946C0F340022046FDF7BEFD0546401CB5
:10CB700041D0B078410719D4C0070AD04FF0A04087
:10CB800000EB8401D1F8000720F00200C1F8000793
:10CB900007E000217378204600910A460191FFF7D3
:10CBA0006DF8174920465431FEF7CAFDB07880076A
:10CBB00018D51448317800EB8500D0F81025124BB9
:10CBC0001A40C0F810254FF4F8524FF4403302EAEF
:10CBD000042203EA01410A43D0F810150A43C0F8C1
:10CBE000102509E008EB0500327810F8481F41EAEB
:10CBF0008211017000E004273846BDE8FC81000086
:10CC0000401D002000600040FFE0FCFF4FF0A0410D
:10CC1000D1F81015C14011F0010000D0012070477B
:10CC200070B5174D95F8580008B1082070BD002068
:10CC3000411E2A18401CC0B282F830102028F8D3B8
:10CC400000242046FDF742FD641CE4B20C2CF8D30E
:10CC500000240C49C0206C6581F8000401264020A6
:10CC6000891FC1F800014FF4BE70FFF7A5F806490F
:10CC7000F007C1F8040385F85860204670BD000035
:10CC8000401D002006E000E000600040034890F8EE
:10CC90005800002800D0012070470000401D0020EF
:10CCA0000121B1EB507F01D1012070470020704776
:10CCB00038B50D4600F090FB040014D000208DF82C
:10CCC00000006846FDF70CF8207928B19DF80000B7
:10CCD000FDF72AF8112038BD0120256020719DF84C
:10CCE0000000FDF721F8002038BD10B500F074FBFE
:10CCF000002802D000210160017110BD01490248E5
:10CD000000F0B6BE9C1D0020002000402DE9F0413F
:10CD10000546007916460F4600EB40012C4A01EB10
:10CD2000C00102EB810494F82A1011B10820BDE87B
:10CD3000F081284951F820102868FFF7B9FF08B1A1
:10CD40001120F4E739462846FDF708F8666038698F
:10CD5000206030004FF001062DD03F7F4FF48E71E0
:10CD60002868FFF722FE4FF4A2712868FFF71DFE26
:10CD700028681949C0F8041328684FEA471140F39E
:10CD80000730002806DA00F00F0000F1E02080F8FC
:10CD9000141D03E000F1E02080F80014286840F33F
:10CDA000073000F01F0106FA01F14009800000F190
:10CDB000E020C0F8001128680421C0F80015002008
:10CDC000A061E06184F8290044F8140FA675AEE76D
:10CDD0009C1D002044DF0100800002002DE9F05F6F
:10CDE000054600790B4600EB400101EBC0002449E9
:10CDF00001EB8004284600F045F810B11120BDE891
:10CE0000F09F62614FF00009C4F82090A36084F89D
:10CE100028904FF48E784E4641462868FFF7C5FDAE
:10CE200028684FF0010AC0F808A02146286800F0E1
:10CE3000AFFD606808BBD5F800B067690FE000BFC0
:10CE400094F8280008B10F2615E041465846FFF730
:10CE5000A7FD0028F4D02146584600F099FD206A2D
:10CE6000B842F2D3574641462868FFF799FD00289B
:10CE7000F9D02868C760C4F814903046BFE70000B6
:10CE80009C1D0020007900EB400101EBC00004492B
:10CE900001EB80004069002800D0012070470000AD
:10CEA0009C1D00202DE9F047044600794FF0000951
:10CEB00000EB400101EBC000254901EB8007206831
:10CEC000C0F80095786880B120682249C0F808133E
:10CED0002068012140F3073000F01F029140400913
:10CEE000800000F1E020C0F880112068D0F80C2507
:10CEF000D0F81485D0F80865D0F810554FF0FF3100
:10CF0000C0F81415C0F80C152068C0F80815C0F852
:10CF10001015501C02D01046FEF7E6FEB8F1FF3F98
:10CF200002D04046FEF7E0FE681C02D02846FEF71D
:10CF3000DBFE701C02D03046FEF7D6FE2068FFF7FD
:10CF4000D4FE87F82A90C7F80490BDE8F087000067
:10CF50009C1D0020840202000149024800F036BEF8
:10CF6000C81D0020002000402DE9F041054616466E
:10CF700000790F46154A00EBC00102EB810494F8DA
:10CF8000201011B10820BDE8F081114951F820109E
:10CF90002868FFF78DFE08B11120F4E739462846CE
:10CFA000FCF720FF6660386920601EB1397F284693
:10CFB000FEF73AF828680821C0F800150020A061A3
:10CFC000E0616061012184F82010DCE7C81D0020C9
:10CFD00048DF01002DE9F04704460E460079274955
:10CFE00000EBC00001EB800517463046FFF758FE06
:10CFF00030B1204600F044F820B11120BDE8F087A0
:10D000001020FBE76F61AE604FF490774FF000089F
:10D0100039462068FFF7DAFC4FF4AC7631462068D9
:10D02000FFF7D4FC2068AA686969C0F84425C0F8F5
:10D03000481520684FF00109C0F808906868D0B919
:10D04000BA4651462068FFF7BCFC074631462068C7
:10D05000FFF7B7FC0743F4D010B14FF00F0808E01A
:10D060002068C0F80C9031462068FFF7AAFC002821
:10D07000F9D0002068614046C0E70000C81D0020CC
:10D080000079054900EBC00001EB800040690028F1
:10D0900000D0012070470000C81D00202DE9F04796
:10D0A00004460079334900EBC00001EB80070125FD
:10D0B000786880B120683049C0F80813206840F3D0
:10D0C000073000F01F0105FA01F14009800000F16E
:10D0D000E020C0F880112068D0F8001221F0200173
:10D0E000C0F80012206845604FF4AC7631462068E5
:10D0F000FFF76CFC2068C56031462068FFF761FCD3
:10D100000028F9D020684FF00009C0F80095206889
:10D11000D0F80C25D0F81485D0F80865D0F8105553
:10D120004FF0FF31C0F80C15C0F814152068C0F896
:10D130000815C0F81015501C02D01046FEF7DDFD92
:10D14000B8F1FF3F02D04046FEF7D7FD681C02D081
:10D150002846FEF7D2FD701C02D03046FEF7CDFD0A
:10D160002068FFF7C2FD87F82090C7F80490BDE85B
:10D17000F0870000C81D002010034200007800283E
:10D1800007D104483B21408876DF002801D0FCF716
:10D190003DBD7047E41A002070B502468888C97BFF
:10D1A00000EB400302EB4304A41D012901D11188C7
:10D1B000218021886288914213D9A5DF012578B1A9
:10D1C00011280FD0FFF7E2FB024607480749401A33
:10D1D000C00805EB0040BDE8704005A1FEF7FABFAE
:10D1E000657170BD257170BDFCE80100FCE80100AF
:10D1F00073645F626C655F67617474635F657863B5
:10D2000068616E67655F6D74755F72657175657372
:10D210007428292072657475726E65642025732EDA
:10D22000000000007CB506468D88C88805EB4501E6
:10D2300006EB4104A41D172800D217202188814243
:10D2400000D8084660800020207121882846B5DF7C
:10D2500060B1FFF79BFB02460F481049401AC00817
:10D26000012101EB00400EA1FEF7B4FF6079002818
:10D2700010D1F06800280DD01549D1E90201CDE99F
:10D280000001ADF802506088ADF80400F26869460C
:10D29000304690477CBD0000FCE80100FCE801003E
:10D2A00073645F626C655F67617474735F657863F4
:10D2B00068616E67655F6D74755F7265706C792803
:10D2C000292072657475726E65642025732E0000C6
:10D2D00020DF01000449084490F93000082801DBF0
:10D2E0000120704700207047401D00200449084479
:10D2F00090F93000082801D20120704700207047C3
:10D30000401D002010B50C46017A052908D0407A4E
:10D3100038B1084808A102682046FEF797FB00E0F4
:10D320001AB106A12046FEF791FB2046BDE8104049
:10D33000FEF799BBC41B0020257300000D0A0000F6
:10D3400038B5C3880D46044633B114A0009015A229
:10D3500016A12846FEF77AFB217A05291CD0607AAF
:10D3600048B1A088FEF7F2FD164951F8202016A119
:10D370002846FEF76BFBA0880021FEF7BBFF0346A3
:10D380001049207A143951F8202001B02846BDE810
:10D3900030400EA1FEF75ABB38BD00001B5B306D5C
:10D3A000000000001B5B313B33316D0025734C6F77
:10D3B00067732064726F7070656420282564292566
:10D3C000730D0A00C41B0020257300003C25733E2A
:10D3D0002025733A200000000349884201D1034808
:10D3E0007047002070470000002000401C1B0020F8
:10D3F00070B50546FDF70BFC134C40B1D4E90402AF
:10D400004FF08071411842F10000C4E9041000217E
:10D410002846FDF74DFB30B1606820B1606800F030
:10D4200027FA0020606001212846FDF741FB18B172
:10D43000FDF764FDC4E90601284600F045FA2846D8
:10D44000BDE8704000F034B8401B002070B50546C0
:10D4500000200C460870FDF751FDD5E90223101A93
:10D4600063EB010300263146361A994112DAB0F512
:10D47000350F03D3FCF7D6FB0B4942184FF4960344
:10D4800000210A48FDF7CFFB10B10D2806D009E0B6
:10D49000012070BD00210548FDF700FB284600F083
:10D4A000E7F92070002070BDFFFFB400481B00208A
:10D4B000F8B51A4C074600261948FFF731FAD0B1E3
:10D4C000616871B1D0E902106268D2E90232C91A0A
:10D4D000904120D26068007F18B161681048FFF762
:10D4E0000EFA00F061F905466946FFF7AFFF98B103
:10D4F000606840B10AE0606800280CD13846BDE899
:10D50000F840FDF78CBB3846FDF785FB65609DF85C
:10D5100000000028D0D1F8BD6660CDE7401B002098
:10D520005CDF010070B5054688690C4600284FF4A1
:10D53000847128460AD0FFF738FAD5F81805626AD0
:10D54000E1688854606A401C606270BDFFF72DFA84
:10D55000D5F8180570BD1FB501238DF80030CDE951
:10D560000121D0E90012684690471FBD1FB5012375
:10D570008DF80030CDE90121D0E9001268469047CE
:10D580001FBD000038B50021012548B101280CD08D
:10D59000032809D1FFF720FABDE83840FEF70ABAA0
:10D5A0004FF0E020C0F8805138BD8DF8001068467B
:10D5B000FCF796FB064C207808B9FEF7DFF9E06827
:10D5C000401CE060A5709DF80000FCF7ADFB38BD85
:10D5D0002C1D00203EB5044609496846FFF768F94E
:10D5E00008E000BFD0E900212046904730B16846EE
:10D5F000FFF775F902980028F4D13EBD11203EBD19
:10D6000034E101003EB5044608496846FFF750F989
:10D6100007E000BFD0E90021204690476846FFF7A9
:10D620005EF902980028F5D13EBD000040E10100FE
:10D6300002498969002900D008477047941C0020DE
:10D6400070B50D4C0020D2B22070201D0B4D037818
:10D65000EB5C1BB1001DFFF7BDFC02E00C30FFF7D7
:10D66000BDFB08B1FCF7D2FA6078002802D021781F
:10D670000029FAD070BD0000781B0020081B002094
:10D680002DE9F0410746806A14468846C8B3002554
:10D6900031E000BFB96A05EB450001EB8006B088B8
:10D6A000801CFE2802D90C20BDE8F0812288401C95
:10D6B00008F8020020881622401C80B2208008F85A
:10D6C00000202088401C80B2208000EB08013088B8
:10D6D00000F005FB2188084480B22080B28842B166
:10D6E000B16871B14044FBF7A9FE2088B1880844B5
:10D6F00020806D1CEDB297F82C00A842CAD80020FB
:10D70000D2E7FFE70720CFE70A78062822F0FF02DA
:10D710000A7010D2DFE800F0030507090B0D0020A6
:10D7200008E0112006E0212004E0312002E0122070
:10D7300000E0222008707047002805D1034901202D
:10D7400048700020FDF7C4B8704700002C1D002071
:10D7500010B51620FCF72EF9A0B1114890F800047E
:10D760004009082811D20121814011F0EC0F0CD0A2
:10D770000C4882684FF480016AB1016841F480016D
:10D78000016010BD42F2010001E042F20200BDE87A
:10D790001040FCF73BBA4FF0E020C0F8001110BD7C
:10D7A00016E000E0881E00200148FFF7BCB800002A
:10D7B0005CDF0100C207002A03D000BF4FF00F0258
:10D7C00001E04FF0F00201D04FEA0111044B03EBEE
:10D7D0005003187800EA020040EA01001870704710
:10D7E000101E00202DE9F84F204D9246894606462E
:10D7F0009846012269461846AF68FCF7ADFE58B35B
:10D80000009800210446801C09E000BF00EA0703DD
:10D810005AF8212005EB8303401C491CDA6041457E
:10D82000F4D34FEA164AFDF72FF94AEA0041601C8B
:10D83000384005EB80003C4005EB8402C160D068B5
:10D8400066F3C50068F3891069F39F2020F0030098
:10D85000401C20F00400D06095F8200402E000BFD6
:10D86000FEF79AFB0028FBD1BDE8F88F3820002096
:10D8700070B50446124800250078F8B1F4B1207F55
:10D88000E0B1FDF73BFBD4E90223801A994110D3A4
:10D890002069002600B92677D4E905108847206959
:10D8A00060B1217F51B1D4E9022110187141C4E95E
:10D8B000020121460348FFF722F80125284670BDE2
:10D8C000401B00205CDF0100F8B51B4C6946206856
:10D8D000FDF77EFE00260127184D29E0017821B1D1
:10D8E00001290CD002291BD114E041680A7FBAB982
:10D8F0000F77416810480830FFF701F810E04168E1
:10D900006868814201D16E600AE00B480830FFF779
:10D9100011F805E0FFF748FF08B10677FAE72F7026
:10D9200069462068FDF749FE69462068FDF750FE0C
:10D930000028D3D1F8BD000054DF0100401B0020B7
:10D94000F8B50B4C0D46064669462068FDF72AFEE1
:10D9500058B10670456069462068FDF744FE10B175
:10D960000448FDF743F90020F8BD0420F8BD00008D
:10D9700054DF0100481B0020034880684108034829
:10D9800000224068FCF78EB9281B00204CDF010004
:10D9900070B50C4605464FF48E71FFF706F8216A04
:10D9A000A068415C206A401C2062C5F81C1570BD4F
:10D9B0001FB500228DF8002002918168019142611B
:10D9C000D0E90012684690471FBD1FB500228DF8B0
:10D9D00000200291816801914261D0E900126846FD
:10D9E00090471FBD1FB50A4601788DF800104168A9
:10D9F0000191017A8DF80810C0680390044850F82E
:10DA00002210001F50F82220684690471FBD0000DA
:10DA1000101B00200149012008707047781B00206E
:10DA200010B588B0044620220E496846FBF706FD73
:10DA300006200090C01F0190029003904FF0EB7001
:10DA400006900CB1084A00E0002269460748FDF73D
:10DA5000C9FF08B1FCF7DAF80448001F447008B0A9
:10DA600010BD0000F4E0010015DA01007C1B00206D
:10DA70002DE9FF470C4605464FF40071FEF79BFF6A
:10DA800001274FF40178002618B34FF492794946E4
:10DA90002846FEF785FFE0B149462846FEF785FF98
:10DAA000C5F8088394F8290000B96F6002208DF84A
:10DAB0000000D5F88004C5F880040390A0690290A6
:10DAC000E0680190A661E661D4E9001268469047DB
:10DAD00028E004212846FEF76EFF18B34FF4847146
:10DAE0002846FEF75DFFE8B121462846FFF71AFDFC
:10DAF000616AA069884215D1E06938B1E268616A5B
:10DB0000A0612069E6616662E06008E094F829009F
:10DB100000B96F60C5F80883A661E268616A2046B3
:10DB2000FFF719FD4FF48E7841462846FEF738FF7F
:10DB300080B16069216A814202D294F8280028B33A
:10DB400041462846FEF731FF606918B161692046F9
:10DB5000FFF72EFF4FF4A27841462846FEF720FF3C
:10DB6000002818D041462846FEF71FFF94F82900E8
:10DB700000B12F60A06900280DD0A661E268616A3B
:10DB800004B02046BDE8F047FFF7E5BC2146284633
:10DB9000FFF7FEFEDEE7BDE8FF8700001FB50A467F
:10DBA00001788DF8001041680191017A8DF8081014
:10DBB000C0680390044850F82210001F50F822203B
:10DBC000684690471FBD0000101B00202DE9FF4153
:10DBD0000C464FF4927705463946FEF7F2FE0026D2
:10DBE000B8B139462846FEF7F1FE02208DF8000054
:10DBF000D5F88004C5F880040390D5F83C05029060
:10DC0000E0680190A661E661D4E900126846904799
:10DC100023E04FF4887739462846FEF7D2FEE0B17C
:10DC200039462846FEF7D2FED5F83C15A069884251
:10DC300013D1E06960B1E268D5F8000220F020005D
:10DC4000C5F80002E069A0612069E661E06001E0DA
:10DC5000A661E2682046FFF789FC4FF4A2773946B7
:10DC60002846FEF7AEFE68B139462846FEF7AEFEFE
:10DC7000A06938B1A661E661D5F83C152046E26896
:10DC8000FFF774FC4FF4907631462846FEF799FE74
:10DC900060B131462846FEF799FE0120E8606069D0
:10DCA00020B1D5F84C152046FFF78FFE4FF4AC7627
:10DCB00031462846FEF785FE00280ED0314628461C
:10DCC000FEF784FE6069002807D0D5F84C1504B033
:10DCD0002046BDE8F041FFF778BEBDE8FF8108703F
:10DCE000000A4870022070472DE9F05F8346DDE9A5
:10DCF0000A4A994690460D460846012703E000BFB0
:10DD0000B0FBF8F07F1C4045FAD2B94500D94F4628
:10DD10005FEACA7012D18CB15FEA8A7002D5B9F19C
:10DD2000000F01D0202607E0302605E03146584696
:10DD3000641EFCF759FC0CB1A742F7D35FF0010653
:10DD4000B9F1010F02D9A9F1010903E0B5FBF6F021
:10DD5000404502D306FB08F6F2E7DFF83C9000BF2F
:10DD6000B5FBF6F000FB165519F800105846FCF705
:10DD70003BFCB6FBF8F6002EF2D15FEACA7009D080
:10DD8000002C07D0A74205D220215846641EFCF77C
:10DD90002BFCF5E7BDE8F09F76DF0100F8B50546FE
:10DDA00080B2FDF7E3F8040013D0154E207A002767
:10DDB000317B88420ED2A8B204F10A0175DF28B186
:10DDC000112806D0BDE8F840FFF732BC207A401C8D
:10DDD0002072F8BD2772307C38B1A8B23B2176DFC3
:10DDE00018B1082801D0FFF723FC71690029F0D091
:10DDF0008DF80070ADF8025068468847F8BD000005
:10DE0000941C002030B40446007A00280AD06088B0
:10DE1000002166DF28B1112802D0616830BC0847B4
:10DE20000120207230BC704770B50C460546FCF7E7
:10DE300039FC002807D04268002A04D02146284631
:10DE4000BDE87040104770BD2DE9FC411646DDE984
:10DE50000854CDE900541F468046022200F00CF819
:10DE6000002807D1CDE900543B46102231464046F8
:10DE700000F002F8BDE8FC812DE9FC5F0026DDE939
:10DE80000C4B994692468E4680462788354630E0B0
:10DE9000D8F80400002200EB850069460068019074
:10DEA00001A864DF002830D19DF8000050451FD143
:10DEB0000EB1002100E002212288084411185945C2
:10DEC00022D846B9521C90B2208009F800E0208880
:10DED000401C20800126218801A801EB0902694627
:10DEE00064DF002811D120889DF8001008442080AC
:10DEF0006D1CB8F80000A842CADC56B12088C01BCF
:10DF0000401E80B2FF2802D90C20BDE8FC9F09F812
:10DF100007000020F9E700002315000000140000AE
:10DF2000770A000000000000770A000000000000EF
:10DF300023D1BCEA5F782315DEEF12120000000047
:10DF400000000050FDCC010059CF0100030000008B
:10DF5000F01D0020201E002001000600000000002F
:10DF6000601B002015A90100000000000000000057
:10DF70000338FDD8704730313233343536373839CD
:10DF800041424344454600000000000000000000FC
:10DF90000000000000000000000000000000000081
:10DFA00088DF0100A0DF010004000000556E6B6EE9
:10DFB0006F776E206572726F7220636F6465000008
:10DFC00000000000C4E501000100000070E4010051
:10DFD0000200000064E2010003000000E4E401002C
:10DFE0000400000038E501000500000018E401000D
:10DFF00006000000B4E301000700000020E5010076
:10E00000080000002CE401000900000090E4010079
:10E010000A000000ACE501000B0000004CE201002A
:10E020000C00000044E401000D00000014E60100B3
:10E030000E00000010E501000F0000004CE501009B
:10E040001000000080E501001100000028E601003A
:10E0500012000000FCE501001300000098E501003B
:10E0600080000000CCE301008100000008E3010013
:10E0700082000000C8E2010083000000A8E2010065
:10E0800084000000E4E2010085000000F0E30100EC
:10E0900086000000F8E401009000000094E3010015
:10E0A0009100000088E201009200000058E40100A5
:10E0B0000082000060E5010001820000ACE4010084
:10E0C00002820000C8E401000084000024E3010093
:10E0D00001840000D0E50100028400006CE301002F
:10E0E0000384000048E3010035BF010009BF0100BF
:10E0F00001BF0100FFFFFFFFFFFFFFFFFFFFFFFF6B
:10E10000FFFFFFFF00000000000000000000D6013C
:10E1100006010000A01F00207F000000202000203A
:10E1200000000000000000000000000000000000EF
:10E130000010020120E1010030E1010008000000B0
:10E1400058E1010068E101000800000068E10100F9
:10E1500078E1010008000000D0E90100D8E90100E1
:10E160000000000000000000C0E90100D0E901004B
:10E17000000000000000000088E9010090E90100B3
:10E1800090E90100A0E90100A0E90100B0E9010067
:10E19000B0E90100B8E90100E01A002078E10100CF
:10E1A00098E1010008000000B8E90100C0E90100A1
:10E1B0000000000000000000A8E10100B8E101003B
:10E1C0000800000000404040404040404040414185
:10E1D000414141404040404040404040404040403C
:10E1E00040404040400502020202020202020202D6
:10E1F00002020202022020202020202020202002D3
:10E200000202020202029090909090901010101062
:10E2100010101010101010101010101010101010FE
:10E220000202020202028888888888880808080892
:10E23000080808080808080808080808080808085E
:10E240000202020240000000C5E101004E52465F9A
:10E250004552524F525F494E56414C49445F4441EA
:10E26000544100004E52465F4552524F525F534F49
:10E2700046544445564943455F4E4F545F454E41D1
:10E28000424C4544000000004E52465F4552524FFA
:10E29000525F464541545552455F4E4F545F454E7F
:10E2A00041424C45440000004E52465F4552524F99
:10E2B000525F4D555445585F554E4C4F434B5F464A
:10E2C00041494C45440000004E52465F4552524F72
:10E2D000525F4D555445585F4C4F434B5F46414943
:10E2E0004C4544004E52465F4552524F525F4D5589
:10E2F0005445585F434F4E445F494E49545F464131
:10E30000494C4544000000004E52465F4552524F72
:10E31000525F4D555445585F494E49545F464149F7
:10E320004C4544004E52465F4552524F525F424C5C
:10E33000455F495053505F52585F504B545F5452A1
:10E34000554E4341544544004E52465F4552524F4C
:10E35000525F424C455F495053505F504545525FB4
:10E3600052454A4543544544000000004E52465F22
:10E370004552524F525F424C455F495053505F4C9B
:10E38000494E4B5F444953434F4E4E4543544544D9
:10E39000000000004E52465F4552524F525F4150BE
:10E3A000495F4E4F545F494D504C454D454E544585
:10E3B000440000004E52465F4552524F525F4E4F4E
:10E3C000545F535550504F52544544004E52465F8F
:10E3D0004552524F525F4D4F44554C455F4E4F543E
:10E3E0005F494E495449414C495A45440000000098
:10E3F0004E52465F4552524F525F4D4F44554C4529
:10E400005F414C52454144595F494E495449414C42
:10E41000495A4544000000004E52465F4552524F53
:10E42000525F4E4F545F464F554E44004E52465F2A
:10E430004552524F525F494E56414C49445F5354E6
:10E44000415445004E52465F4552524F525F44413F
:10E4500054415F53495A45004E52465F4552524F10
:10E46000525F494F5F50454E44494E4700000000FF
:10E470004E52465F4552524F525F5356435F48419A
:10E480004E444C45525F4D495353494E470000009E
:10E490004E52465F4552524F525F494E56414C498B
:10E4A000445F4C454E475448000000004E52465FC2
:10E4B0004552524F525F4452565F5457495F45523E
:10E4C000525F414E41434B004E52465F4552524FC0
:10E4D000525F4452565F5457495F4552525F444E13
:10E4E00041434B004E52465F4552524F525F494E98
:10E4F0005445524E414C00004E52465F4552524FD9
:10E50000525F53544F524147455F46554C4C0000B3
:10E510004E52465F4552524F525F4E554C4C000092
:10E520004E52465F4552524F525F494E56414C49FA
:10E53000445F504152414D004E52465F4552524F4A
:10E54000525F4E4F5F4D454D000000004E52465FFA
:10E550004552524F525F464F5242494444454E0045
:10E560004E52465F4552524F525F4452565F545787
:10E57000495F4552525F4F56455252554E0000007A
:10E580004E52465F4552524F525F494E56414C499A
:10E59000445F4144445200004E52465F4552524F40
:10E5A000525F5245534F5552434553004E52465FBA
:10E5B0004552524F525F494E56414C49445F464C7A
:10E5C000414753004E52465F535543434553530012
:10E5D0004E52465F4552524F525F424C455F495042
:10E5E00053505F4348414E4E454C5F414C5245416C
:10E5F00044595F4558495354530000004E52465FFA
:10E600004552524F525F434F4E4E5F434F554E540B
:10E61000000000004E52465F4552524F525F54492F
:10E620004D454F55540000004E52465F4552524FE3
:10E63000525F4255535900007761726E696E6700F0
:10E6400064656275670000001B5B313B33306D0011
:10E650001B5B306D000000001B5B313B33316D00F4
:10E660001B5B313B33326D001B5B313B33336D0041
:10E670001B5B313B33346D001B5B313B33356D002D
:10E680001B5B313B33366D001B5B313B33376D0019
:10E69000696E666F000000006572726F72000000A4
:10E6A00073645F626C655F6366675F736574282976
:10E6B0002072657475726E656420257320776865B5
:10E6C0006E20617474656D7074696E6720746F205C
:10E6D00073657420424C455F47415454535F434631
:10E6E000475F534552564943455F4348414E47456E
:10E6F000442E000073645F626C655F6366675F73DE
:10E70000657428292072657475726E65642025739E
:10E71000207768656E20617474656D7074696E67CA
:10E7200020746F2073657420424C455F434F4D4DFC
:10E730004F4E5F4346475F56535F555549442E0041
:10E7400073645F626C655F6366675F7365742829D5
:10E750002072657475726E65642025732077686514
:10E760006E20617474656D7074696E6720746F20BB
:10E7700073657420424C455F47415454535F434690
:10E78000475F415454525F5441425F53495A452EAA
:10E790000000000073645F626C655F6366675F73AF
:10E7A000657428292072657475726E6564202573FE
:10E7B000207768656E20617474656D7074696E672A
:10E7C00020746F2073657420424C455F434F4E4E5A
:10E7D0005F4346475F4741502E00000073645F620D
:10E7E0006C655F6366675F73657428292072657462
:10E7F00075726E6564202573207768656E2061747C
:10E8000074656D7074696E6720746F207365742011
:10E81000424C455F4741505F4346475F524F4C452E
:10E820005F434F554E542E006E72665F626C655F9B
:10E830006761747400000000636C6F636B0000001C
:10E84000434C4F434B0000004750494F5445000094
:10E85000505253005541525400000000554152544B
:10E86000450000006170705F627574746F6E000027
:10E870006170705F74696D65720000007077725F1F
:10E880006D676D7400000000736F72746C6973744F
:10E8900000000000756172745F6C6F675F62616396
:10E8A0006B656E6400000000617070006E72665FE0
:10E8B000736468006E72665F7364685F626C6500A3
:10E8C0006E72665F7364685F736F6300D8E90100FE
:10E8D000E01A00200C01000094990100E4EA010014
:10E8E000EC1B002074100000A4990100E8E0010076
:10E8F0000000000094E80100901B002028E80100BF
:10E900000000030338E801000000000040E80100B7
:10E910000000000048E801000000000050E801008D
:10E920000000000054E80100000000005CE8010065
:10E930000000000064E801000000000070E8010031
:10E94000000000007CE801000000000088E80100F1
:10E9500000000000A8E8010000000303ACE801008B
:10E9600000000303B4E8010000000303C0E8010055
:10E9700000000303A01B0020981B0020A01B002008
:10E98000E01E002018000000B1A2010000000000FD
:10E9900079B70100041C0020B5A1010000000000AF
:10E9A0008DA40100EC1B0020A7B80100141C00205E
:10E9B000B9A001000000000039D7010000000000EC
:10E9C00075C701000000000075C8010000000000CC
:10E9D00085D50100000000000090D003FF00FFFF7C
:10E9E000140003002DA60100201C00201F000000C1
:10E9F0003F1C00201F00000000000000000000007D
:10EA00000000000000000000000000000000000006
:10EA100000000000000000000000000000000000F6
:10EA200000000000000000000000000000000000E6
:10EA300000000000000000000000000000000000D6
:10EA40000010014011000400000000000000000060
:10EA500000000000000000000000000000000000B6
:10EA600000000000000000000000000000000000A6
:10EA70000000000000000000002000400000000036
:10EA8000002000400000000000000000FF00000027
:10EA90000000000000000000000000000000000076
:10EAA00000000000000000000000000098E60100E7
:10EAB00038E6010090E6010040E6010050E6010062
:10EAC00048E6010058E6010060E6010068E6010042
:10EAD00070E6010078E6010080E6010088E60100AA
:04EAE0000000000032
:040000050001920163
:00000001FF
