Component: ARM Compiler 5.06 update 6 (build 750) Tool: armlink [4d35ed]

==============================================================================

Section Cross References

    main.o(i.main) refers to misc.o(i.NVIC_PriorityGroupConfig) for NVIC_PriorityGroupConfig
    main.o(i.main) refers to delay.o(i.delay_init) for delay_init
    main.o(i.main) refers to led.o(i.led_init) for led_init
    main.o(i.main) refers to key.o(i.key_init) for key_init
    main.o(i.main) refers to usb.o(i.usb_init) for usb_init
    main.o(i.main) refers to delay.o(i.delay_ms) for delay_ms
    main.o(i.main) refers to led.o(i.led_cmd) for led_cmd
    main.o(i.main) refers to usb.o(i.usb_Send) for usb_Send
    main.o(i.main) refers to main.o(.data) for .data
    main.o(.ARM.exidx) refers to main.o(i.main) for i.main
    stm32_it.o(i.USBWakeUp_IRQHandler) refers to stm32f10x_exti.o(i.EXTI_ClearITPendingBit) for EXTI_ClearITPendingBit
    stm32_it.o(i.USB_LP_CAN1_RX0_IRQHandler) refers to usb_istr.o(i.USB_Istr) for USB_Istr
    system_stm32f10x.o(i.SystemCoreClockUpdate) refers to system_stm32f10x.o(.data) for .data
    system_stm32f10x.o(i.SystemInit) refers to system_stm32f10x.o(i.SetSysClockTo72) for SetSysClockTo72
    delay.o(i.delay_init) refers to misc.o(i.SysTick_CLKSourceConfig) for SysTick_CLKSourceConfig
    delay.o(i.delay_init) refers to system_stm32f10x.o(.data) for SystemCoreClock
    delay.o(i.delay_init) refers to delay.o(.data) for .data
    delay.o(i.delay_ms) refers to delay.o(.data) for .data
==============================================================================

Removing Unused input sections from the image.

    Removing main.o(.ARM.exidx), (8 bytes).
    Removing system_stm32f10x.o(i.SystemCoreClockUpdate), (100 bytes).
    Removing delay.o(i.delay_us), (52 bytes).
    Removing sys.o(.emb_text), (6 bytes).
    Removing sys.o(i.INTX_DISABLE), (4 bytes).
    Removing sys.o(i.INTX_ENABLE), (4 bytes).
    Removing sys.o(i.WFI_SET), (4 bytes).
    Removing usart.o(i.fputc), (24 bytes).
    Removing usart.o(i.uart_init), (160 bytes).
    Removing usart.o(.data), (4 bytes).
    Removing core_cm3.o(.emb_text), (32 bytes).
    Removing misc.o(i.NVIC_SetVectorTable), (20 bytes).
    Removing misc.o(i.NVIC_SystemLPConfig), (24 bytes).
    Removing stm32f10x_adc.o(i.ADC_AnalogWatchdogCmd), (16 bytes).
    Removing stm32f10x_adc.o(i.ADC_AnalogWatchdogSingleChannelConfig), (12 bytes).
    Removing stm32f10x_adc.o(i.ADC_AnalogWatchdogThresholdsConfig), (6 bytes).
    Removing stm32f10x_adc.o(i.ADC_AutoInjectedConvCmd), (20 bytes).
    Removing stm32f10x_adc.o(i.ADC_ClearFlag), (6 bytes).
==============================================================================

Image Symbol Table

    Local Symbols

    Symbol Name                              Value     Ov Type        Size  Object(Section)

    ../clib/angel/boardlib.s                 0x00000000   Number         0  boardshut.o ABSOLUTE
    ../clib/angel/boardlib.s                 0x00000000   Number         0  boardinit3.o ABSOLUTE
    ../clib/angel/boardlib.s                 0x00000000   Number         0  boardinit2.o ABSOLUTE
    ../clib/angel/boardlib.s                 0x00000000   Number         0  boardinit1.o ABSOLUTE
    ../clib/angel/dczerorl2.s                0x00000000   Number         0  __dczerorl2.o ABSOLUTE
    ../clib/angel/handlers.s                 0x00000000   Number         0  __scatter_zi.o ABSOLUTE
    ../clib/angel/kernel.s                   0x00000000   Number         0  __rtentry2.o ABSOLUTE
    ../clib/angel/kernel.s                   0x00000000   Number         0  __rtentry.o ABSOLUTE
    ../clib/angel/kernel.s                   0x00000000   Number         0  __rtentry4.o ABSOLUTE
    ../clib/angel/kernel.s                   0x00000000   Number         0  rtexit2.o ABSOLUTE
    ../clib/angel/kernel.s                   0x00000000   Number         0  rtexit.o ABSOLUTE
    ../clib/angel/rt.s                       0x00000000   Number         0  rt_raise.o ABSOLUTE
    ../clib/angel/scatter.s                  0x00000000   Number         0  __scatter.o ABSOLUTE
    ../clib/angel/startup.s                  0x00000000   Number         0  __main.o ABSOLUTE
    ../clib/angel/sys.s                      0x00000000   Number         0  use_no_semi_2.o ABSOLUTE
    ../clib/angel/sys.s                      0x00000000   Number         0  use_no_semi.o ABSOLUTE
    ../clib/angel/sys.s                      0x00000000   Number         0  indicate_semi.o ABSOLUTE
    ../clib/angel/sys.s                      0x00000000   Number         0  libspace.o ABSOLUTE
    ../clib/angel/sys.s                      0x00000000   Number         0  sys_stackheap_outer.o ABSOLUTE
    ../clib/angel/sysapp.c                   0x00000000   Number         0  sys_command.o ABSOLUTE
    ../clib/angel/sysapp.c                   0x00000000   Number         0  sys_wrch.o ABSOLUTE
    ../clib/armsys.c                         0x00000000   Number         0  argv_veneer.o ABSOLUTE
    ../clib/armsys.c                         0x00000000   Number         0  no_argv.o ABSOLUTE
    ../clib/armsys.c                         0x00000000   Number         0  argv_veneer.o ABSOLUTE
    ../clib/armsys.c                         0x00000000   Number         0  _get_argv_nomalloc.o ABSOLUTE
    ../clib/heapalloc.c                      0x00000000   Number         0  hrguard.o ABSOLUTE
    ../clib/heapaux.c                        0x00000000   Number         0  heapauxi.o ABSOLUTE
    ../clib/libinit.s                        0x00000000   Number         0  libshutdown2.o ABSOLUTE
    ../clib/libinit.s                        0x00000000   Number         0  libshutdown.o ABSOLUTE
    ../clib/libinit.s                        0x00000000   Number         0  libinit.o ABSOLUTE
    ../clib/libinit.s                        0x00000000   Number         0  libinit2.o ABSOLUTE
    ../clib/signal.c                         0x00000000   Number         0  defsig_abrt_inner.o ABSOLUTE
    ../clib/signal.c                         0x00000000   Number         0  defsig_general.o ABSOLUTE
    ../clib/signal.c                         0x00000000   Number         0  __raise.o ABSOLUTE
    ../clib/signal.c                         0x00000000   Number         0  defsig_rtmem_inner.o ABSOLUTE
    ../clib/signal.c                         0x00000000   Number         0  defsig_rtmem_formal.o ABSOLUTE
    ../clib/signal.c                         0x00000000   Number         0  defsig_rtmem_outer.o ABSOLUTE
    ../clib/signal.c                         0x00000000   Number         0  defsig_cppl_inner.o ABSOLUTE
    ../clib/signal.c                         0x00000000   Number         0  defsig_exit.o ABSOLUTE
    ../clib/signal.c                         0x00000000   Number         0  defsig_pvfn_inner.o ABSOLUTE
    ../clib/signal.c                         0x00000000   Number         0  defsig_segv_inner.o ABSOLUTE
    ../clib/signal.c                         0x00000000   Number         0  defsig_stak_inner.o ABSOLUTE
    ../clib/signal.c                         0x00000000   Number         0  defsig_rtred_inner.o ABSOLUTE
    ../clib/signal.c                         0x00000000   Number         0  defsig_fpe_inner.o ABSOLUTE
    ../clib/signal.c                         0x00000000   Number         0  defsig_other.o ABSOLUTE
    ../clib/signal.s                         0x00000000   Number         0  defsig.o ABSOLUTE
    ../clib/stdlib.c                         0x00000000   Number         0  exit.o ABSOLUTE
    ../fplib/fpinit.s                        0x00000000   Number         0  fpinit.o ABSOLUTE
    ..\CORE\core_cm3.c                       0x00000000   Number         0  core_cm3.o ABSOLUTE
    ..\CORE\startup_stm32f10x_hd.s           0x00000000   Number         0  startup_stm32f10x_hd.o ABSOLUTE
    ..\DRIVERS\KEY\key.c                     0x00000000   Number         0  key.o ABSOLUTE
    ..\DRIVERS\LED\led.c                     0x00000000   Number         0  led.o ABSOLUTE
    ..\DRIVERS\USB\hw_config.c               0x00000000   Number         0  hw_config.o ABSOLUTE
    ..\DRIVERS\USB\usb.c                     0x00000000   Number         0  usb.o ABSOLUTE
    ..\DRIVERS\USB\usb_desc.c                0x00000000   Number         0  usb_desc.o ABSOLUTE
    ..\DRIVERS\USB\usb_endp.c                0x00000000   Number         0  usb_endp.o ABSOLUTE
    ..\DRIVERS\USB\usb_istr.c                0x00000000   Number         0  usb_istr.o ABSOLUTE
    ..\DRIVERS\USB\usb_prop.c                0x00000000   Number         0  usb_prop.o ABSOLUTE
    ..\DRIVERS\USB\usb_pwr.c                 0x00000000   Number         0  usb_pwr.o ABSOLUTE
    ..\STM32F10x_FWLib\src\misc.c            0x00000000   Number         0  misc.o ABSOLUTE
    ..\STM32F10x_FWLib\src\stm32f10x_adc.c   0x00000000   Number         0  stm32f10x_adc.o ABSOLUTE
    ..\STM32F10x_FWLib\src\stm32f10x_bkp.c   0x00000000   Number         0  stm32f10x_bkp.o ABSOLUTE
    ..\STM32F10x_FWLib\src\stm32f10x_can.c   0x00000000   Number         0  stm32f10x_can.o ABSOLUTE
    ..\STM32F10x_FWLib\src\stm32f10x_cec.c   0x00000000   Number         0  stm32f10x_cec.o ABSOLUTE
    ..\STM32F10x_FWLib\src\stm32f10x_crc.c   0x00000000   Number         0  stm32f10x_crc.o ABSOLUTE
    ..\STM32F10x_FWLib\src\stm32f10x_dac.c   0x00000000   Number         0  stm32f10x_dac.o ABSOLUTE
    ..\STM32F10x_FWLib\src\stm32f10x_dbgmcu.c 0x00000000   Number         0  stm32f10x_dbgmcu.o ABSOLUTE
    ..\STM32F10x_FWLib\src\stm32f10x_dma.c   0x00000000   Number         0  stm32f10x_dma.o ABSOLUTE
    ..\STM32F10x_FWLib\src\stm32f10x_exti.c  0x00000000   Number         0  stm32f10x_exti.o ABSOLUTE
    ..\STM32F10x_FWLib\src\stm32f10x_flash.c 0x00000000   Number         0  stm32f10x_flash.o ABSOLUTE
    ..\STM32F10x_FWLib\src\stm32f10x_fsmc.c  0x00000000   Number         0  stm32f10x_fsmc.o ABSOLUTE
    ..\STM32F10x_FWLib\src\stm32f10x_gpio.c  0x00000000   Number         0  stm32f10x_gpio.o ABSOLUTE
    ..\STM32F10x_FWLib\src\stm32f10x_i2c.c   0x00000000   Number         0  stm32f10x_i2c.o ABSOLUTE
    ..\STM32F10x_FWLib\src\stm32f10x_iwdg.c  0x00000000   Number         0  stm32f10x_iwdg.o ABSOLUTE
    ..\STM32F10x_FWLib\src\stm32f10x_pwr.c   0x00000000   Number         0  stm32f10x_pwr.o ABSOLUTE
    ..\STM32F10x_FWLib\src\stm32f10x_rcc.c   0x00000000   Number         0  stm32f10x_rcc.o ABSOLUTE
    ..\STM32F10x_FWLib\src\stm32f10x_rtc.c   0x00000000   Number         0  stm32f10x_rtc.o ABSOLUTE
    ..\STM32F10x_FWLib\src\stm32f10x_sdio.c  0x00000000   Number         0  stm32f10x_sdio.o ABSOLUTE
    ..\STM32F10x_FWLib\src\stm32f10x_spi.c   0x00000000   Number         0  stm32f10x_spi.o ABSOLUTE
    ..\STM32F10x_FWLib\src\stm32f10x_tim.c   0x00000000   Number         0  stm32f10x_tim.o ABSOLUTE
    ..\STM32F10x_FWLib\src\stm32f10x_usart.c 0x00000000   Number         0  stm32f10x_usart.o ABSOLUTE
    ..\STM32F10x_FWLib\src\stm32f10x_wwdg.c  0x00000000   Number         0  stm32f10x_wwdg.o ABSOLUTE
    ..\STM32_USB-FS-Device_Driver\src\usb_core.c 0x00000000   Number         0  usb_core.o ABSOLUTE
    ..\STM32_USB-FS-Device_Driver\src\usb_init.c 0x00000000   Number         0  usb_init.o ABSOLUTE
    ..\STM32_USB-FS-Device_Driver\src\usb_int.c 0x00000000   Number         0  usb_int.o ABSOLUTE
    ..\STM32_USB-FS-Device_Driver\src\usb_mem.c 0x00000000   Number         0  usb_mem.o ABSOLUTE
    ..\STM32_USB-FS-Device_Driver\src\usb_regs.c 0x00000000   Number         0  usb_regs.o ABSOLUTE
    ..\STM32_USB-FS-Device_Driver\src\usb_sil.c 0x00000000   Number         0  usb_sil.o ABSOLUTE
    ..\SYSTEM\delay\delay.c                  0x00000000   Number         0  delay.o ABSOLUTE
    ..\SYSTEM\sys\sys.c                      0x00000000   Number         0  sys.o ABSOLUTE
    ..\SYSTEM\usart\usart.c                  0x00000000   Number         0  usart.o ABSOLUTE
    ..\\CORE\\core_cm3.c                     0x00000000   Number         0  core_cm3.o ABSOLUTE
    ..\\SYSTEM\\sys\\sys.c                   0x00000000   Number         0  sys.o ABSOLUTE
    dc.s                                     0x00000000   Number         0  dc.o ABSOLUTE
    main.cpp                                 0x00000000   Number         0  main.o ABSOLUTE
    stm32_it.c                               0x00000000   Number         0  stm32_it.o ABSOLUTE
    system_stm32f10x.c                       0x00000000   Number         0  system_stm32f10x.o ABSOLUTE
    RESET                                    0x08000000   Section      304  startup_stm32f10x_hd.o(RESET)
    !!!main                                  0x08000130   Section        8  __main.o(!!!main)
    !!!scatter                               0x08000138   Section       52  __scatter.o(!!!scatter)
    !!dczerorl2                              0x0800016c   Section       90  __dczerorl2.o(!!dczerorl2)
    !!handler_zi                             0x080001c8   Section       28  __scatter_zi.o(!!handler_zi)
    .ARM.Collect$$libinit$$00000000          0x080001e4   Section        2  libinit.o(.ARM.Collect$$libinit$$00000000)
    .ARM.Collect$$libinit$$00000002          0x080001e6   Section        0  libinit2.o(.ARM.Collect$$libinit$$00000002)
    .ARM.Collect$$libinit$$00000004          0x080001e6   Section        0  libinit2.o(.ARM.Collect$$libinit$$00000004)
    .ARM.Collect$$libinit$$0000000A          0x080001e6   Section        0  libinit2.o(.ARM.Collect$$libinit$$0000000A)
    .ARM.Collect$$libinit$$0000000C          0x080001e6   Section        0  libinit2.o(.ARM.Collect$$libinit$$0000000C)
    .ARM.Collect$$libinit$$0000000E          0x080001e6   Section        0  libinit2.o(.ARM.Collect$$libinit$$0000000E)
    .ARM.Collect$$libinit$$00000011          0x080001e6   Section        0  libinit2.o(.ARM.Collect$$libinit$$00000011)
    .ARM.Collect$$libinit$$00000013          0x080001e6   Section        0  libinit2.o(.ARM.Collect$$libinit$$00000013)
    .ARM.Collect$$libinit$$00000015          0x080001e6   Section        0  libinit2.o(.ARM.Collect$$libinit$$00000015)
    .ARM.Collect$$libinit$$00000017          0x080001e6   Section        0  libinit2.o(.ARM.Collect$$libinit$$00000017)
    .ARM.Collect$$libinit$$00000019          0x080001e6   Section        0  libinit2.o(.ARM.Collect$$libinit$$00000019)
    .ARM.Collect$$libinit$$0000001B          0x080001e6   Section        0  libinit2.o(.ARM.Collect$$libinit$$0000001B)
    .ARM.Collect$$libinit$$0000001D          0x080001e6   Section        0  libinit2.o(.ARM.Collect$$libinit$$0000001D)
    .ARM.Collect$$libinit$$0000001F          0x080001e6   Section        0  libinit2.o(.ARM.Collect$$libinit$$0000001F)
    .ARM.Collect$$libinit$$00000021          0x080001e6   Section        0  libinit2.o(.ARM.Collect$$libinit$$00000021)
    .ARM.Collect$$libinit$$00000023          0x080001e6   Section        0  libinit2.o(.ARM.Collect$$libinit$$00000023)
    .ARM.Collect$$libinit$$00000025          0x080001e6   Section        0  libinit2.o(.ARM.Collect$$libinit$$00000025)
    .ARM.Collect$$libinit$$0000002C          0x080001e6   Section        0  libinit2.o(.ARM.Collect$$libinit$$0000002C)
    .ARM.Collect$$libinit$$0000002E          0x080001e6   Section        0  libinit2.o(.ARM.Collect$$libinit$$0000002E)
    .ARM.Collect$$libinit$$00000030          0x080001e6   Section        0  libinit2.o(.ARM.Collect$$libinit$$00000030)
    .ARM.Collect$$libinit$$00000032          0x080001e6   Section        0  libinit2.o(.ARM.Collect$$libinit$$00000032)
    .ARM.Collect$$libinit$$00000033          0x080001e6   Section        2  libinit2.o(.ARM.Collect$$libinit$$00000033)
    .ARM.Collect$$libshutdown$$00000000      0x080001e8   Section        2  libshutdown.o(.ARM.Collect$$libshutdown$$00000000)
    .ARM.Collect$$libshutdown$$00000002      0x080001ea   Section        0  libshutdown2.o(.ARM.Collect$$libshutdown$$00000002)
    .ARM.Collect$$libshutdown$$00000004      0x080001ea   Section        0  libshutdown2.o(.ARM.Collect$$libshutdown$$00000004)
    .ARM.Collect$$libshutdown$$00000007      0x080001ea   Section        0  libshutdown2.o(.ARM.Collect$$libshutdown$$00000007)
    .ARM.Collect$$libshutdown$$0000000A      0x080001ea   Section        0  libshutdown2.o(.ARM.Collect$$libshutdown$$0000000A)
    .ARM.Collect$$libshutdown$$0000000C      0x080001ea   Section        0  libshutdown2.o(.ARM.Collect$$libshutdown$$0000000C)
    .ARM.Collect$$libshutdown$$0000000F      0x080001ea   Section        0  libshutdown2.o(.ARM.Collect$$libshutdown$$0000000F)
    .ARM.Collect$$libshutdown$$00000010      0x080001ea   Section        2  libshutdown2.o(.ARM.Collect$$libshutdown$$00000010)
    .ARM.Collect$$rtentry$$00000000          0x080001ec   Section        0  __rtentry.o(.ARM.Collect$$rtentry$$00000000)
    .ARM.Collect$$rtentry$$00000002          0x080001ec   Section        0  __rtentry2.o(.ARM.Collect$$rtentry$$00000002)
    .ARM.Collect$$rtentry$$00000004          0x080001ec   Section        6  __rtentry4.o(.ARM.Collect$$rtentry$$00000004)
    .ARM.Collect$$rtentry$$00000009          0x080001f2   Section        0  __rtentry2.o(.ARM.Collect$$rtentry$$00000009)
    .ARM.Collect$$rtentry$$0000000A          0x080001f2   Section        4  __rtentry2.o(.ARM.Collect$$rtentry$$0000000A)
    .ARM.Collect$$rtentry$$0000000C          0x080001f6   Section        0  __rtentry2.o(.ARM.Collect$$rtentry$$0000000C)
    .ARM.Collect$$rtentry$$0000000D          0x080001f6   Section        8  __rtentry2.o(.ARM.Collect$$rtentry$$0000000D)
    .ARM.Collect$$rtexit$$00000000           0x080001fe   Section        2  rtexit.o(.ARM.Collect$$rtexit$$00000000)
    .ARM.Collect$$rtexit$$00000002           0x08000200   Section        0  rtexit2.o(.ARM.Collect$$rtexit$$00000002)
    .ARM.Collect$$rtexit$$00000003           0x08000200   Section        4  rtexit2.o(.ARM.Collect$$rtexit$$00000003)
    .ARM.Collect$$rtexit$$00000004           0x08000204   Section        6  rtexit2.o(.ARM.Collect$$rtexit$$00000004)
    .text                                    0x0800020c   Section       64  startup_stm32f10x_hd.o(.text)
    .text                                    0x0800024c   Section        2  use_no_semi_2.o(.text)
    .text                                    0x0800024e   Section        0  heapauxi.o(.text)
    .text                                    0x08000254   Section        2  use_no_semi.o(.text)
    .text                                    0x08000256   Section       74  sys_stackheap_outer.o(.text)
    .text                                    0x080002a0   Section        0  exit.o(.text)
    .text                                    0x080002b4   Section        8  libspace.o(.text)
    i.BusFault_Handler                       0x080002bc   Section        0  stm32_it.o(i.BusFault_Handler)
    i.ByteSwap                               0x080002be   Section        0  usb_regs.o(i.ByteSwap)
    i.CTR_LP                                 0x080002c8   Section        0  usb_int.o(i.CTR_LP)
    i.ClearDTOG_RX                           0x08000424   Section        0  usb_regs.o(i.ClearDTOG_RX)
    i.ClearDTOG_TX                           0x0800044c   Section        0  usb_regs.o(i.ClearDTOG_TX)
    i.Clear_Status_Out                       0x08000474   Section        0  usb_regs.o(i.Clear_Status_Out)
    i.DataStageIn                            0x08000494   Section        0  usb_core.o(i.DataStageIn)
    DataStageIn                              0x08000495   Thumb Code   156  usb_core.o(i.DataStageIn)
    i.DataStageOut                           0x08000548   Section        0  usb_core.o(i.DataStageOut)
    DataStageOut                             0x08000549   Thumb Code   142  usb_core.o(i.DataStageOut)
    i.Data_Setup0                            0x080005ec   Section        0  usb_core.o(i.Data_Setup0)
    Data_Setup0                              0x080005ed   Thumb Code   376  usb_core.o(i.Data_Setup0)
    i.DebugMon_Handler                       0x08000788   Section        0  stm32_it.o(i.DebugMon_Handler)
    i.EP1_IN_Callback                        0x0800078a   Section        0  usb_endp.o(i.EP1_IN_Callback)
    i.EP1_OUT_Callback                       0x0800078c   Section        0  usb_endp.o(i.EP1_OUT_Callback)
    i.EXTI_ClearITPendingBit                 0x080007ac   Section        0  stm32f10x_exti.o(i.EXTI_ClearITPendingBit)
    i.EXTI_Init                              0x080007b8   Section        0  stm32f10x_exti.o(i.EXTI_Init)
    i.GPIO_Init                              0x08000828   Section        0  stm32f10x_gpio.o(i.GPIO_Init)
    i.GPIO_SetBits                           0x080008ca   Section        0  stm32f10x_gpio.o(i.GPIO_SetBits)
    i.GetEPRxAddr                            0x080008d0   Section        0  usb_regs.o(i.GetEPRxAddr)
    i.GetEPRxCount                           0x080008f0   Section        0  usb_regs.o(i.GetEPRxCount)
    i.GetEPTxAddr                            0x08000910   Section        0  usb_regs.o(i.GetEPTxAddr)
    i.Get_SerialNum                          0x0800092c   Section        0  hw_config.o(i.Get_SerialNum)
    i.HardFault_Handler                      0x08000960   Section        0  stm32_it.o(i.HardFault_Handler)
    i.In0_Process                            0x08000964   Section        0  usb_core.o(i.In0_Process)
    i.IntToUnicode                           0x080009c0   Section        0  hw_config.o(i.IntToUnicode)
    IntToUnicode                             0x080009c1   Thumb Code    56  hw_config.o(i.IntToUnicode)
    i.Joystick_Data_Setup                    0x080009f8   Section        0  usb_prop.o(i.Joystick_Data_Setup)
    i.Joystick_GetConfigDescriptor           0x08000a54   Section        0  usb_prop.o(i.Joystick_GetConfigDescriptor)
    i.Joystick_GetDeviceDescriptor           0x08000a60   Section        0  usb_prop.o(i.Joystick_GetDeviceDescriptor)
    i.Joystick_GetHIDDescriptor              0x08000a6c   Section        0  usb_prop.o(i.Joystick_GetHIDDescriptor)
    i.Joystick_GetProtocolValue              0x08000a78   Section        0  usb_prop.o(i.Joystick_GetProtocolValue)
    i.Joystick_GetReportDescriptor           0x08000a94   Section        0  usb_prop.o(i.Joystick_GetReportDescriptor)
    i.Joystick_GetStringDescriptor           0x08000aa0   Section        0  usb_prop.o(i.Joystick_GetStringDescriptor)
    i.Joystick_Get_Interface_Setting         0x08000ac0   Section        0  usb_prop.o(i.Joystick_Get_Interface_Setting)
    i.Joystick_NoData_Setup                  0x08000acc   Section        0  usb_prop.o(i.Joystick_NoData_Setup)
    i.Joystick_Reset                         0x08000aec   Section        0  usb_prop.o(i.Joystick_Reset)
    i.Joystick_Send                          0x08000ba4   Section        0  hw_config.o(i.Joystick_Send)
    i.Joystick_SetConfiguration              0x08000be4   Section        0  usb_prop.o(i.Joystick_SetConfiguration)
    i.Joystick_SetDeviceAddress              0x08000bfc   Section        0  usb_prop.o(i.Joystick_SetDeviceAddress)
    i.Joystick_SetProtocol                   0x08000c08   Section        0  usb_prop.o(i.Joystick_SetProtocol)
    i.Joystick_Status_In                     0x08000c20   Section        0  usb_prop.o(i.Joystick_Status_In)
    i.Joystick_Status_Out                    0x08000c22   Section        0  usb_prop.o(i.Joystick_Status_Out)
    i.Joystick_init                          0x08000c24   Section        0  usb_prop.o(i.Joystick_init)
    i.Leave_LowPowerMode                     0x08000c48   Section        0  hw_config.o(i.Leave_LowPowerMode)
    i.MemManage_Handler                      0x08000c64   Section        0  stm32_it.o(i.MemManage_Handler)
    i.NMI_Handler                            0x08000c66   Section        0  stm32_it.o(i.NMI_Handler)
    i.NOP_Process                            0x08000c68   Section        0  usb_core.o(i.NOP_Process)
    i.NVIC_Init                              0x08000c6c   Section        0  misc.o(i.NVIC_Init)
    i.NVIC_PriorityGroupConfig               0x08000cd0   Section        0  misc.o(i.NVIC_PriorityGroupConfig)
    i.NoData_Setup0                          0x08000ce4   Section        0  usb_core.o(i.NoData_Setup0)
    NoData_Setup0                            0x08000ce5   Thumb Code   190  usb_core.o(i.NoData_Setup0)
    i.Out0_Process                           0x08000db8   Section        0  usb_core.o(i.Out0_Process)
    i.PMAToUserBufferCopy                    0x08000e00   Section        0  usb_mem.o(i.PMAToUserBufferCopy)
    i.PendSV_Handler                         0x08000e20   Section        0  stm32_it.o(i.PendSV_Handler)
    i.Post0_Process                          0x08000e24   Section        0  usb_core.o(i.Post0_Process)
    i.PowerOn                                0x08000e68   Section        0  usb_pwr.o(i.PowerOn)
    i.RCC_APB1PeriphClockCmd                 0x08000e8c   Section        0  stm32f10x_rcc.o(i.RCC_APB1PeriphClockCmd)
    i.RCC_APB2PeriphClockCmd                 0x08000ea4   Section        0  stm32f10x_rcc.o(i.RCC_APB2PeriphClockCmd)
    i.RCC_USBCLKConfig                       0x08000ebc   Section        0  stm32f10x_rcc.o(i.RCC_USBCLKConfig)
    i.Resume                                 0x08000ec8   Section        0  usb_pwr.o(i.Resume)
    i.Resume_Init                            0x08000f5c   Section        0  usb_pwr.o(i.Resume_Init)
    i.SVC_Handler                            0x08000f7c   Section        0  stm32_it.o(i.SVC_Handler)
    i.SetBTABLE                              0x08000f80   Section        0  usb_regs.o(i.SetBTABLE)
    i.SetDeviceAddress                       0x08000f90   Section        0  usb_core.o(i.SetDeviceAddress)
    i.SetEPRxAddr                            0x08000fd8   Section        0  usb_regs.o(i.SetEPRxAddr)
    i.SetEPRxCount                           0x08000ff8   Section        0  usb_regs.o(i.SetEPRxCount)
    i.SetEPRxStatus                          0x08001038   Section        0  usb_regs.o(i.SetEPRxStatus)
    i.SetEPRxValid                           0x08001068   Section        0  usb_regs.o(i.SetEPRxValid)
    i.SetEPTxAddr                            0x0800108c   Section        0  usb_regs.o(i.SetEPTxAddr)
    i.SetEPTxCount                           0x080010ac   Section        0  usb_regs.o(i.SetEPTxCount)
    i.SetEPTxStatus                          0x080010c8   Section        0  usb_regs.o(i.SetEPTxStatus)
    i.SetEPTxValid                           0x080010f8   Section        0  usb_regs.o(i.SetEPTxValid)
    i.SetEPType                              0x0800111c   Section        0  usb_regs.o(i.SetEPType)
    i.SetSysClockTo72                        0x08001138   Section        0  system_stm32f10x.o(i.SetSysClockTo72)
    SetSysClockTo72                          0x08001139   Thumb Code   160  system_stm32f10x.o(i.SetSysClockTo72)
    i.Set_System                             0x080011e0   Section        0  hw_config.o(i.Set_System)
    i.Set_USBClock                           0x08001208   Section        0  hw_config.o(i.Set_USBClock)
    i.Setup0_Process                         0x0800121c   Section        0  usb_core.o(i.Setup0_Process)
    i.Standard_ClearFeature                  0x08001284   Section        0  usb_core.o(i.Standard_ClearFeature)
    i.Standard_GetConfiguration              0x08001380   Section        0  usb_core.o(i.Standard_GetConfiguration)
    i.Standard_GetDescriptorData             0x080013a8   Section        0  usb_core.o(i.Standard_GetDescriptorData)
    i.Standard_GetInterface                  0x080013c4   Section        0  usb_core.o(i.Standard_GetInterface)
    i.Standard_GetStatus                     0x080013ec   Section        0  usb_core.o(i.Standard_GetStatus)
    i.Standard_SetConfiguration              0x08001480   Section        0  usb_core.o(i.Standard_SetConfiguration)
    i.Standard_SetDeviceFeature              0x080014b8   Section        0  usb_core.o(i.Standard_SetDeviceFeature)
    i.Standard_SetEndPointFeature            0x080014dc   Section        0  usb_core.o(i.Standard_SetEndPointFeature)
    i.Standard_SetInterface                  0x08001564   Section        0  usb_core.o(i.Standard_SetInterface)
    i.Suspend                                0x080015ac   Section        0  usb_pwr.o(i.Suspend)
    i.SysTick_CLKSourceConfig                0x08001670   Section        0  misc.o(i.SysTick_CLKSourceConfig)
    i.SysTick_Handler                        0x08001688   Section        0  stm32_it.o(i.SysTick_Handler)
    i.SystemInit                             0x0800168c   Section        0  system_stm32f10x.o(i.SystemInit)
    i.USART1_IRQHandler                      0x080016dc   Section        0  usart.o(i.USART1_IRQHandler)
    i.USART_GetITStatus                      0x08001740   Section        0  stm32f10x_usart.o(i.USART_GetITStatus)
    i.USART_ReceiveData                      0x0800177e   Section        0  stm32f10x_usart.o(i.USART_ReceiveData)
    i.USBWakeUp_IRQHandler                   0x08001786   Section        0  stm32_it.o(i.USBWakeUp_IRQHandler)
    i.USB_Init                               0x08001790   Section        0  usb_init.o(i.USB_Init)
    i.USB_Interrupts_Config                  0x080017b8   Section        0  hw_config.o(i.USB_Interrupts_Config)
    i.USB_Istr                               0x080017ec   Section        0  usb_istr.o(i.USB_Istr)
    i.USB_LP_CAN1_RX0_IRQHandler             0x08001934   Section        0  stm32_it.o(i.USB_LP_CAN1_RX0_IRQHandler)
    i.USB_Port_Set                           0x08001938   Section        0  hw_config.o(i.USB_Port_Set)
    i.USB_SIL_Init                           0x08001984   Section        0  usb_sil.o(i.USB_SIL_Init)
    i.USB_SIL_Write                          0x080019a4   Section        0  usb_sil.o(i.USB_SIL_Write)
    i.UsageFault_Handler                     0x080019ca   Section        0  stm32_it.o(i.UsageFault_Handler)
    i.UserToPMABufferCopy                    0x080019cc   Section        0  usb_mem.o(i.UserToPMABufferCopy)
    i._sys_exit                              0x080019f8   Section        0  usart.o(i._sys_exit)
    i.delay_init                             0x080019fc   Section        0  delay.o(i.delay_init)
    i.delay_ms                               0x08001a38   Section        0  delay.o(i.delay_ms)
    i.key_init                               0x08001a6c   Section        0  key.o(i.key_init)
    i.led_cmd                                0x08001a90   Section        0  led.o(i.led_cmd)
    i.led_init                               0x08001abc   Section        0  led.o(i.led_init)
    i.main                                   0x08001af4   Section        0  main.o(i.main)
    i.usb_Send                               0x08001be0   Section        0  usb.o(i.usb_Send)
    i.usb_init                               0x08001bfa   Section        0  usb.o(i.usb_init)
    .constdata                               0x08001c2c   Section       18  usb_desc.o(.constdata)
    .constdata                               0x08001c3e   Section       41  usb_desc.o(.constdata)
    .constdata                               0x08001c67   Section       63  usb_desc.o(.constdata)
    .constdata                               0x08001ca6   Section        4  usb_desc.o(.constdata)
    .constdata                               0x08001caa   Section       38  usb_desc.o(.constdata)
    .constdata                               0x08001cd0   Section       30  usb_desc.o(.constdata)
    .data                                    0x20000000   Section        8  main.o(.data)
    .data                                    0x20000008   Section       20  system_stm32f10x.o(.data)
    .data                                    0x2000001c   Section        4  delay.o(.data)
    fac_us                                   0x2000001c   Data           1  delay.o(.data)
    fac_ms                                   0x2000001e   Data           2  delay.o(.data)
    .data                                    0x20000020   Section        2  usart.o(.data)
    .data                                    0x20000022   Section        4  usb_core.o(.data)
    .data                                    0x20000026   Section        1  usb_init.o(.data)
    .data                                    0x20000028   Section       12  usb_init.o(.data)
    .data                                    0x20000034   Section        2  usb_init.o(.data)
    .data                                    0x20000036   Section        4  usb_int.o(.data)
    .data                                    0x2000003c   Section        8  hw_config.o(.data)
    .data                                    0x20000044   Section       26  usb_desc.o(.data)
    .data                                    0x20000060   Section       12  usb_istr.o(.data)
    .data                                    0x2000006c   Section       28  usb_istr.o(.data)
    .data                                    0x20000088   Section       28  usb_istr.o(.data)
    .data                                    0x200000a4   Section        2  usb_prop.o(.data)
    .data                                    0x200000a8   Section      116  usb_prop.o(.data)
    .data                                    0x2000011c   Section       36  usb_prop.o(.data)
    .data                                    0x20000140   Section        4  usb_pwr.o(.data)
    .data                                    0x20000144   Section        1  usb_pwr.o(.data)
    .data                                    0x20000148   Section        8  usb_pwr.o(.data)
    .bss                                     0x20000150   Section      200  usart.o(.bss)
    .bss                                     0x20000218   Section       28  usb_init.o(.bss)
    .bss                                     0x20000234   Section       32  usb_pwr.o(.bss)
    .bss                                     0x20000254   Section       96  libspace.o(.bss)
    HEAP                                     0x200002b8   Section      512  startup_stm32f10x_hd.o(HEAP)
    Heap_Mem                                 0x200002b8   Data         512  startup_stm32f10x_hd.o(HEAP)
    STACK                                    0x200004b8   Section     1024  startup_stm32f10x_hd.o(STACK)
    Stack_Mem                                0x200004b8   Data        1024  startup_stm32f10x_hd.o(STACK)
    __initial_sp                             0x200008b8   Data           0  startup_stm32f10x_hd.o(STACK)

    Global Symbols

    Symbol Name                              Value     Ov Type        Size  Object(Section)

    BuildAttributes$$THM_ISAv4$P$D$K$B$S$PE$A:L22UL41UL21$X:L11$S22US41US21$IEEE1$IW$USESV6$~STKCKD$USESV7$~SHL$OSPACE$ROPI$EBA8$UX$STANDARDLIB$REQ8$PRES8$EABIv2 0x00000000   Number         0  anon$$obj.o ABSOLUTE
    __ARM_use_no_argv                        0x00000000   Number         0  main.o ABSOLUTE
    __ARM_exceptions_init                     - Undefined Weak Reference
    __alloca_initialize                       - Undefined Weak Reference
    __arm_preinit_                            - Undefined Weak Reference
    __cpp_initialize__aeabi_                  - Undefined Weak Reference
    __cxa_finalize                            - Undefined Weak Reference
    __rt_locale                               - Undefined Weak Reference
    __sigvec_lookup                           - Undefined Weak Reference
    _atexit_init                              - Undefined Weak Reference
    _call_atexit_fns                          - Undefined Weak Reference
    _clock_init                               - Undefined Weak Reference
    _fp_trap_init                             - Undefined Weak Reference
    _fp_trap_shutdown                         - Undefined Weak Reference
    _get_lc_collate                           - Undefined Weak Reference
    _get_lc_ctype                             - Undefined Weak Reference
    _get_lc_monetary                          - Undefined Weak Reference
    _get_lc_numeric                           - Undefined Weak Reference
    _get_lc_time                              - Undefined Weak Reference
    _getenv_init                              - Undefined Weak Reference
    _handle_redirection                       - Undefined Weak Reference
    _init_alloc                               - Undefined Weak Reference
    _init_user_alloc                          - Undefined Weak Reference
    _initio                                   - Undefined Weak Reference
    _rand_init                                - Undefined Weak Reference
    _signal_finish                            - Undefined Weak Reference
    _signal_init                              - Undefined Weak Reference
    _terminate_alloc                          - Undefined Weak Reference
    _terminate_user_alloc                     - Undefined Weak Reference
    _terminateio                              - Undefined Weak Reference
    __Vectors_Size                           0x00000130   Number         0  startup_stm32f10x_hd.o ABSOLUTE
    __Vectors                                0x08000000   Data           4  startup_stm32f10x_hd.o(RESET)
    __Vectors_End                            0x08000130   Data           0  startup_stm32f10x_hd.o(RESET)
    __main                                   0x08000131   Thumb Code     8  __main.o(!!!main)
    __scatterload                            0x08000139   Thumb Code     0  __scatter.o(!!!scatter)
    __scatterload_rt2                        0x08000139   Thumb Code    44  __scatter.o(!!!scatter)
    __scatterload_rt2_thumb_only             0x08000139   Thumb Code     0  __scatter.o(!!!scatter)
    __scatterload_null                       0x08000147   Thumb Code     0  __scatter.o(!!!scatter)
    __decompress                             0x0800016d   Thumb Code    90  __dczerorl2.o(!!dczerorl2)
    __decompress1                            0x0800016d   Thumb Code     0  __dczerorl2.o(!!dczerorl2)
    __scatterload_zeroinit                   0x080001c9   Thumb Code    28  __scatter_zi.o(!!handler_zi)
    __rt_lib_init                            0x080001e5   Thumb Code     0  libinit.o(.ARM.Collect$$libinit$$00000000)
    __rt_lib_init_alloca_1                   0x080001e7   Thumb Code     0  libinit2.o(.ARM.Collect$$libinit$$0000002E)
    __rt_lib_init_argv_1                     0x080001e7   Thumb Code     0  libinit2.o(.ARM.Collect$$libinit$$0000002C)
    __rt_lib_init_atexit_1                   0x080001e7   Thumb Code     0  libinit2.o(.ARM.Collect$$libinit$$0000001B)
    __rt_lib_init_clock_1                    0x080001e7   Thumb Code     0  libinit2.o(.ARM.Collect$$libinit$$00000021)
    __rt_lib_init_cpp_1                      0x080001e7   Thumb Code     0  libinit2.o(.ARM.Collect$$libinit$$00000032)
    __rt_lib_init_exceptions_1               0x080001e7   Thumb Code     0  libinit2.o(.ARM.Collect$$libinit$$00000030)
    __rt_lib_init_fp_1                       0x080001e7   Thumb Code     0  libinit2.o(.ARM.Collect$$libinit$$00000002)
    __rt_lib_init_fp_trap_1                  0x080001e7   Thumb Code     0  libinit2.o(.ARM.Collect$$libinit$$0000001F)
    __rt_lib_init_getenv_1                   0x080001e7   Thumb Code     0  libinit2.o(.ARM.Collect$$libinit$$00000023)
    __rt_lib_init_heap_1                     0x080001e7   Thumb Code     0  libinit2.o(.ARM.Collect$$libinit$$0000000A)
    __rt_lib_init_lc_collate_1               0x080001e7   Thumb Code     0  libinit2.o(.ARM.Collect$$libinit$$00000011)
    __rt_lib_init_lc_ctype_1                 0x080001e7   Thumb Code     0  libinit2.o(.ARM.Collect$$libinit$$00000013)
    __rt_lib_init_lc_monetary_1              0x080001e7   Thumb Code     0  libinit2.o(.ARM.Collect$$libinit$$00000015)
    __rt_lib_init_lc_numeric_1               0x080001e7   Thumb Code     0  libinit2.o(.ARM.Collect$$libinit$$00000017)
    __rt_lib_init_lc_time_1                  0x080001e7   Thumb Code     0  libinit2.o(.ARM.Collect$$libinit$$00000019)
    __rt_lib_init_preinit_1                  0x080001e7   Thumb Code     0  libinit2.o(.ARM.Collect$$libinit$$00000004)
    __rt_lib_init_rand_1                     0x080001e7   Thumb Code     0  libinit2.o(.ARM.Collect$$libinit$$0000000E)
    __rt_lib_init_return                     0x080001e7   Thumb Code     0  libinit2.o(.ARM.Collect$$libinit$$00000033)
    __rt_lib_init_signal_1                   0x080001e7   Thumb Code     0  libinit2.o(.ARM.Collect$$libinit$$0000001D)
    __rt_lib_init_stdio_1                    0x080001e7   Thumb Code     0  libinit2.o(.ARM.Collect$$libinit$$00000025)
    __rt_lib_init_user_alloc_1               0x080001e7   Thumb Code     0  libinit2.o(.ARM.Collect$$libinit$$0000000C)
    __rt_lib_shutdown                        0x080001e9   Thumb Code     0  libshutdown.o(.ARM.Collect$$libshutdown$$00000000)
    __rt_lib_shutdown_cpp_1                  0x080001eb   Thumb Code     0  libshutdown2.o(.ARM.Collect$$libshutdown$$00000002)
    __rt_lib_shutdown_fp_trap_1              0x080001eb   Thumb Code     0  libshutdown2.o(.ARM.Collect$$libshutdown$$00000007)
    __rt_lib_shutdown_heap_1                 0x080001eb   Thumb Code     0  libshutdown2.o(.ARM.Collect$$libshutdown$$0000000F)
    __rt_lib_shutdown_return                 0x080001eb   Thumb Code     0  libshutdown2.o(.ARM.Collect$$libshutdown$$00000010)
    __rt_lib_shutdown_signal_1               0x080001eb   Thumb Code     0  libshutdown2.o(.ARM.Collect$$libshutdown$$0000000A)
    __rt_lib_shutdown_stdio_1                0x080001eb   Thumb Code     0  libshutdown2.o(.ARM.Collect$$libshutdown$$00000004)
    __rt_lib_shutdown_user_alloc_1           0x080001eb   Thumb Code     0  libshutdown2.o(.ARM.Collect$$libshutdown$$0000000C)
    __rt_entry                               0x080001ed   Thumb Code     0  __rtentry.o(.ARM.Collect$$rtentry$$00000000)
    __rt_entry_presh_1                       0x080001ed   Thumb Code     0  __rtentry2.o(.ARM.Collect$$rtentry$$00000002)
    __rt_entry_sh                            0x080001ed   Thumb Code     0  __rtentry4.o(.ARM.Collect$$rtentry$$00000004)
    __rt_entry_li                            0x080001f3   Thumb Code     0  __rtentry2.o(.ARM.Collect$$rtentry$$0000000A)
    __rt_entry_postsh_1                      0x080001f3   Thumb Code     0  __rtentry2.o(.ARM.Collect$$rtentry$$00000009)
    __rt_entry_main                          0x080001f7   Thumb Code     0  __rtentry2.o(.ARM.Collect$$rtentry$$0000000D)
    __rt_entry_postli_1                      0x080001f7   Thumb Code     0  __rtentry2.o(.ARM.Collect$$rtentry$$0000000C)
    __rt_exit                                0x080001ff   Thumb Code     0  rtexit.o(.ARM.Collect$$rtexit$$00000000)
    __rt_exit_ls                             0x08000201   Thumb Code     0  rtexit2.o(.ARM.Collect$$rtexit$$00000003)
    __rt_exit_prels_1                        0x08000201   Thumb Code     0  rtexit2.o(.ARM.Collect$$rtexit$$00000002)
    __rt_exit_exit                           0x08000205   Thumb Code     0  rtexit2.o(.ARM.Collect$$rtexit$$00000004)
    Reset_Handler                            0x0800020d   Thumb Code     8  startup_stm32f10x_hd.o(.text)
    ADC1_2_IRQHandler                        0x08000227   Thumb Code     0  startup_stm32f10x_hd.o(.text)
    ADC3_IRQHandler                          0x08000227   Thumb Code     0  startup_stm32f10x_hd.o(.text)
    CAN1_RX1_IRQHandler                      0x08000227   Thumb Code     0  startup_stm32f10x_hd.o(.text)
    CAN1_SCE_IRQHandler                      0x08000227   Thumb Code     0  startup_stm32f10x_hd.o(.text)
    DMA1_Channel1_IRQHandler                 0x08000227   Thumb Code     0  startup_stm32f10x_hd.o(.text)
    DMA1_Channel2_IRQHandler                 0x08000227   Thumb Code     0  startup_stm32f10x_hd.o(.text)
    DMA1_Channel3_IRQHandler                 0x08000227   Thumb Code     0  startup_stm32f10x_hd.o(.text)
    DMA1_Channel4_IRQHandler                 0x08000227   Thumb Code     0  startup_stm32f10x_hd.o(.text)
    DMA1_Channel5_IRQHandler                 0x08000227   Thumb Code     0  startup_stm32f10x_hd.o(.text)
    DMA1_Channel6_IRQHandler                 0x08000227   Thumb Code     0  startup_stm32f10x_hd.o(.text)
    DMA1_Channel7_IRQHandler                 0x08000227   Thumb Code     0  startup_stm32f10x_hd.o(.text)
    DMA2_Channel1_IRQHandler                 0x08000227   Thumb Code     0  startup_stm32f10x_hd.o(.text)
    DMA2_Channel2_IRQHandler                 0x08000227   Thumb Code     0  startup_stm32f10x_hd.o(.text)
    DMA2_Channel3_IRQHandler                 0x08000227   Thumb Code     0  startup_stm32f10x_hd.o(.text)
    DMA2_Channel4_5_IRQHandler               0x08000227   Thumb Code     0  startup_stm32f10x_hd.o(.text)
    EXTI0_IRQHandler                         0x08000227   Thumb Code     0  startup_stm32f10x_hd.o(.text)
    EXTI15_10_IRQHandler                     0x08000227   Thumb Code     0  startup_stm32f10x_hd.o(.text)
    EXTI1_IRQHandler                         0x08000227   Thumb Code     0  startup_stm32f10x_hd.o(.text)
    EXTI2_IRQHandler                         0x08000227   Thumb Code     0  startup_stm32f10x_hd.o(.text)
    EXTI3_IRQHandler                         0x08000227   Thumb Code     0  startup_stm32f10x_hd.o(.text)
    EXTI4_IRQHandler                         0x08000227   Thumb Code     0  startup_stm32f10x_hd.o(.text)
    EXTI9_5_IRQHandler                       0x08000227   Thumb Code     0  startup_stm32f10x_hd.o(.text)
    FLASH_IRQHandler                         0x08000227   Thumb Code     0  startup_stm32f10x_hd.o(.text)
    FSMC_IRQHandler                          0x08000227   Thumb Code     0  startup_stm32f10x_hd.o(.text)
    I2C1_ER_IRQHandler                       0x08000227   Thumb Code     0  startup_stm32f10x_hd.o(.text)
    I2C1_EV_IRQHandler                       0x08000227   Thumb Code     0  startup_stm32f10x_hd.o(.text)
    I2C2_ER_IRQHandler                       0x08000227   Thumb Code     0  startup_stm32f10x_hd.o(.text)
    I2C2_EV_IRQHandler                       0x08000227   Thumb Code     0  startup_stm32f10x_hd.o(.text)
    PVD_IRQHandler                           0x08000227   Thumb Code     0  startup_stm32f10x_hd.o(.text)
    RCC_IRQHandler                           0x08000227   Thumb Code     0  startup_stm32f10x_hd.o(.text)
    RTCAlarm_IRQHandler                      0x08000227   Thumb Code     0  startup_stm32f10x_hd.o(.text)
    RTC_IRQHandler                           0x08000227   Thumb Code     0  startup_stm32f10x_hd.o(.text)
    SDIO_IRQHandler                          0x08000227   Thumb Code     0  startup_stm32f10x_hd.o(.text)
    SPI1_IRQHandler                          0x08000227   Thumb Code     0  startup_stm32f10x_hd.o(.text)
    SPI2_IRQHandler                          0x08000227   Thumb Code     0  startup_stm32f10x_hd.o(.text)
    SPI3_IRQHandler                          0x08000227   Thumb Code     0  startup_stm32f10x_hd.o(.text)
    TAMPER_IRQHandler                        0x08000227   Thumb Code     0  startup_stm32f10x_hd.o(.text)
    TIM1_BRK_IRQHandler                      0x08000227   Thumb Code     0  startup_stm32f10x_hd.o(.text)
    TIM1_CC_IRQHandler                       0x08000227   Thumb Code     0  startup_stm32f10x_hd.o(.text)
    TIM1_TRG_COM_IRQHandler                  0x08000227   Thumb Code     0  startup_stm32f10x_hd.o(.text)
    TIM1_UP_IRQHandler                       0x08000227   Thumb Code     0  startup_stm32f10x_hd.o(.text)
    TIM2_IRQHandler                          0x08000227   Thumb Code     0  startup_stm32f10x_hd.o(.text)
    TIM3_IRQHandler                          0x08000227   Thumb Code     0  startup_stm32f10x_hd.o(.text)
    TIM4_IRQHandler                          0x08000227   Thumb Code     0  startup_stm32f10x_hd.o(.text)
    TIM5_IRQHandler                          0x08000227   Thumb Code     0  startup_stm32f10x_hd.o(.text)
    TIM6_IRQHandler                          0x08000227   Thumb Code     0  startup_stm32f10x_hd.o(.text)
    TIM7_IRQHandler                          0x08000227   Thumb Code     0  startup_stm32f10x_hd.o(.text)
    TIM8_BRK_IRQHandler                      0x08000227   Thumb Code     0  startup_stm32f10x_hd.o(.text)
    TIM8_CC_IRQHandler                       0x08000227   Thumb Code     0  startup_stm32f10x_hd.o(.text)
    TIM8_TRG_COM_IRQHandler                  0x08000227   Thumb Code     0  startup_stm32f10x_hd.o(.text)
    TIM8_UP_IRQHandler                       0x08000227   Thumb Code     0  startup_stm32f10x_hd.o(.text)
    UART4_IRQHandler                         0x08000227   Thumb Code     0  startup_stm32f10x_hd.o(.text)
    UART5_IRQHandler                         0x08000227   Thumb Code     0  startup_stm32f10x_hd.o(.text)
    USART2_IRQHandler                        0x08000227   Thumb Code     0  startup_stm32f10x_hd.o(.text)
    USART3_IRQHandler                        0x08000227   Thumb Code     0  startup_stm32f10x_hd.o(.text)
    USB_HP_CAN1_TX_IRQHandler                0x08000227   Thumb Code     0  startup_stm32f10x_hd.o(.text)
    WWDG_IRQHandler                          0x08000227   Thumb Code     0  startup_stm32f10x_hd.o(.text)
    __user_initial_stackheap                 0x08000229   Thumb Code     0  startup_stm32f10x_hd.o(.text)
    __use_no_semihosting                     0x0800024d   Thumb Code     2  use_no_semi_2.o(.text)
    __use_two_region_memory                  0x0800024f   Thumb Code     2  heapauxi.o(.text)
    __rt_heap_escrow$2region                 0x08000251   Thumb Code     2  heapauxi.o(.text)
    __rt_heap_expand$2region                 0x08000253   Thumb Code     2  heapauxi.o(.text)
    __I$use$semihosting                      0x08000255   Thumb Code     0  use_no_semi.o(.text)
    __use_no_semihosting_swi                 0x08000255   Thumb Code     2  use_no_semi.o(.text)
    __user_setup_stackheap                   0x08000257   Thumb Code    74  sys_stackheap_outer.o(.text)
    exit                                     0x080002a1   Thumb Code    18  exit.o(.text)
    __user_libspace                          0x080002b5   Thumb Code     8  libspace.o(.text)
    __user_perproc_libspace                  0x080002b5   Thumb Code     0  libspace.o(.text)
    __user_perthread_libspace                0x080002b5   Thumb Code     0  libspace.o(.text)
    BusFault_Handler                         0x080002bd   Thumb Code     2  stm32_it.o(i.BusFault_Handler)
    ByteSwap                                 0x080002bf   Thumb Code    10  usb_regs.o(i.ByteSwap)
    CTR_LP                                   0x080002c9   Thumb Code   318  usb_int.o(i.CTR_LP)
    ClearDTOG_RX                             0x08000425   Thumb Code    36  usb_regs.o(i.ClearDTOG_RX)
    ClearDTOG_TX                             0x0800044d   Thumb Code    36  usb_regs.o(i.ClearDTOG_TX)
    Clear_Status_Out                         0x08000475   Thumb Code    28  usb_regs.o(i.Clear_Status_Out)
    DebugMon_Handler                         0x08000789   Thumb Code     2  stm32_it.o(i.DebugMon_Handler)
    EP1_IN_Callback                          0x0800078b   Thumb Code     2  usb_endp.o(i.EP1_IN_Callback)
    EP1_OUT_Callback                         0x0800078d   Thumb Code    30  usb_endp.o(i.EP1_OUT_Callback)
    EXTI_ClearITPendingBit                   0x080007ad   Thumb Code     6  stm32f10x_exti.o(i.EXTI_ClearITPendingBit)
    EXTI_Init                                0x080007b9   Thumb Code   108  stm32f10x_exti.o(i.EXTI_Init)
    GPIO_Init                                0x08000829   Thumb Code   162  stm32f10x_gpio.o(i.GPIO_Init)
    GPIO_SetBits                             0x080008cb   Thumb Code     4  stm32f10x_gpio.o(i.GPIO_SetBits)
    GetEPRxAddr                              0x080008d1   Thumb Code    22  usb_regs.o(i.GetEPRxAddr)
    GetEPRxCount                             0x080008f1   Thumb Code    24  usb_regs.o(i.GetEPRxCount)
    GetEPTxAddr                              0x08000911   Thumb Code    20  usb_regs.o(i.GetEPTxAddr)
    Get_SerialNum                            0x0800092d   Thumb Code    44  hw_config.o(i.Get_SerialNum)
    HardFault_Handler                        0x08000961   Thumb Code     2  stm32_it.o(i.HardFault_Handler)
    In0_Process                              0x08000965   Thumb Code    80  usb_core.o(i.In0_Process)
    Joystick_Data_Setup                      0x080009f9   Thumb Code    74  usb_prop.o(i.Joystick_Data_Setup)
    Joystick_GetConfigDescriptor             0x08000a55   Thumb Code     6  usb_prop.o(i.Joystick_GetConfigDescriptor)
    Joystick_GetDeviceDescriptor             0x08000a61   Thumb Code     6  usb_prop.o(i.Joystick_GetDeviceDescriptor)
    Joystick_GetHIDDescriptor                0x08000a6d   Thumb Code     6  usb_prop.o(i.Joystick_GetHIDDescriptor)
    Joystick_GetProtocolValue                0x08000a79   Thumb Code    18  usb_prop.o(i.Joystick_GetProtocolValue)
    Joystick_GetReportDescriptor             0x08000a95   Thumb Code     6  usb_prop.o(i.Joystick_GetReportDescriptor)
    Joystick_GetStringDescriptor             0x08000aa1   Thumb Code    24  usb_prop.o(i.Joystick_GetStringDescriptor)
    Joystick_Get_Interface_Setting           0x08000ac1   Thumb Code    10  usb_prop.o(i.Joystick_Get_Interface_Setting)
    Joystick_NoData_Setup                    0x08000acd   Thumb Code    26  usb_prop.o(i.Joystick_NoData_Setup)
    Joystick_Reset                           0x08000aed   Thumb Code   166  usb_prop.o(i.Joystick_Reset)
    Joystick_Send                            0x08000ba5   Thumb Code    62  hw_config.o(i.Joystick_Send)
    Joystick_SetConfiguration                0x08000be5   Thumb Code    16  usb_prop.o(i.Joystick_SetConfiguration)
    Joystick_SetDeviceAddress                0x08000bfd   Thumb Code     8  usb_prop.o(i.Joystick_SetDeviceAddress)
    Joystick_SetProtocol                     0x08000c09   Thumb Code    14  usb_prop.o(i.Joystick_SetProtocol)
    Joystick_Status_In                       0x08000c21   Thumb Code     2  usb_prop.o(i.Joystick_Status_In)
    Joystick_Status_Out                      0x08000c23   Thumb Code     2  usb_prop.o(i.Joystick_Status_Out)
    Joystick_init                            0x08000c25   Thumb Code    28  usb_prop.o(i.Joystick_init)
    Leave_LowPowerMode                       0x08000c49   Thumb Code    20  hw_config.o(i.Leave_LowPowerMode)
    MemManage_Handler                        0x08000c65   Thumb Code     2  stm32_it.o(i.MemManage_Handler)
    NMI_Handler                              0x08000c67   Thumb Code     2  stm32_it.o(i.NMI_Handler)
    NOP_Process                              0x08000c69   Thumb Code     2  usb_core.o(i.NOP_Process)
    NVIC_Init                                0x08000c6d   Thumb Code    94  misc.o(i.NVIC_Init)
    NVIC_PriorityGroupConfig                 0x08000cd1   Thumb Code    10  misc.o(i.NVIC_PriorityGroupConfig)
    Out0_Process                             0x08000db9   Thumb Code    62  usb_core.o(i.Out0_Process)
    PMAToUserBufferCopy                      0x08000e01   Thumb Code    26  usb_mem.o(i.PMAToUserBufferCopy)
    PendSV_Handler                           0x08000e21   Thumb Code     2  stm32_it.o(i.PendSV_Handler)
    Post0_Process                            0x08000e25   Thumb Code    52  usb_core.o(i.Post0_Process)
    PowerOn                                  0x08000e69   Thumb Code    28  usb_pwr.o(i.PowerOn)
    RCC_APB1PeriphClockCmd                   0x08000e8d   Thumb Code    18  stm32f10x_rcc.o(i.RCC_APB1PeriphClockCmd)
    RCC_APB2PeriphClockCmd                   0x08000ea5   Thumb Code    18  stm32f10x_rcc.o(i.RCC_APB2PeriphClockCmd)
    RCC_USBCLKConfig                         0x08000ebd   Thumb Code     8  stm32f10x_rcc.o(i.RCC_USBCLKConfig)
    Resume                                   0x08000ec9   Thumb Code   140  usb_pwr.o(i.Resume)
    Resume_Init                              0x08000f5d   Thumb Code    26  usb_pwr.o(i.Resume_Init)
    SVC_Handler                              0x08000f7d   Thumb Code     2  stm32_it.o(i.SVC_Handler)
    SetBTABLE                                0x08000f81   Thumb Code    10  usb_regs.o(i.SetBTABLE)
    SetDeviceAddress                         0x08000f91   Thumb Code    58  usb_core.o(i.SetDeviceAddress)
    SetEPRxAddr                              0x08000fd9   Thumb Code    24  usb_regs.o(i.SetEPRxAddr)
    SetEPRxCount                             0x08000ff9   Thumb Code    54  usb_regs.o(i.SetEPRxCount)
    SetEPRxStatus                            0x08001039   Thumb Code    44  usb_regs.o(i.SetEPRxStatus)
    SetEPRxValid                             0x08001069   Thumb Code    32  usb_regs.o(i.SetEPRxValid)
    SetEPTxAddr                              0x0800108d   Thumb Code    22  usb_regs.o(i.SetEPTxAddr)
    SetEPTxCount                             0x080010ad   Thumb Code    20  usb_regs.o(i.SetEPTxCount)
    SetEPTxStatus                            0x080010c9   Thumb Code    44  usb_regs.o(i.SetEPTxStatus)
    SetEPTxValid                             0x080010f9   Thumb Code    32  usb_regs.o(i.SetEPTxValid)
    SetEPType                                0x0800111d   Thumb Code    24  usb_regs.o(i.SetEPType)
    Set_System                               0x080011e1   Thumb Code    34  hw_config.o(i.Set_System)
    Set_USBClock                             0x08001209   Thumb Code    20  hw_config.o(i.Set_USBClock)
    Setup0_Process                           0x0800121d   Thumb Code    92  usb_core.o(i.Setup0_Process)
    Standard_ClearFeature                    0x08001285   Thumb Code   232  usb_core.o(i.Standard_ClearFeature)
    Standard_GetConfiguration                0x08001381   Thumb Code    30  usb_core.o(i.Standard_GetConfiguration)
    Standard_GetDescriptorData               0x080013a9   Thumb Code    24  usb_core.o(i.Standard_GetDescriptorData)
    Standard_GetInterface                    0x080013c5   Thumb Code    30  usb_core.o(i.Standard_GetInterface)
    Standard_GetStatus                       0x080013ed   Thumb Code   130  usb_core.o(i.Standard_GetStatus)
    Standard_SetConfiguration                0x08001481   Thumb Code    42  usb_core.o(i.Standard_SetConfiguration)
    Standard_SetDeviceFeature                0x080014b9   Thumb Code    26  usb_core.o(i.Standard_SetDeviceFeature)
    Standard_SetEndPointFeature              0x080014dd   Thumb Code   118  usb_core.o(i.Standard_SetEndPointFeature)
    Standard_SetInterface                    0x08001565   Thumb Code    60  usb_core.o(i.Standard_SetInterface)
    Suspend                                  0x080015ad   Thumb Code   176  usb_pwr.o(i.Suspend)
    SysTick_CLKSourceConfig                  0x08001671   Thumb Code    24  misc.o(i.SysTick_CLKSourceConfig)
    SysTick_Handler                          0x08001689   Thumb Code     2  stm32_it.o(i.SysTick_Handler)
    SystemInit                               0x0800168d   Thumb Code    64  system_stm32f10x.o(i.SystemInit)
    USART1_IRQHandler                        0x080016dd   Thumb Code    88  usart.o(i.USART1_IRQHandler)
    USART_GetITStatus                        0x08001741   Thumb Code    62  stm32f10x_usart.o(i.USART_GetITStatus)
    USART_ReceiveData                        0x0800177f   Thumb Code     8  stm32f10x_usart.o(i.USART_ReceiveData)
    USBWakeUp_IRQHandler                     0x08001787   Thumb Code     8  stm32_it.o(i.USBWakeUp_IRQHandler)
    USB_Init                                 0x08001791   Thumb Code    22  usb_init.o(i.USB_Init)
    USB_Interrupts_Config                    0x080017b9   Thumb Code    50  hw_config.o(i.USB_Interrupts_Config)
    USB_Istr                                 0x080017ed   Thumb Code   302  usb_istr.o(i.USB_Istr)
    USB_LP_CAN1_RX0_IRQHandler               0x08001935   Thumb Code     4  stm32_it.o(i.USB_LP_CAN1_RX0_IRQHandler)
    USB_Port_Set                             0x08001939   Thumb Code    64  hw_config.o(i.USB_Port_Set)
    USB_SIL_Init                             0x08001985   Thumb Code    24  usb_sil.o(i.USB_SIL_Init)
    USB_SIL_Write                            0x080019a5   Thumb Code    38  usb_sil.o(i.USB_SIL_Write)
    UsageFault_Handler                       0x080019cb   Thumb Code     2  stm32_it.o(i.UsageFault_Handler)
    UserToPMABufferCopy                      0x080019cd   Thumb Code    38  usb_mem.o(i.UserToPMABufferCopy)
    _sys_exit                                0x080019f9   Thumb Code     2  usart.o(i._sys_exit)
    delay_init                               0x080019fd   Thumb Code    46  delay.o(i.delay_init)
    delay_ms                                 0x08001a39   Thumb Code    46  delay.o(i.delay_ms)
    key_init                                 0x08001a6d   Thumb Code    32  key.o(i.key_init)
    led_cmd                                  0x08001a91   Thumb Code    40  led.o(i.led_cmd)
    led_init                                 0x08001abd   Thumb Code    52  led.o(i.led_init)
    main                                     0x08001af5   Thumb Code   228  main.o(i.main)
    usb_Send                                 0x08001be1   Thumb Code    26  usb.o(i.usb_Send)
    usb_init                                 0x08001bfb   Thumb Code    50  usb.o(i.usb_init)
    Joystick_DeviceDescriptor                0x08001c2c   Data          18  usb_desc.o(.constdata)
    Joystick_ConfigDescriptor                0x08001c3e   Data          41  usb_desc.o(.constdata)
    Joystick_ReportDescriptor                0x08001c67   Data          63  usb_desc.o(.constdata)
    Joystick_StringLangID                    0x08001ca6   Data           4  usb_desc.o(.constdata)
    Joystick_StringVendor                    0x08001caa   Data          38  usb_desc.o(.constdata)
    Joystick_StringProduct                   0x08001cd0   Data          30  usb_desc.o(.constdata)
    Region$$Table$$Base                      0x08001cf0   Number         0  anon$$obj.o(Region$$Table)
    Region$$Table$$Limit                     0x08001d10   Number         0  anon$$obj.o(Region$$Table)
    i                                        0x20000000   Data           4  main.o(.data)
    a                                        0x20000004   Data           4  main.o(.data)
    SystemCoreClock                          0x20000008   Data           4  system_stm32f10x.o(.data)
    AHBPrescTable                            0x2000000c   Data          16  system_stm32f10x.o(.data)
    USART_RX_STA                             0x20000020   Data           2  usart.o(.data)
    Data_Mul_MaxPacketSize                   0x20000022   Data           1  usb_core.o(.data)
    StatusInfo                               0x20000024   Data           2  usb_core.o(.data)
    EPindex                                  0x20000026   Data           1  usb_init.o(.data)
    pInformation                             0x20000028   Data           4  usb_init.o(.data)
    pProperty                                0x2000002c   Data           4  usb_init.o(.data)
    pUser_Standard_Requests                  0x20000030   Data           4  usb_init.o(.data)
    wInterrupt_Mask                          0x20000034   Data           2  usb_init.o(.data)
    SaveRState                               0x20000036   Data           2  usb_int.o(.data)
    SaveTState                               0x20000038   Data           2  usb_int.o(.data)
    EXTI_InitStructure                       0x2000003c   Data           8  hw_config.o(.data)
    Joystick_StringSerial                    0x20000044   Data          26  usb_desc.o(.data)
    bIntPackSOF                              0x20000060   Data           1  usb_istr.o(.data)
    wIstr                                    0x20000062   Data           2  usb_istr.o(.data)
    esof_counter                             0x20000064   Data           4  usb_istr.o(.data)
    wCNTR                                    0x20000068   Data           4  usb_istr.o(.data)
    pEpInt_IN                                0x2000006c   Data          28  usb_istr.o(.data)
    pEpInt_OUT                               0x20000088   Data          28  usb_istr.o(.data)
    Device_Table                             0x200000a4   Data           2  usb_prop.o(.data)
    ProtocolValue                            0x200000a8   Data           4  usb_prop.o(.data)
    Device_Descriptor                        0x200000ac   Data           8  usb_prop.o(.data)
    Config_Descriptor                        0x200000b4   Data           8  usb_prop.o(.data)
    Joystick_Report_Descriptor               0x200000bc   Data           8  usb_prop.o(.data)
    Mouse_Hid_Descriptor                     0x200000c4   Data           8  usb_prop.o(.data)
    Device_Property                          0x200000cc   Data          48  usb_prop.o(.data)
    String_Descriptor                        0x200000fc   Data          32  usb_prop.o(.data)
    User_Standard_Requests                   0x2000011c   Data          36  usb_prop.o(.data)
    bDeviceState                             0x20000140   Data           4  usb_pwr.o(.data)
    fSuspendEnabled                          0x20000144   Data           1  usb_pwr.o(.data)
    ResumeS                                  0x20000148   Data           2  usb_pwr.o(.data)
    remotewakeupon                           0x2000014c   Data           4  usb_pwr.o(.data)
    USART_RX_BUF                             0x20000150   Data         200  usart.o(.bss)
    Device_Info                              0x20000218   Data          28  usb_init.o(.bss)
    EP                                       0x20000234   Data          32  usb_pwr.o(.bss)
    __libspace_start                         0x20000254   Data          96  libspace.o(.bss)
    __temporary_stack_top$libspace           0x200002b4   Data           0  libspace.o(.bss)



==============================================================================

Memory Map of the image

  Image Entry point : 0x0800020d

  Load Region LR_1 (Base: 0x08000000, Size: 0x00001e60, Max: 0xffffffff, ABSOLUTE, COMPRESSED[0x00001d98])

    Execution Region ER_RO (Exec base: 0x08000000, Load base: 0x08000000, Size: 0x00001d10, Max: 0xffffffff, ABSOLUTE)

    Exec Addr    Load Addr    Size         Type   Attr      Idx    E Section Name        Object

    0x08000000   0x08000000   0x00000130   Data   RO          491    RESET               startup_stm32f10x_hd.o
    0x08000130   0x08000130   0x00000008   Code   RO         4383  * !!!main             c_w.l(__main.o)
    0x08000138   0x08000138   0x00000034   Code   RO         4540    !!!scatter          c_w.l(__scatter.o)
    0x0800016c   0x0800016c   0x0000005a   Code   RO         4538    !!dczerorl2         c_w.l(__dczerorl2.o)
    0x080001c6   0x080001c6   0x00000002   PAD
    0x080001c8   0x080001c8   0x0000001c   Code   RO         4542    !!handler_zi        c_w.l(__scatter_zi.o)
    0x080001e4   0x080001e4   0x00000002   Code   RO         4412    .ARM.Collect$$libinit$$00000000  c_w.l(libinit.o)
    0x080001e6   0x080001e6   0x00000000   Code   RO         4419    .ARM.Collect$$libinit$$00000002  c_w.l(libinit2.o)
    0x080001e6   0x080001e6   0x00000000   Code   RO         4421    .ARM.Collect$$libinit$$00000004  c_w.l(libinit2.o)
    0x080001e6   0x080001e6   0x00000000   Code   RO         4424    .ARM.Collect$$libinit$$0000000A  c_w.l(libinit2.o)
    0x080001e6   0x080001e6   0x00000000   Code   RO         4426    .ARM.Collect$$libinit$$0000000C  c_w.l(libinit2.o)
    0x080001e6   0x080001e6   0x00000000   Code   RO         4428    .ARM.Collect$$libinit$$0000000E  c_w.l(libinit2.o)
    0x080001e6   0x080001e6   0x00000000   Code   RO         4431    .ARM.Collect$$libinit$$00000011  c_w.l(libinit2.o)
    0x080001e6   0x080001e6   0x00000000   Code   RO         4433    .ARM.Collect$$libinit$$00000013  c_w.l(libinit2.o)
    0x080001e6   0x080001e6   0x00000000   Code   RO         4435    .ARM.Collect$$libinit$$00000015  c_w.l(libinit2.o)
    0x080001e6   0x080001e6   0x00000000   Code   RO         4437    .ARM.Collect$$libinit$$00000017  c_w.l(libinit2.o)
    0x080001e6   0x080001e6   0x00000000   Code   RO         4439    .ARM.Collect$$libinit$$00000019  c_w.l(libinit2.o)
    0x080001e6   0x080001e6   0x00000000   Code   RO         4441    .ARM.Collect$$libinit$$0000001B  c_w.l(libinit2.o)
    0x080001e6   0x080001e6   0x00000000   Code   RO         4443    .ARM.Collect$$libinit$$0000001D  c_w.l(libinit2.o)
    0x080001e6   0x080001e6   0x00000000   Code   RO         4445    .ARM.Collect$$libinit$$0000001F  c_w.l(libinit2.o)
    0x080001e6   0x080001e6   0x00000000   Code   RO         4447    .ARM.Collect$$libinit$$00000021  c_w.l(libinit2.o)
    0x080001e6   0x080001e6   0x00000000   Code   RO         4449    .ARM.Collect$$libinit$$00000023  c_w.l(libinit2.o)
    0x080001e6   0x080001e6   0x00000000   Code   RO         4451    .ARM.Collect$$libinit$$00000025  c_w.l(libinit2.o)
    0x080001e6   0x080001e6   0x00000000   Code   RO         4455    .ARM.Collect$$libinit$$0000002C  c_w.l(libinit2.o)
    0x080001e6   0x080001e6   0x00000000   Code   RO         4457    .ARM.Collect$$libinit$$0000002E  c_w.l(libinit2.o)
    0x080001e6   0x080001e6   0x00000000   Code   RO         4459    .ARM.Collect$$libinit$$00000030  c_w.l(libinit2.o)
    0x080001e6   0x080001e6   0x00000000   Code   RO         4461    .ARM.Collect$$libinit$$00000032  c_w.l(libinit2.o)
    0x080001e6   0x080001e6   0x00000002   Code   RO         4462    .ARM.Collect$$libinit$$00000033  c_w.l(libinit2.o)
    0x080001e8   0x080001e8   0x00000002   Code   RO         4480    .ARM.Collect$$libshutdown$$00000000  c_w.l(libshutdown.o)
    0x080001ea   0x080001ea   0x00000000   Code   RO         4490    .ARM.Collect$$libshutdown$$00000002  c_w.l(libshutdown2.o)
    0x080001ea   0x080001ea   0x00000000   Code   RO         4492    .ARM.Collect$$libshutdown$$00000004  c_w.l(libshutdown2.o)
    0x080001ea   0x080001ea   0x00000000   Code   RO         4495    .ARM.Collect$$libshutdown$$00000007  c_w.l(libshutdown2.o)
    0x080001ea   0x080001ea   0x00000000   Code   RO         4498    .ARM.Collect$$libshutdown$$0000000A  c_w.l(libshutdown2.o)
    0x080001ea   0x080001ea   0x00000000   Code   RO         4500    .ARM.Collect$$libshutdown$$0000000C  c_w.l(libshutdown2.o)
    0x080001ea   0x080001ea   0x00000000   Code   RO         4503    .ARM.Collect$$libshutdown$$0000000F  c_w.l(libshutdown2.o)
    0x080001ea   0x080001ea   0x00000002   Code   RO         4504    .ARM.Collect$$libshutdown$$00000010  c_w.l(libshutdown2.o)
    0x080001ec   0x080001ec   0x00000000   Code   RO         4387    .ARM.Collect$$rtentry$$00000000  c_w.l(__rtentry.o)
    0x080001ec   0x080001ec   0x00000000   Code   RO         4389    .ARM.Collect$$rtentry$$00000002  c_w.l(__rtentry2.o)
    0x080001ec   0x080001ec   0x00000006   Code   RO         4401    .ARM.Collect$$rtentry$$00000004  c_w.l(__rtentry4.o)
    0x080001f2   0x080001f2   0x00000000   Code   RO         4391    .ARM.Collect$$rtentry$$00000009  c_w.l(__rtentry2.o)
    0x080001f2   0x080001f2   0x00000004   Code   RO         4392    .ARM.Collect$$rtentry$$0000000A  c_w.l(__rtentry2.o)
    0x080001f6   0x080001f6   0x00000000   Code   RO         4394    .ARM.Collect$$rtentry$$0000000C  c_w.l(__rtentry2.o)
    0x080001f6   0x080001f6   0x00000008   Code   RO         4395    .ARM.Collect$$rtentry$$0000000D  c_w.l(__rtentry2.o)
    0x080001fe   0x080001fe   0x00000002   Code   RO         4416    .ARM.Collect$$rtexit$$00000000  c_w.l(rtexit.o)
    0x08000200   0x08000200   0x00000000   Code   RO         4464    .ARM.Collect$$rtexit$$00000002  c_w.l(rtexit2.o)
    0x08000200   0x08000200   0x00000004   Code   RO         4465    .ARM.Collect$$rtexit$$00000003  c_w.l(rtexit2.o)
    0x08000204   0x08000204   0x00000006   Code   RO         4466    .ARM.Collect$$rtexit$$00000004  c_w.l(rtexit2.o)
    0x0800020a   0x0800020a   0x00000002   PAD
    0x0800020c   0x0800020c   0x00000040   Code   RO          492  * .text               startup_stm32f10x_hd.o
    0x0800024c   0x0800024c   0x00000002   Code   RO         4379    .text               c_w.l(use_no_semi_2.o)
    0x0800024e   0x0800024e   0x00000006   Code   RO         4381    .text               c_w.l(heapauxi.o)
    0x08000254   0x08000254   0x00000002   Code   RO         4385    .text               c_w.l(use_no_semi.o)
    0x08000256   0x08000256   0x0000004a   Code   RO         4403    .text               c_w.l(sys_stackheap_outer.o)
    0x080002a0   0x080002a0   0x00000012   Code   RO         4405    .text               c_w.l(exit.o)
    0x080002b2   0x080002b2   0x00000002   PAD
    0x080002b4   0x080002b4   0x00000008   Code   RO         4413    .text               c_w.l(libspace.o)
    0x080002bc   0x080002bc   0x00000002   Code   RO          117    i.BusFault_Handler  stm32_it.o
    0x080002be   0x080002be   0x0000000a   Code   RO         3641    i.ByteSwap          usb_regs.o
    0x080002c8   0x080002c8   0x0000015c   Code   RO         3594    i.CTR_LP            usb_int.o
    0x08000424   0x08000424   0x00000028   Code   RO         3642    i.ClearDTOG_RX      usb_regs.o
    0x0800044c   0x0800044c   0x00000028   Code   RO         3643    i.ClearDTOG_TX      usb_regs.o
    0x08000474   0x08000474   0x00000020   Code   RO         3648    i.Clear_Status_Out  usb_regs.o
    0x08000494   0x08000494   0x000000b4   Code   RO         3445    i.DataStageIn       usb_core.o
    0x08000548   0x08000548   0x000000a4   Code   RO         3446    i.DataStageOut      usb_core.o
    0x080005ec   0x080005ec   0x0000019c   Code   RO         3447    i.Data_Setup0       usb_core.o
    0x08000788   0x08000788   0x00000002   Code   RO          118    i.DebugMon_Handler  stm32_it.o
    0x0800078a   0x0800078a   0x00000002   Code   RO         4110    i.EP1_IN_Callback   usb_endp.o
    0x0800078c   0x0800078c   0x0000001e   Code   RO         4111    i.EP1_OUT_Callback  usb_endp.o
    0x080007aa   0x080007aa   0x00000002   PAD
    0x080007ac   0x080007ac   0x0000000c   Code   RO         1294    i.EXTI_ClearITPendingBit  stm32f10x_exti.o
    0x080007b8   0x080007b8   0x00000070   Code   RO         1299    i.EXTI_Init         stm32f10x_exti.o
    0x08000828   0x08000828   0x000000a2   Code   RO         1645    i.GPIO_Init         stm32f10x_gpio.o
    0x080008ca   0x080008ca   0x00000004   Code   RO         1653    i.GPIO_SetBits      stm32f10x_gpio.o
    0x080008ce   0x080008ce   0x00000002   PAD
    0x080008d0   0x080008d0   0x00000020   Code   RO         3660    i.GetEPRxAddr       usb_regs.o
    0x080008f0   0x080008f0   0x00000020   Code   RO         3661    i.GetEPRxCount      usb_regs.o
    0x08000910   0x08000910   0x0000001c   Code   RO         3663    i.GetEPTxAddr       usb_regs.o
    0x0800092c   0x0800092c   0x00000034   Code   RO         4026    i.Get_SerialNum     hw_config.o
    0x08000960   0x08000960   0x00000002   Code   RO          119    i.HardFault_Handler  stm32_it.o
    0x08000962   0x08000962   0x00000002   PAD
    0x08000964   0x08000964   0x0000005c   Code   RO         3448    i.In0_Process       usb_core.o
    0x080009c0   0x080009c0   0x00000038   Code   RO         4027    i.IntToUnicode      hw_config.o
    0x080009f8   0x080009f8   0x0000005c   Code   RO         4151    i.Joystick_Data_Setup  usb_prop.o
    0x08000a54   0x08000a54   0x0000000c   Code   RO         4152    i.Joystick_GetConfigDescriptor  usb_prop.o
    0x08000a60   0x08000a60   0x0000000c   Code   RO         4153    i.Joystick_GetDeviceDescriptor  usb_prop.o
    0x08000a6c   0x08000a6c   0x0000000c   Code   RO         4154    i.Joystick_GetHIDDescriptor  usb_prop.o
    0x08000a78   0x08000a78   0x0000001c   Code   RO         4155    i.Joystick_GetProtocolValue  usb_prop.o
    0x08000a94   0x08000a94   0x0000000c   Code   RO         4156    i.Joystick_GetReportDescriptor  usb_prop.o
    0x08000aa0   0x08000aa0   0x00000020   Code   RO         4157    i.Joystick_GetStringDescriptor  usb_prop.o
    0x08000ac0   0x08000ac0   0x0000000a   Code   RO         4158    i.Joystick_Get_Interface_Setting  usb_prop.o
    0x08000aca   0x08000aca   0x00000002   PAD
    0x08000acc   0x08000acc   0x00000020   Code   RO         4159    i.Joystick_NoData_Setup  usb_prop.o
    0x08000aec   0x08000aec   0x000000b8   Code   RO         4160    i.Joystick_Reset    usb_prop.o
    0x08000ba4   0x08000ba4   0x0000003e   Code   RO         4028    i.Joystick_Send     hw_config.o
    0x08000be2   0x08000be2   0x00000002   PAD
    0x08000be4   0x08000be4   0x00000018   Code   RO         4161    i.Joystick_SetConfiguration  usb_prop.o
    0x08000bfc   0x08000bfc   0x0000000c   Code   RO         4162    i.Joystick_SetDeviceAddress  usb_prop.o
    0x08000c08   0x08000c08   0x00000018   Code   RO         4163    i.Joystick_SetProtocol  usb_prop.o
    0x08000c20   0x08000c20   0x00000002   Code   RO         4164    i.Joystick_Status_In  usb_prop.o
    0x08000c22   0x08000c22   0x00000002   Code   RO         4165    i.Joystick_Status_Out  usb_prop.o
    0x08000c24   0x08000c24   0x00000024   Code   RO         4166    i.Joystick_init     usb_prop.o
    0x08000c48   0x08000c48   0x0000001c   Code   RO         4029    i.Leave_LowPowerMode  hw_config.o
    0x08000c64   0x08000c64   0x00000002   Code   RO          120    i.MemManage_Handler  stm32_it.o
    0x08000c66   0x08000c66   0x00000002   Code   RO          121    i.NMI_Handler       stm32_it.o
    0x08000c68   0x08000c68   0x00000002   Code   RO         3449    i.NOP_Process       usb_core.o
    0x08000c6a   0x08000c6a   0x00000002   PAD
    0x08000c6c   0x08000c6c   0x00000064   Code   RO          496    i.NVIC_Init         misc.o
    0x08000cd0   0x08000cd0   0x00000014   Code   RO          497    i.NVIC_PriorityGroupConfig  misc.o
    0x08000ce4   0x08000ce4   0x000000d4   Code   RO         3450    i.NoData_Setup0     usb_core.o
    0x08000db8   0x08000db8   0x00000048   Code   RO         3451    i.Out0_Process      usb_core.o
    0x08000e00   0x08000e00   0x00000020   Code   RO         3623    i.PMAToUserBufferCopy  usb_mem.o
    0x08000e20   0x08000e20   0x00000002   Code   RO          122    i.PendSV_Handler    stm32_it.o
    0x08000e22   0x08000e22   0x00000002   PAD
    0x08000e24   0x08000e24   0x00000044   Code   RO         3452    i.Post0_Process     usb_core.o
    0x08000e68   0x08000e68   0x00000024   Code   RO         4267    i.PowerOn           usb_pwr.o
    0x08000e8c   0x08000e8c   0x00000018   Code   RO         2061    i.RCC_APB1PeriphClockCmd  stm32f10x_rcc.o
    0x08000ea4   0x08000ea4   0x00000018   Code   RO         2063    i.RCC_APB2PeriphClockCmd  stm32f10x_rcc.o
    0x08000ebc   0x08000ebc   0x0000000c   Code   RO         2089    i.RCC_USBCLKConfig  stm32f10x_rcc.o
    0x08000ec8   0x08000ec8   0x00000094   Code   RO         4268    i.Resume            usb_pwr.o
    0x08000f5c   0x08000f5c   0x00000020   Code   RO         4269    i.Resume_Init       usb_pwr.o
    0x08000f7c   0x08000f7c   0x00000002   Code   RO          123    i.SVC_Handler       stm32_it.o
    0x08000f7e   0x08000f7e   0x00000002   PAD
    0x08000f80   0x08000f80   0x00000010   Code   RO         3671    i.SetBTABLE         usb_regs.o
    0x08000f90   0x08000f90   0x00000048   Code   RO         3453    i.SetDeviceAddress  usb_core.o
    0x08000fd8   0x08000fd8   0x00000020   Code   RO         3685    i.SetEPRxAddr       usb_regs.o
    0x08000ff8   0x08000ff8   0x00000040   Code   RO         3686    i.SetEPRxCount      usb_regs.o
    0x08001038   0x08001038   0x00000030   Code   RO         3687    i.SetEPRxStatus     usb_regs.o
    0x08001068   0x08001068   0x00000024   Code   RO         3688    i.SetEPRxValid      usb_regs.o
    0x0800108c   0x0800108c   0x00000020   Code   RO         3689    i.SetEPTxAddr       usb_regs.o
    0x080010ac   0x080010ac   0x0000001c   Code   RO         3690    i.SetEPTxCount      usb_regs.o
    0x080010c8   0x080010c8   0x00000030   Code   RO         3691    i.SetEPTxStatus     usb_regs.o
    0x080010f8   0x080010f8   0x00000024   Code   RO         3692    i.SetEPTxValid      usb_regs.o
    0x0800111c   0x0800111c   0x0000001c   Code   RO         3693    i.SetEPType         usb_regs.o
    0x08001138   0x08001138   0x000000a8   Code   RO          325    i.SetSysClockTo72   system_stm32f10x.o
    0x080011e0   0x080011e0   0x00000028   Code   RO         4030    i.Set_System        hw_config.o
    0x08001208   0x08001208   0x00000014   Code   RO         4031    i.Set_USBClock      hw_config.o
    0x0800121c   0x0800121c   0x00000068   Code   RO         3454    i.Setup0_Process    usb_core.o
    0x08001284   0x08001284   0x000000fc   Code   RO         3455    i.Standard_ClearFeature  usb_core.o
    0x08001380   0x08001380   0x00000028   Code   RO         3456    i.Standard_GetConfiguration  usb_core.o
    0x080013a8   0x080013a8   0x0000001c   Code   RO         3457    i.Standard_GetDescriptorData  usb_core.o
    0x080013c4   0x080013c4   0x00000028   Code   RO         3458    i.Standard_GetInterface  usb_core.o
    0x080013ec   0x080013ec   0x00000094   Code   RO         3459    i.Standard_GetStatus  usb_core.o
    0x08001480   0x08001480   0x00000038   Code   RO         3460    i.Standard_SetConfiguration  usb_core.o
    0x080014b8   0x080014b8   0x00000024   Code   RO         3461    i.Standard_SetDeviceFeature  usb_core.o
    0x080014dc   0x080014dc   0x00000088   Code   RO         3462    i.Standard_SetEndPointFeature  usb_core.o
    0x08001564   0x08001564   0x00000048   Code   RO         3463    i.Standard_SetInterface  usb_core.o
    0x080015ac   0x080015ac   0x000000c4   Code   RO         4270    i.Suspend           usb_pwr.o
    0x08001670   0x08001670   0x00000018   Code   RO          500    i.SysTick_CLKSourceConfig  misc.o
    0x08001688   0x08001688   0x00000002   Code   RO          124    i.SysTick_Handler   stm32_it.o
    0x0800168a   0x0800168a   0x00000002   PAD
    0x0800168c   0x0800168c   0x00000050   Code   RO          327    i.SystemInit        system_stm32f10x.o
    0x080016dc   0x080016dc   0x00000064   Code   RO          437    i.USART1_IRQHandler  usart.o
    0x08001740   0x08001740   0x0000003e   Code   RO         3219    i.USART_GetITStatus  stm32f10x_usart.o
    0x0800177e   0x0800177e   0x00000008   Code   RO         3229    i.USART_ReceiveData  stm32f10x_usart.o
    0x08001786   0x08001786   0x00000008   Code   RO          125    i.USBWakeUp_IRQHandler  stm32_it.o
    0x0800178e   0x0800178e   0x00000002   PAD
    0x08001790   0x08001790   0x00000028   Code   RO         3567    i.USB_Init          usb_init.o
    0x080017b8   0x080017b8   0x00000032   Code   RO         4032    i.USB_Interrupts_Config  hw_config.o
    0x080017ea   0x080017ea   0x00000002   PAD
    0x080017ec   0x080017ec   0x00000148   Code   RO         4128    i.USB_Istr          usb_istr.o
    0x08001934   0x08001934   0x00000004   Code   RO          126    i.USB_LP_CAN1_RX0_IRQHandler  stm32_it.o
    0x08001938   0x08001938   0x0000004c   Code   RO         4033    i.USB_Port_Set      hw_config.o
    0x08001984   0x08001984   0x00000020   Code   RO         4001    i.USB_SIL_Init      usb_sil.o
    0x080019a4   0x080019a4   0x00000026   Code   RO         4003    i.USB_SIL_Write     usb_sil.o
    0x080019ca   0x080019ca   0x00000002   Code   RO          127    i.UsageFault_Handler  stm32_it.o
    0x080019cc   0x080019cc   0x0000002c   Code   RO         3624    i.UserToPMABufferCopy  usb_mem.o
    0x080019f8   0x080019f8   0x00000002   Code   RO          438    i._sys_exit         usart.o
    0x080019fa   0x080019fa   0x00000002   PAD
    0x080019fc   0x080019fc   0x0000003c   Code   RO          376    i.delay_init        delay.o
    0x08001a38   0x08001a38   0x00000034   Code   RO          377    i.delay_ms          delay.o
    0x08001a6c   0x08001a6c   0x00000024   Code   RO         4356    i.key_init          key.o
    0x08001a90   0x08001a90   0x0000002c   Code   RO         4335    i.led_cmd           led.o
    0x08001abc   0x08001abc   0x00000038   Code   RO         4336    i.led_init          led.o
    0x08001af4   0x08001af4   0x000000ec   Code   RO            1    i.main              main.o
    0x08001be0   0x08001be0   0x0000001a   Code   RO         4312    i.usb_Send          usb.o
    0x08001bfa   0x08001bfa   0x00000032   Code   RO         4313    i.usb_init          usb.o
    0x08001c2c   0x08001c2c   0x00000012   Data   RO         4092    .constdata          usb_desc.o
    0x08001c3e   0x08001c3e   0x00000029   Data   RO         4093    .constdata          usb_desc.o
    0x08001c67   0x08001c67   0x0000003f   Data   RO         4094    .constdata          usb_desc.o
    0x08001ca6   0x08001ca6   0x00000004   Data   RO         4095    .constdata          usb_desc.o
    0x08001caa   0x08001caa   0x00000026   Data   RO         4096    .constdata          usb_desc.o
    0x08001cd0   0x08001cd0   0x0000001e   Data   RO         4097    .constdata          usb_desc.o
    0x08001cee   0x08001cee   0x00000002   PAD
    0x08001cf0   0x08001cf0   0x00000020   Data   RO         4536    Region$$Table       anon$$obj.o


    Execution Region ER_RW (Exec base: 0x20000000, Load base: 0x08001d10, Size: 0x00000150, Max: 0xffffffff, ABSOLUTE, COMPRESSED[0x00000088])

    Exec Addr    Load Addr    Size         Type   Attr      Idx    E Section Name        Object

    0x20000000   COMPRESSED   0x00000008   Data   RW            3    .data               main.o
    0x20000008   COMPRESSED   0x00000014   Data   RW          328    .data               system_stm32f10x.o
    0x2000001c   COMPRESSED   0x00000004   Data   RW          379    .data               delay.o
    0x20000020   COMPRESSED   0x00000002   Data   RW          442    .data               usart.o
    0x20000022   COMPRESSED   0x00000004   Data   RW         3464    .data               usb_core.o
    0x20000026   COMPRESSED   0x00000001   Data   RW         3569    .data               usb_init.o
    0x20000027   COMPRESSED   0x00000001   PAD
    0x20000028   COMPRESSED   0x0000000c   Data   RW         3570    .data               usb_init.o
    0x20000034   COMPRESSED   0x00000002   Data   RW         3572    .data               usb_init.o
    0x20000036   COMPRESSED   0x00000004   Data   RW         3595    .data               usb_int.o
    0x2000003a   COMPRESSED   0x00000002   PAD
    0x2000003c   COMPRESSED   0x00000008   Data   RW         4035    .data               hw_config.o
    0x20000044   COMPRESSED   0x0000001a   Data   RW         4098    .data               usb_desc.o
    0x2000005e   COMPRESSED   0x00000002   PAD
    0x20000060   COMPRESSED   0x0000000c   Data   RW         4129    .data               usb_istr.o
    0x2000006c   COMPRESSED   0x0000001c   Data   RW         4130    .data               usb_istr.o
    0x20000088   COMPRESSED   0x0000001c   Data   RW         4131    .data               usb_istr.o
    0x200000a4   COMPRESSED   0x00000002   Data   RW         4167    .data               usb_prop.o
    0x200000a6   COMPRESSED   0x00000002   PAD
    0x200000a8   COMPRESSED   0x00000074   Data   RW         4168    .data               usb_prop.o
    0x2000011c   COMPRESSED   0x00000024   Data   RW         4169    .data               usb_prop.o
    0x20000140   COMPRESSED   0x00000004   Data   RW         4272    .data               usb_pwr.o
    0x20000144   COMPRESSED   0x00000001   Data   RW         4273    .data               usb_pwr.o
    0x20000145   COMPRESSED   0x00000003   PAD
    0x20000148   COMPRESSED   0x00000008   Data   RW         4274    .data               usb_pwr.o


    Execution Region ER_ZI (Exec base: 0x20000150, Load base: 0x08001d98, Size: 0x00000768, Max: 0xffffffff, ABSOLUTE)

    Exec Addr    Load Addr    Size         Type   Attr      Idx    E Section Name        Object

    0x20000150        -       0x000000c8   Zero   RW          441    .bss                usart.o
    0x20000218        -       0x0000001c   Zero   RW         3568    .bss                usb_init.o
    0x20000234        -       0x00000020   Zero   RW         4271    .bss                usb_pwr.o
    0x20000254        -       0x00000060   Zero   RW         4414    .bss                c_w.l(libspace.o)
    0x200002b4   0x08001d98   0x00000004   PAD
    0x200002b8        -       0x00000200   Zero   RW          490    HEAP                startup_stm32f10x_hd.o
    0x200004b8        -       0x00000400   Zero   RW          489    STACK               startup_stm32f10x_hd.o


==============================================================================

Image component sizes


      Code (inc. data)   RO Data    RW Data    ZI Data      Debug   Object Name

       112         20          0          4          0       1084   delay.o
       384         34          0          8          0       4814   hw_config.o
        36          4          0          0          0        435   key.o
       100          8          0          0          0        945   led.o
       236          8          0          8          0     206689   main.o
       144         16          0          0          0       1889   misc.o
        64         26        304          0       1536        764   startup_stm32f10x_hd.o
        30          0          0          0          0     231438   stm32_it.o
       124         10          0          0          0       1405   stm32f10x_exti.o
       166          0          0          0          0       2287   stm32f10x_gpio.o
        60         16          0          0          0       1573   stm32f10x_rcc.o
        70          0          0          0          0       2644   stm32f10x_usart.o
         0          0          0          0          0         32   sys.o
       248         24          0         20          0       1569   system_stm32f10x.o
       102         12          0          2        200       2756   usart.o
        76          0          0          0          0        902   usb.o
      2186        284          0          4          0      14219   usb_core.o
         0          0        194         26          0        989   usb_desc.o
        32          0          0          0          0        913   usb_endp.o
        40         18          0         15         28       3970   usb_init.o
       348         30          0          4          0       1604   usb_int.o
       328         26          0         68          0       1507   usb_istr.o
        76         12          0          0          0       1712   usb_mem.o
       526        114          0        154          0      11564   usb_prop.o
       412         48          0         13         32       3460   usb_pwr.o
       582        100          0          0          0       9121   usb_regs.o
        70          8          0          0          0       1415   usb_sil.o

    ----------------------------------------------------------------------
      6576        818        532        336       1796     511700   Object Totals
         0          0         32          0          0          0   (incl. Generated)
        24          0          2         10          0          0   (incl. Padding)

    ----------------------------------------------------------------------

      Code (inc. data)   RO Data    RW Data    ZI Data      Debug   Library Member Name

        90          0          0          0          0          0   __dczerorl2.o
         8          0          0          0          0         68   __main.o
         0          0          0          0          0          0   __rtentry.o
        12          0          0          0          0          0   __rtentry2.o
         6          0          0          0          0          0   __rtentry4.o
        52          8          0          0          0          0   __scatter.o
        28          0          0          0          0          0   __scatter_zi.o
        18          0          0          0          0         80   exit.o
         6          0          0          0          0        152   heapauxi.o
         2          0          0          0          0          0   libinit.o
         2          0          0          0          0          0   libinit2.o
         2          0          0          0          0          0   libshutdown.o
         2          0          0          0          0          0   libshutdown2.o
         8          4          0          0         96         68   libspace.o
         2          0          0          0          0          0   rtexit.o
        10          0          0          0          0          0   rtexit2.o
        74          0          0          0          0         80   sys_stackheap_outer.o
         2          0          0          0          0         68   use_no_semi.o
         2          0          0          0          0         68   use_no_semi_2.o

    ----------------------------------------------------------------------
       332         12          0          0        100        584   Library Totals
         6          0          0          0          4          0   (incl. Padding)

    ----------------------------------------------------------------------

      Code (inc. data)   RO Data    RW Data    ZI Data      Debug   Library Name

       326         12          0          0         96        584   c_w.l

    ----------------------------------------------------------------------
       332         12          0          0        100        584   Library Totals

    ----------------------------------------------------------------------

==============================================================================


      Code (inc. data)   RO Data    RW Data    ZI Data      Debug   

      6908        830        532        336       1896     506820   Grand Totals
      6908        830        532        136       1896     506820   ELF Image Totals (compressed)
      6908        830        532        136          0          0   ROM Totals

==============================================================================

    Total RO  Size (Code + RO Data)                 7440 (   7.27kB)
    Total RW  Size (RW Data + ZI Data)              2232 (   2.18kB)
    Total ROM Size (Code + RO Data + RW Data)       7576 (   7.40kB)

==============================================================================

