:020000040000FA
:10000000B8490020B9030000C1030000C303000089
:10001000C5030000C7030000C90300000000000082
:10002000000000000000000000000000CB03000002
:10003000CD03000000000000CF030000D10300004A
:10004000D3030000D3030000C1190000D303000054
:10005000D3030000D3030000D3030000D303000048
:10006000D3030000D3030000D3030000D303000038
:10007000D3030000D3030000D3030000D303000028
:10008000D3030000D3030000D3030000D303000018
:10009000D3030000D3030000D3030000D303000008
:1000A000D3030000D3030000D3030000D3030000F8
:1000B000D3030000D3030000000000000000000094
:1000C000D3030000D3030000D3030000D3030000D8
:1000D000D3030000D3030000CD170000D3030000BA
:1000E000D3030000D3030000D3030000000000008E
:1000F00000000000D303000000000000D303000054
:1001000000000000000000000000000000000000EF
:1001100000000000000000000000000000000000DF
:1001200000000000000000000000000000000000CF
:1001300000000000000000000000000000000000BF
:1001400000000000000000000000000000000000AF
:10015000000000000000000000000000000000009F
:10016000000000000000000000000000000000008F
:10017000000000000000000000000000000000007F
:10018000000000000000000000000000000000006F
:10019000000000000000000000000000000000005F
:1001A000000000000000000000000000000000004F
:1001B000000000000000000000000000000000003F
:1001C000000000000000000000000000000000002F
:1001D000000000000000000000000000000000001F
:1001E000000000000000000000000000000000000F
:1001F00000000000000000000000000000000000FF
:100200004B1C012B98BF70472DE9F003911C9B08F4
:10021000B1F80480B1F802900A8831F802CC804429
:10022000814402448444D9F80070D8F8006015680D
:10023000DCF80040C9F80060C8F80070CCF8005045
:100240001460D9F80470D8F804605568DCF80440EC
:10025000C9F80460C8F80470CCF804505460083140
:100260005B1ED5D1BDE8F00370474B1C012B98BF36
:1002700070472DE9F003911C9B08B1F80480B1F898
:1002800002900A8831F802CC00EB580800EB5909BB
:1002900000EB520200EB5C0CD9F80070D8F800605B
:1002A0001568DCF80040C9F80060C8F80070CCF8A8
:1002B0000050146008315B1EDFD1BDE8F0037047C9
:1002C000DFF80CD001F01CF800480047B529000009
:1002D000B849002030B4044654E8000F0D4644E805
:1002E0000053002BF8D1156030BC704730B4044681
:1002F00054E8000F40EA010544E80053002BF7D111
:10030000156030BC704730B4044654E8000F00EA72
:10031000010544E80053002BF7D1156030BC70474D
:1003200030B4044654E8000F80EA010544E8005365
:10033000002BF7D1156030BC704730B4044654E848
:10034000000F00EB010544E80053002BF7D11560C6
:1003500030BC704730B4044654E8000FA0EB0105F0
:1003600044E80053002BF7D1156030BC704770B4DF
:1003700004464FF0000054E8006F0D68AE4207BF1E
:1003800044E80023012044E800630E60002B1CBFFA
:100390000020F0E770BC704730B4044654E8000F0A
:1003A00088422CBF451A054644E80053002BF5D17E
:1003B000156030BC7047000006488047064800477B
:1003C000FEE7FEE7FEE7FEE7FEE7FEE7FEE7FEE705
:1003D000FEE7FEE7E5170000C10200009FED3D0AC1
:1003E0005FEA920C57D000BFD0ED000A90ED011AE1
:1003F0000B1D60EEA00A083041EE010AF5EEC00ABE
:10040000F1EE10FAA6BFB1EEE01A81ED001A81ED0F
:10041000000AD0ED000A90ED011A191D60EEA00A45
:10042000083041EE010AF5EEC00AF1EE10FAA6BF5F
:10043000B1EEE01A83ED001A83ED000AD0ED000A58
:1004400090ED011A0B1D60EEA00A083041EE010A82
:10045000F5EEC00AF1EE10FAA6BFB1EEE01A81ED9A
:10046000001A81ED000A90ED001AD0ED010A191D65
:1004700021EE011A083000EEA01AB5EEC01AF1EE16
:1004800010FAA6BFF1EEC10AC3ED000A83ED000A1F
:10049000BCF1010CA8D112F0030208BF704700BFE5
:1004A000D0ED000A90ED011A0B4660EEA00A091D7E
:1004B000083041EE010AF5EEC00AF1EE10FAA6BFCF
:1004C000B1EEE01A83ED001A83ED000A521EE7D167
:1004D00070470000000000002DE9F04106462DEDB8
:1004E000028B8C460088736801EB80044508274620
:1004F00001EB850004EB85025FEA95087DD000BF23
:10050000D1ED003AD4ED001A91ED012A94ED013AB3
:1005100073EEA16A91ED024A91ED031AD4ED022A1D
:10052000D4ED035A90ED008A90ED017A90ED020A25
:1005300090ED036A92ED005AD2ED014AD2ED027AB3
:10054000D2ED030AC1ED006A72EE036A73EEE13A7E
:1005500074EEC71AC1ED016A74EE226A74EE622A63
:1005600037EEC04AC1ED026A71EE256AC1ED036A39
:1005700072EE436A31EE652A38EE051A35EE483AD6
:1005800080ED001A37EE241A80ED011A30EE271A9A
:1005900080ED021A36EE201A80ED031A30EEC61AEC
:1005A00093ED000AD3ED010A63EE804A26EEA05ACD
:1005B00066EE805A63EEA03A74EE854A75EEE33A31
:1005C000C4ED004A63EE204AC4ED013A61EE803A80
:1005D00061EEA00A23EE000A74EEE31A30EE800A00
:1005E000C2ED001A82ED010A93ED020AD3ED030A6F
:1005F00062EE803A22EE203A00E024E062EEA01A99
:1006000022EE002A73EE832A1030103172EE611A46
:10061000C4ED022A24EE202AC4ED031A61EE001A6A
:1006200061EE200A24EE000A103332EE611A103413
:1006300030EE800A82ED021A82ED030A1032B8F120
:1006400001087FF45DAF294602236046726800F01E
:1006500041FB72682946BDEC028B3846BDE8F0418B
:10066000022300F037BB2DE9F34F2DED048B87B04B
:100670000B980088470801EB870000EB870606EB24
:100680008705CDE90056DDF82C80A5F1040C0CEBB4
:100690008703CDE902014FEA5709D8F804800427FF
:1006A000CDE90497D1ED000A96ED000A90ED011A0C
:1006B00095ED013A70EE802A70EEC03AD1ED010A54
:1006C00096ED010A041F321F30EE802A70EEC01A28
:1006D00031EE230AD0ED000A32EE415A33EEC11A50
:1006E00030EE434A71EEE04A95ED000A70EEA11A31
:1006F00035EE435A74EE805A72EEE04A70EEA20A6A
:1007000071EEC01A31EE031A74EEC04A30EE800A60
:10071000062708F1080A81ED000A90ED010AD5EDDF
:10072000010A08F1100B30EE020A08F1180830EE49
:10073000200A81ED010A80ED004AC0ED015AC6EDA4
:10074000004A86ED015A85ED001AC5ED011ADDF863
:1007500010900830083108350836A9F102095FEA1F
:10076000590900F0078100BFD1ED000A96ED000A9B
:10077000D0ED011AD5ED014A30EE802A30EEC05A94
:10078000D1ED010A96ED010A70EE802A30EEC01A12
:1007900031EE850AD5ED000A30EE644A90ED000A8C
:1007A00031EE403A30EE011A73EE205A32EE403A02
:1007B00030EE020A31EE601A73EE603A30EE200A33
:1007C00032EEE13A75EE611A81ED000A90ED010A10
:1007D000D5ED010A33EE643A30EE220A71EEA41A26
:1007E00030EE200A81ED010AD4ED002ADCED004A4A
:1007F00054ED010A1CED010A32EEA47A32EEE49ABD
:1008000072EEE42A52ED018A70EE807A30EEC02A50
:1008100072EEE82AD2ED000A93ED000A13ED018A88
:1008200030EEC05A72EE886A77EEE82A35EE026A38
:1008300032EEC85A77EE602A72EEC04A70EEC02AD5
:1008400070EE870A72EEC22A30EE800A38EE682A0D
:1008500084ED000A12ED010A53ED010A32EE492A35
:1008600030EE270A30EE200A04ED010A9AED000A64
:10087000DAED010A64EE007A25EEA07A65EE805A80
:1008800024EE204A37EE877A35EEC44A80ED007AAE
:1008900080ED014A26EEA04A66EE005A66EE200A76
:1008A00026EE800A083034EE654A083130EE800AC0
:1008B00082ED004A083C02ED010A9BED000ADBEDE7
:1008C000010ADDF814E023EE804A63EE205A23EE9D
:1008D000003A63EEA03A083A34EE254A0BEB8E0B51
:1008E00033EE633A86ED004A0AF1080A86ED013AD2
:1008F000B1EE643A083663EE003A25EE203A25EE72
:10090000000A64EEA00A33EEC33A30EEC00A8CED62
:10091000003A0CED010A98ED000AD8ED010A08EB47
:10092000870861EE803A21EE203A21EE001A61EE4E
:10093000A01AACF1080C33EE833A31EE611A85ED62
:10094000003A62EE801A85ED011A22EE201A62EE5C
:10095000A00A22EE000A083531EE611A30EE800A54
:1009600083ED001A03ED010A083BB9F101097FF498
:10097000FBAE00BFD1ED000A96ED000A91ED011A21
:10098000D0ED015A30EE802A70EEC00A96ED010AD1
:1009900095ED015A042371EE001A71EE404A35EECE
:1009A000A00A90ED001A31EEE54A70EEE50A30EE4D
:1009B000453A95ED000A34EE454A30EE855A74EE1C
:1009C000C12A72EE413A71EE240A31EE021A72EE39
:1009D000802A73EEC03A70EEC00A31EE000A81ED53
:1009E000000A90ED010A95ED011A30EE210A30EE71
:1009F000010A81ED010A9AED000A9AED011A63EEEF
:100A0000001A22EE812A22EE800A23EE011A71EEEC
:100A1000821A30EE410AC0ED001A80ED010A9BED0A
:100A2000000A9BED011A63EE801A24EE012A24EEDF
:100A3000000A23EE811A71EE821A30EE410AC6EDE9
:100A4000001A86ED010A98ED010A98ED001A60EE91
:100A5000801A25EE012A60EE810A25EE000A32EEA8
:100A6000211A30EEC00A85ED001A85ED010A0B98B7
:100A70004268DDE9030100F02DF90B980423049985
:100A80004268029800F026F90B9804230499426802
:100A9000019800F01FF90B9804990423426800980C
:100AA00007B0BDEC048B02B0BDE8F04F00F012B906
:100AB0002DE9F0410488984617460D460646012A5E
:100AC00020D1281DF4B1A0F1080114F0010F06D0C7
:100AD00091ED020AB1EE400A81ED020A08315FEAA7
:100AE000540C0FD091ED020AB1EE400A81ED020ADA
:100AF00091ED040AB1EE400A81ED040A1031BCF117
:100B0000010CEFD1B4F5807F1BD008DC102C13D082
:100B1000202C16D0402C19D0802C0DD01CE0B4F520
:100B2000007F13D0B4F5806F06D0B4F5006F08D005
:100B3000B4F5805F0AD00FE029463046FFF7CCFCC1
:100B40000AE029463046FFF78EFD05E021460123E5
:100B50002846726800F0BEF8B8F1000F04D0B189E1
:100B60002846B268FFF74CFB012F18BFBDE8F081A3
:100B700000EE104AB7EE001A002CF8EE400A81EEA3
:100B8000200A08BFBDE8F081A5F1080014F0010FAC
:100B90000ED0D0ED020A60EE800AC0ED020AD0ED60
:100BA000030AF1EE600A60EE800AC0ED030A083025
:100BB000610808BFBDE8F081D0ED020A60EE800A4E
:100BC000C0ED020AD0ED030AF1EE600A60EE800A81
:100BD000C0ED030AD0ED040A60EE800AC0ED040AFD
:100BE000D0ED050AF1EE600A60EE800AC0ED050A5C
:100BF0001030491EE0D1BDE8F081000070B44FF024
:100C0000000CB0EC010A4E1E6446B50831D000BF9E
:100C1000D0ED000A90ED011A0830B4EEE00AF1EED2
:100C200010FA3CBFB0EE600A0CF10104F0EC010ACE
:100C3000B4EEC10AF1EE10FA3CBFB0EE410A0CF17D
:100C40000204B0EC011AB4EEE00AF1EE10FA3CBF77
:100C5000B0EE600A0CF10304B4EEC10AF1EE10FA32
:100C60003CBFB0EE410A0CF104046D1E0CF1040C03
:100C7000CED106F0030C5FEA0C0617D0B6F1004F98
:100C800019D2002EC8BF002510DD00BFD0ED000A2C
:100C9000F4EEC00AF1EE10FA04DD4C19B0EE600A71
:100CA000A4EB0C04001D6D1C761EEFD182ED000A32
:100CB0001C6070BC7047F0EC010AB4EEE00AF1EE83
:100CC00010FA3CBFB0EE600AA1EB0C04BCF1010CC1
:100CD000F1D1EBE72DE9FF4F2DED108B82B09FEDA9
:100CE000FEFA0B461C46DB084FF0000C0CEB03052C
:100CF00005EB030808EB030909EB030606EB030AFF
:100D000000EBCC0700EBC60697ED001AD6ED000A03
:100D10000AEB030B00EBC50500EBCA0A31EE200A13
:100D200071EE601A95ED002ADAED000A0BEB030E66
:100D300000EBC80832EE201A00EBCB0B32EE602A33
:100D4000D8ED002ADBED000A00EBC90900EBCE0E5E
:100D500099ED003A9EED004A72EEA03A72EEE02A5A
:100D600073EE040A33EE443A70EE636A70EE233A8F
:100D700031EE600A71EE200A33EEA01A73EEE00A3B
:100D800087ED001AC6ED000A97ED011AD6ED010AAB
:100D9000D5ED013A98ED014A31EE206A71EE600A14
:100DA0009AED011A99ED015A73EE814A73EEC13A38
:100DB0009BED011A34EE017A34EE411A9EED014AA0
:100DC00075EE045A35EE444A36EE475A36EE076A57
:100DD00034EEE57A74EEA54A76EE245A76EE644A4D
:100DE000C7ED015AC6ED014A76EE874AC8ED004AC2
:100DF00076EEC74ACBED004A75EE404A35EE000A62
:100E0000C8ED014A8BED010A32EE430A32EE032AA5
:100E100020EE0F0A62EE0F4A33EEC42AA4448C453A
:100E200022EE0F3A33EE842A30EEC34A62EE0F3AD6
:100E300030EE833A31EEC02A31EE800A71EE630A59
:100E400031EE231A72EEE41A72EEA42A70EE013A21
:100E500030EE410AC5ED003A8EED000A32EE200A6E
:100E60008AED000A32EE600A89ED000A33EE620A6A
:100E700085ED010A33EE220A8EED010A34EE610A95
:100E80008AED010A34EE210A89ED010AFFF42EAF42
:100E9000082B3FBF02B0BDEC108B04B0BDE8F08F53
:100EA0004FF0000CCDF804C04FF0010CCDF800C09D
:100EB000DDF804C0159DAC444FEA8C0505EB0C072A
:100EC000CDF804C007EB0C094FEA4C0808EB0C0600
:100ED00009EB0C0A02EBCC0C02EBC80802EBC606CD
:100EE00002EBC50502EBC70702EBC90902EBCA0A10
:100EF0009CED00DA9CED018AD8ED00CA96ED00CA9F
:100F0000D5ED00BA97ED00BAD9ED00AADAED008A66
:100F1000D8ED017A96ED01AA95ED017AD7ED016A37
:100F200099ED016ADAED019ADDF800C00CEB0307D8
:100F3000FD1805EB030A0AEB030808EB030606EBB2
:100F4000030B00EBCC0900EBC808D9ED000A98EDC3
:100F5000000A00EBC70700EBC606D7ED001A96EDB6
:100F6000001A70EE803A0BEB030E70EEC00A31EE01
:100F7000810A00EBC50500EBCB0B31EEC11AD5EDB4
:100F8000001A9BED002A00EBCA0A00EBCE0E31EEF0
:100F9000824A71EEC21A9AED002ADEED002A32EE84
:100FA000223A32EE622A73EEC42A73EE843A30EEAD
:100FB000435A30EE030A33EE803A73EEC0DA89ED1D
:100FC000003A99ED010A98ED013AD7ED013A95ED15
:100FD000014A70EE03EA30EE433A96ED010A9AEDCB
:100FE00001EADEED014A33EE809A73EEC03A9BEDE2
:100FF000010A74EE005A34EE404A3EEE240A7EEEB8
:10100000644A3EEEE5EA7EEEA55A79EE40EA39EE14
:10101000009A32EEAE0A72EEEE2A75EE89EA35EEED
:10102000C99A7EEE455AC9ED01EA3EEE055A2BEE0D
:10103000ADEA67EE09EA2BEE899A67EE2DDA3EEE0D
:101040002EEA39EE6D9A88ED00EA67EEA5DA88EDB2
:10105000019A2CEE809A6CEEA55A27EE800A39EEA2
:101060002D9A35EEC00A85ED009A66EE055A85ED9B
:10107000010A2AEEA20A2AEE855A66EE222A30EEEC
:10108000250A8BED000A35EE620A73EEA42A8BED79
:10109000010A31EE420A31EE021A33EEE42A62EE20
:1010A0008F3A20EE0F0A21EE0F1A22EE0F2A70EE71
:1010B000C02A30EE800A71EEC10A71EE811A33EE59
:1010C000421A33EE022A34EE633A34EE234A70EECB
:1010D000043A30EE444A01E0F304353F72EE834AAD
:1010E00072EEC32A32EE613A32EE210A71EE601AD4
:1010F00071EE200A2DEE232A28EE031A2DEE033A74
:1011000068EE233AA44432EE011A28EE842A8C4574
:1011100087ED001A33EE631A29EE843A87ED011A3F
:1011200029EE801A28EE800A32EE011A30EE430AC8
:1011300026EEA42A8EED001A8EED010A2BEE240A6B
:1011400026EEA11A6BEE211A30EE010A2CEE221ABD
:1011500086ED000A31EEC20A6AEE221A86ED010A15
:101160002AEE200A6CEE200A31EE000A8AED000A0F
:1011700030EEE10A8AED010AFFF4D8AEDDF800C0D6
:101180000CF1010CCDF800C063453FF691AEDDF8DF
:1011900054C04FF6FF7404EACC0CCDF854C0072BB2
:1011A0003FF6A0AD02B0BDEC108B04B0BDE8F08FEF
:1011B000004870474C4700000649074A08685043FA
:1011C00043F2390210440860400870470149086042
:1011D000704700009C0000206D4EC64140EA0103AC
:1011E0009B0703D009E008C9121F08C0042AFAD2DD
:1011F00003E011F8013B00F8013B521EF9D27047A1
:10120000D2B201E000F8012B491EFBD27047002248
:10121000F6E710B513460A4604461946FFF7F0FFF5
:10122000204610BD421C10F8011B0029FBD1801A7A
:10123000704700F0004230F000400AD0C10D01F5C7
:101240006071C0F3160042EA0151C2084007114321
:10125000704700200146704701F0004330B421F090
:10126000004150EA010206D00A0DA2F56072C1F3F6
:101270001301002A02DC30BC00207047440F44EA0E
:10128000C104C100E01830BC00EBC250AFF30080D5
:101290000029A8BF7047401C490008BF20F001008A
:1012A000704710B4B0FA80FC00FA0CF050EA010468
:1012B00004BF10BC704749B1CCF1200421FA04F4FA
:1012C00011FA0CF118BF012121430843A3EB0C01D3
:1012D000CB1D4FEA00614FEA102042BF002010BC36
:1012E000704700EBC35010440029A4BF10BC7047E6
:1012F000401C490008BF20F0010010BC70470000EE
:10130000064C074D06E0E06840F0010394E8070052
:1013100098471034AC42F6D3FEF7D6FF04490000DC
:10132000244900002DE9FE4F804681EA0300C00FEA
:101330000C46009021F0004123F00045B8EB02007C
:10134000A94105D24046214690461C460B4602461E
:1013500023F00040104347D0270DC7F30A00C3F322
:101360000A510290401A019040286BDAC3F313002F
:1013700040F4801B0098924620B10023D2EB030A70
:1013800063EB0B0B01985946C0F14002504600F048
:101390008EF906460D4650465946019A00F0A6F9C8
:1013A00010EB08006141002487EA115284EAE773D8
:1013B0001A4340D0009A62B3019A012A4FEA0752B9
:1013C00015DC001B61EB02014FF0004202EA0752FC
:1013D000CDE90042001C41F5801132462B4600F059
:1013E000A6F903B0BDE8F08F40462146F9E7001B9F
:1013F00061EB0201001C41F5801300185B412018CD
:10140000A2F5001747EB030140EAD570B6196D410C
:1014100011E06D084FEA360645EAC0754FEA0752FB
:10142000001B61EB0201001C41F5801149084FEAE5
:1014300030000019514132462B4603B0BDE8F04F51
:1014400000F066B90098012240000023D0EB0202B0
:1014500063EBE073009821464FEAE074B8EB0000BC
:1014600061EB0401E9E783F000435BE781F00041B1
:1014700058E72DE9FE4F81EA030404F0004421F00F
:10148000004100944FF0000B23F0004350EA0104A8
:101490005ED052EA03045BD0C3F30A54C1F30A5589
:1014A0002C44A4F2F3340194A0FB0254C1F31301C1
:1014B00041F48011C3F3130343F4801301FB02448E
:1014C00000FB034E840A970A44EA815447EA835793
:1014D000A4FB076802958D0A05FB07854FEA932C4C
:1014E00004FB0C542705029D4FEA065847EA1637BD
:1014F000B5EB08056EEB070C870E920E47EA8117D5
:1015000042EA8312A7FB0201B6EB0B0164EB000475
:101510002B0D43EA0C335E1844EB1C50DA4651465F
:10152000E7FB0201C5F313044FEA0B3343EA1453FC
:101530004FEA0432019C43EA0603A4F10C0402942E
:10154000009CCDE900B400F0F2F803B0BDE8F08FE4
:1015500000200146F9E72DE9F04D81EA030404F08B
:10156000004B21F0004514464FF0000A23F00041E3
:1015700050EA050220D054EA01021DD0C5F30A57F3
:101580000246C5F31303C1F31300C1F30A5640F436
:10159000801543F48013A7EB0608101BD64608F20B
:1015A000FD3873EB050002D308F1010801E0921841
:1015B0005B41B8F1000F03DA00200146BDE8F08D71
:1015C00000204FF48011064684460EE0171B73EB93
:1015D000050705D3121B63EB050306434CEA010C18
:1015E00049084FEA300092185B4150EA0107EDD1FB
:1015F00052EA030012D082EA040083EA050108439C
:1016000005D0101BAB4106D20122002306E00022C8
:101610004FF0004302E06FF0010253101AEB060096
:101620004CEB085110EB0A0041EB0B01BDE8F04D0B
:1016300000F06EB80EB5C10F80EAE0700844CA072A
:10164000002140F233438DE80E000A460B4600F0BD
:101650006EF803B000BD0EB540F233410291002197
:10166000CDE900110A460B4600F061F803B000BD59
:1016700070B5C1F30A5201F000450024C1F3130113
:1016800040F2FF3341F480119A4201DA002070BD2C
:1016900040F233439A42A2F2334203DC524200F05A
:1016A00015F800E090402C43F1D0404270BD202A54
:1016B00004DB203A00FA02F1002070479140C2F1A9
:1016C000200320FA03F3194390407047202A04DBDB
:1016D000203A21FA02F00021704721FA02F3D040AB
:1016E000C2F120029140084319467047202A06DBC8
:1016F000CB17203A41FA02F043EAE07306E041FAE0
:1017000002F3D040C2F120029140084319467047CD
:1017100010B5141E73F1000408DA401C41F10001F9
:1017200092185B411A4301D120F0010010BD2DE950
:10173000F04D92469B4611B1B1FA81F202E0B0FA47
:1017400080F220329046FFF7B2FF04460F4640EA8F
:101750000A0041EA0B0153465A46084313D011468A
:1017600053EA010019D0C8F140025046FFF7AEFF1E
:1017700005460E46504659464246FFF798FF084335
:1017800005D0012004E020463946BDE8F08D002058
:10179000054346EAE0762C4337430A986305E40A9A
:1017A000A0EB08000022FD0A44EA47540A3002D5A3
:1017B00000200146E9E7010510196941DDE9084506
:1017C00000196941BDE8F04DA2E700000448006837
:1017D000F1EE101A016C21F09F01016470470000C6
:1017E00038EF00E030B54FF0805000228300D0F891
:1017F0003011C3F80C21C3F81021624B1A60624B00
:101800001B68624C2360604B1B1D1B68241D2360FA
:101810005D4B08331B68241D23605B4B0C331B6836
:10182000241D2360584B10331B68241D2360564B26
:1018300014331B68241D2360534B18331B68534C0F
:1018400020342360504B1C331B68241D23604E4BF7
:1018500020331B68241D23604B4B24331B68241D3D
:101860002360494B28331B68241D2360464B2C33CF
:101870001B68241D2360444B30331B68434C4034A9
:101880002360414B34331B68241D23603E4B3833A7
:101890001B68241D23603C4B3C331B68241D2360C4
:1018A000394B40331B68241D23600123082902D1D2
:1018B000D0F8344114B1082904D006E0354C34493D
:1018C000216005E0D0F8344114B1082904D006E0C5
:1018D000314CFB21216005E0D0F8344114B10829D6
:1018E00008D00EE090F858422C48016864F30301D8
:1018F000016002E0D0F834411CB929494FF400706E
:10190000086028480168C90702D06FF00101016032
:101910002548016841F470010160BFF34F8FBFF3A8
:101920006F8F4FF01021D1F80002002803DBD1F8AF
:101930000402002822DA1D4C23601D480368002B96
:10194000FCD01223C1F800320568002DFCD0C1F88C
:10195000043201680029FCD0226001680029FCD013
:10196000BFF34F8F10487C380168124A01F4E061E0
:1019700011430160BFF34F8F00BFFDE70F490E48D1
:10198000086030BD380500400404001020C5004048
:10199000488103008C56004018F50040E40E0040DA
:1019A000409602400004004088ED00E004E501405C
:1019B00000E401400400FA050090D00398000020E4
:1019C00001480068004700001C00002003B4019893
:1019D0004100009850EAC12018BF04204A0D18BFEA
:1019E00040F0010040F2FF72B2EB515F08BF40F0DF
:1019F0000200012808BF052002B070470000000067
:101A000010B52F499FED2C1B2DED020B84B00598CE
:101A100020F000408842DCBF00209DED040B32DD49
:101A20002849884209D1049840B94FF0010000F0DC
:101A30006FFC00F03DFC06B010BD05DB9DED040B16
:101A400000F02AFC06B010BD68469DED040B00F0C6
:101A50003BF810F0030011D0012818D09DED021BB7
:101A60009DED000B02281AD000F04AFA51EC100B41
:101A700081F0004106B041EC100B10BD9DED021B42
:101A80009DED000B012000F06FFB06B010BD9DED39
:101A9000021B9DED000B00F033FA06B010BD0120D3
:101AA00000F062FB51EC100B81F0004106B041ECFC
:101AB000100B10BD0000000000000000000000003E
:101AC000FB21E93F0000F07F2DE9F14F04462DEDA9
:101AD000020B2DED088B8AB09FEDE70B80ED020B1A
:101AE000139EE74826F0004585420ADC9DED120B67
:101AF000002084ED000B0AB0BDEC088B03B0BDE8FC
:101B0000F08FE0489FEDE0AB9FEDE1BBA84247DDE1
:101B1000E14F9FEDE39B9FEDE48B9DED120B53ECAA
:101B20001A2B51EC100B002E1CDDFFF79CFC41EC36
:101B3000100BBD4208D053EC1B2B51EC100BFFF7E0
:101B400092FCC4E900010BE053EC192B51EC100B93
:101B5000FFF789FC53EC182BFFF785FCC4E9000163
:101B60000120C8E7FFF7DEFB41EC100BBD4208D0B7
:101B700053EC1B2B51EC100BFFF7D4FBC4E9000115
:101B80000BE053EC192B51EC100BFFF7CBFB53EC94
:101B9000182BFFF7C7FBC4E900014FF0FF30AAE79D
:101BA000C348A84279DB9DED120B51EC100B00F0FD
:101BB0007FFD41EC180B9FEDC00B53EC102BFFF792
:101BC00058FC9FEDBF1B53EC112BFFF7ABFBFFF74E
:101BD0004FFD0746FFF72EFD41EC190B53EC1A2B76
:101BE000FFF747FC53EC182BFFF740FC41EC180BB8
:101BF00053EC1B2B51EC190BFFF73BFCDFF8C8A291
:101C000041EC100B4FEA15580125FA4453EC102B08
:101C100051EC180BFFF727FC032DC4E900013DD060
:101C2000C1F30A5005EB4511A8EB000011398142C0
:101C300034DA0AEB051BB0EE48AA9BED000BF0EE80
:101C400068AA53EC102B51EC190BFFF712FC41EC76
:101C50001B0B51EC1A0B53EC1B2BFFF704FC41EC54
:101C6000180B51EC1A0B53EC182BFFF7FCFB53EC41
:101C70001B2BFFF7F8FB9BED020B41EC1A0B53EC0F
:101C8000102B51EC190BFFF7F4FB53EC1A2BFFF759
:101C9000EAFB41EC100B6D1CB8E70EE0002EA8BF6C
:101CA0003846BFF628AF94ED000B51EC100B81F0D5
:101CB0000041C4E9000178421DE7C6F3130040F477
:101CC000801EC6F30A50A0F2F530471100F01F0540
:101CD000C5F12000DDF848B008900020069007907C
:101CE0000520EC467949002D07EB0002794408BF36
:101CF00051F8221009D051F8223001EB8201AB409B
:101D00004A68089922FA01F11943A1FB0E26A1FBAA
:101D10000B131A449A4234BF0123002303EB060835
:101D20000CEB8003D3E901A60E448E4234BF01219F
:101D3000002192448A4411B1924502D903E09245B0
:101D400001D2012100E00021C3E901A641444CF881
:101D50002010011EA0F10100C4DC029800F1005027
:101D6000850F0298DDE903678000DDF81480FFF736
:101D700061FC41EC1A0B3046FFF76DFC9FED541BE4
:101D800053EC112BFFF775FB41EC1B0B3846FFF7AB
:101D900062FC9FED511B53EC112BFFF76AFB41ECEA
:101DA000180B4046FFF757FC9FED4D1B53EC112BD2
:101DB000FFF75FFB41EC190B51EC180B53EC192B9F
:101DC000FFF7B0FA53EC1B2BFFF7ACFA53EC1A2BCE
:101DD000FFF7A8FACDE90801002008909DED080B57
:101DE00053EC1A2B51EC100BFFF73DFB53EC1B2B64
:101DF000FFF739FB53EC182BFFF735FB53EC192B8E
:101E0000FFF734FB9FED381B53EC112BFFF731FB31
:101E10009FED370B41EC180B53EC102B9DED080B8D
:101E200051EC100BFFF725FB53EC182BFFF77AFA58
:101E30009FED310B41EC180B53EC102B9DED080B73
:101E400051EC100BFFF715FB53EC182BFFF76AFA58
:101E500041EC100B139810F0004F06D06D4251EC7E
:101E6000100B81F0004141EC100B284684ED000B73
:101E700041E600000000000000000000000000003B
:101E8000FB21E93F7CD9024000004054FB21F93F8F
:101E90003163621A61B4D03DFB21F93F00000000BC
:101EA0000000601A61B4D03D7370032E8A19A33B01
:101EB000FB2139410000000083C8C96D305FE43F59
:101EC000000000000000E03F722B0000C02A00006C
:101ED000000000000000103E000000000000103C68
:101EE000000000000000103A182D4454FB21F93D79
:101EF0003326A611460B113C00000054FB21F93D8E
:101F000010B52DED040B2DED088B82B0B0EE419A8B
:101F1000F0EE619A0B9820F000449FED4BABB4F1CA
:101F2000795F11DA9DED0A0B51EC100BFFF7A0FB66
:101F3000002801BFB0EE4A0AF0EE6A0A02B0BDEC1A
:101F4000088B04BF04B010BD9DED0A0B53EC102BA1
:101F500051EC100BFFF78DFA41EC180B3C480621B1
:101F6000B0EE480AF0EE680A784400F081F853ECCD
:101F7000182B51EC100BFFF77CFA9DED0A0B41EC8E
:101F80001B0B53EC192B51EC100BFFF772FA41ECC1
:101F9000190B53EC1B2B51EC180BFFF76AFA53EC9F
:101FA000192BFFF760FA9FED2C0B41EC190B53EC4A
:101FB000102B51EC180BFFF75CFA41EC100B284882
:101FC000844210DA53EC192B51EC100BFFF74BFA4B
:101FD00053EC1A2BFFF74AFA41EC100B02B0BDECA0
:101FE000088B04B010BD1F48A042BCBF9FED1E1B54
:101FF0008DED001B06DBA4F5001001900020009081
:102000009DED001B51EC100B53EC112BFFF72BFA3D
:102010009DED000B41EC180B53EC102B51EC1A0BFF
:10202000FFF721FA41EC1A0B53EC192B51EC180B6A
:10203000FFF719FA53EC1A2BFFF718FA41EC100BC3
:10204000CCE7000000000000000000000000F03FAE
:10205000E427000000000000000000000000E03F56
:102060003333D33F0000E93F000000000000D23FBF
:1020700070B504462DED028B4D1E00EBC500B0EE91
:10208000408AF0EE608A90ED000B35F0060017D024
:1020900053EC182B51EC100BFFF7EBF941EC100B44
:1020A0006D1E04EBC50090ED001B51EC100B53ECC2
:1020B000112BFFF737F941EC100B35F00600E7D193
:1020C000022D36D0042D1CD0062D1CBFBDEC028B7A
:1020D00070BD53EC182B51EC100BFFF7CAF994EDBF
:1020E0000A1B53EC112BFFF71DF953EC182BFFF7CC
:1020F000C0F994ED081B53EC112BFFF713F941ECD9
:10210000100B53EC182B51EC100BFFF7B2F994EDB8
:10211000061B53EC112BFFF705F953EC182BFFF7B7
:10212000A8F994ED040B53EC102BFFF7FBF841ECEE
:10213000100B53EC182B51EC100BFFF79AF994EDA0
:10214000021B53EC112BFFF7EDF853EC182BFFF7A4
:1021500090F994ED001B53EC112BFFF7E3F8BDEC65
:10216000028B41EC100B70BD31B504462DED040B14
:102170002DED0A8BB0EE41BAF0EE61BA0B989DEDF1
:102180000A0B20F00040B0F1795F0DDA51EC100B32
:10219000FFF71CFC042808BF00F09AF89DED0A0B1D
:1021A000BDEC0A8B05B030BD53EC102B51EC100B7D
:1021B000FFF75FF941EC180B9DED0A0B53EC182B60
:1021C00051EC100BFFF755F941EC190B2C48B0EE10
:1021D000480AF0EE680A05217844FFF749FF9FEDB1
:1021E0002ACBB0EE40AAF0EE60AA9CB353EC1C2BB5
:1021F00051EC190BFFF73DF941EC1C0B53EC1A2B7A
:1022000051EC190BFFF735F99FED210B41EC190B40
:1022100053EC102B51EC1B0BFFF72BF953EC192B44
:10222000FFF721F953EC182BFFF723F953EC1B2B85
:10223000FFF719F953EC1C2BFFF715F99DED0A1B5D
:1022400053EC112BFFF712F9BDEC0A8B05B041ECF2
:10225000100B30BDFFE753EC1A2B51EC180BFFF7B6
:1022600008F953EC1C2BFFF75DF853EC192BFFF723
:1022700000F99DED0A1B53EC112BFFF753F8E3E730
:102280006C26000000000000495555555555C5BF46
:10229000000000000000E03F10B553EC102B51ECA3
:1022A000100BFFF73FF841EC100B10BD00000000D1
:1022B0009FED050B10B553EC102B51EC100BFFF7F5
:1022C0004AF941EC100B10BD0000000000000000B6
:1022D0009FED050B10B553EC102B51EC100BFFF7D5
:1022E000C8F841EC100B10BD000000000000001009
:1022F00002E008C8121F08C1002AFAD170477047CF
:10230000002001E001C1121F002AFBD1704700002C
:102310000149086070470000A800002072B601F073
:1023200095F900BF00F0D8FF0028FBD111481249F1
:10233000401AC408012000EB044010A101F0E4F8A9
:1023400011480068C00700D000BE022000EB044026
:102350000EA101F0D9F8BFF34F8F0B48E4380168A4
:102360000E4A01F4E06111430160BFF34F8F00BFDB
:10237000FDE700004C4900003449000046617461EB
:102380006C206572726F7200F0ED00E05379737427
:10239000656D207265736574000000000400FA0525
:1023A0000EB500210091CDE901106A4644F201000A
:1023B000FFF7B4FF0EBD00F003B800F009B800004D
:1023C00072B602480168491C016070472400002071
:1023D00003490868401E086000D162B670470000DB
:1023E0002400002070B5054608680C46411C04D046
:1023F00000F080FE206800F04DFE6068411C02D0B5
:10240000002100F035FE2968A069C1F82405607D2F
:10241000227D29681043C1F86C05D4E900122868B0
:10242000C0F81425C0F80C15207D012814D1A0682F
:10243000411C02D0002100F01BFEE068411C04D0CA
:1024400000F058FEE06800F025FED4E9021228688A
:10245000C0F80825C0F8101570BD70B505460868AD
:102460000C46411C04D000F04FFE206800F01CFE1A
:102470006068411C02D0002100F003FE2968A069B9
:10248000C1F82405607D217D2A680843C2F86C05E7
:10249000D4E900122868C0F80C15C0F81425207D76
:1024A000012814D1A068411C02D0002100F0E9FDF0
:1024B000E068411C04D000F027FEE06800F0F4FD65
:1024C000D4E902122868C0F80825C0F8101570BDBC
:1024D0002DE9F0470546861C90460F464FF001094E
:1024E0000020FFF768FF1B4C20683860D4E900012A
:1024F000401AA16804F21C47081A0EE00121384670
:1025000000F0C4FB00F008FA0146384600F0BEFBBC
:10251000D4E90001401AA168081A401C8642EDD88F
:10252000B8F1000F03D0052065F3891002E0062002
:1025300065F39F50A2682168114004EB8101C860D7
:102540002068304420600020FFF737FF4846BDE890
:10255000F08700009405002070B50D4604460A2956
:1025600002D10D21FFF7F8FFA0682268411CA1608D
:102570001554D4E90101814204D32046BDE87040DE
:1025800000F039BC70BD0000034803C8814201D18E
:102590000120704700207047940500202DE9FC477A
:1025A000054617460C46481C00F0D6FA804601AB9B
:1025B0006A4621462846FEF721FB314831493D0055
:1025C000A0EB01004FEAD0004FF005014FF00009E9
:1025D00001EB004636D0681E00EE100A00207C2277
:1025E000F8EE400A00EE107A27492023B8EE401A90
:1025F00080EE810ADDED000A20EE800A0FE000BFC8
:1026000001EB800CDCED000AF4EEC00AF1EE10FAEA
:1026100002DD08F8002001E008F80030401CA0426C
:10262000EED308F80490404601F026F80246304602
:1026300016A100F06DFF00BF00F04EFE0028FBD198
:102640006D1EC8D1601C00F087FA054600202D21C0
:1026500001E02954401CA042FBD305F80490284611
:1026600001F00AF8024630460AA100F051FF284660
:1026700000F07EF8404600F07BF8BDE8FC870000E3
:102680004C49000034490000AC02002025730D0ABB
:102690000000000025730D0A0000000010B50021A5
:1026A000024800F009FB80F3100010BDB0090020C3
:1026B00082B0CDE9000121F0004001909DED000BBA
:1026C00002B051EC100B70472DE9F04116462DED8C
:1026D000028BB0EE608AF0EE408A804602293CD33D
:1026E00000244F1E37E09FED1F0A600868EE000AC5
:1026F00000EE100AB8EE400A60EE800A80EEA80AEA
:1027000010EE100AFEF795FD41EC100BFFF778F97B
:1027100051EC100BFEF7A0FDA2B208EB8205286079
:10272000A6B1FEF749FD642190FBF1F201FB120016
:1027300000EE100A9FED0C1AF8EEC00A80EE810A36
:10274000D5ED000A20EE200A85ED000A9FED070A6C
:10275000A41C85ED010ABC42C5D3BDEC028BBDE8CB
:10276000F0810000DB0FC9400000C84200000000FB
:1027700010B5002821D0114B0022001F196803E07A
:10278000814203D80A4649680029F9D152B1136839
:10279000841A9C4204D1006818441060104602E07C
:1027A000506000E0186039B102680B1A934203D1FF
:1027B0000B681A4402604968416010BDA000002007
:1027C0002DE9FC5F0E008346DDE90C47C6F10000F1
:1027D00098469246814600D40846012503E000BF92
:1027E00090FBFAF06D1C5045FADAA84500D9454631
:1027F00024B1002E01DB780700D5641EB80702D58E
:10280000B8F1000F0AD0F80708D13CB1A54205D2B3
:1028100020215846641EFFF79FFEF6E7002E02DADD
:102820004E462D2102E0780703D52B215846FFF7AD
:1028300093FE07F0030002280BD1B8F1000F08D176
:102840003CB1A54205D230215846641EFFF784FEF4
:10285000F6E7CDE90047434652463146584601F077
:1028600069FDBDE8FC9F000070B50D460446006898
:102870004FF4887101F080F84FF49071206801F0F6
:102880007BF84FF49271206801F076F84FF4A27152
:10289000206801F071F820681149C0F8041320681D
:1028A000690740F30730090E002806DA00F00F0030
:1028B00000F1E02080F8141D03E000F1E02080F832
:1028C00000142068012140F3073000F01F029140FE
:1028D0004009800000F1E020C0F8001170BD000048
:1028E00010030200024600201268530713D502F0BD
:1028F0000300012802D002280CD105E0C2F38310A6
:102900000B68801C184404E00223086803EB925211
:1029100010440860012070472DE9FF41002623483C
:1029200000F0AEF92148001F074600F0A9F9204C3D
:1029300060680090A56800E000986946284004EBB4
:1029400080000C30FFF7CEFF0028F5D101AA0099D6
:1029500001EA050304EB8303491CDB6842F82030DD
:10296000401C00910228F2D3019800F003000128D6
:102970000BD0022810D10198032101EB905000994F
:10298000BDF80A6001EB900005E00198BDF80A600F
:10299000C0F3831008440090384600F06EF908B187
:1029A0000098606004B03046BDE8F081AC090020BA
:1029B0009405002000242DED048B2146204600F0D4
:1029C0000FFE08B1FFF7ECFC00F078FC3648374901
:1029D000401AC508032000EB054035A100F094FD26
:1029E000052000EB0540804638A100F08DFD4749E9
:1029F000E02081F80004454940202239C1F88002D6
:102A0000C1F80001DFF808B1DFED428A9FED429A7C
:102A1000DFF808A14FF47A7984F00104FEF7CCFBCB
:102A2000B0FBFBF20BFB120000EE100A22468021E5
:102A3000B8EE400A3A4880EE288AB0EE490AF0EE35
:102A4000480AFFF741FE364D364805F50077402627
:102A50009AF804309AF800202946FEF729F8324601
:102A600039462846FDF7BAFC0CB12FA300E02FA38E
:102A7000BCEEC80A2EA110EE100A82B2404600F049
:102A80004EFD142240213248FFF788FD00F024FC5F
:102A90000028FBD12F4E4D464FF47A47711C384623
:102AA00088476D1EFAD1B7E74C4900003449000051
:102AB00046505520464654206578616D706C6520FF
:102AC000737461727465642E000000005468697349
:102AD00020697320465055207573616765206578BD
:102AE000616D706C65207769746820464654206378
:102AF000616C63756C6174696F6E20616E642064D3
:102B0000726177696E672E0D0A00000026E000E012
:102B100080841E000000C84200442C4700000020B2
:102B2000AC00002048440000796573006E6F00001F
:102B3000496E7075743A2073696E65202575487A00
:102B40002C206E6F6973653A2025732E0D0A0000E4
:102B5000AC020020F0430000F0B50B30154D20F022
:102B600007010024144A0FE003688B420BD38B4209
:102B700005D95E1A43184768C3E9006700E0436857
:102B8000136002C004E0021D10680028ECD120464A
:102B9000002802D1286808B10020F0BD064A074885
:102BA0001060074A121A22F00702C0E9002401202F
:102BB0002860D7E7A4000020A0000020BC09002066
:102BC000B82900202DE9F047C5881E1DB6FBF5F792
:102BD0008946B6FBF5F1044605FB176C407916688B
:102BE0006843DDF820A0F718001F874200D9C61AF5
:102BF000166001E02468491E0029FBD1A5EB0C07F3
:102C00008846B74216D818E004EB0C00001D09EB0B
:102C10000803BAF1000F3A4602D00146184600E018
:102C20001946FEF7DBFA2468F61B4FF0000CB84497
:102C3000B54201D9374600E02F46002EE4D1BDE869
:102C4000F087000030B5024651B100F0E7FC0021EA
:102C5000074C08E034F821301568AB4202D111600E
:102C6000002030BD491C8142F4D3052030BD000056
:102C700000000000002100F00FB8002100F012B8A1
:102C8000012100F01EB8012100F011B808B56A4614
:102C9000FDF753FB009808BD08B56A46FDF733FB06
:102CA000009808BD08B56A46FDF72DFB08BD08B5BC
:102CB0006A46FDF71BFB08BD08B56A46FDF70AFB2F
:102CC00008BD08B56A46FDF711FB009808BD08B5B8
:102CD0006A46FDF73FFB009808BD70B50446002525
:102CE0002846FFF768FB21686268086890420ED9A1
:102CF000401E08600178238AE26801FB0325227ADE
:102D00002168101AC0B20A79824200D208710020EC
:102D1000FFF753FB284670BD70B505460C460020F2
:102D2000FFF749FBE868298A201AB0FBF1F12A680D
:102D30001068431C13600170BDE870400020FFF76D
:102D40003CBB10B530B1017A42680368891AC9B238
:102D50001A6006E00E2010BD03681A68541C1C603F
:102D60001170491EC9B2F7D20068002101710846EE
:102D700010BD0000F0B505460478154889B0164628
:102D800040F82420124A08690832A2F10C0742F8E0
:102D90002400487F385520226846FEF71FFA049425
:102DA0002878385C48B10EB10A4A00E00022694632
:102DB000281D00F045FF09B0F0BD0EB1064A00E045
:102DC0000022694605F10C0000F00EFEF3E700005A
:102DD0000C000020114200005D4000000FB408B557
:102DE0000399002904D004AA00926A4600F00FF863
:102DF00001B05DF814FB10B582680446002A05D0C6
:102E0000D4E90403216898470020A06010BD2DE993
:102E1000FC4791460C00804676D014F8011B39B16E
:102E200025290ED04046FFF797FB20780028F4D1E3
:102E300098F80C00002867D04046BDE8FC47FFF733
:102E4000DABF0020012221782B291BD02D2902D0A6
:102E5000302908D102E040F0010001E040F002001A
:102E6000641C002AEFD100252A290ED02178A1F177
:102E700030020A2A11D205EB850201EB4205641CDF
:102E8000303DF1E740F00400EAE7D9F800100B1DEF
:102E9000C9F800300968641C0D44217800232E29EC
:102EA0000BD114F8011FA1F130020A2A05D203EB5D
:102EB000830201EB4203303BF3E76C290DD0682914
:102EC0000BD0692921D00BDC252918D0582931D005
:102ED00063290ED0642915D117E014F8011FECE71F
:102EE000702969D0732932D075291BD0782909D16E
:102EF00020E0D9F80000011DC9F800100178404613
:102F0000FFF72AFB641C90E76CE0D9F800100A1D5B
:102F1000C9F800200968CDE900500A224046FFF7B1
:102F20004FFCEFE7D9F800100A1DC9F80020096826
:102F30000A2206E0D9F800100A1DC9F80020096825
:102F40001022CDE90050404601F0F4F9DAE7D9F853
:102F5000001000270A1DC9F800200E68C00705D11F
:102F600012E04046761C7F1CFFF7F6FA3178002904
:102F7000F7D104E0202140466D1EFFF7EDFABD4277
:102F8000C0D9002DF6D1BDE74EB13046FEF74AF963
:102F9000074604E0202140466D1EFFF7DDFABD42E2
:102FA00006D9002DF6D103E04046761CFFF7D4FA8F
:102FB00031780029F8D1A5E7D9F80000011DC9F83A
:102FC0000010056830214046FFF7C6FA78214046D8
:102FD000FFF7C2FA08200021CDE9000103461022C4
:102FE0002946B0E7BDE8FC872DE9FF411C46DDE935
:102FF0000A7815460E46684600F060F846EA450134
:1030000041EA840141EA072242EA0841009A00EBC2
:103010008200C0F80017BDE8FF812DE9FF411C4682
:10302000DDE90A7815460E46684600F055F846EA8E
:10303000450141EA840141EA072242EA0841009A37
:1030400000EB8200C0F80017BDE8FF811CB500212D
:1030500000910B4601220191FFF7C6FF1CBD1CB574
:10306000002100910B4601220191FFF7D6FF1CBD04
:103070001CB500220B46009211460192FFF7B4FFE7
:103080001CBD1CB500220B46009211460192FFF7B1
:10309000C4FF1CBD1CB5002100910B46012201910B
:1030A0001146FFF7A1FF1CBD1CB5002100910B4686
:1030B000012201911146FFF7B0FF1CBD01682029D4
:1030C00002D24FF0A040704701F01F01016001489B
:1030D00070470000000300500168202902D24FF021
:1030E000A040704701F01F010160014870470000D7
:1030F0000003005001B56846FFF7E0FF009A012188
:103100009140C0F8081508BD01B56846FFF7E4FF17
:10311000009A01219140C0F8081508BD30B5154A44
:1031200001460020D2F8104423460AE0DB681D79EE
:10313000854205D1401C0A28F6DB4FF0FF3030BD38
:103140001B68002BF2D1431CF9D0CB681871D2F860
:10315000103443B1DB68CC681B682360D2F81024BC
:10316000D268116030BDC2F81014C96800220A602C
:1031700030BD000094050020F0B595B01C46154602
:103180000F4608461A9E00F04BFB182109A8FEF7CF
:103190003EF80E96CDE909540023082203A93846CB
:1031A00000F053FB05980690BDF81000ADF81C0028
:1031B000BDF81200ADF81E0000208DF82100039824
:1031C000082600F00300012802D0022818D032E0BF
:1031D00003983346850AC0F3C2008DF82000039897
:1031E0000FA9C0F38314A200384600F02EFB09A8F3
:1031F000009006AB22460FA9284600F06DFA1AE0AF
:103200000398840DC0F3C2008DF82000082C01D271
:10321000254600E0082533462A460FA9384600F027
:1032200014FB2E44641B09AB06AA29460FA800F024
:103230007FF9002CEAD1384600F0F8FA15B0F0BD5D
:103240007047002000F028BF084810B50178084AF0
:10325000515C19B1001D00F07FFD02E00C3000F060
:103260008DFCBDE81040002000F016BF2C000020AF
:103270000800002008B5034A00924023024AFFF7E5
:103280007BFF08BD553F0000FC0300200A4A0129CE
:1032900002EBC00007D0022907D0032907D0042978
:1032A00007D0002070470220704704207047007943
:1032B00070474079704700003449000010B5FFF7AF
:1032C000C0FF04210348FFF729FF02490120C96814
:1032D000487110BD244900002DE9F0478CB0FFF77C
:1032E00053F918B100200CB0BDE8F0877D4C0020E8
:1032F000C4F81804BFF34F8F60680290A5684FF0C0
:103300000008284004EB80000CE000BFD4F818044B
:1033100070B921680298814201D86160E2E72840D3
:1033200004EB80000C3002A9FFF7DCFA0028EDD195
:10333000002003AA029901EA050304EB8303491C58
:10334000DB6842F82030401C02910228F2D3039837
:1033500000F00300022802D001284DD0A7E0039816
:103360005022810D8946B2EB905F00D850210E4665
:1033700066F39F50039008315B4800F008FA07009D
:1033800078D000F04DFA4346082203A9384600F0F1
:1033900064FA029908F1080A2940681A8000001DA1
:1033A000864222D94F4D0C3530B1C2B204EB8101B7
:1033B000301A90460C3104E02946F2B200259046BE
:1033C0002846C6B25346384600F047FA0AEB0803CF
:1033D00025B132462946384600F03FFA029909F1F4
:1033E000030001EB900002903BE004EB81015346A7
:1033F000324638460C31EFE70398C0F383100628B5
:1034000000D30620039960F38911C1F38310801C57
:1034100003918100344800F0BAF9070047D000F06A
:10342000FFF94346082203A9384600F016FA08F1CE
:10343000080800260FE00298434600EA0501401CF8
:1034400004EB81010290042238460C3100F005FAA9
:1034500008F10408761C0398C0F38310B042EAD840
:1034600047B1D4F81054D4F8180478B1384600F0B5
:10347000DDF931E01BE0E8684079012804D12A68D1
:103480002846394612689047E8680568002DF2D151
:10349000384600F0CBF90020FEF78DFFD4F8180471
:1034A00008B9029860600020FEF787FF14E0D4F8A6
:1034B000104405E02168204689688847E068046870
:1034C000002CF7D109480A49401AC008022101EB33
:1034D000004008A100F018F8FFF756F880F001004E
:1034E00001E7000094050020544900004C49000009
:1034F000344900004261636B656E647320666C75CD
:10350000736865640000000000231A4600F042BDA5
:1035100008B5012300926A4600F03CFD08BD1CB5C9
:10352000CDE9002302236A4600F034FD1CBD0000F3
:103530002DE9F0470E4680461C469246082940D8A1
:1035400094F80C90002020731946104600F07AFC85
:103550000025B54206D218F805201BA12046FFF72A
:103560003DFC03E01AA12046FFF738FC6D1C082D36
:10357000EFD318A12046FFF731FC0025B54212D247
:1035800018F805707E2F08D8FDF712FE0068C05DA0
:1035900010F03E0F01D03A4600E02E220EA1204648
:1035A000FFF71CFC03E00DA12046FFF717FC6D1C84
:1035B000082DE3D301222146504600F025FC84F873
:1035C0000C90BDE8F0870000202530327800000024
:1035D000202020007C000000256300002000000067
:1035E0000B4810B5FF218160002101604160C0F8E7
:1035F0001814C0F81414012180F82014054800F0B4
:1036000013F9002803D1044800F07AF9002010BD16
:1036100094050020544900003C440000024803493E
:10362000401AC008704700005449000034490000A7
:1036300013B56846FFF706FB08B100201CBD024821
:10364000009950F831001CBD3449000070B509489C
:103650000125D0F8104480F8205407E0E068457157
:103660002168204649688847E0680468002CF5D145
:1036700070BD0000940500201CB50446144890F865
:10368000200470B96CB12046FDF7CCFD401C0090C1
:1036900001236A4601A90F4800F0E7F818B100209D
:1036A0001CBD20461CBDDDE900202146FDF796FD2E
:1036B000DDE900211144002001F8010C05480099C2
:1036C00000F02CF90348009900F007F901981CBD9F
:1036D000940500203C4400002DE9FF4781460C9DE5
:1036E00000200C462F7B287398461646294618461C
:1036F00000F0A8FB072E42D2DFE806F004090F16FF
:103700001F2A360049462846FFF768FB37E049463E
:1037100028462268FFF762FB31E0D4E900234946DE
:103720002846FFF75BFB2AE0A0680090D4E900235D
:1037300049462846FFF752FB21E0D4E90201CDE9D2
:103740000001D4E9002349462846FFF747FB16E06D
:1037500004F1080007C88DE80700D4E900234946B2
:103760002846FFF73BFB0AE004F108000FC88DE88C
:103770000F00D4E9002349462846FFF72FFB00221B
:103780002946404600F040FB2F73BDE8FF872DE936
:10379000F041058A80462D1F4819C01CB0FBF5F08A
:1037A000C6B24046FFF799FA041E19D000202071D6
:1037B00001206071E58000272546761EC4F8008050
:1037C0000BE04046FFF789FA60B16179491C6171ED
:1037D000286005467F1CC0F80080B742F1D3204620
:1037E000BDE8F081204600F002F80020F8E72DE95E
:1037F000F041457901466B1E002201E00968521C28
:103800009A42FBD30F680146002605E038460C6853
:10381000FFF782FA2146761CAE42F7D3BDE8F0816D
:103820000121001DFFF732BAFFF78BBA10B504462D
:103830000121001DFFF74BFA10F0FF0F04D12046C5
:10384000BDE81040FFF7D3BF10BD1CB501920122A7
:10385000009201AAFFF7B6F91CBD1CB50192002227
:10386000009201AAFFF7AEF91CBD2DE9F0411F003F
:1038700015460E46044606D0A068FFF704FA10B1BC
:103880001120BDE8F081A068D0E903316068A3EBA6
:10389000010C421C944507D10020286017B1A06894
:1038A000FFF7E8F90020ECE703EA000201EA00076D
:1038B000BA4201D3831A01E0181A0B1A28685B1C5C
:1038C000984200D203462B60206810443060A06804
:1038D0002A68C1681144C160E4E710B58268946841
:1038E0001369E41AA14201D9042010BD19441161E1
:1038F000826851618068001DFFF7BCF9002010BD8F
:1039000082680021916082681161826851618268D9
:10391000D1608268516080680160704770B58268CC
:10392000456894681369E31AEB1A5B1C994201D944
:10393000042070BD214491608268D1608068FFF7E7
:103940009CF908B1002070BD082070BD40580028C7
:1039500000D00120704708B5002242504058009026
:1039600008BDD0F80403084000D00120704740583B
:10397000002800D00120704708B50022425040586E
:10398000009008BD0121B1EB507F01D101207047AB
:103990000020704770B50D4600F0A0FA04000FD06B
:1039A0000020FEF708FD207920B10020FEF705FD7C
:1039B000112070BD0120256020710020FEF7FDFC64
:1039C000002070BD10B500F089FA002802D0002157
:1039D0000160017110BD00000149024800F084BB84
:1039E000AC030020002000402DE9F041054600799D
:1039F00016460F4600EB40012C4A01EBC00102EBDA
:103A0000810494F82A1011B10820BDE8F0812849FA
:103A100051F820102868FFF7BDFF08B11120F4E726
:103A200039462846FEF7DEFC6660386920603000C3
:103A30004FF001062DD03F7F4FF48E712868FFF7BD
:103A40008AFF4FF4A2712868FFF785FF286819499B
:103A5000C0F8041328684FEA471140F307300028E4
:103A600006DA00F00F0000F1E02080F8141D03E0FA
:103A700000F1E02080F80014286840F3073000F0DF
:103A80001F0106FA01F14009800000F1E020C0F8B2
:103A9000001128680421C0F800150020A061E06131
:103AA00084F8290044F8140FA675AEE7AC03002093
:103AB000F8430000800002002DE9F0470546007938
:103AC0000B4600EB400101EBC000234901EB8004F1
:103AD000284600F043F810B11120BDE8F0874FF000
:103AE0000008C4F82080A360626184F828804FF445
:103AF0008E76474631462868FFF72DFF28684FF03D
:103B00000109C0F808902146286800F089FA606829
:103B100000BBD5F800A00EE094F8280008B10F27EC
:103B200016E031465046FFF711FF0028F4D0214639
:103B3000504600F075FA216A60698142F1D331463E
:103B40002868FFF703FF0028F9D02868C0F80C9018
:103B5000C4F814803846C0E7AC030020007900EBBD
:103B6000400101EBC000044901EB800040690028DE
:103B700000D0012070470000AC0300202DE9F04781
:103B8000044600794FF0000900EB400101EBC00052
:103B9000254901EB80072068C0F80095786880B15E
:103BA00020682249C0F808132068012140F307303B
:103BB00000F01F0291404009800000F1E020C0F8B1
:103BC00080112068D0F80C25D0F81485D0F808654D
:103BD000D0F810554FF0FF31C0F81415C0F80C158F
:103BE0002068C0F80815C0F81015501C02D0104607
:103BF000FFF72CFAB8F1FF3F02D04046FFF726FA54
:103C0000681C02D02846FFF721FA701C02D030460B
:103C1000FFF71CFA2068FFF7D5FE87F82A90C7F84F
:103C20000490BDE8F0870000AC030020840202008D
:103C30000149024800F004BBD803002000200040E6
:103C40002DE9F0410546164600790F46154A00EB6E
:103C5000C00102EB810494F8201011B10820BDE8E6
:103C6000F081114951F820102868FFF793FE08B140
:103C70001120F4E739462846FEF7EFFB6660386905
:103C800020601EB1397F2846FEF7EEFD2868082126
:103C9000C0F800150020A061E0616061012184F896
:103CA0002010DCE7D8030020FC4300002DE9F0479A
:103CB00004460E460079204900EBC00001EB800568
:103CC00017463046FFF75EFE30B1204600F036F86A
:103CD00020B11120BDE8F0871020FBE76F61AE60D6
:103CE0004FF49076002731462068FFF745FE4FF4E9
:103CF000AC7841462068FFF73FFE2068AA686969F2
:103D0000C0F84425C0F84815206801218160686822
:103D100078B9B14649462068FFF729FE0646414674
:103D20002068FFF724FE0643F4D000B10F270020DF
:103D300068613846CEE70000D803002000790549C5
:103D400000EBC00001EB80004069002800D001209A
:103D500070470000D80300202DE9F04704460079A1
:103D6000274900EBC00001EB800720684FF00009F5
:103D7000C0F80095786880B120682249C0F808131F
:103D80002068012140F3073000F01F0291404009F4
:103D9000800000F1E020C0F880112068D0F80C25E8
:103DA000D0F81485D0F80865D0F810554FF0FF31E1
:103DB000C0F80C15C0F814152068C0F80815C0F834
:103DC0001015501C02D01046FFF749F9B8F1FF3F1B
:103DD00002D04046FFF743F9681C02D02846FFF79F
:103DE0003EF9701C02D03046FFF739F92068FFF722
:103DF000E9FD87F82090C7F80490BDE8F08700003F
:103E0000D80300201003020010B50C46017A0529E2
:103E100008D0407A38B1084808A102682046FEF769
:103E2000DDFF00E01AB106A12046FEF7D7FF2046CD
:103E3000BDE81040FEF7DFBF7400002025730000CE
:103E40000D0A000038B5C3880D46044633B114A0EE
:103E5000009015A216A12846FEF7C0FF217A052979
:103E60001CD0607A48B1A088FFF710FA164951F8C3
:103E7000202016A12846FEF7B1FFA0880021FFF7F9
:103E8000D7FB03461049207A143951F8202001B09D
:103E90002846BDE830400EA1FEF7A0BF38BD0000A7
:103EA0001B5B306D000000001B5B313B33316D004C
:103EB00025734C6F67732064726F7070656420287F
:103EC00025642925730D0A00740000202573000065
:103ED0003C25733E2025733A2000000003498842A8
:103EE00001D10348704700207047000000200040C7
:103EF0001C00002070B5054688690C4600284FF468
:103F0000847128460AD0FFF726FDD5F81805626AA5
:103F1000E1688854606A401C606270BDFFF71BFD59
:103F2000D5F8180570BD1FB501238DF80030CDE917
:103F30000121D0E90012684690471FBD1FB501233B
:103F40008DF80030CDE90121D0E900126846904794
:103F50001FBD000070B50D4C0020D2B22070201D96
:103F60000B4D0378EB5C1BB1001DFFF79FFE02E0D9
:103F70000C30FFF7A1FD08B1FEF712FA60780028B7
:103F800002D021780029FAD070BD0000280000205E
:103F9000080000202DE9F84F204D9246894606463C
:103FA0009846012269461846AF68FEF791FA58B361
:103FB000009800210446801C09E000BF00EA0703C6
:103FC0005AF8212005EB8303401C491CDA60414567
:103FD000F4D34FEA164AFEF761FB4AEA0041601C3F
:103FE000384005EB80003C4005EB8402C160D0689E
:103FF00066F3C50068F3891069F39F2020F0030081
:10400000401C20F00400D06095F8200402E000BFBE
:10401000FFF762F90028FBD1BDE8F88F9405002076
:1040200070B50C4605464FF48E71FFF794FC216A7B
:10403000A068415C206A401C2062C5F81C1570BD58
:104040001FB500228DF80020029181680191426124
:10405000D0E90012684690471FBD00001FB50A4610
:1040600001788DF8001041680191017A8DF80810EF
:10407000C0680390044850F82210083850F82220F5
:10408000684690471FBD0000140000200149012030
:10409000087070472800002010B588B00446202220
:1040A0000E496846FDF79AF806200090C01F01905F
:1040B000029003904FF0EB7006900CB1084A00E0BC
:1040C000002269460748FEF755FE08B1FEF768F979
:1040D0000448001F447008B010BD00001C440000DC
:1040E0008D4000002C0000202DE9FF470C460546BE
:1040F0004FF40071FFF735FC01274FF401780026DB
:1041000018B34FF4927949462846FFF71FFCE0B1F7
:1041100049462846FFF71FFCC5F8088394F8290094
:1041200000B96F6002208DF80000D5F88004C5F852
:1041300080040390A0690290E0680190A661E661A6
:10414000D4E900126846904728E004212846FFF78A
:1041500008FC18B34FF484712846FFF7F7FBE8B169
:1041600021462846FFF7C6FE616AA069884215D13C
:10417000E06938B1E268616AA0612069E66166625F
:10418000E06008E094F8290000B96F60C5F8088382
:10419000A661E268616A2046FFF7C5FE4FF48E789B
:1041A00041462846FFF7D2FB78B1206A6169884210
:1041B00002D294F8280020B341462846FFF7CBFBF3
:1041C000616911B12046FFF73BFF4FF4A2784146E9
:1041D0002846FFF7BBFB002818D041462846FFF7CA
:1041E000BAFB94F8290000B12F60A06900280DD017
:1041F000A661E268616A04B02046BDE8F047FFF7B7
:1042000092BE21462846FFF70BFFDEE7BDE8FF8799
:104210001FB50A4601788DF8001041680191017AB6
:104220008DF80810C0680390044850F82210083830
:1042300050F82220684690471FBD0000140000205F
:104240002DE9FF410C464FF4927706463946FFF7B9
:104250008EFB0025B8B139463046FFF78DFB0220B2
:104260008DF80000D6F88004C6F880040390D6F8D4
:104270003C050290E0680190A561E561D4E9001277
:104280006846904723E04FF4887739463046FFF779
:104290006EFBE0B139463046FFF76EFBD6F83C15B1
:1042A000A069884213D1E06960B1E268D6F80002E3
:1042B00020F02000C6F80002E069A0612069E561F5
:1042C000E06001E0A561E2682046FFF737FE4FF4A9
:1042D000A27739463046FFF74AFB68B13946304687
:1042E000FFF74AFBA06938B1A561E561D6F83C1536
:1042F0002046E268FFF722FE4FF4907739463046B9
:10430000FFF735FB002812D039463046FFF734FB63
:10431000606900280BD0D6F84C058DF8005002904B
:10432000A06801906561D4E9001268469047BDE835
:10433000FF8100002DE9F05F8346DDE90A4A9946D6
:1043400090460D460846012703E000BFB0FBF8F099
:104350007F1C4045FAD2B94500D94F465FEACA7082
:1043600012D18CB15FEA8A7002D5B9F1000F01D089
:10437000202607E0302605E031465846641EFEF749
:10438000EBF80CB1A742F7D35FF00106B9F1010FCA
:1043900002D9A9F1010903E0B5FBF6F0404502D3CB
:1043A00006FB08F6F2E7DFF83C9000BFB5FBF6F03D
:1043B00000FB165519F800105846FEF7CDF8B6FB6D
:1043C000F8F6002EF2D15FEACA7009D0002C07D0AF
:1043D000A74205D220215846641EFEF7BDF8F5E736
:1043E000BDE8F09F00440000000000000000000055
:1043F0000338FDD870470000D9390000313C000077
:10440000303132333435363738394142434445460A
:10441000753200004932000041320000FFFFFFFF0B
:10442000FFFFFFFFFFFFFFFFFFFFFFFF0000000098
:10443000000000000000D60106010000FC0400207E
:104440007F0000007C050020400000005844000070
:1044500058460000380000000000803F00000000C7
:104460006DC47E3F36BDC83DBE147B3FC2C5473ECE
:104470000BFA743F31A0943E5E836C3F15EFC33E50
:1044800098C5613FEA5AF13E31DB543FDA390E3FBD
:1044900003E4453F9967223FF304353FF304353F7A
:1044A0009967223F03E4453FDA390E3F31DB543F41
:1044B000EA5AF13E98C5613F15EFC33E5E836C3FFB
:1044C00031A0943E0BFA743FC2C5473EBE147B3FF9
:1044D00036BDC83D6DC47E3F000000000000803F37
:1044E00036BDC8BD6DC47E3FC2C547BEBE147B3F4E
:1044F00031A094BE0BFA743F15EFC3BE5E836C3FD0
:10450000EA5AF1BE98C5613FDA390EBF31DB543F3C
:10451000996722BF03E4453FF30435BFF304353FF9
:1045200003E445BF9967223F31DB54BFDA390E3FC0
:1045300098C561BFEA5AF13E5E836CBF15EFC33E7A
:104540000BFA74BF31A0943EBE147BBFC2C5473E78
:104550006DC47EBF36BDC83D000080BF00000000B6
:104560006DC47EBF36BDC8BDBE147BBFC2C547BECD
:104570000BFA74BF31A094BE5E836CBF15EFC3BE4F
:1045800098C561BFEA5AF1BE31DB54BFDA390EBFBC
:1045900003E445BF996722BFF30435BFF30435BF79
:1045A000996722BF03E445BFDA390EBF31DB54BF40
:1045B000EA5AF1BE98C561BF15EFC3BE5E836CBFFA
:1045C00031A094BE0BFA74BFC2C547BEBE147BBFF8
:1045D00036BDC8BD6DC47EBF00000080000080BF36
:1045E00036BDC83D6DC47EBFC2C5473EBE147BBF4D
:1045F00031A0943E0BFA74BF15EFC33E5E836CBFCF
:10460000EA5AF13E98C561BFDA390E3F31DB54BF3B
:104610009967223F03E445BFF304353FF30435BFF8
:1046200003E4453F996722BF31DB543FDA390EBFBF
:1046300098C5613FEA5AF1BE5E836C3F15EFC3BE79
:104640000BFA743F31A094BEBE147B3FC2C547BE77
:104650006DC47E3F36BDC8BD08004000100080001C
:104660001800C00020000001280040013000800137
:104670003800C001500088005800C80060000801E0
:1046800068004801700088017800C8019800D000D7
:10469000A0001001A8005001B0009001B800D001A6
:1046A000E0001801E8005801F0009801F800D80176
:1046B000280160013001A0013801E0017001A8016A
:1046C0007801E801B801F00100404040404040401E
:1046D00040404141414141404040404040404040D5
:1046E0004040404040404040400502020202020279
:1046F00002020202020202020220202020202020C8
:1047000020202002020202020202909090909090DB
:104710001010101010101010101010101010101099
:10472000101010100202020202028888888888880D
:1047300008080808080808080808080808080808F9
:10474000080808080202020240000000C9460000F2
:104750004C5555555555A53F7751C1166CC156BF9F
:104760009015CB19A001FA3EAD529C804F7E92BEAF
:10477000C4B1B4BD9EEE213ED43888BEE9FAA8BDCE
:1047800000004054FB21F93F3163621A61B4D03D0F
:104790000000601A61B4D03D7370032E8A19A33BE8
:1047A0000000002E8A19A33BC14920259A837B393A
:1047B00000000000000000006E83F9A22915444E9D
:1047C000D15727FCC0DD34F5999562DB4190433C1D
:1047D000AB6351FE61C5BBDE3A6E24B7E0D24D42F9
:1047E000EA2E49061C92D1091CEB1DFE3EA729B1F9
:1047F000F53582E88444BB2E26709CE9417E5FB487
:1048000039D69139F43953838B5F849C3B28F9BDA9
:10481000FF97F81F0F9805DE8B112FEF1F6D0A5AB7
:10482000CF7E366DB709CB27663F464F2DEA5F9E98
:10483000C7BA27757BF1E5EBF739073DEA92528A53
:10484000B15FFB6B085D8D1FA6F810111111813F40
:10485000D561C119A0012ABF7DFEB157E31DC73E36
:10486000EB9C2B8AE6E55ABE7CD5CF5A3AD9E53D7A
:104870007761726E696E670064656275670000003B
:104880001B5B313B33306D001B5B306D0000000063
:104890001B5B313B33316D001B5B313B33326D00B1
:1048A0001B5B313B33336D001B5B313B33346D009D
:1048B0001B5B313B33356D001B5B313B33366D0089
:1048C0001B5B313B33376D00696E666F0000000083
:1048D0006572726F7200000050525300554152547D
:1048E000000000005541525445000000756172748B
:1048F0005F6C6F675F6261636B656E6400000000F0
:10490000617070006849000000000020AC000000E9
:10491000F0220000144A0000AC0000200C49000006
:10492000002300001044000000000000EC480000DC
:1049300040000020D848000000000000DC480000D3
:1049400000000000E44800000000000000490000F2
:104950000000030350000020480000205000002009
:104960003C040020180000000000000001000000CE
:104970000000000000000000000000000000000037
:104980000000000000000000000000000000000027
:1049900000000000000000000020004000000000B7
:1049A000002000400000000000000000FF000000A8
:1049B00000000000000000000000000000000000F7
:1049C000000000000000000000000000D0480000CF
:1049D00070480000C848000078480000884800007F
:1049E000804800009048000098480000A04800005F
:1049F000A8480000B0480000B8480000C0480000C7
:104A00000090D00300000000000000000000000043
:044A100000000000A2
:04000005000002C134
:00000001FF
