:020000040000FA
:1000000088200020150200001D0200001F020000D1
:100010002102000023020000250200000000000071
:1000200000000000000000000000000027020000A7
:1000300029020000000000002B0200002D02000039
:100040002F0200002F0200002F0200002F020000EC
:100050002F0200002F0200005D0200002F020000AE
:10006000D90500002F0200002F0200002F0200001F
:100070002F0200002F0200002F0200002F020000BC
:100080002F0200002F0200002F0200002F020000AC
:100090002F0200002F0200002F0200002F0200009C
:1000A0002F0200002F0200002F0200002F0200008C
:1000B0002F0200002F0200000000000000000000DE
:1000C0002F0200002F0200002F0200002F0200006C
:1000D0002F0200002F0200002F0200002F0200005C
:1000E0002F0200002F0200002F020000000000007D
:1000F000000000002F020000000000002F0200009E
:1001000000000000000000000000000000000000EF
:1001100000000000000000000000000000000000DF
:1001200000000000000000000000000000000000CF
:1001300000000000000000000000000000000000BF
:1001400000000000000000000000000000000000AF
:10015000000000000000000000000000000000009F
:10016000000000000000000000000000000000008F
:10017000000000000000000000000000000000007F
:10018000000000000000000000000000000000006F
:10019000000000000000000000000000000000005F
:1001A000000000000000000000000000000000004F
:1001B000000000000000000000000000000000003F
:1001C000000000000000000000000000000000002F
:1001D000000000000000000000000000000000001F
:1001E000000000000000000000000000000000000F
:1001F00000000000000000000000000000000000FF
:10020000DFF80CD000F018F800480047C9070000DC
:10021000882000200648804706480047FEE7FEE7A2
:10022000FEE7FEE7FEE7FEE7FEE7FEE7FEE7FEE7A6
:10023000FD03000001020000064C074D06E0E068E7
:1002400040F0010394E8070098471034AC42F6D31D
:10025000FFF7DAFFD40C0000F40C00002DE9F04F9A
:1002600000258BB0DFF88C81A94606954FF4807687
:1002700001242F460795304600F05CFB38B1D8F8D2
:100280000403204203D0304600F04AFB2543361DCC
:1002900064007F1CB6B2082FEDD34FF4BE74204625
:1002A00000F048FB48B1204600F03AFB45F000451D
:1002B00006AA0221002000F01DFB4F4E15F0FF0F93
:1002C00015D0012700242F420DD008EB8401D1F86E
:1002D0001005D1F81015C0F3052056F82420C1F3FD
:1002E000014102B190477F00641C082CEBD3002D24
:1002F00046DA0020CDF82090411E0DF1180A04AC1A
:100300000DF1040BCDF8249044F82010401C022875
:10031000FAD396F85470002578B227F0C008401C34
:100320002ED004A9404600F073FA002828D04FEAE6
:100330009719404600F0F4F956F820701FB1B9F152
:10034000030F03D006E0B9F1030F19D108A9404605
:1003500000F066FA02A8CDF8088000F0B3FA02991E
:1003600000EB8100D0F8000706A9C0F3014002901D
:10037000404600F04DFA0028029804D0022804D02C
:100380000BB0BDE8F08F0328FAD1B9F1030F07D104
:100390000298022828D00221404600F070FA012578
:1003A00017B149464046B847002DE9D001AA0221BD
:1003B000002000F09FFA00205246594652F8207063
:1003C00051F82030BB4211D0002008AB51F820700A
:1003D00042F8207053F8207044F82070401C022826
:1003E000F4D3002D95D1CBE70321D5E7401C02289B
:1003F000E4D3C5E7006000401C00002030B54FF09A
:10040000805000228300D0F83011C3F80C21C3F8CB
:100410001021624B1A60624B1B68624C2360604B78
:100420001B1D1B68241D23605D4B08331B68241DA6
:1004300023605B4B0C331B68241D2360584B103327
:100440001B68241D2360564B14331B68241D236036
:10045000534B18331B68534C20342360504B1C33D0
:100460001B68241D23604E4B20331B68241D236012
:100470004B4B24331B68241D2360494B28331B68D6
:10048000241D2360464B2C331B68241D2360444BE2
:1004900030331B68434C40342360414B34331B687A
:1004A000241D23603E4B38331B68241D23603C4BC6
:1004B0003C331B68241D2360394B40331B68241DCB
:1004C00023600123082902D1D0F8344114B108294E
:1004D00004D006E0354C3449216005E0D0F83441C1
:1004E00014B1082904D006E0314CFB21216005E05D
:1004F000D0F8344114B1082908D00EE090F85842E1
:100500002C48016864F30301016002E0D0F8344133
:100510001CB929494FF40070086028480168C907D0
:1005200002D06FF0010101602548016841F47001BB
:100530000160BFF34F8FBFF36F8F4FF01021D1F8E1
:100540000002002803DBD1F80402002822DA1D4C47
:1005500023601D480368002BFCD01223C1F8003231
:100560000568002DFCD0C1F8043201680029FCD0D8
:10057000226001680029FCD0BFF34F8F10487C38FF
:100580000168124A01F4E06111430160BFF34F8F2B
:1005900000BFFDE70F490E48086030BD3805004038
:1005A0000404001020C50040488103008C56004020
:1005B00018F50040E40E0040409602400004004060
:1005C00088ED00E004E5014000E401400400FA0584
:1005D0000090D003180000202DE9F047104E0427AA
:1005E00000244FF4A0784FF4803900BF08EB840555
:1005F00009FA04F0715961B1D6F80413014208D028
:100600002946304600F09EF90648D0E900212846E8
:100610009047641CE4B2BC42E8D3BDE8F087000018
:10062000008000407800002002E008C8121F08C1C6
:10063000002AFAD170477047002001E001C1121F63
:10064000002AFBD17047000072B609480068C00755
:1006500000D000BEBFF34F8F0548E4380168054A5B
:1006600001F4E06111430160BFF34F8F00BFFDE76C
:10067000F0ED00E00400FA050EB500210091CDE98F
:1006800001106A4644F20100FFF7DEFF0EBD00F0E4
:1006900003B800F009B8000072B602480168491CAE
:1006A000016070471400002003490868401E08607C
:1006B00000D162B6704700001400002005494FF0D9
:1006C000FF32082841F8202002D3084480F84C204B
:1006D000704700001C000020F0B54FF0FF3512B14C
:1006E0000023082601E0082309260C4C05E000BF82
:1006F00054F823707F1C04D05B1CB342F8D3284607
:10070000F0BD26185DB286F8245044F82310002A64
:10071000F5D1E11881F84C00F1E700001C00002041
:100720000249084490F92400704700001C00002092
:100730000121814003484068014201D001207047F7
:10074000002070470C00002001218140080300D0E8
:10075000012070473EB5194802A9006802900D209B
:1007600000F02CF908B1FFF787FF00200146009048
:100770000123134A134800F02DFA01A800F098F95C
:1007800008B1FFF779FF0F4804680D2004F5A07445
:1007900000F072F9024621469DF8040000F0B8F915
:1007A00008B1FFF769FF9DF8040000F0D3F908B124
:1007B000FFF762FF0D2000F069F93EBDC00C00009C
:1007C000400D0300000000201CB500F033F808B114
:1007D000FFF752FF00F0BCF808B1FFF74DFF0949E1
:1007E000094AD1E90101CDE900016946074800F055
:1007F00007FA08B1FFF740FFFFF7ACFF034800F02E
:10080000DBF9FEE7C00C0000BD0C0000000000207A
:10081000C20800F007030120895C98400840704737
:1008200010B5C20800F00703885C01249C402043F7
:10083000885410BD0448017809B185207047012112
:100840000170002070470000080000202DE9FF41E2
:100850001C46DDE90A7815460E46684600F032F877
:1008600046EA450141EA840141EA072242EA084199
:10087000009A00EB8200C0F80017BDE8FF8113B5B5
:100880000C46684600F01EF8009900EB8101D1F893
:10089000002722F44032C1F80027009900EB8100C4
:1008A000D0F8001741EA0441C0F800171CBD01B59B
:1008B000684600F007F8009A01219140C0F80C1535
:1008C00008BD00000168202902D24FF0A040704707
:1008D00001F01F0101600148704700000003005053
:1008E00001B56846FFF7EEFF009A01219140C0F87C
:1008F000081508BD1CB5094C0144D4E90034CDE904
:1009000000346C4606E000BF54F82030D3F81035B0
:10091000401C08C28142F7D81CBD0000CC0C00006E
:10092000034908B50844002101600068009008BD33
:100930000060004002494058012800D00020704764
:100940000060004008B5002242504058009008BDA9
:1009500070B5174D95F85B0008B1082070BD0020F8
:10096000411E2A18401CC0B282F824103028F8D347
:1009700000242046FFF7A2FE641CE4B2092CF8D341
:10098000002445F8554F0B49AC80C02081F8000485
:1009900001264020891FC1F800014FF4BE70FFF707
:1009A000BFFF0549F007C1F80403AE71204670BDD2
:1009B0001C00002006E000E0006000402DE9FC4142
:1009C00004462A480D462044002690F92410491C6C
:1009D00001D0082643E0A978002751B30122002165
:1009E0002046FFF779FE411C21D0830020482A7859
:1009F00018446978D0F81035DFF878C003EA0C03A2
:100A0000C0F81035D0F810354FF47C5C0CEA042C9B
:100A100043EA0C034FF4403C0CEA02424FF4801CC2
:100A20000CEA01510A431343C0F8103504E00426D0
:100A300015E0FE2180F8241068780128204611D0A6
:100A4000FFF735FF0122204600970023114601974A
:100A5000FFF7FCFE054920465531FFF7E1FE304621
:100A6000BDE8FC81FFF73CFFECE700001C00002024
:100A700000600040FFC0ECFF10B5FFF751FE0249D7
:100A8000800601EB106010BD00600040064908447C
:100A900090F92400810005480844D0F8101541F071
:100AA0000301C0F8101570471C00002000600040D2
:100AB0002DE9F0470427144E814600244FF0010829
:100AC0000020FFF7E4FD08FA04F5354203D0204684
:100AD000FFF72EFE58B10020FFF7DBFD27B104F130
:100AE0000104AE43E4B2EBD13846BDE8F0870749D4
:100AF00008FA04F000274A681043486089F800406B
:100B00003846FFF7C6FDEFE7FFFF0F000C0000209F
:100B10002DE9F04114460D00074612D08CB1002695
:100B2000FFF712FE78B13846FFF702FE68B10848B9
:100B300000EBC700C0F81055C0F814453046BDE8BA
:100B4000F0810E20FBE70726F8E70826F6E700000D
:100B500000F0014070B5044601260025A640FFF7CD
:100B6000F3FD18B12046FFF7E3FD18B10248066017
:100B7000284670BD0825FBE704F501402DE9F0414A
:100B800006460D464FF4803400681746AC404BB122
:100B90004FF4A07101EB8501FFF7D4FE3068C0F877
:100BA000044301E0C0F80843306800EB8500C0F85A
:100BB0004075BDE8F0810000016801220A600079FB
:100BC000034A00EB400002EB8000022101727047F3
:100BD00078000020F0B40468049E40F20115D4F8B7
:100BE00000728D40AF43C4F800720468D4F800521C
:100BF0001D43C4F800523346F0BCFFF7BFBF0000EE
:100C00002DE9F04104460E4600792B4900EB4000E7
:100C100001EB8007387A10B10820BDE8F0813A6016
:100C2000706800254FF4A078786006E008EB850135
:100C30002068FFF787FE6D1CEDB26079A842F5D8F9
:100C40002068F17840F3073000284FEA411106DAB6
:100C500000F00F0000F1E02080F8141D03E000F127
:100C6000E02080F800142068012140F3073000F0F4
:100C70001F0201FA02F24009800000F1E020C0F8F2
:100C8000002120687278D0F8043562F30103C0F8BF
:100C900004352068B278D0F8083562F30103C0F853
:100CA000083520683278D0F8103562F30303C0F8B5
:100CB000103539720020B0E778000020704700003E
:100CC00003000100040003060000000000000050C3
:100CD00000030050F40C0000000000201C00000085
:100CE00028060000100D00001C0000206C200000F1
:100CF00038060000008000400004000000000000F2
:100D00000000000000000000000000000090D00380
:0400000500000201F4
:00000001FF
